{
  "contracts/OpenQ/Implementations/OpenQV1.sol": {
    "OpenQV1": {
      "abi": [
        {
          "anonymous": false,
          "inputs": [
            {
              "indexed": false,
              "internalType": "string",
              "name": "bountyId",
              "type": "string"
            },
            {
              "indexed": false,
              "internalType": "string",
              "name": "organization",
              "type": "string"
            },
            {
              "indexed": false,
              "internalType": "address",
              "name": "bountyAddress",
              "type": "address"
            },
            {
              "indexed": false,
              "internalType": "address",
              "name": "payoutAddress",
              "type": "address"
            },
            {
              "indexed": false,
              "internalType": "uint256",
              "name": "bountyClosedTime",
              "type": "uint256"
            }
          ],
          "name": "BountyClosed",
          "type": "event"
        },
        {
          "anonymous": false,
          "inputs": [
            {
              "indexed": false,
              "internalType": "string",
              "name": "bountyId",
              "type": "string"
            },
            {
              "indexed": false,
              "internalType": "string",
              "name": "organization",
              "type": "string"
            },
            {
              "indexed": false,
              "internalType": "address",
              "name": "issuerAddress",
              "type": "address"
            },
            {
              "indexed": false,
              "internalType": "address",
              "name": "bountyAddress",
              "type": "address"
            },
            {
              "indexed": false,
              "internalType": "uint256",
              "name": "bountyMintTime",
              "type": "uint256"
            }
          ],
          "name": "BountyCreated",
          "type": "event"
        },
        {
          "anonymous": false,
          "inputs": [
            {
              "indexed": false,
              "internalType": "string",
              "name": "bountyId",
              "type": "string"
            },
            {
              "indexed": false,
              "internalType": "string",
              "name": "organization",
              "type": "string"
            },
            {
              "indexed": false,
              "internalType": "address",
              "name": "bountyAddress",
              "type": "address"
            },
            {
              "indexed": false,
              "internalType": "address",
              "name": "tokenAddress",
              "type": "address"
            },
            {
              "indexed": false,
              "internalType": "address",
              "name": "payoutAddress",
              "type": "address"
            },
            {
              "indexed": false,
              "internalType": "uint256",
              "name": "volume",
              "type": "uint256"
            },
            {
              "indexed": false,
              "internalType": "uint256",
              "name": "payoutTime",
              "type": "uint256"
            }
          ],
          "name": "BountyPaidout",
          "type": "event"
        },
        {
          "anonymous": false,
          "inputs": [
            {
              "indexed": false,
              "internalType": "string",
              "name": "bountyId",
              "type": "string"
            },
            {
              "indexed": false,
              "internalType": "string",
              "name": "organization",
              "type": "string"
            },
            {
              "indexed": false,
              "internalType": "address",
              "name": "bountyAddress",
              "type": "address"
            },
            {
              "indexed": false,
              "internalType": "address",
              "name": "tokenAddress",
              "type": "address"
            },
            {
              "indexed": false,
              "internalType": "address",
              "name": "sender",
              "type": "address"
            },
            {
              "indexed": false,
              "internalType": "uint256",
              "name": "volume",
              "type": "uint256"
            },
            {
              "indexed": false,
              "internalType": "uint256",
              "name": "receiveTime",
              "type": "uint256"
            }
          ],
          "name": "DepositReceived",
          "type": "event"
        },
        {
          "anonymous": false,
          "inputs": [
            {
              "indexed": false,
              "internalType": "string",
              "name": "bountyId",
              "type": "string"
            },
            {
              "indexed": false,
              "internalType": "string",
              "name": "organization",
              "type": "string"
            },
            {
              "indexed": false,
              "internalType": "address",
              "name": "bountyAddress",
              "type": "address"
            },
            {
              "indexed": false,
              "internalType": "address",
              "name": "tokenAddress",
              "type": "address"
            },
            {
              "indexed": false,
              "internalType": "address",
              "name": "sender",
              "type": "address"
            },
            {
              "indexed": false,
              "internalType": "uint256",
              "name": "volume",
              "type": "uint256"
            },
            {
              "indexed": false,
              "internalType": "uint256",
              "name": "refundTime",
              "type": "uint256"
            }
          ],
          "name": "DepositRefunded",
          "type": "event"
        },
        {
          "anonymous": false,
          "inputs": [
            {
              "indexed": true,
              "internalType": "address",
              "name": "previousOwner",
              "type": "address"
            },
            {
              "indexed": true,
              "internalType": "address",
              "name": "newOwner",
              "type": "address"
            }
          ],
          "name": "OwnershipTransferred",
          "type": "event"
        },
        {
          "inputs": [
            {
              "internalType": "address",
              "name": "",
              "type": "address"
            }
          ],
          "name": "bountyAddressToBountyId",
          "outputs": [
            {
              "internalType": "string",
              "name": "",
              "type": "string"
            }
          ],
          "stateMutability": "view",
          "type": "function"
        },
        {
          "inputs": [
            {
              "internalType": "string",
              "name": "",
              "type": "string"
            }
          ],
          "name": "bountyIdToAddress",
          "outputs": [
            {
              "internalType": "address",
              "name": "",
              "type": "address"
            }
          ],
          "stateMutability": "view",
          "type": "function"
        },
        {
          "inputs": [
            {
              "internalType": "string",
              "name": "id_",
              "type": "string"
            }
          ],
          "name": "bountyIsOpen",
          "outputs": [
            {
              "internalType": "bool",
              "name": "",
              "type": "bool"
            }
          ],
          "stateMutability": "view",
          "type": "function"
        },
        {
          "inputs": [
            {
              "internalType": "string",
              "name": "_id",
              "type": "string"
            },
            {
              "internalType": "address",
              "name": "_payoutAddress",
              "type": "address"
            }
          ],
          "name": "claimBounty",
          "outputs": [],
          "stateMutability": "nonpayable",
          "type": "function"
        },
        {
          "inputs": [
            {
              "internalType": "address",
              "name": "_bountyAddress",
              "type": "address"
            },
            {
              "internalType": "address",
              "name": "_tokenAddress",
              "type": "address"
            },
            {
              "internalType": "uint256",
              "name": "_volume",
              "type": "uint256"
            }
          ],
          "name": "fundBounty",
          "outputs": [
            {
              "internalType": "bool",
              "name": "success",
              "type": "bool"
            }
          ],
          "stateMutability": "nonpayable",
          "type": "function"
        },
        {
          "inputs": [
            {
              "internalType": "string",
              "name": "_id",
              "type": "string"
            }
          ],
          "name": "getBountyAddress",
          "outputs": [
            {
              "internalType": "address",
              "name": "",
              "type": "address"
            }
          ],
          "stateMutability": "view",
          "type": "function"
        },
        {
          "inputs": [
            {
              "internalType": "string",
              "name": "_id",
              "type": "string"
            },
            {
              "internalType": "string",
              "name": "_organization",
              "type": "string"
            }
          ],
          "name": "mintBounty",
          "outputs": [
            {
              "internalType": "address",
              "name": "bountyAddress",
              "type": "address"
            }
          ],
          "stateMutability": "nonpayable",
          "type": "function"
        },
        {
          "inputs": [],
          "name": "owner",
          "outputs": [
            {
              "internalType": "address",
              "name": "",
              "type": "address"
            }
          ],
          "stateMutability": "view",
          "type": "function"
        },
        {
          "inputs": [
            {
              "internalType": "address",
              "name": "_bountyAddress",
              "type": "address"
            }
          ],
          "name": "refundBountyDeposits",
          "outputs": [
            {
              "internalType": "bool",
              "name": "success",
              "type": "bool"
            }
          ],
          "stateMutability": "nonpayable",
          "type": "function"
        },
        {
          "inputs": [],
          "name": "renounceOwnership",
          "outputs": [],
          "stateMutability": "nonpayable",
          "type": "function"
        },
        {
          "inputs": [
            {
              "internalType": "address",
              "name": "newOwner",
              "type": "address"
            }
          ],
          "name": "transferOwnership",
          "outputs": [],
          "stateMutability": "nonpayable",
          "type": "function"
        }
      ],
      "evm": {
        "bytecode": {
          "linkReferences": {},
          "object": "60806040523480156200001157600080fd5b5062000032620000266200003860201b60201c565b6200004060201b60201c565b62000104565b600033905090565b60008060009054906101000a900473ffffffffffffffffffffffffffffffffffffffff169050816000806101000a81548173ffffffffffffffffffffffffffffffffffffffff021916908373ffffffffffffffffffffffffffffffffffffffff1602179055508173ffffffffffffffffffffffffffffffffffffffff168173ffffffffffffffffffffffffffffffffffffffff167f8be0079c531659141344cd1fd0a4f28419497f9722a3daafe3b4186f6b6457e060405160405180910390a35050565b61559780620001146000396000f3fe60806040523480156200001157600080fd5b5060043610620000b85760003560e01c806348bd1e99116200007b57806348bd1e9914620001b5578063715018a614620001eb5780638da5cb5b14620001f7578063f2fde38b1462000219578063fcedbecf1462000239578063fd1b2e3f146200026f57620000b8565b806310fd86c814620000bd5780631b78031214620000f35780631b967a1914620001295780631ee290fb146200015f5780633e7da1a91462000195575b600080fd5b620000db6004803603810190620000d5919062001bf3565b620002a5565b604051620000ea919062001cc9565b60405180910390f35b6200011160048036038101906200010b919062001bf3565b6200034d565b60405162000120919062001d0a565b60405180910390f35b62000147600480360381019062000141919062001d62565b62000a2c565b60405162000156919062001d0a565b60405180910390f35b6200017d600480360381019062000177919062001e2c565b62000d93565b6040516200018c919062001ecb565b60405180910390f35b620001b36004803603810190620001ad919062001ee8565b62000f8a565b005b620001d36004803603810190620001cd91906200209e565b6200164c565b604051620001e2919062001ecb565b60405180910390f35b620001f562001695565b005b6200020162001726565b60405162000210919062001ecb565b60405180910390f35b62000237600480360381019062000231919062001bf3565b6200174f565b005b620002576004803603810190620002519190620020ef565b62001853565b60405162000266919062001ecb565b60405180910390f35b6200028d60048036038101906200028791906200209e565b620018a0565b6040516200029c919062001d0a565b60405180910390f35b60026020528060005260406000206000915090508054620002c69062002173565b80601f0160208091040260200160405190810160405280929190818152602001828054620002f49062002173565b8015620003455780601f10620003195761010080835404028352916020019162000345565b820191906000526020600020905b8154815290600101906020018083116200032757829003601f168201915b505050505081565b60008082905060011515620003e88273ffffffffffffffffffffffffffffffffffffffff1663c17bd75e6040518163ffffffff1660e01b815260040160006040518083038186803b158015620003a257600080fd5b505afa158015620003b7573d6000803e3d6000fd5b505050506040513d6000823e3d601f19601f82011682018060405250810190620003e2919062002227565b620018a0565b1515146200042d576040517f08c379a00000000000000000000000000000000000000000000000000000000081526004016200042490620022ee565b60405180910390fd5b8073ffffffffffffffffffffffffffffffffffffffff1663f16b51c16040518163ffffffff1660e01b815260040160206040518083038186803b1580156200047457600080fd5b505afa15801562000489573d6000803e3d6000fd5b505050506040513d601f19601f82011682018060405250810190620004af919062002327565b8173ffffffffffffffffffffffffffffffffffffffff1663995280b06040518163ffffffff1660e01b815260040160206040518083038186803b158015620004f657600080fd5b505afa1580156200050b573d6000803e3d6000fd5b505050506040513d601f19601f8201168201806040525081019062000531919062002327565b6200053d919062002388565b42101562000582576040517f08c379a0000000000000000000000000000000000000000000000000000000008152600401620005799062002435565b60405180910390fd5b600115158173ffffffffffffffffffffffffffffffffffffffff1663b0100cf7336040518263ffffffff1660e01b8152600401620005c1919062001ecb565b60206040518083038186803b158015620005da57600080fd5b505afa158015620005ef573d6000803e3d6000fd5b505050506040513d601f19601f8201168201806040525081019062000615919062002488565b1515146200065a576040517f08c379a0000000000000000000000000000000000000000000000000000000008152600401620006519062002530565b60405180910390fd5b60005b8173ffffffffffffffffffffffffffffffffffffffff16631bef5505336040518263ffffffff1660e01b815260040162000698919062001ecb565b60006040518083038186803b158015620006b157600080fd5b505afa158015620006c6573d6000803e3d6000fd5b505050506040513d6000823e3d601f19601f82011682018060405250810190620006f191906200263f565b5181101562000a215760008273ffffffffffffffffffffffffffffffffffffffff16634b8022b233846040518363ffffffff1660e01b815260040162000739929190620026a1565b60206040518083038186803b1580156200075257600080fd5b505afa15801562000767573d6000803e3d6000fd5b505050506040513d601f19601f820116820180604052508101906200078d9190620026ce565b905060008373ffffffffffffffffffffffffffffffffffffffff16636216753b33846040518363ffffffff1660e01b8152600401620007ce92919062002700565b60206040518083038186803b158015620007e757600080fd5b505afa158015620007fc573d6000803e3d6000fd5b505050506040513d601f19601f8201168201806040525081019062000822919062002327565b90508373ffffffffffffffffffffffffffffffffffffffff166329ffef1533846040518363ffffffff1660e01b81526004016200086192919062002700565b602060405180830381600087803b1580156200087c57600080fd5b505af115801562000891573d6000803e3d6000fd5b505050506040513d601f19601f82011682018060405250810190620008b7919062002488565b507f4211ead49bf362672e4351d6e542f467b16d61128c523d3a6710cd20a89a894b8473ffffffffffffffffffffffffffffffffffffffff1663c17bd75e6040518163ffffffff1660e01b815260040160006040518083038186803b1580156200092057600080fd5b505afa15801562000935573d6000803e3d6000fd5b505050506040513d6000823e3d601f19601f8201168201806040525081019062000960919062002227565b8573ffffffffffffffffffffffffffffffffffffffff166323bd4d7a6040518163ffffffff1660e01b815260040160006040518083038186803b158015620009a757600080fd5b505afa158015620009bc573d6000803e3d6000fd5b505050506040513d6000823e3d601f19601f82011682018060405250810190620009e7919062002227565b888533864260405162000a0197969594939291906200272d565b60405180910390a15050808062000a1890620027b8565b9150506200065d565b506001915050919050565b6000808490506001151562000ac78273ffffffffffffffffffffffffffffffffffffffff1663c17bd75e6040518163ffffffff1660e01b815260040160006040518083038186803b15801562000a8157600080fd5b505afa15801562000a96573d6000803e3d6000fd5b505050506040513d6000823e3d601f19601f8201168201806040525081019062000ac1919062002227565b620018a0565b15151462000b0c576040517f08c379a000000000000000000000000000000000000000000000000000000000815260040162000b0390620022ee565b60405180910390fd5b6000600260008773ffffffffffffffffffffffffffffffffffffffff1673ffffffffffffffffffffffffffffffffffffffff168152602001908152602001600020805462000b5a9062002173565b9050141562000ba0576040517f08c379a000000000000000000000000000000000000000000000000000000000815260040162000b97906200287c565b60405180910390fd5b8073ffffffffffffffffffffffffffffffffffffffff1663b9df819f3386866040518463ffffffff1660e01b815260040162000bdf939291906200289e565b602060405180830381600087803b15801562000bfa57600080fd5b505af115801562000c0f573d6000803e3d6000fd5b505050506040513d601f19601f8201168201806040525081019062000c35919062002488565b507f3349ee137a7ac00a8441ce0944c2afba5d9be645f5f7be945ec0760dd68431ad8173ffffffffffffffffffffffffffffffffffffffff1663c17bd75e6040518163ffffffff1660e01b815260040160006040518083038186803b15801562000c9e57600080fd5b505afa15801562000cb3573d6000803e3d6000fd5b505050506040513d6000823e3d601f19601f8201168201806040525081019062000cde919062002227565b8273ffffffffffffffffffffffffffffffffffffffff166323bd4d7a6040518163ffffffff1660e01b815260040160006040518083038186803b15801562000d2557600080fd5b505afa15801562000d3a573d6000803e3d6000fd5b505050506040513d6000823e3d601f19601f8201168201806040525081019062000d65919062002227565b878733884260405162000d7f97969594939291906200272d565b60405180910390a160019150509392505050565b60008073ffffffffffffffffffffffffffffffffffffffff166001868660405162000dc09291906200290f565b908152602001604051809103902060009054906101000a900473ffffffffffffffffffffffffffffffffffffffff1673ffffffffffffffffffffffffffffffffffffffff161462000e48576040517f08c379a000000000000000000000000000000000000000000000000000000000815260040162000e3f90620029ec565b60405180910390fd5b848433858560405162000e5b9062001abc565b62000e6b95949392919062002a41565b604051809103906000f08015801562000e88573d6000803e3d6000fd5b509050806001868660405162000ea09291906200290f565b908152602001604051809103902060006101000a81548173ffffffffffffffffffffffffffffffffffffffff021916908373ffffffffffffffffffffffffffffffffffffffff1602179055508484600260008473ffffffffffffffffffffffffffffffffffffffff1673ffffffffffffffffffffffffffffffffffffffff168152602001908152602001600020919062000f3c92919062001aca565b507f9b4ec425461e6b6e22c6b5a40c3fba7c8200dbc1832b92910140d4311872c1398585858533864260405162000f7a979695949392919062002a90565b60405180910390a1949350505050565b62000f94620019f0565b73ffffffffffffffffffffffffffffffffffffffff1662000fb462001726565b73ffffffffffffffffffffffffffffffffffffffff16146200100d576040517f08c379a0000000000000000000000000000000000000000000000000000000008152600401620010049062002b4f565b60405180910390fd5b600060018484604051620010239291906200290f565b908152602001604051809103902060009054906101000a900473ffffffffffffffffffffffffffffffffffffffff169050600081905060011515620010ee8273ffffffffffffffffffffffffffffffffffffffff1663c17bd75e6040518163ffffffff1660e01b815260040160006040518083038186803b158015620010a857600080fd5b505afa158015620010bd573d6000803e3d6000fd5b505050506040513d6000823e3d601f19601f82011682018060405250810190620010e8919062002227565b620018a0565b15151462001133576040517f08c379a00000000000000000000000000000000000000000000000000000000081526004016200112a9062002be7565b60405180910390fd5b60005b8173ffffffffffffffffffffffffffffffffffffffff1663fc5d2cf46040518163ffffffff1660e01b815260040160006040518083038186803b1580156200117d57600080fd5b505afa15801562001192573d6000803e3d6000fd5b505050506040513d6000823e3d601f19601f82011682018060405250810190620011bd91906200263f565b51811015620014e95760008273ffffffffffffffffffffffffffffffffffffffff1663df9229f0836040518263ffffffff1660e01b815260040162001203919062002c09565b60206040518083038186803b1580156200121c57600080fd5b505afa15801562001231573d6000803e3d6000fd5b505050506040513d601f19601f82011682018060405250810190620012579190620026ce565b905060008373ffffffffffffffffffffffffffffffffffffffff1663b588d225836040518263ffffffff1660e01b815260040162001296919062001ecb565b60206040518083038186803b158015620012af57600080fd5b505afa158015620012c4573d6000803e3d6000fd5b505050506040513d601f19601f82011682018060405250810190620012ea919062002327565b90508373ffffffffffffffffffffffffffffffffffffffff166321c0b34287846040518363ffffffff1660e01b81526004016200132992919062002700565b602060405180830381600087803b1580156200134457600080fd5b505af115801562001359573d6000803e3d6000fd5b505050506040513d601f19601f820116820180604052508101906200137f919062002488565b507f115a7a7d5f5cacec69cd610a9eeededb99e12dea6cb7f441fd372ebc0a4519f78473ffffffffffffffffffffffffffffffffffffffff1663c17bd75e6040518163ffffffff1660e01b815260040160006040518083038186803b158015620013e857600080fd5b505afa158015620013fd573d6000803e3d6000fd5b505050506040513d6000823e3d601f19601f8201168201806040525081019062001428919062002227565b8573ffffffffffffffffffffffffffffffffffffffff166323bd4d7a6040518163ffffffff1660e01b815260040160006040518083038186803b1580156200146f57600080fd5b505afa15801562001484573d6000803e3d6000fd5b505050506040513d6000823e3d601f19601f82011682018060405250810190620014af919062002227565b87858a8642604051620014c997969594939291906200272d565b60405180910390a150508080620014e090620027b8565b91505062001136565b508073ffffffffffffffffffffffffffffffffffffffff1663ec05635c846040518263ffffffff1660e01b815260040162001525919062001ecb565b602060405180830381600087803b1580156200154057600080fd5b505af115801562001555573d6000803e3d6000fd5b505050506040513d601f19601f820116820180604052508101906200157b919062002488565b507fd03054905e687534a4568646abd4d931cedd194fe3ab9aa9a91be330968dfbd785858373ffffffffffffffffffffffffffffffffffffffff166323bd4d7a6040518163ffffffff1660e01b815260040160006040518083038186803b158015620015e657600080fd5b505afa158015620015fb573d6000803e3d6000fd5b505050506040513d6000823e3d601f19601f8201168201806040525081019062001626919062002227565b8587426040516200163d9695949392919062002c26565b60405180910390a15050505050565b6001818051602081018201805184825260208301602085012081835280955050505050506000915054906101000a900473ffffffffffffffffffffffffffffffffffffffff1681565b6200169f620019f0565b73ffffffffffffffffffffffffffffffffffffffff16620016bf62001726565b73ffffffffffffffffffffffffffffffffffffffff161462001718576040517f08c379a00000000000000000000000000000000000000000000000000000000081526004016200170f9062002b4f565b60405180910390fd5b620017246000620019f8565b565b60008060009054906101000a900473ffffffffffffffffffffffffffffffffffffffff16905090565b62001759620019f0565b73ffffffffffffffffffffffffffffffffffffffff166200177962001726565b73ffffffffffffffffffffffffffffffffffffffff1614620017d2576040517f08c379a0000000000000000000000000000000000000000000000000000000008152600401620017c99062002b4f565b60405180910390fd5b600073ffffffffffffffffffffffffffffffffffffffff168173ffffffffffffffffffffffffffffffffffffffff16141562001845576040517f08c379a00000000000000000000000000000000000000000000000000000000081526004016200183c9062002d09565b60405180910390fd5b6200185081620019f8565b50565b600060018383604051620018699291906200290f565b908152602001604051809103902060009054906101000a900473ffffffffffffffffffffffffffffffffffffffff16905092915050565b6000803073ffffffffffffffffffffffffffffffffffffffff166348bd1e99846040518263ffffffff1660e01b8152600401620018de919062001cc9565b60206040518083038186803b158015620018f757600080fd5b505afa1580156200190c573d6000803e3d6000fd5b505050506040513d601f19601f82011682018060405250810190620019329190620026ce565b905060008060018111156200194c576200194b62002d2b565b5b8273ffffffffffffffffffffffffffffffffffffffff1663200d2ed26040518163ffffffff1660e01b815260040160206040518083038186803b1580156200199357600080fd5b505afa158015620019a8573d6000803e3d6000fd5b505050506040513d601f19601f82011682018060405250810190620019ce919062002d82565b6001811115620019e357620019e262002d2b565b5b1490508092505050919050565b600033905090565b60008060009054906101000a900473ffffffffffffffffffffffffffffffffffffffff169050816000806101000a81548173ffffffffffffffffffffffffffffffffffffffff021916908373ffffffffffffffffffffffffffffffffffffffff1602179055508173ffffffffffffffffffffffffffffffffffffffff168173ffffffffffffffffffffffffffffffffffffffff167f8be0079c531659141344cd1fd0a4f28419497f9722a3daafe3b4186f6b6457e060405160405180910390a35050565b6127ad8062002db583390190565b82805462001ad89062002173565b90600052602060002090601f01602090048101928262001afc576000855562001b48565b82601f1062001b1757803560ff191683800117855562001b48565b8280016001018555821562001b48579182015b8281111562001b4757823582559160200191906001019062001b2a565b5b50905062001b57919062001b5b565b5090565b5b8082111562001b7657600081600090555060010162001b5c565b5090565b6000604051905090565b600080fd5b600080fd5b600073ffffffffffffffffffffffffffffffffffffffff82169050919050565b600062001bbb8262001b8e565b9050919050565b62001bcd8162001bae565b811462001bd957600080fd5b50565b60008135905062001bed8162001bc2565b92915050565b60006020828403121562001c0c5762001c0b62001b84565b5b600062001c1c8482850162001bdc565b91505092915050565b600081519050919050565b600082825260208201905092915050565b60005b8381101562001c6157808201518184015260208101905062001c44565b8381111562001c71576000848401525b50505050565b6000601f19601f8301169050919050565b600062001c958262001c25565b62001ca1818562001c30565b935062001cb381856020860162001c41565b62001cbe8162001c77565b840191505092915050565b6000602082019050818103600083015262001ce5818462001c88565b905092915050565b60008115159050919050565b62001d048162001ced565b82525050565b600060208201905062001d21600083018462001cf9565b92915050565b6000819050919050565b62001d3c8162001d27565b811462001d4857600080fd5b50565b60008135905062001d5c8162001d31565b92915050565b60008060006060848603121562001d7e5762001d7d62001b84565b5b600062001d8e8682870162001bdc565b935050602062001da18682870162001bdc565b925050604062001db48682870162001d4b565b9150509250925092565b600080fd5b600080fd5b600080fd5b60008083601f84011262001de65762001de562001dbe565b5b8235905067ffffffffffffffff81111562001e065762001e0562001dc3565b5b60208301915083600182028301111562001e255762001e2462001dc8565b5b9250929050565b6000806000806040858703121562001e495762001e4862001b84565b5b600085013567ffffffffffffffff81111562001e6a5762001e6962001b89565b5b62001e788782880162001dcd565b9450945050602085013567ffffffffffffffff81111562001e9e5762001e9d62001b89565b5b62001eac8782880162001dcd565b925092505092959194509250565b62001ec58162001bae565b82525050565b600060208201905062001ee2600083018462001eba565b92915050565b60008060006040848603121562001f045762001f0362001b84565b5b600084013567ffffffffffffffff81111562001f255762001f2462001b89565b5b62001f338682870162001dcd565b9350935050602062001f488682870162001bdc565b9150509250925092565b600080fd5b7f4e487b7100000000000000000000000000000000000000000000000000000000600052604160045260246000fd5b62001f918262001c77565b810181811067ffffffffffffffff8211171562001fb35762001fb262001f57565b5b80604052505050565b600062001fc862001b7a565b905062001fd6828262001f86565b919050565b600067ffffffffffffffff82111562001ff95762001ff862001f57565b5b620020048262001c77565b9050602081019050919050565b82818337600083830152505050565b600062002037620020318462001fdb565b62001fbc565b90508281526020810184848401111562002056576200205562001f52565b5b6200206384828562002011565b509392505050565b600082601f83011262002083576200208262001dbe565b5b81356200209584826020860162002020565b91505092915050565b600060208284031215620020b757620020b662001b84565b5b600082013567ffffffffffffffff811115620020d857620020d762001b89565b5b620020e6848285016200206b565b91505092915050565b6000806020838503121562002109576200210862001b84565b5b600083013567ffffffffffffffff8111156200212a576200212962001b89565b5b620021388582860162001dcd565b92509250509250929050565b7f4e487b7100000000000000000000000000000000000000000000000000000000600052602260045260246000fd5b600060028204905060018216806200218c57607f821691505b60208210811415620021a357620021a262002144565b5b50919050565b6000620021c0620021ba8462001fdb565b62001fbc565b905082815260208101848484011115620021df57620021de62001f52565b5b620021ec84828562001c41565b509392505050565b600082601f8301126200220c576200220b62001dbe565b5b81516200221e848260208601620021a9565b91505092915050565b60006020828403121562002240576200223f62001b84565b5b600082015167ffffffffffffffff81111562002261576200226062001b89565b5b6200226f84828501620021f4565b91505092915050565b7f43616e6e6f74207265717565737420726566756e64206f6e206120636c6f736560008201527f6420626f756e7479000000000000000000000000000000000000000000000000602082015250565b6000620022d660288362001c30565b9150620022e38262002278565b604082019050919050565b600060208201905081810360008301526200230981620022c7565b9050919050565b600081519050620023218162001d31565b92915050565b60006020828403121562002340576200233f62001b84565b5b6000620023508482850162002310565b91505092915050565b7f4e487b7100000000000000000000000000000000000000000000000000000000600052601160045260246000fd5b6000620023958262001d27565b9150620023a28362001d27565b9250827fffffffffffffffffffffffffffffffffffffffffffffffffffffffffffffffff03821115620023da57620023d962002359565b5b828201905092915050565b7f546f6f206561726c7920746f2077697468647261772066756e64730000000000600082015250565b60006200241d601b8362001c30565b91506200242a82620023e5565b602082019050919050565b6000602082019050818103600083015262002450816200240e565b9050919050565b620024628162001ced565b81146200246e57600080fd5b50565b600081519050620024828162002457565b92915050565b600060208284031215620024a157620024a062001b84565b5b6000620024b18482850162002471565b91505092915050565b7f4f6e6c792066756e64657273206f66207468697320626f756e74792063616e2060008201527f7265636c61696d2066756e647320616674657220333020646179732e00000000602082015250565b600062002518603c8362001c30565b91506200252582620024ba565b604082019050919050565b600060208201905081810360008301526200254b8162002509565b9050919050565b600067ffffffffffffffff82111562002570576200256f62001f57565b5b602082029050602081019050919050565b600081519050620025928162001bc2565b92915050565b6000620025af620025a98462002552565b62001fbc565b90508083825260208201905060208402830185811115620025d557620025d462001dc8565b5b835b81811015620026025780620025ed888262002581565b845260208401935050602081019050620025d7565b5050509392505050565b600082601f83011262002624576200262362001dbe565b5b81516200263684826020860162002598565b91505092915050565b60006020828403121562002658576200265762001b84565b5b600082015167ffffffffffffffff81111562002679576200267862001b89565b5b62002687848285016200260c565b91505092915050565b6200269b8162001d27565b82525050565b6000604082019050620026b8600083018562001eba565b620026c7602083018462002690565b9392505050565b600060208284031215620026e757620026e662001b84565b5b6000620026f78482850162002581565b91505092915050565b600060408201905062002717600083018562001eba565b62002726602083018462001eba565b9392505050565b600060e082019050818103600083015262002749818a62001c88565b905081810360208301526200275f818962001c88565b905062002770604083018862001eba565b6200277f606083018762001eba565b6200278e608083018662001eba565b6200279d60a083018562002690565b620027ac60c083018462002690565b98975050505050505050565b6000620027c58262001d27565b91507fffffffffffffffffffffffffffffffffffffffffffffffffffffffffffffffff821415620027fb57620027fa62002359565b5b600182019050919050565b7f417474656d7074696e6720746f2066756e64206120626f756e7479207468617460008201527f20646f6573206e6f742065786973742e00000000000000000000000000000000602082015250565b60006200286460308362001c30565b9150620028718262002806565b604082019050919050565b60006020820190508181036000830152620028978162002855565b9050919050565b6000606082019050620028b5600083018662001eba565b620028c4602083018562001eba565b620028d3604083018462002690565b949350505050565b600081905092915050565b6000620028f48385620028db565b93506200290383858462002011565b82840190509392505050565b60006200291e828486620028e6565b91508190509392505050565b7f426f756e747920616c72656164792065786973747320666f7220676976656e2060008201527f69642e2046696e642069747320616464726573732062792063616c6c696e672060208201527f626f756e74794964546f41646472657373206f6e207468697320636f6e74726160408201527f637420776974682074686520626f756e74794964000000000000000000000000606082015250565b6000620029d460748362001c30565b9150620029e1826200292a565b608082019050919050565b6000602082019050818103600083015262002a0781620029c5565b9050919050565b600062002a1c838562001c30565b935062002a2b83858462002011565b62002a368362001c77565b840190509392505050565b6000606082019050818103600083015262002a5e81878962002a0e565b905062002a6f602083018662001eba565b818103604083015262002a8481848662002a0e565b90509695505050505050565b600060a082019050818103600083015262002aad81898b62002a0e565b9050818103602083015262002ac481878962002a0e565b905062002ad5604083018662001eba565b62002ae4606083018562001eba565b62002af3608083018462002690565b98975050505050505050565b7f4f776e61626c653a2063616c6c6572206973206e6f7420746865206f776e6572600082015250565b600062002b3760208362001c30565b915062002b448262002aff565b602082019050919050565b6000602082019050818103600083015262002b6a8162002b28565b9050919050565b7f43616e6e6f7420636c61696d206120626f756e7479207468617420697320616c60008201527f726561647920636c6f7365642e00000000000000000000000000000000000000602082015250565b600062002bcf602d8362001c30565b915062002bdc8262002b71565b604082019050919050565b6000602082019050818103600083015262002c028162002bc0565b9050919050565b600060208201905062002c20600083018462002690565b92915050565b600060a082019050818103600083015262002c4381888a62002a0e565b9050818103602083015262002c59818762001c88565b905062002c6a604083018662001eba565b62002c79606083018562001eba565b62002c88608083018462002690565b979650505050505050565b7f4f776e61626c653a206e6577206f776e657220697320746865207a65726f206160008201527f6464726573730000000000000000000000000000000000000000000000000000602082015250565b600062002cf160268362001c30565b915062002cfe8262002c93565b604082019050919050565b6000602082019050818103600083015262002d248162002ce2565b9050919050565b7f4e487b7100000000000000000000000000000000000000000000000000000000600052602160045260246000fd5b6002811062002d6857600080fd5b50565b60008151905062002d7c8162002d5a565b92915050565b60006020828403121562002d9b5762002d9a62001b84565b5b600062002dab8482850162002d6b565b9150509291505056fe60806040524260065562278d006008553480156200001c57600080fd5b50604051620027ad380380620027ad833981810160405281019062000042919062000490565b82828262000065620000596200011260201b60201c565b6200011a60201b60201c565b82600590805190602001906200007d929190620001de565b506000600b60146101000a81548160ff02191690836001811115620000a757620000a66200052a565b5b021790555081600960006101000a81548173ffffffffffffffffffffffffffffffffffffffff021916908373ffffffffffffffffffffffffffffffffffffffff16021790555080600a908051906020019062000105929190620001de565b50505050505050620005be565b600033905090565b60008060009054906101000a900473ffffffffffffffffffffffffffffffffffffffff169050816000806101000a81548173ffffffffffffffffffffffffffffffffffffffff021916908373ffffffffffffffffffffffffffffffffffffffff1602179055508173ffffffffffffffffffffffffffffffffffffffff168173ffffffffffffffffffffffffffffffffffffffff167f8be0079c531659141344cd1fd0a4f28419497f9722a3daafe3b4186f6b6457e060405160405180910390a35050565b828054620001ec9062000588565b90600052602060002090601f0160209004810192826200021057600085556200025c565b82601f106200022b57805160ff19168380011785556200025c565b828001600101855582156200025c579182015b828111156200025b5782518255916020019190600101906200023e565b5b5090506200026b91906200026f565b5090565b5b808211156200028a57600081600090555060010162000270565b5090565b6000604051905090565b600080fd5b600080fd5b600080fd5b600080fd5b6000601f19601f8301169050919050565b7f4e487b7100000000000000000000000000000000000000000000000000000000600052604160045260246000fd5b620002f782620002ac565b810181811067ffffffffffffffff82111715620003195762000318620002bd565b5b80604052505050565b60006200032e6200028e565b90506200033c8282620002ec565b919050565b600067ffffffffffffffff8211156200035f576200035e620002bd565b5b6200036a82620002ac565b9050602081019050919050565b60005b83811015620003975780820151818401526020810190506200037a565b83811115620003a7576000848401525b50505050565b6000620003c4620003be8462000341565b62000322565b905082815260208101848484011115620003e357620003e2620002a7565b5b620003f084828562000377565b509392505050565b600082601f83011262000410576200040f620002a2565b5b815162000422848260208601620003ad565b91505092915050565b600073ffffffffffffffffffffffffffffffffffffffff82169050919050565b600062000458826200042b565b9050919050565b6200046a816200044b565b81146200047657600080fd5b50565b6000815190506200048a816200045f565b92915050565b600080600060608486031215620004ac57620004ab62000298565b5b600084015167ffffffffffffffff811115620004cd57620004cc6200029d565b5b620004db86828701620003f8565b9350506020620004ee8682870162000479565b925050604084015167ffffffffffffffff8111156200051257620005116200029d565b5b6200052086828701620003f8565b9150509250925092565b7f4e487b7100000000000000000000000000000000000000000000000000000000600052602160045260246000fd5b7f4e487b7100000000000000000000000000000000000000000000000000000000600052602260045260246000fd5b60006002820490506001821680620005a157607f821691505b60208210811415620005b857620005b762000559565b5b50919050565b6121df80620005ce6000396000f3fe608060405234801561001057600080fd5b50600436106101465760003560e01c8063995280b0116100b8578063cb4436b71161007c578063cb4436b7146103a8578063df9229f0146103c6578063ec05635c146103f6578063f16b51c114610426578063f2fde38b14610444578063fc5d2cf41461046057610147565b8063995280b0146102dc578063b0100cf7146102fa578063b588d2251461032a578063b9df819f1461035a578063c17bd75e1461038a57610147565b806329ffef151161010a57806329ffef15146102065780634b8022b2146102365780636216753b146102665780637044f28214610296578063715018a6146102b45780638da5cb5b146102be57610147565b80631bef55051461014c5780631d1438481461017c578063200d2ed21461019a57806321c0b342146101b857806323bd4d7a146101e857610147565b5b600080fd5b610166600480360381019061016191906116f2565b61047e565b60405161017391906117dd565b60405180910390f35b61018461054b565b604051610191919061180e565b60405180910390f35b6101a2610571565b6040516101af91906118a0565b60405180910390f35b6101d260048036038101906101cd91906118bb565b610584565b6040516101df9190611916565b60405180910390f35b6101f0610709565b6040516101fd91906119ca565b60405180910390f35b610220600480360381019061021b91906118bb565b610797565b60405161022d9190611916565b60405180910390f35b610250600480360381019061024b9190611a22565b6109b5565b60405161025d919061180e565b60405180910390f35b610280600480360381019061027b91906118bb565b610a03565b60405161028d9190611a71565b60405180910390f35b61029e610a28565b6040516102ab919061180e565b60405180910390f35b6102bc610a4e565b005b6102c6610ad6565b6040516102d3919061180e565b60405180910390f35b6102e4610aff565b6040516102f19190611a71565b60405180910390f35b610314600480360381019061030f91906116f2565b610b05565b6040516103219190611916565b60405180910390f35b610344600480360381019061033f91906116f2565b610b25565b6040516103519190611a71565b60405180910390f35b610374600480360381019061036f9190611a8c565b610bbc565b6040516103819190611916565b60405180910390f35b610392610f17565b60405161039f91906119ca565b60405180910390f35b6103b0610fa5565b6040516103bd9190611a71565b60405180910390f35b6103e060048036038101906103db9190611adf565b610fab565b6040516103ed919061180e565b60405180910390f35b610410600480360381019061040b91906116f2565b610fea565b60405161041d9190611916565b60405180910390f35b61042e6111c8565b60405161043b9190611a71565b60405180910390f35b61045e600480360381019061045991906116f2565b6111ce565b005b6104686112c6565b60405161047591906117dd565b60405180910390f35b6060600260008373ffffffffffffffffffffffffffffffffffffffff1673ffffffffffffffffffffffffffffffffffffffff16815260200190815260200160002080548060200260200160405190810160405280929190818152602001828054801561053f57602002820191906000526020600020905b8160009054906101000a900473ffffffffffffffffffffffffffffffffffffffff1673ffffffffffffffffffffffffffffffffffffffff16815260200190600101908083116104f5575b50505050509050919050565b600960009054906101000a900473ffffffffffffffffffffffffffffffffffffffff1681565b600b60149054906101000a900460ff1681565b600061058e611354565b73ffffffffffffffffffffffffffffffffffffffff166105ac610ad6565b73ffffffffffffffffffffffffffffffffffffffff1614610602576040517f08c379a00000000000000000000000000000000000000000000000000000000081526004016105f990611b58565b60405180910390fd5b6000600181111561061657610615611829565b5b3073ffffffffffffffffffffffffffffffffffffffff1663200d2ed26040518163ffffffff1660e01b815260040160206040518083038186803b15801561065c57600080fd5b505afa158015610670573d6000803e3d6000fd5b505050506040513d601f19601f820116820180604052508101906106949190611b9d565b60018111156106a6576106a5611829565b5b146106e6576040517f08c379a00000000000000000000000000000000000000000000000000000000081526004016106dd90611c3c565b60405180910390fd5b60006106f183610b25565b90506106fe83858361135c565b600191505092915050565b600a805461071690611c8b565b80601f016020809104026020016040519081016040528092919081815260200182805461074290611c8b565b801561078f5780601f106107645761010080835404028352916020019161078f565b820191906000526020600020905b81548152906001019060200180831161077257829003601f168201915b505050505081565b60006107a1611354565b73ffffffffffffffffffffffffffffffffffffffff166107bf610ad6565b73ffffffffffffffffffffffffffffffffffffffff1614610815576040517f08c379a000000000000000000000000000000000000000000000000000000000815260040161080c90611b58565b60405180910390fd5b61089c8284600360008773ffffffffffffffffffffffffffffffffffffffff1673ffffffffffffffffffffffffffffffffffffffff16815260200190815260200160002060008673ffffffffffffffffffffffffffffffffffffffff1673ffffffffffffffffffffffffffffffffffffffff1681526020019081526020016000205461135c565b600360008473ffffffffffffffffffffffffffffffffffffffff1673ffffffffffffffffffffffffffffffffffffffff16815260200190815260200160002060008373ffffffffffffffffffffffffffffffffffffffff1673ffffffffffffffffffffffffffffffffffffffff16815260200190815260200160002054600360008573ffffffffffffffffffffffffffffffffffffffff1673ffffffffffffffffffffffffffffffffffffffff16815260200190815260200160002060008473ffffffffffffffffffffffffffffffffffffffff1673ffffffffffffffffffffffffffffffffffffffff16815260200190815260200160002060008282546109a49190611cec565b925050819055506001905092915050565b600260205281600052604060002081815481106109d157600080fd5b906000526020600020016000915091509054906101000a900473ffffffffffffffffffffffffffffffffffffffff1681565b6003602052816000526040600020602052806000526040600020600091509150505481565b600b60009054906101000a900473ffffffffffffffffffffffffffffffffffffffff1681565b610a56611354565b73ffffffffffffffffffffffffffffffffffffffff16610a74610ad6565b73ffffffffffffffffffffffffffffffffffffffff1614610aca576040517f08c379a0000000000000000000000000000000000000000000000000000000008152600401610ac190611b58565b60405180910390fd5b610ad46000611492565b565b60008060009054906101000a900473ffffffffffffffffffffffffffffffffffffffff16905090565b60065481565b60046020528060005260406000206000915054906101000a900460ff1681565b6000808290508073ffffffffffffffffffffffffffffffffffffffff166370a08231306040518263ffffffff1660e01b8152600401610b64919061180e565b60206040518083038186803b158015610b7c57600080fd5b505afa158015610b90573d6000803e3d6000fd5b505050506040513d601f19601f82011682018060405250810190610bb49190611d35565b915050919050565b6000610bc6611354565b73ffffffffffffffffffffffffffffffffffffffff16610be4610ad6565b73ffffffffffffffffffffffffffffffffffffffff1614610c3a576040517f08c379a0000000000000000000000000000000000000000000000000000000008152600401610c3190611b58565b60405180910390fd5b6000821415610c7e576040517f08c379a0000000000000000000000000000000000000000000000000000000008152600401610c7590611dd4565b60405180910390fd5b6000610c8984610b25565b1415610cf3576001839080600181540180825580915050600190039060005260206000200160009091909190916101000a81548173ffffffffffffffffffffffffffffffffffffffff021916908373ffffffffffffffffffffffffffffffffffffffff1602179055505b610cff83853085611556565b6001600460008673ffffffffffffffffffffffffffffffffffffffff1673ffffffffffffffffffffffffffffffffffffffff16815260200190815260200160002060006101000a81548160ff0219169083151502179055506000600360008673ffffffffffffffffffffffffffffffffffffffff1673ffffffffffffffffffffffffffffffffffffffff16815260200190815260200160002060008573ffffffffffffffffffffffffffffffffffffffff1673ffffffffffffffffffffffffffffffffffffffff168152602001908152602001600020541415610e7d57600260008573ffffffffffffffffffffffffffffffffffffffff1673ffffffffffffffffffffffffffffffffffffffff168152602001908152602001600020839080600181540180825580915050600190039060005260206000200160009091909190916101000a81548173ffffffffffffffffffffffffffffffffffffffff021916908373ffffffffffffffffffffffffffffffffffffffff1602179055505b81600360008673ffffffffffffffffffffffffffffffffffffffff1673ffffffffffffffffffffffffffffffffffffffff16815260200190815260200160002060008573ffffffffffffffffffffffffffffffffffffffff1673ffffffffffffffffffffffffffffffffffffffff1681526020019081526020016000206000828254610f099190611df4565b925050819055509392505050565b60058054610f2490611c8b565b80601f0160208091040260200160405190810160405280929190818152602001828054610f5090611c8b565b8015610f9d5780601f10610f7257610100808354040283529160200191610f9d565b820191906000526020600020905b815481529060010190602001808311610f8057829003601f168201915b505050505081565b60075481565b60018181548110610fbb57600080fd5b906000526020600020016000915054906101000a900473ffffffffffffffffffffffffffffffffffffffff1681565b6000610ff4611354565b73ffffffffffffffffffffffffffffffffffffffff16611012610ad6565b73ffffffffffffffffffffffffffffffffffffffff1614611068576040517f08c379a000000000000000000000000000000000000000000000000000000000815260040161105f90611b58565b60405180910390fd5b6000600181111561107c5761107b611829565b5b3073ffffffffffffffffffffffffffffffffffffffff1663200d2ed26040518163ffffffff1660e01b815260040160206040518083038186803b1580156110c257600080fd5b505afa1580156110d6573d6000803e3d6000fd5b505050506040513d601f19601f820116820180604052508101906110fa9190611b9d565b600181111561110c5761110b611829565b5b1461114c576040517f08c379a000000000000000000000000000000000000000000000000000000000815260040161114390611ebc565b60405180910390fd5b6001600b60146101000a81548160ff0219169083600181111561117257611171611829565b5b021790555081600b60006101000a81548173ffffffffffffffffffffffffffffffffffffffff021916908373ffffffffffffffffffffffffffffffffffffffff1602179055504260078190555060019050919050565b60085481565b6111d6611354565b73ffffffffffffffffffffffffffffffffffffffff166111f4610ad6565b73ffffffffffffffffffffffffffffffffffffffff161461124a576040517f08c379a000000000000000000000000000000000000000000000000000000000815260040161124190611b58565b60405180910390fd5b600073ffffffffffffffffffffffffffffffffffffffff168173ffffffffffffffffffffffffffffffffffffffff1614156112ba576040517f08c379a00000000000000000000000000000000000000000000000000000000081526004016112b190611f4e565b60405180910390fd5b6112c381611492565b50565b6060600180548060200260200160405190810160405280929190818152602001828054801561134a57602002820191906000526020600020905b8160009054906101000a900473ffffffffffffffffffffffffffffffffffffffff1673ffffffffffffffffffffffffffffffffffffffff1681526020019060010190808311611300575b5050505050905090565b600033905090565b6000808473ffffffffffffffffffffffffffffffffffffffff1663a9059cbb858560405160240161138e929190611f6e565b6040516020818303038152906040529060e01b6020820180517bffffffffffffffffffffffffffffffffffffffffffffffffffffffff83818316178352505050506040516113dc9190611fde565b6000604051808303816000865af19150503d8060008114611419576040519150601f19603f3d011682016040523d82523d6000602084013e61141e565b606091505b509150915081801561144c575060008151148061144b57508080602001905181019061144a9190612021565b5b5b61148b576040517f08c379a0000000000000000000000000000000000000000000000000000000008152600401611482906120c0565b60405180910390fd5b5050505050565b60008060009054906101000a900473ffffffffffffffffffffffffffffffffffffffff169050816000806101000a81548173ffffffffffffffffffffffffffffffffffffffff021916908373ffffffffffffffffffffffffffffffffffffffff1602179055508173ffffffffffffffffffffffffffffffffffffffff168173ffffffffffffffffffffffffffffffffffffffff167f8be0079c531659141344cd1fd0a4f28419497f9722a3daafe3b4186f6b6457e060405160405180910390a35050565b6000808573ffffffffffffffffffffffffffffffffffffffff166323b872dd86868660405160240161158a939291906120e0565b6040516020818303038152906040529060e01b6020820180517bffffffffffffffffffffffffffffffffffffffffffffffffffffffff83818316178352505050506040516115d89190611fde565b6000604051808303816000865af19150503d8060008114611615576040519150601f19603f3d011682016040523d82523d6000602084013e61161a565b606091505b509150915081801561164857506000815114806116475750808060200190518101906116469190612021565b5b5b611687576040517f08c379a000000000000000000000000000000000000000000000000000000000815260040161167e90612189565b60405180910390fd5b505050505050565b600080fd5b600073ffffffffffffffffffffffffffffffffffffffff82169050919050565b60006116bf82611694565b9050919050565b6116cf816116b4565b81146116da57600080fd5b50565b6000813590506116ec816116c6565b92915050565b6000602082840312156117085761170761168f565b5b6000611716848285016116dd565b91505092915050565b600081519050919050565b600082825260208201905092915050565b6000819050602082019050919050565b611754816116b4565b82525050565b6000611766838361174b565b60208301905092915050565b6000602082019050919050565b600061178a8261171f565b611794818561172a565b935061179f8361173b565b8060005b838110156117d05781516117b7888261175a565b97506117c283611772565b9250506001810190506117a3565b5085935050505092915050565b600060208201905081810360008301526117f7818461177f565b905092915050565b611808816116b4565b82525050565b600060208201905061182360008301846117ff565b92915050565b7f4e487b7100000000000000000000000000000000000000000000000000000000600052602160045260246000fd5b6002811061186957611868611829565b5b50565b600081905061187a82611858565b919050565b600061188a8261186c565b9050919050565b61189a8161187f565b82525050565b60006020820190506118b56000830184611891565b92915050565b600080604083850312156118d2576118d161168f565b5b60006118e0858286016116dd565b92505060206118f1858286016116dd565b9150509250929050565b60008115159050919050565b611910816118fb565b82525050565b600060208201905061192b6000830184611907565b92915050565b600081519050919050565b600082825260208201905092915050565b60005b8381101561196b578082015181840152602081019050611950565b8381111561197a576000848401525b50505050565b6000601f19601f8301169050919050565b600061199c82611931565b6119a6818561193c565b93506119b681856020860161194d565b6119bf81611980565b840191505092915050565b600060208201905081810360008301526119e48184611991565b905092915050565b6000819050919050565b6119ff816119ec565b8114611a0a57600080fd5b50565b600081359050611a1c816119f6565b92915050565b60008060408385031215611a3957611a3861168f565b5b6000611a47858286016116dd565b9250506020611a5885828601611a0d565b9150509250929050565b611a6b816119ec565b82525050565b6000602082019050611a866000830184611a62565b92915050565b600080600060608486031215611aa557611aa461168f565b5b6000611ab3868287016116dd565b9350506020611ac4868287016116dd565b9250506040611ad586828701611a0d565b9150509250925092565b600060208284031215611af557611af461168f565b5b6000611b0384828501611a0d565b91505092915050565b7f4f776e61626c653a2063616c6c6572206973206e6f7420746865206f776e6572600082015250565b6000611b4260208361193c565b9150611b4d82611b0c565b602082019050919050565b60006020820190508181036000830152611b7181611b35565b9050919050565b60028110611b8557600080fd5b50565b600081519050611b9781611b78565b92915050565b600060208284031215611bb357611bb261168f565b5b6000611bc184828501611b88565b91505092915050565b7f5468697320697320626f756e747920697320636c6f7365642e2043616e6e6f7460008201527f20776974686472617720616761696e2e00000000000000000000000000000000602082015250565b6000611c2660308361193c565b9150611c3182611bca565b604082019050919050565b60006020820190508181036000830152611c5581611c19565b9050919050565b7f4e487b7100000000000000000000000000000000000000000000000000000000600052602260045260246000fd5b60006002820490506001821680611ca357607f821691505b60208210811415611cb757611cb6611c5c565b5b50919050565b7f4e487b7100000000000000000000000000000000000000000000000000000000600052601160045260246000fd5b6000611cf7826119ec565b9150611d02836119ec565b925082821015611d1557611d14611cbd565b5b828203905092915050565b600081519050611d2f816119f6565b92915050565b600060208284031215611d4b57611d4a61168f565b5b6000611d5984828501611d20565b91505092915050565b7f4d7573742073656e642061206e6f6e2d7a65726f20766f6c756d65206f66207460008201527f6f6b656e732e0000000000000000000000000000000000000000000000000000602082015250565b6000611dbe60268361193c565b9150611dc982611d62565b604082019050919050565b60006020820190508181036000830152611ded81611db1565b9050919050565b6000611dff826119ec565b9150611e0a836119ec565b9250827fffffffffffffffffffffffffffffffffffffffffffffffffffffffffffffffff03821115611e3f57611e3e611cbd565b5b828201905092915050565b7f5468697320697320626f756e747920697320616c726561647920636c6f73656460008201527f2e2043616e6e6f7420636c6f736520616761696e2e0000000000000000000000602082015250565b6000611ea660358361193c565b9150611eb182611e4a565b604082019050919050565b60006020820190508181036000830152611ed581611e99565b9050919050565b7f4f776e61626c653a206e6577206f776e657220697320746865207a65726f206160008201527f6464726573730000000000000000000000000000000000000000000000000000602082015250565b6000611f3860268361193c565b9150611f4382611edc565b604082019050919050565b60006020820190508181036000830152611f6781611f2b565b9050919050565b6000604082019050611f8360008301856117ff565b611f906020830184611a62565b9392505050565b600081519050919050565b600081905092915050565b6000611fb882611f97565b611fc28185611fa2565b9350611fd281856020860161194d565b80840191505092915050565b6000611fea8284611fad565b915081905092915050565b611ffe816118fb565b811461200957600080fd5b50565b60008151905061201b81611ff5565b92915050565b6000602082840312156120375761203661168f565b5b60006120458482850161200c565b91505092915050565b7f5472616e7366657248656c7065723a3a736166655472616e736665723a20747260008201527f616e73666572206661696c656400000000000000000000000000000000000000602082015250565b60006120aa602d8361193c565b91506120b58261204e565b604082019050919050565b600060208201905081810360008301526120d98161209d565b9050919050565b60006060820190506120f560008301866117ff565b61210260208301856117ff565b61210f6040830184611a62565b949350505050565b7f5472616e7366657248656c7065723a3a7472616e7366657246726f6d3a20747260008201527f616e7366657246726f6d206661696c6564000000000000000000000000000000602082015250565b600061217360318361193c565b915061217e82612117565b604082019050919050565b600060208201905081810360008301526121a281612166565b905091905056fea264697066735822122097372ff6a8049e2414af552ab038b845a4d21ac296c30cf82834b8cb28d6dc2e64736f6c63430008080033a2646970667358221220d91f43c8e284e3519c02bd6baa4bf3306974cf7132d28bbb9e323cd3036b457f64736f6c63430008080033",
          "opcodes": "PUSH1 0x80 PUSH1 0x40 MSTORE CALLVALUE DUP1 ISZERO PUSH3 0x11 JUMPI PUSH1 0x0 DUP1 REVERT JUMPDEST POP PUSH3 0x32 PUSH3 0x26 PUSH3 0x38 PUSH1 0x20 SHL PUSH1 0x20 SHR JUMP JUMPDEST PUSH3 0x40 PUSH1 0x20 SHL PUSH1 0x20 SHR JUMP JUMPDEST PUSH3 0x104 JUMP JUMPDEST PUSH1 0x0 CALLER SWAP1 POP SWAP1 JUMP JUMPDEST PUSH1 0x0 DUP1 PUSH1 0x0 SWAP1 SLOAD SWAP1 PUSH2 0x100 EXP SWAP1 DIV PUSH20 0xFFFFFFFFFFFFFFFFFFFFFFFFFFFFFFFFFFFFFFFF AND SWAP1 POP DUP2 PUSH1 0x0 DUP1 PUSH2 0x100 EXP DUP2 SLOAD DUP2 PUSH20 0xFFFFFFFFFFFFFFFFFFFFFFFFFFFFFFFFFFFFFFFF MUL NOT AND SWAP1 DUP4 PUSH20 0xFFFFFFFFFFFFFFFFFFFFFFFFFFFFFFFFFFFFFFFF AND MUL OR SWAP1 SSTORE POP DUP2 PUSH20 0xFFFFFFFFFFFFFFFFFFFFFFFFFFFFFFFFFFFFFFFF AND DUP2 PUSH20 0xFFFFFFFFFFFFFFFFFFFFFFFFFFFFFFFFFFFFFFFF AND PUSH32 0x8BE0079C531659141344CD1FD0A4F28419497F9722A3DAAFE3B4186F6B6457E0 PUSH1 0x40 MLOAD PUSH1 0x40 MLOAD DUP1 SWAP2 SUB SWAP1 LOG3 POP POP JUMP JUMPDEST PUSH2 0x5597 DUP1 PUSH3 0x114 PUSH1 0x0 CODECOPY PUSH1 0x0 RETURN INVALID PUSH1 0x80 PUSH1 0x40 MSTORE CALLVALUE DUP1 ISZERO PUSH3 0x11 JUMPI PUSH1 0x0 DUP1 REVERT JUMPDEST POP PUSH1 0x4 CALLDATASIZE LT PUSH3 0xB8 JUMPI PUSH1 0x0 CALLDATALOAD PUSH1 0xE0 SHR DUP1 PUSH4 0x48BD1E99 GT PUSH3 0x7B JUMPI DUP1 PUSH4 0x48BD1E99 EQ PUSH3 0x1B5 JUMPI DUP1 PUSH4 0x715018A6 EQ PUSH3 0x1EB JUMPI DUP1 PUSH4 0x8DA5CB5B EQ PUSH3 0x1F7 JUMPI DUP1 PUSH4 0xF2FDE38B EQ PUSH3 0x219 JUMPI DUP1 PUSH4 0xFCEDBECF EQ PUSH3 0x239 JUMPI DUP1 PUSH4 0xFD1B2E3F EQ PUSH3 0x26F JUMPI PUSH3 0xB8 JUMP JUMPDEST DUP1 PUSH4 0x10FD86C8 EQ PUSH3 0xBD JUMPI DUP1 PUSH4 0x1B780312 EQ PUSH3 0xF3 JUMPI DUP1 PUSH4 0x1B967A19 EQ PUSH3 0x129 JUMPI DUP1 PUSH4 0x1EE290FB EQ PUSH3 0x15F JUMPI DUP1 PUSH4 0x3E7DA1A9 EQ PUSH3 0x195 JUMPI JUMPDEST PUSH1 0x0 DUP1 REVERT JUMPDEST PUSH3 0xDB PUSH1 0x4 DUP1 CALLDATASIZE SUB DUP2 ADD SWAP1 PUSH3 0xD5 SWAP2 SWAP1 PUSH3 0x1BF3 JUMP JUMPDEST PUSH3 0x2A5 JUMP JUMPDEST PUSH1 0x40 MLOAD PUSH3 0xEA SWAP2 SWAP1 PUSH3 0x1CC9 JUMP JUMPDEST PUSH1 0x40 MLOAD DUP1 SWAP2 SUB SWAP1 RETURN JUMPDEST PUSH3 0x111 PUSH1 0x4 DUP1 CALLDATASIZE SUB DUP2 ADD SWAP1 PUSH3 0x10B SWAP2 SWAP1 PUSH3 0x1BF3 JUMP JUMPDEST PUSH3 0x34D JUMP JUMPDEST PUSH1 0x40 MLOAD PUSH3 0x120 SWAP2 SWAP1 PUSH3 0x1D0A JUMP JUMPDEST PUSH1 0x40 MLOAD DUP1 SWAP2 SUB SWAP1 RETURN JUMPDEST PUSH3 0x147 PUSH1 0x4 DUP1 CALLDATASIZE SUB DUP2 ADD SWAP1 PUSH3 0x141 SWAP2 SWAP1 PUSH3 0x1D62 JUMP JUMPDEST PUSH3 0xA2C JUMP JUMPDEST PUSH1 0x40 MLOAD PUSH3 0x156 SWAP2 SWAP1 PUSH3 0x1D0A JUMP JUMPDEST PUSH1 0x40 MLOAD DUP1 SWAP2 SUB SWAP1 RETURN JUMPDEST PUSH3 0x17D PUSH1 0x4 DUP1 CALLDATASIZE SUB DUP2 ADD SWAP1 PUSH3 0x177 SWAP2 SWAP1 PUSH3 0x1E2C JUMP JUMPDEST PUSH3 0xD93 JUMP JUMPDEST PUSH1 0x40 MLOAD PUSH3 0x18C SWAP2 SWAP1 PUSH3 0x1ECB JUMP JUMPDEST PUSH1 0x40 MLOAD DUP1 SWAP2 SUB SWAP1 RETURN JUMPDEST PUSH3 0x1B3 PUSH1 0x4 DUP1 CALLDATASIZE SUB DUP2 ADD SWAP1 PUSH3 0x1AD SWAP2 SWAP1 PUSH3 0x1EE8 JUMP JUMPDEST PUSH3 0xF8A JUMP JUMPDEST STOP JUMPDEST PUSH3 0x1D3 PUSH1 0x4 DUP1 CALLDATASIZE SUB DUP2 ADD SWAP1 PUSH3 0x1CD SWAP2 SWAP1 PUSH3 0x209E JUMP JUMPDEST PUSH3 0x164C JUMP JUMPDEST PUSH1 0x40 MLOAD PUSH3 0x1E2 SWAP2 SWAP1 PUSH3 0x1ECB JUMP JUMPDEST PUSH1 0x40 MLOAD DUP1 SWAP2 SUB SWAP1 RETURN JUMPDEST PUSH3 0x1F5 PUSH3 0x1695 JUMP JUMPDEST STOP JUMPDEST PUSH3 0x201 PUSH3 0x1726 JUMP JUMPDEST PUSH1 0x40 MLOAD PUSH3 0x210 SWAP2 SWAP1 PUSH3 0x1ECB JUMP JUMPDEST PUSH1 0x40 MLOAD DUP1 SWAP2 SUB SWAP1 RETURN JUMPDEST PUSH3 0x237 PUSH1 0x4 DUP1 CALLDATASIZE SUB DUP2 ADD SWAP1 PUSH3 0x231 SWAP2 SWAP1 PUSH3 0x1BF3 JUMP JUMPDEST PUSH3 0x174F JUMP JUMPDEST STOP JUMPDEST PUSH3 0x257 PUSH1 0x4 DUP1 CALLDATASIZE SUB DUP2 ADD SWAP1 PUSH3 0x251 SWAP2 SWAP1 PUSH3 0x20EF JUMP JUMPDEST PUSH3 0x1853 JUMP JUMPDEST PUSH1 0x40 MLOAD PUSH3 0x266 SWAP2 SWAP1 PUSH3 0x1ECB JUMP JUMPDEST PUSH1 0x40 MLOAD DUP1 SWAP2 SUB SWAP1 RETURN JUMPDEST PUSH3 0x28D PUSH1 0x4 DUP1 CALLDATASIZE SUB DUP2 ADD SWAP1 PUSH3 0x287 SWAP2 SWAP1 PUSH3 0x209E JUMP JUMPDEST PUSH3 0x18A0 JUMP JUMPDEST PUSH1 0x40 MLOAD PUSH3 0x29C SWAP2 SWAP1 PUSH3 0x1D0A JUMP JUMPDEST PUSH1 0x40 MLOAD DUP1 SWAP2 SUB SWAP1 RETURN JUMPDEST PUSH1 0x2 PUSH1 0x20 MSTORE DUP1 PUSH1 0x0 MSTORE PUSH1 0x40 PUSH1 0x0 KECCAK256 PUSH1 0x0 SWAP2 POP SWAP1 POP DUP1 SLOAD PUSH3 0x2C6 SWAP1 PUSH3 0x2173 JUMP JUMPDEST DUP1 PUSH1 0x1F ADD PUSH1 0x20 DUP1 SWAP2 DIV MUL PUSH1 0x20 ADD PUSH1 0x40 MLOAD SWAP1 DUP2 ADD PUSH1 0x40 MSTORE DUP1 SWAP3 SWAP2 SWAP1 DUP2 DUP2 MSTORE PUSH1 0x20 ADD DUP3 DUP1 SLOAD PUSH3 0x2F4 SWAP1 PUSH3 0x2173 JUMP JUMPDEST DUP1 ISZERO PUSH3 0x345 JUMPI DUP1 PUSH1 0x1F LT PUSH3 0x319 JUMPI PUSH2 0x100 DUP1 DUP4 SLOAD DIV MUL DUP4 MSTORE SWAP2 PUSH1 0x20 ADD SWAP2 PUSH3 0x345 JUMP JUMPDEST DUP3 ADD SWAP2 SWAP1 PUSH1 0x0 MSTORE PUSH1 0x20 PUSH1 0x0 KECCAK256 SWAP1 JUMPDEST DUP2 SLOAD DUP2 MSTORE SWAP1 PUSH1 0x1 ADD SWAP1 PUSH1 0x20 ADD DUP1 DUP4 GT PUSH3 0x327 JUMPI DUP3 SWAP1 SUB PUSH1 0x1F AND DUP3 ADD SWAP2 JUMPDEST POP POP POP POP POP DUP2 JUMP JUMPDEST PUSH1 0x0 DUP1 DUP3 SWAP1 POP PUSH1 0x1 ISZERO ISZERO PUSH3 0x3E8 DUP3 PUSH20 0xFFFFFFFFFFFFFFFFFFFFFFFFFFFFFFFFFFFFFFFF AND PUSH4 0xC17BD75E PUSH1 0x40 MLOAD DUP2 PUSH4 0xFFFFFFFF AND PUSH1 0xE0 SHL DUP2 MSTORE PUSH1 0x4 ADD PUSH1 0x0 PUSH1 0x40 MLOAD DUP1 DUP4 SUB DUP2 DUP7 DUP1 EXTCODESIZE ISZERO DUP1 ISZERO PUSH3 0x3A2 JUMPI PUSH1 0x0 DUP1 REVERT JUMPDEST POP GAS STATICCALL ISZERO DUP1 ISZERO PUSH3 0x3B7 JUMPI RETURNDATASIZE PUSH1 0x0 DUP1 RETURNDATACOPY RETURNDATASIZE PUSH1 0x0 REVERT JUMPDEST POP POP POP POP PUSH1 0x40 MLOAD RETURNDATASIZE PUSH1 0x0 DUP3 RETURNDATACOPY RETURNDATASIZE PUSH1 0x1F NOT PUSH1 0x1F DUP3 ADD AND DUP3 ADD DUP1 PUSH1 0x40 MSTORE POP DUP2 ADD SWAP1 PUSH3 0x3E2 SWAP2 SWAP1 PUSH3 0x2227 JUMP JUMPDEST PUSH3 0x18A0 JUMP JUMPDEST ISZERO ISZERO EQ PUSH3 0x42D JUMPI PUSH1 0x40 MLOAD PUSH32 0x8C379A000000000000000000000000000000000000000000000000000000000 DUP2 MSTORE PUSH1 0x4 ADD PUSH3 0x424 SWAP1 PUSH3 0x22EE JUMP JUMPDEST PUSH1 0x40 MLOAD DUP1 SWAP2 SUB SWAP1 REVERT JUMPDEST DUP1 PUSH20 0xFFFFFFFFFFFFFFFFFFFFFFFFFFFFFFFFFFFFFFFF AND PUSH4 0xF16B51C1 PUSH1 0x40 MLOAD DUP2 PUSH4 0xFFFFFFFF AND PUSH1 0xE0 SHL DUP2 MSTORE PUSH1 0x4 ADD PUSH1 0x20 PUSH1 0x40 MLOAD DUP1 DUP4 SUB DUP2 DUP7 DUP1 EXTCODESIZE ISZERO DUP1 ISZERO PUSH3 0x474 JUMPI PUSH1 0x0 DUP1 REVERT JUMPDEST POP GAS STATICCALL ISZERO DUP1 ISZERO PUSH3 0x489 JUMPI RETURNDATASIZE PUSH1 0x0 DUP1 RETURNDATACOPY RETURNDATASIZE PUSH1 0x0 REVERT JUMPDEST POP POP POP POP PUSH1 0x40 MLOAD RETURNDATASIZE PUSH1 0x1F NOT PUSH1 0x1F DUP3 ADD AND DUP3 ADD DUP1 PUSH1 0x40 MSTORE POP DUP2 ADD SWAP1 PUSH3 0x4AF SWAP2 SWAP1 PUSH3 0x2327 JUMP JUMPDEST DUP2 PUSH20 0xFFFFFFFFFFFFFFFFFFFFFFFFFFFFFFFFFFFFFFFF AND PUSH4 0x995280B0 PUSH1 0x40 MLOAD DUP2 PUSH4 0xFFFFFFFF AND PUSH1 0xE0 SHL DUP2 MSTORE PUSH1 0x4 ADD PUSH1 0x20 PUSH1 0x40 MLOAD DUP1 DUP4 SUB DUP2 DUP7 DUP1 EXTCODESIZE ISZERO DUP1 ISZERO PUSH3 0x4F6 JUMPI PUSH1 0x0 DUP1 REVERT JUMPDEST POP GAS STATICCALL ISZERO DUP1 ISZERO PUSH3 0x50B JUMPI RETURNDATASIZE PUSH1 0x0 DUP1 RETURNDATACOPY RETURNDATASIZE PUSH1 0x0 REVERT JUMPDEST POP POP POP POP PUSH1 0x40 MLOAD RETURNDATASIZE PUSH1 0x1F NOT PUSH1 0x1F DUP3 ADD AND DUP3 ADD DUP1 PUSH1 0x40 MSTORE POP DUP2 ADD SWAP1 PUSH3 0x531 SWAP2 SWAP1 PUSH3 0x2327 JUMP JUMPDEST PUSH3 0x53D SWAP2 SWAP1 PUSH3 0x2388 JUMP JUMPDEST TIMESTAMP LT ISZERO PUSH3 0x582 JUMPI PUSH1 0x40 MLOAD PUSH32 0x8C379A000000000000000000000000000000000000000000000000000000000 DUP2 MSTORE PUSH1 0x4 ADD PUSH3 0x579 SWAP1 PUSH3 0x2435 JUMP JUMPDEST PUSH1 0x40 MLOAD DUP1 SWAP2 SUB SWAP1 REVERT JUMPDEST PUSH1 0x1 ISZERO ISZERO DUP2 PUSH20 0xFFFFFFFFFFFFFFFFFFFFFFFFFFFFFFFFFFFFFFFF AND PUSH4 0xB0100CF7 CALLER PUSH1 0x40 MLOAD DUP3 PUSH4 0xFFFFFFFF AND PUSH1 0xE0 SHL DUP2 MSTORE PUSH1 0x4 ADD PUSH3 0x5C1 SWAP2 SWAP1 PUSH3 0x1ECB JUMP JUMPDEST PUSH1 0x20 PUSH1 0x40 MLOAD DUP1 DUP4 SUB DUP2 DUP7 DUP1 EXTCODESIZE ISZERO DUP1 ISZERO PUSH3 0x5DA JUMPI PUSH1 0x0 DUP1 REVERT JUMPDEST POP GAS STATICCALL ISZERO DUP1 ISZERO PUSH3 0x5EF JUMPI RETURNDATASIZE PUSH1 0x0 DUP1 RETURNDATACOPY RETURNDATASIZE PUSH1 0x0 REVERT JUMPDEST POP POP POP POP PUSH1 0x40 MLOAD RETURNDATASIZE PUSH1 0x1F NOT PUSH1 0x1F DUP3 ADD AND DUP3 ADD DUP1 PUSH1 0x40 MSTORE POP DUP2 ADD SWAP1 PUSH3 0x615 SWAP2 SWAP1 PUSH3 0x2488 JUMP JUMPDEST ISZERO ISZERO EQ PUSH3 0x65A JUMPI PUSH1 0x40 MLOAD PUSH32 0x8C379A000000000000000000000000000000000000000000000000000000000 DUP2 MSTORE PUSH1 0x4 ADD PUSH3 0x651 SWAP1 PUSH3 0x2530 JUMP JUMPDEST PUSH1 0x40 MLOAD DUP1 SWAP2 SUB SWAP1 REVERT JUMPDEST PUSH1 0x0 JUMPDEST DUP2 PUSH20 0xFFFFFFFFFFFFFFFFFFFFFFFFFFFFFFFFFFFFFFFF AND PUSH4 0x1BEF5505 CALLER PUSH1 0x40 MLOAD DUP3 PUSH4 0xFFFFFFFF AND PUSH1 0xE0 SHL DUP2 MSTORE PUSH1 0x4 ADD PUSH3 0x698 SWAP2 SWAP1 PUSH3 0x1ECB JUMP JUMPDEST PUSH1 0x0 PUSH1 0x40 MLOAD DUP1 DUP4 SUB DUP2 DUP7 DUP1 EXTCODESIZE ISZERO DUP1 ISZERO PUSH3 0x6B1 JUMPI PUSH1 0x0 DUP1 REVERT JUMPDEST POP GAS STATICCALL ISZERO DUP1 ISZERO PUSH3 0x6C6 JUMPI RETURNDATASIZE PUSH1 0x0 DUP1 RETURNDATACOPY RETURNDATASIZE PUSH1 0x0 REVERT JUMPDEST POP POP POP POP PUSH1 0x40 MLOAD RETURNDATASIZE PUSH1 0x0 DUP3 RETURNDATACOPY RETURNDATASIZE PUSH1 0x1F NOT PUSH1 0x1F DUP3 ADD AND DUP3 ADD DUP1 PUSH1 0x40 MSTORE POP DUP2 ADD SWAP1 PUSH3 0x6F1 SWAP2 SWAP1 PUSH3 0x263F JUMP JUMPDEST MLOAD DUP2 LT ISZERO PUSH3 0xA21 JUMPI PUSH1 0x0 DUP3 PUSH20 0xFFFFFFFFFFFFFFFFFFFFFFFFFFFFFFFFFFFFFFFF AND PUSH4 0x4B8022B2 CALLER DUP5 PUSH1 0x40 MLOAD DUP4 PUSH4 0xFFFFFFFF AND PUSH1 0xE0 SHL DUP2 MSTORE PUSH1 0x4 ADD PUSH3 0x739 SWAP3 SWAP2 SWAP1 PUSH3 0x26A1 JUMP JUMPDEST PUSH1 0x20 PUSH1 0x40 MLOAD DUP1 DUP4 SUB DUP2 DUP7 DUP1 EXTCODESIZE ISZERO DUP1 ISZERO PUSH3 0x752 JUMPI PUSH1 0x0 DUP1 REVERT JUMPDEST POP GAS STATICCALL ISZERO DUP1 ISZERO PUSH3 0x767 JUMPI RETURNDATASIZE PUSH1 0x0 DUP1 RETURNDATACOPY RETURNDATASIZE PUSH1 0x0 REVERT JUMPDEST POP POP POP POP PUSH1 0x40 MLOAD RETURNDATASIZE PUSH1 0x1F NOT PUSH1 0x1F DUP3 ADD AND DUP3 ADD DUP1 PUSH1 0x40 MSTORE POP DUP2 ADD SWAP1 PUSH3 0x78D SWAP2 SWAP1 PUSH3 0x26CE JUMP JUMPDEST SWAP1 POP PUSH1 0x0 DUP4 PUSH20 0xFFFFFFFFFFFFFFFFFFFFFFFFFFFFFFFFFFFFFFFF AND PUSH4 0x6216753B CALLER DUP5 PUSH1 0x40 MLOAD DUP4 PUSH4 0xFFFFFFFF AND PUSH1 0xE0 SHL DUP2 MSTORE PUSH1 0x4 ADD PUSH3 0x7CE SWAP3 SWAP2 SWAP1 PUSH3 0x2700 JUMP JUMPDEST PUSH1 0x20 PUSH1 0x40 MLOAD DUP1 DUP4 SUB DUP2 DUP7 DUP1 EXTCODESIZE ISZERO DUP1 ISZERO PUSH3 0x7E7 JUMPI PUSH1 0x0 DUP1 REVERT JUMPDEST POP GAS STATICCALL ISZERO DUP1 ISZERO PUSH3 0x7FC JUMPI RETURNDATASIZE PUSH1 0x0 DUP1 RETURNDATACOPY RETURNDATASIZE PUSH1 0x0 REVERT JUMPDEST POP POP POP POP PUSH1 0x40 MLOAD RETURNDATASIZE PUSH1 0x1F NOT PUSH1 0x1F DUP3 ADD AND DUP3 ADD DUP1 PUSH1 0x40 MSTORE POP DUP2 ADD SWAP1 PUSH3 0x822 SWAP2 SWAP1 PUSH3 0x2327 JUMP JUMPDEST SWAP1 POP DUP4 PUSH20 0xFFFFFFFFFFFFFFFFFFFFFFFFFFFFFFFFFFFFFFFF AND PUSH4 0x29FFEF15 CALLER DUP5 PUSH1 0x40 MLOAD DUP4 PUSH4 0xFFFFFFFF AND PUSH1 0xE0 SHL DUP2 MSTORE PUSH1 0x4 ADD PUSH3 0x861 SWAP3 SWAP2 SWAP1 PUSH3 0x2700 JUMP JUMPDEST PUSH1 0x20 PUSH1 0x40 MLOAD DUP1 DUP4 SUB DUP2 PUSH1 0x0 DUP8 DUP1 EXTCODESIZE ISZERO DUP1 ISZERO PUSH3 0x87C JUMPI PUSH1 0x0 DUP1 REVERT JUMPDEST POP GAS CALL ISZERO DUP1 ISZERO PUSH3 0x891 JUMPI RETURNDATASIZE PUSH1 0x0 DUP1 RETURNDATACOPY RETURNDATASIZE PUSH1 0x0 REVERT JUMPDEST POP POP POP POP PUSH1 0x40 MLOAD RETURNDATASIZE PUSH1 0x1F NOT PUSH1 0x1F DUP3 ADD AND DUP3 ADD DUP1 PUSH1 0x40 MSTORE POP DUP2 ADD SWAP1 PUSH3 0x8B7 SWAP2 SWAP1 PUSH3 0x2488 JUMP JUMPDEST POP PUSH32 0x4211EAD49BF362672E4351D6E542F467B16D61128C523D3A6710CD20A89A894B DUP5 PUSH20 0xFFFFFFFFFFFFFFFFFFFFFFFFFFFFFFFFFFFFFFFF AND PUSH4 0xC17BD75E PUSH1 0x40 MLOAD DUP2 PUSH4 0xFFFFFFFF AND PUSH1 0xE0 SHL DUP2 MSTORE PUSH1 0x4 ADD PUSH1 0x0 PUSH1 0x40 MLOAD DUP1 DUP4 SUB DUP2 DUP7 DUP1 EXTCODESIZE ISZERO DUP1 ISZERO PUSH3 0x920 JUMPI PUSH1 0x0 DUP1 REVERT JUMPDEST POP GAS STATICCALL ISZERO DUP1 ISZERO PUSH3 0x935 JUMPI RETURNDATASIZE PUSH1 0x0 DUP1 RETURNDATACOPY RETURNDATASIZE PUSH1 0x0 REVERT JUMPDEST POP POP POP POP PUSH1 0x40 MLOAD RETURNDATASIZE PUSH1 0x0 DUP3 RETURNDATACOPY RETURNDATASIZE PUSH1 0x1F NOT PUSH1 0x1F DUP3 ADD AND DUP3 ADD DUP1 PUSH1 0x40 MSTORE POP DUP2 ADD SWAP1 PUSH3 0x960 SWAP2 SWAP1 PUSH3 0x2227 JUMP JUMPDEST DUP6 PUSH20 0xFFFFFFFFFFFFFFFFFFFFFFFFFFFFFFFFFFFFFFFF AND PUSH4 0x23BD4D7A PUSH1 0x40 MLOAD DUP2 PUSH4 0xFFFFFFFF AND PUSH1 0xE0 SHL DUP2 MSTORE PUSH1 0x4 ADD PUSH1 0x0 PUSH1 0x40 MLOAD DUP1 DUP4 SUB DUP2 DUP7 DUP1 EXTCODESIZE ISZERO DUP1 ISZERO PUSH3 0x9A7 JUMPI PUSH1 0x0 DUP1 REVERT JUMPDEST POP GAS STATICCALL ISZERO DUP1 ISZERO PUSH3 0x9BC JUMPI RETURNDATASIZE PUSH1 0x0 DUP1 RETURNDATACOPY RETURNDATASIZE PUSH1 0x0 REVERT JUMPDEST POP POP POP POP PUSH1 0x40 MLOAD RETURNDATASIZE PUSH1 0x0 DUP3 RETURNDATACOPY RETURNDATASIZE PUSH1 0x1F NOT PUSH1 0x1F DUP3 ADD AND DUP3 ADD DUP1 PUSH1 0x40 MSTORE POP DUP2 ADD SWAP1 PUSH3 0x9E7 SWAP2 SWAP1 PUSH3 0x2227 JUMP JUMPDEST DUP9 DUP6 CALLER DUP7 TIMESTAMP PUSH1 0x40 MLOAD PUSH3 0xA01 SWAP8 SWAP7 SWAP6 SWAP5 SWAP4 SWAP3 SWAP2 SWAP1 PUSH3 0x272D JUMP JUMPDEST PUSH1 0x40 MLOAD DUP1 SWAP2 SUB SWAP1 LOG1 POP POP DUP1 DUP1 PUSH3 0xA18 SWAP1 PUSH3 0x27B8 JUMP JUMPDEST SWAP2 POP POP PUSH3 0x65D JUMP JUMPDEST POP PUSH1 0x1 SWAP2 POP POP SWAP2 SWAP1 POP JUMP JUMPDEST PUSH1 0x0 DUP1 DUP5 SWAP1 POP PUSH1 0x1 ISZERO ISZERO PUSH3 0xAC7 DUP3 PUSH20 0xFFFFFFFFFFFFFFFFFFFFFFFFFFFFFFFFFFFFFFFF AND PUSH4 0xC17BD75E PUSH1 0x40 MLOAD DUP2 PUSH4 0xFFFFFFFF AND PUSH1 0xE0 SHL DUP2 MSTORE PUSH1 0x4 ADD PUSH1 0x0 PUSH1 0x40 MLOAD DUP1 DUP4 SUB DUP2 DUP7 DUP1 EXTCODESIZE ISZERO DUP1 ISZERO PUSH3 0xA81 JUMPI PUSH1 0x0 DUP1 REVERT JUMPDEST POP GAS STATICCALL ISZERO DUP1 ISZERO PUSH3 0xA96 JUMPI RETURNDATASIZE PUSH1 0x0 DUP1 RETURNDATACOPY RETURNDATASIZE PUSH1 0x0 REVERT JUMPDEST POP POP POP POP PUSH1 0x40 MLOAD RETURNDATASIZE PUSH1 0x0 DUP3 RETURNDATACOPY RETURNDATASIZE PUSH1 0x1F NOT PUSH1 0x1F DUP3 ADD AND DUP3 ADD DUP1 PUSH1 0x40 MSTORE POP DUP2 ADD SWAP1 PUSH3 0xAC1 SWAP2 SWAP1 PUSH3 0x2227 JUMP JUMPDEST PUSH3 0x18A0 JUMP JUMPDEST ISZERO ISZERO EQ PUSH3 0xB0C JUMPI PUSH1 0x40 MLOAD PUSH32 0x8C379A000000000000000000000000000000000000000000000000000000000 DUP2 MSTORE PUSH1 0x4 ADD PUSH3 0xB03 SWAP1 PUSH3 0x22EE JUMP JUMPDEST PUSH1 0x40 MLOAD DUP1 SWAP2 SUB SWAP1 REVERT JUMPDEST PUSH1 0x0 PUSH1 0x2 PUSH1 0x0 DUP8 PUSH20 0xFFFFFFFFFFFFFFFFFFFFFFFFFFFFFFFFFFFFFFFF AND PUSH20 0xFFFFFFFFFFFFFFFFFFFFFFFFFFFFFFFFFFFFFFFF AND DUP2 MSTORE PUSH1 0x20 ADD SWAP1 DUP2 MSTORE PUSH1 0x20 ADD PUSH1 0x0 KECCAK256 DUP1 SLOAD PUSH3 0xB5A SWAP1 PUSH3 0x2173 JUMP JUMPDEST SWAP1 POP EQ ISZERO PUSH3 0xBA0 JUMPI PUSH1 0x40 MLOAD PUSH32 0x8C379A000000000000000000000000000000000000000000000000000000000 DUP2 MSTORE PUSH1 0x4 ADD PUSH3 0xB97 SWAP1 PUSH3 0x287C JUMP JUMPDEST PUSH1 0x40 MLOAD DUP1 SWAP2 SUB SWAP1 REVERT JUMPDEST DUP1 PUSH20 0xFFFFFFFFFFFFFFFFFFFFFFFFFFFFFFFFFFFFFFFF AND PUSH4 0xB9DF819F CALLER DUP7 DUP7 PUSH1 0x40 MLOAD DUP5 PUSH4 0xFFFFFFFF AND PUSH1 0xE0 SHL DUP2 MSTORE PUSH1 0x4 ADD PUSH3 0xBDF SWAP4 SWAP3 SWAP2 SWAP1 PUSH3 0x289E JUMP JUMPDEST PUSH1 0x20 PUSH1 0x40 MLOAD DUP1 DUP4 SUB DUP2 PUSH1 0x0 DUP8 DUP1 EXTCODESIZE ISZERO DUP1 ISZERO PUSH3 0xBFA JUMPI PUSH1 0x0 DUP1 REVERT JUMPDEST POP GAS CALL ISZERO DUP1 ISZERO PUSH3 0xC0F JUMPI RETURNDATASIZE PUSH1 0x0 DUP1 RETURNDATACOPY RETURNDATASIZE PUSH1 0x0 REVERT JUMPDEST POP POP POP POP PUSH1 0x40 MLOAD RETURNDATASIZE PUSH1 0x1F NOT PUSH1 0x1F DUP3 ADD AND DUP3 ADD DUP1 PUSH1 0x40 MSTORE POP DUP2 ADD SWAP1 PUSH3 0xC35 SWAP2 SWAP1 PUSH3 0x2488 JUMP JUMPDEST POP PUSH32 0x3349EE137A7AC00A8441CE0944C2AFBA5D9BE645F5F7BE945EC0760DD68431AD DUP2 PUSH20 0xFFFFFFFFFFFFFFFFFFFFFFFFFFFFFFFFFFFFFFFF AND PUSH4 0xC17BD75E PUSH1 0x40 MLOAD DUP2 PUSH4 0xFFFFFFFF AND PUSH1 0xE0 SHL DUP2 MSTORE PUSH1 0x4 ADD PUSH1 0x0 PUSH1 0x40 MLOAD DUP1 DUP4 SUB DUP2 DUP7 DUP1 EXTCODESIZE ISZERO DUP1 ISZERO PUSH3 0xC9E JUMPI PUSH1 0x0 DUP1 REVERT JUMPDEST POP GAS STATICCALL ISZERO DUP1 ISZERO PUSH3 0xCB3 JUMPI RETURNDATASIZE PUSH1 0x0 DUP1 RETURNDATACOPY RETURNDATASIZE PUSH1 0x0 REVERT JUMPDEST POP POP POP POP PUSH1 0x40 MLOAD RETURNDATASIZE PUSH1 0x0 DUP3 RETURNDATACOPY RETURNDATASIZE PUSH1 0x1F NOT PUSH1 0x1F DUP3 ADD AND DUP3 ADD DUP1 PUSH1 0x40 MSTORE POP DUP2 ADD SWAP1 PUSH3 0xCDE SWAP2 SWAP1 PUSH3 0x2227 JUMP JUMPDEST DUP3 PUSH20 0xFFFFFFFFFFFFFFFFFFFFFFFFFFFFFFFFFFFFFFFF AND PUSH4 0x23BD4D7A PUSH1 0x40 MLOAD DUP2 PUSH4 0xFFFFFFFF AND PUSH1 0xE0 SHL DUP2 MSTORE PUSH1 0x4 ADD PUSH1 0x0 PUSH1 0x40 MLOAD DUP1 DUP4 SUB DUP2 DUP7 DUP1 EXTCODESIZE ISZERO DUP1 ISZERO PUSH3 0xD25 JUMPI PUSH1 0x0 DUP1 REVERT JUMPDEST POP GAS STATICCALL ISZERO DUP1 ISZERO PUSH3 0xD3A JUMPI RETURNDATASIZE PUSH1 0x0 DUP1 RETURNDATACOPY RETURNDATASIZE PUSH1 0x0 REVERT JUMPDEST POP POP POP POP PUSH1 0x40 MLOAD RETURNDATASIZE PUSH1 0x0 DUP3 RETURNDATACOPY RETURNDATASIZE PUSH1 0x1F NOT PUSH1 0x1F DUP3 ADD AND DUP3 ADD DUP1 PUSH1 0x40 MSTORE POP DUP2 ADD SWAP1 PUSH3 0xD65 SWAP2 SWAP1 PUSH3 0x2227 JUMP JUMPDEST DUP8 DUP8 CALLER DUP9 TIMESTAMP PUSH1 0x40 MLOAD PUSH3 0xD7F SWAP8 SWAP7 SWAP6 SWAP5 SWAP4 SWAP3 SWAP2 SWAP1 PUSH3 0x272D JUMP JUMPDEST PUSH1 0x40 MLOAD DUP1 SWAP2 SUB SWAP1 LOG1 PUSH1 0x1 SWAP2 POP POP SWAP4 SWAP3 POP POP POP JUMP JUMPDEST PUSH1 0x0 DUP1 PUSH20 0xFFFFFFFFFFFFFFFFFFFFFFFFFFFFFFFFFFFFFFFF AND PUSH1 0x1 DUP7 DUP7 PUSH1 0x40 MLOAD PUSH3 0xDC0 SWAP3 SWAP2 SWAP1 PUSH3 0x290F JUMP JUMPDEST SWAP1 DUP2 MSTORE PUSH1 0x20 ADD PUSH1 0x40 MLOAD DUP1 SWAP2 SUB SWAP1 KECCAK256 PUSH1 0x0 SWAP1 SLOAD SWAP1 PUSH2 0x100 EXP SWAP1 DIV PUSH20 0xFFFFFFFFFFFFFFFFFFFFFFFFFFFFFFFFFFFFFFFF AND PUSH20 0xFFFFFFFFFFFFFFFFFFFFFFFFFFFFFFFFFFFFFFFF AND EQ PUSH3 0xE48 JUMPI PUSH1 0x40 MLOAD PUSH32 0x8C379A000000000000000000000000000000000000000000000000000000000 DUP2 MSTORE PUSH1 0x4 ADD PUSH3 0xE3F SWAP1 PUSH3 0x29EC JUMP JUMPDEST PUSH1 0x40 MLOAD DUP1 SWAP2 SUB SWAP1 REVERT JUMPDEST DUP5 DUP5 CALLER DUP6 DUP6 PUSH1 0x40 MLOAD PUSH3 0xE5B SWAP1 PUSH3 0x1ABC JUMP JUMPDEST PUSH3 0xE6B SWAP6 SWAP5 SWAP4 SWAP3 SWAP2 SWAP1 PUSH3 0x2A41 JUMP JUMPDEST PUSH1 0x40 MLOAD DUP1 SWAP2 SUB SWAP1 PUSH1 0x0 CREATE DUP1 ISZERO DUP1 ISZERO PUSH3 0xE88 JUMPI RETURNDATASIZE PUSH1 0x0 DUP1 RETURNDATACOPY RETURNDATASIZE PUSH1 0x0 REVERT JUMPDEST POP SWAP1 POP DUP1 PUSH1 0x1 DUP7 DUP7 PUSH1 0x40 MLOAD PUSH3 0xEA0 SWAP3 SWAP2 SWAP1 PUSH3 0x290F JUMP JUMPDEST SWAP1 DUP2 MSTORE PUSH1 0x20 ADD PUSH1 0x40 MLOAD DUP1 SWAP2 SUB SWAP1 KECCAK256 PUSH1 0x0 PUSH2 0x100 EXP DUP2 SLOAD DUP2 PUSH20 0xFFFFFFFFFFFFFFFFFFFFFFFFFFFFFFFFFFFFFFFF MUL NOT AND SWAP1 DUP4 PUSH20 0xFFFFFFFFFFFFFFFFFFFFFFFFFFFFFFFFFFFFFFFF AND MUL OR SWAP1 SSTORE POP DUP5 DUP5 PUSH1 0x2 PUSH1 0x0 DUP5 PUSH20 0xFFFFFFFFFFFFFFFFFFFFFFFFFFFFFFFFFFFFFFFF AND PUSH20 0xFFFFFFFFFFFFFFFFFFFFFFFFFFFFFFFFFFFFFFFF AND DUP2 MSTORE PUSH1 0x20 ADD SWAP1 DUP2 MSTORE PUSH1 0x20 ADD PUSH1 0x0 KECCAK256 SWAP2 SWAP1 PUSH3 0xF3C SWAP3 SWAP2 SWAP1 PUSH3 0x1ACA JUMP JUMPDEST POP PUSH32 0x9B4EC425461E6B6E22C6B5A40C3FBA7C8200DBC1832B92910140D4311872C139 DUP6 DUP6 DUP6 DUP6 CALLER DUP7 TIMESTAMP PUSH1 0x40 MLOAD PUSH3 0xF7A SWAP8 SWAP7 SWAP6 SWAP5 SWAP4 SWAP3 SWAP2 SWAP1 PUSH3 0x2A90 JUMP JUMPDEST PUSH1 0x40 MLOAD DUP1 SWAP2 SUB SWAP1 LOG1 SWAP5 SWAP4 POP POP POP POP JUMP JUMPDEST PUSH3 0xF94 PUSH3 0x19F0 JUMP JUMPDEST PUSH20 0xFFFFFFFFFFFFFFFFFFFFFFFFFFFFFFFFFFFFFFFF AND PUSH3 0xFB4 PUSH3 0x1726 JUMP JUMPDEST PUSH20 0xFFFFFFFFFFFFFFFFFFFFFFFFFFFFFFFFFFFFFFFF AND EQ PUSH3 0x100D JUMPI PUSH1 0x40 MLOAD PUSH32 0x8C379A000000000000000000000000000000000000000000000000000000000 DUP2 MSTORE PUSH1 0x4 ADD PUSH3 0x1004 SWAP1 PUSH3 0x2B4F JUMP JUMPDEST PUSH1 0x40 MLOAD DUP1 SWAP2 SUB SWAP1 REVERT JUMPDEST PUSH1 0x0 PUSH1 0x1 DUP5 DUP5 PUSH1 0x40 MLOAD PUSH3 0x1023 SWAP3 SWAP2 SWAP1 PUSH3 0x290F JUMP JUMPDEST SWAP1 DUP2 MSTORE PUSH1 0x20 ADD PUSH1 0x40 MLOAD DUP1 SWAP2 SUB SWAP1 KECCAK256 PUSH1 0x0 SWAP1 SLOAD SWAP1 PUSH2 0x100 EXP SWAP1 DIV PUSH20 0xFFFFFFFFFFFFFFFFFFFFFFFFFFFFFFFFFFFFFFFF AND SWAP1 POP PUSH1 0x0 DUP2 SWAP1 POP PUSH1 0x1 ISZERO ISZERO PUSH3 0x10EE DUP3 PUSH20 0xFFFFFFFFFFFFFFFFFFFFFFFFFFFFFFFFFFFFFFFF AND PUSH4 0xC17BD75E PUSH1 0x40 MLOAD DUP2 PUSH4 0xFFFFFFFF AND PUSH1 0xE0 SHL DUP2 MSTORE PUSH1 0x4 ADD PUSH1 0x0 PUSH1 0x40 MLOAD DUP1 DUP4 SUB DUP2 DUP7 DUP1 EXTCODESIZE ISZERO DUP1 ISZERO PUSH3 0x10A8 JUMPI PUSH1 0x0 DUP1 REVERT JUMPDEST POP GAS STATICCALL ISZERO DUP1 ISZERO PUSH3 0x10BD JUMPI RETURNDATASIZE PUSH1 0x0 DUP1 RETURNDATACOPY RETURNDATASIZE PUSH1 0x0 REVERT JUMPDEST POP POP POP POP PUSH1 0x40 MLOAD RETURNDATASIZE PUSH1 0x0 DUP3 RETURNDATACOPY RETURNDATASIZE PUSH1 0x1F NOT PUSH1 0x1F DUP3 ADD AND DUP3 ADD DUP1 PUSH1 0x40 MSTORE POP DUP2 ADD SWAP1 PUSH3 0x10E8 SWAP2 SWAP1 PUSH3 0x2227 JUMP JUMPDEST PUSH3 0x18A0 JUMP JUMPDEST ISZERO ISZERO EQ PUSH3 0x1133 JUMPI PUSH1 0x40 MLOAD PUSH32 0x8C379A000000000000000000000000000000000000000000000000000000000 DUP2 MSTORE PUSH1 0x4 ADD PUSH3 0x112A SWAP1 PUSH3 0x2BE7 JUMP JUMPDEST PUSH1 0x40 MLOAD DUP1 SWAP2 SUB SWAP1 REVERT JUMPDEST PUSH1 0x0 JUMPDEST DUP2 PUSH20 0xFFFFFFFFFFFFFFFFFFFFFFFFFFFFFFFFFFFFFFFF AND PUSH4 0xFC5D2CF4 PUSH1 0x40 MLOAD DUP2 PUSH4 0xFFFFFFFF AND PUSH1 0xE0 SHL DUP2 MSTORE PUSH1 0x4 ADD PUSH1 0x0 PUSH1 0x40 MLOAD DUP1 DUP4 SUB DUP2 DUP7 DUP1 EXTCODESIZE ISZERO DUP1 ISZERO PUSH3 0x117D JUMPI PUSH1 0x0 DUP1 REVERT JUMPDEST POP GAS STATICCALL ISZERO DUP1 ISZERO PUSH3 0x1192 JUMPI RETURNDATASIZE PUSH1 0x0 DUP1 RETURNDATACOPY RETURNDATASIZE PUSH1 0x0 REVERT JUMPDEST POP POP POP POP PUSH1 0x40 MLOAD RETURNDATASIZE PUSH1 0x0 DUP3 RETURNDATACOPY RETURNDATASIZE PUSH1 0x1F NOT PUSH1 0x1F DUP3 ADD AND DUP3 ADD DUP1 PUSH1 0x40 MSTORE POP DUP2 ADD SWAP1 PUSH3 0x11BD SWAP2 SWAP1 PUSH3 0x263F JUMP JUMPDEST MLOAD DUP2 LT ISZERO PUSH3 0x14E9 JUMPI PUSH1 0x0 DUP3 PUSH20 0xFFFFFFFFFFFFFFFFFFFFFFFFFFFFFFFFFFFFFFFF AND PUSH4 0xDF9229F0 DUP4 PUSH1 0x40 MLOAD DUP3 PUSH4 0xFFFFFFFF AND PUSH1 0xE0 SHL DUP2 MSTORE PUSH1 0x4 ADD PUSH3 0x1203 SWAP2 SWAP1 PUSH3 0x2C09 JUMP JUMPDEST PUSH1 0x20 PUSH1 0x40 MLOAD DUP1 DUP4 SUB DUP2 DUP7 DUP1 EXTCODESIZE ISZERO DUP1 ISZERO PUSH3 0x121C JUMPI PUSH1 0x0 DUP1 REVERT JUMPDEST POP GAS STATICCALL ISZERO DUP1 ISZERO PUSH3 0x1231 JUMPI RETURNDATASIZE PUSH1 0x0 DUP1 RETURNDATACOPY RETURNDATASIZE PUSH1 0x0 REVERT JUMPDEST POP POP POP POP PUSH1 0x40 MLOAD RETURNDATASIZE PUSH1 0x1F NOT PUSH1 0x1F DUP3 ADD AND DUP3 ADD DUP1 PUSH1 0x40 MSTORE POP DUP2 ADD SWAP1 PUSH3 0x1257 SWAP2 SWAP1 PUSH3 0x26CE JUMP JUMPDEST SWAP1 POP PUSH1 0x0 DUP4 PUSH20 0xFFFFFFFFFFFFFFFFFFFFFFFFFFFFFFFFFFFFFFFF AND PUSH4 0xB588D225 DUP4 PUSH1 0x40 MLOAD DUP3 PUSH4 0xFFFFFFFF AND PUSH1 0xE0 SHL DUP2 MSTORE PUSH1 0x4 ADD PUSH3 0x1296 SWAP2 SWAP1 PUSH3 0x1ECB JUMP JUMPDEST PUSH1 0x20 PUSH1 0x40 MLOAD DUP1 DUP4 SUB DUP2 DUP7 DUP1 EXTCODESIZE ISZERO DUP1 ISZERO PUSH3 0x12AF JUMPI PUSH1 0x0 DUP1 REVERT JUMPDEST POP GAS STATICCALL ISZERO DUP1 ISZERO PUSH3 0x12C4 JUMPI RETURNDATASIZE PUSH1 0x0 DUP1 RETURNDATACOPY RETURNDATASIZE PUSH1 0x0 REVERT JUMPDEST POP POP POP POP PUSH1 0x40 MLOAD RETURNDATASIZE PUSH1 0x1F NOT PUSH1 0x1F DUP3 ADD AND DUP3 ADD DUP1 PUSH1 0x40 MSTORE POP DUP2 ADD SWAP1 PUSH3 0x12EA SWAP2 SWAP1 PUSH3 0x2327 JUMP JUMPDEST SWAP1 POP DUP4 PUSH20 0xFFFFFFFFFFFFFFFFFFFFFFFFFFFFFFFFFFFFFFFF AND PUSH4 0x21C0B342 DUP8 DUP5 PUSH1 0x40 MLOAD DUP4 PUSH4 0xFFFFFFFF AND PUSH1 0xE0 SHL DUP2 MSTORE PUSH1 0x4 ADD PUSH3 0x1329 SWAP3 SWAP2 SWAP1 PUSH3 0x2700 JUMP JUMPDEST PUSH1 0x20 PUSH1 0x40 MLOAD DUP1 DUP4 SUB DUP2 PUSH1 0x0 DUP8 DUP1 EXTCODESIZE ISZERO DUP1 ISZERO PUSH3 0x1344 JUMPI PUSH1 0x0 DUP1 REVERT JUMPDEST POP GAS CALL ISZERO DUP1 ISZERO PUSH3 0x1359 JUMPI RETURNDATASIZE PUSH1 0x0 DUP1 RETURNDATACOPY RETURNDATASIZE PUSH1 0x0 REVERT JUMPDEST POP POP POP POP PUSH1 0x40 MLOAD RETURNDATASIZE PUSH1 0x1F NOT PUSH1 0x1F DUP3 ADD AND DUP3 ADD DUP1 PUSH1 0x40 MSTORE POP DUP2 ADD SWAP1 PUSH3 0x137F SWAP2 SWAP1 PUSH3 0x2488 JUMP JUMPDEST POP PUSH32 0x115A7A7D5F5CACEC69CD610A9EEEDEDB99E12DEA6CB7F441FD372EBC0A4519F7 DUP5 PUSH20 0xFFFFFFFFFFFFFFFFFFFFFFFFFFFFFFFFFFFFFFFF AND PUSH4 0xC17BD75E PUSH1 0x40 MLOAD DUP2 PUSH4 0xFFFFFFFF AND PUSH1 0xE0 SHL DUP2 MSTORE PUSH1 0x4 ADD PUSH1 0x0 PUSH1 0x40 MLOAD DUP1 DUP4 SUB DUP2 DUP7 DUP1 EXTCODESIZE ISZERO DUP1 ISZERO PUSH3 0x13E8 JUMPI PUSH1 0x0 DUP1 REVERT JUMPDEST POP GAS STATICCALL ISZERO DUP1 ISZERO PUSH3 0x13FD JUMPI RETURNDATASIZE PUSH1 0x0 DUP1 RETURNDATACOPY RETURNDATASIZE PUSH1 0x0 REVERT JUMPDEST POP POP POP POP PUSH1 0x40 MLOAD RETURNDATASIZE PUSH1 0x0 DUP3 RETURNDATACOPY RETURNDATASIZE PUSH1 0x1F NOT PUSH1 0x1F DUP3 ADD AND DUP3 ADD DUP1 PUSH1 0x40 MSTORE POP DUP2 ADD SWAP1 PUSH3 0x1428 SWAP2 SWAP1 PUSH3 0x2227 JUMP JUMPDEST DUP6 PUSH20 0xFFFFFFFFFFFFFFFFFFFFFFFFFFFFFFFFFFFFFFFF AND PUSH4 0x23BD4D7A PUSH1 0x40 MLOAD DUP2 PUSH4 0xFFFFFFFF AND PUSH1 0xE0 SHL DUP2 MSTORE PUSH1 0x4 ADD PUSH1 0x0 PUSH1 0x40 MLOAD DUP1 DUP4 SUB DUP2 DUP7 DUP1 EXTCODESIZE ISZERO DUP1 ISZERO PUSH3 0x146F JUMPI PUSH1 0x0 DUP1 REVERT JUMPDEST POP GAS STATICCALL ISZERO DUP1 ISZERO PUSH3 0x1484 JUMPI RETURNDATASIZE PUSH1 0x0 DUP1 RETURNDATACOPY RETURNDATASIZE PUSH1 0x0 REVERT JUMPDEST POP POP POP POP PUSH1 0x40 MLOAD RETURNDATASIZE PUSH1 0x0 DUP3 RETURNDATACOPY RETURNDATASIZE PUSH1 0x1F NOT PUSH1 0x1F DUP3 ADD AND DUP3 ADD DUP1 PUSH1 0x40 MSTORE POP DUP2 ADD SWAP1 PUSH3 0x14AF SWAP2 SWAP1 PUSH3 0x2227 JUMP JUMPDEST DUP8 DUP6 DUP11 DUP7 TIMESTAMP PUSH1 0x40 MLOAD PUSH3 0x14C9 SWAP8 SWAP7 SWAP6 SWAP5 SWAP4 SWAP3 SWAP2 SWAP1 PUSH3 0x272D JUMP JUMPDEST PUSH1 0x40 MLOAD DUP1 SWAP2 SUB SWAP1 LOG1 POP POP DUP1 DUP1 PUSH3 0x14E0 SWAP1 PUSH3 0x27B8 JUMP JUMPDEST SWAP2 POP POP PUSH3 0x1136 JUMP JUMPDEST POP DUP1 PUSH20 0xFFFFFFFFFFFFFFFFFFFFFFFFFFFFFFFFFFFFFFFF AND PUSH4 0xEC05635C DUP5 PUSH1 0x40 MLOAD DUP3 PUSH4 0xFFFFFFFF AND PUSH1 0xE0 SHL DUP2 MSTORE PUSH1 0x4 ADD PUSH3 0x1525 SWAP2 SWAP1 PUSH3 0x1ECB JUMP JUMPDEST PUSH1 0x20 PUSH1 0x40 MLOAD DUP1 DUP4 SUB DUP2 PUSH1 0x0 DUP8 DUP1 EXTCODESIZE ISZERO DUP1 ISZERO PUSH3 0x1540 JUMPI PUSH1 0x0 DUP1 REVERT JUMPDEST POP GAS CALL ISZERO DUP1 ISZERO PUSH3 0x1555 JUMPI RETURNDATASIZE PUSH1 0x0 DUP1 RETURNDATACOPY RETURNDATASIZE PUSH1 0x0 REVERT JUMPDEST POP POP POP POP PUSH1 0x40 MLOAD RETURNDATASIZE PUSH1 0x1F NOT PUSH1 0x1F DUP3 ADD AND DUP3 ADD DUP1 PUSH1 0x40 MSTORE POP DUP2 ADD SWAP1 PUSH3 0x157B SWAP2 SWAP1 PUSH3 0x2488 JUMP JUMPDEST POP PUSH32 0xD03054905E687534A4568646ABD4D931CEDD194FE3AB9AA9A91BE330968DFBD7 DUP6 DUP6 DUP4 PUSH20 0xFFFFFFFFFFFFFFFFFFFFFFFFFFFFFFFFFFFFFFFF AND PUSH4 0x23BD4D7A PUSH1 0x40 MLOAD DUP2 PUSH4 0xFFFFFFFF AND PUSH1 0xE0 SHL DUP2 MSTORE PUSH1 0x4 ADD PUSH1 0x0 PUSH1 0x40 MLOAD DUP1 DUP4 SUB DUP2 DUP7 DUP1 EXTCODESIZE ISZERO DUP1 ISZERO PUSH3 0x15E6 JUMPI PUSH1 0x0 DUP1 REVERT JUMPDEST POP GAS STATICCALL ISZERO DUP1 ISZERO PUSH3 0x15FB JUMPI RETURNDATASIZE PUSH1 0x0 DUP1 RETURNDATACOPY RETURNDATASIZE PUSH1 0x0 REVERT JUMPDEST POP POP POP POP PUSH1 0x40 MLOAD RETURNDATASIZE PUSH1 0x0 DUP3 RETURNDATACOPY RETURNDATASIZE PUSH1 0x1F NOT PUSH1 0x1F DUP3 ADD AND DUP3 ADD DUP1 PUSH1 0x40 MSTORE POP DUP2 ADD SWAP1 PUSH3 0x1626 SWAP2 SWAP1 PUSH3 0x2227 JUMP JUMPDEST DUP6 DUP8 TIMESTAMP PUSH1 0x40 MLOAD PUSH3 0x163D SWAP7 SWAP6 SWAP5 SWAP4 SWAP3 SWAP2 SWAP1 PUSH3 0x2C26 JUMP JUMPDEST PUSH1 0x40 MLOAD DUP1 SWAP2 SUB SWAP1 LOG1 POP POP POP POP POP JUMP JUMPDEST PUSH1 0x1 DUP2 DUP1 MLOAD PUSH1 0x20 DUP2 ADD DUP3 ADD DUP1 MLOAD DUP5 DUP3 MSTORE PUSH1 0x20 DUP4 ADD PUSH1 0x20 DUP6 ADD KECCAK256 DUP2 DUP4 MSTORE DUP1 SWAP6 POP POP POP POP POP POP PUSH1 0x0 SWAP2 POP SLOAD SWAP1 PUSH2 0x100 EXP SWAP1 DIV PUSH20 0xFFFFFFFFFFFFFFFFFFFFFFFFFFFFFFFFFFFFFFFF AND DUP2 JUMP JUMPDEST PUSH3 0x169F PUSH3 0x19F0 JUMP JUMPDEST PUSH20 0xFFFFFFFFFFFFFFFFFFFFFFFFFFFFFFFFFFFFFFFF AND PUSH3 0x16BF PUSH3 0x1726 JUMP JUMPDEST PUSH20 0xFFFFFFFFFFFFFFFFFFFFFFFFFFFFFFFFFFFFFFFF AND EQ PUSH3 0x1718 JUMPI PUSH1 0x40 MLOAD PUSH32 0x8C379A000000000000000000000000000000000000000000000000000000000 DUP2 MSTORE PUSH1 0x4 ADD PUSH3 0x170F SWAP1 PUSH3 0x2B4F JUMP JUMPDEST PUSH1 0x40 MLOAD DUP1 SWAP2 SUB SWAP1 REVERT JUMPDEST PUSH3 0x1724 PUSH1 0x0 PUSH3 0x19F8 JUMP JUMPDEST JUMP JUMPDEST PUSH1 0x0 DUP1 PUSH1 0x0 SWAP1 SLOAD SWAP1 PUSH2 0x100 EXP SWAP1 DIV PUSH20 0xFFFFFFFFFFFFFFFFFFFFFFFFFFFFFFFFFFFFFFFF AND SWAP1 POP SWAP1 JUMP JUMPDEST PUSH3 0x1759 PUSH3 0x19F0 JUMP JUMPDEST PUSH20 0xFFFFFFFFFFFFFFFFFFFFFFFFFFFFFFFFFFFFFFFF AND PUSH3 0x1779 PUSH3 0x1726 JUMP JUMPDEST PUSH20 0xFFFFFFFFFFFFFFFFFFFFFFFFFFFFFFFFFFFFFFFF AND EQ PUSH3 0x17D2 JUMPI PUSH1 0x40 MLOAD PUSH32 0x8C379A000000000000000000000000000000000000000000000000000000000 DUP2 MSTORE PUSH1 0x4 ADD PUSH3 0x17C9 SWAP1 PUSH3 0x2B4F JUMP JUMPDEST PUSH1 0x40 MLOAD DUP1 SWAP2 SUB SWAP1 REVERT JUMPDEST PUSH1 0x0 PUSH20 0xFFFFFFFFFFFFFFFFFFFFFFFFFFFFFFFFFFFFFFFF AND DUP2 PUSH20 0xFFFFFFFFFFFFFFFFFFFFFFFFFFFFFFFFFFFFFFFF AND EQ ISZERO PUSH3 0x1845 JUMPI PUSH1 0x40 MLOAD PUSH32 0x8C379A000000000000000000000000000000000000000000000000000000000 DUP2 MSTORE PUSH1 0x4 ADD PUSH3 0x183C SWAP1 PUSH3 0x2D09 JUMP JUMPDEST PUSH1 0x40 MLOAD DUP1 SWAP2 SUB SWAP1 REVERT JUMPDEST PUSH3 0x1850 DUP2 PUSH3 0x19F8 JUMP JUMPDEST POP JUMP JUMPDEST PUSH1 0x0 PUSH1 0x1 DUP4 DUP4 PUSH1 0x40 MLOAD PUSH3 0x1869 SWAP3 SWAP2 SWAP1 PUSH3 0x290F JUMP JUMPDEST SWAP1 DUP2 MSTORE PUSH1 0x20 ADD PUSH1 0x40 MLOAD DUP1 SWAP2 SUB SWAP1 KECCAK256 PUSH1 0x0 SWAP1 SLOAD SWAP1 PUSH2 0x100 EXP SWAP1 DIV PUSH20 0xFFFFFFFFFFFFFFFFFFFFFFFFFFFFFFFFFFFFFFFF AND SWAP1 POP SWAP3 SWAP2 POP POP JUMP JUMPDEST PUSH1 0x0 DUP1 ADDRESS PUSH20 0xFFFFFFFFFFFFFFFFFFFFFFFFFFFFFFFFFFFFFFFF AND PUSH4 0x48BD1E99 DUP5 PUSH1 0x40 MLOAD DUP3 PUSH4 0xFFFFFFFF AND PUSH1 0xE0 SHL DUP2 MSTORE PUSH1 0x4 ADD PUSH3 0x18DE SWAP2 SWAP1 PUSH3 0x1CC9 JUMP JUMPDEST PUSH1 0x20 PUSH1 0x40 MLOAD DUP1 DUP4 SUB DUP2 DUP7 DUP1 EXTCODESIZE ISZERO DUP1 ISZERO PUSH3 0x18F7 JUMPI PUSH1 0x0 DUP1 REVERT JUMPDEST POP GAS STATICCALL ISZERO DUP1 ISZERO PUSH3 0x190C JUMPI RETURNDATASIZE PUSH1 0x0 DUP1 RETURNDATACOPY RETURNDATASIZE PUSH1 0x0 REVERT JUMPDEST POP POP POP POP PUSH1 0x40 MLOAD RETURNDATASIZE PUSH1 0x1F NOT PUSH1 0x1F DUP3 ADD AND DUP3 ADD DUP1 PUSH1 0x40 MSTORE POP DUP2 ADD SWAP1 PUSH3 0x1932 SWAP2 SWAP1 PUSH3 0x26CE JUMP JUMPDEST SWAP1 POP PUSH1 0x0 DUP1 PUSH1 0x1 DUP2 GT ISZERO PUSH3 0x194C JUMPI PUSH3 0x194B PUSH3 0x2D2B JUMP JUMPDEST JUMPDEST DUP3 PUSH20 0xFFFFFFFFFFFFFFFFFFFFFFFFFFFFFFFFFFFFFFFF AND PUSH4 0x200D2ED2 PUSH1 0x40 MLOAD DUP2 PUSH4 0xFFFFFFFF AND PUSH1 0xE0 SHL DUP2 MSTORE PUSH1 0x4 ADD PUSH1 0x20 PUSH1 0x40 MLOAD DUP1 DUP4 SUB DUP2 DUP7 DUP1 EXTCODESIZE ISZERO DUP1 ISZERO PUSH3 0x1993 JUMPI PUSH1 0x0 DUP1 REVERT JUMPDEST POP GAS STATICCALL ISZERO DUP1 ISZERO PUSH3 0x19A8 JUMPI RETURNDATASIZE PUSH1 0x0 DUP1 RETURNDATACOPY RETURNDATASIZE PUSH1 0x0 REVERT JUMPDEST POP POP POP POP PUSH1 0x40 MLOAD RETURNDATASIZE PUSH1 0x1F NOT PUSH1 0x1F DUP3 ADD AND DUP3 ADD DUP1 PUSH1 0x40 MSTORE POP DUP2 ADD SWAP1 PUSH3 0x19CE SWAP2 SWAP1 PUSH3 0x2D82 JUMP JUMPDEST PUSH1 0x1 DUP2 GT ISZERO PUSH3 0x19E3 JUMPI PUSH3 0x19E2 PUSH3 0x2D2B JUMP JUMPDEST JUMPDEST EQ SWAP1 POP DUP1 SWAP3 POP POP POP SWAP2 SWAP1 POP JUMP JUMPDEST PUSH1 0x0 CALLER SWAP1 POP SWAP1 JUMP JUMPDEST PUSH1 0x0 DUP1 PUSH1 0x0 SWAP1 SLOAD SWAP1 PUSH2 0x100 EXP SWAP1 DIV PUSH20 0xFFFFFFFFFFFFFFFFFFFFFFFFFFFFFFFFFFFFFFFF AND SWAP1 POP DUP2 PUSH1 0x0 DUP1 PUSH2 0x100 EXP DUP2 SLOAD DUP2 PUSH20 0xFFFFFFFFFFFFFFFFFFFFFFFFFFFFFFFFFFFFFFFF MUL NOT AND SWAP1 DUP4 PUSH20 0xFFFFFFFFFFFFFFFFFFFFFFFFFFFFFFFFFFFFFFFF AND MUL OR SWAP1 SSTORE POP DUP2 PUSH20 0xFFFFFFFFFFFFFFFFFFFFFFFFFFFFFFFFFFFFFFFF AND DUP2 PUSH20 0xFFFFFFFFFFFFFFFFFFFFFFFFFFFFFFFFFFFFFFFF AND PUSH32 0x8BE0079C531659141344CD1FD0A4F28419497F9722A3DAAFE3B4186F6B6457E0 PUSH1 0x40 MLOAD PUSH1 0x40 MLOAD DUP1 SWAP2 SUB SWAP1 LOG3 POP POP JUMP JUMPDEST PUSH2 0x27AD DUP1 PUSH3 0x2DB5 DUP4 CODECOPY ADD SWAP1 JUMP JUMPDEST DUP3 DUP1 SLOAD PUSH3 0x1AD8 SWAP1 PUSH3 0x2173 JUMP JUMPDEST SWAP1 PUSH1 0x0 MSTORE PUSH1 0x20 PUSH1 0x0 KECCAK256 SWAP1 PUSH1 0x1F ADD PUSH1 0x20 SWAP1 DIV DUP2 ADD SWAP3 DUP3 PUSH3 0x1AFC JUMPI PUSH1 0x0 DUP6 SSTORE PUSH3 0x1B48 JUMP JUMPDEST DUP3 PUSH1 0x1F LT PUSH3 0x1B17 JUMPI DUP1 CALLDATALOAD PUSH1 0xFF NOT AND DUP4 DUP1 ADD OR DUP6 SSTORE PUSH3 0x1B48 JUMP JUMPDEST DUP3 DUP1 ADD PUSH1 0x1 ADD DUP6 SSTORE DUP3 ISZERO PUSH3 0x1B48 JUMPI SWAP2 DUP3 ADD JUMPDEST DUP3 DUP2 GT ISZERO PUSH3 0x1B47 JUMPI DUP3 CALLDATALOAD DUP3 SSTORE SWAP2 PUSH1 0x20 ADD SWAP2 SWAP1 PUSH1 0x1 ADD SWAP1 PUSH3 0x1B2A JUMP JUMPDEST JUMPDEST POP SWAP1 POP PUSH3 0x1B57 SWAP2 SWAP1 PUSH3 0x1B5B JUMP JUMPDEST POP SWAP1 JUMP JUMPDEST JUMPDEST DUP1 DUP3 GT ISZERO PUSH3 0x1B76 JUMPI PUSH1 0x0 DUP2 PUSH1 0x0 SWAP1 SSTORE POP PUSH1 0x1 ADD PUSH3 0x1B5C JUMP JUMPDEST POP SWAP1 JUMP JUMPDEST PUSH1 0x0 PUSH1 0x40 MLOAD SWAP1 POP SWAP1 JUMP JUMPDEST PUSH1 0x0 DUP1 REVERT JUMPDEST PUSH1 0x0 DUP1 REVERT JUMPDEST PUSH1 0x0 PUSH20 0xFFFFFFFFFFFFFFFFFFFFFFFFFFFFFFFFFFFFFFFF DUP3 AND SWAP1 POP SWAP2 SWAP1 POP JUMP JUMPDEST PUSH1 0x0 PUSH3 0x1BBB DUP3 PUSH3 0x1B8E JUMP JUMPDEST SWAP1 POP SWAP2 SWAP1 POP JUMP JUMPDEST PUSH3 0x1BCD DUP2 PUSH3 0x1BAE JUMP JUMPDEST DUP2 EQ PUSH3 0x1BD9 JUMPI PUSH1 0x0 DUP1 REVERT JUMPDEST POP JUMP JUMPDEST PUSH1 0x0 DUP2 CALLDATALOAD SWAP1 POP PUSH3 0x1BED DUP2 PUSH3 0x1BC2 JUMP JUMPDEST SWAP3 SWAP2 POP POP JUMP JUMPDEST PUSH1 0x0 PUSH1 0x20 DUP3 DUP5 SUB SLT ISZERO PUSH3 0x1C0C JUMPI PUSH3 0x1C0B PUSH3 0x1B84 JUMP JUMPDEST JUMPDEST PUSH1 0x0 PUSH3 0x1C1C DUP5 DUP3 DUP6 ADD PUSH3 0x1BDC JUMP JUMPDEST SWAP2 POP POP SWAP3 SWAP2 POP POP JUMP JUMPDEST PUSH1 0x0 DUP2 MLOAD SWAP1 POP SWAP2 SWAP1 POP JUMP JUMPDEST PUSH1 0x0 DUP3 DUP3 MSTORE PUSH1 0x20 DUP3 ADD SWAP1 POP SWAP3 SWAP2 POP POP JUMP JUMPDEST PUSH1 0x0 JUMPDEST DUP4 DUP2 LT ISZERO PUSH3 0x1C61 JUMPI DUP1 DUP3 ADD MLOAD DUP2 DUP5 ADD MSTORE PUSH1 0x20 DUP2 ADD SWAP1 POP PUSH3 0x1C44 JUMP JUMPDEST DUP4 DUP2 GT ISZERO PUSH3 0x1C71 JUMPI PUSH1 0x0 DUP5 DUP5 ADD MSTORE JUMPDEST POP POP POP POP JUMP JUMPDEST PUSH1 0x0 PUSH1 0x1F NOT PUSH1 0x1F DUP4 ADD AND SWAP1 POP SWAP2 SWAP1 POP JUMP JUMPDEST PUSH1 0x0 PUSH3 0x1C95 DUP3 PUSH3 0x1C25 JUMP JUMPDEST PUSH3 0x1CA1 DUP2 DUP6 PUSH3 0x1C30 JUMP JUMPDEST SWAP4 POP PUSH3 0x1CB3 DUP2 DUP6 PUSH1 0x20 DUP7 ADD PUSH3 0x1C41 JUMP JUMPDEST PUSH3 0x1CBE DUP2 PUSH3 0x1C77 JUMP JUMPDEST DUP5 ADD SWAP2 POP POP SWAP3 SWAP2 POP POP JUMP JUMPDEST PUSH1 0x0 PUSH1 0x20 DUP3 ADD SWAP1 POP DUP2 DUP2 SUB PUSH1 0x0 DUP4 ADD MSTORE PUSH3 0x1CE5 DUP2 DUP5 PUSH3 0x1C88 JUMP JUMPDEST SWAP1 POP SWAP3 SWAP2 POP POP JUMP JUMPDEST PUSH1 0x0 DUP2 ISZERO ISZERO SWAP1 POP SWAP2 SWAP1 POP JUMP JUMPDEST PUSH3 0x1D04 DUP2 PUSH3 0x1CED JUMP JUMPDEST DUP3 MSTORE POP POP JUMP JUMPDEST PUSH1 0x0 PUSH1 0x20 DUP3 ADD SWAP1 POP PUSH3 0x1D21 PUSH1 0x0 DUP4 ADD DUP5 PUSH3 0x1CF9 JUMP JUMPDEST SWAP3 SWAP2 POP POP JUMP JUMPDEST PUSH1 0x0 DUP2 SWAP1 POP SWAP2 SWAP1 POP JUMP JUMPDEST PUSH3 0x1D3C DUP2 PUSH3 0x1D27 JUMP JUMPDEST DUP2 EQ PUSH3 0x1D48 JUMPI PUSH1 0x0 DUP1 REVERT JUMPDEST POP JUMP JUMPDEST PUSH1 0x0 DUP2 CALLDATALOAD SWAP1 POP PUSH3 0x1D5C DUP2 PUSH3 0x1D31 JUMP JUMPDEST SWAP3 SWAP2 POP POP JUMP JUMPDEST PUSH1 0x0 DUP1 PUSH1 0x0 PUSH1 0x60 DUP5 DUP7 SUB SLT ISZERO PUSH3 0x1D7E JUMPI PUSH3 0x1D7D PUSH3 0x1B84 JUMP JUMPDEST JUMPDEST PUSH1 0x0 PUSH3 0x1D8E DUP7 DUP3 DUP8 ADD PUSH3 0x1BDC JUMP JUMPDEST SWAP4 POP POP PUSH1 0x20 PUSH3 0x1DA1 DUP7 DUP3 DUP8 ADD PUSH3 0x1BDC JUMP JUMPDEST SWAP3 POP POP PUSH1 0x40 PUSH3 0x1DB4 DUP7 DUP3 DUP8 ADD PUSH3 0x1D4B JUMP JUMPDEST SWAP2 POP POP SWAP3 POP SWAP3 POP SWAP3 JUMP JUMPDEST PUSH1 0x0 DUP1 REVERT JUMPDEST PUSH1 0x0 DUP1 REVERT JUMPDEST PUSH1 0x0 DUP1 REVERT JUMPDEST PUSH1 0x0 DUP1 DUP4 PUSH1 0x1F DUP5 ADD SLT PUSH3 0x1DE6 JUMPI PUSH3 0x1DE5 PUSH3 0x1DBE JUMP JUMPDEST JUMPDEST DUP3 CALLDATALOAD SWAP1 POP PUSH8 0xFFFFFFFFFFFFFFFF DUP2 GT ISZERO PUSH3 0x1E06 JUMPI PUSH3 0x1E05 PUSH3 0x1DC3 JUMP JUMPDEST JUMPDEST PUSH1 0x20 DUP4 ADD SWAP2 POP DUP4 PUSH1 0x1 DUP3 MUL DUP4 ADD GT ISZERO PUSH3 0x1E25 JUMPI PUSH3 0x1E24 PUSH3 0x1DC8 JUMP JUMPDEST JUMPDEST SWAP3 POP SWAP3 SWAP1 POP JUMP JUMPDEST PUSH1 0x0 DUP1 PUSH1 0x0 DUP1 PUSH1 0x40 DUP6 DUP8 SUB SLT ISZERO PUSH3 0x1E49 JUMPI PUSH3 0x1E48 PUSH3 0x1B84 JUMP JUMPDEST JUMPDEST PUSH1 0x0 DUP6 ADD CALLDATALOAD PUSH8 0xFFFFFFFFFFFFFFFF DUP2 GT ISZERO PUSH3 0x1E6A JUMPI PUSH3 0x1E69 PUSH3 0x1B89 JUMP JUMPDEST JUMPDEST PUSH3 0x1E78 DUP8 DUP3 DUP9 ADD PUSH3 0x1DCD JUMP JUMPDEST SWAP5 POP SWAP5 POP POP PUSH1 0x20 DUP6 ADD CALLDATALOAD PUSH8 0xFFFFFFFFFFFFFFFF DUP2 GT ISZERO PUSH3 0x1E9E JUMPI PUSH3 0x1E9D PUSH3 0x1B89 JUMP JUMPDEST JUMPDEST PUSH3 0x1EAC DUP8 DUP3 DUP9 ADD PUSH3 0x1DCD JUMP JUMPDEST SWAP3 POP SWAP3 POP POP SWAP3 SWAP6 SWAP2 SWAP5 POP SWAP3 POP JUMP JUMPDEST PUSH3 0x1EC5 DUP2 PUSH3 0x1BAE JUMP JUMPDEST DUP3 MSTORE POP POP JUMP JUMPDEST PUSH1 0x0 PUSH1 0x20 DUP3 ADD SWAP1 POP PUSH3 0x1EE2 PUSH1 0x0 DUP4 ADD DUP5 PUSH3 0x1EBA JUMP JUMPDEST SWAP3 SWAP2 POP POP JUMP JUMPDEST PUSH1 0x0 DUP1 PUSH1 0x0 PUSH1 0x40 DUP5 DUP7 SUB SLT ISZERO PUSH3 0x1F04 JUMPI PUSH3 0x1F03 PUSH3 0x1B84 JUMP JUMPDEST JUMPDEST PUSH1 0x0 DUP5 ADD CALLDATALOAD PUSH8 0xFFFFFFFFFFFFFFFF DUP2 GT ISZERO PUSH3 0x1F25 JUMPI PUSH3 0x1F24 PUSH3 0x1B89 JUMP JUMPDEST JUMPDEST PUSH3 0x1F33 DUP7 DUP3 DUP8 ADD PUSH3 0x1DCD JUMP JUMPDEST SWAP4 POP SWAP4 POP POP PUSH1 0x20 PUSH3 0x1F48 DUP7 DUP3 DUP8 ADD PUSH3 0x1BDC JUMP JUMPDEST SWAP2 POP POP SWAP3 POP SWAP3 POP SWAP3 JUMP JUMPDEST PUSH1 0x0 DUP1 REVERT JUMPDEST PUSH32 0x4E487B7100000000000000000000000000000000000000000000000000000000 PUSH1 0x0 MSTORE PUSH1 0x41 PUSH1 0x4 MSTORE PUSH1 0x24 PUSH1 0x0 REVERT JUMPDEST PUSH3 0x1F91 DUP3 PUSH3 0x1C77 JUMP JUMPDEST DUP2 ADD DUP2 DUP2 LT PUSH8 0xFFFFFFFFFFFFFFFF DUP3 GT OR ISZERO PUSH3 0x1FB3 JUMPI PUSH3 0x1FB2 PUSH3 0x1F57 JUMP JUMPDEST JUMPDEST DUP1 PUSH1 0x40 MSTORE POP POP POP JUMP JUMPDEST PUSH1 0x0 PUSH3 0x1FC8 PUSH3 0x1B7A JUMP JUMPDEST SWAP1 POP PUSH3 0x1FD6 DUP3 DUP3 PUSH3 0x1F86 JUMP JUMPDEST SWAP2 SWAP1 POP JUMP JUMPDEST PUSH1 0x0 PUSH8 0xFFFFFFFFFFFFFFFF DUP3 GT ISZERO PUSH3 0x1FF9 JUMPI PUSH3 0x1FF8 PUSH3 0x1F57 JUMP JUMPDEST JUMPDEST PUSH3 0x2004 DUP3 PUSH3 0x1C77 JUMP JUMPDEST SWAP1 POP PUSH1 0x20 DUP2 ADD SWAP1 POP SWAP2 SWAP1 POP JUMP JUMPDEST DUP3 DUP2 DUP4 CALLDATACOPY PUSH1 0x0 DUP4 DUP4 ADD MSTORE POP POP POP JUMP JUMPDEST PUSH1 0x0 PUSH3 0x2037 PUSH3 0x2031 DUP5 PUSH3 0x1FDB JUMP JUMPDEST PUSH3 0x1FBC JUMP JUMPDEST SWAP1 POP DUP3 DUP2 MSTORE PUSH1 0x20 DUP2 ADD DUP5 DUP5 DUP5 ADD GT ISZERO PUSH3 0x2056 JUMPI PUSH3 0x2055 PUSH3 0x1F52 JUMP JUMPDEST JUMPDEST PUSH3 0x2063 DUP5 DUP3 DUP6 PUSH3 0x2011 JUMP JUMPDEST POP SWAP4 SWAP3 POP POP POP JUMP JUMPDEST PUSH1 0x0 DUP3 PUSH1 0x1F DUP4 ADD SLT PUSH3 0x2083 JUMPI PUSH3 0x2082 PUSH3 0x1DBE JUMP JUMPDEST JUMPDEST DUP2 CALLDATALOAD PUSH3 0x2095 DUP5 DUP3 PUSH1 0x20 DUP7 ADD PUSH3 0x2020 JUMP JUMPDEST SWAP2 POP POP SWAP3 SWAP2 POP POP JUMP JUMPDEST PUSH1 0x0 PUSH1 0x20 DUP3 DUP5 SUB SLT ISZERO PUSH3 0x20B7 JUMPI PUSH3 0x20B6 PUSH3 0x1B84 JUMP JUMPDEST JUMPDEST PUSH1 0x0 DUP3 ADD CALLDATALOAD PUSH8 0xFFFFFFFFFFFFFFFF DUP2 GT ISZERO PUSH3 0x20D8 JUMPI PUSH3 0x20D7 PUSH3 0x1B89 JUMP JUMPDEST JUMPDEST PUSH3 0x20E6 DUP5 DUP3 DUP6 ADD PUSH3 0x206B JUMP JUMPDEST SWAP2 POP POP SWAP3 SWAP2 POP POP JUMP JUMPDEST PUSH1 0x0 DUP1 PUSH1 0x20 DUP4 DUP6 SUB SLT ISZERO PUSH3 0x2109 JUMPI PUSH3 0x2108 PUSH3 0x1B84 JUMP JUMPDEST JUMPDEST PUSH1 0x0 DUP4 ADD CALLDATALOAD PUSH8 0xFFFFFFFFFFFFFFFF DUP2 GT ISZERO PUSH3 0x212A JUMPI PUSH3 0x2129 PUSH3 0x1B89 JUMP JUMPDEST JUMPDEST PUSH3 0x2138 DUP6 DUP3 DUP7 ADD PUSH3 0x1DCD JUMP JUMPDEST SWAP3 POP SWAP3 POP POP SWAP3 POP SWAP3 SWAP1 POP JUMP JUMPDEST PUSH32 0x4E487B7100000000000000000000000000000000000000000000000000000000 PUSH1 0x0 MSTORE PUSH1 0x22 PUSH1 0x4 MSTORE PUSH1 0x24 PUSH1 0x0 REVERT JUMPDEST PUSH1 0x0 PUSH1 0x2 DUP3 DIV SWAP1 POP PUSH1 0x1 DUP3 AND DUP1 PUSH3 0x218C JUMPI PUSH1 0x7F DUP3 AND SWAP2 POP JUMPDEST PUSH1 0x20 DUP3 LT DUP2 EQ ISZERO PUSH3 0x21A3 JUMPI PUSH3 0x21A2 PUSH3 0x2144 JUMP JUMPDEST JUMPDEST POP SWAP2 SWAP1 POP JUMP JUMPDEST PUSH1 0x0 PUSH3 0x21C0 PUSH3 0x21BA DUP5 PUSH3 0x1FDB JUMP JUMPDEST PUSH3 0x1FBC JUMP JUMPDEST SWAP1 POP DUP3 DUP2 MSTORE PUSH1 0x20 DUP2 ADD DUP5 DUP5 DUP5 ADD GT ISZERO PUSH3 0x21DF JUMPI PUSH3 0x21DE PUSH3 0x1F52 JUMP JUMPDEST JUMPDEST PUSH3 0x21EC DUP5 DUP3 DUP6 PUSH3 0x1C41 JUMP JUMPDEST POP SWAP4 SWAP3 POP POP POP JUMP JUMPDEST PUSH1 0x0 DUP3 PUSH1 0x1F DUP4 ADD SLT PUSH3 0x220C JUMPI PUSH3 0x220B PUSH3 0x1DBE JUMP JUMPDEST JUMPDEST DUP2 MLOAD PUSH3 0x221E DUP5 DUP3 PUSH1 0x20 DUP7 ADD PUSH3 0x21A9 JUMP JUMPDEST SWAP2 POP POP SWAP3 SWAP2 POP POP JUMP JUMPDEST PUSH1 0x0 PUSH1 0x20 DUP3 DUP5 SUB SLT ISZERO PUSH3 0x2240 JUMPI PUSH3 0x223F PUSH3 0x1B84 JUMP JUMPDEST JUMPDEST PUSH1 0x0 DUP3 ADD MLOAD PUSH8 0xFFFFFFFFFFFFFFFF DUP2 GT ISZERO PUSH3 0x2261 JUMPI PUSH3 0x2260 PUSH3 0x1B89 JUMP JUMPDEST JUMPDEST PUSH3 0x226F DUP5 DUP3 DUP6 ADD PUSH3 0x21F4 JUMP JUMPDEST SWAP2 POP POP SWAP3 SWAP2 POP POP JUMP JUMPDEST PUSH32 0x43616E6E6F74207265717565737420726566756E64206F6E206120636C6F7365 PUSH1 0x0 DUP3 ADD MSTORE PUSH32 0x6420626F756E7479000000000000000000000000000000000000000000000000 PUSH1 0x20 DUP3 ADD MSTORE POP JUMP JUMPDEST PUSH1 0x0 PUSH3 0x22D6 PUSH1 0x28 DUP4 PUSH3 0x1C30 JUMP JUMPDEST SWAP2 POP PUSH3 0x22E3 DUP3 PUSH3 0x2278 JUMP JUMPDEST PUSH1 0x40 DUP3 ADD SWAP1 POP SWAP2 SWAP1 POP JUMP JUMPDEST PUSH1 0x0 PUSH1 0x20 DUP3 ADD SWAP1 POP DUP2 DUP2 SUB PUSH1 0x0 DUP4 ADD MSTORE PUSH3 0x2309 DUP2 PUSH3 0x22C7 JUMP JUMPDEST SWAP1 POP SWAP2 SWAP1 POP JUMP JUMPDEST PUSH1 0x0 DUP2 MLOAD SWAP1 POP PUSH3 0x2321 DUP2 PUSH3 0x1D31 JUMP JUMPDEST SWAP3 SWAP2 POP POP JUMP JUMPDEST PUSH1 0x0 PUSH1 0x20 DUP3 DUP5 SUB SLT ISZERO PUSH3 0x2340 JUMPI PUSH3 0x233F PUSH3 0x1B84 JUMP JUMPDEST JUMPDEST PUSH1 0x0 PUSH3 0x2350 DUP5 DUP3 DUP6 ADD PUSH3 0x2310 JUMP JUMPDEST SWAP2 POP POP SWAP3 SWAP2 POP POP JUMP JUMPDEST PUSH32 0x4E487B7100000000000000000000000000000000000000000000000000000000 PUSH1 0x0 MSTORE PUSH1 0x11 PUSH1 0x4 MSTORE PUSH1 0x24 PUSH1 0x0 REVERT JUMPDEST PUSH1 0x0 PUSH3 0x2395 DUP3 PUSH3 0x1D27 JUMP JUMPDEST SWAP2 POP PUSH3 0x23A2 DUP4 PUSH3 0x1D27 JUMP JUMPDEST SWAP3 POP DUP3 PUSH32 0xFFFFFFFFFFFFFFFFFFFFFFFFFFFFFFFFFFFFFFFFFFFFFFFFFFFFFFFFFFFFFFFF SUB DUP3 GT ISZERO PUSH3 0x23DA JUMPI PUSH3 0x23D9 PUSH3 0x2359 JUMP JUMPDEST JUMPDEST DUP3 DUP3 ADD SWAP1 POP SWAP3 SWAP2 POP POP JUMP JUMPDEST PUSH32 0x546F6F206561726C7920746F2077697468647261772066756E64730000000000 PUSH1 0x0 DUP3 ADD MSTORE POP JUMP JUMPDEST PUSH1 0x0 PUSH3 0x241D PUSH1 0x1B DUP4 PUSH3 0x1C30 JUMP JUMPDEST SWAP2 POP PUSH3 0x242A DUP3 PUSH3 0x23E5 JUMP JUMPDEST PUSH1 0x20 DUP3 ADD SWAP1 POP SWAP2 SWAP1 POP JUMP JUMPDEST PUSH1 0x0 PUSH1 0x20 DUP3 ADD SWAP1 POP DUP2 DUP2 SUB PUSH1 0x0 DUP4 ADD MSTORE PUSH3 0x2450 DUP2 PUSH3 0x240E JUMP JUMPDEST SWAP1 POP SWAP2 SWAP1 POP JUMP JUMPDEST PUSH3 0x2462 DUP2 PUSH3 0x1CED JUMP JUMPDEST DUP2 EQ PUSH3 0x246E JUMPI PUSH1 0x0 DUP1 REVERT JUMPDEST POP JUMP JUMPDEST PUSH1 0x0 DUP2 MLOAD SWAP1 POP PUSH3 0x2482 DUP2 PUSH3 0x2457 JUMP JUMPDEST SWAP3 SWAP2 POP POP JUMP JUMPDEST PUSH1 0x0 PUSH1 0x20 DUP3 DUP5 SUB SLT ISZERO PUSH3 0x24A1 JUMPI PUSH3 0x24A0 PUSH3 0x1B84 JUMP JUMPDEST JUMPDEST PUSH1 0x0 PUSH3 0x24B1 DUP5 DUP3 DUP6 ADD PUSH3 0x2471 JUMP JUMPDEST SWAP2 POP POP SWAP3 SWAP2 POP POP JUMP JUMPDEST PUSH32 0x4F6E6C792066756E64657273206F66207468697320626F756E74792063616E20 PUSH1 0x0 DUP3 ADD MSTORE PUSH32 0x7265636C61696D2066756E647320616674657220333020646179732E00000000 PUSH1 0x20 DUP3 ADD MSTORE POP JUMP JUMPDEST PUSH1 0x0 PUSH3 0x2518 PUSH1 0x3C DUP4 PUSH3 0x1C30 JUMP JUMPDEST SWAP2 POP PUSH3 0x2525 DUP3 PUSH3 0x24BA JUMP JUMPDEST PUSH1 0x40 DUP3 ADD SWAP1 POP SWAP2 SWAP1 POP JUMP JUMPDEST PUSH1 0x0 PUSH1 0x20 DUP3 ADD SWAP1 POP DUP2 DUP2 SUB PUSH1 0x0 DUP4 ADD MSTORE PUSH3 0x254B DUP2 PUSH3 0x2509 JUMP JUMPDEST SWAP1 POP SWAP2 SWAP1 POP JUMP JUMPDEST PUSH1 0x0 PUSH8 0xFFFFFFFFFFFFFFFF DUP3 GT ISZERO PUSH3 0x2570 JUMPI PUSH3 0x256F PUSH3 0x1F57 JUMP JUMPDEST JUMPDEST PUSH1 0x20 DUP3 MUL SWAP1 POP PUSH1 0x20 DUP2 ADD SWAP1 POP SWAP2 SWAP1 POP JUMP JUMPDEST PUSH1 0x0 DUP2 MLOAD SWAP1 POP PUSH3 0x2592 DUP2 PUSH3 0x1BC2 JUMP JUMPDEST SWAP3 SWAP2 POP POP JUMP JUMPDEST PUSH1 0x0 PUSH3 0x25AF PUSH3 0x25A9 DUP5 PUSH3 0x2552 JUMP JUMPDEST PUSH3 0x1FBC JUMP JUMPDEST SWAP1 POP DUP1 DUP4 DUP3 MSTORE PUSH1 0x20 DUP3 ADD SWAP1 POP PUSH1 0x20 DUP5 MUL DUP4 ADD DUP6 DUP2 GT ISZERO PUSH3 0x25D5 JUMPI PUSH3 0x25D4 PUSH3 0x1DC8 JUMP JUMPDEST JUMPDEST DUP4 JUMPDEST DUP2 DUP2 LT ISZERO PUSH3 0x2602 JUMPI DUP1 PUSH3 0x25ED DUP9 DUP3 PUSH3 0x2581 JUMP JUMPDEST DUP5 MSTORE PUSH1 0x20 DUP5 ADD SWAP4 POP POP PUSH1 0x20 DUP2 ADD SWAP1 POP PUSH3 0x25D7 JUMP JUMPDEST POP POP POP SWAP4 SWAP3 POP POP POP JUMP JUMPDEST PUSH1 0x0 DUP3 PUSH1 0x1F DUP4 ADD SLT PUSH3 0x2624 JUMPI PUSH3 0x2623 PUSH3 0x1DBE JUMP JUMPDEST JUMPDEST DUP2 MLOAD PUSH3 0x2636 DUP5 DUP3 PUSH1 0x20 DUP7 ADD PUSH3 0x2598 JUMP JUMPDEST SWAP2 POP POP SWAP3 SWAP2 POP POP JUMP JUMPDEST PUSH1 0x0 PUSH1 0x20 DUP3 DUP5 SUB SLT ISZERO PUSH3 0x2658 JUMPI PUSH3 0x2657 PUSH3 0x1B84 JUMP JUMPDEST JUMPDEST PUSH1 0x0 DUP3 ADD MLOAD PUSH8 0xFFFFFFFFFFFFFFFF DUP2 GT ISZERO PUSH3 0x2679 JUMPI PUSH3 0x2678 PUSH3 0x1B89 JUMP JUMPDEST JUMPDEST PUSH3 0x2687 DUP5 DUP3 DUP6 ADD PUSH3 0x260C JUMP JUMPDEST SWAP2 POP POP SWAP3 SWAP2 POP POP JUMP JUMPDEST PUSH3 0x269B DUP2 PUSH3 0x1D27 JUMP JUMPDEST DUP3 MSTORE POP POP JUMP JUMPDEST PUSH1 0x0 PUSH1 0x40 DUP3 ADD SWAP1 POP PUSH3 0x26B8 PUSH1 0x0 DUP4 ADD DUP6 PUSH3 0x1EBA JUMP JUMPDEST PUSH3 0x26C7 PUSH1 0x20 DUP4 ADD DUP5 PUSH3 0x2690 JUMP JUMPDEST SWAP4 SWAP3 POP POP POP JUMP JUMPDEST PUSH1 0x0 PUSH1 0x20 DUP3 DUP5 SUB SLT ISZERO PUSH3 0x26E7 JUMPI PUSH3 0x26E6 PUSH3 0x1B84 JUMP JUMPDEST JUMPDEST PUSH1 0x0 PUSH3 0x26F7 DUP5 DUP3 DUP6 ADD PUSH3 0x2581 JUMP JUMPDEST SWAP2 POP POP SWAP3 SWAP2 POP POP JUMP JUMPDEST PUSH1 0x0 PUSH1 0x40 DUP3 ADD SWAP1 POP PUSH3 0x2717 PUSH1 0x0 DUP4 ADD DUP6 PUSH3 0x1EBA JUMP JUMPDEST PUSH3 0x2726 PUSH1 0x20 DUP4 ADD DUP5 PUSH3 0x1EBA JUMP JUMPDEST SWAP4 SWAP3 POP POP POP JUMP JUMPDEST PUSH1 0x0 PUSH1 0xE0 DUP3 ADD SWAP1 POP DUP2 DUP2 SUB PUSH1 0x0 DUP4 ADD MSTORE PUSH3 0x2749 DUP2 DUP11 PUSH3 0x1C88 JUMP JUMPDEST SWAP1 POP DUP2 DUP2 SUB PUSH1 0x20 DUP4 ADD MSTORE PUSH3 0x275F DUP2 DUP10 PUSH3 0x1C88 JUMP JUMPDEST SWAP1 POP PUSH3 0x2770 PUSH1 0x40 DUP4 ADD DUP9 PUSH3 0x1EBA JUMP JUMPDEST PUSH3 0x277F PUSH1 0x60 DUP4 ADD DUP8 PUSH3 0x1EBA JUMP JUMPDEST PUSH3 0x278E PUSH1 0x80 DUP4 ADD DUP7 PUSH3 0x1EBA JUMP JUMPDEST PUSH3 0x279D PUSH1 0xA0 DUP4 ADD DUP6 PUSH3 0x2690 JUMP JUMPDEST PUSH3 0x27AC PUSH1 0xC0 DUP4 ADD DUP5 PUSH3 0x2690 JUMP JUMPDEST SWAP9 SWAP8 POP POP POP POP POP POP POP POP JUMP JUMPDEST PUSH1 0x0 PUSH3 0x27C5 DUP3 PUSH3 0x1D27 JUMP JUMPDEST SWAP2 POP PUSH32 0xFFFFFFFFFFFFFFFFFFFFFFFFFFFFFFFFFFFFFFFFFFFFFFFFFFFFFFFFFFFFFFFF DUP3 EQ ISZERO PUSH3 0x27FB JUMPI PUSH3 0x27FA PUSH3 0x2359 JUMP JUMPDEST JUMPDEST PUSH1 0x1 DUP3 ADD SWAP1 POP SWAP2 SWAP1 POP JUMP JUMPDEST PUSH32 0x417474656D7074696E6720746F2066756E64206120626F756E74792074686174 PUSH1 0x0 DUP3 ADD MSTORE PUSH32 0x20646F6573206E6F742065786973742E00000000000000000000000000000000 PUSH1 0x20 DUP3 ADD MSTORE POP JUMP JUMPDEST PUSH1 0x0 PUSH3 0x2864 PUSH1 0x30 DUP4 PUSH3 0x1C30 JUMP JUMPDEST SWAP2 POP PUSH3 0x2871 DUP3 PUSH3 0x2806 JUMP JUMPDEST PUSH1 0x40 DUP3 ADD SWAP1 POP SWAP2 SWAP1 POP JUMP JUMPDEST PUSH1 0x0 PUSH1 0x20 DUP3 ADD SWAP1 POP DUP2 DUP2 SUB PUSH1 0x0 DUP4 ADD MSTORE PUSH3 0x2897 DUP2 PUSH3 0x2855 JUMP JUMPDEST SWAP1 POP SWAP2 SWAP1 POP JUMP JUMPDEST PUSH1 0x0 PUSH1 0x60 DUP3 ADD SWAP1 POP PUSH3 0x28B5 PUSH1 0x0 DUP4 ADD DUP7 PUSH3 0x1EBA JUMP JUMPDEST PUSH3 0x28C4 PUSH1 0x20 DUP4 ADD DUP6 PUSH3 0x1EBA JUMP JUMPDEST PUSH3 0x28D3 PUSH1 0x40 DUP4 ADD DUP5 PUSH3 0x2690 JUMP JUMPDEST SWAP5 SWAP4 POP POP POP POP JUMP JUMPDEST PUSH1 0x0 DUP2 SWAP1 POP SWAP3 SWAP2 POP POP JUMP JUMPDEST PUSH1 0x0 PUSH3 0x28F4 DUP4 DUP6 PUSH3 0x28DB JUMP JUMPDEST SWAP4 POP PUSH3 0x2903 DUP4 DUP6 DUP5 PUSH3 0x2011 JUMP JUMPDEST DUP3 DUP5 ADD SWAP1 POP SWAP4 SWAP3 POP POP POP JUMP JUMPDEST PUSH1 0x0 PUSH3 0x291E DUP3 DUP5 DUP7 PUSH3 0x28E6 JUMP JUMPDEST SWAP2 POP DUP2 SWAP1 POP SWAP4 SWAP3 POP POP POP JUMP JUMPDEST PUSH32 0x426F756E747920616C72656164792065786973747320666F7220676976656E20 PUSH1 0x0 DUP3 ADD MSTORE PUSH32 0x69642E2046696E642069747320616464726573732062792063616C6C696E6720 PUSH1 0x20 DUP3 ADD MSTORE PUSH32 0x626F756E74794964546F41646472657373206F6E207468697320636F6E747261 PUSH1 0x40 DUP3 ADD MSTORE PUSH32 0x637420776974682074686520626F756E74794964000000000000000000000000 PUSH1 0x60 DUP3 ADD MSTORE POP JUMP JUMPDEST PUSH1 0x0 PUSH3 0x29D4 PUSH1 0x74 DUP4 PUSH3 0x1C30 JUMP JUMPDEST SWAP2 POP PUSH3 0x29E1 DUP3 PUSH3 0x292A JUMP JUMPDEST PUSH1 0x80 DUP3 ADD SWAP1 POP SWAP2 SWAP1 POP JUMP JUMPDEST PUSH1 0x0 PUSH1 0x20 DUP3 ADD SWAP1 POP DUP2 DUP2 SUB PUSH1 0x0 DUP4 ADD MSTORE PUSH3 0x2A07 DUP2 PUSH3 0x29C5 JUMP JUMPDEST SWAP1 POP SWAP2 SWAP1 POP JUMP JUMPDEST PUSH1 0x0 PUSH3 0x2A1C DUP4 DUP6 PUSH3 0x1C30 JUMP JUMPDEST SWAP4 POP PUSH3 0x2A2B DUP4 DUP6 DUP5 PUSH3 0x2011 JUMP JUMPDEST PUSH3 0x2A36 DUP4 PUSH3 0x1C77 JUMP JUMPDEST DUP5 ADD SWAP1 POP SWAP4 SWAP3 POP POP POP JUMP JUMPDEST PUSH1 0x0 PUSH1 0x60 DUP3 ADD SWAP1 POP DUP2 DUP2 SUB PUSH1 0x0 DUP4 ADD MSTORE PUSH3 0x2A5E DUP2 DUP8 DUP10 PUSH3 0x2A0E JUMP JUMPDEST SWAP1 POP PUSH3 0x2A6F PUSH1 0x20 DUP4 ADD DUP7 PUSH3 0x1EBA JUMP JUMPDEST DUP2 DUP2 SUB PUSH1 0x40 DUP4 ADD MSTORE PUSH3 0x2A84 DUP2 DUP5 DUP7 PUSH3 0x2A0E JUMP JUMPDEST SWAP1 POP SWAP7 SWAP6 POP POP POP POP POP POP JUMP JUMPDEST PUSH1 0x0 PUSH1 0xA0 DUP3 ADD SWAP1 POP DUP2 DUP2 SUB PUSH1 0x0 DUP4 ADD MSTORE PUSH3 0x2AAD DUP2 DUP10 DUP12 PUSH3 0x2A0E JUMP JUMPDEST SWAP1 POP DUP2 DUP2 SUB PUSH1 0x20 DUP4 ADD MSTORE PUSH3 0x2AC4 DUP2 DUP8 DUP10 PUSH3 0x2A0E JUMP JUMPDEST SWAP1 POP PUSH3 0x2AD5 PUSH1 0x40 DUP4 ADD DUP7 PUSH3 0x1EBA JUMP JUMPDEST PUSH3 0x2AE4 PUSH1 0x60 DUP4 ADD DUP6 PUSH3 0x1EBA JUMP JUMPDEST PUSH3 0x2AF3 PUSH1 0x80 DUP4 ADD DUP5 PUSH3 0x2690 JUMP JUMPDEST SWAP9 SWAP8 POP POP POP POP POP POP POP POP JUMP JUMPDEST PUSH32 0x4F776E61626C653A2063616C6C6572206973206E6F7420746865206F776E6572 PUSH1 0x0 DUP3 ADD MSTORE POP JUMP JUMPDEST PUSH1 0x0 PUSH3 0x2B37 PUSH1 0x20 DUP4 PUSH3 0x1C30 JUMP JUMPDEST SWAP2 POP PUSH3 0x2B44 DUP3 PUSH3 0x2AFF JUMP JUMPDEST PUSH1 0x20 DUP3 ADD SWAP1 POP SWAP2 SWAP1 POP JUMP JUMPDEST PUSH1 0x0 PUSH1 0x20 DUP3 ADD SWAP1 POP DUP2 DUP2 SUB PUSH1 0x0 DUP4 ADD MSTORE PUSH3 0x2B6A DUP2 PUSH3 0x2B28 JUMP JUMPDEST SWAP1 POP SWAP2 SWAP1 POP JUMP JUMPDEST PUSH32 0x43616E6E6F7420636C61696D206120626F756E7479207468617420697320616C PUSH1 0x0 DUP3 ADD MSTORE PUSH32 0x726561647920636C6F7365642E00000000000000000000000000000000000000 PUSH1 0x20 DUP3 ADD MSTORE POP JUMP JUMPDEST PUSH1 0x0 PUSH3 0x2BCF PUSH1 0x2D DUP4 PUSH3 0x1C30 JUMP JUMPDEST SWAP2 POP PUSH3 0x2BDC DUP3 PUSH3 0x2B71 JUMP JUMPDEST PUSH1 0x40 DUP3 ADD SWAP1 POP SWAP2 SWAP1 POP JUMP JUMPDEST PUSH1 0x0 PUSH1 0x20 DUP3 ADD SWAP1 POP DUP2 DUP2 SUB PUSH1 0x0 DUP4 ADD MSTORE PUSH3 0x2C02 DUP2 PUSH3 0x2BC0 JUMP JUMPDEST SWAP1 POP SWAP2 SWAP1 POP JUMP JUMPDEST PUSH1 0x0 PUSH1 0x20 DUP3 ADD SWAP1 POP PUSH3 0x2C20 PUSH1 0x0 DUP4 ADD DUP5 PUSH3 0x2690 JUMP JUMPDEST SWAP3 SWAP2 POP POP JUMP JUMPDEST PUSH1 0x0 PUSH1 0xA0 DUP3 ADD SWAP1 POP DUP2 DUP2 SUB PUSH1 0x0 DUP4 ADD MSTORE PUSH3 0x2C43 DUP2 DUP9 DUP11 PUSH3 0x2A0E JUMP JUMPDEST SWAP1 POP DUP2 DUP2 SUB PUSH1 0x20 DUP4 ADD MSTORE PUSH3 0x2C59 DUP2 DUP8 PUSH3 0x1C88 JUMP JUMPDEST SWAP1 POP PUSH3 0x2C6A PUSH1 0x40 DUP4 ADD DUP7 PUSH3 0x1EBA JUMP JUMPDEST PUSH3 0x2C79 PUSH1 0x60 DUP4 ADD DUP6 PUSH3 0x1EBA JUMP JUMPDEST PUSH3 0x2C88 PUSH1 0x80 DUP4 ADD DUP5 PUSH3 0x2690 JUMP JUMPDEST SWAP8 SWAP7 POP POP POP POP POP POP POP JUMP JUMPDEST PUSH32 0x4F776E61626C653A206E6577206F776E657220697320746865207A65726F2061 PUSH1 0x0 DUP3 ADD MSTORE PUSH32 0x6464726573730000000000000000000000000000000000000000000000000000 PUSH1 0x20 DUP3 ADD MSTORE POP JUMP JUMPDEST PUSH1 0x0 PUSH3 0x2CF1 PUSH1 0x26 DUP4 PUSH3 0x1C30 JUMP JUMPDEST SWAP2 POP PUSH3 0x2CFE DUP3 PUSH3 0x2C93 JUMP JUMPDEST PUSH1 0x40 DUP3 ADD SWAP1 POP SWAP2 SWAP1 POP JUMP JUMPDEST PUSH1 0x0 PUSH1 0x20 DUP3 ADD SWAP1 POP DUP2 DUP2 SUB PUSH1 0x0 DUP4 ADD MSTORE PUSH3 0x2D24 DUP2 PUSH3 0x2CE2 JUMP JUMPDEST SWAP1 POP SWAP2 SWAP1 POP JUMP JUMPDEST PUSH32 0x4E487B7100000000000000000000000000000000000000000000000000000000 PUSH1 0x0 MSTORE PUSH1 0x21 PUSH1 0x4 MSTORE PUSH1 0x24 PUSH1 0x0 REVERT JUMPDEST PUSH1 0x2 DUP2 LT PUSH3 0x2D68 JUMPI PUSH1 0x0 DUP1 REVERT JUMPDEST POP JUMP JUMPDEST PUSH1 0x0 DUP2 MLOAD SWAP1 POP PUSH3 0x2D7C DUP2 PUSH3 0x2D5A JUMP JUMPDEST SWAP3 SWAP2 POP POP JUMP JUMPDEST PUSH1 0x0 PUSH1 0x20 DUP3 DUP5 SUB SLT ISZERO PUSH3 0x2D9B JUMPI PUSH3 0x2D9A PUSH3 0x1B84 JUMP JUMPDEST JUMPDEST PUSH1 0x0 PUSH3 0x2DAB DUP5 DUP3 DUP6 ADD PUSH3 0x2D6B JUMP JUMPDEST SWAP2 POP POP SWAP3 SWAP2 POP POP JUMP INVALID PUSH1 0x80 PUSH1 0x40 MSTORE TIMESTAMP PUSH1 0x6 SSTORE PUSH3 0x278D00 PUSH1 0x8 SSTORE CALLVALUE DUP1 ISZERO PUSH3 0x1C JUMPI PUSH1 0x0 DUP1 REVERT JUMPDEST POP PUSH1 0x40 MLOAD PUSH3 0x27AD CODESIZE SUB DUP1 PUSH3 0x27AD DUP4 CODECOPY DUP2 DUP2 ADD PUSH1 0x40 MSTORE DUP2 ADD SWAP1 PUSH3 0x42 SWAP2 SWAP1 PUSH3 0x490 JUMP JUMPDEST DUP3 DUP3 DUP3 PUSH3 0x65 PUSH3 0x59 PUSH3 0x112 PUSH1 0x20 SHL PUSH1 0x20 SHR JUMP JUMPDEST PUSH3 0x11A PUSH1 0x20 SHL PUSH1 0x20 SHR JUMP JUMPDEST DUP3 PUSH1 0x5 SWAP1 DUP1 MLOAD SWAP1 PUSH1 0x20 ADD SWAP1 PUSH3 0x7D SWAP3 SWAP2 SWAP1 PUSH3 0x1DE JUMP JUMPDEST POP PUSH1 0x0 PUSH1 0xB PUSH1 0x14 PUSH2 0x100 EXP DUP2 SLOAD DUP2 PUSH1 0xFF MUL NOT AND SWAP1 DUP4 PUSH1 0x1 DUP2 GT ISZERO PUSH3 0xA7 JUMPI PUSH3 0xA6 PUSH3 0x52A JUMP JUMPDEST JUMPDEST MUL OR SWAP1 SSTORE POP DUP2 PUSH1 0x9 PUSH1 0x0 PUSH2 0x100 EXP DUP2 SLOAD DUP2 PUSH20 0xFFFFFFFFFFFFFFFFFFFFFFFFFFFFFFFFFFFFFFFF MUL NOT AND SWAP1 DUP4 PUSH20 0xFFFFFFFFFFFFFFFFFFFFFFFFFFFFFFFFFFFFFFFF AND MUL OR SWAP1 SSTORE POP DUP1 PUSH1 0xA SWAP1 DUP1 MLOAD SWAP1 PUSH1 0x20 ADD SWAP1 PUSH3 0x105 SWAP3 SWAP2 SWAP1 PUSH3 0x1DE JUMP JUMPDEST POP POP POP POP POP POP POP PUSH3 0x5BE JUMP JUMPDEST PUSH1 0x0 CALLER SWAP1 POP SWAP1 JUMP JUMPDEST PUSH1 0x0 DUP1 PUSH1 0x0 SWAP1 SLOAD SWAP1 PUSH2 0x100 EXP SWAP1 DIV PUSH20 0xFFFFFFFFFFFFFFFFFFFFFFFFFFFFFFFFFFFFFFFF AND SWAP1 POP DUP2 PUSH1 0x0 DUP1 PUSH2 0x100 EXP DUP2 SLOAD DUP2 PUSH20 0xFFFFFFFFFFFFFFFFFFFFFFFFFFFFFFFFFFFFFFFF MUL NOT AND SWAP1 DUP4 PUSH20 0xFFFFFFFFFFFFFFFFFFFFFFFFFFFFFFFFFFFFFFFF AND MUL OR SWAP1 SSTORE POP DUP2 PUSH20 0xFFFFFFFFFFFFFFFFFFFFFFFFFFFFFFFFFFFFFFFF AND DUP2 PUSH20 0xFFFFFFFFFFFFFFFFFFFFFFFFFFFFFFFFFFFFFFFF AND PUSH32 0x8BE0079C531659141344CD1FD0A4F28419497F9722A3DAAFE3B4186F6B6457E0 PUSH1 0x40 MLOAD PUSH1 0x40 MLOAD DUP1 SWAP2 SUB SWAP1 LOG3 POP POP JUMP JUMPDEST DUP3 DUP1 SLOAD PUSH3 0x1EC SWAP1 PUSH3 0x588 JUMP JUMPDEST SWAP1 PUSH1 0x0 MSTORE PUSH1 0x20 PUSH1 0x0 KECCAK256 SWAP1 PUSH1 0x1F ADD PUSH1 0x20 SWAP1 DIV DUP2 ADD SWAP3 DUP3 PUSH3 0x210 JUMPI PUSH1 0x0 DUP6 SSTORE PUSH3 0x25C JUMP JUMPDEST DUP3 PUSH1 0x1F LT PUSH3 0x22B JUMPI DUP1 MLOAD PUSH1 0xFF NOT AND DUP4 DUP1 ADD OR DUP6 SSTORE PUSH3 0x25C JUMP JUMPDEST DUP3 DUP1 ADD PUSH1 0x1 ADD DUP6 SSTORE DUP3 ISZERO PUSH3 0x25C JUMPI SWAP2 DUP3 ADD JUMPDEST DUP3 DUP2 GT ISZERO PUSH3 0x25B JUMPI DUP3 MLOAD DUP3 SSTORE SWAP2 PUSH1 0x20 ADD SWAP2 SWAP1 PUSH1 0x1 ADD SWAP1 PUSH3 0x23E JUMP JUMPDEST JUMPDEST POP SWAP1 POP PUSH3 0x26B SWAP2 SWAP1 PUSH3 0x26F JUMP JUMPDEST POP SWAP1 JUMP JUMPDEST JUMPDEST DUP1 DUP3 GT ISZERO PUSH3 0x28A JUMPI PUSH1 0x0 DUP2 PUSH1 0x0 SWAP1 SSTORE POP PUSH1 0x1 ADD PUSH3 0x270 JUMP JUMPDEST POP SWAP1 JUMP JUMPDEST PUSH1 0x0 PUSH1 0x40 MLOAD SWAP1 POP SWAP1 JUMP JUMPDEST PUSH1 0x0 DUP1 REVERT JUMPDEST PUSH1 0x0 DUP1 REVERT JUMPDEST PUSH1 0x0 DUP1 REVERT JUMPDEST PUSH1 0x0 DUP1 REVERT JUMPDEST PUSH1 0x0 PUSH1 0x1F NOT PUSH1 0x1F DUP4 ADD AND SWAP1 POP SWAP2 SWAP1 POP JUMP JUMPDEST PUSH32 0x4E487B7100000000000000000000000000000000000000000000000000000000 PUSH1 0x0 MSTORE PUSH1 0x41 PUSH1 0x4 MSTORE PUSH1 0x24 PUSH1 0x0 REVERT JUMPDEST PUSH3 0x2F7 DUP3 PUSH3 0x2AC JUMP JUMPDEST DUP2 ADD DUP2 DUP2 LT PUSH8 0xFFFFFFFFFFFFFFFF DUP3 GT OR ISZERO PUSH3 0x319 JUMPI PUSH3 0x318 PUSH3 0x2BD JUMP JUMPDEST JUMPDEST DUP1 PUSH1 0x40 MSTORE POP POP POP JUMP JUMPDEST PUSH1 0x0 PUSH3 0x32E PUSH3 0x28E JUMP JUMPDEST SWAP1 POP PUSH3 0x33C DUP3 DUP3 PUSH3 0x2EC JUMP JUMPDEST SWAP2 SWAP1 POP JUMP JUMPDEST PUSH1 0x0 PUSH8 0xFFFFFFFFFFFFFFFF DUP3 GT ISZERO PUSH3 0x35F JUMPI PUSH3 0x35E PUSH3 0x2BD JUMP JUMPDEST JUMPDEST PUSH3 0x36A DUP3 PUSH3 0x2AC JUMP JUMPDEST SWAP1 POP PUSH1 0x20 DUP2 ADD SWAP1 POP SWAP2 SWAP1 POP JUMP JUMPDEST PUSH1 0x0 JUMPDEST DUP4 DUP2 LT ISZERO PUSH3 0x397 JUMPI DUP1 DUP3 ADD MLOAD DUP2 DUP5 ADD MSTORE PUSH1 0x20 DUP2 ADD SWAP1 POP PUSH3 0x37A JUMP JUMPDEST DUP4 DUP2 GT ISZERO PUSH3 0x3A7 JUMPI PUSH1 0x0 DUP5 DUP5 ADD MSTORE JUMPDEST POP POP POP POP JUMP JUMPDEST PUSH1 0x0 PUSH3 0x3C4 PUSH3 0x3BE DUP5 PUSH3 0x341 JUMP JUMPDEST PUSH3 0x322 JUMP JUMPDEST SWAP1 POP DUP3 DUP2 MSTORE PUSH1 0x20 DUP2 ADD DUP5 DUP5 DUP5 ADD GT ISZERO PUSH3 0x3E3 JUMPI PUSH3 0x3E2 PUSH3 0x2A7 JUMP JUMPDEST JUMPDEST PUSH3 0x3F0 DUP5 DUP3 DUP6 PUSH3 0x377 JUMP JUMPDEST POP SWAP4 SWAP3 POP POP POP JUMP JUMPDEST PUSH1 0x0 DUP3 PUSH1 0x1F DUP4 ADD SLT PUSH3 0x410 JUMPI PUSH3 0x40F PUSH3 0x2A2 JUMP JUMPDEST JUMPDEST DUP2 MLOAD PUSH3 0x422 DUP5 DUP3 PUSH1 0x20 DUP7 ADD PUSH3 0x3AD JUMP JUMPDEST SWAP2 POP POP SWAP3 SWAP2 POP POP JUMP JUMPDEST PUSH1 0x0 PUSH20 0xFFFFFFFFFFFFFFFFFFFFFFFFFFFFFFFFFFFFFFFF DUP3 AND SWAP1 POP SWAP2 SWAP1 POP JUMP JUMPDEST PUSH1 0x0 PUSH3 0x458 DUP3 PUSH3 0x42B JUMP JUMPDEST SWAP1 POP SWAP2 SWAP1 POP JUMP JUMPDEST PUSH3 0x46A DUP2 PUSH3 0x44B JUMP JUMPDEST DUP2 EQ PUSH3 0x476 JUMPI PUSH1 0x0 DUP1 REVERT JUMPDEST POP JUMP JUMPDEST PUSH1 0x0 DUP2 MLOAD SWAP1 POP PUSH3 0x48A DUP2 PUSH3 0x45F JUMP JUMPDEST SWAP3 SWAP2 POP POP JUMP JUMPDEST PUSH1 0x0 DUP1 PUSH1 0x0 PUSH1 0x60 DUP5 DUP7 SUB SLT ISZERO PUSH3 0x4AC JUMPI PUSH3 0x4AB PUSH3 0x298 JUMP JUMPDEST JUMPDEST PUSH1 0x0 DUP5 ADD MLOAD PUSH8 0xFFFFFFFFFFFFFFFF DUP2 GT ISZERO PUSH3 0x4CD JUMPI PUSH3 0x4CC PUSH3 0x29D JUMP JUMPDEST JUMPDEST PUSH3 0x4DB DUP7 DUP3 DUP8 ADD PUSH3 0x3F8 JUMP JUMPDEST SWAP4 POP POP PUSH1 0x20 PUSH3 0x4EE DUP7 DUP3 DUP8 ADD PUSH3 0x479 JUMP JUMPDEST SWAP3 POP POP PUSH1 0x40 DUP5 ADD MLOAD PUSH8 0xFFFFFFFFFFFFFFFF DUP2 GT ISZERO PUSH3 0x512 JUMPI PUSH3 0x511 PUSH3 0x29D JUMP JUMPDEST JUMPDEST PUSH3 0x520 DUP7 DUP3 DUP8 ADD PUSH3 0x3F8 JUMP JUMPDEST SWAP2 POP POP SWAP3 POP SWAP3 POP SWAP3 JUMP JUMPDEST PUSH32 0x4E487B7100000000000000000000000000000000000000000000000000000000 PUSH1 0x0 MSTORE PUSH1 0x21 PUSH1 0x4 MSTORE PUSH1 0x24 PUSH1 0x0 REVERT JUMPDEST PUSH32 0x4E487B7100000000000000000000000000000000000000000000000000000000 PUSH1 0x0 MSTORE PUSH1 0x22 PUSH1 0x4 MSTORE PUSH1 0x24 PUSH1 0x0 REVERT JUMPDEST PUSH1 0x0 PUSH1 0x2 DUP3 DIV SWAP1 POP PUSH1 0x1 DUP3 AND DUP1 PUSH3 0x5A1 JUMPI PUSH1 0x7F DUP3 AND SWAP2 POP JUMPDEST PUSH1 0x20 DUP3 LT DUP2 EQ ISZERO PUSH3 0x5B8 JUMPI PUSH3 0x5B7 PUSH3 0x559 JUMP JUMPDEST JUMPDEST POP SWAP2 SWAP1 POP JUMP JUMPDEST PUSH2 0x21DF DUP1 PUSH3 0x5CE PUSH1 0x0 CODECOPY PUSH1 0x0 RETURN INVALID PUSH1 0x80 PUSH1 0x40 MSTORE CALLVALUE DUP1 ISZERO PUSH2 0x10 JUMPI PUSH1 0x0 DUP1 REVERT JUMPDEST POP PUSH1 0x4 CALLDATASIZE LT PUSH2 0x146 JUMPI PUSH1 0x0 CALLDATALOAD PUSH1 0xE0 SHR DUP1 PUSH4 0x995280B0 GT PUSH2 0xB8 JUMPI DUP1 PUSH4 0xCB4436B7 GT PUSH2 0x7C JUMPI DUP1 PUSH4 0xCB4436B7 EQ PUSH2 0x3A8 JUMPI DUP1 PUSH4 0xDF9229F0 EQ PUSH2 0x3C6 JUMPI DUP1 PUSH4 0xEC05635C EQ PUSH2 0x3F6 JUMPI DUP1 PUSH4 0xF16B51C1 EQ PUSH2 0x426 JUMPI DUP1 PUSH4 0xF2FDE38B EQ PUSH2 0x444 JUMPI DUP1 PUSH4 0xFC5D2CF4 EQ PUSH2 0x460 JUMPI PUSH2 0x147 JUMP JUMPDEST DUP1 PUSH4 0x995280B0 EQ PUSH2 0x2DC JUMPI DUP1 PUSH4 0xB0100CF7 EQ PUSH2 0x2FA JUMPI DUP1 PUSH4 0xB588D225 EQ PUSH2 0x32A JUMPI DUP1 PUSH4 0xB9DF819F EQ PUSH2 0x35A JUMPI DUP1 PUSH4 0xC17BD75E EQ PUSH2 0x38A JUMPI PUSH2 0x147 JUMP JUMPDEST DUP1 PUSH4 0x29FFEF15 GT PUSH2 0x10A JUMPI DUP1 PUSH4 0x29FFEF15 EQ PUSH2 0x206 JUMPI DUP1 PUSH4 0x4B8022B2 EQ PUSH2 0x236 JUMPI DUP1 PUSH4 0x6216753B EQ PUSH2 0x266 JUMPI DUP1 PUSH4 0x7044F282 EQ PUSH2 0x296 JUMPI DUP1 PUSH4 0x715018A6 EQ PUSH2 0x2B4 JUMPI DUP1 PUSH4 0x8DA5CB5B EQ PUSH2 0x2BE JUMPI PUSH2 0x147 JUMP JUMPDEST DUP1 PUSH4 0x1BEF5505 EQ PUSH2 0x14C JUMPI DUP1 PUSH4 0x1D143848 EQ PUSH2 0x17C JUMPI DUP1 PUSH4 0x200D2ED2 EQ PUSH2 0x19A JUMPI DUP1 PUSH4 0x21C0B342 EQ PUSH2 0x1B8 JUMPI DUP1 PUSH4 0x23BD4D7A EQ PUSH2 0x1E8 JUMPI PUSH2 0x147 JUMP JUMPDEST JUMPDEST PUSH1 0x0 DUP1 REVERT JUMPDEST PUSH2 0x166 PUSH1 0x4 DUP1 CALLDATASIZE SUB DUP2 ADD SWAP1 PUSH2 0x161 SWAP2 SWAP1 PUSH2 0x16F2 JUMP JUMPDEST PUSH2 0x47E JUMP JUMPDEST PUSH1 0x40 MLOAD PUSH2 0x173 SWAP2 SWAP1 PUSH2 0x17DD JUMP JUMPDEST PUSH1 0x40 MLOAD DUP1 SWAP2 SUB SWAP1 RETURN JUMPDEST PUSH2 0x184 PUSH2 0x54B JUMP JUMPDEST PUSH1 0x40 MLOAD PUSH2 0x191 SWAP2 SWAP1 PUSH2 0x180E JUMP JUMPDEST PUSH1 0x40 MLOAD DUP1 SWAP2 SUB SWAP1 RETURN JUMPDEST PUSH2 0x1A2 PUSH2 0x571 JUMP JUMPDEST PUSH1 0x40 MLOAD PUSH2 0x1AF SWAP2 SWAP1 PUSH2 0x18A0 JUMP JUMPDEST PUSH1 0x40 MLOAD DUP1 SWAP2 SUB SWAP1 RETURN JUMPDEST PUSH2 0x1D2 PUSH1 0x4 DUP1 CALLDATASIZE SUB DUP2 ADD SWAP1 PUSH2 0x1CD SWAP2 SWAP1 PUSH2 0x18BB JUMP JUMPDEST PUSH2 0x584 JUMP JUMPDEST PUSH1 0x40 MLOAD PUSH2 0x1DF SWAP2 SWAP1 PUSH2 0x1916 JUMP JUMPDEST PUSH1 0x40 MLOAD DUP1 SWAP2 SUB SWAP1 RETURN JUMPDEST PUSH2 0x1F0 PUSH2 0x709 JUMP JUMPDEST PUSH1 0x40 MLOAD PUSH2 0x1FD SWAP2 SWAP1 PUSH2 0x19CA JUMP JUMPDEST PUSH1 0x40 MLOAD DUP1 SWAP2 SUB SWAP1 RETURN JUMPDEST PUSH2 0x220 PUSH1 0x4 DUP1 CALLDATASIZE SUB DUP2 ADD SWAP1 PUSH2 0x21B SWAP2 SWAP1 PUSH2 0x18BB JUMP JUMPDEST PUSH2 0x797 JUMP JUMPDEST PUSH1 0x40 MLOAD PUSH2 0x22D SWAP2 SWAP1 PUSH2 0x1916 JUMP JUMPDEST PUSH1 0x40 MLOAD DUP1 SWAP2 SUB SWAP1 RETURN JUMPDEST PUSH2 0x250 PUSH1 0x4 DUP1 CALLDATASIZE SUB DUP2 ADD SWAP1 PUSH2 0x24B SWAP2 SWAP1 PUSH2 0x1A22 JUMP JUMPDEST PUSH2 0x9B5 JUMP JUMPDEST PUSH1 0x40 MLOAD PUSH2 0x25D SWAP2 SWAP1 PUSH2 0x180E JUMP JUMPDEST PUSH1 0x40 MLOAD DUP1 SWAP2 SUB SWAP1 RETURN JUMPDEST PUSH2 0x280 PUSH1 0x4 DUP1 CALLDATASIZE SUB DUP2 ADD SWAP1 PUSH2 0x27B SWAP2 SWAP1 PUSH2 0x18BB JUMP JUMPDEST PUSH2 0xA03 JUMP JUMPDEST PUSH1 0x40 MLOAD PUSH2 0x28D SWAP2 SWAP1 PUSH2 0x1A71 JUMP JUMPDEST PUSH1 0x40 MLOAD DUP1 SWAP2 SUB SWAP1 RETURN JUMPDEST PUSH2 0x29E PUSH2 0xA28 JUMP JUMPDEST PUSH1 0x40 MLOAD PUSH2 0x2AB SWAP2 SWAP1 PUSH2 0x180E JUMP JUMPDEST PUSH1 0x40 MLOAD DUP1 SWAP2 SUB SWAP1 RETURN JUMPDEST PUSH2 0x2BC PUSH2 0xA4E JUMP JUMPDEST STOP JUMPDEST PUSH2 0x2C6 PUSH2 0xAD6 JUMP JUMPDEST PUSH1 0x40 MLOAD PUSH2 0x2D3 SWAP2 SWAP1 PUSH2 0x180E JUMP JUMPDEST PUSH1 0x40 MLOAD DUP1 SWAP2 SUB SWAP1 RETURN JUMPDEST PUSH2 0x2E4 PUSH2 0xAFF JUMP JUMPDEST PUSH1 0x40 MLOAD PUSH2 0x2F1 SWAP2 SWAP1 PUSH2 0x1A71 JUMP JUMPDEST PUSH1 0x40 MLOAD DUP1 SWAP2 SUB SWAP1 RETURN JUMPDEST PUSH2 0x314 PUSH1 0x4 DUP1 CALLDATASIZE SUB DUP2 ADD SWAP1 PUSH2 0x30F SWAP2 SWAP1 PUSH2 0x16F2 JUMP JUMPDEST PUSH2 0xB05 JUMP JUMPDEST PUSH1 0x40 MLOAD PUSH2 0x321 SWAP2 SWAP1 PUSH2 0x1916 JUMP JUMPDEST PUSH1 0x40 MLOAD DUP1 SWAP2 SUB SWAP1 RETURN JUMPDEST PUSH2 0x344 PUSH1 0x4 DUP1 CALLDATASIZE SUB DUP2 ADD SWAP1 PUSH2 0x33F SWAP2 SWAP1 PUSH2 0x16F2 JUMP JUMPDEST PUSH2 0xB25 JUMP JUMPDEST PUSH1 0x40 MLOAD PUSH2 0x351 SWAP2 SWAP1 PUSH2 0x1A71 JUMP JUMPDEST PUSH1 0x40 MLOAD DUP1 SWAP2 SUB SWAP1 RETURN JUMPDEST PUSH2 0x374 PUSH1 0x4 DUP1 CALLDATASIZE SUB DUP2 ADD SWAP1 PUSH2 0x36F SWAP2 SWAP1 PUSH2 0x1A8C JUMP JUMPDEST PUSH2 0xBBC JUMP JUMPDEST PUSH1 0x40 MLOAD PUSH2 0x381 SWAP2 SWAP1 PUSH2 0x1916 JUMP JUMPDEST PUSH1 0x40 MLOAD DUP1 SWAP2 SUB SWAP1 RETURN JUMPDEST PUSH2 0x392 PUSH2 0xF17 JUMP JUMPDEST PUSH1 0x40 MLOAD PUSH2 0x39F SWAP2 SWAP1 PUSH2 0x19CA JUMP JUMPDEST PUSH1 0x40 MLOAD DUP1 SWAP2 SUB SWAP1 RETURN JUMPDEST PUSH2 0x3B0 PUSH2 0xFA5 JUMP JUMPDEST PUSH1 0x40 MLOAD PUSH2 0x3BD SWAP2 SWAP1 PUSH2 0x1A71 JUMP JUMPDEST PUSH1 0x40 MLOAD DUP1 SWAP2 SUB SWAP1 RETURN JUMPDEST PUSH2 0x3E0 PUSH1 0x4 DUP1 CALLDATASIZE SUB DUP2 ADD SWAP1 PUSH2 0x3DB SWAP2 SWAP1 PUSH2 0x1ADF JUMP JUMPDEST PUSH2 0xFAB JUMP JUMPDEST PUSH1 0x40 MLOAD PUSH2 0x3ED SWAP2 SWAP1 PUSH2 0x180E JUMP JUMPDEST PUSH1 0x40 MLOAD DUP1 SWAP2 SUB SWAP1 RETURN JUMPDEST PUSH2 0x410 PUSH1 0x4 DUP1 CALLDATASIZE SUB DUP2 ADD SWAP1 PUSH2 0x40B SWAP2 SWAP1 PUSH2 0x16F2 JUMP JUMPDEST PUSH2 0xFEA JUMP JUMPDEST PUSH1 0x40 MLOAD PUSH2 0x41D SWAP2 SWAP1 PUSH2 0x1916 JUMP JUMPDEST PUSH1 0x40 MLOAD DUP1 SWAP2 SUB SWAP1 RETURN JUMPDEST PUSH2 0x42E PUSH2 0x11C8 JUMP JUMPDEST PUSH1 0x40 MLOAD PUSH2 0x43B SWAP2 SWAP1 PUSH2 0x1A71 JUMP JUMPDEST PUSH1 0x40 MLOAD DUP1 SWAP2 SUB SWAP1 RETURN JUMPDEST PUSH2 0x45E PUSH1 0x4 DUP1 CALLDATASIZE SUB DUP2 ADD SWAP1 PUSH2 0x459 SWAP2 SWAP1 PUSH2 0x16F2 JUMP JUMPDEST PUSH2 0x11CE JUMP JUMPDEST STOP JUMPDEST PUSH2 0x468 PUSH2 0x12C6 JUMP JUMPDEST PUSH1 0x40 MLOAD PUSH2 0x475 SWAP2 SWAP1 PUSH2 0x17DD JUMP JUMPDEST PUSH1 0x40 MLOAD DUP1 SWAP2 SUB SWAP1 RETURN JUMPDEST PUSH1 0x60 PUSH1 0x2 PUSH1 0x0 DUP4 PUSH20 0xFFFFFFFFFFFFFFFFFFFFFFFFFFFFFFFFFFFFFFFF AND PUSH20 0xFFFFFFFFFFFFFFFFFFFFFFFFFFFFFFFFFFFFFFFF AND DUP2 MSTORE PUSH1 0x20 ADD SWAP1 DUP2 MSTORE PUSH1 0x20 ADD PUSH1 0x0 KECCAK256 DUP1 SLOAD DUP1 PUSH1 0x20 MUL PUSH1 0x20 ADD PUSH1 0x40 MLOAD SWAP1 DUP2 ADD PUSH1 0x40 MSTORE DUP1 SWAP3 SWAP2 SWAP1 DUP2 DUP2 MSTORE PUSH1 0x20 ADD DUP3 DUP1 SLOAD DUP1 ISZERO PUSH2 0x53F JUMPI PUSH1 0x20 MUL DUP3 ADD SWAP2 SWAP1 PUSH1 0x0 MSTORE PUSH1 0x20 PUSH1 0x0 KECCAK256 SWAP1 JUMPDEST DUP2 PUSH1 0x0 SWAP1 SLOAD SWAP1 PUSH2 0x100 EXP SWAP1 DIV PUSH20 0xFFFFFFFFFFFFFFFFFFFFFFFFFFFFFFFFFFFFFFFF AND PUSH20 0xFFFFFFFFFFFFFFFFFFFFFFFFFFFFFFFFFFFFFFFF AND DUP2 MSTORE PUSH1 0x20 ADD SWAP1 PUSH1 0x1 ADD SWAP1 DUP1 DUP4 GT PUSH2 0x4F5 JUMPI JUMPDEST POP POP POP POP POP SWAP1 POP SWAP2 SWAP1 POP JUMP JUMPDEST PUSH1 0x9 PUSH1 0x0 SWAP1 SLOAD SWAP1 PUSH2 0x100 EXP SWAP1 DIV PUSH20 0xFFFFFFFFFFFFFFFFFFFFFFFFFFFFFFFFFFFFFFFF AND DUP2 JUMP JUMPDEST PUSH1 0xB PUSH1 0x14 SWAP1 SLOAD SWAP1 PUSH2 0x100 EXP SWAP1 DIV PUSH1 0xFF AND DUP2 JUMP JUMPDEST PUSH1 0x0 PUSH2 0x58E PUSH2 0x1354 JUMP JUMPDEST PUSH20 0xFFFFFFFFFFFFFFFFFFFFFFFFFFFFFFFFFFFFFFFF AND PUSH2 0x5AC PUSH2 0xAD6 JUMP JUMPDEST PUSH20 0xFFFFFFFFFFFFFFFFFFFFFFFFFFFFFFFFFFFFFFFF AND EQ PUSH2 0x602 JUMPI PUSH1 0x40 MLOAD PUSH32 0x8C379A000000000000000000000000000000000000000000000000000000000 DUP2 MSTORE PUSH1 0x4 ADD PUSH2 0x5F9 SWAP1 PUSH2 0x1B58 JUMP JUMPDEST PUSH1 0x40 MLOAD DUP1 SWAP2 SUB SWAP1 REVERT JUMPDEST PUSH1 0x0 PUSH1 0x1 DUP2 GT ISZERO PUSH2 0x616 JUMPI PUSH2 0x615 PUSH2 0x1829 JUMP JUMPDEST JUMPDEST ADDRESS PUSH20 0xFFFFFFFFFFFFFFFFFFFFFFFFFFFFFFFFFFFFFFFF AND PUSH4 0x200D2ED2 PUSH1 0x40 MLOAD DUP2 PUSH4 0xFFFFFFFF AND PUSH1 0xE0 SHL DUP2 MSTORE PUSH1 0x4 ADD PUSH1 0x20 PUSH1 0x40 MLOAD DUP1 DUP4 SUB DUP2 DUP7 DUP1 EXTCODESIZE ISZERO DUP1 ISZERO PUSH2 0x65C JUMPI PUSH1 0x0 DUP1 REVERT JUMPDEST POP GAS STATICCALL ISZERO DUP1 ISZERO PUSH2 0x670 JUMPI RETURNDATASIZE PUSH1 0x0 DUP1 RETURNDATACOPY RETURNDATASIZE PUSH1 0x0 REVERT JUMPDEST POP POP POP POP PUSH1 0x40 MLOAD RETURNDATASIZE PUSH1 0x1F NOT PUSH1 0x1F DUP3 ADD AND DUP3 ADD DUP1 PUSH1 0x40 MSTORE POP DUP2 ADD SWAP1 PUSH2 0x694 SWAP2 SWAP1 PUSH2 0x1B9D JUMP JUMPDEST PUSH1 0x1 DUP2 GT ISZERO PUSH2 0x6A6 JUMPI PUSH2 0x6A5 PUSH2 0x1829 JUMP JUMPDEST JUMPDEST EQ PUSH2 0x6E6 JUMPI PUSH1 0x40 MLOAD PUSH32 0x8C379A000000000000000000000000000000000000000000000000000000000 DUP2 MSTORE PUSH1 0x4 ADD PUSH2 0x6DD SWAP1 PUSH2 0x1C3C JUMP JUMPDEST PUSH1 0x40 MLOAD DUP1 SWAP2 SUB SWAP1 REVERT JUMPDEST PUSH1 0x0 PUSH2 0x6F1 DUP4 PUSH2 0xB25 JUMP JUMPDEST SWAP1 POP PUSH2 0x6FE DUP4 DUP6 DUP4 PUSH2 0x135C JUMP JUMPDEST PUSH1 0x1 SWAP2 POP POP SWAP3 SWAP2 POP POP JUMP JUMPDEST PUSH1 0xA DUP1 SLOAD PUSH2 0x716 SWAP1 PUSH2 0x1C8B JUMP JUMPDEST DUP1 PUSH1 0x1F ADD PUSH1 0x20 DUP1 SWAP2 DIV MUL PUSH1 0x20 ADD PUSH1 0x40 MLOAD SWAP1 DUP2 ADD PUSH1 0x40 MSTORE DUP1 SWAP3 SWAP2 SWAP1 DUP2 DUP2 MSTORE PUSH1 0x20 ADD DUP3 DUP1 SLOAD PUSH2 0x742 SWAP1 PUSH2 0x1C8B JUMP JUMPDEST DUP1 ISZERO PUSH2 0x78F JUMPI DUP1 PUSH1 0x1F LT PUSH2 0x764 JUMPI PUSH2 0x100 DUP1 DUP4 SLOAD DIV MUL DUP4 MSTORE SWAP2 PUSH1 0x20 ADD SWAP2 PUSH2 0x78F JUMP JUMPDEST DUP3 ADD SWAP2 SWAP1 PUSH1 0x0 MSTORE PUSH1 0x20 PUSH1 0x0 KECCAK256 SWAP1 JUMPDEST DUP2 SLOAD DUP2 MSTORE SWAP1 PUSH1 0x1 ADD SWAP1 PUSH1 0x20 ADD DUP1 DUP4 GT PUSH2 0x772 JUMPI DUP3 SWAP1 SUB PUSH1 0x1F AND DUP3 ADD SWAP2 JUMPDEST POP POP POP POP POP DUP2 JUMP JUMPDEST PUSH1 0x0 PUSH2 0x7A1 PUSH2 0x1354 JUMP JUMPDEST PUSH20 0xFFFFFFFFFFFFFFFFFFFFFFFFFFFFFFFFFFFFFFFF AND PUSH2 0x7BF PUSH2 0xAD6 JUMP JUMPDEST PUSH20 0xFFFFFFFFFFFFFFFFFFFFFFFFFFFFFFFFFFFFFFFF AND EQ PUSH2 0x815 JUMPI PUSH1 0x40 MLOAD PUSH32 0x8C379A000000000000000000000000000000000000000000000000000000000 DUP2 MSTORE PUSH1 0x4 ADD PUSH2 0x80C SWAP1 PUSH2 0x1B58 JUMP JUMPDEST PUSH1 0x40 MLOAD DUP1 SWAP2 SUB SWAP1 REVERT JUMPDEST PUSH2 0x89C DUP3 DUP5 PUSH1 0x3 PUSH1 0x0 DUP8 PUSH20 0xFFFFFFFFFFFFFFFFFFFFFFFFFFFFFFFFFFFFFFFF AND PUSH20 0xFFFFFFFFFFFFFFFFFFFFFFFFFFFFFFFFFFFFFFFF AND DUP2 MSTORE PUSH1 0x20 ADD SWAP1 DUP2 MSTORE PUSH1 0x20 ADD PUSH1 0x0 KECCAK256 PUSH1 0x0 DUP7 PUSH20 0xFFFFFFFFFFFFFFFFFFFFFFFFFFFFFFFFFFFFFFFF AND PUSH20 0xFFFFFFFFFFFFFFFFFFFFFFFFFFFFFFFFFFFFFFFF AND DUP2 MSTORE PUSH1 0x20 ADD SWAP1 DUP2 MSTORE PUSH1 0x20 ADD PUSH1 0x0 KECCAK256 SLOAD PUSH2 0x135C JUMP JUMPDEST PUSH1 0x3 PUSH1 0x0 DUP5 PUSH20 0xFFFFFFFFFFFFFFFFFFFFFFFFFFFFFFFFFFFFFFFF AND PUSH20 0xFFFFFFFFFFFFFFFFFFFFFFFFFFFFFFFFFFFFFFFF AND DUP2 MSTORE PUSH1 0x20 ADD SWAP1 DUP2 MSTORE PUSH1 0x20 ADD PUSH1 0x0 KECCAK256 PUSH1 0x0 DUP4 PUSH20 0xFFFFFFFFFFFFFFFFFFFFFFFFFFFFFFFFFFFFFFFF AND PUSH20 0xFFFFFFFFFFFFFFFFFFFFFFFFFFFFFFFFFFFFFFFF AND DUP2 MSTORE PUSH1 0x20 ADD SWAP1 DUP2 MSTORE PUSH1 0x20 ADD PUSH1 0x0 KECCAK256 SLOAD PUSH1 0x3 PUSH1 0x0 DUP6 PUSH20 0xFFFFFFFFFFFFFFFFFFFFFFFFFFFFFFFFFFFFFFFF AND PUSH20 0xFFFFFFFFFFFFFFFFFFFFFFFFFFFFFFFFFFFFFFFF AND DUP2 MSTORE PUSH1 0x20 ADD SWAP1 DUP2 MSTORE PUSH1 0x20 ADD PUSH1 0x0 KECCAK256 PUSH1 0x0 DUP5 PUSH20 0xFFFFFFFFFFFFFFFFFFFFFFFFFFFFFFFFFFFFFFFF AND PUSH20 0xFFFFFFFFFFFFFFFFFFFFFFFFFFFFFFFFFFFFFFFF AND DUP2 MSTORE PUSH1 0x20 ADD SWAP1 DUP2 MSTORE PUSH1 0x20 ADD PUSH1 0x0 KECCAK256 PUSH1 0x0 DUP3 DUP3 SLOAD PUSH2 0x9A4 SWAP2 SWAP1 PUSH2 0x1CEC JUMP JUMPDEST SWAP3 POP POP DUP2 SWAP1 SSTORE POP PUSH1 0x1 SWAP1 POP SWAP3 SWAP2 POP POP JUMP JUMPDEST PUSH1 0x2 PUSH1 0x20 MSTORE DUP2 PUSH1 0x0 MSTORE PUSH1 0x40 PUSH1 0x0 KECCAK256 DUP2 DUP2 SLOAD DUP2 LT PUSH2 0x9D1 JUMPI PUSH1 0x0 DUP1 REVERT JUMPDEST SWAP1 PUSH1 0x0 MSTORE PUSH1 0x20 PUSH1 0x0 KECCAK256 ADD PUSH1 0x0 SWAP2 POP SWAP2 POP SWAP1 SLOAD SWAP1 PUSH2 0x100 EXP SWAP1 DIV PUSH20 0xFFFFFFFFFFFFFFFFFFFFFFFFFFFFFFFFFFFFFFFF AND DUP2 JUMP JUMPDEST PUSH1 0x3 PUSH1 0x20 MSTORE DUP2 PUSH1 0x0 MSTORE PUSH1 0x40 PUSH1 0x0 KECCAK256 PUSH1 0x20 MSTORE DUP1 PUSH1 0x0 MSTORE PUSH1 0x40 PUSH1 0x0 KECCAK256 PUSH1 0x0 SWAP2 POP SWAP2 POP POP SLOAD DUP2 JUMP JUMPDEST PUSH1 0xB PUSH1 0x0 SWAP1 SLOAD SWAP1 PUSH2 0x100 EXP SWAP1 DIV PUSH20 0xFFFFFFFFFFFFFFFFFFFFFFFFFFFFFFFFFFFFFFFF AND DUP2 JUMP JUMPDEST PUSH2 0xA56 PUSH2 0x1354 JUMP JUMPDEST PUSH20 0xFFFFFFFFFFFFFFFFFFFFFFFFFFFFFFFFFFFFFFFF AND PUSH2 0xA74 PUSH2 0xAD6 JUMP JUMPDEST PUSH20 0xFFFFFFFFFFFFFFFFFFFFFFFFFFFFFFFFFFFFFFFF AND EQ PUSH2 0xACA JUMPI PUSH1 0x40 MLOAD PUSH32 0x8C379A000000000000000000000000000000000000000000000000000000000 DUP2 MSTORE PUSH1 0x4 ADD PUSH2 0xAC1 SWAP1 PUSH2 0x1B58 JUMP JUMPDEST PUSH1 0x40 MLOAD DUP1 SWAP2 SUB SWAP1 REVERT JUMPDEST PUSH2 0xAD4 PUSH1 0x0 PUSH2 0x1492 JUMP JUMPDEST JUMP JUMPDEST PUSH1 0x0 DUP1 PUSH1 0x0 SWAP1 SLOAD SWAP1 PUSH2 0x100 EXP SWAP1 DIV PUSH20 0xFFFFFFFFFFFFFFFFFFFFFFFFFFFFFFFFFFFFFFFF AND SWAP1 POP SWAP1 JUMP JUMPDEST PUSH1 0x6 SLOAD DUP2 JUMP JUMPDEST PUSH1 0x4 PUSH1 0x20 MSTORE DUP1 PUSH1 0x0 MSTORE PUSH1 0x40 PUSH1 0x0 KECCAK256 PUSH1 0x0 SWAP2 POP SLOAD SWAP1 PUSH2 0x100 EXP SWAP1 DIV PUSH1 0xFF AND DUP2 JUMP JUMPDEST PUSH1 0x0 DUP1 DUP3 SWAP1 POP DUP1 PUSH20 0xFFFFFFFFFFFFFFFFFFFFFFFFFFFFFFFFFFFFFFFF AND PUSH4 0x70A08231 ADDRESS PUSH1 0x40 MLOAD DUP3 PUSH4 0xFFFFFFFF AND PUSH1 0xE0 SHL DUP2 MSTORE PUSH1 0x4 ADD PUSH2 0xB64 SWAP2 SWAP1 PUSH2 0x180E JUMP JUMPDEST PUSH1 0x20 PUSH1 0x40 MLOAD DUP1 DUP4 SUB DUP2 DUP7 DUP1 EXTCODESIZE ISZERO DUP1 ISZERO PUSH2 0xB7C JUMPI PUSH1 0x0 DUP1 REVERT JUMPDEST POP GAS STATICCALL ISZERO DUP1 ISZERO PUSH2 0xB90 JUMPI RETURNDATASIZE PUSH1 0x0 DUP1 RETURNDATACOPY RETURNDATASIZE PUSH1 0x0 REVERT JUMPDEST POP POP POP POP PUSH1 0x40 MLOAD RETURNDATASIZE PUSH1 0x1F NOT PUSH1 0x1F DUP3 ADD AND DUP3 ADD DUP1 PUSH1 0x40 MSTORE POP DUP2 ADD SWAP1 PUSH2 0xBB4 SWAP2 SWAP1 PUSH2 0x1D35 JUMP JUMPDEST SWAP2 POP POP SWAP2 SWAP1 POP JUMP JUMPDEST PUSH1 0x0 PUSH2 0xBC6 PUSH2 0x1354 JUMP JUMPDEST PUSH20 0xFFFFFFFFFFFFFFFFFFFFFFFFFFFFFFFFFFFFFFFF AND PUSH2 0xBE4 PUSH2 0xAD6 JUMP JUMPDEST PUSH20 0xFFFFFFFFFFFFFFFFFFFFFFFFFFFFFFFFFFFFFFFF AND EQ PUSH2 0xC3A JUMPI PUSH1 0x40 MLOAD PUSH32 0x8C379A000000000000000000000000000000000000000000000000000000000 DUP2 MSTORE PUSH1 0x4 ADD PUSH2 0xC31 SWAP1 PUSH2 0x1B58 JUMP JUMPDEST PUSH1 0x40 MLOAD DUP1 SWAP2 SUB SWAP1 REVERT JUMPDEST PUSH1 0x0 DUP3 EQ ISZERO PUSH2 0xC7E JUMPI PUSH1 0x40 MLOAD PUSH32 0x8C379A000000000000000000000000000000000000000000000000000000000 DUP2 MSTORE PUSH1 0x4 ADD PUSH2 0xC75 SWAP1 PUSH2 0x1DD4 JUMP JUMPDEST PUSH1 0x40 MLOAD DUP1 SWAP2 SUB SWAP1 REVERT JUMPDEST PUSH1 0x0 PUSH2 0xC89 DUP5 PUSH2 0xB25 JUMP JUMPDEST EQ ISZERO PUSH2 0xCF3 JUMPI PUSH1 0x1 DUP4 SWAP1 DUP1 PUSH1 0x1 DUP2 SLOAD ADD DUP1 DUP3 SSTORE DUP1 SWAP2 POP POP PUSH1 0x1 SWAP1 SUB SWAP1 PUSH1 0x0 MSTORE PUSH1 0x20 PUSH1 0x0 KECCAK256 ADD PUSH1 0x0 SWAP1 SWAP2 SWAP1 SWAP2 SWAP1 SWAP2 PUSH2 0x100 EXP DUP2 SLOAD DUP2 PUSH20 0xFFFFFFFFFFFFFFFFFFFFFFFFFFFFFFFFFFFFFFFF MUL NOT AND SWAP1 DUP4 PUSH20 0xFFFFFFFFFFFFFFFFFFFFFFFFFFFFFFFFFFFFFFFF AND MUL OR SWAP1 SSTORE POP JUMPDEST PUSH2 0xCFF DUP4 DUP6 ADDRESS DUP6 PUSH2 0x1556 JUMP JUMPDEST PUSH1 0x1 PUSH1 0x4 PUSH1 0x0 DUP7 PUSH20 0xFFFFFFFFFFFFFFFFFFFFFFFFFFFFFFFFFFFFFFFF AND PUSH20 0xFFFFFFFFFFFFFFFFFFFFFFFFFFFFFFFFFFFFFFFF AND DUP2 MSTORE PUSH1 0x20 ADD SWAP1 DUP2 MSTORE PUSH1 0x20 ADD PUSH1 0x0 KECCAK256 PUSH1 0x0 PUSH2 0x100 EXP DUP2 SLOAD DUP2 PUSH1 0xFF MUL NOT AND SWAP1 DUP4 ISZERO ISZERO MUL OR SWAP1 SSTORE POP PUSH1 0x0 PUSH1 0x3 PUSH1 0x0 DUP7 PUSH20 0xFFFFFFFFFFFFFFFFFFFFFFFFFFFFFFFFFFFFFFFF AND PUSH20 0xFFFFFFFFFFFFFFFFFFFFFFFFFFFFFFFFFFFFFFFF AND DUP2 MSTORE PUSH1 0x20 ADD SWAP1 DUP2 MSTORE PUSH1 0x20 ADD PUSH1 0x0 KECCAK256 PUSH1 0x0 DUP6 PUSH20 0xFFFFFFFFFFFFFFFFFFFFFFFFFFFFFFFFFFFFFFFF AND PUSH20 0xFFFFFFFFFFFFFFFFFFFFFFFFFFFFFFFFFFFFFFFF AND DUP2 MSTORE PUSH1 0x20 ADD SWAP1 DUP2 MSTORE PUSH1 0x20 ADD PUSH1 0x0 KECCAK256 SLOAD EQ ISZERO PUSH2 0xE7D JUMPI PUSH1 0x2 PUSH1 0x0 DUP6 PUSH20 0xFFFFFFFFFFFFFFFFFFFFFFFFFFFFFFFFFFFFFFFF AND PUSH20 0xFFFFFFFFFFFFFFFFFFFFFFFFFFFFFFFFFFFFFFFF AND DUP2 MSTORE PUSH1 0x20 ADD SWAP1 DUP2 MSTORE PUSH1 0x20 ADD PUSH1 0x0 KECCAK256 DUP4 SWAP1 DUP1 PUSH1 0x1 DUP2 SLOAD ADD DUP1 DUP3 SSTORE DUP1 SWAP2 POP POP PUSH1 0x1 SWAP1 SUB SWAP1 PUSH1 0x0 MSTORE PUSH1 0x20 PUSH1 0x0 KECCAK256 ADD PUSH1 0x0 SWAP1 SWAP2 SWAP1 SWAP2 SWAP1 SWAP2 PUSH2 0x100 EXP DUP2 SLOAD DUP2 PUSH20 0xFFFFFFFFFFFFFFFFFFFFFFFFFFFFFFFFFFFFFFFF MUL NOT AND SWAP1 DUP4 PUSH20 0xFFFFFFFFFFFFFFFFFFFFFFFFFFFFFFFFFFFFFFFF AND MUL OR SWAP1 SSTORE POP JUMPDEST DUP2 PUSH1 0x3 PUSH1 0x0 DUP7 PUSH20 0xFFFFFFFFFFFFFFFFFFFFFFFFFFFFFFFFFFFFFFFF AND PUSH20 0xFFFFFFFFFFFFFFFFFFFFFFFFFFFFFFFFFFFFFFFF AND DUP2 MSTORE PUSH1 0x20 ADD SWAP1 DUP2 MSTORE PUSH1 0x20 ADD PUSH1 0x0 KECCAK256 PUSH1 0x0 DUP6 PUSH20 0xFFFFFFFFFFFFFFFFFFFFFFFFFFFFFFFFFFFFFFFF AND PUSH20 0xFFFFFFFFFFFFFFFFFFFFFFFFFFFFFFFFFFFFFFFF AND DUP2 MSTORE PUSH1 0x20 ADD SWAP1 DUP2 MSTORE PUSH1 0x20 ADD PUSH1 0x0 KECCAK256 PUSH1 0x0 DUP3 DUP3 SLOAD PUSH2 0xF09 SWAP2 SWAP1 PUSH2 0x1DF4 JUMP JUMPDEST SWAP3 POP POP DUP2 SWAP1 SSTORE POP SWAP4 SWAP3 POP POP POP JUMP JUMPDEST PUSH1 0x5 DUP1 SLOAD PUSH2 0xF24 SWAP1 PUSH2 0x1C8B JUMP JUMPDEST DUP1 PUSH1 0x1F ADD PUSH1 0x20 DUP1 SWAP2 DIV MUL PUSH1 0x20 ADD PUSH1 0x40 MLOAD SWAP1 DUP2 ADD PUSH1 0x40 MSTORE DUP1 SWAP3 SWAP2 SWAP1 DUP2 DUP2 MSTORE PUSH1 0x20 ADD DUP3 DUP1 SLOAD PUSH2 0xF50 SWAP1 PUSH2 0x1C8B JUMP JUMPDEST DUP1 ISZERO PUSH2 0xF9D JUMPI DUP1 PUSH1 0x1F LT PUSH2 0xF72 JUMPI PUSH2 0x100 DUP1 DUP4 SLOAD DIV MUL DUP4 MSTORE SWAP2 PUSH1 0x20 ADD SWAP2 PUSH2 0xF9D JUMP JUMPDEST DUP3 ADD SWAP2 SWAP1 PUSH1 0x0 MSTORE PUSH1 0x20 PUSH1 0x0 KECCAK256 SWAP1 JUMPDEST DUP2 SLOAD DUP2 MSTORE SWAP1 PUSH1 0x1 ADD SWAP1 PUSH1 0x20 ADD DUP1 DUP4 GT PUSH2 0xF80 JUMPI DUP3 SWAP1 SUB PUSH1 0x1F AND DUP3 ADD SWAP2 JUMPDEST POP POP POP POP POP DUP2 JUMP JUMPDEST PUSH1 0x7 SLOAD DUP2 JUMP JUMPDEST PUSH1 0x1 DUP2 DUP2 SLOAD DUP2 LT PUSH2 0xFBB JUMPI PUSH1 0x0 DUP1 REVERT JUMPDEST SWAP1 PUSH1 0x0 MSTORE PUSH1 0x20 PUSH1 0x0 KECCAK256 ADD PUSH1 0x0 SWAP2 POP SLOAD SWAP1 PUSH2 0x100 EXP SWAP1 DIV PUSH20 0xFFFFFFFFFFFFFFFFFFFFFFFFFFFFFFFFFFFFFFFF AND DUP2 JUMP JUMPDEST PUSH1 0x0 PUSH2 0xFF4 PUSH2 0x1354 JUMP JUMPDEST PUSH20 0xFFFFFFFFFFFFFFFFFFFFFFFFFFFFFFFFFFFFFFFF AND PUSH2 0x1012 PUSH2 0xAD6 JUMP JUMPDEST PUSH20 0xFFFFFFFFFFFFFFFFFFFFFFFFFFFFFFFFFFFFFFFF AND EQ PUSH2 0x1068 JUMPI PUSH1 0x40 MLOAD PUSH32 0x8C379A000000000000000000000000000000000000000000000000000000000 DUP2 MSTORE PUSH1 0x4 ADD PUSH2 0x105F SWAP1 PUSH2 0x1B58 JUMP JUMPDEST PUSH1 0x40 MLOAD DUP1 SWAP2 SUB SWAP1 REVERT JUMPDEST PUSH1 0x0 PUSH1 0x1 DUP2 GT ISZERO PUSH2 0x107C JUMPI PUSH2 0x107B PUSH2 0x1829 JUMP JUMPDEST JUMPDEST ADDRESS PUSH20 0xFFFFFFFFFFFFFFFFFFFFFFFFFFFFFFFFFFFFFFFF AND PUSH4 0x200D2ED2 PUSH1 0x40 MLOAD DUP2 PUSH4 0xFFFFFFFF AND PUSH1 0xE0 SHL DUP2 MSTORE PUSH1 0x4 ADD PUSH1 0x20 PUSH1 0x40 MLOAD DUP1 DUP4 SUB DUP2 DUP7 DUP1 EXTCODESIZE ISZERO DUP1 ISZERO PUSH2 0x10C2 JUMPI PUSH1 0x0 DUP1 REVERT JUMPDEST POP GAS STATICCALL ISZERO DUP1 ISZERO PUSH2 0x10D6 JUMPI RETURNDATASIZE PUSH1 0x0 DUP1 RETURNDATACOPY RETURNDATASIZE PUSH1 0x0 REVERT JUMPDEST POP POP POP POP PUSH1 0x40 MLOAD RETURNDATASIZE PUSH1 0x1F NOT PUSH1 0x1F DUP3 ADD AND DUP3 ADD DUP1 PUSH1 0x40 MSTORE POP DUP2 ADD SWAP1 PUSH2 0x10FA SWAP2 SWAP1 PUSH2 0x1B9D JUMP JUMPDEST PUSH1 0x1 DUP2 GT ISZERO PUSH2 0x110C JUMPI PUSH2 0x110B PUSH2 0x1829 JUMP JUMPDEST JUMPDEST EQ PUSH2 0x114C JUMPI PUSH1 0x40 MLOAD PUSH32 0x8C379A000000000000000000000000000000000000000000000000000000000 DUP2 MSTORE PUSH1 0x4 ADD PUSH2 0x1143 SWAP1 PUSH2 0x1EBC JUMP JUMPDEST PUSH1 0x40 MLOAD DUP1 SWAP2 SUB SWAP1 REVERT JUMPDEST PUSH1 0x1 PUSH1 0xB PUSH1 0x14 PUSH2 0x100 EXP DUP2 SLOAD DUP2 PUSH1 0xFF MUL NOT AND SWAP1 DUP4 PUSH1 0x1 DUP2 GT ISZERO PUSH2 0x1172 JUMPI PUSH2 0x1171 PUSH2 0x1829 JUMP JUMPDEST JUMPDEST MUL OR SWAP1 SSTORE POP DUP2 PUSH1 0xB PUSH1 0x0 PUSH2 0x100 EXP DUP2 SLOAD DUP2 PUSH20 0xFFFFFFFFFFFFFFFFFFFFFFFFFFFFFFFFFFFFFFFF MUL NOT AND SWAP1 DUP4 PUSH20 0xFFFFFFFFFFFFFFFFFFFFFFFFFFFFFFFFFFFFFFFF AND MUL OR SWAP1 SSTORE POP TIMESTAMP PUSH1 0x7 DUP2 SWAP1 SSTORE POP PUSH1 0x1 SWAP1 POP SWAP2 SWAP1 POP JUMP JUMPDEST PUSH1 0x8 SLOAD DUP2 JUMP JUMPDEST PUSH2 0x11D6 PUSH2 0x1354 JUMP JUMPDEST PUSH20 0xFFFFFFFFFFFFFFFFFFFFFFFFFFFFFFFFFFFFFFFF AND PUSH2 0x11F4 PUSH2 0xAD6 JUMP JUMPDEST PUSH20 0xFFFFFFFFFFFFFFFFFFFFFFFFFFFFFFFFFFFFFFFF AND EQ PUSH2 0x124A JUMPI PUSH1 0x40 MLOAD PUSH32 0x8C379A000000000000000000000000000000000000000000000000000000000 DUP2 MSTORE PUSH1 0x4 ADD PUSH2 0x1241 SWAP1 PUSH2 0x1B58 JUMP JUMPDEST PUSH1 0x40 MLOAD DUP1 SWAP2 SUB SWAP1 REVERT JUMPDEST PUSH1 0x0 PUSH20 0xFFFFFFFFFFFFFFFFFFFFFFFFFFFFFFFFFFFFFFFF AND DUP2 PUSH20 0xFFFFFFFFFFFFFFFFFFFFFFFFFFFFFFFFFFFFFFFF AND EQ ISZERO PUSH2 0x12BA JUMPI PUSH1 0x40 MLOAD PUSH32 0x8C379A000000000000000000000000000000000000000000000000000000000 DUP2 MSTORE PUSH1 0x4 ADD PUSH2 0x12B1 SWAP1 PUSH2 0x1F4E JUMP JUMPDEST PUSH1 0x40 MLOAD DUP1 SWAP2 SUB SWAP1 REVERT JUMPDEST PUSH2 0x12C3 DUP2 PUSH2 0x1492 JUMP JUMPDEST POP JUMP JUMPDEST PUSH1 0x60 PUSH1 0x1 DUP1 SLOAD DUP1 PUSH1 0x20 MUL PUSH1 0x20 ADD PUSH1 0x40 MLOAD SWAP1 DUP2 ADD PUSH1 0x40 MSTORE DUP1 SWAP3 SWAP2 SWAP1 DUP2 DUP2 MSTORE PUSH1 0x20 ADD DUP3 DUP1 SLOAD DUP1 ISZERO PUSH2 0x134A JUMPI PUSH1 0x20 MUL DUP3 ADD SWAP2 SWAP1 PUSH1 0x0 MSTORE PUSH1 0x20 PUSH1 0x0 KECCAK256 SWAP1 JUMPDEST DUP2 PUSH1 0x0 SWAP1 SLOAD SWAP1 PUSH2 0x100 EXP SWAP1 DIV PUSH20 0xFFFFFFFFFFFFFFFFFFFFFFFFFFFFFFFFFFFFFFFF AND PUSH20 0xFFFFFFFFFFFFFFFFFFFFFFFFFFFFFFFFFFFFFFFF AND DUP2 MSTORE PUSH1 0x20 ADD SWAP1 PUSH1 0x1 ADD SWAP1 DUP1 DUP4 GT PUSH2 0x1300 JUMPI JUMPDEST POP POP POP POP POP SWAP1 POP SWAP1 JUMP JUMPDEST PUSH1 0x0 CALLER SWAP1 POP SWAP1 JUMP JUMPDEST PUSH1 0x0 DUP1 DUP5 PUSH20 0xFFFFFFFFFFFFFFFFFFFFFFFFFFFFFFFFFFFFFFFF AND PUSH4 0xA9059CBB DUP6 DUP6 PUSH1 0x40 MLOAD PUSH1 0x24 ADD PUSH2 0x138E SWAP3 SWAP2 SWAP1 PUSH2 0x1F6E JUMP JUMPDEST PUSH1 0x40 MLOAD PUSH1 0x20 DUP2 DUP4 SUB SUB DUP2 MSTORE SWAP1 PUSH1 0x40 MSTORE SWAP1 PUSH1 0xE0 SHL PUSH1 0x20 DUP3 ADD DUP1 MLOAD PUSH28 0xFFFFFFFFFFFFFFFFFFFFFFFFFFFFFFFFFFFFFFFFFFFFFFFFFFFFFFFF DUP4 DUP2 DUP4 AND OR DUP4 MSTORE POP POP POP POP PUSH1 0x40 MLOAD PUSH2 0x13DC SWAP2 SWAP1 PUSH2 0x1FDE JUMP JUMPDEST PUSH1 0x0 PUSH1 0x40 MLOAD DUP1 DUP4 SUB DUP2 PUSH1 0x0 DUP7 GAS CALL SWAP2 POP POP RETURNDATASIZE DUP1 PUSH1 0x0 DUP2 EQ PUSH2 0x1419 JUMPI PUSH1 0x40 MLOAD SWAP2 POP PUSH1 0x1F NOT PUSH1 0x3F RETURNDATASIZE ADD AND DUP3 ADD PUSH1 0x40 MSTORE RETURNDATASIZE DUP3 MSTORE RETURNDATASIZE PUSH1 0x0 PUSH1 0x20 DUP5 ADD RETURNDATACOPY PUSH2 0x141E JUMP JUMPDEST PUSH1 0x60 SWAP2 POP JUMPDEST POP SWAP2 POP SWAP2 POP DUP2 DUP1 ISZERO PUSH2 0x144C JUMPI POP PUSH1 0x0 DUP2 MLOAD EQ DUP1 PUSH2 0x144B JUMPI POP DUP1 DUP1 PUSH1 0x20 ADD SWAP1 MLOAD DUP2 ADD SWAP1 PUSH2 0x144A SWAP2 SWAP1 PUSH2 0x2021 JUMP JUMPDEST JUMPDEST JUMPDEST PUSH2 0x148B JUMPI PUSH1 0x40 MLOAD PUSH32 0x8C379A000000000000000000000000000000000000000000000000000000000 DUP2 MSTORE PUSH1 0x4 ADD PUSH2 0x1482 SWAP1 PUSH2 0x20C0 JUMP JUMPDEST PUSH1 0x40 MLOAD DUP1 SWAP2 SUB SWAP1 REVERT JUMPDEST POP POP POP POP POP JUMP JUMPDEST PUSH1 0x0 DUP1 PUSH1 0x0 SWAP1 SLOAD SWAP1 PUSH2 0x100 EXP SWAP1 DIV PUSH20 0xFFFFFFFFFFFFFFFFFFFFFFFFFFFFFFFFFFFFFFFF AND SWAP1 POP DUP2 PUSH1 0x0 DUP1 PUSH2 0x100 EXP DUP2 SLOAD DUP2 PUSH20 0xFFFFFFFFFFFFFFFFFFFFFFFFFFFFFFFFFFFFFFFF MUL NOT AND SWAP1 DUP4 PUSH20 0xFFFFFFFFFFFFFFFFFFFFFFFFFFFFFFFFFFFFFFFF AND MUL OR SWAP1 SSTORE POP DUP2 PUSH20 0xFFFFFFFFFFFFFFFFFFFFFFFFFFFFFFFFFFFFFFFF AND DUP2 PUSH20 0xFFFFFFFFFFFFFFFFFFFFFFFFFFFFFFFFFFFFFFFF AND PUSH32 0x8BE0079C531659141344CD1FD0A4F28419497F9722A3DAAFE3B4186F6B6457E0 PUSH1 0x40 MLOAD PUSH1 0x40 MLOAD DUP1 SWAP2 SUB SWAP1 LOG3 POP POP JUMP JUMPDEST PUSH1 0x0 DUP1 DUP6 PUSH20 0xFFFFFFFFFFFFFFFFFFFFFFFFFFFFFFFFFFFFFFFF AND PUSH4 0x23B872DD DUP7 DUP7 DUP7 PUSH1 0x40 MLOAD PUSH1 0x24 ADD PUSH2 0x158A SWAP4 SWAP3 SWAP2 SWAP1 PUSH2 0x20E0 JUMP JUMPDEST PUSH1 0x40 MLOAD PUSH1 0x20 DUP2 DUP4 SUB SUB DUP2 MSTORE SWAP1 PUSH1 0x40 MSTORE SWAP1 PUSH1 0xE0 SHL PUSH1 0x20 DUP3 ADD DUP1 MLOAD PUSH28 0xFFFFFFFFFFFFFFFFFFFFFFFFFFFFFFFFFFFFFFFFFFFFFFFFFFFFFFFF DUP4 DUP2 DUP4 AND OR DUP4 MSTORE POP POP POP POP PUSH1 0x40 MLOAD PUSH2 0x15D8 SWAP2 SWAP1 PUSH2 0x1FDE JUMP JUMPDEST PUSH1 0x0 PUSH1 0x40 MLOAD DUP1 DUP4 SUB DUP2 PUSH1 0x0 DUP7 GAS CALL SWAP2 POP POP RETURNDATASIZE DUP1 PUSH1 0x0 DUP2 EQ PUSH2 0x1615 JUMPI PUSH1 0x40 MLOAD SWAP2 POP PUSH1 0x1F NOT PUSH1 0x3F RETURNDATASIZE ADD AND DUP3 ADD PUSH1 0x40 MSTORE RETURNDATASIZE DUP3 MSTORE RETURNDATASIZE PUSH1 0x0 PUSH1 0x20 DUP5 ADD RETURNDATACOPY PUSH2 0x161A JUMP JUMPDEST PUSH1 0x60 SWAP2 POP JUMPDEST POP SWAP2 POP SWAP2 POP DUP2 DUP1 ISZERO PUSH2 0x1648 JUMPI POP PUSH1 0x0 DUP2 MLOAD EQ DUP1 PUSH2 0x1647 JUMPI POP DUP1 DUP1 PUSH1 0x20 ADD SWAP1 MLOAD DUP2 ADD SWAP1 PUSH2 0x1646 SWAP2 SWAP1 PUSH2 0x2021 JUMP JUMPDEST JUMPDEST JUMPDEST PUSH2 0x1687 JUMPI PUSH1 0x40 MLOAD PUSH32 0x8C379A000000000000000000000000000000000000000000000000000000000 DUP2 MSTORE PUSH1 0x4 ADD PUSH2 0x167E SWAP1 PUSH2 0x2189 JUMP JUMPDEST PUSH1 0x40 MLOAD DUP1 SWAP2 SUB SWAP1 REVERT JUMPDEST POP POP POP POP POP POP JUMP JUMPDEST PUSH1 0x0 DUP1 REVERT JUMPDEST PUSH1 0x0 PUSH20 0xFFFFFFFFFFFFFFFFFFFFFFFFFFFFFFFFFFFFFFFF DUP3 AND SWAP1 POP SWAP2 SWAP1 POP JUMP JUMPDEST PUSH1 0x0 PUSH2 0x16BF DUP3 PUSH2 0x1694 JUMP JUMPDEST SWAP1 POP SWAP2 SWAP1 POP JUMP JUMPDEST PUSH2 0x16CF DUP2 PUSH2 0x16B4 JUMP JUMPDEST DUP2 EQ PUSH2 0x16DA JUMPI PUSH1 0x0 DUP1 REVERT JUMPDEST POP JUMP JUMPDEST PUSH1 0x0 DUP2 CALLDATALOAD SWAP1 POP PUSH2 0x16EC DUP2 PUSH2 0x16C6 JUMP JUMPDEST SWAP3 SWAP2 POP POP JUMP JUMPDEST PUSH1 0x0 PUSH1 0x20 DUP3 DUP5 SUB SLT ISZERO PUSH2 0x1708 JUMPI PUSH2 0x1707 PUSH2 0x168F JUMP JUMPDEST JUMPDEST PUSH1 0x0 PUSH2 0x1716 DUP5 DUP3 DUP6 ADD PUSH2 0x16DD JUMP JUMPDEST SWAP2 POP POP SWAP3 SWAP2 POP POP JUMP JUMPDEST PUSH1 0x0 DUP2 MLOAD SWAP1 POP SWAP2 SWAP1 POP JUMP JUMPDEST PUSH1 0x0 DUP3 DUP3 MSTORE PUSH1 0x20 DUP3 ADD SWAP1 POP SWAP3 SWAP2 POP POP JUMP JUMPDEST PUSH1 0x0 DUP2 SWAP1 POP PUSH1 0x20 DUP3 ADD SWAP1 POP SWAP2 SWAP1 POP JUMP JUMPDEST PUSH2 0x1754 DUP2 PUSH2 0x16B4 JUMP JUMPDEST DUP3 MSTORE POP POP JUMP JUMPDEST PUSH1 0x0 PUSH2 0x1766 DUP4 DUP4 PUSH2 0x174B JUMP JUMPDEST PUSH1 0x20 DUP4 ADD SWAP1 POP SWAP3 SWAP2 POP POP JUMP JUMPDEST PUSH1 0x0 PUSH1 0x20 DUP3 ADD SWAP1 POP SWAP2 SWAP1 POP JUMP JUMPDEST PUSH1 0x0 PUSH2 0x178A DUP3 PUSH2 0x171F JUMP JUMPDEST PUSH2 0x1794 DUP2 DUP6 PUSH2 0x172A JUMP JUMPDEST SWAP4 POP PUSH2 0x179F DUP4 PUSH2 0x173B JUMP JUMPDEST DUP1 PUSH1 0x0 JUMPDEST DUP4 DUP2 LT ISZERO PUSH2 0x17D0 JUMPI DUP2 MLOAD PUSH2 0x17B7 DUP9 DUP3 PUSH2 0x175A JUMP JUMPDEST SWAP8 POP PUSH2 0x17C2 DUP4 PUSH2 0x1772 JUMP JUMPDEST SWAP3 POP POP PUSH1 0x1 DUP2 ADD SWAP1 POP PUSH2 0x17A3 JUMP JUMPDEST POP DUP6 SWAP4 POP POP POP POP SWAP3 SWAP2 POP POP JUMP JUMPDEST PUSH1 0x0 PUSH1 0x20 DUP3 ADD SWAP1 POP DUP2 DUP2 SUB PUSH1 0x0 DUP4 ADD MSTORE PUSH2 0x17F7 DUP2 DUP5 PUSH2 0x177F JUMP JUMPDEST SWAP1 POP SWAP3 SWAP2 POP POP JUMP JUMPDEST PUSH2 0x1808 DUP2 PUSH2 0x16B4 JUMP JUMPDEST DUP3 MSTORE POP POP JUMP JUMPDEST PUSH1 0x0 PUSH1 0x20 DUP3 ADD SWAP1 POP PUSH2 0x1823 PUSH1 0x0 DUP4 ADD DUP5 PUSH2 0x17FF JUMP JUMPDEST SWAP3 SWAP2 POP POP JUMP JUMPDEST PUSH32 0x4E487B7100000000000000000000000000000000000000000000000000000000 PUSH1 0x0 MSTORE PUSH1 0x21 PUSH1 0x4 MSTORE PUSH1 0x24 PUSH1 0x0 REVERT JUMPDEST PUSH1 0x2 DUP2 LT PUSH2 0x1869 JUMPI PUSH2 0x1868 PUSH2 0x1829 JUMP JUMPDEST JUMPDEST POP JUMP JUMPDEST PUSH1 0x0 DUP2 SWAP1 POP PUSH2 0x187A DUP3 PUSH2 0x1858 JUMP JUMPDEST SWAP2 SWAP1 POP JUMP JUMPDEST PUSH1 0x0 PUSH2 0x188A DUP3 PUSH2 0x186C JUMP JUMPDEST SWAP1 POP SWAP2 SWAP1 POP JUMP JUMPDEST PUSH2 0x189A DUP2 PUSH2 0x187F JUMP JUMPDEST DUP3 MSTORE POP POP JUMP JUMPDEST PUSH1 0x0 PUSH1 0x20 DUP3 ADD SWAP1 POP PUSH2 0x18B5 PUSH1 0x0 DUP4 ADD DUP5 PUSH2 0x1891 JUMP JUMPDEST SWAP3 SWAP2 POP POP JUMP JUMPDEST PUSH1 0x0 DUP1 PUSH1 0x40 DUP4 DUP6 SUB SLT ISZERO PUSH2 0x18D2 JUMPI PUSH2 0x18D1 PUSH2 0x168F JUMP JUMPDEST JUMPDEST PUSH1 0x0 PUSH2 0x18E0 DUP6 DUP3 DUP7 ADD PUSH2 0x16DD JUMP JUMPDEST SWAP3 POP POP PUSH1 0x20 PUSH2 0x18F1 DUP6 DUP3 DUP7 ADD PUSH2 0x16DD JUMP JUMPDEST SWAP2 POP POP SWAP3 POP SWAP3 SWAP1 POP JUMP JUMPDEST PUSH1 0x0 DUP2 ISZERO ISZERO SWAP1 POP SWAP2 SWAP1 POP JUMP JUMPDEST PUSH2 0x1910 DUP2 PUSH2 0x18FB JUMP JUMPDEST DUP3 MSTORE POP POP JUMP JUMPDEST PUSH1 0x0 PUSH1 0x20 DUP3 ADD SWAP1 POP PUSH2 0x192B PUSH1 0x0 DUP4 ADD DUP5 PUSH2 0x1907 JUMP JUMPDEST SWAP3 SWAP2 POP POP JUMP JUMPDEST PUSH1 0x0 DUP2 MLOAD SWAP1 POP SWAP2 SWAP1 POP JUMP JUMPDEST PUSH1 0x0 DUP3 DUP3 MSTORE PUSH1 0x20 DUP3 ADD SWAP1 POP SWAP3 SWAP2 POP POP JUMP JUMPDEST PUSH1 0x0 JUMPDEST DUP4 DUP2 LT ISZERO PUSH2 0x196B JUMPI DUP1 DUP3 ADD MLOAD DUP2 DUP5 ADD MSTORE PUSH1 0x20 DUP2 ADD SWAP1 POP PUSH2 0x1950 JUMP JUMPDEST DUP4 DUP2 GT ISZERO PUSH2 0x197A JUMPI PUSH1 0x0 DUP5 DUP5 ADD MSTORE JUMPDEST POP POP POP POP JUMP JUMPDEST PUSH1 0x0 PUSH1 0x1F NOT PUSH1 0x1F DUP4 ADD AND SWAP1 POP SWAP2 SWAP1 POP JUMP JUMPDEST PUSH1 0x0 PUSH2 0x199C DUP3 PUSH2 0x1931 JUMP JUMPDEST PUSH2 0x19A6 DUP2 DUP6 PUSH2 0x193C JUMP JUMPDEST SWAP4 POP PUSH2 0x19B6 DUP2 DUP6 PUSH1 0x20 DUP7 ADD PUSH2 0x194D JUMP JUMPDEST PUSH2 0x19BF DUP2 PUSH2 0x1980 JUMP JUMPDEST DUP5 ADD SWAP2 POP POP SWAP3 SWAP2 POP POP JUMP JUMPDEST PUSH1 0x0 PUSH1 0x20 DUP3 ADD SWAP1 POP DUP2 DUP2 SUB PUSH1 0x0 DUP4 ADD MSTORE PUSH2 0x19E4 DUP2 DUP5 PUSH2 0x1991 JUMP JUMPDEST SWAP1 POP SWAP3 SWAP2 POP POP JUMP JUMPDEST PUSH1 0x0 DUP2 SWAP1 POP SWAP2 SWAP1 POP JUMP JUMPDEST PUSH2 0x19FF DUP2 PUSH2 0x19EC JUMP JUMPDEST DUP2 EQ PUSH2 0x1A0A JUMPI PUSH1 0x0 DUP1 REVERT JUMPDEST POP JUMP JUMPDEST PUSH1 0x0 DUP2 CALLDATALOAD SWAP1 POP PUSH2 0x1A1C DUP2 PUSH2 0x19F6 JUMP JUMPDEST SWAP3 SWAP2 POP POP JUMP JUMPDEST PUSH1 0x0 DUP1 PUSH1 0x40 DUP4 DUP6 SUB SLT ISZERO PUSH2 0x1A39 JUMPI PUSH2 0x1A38 PUSH2 0x168F JUMP JUMPDEST JUMPDEST PUSH1 0x0 PUSH2 0x1A47 DUP6 DUP3 DUP7 ADD PUSH2 0x16DD JUMP JUMPDEST SWAP3 POP POP PUSH1 0x20 PUSH2 0x1A58 DUP6 DUP3 DUP7 ADD PUSH2 0x1A0D JUMP JUMPDEST SWAP2 POP POP SWAP3 POP SWAP3 SWAP1 POP JUMP JUMPDEST PUSH2 0x1A6B DUP2 PUSH2 0x19EC JUMP JUMPDEST DUP3 MSTORE POP POP JUMP JUMPDEST PUSH1 0x0 PUSH1 0x20 DUP3 ADD SWAP1 POP PUSH2 0x1A86 PUSH1 0x0 DUP4 ADD DUP5 PUSH2 0x1A62 JUMP JUMPDEST SWAP3 SWAP2 POP POP JUMP JUMPDEST PUSH1 0x0 DUP1 PUSH1 0x0 PUSH1 0x60 DUP5 DUP7 SUB SLT ISZERO PUSH2 0x1AA5 JUMPI PUSH2 0x1AA4 PUSH2 0x168F JUMP JUMPDEST JUMPDEST PUSH1 0x0 PUSH2 0x1AB3 DUP7 DUP3 DUP8 ADD PUSH2 0x16DD JUMP JUMPDEST SWAP4 POP POP PUSH1 0x20 PUSH2 0x1AC4 DUP7 DUP3 DUP8 ADD PUSH2 0x16DD JUMP JUMPDEST SWAP3 POP POP PUSH1 0x40 PUSH2 0x1AD5 DUP7 DUP3 DUP8 ADD PUSH2 0x1A0D JUMP JUMPDEST SWAP2 POP POP SWAP3 POP SWAP3 POP SWAP3 JUMP JUMPDEST PUSH1 0x0 PUSH1 0x20 DUP3 DUP5 SUB SLT ISZERO PUSH2 0x1AF5 JUMPI PUSH2 0x1AF4 PUSH2 0x168F JUMP JUMPDEST JUMPDEST PUSH1 0x0 PUSH2 0x1B03 DUP5 DUP3 DUP6 ADD PUSH2 0x1A0D JUMP JUMPDEST SWAP2 POP POP SWAP3 SWAP2 POP POP JUMP JUMPDEST PUSH32 0x4F776E61626C653A2063616C6C6572206973206E6F7420746865206F776E6572 PUSH1 0x0 DUP3 ADD MSTORE POP JUMP JUMPDEST PUSH1 0x0 PUSH2 0x1B42 PUSH1 0x20 DUP4 PUSH2 0x193C JUMP JUMPDEST SWAP2 POP PUSH2 0x1B4D DUP3 PUSH2 0x1B0C JUMP JUMPDEST PUSH1 0x20 DUP3 ADD SWAP1 POP SWAP2 SWAP1 POP JUMP JUMPDEST PUSH1 0x0 PUSH1 0x20 DUP3 ADD SWAP1 POP DUP2 DUP2 SUB PUSH1 0x0 DUP4 ADD MSTORE PUSH2 0x1B71 DUP2 PUSH2 0x1B35 JUMP JUMPDEST SWAP1 POP SWAP2 SWAP1 POP JUMP JUMPDEST PUSH1 0x2 DUP2 LT PUSH2 0x1B85 JUMPI PUSH1 0x0 DUP1 REVERT JUMPDEST POP JUMP JUMPDEST PUSH1 0x0 DUP2 MLOAD SWAP1 POP PUSH2 0x1B97 DUP2 PUSH2 0x1B78 JUMP JUMPDEST SWAP3 SWAP2 POP POP JUMP JUMPDEST PUSH1 0x0 PUSH1 0x20 DUP3 DUP5 SUB SLT ISZERO PUSH2 0x1BB3 JUMPI PUSH2 0x1BB2 PUSH2 0x168F JUMP JUMPDEST JUMPDEST PUSH1 0x0 PUSH2 0x1BC1 DUP5 DUP3 DUP6 ADD PUSH2 0x1B88 JUMP JUMPDEST SWAP2 POP POP SWAP3 SWAP2 POP POP JUMP JUMPDEST PUSH32 0x5468697320697320626F756E747920697320636C6F7365642E2043616E6E6F74 PUSH1 0x0 DUP3 ADD MSTORE PUSH32 0x20776974686472617720616761696E2E00000000000000000000000000000000 PUSH1 0x20 DUP3 ADD MSTORE POP JUMP JUMPDEST PUSH1 0x0 PUSH2 0x1C26 PUSH1 0x30 DUP4 PUSH2 0x193C JUMP JUMPDEST SWAP2 POP PUSH2 0x1C31 DUP3 PUSH2 0x1BCA JUMP JUMPDEST PUSH1 0x40 DUP3 ADD SWAP1 POP SWAP2 SWAP1 POP JUMP JUMPDEST PUSH1 0x0 PUSH1 0x20 DUP3 ADD SWAP1 POP DUP2 DUP2 SUB PUSH1 0x0 DUP4 ADD MSTORE PUSH2 0x1C55 DUP2 PUSH2 0x1C19 JUMP JUMPDEST SWAP1 POP SWAP2 SWAP1 POP JUMP JUMPDEST PUSH32 0x4E487B7100000000000000000000000000000000000000000000000000000000 PUSH1 0x0 MSTORE PUSH1 0x22 PUSH1 0x4 MSTORE PUSH1 0x24 PUSH1 0x0 REVERT JUMPDEST PUSH1 0x0 PUSH1 0x2 DUP3 DIV SWAP1 POP PUSH1 0x1 DUP3 AND DUP1 PUSH2 0x1CA3 JUMPI PUSH1 0x7F DUP3 AND SWAP2 POP JUMPDEST PUSH1 0x20 DUP3 LT DUP2 EQ ISZERO PUSH2 0x1CB7 JUMPI PUSH2 0x1CB6 PUSH2 0x1C5C JUMP JUMPDEST JUMPDEST POP SWAP2 SWAP1 POP JUMP JUMPDEST PUSH32 0x4E487B7100000000000000000000000000000000000000000000000000000000 PUSH1 0x0 MSTORE PUSH1 0x11 PUSH1 0x4 MSTORE PUSH1 0x24 PUSH1 0x0 REVERT JUMPDEST PUSH1 0x0 PUSH2 0x1CF7 DUP3 PUSH2 0x19EC JUMP JUMPDEST SWAP2 POP PUSH2 0x1D02 DUP4 PUSH2 0x19EC JUMP JUMPDEST SWAP3 POP DUP3 DUP3 LT ISZERO PUSH2 0x1D15 JUMPI PUSH2 0x1D14 PUSH2 0x1CBD JUMP JUMPDEST JUMPDEST DUP3 DUP3 SUB SWAP1 POP SWAP3 SWAP2 POP POP JUMP JUMPDEST PUSH1 0x0 DUP2 MLOAD SWAP1 POP PUSH2 0x1D2F DUP2 PUSH2 0x19F6 JUMP JUMPDEST SWAP3 SWAP2 POP POP JUMP JUMPDEST PUSH1 0x0 PUSH1 0x20 DUP3 DUP5 SUB SLT ISZERO PUSH2 0x1D4B JUMPI PUSH2 0x1D4A PUSH2 0x168F JUMP JUMPDEST JUMPDEST PUSH1 0x0 PUSH2 0x1D59 DUP5 DUP3 DUP6 ADD PUSH2 0x1D20 JUMP JUMPDEST SWAP2 POP POP SWAP3 SWAP2 POP POP JUMP JUMPDEST PUSH32 0x4D7573742073656E642061206E6F6E2D7A65726F20766F6C756D65206F662074 PUSH1 0x0 DUP3 ADD MSTORE PUSH32 0x6F6B656E732E0000000000000000000000000000000000000000000000000000 PUSH1 0x20 DUP3 ADD MSTORE POP JUMP JUMPDEST PUSH1 0x0 PUSH2 0x1DBE PUSH1 0x26 DUP4 PUSH2 0x193C JUMP JUMPDEST SWAP2 POP PUSH2 0x1DC9 DUP3 PUSH2 0x1D62 JUMP JUMPDEST PUSH1 0x40 DUP3 ADD SWAP1 POP SWAP2 SWAP1 POP JUMP JUMPDEST PUSH1 0x0 PUSH1 0x20 DUP3 ADD SWAP1 POP DUP2 DUP2 SUB PUSH1 0x0 DUP4 ADD MSTORE PUSH2 0x1DED DUP2 PUSH2 0x1DB1 JUMP JUMPDEST SWAP1 POP SWAP2 SWAP1 POP JUMP JUMPDEST PUSH1 0x0 PUSH2 0x1DFF DUP3 PUSH2 0x19EC JUMP JUMPDEST SWAP2 POP PUSH2 0x1E0A DUP4 PUSH2 0x19EC JUMP JUMPDEST SWAP3 POP DUP3 PUSH32 0xFFFFFFFFFFFFFFFFFFFFFFFFFFFFFFFFFFFFFFFFFFFFFFFFFFFFFFFFFFFFFFFF SUB DUP3 GT ISZERO PUSH2 0x1E3F JUMPI PUSH2 0x1E3E PUSH2 0x1CBD JUMP JUMPDEST JUMPDEST DUP3 DUP3 ADD SWAP1 POP SWAP3 SWAP2 POP POP JUMP JUMPDEST PUSH32 0x5468697320697320626F756E747920697320616C726561647920636C6F736564 PUSH1 0x0 DUP3 ADD MSTORE PUSH32 0x2E2043616E6E6F7420636C6F736520616761696E2E0000000000000000000000 PUSH1 0x20 DUP3 ADD MSTORE POP JUMP JUMPDEST PUSH1 0x0 PUSH2 0x1EA6 PUSH1 0x35 DUP4 PUSH2 0x193C JUMP JUMPDEST SWAP2 POP PUSH2 0x1EB1 DUP3 PUSH2 0x1E4A JUMP JUMPDEST PUSH1 0x40 DUP3 ADD SWAP1 POP SWAP2 SWAP1 POP JUMP JUMPDEST PUSH1 0x0 PUSH1 0x20 DUP3 ADD SWAP1 POP DUP2 DUP2 SUB PUSH1 0x0 DUP4 ADD MSTORE PUSH2 0x1ED5 DUP2 PUSH2 0x1E99 JUMP JUMPDEST SWAP1 POP SWAP2 SWAP1 POP JUMP JUMPDEST PUSH32 0x4F776E61626C653A206E6577206F776E657220697320746865207A65726F2061 PUSH1 0x0 DUP3 ADD MSTORE PUSH32 0x6464726573730000000000000000000000000000000000000000000000000000 PUSH1 0x20 DUP3 ADD MSTORE POP JUMP JUMPDEST PUSH1 0x0 PUSH2 0x1F38 PUSH1 0x26 DUP4 PUSH2 0x193C JUMP JUMPDEST SWAP2 POP PUSH2 0x1F43 DUP3 PUSH2 0x1EDC JUMP JUMPDEST PUSH1 0x40 DUP3 ADD SWAP1 POP SWAP2 SWAP1 POP JUMP JUMPDEST PUSH1 0x0 PUSH1 0x20 DUP3 ADD SWAP1 POP DUP2 DUP2 SUB PUSH1 0x0 DUP4 ADD MSTORE PUSH2 0x1F67 DUP2 PUSH2 0x1F2B JUMP JUMPDEST SWAP1 POP SWAP2 SWAP1 POP JUMP JUMPDEST PUSH1 0x0 PUSH1 0x40 DUP3 ADD SWAP1 POP PUSH2 0x1F83 PUSH1 0x0 DUP4 ADD DUP6 PUSH2 0x17FF JUMP JUMPDEST PUSH2 0x1F90 PUSH1 0x20 DUP4 ADD DUP5 PUSH2 0x1A62 JUMP JUMPDEST SWAP4 SWAP3 POP POP POP JUMP JUMPDEST PUSH1 0x0 DUP2 MLOAD SWAP1 POP SWAP2 SWAP1 POP JUMP JUMPDEST PUSH1 0x0 DUP2 SWAP1 POP SWAP3 SWAP2 POP POP JUMP JUMPDEST PUSH1 0x0 PUSH2 0x1FB8 DUP3 PUSH2 0x1F97 JUMP JUMPDEST PUSH2 0x1FC2 DUP2 DUP6 PUSH2 0x1FA2 JUMP JUMPDEST SWAP4 POP PUSH2 0x1FD2 DUP2 DUP6 PUSH1 0x20 DUP7 ADD PUSH2 0x194D JUMP JUMPDEST DUP1 DUP5 ADD SWAP2 POP POP SWAP3 SWAP2 POP POP JUMP JUMPDEST PUSH1 0x0 PUSH2 0x1FEA DUP3 DUP5 PUSH2 0x1FAD JUMP JUMPDEST SWAP2 POP DUP2 SWAP1 POP SWAP3 SWAP2 POP POP JUMP JUMPDEST PUSH2 0x1FFE DUP2 PUSH2 0x18FB JUMP JUMPDEST DUP2 EQ PUSH2 0x2009 JUMPI PUSH1 0x0 DUP1 REVERT JUMPDEST POP JUMP JUMPDEST PUSH1 0x0 DUP2 MLOAD SWAP1 POP PUSH2 0x201B DUP2 PUSH2 0x1FF5 JUMP JUMPDEST SWAP3 SWAP2 POP POP JUMP JUMPDEST PUSH1 0x0 PUSH1 0x20 DUP3 DUP5 SUB SLT ISZERO PUSH2 0x2037 JUMPI PUSH2 0x2036 PUSH2 0x168F JUMP JUMPDEST JUMPDEST PUSH1 0x0 PUSH2 0x2045 DUP5 DUP3 DUP6 ADD PUSH2 0x200C JUMP JUMPDEST SWAP2 POP POP SWAP3 SWAP2 POP POP JUMP JUMPDEST PUSH32 0x5472616E7366657248656C7065723A3A736166655472616E736665723A207472 PUSH1 0x0 DUP3 ADD MSTORE PUSH32 0x616E73666572206661696C656400000000000000000000000000000000000000 PUSH1 0x20 DUP3 ADD MSTORE POP JUMP JUMPDEST PUSH1 0x0 PUSH2 0x20AA PUSH1 0x2D DUP4 PUSH2 0x193C JUMP JUMPDEST SWAP2 POP PUSH2 0x20B5 DUP3 PUSH2 0x204E JUMP JUMPDEST PUSH1 0x40 DUP3 ADD SWAP1 POP SWAP2 SWAP1 POP JUMP JUMPDEST PUSH1 0x0 PUSH1 0x20 DUP3 ADD SWAP1 POP DUP2 DUP2 SUB PUSH1 0x0 DUP4 ADD MSTORE PUSH2 0x20D9 DUP2 PUSH2 0x209D JUMP JUMPDEST SWAP1 POP SWAP2 SWAP1 POP JUMP JUMPDEST PUSH1 0x0 PUSH1 0x60 DUP3 ADD SWAP1 POP PUSH2 0x20F5 PUSH1 0x0 DUP4 ADD DUP7 PUSH2 0x17FF JUMP JUMPDEST PUSH2 0x2102 PUSH1 0x20 DUP4 ADD DUP6 PUSH2 0x17FF JUMP JUMPDEST PUSH2 0x210F PUSH1 0x40 DUP4 ADD DUP5 PUSH2 0x1A62 JUMP JUMPDEST SWAP5 SWAP4 POP POP POP POP JUMP JUMPDEST PUSH32 0x5472616E7366657248656C7065723A3A7472616E7366657246726F6D3A207472 PUSH1 0x0 DUP3 ADD MSTORE PUSH32 0x616E7366657246726F6D206661696C6564000000000000000000000000000000 PUSH1 0x20 DUP3 ADD MSTORE POP JUMP JUMPDEST PUSH1 0x0 PUSH2 0x2173 PUSH1 0x31 DUP4 PUSH2 0x193C JUMP JUMPDEST SWAP2 POP PUSH2 0x217E DUP3 PUSH2 0x2117 JUMP JUMPDEST PUSH1 0x40 DUP3 ADD SWAP1 POP SWAP2 SWAP1 POP JUMP JUMPDEST PUSH1 0x0 PUSH1 0x20 DUP3 ADD SWAP1 POP DUP2 DUP2 SUB PUSH1 0x0 DUP4 ADD MSTORE PUSH2 0x21A2 DUP2 PUSH2 0x2166 JUMP JUMPDEST SWAP1 POP SWAP2 SWAP1 POP JUMP INVALID LOG2 PUSH5 0x6970667358 0x22 SLT KECCAK256 SWAP8 CALLDATACOPY 0x2F 0xF6 0xA8 DIV SWAP15 0x24 EQ 0xAF SSTORE 0x2A 0xB0 CODESIZE 0xB8 GASLIMIT LOG4 0xD2 BYTE 0xC2 SWAP7 0xC3 0xC 0xF8 0x28 CALLVALUE 0xB8 0xCB 0x28 0xD6 0xDC 0x2E PUSH5 0x736F6C6343 STOP ADDMOD ADDMOD STOP CALLER LOG2 PUSH5 0x6970667358 0x22 SLT KECCAK256 0xD9 0x1F NUMBER 0xC8 0xE2 DUP5 0xE3 MLOAD SWAP13 MUL 0xBD PUSH12 0xAA4BF3306974CF7132D28BBB SWAP15 ORIGIN EXTCODECOPY 0xD3 SUB PUSH12 0x457F64736F6C634300080800 CALLER "
        },
        "methodIdentifiers": {
          "bountyAddressToBountyId(address)": "10fd86c8",
          "bountyIdToAddress(string)": "48bd1e99",
          "bountyIsOpen(string)": "fd1b2e3f",
          "claimBounty(string,address)": "3e7da1a9",
          "fundBounty(address,address,uint256)": "1b967a19",
          "getBountyAddress(string)": "fcedbecf",
          "mintBounty(string,string)": "1ee290fb",
          "owner()": "8da5cb5b",
          "refundBountyDeposits(address)": "1b780312",
          "renounceOwnership()": "715018a6",
          "transferOwnership(address)": "f2fde38b"
        }
      }
    }
  }
}