{
  "_format": "hh-sol-artifact-1",
  "contractName": "UserAddressStorage",
  "sourceName": "contracts/UserAddressStorage.sol",
  "abi": [
    {
      "anonymous": false,
      "inputs": [
        {
          "indexed": true,
          "internalType": "address",
          "name": "previousOwner",
          "type": "address"
        },
        {
          "indexed": true,
          "internalType": "address",
          "name": "newOwner",
          "type": "address"
        }
      ],
      "name": "OwnershipTransferred",
      "type": "event"
    },
    {
      "anonymous": false,
      "inputs": [
        {
          "indexed": false,
          "internalType": "string",
          "name": "userId",
          "type": "string"
        },
        {
          "indexed": false,
          "internalType": "address",
          "name": "ethAddress",
          "type": "address"
        }
      ],
      "name": "UserAddressAddedEvent",
      "type": "event"
    },
    {
      "anonymous": false,
      "inputs": [
        {
          "indexed": false,
          "internalType": "string",
          "name": "userId",
          "type": "string"
        },
        {
          "indexed": false,
          "internalType": "address",
          "name": "ethAddress",
          "type": "address"
        }
      ],
      "name": "UserAddressRemovedEvent",
      "type": "event"
    },
    {
      "inputs": [
        {
          "internalType": "string",
          "name": "_userId",
          "type": "string"
        },
        {
          "internalType": "address",
          "name": "ethAddress",
          "type": "address"
        }
      ],
      "name": "addUserAddress",
      "outputs": [],
      "stateMutability": "nonpayable",
      "type": "function"
    },
    {
      "inputs": [
        {
          "internalType": "string",
          "name": "",
          "type": "string"
        }
      ],
      "name": "addresses",
      "outputs": [
        {
          "internalType": "address",
          "name": "",
          "type": "address"
        }
      ],
      "stateMutability": "view",
      "type": "function"
    },
    {
      "inputs": [
        {
          "internalType": "string",
          "name": "_userId",
          "type": "string"
        },
        {
          "internalType": "address",
          "name": "_ethAddress",
          "type": "address"
        }
      ],
      "name": "deleteUserAddress",
      "outputs": [],
      "stateMutability": "nonpayable",
      "type": "function"
    },
    {
      "inputs": [],
      "name": "openq",
      "outputs": [
        {
          "internalType": "address",
          "name": "",
          "type": "address"
        }
      ],
      "stateMutability": "view",
      "type": "function"
    },
    {
      "inputs": [],
      "name": "owner",
      "outputs": [
        {
          "internalType": "address",
          "name": "",
          "type": "address"
        }
      ],
      "stateMutability": "view",
      "type": "function"
    },
    {
      "inputs": [],
      "name": "renounceOwnership",
      "outputs": [],
      "stateMutability": "nonpayable",
      "type": "function"
    },
    {
      "inputs": [
        {
          "internalType": "address",
          "name": "_openq",
          "type": "address"
        }
      ],
      "name": "setOpenQ",
      "outputs": [],
      "stateMutability": "nonpayable",
      "type": "function"
    },
    {
      "inputs": [
        {
          "internalType": "address",
          "name": "newOwner",
          "type": "address"
        }
      ],
      "name": "transferOwnership",
      "outputs": [],
      "stateMutability": "nonpayable",
      "type": "function"
    },
    {
      "inputs": [
        {
          "internalType": "address",
          "name": "",
          "type": "address"
        }
      ],
      "name": "userIdsByAddress",
      "outputs": [
        {
          "internalType": "string",
          "name": "",
          "type": "string"
        }
      ],
      "stateMutability": "view",
      "type": "function"
    }
  ],
  "bytecode": "0x608060405234801561001057600080fd5b5061002d61002261003260201b60201c565b61003a60201b60201c565b6100fe565b600033905090565b60008060009054906101000a900473ffffffffffffffffffffffffffffffffffffffff169050816000806101000a81548173ffffffffffffffffffffffffffffffffffffffff021916908373ffffffffffffffffffffffffffffffffffffffff1602179055508173ffffffffffffffffffffffffffffffffffffffff168173ffffffffffffffffffffffffffffffffffffffff167f8be0079c531659141344cd1fd0a4f28419497f9722a3daafe3b4186f6b6457e060405160405180910390a35050565b6111c98061010d6000396000f3fe608060405234801561001057600080fd5b50600436106100935760003560e01c8063bdfe7d4711610066578063bdfe7d47146100fa578063c155f9bd1461012a578063cb8401011461015a578063f2fde38b14610176578063fdf993a81461019257610093565b80632c1482ad14610098578063715018a6146100b45780638da5cb5b146100be57806397fb9bb9146100dc575b600080fd5b6100b260048036038101906100ad9190610b90565b6101ae565b005b6100bc61034c565b005b6100c66103d4565b6040516100d39190610d68565b60405180910390f35b6100e46103fd565b6040516100f19190610d68565b60405180910390f35b610114600480360381019061010f9190610be8565b610423565b6040516101219190610d68565b60405180910390f35b610144600480360381019061013f9190610b67565b61046c565b6040516101519190610db5565b60405180910390f35b610174600480360381019061016f9190610b90565b61050c565b005b610190600480360381019061018b9190610b67565b610739565b005b6101ac60048036038101906101a79190610b67565b610831565b005b600160009054906101000a900473ffffffffffffffffffffffffffffffffffffffff1673ffffffffffffffffffffffffffffffffffffffff163373ffffffffffffffffffffffffffffffffffffffff161461023e576040517f08c379a000000000000000000000000000000000000000000000000000000000815260040161023590610e17565b60405180910390fd5b600360008273ffffffffffffffffffffffffffffffffffffffff1673ffffffffffffffffffffffffffffffffffffffff168152602001908152602001600020600061028991906109bd565b6002838360405161029b929190610d4f565b908152602001604051809103902060006101000a81549073ffffffffffffffffffffffffffffffffffffffff02191690557f4bb24802e1c0b9275301b650ae32b04b08785c810fbb7b1941b08317f591f306838360028686604051610301929190610d4f565b908152602001604051809103902060009054906101000a900473ffffffffffffffffffffffffffffffffffffffff1660405161033f93929190610d83565b60405180910390a1505050565b6103546108f1565b73ffffffffffffffffffffffffffffffffffffffff166103726103d4565b73ffffffffffffffffffffffffffffffffffffffff16146103c8576040517f08c379a00000000000000000000000000000000000000000000000000000000081526004016103bf90610e37565b60405180910390fd5b6103d260006108f9565b565b60008060009054906101000a900473ffffffffffffffffffffffffffffffffffffffff16905090565b600160009054906101000a900473ffffffffffffffffffffffffffffffffffffffff1681565b6002818051602081018201805184825260208301602085012081835280955050505050506000915054906101000a900473ffffffffffffffffffffffffffffffffffffffff1681565b6003602052806000526040600020600091509050805461048b90610f48565b80601f01602080910402602001604051908101604052809291908181526020018280546104b790610f48565b80156105045780601f106104d957610100808354040283529160200191610504565b820191906000526020600020905b8154815290600101906020018083116104e757829003601f168201915b505050505081565b600160009054906101000a900473ffffffffffffffffffffffffffffffffffffffff1673ffffffffffffffffffffffffffffffffffffffff163373ffffffffffffffffffffffffffffffffffffffff161461059c576040517f08c379a000000000000000000000000000000000000000000000000000000000815260040161059390610e17565b60405180910390fd5b600073ffffffffffffffffffffffffffffffffffffffff16600284846040516105c6929190610d4f565b908152602001604051809103902060009054906101000a900473ffffffffffffffffffffffffffffffffffffffff1673ffffffffffffffffffffffffffffffffffffffff161461064b576040517f08c379a000000000000000000000000000000000000000000000000000000000815260040161064290610dd7565b60405180910390fd5b806002848460405161065e929190610d4f565b908152602001604051809103902060006101000a81548173ffffffffffffffffffffffffffffffffffffffff021916908373ffffffffffffffffffffffffffffffffffffffff1602179055508282600360008473ffffffffffffffffffffffffffffffffffffffff1673ffffffffffffffffffffffffffffffffffffffff16815260200190815260200160002091906106f89291906109fd565b507f40210217cb4134aab0dc6d3fc43be16c97cfb22adace1a5428958d6b978a973e83838360405161072c93929190610d83565b60405180910390a1505050565b6107416108f1565b73ffffffffffffffffffffffffffffffffffffffff1661075f6103d4565b73ffffffffffffffffffffffffffffffffffffffff16146107b5576040517f08c379a00000000000000000000000000000000000000000000000000000000081526004016107ac90610e37565b60405180910390fd5b600073ffffffffffffffffffffffffffffffffffffffff168173ffffffffffffffffffffffffffffffffffffffff161415610825576040517f08c379a000000000000000000000000000000000000000000000000000000000815260040161081c90610df7565b60405180910390fd5b61082e816108f9565b50565b6108396108f1565b73ffffffffffffffffffffffffffffffffffffffff166108576103d4565b73ffffffffffffffffffffffffffffffffffffffff16146108ad576040517f08c379a00000000000000000000000000000000000000000000000000000000081526004016108a490610e37565b60405180910390fd5b80600160006101000a81548173ffffffffffffffffffffffffffffffffffffffff021916908373ffffffffffffffffffffffffffffffffffffffff16021790555050565b600033905090565b60008060009054906101000a900473ffffffffffffffffffffffffffffffffffffffff169050816000806101000a81548173ffffffffffffffffffffffffffffffffffffffff021916908373ffffffffffffffffffffffffffffffffffffffff1602179055508173ffffffffffffffffffffffffffffffffffffffff168173ffffffffffffffffffffffffffffffffffffffff167f8be0079c531659141344cd1fd0a4f28419497f9722a3daafe3b4186f6b6457e060405160405180910390a35050565b5080546109c990610f48565b6000825580601f106109db57506109fa565b601f0160209004906000526020600020908101906109f99190610a83565b5b50565b828054610a0990610f48565b90600052602060002090601f016020900481019282610a2b5760008555610a72565b82601f10610a4457803560ff1916838001178555610a72565b82800160010185558215610a72579182015b82811115610a71578235825591602001919060010190610a56565b5b509050610a7f9190610a83565b5090565b5b80821115610a9c576000816000905550600101610a84565b5090565b6000610ab3610aae84610e7c565b610e57565b905082815260208101848484011115610acb57600080fd5b610ad6848285610f06565b509392505050565b600081359050610aed8161117c565b92915050565b60008083601f840112610b0557600080fd5b8235905067ffffffffffffffff811115610b1e57600080fd5b602083019150836001820283011115610b3657600080fd5b9250929050565b600082601f830112610b4e57600080fd5b8135610b5e848260208601610aa0565b91505092915050565b600060208284031215610b7957600080fd5b6000610b8784828501610ade565b91505092915050565b600080600060408486031215610ba557600080fd5b600084013567ffffffffffffffff811115610bbf57600080fd5b610bcb86828701610af3565b93509350506020610bde86828701610ade565b9150509250925092565b600060208284031215610bfa57600080fd5b600082013567ffffffffffffffff811115610c1457600080fd5b610c2084828501610b3d565b91505092915050565b610c3281610ed4565b82525050565b6000610c448385610eb8565b9350610c51838584610f06565b610c5a83611009565b840190509392505050565b6000610c718385610ec9565b9350610c7e838584610f06565b82840190509392505050565b6000610c9582610ead565b610c9f8185610eb8565b9350610caf818560208601610f15565b610cb881611009565b840191505092915050565b6000610cd0605283610eb8565b9150610cdb8261101a565b606082019050919050565b6000610cf3602683610eb8565b9150610cfe8261108f565b604082019050919050565b6000610d16604383610eb8565b9150610d21826110de565b606082019050919050565b6000610d39602083610eb8565b9150610d4482611153565b602082019050919050565b6000610d5c828486610c65565b91508190509392505050565b6000602082019050610d7d6000830184610c29565b92915050565b60006040820190508181036000830152610d9e818587610c38565b9050610dad6020830184610c29565b949350505050565b60006020820190508181036000830152610dcf8184610c8a565b905092915050565b60006020820190508181036000830152610df081610cc3565b9050919050565b60006020820190508181036000830152610e1081610ce6565b9050919050565b60006020820190508181036000830152610e3081610d09565b9050919050565b60006020820190508181036000830152610e5081610d2c565b9050919050565b6000610e61610e72565b9050610e6d8282610f7a565b919050565b6000604051905090565b600067ffffffffffffffff821115610e9757610e96610fda565b5b610ea082611009565b9050602081019050919050565b600081519050919050565b600082825260208201905092915050565b600081905092915050565b6000610edf82610ee6565b9050919050565b600073ffffffffffffffffffffffffffffffffffffffff82169050919050565b82818337600083830152505050565b60005b83811015610f33578082015181840152602081019050610f18565b83811115610f42576000848401525b50505050565b60006002820490506001821680610f6057607f821691505b60208210811415610f7457610f73610fab565b5b50919050565b610f8382611009565b810181811067ffffffffffffffff82111715610fa257610fa1610fda565b5b80604052505050565b7f4e487b7100000000000000000000000000000000000000000000000000000000600052602260045260246000fd5b7f4e487b7100000000000000000000000000000000000000000000000000000000600052604160045260246000fd5b6000601f19601f8301169050919050565b7f557365724164647265737353746f726167653a20416e2061646472657373207760008201527f6974682074686973206e616d6520616c72656164792065787369747320666f7260208201527f20746869732047697448756220757365722e0000000000000000000000000000604082015250565b7f4f776e61626c653a206e6577206f776e657220697320746865207a65726f206160008201527f6464726573730000000000000000000000000000000000000000000000000000602082015250565b7f4f70656e5153746f726167653a204f6e6c79207468652063757272656e74204f60008201527f70656e512076657273696f6e2063616e2075736520746869732066756e63746960208201527f6f6e2e0000000000000000000000000000000000000000000000000000000000604082015250565b7f4f776e61626c653a2063616c6c6572206973206e6f7420746865206f776e6572600082015250565b61118581610ed4565b811461119057600080fd5b5056fea2646970667358221220028f47659e827c4be2651f2b6d73554bf57cc81e0f9db0fbaff15533e0e5864864736f6c63430008040033",
  "linkReferences": {},
  "deployedLinkReferences": {}
}