{
  "_format": "hh-sol-artifact-1",
  "contractName": "UserAddressStorage",
  "sourceName": "contracts/UserAddressStorage.sol",
  "abi": [
    {
      "anonymous": false,
      "inputs": [
        {
          "indexed": true,
          "internalType": "address",
          "name": "previousOwner",
          "type": "address"
        },
        {
          "indexed": true,
          "internalType": "address",
          "name": "newOwner",
          "type": "address"
        }
      ],
      "name": "OwnershipTransferred",
      "type": "event"
    },
    {
      "anonymous": false,
      "inputs": [
        {
          "indexed": false,
          "internalType": "string",
          "name": "userId",
          "type": "string"
        },
        {
          "indexed": false,
          "internalType": "address",
          "name": "ethAddress",
          "type": "address"
        }
      ],
      "name": "UserAddressAddedEvent",
      "type": "event"
    },
    {
      "inputs": [
        {
          "internalType": "string",
          "name": "",
          "type": "string"
        }
      ],
      "name": "addresses",
      "outputs": [
        {
          "internalType": "address",
          "name": "",
          "type": "address"
        }
      ],
      "stateMutability": "view",
      "type": "function"
    },
    {
      "inputs": [],
      "name": "openq",
      "outputs": [
        {
          "internalType": "address",
          "name": "",
          "type": "address"
        }
      ],
      "stateMutability": "view",
      "type": "function"
    },
    {
      "inputs": [],
      "name": "owner",
      "outputs": [
        {
          "internalType": "address",
          "name": "",
          "type": "address"
        }
      ],
      "stateMutability": "view",
      "type": "function"
    },
    {
      "inputs": [
        {
          "internalType": "string",
          "name": "_userId",
          "type": "string"
        },
        {
          "internalType": "address",
          "name": "ethAddress",
          "type": "address"
        }
      ],
      "name": "registerUserAddress",
      "outputs": [],
      "stateMutability": "nonpayable",
      "type": "function"
    },
    {
      "inputs": [],
      "name": "renounceOwnership",
      "outputs": [],
      "stateMutability": "nonpayable",
      "type": "function"
    },
    {
      "inputs": [
        {
          "internalType": "address",
          "name": "_openq",
          "type": "address"
        }
      ],
      "name": "setOpenQ",
      "outputs": [],
      "stateMutability": "nonpayable",
      "type": "function"
    },
    {
      "inputs": [
        {
          "internalType": "address",
          "name": "newOwner",
          "type": "address"
        }
      ],
      "name": "transferOwnership",
      "outputs": [],
      "stateMutability": "nonpayable",
      "type": "function"
    },
    {
      "inputs": [
        {
          "internalType": "address",
          "name": "",
          "type": "address"
        }
      ],
      "name": "userIdsByAddress",
      "outputs": [
        {
          "internalType": "string",
          "name": "",
          "type": "string"
        }
      ],
      "stateMutability": "view",
      "type": "function"
    }
  ],
  "bytecode": "0x608060405234801561001057600080fd5b5061002d61002261003260201b60201c565b61003a60201b60201c565b6100fe565b600033905090565b60008060009054906101000a900473ffffffffffffffffffffffffffffffffffffffff169050816000806101000a81548173ffffffffffffffffffffffffffffffffffffffff021916908373ffffffffffffffffffffffffffffffffffffffff1602179055508173ffffffffffffffffffffffffffffffffffffffff168173ffffffffffffffffffffffffffffffffffffffff167f8be0079c531659141344cd1fd0a4f28419497f9722a3daafe3b4186f6b6457e060405160405180910390a35050565b610e5d8061010d6000396000f3fe608060405234801561001057600080fd5b50600436106100885760003560e01c8063c155f9bd1161005b578063c155f9bd14610103578063dee2d56714610133578063f2fde38b1461014f578063fdf993a81461016b57610088565b8063715018a61461008d5780638da5cb5b1461009757806397fb9bb9146100b5578063bdfe7d47146100d3575b600080fd5b610095610187565b005b61009f61020f565b6040516100ac9190610a91565b60405180910390f35b6100bd610238565b6040516100ca9190610a91565b60405180910390f35b6100ed60048036038101906100e89190610934565b61025e565b6040516100fa9190610a91565b60405180910390f35b61011d600480360381019061011891906108b3565b6102a7565b60405161012a9190610ade565b60405180910390f35b61014d600480360381019061014891906108dc565b610347565b005b610169600480360381019061016491906108b3565b6104c5565b005b610185600480360381019061018091906108b3565b6105bd565b005b61018f61067d565b73ffffffffffffffffffffffffffffffffffffffff166101ad61020f565b73ffffffffffffffffffffffffffffffffffffffff1614610203576040517f08c379a00000000000000000000000000000000000000000000000000000000081526004016101fa90610b40565b60405180910390fd5b61020d6000610685565b565b60008060009054906101000a900473ffffffffffffffffffffffffffffffffffffffff16905090565b600160009054906101000a900473ffffffffffffffffffffffffffffffffffffffff1681565b6002818051602081018201805184825260208301602085012081835280955050505050506000915054906101000a900473ffffffffffffffffffffffffffffffffffffffff1681565b600360205280600052604060002060009150905080546102c690610c51565b80601f01602080910402602001604051908101604052809291908181526020018280546102f290610c51565b801561033f5780601f106103145761010080835404028352916020019161033f565b820191906000526020600020905b81548152906001019060200180831161032257829003601f168201915b505050505081565b600160009054906101000a900473ffffffffffffffffffffffffffffffffffffffff1673ffffffffffffffffffffffffffffffffffffffff163373ffffffffffffffffffffffffffffffffffffffff16146103d7576040517f08c379a00000000000000000000000000000000000000000000000000000000081526004016103ce90610b20565b60405180910390fd5b80600284846040516103ea929190610a78565b908152602001604051809103902060006101000a81548173ffffffffffffffffffffffffffffffffffffffff021916908373ffffffffffffffffffffffffffffffffffffffff1602179055508282600360008473ffffffffffffffffffffffffffffffffffffffff1673ffffffffffffffffffffffffffffffffffffffff1681526020019081526020016000209190610484929190610749565b507f40210217cb4134aab0dc6d3fc43be16c97cfb22adace1a5428958d6b978a973e8383836040516104b893929190610aac565b60405180910390a1505050565b6104cd61067d565b73ffffffffffffffffffffffffffffffffffffffff166104eb61020f565b73ffffffffffffffffffffffffffffffffffffffff1614610541576040517f08c379a000000000000000000000000000000000000000000000000000000000815260040161053890610b40565b60405180910390fd5b600073ffffffffffffffffffffffffffffffffffffffff168173ffffffffffffffffffffffffffffffffffffffff1614156105b1576040517f08c379a00000000000000000000000000000000000000000000000000000000081526004016105a890610b00565b60405180910390fd5b6105ba81610685565b50565b6105c561067d565b73ffffffffffffffffffffffffffffffffffffffff166105e361020f565b73ffffffffffffffffffffffffffffffffffffffff1614610639576040517f08c379a000000000000000000000000000000000000000000000000000000000815260040161063090610b40565b60405180910390fd5b80600160006101000a81548173ffffffffffffffffffffffffffffffffffffffff021916908373ffffffffffffffffffffffffffffffffffffffff16021790555050565b600033905090565b60008060009054906101000a900473ffffffffffffffffffffffffffffffffffffffff169050816000806101000a81548173ffffffffffffffffffffffffffffffffffffffff021916908373ffffffffffffffffffffffffffffffffffffffff1602179055508173ffffffffffffffffffffffffffffffffffffffff168173ffffffffffffffffffffffffffffffffffffffff167f8be0079c531659141344cd1fd0a4f28419497f9722a3daafe3b4186f6b6457e060405160405180910390a35050565b82805461075590610c51565b90600052602060002090601f01602090048101928261077757600085556107be565b82601f1061079057803560ff19168380011785556107be565b828001600101855582156107be579182015b828111156107bd5782358255916020019190600101906107a2565b5b5090506107cb91906107cf565b5090565b5b808211156107e85760008160009055506001016107d0565b5090565b60006107ff6107fa84610b85565b610b60565b90508281526020810184848401111561081757600080fd5b610822848285610c0f565b509392505050565b60008135905061083981610e10565b92915050565b60008083601f84011261085157600080fd5b8235905067ffffffffffffffff81111561086a57600080fd5b60208301915083600182028301111561088257600080fd5b9250929050565b600082601f83011261089a57600080fd5b81356108aa8482602086016107ec565b91505092915050565b6000602082840312156108c557600080fd5b60006108d38482850161082a565b91505092915050565b6000806000604084860312156108f157600080fd5b600084013567ffffffffffffffff81111561090b57600080fd5b6109178682870161083f565b9350935050602061092a8682870161082a565b9150509250925092565b60006020828403121561094657600080fd5b600082013567ffffffffffffffff81111561096057600080fd5b61096c84828501610889565b91505092915050565b61097e81610bdd565b82525050565b60006109908385610bc1565b935061099d838584610c0f565b6109a683610d12565b840190509392505050565b60006109bd8385610bd2565b93506109ca838584610c0f565b82840190509392505050565b60006109e182610bb6565b6109eb8185610bc1565b93506109fb818560208601610c1e565b610a0481610d12565b840191505092915050565b6000610a1c602683610bc1565b9150610a2782610d23565b604082019050919050565b6000610a3f604383610bc1565b9150610a4a82610d72565b606082019050919050565b6000610a62602083610bc1565b9150610a6d82610de7565b602082019050919050565b6000610a858284866109b1565b91508190509392505050565b6000602082019050610aa66000830184610975565b92915050565b60006040820190508181036000830152610ac7818587610984565b9050610ad66020830184610975565b949350505050565b60006020820190508181036000830152610af881846109d6565b905092915050565b60006020820190508181036000830152610b1981610a0f565b9050919050565b60006020820190508181036000830152610b3981610a32565b9050919050565b60006020820190508181036000830152610b5981610a55565b9050919050565b6000610b6a610b7b565b9050610b768282610c83565b919050565b6000604051905090565b600067ffffffffffffffff821115610ba057610b9f610ce3565b5b610ba982610d12565b9050602081019050919050565b600081519050919050565b600082825260208201905092915050565b600081905092915050565b6000610be882610bef565b9050919050565b600073ffffffffffffffffffffffffffffffffffffffff82169050919050565b82818337600083830152505050565b60005b83811015610c3c578082015181840152602081019050610c21565b83811115610c4b576000848401525b50505050565b60006002820490506001821680610c6957607f821691505b60208210811415610c7d57610c7c610cb4565b5b50919050565b610c8c82610d12565b810181811067ffffffffffffffff82111715610cab57610caa610ce3565b5b80604052505050565b7f4e487b7100000000000000000000000000000000000000000000000000000000600052602260045260246000fd5b7f4e487b7100000000000000000000000000000000000000000000000000000000600052604160045260246000fd5b6000601f19601f8301169050919050565b7f4f776e61626c653a206e6577206f776e657220697320746865207a65726f206160008201527f6464726573730000000000000000000000000000000000000000000000000000602082015250565b7f4f70656e5153746f726167653a204f6e6c79207468652063757272656e74204f60008201527f70656e512076657273696f6e2063616e2075736520746869732066756e63746960208201527f6f6e2e0000000000000000000000000000000000000000000000000000000000604082015250565b7f4f776e61626c653a2063616c6c6572206973206e6f7420746865206f776e6572600082015250565b610e1981610bdd565b8114610e2457600080fd5b5056fea2646970667358221220d87228ab501b5257c11bde3d6be4899c28766515ccc519e020b2a479caeb3afb64736f6c63430008040033",
  "linkReferences": {},
  "deployedLinkReferences": {}
}