{
  "contractName": "MergePay",
  "abi": [
    {
      "inputs": [
        {
          "internalType": "address",
          "name": "mergeTokenAddress",
          "type": "address"
        }
      ],
      "stateMutability": "nonpayable",
      "type": "constructor"
    },
    {
      "anonymous": false,
      "inputs": [
        {
          "indexed": false,
          "internalType": "address",
          "name": "account",
          "type": "address"
        },
        {
          "indexed": false,
          "internalType": "uint256",
          "name": "amount",
          "type": "uint256"
        },
        {
          "indexed": false,
          "internalType": "uint8",
          "name": "issueOrPr",
          "type": "uint8"
        },
        {
          "indexed": false,
          "internalType": "string",
          "name": "id",
          "type": "string"
        }
      ],
      "name": "DepositEvent",
      "type": "event"
    },
    {
      "anonymous": false,
      "inputs": [
        {
          "indexed": true,
          "internalType": "address",
          "name": "previousOwner",
          "type": "address"
        },
        {
          "indexed": true,
          "internalType": "address",
          "name": "newOwner",
          "type": "address"
        }
      ],
      "name": "OwnershipTransferred",
      "type": "event"
    },
    {
      "anonymous": false,
      "inputs": [
        {
          "indexed": false,
          "internalType": "address",
          "name": "account",
          "type": "address"
        },
        {
          "indexed": false,
          "internalType": "string",
          "name": "githubUser",
          "type": "string"
        },
        {
          "indexed": false,
          "internalType": "uint8",
          "name": "confirmations",
          "type": "uint8"
        }
      ],
      "name": "RegistrationConfirmedEvent",
      "type": "event"
    },
    {
      "anonymous": false,
      "inputs": [
        {
          "indexed": false,
          "internalType": "address",
          "name": "account",
          "type": "address"
        },
        {
          "indexed": false,
          "internalType": "string",
          "name": "githubUser",
          "type": "string"
        }
      ],
      "name": "RegistrationRequestEvent",
      "type": "event"
    },
    {
      "anonymous": false,
      "inputs": [
        {
          "indexed": false,
          "internalType": "uint256",
          "name": "id",
          "type": "uint256"
        }
      ],
      "name": "WithdrawalConfirmedEvent",
      "type": "event"
    },
    {
      "anonymous": false,
      "inputs": [
        {
          "indexed": false,
          "internalType": "address",
          "name": "account",
          "type": "address"
        },
        {
          "indexed": false,
          "internalType": "uint256",
          "name": "depositId",
          "type": "uint256"
        }
      ],
      "name": "WithdrawalRequestEvent",
      "type": "event"
    },
    {
      "inputs": [
        {
          "internalType": "uint256",
          "name": "",
          "type": "uint256"
        }
      ],
      "name": "_deposits",
      "outputs": [
        {
          "internalType": "address",
          "name": "account",
          "type": "address"
        },
        {
          "internalType": "uint256",
          "name": "amount",
          "type": "uint256"
        },
        {
          "internalType": "uint8",
          "name": "issueOrPr",
          "type": "uint8"
        },
        {
          "internalType": "string",
          "name": "id",
          "type": "string"
        },
        {
          "internalType": "uint256",
          "name": "addedTimestamp",
          "type": "uint256"
        },
        {
          "internalType": "uint256",
          "name": "lockedUntilTimestamp",
          "type": "uint256"
        }
      ],
      "stateMutability": "view",
      "type": "function",
      "constant": true
    },
    {
      "inputs": [
        {
          "internalType": "string",
          "name": "",
          "type": "string"
        }
      ],
      "name": "_users",
      "outputs": [
        {
          "internalType": "address",
          "name": "account",
          "type": "address"
        },
        {
          "internalType": "uint8",
          "name": "confirmations",
          "type": "uint8"
        }
      ],
      "stateMutability": "view",
      "type": "function",
      "constant": true
    },
    {
      "inputs": [
        {
          "internalType": "address",
          "name": "",
          "type": "address"
        }
      ],
      "name": "_usersByAddress",
      "outputs": [
        {
          "internalType": "string",
          "name": "",
          "type": "string"
        }
      ],
      "stateMutability": "view",
      "type": "function",
      "constant": true
    },
    {
      "inputs": [
        {
          "internalType": "uint256",
          "name": "",
          "type": "uint256"
        }
      ],
      "name": "_withdrawals",
      "outputs": [
        {
          "internalType": "address",
          "name": "account",
          "type": "address"
        },
        {
          "internalType": "uint256",
          "name": "depositId",
          "type": "uint256"
        },
        {
          "internalType": "uint8",
          "name": "confirmations",
          "type": "uint8"
        }
      ],
      "stateMutability": "view",
      "type": "function",
      "constant": true
    },
    {
      "inputs": [],
      "name": "owner",
      "outputs": [
        {
          "internalType": "address",
          "name": "",
          "type": "address"
        }
      ],
      "stateMutability": "view",
      "type": "function",
      "constant": true
    },
    {
      "inputs": [],
      "name": "renounceOwnership",
      "outputs": [],
      "stateMutability": "nonpayable",
      "type": "function"
    },
    {
      "inputs": [
        {
          "internalType": "address",
          "name": "newOwner",
          "type": "address"
        }
      ],
      "name": "transferOwnership",
      "outputs": [],
      "stateMutability": "nonpayable",
      "type": "function"
    },
    {
      "inputs": [
        {
          "internalType": "uint32",
          "name": "maxLockdays",
          "type": "uint32"
        }
      ],
      "name": "setMaxLockDays",
      "outputs": [],
      "stateMutability": "nonpayable",
      "type": "function"
    },
    {
      "inputs": [
        {
          "internalType": "uint8",
          "name": "minRegistrationConfirmations",
          "type": "uint8"
        }
      ],
      "name": "setMinRegistrationConfirmation",
      "outputs": [],
      "stateMutability": "nonpayable",
      "type": "function"
    },
    {
      "inputs": [
        {
          "internalType": "uint8",
          "name": "minWithdrawalConfirmations",
          "type": "uint8"
        }
      ],
      "name": "setMinWithdrawalConfirmation",
      "outputs": [],
      "stateMutability": "nonpayable",
      "type": "function"
    },
    {
      "inputs": [
        {
          "internalType": "address",
          "name": "oracle",
          "type": "address"
        }
      ],
      "name": "enableOracle",
      "outputs": [],
      "stateMutability": "nonpayable",
      "type": "function"
    },
    {
      "inputs": [
        {
          "internalType": "address",
          "name": "oracle",
          "type": "address"
        }
      ],
      "name": "disableOracle",
      "outputs": [],
      "stateMutability": "nonpayable",
      "type": "function"
    },
    {
      "inputs": [
        {
          "internalType": "uint8",
          "name": "issueOrPr",
          "type": "uint8"
        },
        {
          "internalType": "string",
          "name": "id",
          "type": "string"
        },
        {
          "internalType": "uint64",
          "name": "lockDays",
          "type": "uint64"
        }
      ],
      "name": "deposit",
      "outputs": [],
      "stateMutability": "payable",
      "type": "function",
      "payable": true
    },
    {
      "inputs": [
        {
          "internalType": "uint256",
          "name": "fromId",
          "type": "uint256"
        },
        {
          "internalType": "uint8",
          "name": "perpage",
          "type": "uint8"
        }
      ],
      "name": "getDeposits",
      "outputs": [
        {
          "internalType": "uint256[255]",
          "name": "ids",
          "type": "uint256[255]"
        }
      ],
      "stateMutability": "view",
      "type": "function",
      "constant": true
    },
    {
      "inputs": [
        {
          "internalType": "string",
          "name": "githubUser",
          "type": "string"
        }
      ],
      "name": "register",
      "outputs": [],
      "stateMutability": "nonpayable",
      "type": "function"
    },
    {
      "inputs": [
        {
          "internalType": "string",
          "name": "githubUser",
          "type": "string"
        },
        {
          "internalType": "address",
          "name": "account",
          "type": "address"
        }
      ],
      "name": "registerConfirm",
      "outputs": [],
      "stateMutability": "nonpayable",
      "type": "function"
    },
    {
      "inputs": [
        {
          "internalType": "uint256",
          "name": "depositId",
          "type": "uint256"
        }
      ],
      "name": "refund",
      "outputs": [],
      "stateMutability": "nonpayable",
      "type": "function"
    },
    {
      "inputs": [
        {
          "internalType": "uint256",
          "name": "depositId",
          "type": "uint256"
        }
      ],
      "name": "forceRefund",
      "outputs": [],
      "stateMutability": "nonpayable",
      "type": "function"
    },
    {
      "inputs": [
        {
          "internalType": "uint256[]",
          "name": "depositIds",
          "type": "uint256[]"
        }
      ],
      "name": "refundAll",
      "outputs": [],
      "stateMutability": "nonpayable",
      "type": "function"
    },
    {
      "inputs": [
        {
          "internalType": "string",
          "name": "githubUser",
          "type": "string"
        }
      ],
      "name": "addUserToBlacklist",
      "outputs": [],
      "stateMutability": "nonpayable",
      "type": "function"
    },
    {
      "inputs": [
        {
          "internalType": "string",
          "name": "githubUser",
          "type": "string"
        }
      ],
      "name": "removeUserFromBlacklist",
      "outputs": [],
      "stateMutability": "nonpayable",
      "type": "function"
    },
    {
      "inputs": [
        {
          "internalType": "uint256",
          "name": "depositId",
          "type": "uint256"
        }
      ],
      "name": "withdraw",
      "outputs": [],
      "stateMutability": "nonpayable",
      "type": "function"
    },
    {
      "inputs": [
        {
          "internalType": "uint256",
          "name": "withdrawalId",
          "type": "uint256"
        }
      ],
      "name": "withdrawConfirm",
      "outputs": [],
      "stateMutability": "nonpayable",
      "type": "function"
    }
  ],
  "bytecode": "0x60806040526001600355600160055560b4600960146101000a81548163ffffffff021916908363ffffffff1602179055506002600960186101000a81548160ff021916908360ff1602179055506002600960196101000a81548160ff021916908360ff1602179055503480156200007557600080fd5b5060405162003d3538038062003d3583398181016040528101906200009b919062000241565b6000620000ad620001f960201b60201c565b9050806000806101000a81548173ffffffffffffffffffffffffffffffffffffffff021916908373ffffffffffffffffffffffffffffffffffffffff1602179055508073ffffffffffffffffffffffffffffffffffffffff16600073ffffffffffffffffffffffffffffffffffffffff167f8be0079c531659141344cd1fd0a4f28419497f9722a3daafe3b4186f6b6457e060405160405180910390a35080600960006101000a81548173ffffffffffffffffffffffffffffffffffffffff021916908373ffffffffffffffffffffffffffffffffffffffff1602179055506001806000620001a16200020160201b60201c565b73ffffffffffffffffffffffffffffffffffffffff1673ffffffffffffffffffffffffffffffffffffffff16815260200190815260200160002060006101000a81548160ff02191690831515021790555050620002bb565b600033905090565b60008060009054906101000a900473ffffffffffffffffffffffffffffffffffffffff16905090565b6000815190506200023b81620002a1565b92915050565b6000602082840312156200025457600080fd5b600062000264848285016200022a565b91505092915050565b60006200027a8262000281565b9050919050565b600073ffffffffffffffffffffffffffffffffffffffff82169050919050565b620002ac816200026d565b8114620002b857600080fd5b50565b613a6a80620002cb6000396000f3fe6080604052600436106101405760003560e01c8063715018a6116100b6578063ea36a6721161006f578063ea36a6721461045a578063ed8d3b7114610476578063f2c298be1461049f578063f2fde38b146104c8578063f4c705ab146104f1578063f6e4f1191461051a57610140565b8063715018a61461034c5780637400e617146103635780638da5cb5b1461038c578063c29353c1146103b7578063ce85fc46146103f4578063df2386211461043157610140565b80632e1a7d4d116101085780632e1a7d4d146102275780633b9d08d9146102505780633c5baedf14610292578063463b63de146102bb57806353d89b01146102fa5780636ee0f7f91461032357610140565b806305f8d94c1461014557806309d406a11461016e57806321ec48691461019757806326792251146101d5578063278ecde1146101fe575b600080fd5b34801561015157600080fd5b5061016c60048036038101906101679190612b8b565b610543565b005b34801561017a57600080fd5b5061019560048036038101906101909190612af2565b610741565b005b3480156101a357600080fd5b506101be60048036038101906101b99190612b4a565b6109bf565b6040516101cc929190613587565b60405180910390f35b3480156101e157600080fd5b506101fc60048036038101906101f79190612b8b565b610a26565b005b34801561020a57600080fd5b5061022560048036038101906102209190612b8b565b610dbf565b005b34801561023357600080fd5b5061024e60048036038101906102499190612b8b565b610f49565b005b34801561025c57600080fd5b5061027760048036038101906102729190612b8b565b61127d565b6040516102899695949392919061351f565b60405180910390f35b34801561029e57600080fd5b506102b960048036038101906102b49190612aad565b61137e565b005b3480156102c757600080fd5b506102e260048036038101906102dd9190612b8b565b611447565b6040516102f1939291906134e8565b60405180910390f35b34801561030657600080fd5b50610321600480360381019061031c9190612aad565b61149e565b005b34801561032f57600080fd5b5061034a60048036038101906103459190612bf0565b611567565b005b34801561035857600080fd5b50610361611621565b005b34801561036f57600080fd5b5061038a60048036038101906103859190612a3f565b611776565b005b34801561039857600080fd5b506103a1611969565b6040516103ae91906133bb565b60405180910390f35b3480156103c357600080fd5b506103de60048036038101906103d99190612bb4565b611992565b6040516103eb91906135b0565b60405180910390f35b34801561040057600080fd5b5061041b60048036038101906104169190612a3f565b611a13565b60405161042891906135cc565b60405180910390f35b34801561043d57600080fd5b5061045860048036038101906104539190612c19565b611ac3565b005b610474600480360381019061046f9190612c42565b611b77565b005b34801561048257600080fd5b5061049d60048036038101906104989190612c19565b611dcc565b005b3480156104ab57600080fd5b506104c660048036038101906104c19190612aad565b611e80565b005b3480156104d457600080fd5b506104ef60048036038101906104ea9190612a3f565b6120ce565b005b3480156104fd57600080fd5b5061051860048036038101906105139190612a3f565b612292565b005b34801561052657600080fd5b50610541600480360381019061053c9190612a68565b61240f565b005b61054b61265b565b73ffffffffffffffffffffffffffffffffffffffff166000809054906101000a900473ffffffffffffffffffffffffffffffffffffffff1673ffffffffffffffffffffffffffffffffffffffff16146105d9576040517f08c379a00000000000000000000000000000000000000000000000000000000081526004016105d0906136ae565b60405180910390fd5b6000600260008381526020019081526020016000206001015411610632576040517f08c379a00000000000000000000000000000000000000000000000000000000081526004016106299061370e565b60405180910390fd5b6002600082815260200190815260200160002060000160009054906101000a900473ffffffffffffffffffffffffffffffffffffffff1673ffffffffffffffffffffffffffffffffffffffff166108fc60026000848152602001908152602001600020600101549081150290604051600060405180830381858888f193505050501580156106c4573d6000803e3d6000fd5b5060026000828152602001908152602001600020600080820160006101000a81549073ffffffffffffffffffffffffffffffffffffffff021916905560018201600090556002820160006101000a81549060ff021916905560038201600061072c919061275e565b60048201600090556005820160009055505050565b600160003373ffffffffffffffffffffffffffffffffffffffff1673ffffffffffffffffffffffffffffffffffffffff16815260200190815260200160002060009054906101000a900460ff166107cd576040517f08c379a00000000000000000000000000000000000000000000000000000000081526004016107c4906137ae565b60405180910390fd5b600073ffffffffffffffffffffffffffffffffffffffff16600684846040516107f792919061338b565b908152602001604051809103902060000160009054906101000a900473ffffffffffffffffffffffffffffffffffffffff1673ffffffffffffffffffffffffffffffffffffffff16141580156108bb57508073ffffffffffffffffffffffffffffffffffffffff166006848460405161087192919061338b565b908152602001604051809103902060000160009054906101000a900473ffffffffffffffffffffffffffffffffffffffff1673ffffffffffffffffffffffffffffffffffffffff16145b6108fa576040517f08c379a00000000000000000000000000000000000000000000000000000000081526004016108f19061362e565b60405180910390fd5b6006838360405161090c92919061338b565b9081526020016040518091039020600001601481819054906101000a900460ff168092919060010191906101000a81548160ff021916908360ff160217905550507f14981f93b4dfbdeeacc0c0656b97fdb708833a3aadb4858f1e18a110d4c8fcd18184846006878760405161098392919061338b565b908152602001604051809103902060000160149054906101000a900460ff166040516109b2949392919061347f565b60405180910390a1505050565b6006818051602081018201805184825260208301602085012081835280955050505050506000915090508060000160009054906101000a900473ffffffffffffffffffffffffffffffffffffffff16908060000160149054906101000a900460ff16905082565b600160003373ffffffffffffffffffffffffffffffffffffffff1673ffffffffffffffffffffffffffffffffffffffff16815260200190815260200160002060009054906101000a900460ff16610ab2576040517f08c379a0000000000000000000000000000000000000000000000000000000008152600401610aa9906137ae565b60405180910390fd5b600073ffffffffffffffffffffffffffffffffffffffff166004600083815260200190815260200160002060000160009054906101000a900473ffffffffffffffffffffffffffffffffffffffff1673ffffffffffffffffffffffffffffffffffffffff161415610b58576040517f08c379a0000000000000000000000000000000000000000000000000000000008152600401610b4f9061374e565b60405180910390fd5b600060026000600460008581526020019081526020016000206001015481526020019081526020016000206001015411610bc7576040517f08c379a0000000000000000000000000000000000000000000000000000000008152600401610bbe906136ee565b60405180910390fd5b60046000828152602001908152602001600020600201600081819054906101000a900460ff168092919060010191906101000a81548160ff021916908360ff16021790555050600960199054906101000a900460ff1660ff166004600083815260200190815260200160002060020160009054906101000a900460ff1660ff1610610dbc576004600082815260200190815260200160002060000160009054906101000a900473ffffffffffffffffffffffffffffffffffffffff1673ffffffffffffffffffffffffffffffffffffffff166108fc6002600060046000868152602001908152602001600020600101548152602001908152602001600020600101549081150290604051600060405180830381858888f19350505050158015610cf4573d6000803e3d6000fd5b506002600060046000848152602001908152602001600020600101548152602001908152602001600020600080820160006101000a81549073ffffffffffffffffffffffffffffffffffffffff021916905560018201600090556002820160006101000a81549060ff0219169055600382016000610d72919061275e565b6004820160009055600582016000905550507fe307e35f0c32a8d5a81cd7ab1fa85103d1d541d6ff073fde74ff666e5390cfb181604051610db391906137ee565b60405180910390a15b50565b6000600260008381526020019081526020016000206001015411610e18576040517f08c379a0000000000000000000000000000000000000000000000000000000008152600401610e0f9061370e565b60405180910390fd5b42600260008381526020019081526020016000206005015410610e70576040517f08c379a0000000000000000000000000000000000000000000000000000000008152600401610e679061378e565b60405180910390fd5b3373ffffffffffffffffffffffffffffffffffffffff166108fc60026000848152602001908152602001600020600101549081150290604051600060405180830381858888f19350505050158015610ecc573d6000803e3d6000fd5b5060026000828152602001908152602001600020600080820160006101000a81549073ffffffffffffffffffffffffffffffffffffffff021916905560018201600090556002820160006101000a81549060ff0219169055600382016000610f34919061275e565b60048201600090556005820160009055505050565b6000600260008381526020019081526020016000206001015411610fa2576040517f08c379a0000000000000000000000000000000000000000000000000000000008152600401610f999061368e565b60405180910390fd5b6000600760003373ffffffffffffffffffffffffffffffffffffffff1673ffffffffffffffffffffffffffffffffffffffff168152602001908152602001600020805460018160011615610100020316600290049050141580156110875750600960189054906101000a900460ff1660ff166006600760003373ffffffffffffffffffffffffffffffffffffffff1673ffffffffffffffffffffffffffffffffffffffff16815260200190815260200160002060405161106291906133a4565b908152602001604051809103902060000160149054906101000a900460ff1660ff1610155b6110c6576040517f08c379a00000000000000000000000000000000000000000000000000000000081526004016110bd906137ce565b60405180910390fd5b6008600760003373ffffffffffffffffffffffffffffffffffffffff1673ffffffffffffffffffffffffffffffffffffffff16815260200190815260200160002060405161111491906133a4565b908152602001604051809103902060009054906101000a900460ff1615611170576040517f08c379a00000000000000000000000000000000000000000000000000000000081526004016111679061376e565b60405180910390fd5b60405180606001604052803373ffffffffffffffffffffffffffffffffffffffff168152602001828152602001600060ff1681525060046000600554815260200190815260200160002060008201518160000160006101000a81548173ffffffffffffffffffffffffffffffffffffffff021916908373ffffffffffffffffffffffffffffffffffffffff1602179055506020820151816001015560408201518160020160006101000a81548160ff021916908360ff1602179055509050506005600081548092919060010191905055507facd0d3abea58a498c09ef478e7f28149549ca4baf3c4247dee014a7ecf04ab4d3382604051611272929190613408565b60405180910390a150565b60026020528060005260406000206000915090508060000160009054906101000a900473ffffffffffffffffffffffffffffffffffffffff16908060010154908060020160009054906101000a900460ff1690806003018054600181600116156101000203166002900480601f0160208091040260200160405190810160405280929190818152602001828054600181600116156101000203166002900480156113685780601f1061133d57610100808354040283529160200191611368565b820191906000526020600020905b81548152906001019060200180831161134b57829003601f168201915b5050505050908060040154908060050154905086565b600160003373ffffffffffffffffffffffffffffffffffffffff1673ffffffffffffffffffffffffffffffffffffffff16815260200190815260200160002060009054906101000a900460ff1661140a576040517f08c379a0000000000000000000000000000000000000000000000000000000008152600401611401906137ae565b60405180910390fd5b60006008838360405161141e92919061338b565b908152602001604051809103902060006101000a81548160ff0219169083151502179055505050565b60046020528060005260406000206000915090508060000160009054906101000a900473ffffffffffffffffffffffffffffffffffffffff16908060010154908060020160009054906101000a900460ff16905083565b600160003373ffffffffffffffffffffffffffffffffffffffff1673ffffffffffffffffffffffffffffffffffffffff16815260200190815260200160002060009054906101000a900460ff1661152a576040517f08c379a0000000000000000000000000000000000000000000000000000000008152600401611521906137ae565b60405180910390fd5b60016008838360405161153e92919061338b565b908152602001604051809103902060006101000a81548160ff0219169083151502179055505050565b61156f61265b565b73ffffffffffffffffffffffffffffffffffffffff166000809054906101000a900473ffffffffffffffffffffffffffffffffffffffff1673ffffffffffffffffffffffffffffffffffffffff16146115fd576040517f08c379a00000000000000000000000000000000000000000000000000000000081526004016115f4906136ae565b60405180910390fd5b80600960146101000a81548163ffffffff021916908363ffffffff16021790555050565b61162961265b565b73ffffffffffffffffffffffffffffffffffffffff166000809054906101000a900473ffffffffffffffffffffffffffffffffffffffff1673ffffffffffffffffffffffffffffffffffffffff16146116b7576040517f08c379a00000000000000000000000000000000000000000000000000000000081526004016116ae906136ae565b60405180910390fd5b600073ffffffffffffffffffffffffffffffffffffffff166000809054906101000a900473ffffffffffffffffffffffffffffffffffffffff1673ffffffffffffffffffffffffffffffffffffffff167f8be0079c531659141344cd1fd0a4f28419497f9722a3daafe3b4186f6b6457e060405160405180910390a360008060006101000a81548173ffffffffffffffffffffffffffffffffffffffff021916908373ffffffffffffffffffffffffffffffffffffffff160217905550565b61177e61265b565b73ffffffffffffffffffffffffffffffffffffffff166000809054906101000a900473ffffffffffffffffffffffffffffffffffffffff1673ffffffffffffffffffffffffffffffffffffffff161461180c576040517f08c379a0000000000000000000000000000000000000000000000000000000008152600401611803906136ae565b60405180910390fd5b600160008273ffffffffffffffffffffffffffffffffffffffff1673ffffffffffffffffffffffffffffffffffffffff16815260200190815260200160002060009054906101000a900460ff16611898576040517f08c379a000000000000000000000000000000000000000000000000000000000815260040161188f9061372e565b60405180910390fd5b6118a0611969565b73ffffffffffffffffffffffffffffffffffffffff168173ffffffffffffffffffffffffffffffffffffffff16141561190e576040517f08c379a00000000000000000000000000000000000000000000000000000000081526004016119059061364e565b60405180910390fd5b6000600160008373ffffffffffffffffffffffffffffffffffffffff1673ffffffffffffffffffffffffffffffffffffffff16815260200190815260200160002060006101000a81548160ff02191690831515021790555050565b60008060009054906101000a900473ffffffffffffffffffffffffffffffffffffffff16905090565b61199a6127a6565b60008090505b8260ff168160ff161080156119b55750600084115b15611a09576000600260008681526020019081526020016000206001015411156119fb5783828260ff1660ff81106119e957fe5b60200201818152505080806001019150505b8380600190039450506119a0565b8191505092915050565b60076020528060005260406000206000915090508054600181600116156101000203166002900480601f016020809104026020016040519081016040528092919081815260200182805460018160011615610100020316600290048015611abb5780601f10611a9057610100808354040283529160200191611abb565b820191906000526020600020905b815481529060010190602001808311611a9e57829003601f168201915b505050505081565b611acb61265b565b73ffffffffffffffffffffffffffffffffffffffff166000809054906101000a900473ffffffffffffffffffffffffffffffffffffffff1673ffffffffffffffffffffffffffffffffffffffff1614611b59576040517f08c379a0000000000000000000000000000000000000000000000000000000008152600401611b50906136ae565b60405180910390fd5b80600960196101000a81548160ff021916908360ff16021790555050565b60003411611bba576040517f08c379a0000000000000000000000000000000000000000000000000000000008152600401611bb1906136ce565b60405180910390fd5b600960149054906101000a900463ffffffff1663ffffffff168167ffffffffffffffff161115611c0057600960149054906101000a900463ffffffff1663ffffffff1690505b6040518060c001604052803373ffffffffffffffffffffffffffffffffffffffff1681526020013481526020018560ff16815260200184848080601f016020809104026020016040519081016040528093929190818152602001838380828437600081840152601f19601f82011690508083019250505050505050815260200142815260200162015180830267ffffffffffffffff16420181525060026000600354815260200190815260200160002060008201518160000160006101000a81548173ffffffffffffffffffffffffffffffffffffffff021916908373ffffffffffffffffffffffffffffffffffffffff1602179055506020820151816001015560408201518160020160006101000a81548160ff021916908360ff1602179055506060820151816003019080519060200190611d3e9291906127c9565b506080820151816004015560a082015181600501559050506003600081548092919060010191905055507f5bf198d2cf8692cce4db4475edc529d290ab7c7ab8844bae573ddedbb8d094dc3334868686604051611d9f959493929190613431565b60405180910390a160008167ffffffffffffffff161115611dc657611dc5333483612663565b5b50505050565b611dd461265b565b73ffffffffffffffffffffffffffffffffffffffff166000809054906101000a900473ffffffffffffffffffffffffffffffffffffffff1673ffffffffffffffffffffffffffffffffffffffff1614611e62576040517f08c379a0000000000000000000000000000000000000000000000000000000008152600401611e59906136ae565b60405180910390fd5b80600960186101000a81548160ff021916908360ff16021790555050565b600073ffffffffffffffffffffffffffffffffffffffff1660068383604051611eaa92919061338b565b908152602001604051809103902060000160009054906101000a900473ffffffffffffffffffffffffffffffffffffffff1673ffffffffffffffffffffffffffffffffffffffff1614611f86576007600060068484604051611f0d92919061338b565b908152602001604051809103902060000160009054906101000a900473ffffffffffffffffffffffffffffffffffffffff1673ffffffffffffffffffffffffffffffffffffffff1673ffffffffffffffffffffffffffffffffffffffff1681526020019081526020016000206000611f85919061275e565b5b60405180604001604052803373ffffffffffffffffffffffffffffffffffffffff168152602001600060ff1681525060068383604051611fc792919061338b565b908152602001604051809103902060008201518160000160006101000a81548173ffffffffffffffffffffffffffffffffffffffff021916908373ffffffffffffffffffffffffffffffffffffffff16021790555060208201518160000160146101000a81548160ff021916908360ff1602179055509050508181600760003373ffffffffffffffffffffffffffffffffffffffff1673ffffffffffffffffffffffffffffffffffffffff168152602001908152602001600020919061208e929190612849565b507fd417e304669e6bf903f41a03f5ce981dac00416cf5034cd47d22fcb0c67c96bd3383836040516120c2939291906133d6565b60405180910390a15050565b6120d661265b565b73ffffffffffffffffffffffffffffffffffffffff166000809054906101000a900473ffffffffffffffffffffffffffffffffffffffff1673ffffffffffffffffffffffffffffffffffffffff1614612164576040517f08c379a000000000000000000000000000000000000000000000000000000000815260040161215b906136ae565b60405180910390fd5b600073ffffffffffffffffffffffffffffffffffffffff168173ffffffffffffffffffffffffffffffffffffffff1614156121d4576040517f08c379a00000000000000000000000000000000000000000000000000000000081526004016121cb906135ee565b60405180910390fd5b8073ffffffffffffffffffffffffffffffffffffffff166000809054906101000a900473ffffffffffffffffffffffffffffffffffffffff1673ffffffffffffffffffffffffffffffffffffffff167f8be0079c531659141344cd1fd0a4f28419497f9722a3daafe3b4186f6b6457e060405160405180910390a3806000806101000a81548173ffffffffffffffffffffffffffffffffffffffff021916908373ffffffffffffffffffffffffffffffffffffffff16021790555050565b61229a61265b565b73ffffffffffffffffffffffffffffffffffffffff166000809054906101000a900473ffffffffffffffffffffffffffffffffffffffff1673ffffffffffffffffffffffffffffffffffffffff1614612328576040517f08c379a000000000000000000000000000000000000000000000000000000000815260040161231f906136ae565b60405180910390fd5b600160008273ffffffffffffffffffffffffffffffffffffffff1673ffffffffffffffffffffffffffffffffffffffff16815260200190815260200160002060009054906101000a900460ff16156123b5576040517f08c379a00000000000000000000000000000000000000000000000000000000081526004016123ac9061366e565b60405180910390fd5b60018060008373ffffffffffffffffffffffffffffffffffffffff1673ffffffffffffffffffffffffffffffffffffffff16815260200190815260200160002060006101000a81548160ff02191690831515021790555050565b600080905060005b838390508110156125cb5760006002600086868581811061243457fe5b905060200201358152602001908152602001600020600101541180156124cd57503373ffffffffffffffffffffffffffffffffffffffff166002600086868581811061247c57fe5b90506020020135815260200190815260200160002060000160009054906101000a900473ffffffffffffffffffffffffffffffffffffffff1673ffffffffffffffffffffffffffffffffffffffff16145b8015612500575042600260008686858181106124e557fe5b90506020020135815260200190815260200160002060050154105b156125be576002600085858481811061251557fe5b90506020020135815260200190815260200160002060010154820191506002600085858481811061254257fe5b905060200201358152602001908152602001600020600080820160006101000a81549073ffffffffffffffffffffffffffffffffffffffff021916905560018201600090556002820160006101000a81549060ff02191690556003820160006125ab919061275e565b6004820160009055600582016000905550505b8080600101915050612417565b506000811161260f576040517f08c379a00000000000000000000000000000000000000000000000000000000081526004016126069061360e565b60405180910390fd5b3373ffffffffffffffffffffffffffffffffffffffff166108fc829081150290604051600060405180830381858888f19350505050158015612655573d6000803e3d6000fd5b50505050565b600033905090565b60008167ffffffffffffffff1611801561267d5750600082115b1561275957600960009054906101000a900473ffffffffffffffffffffffffffffffffffffffff1673ffffffffffffffffffffffffffffffffffffffff166340c10f19846002600960149054906101000a900463ffffffff1663ffffffff16816126e357fe5b0463ffffffff168467ffffffffffffffff16816126fc57fe5b0467ffffffffffffffff1685026040518363ffffffff1660e01b81526004016127269291906134bf565b600060405180830381600087803b15801561274057600080fd5b505af1158015612754573d6000803e3d6000fd5b505050505b505050565b50805460018160011615610100020316600290046000825580601f1061278457506127a3565b601f0160209004906000526020600020908101906127a291906128c9565b5b50565b60405180611fe0016040528060ff90602082028036833780820191505090505090565b828054600181600116156101000203166002900490600052602060002090601f016020900481019282601f1061280a57805160ff1916838001178555612838565b82800160010185558215612838579182015b8281111561283757825182559160200191906001019061281c565b5b50905061284591906128c9565b5090565b828054600181600116156101000203166002900490600052602060002090601f016020900481019282601f1061288a57803560ff19168380011785556128b8565b828001600101855582156128b8579182015b828111156128b757823582559160200191906001019061289c565b5b5090506128c591906128c9565b5090565b6128eb91905b808211156128e75760008160009055506001016128cf565b5090565b90565b6000813590506128fd816139c1565b92915050565b60008083601f84011261291557600080fd5b8235905067ffffffffffffffff81111561292e57600080fd5b60208301915083602082028301111561294657600080fd5b9250929050565b60008083601f84011261295f57600080fd5b8235905067ffffffffffffffff81111561297857600080fd5b60208301915083600182028301111561299057600080fd5b9250929050565b600082601f8301126129a857600080fd5b81356129bb6129b682613836565b613809565b915080825260208301602083018583830111156129d757600080fd5b6129e283828461396e565b50505092915050565b6000813590506129fa816139d8565b92915050565b600081359050612a0f816139ef565b92915050565b600081359050612a2481613a06565b92915050565b600081359050612a3981613a1d565b92915050565b600060208284031215612a5157600080fd5b6000612a5f848285016128ee565b91505092915050565b60008060208385031215612a7b57600080fd5b600083013567ffffffffffffffff811115612a9557600080fd5b612aa185828601612903565b92509250509250929050565b60008060208385031215612ac057600080fd5b600083013567ffffffffffffffff811115612ada57600080fd5b612ae68582860161294d565b92509250509250929050565b600080600060408486031215612b0757600080fd5b600084013567ffffffffffffffff811115612b2157600080fd5b612b2d8682870161294d565b93509350506020612b40868287016128ee565b9150509250925092565b600060208284031215612b5c57600080fd5b600082013567ffffffffffffffff811115612b7657600080fd5b612b8284828501612997565b91505092915050565b600060208284031215612b9d57600080fd5b6000612bab848285016129eb565b91505092915050565b60008060408385031215612bc757600080fd5b6000612bd5858286016129eb565b9250506020612be685828601612a2a565b9150509250929050565b600060208284031215612c0257600080fd5b6000612c1084828501612a00565b91505092915050565b600060208284031215612c2b57600080fd5b6000612c3984828501612a2a565b91505092915050565b60008060008060608587031215612c5857600080fd5b6000612c6687828801612a2a565b945050602085013567ffffffffffffffff811115612c8357600080fd5b612c8f8782880161294d565b93509350506040612ca287828801612a15565b91505092959194509250565b6000612cba838361335e565b60208301905092915050565b612ccf81613938565b82525050565b612cde816138cb565b82525050565b612ced81613881565b612cf781846138a4565b9250612d0282613862565b8060005b83811015612d33578151612d1a8782612cae565b9650612d2583613897565b925050600181019050612d06565b505050505050565b6000612d4783856138af565b9350612d5483858461396e565b612d5d836139b0565b840190509392505050565b6000612d7483856138c0565b9350612d8183858461396e565b82840190509392505050565b6000612d988261388c565b612da281856138af565b9350612db281856020860161397d565b612dbb816139b0565b840191505092915050565b600081546001811660008114612de35760018114612e0857612e4c565b607f6002830416612df481876138c0565b955060ff1983168652808601935050612e4c565b60028204612e1681876138c0565b9550612e218561386c565b60005b82811015612e4357815481890152600182019150602081019050612e24565b82880195505050505b505092915050565b6000612e616026836138af565b91507f4f776e61626c653a206e6577206f776e657220697320746865207a65726f206160008301527f64647265737300000000000000000000000000000000000000000000000000006020830152604082019050919050565b6000612ec76035836138af565b91507f54686520737065636966696564206465706f7369747320646f206e6f7420657860008301527f697374206f7220617265206e6f7420796f7572732e00000000000000000000006020830152604082019050919050565b6000612f2d602e836138af565b91507f54686973206163636f756e7420636f6e6669726d6174696f6e20776173206e6560008301527f766572207265717565737465642e0000000000000000000000000000000000006020830152604082019050919050565b6000612f936020836138af565b91507f4f776e6572206f7261636c652063616e206e6f742062652072656d6f7665642e6000830152602082019050919050565b6000612fd36016836138af565b91507f4f7261636c6520616c7265616479206578697374732e000000000000000000006000830152602082019050919050565b60006130136017836138af565b91507f4465706f73697420646f6573206e6f742065786973742e0000000000000000006000830152602082019050919050565b60006130536020836138af565b91507f4f776e61626c653a2063616c6c6572206973206e6f7420746865206f776e65726000830152602082019050919050565b6000613093600e836138af565b91507f4e6f2065746865722073656e742e0000000000000000000000000000000000006000830152602082019050919050565b60006130d36034836138af565b91507f54686973206465706f7369742068617320616c7265616479206265656e20776960008301527f7468647261776e206f7220726566756e6465642e0000000000000000000000006020830152604082019050919050565b60006131396011836138af565b91507f4e6f206465706f73697420666f756e642e0000000000000000000000000000006000830152602082019050919050565b60006131796017836138af565b91507f4f7261636c6520646f6573206e6f74206578697374732e0000000000000000006000830152602082019050919050565b60006131b96022836138af565b91507f5769746864726177616c207265717565737420646f6573206e6f74206578697360008301527f742e0000000000000000000000000000000000000000000000000000000000006020830152604082019050919050565b600061321f6023836138af565b91507f5468697320476974487562206163636f756e7420697320626c61636b6c69737460008301527f65642e00000000000000000000000000000000000000000000000000000000006020830152604082019050919050565b60006132856012836138af565b91507f4465706f736974206973206c6f636b65642e00000000000000000000000000006000830152602082019050919050565b60006132c56024836138af565b91507f4f6e6c79206f7261636c65732063616e20636f6e6669726d206f70657261746960008301527f6f6e732e000000000000000000000000000000000000000000000000000000006020830152604082019050919050565b600061332b601f836138af565b91507f596f7572206163636f756e74206973206e6f7420726567697374657265642e006000830152602082019050919050565b613367816138fd565b82525050565b613376816138fd565b82525050565b6133858161392b565b82525050565b6000613398828486612d68565b91508190509392505050565b60006133b08284612dc6565b915081905092915050565b60006020820190506133d06000830184612cd5565b92915050565b60006040820190506133eb6000830186612cc6565b81810360208301526133fe818486612d3b565b9050949350505050565b600060408201905061341d6000830185612cc6565b61342a602083018461336d565b9392505050565b60006080820190506134466000830188612cc6565b613453602083018761336d565b613460604083018661337c565b8181036060830152613473818486612d3b565b90509695505050505050565b60006060820190506134946000830187612cd5565b81810360208301526134a7818587612d3b565b90506134b6604083018461337c565b95945050505050565b60006040820190506134d46000830185612cd5565b6134e1602083018461336d565b9392505050565b60006060820190506134fd6000830186612cd5565b61350a602083018561336d565b613517604083018461337c565b949350505050565b600060c0820190506135346000830189612cd5565b613541602083018861336d565b61354e604083018761337c565b81810360608301526135608186612d8d565b905061356f608083018561336d565b61357c60a083018461336d565b979650505050505050565b600060408201905061359c6000830185612cd5565b6135a9602083018461337c565b9392505050565b6000611fe0820190506135c66000830184612ce4565b92915050565b600060208201905081810360008301526135e68184612d8d565b905092915050565b6000602082019050818103600083015261360781612e54565b9050919050565b6000602082019050818103600083015261362781612eba565b9050919050565b6000602082019050818103600083015261364781612f20565b9050919050565b6000602082019050818103600083015261366781612f86565b9050919050565b6000602082019050818103600083015261368781612fc6565b9050919050565b600060208201905081810360008301526136a781613006565b9050919050565b600060208201905081810360008301526136c781613046565b9050919050565b600060208201905081810360008301526136e781613086565b9050919050565b60006020820190508181036000830152613707816130c6565b9050919050565b600060208201905081810360008301526137278161312c565b9050919050565b600060208201905081810360008301526137478161316c565b9050919050565b60006020820190508181036000830152613767816131ac565b9050919050565b6000602082019050818103600083015261378781613212565b9050919050565b600060208201905081810360008301526137a781613278565b9050919050565b600060208201905081810360008301526137c7816132b8565b9050919050565b600060208201905081810360008301526137e78161331e565b9050919050565b6000602082019050613803600083018461336d565b92915050565b6000604051905081810181811067ffffffffffffffff8211171561382c57600080fd5b8060405250919050565b600067ffffffffffffffff82111561384d57600080fd5b601f19601f8301169050602081019050919050565b6000819050919050565b60008190508160005260206000209050919050565b600060ff9050919050565b600081519050919050565b6000602082019050919050565b600081905092915050565b600082825260208201905092915050565b600081905092915050565b60006138d6826138dd565b9050919050565b600073ffffffffffffffffffffffffffffffffffffffff82169050919050565b6000819050919050565b600063ffffffff82169050919050565b600067ffffffffffffffff82169050919050565b600060ff82169050919050565b60006139438261394a565b9050919050565b60006139558261395c565b9050919050565b6000613967826138dd565b9050919050565b82818337600083830152505050565b60005b8381101561399b578082015181840152602081019050613980565b838111156139aa576000848401525b50505050565b6000601f19601f8301169050919050565b6139ca816138cb565b81146139d557600080fd5b50565b6139e1816138fd565b81146139ec57600080fd5b50565b6139f881613907565b8114613a0357600080fd5b50565b613a0f81613917565b8114613a1a57600080fd5b50565b613a268161392b565b8114613a3157600080fd5b5056fea264697066735822122090f7a1aec11ecc0da35781aaf6ae58f4fd3345a0651e9b98fd5d68856f2d3b3b64736f6c63430006060033",
  "immutableReferences": {},
  "source": "// SPDX-License-Identifier: MIT\npragma solidity ^0.6.0;\npragma experimental ABIEncoderV2;\n\nimport \"@openzeppelin/contracts/access/Ownable.sol\";\nimport \"./MergeToken.sol\";\n\ncontract MergePay is Ownable {\n  struct Deposit {\n    address account;\n    uint256 amount;\n    uint8 issueOrPr; // 1 = issue, 2 = pr\n    string id;\n    uint256 addedTimestamp;\n    uint256 lockedUntilTimestamp;\n  }\n\n  struct Withdrawal {\n    address account;\n    uint256 depositId;\n    uint8 confirmations;\n  }\n\n  struct User {\n    address account;\n    uint8 confirmations;\n  }\n\n  event DepositEvent(address account, uint256 amount, uint8 issueOrPr, string id);\n  event RegistrationRequestEvent(address account, string githubUser);\n  event RegistrationConfirmedEvent(address account, string githubUser, uint8 confirmations);\n  event WithdrawalRequestEvent(address account, uint256 depositId);\n  event WithdrawalConfirmedEvent(uint256 id);\n\n  mapping(address => bool) private _oracles;\n  mapping(uint256 => Deposit) public _deposits;\n  uint256 private _nextDepositId = 1;\n  mapping(uint256 => Withdrawal) public _withdrawals;\n  uint256 private _nextWithdrawalId = 1;\n  mapping(string => User) public _users;\n  mapping(address => string) public _usersByAddress;\n  mapping(string => bool) private _blacklistedGithubUsers; // Blacklisted users cannot withdraw\n\n  MergeToken _mergeToken;\n\n  uint32 private _maxLockDays = 180;\n  uint8 private _minRegistrationConfirmations = 2;\n  uint8 private _minWithdrawalConfirmations = 2;\n\n  modifier onlyOracles {\n    require(_oracles[msg.sender], \"Only oracles can confirm operations.\");\n    _;\n  }\n\n  /// @dev Initiates MergeToken and set owner as oracle.\n  /// @param mergeTokenAddress The contract address of MergeToken\n  constructor(address mergeTokenAddress) public {\n    _mergeToken = MergeToken(mergeTokenAddress);\n    _oracles[owner()] = true;\n  }\n\n  function setMaxLockDays(uint32 maxLockdays) external onlyOwner {\n    _maxLockDays = maxLockdays;\n  }\n\n  function setMinRegistrationConfirmation(uint8 minRegistrationConfirmations) external onlyOwner {\n    _minRegistrationConfirmations = minRegistrationConfirmations;\n  }\n\n  function setMinWithdrawalConfirmation(uint8 minWithdrawalConfirmations) external onlyOwner {\n    _minWithdrawalConfirmations = minWithdrawalConfirmations;\n  }\n\n  /// @param oracle The oracle address to add\n  function enableOracle(address oracle) external onlyOwner {\n    require(!_oracles[oracle], \"Oracle already exists.\");\n    _oracles[oracle] = true;\n  }\n\n  /// @param oracle The oracle address to remove (cannot be owner)\n  function disableOracle(address oracle) external onlyOwner {\n    require(_oracles[oracle], \"Oracle does not exists.\");\n    require(oracle != owner(), \"Owner oracle can not be removed.\");\n    _oracles[oracle] = false;\n  }\n\n  /// @dev Deposit ETH on any pull request or issue on GitHub.\n  /// @param issueOrPr Issues = 1, Pull Requests = 2\n  /// @param id The node ID of the issue or pr\n  /// @param lockDays The number of day the deposit will be locked\n  function deposit(uint8 issueOrPr, string calldata id, uint64 lockDays) external payable {\n    require(msg.value > 0, \"No ether sent.\");\n\n    // cap lockDays\n    if (lockDays > _maxLockDays) {\n      lockDays = _maxLockDays;\n    }\n\n    _deposits[_nextDepositId] = Deposit(msg.sender, msg.value, issueOrPr, id, now, now + lockDays * 1 days);\n    _nextDepositId++;\n\n    emit DepositEvent(msg.sender, msg.value, issueOrPr, id);\n\n    if (lockDays > 0) {\n      mintMergeToken(msg.sender, msg.value, lockDays);\n    }\n  }\n\n  function getDeposits(uint256 fromId, uint8 perpage) external view returns(uint256[255] memory ids) {\n    uint8 index = 0;\n    while (index < perpage && fromId > 0) {\n      if (_deposits[fromId].amount > 0) {\n        ids[index] = fromId;\n        index++;\n      }\n      fromId--;\n    }\n\n    return ids;\n  }\n\n  /// @dev Verify ownership over GitHub account by checking for a repositry of\n  /// @dev githubUser named after msg.sender. Adds user as unconfirmed and sends\n  /// @dev an oracle request, that will be fullfilled in registerConfirm.\n  /// @param githubUser The GitHub username to register\n  function register(string calldata githubUser) external {\n    if (_users[githubUser].account != address(0)) {\n      delete _usersByAddress[_users[githubUser].account];\n    }\n    _users[githubUser] = User(msg.sender, 0);\n    _usersByAddress[msg.sender] = githubUser;\n\n    emit RegistrationRequestEvent(msg.sender, githubUser);\n  }\n\n  /// @dev Oracle fullfill method. Sets unconfirmed user to confirmed if repo exists.\n  /// @param githubUser The githubUser to confirm\n  /// @param account The Eth account to confirm\n  function registerConfirm(string calldata githubUser, address account) external onlyOracles {\n    require(\n      _users[githubUser].account != address(0) && _users[githubUser].account == account,\n      \"This account confirmation was never requested.\"\n    );\n    _users[githubUser].confirmations++;\n    emit RegistrationConfirmedEvent(\n      account,\n      githubUser,\n      _users[githubUser].confirmations\n    );\n  }\n\n  /// @dev Send deposit back to sender.\n  function refund(uint256 depositId) external {\n    require(_deposits[depositId].amount > 0, \"No deposit found.\");\n    require(_deposits[depositId].lockedUntilTimestamp < now, \"Deposit is locked.\");\n    payable(msg.sender).transfer(_deposits[depositId].amount);\n    delete _deposits[depositId];\n  }\n\n  /// @dev Send deposit back to sender regardless of lock.\n  function forceRefund(uint256 depositId) external onlyOwner {\n    require(_deposits[depositId].amount > 0, \"No deposit found.\");\n    payable(_deposits[depositId].account).transfer(_deposits[depositId].amount);\n    delete _deposits[depositId];\n  }\n\n  /// @dev Send all specified deposits back to sender.\n  function refundAll(uint256[] calldata depositIds) external {\n    uint256 amount = 0;\n    for (uint256 i; i < depositIds.length; i++) {\n      if (\n        _deposits[depositIds[i]].amount > 0 &&\n        _deposits[depositIds[i]].account == msg.sender &&\n        _deposits[depositIds[i]].lockedUntilTimestamp < now\n      ) {\n        amount += _deposits[depositIds[i]].amount;\n        delete _deposits[depositIds[i]];\n      }\n    }\n    require(amount > 0, \"The specified deposits do not exist or are not yours.\");\n    payable(msg.sender).transfer(amount);\n  }\n\n  function addUserToBlacklist(string calldata githubUser) external onlyOracles {\n    _blacklistedGithubUsers[githubUser] = true;\n  }\n\n  function removeUserFromBlacklist(string calldata githubUser) external onlyOracles {\n    _blacklistedGithubUsers[githubUser] = false;\n  }\n\n  /// @dev Send deposit to contributor if deposit's conditions are met.\n  function withdraw(uint256 depositId) external {\n    // requre deposit exists\n    require(_deposits[depositId].amount > 0, \"Deposit does not exist.\");\n    // require a registered githubUser for sender's eth account\n    require(\n      bytes(_usersByAddress[msg.sender]).length != 0 &&\n      _users[_usersByAddress[msg.sender]].confirmations >= _minRegistrationConfirmations,\n      \"Your account is not registered.\"\n    );\n    require(\n      !_blacklistedGithubUsers[_usersByAddress[msg.sender]],\n      \"This GitHub account is blacklisted.\"\n    );\n\n    _withdrawals[_nextWithdrawalId] = Withdrawal(msg.sender, depositId, 0);\n    _nextWithdrawalId++;\n\n    emit WithdrawalRequestEvent(msg.sender, depositId);\n  }\n\n  /// @dev Oracle fullfill method. Executes withdrawal.\n  /// @param withdrawalId The id of the Withdrawal\n  function withdrawConfirm(uint256 withdrawalId) external onlyOracles {\n    require(_withdrawals[withdrawalId].account != address(0), \"Withdrawal request does not exist.\");\n    require(_deposits[_withdrawals[withdrawalId].depositId].amount > 0, \"This deposit has already been withdrawn or refunded.\");\n    // execute transfer, set execute flag, delete deposit and emit event\n    _withdrawals[withdrawalId].confirmations++;\n    if (_withdrawals[withdrawalId].confirmations >= _minWithdrawalConfirmations) {\n      payable(_withdrawals[withdrawalId].account).transfer(_deposits[_withdrawals[withdrawalId].depositId].amount);\n      delete _deposits[_withdrawals[withdrawalId].depositId];\n      emit WithdrawalConfirmedEvent(withdrawalId);\n    }\n  }\n\n  /// @dev Mints MergeToken based on the lock period. The minted amount equals a percentage of the value of the deposit.\n  /// @dev The percentage is based on how many days the deposit will be locked out of the maximum number of days to lock\n  /// @dev (actually half of it, to make rewards a bit higher, 180 / 2 = 90)\n  /// @param recipient The account receiving the minted MergeToken\n  /// @param value The value of the deposit\n  /// @param lockDays The number of days the deposit will be locked\n  function mintMergeToken(address recipient, uint256 value, uint64 lockDays) internal {\n    if (lockDays > 0 && value > 0) {\n      _mergeToken.mint(recipient, value * (lockDays / (_maxLockDays / 2)));\n    }\n  }\n}\n",
  "sourcePath": "/home/mkt/Projects/mergepay-contracts/contracts/MergePay.sol",
  "compiler": {
    "name": "solc",
    "version": "0.6.6+commit.6c089d02.Emscripten.clang"
  },
  "schemaVersion": "3.2.4",
  "updatedAt": "2020-09-10T12:18:41.161Z",
  "networkType": "ethereum",
  "devdoc": {
    "methods": {
      "constructor": {
        "details": "Initiates MergeToken and set owner as oracle.",
        "params": {
          "mergeTokenAddress": "The contract address of MergeToken"
        }
      },
      "deposit(uint8,string,uint64)": {
        "details": "Deposit ETH on any pull request or issue on GitHub.",
        "params": {
          "id": "The node ID of the issue or pr",
          "issueOrPr": "Issues = 1, Pull Requests = 2",
          "lockDays": "The number of day the deposit will be locked"
        }
      },
      "disableOracle(address)": {
        "params": {
          "oracle": "The oracle address to remove (cannot be owner)"
        }
      },
      "enableOracle(address)": {
        "params": {
          "oracle": "The oracle address to add"
        }
      },
      "forceRefund(uint256)": {
        "details": "Send deposit back to sender regardless of lock."
      },
      "owner()": {
        "details": "Returns the address of the current owner."
      },
      "refund(uint256)": {
        "details": "Send deposit back to sender."
      },
      "refundAll(uint256[])": {
        "details": "Send all specified deposits back to sender."
      },
      "register(string)": {
        "details": "Verify ownership over GitHub account by checking for a repositry ofgithubUser named after msg.sender. Adds user as unconfirmed and sendsan oracle request, that will be fullfilled in registerConfirm.",
        "params": {
          "githubUser": "The GitHub username to register"
        }
      },
      "registerConfirm(string,address)": {
        "details": "Oracle fullfill method. Sets unconfirmed user to confirmed if repo exists.",
        "params": {
          "account": "The Eth account to confirm",
          "githubUser": "The githubUser to confirm"
        }
      },
      "renounceOwnership()": {
        "details": "Leaves the contract without owner. It will not be possible to call `onlyOwner` functions anymore. Can only be called by the current owner.     * NOTE: Renouncing ownership will leave the contract without an owner, thereby removing any functionality that is only available to the owner."
      },
      "transferOwnership(address)": {
        "details": "Transfers ownership of the contract to a new account (`newOwner`). Can only be called by the current owner."
      },
      "withdraw(uint256)": {
        "details": "Send deposit to contributor if deposit's conditions are met."
      },
      "withdrawConfirm(uint256)": {
        "details": "Oracle fullfill method. Executes withdrawal.",
        "params": {
          "withdrawalId": "The id of the Withdrawal"
        }
      }
    }
  },
  "userdoc": {
    "methods": {}
  }
}