{
  "contractName": "MergePay",
  "abi": [
    {
      "inputs": [],
      "stateMutability": "nonpayable",
      "type": "constructor"
    },
    {
      "anonymous": false,
      "inputs": [
        {
          "indexed": true,
          "internalType": "address",
          "name": "owner",
          "type": "address"
        },
        {
          "indexed": true,
          "internalType": "address",
          "name": "spender",
          "type": "address"
        },
        {
          "indexed": false,
          "internalType": "uint256",
          "name": "value",
          "type": "uint256"
        }
      ],
      "name": "Approval",
      "type": "event"
    },
    {
      "anonymous": false,
      "inputs": [
        {
          "indexed": false,
          "internalType": "string",
          "name": "prId",
          "type": "string"
        },
        {
          "indexed": false,
          "internalType": "string",
          "name": "githubUser",
          "type": "string"
        },
        {
          "indexed": false,
          "internalType": "uint256",
          "name": "score",
          "type": "uint256"
        }
      ],
      "name": "ClaimPrConfirmEvent",
      "type": "event"
    },
    {
      "anonymous": false,
      "inputs": [
        {
          "indexed": false,
          "internalType": "string",
          "name": "prId",
          "type": "string"
        },
        {
          "indexed": false,
          "internalType": "string",
          "name": "githubUser",
          "type": "string"
        }
      ],
      "name": "ClaimPrRequestEvent",
      "type": "event"
    },
    {
      "anonymous": false,
      "inputs": [
        {
          "indexed": false,
          "internalType": "address",
          "name": "account",
          "type": "address"
        },
        {
          "indexed": false,
          "internalType": "uint256",
          "name": "amount",
          "type": "uint256"
        },
        {
          "indexed": false,
          "internalType": "string",
          "name": "issueId",
          "type": "string"
        }
      ],
      "name": "IssueDepositEvent",
      "type": "event"
    },
    {
      "anonymous": false,
      "inputs": [
        {
          "indexed": true,
          "internalType": "address",
          "name": "previousOwner",
          "type": "address"
        },
        {
          "indexed": true,
          "internalType": "address",
          "name": "newOwner",
          "type": "address"
        }
      ],
      "name": "OwnershipTransferred",
      "type": "event"
    },
    {
      "anonymous": false,
      "inputs": [
        {
          "indexed": false,
          "internalType": "address",
          "name": "account",
          "type": "address"
        },
        {
          "indexed": false,
          "internalType": "string",
          "name": "githubUser",
          "type": "string"
        }
      ],
      "name": "RegistrationConfirmedEvent",
      "type": "event"
    },
    {
      "anonymous": false,
      "inputs": [
        {
          "indexed": false,
          "internalType": "address",
          "name": "account",
          "type": "address"
        },
        {
          "indexed": false,
          "internalType": "string",
          "name": "githubUser",
          "type": "string"
        }
      ],
      "name": "RegistrationRequestEvent",
      "type": "event"
    },
    {
      "anonymous": false,
      "inputs": [
        {
          "indexed": false,
          "internalType": "string",
          "name": "issueId",
          "type": "string"
        },
        {
          "indexed": false,
          "internalType": "string",
          "name": "githubUser",
          "type": "string"
        }
      ],
      "name": "ReleaseIssueDepositsConfirmEvent",
      "type": "event"
    },
    {
      "anonymous": false,
      "inputs": [
        {
          "indexed": false,
          "internalType": "string",
          "name": "issueId",
          "type": "string"
        },
        {
          "indexed": false,
          "internalType": "string",
          "name": "githubUser",
          "type": "string"
        },
        {
          "indexed": false,
          "internalType": "string",
          "name": "owner",
          "type": "string"
        }
      ],
      "name": "ReleaseIssueDepositsRequestEvent",
      "type": "event"
    },
    {
      "anonymous": false,
      "inputs": [
        {
          "indexed": true,
          "internalType": "address",
          "name": "from",
          "type": "address"
        },
        {
          "indexed": true,
          "internalType": "address",
          "name": "to",
          "type": "address"
        },
        {
          "indexed": false,
          "internalType": "uint256",
          "name": "value",
          "type": "uint256"
        }
      ],
      "name": "Transfer",
      "type": "event"
    },
    {
      "anonymous": false,
      "inputs": [
        {
          "indexed": false,
          "internalType": "address",
          "name": "account",
          "type": "address"
        },
        {
          "indexed": false,
          "internalType": "uint256",
          "name": "amount",
          "type": "uint256"
        },
        {
          "indexed": false,
          "internalType": "string",
          "name": "githubUser",
          "type": "string"
        }
      ],
      "name": "UserDepositEvent",
      "type": "event"
    },
    {
      "inputs": [
        {
          "internalType": "string",
          "name": "",
          "type": "string"
        }
      ],
      "name": "_claimedPullRequests",
      "outputs": [
        {
          "internalType": "bool",
          "name": "",
          "type": "bool"
        }
      ],
      "stateMutability": "view",
      "type": "function",
      "constant": true
    },
    {
      "inputs": [
        {
          "internalType": "string",
          "name": "",
          "type": "string"
        }
      ],
      "name": "_issueBoosts",
      "outputs": [
        {
          "internalType": "uint256",
          "name": "",
          "type": "uint256"
        }
      ],
      "stateMutability": "view",
      "type": "function",
      "constant": true
    },
    {
      "inputs": [
        {
          "internalType": "string",
          "name": "",
          "type": "string"
        },
        {
          "internalType": "uint256",
          "name": "",
          "type": "uint256"
        }
      ],
      "name": "_issueDepositIdsByIssueId",
      "outputs": [
        {
          "internalType": "uint256",
          "name": "",
          "type": "uint256"
        }
      ],
      "stateMutability": "view",
      "type": "function",
      "constant": true
    },
    {
      "inputs": [
        {
          "internalType": "address",
          "name": "",
          "type": "address"
        },
        {
          "internalType": "uint256",
          "name": "",
          "type": "uint256"
        }
      ],
      "name": "_issueDepositIdsBySender",
      "outputs": [
        {
          "internalType": "uint256",
          "name": "",
          "type": "uint256"
        }
      ],
      "stateMutability": "view",
      "type": "function",
      "constant": true
    },
    {
      "inputs": [
        {
          "internalType": "uint256",
          "name": "",
          "type": "uint256"
        }
      ],
      "name": "_issueDeposits",
      "outputs": [
        {
          "internalType": "address",
          "name": "from",
          "type": "address"
        },
        {
          "internalType": "uint256",
          "name": "amount",
          "type": "uint256"
        },
        {
          "internalType": "string",
          "name": "issueId",
          "type": "string"
        }
      ],
      "stateMutability": "view",
      "type": "function",
      "constant": true
    },
    {
      "inputs": [],
      "name": "_nextIssueDepositId",
      "outputs": [
        {
          "internalType": "uint256",
          "name": "",
          "type": "uint256"
        }
      ],
      "stateMutability": "view",
      "type": "function",
      "constant": true
    },
    {
      "inputs": [
        {
          "internalType": "string",
          "name": "",
          "type": "string"
        },
        {
          "internalType": "uint256",
          "name": "",
          "type": "uint256"
        }
      ],
      "name": "_userDepositIdsByGithubUser",
      "outputs": [
        {
          "internalType": "uint256",
          "name": "",
          "type": "uint256"
        }
      ],
      "stateMutability": "view",
      "type": "function",
      "constant": true
    },
    {
      "inputs": [
        {
          "internalType": "address",
          "name": "",
          "type": "address"
        },
        {
          "internalType": "uint256",
          "name": "",
          "type": "uint256"
        }
      ],
      "name": "_userDepositIdsBySender",
      "outputs": [
        {
          "internalType": "uint256",
          "name": "",
          "type": "uint256"
        }
      ],
      "stateMutability": "view",
      "type": "function",
      "constant": true
    },
    {
      "inputs": [
        {
          "internalType": "uint256",
          "name": "",
          "type": "uint256"
        }
      ],
      "name": "_userDeposits",
      "outputs": [
        {
          "internalType": "address",
          "name": "from",
          "type": "address"
        },
        {
          "internalType": "uint256",
          "name": "amount",
          "type": "uint256"
        },
        {
          "internalType": "string",
          "name": "githubUser",
          "type": "string"
        }
      ],
      "stateMutability": "view",
      "type": "function",
      "constant": true
    },
    {
      "inputs": [
        {
          "internalType": "string",
          "name": "",
          "type": "string"
        }
      ],
      "name": "_users",
      "outputs": [
        {
          "internalType": "address",
          "name": "account",
          "type": "address"
        },
        {
          "internalType": "bool",
          "name": "confirmed",
          "type": "bool"
        }
      ],
      "stateMutability": "view",
      "type": "function",
      "constant": true
    },
    {
      "inputs": [
        {
          "internalType": "address",
          "name": "",
          "type": "address"
        }
      ],
      "name": "_usersByAddress",
      "outputs": [
        {
          "internalType": "string",
          "name": "",
          "type": "string"
        }
      ],
      "stateMutability": "view",
      "type": "function",
      "constant": true
    },
    {
      "inputs": [
        {
          "internalType": "address",
          "name": "owner",
          "type": "address"
        },
        {
          "internalType": "address",
          "name": "spender",
          "type": "address"
        }
      ],
      "name": "allowance",
      "outputs": [
        {
          "internalType": "uint256",
          "name": "",
          "type": "uint256"
        }
      ],
      "stateMutability": "view",
      "type": "function",
      "constant": true
    },
    {
      "inputs": [
        {
          "internalType": "address",
          "name": "spender",
          "type": "address"
        },
        {
          "internalType": "uint256",
          "name": "amount",
          "type": "uint256"
        }
      ],
      "name": "approve",
      "outputs": [
        {
          "internalType": "bool",
          "name": "",
          "type": "bool"
        }
      ],
      "stateMutability": "nonpayable",
      "type": "function"
    },
    {
      "inputs": [
        {
          "internalType": "address",
          "name": "account",
          "type": "address"
        }
      ],
      "name": "balanceOf",
      "outputs": [
        {
          "internalType": "uint256",
          "name": "",
          "type": "uint256"
        }
      ],
      "stateMutability": "view",
      "type": "function",
      "constant": true
    },
    {
      "inputs": [],
      "name": "decimals",
      "outputs": [
        {
          "internalType": "uint8",
          "name": "",
          "type": "uint8"
        }
      ],
      "stateMutability": "view",
      "type": "function",
      "constant": true
    },
    {
      "inputs": [
        {
          "internalType": "address",
          "name": "spender",
          "type": "address"
        },
        {
          "internalType": "uint256",
          "name": "subtractedValue",
          "type": "uint256"
        }
      ],
      "name": "decreaseAllowance",
      "outputs": [
        {
          "internalType": "bool",
          "name": "",
          "type": "bool"
        }
      ],
      "stateMutability": "nonpayable",
      "type": "function"
    },
    {
      "inputs": [
        {
          "internalType": "address",
          "name": "spender",
          "type": "address"
        },
        {
          "internalType": "uint256",
          "name": "addedValue",
          "type": "uint256"
        }
      ],
      "name": "increaseAllowance",
      "outputs": [
        {
          "internalType": "bool",
          "name": "",
          "type": "bool"
        }
      ],
      "stateMutability": "nonpayable",
      "type": "function"
    },
    {
      "inputs": [],
      "name": "name",
      "outputs": [
        {
          "internalType": "string",
          "name": "",
          "type": "string"
        }
      ],
      "stateMutability": "view",
      "type": "function",
      "constant": true
    },
    {
      "inputs": [],
      "name": "owner",
      "outputs": [
        {
          "internalType": "address",
          "name": "",
          "type": "address"
        }
      ],
      "stateMutability": "view",
      "type": "function",
      "constant": true
    },
    {
      "inputs": [],
      "name": "renounceOwnership",
      "outputs": [],
      "stateMutability": "nonpayable",
      "type": "function"
    },
    {
      "inputs": [],
      "name": "symbol",
      "outputs": [
        {
          "internalType": "string",
          "name": "",
          "type": "string"
        }
      ],
      "stateMutability": "view",
      "type": "function",
      "constant": true
    },
    {
      "inputs": [],
      "name": "totalSupply",
      "outputs": [
        {
          "internalType": "uint256",
          "name": "",
          "type": "uint256"
        }
      ],
      "stateMutability": "view",
      "type": "function",
      "constant": true
    },
    {
      "inputs": [
        {
          "internalType": "address",
          "name": "recipient",
          "type": "address"
        },
        {
          "internalType": "uint256",
          "name": "amount",
          "type": "uint256"
        }
      ],
      "name": "transfer",
      "outputs": [
        {
          "internalType": "bool",
          "name": "",
          "type": "bool"
        }
      ],
      "stateMutability": "nonpayable",
      "type": "function"
    },
    {
      "inputs": [
        {
          "internalType": "address",
          "name": "sender",
          "type": "address"
        },
        {
          "internalType": "address",
          "name": "recipient",
          "type": "address"
        },
        {
          "internalType": "uint256",
          "name": "amount",
          "type": "uint256"
        }
      ],
      "name": "transferFrom",
      "outputs": [
        {
          "internalType": "bool",
          "name": "",
          "type": "bool"
        }
      ],
      "stateMutability": "nonpayable",
      "type": "function"
    },
    {
      "inputs": [
        {
          "internalType": "address",
          "name": "newOwner",
          "type": "address"
        }
      ],
      "name": "transferOwnership",
      "outputs": [],
      "stateMutability": "nonpayable",
      "type": "function"
    },
    {
      "inputs": [
        {
          "internalType": "address",
          "name": "oracle",
          "type": "address"
        }
      ],
      "name": "enableOracle",
      "outputs": [],
      "stateMutability": "nonpayable",
      "type": "function"
    },
    {
      "inputs": [
        {
          "internalType": "address",
          "name": "oracle",
          "type": "address"
        }
      ],
      "name": "disableOracle",
      "outputs": [],
      "stateMutability": "nonpayable",
      "type": "function"
    },
    {
      "inputs": [
        {
          "internalType": "string",
          "name": "githubUser",
          "type": "string"
        }
      ],
      "name": "register",
      "outputs": [],
      "stateMutability": "payable",
      "type": "function",
      "payable": true
    },
    {
      "inputs": [
        {
          "internalType": "string",
          "name": "githubUser",
          "type": "string"
        },
        {
          "internalType": "address",
          "name": "account",
          "type": "address"
        }
      ],
      "name": "registerConfirm",
      "outputs": [],
      "stateMutability": "nonpayable",
      "type": "function"
    },
    {
      "inputs": [
        {
          "internalType": "string",
          "name": "githubUser",
          "type": "string"
        }
      ],
      "name": "sendEthToGithubUser",
      "outputs": [],
      "stateMutability": "payable",
      "type": "function",
      "payable": true
    },
    {
      "inputs": [
        {
          "internalType": "string",
          "name": "githubUser",
          "type": "string"
        }
      ],
      "name": "depositEthForGithubUser",
      "outputs": [],
      "stateMutability": "payable",
      "type": "function",
      "payable": true
    },
    {
      "inputs": [
        {
          "internalType": "uint256",
          "name": "depositId",
          "type": "uint256"
        }
      ],
      "name": "withdrawUserDeposit",
      "outputs": [],
      "stateMutability": "nonpayable",
      "type": "function"
    },
    {
      "inputs": [
        {
          "internalType": "uint256",
          "name": "depositId",
          "type": "uint256"
        }
      ],
      "name": "refundUserDeposit",
      "outputs": [],
      "stateMutability": "nonpayable",
      "type": "function"
    },
    {
      "inputs": [
        {
          "internalType": "string",
          "name": "githubUser",
          "type": "string"
        }
      ],
      "name": "getUserDepositIdsForGithubUser",
      "outputs": [
        {
          "internalType": "uint256[]",
          "name": "",
          "type": "uint256[]"
        }
      ],
      "stateMutability": "view",
      "type": "function",
      "constant": true
    },
    {
      "inputs": [],
      "name": "getUserDepositIdsForSender",
      "outputs": [
        {
          "internalType": "uint256[]",
          "name": "",
          "type": "uint256[]"
        }
      ],
      "stateMutability": "view",
      "type": "function",
      "constant": true
    },
    {
      "inputs": [
        {
          "internalType": "string",
          "name": "issueId",
          "type": "string"
        }
      ],
      "name": "depositEthForIssue",
      "outputs": [],
      "stateMutability": "payable",
      "type": "function",
      "payable": true
    },
    {
      "inputs": [
        {
          "internalType": "uint256",
          "name": "depositId",
          "type": "uint256"
        }
      ],
      "name": "refundIssueDeposit",
      "outputs": [],
      "stateMutability": "nonpayable",
      "type": "function"
    },
    {
      "inputs": [
        {
          "internalType": "string",
          "name": "issueId",
          "type": "string"
        }
      ],
      "name": "getIssueDepositIdsForIssueId",
      "outputs": [
        {
          "internalType": "uint256[]",
          "name": "",
          "type": "uint256[]"
        }
      ],
      "stateMutability": "view",
      "type": "function",
      "constant": true
    },
    {
      "inputs": [],
      "name": "getIssueDepositIdsForSender",
      "outputs": [
        {
          "internalType": "uint256[]",
          "name": "",
          "type": "uint256[]"
        }
      ],
      "stateMutability": "view",
      "type": "function",
      "constant": true
    },
    {
      "inputs": [
        {
          "internalType": "string",
          "name": "issueId",
          "type": "string"
        },
        {
          "internalType": "uint256",
          "name": "amount",
          "type": "uint256"
        }
      ],
      "name": "pinIssue",
      "outputs": [],
      "stateMutability": "nonpayable",
      "type": "function"
    },
    {
      "inputs": [
        {
          "internalType": "string",
          "name": "prId",
          "type": "string"
        },
        {
          "internalType": "string",
          "name": "githubUser",
          "type": "string"
        }
      ],
      "name": "claimPullRequest",
      "outputs": [],
      "stateMutability": "payable",
      "type": "function",
      "payable": true
    },
    {
      "inputs": [
        {
          "internalType": "string",
          "name": "prId",
          "type": "string"
        },
        {
          "internalType": "string",
          "name": "githubUser",
          "type": "string"
        },
        {
          "internalType": "uint256",
          "name": "score",
          "type": "uint256"
        }
      ],
      "name": "confirmClaimPullRequest",
      "outputs": [],
      "stateMutability": "nonpayable",
      "type": "function"
    },
    {
      "inputs": [
        {
          "internalType": "string",
          "name": "issueId",
          "type": "string"
        },
        {
          "internalType": "string",
          "name": "githubUser",
          "type": "string"
        }
      ],
      "name": "releaseIssueDeposits",
      "outputs": [],
      "stateMutability": "payable",
      "type": "function",
      "payable": true
    },
    {
      "inputs": [
        {
          "internalType": "string",
          "name": "issueId",
          "type": "string"
        },
        {
          "internalType": "string",
          "name": "githubUser",
          "type": "string"
        }
      ],
      "name": "confirmReleaseIssueDeposits",
      "outputs": [],
      "stateMutability": "nonpayable",
      "type": "function"
    }
  ],
  "bytecode": "0x60806040526000600a556000600e553480156200001b57600080fd5b506040518060400160405280600781526020017f4f63746f50696e000000000000000000000000000000000000000000000000008152506040518060400160405280600481526020017f4f50494e000000000000000000000000000000000000000000000000000000008152508160039080519060200190620000a092919062000228565b508060049080519060200190620000b992919062000228565b506012600560006101000a81548160ff021916908360ff16021790555050506000620000ea620001f660201b60201c565b905080600560016101000a81548173ffffffffffffffffffffffffffffffffffffffff021916908373ffffffffffffffffffffffffffffffffffffffff1602179055508073ffffffffffffffffffffffffffffffffffffffff16600073ffffffffffffffffffffffffffffffffffffffff167f8be0079c531659141344cd1fd0a4f28419497f9722a3daafe3b4186f6b6457e060405160405180910390a3506001600660006200019f620001fe60201b60201c565b73ffffffffffffffffffffffffffffffffffffffff1673ffffffffffffffffffffffffffffffffffffffff16815260200190815260200160002060006101000a81548160ff021916908315150217905550620002d7565b600033905090565b6000600560019054906101000a900473ffffffffffffffffffffffffffffffffffffffff16905090565b828054600181600116156101000203166002900490600052602060002090601f016020900481019282601f106200026b57805160ff19168380011785556200029c565b828001600101855582156200029c579182015b828111156200029b5782518255916020019190600101906200027e565b5b509050620002ab9190620002af565b5090565b620002d491905b80821115620002d0576000816000905550600101620002b6565b5090565b90565b61593c80620002e76000396000f3fe6080604052600436106102675760003560e01c8063716f9d2411610144578063c695389d116100b6578063efda0fd61161007a578063efda0fd6146109d8578063f2c298be146109f4578063f2fde38b14610a10578063f4b90ef714610a39578063f4c705ab14610a55578063fb95354a14610a7e57610267565b8063c695389d146108bb578063cb99390f146108f8578063ce85fc4614610935578063d5d85fa614610972578063dd62ed3e1461099b57610267565b806395d89b411161010857806395d89b41146107a85780639996f186146107d3578063a457c2d7146107ef578063a9059cbb1461082c578063b52acaab14610869578063c315fbca1461089257610267565b8063716f9d24146106c55780637400e6171461070257806384f8f6441461072b5780638617fc46146107545780638da5cb5b1461077d57610267565b806340739515116101dd5780635d3dd29d116101a15780635d3dd29d1461058f57806360445fb2146105cc5780636077321a146105f557806370388bf91461063457806370a0823114610671578063715018a6146106ae57610267565b806340739515146104a3578063454d0554146104ce57806350aea559146104f957806353a61ff91461053657806356bf7cce1461057357610267565b806318160ddd1161022f57806318160ddd1461035857806321ec48691461038357806323b872dd146103c1578063313ce567146103fe578063344ae07714610429578063395093511461046657610267565b806306fdde031461026c578063095b51a714610297578063095ea7b3146102b357806309d406a1146102f05780630cb5174714610319575b600080fd5b34801561027857600080fd5b50610281610aa9565b60405161028e91906152df565b60405180910390f35b6102b160048036038101906102ac919061422b565b610b4b565b005b3480156102bf57600080fd5b506102da60048036038101906102d59190614152565b610cfc565b6040516102e791906151f0565b60405180910390f35b3480156102fc57600080fd5b50610317600480360381019061031291906141d3565b610d1a565b005b34801561032557600080fd5b50610340600480360381019061033b91906143be565b610f4f565b60405161034f93929190615190565b60405180910390f35b34801561036457600080fd5b5061036d611031565b60405161037a9190615641565b60405180910390f35b34801561038f57600080fd5b506103aa60048036038101906103a59190614329565b61103b565b6040516103b8929190615135565b60405180910390f35b3480156103cd57600080fd5b506103e860048036038101906103e39190614103565b6110a2565b6040516103f591906151f0565b60405180910390f35b34801561040a57600080fd5b5061041361117b565b604051610420919061565c565b60405180910390f35b34801561043557600080fd5b50610450600480360381019061044b919061436a565b611192565b60405161045d9190615641565b60405180910390f35b34801561047257600080fd5b5061048d60048036038101906104889190614152565b6111d6565b60405161049a91906151f0565b60405180910390f35b3480156104af57600080fd5b506104b8611289565b6040516104c59190615641565b60405180910390f35b3480156104da57600080fd5b506104e361128f565b6040516104f091906151ce565b60405180910390f35b34801561050557600080fd5b50610520600480360381019061051b919061418e565b611324565b60405161052d91906151ce565b60405180910390f35b34801561054257600080fd5b5061055d6004803603810190610558919061418e565b61139d565b60405161056a91906151ce565b60405180910390f35b61058d6004803603810190610588919061422b565b611416565b005b34801561059b57600080fd5b506105b660048036038101906105b1919061436a565b611633565b6040516105c39190615641565b60405180910390f35b3480156105d857600080fd5b506105f360048036038101906105ee91906143be565b611677565b005b34801561060157600080fd5b5061061c600480360381019061061791906143be565b6117d0565b60405161062b93929190615190565b60405180910390f35b34801561064057600080fd5b5061065b60048036038101906106569190614329565b6118b2565b6040516106689190615641565b60405180910390f35b34801561067d57600080fd5b506106986004803603810190610693919061409e565b6118e0565b6040516106a59190615641565b60405180910390f35b3480156106ba57600080fd5b506106c3611928565b005b3480156106d157600080fd5b506106ec60048036038101906106e79190614152565b611a80565b6040516106f99190615641565b60405180910390f35b34801561070e57600080fd5b506107296004803603810190610724919061409e565b611aae565b005b34801561073757600080fd5b50610752600480360381019061074d919061436a565b611ca2565b005b34801561076057600080fd5b5061077b600480360381019061077691906143be565b611d1f565b005b34801561078957600080fd5b50610792611e78565b60405161079f91906150a8565b60405180910390f35b3480156107b457600080fd5b506107bd611ea2565b6040516107ca91906152df565b60405180910390f35b6107ed60048036038101906107e8919061418e565b611f44565b005b3480156107fb57600080fd5b5061081660048036038101906108119190614152565b612186565b60405161082391906151f0565b60405180910390f35b34801561083857600080fd5b50610853600480360381019061084e9190614152565b612253565b60405161086091906151f0565b60405180910390f35b34801561087557600080fd5b50610890600480360381019061088b91906142a0565b612271565b005b34801561089e57600080fd5b506108b960048036038101906108b491906143be565b6124ff565b005b3480156108c757600080fd5b506108e260048036038101906108dd9190614152565b6127ea565b6040516108ef9190615641565b60405180910390f35b34801561090457600080fd5b5061091f600480360381019061091a9190614329565b612818565b60405161092c91906151f0565b60405180910390f35b34801561094157600080fd5b5061095c6004803603810190610957919061409e565b61284e565b60405161096991906152df565b60405180910390f35b34801561097e57600080fd5b506109996004803603810190610994919061422b565b6128fe565b005b3480156109a757600080fd5b506109c260048036038101906109bd91906140c7565b612a63565b6040516109cf9190615641565b60405180910390f35b6109f260048036038101906109ed919061418e565b612aea565b005b610a0e6004803603810190610a09919061418e565b612d50565b005b348015610a1c57600080fd5b50610a376004803603810190610a32919061409e565b613030565b005b610a536004803603810190610a4e919061418e565b6131f7565b005b348015610a6157600080fd5b50610a7c6004803603810190610a77919061409e565b613439565b005b348015610a8a57600080fd5b50610a9361352b565b604051610aa091906151ce565b60405180910390f35b606060038054600181600116156101000203166002900480601f016020809104026020016040519081016040528092919081815260200182805460018160011615610100020316600290048015610b415780601f10610b1657610100808354040283529160200191610b41565b820191906000526020600020905b815481529060010190602001808311610b2457829003601f168201915b5050505050905090565b3a62010837023411610b92576040517f08c379a0000000000000000000000000000000000000000000000000000000008152600401610b89906155a1565b60405180910390fd5b6000151560138585604051610ba8929190615061565b908152602001604051809103902060009054906101000a900460ff16151514610c06576040517f08c379a0000000000000000000000000000000000000000000000000000000008152600401610bfd90615341565b60405180910390fd5b600073ffffffffffffffffffffffffffffffffffffffff1660078383604051610c30929190615061565b908152602001604051809103902060000160009054906101000a900473ffffffffffffffffffffffffffffffffffffffff1673ffffffffffffffffffffffffffffffffffffffff161415610cb9576040517f08c379a0000000000000000000000000000000000000000000000000000000008152600401610cb090615441565b60405180910390fd5b7f61f61b56d5bcc4600c378fe030b373305197bedb3f0060ea99d03860a33c474b84848484604051610cee949392919061520b565b60405180910390a150505050565b6000610d10610d096135c0565b84846135c8565b6001905092915050565b600660003373ffffffffffffffffffffffffffffffffffffffff1673ffffffffffffffffffffffffffffffffffffffff16815260200190815260200160002060009054906101000a900460ff16610da6576040517f08c379a0000000000000000000000000000000000000000000000000000000008152600401610d9d906155c1565b60405180910390fd5b600073ffffffffffffffffffffffffffffffffffffffff1660078484604051610dd0929190615061565b908152602001604051809103902060000160009054906101000a900473ffffffffffffffffffffffffffffffffffffffff1673ffffffffffffffffffffffffffffffffffffffff1614158015610e9457508073ffffffffffffffffffffffffffffffffffffffff1660078484604051610e4a929190615061565b908152602001604051809103902060000160009054906101000a900473ffffffffffffffffffffffffffffffffffffffff1673ffffffffffffffffffffffffffffffffffffffff16145b610ed3576040517f08c379a0000000000000000000000000000000000000000000000000000000008152600401610eca906153c1565b60405180910390fd5b600160078484604051610ee7929190615061565b908152602001604051809103902060000160146101000a81548160ff0219169083151502179055507f55e4fcf1c7b4b1a6190089eb7ef1c1ff91d67d66917edf141d6223003929828a818484604051610f429392919061515e565b60405180910390a1505050565b60096020528060005260406000206000915090508060000160009054906101000a900473ffffffffffffffffffffffffffffffffffffffff1690806001015490806002018054600181600116156101000203166002900480601f0160208091040260200160405190810160405280929190818152602001828054600181600116156101000203166002900480156110275780601f10610ffc57610100808354040283529160200191611027565b820191906000526020600020905b81548152906001019060200180831161100a57829003601f168201915b5050505050905083565b6000600254905090565b6007818051602081018201805184825260208301602085012081835280955050505050506000915090508060000160009054906101000a900473ffffffffffffffffffffffffffffffffffffffff16908060000160149054906101000a900460ff16905082565b60006110af848484613793565b611170846110bb6135c0565b61116b856040518060600160405280602881526020016158ba60289139600160008b73ffffffffffffffffffffffffffffffffffffffff1673ffffffffffffffffffffffffffffffffffffffff16815260200190815260200160002060006111216135c0565b73ffffffffffffffffffffffffffffffffffffffff1673ffffffffffffffffffffffffffffffffffffffff16815260200190815260200160002054613a289092919063ffffffff16565b6135c8565b600190509392505050565b6000600560009054906101000a900460ff16905090565b600f8280516020810182018051848252602083016020850120818352809550505050505081815481106111c157fe5b90600052602060002001600091509150505481565b600061127f6111e36135c0565b8461127a85600160006111f46135c0565b73ffffffffffffffffffffffffffffffffffffffff1673ffffffffffffffffffffffffffffffffffffffff16815260200190815260200160002060008973ffffffffffffffffffffffffffffffffffffffff1673ffffffffffffffffffffffffffffffffffffffff16815260200190815260200160002054613a8390919063ffffffff16565b6135c8565b6001905092915050565b600e5481565b6060600c60003373ffffffffffffffffffffffffffffffffffffffff1673ffffffffffffffffffffffffffffffffffffffff16815260200190815260200160002080548060200260200160405190810160405280929190818152602001828054801561131a57602002820191906000526020600020905b815481526020019060010190808311611306575b5050505050905090565b6060600f8383604051611338929190615061565b908152602001604051809103902080548060200260200160405190810160405280929190818152602001828054801561139057602002820191906000526020600020905b81548152602001906001019080831161137c575b5050505050905092915050565b6060600b83836040516113b1929190615061565b908152602001604051809103902080548060200260200160405190810160405280929190818152602001828054801561140957602002820191906000526020600020905b8154815260200190600101908083116113f5575b5050505050905092915050565b3a6201083702341161145d576040517f08c379a000000000000000000000000000000000000000000000000000000000815260040161145490615461565b60405180910390fd5b6000600f8585604051611471929190615061565b908152602001604051809103902080549050116114c3576040517f08c379a00000000000000000000000000000000000000000000000000000000081526004016114ba90615301565b60405180910390fd5b3373ffffffffffffffffffffffffffffffffffffffff166007600860003373ffffffffffffffffffffffffffffffffffffffff1673ffffffffffffffffffffffffffffffffffffffff1681526020019081526020016000206040516115289190615091565b908152602001604051809103902060000160009054906101000a900473ffffffffffffffffffffffffffffffffffffffff1673ffffffffffffffffffffffffffffffffffffffff16146115b0576040517f08c379a00000000000000000000000000000000000000000000000000000000081526004016115a790615561565b60405180910390fd5b7f657f014b97a2f4ed4787ac7ecba9f7abd8d4f3b110e461c700ab411f968cfe0784848484600860003373ffffffffffffffffffffffffffffffffffffffff1673ffffffffffffffffffffffffffffffffffffffff168152602001908152602001600020604051611625959493929190615246565b60405180910390a150505050565b600b82805160208101820180518482526020830160208501208183528095505050505050818154811061166257fe5b90600052602060002001600091509150505481565b3373ffffffffffffffffffffffffffffffffffffffff166009600083815260200190815260200160002060000160009054906101000a900473ffffffffffffffffffffffffffffffffffffffff1673ffffffffffffffffffffffffffffffffffffffff161461171b576040517f08c379a000000000000000000000000000000000000000000000000000000000815260040161171290615401565b60405180910390fd5b3373ffffffffffffffffffffffffffffffffffffffff166108fc60096000848152602001908152602001600020600101549081150290604051600060405180830381858888f19350505050158015611777573d6000803e3d6000fd5b5060096000828152602001908152602001600020600080820160006101000a81549073ffffffffffffffffffffffffffffffffffffffff021916905560018201600090556002820160006117cb9190613e69565b505050565b600d6020528060005260406000206000915090508060000160009054906101000a900473ffffffffffffffffffffffffffffffffffffffff1690806001015490806002018054600181600116156101000203166002900480601f0160208091040260200160405190810160405280929190818152602001828054600181600116156101000203166002900480156118a85780601f1061187d576101008083540402835291602001916118a8565b820191906000526020600020905b81548152906001019060200180831161188b57829003601f168201915b5050505050905083565b6012818051602081018201805184825260208301602085012081835280955050505050506000915090505481565b60008060008373ffffffffffffffffffffffffffffffffffffffff1673ffffffffffffffffffffffffffffffffffffffff168152602001908152602001600020549050919050565b6119306135c0565b73ffffffffffffffffffffffffffffffffffffffff16600560019054906101000a900473ffffffffffffffffffffffffffffffffffffffff1673ffffffffffffffffffffffffffffffffffffffff16146119bf576040517f08c379a00000000000000000000000000000000000000000000000000000000081526004016119b6906154e1565b60405180910390fd5b600073ffffffffffffffffffffffffffffffffffffffff16600560019054906101000a900473ffffffffffffffffffffffffffffffffffffffff1673ffffffffffffffffffffffffffffffffffffffff167f8be0079c531659141344cd1fd0a4f28419497f9722a3daafe3b4186f6b6457e060405160405180910390a36000600560016101000a81548173ffffffffffffffffffffffffffffffffffffffff021916908373ffffffffffffffffffffffffffffffffffffffff160217905550565b60106020528160005260406000208181548110611a9957fe5b90600052602060002001600091509150505481565b611ab66135c0565b73ffffffffffffffffffffffffffffffffffffffff16600560019054906101000a900473ffffffffffffffffffffffffffffffffffffffff1673ffffffffffffffffffffffffffffffffffffffff1614611b45576040517f08c379a0000000000000000000000000000000000000000000000000000000008152600401611b3c906154e1565b60405180910390fd5b600660008273ffffffffffffffffffffffffffffffffffffffff1673ffffffffffffffffffffffffffffffffffffffff16815260200190815260200160002060009054906101000a900460ff16611bd1576040517f08c379a0000000000000000000000000000000000000000000000000000000008152600401611bc890615541565b60405180910390fd5b611bd9611e78565b73ffffffffffffffffffffffffffffffffffffffff168173ffffffffffffffffffffffffffffffffffffffff161415611c47576040517f08c379a0000000000000000000000000000000000000000000000000000000008152600401611c3e90615421565b60405180910390fd5b6000600660008373ffffffffffffffffffffffffffffffffffffffff1673ffffffffffffffffffffffffffffffffffffffff16815260200190815260200160002060006101000a81548160ff02191690831515021790555050565b60008111611ce5576040517f08c379a0000000000000000000000000000000000000000000000000000000008152600401611cdc90615361565b60405180910390fd5b611cef3382613ad8565b80601283604051611d00919061507a565b9081526020016040518091039020600082825401925050819055505050565b3373ffffffffffffffffffffffffffffffffffffffff16600d600083815260200190815260200160002060000160009054906101000a900473ffffffffffffffffffffffffffffffffffffffff1673ffffffffffffffffffffffffffffffffffffffff1614611dc3576040517f08c379a0000000000000000000000000000000000000000000000000000000008152600401611dba90615401565b60405180910390fd5b3373ffffffffffffffffffffffffffffffffffffffff166108fc600d6000848152602001908152602001600020600101549081150290604051600060405180830381858888f19350505050158015611e1f573d6000803e3d6000fd5b50600d6000828152602001908152602001600020600080820160006101000a81549073ffffffffffffffffffffffffffffffffffffffff02191690556001820160009055600282016000611e739190613e69565b505050565b6000600560019054906101000a900473ffffffffffffffffffffffffffffffffffffffff16905090565b606060048054600181600116156101000203166002900480601f016020809104026020016040519081016040528092919081815260200182805460018160011615610100020316600290048015611f3a5780601f10611f0f57610100808354040283529160200191611f3a565b820191906000526020600020905b815481529060010190602001808311611f1d57829003601f168201915b5050505050905090565b60003411611f87576040517f08c379a0000000000000000000000000000000000000000000000000000000008152600401611f7e90615601565b60405180910390fd5b600a6000815480929190600101919050555060405180606001604052803373ffffffffffffffffffffffffffffffffffffffff16815260200134815260200183838080601f016020809104026020016040519081016040528093929190818152602001838380828437600081840152601f19601f8201169050808301925050505050505081525060096000600a54815260200190815260200160002060008201518160000160006101000a81548173ffffffffffffffffffffffffffffffffffffffff021916908373ffffffffffffffffffffffffffffffffffffffff160217905550602082015181600101556040820151816002019080519060200190612090929190613eb1565b50905050600b82826040516120a6929190615061565b9081526020016040518091039020600a549080600181540180825580915050600190039060005260206000200160009091909190915055600c60003373ffffffffffffffffffffffffffffffffffffffff1673ffffffffffffffffffffffffffffffffffffffff168152602001908152602001600020600a5490806001815401808255809150506001900390600052602060002001600090919091909150557f406551011d3a3874d102c2ee25adb004adb6d90a8134f04c14bd02f73ad4a3d03334848460405161217a94939291906150f5565b60405180910390a15050565b60006122496121936135c0565b84612244856040518060600160405280602581526020016158e260259139600160006121bd6135c0565b73ffffffffffffffffffffffffffffffffffffffff1673ffffffffffffffffffffffffffffffffffffffff16815260200190815260200160002060008a73ffffffffffffffffffffffffffffffffffffffff1673ffffffffffffffffffffffffffffffffffffffff16815260200190815260200160002054613a289092919063ffffffff16565b6135c8565b6001905092915050565b60006122676122606135c0565b8484613793565b6001905092915050565b600660003373ffffffffffffffffffffffffffffffffffffffff1673ffffffffffffffffffffffffffffffffffffffff16815260200190815260200160002060009054906101000a900460ff166122fd576040517f08c379a00000000000000000000000000000000000000000000000000000000081526004016122f4906155c1565b60405180910390fd5b6000151560138686604051612313929190615061565b908152602001604051809103902060009054906101000a900460ff16151514612371576040517f08c379a000000000000000000000000000000000000000000000000000000000815260040161236890615341565b60405180910390fd5b600073ffffffffffffffffffffffffffffffffffffffff166007848460405161239b929190615061565b908152602001604051809103902060000160009054906101000a900473ffffffffffffffffffffffffffffffffffffffff1673ffffffffffffffffffffffffffffffffffffffff161415612424576040517f08c379a000000000000000000000000000000000000000000000000000000000815260040161241b90615441565b60405180910390fd5b600160138686604051612438929190615061565b908152602001604051809103902060006101000a81548160ff0219169083151502179055506124b960078484604051612472929190615061565b908152602001604051809103902060000160009054906101000a900473ffffffffffffffffffffffffffffffffffffffff166124ac61117b565b60ff16600a0a8302613c86565b7fe0ca3b0d5f07049a3975315a95eadf935a046d8c67c4660d0f5fd3f5bf600a4285858585856040516124f0959493929190615296565b60405180910390a15050505050565b3373ffffffffffffffffffffffffffffffffffffffff166007600860003373ffffffffffffffffffffffffffffffffffffffff1673ffffffffffffffffffffffffffffffffffffffff1681526020019081526020016000206040516125649190615091565b908152602001604051809103902060000160009054906101000a900473ffffffffffffffffffffffffffffffffffffffff1673ffffffffffffffffffffffffffffffffffffffff16146125ec576040517f08c379a00000000000000000000000000000000000000000000000000000000081526004016125e3906155e1565b60405180910390fd5b600860003373ffffffffffffffffffffffffffffffffffffffff1673ffffffffffffffffffffffffffffffffffffffff168152602001908152602001600020604051612638919061504a565b604051809103902060096000838152602001908152602001600020600201604051612663919061504a565b6040518091039020146126ab576040517f08c379a00000000000000000000000000000000000000000000000000000000081526004016126a290615481565b60405180910390fd5b3373ffffffffffffffffffffffffffffffffffffffff166108fc60096000848152602001908152602001600020600101549081150290604051600060405180830381858888f19350505050158015612707573d6000803e3d6000fd5b506127686009600083815260200190815260200160002060000160009054906101000a900473ffffffffffffffffffffffffffffffffffffffff16606460096000858152602001908152602001600020600101548161276257fe5b04613c86565b61279233606460096000858152602001908152602001600020600101548161278c57fe5b04613c86565b60096000828152602001908152602001600020600080820160006101000a81549073ffffffffffffffffffffffffffffffffffffffff021916905560018201600090556002820160006127e59190613e69565b505050565b600c602052816000526040600020818154811061280357fe5b90600052602060002001600091509150505481565b6013818051602081018201805184825260208301602085012081835280955050505050506000915054906101000a900460ff1681565b60086020528060005260406000206000915090508054600181600116156101000203166002900480601f0160208091040260200160405190810160405280929190818152602001828054600181600116156101000203166002900480156128f65780601f106128cb576101008083540402835291602001916128f6565b820191906000526020600020905b8154815290600101906020018083116128d957829003601f168201915b505050505081565b600660003373ffffffffffffffffffffffffffffffffffffffff1673ffffffffffffffffffffffffffffffffffffffff16815260200190815260200160002060009054906101000a900460ff1661298a576040517f08c379a0000000000000000000000000000000000000000000000000000000008152600401612981906155c1565b60405180910390fd5b6000600f858560405161299e929190615061565b908152602001604051809103902080549050116129f0576040517f08c379a00000000000000000000000000000000000000000000000000000000081526004016129e790615301565b60405180910390fd5b818160118686604051612a04929190615061565b90815260200160405180910390209190612a1f929190613f31565b507f8e4659e4d33c645b2bedcc914a0afbe44379f0e73b253214800b377237d9333b84848484604051612a55949392919061520b565b60405180910390a150505050565b6000600160008473ffffffffffffffffffffffffffffffffffffffff1673ffffffffffffffffffffffffffffffffffffffff16815260200190815260200160002060008373ffffffffffffffffffffffffffffffffffffffff1673ffffffffffffffffffffffffffffffffffffffff16815260200190815260200160002054905092915050565b60003411612b2d576040517f08c379a0000000000000000000000000000000000000000000000000000000008152600401612b2490615601565b60405180910390fd5b600073ffffffffffffffffffffffffffffffffffffffff1660078383604051612b57929190615061565b908152602001604051809103902060000160009054906101000a900473ffffffffffffffffffffffffffffffffffffffff1673ffffffffffffffffffffffffffffffffffffffff161415612be0576040517f08c379a0000000000000000000000000000000000000000000000000000000008152600401612bd790615441565b60405180910390fd5b6001151560078383604051612bf6929190615061565b908152602001604051809103902060000160149054906101000a900460ff16151514612c57576040517f08c379a0000000000000000000000000000000000000000000000000000000008152600401612c4e906154c1565b60405180910390fd5b60078282604051612c69929190615061565b908152602001604051809103902060000160009054906101000a900473ffffffffffffffffffffffffffffffffffffffff1673ffffffffffffffffffffffffffffffffffffffff166108fc349081150290604051600060405180830381858888f19350505050158015612ce0573d6000803e3d6000fd5b50612d3860078383604051612cf6929190615061565b908152602001604051809103902060000160009054906101000a900473ffffffffffffffffffffffffffffffffffffffff1660643481612d3257fe5b04613c86565b612d4c3360643481612d4657fe5b04613c86565b5050565b3a618769023411612d96576040517f08c379a0000000000000000000000000000000000000000000000000000000008152600401612d8d906154a1565b60405180910390fd5b600073ffffffffffffffffffffffffffffffffffffffff1660078383604051612dc0929190615061565b908152602001604051809103902060000160009054906101000a900473ffffffffffffffffffffffffffffffffffffffff1673ffffffffffffffffffffffffffffffffffffffff1614612e9c576008600060078484604051612e23929190615061565b908152602001604051809103902060000160009054906101000a900473ffffffffffffffffffffffffffffffffffffffff1673ffffffffffffffffffffffffffffffffffffffff1673ffffffffffffffffffffffffffffffffffffffff1681526020019081526020016000206000612e9b9190613e69565b5b60405180604001604052803373ffffffffffffffffffffffffffffffffffffffff1681526020016000151581525060078383604051612edc929190615061565b908152602001604051809103902060008201518160000160006101000a81548173ffffffffffffffffffffffffffffffffffffffff021916908373ffffffffffffffffffffffffffffffffffffffff16021790555060208201518160000160146101000a81548160ff0219169083151502179055509050508181600860003373ffffffffffffffffffffffffffffffffffffffff1673ffffffffffffffffffffffffffffffffffffffff1681526020019081526020016000209190612fa2929190613f31565b50612fab611e78565b73ffffffffffffffffffffffffffffffffffffffff166108fc349081150290604051600060405180830381858888f19350505050158015612ff0573d6000803e3d6000fd5b507fd417e304669e6bf903f41a03f5ce981dac00416cf5034cd47d22fcb0c67c96bd338383604051613024939291906150c3565b60405180910390a15050565b6130386135c0565b73ffffffffffffffffffffffffffffffffffffffff16600560019054906101000a900473ffffffffffffffffffffffffffffffffffffffff1673ffffffffffffffffffffffffffffffffffffffff16146130c7576040517f08c379a00000000000000000000000000000000000000000000000000000000081526004016130be906154e1565b60405180910390fd5b600073ffffffffffffffffffffffffffffffffffffffff168173ffffffffffffffffffffffffffffffffffffffff161415613137576040517f08c379a000000000000000000000000000000000000000000000000000000000815260040161312e90615381565b60405180910390fd5b8073ffffffffffffffffffffffffffffffffffffffff16600560019054906101000a900473ffffffffffffffffffffffffffffffffffffffff1673ffffffffffffffffffffffffffffffffffffffff167f8be0079c531659141344cd1fd0a4f28419497f9722a3daafe3b4186f6b6457e060405160405180910390a380600560016101000a81548173ffffffffffffffffffffffffffffffffffffffff021916908373ffffffffffffffffffffffffffffffffffffffff16021790555050565b6000341161323a576040517f08c379a000000000000000000000000000000000000000000000000000000000815260040161323190615601565b60405180910390fd5b600e6000815480929190600101919050555060405180606001604052803373ffffffffffffffffffffffffffffffffffffffff16815260200134815260200183838080601f016020809104026020016040519081016040528093929190818152602001838380828437600081840152601f19601f82011690508083019250505050505050815250600d6000600e54815260200190815260200160002060008201518160000160006101000a81548173ffffffffffffffffffffffffffffffffffffffff021916908373ffffffffffffffffffffffffffffffffffffffff160217905550602082015181600101556040820151816002019080519060200190613343929190613eb1565b50905050600f8282604051613359929190615061565b9081526020016040518091039020600e549080600181540180825580915050600190039060005260206000200160009091909190915055601060003373ffffffffffffffffffffffffffffffffffffffff1673ffffffffffffffffffffffffffffffffffffffff168152602001908152602001600020600e5490806001815401808255809150506001900390600052602060002001600090919091909150557f08c7c4039b7c98d46cb4ebb0f96ca6a67a506db7c3ddd814f88dd3cfd24e2ae93334848460405161342d94939291906150f5565b60405180910390a15050565b6134416135c0565b73ffffffffffffffffffffffffffffffffffffffff16600560019054906101000a900473ffffffffffffffffffffffffffffffffffffffff1673ffffffffffffffffffffffffffffffffffffffff16146134d0576040517f08c379a00000000000000000000000000000000000000000000000000000000081526004016134c7906154e1565b60405180910390fd5b6001600660008373ffffffffffffffffffffffffffffffffffffffff1673ffffffffffffffffffffffffffffffffffffffff16815260200190815260200160002060006101000a81548160ff02191690831515021790555050565b6060601060003373ffffffffffffffffffffffffffffffffffffffff1673ffffffffffffffffffffffffffffffffffffffff1681526020019081526020016000208054806020026020016040519081016040528092919081815260200182805480156135b657602002820191906000526020600020905b8154815260200190600101908083116135a2575b5050505050905090565b600033905090565b600073ffffffffffffffffffffffffffffffffffffffff168373ffffffffffffffffffffffffffffffffffffffff161415613638576040517f08c379a000000000000000000000000000000000000000000000000000000000815260040161362f90615581565b60405180910390fd5b600073ffffffffffffffffffffffffffffffffffffffff168273ffffffffffffffffffffffffffffffffffffffff1614156136a8576040517f08c379a000000000000000000000000000000000000000000000000000000000815260040161369f906153a1565b60405180910390fd5b80600160008573ffffffffffffffffffffffffffffffffffffffff1673ffffffffffffffffffffffffffffffffffffffff16815260200190815260200160002060008473ffffffffffffffffffffffffffffffffffffffff1673ffffffffffffffffffffffffffffffffffffffff168152602001908152602001600020819055508173ffffffffffffffffffffffffffffffffffffffff168373ffffffffffffffffffffffffffffffffffffffff167f8c5be1e5ebec7d5bd14f71427d1e84f3dd0314c0f7b2291e5b200ac8c7c3b925836040516137869190615641565b60405180910390a3505050565b600073ffffffffffffffffffffffffffffffffffffffff168373ffffffffffffffffffffffffffffffffffffffff161415613803576040517f08c379a00000000000000000000000000000000000000000000000000000000081526004016137fa90615521565b60405180910390fd5b600073ffffffffffffffffffffffffffffffffffffffff168273ffffffffffffffffffffffffffffffffffffffff161415613873576040517f08c379a000000000000000000000000000000000000000000000000000000000815260040161386a90615321565b60405180910390fd5b61387e838383613e1a565b6138e981604051806060016040528060268152602001615894602691396000808773ffffffffffffffffffffffffffffffffffffffff1673ffffffffffffffffffffffffffffffffffffffff16815260200190815260200160002054613a289092919063ffffffff16565b6000808573ffffffffffffffffffffffffffffffffffffffff1673ffffffffffffffffffffffffffffffffffffffff1681526020019081526020016000208190555061397c816000808573ffffffffffffffffffffffffffffffffffffffff1673ffffffffffffffffffffffffffffffffffffffff16815260200190815260200160002054613a8390919063ffffffff16565b6000808473ffffffffffffffffffffffffffffffffffffffff1673ffffffffffffffffffffffffffffffffffffffff168152602001908152602001600020819055508173ffffffffffffffffffffffffffffffffffffffff168373ffffffffffffffffffffffffffffffffffffffff167fddf252ad1be2c89b69c2b068fc378daa952ba7f163c4a11628f55a4df523b3ef83604051613a1b9190615641565b60405180910390a3505050565b6000838311158290613a70576040517f08c379a0000000000000000000000000000000000000000000000000000000008152600401613a6791906152df565b60405180910390fd5b5060008385039050809150509392505050565b600080828401905083811015613ace576040517f08c379a0000000000000000000000000000000000000000000000000000000008152600401613ac5906153e1565b60405180910390fd5b8091505092915050565b600073ffffffffffffffffffffffffffffffffffffffff168273ffffffffffffffffffffffffffffffffffffffff161415613b48576040517f08c379a0000000000000000000000000000000000000000000000000000000008152600401613b3f90615501565b60405180910390fd5b613b5482600083613e1a565b613bbf81604051806060016040528060228152602001615872602291396000808673ffffffffffffffffffffffffffffffffffffffff1673ffffffffffffffffffffffffffffffffffffffff16815260200190815260200160002054613a289092919063ffffffff16565b6000808473ffffffffffffffffffffffffffffffffffffffff1673ffffffffffffffffffffffffffffffffffffffff16815260200190815260200160002081905550613c1681600254613e1f90919063ffffffff16565b600281905550600073ffffffffffffffffffffffffffffffffffffffff168273ffffffffffffffffffffffffffffffffffffffff167fddf252ad1be2c89b69c2b068fc378daa952ba7f163c4a11628f55a4df523b3ef83604051613c7a9190615641565b60405180910390a35050565b600073ffffffffffffffffffffffffffffffffffffffff168273ffffffffffffffffffffffffffffffffffffffff161415613cf6576040517f08c379a0000000000000000000000000000000000000000000000000000000008152600401613ced90615621565b60405180910390fd5b613d0260008383613e1a565b613d1781600254613a8390919063ffffffff16565b600281905550613d6e816000808573ffffffffffffffffffffffffffffffffffffffff1673ffffffffffffffffffffffffffffffffffffffff16815260200190815260200160002054613a8390919063ffffffff16565b6000808473ffffffffffffffffffffffffffffffffffffffff1673ffffffffffffffffffffffffffffffffffffffff168152602001908152602001600020819055508173ffffffffffffffffffffffffffffffffffffffff16600073ffffffffffffffffffffffffffffffffffffffff167fddf252ad1be2c89b69c2b068fc378daa952ba7f163c4a11628f55a4df523b3ef83604051613e0e9190615641565b60405180910390a35050565b505050565b6000613e6183836040518060400160405280601e81526020017f536166654d6174683a207375627472616374696f6e206f766572666c6f770000815250613a28565b905092915050565b50805460018160011615610100020316600290046000825580601f10613e8f5750613eae565b601f016020900490600052602060002090810190613ead9190613fb1565b5b50565b828054600181600116156101000203166002900490600052602060002090601f016020900481019282601f10613ef257805160ff1916838001178555613f20565b82800160010185558215613f20579182015b82811115613f1f578251825591602001919060010190613f04565b5b509050613f2d9190613fb1565b5090565b828054600181600116156101000203166002900490600052602060002090601f016020900481019282601f10613f7257803560ff1916838001178555613fa0565b82800160010185558215613fa0579182015b82811115613f9f578235825591602001919060010190613f84565b5b509050613fad9190613fb1565b5090565b613fd391905b80821115613fcf576000816000905550600101613fb7565b5090565b90565b600081359050613fe581615843565b92915050565b60008083601f840112613ffd57600080fd5b8235905067ffffffffffffffff81111561401657600080fd5b60208301915083600182028301111561402e57600080fd5b9250929050565b600082601f83011261404657600080fd5b8135614059614054826156a4565b615677565b9150808252602083016020830185838301111561407557600080fd5b6140808382846157f0565b50505092915050565b6000813590506140988161585a565b92915050565b6000602082840312156140b057600080fd5b60006140be84828501613fd6565b91505092915050565b600080604083850312156140da57600080fd5b60006140e885828601613fd6565b92505060206140f985828601613fd6565b9150509250929050565b60008060006060848603121561411857600080fd5b600061412686828701613fd6565b935050602061413786828701613fd6565b925050604061414886828701614089565b9150509250925092565b6000806040838503121561416557600080fd5b600061417385828601613fd6565b925050602061418485828601614089565b9150509250929050565b600080602083850312156141a157600080fd5b600083013567ffffffffffffffff8111156141bb57600080fd5b6141c785828601613feb565b92509250509250929050565b6000806000604084860312156141e857600080fd5b600084013567ffffffffffffffff81111561420257600080fd5b61420e86828701613feb565b9350935050602061422186828701613fd6565b9150509250925092565b6000806000806040858703121561424157600080fd5b600085013567ffffffffffffffff81111561425b57600080fd5b61426787828801613feb565b9450945050602085013567ffffffffffffffff81111561428657600080fd5b61429287828801613feb565b925092505092959194509250565b6000806000806000606086880312156142b857600080fd5b600086013567ffffffffffffffff8111156142d257600080fd5b6142de88828901613feb565b9550955050602086013567ffffffffffffffff8111156142fd57600080fd5b61430988828901613feb565b9350935050604061431c88828901614089565b9150509295509295909350565b60006020828403121561433b57600080fd5b600082013567ffffffffffffffff81111561435557600080fd5b61436184828501614035565b91505092915050565b6000806040838503121561437d57600080fd5b600083013567ffffffffffffffff81111561439757600080fd5b6143a385828601614035565b92505060206143b485828601614089565b9150509250929050565b6000602082840312156143d057600080fd5b60006143de84828501614089565b91505092915050565b60006143f3838361501d565b60208301905092915050565b614408816157ba565b82525050565b61441781615765565b82525050565b60006144288261570a565b614432818561572d565b935061443d836156d0565b8060005b8381101561446e57815161445588826143e7565b975061446083615720565b925050600181019050614441565b5085935050505092915050565b61448481615777565b82525050565b6000815460018116600081146144a757600181146144cc57614510565b607f60028304166144b8818761573e565b955060ff1983168652808601935050614510565b600282046144da818761573e565b95506144e5856156e0565b60005b82811015614507578154818901526001820191506020810190506144e8565b82880195505050505b505092915050565b60006145248385615749565b93506145318385846157f0565b61453a83615832565b840190509392505050565b6000614551838561575a565b935061455e8385846157f0565b82840190509392505050565b600061457582615715565b61457f8185615749565b935061458f8185602086016157ff565b61459881615832565b840191505092915050565b60006145ae82615715565b6145b8818561575a565b93506145c88185602086016157ff565b80840191505092915050565b6000815460018116600081146145f157600181146146175761465b565b607f60028304166146028187615749565b955060ff19831686526020860193505061465b565b600282046146258187615749565b9550614630856156f5565b60005b8281101561465257815481890152600182019150602081019050614633565b80880195505050505b505092915050565b60008154600181166000811461468057600181146146a5576146e9565b607f6002830416614691818761575a565b955060ff19831686528086019350506146e9565b600282046146b3818761575a565b95506146be856156f5565b60005b828110156146e0578154818901526001820191506020810190506146c1565b82880195505050505b505092915050565b60006146fe602183615749565b91507f497373756520686173206e6f206465706f7369747320746f2072656c6561736560008301527f2e000000000000000000000000000000000000000000000000000000000000006020830152604082019050919050565b6000614764602383615749565b91507f45524332303a207472616e7366657220746f20746865207a65726f206164647260008301527f65737300000000000000000000000000000000000000000000000000000000006020830152604082019050919050565b60006147ca601d83615749565b91507f50756c6c207265717565737420616c726561647920636c61696d65642e0000006000830152602082019050919050565b600061480a601c83615749565b91507f416d6f756e74206d7573742062652067726561746572207a65726f2e000000006000830152602082019050919050565b600061484a602683615749565b91507f4f776e61626c653a206e6577206f776e657220697320746865207a65726f206160008301527f64647265737300000000000000000000000000000000000000000000000000006020830152604082019050919050565b60006148b0602283615749565b91507f45524332303a20617070726f766520746f20746865207a65726f20616464726560008301527f73730000000000000000000000000000000000000000000000000000000000006020830152604082019050919050565b6000614916602e83615749565b91507f54686973206163636f756e7420636f6e6669726d6174696f6e20776173206e6560008301527f766572207265717565737465642e0000000000000000000000000000000000006020830152604082019050919050565b600061497c601b83615749565b91507f536166654d6174683a206164646974696f6e206f766572666c6f7700000000006000830152602082019050919050565b60006149bc603083615749565b91507f4465706f73697420646964206e6f742063616d652066726f6d2074686973204560008301527f7468657265756d206163636f756e742e000000000000000000000000000000006020830152604082019050919050565b6000614a22602083615749565b91507f4f776e6572206f7261636c652063616e206e6f742062652072656d6f7665642e6000830152602082019050919050565b6000614a62602383615749565b91507f54686973204769744875622055736572206973206e6f7420726567697374657260008301527f65642e00000000000000000000000000000000000000000000000000000000006020830152604082019050919050565b6000614ac8602683615749565b91507f52656c656173652066656520286f7261636c6520636f737429206e6f7420636f60008301527f76657265642e00000000000000000000000000000000000000000000000000006020830152604082019050919050565b6000614b2e602783615749565b91507f4465706f736974206973206e6f7420666f72207468697320476974487562206160008301527f63636f756e742e000000000000000000000000000000000000000000000000006020830152604082019050919050565b6000614b94602b83615749565b91507f526567697374726174696f6e2066656520286f7261636c6520636f737429206e60008301527f6f7420636f76657265642e0000000000000000000000000000000000000000006020830152604082019050919050565b6000614bfa602683615749565b91507f54686973204769744875622055736572206973206e6f7420636f6e6669726d6560008301527f64207965742e00000000000000000000000000000000000000000000000000006020830152604082019050919050565b6000614c60602083615749565b91507f4f776e61626c653a2063616c6c6572206973206e6f7420746865206f776e65726000830152602082019050919050565b6000614ca0602183615749565b91507f45524332303a206275726e2066726f6d20746865207a65726f2061646472657360008301527f73000000000000000000000000000000000000000000000000000000000000006020830152604082019050919050565b6000614d06602583615749565b91507f45524332303a207472616e736665722066726f6d20746865207a65726f20616460008301527f64726573730000000000000000000000000000000000000000000000000000006020830152604082019050919050565b6000614d6c601783615749565b91507f4f7261636c6520646f6573206e6f74206578697374732e0000000000000000006000830152602082019050919050565b6000614dac603883615749565b91507f4e6f20476974487562206163636f756e7420726567697374657265642077697460008301527f68207468697320457468657265756d206163636f756e742e00000000000000006020830152604082019050919050565b6000614e12602483615749565b91507f45524332303a20617070726f76652066726f6d20746865207a65726f2061646460008301527f72657373000000000000000000000000000000000000000000000000000000006020830152604082019050919050565b6000614e78602483615749565b91507f436c61696d2066656520286f7261636c6520636f737429206e6f7420636f766560008301527f7265642e000000000000000000000000000000000000000000000000000000006020830152604082019050919050565b6000614ede602483615749565b91507f4f6e6c79206f7261636c65732063616e20636f6e6669726d206f70657261746960008301527f6f6e732e000000000000000000000000000000000000000000000000000000006020830152604082019050919050565b6000614f44603983615749565b91507f476974487562206163636f756e74206e6f74207265676973746572656420776960008301527f7468207468697320457468657265756d206163636f756e742e000000000000006020830152604082019050919050565b6000614faa601283615749565b91507f596f75206d7573742073656e64204554482e00000000000000000000000000006000830152602082019050919050565b6000614fea601f83615749565b91507f45524332303a206d696e7420746f20746865207a65726f2061646472657373006000830152602082019050919050565b615026816157a3565b82525050565b615035816157a3565b82525050565b615044816157ad565b82525050565b6000615056828461448a565b915081905092915050565b600061506e828486614545565b91508190509392505050565b600061508682846145a3565b915081905092915050565b600061509d8284614663565b915081905092915050565b60006020820190506150bd600083018461440e565b92915050565b60006040820190506150d860008301866143ff565b81810360208301526150eb818486614518565b9050949350505050565b600060608201905061510a60008301876143ff565b615117602083018661502c565b818103604083015261512a818486614518565b905095945050505050565b600060408201905061514a600083018561440e565b615157602083018461447b565b9392505050565b6000604082019050615173600083018661440e565b8181036020830152615186818486614518565b9050949350505050565b60006060820190506151a5600083018661440e565b6151b2602083018561502c565b81810360408301526151c4818461456a565b9050949350505050565b600060208201905081810360008301526151e8818461441d565b905092915050565b6000602082019050615205600083018461447b565b92915050565b60006040820190508181036000830152615226818688614518565b9050818103602083015261523b818486614518565b905095945050505050565b60006060820190508181036000830152615261818789614518565b90508181036020830152615276818587614518565b9050818103604083015261528a81846145d4565b90509695505050505050565b600060608201905081810360008301526152b1818789614518565b905081810360208301526152c6818587614518565b90506152d5604083018461502c565b9695505050505050565b600060208201905081810360008301526152f9818461456a565b905092915050565b6000602082019050818103600083015261531a816146f1565b9050919050565b6000602082019050818103600083015261533a81614757565b9050919050565b6000602082019050818103600083015261535a816147bd565b9050919050565b6000602082019050818103600083015261537a816147fd565b9050919050565b6000602082019050818103600083015261539a8161483d565b9050919050565b600060208201905081810360008301526153ba816148a3565b9050919050565b600060208201905081810360008301526153da81614909565b9050919050565b600060208201905081810360008301526153fa8161496f565b9050919050565b6000602082019050818103600083015261541a816149af565b9050919050565b6000602082019050818103600083015261543a81614a15565b9050919050565b6000602082019050818103600083015261545a81614a55565b9050919050565b6000602082019050818103600083015261547a81614abb565b9050919050565b6000602082019050818103600083015261549a81614b21565b9050919050565b600060208201905081810360008301526154ba81614b87565b9050919050565b600060208201905081810360008301526154da81614bed565b9050919050565b600060208201905081810360008301526154fa81614c53565b9050919050565b6000602082019050818103600083015261551a81614c93565b9050919050565b6000602082019050818103600083015261553a81614cf9565b9050919050565b6000602082019050818103600083015261555a81614d5f565b9050919050565b6000602082019050818103600083015261557a81614d9f565b9050919050565b6000602082019050818103600083015261559a81614e05565b9050919050565b600060208201905081810360008301526155ba81614e6b565b9050919050565b600060208201905081810360008301526155da81614ed1565b9050919050565b600060208201905081810360008301526155fa81614f37565b9050919050565b6000602082019050818103600083015261561a81614f9d565b9050919050565b6000602082019050818103600083015261563a81614fdd565b9050919050565b6000602082019050615656600083018461502c565b92915050565b6000602082019050615671600083018461503b565b92915050565b6000604051905081810181811067ffffffffffffffff8211171561569a57600080fd5b8060405250919050565b600067ffffffffffffffff8211156156bb57600080fd5b601f19601f8301169050602081019050919050565b6000819050602082019050919050565b60008190508160005260206000209050919050565b60008190508160005260206000209050919050565b600081519050919050565b600081519050919050565b6000602082019050919050565b600082825260208201905092915050565b600081905092915050565b600082825260208201905092915050565b600081905092915050565b600061577082615783565b9050919050565b60008115159050919050565b600073ffffffffffffffffffffffffffffffffffffffff82169050919050565b6000819050919050565b600060ff82169050919050565b60006157c5826157cc565b9050919050565b60006157d7826157de565b9050919050565b60006157e982615783565b9050919050565b82818337600083830152505050565b60005b8381101561581d578082015181840152602081019050615802565b8381111561582c576000848401525b50505050565b6000601f19601f8301169050919050565b61584c81615765565b811461585757600080fd5b50565b615863816157a3565b811461586e57600080fd5b5056fe45524332303a206275726e20616d6f756e7420657863656564732062616c616e636545524332303a207472616e7366657220616d6f756e7420657863656564732062616c616e636545524332303a207472616e7366657220616d6f756e74206578636565647320616c6c6f77616e636545524332303a2064656372656173656420616c6c6f77616e63652062656c6f77207a65726fa26469706673582212209e400bc418d2e7e72022837bbf82cdd9891c79c120255bd6d7a57061c69cf56b64736f6c63430006060033",
  "immutableReferences": {},
  "source": "// SPDX-License-Identifier: MIT\npragma solidity ^0.6.0;\npragma experimental ABIEncoderV2;\n\nimport \"@openzeppelin/contracts/token/ERC20/ERC20.sol\";\nimport \"@openzeppelin/contracts/access/Ownable.sol\";\nimport \"./MergeToken.sol\";\n\ncontract MergePay is ERC20, Ownable {\n  struct User {\n    address account;\n    bool confirmed;\n  }\n\n  struct UserDeposit {\n    address from;\n    uint256 amount;\n    string githubUser;\n  }\n\n  struct IssueDeposit {\n    address from;\n    uint256 amount;\n    string issueId;\n  }\n\n  event RegistrationRequestEvent(address account, string githubUser);\n  event RegistrationConfirmedEvent(address account, string githubUser);\n  event ClaimPrRequestEvent(string prId, string githubUser);\n  event ClaimPrConfirmEvent(string prId, string githubUser, uint256 score);\n  event UserDepositEvent(address account, uint256 amount, string githubUser);\n  event IssueDepositEvent(address account, uint256 amount, string issueId);\n  event ReleaseIssueDepositsRequestEvent(string issueId, string githubUser, string owner);\n  event ReleaseIssueDepositsConfirmEvent(string issueId, string githubUser);\n\n  mapping(address => bool) private _oracles;\n\n  mapping(string => User) public _users;\n  mapping(address => string) public _usersByAddress;\n\n  mapping(uint256 => UserDeposit) public _userDeposits;\n  uint256 private _nextUserDepositId = 0;\n  mapping(string => uint256[]) public _userDepositIdsByGithubUser;\n  mapping(address => uint256[]) public _userDepositIdsBySender;\n\n  mapping(uint256 => IssueDeposit) public _issueDeposits;\n  uint256 public _nextIssueDepositId = 0;\n  mapping(string => uint256[]) public _issueDepositIdsByIssueId;\n  mapping(address => uint256[]) public _issueDepositIdsBySender;\n\n  mapping(string => string) _releasedIssues;\n\n  mapping(string => uint256) public _issueBoosts;\n  mapping(string => bool) public _claimedPullRequests;\n\n  modifier onlyOracles {\n    require(_oracles[msg.sender], \"Only oracles can confirm operations.\");\n    _;\n  }\n\n  /// @dev Initiates MergeToken and set owner as oracle.\n  constructor() ERC20(\"OctoPin\", \"OPIN\") public {\n    _oracles[owner()] = true;\n  }\n\n  /// @param oracle The oracle address to add\n  function enableOracle(address oracle) external onlyOwner {\n    _oracles[oracle] = true;\n  }\n\n  /// @param oracle The oracle address to remove (cannot be owner)\n  function disableOracle(address oracle) external onlyOwner {\n    require(_oracles[oracle], \"Oracle does not exists.\");\n    require(oracle != owner(), \"Owner oracle can not be removed.\");\n    _oracles[oracle] = false;\n  }\n\n  /// @dev Verify ownership over GitHub account by checking for a repositry of\n  /// @dev githubUser named after msg.sender. Adds user as unconfirmed and sends\n  /// @dev an oracle request, that will be fullfilled in registerConfirm.\n  /// @param githubUser The GitHub username to register\n  function register(string calldata githubUser) external payable {\n    require(msg.value > 34665 * tx.gasprice, \"Registration fee (oracle cost) not covered.\");\n    if (_users[githubUser].account != address(0)) {\n      delete _usersByAddress[_users[githubUser].account];\n    }\n    _users[githubUser] = User(msg.sender, false);\n    _usersByAddress[msg.sender] = githubUser;\n\n    payable(owner()).transfer(msg.value);\n\n    emit RegistrationRequestEvent(msg.sender, githubUser);\n  }\n\n  /// @dev Oracle fullfill method. Sets unconfirmed user to confirmed if repo exists.\n  /// @param githubUser The githubUser to confirm\n  /// @param account The Eth account to confirm\n  function registerConfirm(string calldata githubUser, address account) external onlyOracles {\n    require(\n      _users[githubUser].account != address(0) && _users[githubUser].account == account,\n      \"This account confirmation was never requested.\"\n    );\n    _users[githubUser].confirmed = true;\n    emit RegistrationConfirmedEvent(account, githubUser);\n  }\n\n  /// @dev Send ETH to a registered githubUser.\n  /// @param githubUser The receiving githubUser.\n  function sendEthToGithubUser(string calldata githubUser) external payable {\n    require(msg.value > 0, \"You must send ETH.\");\n    require(_users[githubUser].account != address(0), \"This GitHub User is not registered.\");\n    require(_users[githubUser].confirmed == true, \"This GitHub User is not confirmed yet.\");\n    payable(_users[githubUser].account).transfer(msg.value);\n    _mint(_users[githubUser].account, msg.value / 100);\n    _mint(msg.sender, msg.value / 100);\n  }\n\n  /// @dev Deposit ETH to a registered githubUser.\n  /// @param githubUser The receiving githubUser.\n  function depositEthForGithubUser(string calldata githubUser) external payable {\n    require(msg.value > 0, \"You must send ETH.\");\n    _nextUserDepositId++;\n    _userDeposits[_nextUserDepositId] = UserDeposit(msg.sender, msg.value, githubUser);\n    _userDepositIdsByGithubUser[githubUser].push(_nextUserDepositId);\n    _userDepositIdsBySender[msg.sender].push(_nextUserDepositId);\n    emit UserDepositEvent(msg.sender, msg.value, githubUser);\n  }\n\n  function withdrawUserDeposit(uint256 depositId) external {\n    require(_users[_usersByAddress[msg.sender]].account == msg.sender, \"GitHub account not registered with this Ethereum account.\");\n    require(keccak256(bytes(_userDeposits[depositId].githubUser)) == keccak256(bytes(_usersByAddress[msg.sender])), \"Deposit is not for this GitHub account.\");\n    payable(msg.sender).transfer(_userDeposits[depositId].amount);\n    _mint(_userDeposits[depositId].from, _userDeposits[depositId].amount / 100);\n    _mint(msg.sender, _userDeposits[depositId].amount / 100);\n    delete _userDeposits[depositId];\n  }\n\n  function refundUserDeposit(uint256 depositId) external {\n    require(_userDeposits[depositId].from == msg.sender, \"Deposit did not came from this Ethereum account.\");\n    payable(msg.sender).transfer(_userDeposits[depositId].amount);\n    delete _userDeposits[depositId];\n  }\n\n  function getUserDepositIdsForGithubUser(string calldata githubUser) external view returns(uint256[] memory) {\n    return _userDepositIdsByGithubUser[githubUser];\n  }\n\n  function getUserDepositIdsForSender() external view returns(uint256[] memory) {\n    return _userDepositIdsBySender[msg.sender];\n  }\n\n  /// @dev Deposit ETH to a github issue.\n  /// @param issueId The receiving github issue.\n  function depositEthForIssue(string calldata issueId) external payable {\n    require(msg.value > 0, \"You must send ETH.\");\n    _nextIssueDepositId++;\n    _issueDeposits[_nextIssueDepositId] = IssueDeposit(msg.sender, msg.value, issueId);\n    _issueDepositIdsByIssueId[issueId].push(_nextIssueDepositId);\n    _issueDepositIdsBySender[msg.sender].push(_nextIssueDepositId);\n    emit IssueDepositEvent(msg.sender, msg.value, issueId);\n  }\n\n  function refundIssueDeposit(uint256 depositId) external {\n    require(_issueDeposits[depositId].from == msg.sender, \"Deposit did not came from this Ethereum account.\");\n    payable(msg.sender).transfer(_issueDeposits[depositId].amount);\n    delete _issueDeposits[depositId];\n  }\n\n  function getIssueDepositIdsForIssueId(string calldata issueId) external view returns(uint256[] memory) {\n    return _issueDepositIdsByIssueId[issueId];\n  }\n\n  function getIssueDepositIdsForSender() external view returns(uint256[] memory) {\n    return _issueDepositIdsBySender[msg.sender];\n  }\n\n  function pinIssue(string memory issueId, uint256 amount) public {\n    require(amount > 0, \"Amount must be greater zero.\");\n    _burn(msg.sender, amount);\n    _issueBoosts[issueId] += amount;\n  }\n\n  function claimPullRequest(string calldata prId, string calldata githubUser) external payable {\n    require(msg.value > 67639 * tx.gasprice, \"Claim fee (oracle cost) not covered.\");\n    require(_claimedPullRequests[prId] == false, \"Pull request already claimed.\");\n    require(_users[githubUser].account != address(0), \"This GitHub User is not registered.\");\n    emit ClaimPrRequestEvent(prId, githubUser);\n  }\n\n  function confirmClaimPullRequest(string calldata prId, string calldata githubUser, uint256 score) external onlyOracles {\n    require(_claimedPullRequests[prId] == false, \"Pull request already claimed.\");\n    require(_users[githubUser].account != address(0), \"This GitHub User is not registered.\");\n    _claimedPullRequests[prId] = true;\n    _mint(_users[githubUser].account, score * uint256(10) ** decimals());\n    emit ClaimPrConfirmEvent(prId, githubUser, score);\n  }\n\n  function releaseIssueDeposits(string calldata issueId, string calldata githubUser) external payable {\n    require(msg.value > 67639 * tx.gasprice, \"Release fee (oracle cost) not covered.\");\n    require(_issueDepositIdsByIssueId[issueId].length > 0, \"Issue has no deposits to release.\");\n    require(_users[_usersByAddress[msg.sender]].account == msg.sender, \"No GitHub account registered with this Ethereum account.\");\n    emit ReleaseIssueDepositsRequestEvent(issueId, githubUser, _usersByAddress[msg.sender]);\n  }\n\n  function confirmReleaseIssueDeposits(string calldata issueId, string calldata githubUser) external onlyOracles {\n    require(_issueDepositIdsByIssueId[issueId].length > 0, \"Issue has no deposits to release.\");\n    _releasedIssues[issueId] = githubUser;\n    emit ReleaseIssueDepositsConfirmEvent(issueId, githubUser);\n  }\n}\n",
  "sourcePath": "/home/mkt/Projects/mergepay-contracts/contracts/MergePay.sol",
  "compiler": {
    "name": "solc",
    "version": "0.6.6+commit.6c089d02.Emscripten.clang"
  },
  "schemaVersion": "3.2.5",
  "updatedAt": "2020-11-26T00:07:15.052Z",
  "networkType": "ethereum",
  "devdoc": {
    "methods": {
      "allowance(address,address)": {
        "details": "See {IERC20-allowance}."
      },
      "approve(address,uint256)": {
        "details": "See {IERC20-approve}.     * Requirements:     * - `spender` cannot be the zero address."
      },
      "balanceOf(address)": {
        "details": "See {IERC20-balanceOf}."
      },
      "constructor": {
        "details": "Initiates MergeToken and set owner as oracle."
      },
      "decimals()": {
        "details": "Returns the number of decimals used to get its user representation. For example, if `decimals` equals `2`, a balance of `505` tokens should be displayed to a user as `5,05` (`505 / 10 ** 2`).     * Tokens usually opt for a value of 18, imitating the relationship between Ether and Wei. This is the value {ERC20} uses, unless {_setupDecimals} is called.     * NOTE: This information is only used for _display_ purposes: it in no way affects any of the arithmetic of the contract, including {IERC20-balanceOf} and {IERC20-transfer}."
      },
      "decreaseAllowance(address,uint256)": {
        "details": "Atomically decreases the allowance granted to `spender` by the caller.     * This is an alternative to {approve} that can be used as a mitigation for problems described in {IERC20-approve}.     * Emits an {Approval} event indicating the updated allowance.     * Requirements:     * - `spender` cannot be the zero address. - `spender` must have allowance for the caller of at least `subtractedValue`."
      },
      "depositEthForGithubUser(string)": {
        "details": "Deposit ETH to a registered githubUser.",
        "params": {
          "githubUser": "The receiving githubUser."
        }
      },
      "depositEthForIssue(string)": {
        "details": "Deposit ETH to a github issue.",
        "params": {
          "issueId": "The receiving github issue."
        }
      },
      "disableOracle(address)": {
        "params": {
          "oracle": "The oracle address to remove (cannot be owner)"
        }
      },
      "enableOracle(address)": {
        "params": {
          "oracle": "The oracle address to add"
        }
      },
      "increaseAllowance(address,uint256)": {
        "details": "Atomically increases the allowance granted to `spender` by the caller.     * This is an alternative to {approve} that can be used as a mitigation for problems described in {IERC20-approve}.     * Emits an {Approval} event indicating the updated allowance.     * Requirements:     * - `spender` cannot be the zero address."
      },
      "name()": {
        "details": "Returns the name of the token."
      },
      "owner()": {
        "details": "Returns the address of the current owner."
      },
      "register(string)": {
        "details": "Verify ownership over GitHub account by checking for a repositry ofgithubUser named after msg.sender. Adds user as unconfirmed and sendsan oracle request, that will be fullfilled in registerConfirm.",
        "params": {
          "githubUser": "The GitHub username to register"
        }
      },
      "registerConfirm(string,address)": {
        "details": "Oracle fullfill method. Sets unconfirmed user to confirmed if repo exists.",
        "params": {
          "account": "The Eth account to confirm",
          "githubUser": "The githubUser to confirm"
        }
      },
      "renounceOwnership()": {
        "details": "Leaves the contract without owner. It will not be possible to call `onlyOwner` functions anymore. Can only be called by the current owner.     * NOTE: Renouncing ownership will leave the contract without an owner, thereby removing any functionality that is only available to the owner."
      },
      "sendEthToGithubUser(string)": {
        "details": "Send ETH to a registered githubUser.",
        "params": {
          "githubUser": "The receiving githubUser."
        }
      },
      "symbol()": {
        "details": "Returns the symbol of the token, usually a shorter version of the name."
      },
      "totalSupply()": {
        "details": "See {IERC20-totalSupply}."
      },
      "transfer(address,uint256)": {
        "details": "See {IERC20-transfer}.     * Requirements:     * - `recipient` cannot be the zero address. - the caller must have a balance of at least `amount`."
      },
      "transferFrom(address,address,uint256)": {
        "details": "See {IERC20-transferFrom}.     * Emits an {Approval} event indicating the updated allowance. This is not required by the EIP. See the note at the beginning of {ERC20};     * Requirements: - `sender` and `recipient` cannot be the zero address. - `sender` must have a balance of at least `amount`. - the caller must have allowance for ``sender``'s tokens of at least `amount`."
      },
      "transferOwnership(address)": {
        "details": "Transfers ownership of the contract to a new account (`newOwner`). Can only be called by the current owner."
      }
    }
  },
  "userdoc": {
    "methods": {}
  }
}