{
  "contractName": "MergePay",
  "abi": [
    {
      "inputs": [],
      "stateMutability": "nonpayable",
      "type": "constructor"
    },
    {
      "anonymous": false,
      "inputs": [
        {
          "indexed": true,
          "internalType": "address",
          "name": "owner",
          "type": "address"
        },
        {
          "indexed": true,
          "internalType": "address",
          "name": "spender",
          "type": "address"
        },
        {
          "indexed": false,
          "internalType": "uint256",
          "name": "value",
          "type": "uint256"
        }
      ],
      "name": "Approval",
      "type": "event"
    },
    {
      "anonymous": false,
      "inputs": [
        {
          "indexed": false,
          "internalType": "string",
          "name": "prId",
          "type": "string"
        },
        {
          "indexed": false,
          "internalType": "string",
          "name": "githubUser",
          "type": "string"
        },
        {
          "indexed": false,
          "internalType": "uint256",
          "name": "score",
          "type": "uint256"
        }
      ],
      "name": "ClaimPrConfirmEvent",
      "type": "event"
    },
    {
      "anonymous": false,
      "inputs": [
        {
          "indexed": false,
          "internalType": "string",
          "name": "prId",
          "type": "string"
        },
        {
          "indexed": false,
          "internalType": "string",
          "name": "githubUser",
          "type": "string"
        }
      ],
      "name": "ClaimPrRequestEvent",
      "type": "event"
    },
    {
      "anonymous": false,
      "inputs": [
        {
          "indexed": false,
          "internalType": "address",
          "name": "account",
          "type": "address"
        },
        {
          "indexed": false,
          "internalType": "uint256",
          "name": "amount",
          "type": "uint256"
        },
        {
          "indexed": false,
          "internalType": "string",
          "name": "issueId",
          "type": "string"
        }
      ],
      "name": "IssueDepositEvent",
      "type": "event"
    },
    {
      "anonymous": false,
      "inputs": [
        {
          "indexed": true,
          "internalType": "address",
          "name": "previousOwner",
          "type": "address"
        },
        {
          "indexed": true,
          "internalType": "address",
          "name": "newOwner",
          "type": "address"
        }
      ],
      "name": "OwnershipTransferred",
      "type": "event"
    },
    {
      "anonymous": false,
      "inputs": [
        {
          "indexed": false,
          "internalType": "address",
          "name": "account",
          "type": "address"
        },
        {
          "indexed": false,
          "internalType": "string",
          "name": "githubUser",
          "type": "string"
        }
      ],
      "name": "RegistrationConfirmedEvent",
      "type": "event"
    },
    {
      "anonymous": false,
      "inputs": [
        {
          "indexed": false,
          "internalType": "address",
          "name": "account",
          "type": "address"
        },
        {
          "indexed": false,
          "internalType": "string",
          "name": "githubUser",
          "type": "string"
        }
      ],
      "name": "RegistrationRequestEvent",
      "type": "event"
    },
    {
      "anonymous": false,
      "inputs": [
        {
          "indexed": true,
          "internalType": "address",
          "name": "from",
          "type": "address"
        },
        {
          "indexed": true,
          "internalType": "address",
          "name": "to",
          "type": "address"
        },
        {
          "indexed": false,
          "internalType": "uint256",
          "name": "value",
          "type": "uint256"
        }
      ],
      "name": "Transfer",
      "type": "event"
    },
    {
      "anonymous": false,
      "inputs": [
        {
          "indexed": false,
          "internalType": "address",
          "name": "account",
          "type": "address"
        },
        {
          "indexed": false,
          "internalType": "uint256",
          "name": "amount",
          "type": "uint256"
        },
        {
          "indexed": false,
          "internalType": "string",
          "name": "githubUser",
          "type": "string"
        }
      ],
      "name": "UserDepositEvent",
      "type": "event"
    },
    {
      "inputs": [
        {
          "internalType": "string",
          "name": "",
          "type": "string"
        }
      ],
      "name": "_claimedPullRequests",
      "outputs": [
        {
          "internalType": "bool",
          "name": "",
          "type": "bool"
        }
      ],
      "stateMutability": "view",
      "type": "function",
      "constant": true
    },
    {
      "inputs": [
        {
          "internalType": "string",
          "name": "",
          "type": "string"
        }
      ],
      "name": "_issueBoosts",
      "outputs": [
        {
          "internalType": "uint256",
          "name": "",
          "type": "uint256"
        }
      ],
      "stateMutability": "view",
      "type": "function",
      "constant": true
    },
    {
      "inputs": [
        {
          "internalType": "string",
          "name": "",
          "type": "string"
        },
        {
          "internalType": "uint256",
          "name": "",
          "type": "uint256"
        }
      ],
      "name": "_issueDepositIdsByIssueId",
      "outputs": [
        {
          "internalType": "uint256",
          "name": "",
          "type": "uint256"
        }
      ],
      "stateMutability": "view",
      "type": "function",
      "constant": true
    },
    {
      "inputs": [
        {
          "internalType": "address",
          "name": "",
          "type": "address"
        },
        {
          "internalType": "uint256",
          "name": "",
          "type": "uint256"
        }
      ],
      "name": "_issueDepositIdsBySender",
      "outputs": [
        {
          "internalType": "uint256",
          "name": "",
          "type": "uint256"
        }
      ],
      "stateMutability": "view",
      "type": "function",
      "constant": true
    },
    {
      "inputs": [
        {
          "internalType": "uint256",
          "name": "",
          "type": "uint256"
        }
      ],
      "name": "_issueDeposits",
      "outputs": [
        {
          "internalType": "address",
          "name": "from",
          "type": "address"
        },
        {
          "internalType": "uint256",
          "name": "amount",
          "type": "uint256"
        },
        {
          "internalType": "string",
          "name": "issueId",
          "type": "string"
        }
      ],
      "stateMutability": "view",
      "type": "function",
      "constant": true
    },
    {
      "inputs": [],
      "name": "_nextIssueDepositId",
      "outputs": [
        {
          "internalType": "uint256",
          "name": "",
          "type": "uint256"
        }
      ],
      "stateMutability": "view",
      "type": "function",
      "constant": true
    },
    {
      "inputs": [
        {
          "internalType": "string",
          "name": "",
          "type": "string"
        },
        {
          "internalType": "uint256",
          "name": "",
          "type": "uint256"
        }
      ],
      "name": "_userDepositIdsByGithubUser",
      "outputs": [
        {
          "internalType": "uint256",
          "name": "",
          "type": "uint256"
        }
      ],
      "stateMutability": "view",
      "type": "function",
      "constant": true
    },
    {
      "inputs": [
        {
          "internalType": "address",
          "name": "",
          "type": "address"
        },
        {
          "internalType": "uint256",
          "name": "",
          "type": "uint256"
        }
      ],
      "name": "_userDepositIdsBySender",
      "outputs": [
        {
          "internalType": "uint256",
          "name": "",
          "type": "uint256"
        }
      ],
      "stateMutability": "view",
      "type": "function",
      "constant": true
    },
    {
      "inputs": [
        {
          "internalType": "uint256",
          "name": "",
          "type": "uint256"
        }
      ],
      "name": "_userDeposits",
      "outputs": [
        {
          "internalType": "address",
          "name": "from",
          "type": "address"
        },
        {
          "internalType": "uint256",
          "name": "amount",
          "type": "uint256"
        },
        {
          "internalType": "string",
          "name": "githubUser",
          "type": "string"
        }
      ],
      "stateMutability": "view",
      "type": "function",
      "constant": true
    },
    {
      "inputs": [
        {
          "internalType": "string",
          "name": "",
          "type": "string"
        }
      ],
      "name": "_users",
      "outputs": [
        {
          "internalType": "address",
          "name": "account",
          "type": "address"
        },
        {
          "internalType": "bool",
          "name": "confirmed",
          "type": "bool"
        }
      ],
      "stateMutability": "view",
      "type": "function",
      "constant": true
    },
    {
      "inputs": [
        {
          "internalType": "address",
          "name": "",
          "type": "address"
        }
      ],
      "name": "_usersByAddress",
      "outputs": [
        {
          "internalType": "string",
          "name": "",
          "type": "string"
        }
      ],
      "stateMutability": "view",
      "type": "function",
      "constant": true
    },
    {
      "inputs": [
        {
          "internalType": "address",
          "name": "owner",
          "type": "address"
        },
        {
          "internalType": "address",
          "name": "spender",
          "type": "address"
        }
      ],
      "name": "allowance",
      "outputs": [
        {
          "internalType": "uint256",
          "name": "",
          "type": "uint256"
        }
      ],
      "stateMutability": "view",
      "type": "function",
      "constant": true
    },
    {
      "inputs": [
        {
          "internalType": "address",
          "name": "spender",
          "type": "address"
        },
        {
          "internalType": "uint256",
          "name": "amount",
          "type": "uint256"
        }
      ],
      "name": "approve",
      "outputs": [
        {
          "internalType": "bool",
          "name": "",
          "type": "bool"
        }
      ],
      "stateMutability": "nonpayable",
      "type": "function"
    },
    {
      "inputs": [
        {
          "internalType": "address",
          "name": "account",
          "type": "address"
        }
      ],
      "name": "balanceOf",
      "outputs": [
        {
          "internalType": "uint256",
          "name": "",
          "type": "uint256"
        }
      ],
      "stateMutability": "view",
      "type": "function",
      "constant": true
    },
    {
      "inputs": [],
      "name": "decimals",
      "outputs": [
        {
          "internalType": "uint8",
          "name": "",
          "type": "uint8"
        }
      ],
      "stateMutability": "view",
      "type": "function",
      "constant": true
    },
    {
      "inputs": [
        {
          "internalType": "address",
          "name": "spender",
          "type": "address"
        },
        {
          "internalType": "uint256",
          "name": "subtractedValue",
          "type": "uint256"
        }
      ],
      "name": "decreaseAllowance",
      "outputs": [
        {
          "internalType": "bool",
          "name": "",
          "type": "bool"
        }
      ],
      "stateMutability": "nonpayable",
      "type": "function"
    },
    {
      "inputs": [
        {
          "internalType": "address",
          "name": "spender",
          "type": "address"
        },
        {
          "internalType": "uint256",
          "name": "addedValue",
          "type": "uint256"
        }
      ],
      "name": "increaseAllowance",
      "outputs": [
        {
          "internalType": "bool",
          "name": "",
          "type": "bool"
        }
      ],
      "stateMutability": "nonpayable",
      "type": "function"
    },
    {
      "inputs": [],
      "name": "name",
      "outputs": [
        {
          "internalType": "string",
          "name": "",
          "type": "string"
        }
      ],
      "stateMutability": "view",
      "type": "function",
      "constant": true
    },
    {
      "inputs": [],
      "name": "owner",
      "outputs": [
        {
          "internalType": "address",
          "name": "",
          "type": "address"
        }
      ],
      "stateMutability": "view",
      "type": "function",
      "constant": true
    },
    {
      "inputs": [],
      "name": "renounceOwnership",
      "outputs": [],
      "stateMutability": "nonpayable",
      "type": "function"
    },
    {
      "inputs": [],
      "name": "symbol",
      "outputs": [
        {
          "internalType": "string",
          "name": "",
          "type": "string"
        }
      ],
      "stateMutability": "view",
      "type": "function",
      "constant": true
    },
    {
      "inputs": [],
      "name": "totalSupply",
      "outputs": [
        {
          "internalType": "uint256",
          "name": "",
          "type": "uint256"
        }
      ],
      "stateMutability": "view",
      "type": "function",
      "constant": true
    },
    {
      "inputs": [
        {
          "internalType": "address",
          "name": "recipient",
          "type": "address"
        },
        {
          "internalType": "uint256",
          "name": "amount",
          "type": "uint256"
        }
      ],
      "name": "transfer",
      "outputs": [
        {
          "internalType": "bool",
          "name": "",
          "type": "bool"
        }
      ],
      "stateMutability": "nonpayable",
      "type": "function"
    },
    {
      "inputs": [
        {
          "internalType": "address",
          "name": "sender",
          "type": "address"
        },
        {
          "internalType": "address",
          "name": "recipient",
          "type": "address"
        },
        {
          "internalType": "uint256",
          "name": "amount",
          "type": "uint256"
        }
      ],
      "name": "transferFrom",
      "outputs": [
        {
          "internalType": "bool",
          "name": "",
          "type": "bool"
        }
      ],
      "stateMutability": "nonpayable",
      "type": "function"
    },
    {
      "inputs": [
        {
          "internalType": "address",
          "name": "newOwner",
          "type": "address"
        }
      ],
      "name": "transferOwnership",
      "outputs": [],
      "stateMutability": "nonpayable",
      "type": "function"
    },
    {
      "inputs": [
        {
          "internalType": "address",
          "name": "oracle",
          "type": "address"
        }
      ],
      "name": "enableOracle",
      "outputs": [],
      "stateMutability": "nonpayable",
      "type": "function"
    },
    {
      "inputs": [
        {
          "internalType": "address",
          "name": "oracle",
          "type": "address"
        }
      ],
      "name": "disableOracle",
      "outputs": [],
      "stateMutability": "nonpayable",
      "type": "function"
    },
    {
      "inputs": [
        {
          "internalType": "string",
          "name": "githubUser",
          "type": "string"
        }
      ],
      "name": "register",
      "outputs": [],
      "stateMutability": "payable",
      "type": "function",
      "payable": true
    },
    {
      "inputs": [
        {
          "internalType": "string",
          "name": "githubUser",
          "type": "string"
        },
        {
          "internalType": "address",
          "name": "account",
          "type": "address"
        }
      ],
      "name": "registerConfirm",
      "outputs": [],
      "stateMutability": "nonpayable",
      "type": "function"
    },
    {
      "inputs": [
        {
          "internalType": "string",
          "name": "githubUser",
          "type": "string"
        }
      ],
      "name": "sendEthToGithubUser",
      "outputs": [],
      "stateMutability": "payable",
      "type": "function",
      "payable": true
    },
    {
      "inputs": [
        {
          "internalType": "string",
          "name": "githubUser",
          "type": "string"
        }
      ],
      "name": "depositEthForGithubUser",
      "outputs": [],
      "stateMutability": "payable",
      "type": "function",
      "payable": true
    },
    {
      "inputs": [
        {
          "internalType": "uint256",
          "name": "depositId",
          "type": "uint256"
        }
      ],
      "name": "withdrawUserDeposit",
      "outputs": [],
      "stateMutability": "nonpayable",
      "type": "function"
    },
    {
      "inputs": [
        {
          "internalType": "uint256",
          "name": "depositId",
          "type": "uint256"
        }
      ],
      "name": "refundUserDeposit",
      "outputs": [],
      "stateMutability": "nonpayable",
      "type": "function"
    },
    {
      "inputs": [
        {
          "internalType": "string",
          "name": "githubUser",
          "type": "string"
        }
      ],
      "name": "getUserDepositIdsForGithubUser",
      "outputs": [
        {
          "internalType": "uint256[]",
          "name": "",
          "type": "uint256[]"
        }
      ],
      "stateMutability": "view",
      "type": "function",
      "constant": true
    },
    {
      "inputs": [],
      "name": "getUserDepositIdsForSender",
      "outputs": [
        {
          "internalType": "uint256[]",
          "name": "",
          "type": "uint256[]"
        }
      ],
      "stateMutability": "view",
      "type": "function",
      "constant": true
    },
    {
      "inputs": [
        {
          "internalType": "string",
          "name": "issueId",
          "type": "string"
        }
      ],
      "name": "depositEthForIssue",
      "outputs": [],
      "stateMutability": "payable",
      "type": "function",
      "payable": true
    },
    {
      "inputs": [
        {
          "internalType": "uint256",
          "name": "depositId",
          "type": "uint256"
        }
      ],
      "name": "refundIssueDeposit",
      "outputs": [],
      "stateMutability": "nonpayable",
      "type": "function"
    },
    {
      "inputs": [
        {
          "internalType": "string",
          "name": "issueId",
          "type": "string"
        }
      ],
      "name": "getIssueDepositIdsForIssueId",
      "outputs": [
        {
          "internalType": "uint256[]",
          "name": "",
          "type": "uint256[]"
        }
      ],
      "stateMutability": "view",
      "type": "function",
      "constant": true
    },
    {
      "inputs": [],
      "name": "getIssueDepositIdsForSender",
      "outputs": [
        {
          "internalType": "uint256[]",
          "name": "",
          "type": "uint256[]"
        }
      ],
      "stateMutability": "view",
      "type": "function",
      "constant": true
    },
    {
      "inputs": [
        {
          "internalType": "string",
          "name": "issueId",
          "type": "string"
        },
        {
          "internalType": "uint256",
          "name": "amount",
          "type": "uint256"
        }
      ],
      "name": "pinIssue",
      "outputs": [],
      "stateMutability": "nonpayable",
      "type": "function"
    },
    {
      "inputs": [
        {
          "internalType": "string",
          "name": "prId",
          "type": "string"
        },
        {
          "internalType": "string",
          "name": "githubUser",
          "type": "string"
        }
      ],
      "name": "claimPullRequest",
      "outputs": [],
      "stateMutability": "payable",
      "type": "function",
      "payable": true
    },
    {
      "inputs": [
        {
          "internalType": "string",
          "name": "prId",
          "type": "string"
        },
        {
          "internalType": "string",
          "name": "githubUser",
          "type": "string"
        },
        {
          "internalType": "uint256",
          "name": "score",
          "type": "uint256"
        }
      ],
      "name": "confirmClaimPullRequest",
      "outputs": [],
      "stateMutability": "nonpayable",
      "type": "function"
    }
  ],
  "bytecode": "0x60806040526000600a556000600e553480156200001b57600080fd5b506040518060400160405280600b81526020017f4d6572676520546f6b656e0000000000000000000000000000000000000000008152506040518060400160405280600581526020017f4d455247450000000000000000000000000000000000000000000000000000008152508160039080519060200190620000a092919062000228565b508060049080519060200190620000b992919062000228565b506012600560006101000a81548160ff021916908360ff16021790555050506000620000ea620001f660201b60201c565b905080600560016101000a81548173ffffffffffffffffffffffffffffffffffffffff021916908373ffffffffffffffffffffffffffffffffffffffff1602179055508073ffffffffffffffffffffffffffffffffffffffff16600073ffffffffffffffffffffffffffffffffffffffff167f8be0079c531659141344cd1fd0a4f28419497f9722a3daafe3b4186f6b6457e060405160405180910390a3506001600660006200019f620001fe60201b60201c565b73ffffffffffffffffffffffffffffffffffffffff1673ffffffffffffffffffffffffffffffffffffffff16815260200190815260200160002060006101000a81548160ff021916908315150217905550620002d7565b600033905090565b6000600560019054906101000a900473ffffffffffffffffffffffffffffffffffffffff16905090565b828054600181600116156101000203166002900490600052602060002090601f016020900481019282601f106200026b57805160ff19168380011785556200029c565b828001600101855582156200029c579182015b828111156200029b5782518255916020019190600101906200027e565b5b509050620002ab9190620002af565b5090565b620002d491905b80821115620002d0576000816000905550600101620002b6565b5090565b90565b6152ed80620002e76000396000f3fe6080604052600436106102515760003560e01c8063716f9d2411610139578063c315fbca116100b6578063efda0fd61161007a578063efda0fd61461097d578063f2c298be14610999578063f2fde38b146109b5578063f4b90ef7146109de578063f4c705ab146109fa578063fb95354a14610a2357610251565b8063c315fbca14610860578063c695389d14610889578063cb99390f146108c6578063ce85fc4614610903578063dd62ed3e1461094057610251565b806395d89b41116100fd57806395d89b41146107765780639996f186146107a1578063a457c2d7146107bd578063a9059cbb146107fa578063b52acaab1461083757610251565b8063716f9d24146106935780637400e617146106d057806384f8f644146106f95780638617fc46146107225780638da5cb5b1461074b57610251565b806339509351116101d25780635d3dd29d116101965780635d3dd29d1461055d57806360445fb21461059a5780636077321a146105c357806370388bf91461060257806370a082311461063f578063715018a61461067c57610251565b80633950935114610450578063407395151461048d578063454d0554146104b857806350aea559146104e357806353a61ff91461052057610251565b806318160ddd1161021957806318160ddd1461034257806321ec48691461036d57806323b872dd146103ab578063313ce567146103e8578063344ae0771461041357610251565b806306fdde0314610256578063095b51a714610281578063095ea7b31461029d57806309d406a1146102da5780630cb5174714610303575b600080fd5b34801561026257600080fd5b5061026b610a4e565b6040516102789190614cf0565b60405180910390f35b61029b60048036038101906102969190613e4d565b610af0565b005b3480156102a957600080fd5b506102c460048036038101906102bf9190613d74565b610ca0565b6040516102d19190614c51565b60405180910390f35b3480156102e657600080fd5b5061030160048036038101906102fc9190613df5565b610cbe565b005b34801561030f57600080fd5b5061032a60048036038101906103259190613fe0565b610ef3565b60405161033993929190614bf1565b60405180910390f35b34801561034e57600080fd5b50610357610fd5565b6040516103649190614ff2565b60405180910390f35b34801561037957600080fd5b50610394600480360381019061038f9190613f4b565b610fdf565b6040516103a2929190614b96565b60405180910390f35b3480156103b757600080fd5b506103d260048036038101906103cd9190613d25565b611046565b6040516103df9190614c51565b60405180910390f35b3480156103f457600080fd5b506103fd61111f565b60405161040a919061500d565b60405180910390f35b34801561041f57600080fd5b5061043a60048036038101906104359190613f8c565b611136565b6040516104479190614ff2565b60405180910390f35b34801561045c57600080fd5b5061047760048036038101906104729190613d74565b61117a565b6040516104849190614c51565b60405180910390f35b34801561049957600080fd5b506104a261122d565b6040516104af9190614ff2565b60405180910390f35b3480156104c457600080fd5b506104cd611233565b6040516104da9190614c2f565b60405180910390f35b3480156104ef57600080fd5b5061050a60048036038101906105059190613db0565b6112c8565b6040516105179190614c2f565b60405180910390f35b34801561052c57600080fd5b5061054760048036038101906105429190613db0565b611341565b6040516105549190614c2f565b60405180910390f35b34801561056957600080fd5b50610584600480360381019061057f9190613f8c565b6113ba565b6040516105919190614ff2565b60405180910390f35b3480156105a657600080fd5b506105c160048036038101906105bc9190613fe0565b6113fe565b005b3480156105cf57600080fd5b506105ea60048036038101906105e59190613fe0565b611557565b6040516105f993929190614bf1565b60405180910390f35b34801561060e57600080fd5b5061062960048036038101906106249190613f4b565b611639565b6040516106369190614ff2565b60405180910390f35b34801561064b57600080fd5b5061066660048036038101906106619190613cc0565b611667565b6040516106739190614ff2565b60405180910390f35b34801561068857600080fd5b506106916116af565b005b34801561069f57600080fd5b506106ba60048036038101906106b59190613d74565b611807565b6040516106c79190614ff2565b60405180910390f35b3480156106dc57600080fd5b506106f760048036038101906106f29190613cc0565b611835565b005b34801561070557600080fd5b50610720600480360381019061071b9190613f8c565b611a29565b005b34801561072e57600080fd5b5061074960048036038101906107449190613fe0565b611aa6565b005b34801561075757600080fd5b50610760611bff565b60405161076d9190614b09565b60405180910390f35b34801561078257600080fd5b5061078b611c29565b6040516107989190614cf0565b60405180910390f35b6107bb60048036038101906107b69190613db0565b611ccb565b005b3480156107c957600080fd5b506107e460048036038101906107df9190613d74565b611f0d565b6040516107f19190614c51565b60405180910390f35b34801561080657600080fd5b50610821600480360381019061081c9190613d74565b611fda565b60405161082e9190614c51565b60405180910390f35b34801561084357600080fd5b5061085e60048036038101906108599190613ec2565b611ff8565b005b34801561086c57600080fd5b5061088760048036038101906108829190613fe0565b612286565b005b34801561089557600080fd5b506108b060048036038101906108ab9190613d74565b612571565b6040516108bd9190614ff2565b60405180910390f35b3480156108d257600080fd5b506108ed60048036038101906108e89190613f4b565b61259f565b6040516108fa9190614c51565b60405180910390f35b34801561090f57600080fd5b5061092a60048036038101906109259190613cc0565b6125d5565b6040516109379190614cf0565b60405180910390f35b34801561094c57600080fd5b5061096760048036038101906109629190613ce9565b612685565b6040516109749190614ff2565b60405180910390f35b61099760048036038101906109929190613db0565b61270c565b005b6109b360048036038101906109ae9190613db0565b612972565b005b3480156109c157600080fd5b506109dc60048036038101906109d79190613cc0565b612c52565b005b6109f860048036038101906109f39190613db0565b612e19565b005b348015610a0657600080fd5b50610a216004803603810190610a1c9190613cc0565b61305b565b005b348015610a2f57600080fd5b50610a3861314d565b604051610a459190614c2f565b60405180910390f35b606060038054600181600116156101000203166002900480601f016020809104026020016040519081016040528092919081815260200182805460018160011615610100020316600290048015610ae65780601f10610abb57610100808354040283529160200191610ae6565b820191906000526020600020905b815481529060010190602001808311610ac957829003601f168201915b5050505050905090565b3a618769023411610b36576040517f08c379a0000000000000000000000000000000000000000000000000000000008152600401610b2d90614f52565b60405180910390fd5b6000151560128585604051610b4c929190614ac2565b908152602001604051809103902060009054906101000a900460ff16151514610baa576040517f08c379a0000000000000000000000000000000000000000000000000000000008152600401610ba190614d32565b60405180910390fd5b600073ffffffffffffffffffffffffffffffffffffffff1660078383604051610bd4929190614ac2565b908152602001604051809103902060000160009054906101000a900473ffffffffffffffffffffffffffffffffffffffff1673ffffffffffffffffffffffffffffffffffffffff161415610c5d576040517f08c379a0000000000000000000000000000000000000000000000000000000008152600401610c5490614e32565b60405180910390fd5b7f61f61b56d5bcc4600c378fe030b373305197bedb3f0060ea99d03860a33c474b84848484604051610c929493929190614c6c565b60405180910390a150505050565b6000610cb4610cad6131e2565b84846131ea565b6001905092915050565b600660003373ffffffffffffffffffffffffffffffffffffffff1673ffffffffffffffffffffffffffffffffffffffff16815260200190815260200160002060009054906101000a900460ff16610d4a576040517f08c379a0000000000000000000000000000000000000000000000000000000008152600401610d4190614f72565b60405180910390fd5b600073ffffffffffffffffffffffffffffffffffffffff1660078484604051610d74929190614ac2565b908152602001604051809103902060000160009054906101000a900473ffffffffffffffffffffffffffffffffffffffff1673ffffffffffffffffffffffffffffffffffffffff1614158015610e3857508073ffffffffffffffffffffffffffffffffffffffff1660078484604051610dee929190614ac2565b908152602001604051809103902060000160009054906101000a900473ffffffffffffffffffffffffffffffffffffffff1673ffffffffffffffffffffffffffffffffffffffff16145b610e77576040517f08c379a0000000000000000000000000000000000000000000000000000000008152600401610e6e90614db2565b60405180910390fd5b600160078484604051610e8b929190614ac2565b908152602001604051809103902060000160146101000a81548160ff0219169083151502179055507f55e4fcf1c7b4b1a6190089eb7ef1c1ff91d67d66917edf141d6223003929828a818484604051610ee693929190614bbf565b60405180910390a1505050565b60096020528060005260406000206000915090508060000160009054906101000a900473ffffffffffffffffffffffffffffffffffffffff1690806001015490806002018054600181600116156101000203166002900480601f016020809104026020016040519081016040528092919081815260200182805460018160011615610100020316600290048015610fcb5780601f10610fa057610100808354040283529160200191610fcb565b820191906000526020600020905b815481529060010190602001808311610fae57829003601f168201915b5050505050905083565b6000600254905090565b6007818051602081018201805184825260208301602085012081835280955050505050506000915090508060000160009054906101000a900473ffffffffffffffffffffffffffffffffffffffff16908060000160149054906101000a900460ff16905082565b60006110538484846133b5565b6111148461105f6131e2565b61110f8560405180606001604052806028815260200161526b60289139600160008b73ffffffffffffffffffffffffffffffffffffffff1673ffffffffffffffffffffffffffffffffffffffff16815260200190815260200160002060006110c56131e2565b73ffffffffffffffffffffffffffffffffffffffff1673ffffffffffffffffffffffffffffffffffffffff1681526020019081526020016000205461364a9092919063ffffffff16565b6131ea565b600190509392505050565b6000600560009054906101000a900460ff16905090565b600f82805160208101820180518482526020830160208501208183528095505050505050818154811061116557fe5b90600052602060002001600091509150505481565b60006112236111876131e2565b8461121e85600160006111986131e2565b73ffffffffffffffffffffffffffffffffffffffff1673ffffffffffffffffffffffffffffffffffffffff16815260200190815260200160002060008973ffffffffffffffffffffffffffffffffffffffff1673ffffffffffffffffffffffffffffffffffffffff168152602001908152602001600020546136a590919063ffffffff16565b6131ea565b6001905092915050565b600e5481565b6060600c60003373ffffffffffffffffffffffffffffffffffffffff1673ffffffffffffffffffffffffffffffffffffffff1681526020019081526020016000208054806020026020016040519081016040528092919081815260200182805480156112be57602002820191906000526020600020905b8154815260200190600101908083116112aa575b5050505050905090565b6060600f83836040516112dc929190614ac2565b908152602001604051809103902080548060200260200160405190810160405280929190818152602001828054801561133457602002820191906000526020600020905b815481526020019060010190808311611320575b5050505050905092915050565b6060600b8383604051611355929190614ac2565b90815260200160405180910390208054806020026020016040519081016040528092919081815260200182805480156113ad57602002820191906000526020600020905b815481526020019060010190808311611399575b5050505050905092915050565b600b8280516020810182018051848252602083016020850120818352809550505050505081815481106113e957fe5b90600052602060002001600091509150505481565b3373ffffffffffffffffffffffffffffffffffffffff166009600083815260200190815260200160002060000160009054906101000a900473ffffffffffffffffffffffffffffffffffffffff1673ffffffffffffffffffffffffffffffffffffffff16146114a2576040517f08c379a000000000000000000000000000000000000000000000000000000000815260040161149990614df2565b60405180910390fd5b3373ffffffffffffffffffffffffffffffffffffffff166108fc60096000848152602001908152602001600020600101549081150290604051600060405180830381858888f193505050501580156114fe573d6000803e3d6000fd5b5060096000828152602001908152602001600020600080820160006101000a81549073ffffffffffffffffffffffffffffffffffffffff021916905560018201600090556002820160006115529190613a8b565b505050565b600d6020528060005260406000206000915090508060000160009054906101000a900473ffffffffffffffffffffffffffffffffffffffff1690806001015490806002018054600181600116156101000203166002900480601f01602080910402602001604051908101604052809291908181526020018280546001816001161561010002031660029004801561162f5780601f106116045761010080835404028352916020019161162f565b820191906000526020600020905b81548152906001019060200180831161161257829003601f168201915b5050505050905083565b6011818051602081018201805184825260208301602085012081835280955050505050506000915090505481565b60008060008373ffffffffffffffffffffffffffffffffffffffff1673ffffffffffffffffffffffffffffffffffffffff168152602001908152602001600020549050919050565b6116b76131e2565b73ffffffffffffffffffffffffffffffffffffffff16600560019054906101000a900473ffffffffffffffffffffffffffffffffffffffff1673ffffffffffffffffffffffffffffffffffffffff1614611746576040517f08c379a000000000000000000000000000000000000000000000000000000000815260040161173d90614eb2565b60405180910390fd5b600073ffffffffffffffffffffffffffffffffffffffff16600560019054906101000a900473ffffffffffffffffffffffffffffffffffffffff1673ffffffffffffffffffffffffffffffffffffffff167f8be0079c531659141344cd1fd0a4f28419497f9722a3daafe3b4186f6b6457e060405160405180910390a36000600560016101000a81548173ffffffffffffffffffffffffffffffffffffffff021916908373ffffffffffffffffffffffffffffffffffffffff160217905550565b6010602052816000526040600020818154811061182057fe5b90600052602060002001600091509150505481565b61183d6131e2565b73ffffffffffffffffffffffffffffffffffffffff16600560019054906101000a900473ffffffffffffffffffffffffffffffffffffffff1673ffffffffffffffffffffffffffffffffffffffff16146118cc576040517f08c379a00000000000000000000000000000000000000000000000000000000081526004016118c390614eb2565b60405180910390fd5b600660008273ffffffffffffffffffffffffffffffffffffffff1673ffffffffffffffffffffffffffffffffffffffff16815260200190815260200160002060009054906101000a900460ff16611958576040517f08c379a000000000000000000000000000000000000000000000000000000000815260040161194f90614f12565b60405180910390fd5b611960611bff565b73ffffffffffffffffffffffffffffffffffffffff168173ffffffffffffffffffffffffffffffffffffffff1614156119ce576040517f08c379a00000000000000000000000000000000000000000000000000000000081526004016119c590614e12565b60405180910390fd5b6000600660008373ffffffffffffffffffffffffffffffffffffffff1673ffffffffffffffffffffffffffffffffffffffff16815260200190815260200160002060006101000a81548160ff02191690831515021790555050565b60008111611a6c576040517f08c379a0000000000000000000000000000000000000000000000000000000008152600401611a6390614d52565b60405180910390fd5b611a7633826136fa565b80601183604051611a879190614adb565b9081526020016040518091039020600082825401925050819055505050565b3373ffffffffffffffffffffffffffffffffffffffff16600d600083815260200190815260200160002060000160009054906101000a900473ffffffffffffffffffffffffffffffffffffffff1673ffffffffffffffffffffffffffffffffffffffff1614611b4a576040517f08c379a0000000000000000000000000000000000000000000000000000000008152600401611b4190614df2565b60405180910390fd5b3373ffffffffffffffffffffffffffffffffffffffff166108fc600d6000848152602001908152602001600020600101549081150290604051600060405180830381858888f19350505050158015611ba6573d6000803e3d6000fd5b50600d6000828152602001908152602001600020600080820160006101000a81549073ffffffffffffffffffffffffffffffffffffffff02191690556001820160009055600282016000611bfa9190613a8b565b505050565b6000600560019054906101000a900473ffffffffffffffffffffffffffffffffffffffff16905090565b606060048054600181600116156101000203166002900480601f016020809104026020016040519081016040528092919081815260200182805460018160011615610100020316600290048015611cc15780601f10611c9657610100808354040283529160200191611cc1565b820191906000526020600020905b815481529060010190602001808311611ca457829003601f168201915b5050505050905090565b60003411611d0e576040517f08c379a0000000000000000000000000000000000000000000000000000000008152600401611d0590614fb2565b60405180910390fd5b600a6000815480929190600101919050555060405180606001604052803373ffffffffffffffffffffffffffffffffffffffff16815260200134815260200183838080601f016020809104026020016040519081016040528093929190818152602001838380828437600081840152601f19601f8201169050808301925050505050505081525060096000600a54815260200190815260200160002060008201518160000160006101000a81548173ffffffffffffffffffffffffffffffffffffffff021916908373ffffffffffffffffffffffffffffffffffffffff160217905550602082015181600101556040820151816002019080519060200190611e17929190613ad3565b50905050600b8282604051611e2d929190614ac2565b9081526020016040518091039020600a549080600181540180825580915050600190039060005260206000200160009091909190915055600c60003373ffffffffffffffffffffffffffffffffffffffff1673ffffffffffffffffffffffffffffffffffffffff168152602001908152602001600020600a5490806001815401808255809150506001900390600052602060002001600090919091909150557f406551011d3a3874d102c2ee25adb004adb6d90a8134f04c14bd02f73ad4a3d033348484604051611f019493929190614b56565b60405180910390a15050565b6000611fd0611f1a6131e2565b84611fcb856040518060600160405280602581526020016152936025913960016000611f446131e2565b73ffffffffffffffffffffffffffffffffffffffff1673ffffffffffffffffffffffffffffffffffffffff16815260200190815260200160002060008a73ffffffffffffffffffffffffffffffffffffffff1673ffffffffffffffffffffffffffffffffffffffff1681526020019081526020016000205461364a9092919063ffffffff16565b6131ea565b6001905092915050565b6000611fee611fe76131e2565b84846133b5565b6001905092915050565b600660003373ffffffffffffffffffffffffffffffffffffffff1673ffffffffffffffffffffffffffffffffffffffff16815260200190815260200160002060009054906101000a900460ff16612084576040517f08c379a000000000000000000000000000000000000000000000000000000000815260040161207b90614f72565b60405180910390fd5b600015156012868660405161209a929190614ac2565b908152602001604051809103902060009054906101000a900460ff161515146120f8576040517f08c379a00000000000000000000000000000000000000000000000000000000081526004016120ef90614d32565b60405180910390fd5b600073ffffffffffffffffffffffffffffffffffffffff1660078484604051612122929190614ac2565b908152602001604051809103902060000160009054906101000a900473ffffffffffffffffffffffffffffffffffffffff1673ffffffffffffffffffffffffffffffffffffffff1614156121ab576040517f08c379a00000000000000000000000000000000000000000000000000000000081526004016121a290614e32565b60405180910390fd5b6001601286866040516121bf929190614ac2565b908152602001604051809103902060006101000a81548160ff021916908315150217905550612240600784846040516121f9929190614ac2565b908152602001604051809103902060000160009054906101000a900473ffffffffffffffffffffffffffffffffffffffff1661223361111f565b60ff16600a0a83026138a8565b7fe0ca3b0d5f07049a3975315a95eadf935a046d8c67c4660d0f5fd3f5bf600a428585858585604051612277959493929190614ca7565b60405180910390a15050505050565b3373ffffffffffffffffffffffffffffffffffffffff166007600860003373ffffffffffffffffffffffffffffffffffffffff1673ffffffffffffffffffffffffffffffffffffffff1681526020019081526020016000206040516122eb9190614af2565b908152602001604051809103902060000160009054906101000a900473ffffffffffffffffffffffffffffffffffffffff1673ffffffffffffffffffffffffffffffffffffffff1614612373576040517f08c379a000000000000000000000000000000000000000000000000000000000815260040161236a90614f92565b60405180910390fd5b600860003373ffffffffffffffffffffffffffffffffffffffff1673ffffffffffffffffffffffffffffffffffffffff1681526020019081526020016000206040516123bf9190614aab565b6040518091039020600960008381526020019081526020016000206002016040516123ea9190614aab565b604051809103902014612432576040517f08c379a000000000000000000000000000000000000000000000000000000000815260040161242990614e52565b60405180910390fd5b3373ffffffffffffffffffffffffffffffffffffffff166108fc60096000848152602001908152602001600020600101549081150290604051600060405180830381858888f1935050505015801561248e573d6000803e3d6000fd5b506124ef6009600083815260200190815260200160002060000160009054906101000a900473ffffffffffffffffffffffffffffffffffffffff1660646009600085815260200190815260200160002060010154816124e957fe5b046138a8565b61251933606460096000858152602001908152602001600020600101548161251357fe5b046138a8565b60096000828152602001908152602001600020600080820160006101000a81549073ffffffffffffffffffffffffffffffffffffffff0219169055600182016000905560028201600061256c9190613a8b565b505050565b600c602052816000526040600020818154811061258a57fe5b90600052602060002001600091509150505481565b6012818051602081018201805184825260208301602085012081835280955050505050506000915054906101000a900460ff1681565b60086020528060005260406000206000915090508054600181600116156101000203166002900480601f01602080910402602001604051908101604052809291908181526020018280546001816001161561010002031660029004801561267d5780601f106126525761010080835404028352916020019161267d565b820191906000526020600020905b81548152906001019060200180831161266057829003601f168201915b505050505081565b6000600160008473ffffffffffffffffffffffffffffffffffffffff1673ffffffffffffffffffffffffffffffffffffffff16815260200190815260200160002060008373ffffffffffffffffffffffffffffffffffffffff1673ffffffffffffffffffffffffffffffffffffffff16815260200190815260200160002054905092915050565b6000341161274f576040517f08c379a000000000000000000000000000000000000000000000000000000000815260040161274690614fb2565b60405180910390fd5b600073ffffffffffffffffffffffffffffffffffffffff1660078383604051612779929190614ac2565b908152602001604051809103902060000160009054906101000a900473ffffffffffffffffffffffffffffffffffffffff1673ffffffffffffffffffffffffffffffffffffffff161415612802576040517f08c379a00000000000000000000000000000000000000000000000000000000081526004016127f990614e32565b60405180910390fd5b6001151560078383604051612818929190614ac2565b908152602001604051809103902060000160149054906101000a900460ff16151514612879576040517f08c379a000000000000000000000000000000000000000000000000000000000815260040161287090614e92565b60405180910390fd5b6007828260405161288b929190614ac2565b908152602001604051809103902060000160009054906101000a900473ffffffffffffffffffffffffffffffffffffffff1673ffffffffffffffffffffffffffffffffffffffff166108fc349081150290604051600060405180830381858888f19350505050158015612902573d6000803e3d6000fd5b5061295a60078383604051612918929190614ac2565b908152602001604051809103902060000160009054906101000a900473ffffffffffffffffffffffffffffffffffffffff166064348161295457fe5b046138a8565b61296e336064348161296857fe5b046138a8565b5050565b3a6187690234116129b8576040517f08c379a00000000000000000000000000000000000000000000000000000000081526004016129af90614e72565b60405180910390fd5b600073ffffffffffffffffffffffffffffffffffffffff16600783836040516129e2929190614ac2565b908152602001604051809103902060000160009054906101000a900473ffffffffffffffffffffffffffffffffffffffff1673ffffffffffffffffffffffffffffffffffffffff1614612abe576008600060078484604051612a45929190614ac2565b908152602001604051809103902060000160009054906101000a900473ffffffffffffffffffffffffffffffffffffffff1673ffffffffffffffffffffffffffffffffffffffff1673ffffffffffffffffffffffffffffffffffffffff1681526020019081526020016000206000612abd9190613a8b565b5b60405180604001604052803373ffffffffffffffffffffffffffffffffffffffff1681526020016000151581525060078383604051612afe929190614ac2565b908152602001604051809103902060008201518160000160006101000a81548173ffffffffffffffffffffffffffffffffffffffff021916908373ffffffffffffffffffffffffffffffffffffffff16021790555060208201518160000160146101000a81548160ff0219169083151502179055509050508181600860003373ffffffffffffffffffffffffffffffffffffffff1673ffffffffffffffffffffffffffffffffffffffff1681526020019081526020016000209190612bc4929190613b53565b50612bcd611bff565b73ffffffffffffffffffffffffffffffffffffffff166108fc349081150290604051600060405180830381858888f19350505050158015612c12573d6000803e3d6000fd5b507fd417e304669e6bf903f41a03f5ce981dac00416cf5034cd47d22fcb0c67c96bd338383604051612c4693929190614b24565b60405180910390a15050565b612c5a6131e2565b73ffffffffffffffffffffffffffffffffffffffff16600560019054906101000a900473ffffffffffffffffffffffffffffffffffffffff1673ffffffffffffffffffffffffffffffffffffffff1614612ce9576040517f08c379a0000000000000000000000000000000000000000000000000000000008152600401612ce090614eb2565b60405180910390fd5b600073ffffffffffffffffffffffffffffffffffffffff168173ffffffffffffffffffffffffffffffffffffffff161415612d59576040517f08c379a0000000000000000000000000000000000000000000000000000000008152600401612d5090614d72565b60405180910390fd5b8073ffffffffffffffffffffffffffffffffffffffff16600560019054906101000a900473ffffffffffffffffffffffffffffffffffffffff1673ffffffffffffffffffffffffffffffffffffffff167f8be0079c531659141344cd1fd0a4f28419497f9722a3daafe3b4186f6b6457e060405160405180910390a380600560016101000a81548173ffffffffffffffffffffffffffffffffffffffff021916908373ffffffffffffffffffffffffffffffffffffffff16021790555050565b60003411612e5c576040517f08c379a0000000000000000000000000000000000000000000000000000000008152600401612e5390614fb2565b60405180910390fd5b600e6000815480929190600101919050555060405180606001604052803373ffffffffffffffffffffffffffffffffffffffff16815260200134815260200183838080601f016020809104026020016040519081016040528093929190818152602001838380828437600081840152601f19601f82011690508083019250505050505050815250600d6000600e54815260200190815260200160002060008201518160000160006101000a81548173ffffffffffffffffffffffffffffffffffffffff021916908373ffffffffffffffffffffffffffffffffffffffff160217905550602082015181600101556040820151816002019080519060200190612f65929190613ad3565b50905050600f8282604051612f7b929190614ac2565b9081526020016040518091039020600e549080600181540180825580915050600190039060005260206000200160009091909190915055601060003373ffffffffffffffffffffffffffffffffffffffff1673ffffffffffffffffffffffffffffffffffffffff168152602001908152602001600020600e5490806001815401808255809150506001900390600052602060002001600090919091909150557f08c7c4039b7c98d46cb4ebb0f96ca6a67a506db7c3ddd814f88dd3cfd24e2ae93334848460405161304f9493929190614b56565b60405180910390a15050565b6130636131e2565b73ffffffffffffffffffffffffffffffffffffffff16600560019054906101000a900473ffffffffffffffffffffffffffffffffffffffff1673ffffffffffffffffffffffffffffffffffffffff16146130f2576040517f08c379a00000000000000000000000000000000000000000000000000000000081526004016130e990614eb2565b60405180910390fd5b6001600660008373ffffffffffffffffffffffffffffffffffffffff1673ffffffffffffffffffffffffffffffffffffffff16815260200190815260200160002060006101000a81548160ff02191690831515021790555050565b6060601060003373ffffffffffffffffffffffffffffffffffffffff1673ffffffffffffffffffffffffffffffffffffffff1681526020019081526020016000208054806020026020016040519081016040528092919081815260200182805480156131d857602002820191906000526020600020905b8154815260200190600101908083116131c4575b5050505050905090565b600033905090565b600073ffffffffffffffffffffffffffffffffffffffff168373ffffffffffffffffffffffffffffffffffffffff16141561325a576040517f08c379a000000000000000000000000000000000000000000000000000000000815260040161325190614f32565b60405180910390fd5b600073ffffffffffffffffffffffffffffffffffffffff168273ffffffffffffffffffffffffffffffffffffffff1614156132ca576040517f08c379a00000000000000000000000000000000000000000000000000000000081526004016132c190614d92565b60405180910390fd5b80600160008573ffffffffffffffffffffffffffffffffffffffff1673ffffffffffffffffffffffffffffffffffffffff16815260200190815260200160002060008473ffffffffffffffffffffffffffffffffffffffff1673ffffffffffffffffffffffffffffffffffffffff168152602001908152602001600020819055508173ffffffffffffffffffffffffffffffffffffffff168373ffffffffffffffffffffffffffffffffffffffff167f8c5be1e5ebec7d5bd14f71427d1e84f3dd0314c0f7b2291e5b200ac8c7c3b925836040516133a89190614ff2565b60405180910390a3505050565b600073ffffffffffffffffffffffffffffffffffffffff168373ffffffffffffffffffffffffffffffffffffffff161415613425576040517f08c379a000000000000000000000000000000000000000000000000000000000815260040161341c90614ef2565b60405180910390fd5b600073ffffffffffffffffffffffffffffffffffffffff168273ffffffffffffffffffffffffffffffffffffffff161415613495576040517f08c379a000000000000000000000000000000000000000000000000000000000815260040161348c90614d12565b60405180910390fd5b6134a0838383613a3c565b61350b81604051806060016040528060268152602001615245602691396000808773ffffffffffffffffffffffffffffffffffffffff1673ffffffffffffffffffffffffffffffffffffffff1681526020019081526020016000205461364a9092919063ffffffff16565b6000808573ffffffffffffffffffffffffffffffffffffffff1673ffffffffffffffffffffffffffffffffffffffff1681526020019081526020016000208190555061359e816000808573ffffffffffffffffffffffffffffffffffffffff1673ffffffffffffffffffffffffffffffffffffffff168152602001908152602001600020546136a590919063ffffffff16565b6000808473ffffffffffffffffffffffffffffffffffffffff1673ffffffffffffffffffffffffffffffffffffffff168152602001908152602001600020819055508173ffffffffffffffffffffffffffffffffffffffff168373ffffffffffffffffffffffffffffffffffffffff167fddf252ad1be2c89b69c2b068fc378daa952ba7f163c4a11628f55a4df523b3ef8360405161363d9190614ff2565b60405180910390a3505050565b6000838311158290613692576040517f08c379a00000000000000000000000000000000000000000000000000000000081526004016136899190614cf0565b60405180910390fd5b5060008385039050809150509392505050565b6000808284019050838110156136f0576040517f08c379a00000000000000000000000000000000000000000000000000000000081526004016136e790614dd2565b60405180910390fd5b8091505092915050565b600073ffffffffffffffffffffffffffffffffffffffff168273ffffffffffffffffffffffffffffffffffffffff16141561376a576040517f08c379a000000000000000000000000000000000000000000000000000000000815260040161376190614ed2565b60405180910390fd5b61377682600083613a3c565b6137e181604051806060016040528060228152602001615223602291396000808673ffffffffffffffffffffffffffffffffffffffff1673ffffffffffffffffffffffffffffffffffffffff1681526020019081526020016000205461364a9092919063ffffffff16565b6000808473ffffffffffffffffffffffffffffffffffffffff1673ffffffffffffffffffffffffffffffffffffffff1681526020019081526020016000208190555061383881600254613a4190919063ffffffff16565b600281905550600073ffffffffffffffffffffffffffffffffffffffff168273ffffffffffffffffffffffffffffffffffffffff167fddf252ad1be2c89b69c2b068fc378daa952ba7f163c4a11628f55a4df523b3ef8360405161389c9190614ff2565b60405180910390a35050565b600073ffffffffffffffffffffffffffffffffffffffff168273ffffffffffffffffffffffffffffffffffffffff161415613918576040517f08c379a000000000000000000000000000000000000000000000000000000000815260040161390f90614fd2565b60405180910390fd5b61392460008383613a3c565b613939816002546136a590919063ffffffff16565b600281905550613990816000808573ffffffffffffffffffffffffffffffffffffffff1673ffffffffffffffffffffffffffffffffffffffff168152602001908152602001600020546136a590919063ffffffff16565b6000808473ffffffffffffffffffffffffffffffffffffffff1673ffffffffffffffffffffffffffffffffffffffff168152602001908152602001600020819055508173ffffffffffffffffffffffffffffffffffffffff16600073ffffffffffffffffffffffffffffffffffffffff167fddf252ad1be2c89b69c2b068fc378daa952ba7f163c4a11628f55a4df523b3ef83604051613a309190614ff2565b60405180910390a35050565b505050565b6000613a8383836040518060400160405280601e81526020017f536166654d6174683a207375627472616374696f6e206f766572666c6f77000081525061364a565b905092915050565b50805460018160011615610100020316600290046000825580601f10613ab15750613ad0565b601f016020900490600052602060002090810190613acf9190613bd3565b5b50565b828054600181600116156101000203166002900490600052602060002090601f016020900481019282601f10613b1457805160ff1916838001178555613b42565b82800160010185558215613b42579182015b82811115613b41578251825591602001919060010190613b26565b5b509050613b4f9190613bd3565b5090565b828054600181600116156101000203166002900490600052602060002090601f016020900481019282601f10613b9457803560ff1916838001178555613bc2565b82800160010185558215613bc2579182015b82811115613bc1578235825591602001919060010190613ba6565b5b509050613bcf9190613bd3565b5090565b613bf591905b80821115613bf1576000816000905550600101613bd9565b5090565b90565b600081359050613c07816151f4565b92915050565b60008083601f840112613c1f57600080fd5b8235905067ffffffffffffffff811115613c3857600080fd5b602083019150836001820283011115613c5057600080fd5b9250929050565b600082601f830112613c6857600080fd5b8135613c7b613c7682615055565b615028565b91508082526020830160208301858383011115613c9757600080fd5b613ca28382846151a1565b50505092915050565b600081359050613cba8161520b565b92915050565b600060208284031215613cd257600080fd5b6000613ce084828501613bf8565b91505092915050565b60008060408385031215613cfc57600080fd5b6000613d0a85828601613bf8565b9250506020613d1b85828601613bf8565b9150509250929050565b600080600060608486031215613d3a57600080fd5b6000613d4886828701613bf8565b9350506020613d5986828701613bf8565b9250506040613d6a86828701613cab565b9150509250925092565b60008060408385031215613d8757600080fd5b6000613d9585828601613bf8565b9250506020613da685828601613cab565b9150509250929050565b60008060208385031215613dc357600080fd5b600083013567ffffffffffffffff811115613ddd57600080fd5b613de985828601613c0d565b92509250509250929050565b600080600060408486031215613e0a57600080fd5b600084013567ffffffffffffffff811115613e2457600080fd5b613e3086828701613c0d565b93509350506020613e4386828701613bf8565b9150509250925092565b60008060008060408587031215613e6357600080fd5b600085013567ffffffffffffffff811115613e7d57600080fd5b613e8987828801613c0d565b9450945050602085013567ffffffffffffffff811115613ea857600080fd5b613eb487828801613c0d565b925092505092959194509250565b600080600080600060608688031215613eda57600080fd5b600086013567ffffffffffffffff811115613ef457600080fd5b613f0088828901613c0d565b9550955050602086013567ffffffffffffffff811115613f1f57600080fd5b613f2b88828901613c0d565b93509350506040613f3e88828901613cab565b9150509295509295909350565b600060208284031215613f5d57600080fd5b600082013567ffffffffffffffff811115613f7757600080fd5b613f8384828501613c57565b91505092915050565b60008060408385031215613f9f57600080fd5b600083013567ffffffffffffffff811115613fb957600080fd5b613fc585828601613c57565b9250506020613fd685828601613cab565b9150509250929050565b600060208284031215613ff257600080fd5b600061400084828501613cab565b91505092915050565b60006140158383614a7e565b60208301905092915050565b61402a8161516b565b82525050565b61403981615116565b82525050565b600061404a826150bb565b61405481856150de565b935061405f83615081565b8060005b838110156140905781516140778882614009565b9750614082836150d1565b925050600181019050614063565b5085935050505092915050565b6140a681615128565b82525050565b6000815460018116600081146140c957600181146140ee57614132565b607f60028304166140da81876150ef565b955060ff1983168652808601935050614132565b600282046140fc81876150ef565b955061410785615091565b60005b828110156141295781548189015260018201915060208101905061410a565b82880195505050505b505092915050565b600061414683856150fa565b93506141538385846151a1565b61415c836151e3565b840190509392505050565b6000614173838561510b565b93506141808385846151a1565b82840190509392505050565b6000614197826150c6565b6141a181856150fa565b93506141b18185602086016151b0565b6141ba816151e3565b840191505092915050565b60006141d0826150c6565b6141da818561510b565b93506141ea8185602086016151b0565b80840191505092915050565b60008154600181166000811461421357600181146142385761427c565b607f6002830416614224818761510b565b955060ff198316865280860193505061427c565b60028204614246818761510b565b9550614251856150a6565b60005b8281101561427357815481890152600182019150602081019050614254565b82880195505050505b505092915050565b60006142916023836150fa565b91507f45524332303a207472616e7366657220746f20746865207a65726f206164647260008301527f65737300000000000000000000000000000000000000000000000000000000006020830152604082019050919050565b60006142f7601d836150fa565b91507f50756c6c207265717565737420616c726561647920636c61696d65642e0000006000830152602082019050919050565b6000614337601c836150fa565b91507f416d6f756e74206d7573742062652067726561746572207a65726f2e000000006000830152602082019050919050565b60006143776026836150fa565b91507f4f776e61626c653a206e6577206f776e657220697320746865207a65726f206160008301527f64647265737300000000000000000000000000000000000000000000000000006020830152604082019050919050565b60006143dd6022836150fa565b91507f45524332303a20617070726f766520746f20746865207a65726f20616464726560008301527f73730000000000000000000000000000000000000000000000000000000000006020830152604082019050919050565b6000614443602e836150fa565b91507f54686973206163636f756e7420636f6e6669726d6174696f6e20776173206e6560008301527f766572207265717565737465642e0000000000000000000000000000000000006020830152604082019050919050565b60006144a9601b836150fa565b91507f536166654d6174683a206164646974696f6e206f766572666c6f7700000000006000830152602082019050919050565b60006144e96030836150fa565b91507f4465706f73697420646964206e6f742063616d652066726f6d2074686973204560008301527f7468657265756d206163636f756e742e000000000000000000000000000000006020830152604082019050919050565b600061454f6020836150fa565b91507f4f776e6572206f7261636c652063616e206e6f742062652072656d6f7665642e6000830152602082019050919050565b600061458f6023836150fa565b91507f54686973204769744875622055736572206973206e6f7420726567697374657260008301527f65642e00000000000000000000000000000000000000000000000000000000006020830152604082019050919050565b60006145f56027836150fa565b91507f4465706f736974206973206e6f7420666f72207468697320476974487562206160008301527f63636f756e742e000000000000000000000000000000000000000000000000006020830152604082019050919050565b600061465b602b836150fa565b91507f526567697374726174696f6e2066656520286f7261636c6520636f737429206e60008301527f6f7420636f76657265642e0000000000000000000000000000000000000000006020830152604082019050919050565b60006146c16026836150fa565b91507f54686973204769744875622055736572206973206e6f7420636f6e6669726d6560008301527f64207965742e00000000000000000000000000000000000000000000000000006020830152604082019050919050565b60006147276020836150fa565b91507f4f776e61626c653a2063616c6c6572206973206e6f7420746865206f776e65726000830152602082019050919050565b60006147676021836150fa565b91507f45524332303a206275726e2066726f6d20746865207a65726f2061646472657360008301527f73000000000000000000000000000000000000000000000000000000000000006020830152604082019050919050565b60006147cd6025836150fa565b91507f45524332303a207472616e736665722066726f6d20746865207a65726f20616460008301527f64726573730000000000000000000000000000000000000000000000000000006020830152604082019050919050565b60006148336017836150fa565b91507f4f7261636c6520646f6573206e6f74206578697374732e0000000000000000006000830152602082019050919050565b60006148736024836150fa565b91507f45524332303a20617070726f76652066726f6d20746865207a65726f2061646460008301527f72657373000000000000000000000000000000000000000000000000000000006020830152604082019050919050565b60006148d96024836150fa565b91507f436c61696d2066656520286f7261636c6520636f737429206e6f7420636f766560008301527f7265642e000000000000000000000000000000000000000000000000000000006020830152604082019050919050565b600061493f6024836150fa565b91507f4f6e6c79206f7261636c65732063616e20636f6e6669726d206f70657261746960008301527f6f6e732e000000000000000000000000000000000000000000000000000000006020830152604082019050919050565b60006149a56039836150fa565b91507f476974487562206163636f756e74206e6f74207265676973746572656420776960008301527f7468207468697320457468657265756d206163636f756e742e000000000000006020830152604082019050919050565b6000614a0b6012836150fa565b91507f596f75206d7573742073656e64204554482e00000000000000000000000000006000830152602082019050919050565b6000614a4b601f836150fa565b91507f45524332303a206d696e7420746f20746865207a65726f2061646472657373006000830152602082019050919050565b614a8781615154565b82525050565b614a9681615154565b82525050565b614aa58161515e565b82525050565b6000614ab782846140ac565b915081905092915050565b6000614acf828486614167565b91508190509392505050565b6000614ae782846141c5565b915081905092915050565b6000614afe82846141f6565b915081905092915050565b6000602082019050614b1e6000830184614030565b92915050565b6000604082019050614b396000830186614021565b8181036020830152614b4c81848661413a565b9050949350505050565b6000606082019050614b6b6000830187614021565b614b786020830186614a8d565b8181036040830152614b8b81848661413a565b905095945050505050565b6000604082019050614bab6000830185614030565b614bb8602083018461409d565b9392505050565b6000604082019050614bd46000830186614030565b8181036020830152614be781848661413a565b9050949350505050565b6000606082019050614c066000830186614030565b614c136020830185614a8d565b8181036040830152614c25818461418c565b9050949350505050565b60006020820190508181036000830152614c49818461403f565b905092915050565b6000602082019050614c66600083018461409d565b92915050565b60006040820190508181036000830152614c8781868861413a565b90508181036020830152614c9c81848661413a565b905095945050505050565b60006060820190508181036000830152614cc281878961413a565b90508181036020830152614cd781858761413a565b9050614ce66040830184614a8d565b9695505050505050565b60006020820190508181036000830152614d0a818461418c565b905092915050565b60006020820190508181036000830152614d2b81614284565b9050919050565b60006020820190508181036000830152614d4b816142ea565b9050919050565b60006020820190508181036000830152614d6b8161432a565b9050919050565b60006020820190508181036000830152614d8b8161436a565b9050919050565b60006020820190508181036000830152614dab816143d0565b9050919050565b60006020820190508181036000830152614dcb81614436565b9050919050565b60006020820190508181036000830152614deb8161449c565b9050919050565b60006020820190508181036000830152614e0b816144dc565b9050919050565b60006020820190508181036000830152614e2b81614542565b9050919050565b60006020820190508181036000830152614e4b81614582565b9050919050565b60006020820190508181036000830152614e6b816145e8565b9050919050565b60006020820190508181036000830152614e8b8161464e565b9050919050565b60006020820190508181036000830152614eab816146b4565b9050919050565b60006020820190508181036000830152614ecb8161471a565b9050919050565b60006020820190508181036000830152614eeb8161475a565b9050919050565b60006020820190508181036000830152614f0b816147c0565b9050919050565b60006020820190508181036000830152614f2b81614826565b9050919050565b60006020820190508181036000830152614f4b81614866565b9050919050565b60006020820190508181036000830152614f6b816148cc565b9050919050565b60006020820190508181036000830152614f8b81614932565b9050919050565b60006020820190508181036000830152614fab81614998565b9050919050565b60006020820190508181036000830152614fcb816149fe565b9050919050565b60006020820190508181036000830152614feb81614a3e565b9050919050565b60006020820190506150076000830184614a8d565b92915050565b60006020820190506150226000830184614a9c565b92915050565b6000604051905081810181811067ffffffffffffffff8211171561504b57600080fd5b8060405250919050565b600067ffffffffffffffff82111561506c57600080fd5b601f19601f8301169050602081019050919050565b6000819050602082019050919050565b60008190508160005260206000209050919050565b60008190508160005260206000209050919050565b600081519050919050565b600081519050919050565b6000602082019050919050565b600082825260208201905092915050565b600081905092915050565b600082825260208201905092915050565b600081905092915050565b600061512182615134565b9050919050565b60008115159050919050565b600073ffffffffffffffffffffffffffffffffffffffff82169050919050565b6000819050919050565b600060ff82169050919050565b60006151768261517d565b9050919050565b60006151888261518f565b9050919050565b600061519a82615134565b9050919050565b82818337600083830152505050565b60005b838110156151ce5780820151818401526020810190506151b3565b838111156151dd576000848401525b50505050565b6000601f19601f8301169050919050565b6151fd81615116565b811461520857600080fd5b50565b61521481615154565b811461521f57600080fd5b5056fe45524332303a206275726e20616d6f756e7420657863656564732062616c616e636545524332303a207472616e7366657220616d6f756e7420657863656564732062616c616e636545524332303a207472616e7366657220616d6f756e74206578636565647320616c6c6f77616e636545524332303a2064656372656173656420616c6c6f77616e63652062656c6f77207a65726fa26469706673582212208175a52111b273c77dc4867e382acf872fb2db7b845eb0bb5888adb513a3521564736f6c63430006060033",
  "immutableReferences": {},
  "source": "// SPDX-License-Identifier: MIT\npragma solidity ^0.6.0;\npragma experimental ABIEncoderV2;\n\nimport \"@openzeppelin/contracts/token/ERC20/ERC20.sol\";\nimport \"@openzeppelin/contracts/access/Ownable.sol\";\nimport \"./MergeToken.sol\";\n\ncontract MergePay is ERC20, Ownable {\n  struct User {\n    address account;\n    bool confirmed;\n  }\n\n  struct UserDeposit {\n    address from;\n    uint256 amount;\n    string githubUser;\n  }\n\n  struct IssueDeposit {\n    address from;\n    uint256 amount;\n    string issueId;\n  }\n\n  event RegistrationRequestEvent(address account, string githubUser);\n  event RegistrationConfirmedEvent(address account, string githubUser);\n  event ClaimPrRequestEvent(string prId, string githubUser);\n  event ClaimPrConfirmEvent(string prId, string githubUser, uint256 score);\n  event UserDepositEvent(address account, uint256 amount, string githubUser);\n  event IssueDepositEvent(address account, uint256 amount, string issueId);\n\n  mapping(address => bool) private _oracles;\n\n  mapping(string => User) public _users;\n  mapping(address => string) public _usersByAddress;\n\n  mapping(uint256 => UserDeposit) public _userDeposits;\n  uint256 private _nextUserDepositId = 0;\n  mapping(string => uint256[]) public _userDepositIdsByGithubUser;\n  mapping(address => uint256[]) public _userDepositIdsBySender;\n\n  mapping(uint256 => IssueDeposit) public _issueDeposits;\n  uint256 public _nextIssueDepositId = 0;\n  mapping(string => uint256[]) public _issueDepositIdsByIssueId;\n  mapping(address => uint256[]) public _issueDepositIdsBySender;\n\n  mapping(string => uint256) public _issueBoosts;\n  mapping(string => bool) public _claimedPullRequests;\n\n  modifier onlyOracles {\n    require(_oracles[msg.sender], \"Only oracles can confirm operations.\");\n    _;\n  }\n\n  /// @dev Initiates MergeToken and set owner as oracle.\n  constructor() ERC20(\"Merge Token\", \"MERGE\") public {\n    _oracles[owner()] = true;\n  }\n\n  /// @param oracle The oracle address to add\n  function enableOracle(address oracle) external onlyOwner {\n    _oracles[oracle] = true;\n  }\n\n  /// @param oracle The oracle address to remove (cannot be owner)\n  function disableOracle(address oracle) external onlyOwner {\n    require(_oracles[oracle], \"Oracle does not exists.\");\n    require(oracle != owner(), \"Owner oracle can not be removed.\");\n    _oracles[oracle] = false;\n  }\n\n  /// @dev Verify ownership over GitHub account by checking for a repositry of\n  /// @dev githubUser named after msg.sender. Adds user as unconfirmed and sends\n  /// @dev an oracle request, that will be fullfilled in registerConfirm.\n  /// @param githubUser The GitHub username to register\n  function register(string calldata githubUser) external payable {\n    require(msg.value > 34665 * tx.gasprice, \"Registration fee (oracle cost) not covered.\");\n    if (_users[githubUser].account != address(0)) {\n      delete _usersByAddress[_users[githubUser].account];\n    }\n    _users[githubUser] = User(msg.sender, false);\n    _usersByAddress[msg.sender] = githubUser;\n\n    payable(owner()).transfer(msg.value);\n\n    emit RegistrationRequestEvent(msg.sender, githubUser);\n  }\n\n  /// @dev Oracle fullfill method. Sets unconfirmed user to confirmed if repo exists.\n  /// @param githubUser The githubUser to confirm\n  /// @param account The Eth account to confirm\n  function registerConfirm(string calldata githubUser, address account) external onlyOracles {\n    require(\n      _users[githubUser].account != address(0) && _users[githubUser].account == account,\n      \"This account confirmation was never requested.\"\n    );\n    _users[githubUser].confirmed = true;\n    emit RegistrationConfirmedEvent(account, githubUser);\n  }\n\n  /// @dev Send ETH to a registered githubUser.\n  /// @param githubUser The receiving githubUser.\n  function sendEthToGithubUser(string calldata githubUser) external payable {\n    require(msg.value > 0, \"You must send ETH.\");\n    require(_users[githubUser].account != address(0), \"This GitHub User is not registered.\");\n    require(_users[githubUser].confirmed == true, \"This GitHub User is not confirmed yet.\");\n    payable(_users[githubUser].account).transfer(msg.value);\n    _mint(_users[githubUser].account, msg.value / 100);\n    _mint(msg.sender, msg.value / 100);\n  }\n\n  /// @dev Deposit ETH to a registered githubUser.\n  /// @param githubUser The receiving githubUser.\n  function depositEthForGithubUser(string calldata githubUser) external payable {\n    require(msg.value > 0, \"You must send ETH.\");\n    _nextUserDepositId++;\n    _userDeposits[_nextUserDepositId] = UserDeposit(msg.sender, msg.value, githubUser);\n    _userDepositIdsByGithubUser[githubUser].push(_nextUserDepositId);\n    _userDepositIdsBySender[msg.sender].push(_nextUserDepositId);\n    emit UserDepositEvent(msg.sender, msg.value, githubUser);\n  }\n\n  function withdrawUserDeposit(uint256 depositId) external {\n    require(_users[_usersByAddress[msg.sender]].account == msg.sender, \"GitHub account not registered with this Ethereum account.\");\n    require(keccak256(bytes(_userDeposits[depositId].githubUser)) == keccak256(bytes(_usersByAddress[msg.sender])), \"Deposit is not for this GitHub account.\");\n    payable(msg.sender).transfer(_userDeposits[depositId].amount);\n    _mint(_userDeposits[depositId].from, _userDeposits[depositId].amount / 100);\n    _mint(msg.sender, _userDeposits[depositId].amount / 100);\n    delete _userDeposits[depositId];\n  }\n\n  function refundUserDeposit(uint256 depositId) external {\n    require(_userDeposits[depositId].from == msg.sender, \"Deposit did not came from this Ethereum account.\");\n    payable(msg.sender).transfer(_userDeposits[depositId].amount);\n    delete _userDeposits[depositId];\n  }\n\n  function getUserDepositIdsForGithubUser(string calldata githubUser) external view returns(uint256[] memory) {\n    return _userDepositIdsByGithubUser[githubUser];\n  }\n\n  function getUserDepositIdsForSender() external view returns(uint256[] memory) {\n    return _userDepositIdsBySender[msg.sender];\n  }\n\n  /// @dev Deposit ETH to a github issue.\n  /// @param issueId The receiving github issue.\n  function depositEthForIssue(string calldata issueId) external payable {\n    require(msg.value > 0, \"You must send ETH.\");\n    _nextIssueDepositId++;\n    _issueDeposits[_nextIssueDepositId] = IssueDeposit(msg.sender, msg.value, issueId);\n    _issueDepositIdsByIssueId[issueId].push(_nextIssueDepositId);\n    _issueDepositIdsBySender[msg.sender].push(_nextIssueDepositId);\n    emit IssueDepositEvent(msg.sender, msg.value, issueId);\n  }\n\n  function refundIssueDeposit(uint256 depositId) external {\n    require(_issueDeposits[depositId].from == msg.sender, \"Deposit did not came from this Ethereum account.\");\n    payable(msg.sender).transfer(_issueDeposits[depositId].amount);\n    delete _issueDeposits[depositId];\n  }\n\n  function getIssueDepositIdsForIssueId(string calldata issueId) external view returns(uint256[] memory) {\n    return _issueDepositIdsByIssueId[issueId];\n  }\n\n  function getIssueDepositIdsForSender() external view returns(uint256[] memory) {\n    return _issueDepositIdsBySender[msg.sender];\n  }\n\n  function pinIssue(string memory issueId, uint256 amount) public {\n    require(amount > 0, \"Amount must be greater zero.\");\n    _burn(msg.sender, amount);\n    _issueBoosts[issueId] += amount;\n  }\n\n  function claimPullRequest(string calldata prId, string calldata githubUser) external payable {\n    require(msg.value > 34665 * tx.gasprice, \"Claim fee (oracle cost) not covered.\");\n    require(_claimedPullRequests[prId] == false, \"Pull request already claimed.\");\n    require(_users[githubUser].account != address(0), \"This GitHub User is not registered.\");\n    emit ClaimPrRequestEvent(prId, githubUser);\n  }\n\n  function confirmClaimPullRequest(string calldata prId, string calldata githubUser, uint256 score) external onlyOracles {\n    require(_claimedPullRequests[prId] == false, \"Pull request already claimed.\");\n    require(_users[githubUser].account != address(0), \"This GitHub User is not registered.\");\n    _claimedPullRequests[prId] = true;\n    _mint(_users[githubUser].account, score * uint256(10) ** decimals());\n    emit ClaimPrConfirmEvent(prId, githubUser, score);\n  }\n}\n",
  "sourcePath": "/home/mkt/Projects/mergepay-contracts/contracts/MergePay.sol",
  "compiler": {
    "name": "solc",
    "version": "0.6.6+commit.6c089d02.Emscripten.clang"
  },
  "schemaVersion": "3.2.5",
  "updatedAt": "2020-11-16T13:09:49.106Z",
  "networkType": "ethereum",
  "devdoc": {
    "methods": {
      "allowance(address,address)": {
        "details": "See {IERC20-allowance}."
      },
      "approve(address,uint256)": {
        "details": "See {IERC20-approve}.     * Requirements:     * - `spender` cannot be the zero address."
      },
      "balanceOf(address)": {
        "details": "See {IERC20-balanceOf}."
      },
      "constructor": {
        "details": "Initiates MergeToken and set owner as oracle."
      },
      "decimals()": {
        "details": "Returns the number of decimals used to get its user representation. For example, if `decimals` equals `2`, a balance of `505` tokens should be displayed to a user as `5,05` (`505 / 10 ** 2`).     * Tokens usually opt for a value of 18, imitating the relationship between Ether and Wei. This is the value {ERC20} uses, unless {_setupDecimals} is called.     * NOTE: This information is only used for _display_ purposes: it in no way affects any of the arithmetic of the contract, including {IERC20-balanceOf} and {IERC20-transfer}."
      },
      "decreaseAllowance(address,uint256)": {
        "details": "Atomically decreases the allowance granted to `spender` by the caller.     * This is an alternative to {approve} that can be used as a mitigation for problems described in {IERC20-approve}.     * Emits an {Approval} event indicating the updated allowance.     * Requirements:     * - `spender` cannot be the zero address. - `spender` must have allowance for the caller of at least `subtractedValue`."
      },
      "depositEthForGithubUser(string)": {
        "details": "Deposit ETH to a registered githubUser.",
        "params": {
          "githubUser": "The receiving githubUser."
        }
      },
      "depositEthForIssue(string)": {
        "details": "Deposit ETH to a github issue.",
        "params": {
          "issueId": "The receiving github issue."
        }
      },
      "disableOracle(address)": {
        "params": {
          "oracle": "The oracle address to remove (cannot be owner)"
        }
      },
      "enableOracle(address)": {
        "params": {
          "oracle": "The oracle address to add"
        }
      },
      "increaseAllowance(address,uint256)": {
        "details": "Atomically increases the allowance granted to `spender` by the caller.     * This is an alternative to {approve} that can be used as a mitigation for problems described in {IERC20-approve}.     * Emits an {Approval} event indicating the updated allowance.     * Requirements:     * - `spender` cannot be the zero address."
      },
      "name()": {
        "details": "Returns the name of the token."
      },
      "owner()": {
        "details": "Returns the address of the current owner."
      },
      "register(string)": {
        "details": "Verify ownership over GitHub account by checking for a repositry ofgithubUser named after msg.sender. Adds user as unconfirmed and sendsan oracle request, that will be fullfilled in registerConfirm.",
        "params": {
          "githubUser": "The GitHub username to register"
        }
      },
      "registerConfirm(string,address)": {
        "details": "Oracle fullfill method. Sets unconfirmed user to confirmed if repo exists.",
        "params": {
          "account": "The Eth account to confirm",
          "githubUser": "The githubUser to confirm"
        }
      },
      "renounceOwnership()": {
        "details": "Leaves the contract without owner. It will not be possible to call `onlyOwner` functions anymore. Can only be called by the current owner.     * NOTE: Renouncing ownership will leave the contract without an owner, thereby removing any functionality that is only available to the owner."
      },
      "sendEthToGithubUser(string)": {
        "details": "Send ETH to a registered githubUser.",
        "params": {
          "githubUser": "The receiving githubUser."
        }
      },
      "symbol()": {
        "details": "Returns the symbol of the token, usually a shorter version of the name."
      },
      "totalSupply()": {
        "details": "See {IERC20-totalSupply}."
      },
      "transfer(address,uint256)": {
        "details": "See {IERC20-transfer}.     * Requirements:     * - `recipient` cannot be the zero address. - the caller must have a balance of at least `amount`."
      },
      "transferFrom(address,address,uint256)": {
        "details": "See {IERC20-transferFrom}.     * Emits an {Approval} event indicating the updated allowance. This is not required by the EIP. See the note at the beginning of {ERC20};     * Requirements: - `sender` and `recipient` cannot be the zero address. - `sender` must have a balance of at least `amount`. - the caller must have allowance for ``sender``'s tokens of at least `amount`."
      },
      "transferOwnership(address)": {
        "details": "Transfers ownership of the contract to a new account (`newOwner`). Can only be called by the current owner."
      }
    }
  },
  "userdoc": {
    "methods": {}
  }
}