{
  "contractName": "MergePay",
  "abi": [
    {
      "inputs": [],
      "stateMutability": "nonpayable",
      "type": "constructor"
    },
    {
      "anonymous": false,
      "inputs": [
        {
          "indexed": true,
          "internalType": "address",
          "name": "owner",
          "type": "address"
        },
        {
          "indexed": true,
          "internalType": "address",
          "name": "spender",
          "type": "address"
        },
        {
          "indexed": false,
          "internalType": "uint256",
          "name": "value",
          "type": "uint256"
        }
      ],
      "name": "Approval",
      "type": "event"
    },
    {
      "anonymous": false,
      "inputs": [
        {
          "indexed": false,
          "internalType": "address",
          "name": "account",
          "type": "address"
        },
        {
          "indexed": false,
          "internalType": "uint256",
          "name": "amount",
          "type": "uint256"
        },
        {
          "indexed": false,
          "internalType": "string",
          "name": "issueId",
          "type": "string"
        }
      ],
      "name": "IssueDepositEvent",
      "type": "event"
    },
    {
      "anonymous": false,
      "inputs": [
        {
          "indexed": true,
          "internalType": "address",
          "name": "previousOwner",
          "type": "address"
        },
        {
          "indexed": true,
          "internalType": "address",
          "name": "newOwner",
          "type": "address"
        }
      ],
      "name": "OwnershipTransferred",
      "type": "event"
    },
    {
      "anonymous": false,
      "inputs": [
        {
          "indexed": false,
          "internalType": "address",
          "name": "account",
          "type": "address"
        },
        {
          "indexed": false,
          "internalType": "string",
          "name": "githubUser",
          "type": "string"
        }
      ],
      "name": "RegistrationConfirmedEvent",
      "type": "event"
    },
    {
      "anonymous": false,
      "inputs": [
        {
          "indexed": false,
          "internalType": "address",
          "name": "account",
          "type": "address"
        },
        {
          "indexed": false,
          "internalType": "string",
          "name": "githubUser",
          "type": "string"
        }
      ],
      "name": "RegistrationRequestEvent",
      "type": "event"
    },
    {
      "anonymous": false,
      "inputs": [
        {
          "indexed": true,
          "internalType": "address",
          "name": "from",
          "type": "address"
        },
        {
          "indexed": true,
          "internalType": "address",
          "name": "to",
          "type": "address"
        },
        {
          "indexed": false,
          "internalType": "uint256",
          "name": "value",
          "type": "uint256"
        }
      ],
      "name": "Transfer",
      "type": "event"
    },
    {
      "anonymous": false,
      "inputs": [
        {
          "indexed": false,
          "internalType": "address",
          "name": "account",
          "type": "address"
        },
        {
          "indexed": false,
          "internalType": "uint256",
          "name": "amount",
          "type": "uint256"
        },
        {
          "indexed": false,
          "internalType": "string",
          "name": "githubUser",
          "type": "string"
        }
      ],
      "name": "UserDepositEvent",
      "type": "event"
    },
    {
      "inputs": [
        {
          "internalType": "string",
          "name": "",
          "type": "string"
        }
      ],
      "name": "_issueBoosts",
      "outputs": [
        {
          "internalType": "uint256",
          "name": "",
          "type": "uint256"
        }
      ],
      "stateMutability": "view",
      "type": "function",
      "constant": true
    },
    {
      "inputs": [
        {
          "internalType": "string",
          "name": "",
          "type": "string"
        },
        {
          "internalType": "uint256",
          "name": "",
          "type": "uint256"
        }
      ],
      "name": "_issueDepositIdsByIssueId",
      "outputs": [
        {
          "internalType": "uint256",
          "name": "",
          "type": "uint256"
        }
      ],
      "stateMutability": "view",
      "type": "function",
      "constant": true
    },
    {
      "inputs": [
        {
          "internalType": "address",
          "name": "",
          "type": "address"
        },
        {
          "internalType": "uint256",
          "name": "",
          "type": "uint256"
        }
      ],
      "name": "_issueDepositIdsBySender",
      "outputs": [
        {
          "internalType": "uint256",
          "name": "",
          "type": "uint256"
        }
      ],
      "stateMutability": "view",
      "type": "function",
      "constant": true
    },
    {
      "inputs": [
        {
          "internalType": "uint256",
          "name": "",
          "type": "uint256"
        }
      ],
      "name": "_issueDeposits",
      "outputs": [
        {
          "internalType": "address",
          "name": "from",
          "type": "address"
        },
        {
          "internalType": "uint256",
          "name": "amount",
          "type": "uint256"
        },
        {
          "internalType": "string",
          "name": "issueId",
          "type": "string"
        }
      ],
      "stateMutability": "view",
      "type": "function",
      "constant": true
    },
    {
      "inputs": [],
      "name": "_nextIssueDepositId",
      "outputs": [
        {
          "internalType": "uint256",
          "name": "",
          "type": "uint256"
        }
      ],
      "stateMutability": "view",
      "type": "function",
      "constant": true
    },
    {
      "inputs": [
        {
          "internalType": "string",
          "name": "",
          "type": "string"
        },
        {
          "internalType": "uint256",
          "name": "",
          "type": "uint256"
        }
      ],
      "name": "_userDepositIdsByGithubUser",
      "outputs": [
        {
          "internalType": "uint256",
          "name": "",
          "type": "uint256"
        }
      ],
      "stateMutability": "view",
      "type": "function",
      "constant": true
    },
    {
      "inputs": [
        {
          "internalType": "address",
          "name": "",
          "type": "address"
        },
        {
          "internalType": "uint256",
          "name": "",
          "type": "uint256"
        }
      ],
      "name": "_userDepositIdsBySender",
      "outputs": [
        {
          "internalType": "uint256",
          "name": "",
          "type": "uint256"
        }
      ],
      "stateMutability": "view",
      "type": "function",
      "constant": true
    },
    {
      "inputs": [
        {
          "internalType": "uint256",
          "name": "",
          "type": "uint256"
        }
      ],
      "name": "_userDeposits",
      "outputs": [
        {
          "internalType": "address",
          "name": "from",
          "type": "address"
        },
        {
          "internalType": "uint256",
          "name": "amount",
          "type": "uint256"
        },
        {
          "internalType": "string",
          "name": "githubUser",
          "type": "string"
        }
      ],
      "stateMutability": "view",
      "type": "function",
      "constant": true
    },
    {
      "inputs": [
        {
          "internalType": "string",
          "name": "",
          "type": "string"
        }
      ],
      "name": "_users",
      "outputs": [
        {
          "internalType": "address",
          "name": "account",
          "type": "address"
        },
        {
          "internalType": "bool",
          "name": "confirmed",
          "type": "bool"
        }
      ],
      "stateMutability": "view",
      "type": "function",
      "constant": true
    },
    {
      "inputs": [
        {
          "internalType": "address",
          "name": "",
          "type": "address"
        }
      ],
      "name": "_usersByAddress",
      "outputs": [
        {
          "internalType": "string",
          "name": "",
          "type": "string"
        }
      ],
      "stateMutability": "view",
      "type": "function",
      "constant": true
    },
    {
      "inputs": [
        {
          "internalType": "address",
          "name": "owner",
          "type": "address"
        },
        {
          "internalType": "address",
          "name": "spender",
          "type": "address"
        }
      ],
      "name": "allowance",
      "outputs": [
        {
          "internalType": "uint256",
          "name": "",
          "type": "uint256"
        }
      ],
      "stateMutability": "view",
      "type": "function",
      "constant": true
    },
    {
      "inputs": [
        {
          "internalType": "address",
          "name": "spender",
          "type": "address"
        },
        {
          "internalType": "uint256",
          "name": "amount",
          "type": "uint256"
        }
      ],
      "name": "approve",
      "outputs": [
        {
          "internalType": "bool",
          "name": "",
          "type": "bool"
        }
      ],
      "stateMutability": "nonpayable",
      "type": "function"
    },
    {
      "inputs": [
        {
          "internalType": "address",
          "name": "account",
          "type": "address"
        }
      ],
      "name": "balanceOf",
      "outputs": [
        {
          "internalType": "uint256",
          "name": "",
          "type": "uint256"
        }
      ],
      "stateMutability": "view",
      "type": "function",
      "constant": true
    },
    {
      "inputs": [],
      "name": "decimals",
      "outputs": [
        {
          "internalType": "uint8",
          "name": "",
          "type": "uint8"
        }
      ],
      "stateMutability": "view",
      "type": "function",
      "constant": true
    },
    {
      "inputs": [
        {
          "internalType": "address",
          "name": "spender",
          "type": "address"
        },
        {
          "internalType": "uint256",
          "name": "subtractedValue",
          "type": "uint256"
        }
      ],
      "name": "decreaseAllowance",
      "outputs": [
        {
          "internalType": "bool",
          "name": "",
          "type": "bool"
        }
      ],
      "stateMutability": "nonpayable",
      "type": "function"
    },
    {
      "inputs": [
        {
          "internalType": "address",
          "name": "spender",
          "type": "address"
        },
        {
          "internalType": "uint256",
          "name": "addedValue",
          "type": "uint256"
        }
      ],
      "name": "increaseAllowance",
      "outputs": [
        {
          "internalType": "bool",
          "name": "",
          "type": "bool"
        }
      ],
      "stateMutability": "nonpayable",
      "type": "function"
    },
    {
      "inputs": [],
      "name": "name",
      "outputs": [
        {
          "internalType": "string",
          "name": "",
          "type": "string"
        }
      ],
      "stateMutability": "view",
      "type": "function",
      "constant": true
    },
    {
      "inputs": [],
      "name": "owner",
      "outputs": [
        {
          "internalType": "address",
          "name": "",
          "type": "address"
        }
      ],
      "stateMutability": "view",
      "type": "function",
      "constant": true
    },
    {
      "inputs": [],
      "name": "renounceOwnership",
      "outputs": [],
      "stateMutability": "nonpayable",
      "type": "function"
    },
    {
      "inputs": [],
      "name": "symbol",
      "outputs": [
        {
          "internalType": "string",
          "name": "",
          "type": "string"
        }
      ],
      "stateMutability": "view",
      "type": "function",
      "constant": true
    },
    {
      "inputs": [],
      "name": "totalSupply",
      "outputs": [
        {
          "internalType": "uint256",
          "name": "",
          "type": "uint256"
        }
      ],
      "stateMutability": "view",
      "type": "function",
      "constant": true
    },
    {
      "inputs": [
        {
          "internalType": "address",
          "name": "recipient",
          "type": "address"
        },
        {
          "internalType": "uint256",
          "name": "amount",
          "type": "uint256"
        }
      ],
      "name": "transfer",
      "outputs": [
        {
          "internalType": "bool",
          "name": "",
          "type": "bool"
        }
      ],
      "stateMutability": "nonpayable",
      "type": "function"
    },
    {
      "inputs": [
        {
          "internalType": "address",
          "name": "sender",
          "type": "address"
        },
        {
          "internalType": "address",
          "name": "recipient",
          "type": "address"
        },
        {
          "internalType": "uint256",
          "name": "amount",
          "type": "uint256"
        }
      ],
      "name": "transferFrom",
      "outputs": [
        {
          "internalType": "bool",
          "name": "",
          "type": "bool"
        }
      ],
      "stateMutability": "nonpayable",
      "type": "function"
    },
    {
      "inputs": [
        {
          "internalType": "address",
          "name": "newOwner",
          "type": "address"
        }
      ],
      "name": "transferOwnership",
      "outputs": [],
      "stateMutability": "nonpayable",
      "type": "function"
    },
    {
      "inputs": [
        {
          "internalType": "address",
          "name": "oracle",
          "type": "address"
        }
      ],
      "name": "enableOracle",
      "outputs": [],
      "stateMutability": "nonpayable",
      "type": "function"
    },
    {
      "inputs": [
        {
          "internalType": "address",
          "name": "oracle",
          "type": "address"
        }
      ],
      "name": "disableOracle",
      "outputs": [],
      "stateMutability": "nonpayable",
      "type": "function"
    },
    {
      "inputs": [
        {
          "internalType": "string",
          "name": "githubUser",
          "type": "string"
        }
      ],
      "name": "register",
      "outputs": [],
      "stateMutability": "payable",
      "type": "function",
      "payable": true
    },
    {
      "inputs": [
        {
          "internalType": "string",
          "name": "githubUser",
          "type": "string"
        },
        {
          "internalType": "address",
          "name": "account",
          "type": "address"
        }
      ],
      "name": "registerConfirm",
      "outputs": [],
      "stateMutability": "nonpayable",
      "type": "function"
    },
    {
      "inputs": [
        {
          "internalType": "string",
          "name": "githubUser",
          "type": "string"
        }
      ],
      "name": "sendEthToGithubUser",
      "outputs": [],
      "stateMutability": "payable",
      "type": "function",
      "payable": true
    },
    {
      "inputs": [
        {
          "internalType": "string",
          "name": "githubUser",
          "type": "string"
        }
      ],
      "name": "depositEthForGithubUser",
      "outputs": [],
      "stateMutability": "payable",
      "type": "function",
      "payable": true
    },
    {
      "inputs": [
        {
          "internalType": "uint256",
          "name": "depositId",
          "type": "uint256"
        }
      ],
      "name": "withdrawUserDeposit",
      "outputs": [],
      "stateMutability": "nonpayable",
      "type": "function"
    },
    {
      "inputs": [
        {
          "internalType": "uint256",
          "name": "depositId",
          "type": "uint256"
        }
      ],
      "name": "refundUserDeposit",
      "outputs": [],
      "stateMutability": "nonpayable",
      "type": "function"
    },
    {
      "inputs": [
        {
          "internalType": "string",
          "name": "githubUser",
          "type": "string"
        }
      ],
      "name": "getUserDepositIdsForGithubUser",
      "outputs": [
        {
          "internalType": "uint256[]",
          "name": "",
          "type": "uint256[]"
        }
      ],
      "stateMutability": "view",
      "type": "function",
      "constant": true
    },
    {
      "inputs": [],
      "name": "getUserDepositIdsForSender",
      "outputs": [
        {
          "internalType": "uint256[]",
          "name": "",
          "type": "uint256[]"
        }
      ],
      "stateMutability": "view",
      "type": "function",
      "constant": true
    },
    {
      "inputs": [
        {
          "internalType": "string",
          "name": "issueId",
          "type": "string"
        }
      ],
      "name": "depositEthForIssue",
      "outputs": [],
      "stateMutability": "payable",
      "type": "function",
      "payable": true
    },
    {
      "inputs": [
        {
          "internalType": "uint256",
          "name": "depositId",
          "type": "uint256"
        }
      ],
      "name": "refundIssueDeposit",
      "outputs": [],
      "stateMutability": "nonpayable",
      "type": "function"
    },
    {
      "inputs": [
        {
          "internalType": "string",
          "name": "issueId",
          "type": "string"
        }
      ],
      "name": "getIssueDepositIdsForIssueId",
      "outputs": [
        {
          "internalType": "uint256[]",
          "name": "",
          "type": "uint256[]"
        }
      ],
      "stateMutability": "view",
      "type": "function",
      "constant": true
    },
    {
      "inputs": [],
      "name": "getIssueDepositIdsForSender",
      "outputs": [
        {
          "internalType": "uint256[]",
          "name": "",
          "type": "uint256[]"
        }
      ],
      "stateMutability": "view",
      "type": "function",
      "constant": true
    },
    {
      "inputs": [
        {
          "internalType": "string",
          "name": "issueId",
          "type": "string"
        },
        {
          "internalType": "uint256",
          "name": "amount",
          "type": "uint256"
        }
      ],
      "name": "pinIssue",
      "outputs": [],
      "stateMutability": "nonpayable",
      "type": "function"
    }
  ],
  "bytecode": "0x60806040526000600a556000600e553480156200001b57600080fd5b506040518060400160405280600b81526020017f4d6572676520546f6b656e0000000000000000000000000000000000000000008152506040518060400160405280600581526020017f4d455247450000000000000000000000000000000000000000000000000000008152508160039080519060200190620000a092919062000228565b508060049080519060200190620000b992919062000228565b506012600560006101000a81548160ff021916908360ff16021790555050506000620000ea620001f660201b60201c565b905080600560016101000a81548173ffffffffffffffffffffffffffffffffffffffff021916908373ffffffffffffffffffffffffffffffffffffffff1602179055508073ffffffffffffffffffffffffffffffffffffffff16600073ffffffffffffffffffffffffffffffffffffffff167f8be0079c531659141344cd1fd0a4f28419497f9722a3daafe3b4186f6b6457e060405160405180910390a3506001600660006200019f620001fe60201b60201c565b73ffffffffffffffffffffffffffffffffffffffff1673ffffffffffffffffffffffffffffffffffffffff16815260200190815260200160002060006101000a81548160ff021916908315150217905550620002d7565b600033905090565b6000600560019054906101000a900473ffffffffffffffffffffffffffffffffffffffff16905090565b828054600181600116156101000203166002900490600052602060002090601f016020900481019282601f106200026b57805160ff19168380011785556200029c565b828001600101855582156200029c579182015b828111156200029b5782518255916020019190600101906200027e565b5b509050620002ab9190620002af565b5090565b620002d491905b80821115620002d0576000816000905550600101620002b6565b5090565b90565b614b6e80620002e76000396000f3fe6080604052600436106102305760003560e01c8063715018a61161012e578063c315fbca116100ab578063f2c298be1161006f578063f2c298be146108f6578063f2fde38b14610912578063f4b90ef71461093b578063f4c705ab14610957578063fb95354a1461098057610230565b8063c315fbca146107fa578063c695389d14610823578063ce85fc4614610860578063dd62ed3e1461089d578063efda0fd6146108da57610230565b80638da5cb5b116100f25780638da5cb5b1461070e57806395d89b41146107395780639996f18614610764578063a457c2d714610780578063a9059cbb146107bd57610230565b8063715018a61461063f578063716f9d24146106565780637400e6171461069357806384f8f644146106bc5780638617fc46146106e557610230565b806339509351116101bc5780635d3dd29d116101805780635d3dd29d1461052057806360445fb21461055d5780636077321a1461058657806370388bf9146105c557806370a082311461060257610230565b806339509351146104135780634073951514610450578063454d05541461047b57806350aea559146104a657806353a61ff9146104e357610230565b806318160ddd1161020357806318160ddd1461030557806321ec48691461033057806323b872dd1461036e578063313ce567146103ab578063344ae077146103d657610230565b806306fdde0314610235578063095ea7b31461026057806309d406a11461029d5780630cb51747146102c6575b600080fd5b34801561024157600080fd5b5061024a6109ab565b60405161025791906145b1565b60405180910390f35b34801561026c57600080fd5b506102876004803603810190610282919061385d565b610a4d565b6040516102949190614596565b60405180910390f35b3480156102a957600080fd5b506102c460048036038101906102bf91906138de565b610a6b565b005b3480156102d257600080fd5b506102ed60048036038101906102e891906139cb565b610ca0565b6040516102fc93929190614536565b60405180910390f35b34801561031157600080fd5b5061031a610d82565b6040516103279190614873565b60405180910390f35b34801561033c57600080fd5b5061035760048036038101906103529190613936565b610d8c565b6040516103659291906144db565b60405180910390f35b34801561037a57600080fd5b506103956004803603810190610390919061380e565b610df3565b6040516103a29190614596565b60405180910390f35b3480156103b757600080fd5b506103c0610ecc565b6040516103cd919061488e565b60405180910390f35b3480156103e257600080fd5b506103fd60048036038101906103f89190613977565b610ee3565b60405161040a9190614873565b60405180910390f35b34801561041f57600080fd5b5061043a6004803603810190610435919061385d565b610f27565b6040516104479190614596565b60405180910390f35b34801561045c57600080fd5b50610465610fda565b6040516104729190614873565b60405180910390f35b34801561048757600080fd5b50610490610fe0565b60405161049d9190614574565b60405180910390f35b3480156104b257600080fd5b506104cd60048036038101906104c89190613899565b611075565b6040516104da9190614574565b60405180910390f35b3480156104ef57600080fd5b5061050a60048036038101906105059190613899565b6110ee565b6040516105179190614574565b60405180910390f35b34801561052c57600080fd5b5061054760048036038101906105429190613977565b611167565b6040516105549190614873565b60405180910390f35b34801561056957600080fd5b50610584600480360381019061057f91906139cb565b6111ab565b005b34801561059257600080fd5b506105ad60048036038101906105a891906139cb565b611304565b6040516105bc93929190614536565b60405180910390f35b3480156105d157600080fd5b506105ec60048036038101906105e79190613936565b6113e6565b6040516105f99190614873565b60405180910390f35b34801561060e57600080fd5b50610629600480360381019061062491906137a9565b611414565b6040516106369190614873565b60405180910390f35b34801561064b57600080fd5b5061065461145c565b005b34801561066257600080fd5b5061067d6004803603810190610678919061385d565b6115b4565b60405161068a9190614873565b60405180910390f35b34801561069f57600080fd5b506106ba60048036038101906106b591906137a9565b6115e2565b005b3480156106c857600080fd5b506106e360048036038101906106de9190613977565b6117d6565b005b3480156106f157600080fd5b5061070c600480360381019061070791906139cb565b611853565b005b34801561071a57600080fd5b506107236119ac565b604051610730919061444e565b60405180910390f35b34801561074557600080fd5b5061074e6119d6565b60405161075b91906145b1565b60405180910390f35b61077e60048036038101906107799190613899565b611a78565b005b34801561078c57600080fd5b506107a760048036038101906107a2919061385d565b611cba565b6040516107b49190614596565b60405180910390f35b3480156107c957600080fd5b506107e460048036038101906107df919061385d565b611d87565b6040516107f19190614596565b60405180910390f35b34801561080657600080fd5b50610821600480360381019061081c91906139cb565b611da5565b005b34801561082f57600080fd5b5061084a6004803603810190610845919061385d565b612090565b6040516108579190614873565b60405180910390f35b34801561086c57600080fd5b50610887600480360381019061088291906137a9565b6120be565b60405161089491906145b1565b60405180910390f35b3480156108a957600080fd5b506108c460048036038101906108bf91906137d2565b61216e565b6040516108d19190614873565b60405180910390f35b6108f460048036038101906108ef9190613899565b6121f5565b005b610910600480360381019061090b9190613899565b61245b565b005b34801561091e57600080fd5b50610939600480360381019061093491906137a9565b61273b565b005b61095560048036038101906109509190613899565b612902565b005b34801561096357600080fd5b5061097e600480360381019061097991906137a9565b612b44565b005b34801561098c57600080fd5b50610995612c36565b6040516109a29190614574565b60405180910390f35b606060038054600181600116156101000203166002900480601f016020809104026020016040519081016040528092919081815260200182805460018160011615610100020316600290048015610a435780601f10610a1857610100808354040283529160200191610a43565b820191906000526020600020905b815481529060010190602001808311610a2657829003601f168201915b5050505050905090565b6000610a61610a5a612ccb565b8484612cd3565b6001905092915050565b600660003373ffffffffffffffffffffffffffffffffffffffff1673ffffffffffffffffffffffffffffffffffffffff16815260200190815260200160002060009054906101000a900460ff16610af7576040517f08c379a0000000000000000000000000000000000000000000000000000000008152600401610aee906147f3565b60405180910390fd5b600073ffffffffffffffffffffffffffffffffffffffff1660078484604051610b21929190614407565b908152602001604051809103902060000160009054906101000a900473ffffffffffffffffffffffffffffffffffffffff1673ffffffffffffffffffffffffffffffffffffffff1614158015610be557508073ffffffffffffffffffffffffffffffffffffffff1660078484604051610b9b929190614407565b908152602001604051809103902060000160009054906101000a900473ffffffffffffffffffffffffffffffffffffffff1673ffffffffffffffffffffffffffffffffffffffff16145b610c24576040517f08c379a0000000000000000000000000000000000000000000000000000000008152600401610c1b90614653565b60405180910390fd5b600160078484604051610c38929190614407565b908152602001604051809103902060000160146101000a81548160ff0219169083151502179055507f55e4fcf1c7b4b1a6190089eb7ef1c1ff91d67d66917edf141d6223003929828a818484604051610c9393929190614504565b60405180910390a1505050565b60096020528060005260406000206000915090508060000160009054906101000a900473ffffffffffffffffffffffffffffffffffffffff1690806001015490806002018054600181600116156101000203166002900480601f016020809104026020016040519081016040528092919081815260200182805460018160011615610100020316600290048015610d785780601f10610d4d57610100808354040283529160200191610d78565b820191906000526020600020905b815481529060010190602001808311610d5b57829003601f168201915b5050505050905083565b6000600254905090565b6007818051602081018201805184825260208301602085012081835280955050505050506000915090508060000160009054906101000a900473ffffffffffffffffffffffffffffffffffffffff16908060000160149054906101000a900460ff16905082565b6000610e00848484612e9e565b610ec184610e0c612ccb565b610ebc85604051806060016040528060288152602001614aec60289139600160008b73ffffffffffffffffffffffffffffffffffffffff1673ffffffffffffffffffffffffffffffffffffffff1681526020019081526020016000206000610e72612ccb565b73ffffffffffffffffffffffffffffffffffffffff1673ffffffffffffffffffffffffffffffffffffffff168152602001908152602001600020546131339092919063ffffffff16565b612cd3565b600190509392505050565b6000600560009054906101000a900460ff16905090565b600f828051602081018201805184825260208301602085012081835280955050505050508181548110610f1257fe5b90600052602060002001600091509150505481565b6000610fd0610f34612ccb565b84610fcb8560016000610f45612ccb565b73ffffffffffffffffffffffffffffffffffffffff1673ffffffffffffffffffffffffffffffffffffffff16815260200190815260200160002060008973ffffffffffffffffffffffffffffffffffffffff1673ffffffffffffffffffffffffffffffffffffffff1681526020019081526020016000205461318e90919063ffffffff16565b612cd3565b6001905092915050565b600e5481565b6060600c60003373ffffffffffffffffffffffffffffffffffffffff1673ffffffffffffffffffffffffffffffffffffffff16815260200190815260200160002080548060200260200160405190810160405280929190818152602001828054801561106b57602002820191906000526020600020905b815481526020019060010190808311611057575b5050505050905090565b6060600f8383604051611089929190614407565b90815260200160405180910390208054806020026020016040519081016040528092919081815260200182805480156110e157602002820191906000526020600020905b8154815260200190600101908083116110cd575b5050505050905092915050565b6060600b8383604051611102929190614407565b908152602001604051809103902080548060200260200160405190810160405280929190818152602001828054801561115a57602002820191906000526020600020905b815481526020019060010190808311611146575b5050505050905092915050565b600b82805160208101820180518482526020830160208501208183528095505050505050818154811061119657fe5b90600052602060002001600091509150505481565b3373ffffffffffffffffffffffffffffffffffffffff166009600083815260200190815260200160002060000160009054906101000a900473ffffffffffffffffffffffffffffffffffffffff1673ffffffffffffffffffffffffffffffffffffffff161461124f576040517f08c379a000000000000000000000000000000000000000000000000000000000815260040161124690614693565b60405180910390fd5b3373ffffffffffffffffffffffffffffffffffffffff166108fc60096000848152602001908152602001600020600101549081150290604051600060405180830381858888f193505050501580156112ab573d6000803e3d6000fd5b5060096000828152602001908152602001600020600080820160006101000a81549073ffffffffffffffffffffffffffffffffffffffff021916905560018201600090556002820160006112ff9190613574565b505050565b600d6020528060005260406000206000915090508060000160009054906101000a900473ffffffffffffffffffffffffffffffffffffffff1690806001015490806002018054600181600116156101000203166002900480601f0160208091040260200160405190810160405280929190818152602001828054600181600116156101000203166002900480156113dc5780601f106113b1576101008083540402835291602001916113dc565b820191906000526020600020905b8154815290600101906020018083116113bf57829003601f168201915b5050505050905083565b6011818051602081018201805184825260208301602085012081835280955050505050506000915090505481565b60008060008373ffffffffffffffffffffffffffffffffffffffff1673ffffffffffffffffffffffffffffffffffffffff168152602001908152602001600020549050919050565b611464612ccb565b73ffffffffffffffffffffffffffffffffffffffff16600560019054906101000a900473ffffffffffffffffffffffffffffffffffffffff1673ffffffffffffffffffffffffffffffffffffffff16146114f3576040517f08c379a00000000000000000000000000000000000000000000000000000000081526004016114ea90614753565b60405180910390fd5b600073ffffffffffffffffffffffffffffffffffffffff16600560019054906101000a900473ffffffffffffffffffffffffffffffffffffffff1673ffffffffffffffffffffffffffffffffffffffff167f8be0079c531659141344cd1fd0a4f28419497f9722a3daafe3b4186f6b6457e060405160405180910390a36000600560016101000a81548173ffffffffffffffffffffffffffffffffffffffff021916908373ffffffffffffffffffffffffffffffffffffffff160217905550565b601060205281600052604060002081815481106115cd57fe5b90600052602060002001600091509150505481565b6115ea612ccb565b73ffffffffffffffffffffffffffffffffffffffff16600560019054906101000a900473ffffffffffffffffffffffffffffffffffffffff1673ffffffffffffffffffffffffffffffffffffffff1614611679576040517f08c379a000000000000000000000000000000000000000000000000000000000815260040161167090614753565b60405180910390fd5b600660008273ffffffffffffffffffffffffffffffffffffffff1673ffffffffffffffffffffffffffffffffffffffff16815260200190815260200160002060009054906101000a900460ff16611705576040517f08c379a00000000000000000000000000000000000000000000000000000000081526004016116fc906147b3565b60405180910390fd5b61170d6119ac565b73ffffffffffffffffffffffffffffffffffffffff168173ffffffffffffffffffffffffffffffffffffffff16141561177b576040517f08c379a0000000000000000000000000000000000000000000000000000000008152600401611772906146b3565b60405180910390fd5b6000600660008373ffffffffffffffffffffffffffffffffffffffff1673ffffffffffffffffffffffffffffffffffffffff16815260200190815260200160002060006101000a81548160ff02191690831515021790555050565b60008111611819576040517f08c379a0000000000000000000000000000000000000000000000000000000008152600401611810906145f3565b60405180910390fd5b61182333826131e3565b806011836040516118349190614420565b9081526020016040518091039020600082825401925050819055505050565b3373ffffffffffffffffffffffffffffffffffffffff16600d600083815260200190815260200160002060000160009054906101000a900473ffffffffffffffffffffffffffffffffffffffff1673ffffffffffffffffffffffffffffffffffffffff16146118f7576040517f08c379a00000000000000000000000000000000000000000000000000000000081526004016118ee90614693565b60405180910390fd5b3373ffffffffffffffffffffffffffffffffffffffff166108fc600d6000848152602001908152602001600020600101549081150290604051600060405180830381858888f19350505050158015611953573d6000803e3d6000fd5b50600d6000828152602001908152602001600020600080820160006101000a81549073ffffffffffffffffffffffffffffffffffffffff021916905560018201600090556002820160006119a79190613574565b505050565b6000600560019054906101000a900473ffffffffffffffffffffffffffffffffffffffff16905090565b606060048054600181600116156101000203166002900480601f016020809104026020016040519081016040528092919081815260200182805460018160011615610100020316600290048015611a6e5780601f10611a4357610100808354040283529160200191611a6e565b820191906000526020600020905b815481529060010190602001808311611a5157829003601f168201915b5050505050905090565b60003411611abb576040517f08c379a0000000000000000000000000000000000000000000000000000000008152600401611ab290614833565b60405180910390fd5b600a6000815480929190600101919050555060405180606001604052803373ffffffffffffffffffffffffffffffffffffffff16815260200134815260200183838080601f016020809104026020016040519081016040528093929190818152602001838380828437600081840152601f19601f8201169050808301925050505050505081525060096000600a54815260200190815260200160002060008201518160000160006101000a81548173ffffffffffffffffffffffffffffffffffffffff021916908373ffffffffffffffffffffffffffffffffffffffff160217905550602082015181600101556040820151816002019080519060200190611bc49291906135bc565b50905050600b8282604051611bda929190614407565b9081526020016040518091039020600a549080600181540180825580915050600190039060005260206000200160009091909190915055600c60003373ffffffffffffffffffffffffffffffffffffffff1673ffffffffffffffffffffffffffffffffffffffff168152602001908152602001600020600a5490806001815401808255809150506001900390600052602060002001600090919091909150557f406551011d3a3874d102c2ee25adb004adb6d90a8134f04c14bd02f73ad4a3d033348484604051611cae949392919061449b565b60405180910390a15050565b6000611d7d611cc7612ccb565b84611d7885604051806060016040528060258152602001614b146025913960016000611cf1612ccb565b73ffffffffffffffffffffffffffffffffffffffff1673ffffffffffffffffffffffffffffffffffffffff16815260200190815260200160002060008a73ffffffffffffffffffffffffffffffffffffffff1673ffffffffffffffffffffffffffffffffffffffff168152602001908152602001600020546131339092919063ffffffff16565b612cd3565b6001905092915050565b6000611d9b611d94612ccb565b8484612e9e565b6001905092915050565b3373ffffffffffffffffffffffffffffffffffffffff166007600860003373ffffffffffffffffffffffffffffffffffffffff1673ffffffffffffffffffffffffffffffffffffffff168152602001908152602001600020604051611e0a9190614437565b908152602001604051809103902060000160009054906101000a900473ffffffffffffffffffffffffffffffffffffffff1673ffffffffffffffffffffffffffffffffffffffff1614611e92576040517f08c379a0000000000000000000000000000000000000000000000000000000008152600401611e8990614813565b60405180910390fd5b600860003373ffffffffffffffffffffffffffffffffffffffff1673ffffffffffffffffffffffffffffffffffffffff168152602001908152602001600020604051611ede91906143f0565b604051809103902060096000838152602001908152602001600020600201604051611f0991906143f0565b604051809103902014611f51576040517f08c379a0000000000000000000000000000000000000000000000000000000008152600401611f48906146f3565b60405180910390fd5b3373ffffffffffffffffffffffffffffffffffffffff166108fc60096000848152602001908152602001600020600101549081150290604051600060405180830381858888f19350505050158015611fad573d6000803e3d6000fd5b5061200e6009600083815260200190815260200160002060000160009054906101000a900473ffffffffffffffffffffffffffffffffffffffff16606460096000858152602001908152602001600020600101548161200857fe5b04613391565b61203833606460096000858152602001908152602001600020600101548161203257fe5b04613391565b60096000828152602001908152602001600020600080820160006101000a81549073ffffffffffffffffffffffffffffffffffffffff0219169055600182016000905560028201600061208b9190613574565b505050565b600c60205281600052604060002081815481106120a957fe5b90600052602060002001600091509150505481565b60086020528060005260406000206000915090508054600181600116156101000203166002900480601f0160208091040260200160405190810160405280929190818152602001828054600181600116156101000203166002900480156121665780601f1061213b57610100808354040283529160200191612166565b820191906000526020600020905b81548152906001019060200180831161214957829003601f168201915b505050505081565b6000600160008473ffffffffffffffffffffffffffffffffffffffff1673ffffffffffffffffffffffffffffffffffffffff16815260200190815260200160002060008373ffffffffffffffffffffffffffffffffffffffff1673ffffffffffffffffffffffffffffffffffffffff16815260200190815260200160002054905092915050565b60003411612238576040517f08c379a000000000000000000000000000000000000000000000000000000000815260040161222f90614833565b60405180910390fd5b600073ffffffffffffffffffffffffffffffffffffffff1660078383604051612262929190614407565b908152602001604051809103902060000160009054906101000a900473ffffffffffffffffffffffffffffffffffffffff1673ffffffffffffffffffffffffffffffffffffffff1614156122eb576040517f08c379a00000000000000000000000000000000000000000000000000000000081526004016122e2906146d3565b60405180910390fd5b6001151560078383604051612301929190614407565b908152602001604051809103902060000160149054906101000a900460ff16151514612362576040517f08c379a000000000000000000000000000000000000000000000000000000000815260040161235990614733565b60405180910390fd5b60078282604051612374929190614407565b908152602001604051809103902060000160009054906101000a900473ffffffffffffffffffffffffffffffffffffffff1673ffffffffffffffffffffffffffffffffffffffff166108fc349081150290604051600060405180830381858888f193505050501580156123eb573d6000803e3d6000fd5b5061244360078383604051612401929190614407565b908152602001604051809103902060000160009054906101000a900473ffffffffffffffffffffffffffffffffffffffff166064348161243d57fe5b04613391565b612457336064348161245157fe5b04613391565b5050565b3a6187690234116124a1576040517f08c379a000000000000000000000000000000000000000000000000000000000815260040161249890614713565b60405180910390fd5b600073ffffffffffffffffffffffffffffffffffffffff16600783836040516124cb929190614407565b908152602001604051809103902060000160009054906101000a900473ffffffffffffffffffffffffffffffffffffffff1673ffffffffffffffffffffffffffffffffffffffff16146125a757600860006007848460405161252e929190614407565b908152602001604051809103902060000160009054906101000a900473ffffffffffffffffffffffffffffffffffffffff1673ffffffffffffffffffffffffffffffffffffffff1673ffffffffffffffffffffffffffffffffffffffff16815260200190815260200160002060006125a69190613574565b5b60405180604001604052803373ffffffffffffffffffffffffffffffffffffffff16815260200160001515815250600783836040516125e7929190614407565b908152602001604051809103902060008201518160000160006101000a81548173ffffffffffffffffffffffffffffffffffffffff021916908373ffffffffffffffffffffffffffffffffffffffff16021790555060208201518160000160146101000a81548160ff0219169083151502179055509050508181600860003373ffffffffffffffffffffffffffffffffffffffff1673ffffffffffffffffffffffffffffffffffffffff16815260200190815260200160002091906126ad92919061363c565b506126b66119ac565b73ffffffffffffffffffffffffffffffffffffffff166108fc349081150290604051600060405180830381858888f193505050501580156126fb573d6000803e3d6000fd5b507fd417e304669e6bf903f41a03f5ce981dac00416cf5034cd47d22fcb0c67c96bd33838360405161272f93929190614469565b60405180910390a15050565b612743612ccb565b73ffffffffffffffffffffffffffffffffffffffff16600560019054906101000a900473ffffffffffffffffffffffffffffffffffffffff1673ffffffffffffffffffffffffffffffffffffffff16146127d2576040517f08c379a00000000000000000000000000000000000000000000000000000000081526004016127c990614753565b60405180910390fd5b600073ffffffffffffffffffffffffffffffffffffffff168173ffffffffffffffffffffffffffffffffffffffff161415612842576040517f08c379a000000000000000000000000000000000000000000000000000000000815260040161283990614613565b60405180910390fd5b8073ffffffffffffffffffffffffffffffffffffffff16600560019054906101000a900473ffffffffffffffffffffffffffffffffffffffff1673ffffffffffffffffffffffffffffffffffffffff167f8be0079c531659141344cd1fd0a4f28419497f9722a3daafe3b4186f6b6457e060405160405180910390a380600560016101000a81548173ffffffffffffffffffffffffffffffffffffffff021916908373ffffffffffffffffffffffffffffffffffffffff16021790555050565b60003411612945576040517f08c379a000000000000000000000000000000000000000000000000000000000815260040161293c90614833565b60405180910390fd5b600e6000815480929190600101919050555060405180606001604052803373ffffffffffffffffffffffffffffffffffffffff16815260200134815260200183838080601f016020809104026020016040519081016040528093929190818152602001838380828437600081840152601f19601f82011690508083019250505050505050815250600d6000600e54815260200190815260200160002060008201518160000160006101000a81548173ffffffffffffffffffffffffffffffffffffffff021916908373ffffffffffffffffffffffffffffffffffffffff160217905550602082015181600101556040820151816002019080519060200190612a4e9291906135bc565b50905050600f8282604051612a64929190614407565b9081526020016040518091039020600e549080600181540180825580915050600190039060005260206000200160009091909190915055601060003373ffffffffffffffffffffffffffffffffffffffff1673ffffffffffffffffffffffffffffffffffffffff168152602001908152602001600020600e5490806001815401808255809150506001900390600052602060002001600090919091909150557f08c7c4039b7c98d46cb4ebb0f96ca6a67a506db7c3ddd814f88dd3cfd24e2ae933348484604051612b38949392919061449b565b60405180910390a15050565b612b4c612ccb565b73ffffffffffffffffffffffffffffffffffffffff16600560019054906101000a900473ffffffffffffffffffffffffffffffffffffffff1673ffffffffffffffffffffffffffffffffffffffff1614612bdb576040517f08c379a0000000000000000000000000000000000000000000000000000000008152600401612bd290614753565b60405180910390fd5b6001600660008373ffffffffffffffffffffffffffffffffffffffff1673ffffffffffffffffffffffffffffffffffffffff16815260200190815260200160002060006101000a81548160ff02191690831515021790555050565b6060601060003373ffffffffffffffffffffffffffffffffffffffff1673ffffffffffffffffffffffffffffffffffffffff168152602001908152602001600020805480602002602001604051908101604052809291908181526020018280548015612cc157602002820191906000526020600020905b815481526020019060010190808311612cad575b5050505050905090565b600033905090565b600073ffffffffffffffffffffffffffffffffffffffff168373ffffffffffffffffffffffffffffffffffffffff161415612d43576040517f08c379a0000000000000000000000000000000000000000000000000000000008152600401612d3a906147d3565b60405180910390fd5b600073ffffffffffffffffffffffffffffffffffffffff168273ffffffffffffffffffffffffffffffffffffffff161415612db3576040517f08c379a0000000000000000000000000000000000000000000000000000000008152600401612daa90614633565b60405180910390fd5b80600160008573ffffffffffffffffffffffffffffffffffffffff1673ffffffffffffffffffffffffffffffffffffffff16815260200190815260200160002060008473ffffffffffffffffffffffffffffffffffffffff1673ffffffffffffffffffffffffffffffffffffffff168152602001908152602001600020819055508173ffffffffffffffffffffffffffffffffffffffff168373ffffffffffffffffffffffffffffffffffffffff167f8c5be1e5ebec7d5bd14f71427d1e84f3dd0314c0f7b2291e5b200ac8c7c3b92583604051612e919190614873565b60405180910390a3505050565b600073ffffffffffffffffffffffffffffffffffffffff168373ffffffffffffffffffffffffffffffffffffffff161415612f0e576040517f08c379a0000000000000000000000000000000000000000000000000000000008152600401612f0590614793565b60405180910390fd5b600073ffffffffffffffffffffffffffffffffffffffff168273ffffffffffffffffffffffffffffffffffffffff161415612f7e576040517f08c379a0000000000000000000000000000000000000000000000000000000008152600401612f75906145d3565b60405180910390fd5b612f89838383613525565b612ff481604051806060016040528060268152602001614ac6602691396000808773ffffffffffffffffffffffffffffffffffffffff1673ffffffffffffffffffffffffffffffffffffffff168152602001908152602001600020546131339092919063ffffffff16565b6000808573ffffffffffffffffffffffffffffffffffffffff1673ffffffffffffffffffffffffffffffffffffffff16815260200190815260200160002081905550613087816000808573ffffffffffffffffffffffffffffffffffffffff1673ffffffffffffffffffffffffffffffffffffffff1681526020019081526020016000205461318e90919063ffffffff16565b6000808473ffffffffffffffffffffffffffffffffffffffff1673ffffffffffffffffffffffffffffffffffffffff168152602001908152602001600020819055508173ffffffffffffffffffffffffffffffffffffffff168373ffffffffffffffffffffffffffffffffffffffff167fddf252ad1be2c89b69c2b068fc378daa952ba7f163c4a11628f55a4df523b3ef836040516131269190614873565b60405180910390a3505050565b600083831115829061317b576040517f08c379a000000000000000000000000000000000000000000000000000000000815260040161317291906145b1565b60405180910390fd5b5060008385039050809150509392505050565b6000808284019050838110156131d9576040517f08c379a00000000000000000000000000000000000000000000000000000000081526004016131d090614673565b60405180910390fd5b8091505092915050565b600073ffffffffffffffffffffffffffffffffffffffff168273ffffffffffffffffffffffffffffffffffffffff161415613253576040517f08c379a000000000000000000000000000000000000000000000000000000000815260040161324a90614773565b60405180910390fd5b61325f82600083613525565b6132ca81604051806060016040528060228152602001614aa4602291396000808673ffffffffffffffffffffffffffffffffffffffff1673ffffffffffffffffffffffffffffffffffffffff168152602001908152602001600020546131339092919063ffffffff16565b6000808473ffffffffffffffffffffffffffffffffffffffff1673ffffffffffffffffffffffffffffffffffffffff168152602001908152602001600020819055506133218160025461352a90919063ffffffff16565b600281905550600073ffffffffffffffffffffffffffffffffffffffff168273ffffffffffffffffffffffffffffffffffffffff167fddf252ad1be2c89b69c2b068fc378daa952ba7f163c4a11628f55a4df523b3ef836040516133859190614873565b60405180910390a35050565b600073ffffffffffffffffffffffffffffffffffffffff168273ffffffffffffffffffffffffffffffffffffffff161415613401576040517f08c379a00000000000000000000000000000000000000000000000000000000081526004016133f890614853565b60405180910390fd5b61340d60008383613525565b6134228160025461318e90919063ffffffff16565b600281905550613479816000808573ffffffffffffffffffffffffffffffffffffffff1673ffffffffffffffffffffffffffffffffffffffff1681526020019081526020016000205461318e90919063ffffffff16565b6000808473ffffffffffffffffffffffffffffffffffffffff1673ffffffffffffffffffffffffffffffffffffffff168152602001908152602001600020819055508173ffffffffffffffffffffffffffffffffffffffff16600073ffffffffffffffffffffffffffffffffffffffff167fddf252ad1be2c89b69c2b068fc378daa952ba7f163c4a11628f55a4df523b3ef836040516135199190614873565b60405180910390a35050565b505050565b600061356c83836040518060400160405280601e81526020017f536166654d6174683a207375627472616374696f6e206f766572666c6f770000815250613133565b905092915050565b50805460018160011615610100020316600290046000825580601f1061359a57506135b9565b601f0160209004906000526020600020908101906135b891906136bc565b5b50565b828054600181600116156101000203166002900490600052602060002090601f016020900481019282601f106135fd57805160ff191683800117855561362b565b8280016001018555821561362b579182015b8281111561362a57825182559160200191906001019061360f565b5b50905061363891906136bc565b5090565b828054600181600116156101000203166002900490600052602060002090601f016020900481019282601f1061367d57803560ff19168380011785556136ab565b828001600101855582156136ab579182015b828111156136aa57823582559160200191906001019061368f565b5b5090506136b891906136bc565b5090565b6136de91905b808211156136da5760008160009055506001016136c2565b5090565b90565b6000813590506136f081614a75565b92915050565b60008083601f84011261370857600080fd5b8235905067ffffffffffffffff81111561372157600080fd5b60208301915083600182028301111561373957600080fd5b9250929050565b600082601f83011261375157600080fd5b813561376461375f826148d6565b6148a9565b9150808252602083016020830185838301111561378057600080fd5b61378b838284614a22565b50505092915050565b6000813590506137a381614a8c565b92915050565b6000602082840312156137bb57600080fd5b60006137c9848285016136e1565b91505092915050565b600080604083850312156137e557600080fd5b60006137f3858286016136e1565b9250506020613804858286016136e1565b9150509250929050565b60008060006060848603121561382357600080fd5b6000613831868287016136e1565b9350506020613842868287016136e1565b925050604061385386828701613794565b9150509250925092565b6000806040838503121561387057600080fd5b600061387e858286016136e1565b925050602061388f85828601613794565b9150509250929050565b600080602083850312156138ac57600080fd5b600083013567ffffffffffffffff8111156138c657600080fd5b6138d2858286016136f6565b92509250509250929050565b6000806000604084860312156138f357600080fd5b600084013567ffffffffffffffff81111561390d57600080fd5b613919868287016136f6565b9350935050602061392c868287016136e1565b9150509250925092565b60006020828403121561394857600080fd5b600082013567ffffffffffffffff81111561396257600080fd5b61396e84828501613740565b91505092915050565b6000806040838503121561398a57600080fd5b600083013567ffffffffffffffff8111156139a457600080fd5b6139b085828601613740565b92505060206139c185828601613794565b9150509250929050565b6000602082840312156139dd57600080fd5b60006139eb84828501613794565b91505092915050565b6000613a0083836143c3565b60208301905092915050565b613a15816149ec565b82525050565b613a2481614997565b82525050565b6000613a358261493c565b613a3f818561495f565b9350613a4a83614902565b8060005b83811015613a7b578151613a6288826139f4565b9750613a6d83614952565b925050600181019050613a4e565b5085935050505092915050565b613a91816149a9565b82525050565b600081546001811660008114613ab45760018114613ad957613b1d565b607f6002830416613ac58187614970565b955060ff1983168652808601935050613b1d565b60028204613ae78187614970565b9550613af285614912565b60005b82811015613b1457815481890152600182019150602081019050613af5565b82880195505050505b505092915050565b6000613b31838561497b565b9350613b3e838584614a22565b613b4783614a64565b840190509392505050565b6000613b5e838561498c565b9350613b6b838584614a22565b82840190509392505050565b6000613b8282614947565b613b8c818561497b565b9350613b9c818560208601614a31565b613ba581614a64565b840191505092915050565b6000613bbb82614947565b613bc5818561498c565b9350613bd5818560208601614a31565b80840191505092915050565b600081546001811660008114613bfe5760018114613c2357613c67565b607f6002830416613c0f818761498c565b955060ff1983168652808601935050613c67565b60028204613c31818761498c565b9550613c3c85614927565b60005b82811015613c5e57815481890152600182019150602081019050613c3f565b82880195505050505b505092915050565b6000613c7c60238361497b565b91507f45524332303a207472616e7366657220746f20746865207a65726f206164647260008301527f65737300000000000000000000000000000000000000000000000000000000006020830152604082019050919050565b6000613ce2601c8361497b565b91507f416d6f756e74206d7573742062652067726561746572207a65726f2e000000006000830152602082019050919050565b6000613d2260268361497b565b91507f4f776e61626c653a206e6577206f776e657220697320746865207a65726f206160008301527f64647265737300000000000000000000000000000000000000000000000000006020830152604082019050919050565b6000613d8860228361497b565b91507f45524332303a20617070726f766520746f20746865207a65726f20616464726560008301527f73730000000000000000000000000000000000000000000000000000000000006020830152604082019050919050565b6000613dee602e8361497b565b91507f54686973206163636f756e7420636f6e6669726d6174696f6e20776173206e6560008301527f766572207265717565737465642e0000000000000000000000000000000000006020830152604082019050919050565b6000613e54601b8361497b565b91507f536166654d6174683a206164646974696f6e206f766572666c6f7700000000006000830152602082019050919050565b6000613e9460308361497b565b91507f4465706f73697420646964206e6f742063616d652066726f6d2074686973204560008301527f7468657265756d206163636f756e742e000000000000000000000000000000006020830152604082019050919050565b6000613efa60208361497b565b91507f4f776e6572206f7261636c652063616e206e6f742062652072656d6f7665642e6000830152602082019050919050565b6000613f3a60238361497b565b91507f54686973204769744875622055736572206973206e6f7420726567697374657260008301527f65642e00000000000000000000000000000000000000000000000000000000006020830152604082019050919050565b6000613fa060278361497b565b91507f4465706f736974206973206e6f7420666f72207468697320476974487562206160008301527f63636f756e742e000000000000000000000000000000000000000000000000006020830152604082019050919050565b6000614006602b8361497b565b91507f526567697374726174696f6e2066656520286f7261636c6520636f737429206e60008301527f6f7420636f76657265642e0000000000000000000000000000000000000000006020830152604082019050919050565b600061406c60268361497b565b91507f54686973204769744875622055736572206973206e6f7420636f6e6669726d6560008301527f64207965742e00000000000000000000000000000000000000000000000000006020830152604082019050919050565b60006140d260208361497b565b91507f4f776e61626c653a2063616c6c6572206973206e6f7420746865206f776e65726000830152602082019050919050565b600061411260218361497b565b91507f45524332303a206275726e2066726f6d20746865207a65726f2061646472657360008301527f73000000000000000000000000000000000000000000000000000000000000006020830152604082019050919050565b600061417860258361497b565b91507f45524332303a207472616e736665722066726f6d20746865207a65726f20616460008301527f64726573730000000000000000000000000000000000000000000000000000006020830152604082019050919050565b60006141de60178361497b565b91507f4f7261636c6520646f6573206e6f74206578697374732e0000000000000000006000830152602082019050919050565b600061421e60248361497b565b91507f45524332303a20617070726f76652066726f6d20746865207a65726f2061646460008301527f72657373000000000000000000000000000000000000000000000000000000006020830152604082019050919050565b600061428460248361497b565b91507f4f6e6c79206f7261636c65732063616e20636f6e6669726d206f70657261746960008301527f6f6e732e000000000000000000000000000000000000000000000000000000006020830152604082019050919050565b60006142ea60398361497b565b91507f476974487562206163636f756e74206e6f74207265676973746572656420776960008301527f7468207468697320457468657265756d206163636f756e742e000000000000006020830152604082019050919050565b600061435060128361497b565b91507f596f75206d7573742073656e64204554482e00000000000000000000000000006000830152602082019050919050565b6000614390601f8361497b565b91507f45524332303a206d696e7420746f20746865207a65726f2061646472657373006000830152602082019050919050565b6143cc816149d5565b82525050565b6143db816149d5565b82525050565b6143ea816149df565b82525050565b60006143fc8284613a97565b915081905092915050565b6000614414828486613b52565b91508190509392505050565b600061442c8284613bb0565b915081905092915050565b60006144438284613be1565b915081905092915050565b60006020820190506144636000830184613a1b565b92915050565b600060408201905061447e6000830186613a0c565b8181036020830152614491818486613b25565b9050949350505050565b60006060820190506144b06000830187613a0c565b6144bd60208301866143d2565b81810360408301526144d0818486613b25565b905095945050505050565b60006040820190506144f06000830185613a1b565b6144fd6020830184613a88565b9392505050565b60006040820190506145196000830186613a1b565b818103602083015261452c818486613b25565b9050949350505050565b600060608201905061454b6000830186613a1b565b61455860208301856143d2565b818103604083015261456a8184613b77565b9050949350505050565b6000602082019050818103600083015261458e8184613a2a565b905092915050565b60006020820190506145ab6000830184613a88565b92915050565b600060208201905081810360008301526145cb8184613b77565b905092915050565b600060208201905081810360008301526145ec81613c6f565b9050919050565b6000602082019050818103600083015261460c81613cd5565b9050919050565b6000602082019050818103600083015261462c81613d15565b9050919050565b6000602082019050818103600083015261464c81613d7b565b9050919050565b6000602082019050818103600083015261466c81613de1565b9050919050565b6000602082019050818103600083015261468c81613e47565b9050919050565b600060208201905081810360008301526146ac81613e87565b9050919050565b600060208201905081810360008301526146cc81613eed565b9050919050565b600060208201905081810360008301526146ec81613f2d565b9050919050565b6000602082019050818103600083015261470c81613f93565b9050919050565b6000602082019050818103600083015261472c81613ff9565b9050919050565b6000602082019050818103600083015261474c8161405f565b9050919050565b6000602082019050818103600083015261476c816140c5565b9050919050565b6000602082019050818103600083015261478c81614105565b9050919050565b600060208201905081810360008301526147ac8161416b565b9050919050565b600060208201905081810360008301526147cc816141d1565b9050919050565b600060208201905081810360008301526147ec81614211565b9050919050565b6000602082019050818103600083015261480c81614277565b9050919050565b6000602082019050818103600083015261482c816142dd565b9050919050565b6000602082019050818103600083015261484c81614343565b9050919050565b6000602082019050818103600083015261486c81614383565b9050919050565b600060208201905061488860008301846143d2565b92915050565b60006020820190506148a360008301846143e1565b92915050565b6000604051905081810181811067ffffffffffffffff821117156148cc57600080fd5b8060405250919050565b600067ffffffffffffffff8211156148ed57600080fd5b601f19601f8301169050602081019050919050565b6000819050602082019050919050565b60008190508160005260206000209050919050565b60008190508160005260206000209050919050565b600081519050919050565b600081519050919050565b6000602082019050919050565b600082825260208201905092915050565b600081905092915050565b600082825260208201905092915050565b600081905092915050565b60006149a2826149b5565b9050919050565b60008115159050919050565b600073ffffffffffffffffffffffffffffffffffffffff82169050919050565b6000819050919050565b600060ff82169050919050565b60006149f7826149fe565b9050919050565b6000614a0982614a10565b9050919050565b6000614a1b826149b5565b9050919050565b82818337600083830152505050565b60005b83811015614a4f578082015181840152602081019050614a34565b83811115614a5e576000848401525b50505050565b6000601f19601f8301169050919050565b614a7e81614997565b8114614a8957600080fd5b50565b614a95816149d5565b8114614aa057600080fd5b5056fe45524332303a206275726e20616d6f756e7420657863656564732062616c616e636545524332303a207472616e7366657220616d6f756e7420657863656564732062616c616e636545524332303a207472616e7366657220616d6f756e74206578636565647320616c6c6f77616e636545524332303a2064656372656173656420616c6c6f77616e63652062656c6f77207a65726fa2646970667358221220f2de907003e32dced914d35bec6b8f6f01d83f8a52a28308b44bef1a17d60d4a64736f6c63430006060033",
  "immutableReferences": {},
  "source": "// SPDX-License-Identifier: MIT\npragma solidity ^0.6.0;\npragma experimental ABIEncoderV2;\n\nimport \"@openzeppelin/contracts/token/ERC20/ERC20.sol\";\nimport \"@openzeppelin/contracts/access/Ownable.sol\";\nimport \"./MergeToken.sol\";\n\ncontract MergePay is ERC20, Ownable {\n  struct User {\n    address account;\n    bool confirmed;\n  }\n\n  struct UserDeposit {\n    address from;\n    uint256 amount;\n    string githubUser;\n  }\n\n  struct IssueDeposit {\n    address from;\n    uint256 amount;\n    string issueId;\n  }\n\n  event RegistrationRequestEvent(address account, string githubUser);\n  event RegistrationConfirmedEvent(address account, string githubUser);\n  event UserDepositEvent(address account, uint256 amount, string githubUser);\n  event IssueDepositEvent(address account, uint256 amount, string issueId);\n\n  mapping(address => bool) private _oracles;\n\n  mapping(string => User) public _users;\n  mapping(address => string) public _usersByAddress;\n\n  mapping(uint256 => UserDeposit) public _userDeposits;\n  uint256 private _nextUserDepositId = 0;\n  mapping(string => uint256[]) public _userDepositIdsByGithubUser;\n  mapping(address => uint256[]) public _userDepositIdsBySender;\n\n  mapping(uint256 => IssueDeposit) public _issueDeposits;\n  uint256 public _nextIssueDepositId = 0;\n  mapping(string => uint256[]) public _issueDepositIdsByIssueId;\n  mapping(address => uint256[]) public _issueDepositIdsBySender;\n\n  mapping(string => uint256) public _issueBoosts;\n\n  modifier onlyOracles {\n    require(_oracles[msg.sender], \"Only oracles can confirm operations.\");\n    _;\n  }\n\n  /// @dev Initiates MergeToken and set owner as oracle.\n  constructor() ERC20(\"Merge Token\", \"MERGE\") public {\n    _oracles[owner()] = true;\n  }\n\n  /// @param oracle The oracle address to add\n  function enableOracle(address oracle) external onlyOwner {\n    _oracles[oracle] = true;\n  }\n\n  /// @param oracle The oracle address to remove (cannot be owner)\n  function disableOracle(address oracle) external onlyOwner {\n    require(_oracles[oracle], \"Oracle does not exists.\");\n    require(oracle != owner(), \"Owner oracle can not be removed.\");\n    _oracles[oracle] = false;\n  }\n\n  /// @dev Verify ownership over GitHub account by checking for a repositry of\n  /// @dev githubUser named after msg.sender. Adds user as unconfirmed and sends\n  /// @dev an oracle request, that will be fullfilled in registerConfirm.\n  /// @param githubUser The GitHub username to register\n  function register(string calldata githubUser) external payable {\n    require(msg.value > _REGISTER_CONFIRM_GAS * tx.gasprice, \"Registration fee (oracle cost) not covered.\");\n    if (_users[githubUser].account != address(0)) {\n      delete _usersByAddress[_users[githubUser].account];\n    }\n    _users[githubUser] = User(msg.sender, false);\n    _usersByAddress[msg.sender] = githubUser;\n\n    payable(owner()).transfer(msg.value);\n\n    emit RegistrationRequestEvent(msg.sender, githubUser);\n  }\n\n  /// @dev Oracle fullfill method. Sets unconfirmed user to confirmed if repo exists.\n  /// @param githubUser The githubUser to confirm\n  /// @param account The Eth account to confirm\n  uint256 constant _REGISTER_CONFIRM_GAS = 34665;\n  function registerConfirm(string calldata githubUser, address account) external onlyOracles {\n    require(\n      _users[githubUser].account != address(0) && _users[githubUser].account == account,\n      \"This account confirmation was never requested.\"\n    );\n    _users[githubUser].confirmed = true;\n    emit RegistrationConfirmedEvent(account, githubUser);\n  }\n\n  /// @dev Send ETH to a registered githubUser.\n  /// @param githubUser The receiving githubUser.\n  function sendEthToGithubUser(string calldata githubUser) external payable {\n    require(msg.value > 0, \"You must send ETH.\");\n    require(_users[githubUser].account != address(0), \"This GitHub User is not registered.\");\n    require(_users[githubUser].confirmed == true, \"This GitHub User is not confirmed yet.\");\n    payable(_users[githubUser].account).transfer(msg.value);\n    _mint(_users[githubUser].account, msg.value / 100);\n    _mint(msg.sender, msg.value / 100);\n  }\n\n  /// @dev Deposit ETH to a registered githubUser.\n  /// @param githubUser The receiving githubUser.\n  function depositEthForGithubUser(string calldata githubUser) external payable {\n    require(msg.value > 0, \"You must send ETH.\");\n    _nextUserDepositId++;\n    _userDeposits[_nextUserDepositId] = UserDeposit(msg.sender, msg.value, githubUser);\n    _userDepositIdsByGithubUser[githubUser].push(_nextUserDepositId);\n    _userDepositIdsBySender[msg.sender].push(_nextUserDepositId);\n    emit UserDepositEvent(msg.sender, msg.value, githubUser);\n  }\n\n  function withdrawUserDeposit(uint256 depositId) external {\n    require(_users[_usersByAddress[msg.sender]].account == msg.sender, \"GitHub account not registered with this Ethereum account.\");\n    require(keccak256(bytes(_userDeposits[depositId].githubUser)) == keccak256(bytes(_usersByAddress[msg.sender])), \"Deposit is not for this GitHub account.\");\n    payable(msg.sender).transfer(_userDeposits[depositId].amount);\n    _mint(_userDeposits[depositId].from, _userDeposits[depositId].amount / 100);\n    _mint(msg.sender, _userDeposits[depositId].amount / 100);\n    delete _userDeposits[depositId];\n  }\n\n  function refundUserDeposit(uint256 depositId) external {\n    require(_userDeposits[depositId].from == msg.sender, \"Deposit did not came from this Ethereum account.\");\n    payable(msg.sender).transfer(_userDeposits[depositId].amount);\n    delete _userDeposits[depositId];\n  }\n\n  function getUserDepositIdsForGithubUser(string calldata githubUser) external view returns(uint256[] memory) {\n    return _userDepositIdsByGithubUser[githubUser];\n  }\n\n  function getUserDepositIdsForSender() external view returns(uint256[] memory) {\n    return _userDepositIdsBySender[msg.sender];\n  }\n\n  /// @dev Deposit ETH to a github issue.\n  /// @param issueId The receiving github issue.\n  function depositEthForIssue(string calldata issueId) external payable {\n    require(msg.value > 0, \"You must send ETH.\");\n    _nextIssueDepositId++;\n    _issueDeposits[_nextIssueDepositId] = IssueDeposit(msg.sender, msg.value, issueId);\n    _issueDepositIdsByIssueId[issueId].push(_nextIssueDepositId);\n    _issueDepositIdsBySender[msg.sender].push(_nextIssueDepositId);\n    emit IssueDepositEvent(msg.sender, msg.value, issueId);\n  }\n\n  function refundIssueDeposit(uint256 depositId) external {\n    require(_issueDeposits[depositId].from == msg.sender, \"Deposit did not came from this Ethereum account.\");\n    payable(msg.sender).transfer(_issueDeposits[depositId].amount);\n    delete _issueDeposits[depositId];\n  }\n\n  function getIssueDepositIdsForIssueId(string calldata issueId) external view returns(uint256[] memory) {\n    return _issueDepositIdsByIssueId[issueId];\n  }\n\n  function getIssueDepositIdsForSender() external view returns(uint256[] memory) {\n    return _issueDepositIdsBySender[msg.sender];\n  }\n\n  function pinIssue(string memory issueId, uint256 amount) public {\n    require(amount > 0, \"Amount must be greater zero.\");\n    _burn(msg.sender, amount);\n    _issueBoosts[issueId] += amount;\n  }\n}\n",
  "sourcePath": "/home/mkt/Projects/mergepay-contracts/contracts/MergePay.sol",
  "compiler": {
    "name": "solc",
    "version": "0.6.6+commit.6c089d02.Emscripten.clang"
  },
  "schemaVersion": "3.2.5",
  "updatedAt": "2020-11-07T03:32:20.289Z",
  "networkType": "ethereum",
  "devdoc": {
    "methods": {
      "allowance(address,address)": {
        "details": "See {IERC20-allowance}."
      },
      "approve(address,uint256)": {
        "details": "See {IERC20-approve}.     * Requirements:     * - `spender` cannot be the zero address."
      },
      "balanceOf(address)": {
        "details": "See {IERC20-balanceOf}."
      },
      "constructor": {
        "details": "Initiates MergeToken and set owner as oracle."
      },
      "decimals()": {
        "details": "Returns the number of decimals used to get its user representation. For example, if `decimals` equals `2`, a balance of `505` tokens should be displayed to a user as `5,05` (`505 / 10 ** 2`).     * Tokens usually opt for a value of 18, imitating the relationship between Ether and Wei. This is the value {ERC20} uses, unless {_setupDecimals} is called.     * NOTE: This information is only used for _display_ purposes: it in no way affects any of the arithmetic of the contract, including {IERC20-balanceOf} and {IERC20-transfer}."
      },
      "decreaseAllowance(address,uint256)": {
        "details": "Atomically decreases the allowance granted to `spender` by the caller.     * This is an alternative to {approve} that can be used as a mitigation for problems described in {IERC20-approve}.     * Emits an {Approval} event indicating the updated allowance.     * Requirements:     * - `spender` cannot be the zero address. - `spender` must have allowance for the caller of at least `subtractedValue`."
      },
      "depositEthForGithubUser(string)": {
        "details": "Deposit ETH to a registered githubUser.",
        "params": {
          "githubUser": "The receiving githubUser."
        }
      },
      "depositEthForIssue(string)": {
        "details": "Deposit ETH to a github issue.",
        "params": {
          "issueId": "The receiving github issue."
        }
      },
      "disableOracle(address)": {
        "params": {
          "oracle": "The oracle address to remove (cannot be owner)"
        }
      },
      "enableOracle(address)": {
        "params": {
          "oracle": "The oracle address to add"
        }
      },
      "increaseAllowance(address,uint256)": {
        "details": "Atomically increases the allowance granted to `spender` by the caller.     * This is an alternative to {approve} that can be used as a mitigation for problems described in {IERC20-approve}.     * Emits an {Approval} event indicating the updated allowance.     * Requirements:     * - `spender` cannot be the zero address."
      },
      "name()": {
        "details": "Returns the name of the token."
      },
      "owner()": {
        "details": "Returns the address of the current owner."
      },
      "register(string)": {
        "details": "Verify ownership over GitHub account by checking for a repositry ofgithubUser named after msg.sender. Adds user as unconfirmed and sendsan oracle request, that will be fullfilled in registerConfirm.",
        "params": {
          "githubUser": "The GitHub username to register"
        }
      },
      "renounceOwnership()": {
        "details": "Leaves the contract without owner. It will not be possible to call `onlyOwner` functions anymore. Can only be called by the current owner.     * NOTE: Renouncing ownership will leave the contract without an owner, thereby removing any functionality that is only available to the owner."
      },
      "sendEthToGithubUser(string)": {
        "details": "Send ETH to a registered githubUser.",
        "params": {
          "githubUser": "The receiving githubUser."
        }
      },
      "symbol()": {
        "details": "Returns the symbol of the token, usually a shorter version of the name."
      },
      "totalSupply()": {
        "details": "See {IERC20-totalSupply}."
      },
      "transfer(address,uint256)": {
        "details": "See {IERC20-transfer}.     * Requirements:     * - `recipient` cannot be the zero address. - the caller must have a balance of at least `amount`."
      },
      "transferFrom(address,address,uint256)": {
        "details": "See {IERC20-transferFrom}.     * Emits an {Approval} event indicating the updated allowance. This is not required by the EIP. See the note at the beginning of {ERC20};     * Requirements: - `sender` and `recipient` cannot be the zero address. - `sender` must have a balance of at least `amount`. - the caller must have allowance for ``sender``'s tokens of at least `amount`."
      },
      "transferOwnership(address)": {
        "details": "Transfers ownership of the contract to a new account (`newOwner`). Can only be called by the current owner."
      }
    }
  },
  "userdoc": {
    "methods": {}
  }
}