{
  "contractName": "MergePay",
  "abi": [
    {
      "inputs": [],
      "stateMutability": "nonpayable",
      "type": "constructor"
    },
    {
      "anonymous": false,
      "inputs": [
        {
          "indexed": true,
          "internalType": "address",
          "name": "owner",
          "type": "address"
        },
        {
          "indexed": true,
          "internalType": "address",
          "name": "spender",
          "type": "address"
        },
        {
          "indexed": false,
          "internalType": "uint256",
          "name": "value",
          "type": "uint256"
        }
      ],
      "name": "Approval",
      "type": "event"
    },
    {
      "anonymous": false,
      "inputs": [
        {
          "indexed": false,
          "internalType": "address",
          "name": "account",
          "type": "address"
        },
        {
          "indexed": false,
          "internalType": "uint256",
          "name": "amount",
          "type": "uint256"
        },
        {
          "indexed": false,
          "internalType": "string",
          "name": "issueId",
          "type": "string"
        }
      ],
      "name": "IssueDepositEvent",
      "type": "event"
    },
    {
      "anonymous": false,
      "inputs": [
        {
          "indexed": true,
          "internalType": "address",
          "name": "previousOwner",
          "type": "address"
        },
        {
          "indexed": true,
          "internalType": "address",
          "name": "newOwner",
          "type": "address"
        }
      ],
      "name": "OwnershipTransferred",
      "type": "event"
    },
    {
      "anonymous": false,
      "inputs": [
        {
          "indexed": false,
          "internalType": "address",
          "name": "account",
          "type": "address"
        },
        {
          "indexed": false,
          "internalType": "string",
          "name": "githubUser",
          "type": "string"
        }
      ],
      "name": "RegistrationConfirmedEvent",
      "type": "event"
    },
    {
      "anonymous": false,
      "inputs": [
        {
          "indexed": false,
          "internalType": "address",
          "name": "account",
          "type": "address"
        },
        {
          "indexed": false,
          "internalType": "string",
          "name": "githubUser",
          "type": "string"
        }
      ],
      "name": "RegistrationRequestEvent",
      "type": "event"
    },
    {
      "anonymous": false,
      "inputs": [
        {
          "indexed": true,
          "internalType": "address",
          "name": "from",
          "type": "address"
        },
        {
          "indexed": true,
          "internalType": "address",
          "name": "to",
          "type": "address"
        },
        {
          "indexed": false,
          "internalType": "uint256",
          "name": "value",
          "type": "uint256"
        }
      ],
      "name": "Transfer",
      "type": "event"
    },
    {
      "anonymous": false,
      "inputs": [
        {
          "indexed": false,
          "internalType": "address",
          "name": "account",
          "type": "address"
        },
        {
          "indexed": false,
          "internalType": "uint256",
          "name": "amount",
          "type": "uint256"
        },
        {
          "indexed": false,
          "internalType": "string",
          "name": "githubUser",
          "type": "string"
        }
      ],
      "name": "UserDepositEvent",
      "type": "event"
    },
    {
      "inputs": [
        {
          "internalType": "string",
          "name": "",
          "type": "string"
        }
      ],
      "name": "_issueBoosts",
      "outputs": [
        {
          "internalType": "uint256",
          "name": "",
          "type": "uint256"
        }
      ],
      "stateMutability": "view",
      "type": "function",
      "constant": true
    },
    {
      "inputs": [
        {
          "internalType": "string",
          "name": "",
          "type": "string"
        },
        {
          "internalType": "uint256",
          "name": "",
          "type": "uint256"
        }
      ],
      "name": "_issueDepositIdsByIssueId",
      "outputs": [
        {
          "internalType": "uint256",
          "name": "",
          "type": "uint256"
        }
      ],
      "stateMutability": "view",
      "type": "function",
      "constant": true
    },
    {
      "inputs": [
        {
          "internalType": "address",
          "name": "",
          "type": "address"
        },
        {
          "internalType": "uint256",
          "name": "",
          "type": "uint256"
        }
      ],
      "name": "_issueDepositIdsBySender",
      "outputs": [
        {
          "internalType": "uint256",
          "name": "",
          "type": "uint256"
        }
      ],
      "stateMutability": "view",
      "type": "function",
      "constant": true
    },
    {
      "inputs": [
        {
          "internalType": "uint256",
          "name": "",
          "type": "uint256"
        }
      ],
      "name": "_issueDeposits",
      "outputs": [
        {
          "internalType": "address",
          "name": "from",
          "type": "address"
        },
        {
          "internalType": "uint256",
          "name": "amount",
          "type": "uint256"
        },
        {
          "internalType": "string",
          "name": "issueId",
          "type": "string"
        }
      ],
      "stateMutability": "view",
      "type": "function",
      "constant": true
    },
    {
      "inputs": [],
      "name": "_nextIssueDepositId",
      "outputs": [
        {
          "internalType": "uint256",
          "name": "",
          "type": "uint256"
        }
      ],
      "stateMutability": "view",
      "type": "function",
      "constant": true
    },
    {
      "inputs": [
        {
          "internalType": "string",
          "name": "",
          "type": "string"
        },
        {
          "internalType": "uint256",
          "name": "",
          "type": "uint256"
        }
      ],
      "name": "_userDepositIdsByGithubUser",
      "outputs": [
        {
          "internalType": "uint256",
          "name": "",
          "type": "uint256"
        }
      ],
      "stateMutability": "view",
      "type": "function",
      "constant": true
    },
    {
      "inputs": [
        {
          "internalType": "address",
          "name": "",
          "type": "address"
        },
        {
          "internalType": "uint256",
          "name": "",
          "type": "uint256"
        }
      ],
      "name": "_userDepositIdsBySender",
      "outputs": [
        {
          "internalType": "uint256",
          "name": "",
          "type": "uint256"
        }
      ],
      "stateMutability": "view",
      "type": "function",
      "constant": true
    },
    {
      "inputs": [
        {
          "internalType": "uint256",
          "name": "",
          "type": "uint256"
        }
      ],
      "name": "_userDeposits",
      "outputs": [
        {
          "internalType": "address",
          "name": "from",
          "type": "address"
        },
        {
          "internalType": "uint256",
          "name": "amount",
          "type": "uint256"
        },
        {
          "internalType": "string",
          "name": "githubUser",
          "type": "string"
        }
      ],
      "stateMutability": "view",
      "type": "function",
      "constant": true
    },
    {
      "inputs": [
        {
          "internalType": "string",
          "name": "",
          "type": "string"
        }
      ],
      "name": "_users",
      "outputs": [
        {
          "internalType": "address",
          "name": "account",
          "type": "address"
        },
        {
          "internalType": "bool",
          "name": "confirmed",
          "type": "bool"
        }
      ],
      "stateMutability": "view",
      "type": "function",
      "constant": true
    },
    {
      "inputs": [
        {
          "internalType": "address",
          "name": "",
          "type": "address"
        }
      ],
      "name": "_usersByAddress",
      "outputs": [
        {
          "internalType": "string",
          "name": "",
          "type": "string"
        }
      ],
      "stateMutability": "view",
      "type": "function",
      "constant": true
    },
    {
      "inputs": [
        {
          "internalType": "address",
          "name": "owner",
          "type": "address"
        },
        {
          "internalType": "address",
          "name": "spender",
          "type": "address"
        }
      ],
      "name": "allowance",
      "outputs": [
        {
          "internalType": "uint256",
          "name": "",
          "type": "uint256"
        }
      ],
      "stateMutability": "view",
      "type": "function",
      "constant": true
    },
    {
      "inputs": [
        {
          "internalType": "address",
          "name": "spender",
          "type": "address"
        },
        {
          "internalType": "uint256",
          "name": "amount",
          "type": "uint256"
        }
      ],
      "name": "approve",
      "outputs": [
        {
          "internalType": "bool",
          "name": "",
          "type": "bool"
        }
      ],
      "stateMutability": "nonpayable",
      "type": "function"
    },
    {
      "inputs": [
        {
          "internalType": "address",
          "name": "account",
          "type": "address"
        }
      ],
      "name": "balanceOf",
      "outputs": [
        {
          "internalType": "uint256",
          "name": "",
          "type": "uint256"
        }
      ],
      "stateMutability": "view",
      "type": "function",
      "constant": true
    },
    {
      "inputs": [],
      "name": "decimals",
      "outputs": [
        {
          "internalType": "uint8",
          "name": "",
          "type": "uint8"
        }
      ],
      "stateMutability": "view",
      "type": "function",
      "constant": true
    },
    {
      "inputs": [
        {
          "internalType": "address",
          "name": "spender",
          "type": "address"
        },
        {
          "internalType": "uint256",
          "name": "subtractedValue",
          "type": "uint256"
        }
      ],
      "name": "decreaseAllowance",
      "outputs": [
        {
          "internalType": "bool",
          "name": "",
          "type": "bool"
        }
      ],
      "stateMutability": "nonpayable",
      "type": "function"
    },
    {
      "inputs": [
        {
          "internalType": "address",
          "name": "spender",
          "type": "address"
        },
        {
          "internalType": "uint256",
          "name": "addedValue",
          "type": "uint256"
        }
      ],
      "name": "increaseAllowance",
      "outputs": [
        {
          "internalType": "bool",
          "name": "",
          "type": "bool"
        }
      ],
      "stateMutability": "nonpayable",
      "type": "function"
    },
    {
      "inputs": [],
      "name": "name",
      "outputs": [
        {
          "internalType": "string",
          "name": "",
          "type": "string"
        }
      ],
      "stateMutability": "view",
      "type": "function",
      "constant": true
    },
    {
      "inputs": [],
      "name": "owner",
      "outputs": [
        {
          "internalType": "address",
          "name": "",
          "type": "address"
        }
      ],
      "stateMutability": "view",
      "type": "function",
      "constant": true
    },
    {
      "inputs": [],
      "name": "renounceOwnership",
      "outputs": [],
      "stateMutability": "nonpayable",
      "type": "function"
    },
    {
      "inputs": [],
      "name": "symbol",
      "outputs": [
        {
          "internalType": "string",
          "name": "",
          "type": "string"
        }
      ],
      "stateMutability": "view",
      "type": "function",
      "constant": true
    },
    {
      "inputs": [],
      "name": "totalSupply",
      "outputs": [
        {
          "internalType": "uint256",
          "name": "",
          "type": "uint256"
        }
      ],
      "stateMutability": "view",
      "type": "function",
      "constant": true
    },
    {
      "inputs": [
        {
          "internalType": "address",
          "name": "recipient",
          "type": "address"
        },
        {
          "internalType": "uint256",
          "name": "amount",
          "type": "uint256"
        }
      ],
      "name": "transfer",
      "outputs": [
        {
          "internalType": "bool",
          "name": "",
          "type": "bool"
        }
      ],
      "stateMutability": "nonpayable",
      "type": "function"
    },
    {
      "inputs": [
        {
          "internalType": "address",
          "name": "sender",
          "type": "address"
        },
        {
          "internalType": "address",
          "name": "recipient",
          "type": "address"
        },
        {
          "internalType": "uint256",
          "name": "amount",
          "type": "uint256"
        }
      ],
      "name": "transferFrom",
      "outputs": [
        {
          "internalType": "bool",
          "name": "",
          "type": "bool"
        }
      ],
      "stateMutability": "nonpayable",
      "type": "function"
    },
    {
      "inputs": [
        {
          "internalType": "address",
          "name": "newOwner",
          "type": "address"
        }
      ],
      "name": "transferOwnership",
      "outputs": [],
      "stateMutability": "nonpayable",
      "type": "function"
    },
    {
      "inputs": [
        {
          "internalType": "address",
          "name": "oracle",
          "type": "address"
        }
      ],
      "name": "enableOracle",
      "outputs": [],
      "stateMutability": "nonpayable",
      "type": "function"
    },
    {
      "inputs": [
        {
          "internalType": "address",
          "name": "oracle",
          "type": "address"
        }
      ],
      "name": "disableOracle",
      "outputs": [],
      "stateMutability": "nonpayable",
      "type": "function"
    },
    {
      "inputs": [
        {
          "internalType": "string",
          "name": "githubUser",
          "type": "string"
        }
      ],
      "name": "register",
      "outputs": [],
      "stateMutability": "nonpayable",
      "type": "function"
    },
    {
      "inputs": [
        {
          "internalType": "string",
          "name": "githubUser",
          "type": "string"
        },
        {
          "internalType": "address",
          "name": "account",
          "type": "address"
        }
      ],
      "name": "registerConfirm",
      "outputs": [],
      "stateMutability": "nonpayable",
      "type": "function"
    },
    {
      "inputs": [
        {
          "internalType": "string",
          "name": "githubUser",
          "type": "string"
        }
      ],
      "name": "sendEthToGithubUser",
      "outputs": [],
      "stateMutability": "payable",
      "type": "function",
      "payable": true
    },
    {
      "inputs": [
        {
          "internalType": "string",
          "name": "githubUser",
          "type": "string"
        }
      ],
      "name": "depositEthForGithubUser",
      "outputs": [],
      "stateMutability": "payable",
      "type": "function",
      "payable": true
    },
    {
      "inputs": [
        {
          "internalType": "uint256",
          "name": "depositId",
          "type": "uint256"
        }
      ],
      "name": "withdrawUserDeposit",
      "outputs": [],
      "stateMutability": "nonpayable",
      "type": "function"
    },
    {
      "inputs": [
        {
          "internalType": "uint256",
          "name": "depositId",
          "type": "uint256"
        }
      ],
      "name": "refundUserDeposit",
      "outputs": [],
      "stateMutability": "nonpayable",
      "type": "function"
    },
    {
      "inputs": [
        {
          "internalType": "string",
          "name": "githubUser",
          "type": "string"
        }
      ],
      "name": "getUserDepositIdsForGithubUser",
      "outputs": [
        {
          "internalType": "uint256[]",
          "name": "",
          "type": "uint256[]"
        }
      ],
      "stateMutability": "view",
      "type": "function",
      "constant": true
    },
    {
      "inputs": [],
      "name": "getUserDepositIdsForSender",
      "outputs": [
        {
          "internalType": "uint256[]",
          "name": "",
          "type": "uint256[]"
        }
      ],
      "stateMutability": "view",
      "type": "function",
      "constant": true
    },
    {
      "inputs": [
        {
          "internalType": "string",
          "name": "issueId",
          "type": "string"
        }
      ],
      "name": "depositEthForIssue",
      "outputs": [],
      "stateMutability": "payable",
      "type": "function",
      "payable": true
    },
    {
      "inputs": [
        {
          "internalType": "uint256",
          "name": "depositId",
          "type": "uint256"
        }
      ],
      "name": "refundIssueDeposit",
      "outputs": [],
      "stateMutability": "nonpayable",
      "type": "function"
    },
    {
      "inputs": [
        {
          "internalType": "string",
          "name": "issueId",
          "type": "string"
        }
      ],
      "name": "getIssueDepositIdsForIssueId",
      "outputs": [
        {
          "internalType": "uint256[]",
          "name": "",
          "type": "uint256[]"
        }
      ],
      "stateMutability": "view",
      "type": "function",
      "constant": true
    },
    {
      "inputs": [],
      "name": "getIssueDepositIdsForSender",
      "outputs": [
        {
          "internalType": "uint256[]",
          "name": "",
          "type": "uint256[]"
        }
      ],
      "stateMutability": "view",
      "type": "function",
      "constant": true
    },
    {
      "inputs": [
        {
          "internalType": "string",
          "name": "issueId",
          "type": "string"
        },
        {
          "internalType": "uint256",
          "name": "amount",
          "type": "uint256"
        }
      ],
      "name": "pinIssue",
      "outputs": [],
      "stateMutability": "nonpayable",
      "type": "function"
    }
  ],
  "bytecode": "0x60806040526000600a556000600e553480156200001b57600080fd5b506040518060400160405280600b81526020017f4d6572676520546f6b656e0000000000000000000000000000000000000000008152506040518060400160405280600581526020017f4d455247450000000000000000000000000000000000000000000000000000008152508160039080519060200190620000a092919062000228565b508060049080519060200190620000b992919062000228565b506012600560006101000a81548160ff021916908360ff16021790555050506000620000ea620001f660201b60201c565b905080600560016101000a81548173ffffffffffffffffffffffffffffffffffffffff021916908373ffffffffffffffffffffffffffffffffffffffff1602179055508073ffffffffffffffffffffffffffffffffffffffff16600073ffffffffffffffffffffffffffffffffffffffff167f8be0079c531659141344cd1fd0a4f28419497f9722a3daafe3b4186f6b6457e060405160405180910390a3506001600660006200019f620001fe60201b60201c565b73ffffffffffffffffffffffffffffffffffffffff1673ffffffffffffffffffffffffffffffffffffffff16815260200190815260200160002060006101000a81548160ff021916908315150217905550620002d7565b600033905090565b6000600560019054906101000a900473ffffffffffffffffffffffffffffffffffffffff16905090565b828054600181600116156101000203166002900490600052602060002090601f016020900481019282601f106200026b57805160ff19168380011785556200029c565b828001600101855582156200029c579182015b828111156200029b5782518255916020019190600101906200027e565b5b509050620002ab9190620002af565b5090565b620002d491905b80821115620002d0576000816000905550600101620002b6565b5090565b90565b614a6180620002e76000396000f3fe6080604052600436106102305760003560e01c8063715018a61161012e578063c315fbca116100ab578063f2c298be1161006f578063f2c298be146108f6578063f2fde38b1461091f578063f4b90ef714610948578063f4c705ab14610964578063fb95354a1461098d57610230565b8063c315fbca146107fa578063c695389d14610823578063ce85fc4614610860578063dd62ed3e1461089d578063efda0fd6146108da57610230565b80638da5cb5b116100f25780638da5cb5b1461070e57806395d89b41146107395780639996f18614610764578063a457c2d714610780578063a9059cbb146107bd57610230565b8063715018a61461063f578063716f9d24146106565780637400e6171461069357806384f8f644146106bc5780638617fc46146106e557610230565b806339509351116101bc5780635d3dd29d116101805780635d3dd29d1461052057806360445fb21461055d5780636077321a1461058657806370388bf9146105c557806370a082311461060257610230565b806339509351146104135780634073951514610450578063454d05541461047b57806350aea559146104a657806353a61ff9146104e357610230565b806318160ddd1161020357806318160ddd1461030557806321ec48691461033057806323b872dd1461036e578063313ce567146103ab578063344ae077146103d657610230565b806306fdde0314610235578063095ea7b31461026057806309d406a11461029d5780630cb51747146102c6575b600080fd5b34801561024157600080fd5b5061024a6109b8565b60405161025791906144c4565b60405180910390f35b34801561026c57600080fd5b50610287600480360381019061028291906137d6565b610a5a565b60405161029491906144a9565b60405180910390f35b3480156102a957600080fd5b506102c460048036038101906102bf9190613857565b610a78565b005b3480156102d257600080fd5b506102ed60048036038101906102e89190613944565b610cad565b6040516102fc93929190614449565b60405180910390f35b34801561031157600080fd5b5061031a610d8f565b6040516103279190614766565b60405180910390f35b34801561033c57600080fd5b50610357600480360381019061035291906138af565b610d99565b6040516103659291906143ee565b60405180910390f35b34801561037a57600080fd5b5061039560048036038101906103909190613787565b610e00565b6040516103a291906144a9565b60405180910390f35b3480156103b757600080fd5b506103c0610ed9565b6040516103cd9190614781565b60405180910390f35b3480156103e257600080fd5b506103fd60048036038101906103f891906138f0565b610ef0565b60405161040a9190614766565b60405180910390f35b34801561041f57600080fd5b5061043a600480360381019061043591906137d6565b610f34565b60405161044791906144a9565b60405180910390f35b34801561045c57600080fd5b50610465610fe7565b6040516104729190614766565b60405180910390f35b34801561048757600080fd5b50610490610fed565b60405161049d9190614487565b60405180910390f35b3480156104b257600080fd5b506104cd60048036038101906104c89190613812565b611082565b6040516104da9190614487565b60405180910390f35b3480156104ef57600080fd5b5061050a60048036038101906105059190613812565b6110fb565b6040516105179190614487565b60405180910390f35b34801561052c57600080fd5b50610547600480360381019061054291906138f0565b611174565b6040516105549190614766565b60405180910390f35b34801561056957600080fd5b50610584600480360381019061057f9190613944565b6111b8565b005b34801561059257600080fd5b506105ad60048036038101906105a89190613944565b611311565b6040516105bc93929190614449565b60405180910390f35b3480156105d157600080fd5b506105ec60048036038101906105e791906138af565b6113f3565b6040516105f99190614766565b60405180910390f35b34801561060e57600080fd5b5061062960048036038101906106249190613722565b611421565b6040516106369190614766565b60405180910390f35b34801561064b57600080fd5b50610654611469565b005b34801561066257600080fd5b5061067d600480360381019061067891906137d6565b6115c1565b60405161068a9190614766565b60405180910390f35b34801561069f57600080fd5b506106ba60048036038101906106b59190613722565b6115ef565b005b3480156106c857600080fd5b506106e360048036038101906106de91906138f0565b6117e3565b005b3480156106f157600080fd5b5061070c60048036038101906107079190613944565b611860565b005b34801561071a57600080fd5b506107236119b9565b6040516107309190614361565b60405180910390f35b34801561074557600080fd5b5061074e6119e3565b60405161075b91906144c4565b60405180910390f35b61077e60048036038101906107799190613812565b611a85565b005b34801561078c57600080fd5b506107a760048036038101906107a291906137d6565b611cc7565b6040516107b491906144a9565b60405180910390f35b3480156107c957600080fd5b506107e460048036038101906107df91906137d6565b611d94565b6040516107f191906144a9565b60405180910390f35b34801561080657600080fd5b50610821600480360381019061081c9190613944565b611db2565b005b34801561082f57600080fd5b5061084a600480360381019061084591906137d6565b61209d565b6040516108579190614766565b60405180910390f35b34801561086c57600080fd5b5061088760048036038101906108829190613722565b6120cb565b60405161089491906144c4565b60405180910390f35b3480156108a957600080fd5b506108c460048036038101906108bf919061374b565b61217b565b6040516108d19190614766565b60405180910390f35b6108f460048036038101906108ef9190613812565b612202565b005b34801561090257600080fd5b5061091d60048036038101906109189190613812565b612468565b005b34801561092b57600080fd5b5061094660048036038101906109419190613722565b6126b4565b005b610962600480360381019061095d9190613812565b61287b565b005b34801561097057600080fd5b5061098b60048036038101906109869190613722565b612abd565b005b34801561099957600080fd5b506109a2612baf565b6040516109af9190614487565b60405180910390f35b606060038054600181600116156101000203166002900480601f016020809104026020016040519081016040528092919081815260200182805460018160011615610100020316600290048015610a505780601f10610a2557610100808354040283529160200191610a50565b820191906000526020600020905b815481529060010190602001808311610a3357829003601f168201915b5050505050905090565b6000610a6e610a67612c44565b8484612c4c565b6001905092915050565b600660003373ffffffffffffffffffffffffffffffffffffffff1673ffffffffffffffffffffffffffffffffffffffff16815260200190815260200160002060009054906101000a900460ff16610b04576040517f08c379a0000000000000000000000000000000000000000000000000000000008152600401610afb906146e6565b60405180910390fd5b600073ffffffffffffffffffffffffffffffffffffffff1660078484604051610b2e92919061431a565b908152602001604051809103902060000160009054906101000a900473ffffffffffffffffffffffffffffffffffffffff1673ffffffffffffffffffffffffffffffffffffffff1614158015610bf257508073ffffffffffffffffffffffffffffffffffffffff1660078484604051610ba892919061431a565b908152602001604051809103902060000160009054906101000a900473ffffffffffffffffffffffffffffffffffffffff1673ffffffffffffffffffffffffffffffffffffffff16145b610c31576040517f08c379a0000000000000000000000000000000000000000000000000000000008152600401610c2890614566565b60405180910390fd5b600160078484604051610c4592919061431a565b908152602001604051809103902060000160146101000a81548160ff0219169083151502179055507f55e4fcf1c7b4b1a6190089eb7ef1c1ff91d67d66917edf141d6223003929828a818484604051610ca093929190614417565b60405180910390a1505050565b60096020528060005260406000206000915090508060000160009054906101000a900473ffffffffffffffffffffffffffffffffffffffff1690806001015490806002018054600181600116156101000203166002900480601f016020809104026020016040519081016040528092919081815260200182805460018160011615610100020316600290048015610d855780601f10610d5a57610100808354040283529160200191610d85565b820191906000526020600020905b815481529060010190602001808311610d6857829003601f168201915b5050505050905083565b6000600254905090565b6007818051602081018201805184825260208301602085012081835280955050505050506000915090508060000160009054906101000a900473ffffffffffffffffffffffffffffffffffffffff16908060000160149054906101000a900460ff16905082565b6000610e0d848484612e17565b610ece84610e19612c44565b610ec9856040518060600160405280602881526020016149df60289139600160008b73ffffffffffffffffffffffffffffffffffffffff1673ffffffffffffffffffffffffffffffffffffffff1681526020019081526020016000206000610e7f612c44565b73ffffffffffffffffffffffffffffffffffffffff1673ffffffffffffffffffffffffffffffffffffffff168152602001908152602001600020546130ac9092919063ffffffff16565b612c4c565b600190509392505050565b6000600560009054906101000a900460ff16905090565b600f828051602081018201805184825260208301602085012081835280955050505050508181548110610f1f57fe5b90600052602060002001600091509150505481565b6000610fdd610f41612c44565b84610fd88560016000610f52612c44565b73ffffffffffffffffffffffffffffffffffffffff1673ffffffffffffffffffffffffffffffffffffffff16815260200190815260200160002060008973ffffffffffffffffffffffffffffffffffffffff1673ffffffffffffffffffffffffffffffffffffffff1681526020019081526020016000205461310790919063ffffffff16565b612c4c565b6001905092915050565b600e5481565b6060600c60003373ffffffffffffffffffffffffffffffffffffffff1673ffffffffffffffffffffffffffffffffffffffff16815260200190815260200160002080548060200260200160405190810160405280929190818152602001828054801561107857602002820191906000526020600020905b815481526020019060010190808311611064575b5050505050905090565b6060600f838360405161109692919061431a565b90815260200160405180910390208054806020026020016040519081016040528092919081815260200182805480156110ee57602002820191906000526020600020905b8154815260200190600101908083116110da575b5050505050905092915050565b6060600b838360405161110f92919061431a565b908152602001604051809103902080548060200260200160405190810160405280929190818152602001828054801561116757602002820191906000526020600020905b815481526020019060010190808311611153575b5050505050905092915050565b600b8280516020810182018051848252602083016020850120818352809550505050505081815481106111a357fe5b90600052602060002001600091509150505481565b3373ffffffffffffffffffffffffffffffffffffffff166009600083815260200190815260200160002060000160009054906101000a900473ffffffffffffffffffffffffffffffffffffffff1673ffffffffffffffffffffffffffffffffffffffff161461125c576040517f08c379a0000000000000000000000000000000000000000000000000000000008152600401611253906145a6565b60405180910390fd5b3373ffffffffffffffffffffffffffffffffffffffff166108fc60096000848152602001908152602001600020600101549081150290604051600060405180830381858888f193505050501580156112b8573d6000803e3d6000fd5b5060096000828152602001908152602001600020600080820160006101000a81549073ffffffffffffffffffffffffffffffffffffffff0219169055600182016000905560028201600061130c91906134ed565b505050565b600d6020528060005260406000206000915090508060000160009054906101000a900473ffffffffffffffffffffffffffffffffffffffff1690806001015490806002018054600181600116156101000203166002900480601f0160208091040260200160405190810160405280929190818152602001828054600181600116156101000203166002900480156113e95780601f106113be576101008083540402835291602001916113e9565b820191906000526020600020905b8154815290600101906020018083116113cc57829003601f168201915b5050505050905083565b6011818051602081018201805184825260208301602085012081835280955050505050506000915090505481565b60008060008373ffffffffffffffffffffffffffffffffffffffff1673ffffffffffffffffffffffffffffffffffffffff168152602001908152602001600020549050919050565b611471612c44565b73ffffffffffffffffffffffffffffffffffffffff16600560019054906101000a900473ffffffffffffffffffffffffffffffffffffffff1673ffffffffffffffffffffffffffffffffffffffff1614611500576040517f08c379a00000000000000000000000000000000000000000000000000000000081526004016114f790614646565b60405180910390fd5b600073ffffffffffffffffffffffffffffffffffffffff16600560019054906101000a900473ffffffffffffffffffffffffffffffffffffffff1673ffffffffffffffffffffffffffffffffffffffff167f8be0079c531659141344cd1fd0a4f28419497f9722a3daafe3b4186f6b6457e060405160405180910390a36000600560016101000a81548173ffffffffffffffffffffffffffffffffffffffff021916908373ffffffffffffffffffffffffffffffffffffffff160217905550565b601060205281600052604060002081815481106115da57fe5b90600052602060002001600091509150505481565b6115f7612c44565b73ffffffffffffffffffffffffffffffffffffffff16600560019054906101000a900473ffffffffffffffffffffffffffffffffffffffff1673ffffffffffffffffffffffffffffffffffffffff1614611686576040517f08c379a000000000000000000000000000000000000000000000000000000000815260040161167d90614646565b60405180910390fd5b600660008273ffffffffffffffffffffffffffffffffffffffff1673ffffffffffffffffffffffffffffffffffffffff16815260200190815260200160002060009054906101000a900460ff16611712576040517f08c379a0000000000000000000000000000000000000000000000000000000008152600401611709906146a6565b60405180910390fd5b61171a6119b9565b73ffffffffffffffffffffffffffffffffffffffff168173ffffffffffffffffffffffffffffffffffffffff161415611788576040517f08c379a000000000000000000000000000000000000000000000000000000000815260040161177f906145c6565b60405180910390fd5b6000600660008373ffffffffffffffffffffffffffffffffffffffff1673ffffffffffffffffffffffffffffffffffffffff16815260200190815260200160002060006101000a81548160ff02191690831515021790555050565b60008111611826576040517f08c379a000000000000000000000000000000000000000000000000000000000815260040161181d90614506565b60405180910390fd5b611830338261315c565b806011836040516118419190614333565b9081526020016040518091039020600082825401925050819055505050565b3373ffffffffffffffffffffffffffffffffffffffff16600d600083815260200190815260200160002060000160009054906101000a900473ffffffffffffffffffffffffffffffffffffffff1673ffffffffffffffffffffffffffffffffffffffff1614611904576040517f08c379a00000000000000000000000000000000000000000000000000000000081526004016118fb906145a6565b60405180910390fd5b3373ffffffffffffffffffffffffffffffffffffffff166108fc600d6000848152602001908152602001600020600101549081150290604051600060405180830381858888f19350505050158015611960573d6000803e3d6000fd5b50600d6000828152602001908152602001600020600080820160006101000a81549073ffffffffffffffffffffffffffffffffffffffff021916905560018201600090556002820160006119b491906134ed565b505050565b6000600560019054906101000a900473ffffffffffffffffffffffffffffffffffffffff16905090565b606060048054600181600116156101000203166002900480601f016020809104026020016040519081016040528092919081815260200182805460018160011615610100020316600290048015611a7b5780601f10611a5057610100808354040283529160200191611a7b565b820191906000526020600020905b815481529060010190602001808311611a5e57829003601f168201915b5050505050905090565b60003411611ac8576040517f08c379a0000000000000000000000000000000000000000000000000000000008152600401611abf90614726565b60405180910390fd5b600a6000815480929190600101919050555060405180606001604052803373ffffffffffffffffffffffffffffffffffffffff16815260200134815260200183838080601f016020809104026020016040519081016040528093929190818152602001838380828437600081840152601f19601f8201169050808301925050505050505081525060096000600a54815260200190815260200160002060008201518160000160006101000a81548173ffffffffffffffffffffffffffffffffffffffff021916908373ffffffffffffffffffffffffffffffffffffffff160217905550602082015181600101556040820151816002019080519060200190611bd1929190613535565b50905050600b8282604051611be792919061431a565b9081526020016040518091039020600a549080600181540180825580915050600190039060005260206000200160009091909190915055600c60003373ffffffffffffffffffffffffffffffffffffffff1673ffffffffffffffffffffffffffffffffffffffff168152602001908152602001600020600a5490806001815401808255809150506001900390600052602060002001600090919091909150557f406551011d3a3874d102c2ee25adb004adb6d90a8134f04c14bd02f73ad4a3d033348484604051611cbb94939291906143ae565b60405180910390a15050565b6000611d8a611cd4612c44565b84611d8585604051806060016040528060258152602001614a076025913960016000611cfe612c44565b73ffffffffffffffffffffffffffffffffffffffff1673ffffffffffffffffffffffffffffffffffffffff16815260200190815260200160002060008a73ffffffffffffffffffffffffffffffffffffffff1673ffffffffffffffffffffffffffffffffffffffff168152602001908152602001600020546130ac9092919063ffffffff16565b612c4c565b6001905092915050565b6000611da8611da1612c44565b8484612e17565b6001905092915050565b3373ffffffffffffffffffffffffffffffffffffffff166007600860003373ffffffffffffffffffffffffffffffffffffffff1673ffffffffffffffffffffffffffffffffffffffff168152602001908152602001600020604051611e17919061434a565b908152602001604051809103902060000160009054906101000a900473ffffffffffffffffffffffffffffffffffffffff1673ffffffffffffffffffffffffffffffffffffffff1614611e9f576040517f08c379a0000000000000000000000000000000000000000000000000000000008152600401611e9690614706565b60405180910390fd5b600860003373ffffffffffffffffffffffffffffffffffffffff1673ffffffffffffffffffffffffffffffffffffffff168152602001908152602001600020604051611eeb9190614303565b604051809103902060096000838152602001908152602001600020600201604051611f169190614303565b604051809103902014611f5e576040517f08c379a0000000000000000000000000000000000000000000000000000000008152600401611f5590614606565b60405180910390fd5b3373ffffffffffffffffffffffffffffffffffffffff166108fc60096000848152602001908152602001600020600101549081150290604051600060405180830381858888f19350505050158015611fba573d6000803e3d6000fd5b5061201b6009600083815260200190815260200160002060000160009054906101000a900473ffffffffffffffffffffffffffffffffffffffff16606460096000858152602001908152602001600020600101548161201557fe5b0461330a565b61204533606460096000858152602001908152602001600020600101548161203f57fe5b0461330a565b60096000828152602001908152602001600020600080820160006101000a81549073ffffffffffffffffffffffffffffffffffffffff0219169055600182016000905560028201600061209891906134ed565b505050565b600c60205281600052604060002081815481106120b657fe5b90600052602060002001600091509150505481565b60086020528060005260406000206000915090508054600181600116156101000203166002900480601f0160208091040260200160405190810160405280929190818152602001828054600181600116156101000203166002900480156121735780601f1061214857610100808354040283529160200191612173565b820191906000526020600020905b81548152906001019060200180831161215657829003601f168201915b505050505081565b6000600160008473ffffffffffffffffffffffffffffffffffffffff1673ffffffffffffffffffffffffffffffffffffffff16815260200190815260200160002060008373ffffffffffffffffffffffffffffffffffffffff1673ffffffffffffffffffffffffffffffffffffffff16815260200190815260200160002054905092915050565b60003411612245576040517f08c379a000000000000000000000000000000000000000000000000000000000815260040161223c90614726565b60405180910390fd5b600073ffffffffffffffffffffffffffffffffffffffff166007838360405161226f92919061431a565b908152602001604051809103902060000160009054906101000a900473ffffffffffffffffffffffffffffffffffffffff1673ffffffffffffffffffffffffffffffffffffffff1614156122f8576040517f08c379a00000000000000000000000000000000000000000000000000000000081526004016122ef906145e6565b60405180910390fd5b600115156007838360405161230e92919061431a565b908152602001604051809103902060000160149054906101000a900460ff1615151461236f576040517f08c379a000000000000000000000000000000000000000000000000000000000815260040161236690614626565b60405180910390fd5b6007828260405161238192919061431a565b908152602001604051809103902060000160009054906101000a900473ffffffffffffffffffffffffffffffffffffffff1673ffffffffffffffffffffffffffffffffffffffff166108fc349081150290604051600060405180830381858888f193505050501580156123f8573d6000803e3d6000fd5b506124506007838360405161240e92919061431a565b908152602001604051809103902060000160009054906101000a900473ffffffffffffffffffffffffffffffffffffffff166064348161244a57fe5b0461330a565b612464336064348161245e57fe5b0461330a565b5050565b600073ffffffffffffffffffffffffffffffffffffffff166007838360405161249292919061431a565b908152602001604051809103902060000160009054906101000a900473ffffffffffffffffffffffffffffffffffffffff1673ffffffffffffffffffffffffffffffffffffffff161461256e5760086000600784846040516124f592919061431a565b908152602001604051809103902060000160009054906101000a900473ffffffffffffffffffffffffffffffffffffffff1673ffffffffffffffffffffffffffffffffffffffff1673ffffffffffffffffffffffffffffffffffffffff168152602001908152602001600020600061256d91906134ed565b5b60405180604001604052803373ffffffffffffffffffffffffffffffffffffffff16815260200160001515815250600783836040516125ae92919061431a565b908152602001604051809103902060008201518160000160006101000a81548173ffffffffffffffffffffffffffffffffffffffff021916908373ffffffffffffffffffffffffffffffffffffffff16021790555060208201518160000160146101000a81548160ff0219169083151502179055509050508181600860003373ffffffffffffffffffffffffffffffffffffffff1673ffffffffffffffffffffffffffffffffffffffff16815260200190815260200160002091906126749291906135b5565b507fd417e304669e6bf903f41a03f5ce981dac00416cf5034cd47d22fcb0c67c96bd3383836040516126a89392919061437c565b60405180910390a15050565b6126bc612c44565b73ffffffffffffffffffffffffffffffffffffffff16600560019054906101000a900473ffffffffffffffffffffffffffffffffffffffff1673ffffffffffffffffffffffffffffffffffffffff161461274b576040517f08c379a000000000000000000000000000000000000000000000000000000000815260040161274290614646565b60405180910390fd5b600073ffffffffffffffffffffffffffffffffffffffff168173ffffffffffffffffffffffffffffffffffffffff1614156127bb576040517f08c379a00000000000000000000000000000000000000000000000000000000081526004016127b290614526565b60405180910390fd5b8073ffffffffffffffffffffffffffffffffffffffff16600560019054906101000a900473ffffffffffffffffffffffffffffffffffffffff1673ffffffffffffffffffffffffffffffffffffffff167f8be0079c531659141344cd1fd0a4f28419497f9722a3daafe3b4186f6b6457e060405160405180910390a380600560016101000a81548173ffffffffffffffffffffffffffffffffffffffff021916908373ffffffffffffffffffffffffffffffffffffffff16021790555050565b600034116128be576040517f08c379a00000000000000000000000000000000000000000000000000000000081526004016128b590614726565b60405180910390fd5b600e6000815480929190600101919050555060405180606001604052803373ffffffffffffffffffffffffffffffffffffffff16815260200134815260200183838080601f016020809104026020016040519081016040528093929190818152602001838380828437600081840152601f19601f82011690508083019250505050505050815250600d6000600e54815260200190815260200160002060008201518160000160006101000a81548173ffffffffffffffffffffffffffffffffffffffff021916908373ffffffffffffffffffffffffffffffffffffffff1602179055506020820151816001015560408201518160020190805190602001906129c7929190613535565b50905050600f82826040516129dd92919061431a565b9081526020016040518091039020600e549080600181540180825580915050600190039060005260206000200160009091909190915055601060003373ffffffffffffffffffffffffffffffffffffffff1673ffffffffffffffffffffffffffffffffffffffff168152602001908152602001600020600e5490806001815401808255809150506001900390600052602060002001600090919091909150557f08c7c4039b7c98d46cb4ebb0f96ca6a67a506db7c3ddd814f88dd3cfd24e2ae933348484604051612ab194939291906143ae565b60405180910390a15050565b612ac5612c44565b73ffffffffffffffffffffffffffffffffffffffff16600560019054906101000a900473ffffffffffffffffffffffffffffffffffffffff1673ffffffffffffffffffffffffffffffffffffffff1614612b54576040517f08c379a0000000000000000000000000000000000000000000000000000000008152600401612b4b90614646565b60405180910390fd5b6001600660008373ffffffffffffffffffffffffffffffffffffffff1673ffffffffffffffffffffffffffffffffffffffff16815260200190815260200160002060006101000a81548160ff02191690831515021790555050565b6060601060003373ffffffffffffffffffffffffffffffffffffffff1673ffffffffffffffffffffffffffffffffffffffff168152602001908152602001600020805480602002602001604051908101604052809291908181526020018280548015612c3a57602002820191906000526020600020905b815481526020019060010190808311612c26575b5050505050905090565b600033905090565b600073ffffffffffffffffffffffffffffffffffffffff168373ffffffffffffffffffffffffffffffffffffffff161415612cbc576040517f08c379a0000000000000000000000000000000000000000000000000000000008152600401612cb3906146c6565b60405180910390fd5b600073ffffffffffffffffffffffffffffffffffffffff168273ffffffffffffffffffffffffffffffffffffffff161415612d2c576040517f08c379a0000000000000000000000000000000000000000000000000000000008152600401612d2390614546565b60405180910390fd5b80600160008573ffffffffffffffffffffffffffffffffffffffff1673ffffffffffffffffffffffffffffffffffffffff16815260200190815260200160002060008473ffffffffffffffffffffffffffffffffffffffff1673ffffffffffffffffffffffffffffffffffffffff168152602001908152602001600020819055508173ffffffffffffffffffffffffffffffffffffffff168373ffffffffffffffffffffffffffffffffffffffff167f8c5be1e5ebec7d5bd14f71427d1e84f3dd0314c0f7b2291e5b200ac8c7c3b92583604051612e0a9190614766565b60405180910390a3505050565b600073ffffffffffffffffffffffffffffffffffffffff168373ffffffffffffffffffffffffffffffffffffffff161415612e87576040517f08c379a0000000000000000000000000000000000000000000000000000000008152600401612e7e90614686565b60405180910390fd5b600073ffffffffffffffffffffffffffffffffffffffff168273ffffffffffffffffffffffffffffffffffffffff161415612ef7576040517f08c379a0000000000000000000000000000000000000000000000000000000008152600401612eee906144e6565b60405180910390fd5b612f0283838361349e565b612f6d816040518060600160405280602681526020016149b9602691396000808773ffffffffffffffffffffffffffffffffffffffff1673ffffffffffffffffffffffffffffffffffffffff168152602001908152602001600020546130ac9092919063ffffffff16565b6000808573ffffffffffffffffffffffffffffffffffffffff1673ffffffffffffffffffffffffffffffffffffffff16815260200190815260200160002081905550613000816000808573ffffffffffffffffffffffffffffffffffffffff1673ffffffffffffffffffffffffffffffffffffffff1681526020019081526020016000205461310790919063ffffffff16565b6000808473ffffffffffffffffffffffffffffffffffffffff1673ffffffffffffffffffffffffffffffffffffffff168152602001908152602001600020819055508173ffffffffffffffffffffffffffffffffffffffff168373ffffffffffffffffffffffffffffffffffffffff167fddf252ad1be2c89b69c2b068fc378daa952ba7f163c4a11628f55a4df523b3ef8360405161309f9190614766565b60405180910390a3505050565b60008383111582906130f4576040517f08c379a00000000000000000000000000000000000000000000000000000000081526004016130eb91906144c4565b60405180910390fd5b5060008385039050809150509392505050565b600080828401905083811015613152576040517f08c379a000000000000000000000000000000000000000000000000000000000815260040161314990614586565b60405180910390fd5b8091505092915050565b600073ffffffffffffffffffffffffffffffffffffffff168273ffffffffffffffffffffffffffffffffffffffff1614156131cc576040517f08c379a00000000000000000000000000000000000000000000000000000000081526004016131c390614666565b60405180910390fd5b6131d88260008361349e565b61324381604051806060016040528060228152602001614997602291396000808673ffffffffffffffffffffffffffffffffffffffff1673ffffffffffffffffffffffffffffffffffffffff168152602001908152602001600020546130ac9092919063ffffffff16565b6000808473ffffffffffffffffffffffffffffffffffffffff1673ffffffffffffffffffffffffffffffffffffffff1681526020019081526020016000208190555061329a816002546134a390919063ffffffff16565b600281905550600073ffffffffffffffffffffffffffffffffffffffff168273ffffffffffffffffffffffffffffffffffffffff167fddf252ad1be2c89b69c2b068fc378daa952ba7f163c4a11628f55a4df523b3ef836040516132fe9190614766565b60405180910390a35050565b600073ffffffffffffffffffffffffffffffffffffffff168273ffffffffffffffffffffffffffffffffffffffff16141561337a576040517f08c379a000000000000000000000000000000000000000000000000000000000815260040161337190614746565b60405180910390fd5b6133866000838361349e565b61339b8160025461310790919063ffffffff16565b6002819055506133f2816000808573ffffffffffffffffffffffffffffffffffffffff1673ffffffffffffffffffffffffffffffffffffffff1681526020019081526020016000205461310790919063ffffffff16565b6000808473ffffffffffffffffffffffffffffffffffffffff1673ffffffffffffffffffffffffffffffffffffffff168152602001908152602001600020819055508173ffffffffffffffffffffffffffffffffffffffff16600073ffffffffffffffffffffffffffffffffffffffff167fddf252ad1be2c89b69c2b068fc378daa952ba7f163c4a11628f55a4df523b3ef836040516134929190614766565b60405180910390a35050565b505050565b60006134e583836040518060400160405280601e81526020017f536166654d6174683a207375627472616374696f6e206f766572666c6f7700008152506130ac565b905092915050565b50805460018160011615610100020316600290046000825580601f106135135750613532565b601f0160209004906000526020600020908101906135319190613635565b5b50565b828054600181600116156101000203166002900490600052602060002090601f016020900481019282601f1061357657805160ff19168380011785556135a4565b828001600101855582156135a4579182015b828111156135a3578251825591602001919060010190613588565b5b5090506135b19190613635565b5090565b828054600181600116156101000203166002900490600052602060002090601f016020900481019282601f106135f657803560ff1916838001178555613624565b82800160010185558215613624579182015b82811115613623578235825591602001919060010190613608565b5b5090506136319190613635565b5090565b61365791905b8082111561365357600081600090555060010161363b565b5090565b90565b60008135905061366981614968565b92915050565b60008083601f84011261368157600080fd5b8235905067ffffffffffffffff81111561369a57600080fd5b6020830191508360018202830111156136b257600080fd5b9250929050565b600082601f8301126136ca57600080fd5b81356136dd6136d8826147c9565b61479c565b915080825260208301602083018583830111156136f957600080fd5b613704838284614915565b50505092915050565b60008135905061371c8161497f565b92915050565b60006020828403121561373457600080fd5b60006137428482850161365a565b91505092915050565b6000806040838503121561375e57600080fd5b600061376c8582860161365a565b925050602061377d8582860161365a565b9150509250929050565b60008060006060848603121561379c57600080fd5b60006137aa8682870161365a565b93505060206137bb8682870161365a565b92505060406137cc8682870161370d565b9150509250925092565b600080604083850312156137e957600080fd5b60006137f78582860161365a565b92505060206138088582860161370d565b9150509250929050565b6000806020838503121561382557600080fd5b600083013567ffffffffffffffff81111561383f57600080fd5b61384b8582860161366f565b92509250509250929050565b60008060006040848603121561386c57600080fd5b600084013567ffffffffffffffff81111561388657600080fd5b6138928682870161366f565b935093505060206138a58682870161365a565b9150509250925092565b6000602082840312156138c157600080fd5b600082013567ffffffffffffffff8111156138db57600080fd5b6138e7848285016136b9565b91505092915050565b6000806040838503121561390357600080fd5b600083013567ffffffffffffffff81111561391d57600080fd5b613929858286016136b9565b925050602061393a8582860161370d565b9150509250929050565b60006020828403121561395657600080fd5b60006139648482850161370d565b91505092915050565b600061397983836142d6565b60208301905092915050565b61398e816148df565b82525050565b61399d8161488a565b82525050565b60006139ae8261482f565b6139b88185614852565b93506139c3836147f5565b8060005b838110156139f45781516139db888261396d565b97506139e683614845565b9250506001810190506139c7565b5085935050505092915050565b613a0a8161489c565b82525050565b600081546001811660008114613a2d5760018114613a5257613a96565b607f6002830416613a3e8187614863565b955060ff1983168652808601935050613a96565b60028204613a608187614863565b9550613a6b85614805565b60005b82811015613a8d57815481890152600182019150602081019050613a6e565b82880195505050505b505092915050565b6000613aaa838561486e565b9350613ab7838584614915565b613ac083614957565b840190509392505050565b6000613ad7838561487f565b9350613ae4838584614915565b82840190509392505050565b6000613afb8261483a565b613b05818561486e565b9350613b15818560208601614924565b613b1e81614957565b840191505092915050565b6000613b348261483a565b613b3e818561487f565b9350613b4e818560208601614924565b80840191505092915050565b600081546001811660008114613b775760018114613b9c57613be0565b607f6002830416613b88818761487f565b955060ff1983168652808601935050613be0565b60028204613baa818761487f565b9550613bb58561481a565b60005b82811015613bd757815481890152600182019150602081019050613bb8565b82880195505050505b505092915050565b6000613bf560238361486e565b91507f45524332303a207472616e7366657220746f20746865207a65726f206164647260008301527f65737300000000000000000000000000000000000000000000000000000000006020830152604082019050919050565b6000613c5b601c8361486e565b91507f416d6f756e74206d7573742062652067726561746572207a65726f2e000000006000830152602082019050919050565b6000613c9b60268361486e565b91507f4f776e61626c653a206e6577206f776e657220697320746865207a65726f206160008301527f64647265737300000000000000000000000000000000000000000000000000006020830152604082019050919050565b6000613d0160228361486e565b91507f45524332303a20617070726f766520746f20746865207a65726f20616464726560008301527f73730000000000000000000000000000000000000000000000000000000000006020830152604082019050919050565b6000613d67602e8361486e565b91507f54686973206163636f756e7420636f6e6669726d6174696f6e20776173206e6560008301527f766572207265717565737465642e0000000000000000000000000000000000006020830152604082019050919050565b6000613dcd601b8361486e565b91507f536166654d6174683a206164646974696f6e206f766572666c6f7700000000006000830152602082019050919050565b6000613e0d60308361486e565b91507f4465706f73697420646964206e6f742063616d652066726f6d2074686973204560008301527f7468657265756d206163636f756e742e000000000000000000000000000000006020830152604082019050919050565b6000613e7360208361486e565b91507f4f776e6572206f7261636c652063616e206e6f742062652072656d6f7665642e6000830152602082019050919050565b6000613eb360238361486e565b91507f54686973204769744875622055736572206973206e6f7420726567697374657260008301527f65642e00000000000000000000000000000000000000000000000000000000006020830152604082019050919050565b6000613f1960278361486e565b91507f4465706f736974206973206e6f7420666f72207468697320476974487562206160008301527f63636f756e742e000000000000000000000000000000000000000000000000006020830152604082019050919050565b6000613f7f60268361486e565b91507f54686973204769744875622055736572206973206e6f7420636f6e6669726d6560008301527f64207965742e00000000000000000000000000000000000000000000000000006020830152604082019050919050565b6000613fe560208361486e565b91507f4f776e61626c653a2063616c6c6572206973206e6f7420746865206f776e65726000830152602082019050919050565b600061402560218361486e565b91507f45524332303a206275726e2066726f6d20746865207a65726f2061646472657360008301527f73000000000000000000000000000000000000000000000000000000000000006020830152604082019050919050565b600061408b60258361486e565b91507f45524332303a207472616e736665722066726f6d20746865207a65726f20616460008301527f64726573730000000000000000000000000000000000000000000000000000006020830152604082019050919050565b60006140f160178361486e565b91507f4f7261636c6520646f6573206e6f74206578697374732e0000000000000000006000830152602082019050919050565b600061413160248361486e565b91507f45524332303a20617070726f76652066726f6d20746865207a65726f2061646460008301527f72657373000000000000000000000000000000000000000000000000000000006020830152604082019050919050565b600061419760248361486e565b91507f4f6e6c79206f7261636c65732063616e20636f6e6669726d206f70657261746960008301527f6f6e732e000000000000000000000000000000000000000000000000000000006020830152604082019050919050565b60006141fd60398361486e565b91507f476974487562206163636f756e74206e6f74207265676973746572656420776960008301527f7468207468697320457468657265756d206163636f756e742e000000000000006020830152604082019050919050565b600061426360128361486e565b91507f596f75206d7573742073656e64204554482e00000000000000000000000000006000830152602082019050919050565b60006142a3601f8361486e565b91507f45524332303a206d696e7420746f20746865207a65726f2061646472657373006000830152602082019050919050565b6142df816148c8565b82525050565b6142ee816148c8565b82525050565b6142fd816148d2565b82525050565b600061430f8284613a10565b915081905092915050565b6000614327828486613acb565b91508190509392505050565b600061433f8284613b29565b915081905092915050565b60006143568284613b5a565b915081905092915050565b60006020820190506143766000830184613994565b92915050565b60006040820190506143916000830186613985565b81810360208301526143a4818486613a9e565b9050949350505050565b60006060820190506143c36000830187613985565b6143d060208301866142e5565b81810360408301526143e3818486613a9e565b905095945050505050565b60006040820190506144036000830185613994565b6144106020830184613a01565b9392505050565b600060408201905061442c6000830186613994565b818103602083015261443f818486613a9e565b9050949350505050565b600060608201905061445e6000830186613994565b61446b60208301856142e5565b818103604083015261447d8184613af0565b9050949350505050565b600060208201905081810360008301526144a181846139a3565b905092915050565b60006020820190506144be6000830184613a01565b92915050565b600060208201905081810360008301526144de8184613af0565b905092915050565b600060208201905081810360008301526144ff81613be8565b9050919050565b6000602082019050818103600083015261451f81613c4e565b9050919050565b6000602082019050818103600083015261453f81613c8e565b9050919050565b6000602082019050818103600083015261455f81613cf4565b9050919050565b6000602082019050818103600083015261457f81613d5a565b9050919050565b6000602082019050818103600083015261459f81613dc0565b9050919050565b600060208201905081810360008301526145bf81613e00565b9050919050565b600060208201905081810360008301526145df81613e66565b9050919050565b600060208201905081810360008301526145ff81613ea6565b9050919050565b6000602082019050818103600083015261461f81613f0c565b9050919050565b6000602082019050818103600083015261463f81613f72565b9050919050565b6000602082019050818103600083015261465f81613fd8565b9050919050565b6000602082019050818103600083015261467f81614018565b9050919050565b6000602082019050818103600083015261469f8161407e565b9050919050565b600060208201905081810360008301526146bf816140e4565b9050919050565b600060208201905081810360008301526146df81614124565b9050919050565b600060208201905081810360008301526146ff8161418a565b9050919050565b6000602082019050818103600083015261471f816141f0565b9050919050565b6000602082019050818103600083015261473f81614256565b9050919050565b6000602082019050818103600083015261475f81614296565b9050919050565b600060208201905061477b60008301846142e5565b92915050565b600060208201905061479660008301846142f4565b92915050565b6000604051905081810181811067ffffffffffffffff821117156147bf57600080fd5b8060405250919050565b600067ffffffffffffffff8211156147e057600080fd5b601f19601f8301169050602081019050919050565b6000819050602082019050919050565b60008190508160005260206000209050919050565b60008190508160005260206000209050919050565b600081519050919050565b600081519050919050565b6000602082019050919050565b600082825260208201905092915050565b600081905092915050565b600082825260208201905092915050565b600081905092915050565b6000614895826148a8565b9050919050565b60008115159050919050565b600073ffffffffffffffffffffffffffffffffffffffff82169050919050565b6000819050919050565b600060ff82169050919050565b60006148ea826148f1565b9050919050565b60006148fc82614903565b9050919050565b600061490e826148a8565b9050919050565b82818337600083830152505050565b60005b83811015614942578082015181840152602081019050614927565b83811115614951576000848401525b50505050565b6000601f19601f8301169050919050565b6149718161488a565b811461497c57600080fd5b50565b614988816148c8565b811461499357600080fd5b5056fe45524332303a206275726e20616d6f756e7420657863656564732062616c616e636545524332303a207472616e7366657220616d6f756e7420657863656564732062616c616e636545524332303a207472616e7366657220616d6f756e74206578636565647320616c6c6f77616e636545524332303a2064656372656173656420616c6c6f77616e63652062656c6f77207a65726fa2646970667358221220d23c589c7d6340d771bd6ae18439a998d09ce56261aa8848030da27c93b779da64736f6c63430006060033",
  "immutableReferences": {},
  "source": "// SPDX-License-Identifier: MIT\npragma solidity ^0.6.0;\npragma experimental ABIEncoderV2;\n\nimport \"@openzeppelin/contracts/token/ERC20/ERC20.sol\";\nimport \"@openzeppelin/contracts/access/Ownable.sol\";\nimport \"./MergeToken.sol\";\n\ncontract MergePay is ERC20, Ownable {\n  struct User {\n    address account;\n    bool confirmed;\n  }\n\n  struct UserDeposit {\n    address from;\n    uint256 amount;\n    string githubUser;\n  }\n\n  struct IssueDeposit {\n    address from;\n    uint256 amount;\n    string issueId;\n  }\n\n  event RegistrationRequestEvent(address account, string githubUser);\n  event RegistrationConfirmedEvent(address account, string githubUser);\n  event UserDepositEvent(address account, uint256 amount, string githubUser);\n  event IssueDepositEvent(address account, uint256 amount, string issueId);\n\n  mapping(address => bool) private _oracles;\n\n  mapping(string => User) public _users;\n  mapping(address => string) public _usersByAddress;\n\n  mapping(uint256 => UserDeposit) public _userDeposits;\n  uint256 private _nextUserDepositId = 0;\n  mapping(string => uint256[]) public _userDepositIdsByGithubUser;\n  mapping(address => uint256[]) public _userDepositIdsBySender;\n\n  mapping(uint256 => IssueDeposit) public _issueDeposits;\n  uint256 public _nextIssueDepositId = 0;\n  mapping(string => uint256[]) public _issueDepositIdsByIssueId;\n  mapping(address => uint256[]) public _issueDepositIdsBySender;\n\n  mapping(string => uint256) public _issueBoosts;\n\n  modifier onlyOracles {\n    require(_oracles[msg.sender], \"Only oracles can confirm operations.\");\n    _;\n  }\n\n  /// @dev Initiates MergeToken and set owner as oracle.\n  constructor() ERC20(\"Merge Token\", \"MERGE\") public {\n    _oracles[owner()] = true;\n  }\n\n  /// @param oracle The oracle address to add\n  function enableOracle(address oracle) external onlyOwner {\n    _oracles[oracle] = true;\n  }\n\n  /// @param oracle The oracle address to remove (cannot be owner)\n  function disableOracle(address oracle) external onlyOwner {\n    require(_oracles[oracle], \"Oracle does not exists.\");\n    require(oracle != owner(), \"Owner oracle can not be removed.\");\n    _oracles[oracle] = false;\n  }\n\n  /// @dev Verify ownership over GitHub account by checking for a repositry of\n  /// @dev githubUser named after msg.sender. Adds user as unconfirmed and sends\n  /// @dev an oracle request, that will be fullfilled in registerConfirm.\n  /// @param githubUser The GitHub username to register\n  function register(string calldata githubUser) external {\n    if (_users[githubUser].account != address(0)) {\n      delete _usersByAddress[_users[githubUser].account];\n    }\n    _users[githubUser] = User(msg.sender, false);\n    _usersByAddress[msg.sender] = githubUser;\n\n    emit RegistrationRequestEvent(msg.sender, githubUser);\n  }\n\n  /// @dev Oracle fullfill method. Sets unconfirmed user to confirmed if repo exists.\n  /// @param githubUser The githubUser to confirm\n  /// @param account The Eth account to confirm\n  function registerConfirm(string calldata githubUser, address account) external onlyOracles {\n    require(\n      _users[githubUser].account != address(0) && _users[githubUser].account == account,\n      \"This account confirmation was never requested.\"\n    );\n    _users[githubUser].confirmed = true;\n    emit RegistrationConfirmedEvent(account, githubUser);\n  }\n\n  /// @dev Send ETH to a registered githubUser.\n  /// @param githubUser The receiving githubUser.\n  function sendEthToGithubUser(string calldata githubUser) external payable {\n    require(msg.value > 0, \"You must send ETH.\");\n    require(_users[githubUser].account != address(0), \"This GitHub User is not registered.\");\n    require(_users[githubUser].confirmed == true, \"This GitHub User is not confirmed yet.\");\n    payable(_users[githubUser].account).transfer(msg.value);\n    _mint(_users[githubUser].account, msg.value / 100);\n    _mint(msg.sender, msg.value / 100);\n  }\n\n  /// @dev Deposit ETH to a registered githubUser.\n  /// @param githubUser The receiving githubUser.\n  function depositEthForGithubUser(string calldata githubUser) external payable {\n    require(msg.value > 0, \"You must send ETH.\");\n    _nextUserDepositId++;\n    _userDeposits[_nextUserDepositId] = UserDeposit(msg.sender, msg.value, githubUser);\n    _userDepositIdsByGithubUser[githubUser].push(_nextUserDepositId);\n    _userDepositIdsBySender[msg.sender].push(_nextUserDepositId);\n    emit UserDepositEvent(msg.sender, msg.value, githubUser);\n  }\n\n  function withdrawUserDeposit(uint256 depositId) external {\n    require(_users[_usersByAddress[msg.sender]].account == msg.sender, \"GitHub account not registered with this Ethereum account.\");\n    require(keccak256(bytes(_userDeposits[depositId].githubUser)) == keccak256(bytes(_usersByAddress[msg.sender])), \"Deposit is not for this GitHub account.\");\n    payable(msg.sender).transfer(_userDeposits[depositId].amount);\n    _mint(_userDeposits[depositId].from, _userDeposits[depositId].amount / 100);\n    _mint(msg.sender, _userDeposits[depositId].amount / 100);\n    delete _userDeposits[depositId];\n  }\n\n  function refundUserDeposit(uint256 depositId) external {\n    require(_userDeposits[depositId].from == msg.sender, \"Deposit did not came from this Ethereum account.\");\n    payable(msg.sender).transfer(_userDeposits[depositId].amount);\n    delete _userDeposits[depositId];\n  }\n\n  function getUserDepositIdsForGithubUser(string calldata githubUser) external view returns(uint256[] memory) {\n    return _userDepositIdsByGithubUser[githubUser];\n  }\n\n  function getUserDepositIdsForSender() external view returns(uint256[] memory) {\n    return _userDepositIdsBySender[msg.sender];\n  }\n\n  /// @dev Deposit ETH to a github issue.\n  /// @param issueId The receiving github issue.\n  function depositEthForIssue(string calldata issueId) external payable {\n    require(msg.value > 0, \"You must send ETH.\");\n    _nextIssueDepositId++;\n    _issueDeposits[_nextIssueDepositId] = IssueDeposit(msg.sender, msg.value, issueId);\n    _issueDepositIdsByIssueId[issueId].push(_nextIssueDepositId);\n    _issueDepositIdsBySender[msg.sender].push(_nextIssueDepositId);\n    emit IssueDepositEvent(msg.sender, msg.value, issueId);\n  }\n\n  function refundIssueDeposit(uint256 depositId) external {\n    require(_issueDeposits[depositId].from == msg.sender, \"Deposit did not came from this Ethereum account.\");\n    payable(msg.sender).transfer(_issueDeposits[depositId].amount);\n    delete _issueDeposits[depositId];\n  }\n\n  function getIssueDepositIdsForIssueId(string calldata issueId) external view returns(uint256[] memory) {\n    return _issueDepositIdsByIssueId[issueId];\n  }\n\n  function getIssueDepositIdsForSender() external view returns(uint256[] memory) {\n    return _issueDepositIdsBySender[msg.sender];\n  }\n\n  function pinIssue(string memory issueId, uint256 amount) public {\n    require(amount > 0, \"Amount must be greater zero.\");\n    _burn(msg.sender, amount);\n    _issueBoosts[issueId] += amount;\n  }\n}\n",
  "sourcePath": "/home/mkt/Projects/mergepay-contracts/contracts/MergePay.sol",
  "compiler": {
    "name": "solc",
    "version": "0.6.6+commit.6c089d02.Emscripten.clang"
  },
  "schemaVersion": "3.2.5",
  "updatedAt": "2020-11-05T18:01:40.794Z",
  "networkType": "ethereum",
  "devdoc": {
    "methods": {
      "allowance(address,address)": {
        "details": "See {IERC20-allowance}."
      },
      "approve(address,uint256)": {
        "details": "See {IERC20-approve}.     * Requirements:     * - `spender` cannot be the zero address."
      },
      "balanceOf(address)": {
        "details": "See {IERC20-balanceOf}."
      },
      "constructor": {
        "details": "Initiates MergeToken and set owner as oracle."
      },
      "decimals()": {
        "details": "Returns the number of decimals used to get its user representation. For example, if `decimals` equals `2`, a balance of `505` tokens should be displayed to a user as `5,05` (`505 / 10 ** 2`).     * Tokens usually opt for a value of 18, imitating the relationship between Ether and Wei. This is the value {ERC20} uses, unless {_setupDecimals} is called.     * NOTE: This information is only used for _display_ purposes: it in no way affects any of the arithmetic of the contract, including {IERC20-balanceOf} and {IERC20-transfer}."
      },
      "decreaseAllowance(address,uint256)": {
        "details": "Atomically decreases the allowance granted to `spender` by the caller.     * This is an alternative to {approve} that can be used as a mitigation for problems described in {IERC20-approve}.     * Emits an {Approval} event indicating the updated allowance.     * Requirements:     * - `spender` cannot be the zero address. - `spender` must have allowance for the caller of at least `subtractedValue`."
      },
      "depositEthForGithubUser(string)": {
        "details": "Deposit ETH to a registered githubUser.",
        "params": {
          "githubUser": "The receiving githubUser."
        }
      },
      "depositEthForIssue(string)": {
        "details": "Deposit ETH to a github issue.",
        "params": {
          "issueId": "The receiving github issue."
        }
      },
      "disableOracle(address)": {
        "params": {
          "oracle": "The oracle address to remove (cannot be owner)"
        }
      },
      "enableOracle(address)": {
        "params": {
          "oracle": "The oracle address to add"
        }
      },
      "increaseAllowance(address,uint256)": {
        "details": "Atomically increases the allowance granted to `spender` by the caller.     * This is an alternative to {approve} that can be used as a mitigation for problems described in {IERC20-approve}.     * Emits an {Approval} event indicating the updated allowance.     * Requirements:     * - `spender` cannot be the zero address."
      },
      "name()": {
        "details": "Returns the name of the token."
      },
      "owner()": {
        "details": "Returns the address of the current owner."
      },
      "register(string)": {
        "details": "Verify ownership over GitHub account by checking for a repositry ofgithubUser named after msg.sender. Adds user as unconfirmed and sendsan oracle request, that will be fullfilled in registerConfirm.",
        "params": {
          "githubUser": "The GitHub username to register"
        }
      },
      "registerConfirm(string,address)": {
        "details": "Oracle fullfill method. Sets unconfirmed user to confirmed if repo exists.",
        "params": {
          "account": "The Eth account to confirm",
          "githubUser": "The githubUser to confirm"
        }
      },
      "renounceOwnership()": {
        "details": "Leaves the contract without owner. It will not be possible to call `onlyOwner` functions anymore. Can only be called by the current owner.     * NOTE: Renouncing ownership will leave the contract without an owner, thereby removing any functionality that is only available to the owner."
      },
      "sendEthToGithubUser(string)": {
        "details": "Send ETH to a registered githubUser.",
        "params": {
          "githubUser": "The receiving githubUser."
        }
      },
      "symbol()": {
        "details": "Returns the symbol of the token, usually a shorter version of the name."
      },
      "totalSupply()": {
        "details": "See {IERC20-totalSupply}."
      },
      "transfer(address,uint256)": {
        "details": "See {IERC20-transfer}.     * Requirements:     * - `recipient` cannot be the zero address. - the caller must have a balance of at least `amount`."
      },
      "transferFrom(address,address,uint256)": {
        "details": "See {IERC20-transferFrom}.     * Emits an {Approval} event indicating the updated allowance. This is not required by the EIP. See the note at the beginning of {ERC20};     * Requirements: - `sender` and `recipient` cannot be the zero address. - `sender` must have a balance of at least `amount`. - the caller must have allowance for ``sender``'s tokens of at least `amount`."
      },
      "transferOwnership(address)": {
        "details": "Transfers ownership of the contract to a new account (`newOwner`). Can only be called by the current owner."
      }
    }
  },
  "userdoc": {
    "methods": {}
  }
}