{
  "contractName": "MergePay",
  "abi": [
    {
      "inputs": [],
      "stateMutability": "nonpayable",
      "type": "constructor"
    },
    {
      "anonymous": false,
      "inputs": [
        {
          "indexed": true,
          "internalType": "address",
          "name": "owner",
          "type": "address"
        },
        {
          "indexed": true,
          "internalType": "address",
          "name": "spender",
          "type": "address"
        },
        {
          "indexed": false,
          "internalType": "uint256",
          "name": "value",
          "type": "uint256"
        }
      ],
      "name": "Approval",
      "type": "event"
    },
    {
      "anonymous": false,
      "inputs": [
        {
          "indexed": false,
          "internalType": "address",
          "name": "account",
          "type": "address"
        },
        {
          "indexed": false,
          "internalType": "uint256",
          "name": "amount",
          "type": "uint256"
        },
        {
          "indexed": false,
          "internalType": "uint8",
          "name": "issueOrPr",
          "type": "uint8"
        },
        {
          "indexed": false,
          "internalType": "string",
          "name": "id",
          "type": "string"
        }
      ],
      "name": "DepositEvent",
      "type": "event"
    },
    {
      "anonymous": false,
      "inputs": [
        {
          "indexed": true,
          "internalType": "address",
          "name": "previousOwner",
          "type": "address"
        },
        {
          "indexed": true,
          "internalType": "address",
          "name": "newOwner",
          "type": "address"
        }
      ],
      "name": "OwnershipTransferred",
      "type": "event"
    },
    {
      "anonymous": false,
      "inputs": [
        {
          "indexed": false,
          "internalType": "address",
          "name": "account",
          "type": "address"
        },
        {
          "indexed": false,
          "internalType": "string",
          "name": "githubUser",
          "type": "string"
        },
        {
          "indexed": false,
          "internalType": "uint8",
          "name": "confirmations",
          "type": "uint8"
        }
      ],
      "name": "RegistrationConfirmedEvent",
      "type": "event"
    },
    {
      "anonymous": false,
      "inputs": [
        {
          "indexed": false,
          "internalType": "address",
          "name": "account",
          "type": "address"
        },
        {
          "indexed": false,
          "internalType": "string",
          "name": "githubUser",
          "type": "string"
        }
      ],
      "name": "RegistrationRequestEvent",
      "type": "event"
    },
    {
      "anonymous": false,
      "inputs": [
        {
          "indexed": true,
          "internalType": "address",
          "name": "from",
          "type": "address"
        },
        {
          "indexed": true,
          "internalType": "address",
          "name": "to",
          "type": "address"
        },
        {
          "indexed": false,
          "internalType": "uint256",
          "name": "value",
          "type": "uint256"
        }
      ],
      "name": "Transfer",
      "type": "event"
    },
    {
      "anonymous": false,
      "inputs": [
        {
          "indexed": false,
          "internalType": "uint256",
          "name": "id",
          "type": "uint256"
        }
      ],
      "name": "WithdrawalConfirmedEvent",
      "type": "event"
    },
    {
      "anonymous": false,
      "inputs": [
        {
          "indexed": false,
          "internalType": "address",
          "name": "account",
          "type": "address"
        },
        {
          "indexed": false,
          "internalType": "uint256",
          "name": "depositId",
          "type": "uint256"
        }
      ],
      "name": "WithdrawalRequestEvent",
      "type": "event"
    },
    {
      "inputs": [
        {
          "internalType": "uint256",
          "name": "",
          "type": "uint256"
        }
      ],
      "name": "_deposits",
      "outputs": [
        {
          "internalType": "address",
          "name": "account",
          "type": "address"
        },
        {
          "internalType": "uint256",
          "name": "amount",
          "type": "uint256"
        },
        {
          "internalType": "uint8",
          "name": "issueOrPr",
          "type": "uint8"
        },
        {
          "internalType": "string",
          "name": "id",
          "type": "string"
        },
        {
          "internalType": "uint256",
          "name": "addedTimestamp",
          "type": "uint256"
        },
        {
          "internalType": "uint256",
          "name": "lockedUntilTimestamp",
          "type": "uint256"
        }
      ],
      "stateMutability": "view",
      "type": "function",
      "constant": true
    },
    {
      "inputs": [
        {
          "internalType": "string",
          "name": "",
          "type": "string"
        }
      ],
      "name": "_users",
      "outputs": [
        {
          "internalType": "address",
          "name": "account",
          "type": "address"
        },
        {
          "internalType": "uint8",
          "name": "confirmations",
          "type": "uint8"
        }
      ],
      "stateMutability": "view",
      "type": "function",
      "constant": true
    },
    {
      "inputs": [
        {
          "internalType": "address",
          "name": "",
          "type": "address"
        }
      ],
      "name": "_usersByAddress",
      "outputs": [
        {
          "internalType": "string",
          "name": "",
          "type": "string"
        }
      ],
      "stateMutability": "view",
      "type": "function",
      "constant": true
    },
    {
      "inputs": [
        {
          "internalType": "uint256",
          "name": "",
          "type": "uint256"
        }
      ],
      "name": "_withdrawals",
      "outputs": [
        {
          "internalType": "address",
          "name": "account",
          "type": "address"
        },
        {
          "internalType": "uint256",
          "name": "depositId",
          "type": "uint256"
        },
        {
          "internalType": "uint8",
          "name": "confirmations",
          "type": "uint8"
        }
      ],
      "stateMutability": "view",
      "type": "function",
      "constant": true
    },
    {
      "inputs": [
        {
          "internalType": "address",
          "name": "owner",
          "type": "address"
        },
        {
          "internalType": "address",
          "name": "spender",
          "type": "address"
        }
      ],
      "name": "allowance",
      "outputs": [
        {
          "internalType": "uint256",
          "name": "",
          "type": "uint256"
        }
      ],
      "stateMutability": "view",
      "type": "function",
      "constant": true
    },
    {
      "inputs": [
        {
          "internalType": "address",
          "name": "spender",
          "type": "address"
        },
        {
          "internalType": "uint256",
          "name": "amount",
          "type": "uint256"
        }
      ],
      "name": "approve",
      "outputs": [
        {
          "internalType": "bool",
          "name": "",
          "type": "bool"
        }
      ],
      "stateMutability": "nonpayable",
      "type": "function"
    },
    {
      "inputs": [
        {
          "internalType": "address",
          "name": "account",
          "type": "address"
        }
      ],
      "name": "balanceOf",
      "outputs": [
        {
          "internalType": "uint256",
          "name": "",
          "type": "uint256"
        }
      ],
      "stateMutability": "view",
      "type": "function",
      "constant": true
    },
    {
      "inputs": [],
      "name": "decimals",
      "outputs": [
        {
          "internalType": "uint8",
          "name": "",
          "type": "uint8"
        }
      ],
      "stateMutability": "view",
      "type": "function",
      "constant": true
    },
    {
      "inputs": [
        {
          "internalType": "address",
          "name": "spender",
          "type": "address"
        },
        {
          "internalType": "uint256",
          "name": "subtractedValue",
          "type": "uint256"
        }
      ],
      "name": "decreaseAllowance",
      "outputs": [
        {
          "internalType": "bool",
          "name": "",
          "type": "bool"
        }
      ],
      "stateMutability": "nonpayable",
      "type": "function"
    },
    {
      "inputs": [
        {
          "internalType": "address",
          "name": "spender",
          "type": "address"
        },
        {
          "internalType": "uint256",
          "name": "addedValue",
          "type": "uint256"
        }
      ],
      "name": "increaseAllowance",
      "outputs": [
        {
          "internalType": "bool",
          "name": "",
          "type": "bool"
        }
      ],
      "stateMutability": "nonpayable",
      "type": "function"
    },
    {
      "inputs": [],
      "name": "name",
      "outputs": [
        {
          "internalType": "string",
          "name": "",
          "type": "string"
        }
      ],
      "stateMutability": "view",
      "type": "function",
      "constant": true
    },
    {
      "inputs": [],
      "name": "owner",
      "outputs": [
        {
          "internalType": "address",
          "name": "",
          "type": "address"
        }
      ],
      "stateMutability": "view",
      "type": "function",
      "constant": true
    },
    {
      "inputs": [],
      "name": "renounceOwnership",
      "outputs": [],
      "stateMutability": "nonpayable",
      "type": "function"
    },
    {
      "inputs": [],
      "name": "symbol",
      "outputs": [
        {
          "internalType": "string",
          "name": "",
          "type": "string"
        }
      ],
      "stateMutability": "view",
      "type": "function",
      "constant": true
    },
    {
      "inputs": [],
      "name": "totalSupply",
      "outputs": [
        {
          "internalType": "uint256",
          "name": "",
          "type": "uint256"
        }
      ],
      "stateMutability": "view",
      "type": "function",
      "constant": true
    },
    {
      "inputs": [
        {
          "internalType": "address",
          "name": "recipient",
          "type": "address"
        },
        {
          "internalType": "uint256",
          "name": "amount",
          "type": "uint256"
        }
      ],
      "name": "transfer",
      "outputs": [
        {
          "internalType": "bool",
          "name": "",
          "type": "bool"
        }
      ],
      "stateMutability": "nonpayable",
      "type": "function"
    },
    {
      "inputs": [
        {
          "internalType": "address",
          "name": "sender",
          "type": "address"
        },
        {
          "internalType": "address",
          "name": "recipient",
          "type": "address"
        },
        {
          "internalType": "uint256",
          "name": "amount",
          "type": "uint256"
        }
      ],
      "name": "transferFrom",
      "outputs": [
        {
          "internalType": "bool",
          "name": "",
          "type": "bool"
        }
      ],
      "stateMutability": "nonpayable",
      "type": "function"
    },
    {
      "inputs": [
        {
          "internalType": "address",
          "name": "newOwner",
          "type": "address"
        }
      ],
      "name": "transferOwnership",
      "outputs": [],
      "stateMutability": "nonpayable",
      "type": "function"
    },
    {
      "inputs": [
        {
          "internalType": "uint32",
          "name": "maxLockdays",
          "type": "uint32"
        }
      ],
      "name": "setMaxLockDays",
      "outputs": [],
      "stateMutability": "nonpayable",
      "type": "function"
    },
    {
      "inputs": [
        {
          "internalType": "uint8",
          "name": "minRegistrationConfirmations",
          "type": "uint8"
        }
      ],
      "name": "setMinRegistrationConfirmation",
      "outputs": [],
      "stateMutability": "nonpayable",
      "type": "function"
    },
    {
      "inputs": [
        {
          "internalType": "uint8",
          "name": "minWithdrawalConfirmations",
          "type": "uint8"
        }
      ],
      "name": "setMinWithdrawalConfirmation",
      "outputs": [],
      "stateMutability": "nonpayable",
      "type": "function"
    },
    {
      "inputs": [
        {
          "internalType": "address",
          "name": "oracle",
          "type": "address"
        }
      ],
      "name": "enableOracle",
      "outputs": [],
      "stateMutability": "nonpayable",
      "type": "function"
    },
    {
      "inputs": [
        {
          "internalType": "address",
          "name": "oracle",
          "type": "address"
        }
      ],
      "name": "disableOracle",
      "outputs": [],
      "stateMutability": "nonpayable",
      "type": "function"
    },
    {
      "inputs": [
        {
          "internalType": "uint8",
          "name": "issueOrPr",
          "type": "uint8"
        },
        {
          "internalType": "string",
          "name": "id",
          "type": "string"
        },
        {
          "internalType": "uint64",
          "name": "lockDays",
          "type": "uint64"
        }
      ],
      "name": "deposit",
      "outputs": [],
      "stateMutability": "payable",
      "type": "function",
      "payable": true
    },
    {
      "inputs": [
        {
          "internalType": "uint256",
          "name": "fromId",
          "type": "uint256"
        },
        {
          "internalType": "uint8",
          "name": "perpage",
          "type": "uint8"
        }
      ],
      "name": "getDeposits",
      "outputs": [
        {
          "internalType": "uint256[255]",
          "name": "ids",
          "type": "uint256[255]"
        }
      ],
      "stateMutability": "view",
      "type": "function",
      "constant": true
    },
    {
      "inputs": [
        {
          "internalType": "string",
          "name": "githubUser",
          "type": "string"
        }
      ],
      "name": "register",
      "outputs": [],
      "stateMutability": "nonpayable",
      "type": "function"
    },
    {
      "inputs": [
        {
          "internalType": "string",
          "name": "githubUser",
          "type": "string"
        },
        {
          "internalType": "address",
          "name": "account",
          "type": "address"
        }
      ],
      "name": "registerConfirm",
      "outputs": [],
      "stateMutability": "nonpayable",
      "type": "function"
    },
    {
      "inputs": [
        {
          "internalType": "string",
          "name": "githubUser",
          "type": "string"
        }
      ],
      "name": "sendEthToGithubUser",
      "outputs": [],
      "stateMutability": "payable",
      "type": "function",
      "payable": true
    },
    {
      "inputs": [
        {
          "internalType": "uint256",
          "name": "depositId",
          "type": "uint256"
        }
      ],
      "name": "refund",
      "outputs": [],
      "stateMutability": "nonpayable",
      "type": "function"
    },
    {
      "inputs": [
        {
          "internalType": "uint256",
          "name": "depositId",
          "type": "uint256"
        }
      ],
      "name": "forceRefund",
      "outputs": [],
      "stateMutability": "nonpayable",
      "type": "function"
    },
    {
      "inputs": [
        {
          "internalType": "uint256[]",
          "name": "depositIds",
          "type": "uint256[]"
        }
      ],
      "name": "refundAll",
      "outputs": [],
      "stateMutability": "nonpayable",
      "type": "function"
    },
    {
      "inputs": [
        {
          "internalType": "string",
          "name": "githubUser",
          "type": "string"
        }
      ],
      "name": "addUserToBlacklist",
      "outputs": [],
      "stateMutability": "nonpayable",
      "type": "function"
    },
    {
      "inputs": [
        {
          "internalType": "string",
          "name": "githubUser",
          "type": "string"
        }
      ],
      "name": "removeUserFromBlacklist",
      "outputs": [],
      "stateMutability": "nonpayable",
      "type": "function"
    },
    {
      "inputs": [
        {
          "internalType": "uint256",
          "name": "depositId",
          "type": "uint256"
        }
      ],
      "name": "withdraw",
      "outputs": [],
      "stateMutability": "nonpayable",
      "type": "function"
    },
    {
      "inputs": [
        {
          "internalType": "uint256",
          "name": "withdrawalId",
          "type": "uint256"
        }
      ],
      "name": "withdrawConfirm",
      "outputs": [],
      "stateMutability": "nonpayable",
      "type": "function"
    }
  ],
  "bytecode": "0x608060405260016008556001600a5560b4600e60006101000a81548163ffffffff021916908363ffffffff1602179055506001600e60046101000a81548160ff021916908360ff1602179055506001600e60056101000a81548160ff021916908360ff1602179055503480156200007557600080fd5b506040518060400160405280600b81526020017f4d6572676520546f6b656e0000000000000000000000000000000000000000008152506040518060400160405280600581526020017f4d455247450000000000000000000000000000000000000000000000000000008152508160039080519060200190620000fa92919062000282565b5080600490805190602001906200011392919062000282565b506012600560006101000a81548160ff021916908360ff16021790555050506000620001446200025060201b60201c565b905080600560016101000a81548173ffffffffffffffffffffffffffffffffffffffff021916908373ffffffffffffffffffffffffffffffffffffffff1602179055508073ffffffffffffffffffffffffffffffffffffffff16600073ffffffffffffffffffffffffffffffffffffffff167f8be0079c531659141344cd1fd0a4f28419497f9722a3daafe3b4186f6b6457e060405160405180910390a350600160066000620001f96200025860201b60201c565b73ffffffffffffffffffffffffffffffffffffffff1673ffffffffffffffffffffffffffffffffffffffff16815260200190815260200160002060006101000a81548160ff02191690831515021790555062000331565b600033905090565b6000600560019054906101000a900473ffffffffffffffffffffffffffffffffffffffff16905090565b828054600181600116156101000203166002900490600052602060002090601f016020900481019282601f10620002c557805160ff1916838001178555620002f6565b82800160010185558215620002f6579182015b82811115620002f5578251825591602001919060010190620002d8565b5b50905062000305919062000309565b5090565b6200032e91905b808211156200032a57600081600090555060010162000310565b5090565b90565b614f9c80620003416000396000f3fe6080604052600436106102045760003560e01c806370a0823111610118578063dd62ed3e116100a0578063efda0fd61161006f578063efda0fd6146107ba578063f2c298be146107d6578063f2fde38b146107ff578063f4c705ab14610828578063f6e4f1191461085157610204565b8063dd62ed3e1461070f578063df2386211461074c578063ea36a67214610775578063ed8d3b711461079157610204565b806395d89b41116100e757806395d89b41146105f0578063a457c2d71461061b578063a9059cbb14610658578063c29353c114610695578063ce85fc46146106d257610204565b806370a0823114610548578063715018a6146105855780637400e6171461059c5780638da5cb5b146105c557610204565b8063278ecde11161019b5780633b9d08d91161016a5780633b9d08d91461044c5780633c5baedf1461048e578063463b63de146104b757806353d89b01146104f65780636ee0f7f91461051f57610204565b8063278ecde1146103925780632e1a7d4d146103bb578063313ce567146103e4578063395093511461040f57610204565b806318160ddd116101d757806318160ddd146102c357806321ec4869146102ee57806323b872dd1461032c578063267922511461036957610204565b806305f8d94c1461020957806306fdde0314610232578063095ea7b31461025d57806309d406a11461029a575b600080fd5b34801561021557600080fd5b50610230600480360381019061022b9190613c3e565b61087a565b005b34801561023e57600080fd5b50610247610a79565b6040516102549190614964565b60405180910390f35b34801561026957600080fd5b50610284600480360381019061027f9190613adf565b610b1b565b6040516102919190614949565b60405180910390f35b3480156102a657600080fd5b506102c160048036038101906102bc9190613ba5565b610b39565b005b3480156102cf57600080fd5b506102d8610db7565b6040516102e59190614c86565b60405180910390f35b3480156102fa57600080fd5b5061031560048036038101906103109190613bfd565b610dc1565b604051610323929190614904565b60405180910390f35b34801561033857600080fd5b50610353600480360381019061034e9190613a90565b610e28565b6040516103609190614949565b60405180910390f35b34801561037557600080fd5b50610390600480360381019061038b9190613c3e565b610f01565b005b34801561039e57600080fd5b506103b960048036038101906103b49190613c3e565b61129a565b005b3480156103c757600080fd5b506103e260048036038101906103dd9190613c3e565b611424565b005b3480156103f057600080fd5b506103f9611758565b6040516104069190614ca1565b60405180910390f35b34801561041b57600080fd5b5061043660048036038101906104319190613adf565b61176f565b6040516104439190614949565b60405180910390f35b34801561045857600080fd5b50610473600480360381019061046e9190613c3e565b611822565b6040516104859695949392919061489c565b60405180910390f35b34801561049a57600080fd5b506104b560048036038101906104b09190613b60565b611923565b005b3480156104c357600080fd5b506104de60048036038101906104d99190613c3e565b6119ec565b6040516104ed93929190614865565b60405180910390f35b34801561050257600080fd5b5061051d60048036038101906105189190613b60565b611a43565b005b34801561052b57600080fd5b5061054660048036038101906105419190613ca3565b611b0c565b005b34801561055457600080fd5b5061056f600480360381019061056a9190613a2b565b611bc7565b60405161057c9190614c86565b60405180910390f35b34801561059157600080fd5b5061059a611c0f565b005b3480156105a857600080fd5b506105c360048036038101906105be9190613a2b565b611d67565b005b3480156105d157600080fd5b506105da611f5b565b6040516105e79190614761565b60405180910390f35b3480156105fc57600080fd5b50610605611f85565b6040516106129190614964565b60405180910390f35b34801561062757600080fd5b50610642600480360381019061063d9190613adf565b612027565b60405161064f9190614949565b60405180910390f35b34801561066457600080fd5b5061067f600480360381019061067a9190613adf565b6120f4565b60405161068c9190614949565b60405180910390f35b3480156106a157600080fd5b506106bc60048036038101906106b79190613c67565b612112565b6040516106c9919061492d565b60405180910390f35b3480156106de57600080fd5b506106f960048036038101906106f49190613a2b565b612193565b6040516107069190614964565b60405180910390f35b34801561071b57600080fd5b5061073660048036038101906107319190613a54565b612243565b6040516107439190614c86565b60405180910390f35b34801561075857600080fd5b50610773600480360381019061076e9190613ccc565b6122ca565b005b61078f600480360381019061078a9190613cf5565b61237f565b005b34801561079d57600080fd5b506107b860048036038101906107b39190613ccc565b61261a565b005b6107d460048036038101906107cf9190613b60565b6126cf565b005b3480156107e257600080fd5b506107fd60048036038101906107f89190613b60565b612946565b005b34801561080b57600080fd5b5061082660048036038101906108219190613a2b565b612b94565b005b34801561083457600080fd5b5061084f600480360381019061084a9190613a2b565b612d5b565b005b34801561085d57600080fd5b5061087860048036038101906108739190613b1b565b612e4d565b005b610882613099565b73ffffffffffffffffffffffffffffffffffffffff16600560019054906101000a900473ffffffffffffffffffffffffffffffffffffffff1673ffffffffffffffffffffffffffffffffffffffff1614610911576040517f08c379a000000000000000000000000000000000000000000000000000000000815260040161090890614ac6565b60405180910390fd5b600060076000838152602001908152602001600020600101541161096a576040517f08c379a000000000000000000000000000000000000000000000000000000000815260040161096190614b26565b60405180910390fd5b6007600082815260200190815260200160002060000160009054906101000a900473ffffffffffffffffffffffffffffffffffffffff1673ffffffffffffffffffffffffffffffffffffffff166108fc60076000848152602001908152602001600020600101549081150290604051600060405180830381858888f193505050501580156109fc573d6000803e3d6000fd5b5060076000828152602001908152602001600020600080820160006101000a81549073ffffffffffffffffffffffffffffffffffffffff021916905560018201600090556002820160006101000a81549060ff0219169055600382016000610a64919061374a565b60048201600090556005820160009055505050565b606060038054600181600116156101000203166002900480601f016020809104026020016040519081016040528092919081815260200182805460018160011615610100020316600290048015610b115780601f10610ae657610100808354040283529160200191610b11565b820191906000526020600020905b815481529060010190602001808311610af457829003601f168201915b5050505050905090565b6000610b2f610b28613099565b84846130a1565b6001905092915050565b600660003373ffffffffffffffffffffffffffffffffffffffff1673ffffffffffffffffffffffffffffffffffffffff16815260200190815260200160002060009054906101000a900460ff16610bc5576040517f08c379a0000000000000000000000000000000000000000000000000000000008152600401610bbc90614c06565b60405180910390fd5b600073ffffffffffffffffffffffffffffffffffffffff16600b8484604051610bef929190614731565b908152602001604051809103902060000160009054906101000a900473ffffffffffffffffffffffffffffffffffffffff1673ffffffffffffffffffffffffffffffffffffffff1614158015610cb357508073ffffffffffffffffffffffffffffffffffffffff16600b8484604051610c69929190614731565b908152602001604051809103902060000160009054906101000a900473ffffffffffffffffffffffffffffffffffffffff1673ffffffffffffffffffffffffffffffffffffffff16145b610cf2576040517f08c379a0000000000000000000000000000000000000000000000000000000008152600401610ce990614a06565b60405180910390fd5b600b8383604051610d04929190614731565b9081526020016040518091039020600001601481819054906101000a900460ff168092919060010191906101000a81548160ff021916908360ff160217905550507f14981f93b4dfbdeeacc0c0656b97fdb708833a3aadb4858f1e18a110d4c8fcd1818484600b8787604051610d7b929190614731565b908152602001604051809103902060000160149054906101000a900460ff16604051610daa9493929190614825565b60405180910390a1505050565b6000600254905090565b600b818051602081018201805184825260208301602085012081835280955050505050506000915090508060000160009054906101000a900473ffffffffffffffffffffffffffffffffffffffff16908060000160149054906101000a900460ff16905082565b6000610e3584848461326c565b610ef684610e41613099565b610ef185604051806060016040528060288152602001614f1a60289139600160008b73ffffffffffffffffffffffffffffffffffffffff1673ffffffffffffffffffffffffffffffffffffffff1681526020019081526020016000206000610ea7613099565b73ffffffffffffffffffffffffffffffffffffffff1673ffffffffffffffffffffffffffffffffffffffff168152602001908152602001600020546135019092919063ffffffff16565b6130a1565b600190509392505050565b600660003373ffffffffffffffffffffffffffffffffffffffff1673ffffffffffffffffffffffffffffffffffffffff16815260200190815260200160002060009054906101000a900460ff16610f8d576040517f08c379a0000000000000000000000000000000000000000000000000000000008152600401610f8490614c06565b60405180910390fd5b600073ffffffffffffffffffffffffffffffffffffffff166009600083815260200190815260200160002060000160009054906101000a900473ffffffffffffffffffffffffffffffffffffffff1673ffffffffffffffffffffffffffffffffffffffff161415611033576040517f08c379a000000000000000000000000000000000000000000000000000000000815260040161102a90614b86565b60405180910390fd5b6000600760006009600085815260200190815260200160002060010154815260200190815260200160002060010154116110a2576040517f08c379a000000000000000000000000000000000000000000000000000000000815260040161109990614b06565b60405180910390fd5b60096000828152602001908152602001600020600201600081819054906101000a900460ff168092919060010191906101000a81548160ff021916908360ff16021790555050600e60059054906101000a900460ff1660ff166009600083815260200190815260200160002060020160009054906101000a900460ff1660ff1610611297576009600082815260200190815260200160002060000160009054906101000a900473ffffffffffffffffffffffffffffffffffffffff1673ffffffffffffffffffffffffffffffffffffffff166108fc6007600060096000868152602001908152602001600020600101548152602001908152602001600020600101549081150290604051600060405180830381858888f193505050501580156111cf573d6000803e3d6000fd5b506007600060096000848152602001908152602001600020600101548152602001908152602001600020600080820160006101000a81549073ffffffffffffffffffffffffffffffffffffffff021916905560018201600090556002820160006101000a81549060ff021916905560038201600061124d919061374a565b6004820160009055600582016000905550507fe307e35f0c32a8d5a81cd7ab1fa85103d1d541d6ff073fde74ff666e5390cfb18160405161128e9190614c86565b60405180910390a15b50565b60006007600083815260200190815260200160002060010154116112f3576040517f08c379a00000000000000000000000000000000000000000000000000000000081526004016112ea90614b26565b60405180910390fd5b4260076000838152602001908152602001600020600501541061134b576040517f08c379a000000000000000000000000000000000000000000000000000000000815260040161134290614be6565b60405180910390fd5b3373ffffffffffffffffffffffffffffffffffffffff166108fc60076000848152602001908152602001600020600101549081150290604051600060405180830381858888f193505050501580156113a7573d6000803e3d6000fd5b5060076000828152602001908152602001600020600080820160006101000a81549073ffffffffffffffffffffffffffffffffffffffff021916905560018201600090556002820160006101000a81549060ff021916905560038201600061140f919061374a565b60048201600090556005820160009055505050565b600060076000838152602001908152602001600020600101541161147d576040517f08c379a000000000000000000000000000000000000000000000000000000000815260040161147490614aa6565b60405180910390fd5b6000600c60003373ffffffffffffffffffffffffffffffffffffffff1673ffffffffffffffffffffffffffffffffffffffff168152602001908152602001600020805460018160011615610100020316600290049050141580156115625750600e60049054906101000a900460ff1660ff16600b600c60003373ffffffffffffffffffffffffffffffffffffffff1673ffffffffffffffffffffffffffffffffffffffff16815260200190815260200160002060405161153d919061474a565b908152602001604051809103902060000160149054906101000a900460ff1660ff1610155b6115a1576040517f08c379a000000000000000000000000000000000000000000000000000000000815260040161159890614c26565b60405180910390fd5b600d600c60003373ffffffffffffffffffffffffffffffffffffffff1673ffffffffffffffffffffffffffffffffffffffff1681526020019081526020016000206040516115ef919061474a565b908152602001604051809103902060009054906101000a900460ff161561164b576040517f08c379a000000000000000000000000000000000000000000000000000000000815260040161164290614ba6565b60405180910390fd5b60405180606001604052803373ffffffffffffffffffffffffffffffffffffffff168152602001828152602001600060ff1681525060096000600a54815260200190815260200160002060008201518160000160006101000a81548173ffffffffffffffffffffffffffffffffffffffff021916908373ffffffffffffffffffffffffffffffffffffffff1602179055506020820151816001015560408201518160020160006101000a81548160ff021916908360ff160217905550905050600a600081548092919060010191905055507facd0d3abea58a498c09ef478e7f28149549ca4baf3c4247dee014a7ecf04ab4d338260405161174d9291906147ae565b60405180910390a150565b6000600560009054906101000a900460ff16905090565b600061181861177c613099565b84611813856001600061178d613099565b73ffffffffffffffffffffffffffffffffffffffff1673ffffffffffffffffffffffffffffffffffffffff16815260200190815260200160002060008973ffffffffffffffffffffffffffffffffffffffff1673ffffffffffffffffffffffffffffffffffffffff1681526020019081526020016000205461355c90919063ffffffff16565b6130a1565b6001905092915050565b60076020528060005260406000206000915090508060000160009054906101000a900473ffffffffffffffffffffffffffffffffffffffff16908060010154908060020160009054906101000a900460ff1690806003018054600181600116156101000203166002900480601f01602080910402602001604051908101604052809291908181526020018280546001816001161561010002031660029004801561190d5780601f106118e25761010080835404028352916020019161190d565b820191906000526020600020905b8154815290600101906020018083116118f057829003601f168201915b5050505050908060040154908060050154905086565b600660003373ffffffffffffffffffffffffffffffffffffffff1673ffffffffffffffffffffffffffffffffffffffff16815260200190815260200160002060009054906101000a900460ff166119af576040517f08c379a00000000000000000000000000000000000000000000000000000000081526004016119a690614c06565b60405180910390fd5b6000600d83836040516119c3929190614731565b908152602001604051809103902060006101000a81548160ff0219169083151502179055505050565b60096020528060005260406000206000915090508060000160009054906101000a900473ffffffffffffffffffffffffffffffffffffffff16908060010154908060020160009054906101000a900460ff16905083565b600660003373ffffffffffffffffffffffffffffffffffffffff1673ffffffffffffffffffffffffffffffffffffffff16815260200190815260200160002060009054906101000a900460ff16611acf576040517f08c379a0000000000000000000000000000000000000000000000000000000008152600401611ac690614c06565b60405180910390fd5b6001600d8383604051611ae3929190614731565b908152602001604051809103902060006101000a81548160ff0219169083151502179055505050565b611b14613099565b73ffffffffffffffffffffffffffffffffffffffff16600560019054906101000a900473ffffffffffffffffffffffffffffffffffffffff1673ffffffffffffffffffffffffffffffffffffffff1614611ba3576040517f08c379a0000000000000000000000000000000000000000000000000000000008152600401611b9a90614ac6565b60405180910390fd5b80600e60006101000a81548163ffffffff021916908363ffffffff16021790555050565b60008060008373ffffffffffffffffffffffffffffffffffffffff1673ffffffffffffffffffffffffffffffffffffffff168152602001908152602001600020549050919050565b611c17613099565b73ffffffffffffffffffffffffffffffffffffffff16600560019054906101000a900473ffffffffffffffffffffffffffffffffffffffff1673ffffffffffffffffffffffffffffffffffffffff1614611ca6576040517f08c379a0000000000000000000000000000000000000000000000000000000008152600401611c9d90614ac6565b60405180910390fd5b600073ffffffffffffffffffffffffffffffffffffffff16600560019054906101000a900473ffffffffffffffffffffffffffffffffffffffff1673ffffffffffffffffffffffffffffffffffffffff167f8be0079c531659141344cd1fd0a4f28419497f9722a3daafe3b4186f6b6457e060405160405180910390a36000600560016101000a81548173ffffffffffffffffffffffffffffffffffffffff021916908373ffffffffffffffffffffffffffffffffffffffff160217905550565b611d6f613099565b73ffffffffffffffffffffffffffffffffffffffff16600560019054906101000a900473ffffffffffffffffffffffffffffffffffffffff1673ffffffffffffffffffffffffffffffffffffffff1614611dfe576040517f08c379a0000000000000000000000000000000000000000000000000000000008152600401611df590614ac6565b60405180910390fd5b600660008273ffffffffffffffffffffffffffffffffffffffff1673ffffffffffffffffffffffffffffffffffffffff16815260200190815260200160002060009054906101000a900460ff16611e8a576040517f08c379a0000000000000000000000000000000000000000000000000000000008152600401611e8190614b66565b60405180910390fd5b611e92611f5b565b73ffffffffffffffffffffffffffffffffffffffff168173ffffffffffffffffffffffffffffffffffffffff161415611f00576040517f08c379a0000000000000000000000000000000000000000000000000000000008152600401611ef790614a46565b60405180910390fd5b6000600660008373ffffffffffffffffffffffffffffffffffffffff1673ffffffffffffffffffffffffffffffffffffffff16815260200190815260200160002060006101000a81548160ff02191690831515021790555050565b6000600560019054906101000a900473ffffffffffffffffffffffffffffffffffffffff16905090565b606060048054600181600116156101000203166002900480601f01602080910402602001604051908101604052809291908181526020018280546001816001161561010002031660029004801561201d5780601f10611ff25761010080835404028352916020019161201d565b820191906000526020600020905b81548152906001019060200180831161200057829003601f168201915b5050505050905090565b60006120ea612034613099565b846120e585604051806060016040528060258152602001614f42602591396001600061205e613099565b73ffffffffffffffffffffffffffffffffffffffff1673ffffffffffffffffffffffffffffffffffffffff16815260200190815260200160002060008a73ffffffffffffffffffffffffffffffffffffffff1673ffffffffffffffffffffffffffffffffffffffff168152602001908152602001600020546135019092919063ffffffff16565b6130a1565b6001905092915050565b6000612108612101613099565b848461326c565b6001905092915050565b61211a613792565b60008090505b8260ff168160ff161080156121355750600084115b156121895760006007600086815260200190815260200160002060010154111561217b5783828260ff1660ff811061216957fe5b60200201818152505080806001019150505b838060019003945050612120565b8191505092915050565b600c6020528060005260406000206000915090508054600181600116156101000203166002900480601f01602080910402602001604051908101604052809291908181526020018280546001816001161561010002031660029004801561223b5780601f106122105761010080835404028352916020019161223b565b820191906000526020600020905b81548152906001019060200180831161221e57829003601f168201915b505050505081565b6000600160008473ffffffffffffffffffffffffffffffffffffffff1673ffffffffffffffffffffffffffffffffffffffff16815260200190815260200160002060008373ffffffffffffffffffffffffffffffffffffffff1673ffffffffffffffffffffffffffffffffffffffff16815260200190815260200160002054905092915050565b6122d2613099565b73ffffffffffffffffffffffffffffffffffffffff16600560019054906101000a900473ffffffffffffffffffffffffffffffffffffffff1673ffffffffffffffffffffffffffffffffffffffff1614612361576040517f08c379a000000000000000000000000000000000000000000000000000000000815260040161235890614ac6565b60405180910390fd5b80600e60056101000a81548160ff021916908360ff16021790555050565b600034116123c2576040517f08c379a00000000000000000000000000000000000000000000000000000000081526004016123b990614ae6565b60405180910390fd5b600e60009054906101000a900463ffffffff1663ffffffff168167ffffffffffffffff16111561240857600e60009054906101000a900463ffffffff1663ffffffff1690505b6040518060c001604052803373ffffffffffffffffffffffffffffffffffffffff1681526020013481526020018560ff16815260200184848080601f016020809104026020016040519081016040528093929190818152602001838380828437600081840152601f19601f82011690508083019250505050505050815260200142815260200162015180830267ffffffffffffffff16420181525060076000600854815260200190815260200160002060008201518160000160006101000a81548173ffffffffffffffffffffffffffffffffffffffff021916908373ffffffffffffffffffffffffffffffffffffffff1602179055506020820151816001015560408201518160020160006101000a81548160ff021916908360ff16021790555060608201518160030190805190602001906125469291906137b5565b506080820151816004015560a082015181600501559050506008600081548092919060010191905055507f5bf198d2cf8692cce4db4475edc529d290ab7c7ab8844bae573ddedbb8d094dc33348686866040516125a79594939291906147d7565b60405180910390a160008167ffffffffffffffff16111561261457612613336002600e60009054906101000a900463ffffffff1663ffffffff16816125e857fe5b0463ffffffff168367ffffffffffffffff168161260157fe5b0467ffffffffffffffff1634026135b1565b5b50505050565b612622613099565b73ffffffffffffffffffffffffffffffffffffffff16600560019054906101000a900473ffffffffffffffffffffffffffffffffffffffff1673ffffffffffffffffffffffffffffffffffffffff16146126b1576040517f08c379a00000000000000000000000000000000000000000000000000000000081526004016126a890614ac6565b60405180910390fd5b80600e60046101000a81548160ff021916908360ff16021790555050565b60003411612712576040517f08c379a000000000000000000000000000000000000000000000000000000000815260040161270990614c46565b60405180910390fd5b600073ffffffffffffffffffffffffffffffffffffffff16600b838360405161273c929190614731565b908152602001604051809103902060000160009054906101000a900473ffffffffffffffffffffffffffffffffffffffff1673ffffffffffffffffffffffffffffffffffffffff1614156127c5576040517f08c379a00000000000000000000000000000000000000000000000000000000081526004016127bc90614a66565b60405180910390fd5b600e60049054906101000a900460ff1660ff16600b83836040516127ea929190614731565b908152602001604051809103902060000160149054906101000a900460ff1660ff16101561284d576040517f08c379a000000000000000000000000000000000000000000000000000000000815260040161284490614a86565b60405180910390fd5b600b828260405161285f929190614731565b908152602001604051809103902060000160009054906101000a900473ffffffffffffffffffffffffffffffffffffffff1673ffffffffffffffffffffffffffffffffffffffff166108fc349081150290604051600060405180830381858888f193505050501580156128d6573d6000803e3d6000fd5b5061292e600b83836040516128ec929190614731565b908152602001604051809103902060000160009054906101000a900473ffffffffffffffffffffffffffffffffffffffff166064348161292857fe5b046135b1565b612942336064348161293c57fe5b046135b1565b5050565b600073ffffffffffffffffffffffffffffffffffffffff16600b8383604051612970929190614731565b908152602001604051809103902060000160009054906101000a900473ffffffffffffffffffffffffffffffffffffffff1673ffffffffffffffffffffffffffffffffffffffff1614612a4c57600c6000600b84846040516129d3929190614731565b908152602001604051809103902060000160009054906101000a900473ffffffffffffffffffffffffffffffffffffffff1673ffffffffffffffffffffffffffffffffffffffff1673ffffffffffffffffffffffffffffffffffffffff1681526020019081526020016000206000612a4b919061374a565b5b60405180604001604052803373ffffffffffffffffffffffffffffffffffffffff168152602001600060ff16815250600b8383604051612a8d929190614731565b908152602001604051809103902060008201518160000160006101000a81548173ffffffffffffffffffffffffffffffffffffffff021916908373ffffffffffffffffffffffffffffffffffffffff16021790555060208201518160000160146101000a81548160ff021916908360ff1602179055509050508181600c60003373ffffffffffffffffffffffffffffffffffffffff1673ffffffffffffffffffffffffffffffffffffffff1681526020019081526020016000209190612b54929190613835565b507fd417e304669e6bf903f41a03f5ce981dac00416cf5034cd47d22fcb0c67c96bd338383604051612b889392919061477c565b60405180910390a15050565b612b9c613099565b73ffffffffffffffffffffffffffffffffffffffff16600560019054906101000a900473ffffffffffffffffffffffffffffffffffffffff1673ffffffffffffffffffffffffffffffffffffffff1614612c2b576040517f08c379a0000000000000000000000000000000000000000000000000000000008152600401612c2290614ac6565b60405180910390fd5b600073ffffffffffffffffffffffffffffffffffffffff168173ffffffffffffffffffffffffffffffffffffffff161415612c9b576040517f08c379a0000000000000000000000000000000000000000000000000000000008152600401612c92906149a6565b60405180910390fd5b8073ffffffffffffffffffffffffffffffffffffffff16600560019054906101000a900473ffffffffffffffffffffffffffffffffffffffff1673ffffffffffffffffffffffffffffffffffffffff167f8be0079c531659141344cd1fd0a4f28419497f9722a3daafe3b4186f6b6457e060405160405180910390a380600560016101000a81548173ffffffffffffffffffffffffffffffffffffffff021916908373ffffffffffffffffffffffffffffffffffffffff16021790555050565b612d63613099565b73ffffffffffffffffffffffffffffffffffffffff16600560019054906101000a900473ffffffffffffffffffffffffffffffffffffffff1673ffffffffffffffffffffffffffffffffffffffff1614612df2576040517f08c379a0000000000000000000000000000000000000000000000000000000008152600401612de990614ac6565b60405180910390fd5b6001600660008373ffffffffffffffffffffffffffffffffffffffff1673ffffffffffffffffffffffffffffffffffffffff16815260200190815260200160002060006101000a81548160ff02191690831515021790555050565b600080905060005b8383905081101561300957600060076000868685818110612e7257fe5b90506020020135815260200190815260200160002060010154118015612f0b57503373ffffffffffffffffffffffffffffffffffffffff1660076000868685818110612eba57fe5b90506020020135815260200190815260200160002060000160009054906101000a900473ffffffffffffffffffffffffffffffffffffffff1673ffffffffffffffffffffffffffffffffffffffff16145b8015612f3e57504260076000868685818110612f2357fe5b90506020020135815260200190815260200160002060050154105b15612ffc5760076000858584818110612f5357fe5b905060200201358152602001908152602001600020600101548201915060076000858584818110612f8057fe5b905060200201358152602001908152602001600020600080820160006101000a81549073ffffffffffffffffffffffffffffffffffffffff021916905560018201600090556002820160006101000a81549060ff0219169055600382016000612fe9919061374a565b6004820160009055600582016000905550505b8080600101915050612e55565b506000811161304d576040517f08c379a0000000000000000000000000000000000000000000000000000000008152600401613044906149e6565b60405180910390fd5b3373ffffffffffffffffffffffffffffffffffffffff166108fc829081150290604051600060405180830381858888f19350505050158015613093573d6000803e3d6000fd5b50505050565b600033905090565b600073ffffffffffffffffffffffffffffffffffffffff168373ffffffffffffffffffffffffffffffffffffffff161415613111576040517f08c379a000000000000000000000000000000000000000000000000000000000815260040161310890614bc6565b60405180910390fd5b600073ffffffffffffffffffffffffffffffffffffffff168273ffffffffffffffffffffffffffffffffffffffff161415613181576040517f08c379a0000000000000000000000000000000000000000000000000000000008152600401613178906149c6565b60405180910390fd5b80600160008573ffffffffffffffffffffffffffffffffffffffff1673ffffffffffffffffffffffffffffffffffffffff16815260200190815260200160002060008473ffffffffffffffffffffffffffffffffffffffff1673ffffffffffffffffffffffffffffffffffffffff168152602001908152602001600020819055508173ffffffffffffffffffffffffffffffffffffffff168373ffffffffffffffffffffffffffffffffffffffff167f8c5be1e5ebec7d5bd14f71427d1e84f3dd0314c0f7b2291e5b200ac8c7c3b9258360405161325f9190614c86565b60405180910390a3505050565b600073ffffffffffffffffffffffffffffffffffffffff168373ffffffffffffffffffffffffffffffffffffffff1614156132dc576040517f08c379a00000000000000000000000000000000000000000000000000000000081526004016132d390614b46565b60405180910390fd5b600073ffffffffffffffffffffffffffffffffffffffff168273ffffffffffffffffffffffffffffffffffffffff16141561334c576040517f08c379a000000000000000000000000000000000000000000000000000000000815260040161334390614986565b60405180910390fd5b613357838383613745565b6133c281604051806060016040528060268152602001614ef4602691396000808773ffffffffffffffffffffffffffffffffffffffff1673ffffffffffffffffffffffffffffffffffffffff168152602001908152602001600020546135019092919063ffffffff16565b6000808573ffffffffffffffffffffffffffffffffffffffff1673ffffffffffffffffffffffffffffffffffffffff16815260200190815260200160002081905550613455816000808573ffffffffffffffffffffffffffffffffffffffff1673ffffffffffffffffffffffffffffffffffffffff1681526020019081526020016000205461355c90919063ffffffff16565b6000808473ffffffffffffffffffffffffffffffffffffffff1673ffffffffffffffffffffffffffffffffffffffff168152602001908152602001600020819055508173ffffffffffffffffffffffffffffffffffffffff168373ffffffffffffffffffffffffffffffffffffffff167fddf252ad1be2c89b69c2b068fc378daa952ba7f163c4a11628f55a4df523b3ef836040516134f49190614c86565b60405180910390a3505050565b6000838311158290613549576040517f08c379a00000000000000000000000000000000000000000000000000000000081526004016135409190614964565b60405180910390fd5b5060008385039050809150509392505050565b6000808284019050838110156135a7576040517f08c379a000000000000000000000000000000000000000000000000000000000815260040161359e90614a26565b60405180910390fd5b8091505092915050565b600073ffffffffffffffffffffffffffffffffffffffff168273ffffffffffffffffffffffffffffffffffffffff161415613621576040517f08c379a000000000000000000000000000000000000000000000000000000000815260040161361890614c66565b60405180910390fd5b61362d60008383613745565b6136428160025461355c90919063ffffffff16565b600281905550613699816000808573ffffffffffffffffffffffffffffffffffffffff1673ffffffffffffffffffffffffffffffffffffffff1681526020019081526020016000205461355c90919063ffffffff16565b6000808473ffffffffffffffffffffffffffffffffffffffff1673ffffffffffffffffffffffffffffffffffffffff168152602001908152602001600020819055508173ffffffffffffffffffffffffffffffffffffffff16600073ffffffffffffffffffffffffffffffffffffffff167fddf252ad1be2c89b69c2b068fc378daa952ba7f163c4a11628f55a4df523b3ef836040516137399190614c86565b60405180910390a35050565b505050565b50805460018160011615610100020316600290046000825580601f10613770575061378f565b601f01602090049060005260206000209081019061378e91906138b5565b5b50565b60405180611fe0016040528060ff90602082028036833780820191505090505090565b828054600181600116156101000203166002900490600052602060002090601f016020900481019282601f106137f657805160ff1916838001178555613824565b82800160010185558215613824579182015b82811115613823578251825591602001919060010190613808565b5b50905061383191906138b5565b5090565b828054600181600116156101000203166002900490600052602060002090601f016020900481019282601f1061387657803560ff19168380011785556138a4565b828001600101855582156138a4579182015b828111156138a3578235825591602001919060010190613888565b5b5090506138b191906138b5565b5090565b6138d791905b808211156138d35760008160009055506001016138bb565b5090565b90565b6000813590506138e981614e80565b92915050565b60008083601f84011261390157600080fd5b8235905067ffffffffffffffff81111561391a57600080fd5b60208301915083602082028301111561393257600080fd5b9250929050565b60008083601f84011261394b57600080fd5b8235905067ffffffffffffffff81111561396457600080fd5b60208301915083600182028301111561397c57600080fd5b9250929050565b600082601f83011261399457600080fd5b81356139a76139a282614ce9565b614cbc565b915080825260208301602083018583830111156139c357600080fd5b6139ce838284614e2d565b50505092915050565b6000813590506139e681614e97565b92915050565b6000813590506139fb81614eae565b92915050565b600081359050613a1081614ec5565b92915050565b600081359050613a2581614edc565b92915050565b600060208284031215613a3d57600080fd5b6000613a4b848285016138da565b91505092915050565b60008060408385031215613a6757600080fd5b6000613a75858286016138da565b9250506020613a86858286016138da565b9150509250929050565b600080600060608486031215613aa557600080fd5b6000613ab3868287016138da565b9350506020613ac4868287016138da565b9250506040613ad5868287016139d7565b9150509250925092565b60008060408385031215613af257600080fd5b6000613b00858286016138da565b9250506020613b11858286016139d7565b9150509250929050565b60008060208385031215613b2e57600080fd5b600083013567ffffffffffffffff811115613b4857600080fd5b613b54858286016138ef565b92509250509250929050565b60008060208385031215613b7357600080fd5b600083013567ffffffffffffffff811115613b8d57600080fd5b613b9985828601613939565b92509250509250929050565b600080600060408486031215613bba57600080fd5b600084013567ffffffffffffffff811115613bd457600080fd5b613be086828701613939565b93509350506020613bf3868287016138da565b9150509250925092565b600060208284031215613c0f57600080fd5b600082013567ffffffffffffffff811115613c2957600080fd5b613c3584828501613983565b91505092915050565b600060208284031215613c5057600080fd5b6000613c5e848285016139d7565b91505092915050565b60008060408385031215613c7a57600080fd5b6000613c88858286016139d7565b9250506020613c9985828601613a16565b9150509250929050565b600060208284031215613cb557600080fd5b6000613cc3848285016139ec565b91505092915050565b600060208284031215613cde57600080fd5b6000613cec84828501613a16565b91505092915050565b60008060008060608587031215613d0b57600080fd5b6000613d1987828801613a16565b945050602085013567ffffffffffffffff811115613d3657600080fd5b613d4287828801613939565b93509350506040613d5587828801613a01565b91505092959194509250565b6000613d6d8383614704565b60208301905092915050565b613d8281614df7565b82525050565b613d9181614d7e565b82525050565b613da081614d34565b613daa8184614d57565b9250613db582614d15565b8060005b83811015613de6578151613dcd8782613d61565b9650613dd883614d4a565b925050600181019050613db9565b505050505050565b613df781614d90565b82525050565b6000613e098385614d62565b9350613e16838584614e2d565b613e1f83614e6f565b840190509392505050565b6000613e368385614d73565b9350613e43838584614e2d565b82840190509392505050565b6000613e5a82614d3f565b613e648185614d62565b9350613e74818560208601614e3c565b613e7d81614e6f565b840191505092915050565b600081546001811660008114613ea55760018114613eca57613f0e565b607f6002830416613eb68187614d73565b955060ff1983168652808601935050613f0e565b60028204613ed88187614d73565b9550613ee385614d1f565b60005b82811015613f0557815481890152600182019150602081019050613ee6565b82880195505050505b505092915050565b6000613f23602383614d62565b91507f45524332303a207472616e7366657220746f20746865207a65726f206164647260008301527f65737300000000000000000000000000000000000000000000000000000000006020830152604082019050919050565b6000613f89602683614d62565b91507f4f776e61626c653a206e6577206f776e657220697320746865207a65726f206160008301527f64647265737300000000000000000000000000000000000000000000000000006020830152604082019050919050565b6000613fef602283614d62565b91507f45524332303a20617070726f766520746f20746865207a65726f20616464726560008301527f73730000000000000000000000000000000000000000000000000000000000006020830152604082019050919050565b6000614055603583614d62565b91507f54686520737065636966696564206465706f7369747320646f206e6f7420657860008301527f697374206f7220617265206e6f7420796f7572732e00000000000000000000006020830152604082019050919050565b60006140bb602e83614d62565b91507f54686973206163636f756e7420636f6e6669726d6174696f6e20776173206e6560008301527f766572207265717565737465642e0000000000000000000000000000000000006020830152604082019050919050565b6000614121601b83614d62565b91507f536166654d6174683a206164646974696f6e206f766572666c6f7700000000006000830152602082019050919050565b6000614161602083614d62565b91507f4f776e6572206f7261636c652063616e206e6f742062652072656d6f7665642e6000830152602082019050919050565b60006141a1602383614d62565b91507f54686973204769744875622055736572206973206e6f7420726567697374657260008301527f65642e00000000000000000000000000000000000000000000000000000000006020830152604082019050919050565b6000614207602683614d62565b91507f54686973204769744875622055736572206973206e6f7420636f6e6669726d6560008301527f64207965742e00000000000000000000000000000000000000000000000000006020830152604082019050919050565b600061426d601783614d62565b91507f4465706f73697420646f6573206e6f742065786973742e0000000000000000006000830152602082019050919050565b60006142ad602083614d62565b91507f4f776e61626c653a2063616c6c6572206973206e6f7420746865206f776e65726000830152602082019050919050565b60006142ed600e83614d62565b91507f4e6f2065746865722073656e742e0000000000000000000000000000000000006000830152602082019050919050565b600061432d603483614d62565b91507f54686973206465706f7369742068617320616c7265616479206265656e20776960008301527f7468647261776e206f7220726566756e6465642e0000000000000000000000006020830152604082019050919050565b6000614393601183614d62565b91507f4e6f206465706f73697420666f756e642e0000000000000000000000000000006000830152602082019050919050565b60006143d3602583614d62565b91507f45524332303a207472616e736665722066726f6d20746865207a65726f20616460008301527f64726573730000000000000000000000000000000000000000000000000000006020830152604082019050919050565b6000614439601783614d62565b91507f4f7261636c6520646f6573206e6f74206578697374732e0000000000000000006000830152602082019050919050565b6000614479602283614d62565b91507f5769746864726177616c207265717565737420646f6573206e6f74206578697360008301527f742e0000000000000000000000000000000000000000000000000000000000006020830152604082019050919050565b60006144df602383614d62565b91507f5468697320476974487562206163636f756e7420697320626c61636b6c69737460008301527f65642e00000000000000000000000000000000000000000000000000000000006020830152604082019050919050565b6000614545602483614d62565b91507f45524332303a20617070726f76652066726f6d20746865207a65726f2061646460008301527f72657373000000000000000000000000000000000000000000000000000000006020830152604082019050919050565b60006145ab601283614d62565b91507f4465706f736974206973206c6f636b65642e00000000000000000000000000006000830152602082019050919050565b60006145eb602483614d62565b91507f4f6e6c79206f7261636c65732063616e20636f6e6669726d206f70657261746960008301527f6f6e732e000000000000000000000000000000000000000000000000000000006020830152604082019050919050565b6000614651601f83614d62565b91507f596f7572206163636f756e74206973206e6f7420726567697374657265642e006000830152602082019050919050565b6000614691601283614d62565b91507f596f75206d7573742073656e64204554482e00000000000000000000000000006000830152602082019050919050565b60006146d1601f83614d62565b91507f45524332303a206d696e7420746f20746865207a65726f2061646472657373006000830152602082019050919050565b61470d81614dbc565b82525050565b61471c81614dbc565b82525050565b61472b81614dea565b82525050565b600061473e828486613e2a565b91508190509392505050565b60006147568284613e88565b915081905092915050565b60006020820190506147766000830184613d88565b92915050565b60006040820190506147916000830186613d79565b81810360208301526147a4818486613dfd565b9050949350505050565b60006040820190506147c36000830185613d79565b6147d06020830184614713565b9392505050565b60006080820190506147ec6000830188613d79565b6147f96020830187614713565b6148066040830186614722565b8181036060830152614819818486613dfd565b90509695505050505050565b600060608201905061483a6000830187613d88565b818103602083015261484d818587613dfd565b905061485c6040830184614722565b95945050505050565b600060608201905061487a6000830186613d88565b6148876020830185614713565b6148946040830184614722565b949350505050565b600060c0820190506148b16000830189613d88565b6148be6020830188614713565b6148cb6040830187614722565b81810360608301526148dd8186613e4f565b90506148ec6080830185614713565b6148f960a0830184614713565b979650505050505050565b60006040820190506149196000830185613d88565b6149266020830184614722565b9392505050565b6000611fe0820190506149436000830184613d97565b92915050565b600060208201905061495e6000830184613dee565b92915050565b6000602082019050818103600083015261497e8184613e4f565b905092915050565b6000602082019050818103600083015261499f81613f16565b9050919050565b600060208201905081810360008301526149bf81613f7c565b9050919050565b600060208201905081810360008301526149df81613fe2565b9050919050565b600060208201905081810360008301526149ff81614048565b9050919050565b60006020820190508181036000830152614a1f816140ae565b9050919050565b60006020820190508181036000830152614a3f81614114565b9050919050565b60006020820190508181036000830152614a5f81614154565b9050919050565b60006020820190508181036000830152614a7f81614194565b9050919050565b60006020820190508181036000830152614a9f816141fa565b9050919050565b60006020820190508181036000830152614abf81614260565b9050919050565b60006020820190508181036000830152614adf816142a0565b9050919050565b60006020820190508181036000830152614aff816142e0565b9050919050565b60006020820190508181036000830152614b1f81614320565b9050919050565b60006020820190508181036000830152614b3f81614386565b9050919050565b60006020820190508181036000830152614b5f816143c6565b9050919050565b60006020820190508181036000830152614b7f8161442c565b9050919050565b60006020820190508181036000830152614b9f8161446c565b9050919050565b60006020820190508181036000830152614bbf816144d2565b9050919050565b60006020820190508181036000830152614bdf81614538565b9050919050565b60006020820190508181036000830152614bff8161459e565b9050919050565b60006020820190508181036000830152614c1f816145de565b9050919050565b60006020820190508181036000830152614c3f81614644565b9050919050565b60006020820190508181036000830152614c5f81614684565b9050919050565b60006020820190508181036000830152614c7f816146c4565b9050919050565b6000602082019050614c9b6000830184614713565b92915050565b6000602082019050614cb66000830184614722565b92915050565b6000604051905081810181811067ffffffffffffffff82111715614cdf57600080fd5b8060405250919050565b600067ffffffffffffffff821115614d0057600080fd5b601f19601f8301169050602081019050919050565b6000819050919050565b60008190508160005260206000209050919050565b600060ff9050919050565b600081519050919050565b6000602082019050919050565b600081905092915050565b600082825260208201905092915050565b600081905092915050565b6000614d8982614d9c565b9050919050565b60008115159050919050565b600073ffffffffffffffffffffffffffffffffffffffff82169050919050565b6000819050919050565b600063ffffffff82169050919050565b600067ffffffffffffffff82169050919050565b600060ff82169050919050565b6000614e0282614e09565b9050919050565b6000614e1482614e1b565b9050919050565b6000614e2682614d9c565b9050919050565b82818337600083830152505050565b60005b83811015614e5a578082015181840152602081019050614e3f565b83811115614e69576000848401525b50505050565b6000601f19601f8301169050919050565b614e8981614d7e565b8114614e9457600080fd5b50565b614ea081614dbc565b8114614eab57600080fd5b50565b614eb781614dc6565b8114614ec257600080fd5b50565b614ece81614dd6565b8114614ed957600080fd5b50565b614ee581614dea565b8114614ef057600080fd5b5056fe45524332303a207472616e7366657220616d6f756e7420657863656564732062616c616e636545524332303a207472616e7366657220616d6f756e74206578636565647320616c6c6f77616e636545524332303a2064656372656173656420616c6c6f77616e63652062656c6f77207a65726fa2646970667358221220d559f9b395b7a3221b7cdf11c0d65a628cf58d9661fd378710a8b61830a2c4a464736f6c63430006060033",
  "immutableReferences": {},
  "source": "// SPDX-License-Identifier: MIT\npragma solidity ^0.6.0;\npragma experimental ABIEncoderV2;\n\nimport \"@openzeppelin/contracts/token/ERC20/ERC20.sol\";\nimport \"@openzeppelin/contracts/access/Ownable.sol\";\nimport \"./MergeToken.sol\";\n\ncontract MergePay is ERC20, Ownable {\n  struct Deposit {\n    address account;\n    uint256 amount;\n    uint8 issueOrPr; // 1 = issue, 2 = pr\n    string id;\n    uint256 addedTimestamp;\n    uint256 lockedUntilTimestamp;\n  }\n\n  struct Withdrawal {\n    address account;\n    uint256 depositId;\n    uint8 confirmations;\n  }\n\n  struct User {\n    address account;\n    uint8 confirmations;\n  }\n\n  event DepositEvent(address account, uint256 amount, uint8 issueOrPr, string id);\n  event RegistrationRequestEvent(address account, string githubUser);\n  event RegistrationConfirmedEvent(address account, string githubUser, uint8 confirmations);\n  event WithdrawalRequestEvent(address account, uint256 depositId);\n  event WithdrawalConfirmedEvent(uint256 id);\n\n  mapping(address => bool) private _oracles;\n  mapping(uint256 => Deposit) public _deposits;\n  uint256 private _nextDepositId = 1;\n  mapping(uint256 => Withdrawal) public _withdrawals;\n  uint256 private _nextWithdrawalId = 1;\n  mapping(string => User) public _users;\n  mapping(address => string) public _usersByAddress;\n  mapping(string => bool) private _blacklistedGithubUsers; // Blacklisted users cannot withdraw\n\n  uint32 private _maxLockDays = 180;\n  uint8 private _minRegistrationConfirmations = 1;\n  uint8 private _minWithdrawalConfirmations = 1;\n\n  modifier onlyOracles {\n    require(_oracles[msg.sender], \"Only oracles can confirm operations.\");\n    _;\n  }\n\n  /// @dev Initiates MergeToken and set owner as oracle.\n  constructor() ERC20(\"Merge Token\", \"MERGE\") public {\n    _oracles[owner()] = true;\n  }\n\n  function setMaxLockDays(uint32 maxLockdays) external onlyOwner {\n    _maxLockDays = maxLockdays;\n  }\n\n  function setMinRegistrationConfirmation(uint8 minRegistrationConfirmations) external onlyOwner {\n    _minRegistrationConfirmations = minRegistrationConfirmations;\n  }\n\n  function setMinWithdrawalConfirmation(uint8 minWithdrawalConfirmations) external onlyOwner {\n    _minWithdrawalConfirmations = minWithdrawalConfirmations;\n  }\n\n  /// @param oracle The oracle address to add\n  function enableOracle(address oracle) external onlyOwner {\n    _oracles[oracle] = true;\n  }\n\n  /// @param oracle The oracle address to remove (cannot be owner)\n  function disableOracle(address oracle) external onlyOwner {\n    require(_oracles[oracle], \"Oracle does not exists.\");\n    require(oracle != owner(), \"Owner oracle can not be removed.\");\n    _oracles[oracle] = false;\n  }\n\n  /// @dev Deposit ETH on any pull request or issue on GitHub.\n  /// @param issueOrPr Issues = 1, Pull Requests = 2\n  /// @param id The node ID of the issue or pr\n  /// @param lockDays The number of day the deposit will be locked\n  function deposit(uint8 issueOrPr, string calldata id, uint64 lockDays) external payable {\n    require(msg.value > 0, \"No ether sent.\");\n\n    // cap lockDays\n    if (lockDays > _maxLockDays) {\n      lockDays = _maxLockDays;\n    }\n\n    _deposits[_nextDepositId] = Deposit(msg.sender, msg.value, issueOrPr, id, now, now + lockDays * 1 days);\n    _nextDepositId++;\n\n    emit DepositEvent(msg.sender, msg.value, issueOrPr, id);\n\n    if (lockDays > 0) {\n      _mint(msg.sender, msg.value * (lockDays / (_maxLockDays / 2)));\n    }\n  }\n\n  function getDeposits(uint256 fromId, uint8 perpage) external view returns(uint256[255] memory ids) {\n    uint8 index = 0;\n    while (index < perpage && fromId > 0) {\n      if (_deposits[fromId].amount > 0) {\n        ids[index] = fromId;\n        index++;\n      }\n      fromId--;\n    }\n\n    return ids;\n  }\n\n  /// @dev Verify ownership over GitHub account by checking for a repositry of\n  /// @dev githubUser named after msg.sender. Adds user as unconfirmed and sends\n  /// @dev an oracle request, that will be fullfilled in registerConfirm.\n  /// @param githubUser The GitHub username to register\n  function register(string calldata githubUser) external {\n    if (_users[githubUser].account != address(0)) {\n      delete _usersByAddress[_users[githubUser].account];\n    }\n    _users[githubUser] = User(msg.sender, 0);\n    _usersByAddress[msg.sender] = githubUser;\n\n    emit RegistrationRequestEvent(msg.sender, githubUser);\n  }\n\n  /// @dev Oracle fullfill method. Sets unconfirmed user to confirmed if repo exists.\n  /// @param githubUser The githubUser to confirm\n  /// @param account The Eth account to confirm\n  function registerConfirm(string calldata githubUser, address account) external onlyOracles {\n    require(\n      _users[githubUser].account != address(0) && _users[githubUser].account == account,\n      \"This account confirmation was never requested.\"\n    );\n    _users[githubUser].confirmations++;\n    emit RegistrationConfirmedEvent(\n      account,\n      githubUser,\n      _users[githubUser].confirmations\n    );\n  }\n\n  /// @dev Send ETH to a regis githubUser.\n  /// @param githubUser The receiving githubUser.\n  function sendEthToGithubUser(string calldata githubUser) external payable {\n    require(msg.value > 0, \"You must send ETH.\");\n    require(_users[githubUser].account != address(0), \"This GitHub User is not registered.\");\n    require(_users[githubUser].confirmations >= _minRegistrationConfirmations, \"This GitHub User is not confirmed yet.\");\n    payable(_users[githubUser].account).transfer(msg.value);\n    _mint(_users[githubUser].account, msg.value / 100);\n    _mint(msg.sender, msg.value / 100);\n  }\n\n  /// @dev Send deposit back to sender.\n  function refund(uint256 depositId) external {\n    require(_deposits[depositId].amount > 0, \"No deposit found.\");\n    require(_deposits[depositId].lockedUntilTimestamp < now, \"Deposit is locked.\");\n    payable(msg.sender).transfer(_deposits[depositId].amount);\n    delete _deposits[depositId];\n  }\n\n  /// @dev Send deposit back to sender regardless of lock.\n  function forceRefund(uint256 depositId) external onlyOwner {\n    require(_deposits[depositId].amount > 0, \"No deposit found.\");\n    payable(_deposits[depositId].account).transfer(_deposits[depositId].amount);\n    delete _deposits[depositId];\n  }\n\n  /// @dev Send all specified deposits back to sender.\n  function refundAll(uint256[] calldata depositIds) external {\n    uint256 amount = 0;\n    for (uint256 i; i < depositIds.length; i++) {\n      if (\n        _deposits[depositIds[i]].amount > 0 &&\n        _deposits[depositIds[i]].account == msg.sender &&\n        _deposits[depositIds[i]].lockedUntilTimestamp < now\n      ) {\n        amount += _deposits[depositIds[i]].amount;\n        delete _deposits[depositIds[i]];\n      }\n    }\n    require(amount > 0, \"The specified deposits do not exist or are not yours.\");\n    payable(msg.sender).transfer(amount);\n  }\n\n  function addUserToBlacklist(string calldata githubUser) external onlyOracles {\n    _blacklistedGithubUsers[githubUser] = true;\n  }\n\n  function removeUserFromBlacklist(string calldata githubUser) external onlyOracles {\n    _blacklistedGithubUsers[githubUser] = false;\n  }\n\n  /// @dev Send deposit to contributor if deposit's conditions are met.\n  function withdraw(uint256 depositId) external {\n    // requre deposit exists\n    require(_deposits[depositId].amount > 0, \"Deposit does not exist.\");\n    // require a registered githubUser for sender's eth account\n    require(\n      bytes(_usersByAddress[msg.sender]).length != 0 &&\n      _users[_usersByAddress[msg.sender]].confirmations >= _minRegistrationConfirmations,\n      \"Your account is not registered.\"\n    );\n    require(\n      !_blacklistedGithubUsers[_usersByAddress[msg.sender]],\n      \"This GitHub account is blacklisted.\"\n    );\n\n    _withdrawals[_nextWithdrawalId] = Withdrawal(msg.sender, depositId, 0);\n    _nextWithdrawalId++;\n\n    emit WithdrawalRequestEvent(msg.sender, depositId);\n  }\n\n  /// @dev Oracle fullfill method. Executes withdrawal.\n  /// @param withdrawalId The id of the Withdrawal\n  function withdrawConfirm(uint256 withdrawalId) external onlyOracles {\n    require(_withdrawals[withdrawalId].account != address(0), \"Withdrawal request does not exist.\");\n    require(_deposits[_withdrawals[withdrawalId].depositId].amount > 0, \"This deposit has already been withdrawn or refunded.\");\n    // execute transfer, set execute flag, delete deposit and emit event\n    _withdrawals[withdrawalId].confirmations++;\n    if (_withdrawals[withdrawalId].confirmations >= _minWithdrawalConfirmations) {\n      payable(_withdrawals[withdrawalId].account).transfer(_deposits[_withdrawals[withdrawalId].depositId].amount);\n      delete _deposits[_withdrawals[withdrawalId].depositId];\n      emit WithdrawalConfirmedEvent(withdrawalId);\n    }\n  }\n}\n",
  "sourcePath": "/home/mkt/Projects/mergepay-contracts/contracts/MergePay.sol",
  "compiler": {
    "name": "solc",
    "version": "0.6.6+commit.6c089d02.Emscripten.clang"
  },
  "schemaVersion": "3.2.5",
  "updatedAt": "2020-10-29T21:19:31.833Z",
  "networkType": "ethereum",
  "devdoc": {
    "methods": {
      "allowance(address,address)": {
        "details": "See {IERC20-allowance}."
      },
      "approve(address,uint256)": {
        "details": "See {IERC20-approve}.     * Requirements:     * - `spender` cannot be the zero address."
      },
      "balanceOf(address)": {
        "details": "See {IERC20-balanceOf}."
      },
      "constructor": {
        "details": "Initiates MergeToken and set owner as oracle."
      },
      "decimals()": {
        "details": "Returns the number of decimals used to get its user representation. For example, if `decimals` equals `2`, a balance of `505` tokens should be displayed to a user as `5,05` (`505 / 10 ** 2`).     * Tokens usually opt for a value of 18, imitating the relationship between Ether and Wei. This is the value {ERC20} uses, unless {_setupDecimals} is called.     * NOTE: This information is only used for _display_ purposes: it in no way affects any of the arithmetic of the contract, including {IERC20-balanceOf} and {IERC20-transfer}."
      },
      "decreaseAllowance(address,uint256)": {
        "details": "Atomically decreases the allowance granted to `spender` by the caller.     * This is an alternative to {approve} that can be used as a mitigation for problems described in {IERC20-approve}.     * Emits an {Approval} event indicating the updated allowance.     * Requirements:     * - `spender` cannot be the zero address. - `spender` must have allowance for the caller of at least `subtractedValue`."
      },
      "deposit(uint8,string,uint64)": {
        "details": "Deposit ETH on any pull request or issue on GitHub.",
        "params": {
          "id": "The node ID of the issue or pr",
          "issueOrPr": "Issues = 1, Pull Requests = 2",
          "lockDays": "The number of day the deposit will be locked"
        }
      },
      "disableOracle(address)": {
        "params": {
          "oracle": "The oracle address to remove (cannot be owner)"
        }
      },
      "enableOracle(address)": {
        "params": {
          "oracle": "The oracle address to add"
        }
      },
      "forceRefund(uint256)": {
        "details": "Send deposit back to sender regardless of lock."
      },
      "increaseAllowance(address,uint256)": {
        "details": "Atomically increases the allowance granted to `spender` by the caller.     * This is an alternative to {approve} that can be used as a mitigation for problems described in {IERC20-approve}.     * Emits an {Approval} event indicating the updated allowance.     * Requirements:     * - `spender` cannot be the zero address."
      },
      "name()": {
        "details": "Returns the name of the token."
      },
      "owner()": {
        "details": "Returns the address of the current owner."
      },
      "refund(uint256)": {
        "details": "Send deposit back to sender."
      },
      "refundAll(uint256[])": {
        "details": "Send all specified deposits back to sender."
      },
      "register(string)": {
        "details": "Verify ownership over GitHub account by checking for a repositry ofgithubUser named after msg.sender. Adds user as unconfirmed and sendsan oracle request, that will be fullfilled in registerConfirm.",
        "params": {
          "githubUser": "The GitHub username to register"
        }
      },
      "registerConfirm(string,address)": {
        "details": "Oracle fullfill method. Sets unconfirmed user to confirmed if repo exists.",
        "params": {
          "account": "The Eth account to confirm",
          "githubUser": "The githubUser to confirm"
        }
      },
      "renounceOwnership()": {
        "details": "Leaves the contract without owner. It will not be possible to call `onlyOwner` functions anymore. Can only be called by the current owner.     * NOTE: Renouncing ownership will leave the contract without an owner, thereby removing any functionality that is only available to the owner."
      },
      "sendEthToGithubUser(string)": {
        "details": "Send ETH to a regis githubUser.",
        "params": {
          "githubUser": "The receiving githubUser."
        }
      },
      "symbol()": {
        "details": "Returns the symbol of the token, usually a shorter version of the name."
      },
      "totalSupply()": {
        "details": "See {IERC20-totalSupply}."
      },
      "transfer(address,uint256)": {
        "details": "See {IERC20-transfer}.     * Requirements:     * - `recipient` cannot be the zero address. - the caller must have a balance of at least `amount`."
      },
      "transferFrom(address,address,uint256)": {
        "details": "See {IERC20-transferFrom}.     * Emits an {Approval} event indicating the updated allowance. This is not required by the EIP. See the note at the beginning of {ERC20};     * Requirements: - `sender` and `recipient` cannot be the zero address. - `sender` must have a balance of at least `amount`. - the caller must have allowance for ``sender``'s tokens of at least `amount`."
      },
      "transferOwnership(address)": {
        "details": "Transfers ownership of the contract to a new account (`newOwner`). Can only be called by the current owner."
      },
      "withdraw(uint256)": {
        "details": "Send deposit to contributor if deposit's conditions are met."
      },
      "withdrawConfirm(uint256)": {
        "details": "Oracle fullfill method. Executes withdrawal.",
        "params": {
          "withdrawalId": "The id of the Withdrawal"
        }
      }
    }
  },
  "userdoc": {
    "methods": {}
  }
}