{
  "contractName": "MergePay",
  "abi": [
    {
      "inputs": [],
      "stateMutability": "nonpayable",
      "type": "constructor"
    },
    {
      "anonymous": false,
      "inputs": [
        {
          "indexed": true,
          "internalType": "address",
          "name": "owner",
          "type": "address"
        },
        {
          "indexed": true,
          "internalType": "address",
          "name": "spender",
          "type": "address"
        },
        {
          "indexed": false,
          "internalType": "uint256",
          "name": "value",
          "type": "uint256"
        }
      ],
      "name": "Approval",
      "type": "event"
    },
    {
      "anonymous": false,
      "inputs": [
        {
          "indexed": false,
          "internalType": "string",
          "name": "prId",
          "type": "string"
        },
        {
          "indexed": false,
          "internalType": "string",
          "name": "githubUser",
          "type": "string"
        },
        {
          "indexed": false,
          "internalType": "uint256",
          "name": "score",
          "type": "uint256"
        }
      ],
      "name": "ClaimPrConfirmEvent",
      "type": "event"
    },
    {
      "anonymous": false,
      "inputs": [
        {
          "indexed": false,
          "internalType": "string",
          "name": "prId",
          "type": "string"
        },
        {
          "indexed": false,
          "internalType": "string",
          "name": "githubUser",
          "type": "string"
        }
      ],
      "name": "ClaimPrRequestEvent",
      "type": "event"
    },
    {
      "anonymous": false,
      "inputs": [
        {
          "indexed": false,
          "internalType": "address",
          "name": "account",
          "type": "address"
        },
        {
          "indexed": false,
          "internalType": "uint256",
          "name": "amount",
          "type": "uint256"
        },
        {
          "indexed": false,
          "internalType": "string",
          "name": "issueId",
          "type": "string"
        }
      ],
      "name": "IssueDepositEvent",
      "type": "event"
    },
    {
      "anonymous": false,
      "inputs": [
        {
          "indexed": true,
          "internalType": "address",
          "name": "previousOwner",
          "type": "address"
        },
        {
          "indexed": true,
          "internalType": "address",
          "name": "newOwner",
          "type": "address"
        }
      ],
      "name": "OwnershipTransferred",
      "type": "event"
    },
    {
      "anonymous": false,
      "inputs": [
        {
          "indexed": false,
          "internalType": "address",
          "name": "account",
          "type": "address"
        },
        {
          "indexed": false,
          "internalType": "string",
          "name": "githubUser",
          "type": "string"
        }
      ],
      "name": "RegistrationConfirmedEvent",
      "type": "event"
    },
    {
      "anonymous": false,
      "inputs": [
        {
          "indexed": false,
          "internalType": "address",
          "name": "account",
          "type": "address"
        },
        {
          "indexed": false,
          "internalType": "string",
          "name": "githubUser",
          "type": "string"
        }
      ],
      "name": "RegistrationRequestEvent",
      "type": "event"
    },
    {
      "anonymous": false,
      "inputs": [
        {
          "indexed": false,
          "internalType": "string",
          "name": "issueId",
          "type": "string"
        },
        {
          "indexed": false,
          "internalType": "string",
          "name": "githubUser",
          "type": "string"
        }
      ],
      "name": "ReleaseIssueDepositsConfirmEvent",
      "type": "event"
    },
    {
      "anonymous": false,
      "inputs": [
        {
          "indexed": false,
          "internalType": "string",
          "name": "issueId",
          "type": "string"
        },
        {
          "indexed": false,
          "internalType": "string",
          "name": "githubUser",
          "type": "string"
        },
        {
          "indexed": false,
          "internalType": "string",
          "name": "owner",
          "type": "string"
        }
      ],
      "name": "ReleaseIssueDepositsRequestEvent",
      "type": "event"
    },
    {
      "anonymous": false,
      "inputs": [
        {
          "indexed": true,
          "internalType": "address",
          "name": "from",
          "type": "address"
        },
        {
          "indexed": true,
          "internalType": "address",
          "name": "to",
          "type": "address"
        },
        {
          "indexed": false,
          "internalType": "uint256",
          "name": "value",
          "type": "uint256"
        }
      ],
      "name": "Transfer",
      "type": "event"
    },
    {
      "anonymous": false,
      "inputs": [
        {
          "indexed": false,
          "internalType": "address",
          "name": "account",
          "type": "address"
        },
        {
          "indexed": false,
          "internalType": "uint256",
          "name": "amount",
          "type": "uint256"
        },
        {
          "indexed": false,
          "internalType": "string",
          "name": "githubUser",
          "type": "string"
        }
      ],
      "name": "UserDepositEvent",
      "type": "event"
    },
    {
      "inputs": [
        {
          "internalType": "string",
          "name": "",
          "type": "string"
        }
      ],
      "name": "_claimedPullRequests",
      "outputs": [
        {
          "internalType": "bool",
          "name": "",
          "type": "bool"
        }
      ],
      "stateMutability": "view",
      "type": "function",
      "constant": true
    },
    {
      "inputs": [
        {
          "internalType": "string",
          "name": "",
          "type": "string"
        }
      ],
      "name": "_issueBoosts",
      "outputs": [
        {
          "internalType": "uint256",
          "name": "",
          "type": "uint256"
        }
      ],
      "stateMutability": "view",
      "type": "function",
      "constant": true
    },
    {
      "inputs": [
        {
          "internalType": "string",
          "name": "",
          "type": "string"
        },
        {
          "internalType": "uint256",
          "name": "",
          "type": "uint256"
        }
      ],
      "name": "_issueDepositIdsByIssueId",
      "outputs": [
        {
          "internalType": "uint256",
          "name": "",
          "type": "uint256"
        }
      ],
      "stateMutability": "view",
      "type": "function",
      "constant": true
    },
    {
      "inputs": [
        {
          "internalType": "address",
          "name": "",
          "type": "address"
        },
        {
          "internalType": "uint256",
          "name": "",
          "type": "uint256"
        }
      ],
      "name": "_issueDepositIdsBySender",
      "outputs": [
        {
          "internalType": "uint256",
          "name": "",
          "type": "uint256"
        }
      ],
      "stateMutability": "view",
      "type": "function",
      "constant": true
    },
    {
      "inputs": [
        {
          "internalType": "uint256",
          "name": "",
          "type": "uint256"
        }
      ],
      "name": "_issueDeposits",
      "outputs": [
        {
          "internalType": "address",
          "name": "from",
          "type": "address"
        },
        {
          "internalType": "uint256",
          "name": "amount",
          "type": "uint256"
        },
        {
          "internalType": "string",
          "name": "issueId",
          "type": "string"
        }
      ],
      "stateMutability": "view",
      "type": "function",
      "constant": true
    },
    {
      "inputs": [],
      "name": "_nextIssueDepositId",
      "outputs": [
        {
          "internalType": "uint256",
          "name": "",
          "type": "uint256"
        }
      ],
      "stateMutability": "view",
      "type": "function",
      "constant": true
    },
    {
      "inputs": [
        {
          "internalType": "string",
          "name": "",
          "type": "string"
        }
      ],
      "name": "_releasedIssues",
      "outputs": [
        {
          "internalType": "string",
          "name": "",
          "type": "string"
        }
      ],
      "stateMutability": "view",
      "type": "function",
      "constant": true
    },
    {
      "inputs": [
        {
          "internalType": "string",
          "name": "",
          "type": "string"
        },
        {
          "internalType": "uint256",
          "name": "",
          "type": "uint256"
        }
      ],
      "name": "_userDepositIdsByGithubUser",
      "outputs": [
        {
          "internalType": "uint256",
          "name": "",
          "type": "uint256"
        }
      ],
      "stateMutability": "view",
      "type": "function",
      "constant": true
    },
    {
      "inputs": [
        {
          "internalType": "address",
          "name": "",
          "type": "address"
        },
        {
          "internalType": "uint256",
          "name": "",
          "type": "uint256"
        }
      ],
      "name": "_userDepositIdsBySender",
      "outputs": [
        {
          "internalType": "uint256",
          "name": "",
          "type": "uint256"
        }
      ],
      "stateMutability": "view",
      "type": "function",
      "constant": true
    },
    {
      "inputs": [
        {
          "internalType": "uint256",
          "name": "",
          "type": "uint256"
        }
      ],
      "name": "_userDeposits",
      "outputs": [
        {
          "internalType": "address",
          "name": "from",
          "type": "address"
        },
        {
          "internalType": "uint256",
          "name": "amount",
          "type": "uint256"
        },
        {
          "internalType": "string",
          "name": "githubUser",
          "type": "string"
        }
      ],
      "stateMutability": "view",
      "type": "function",
      "constant": true
    },
    {
      "inputs": [
        {
          "internalType": "string",
          "name": "",
          "type": "string"
        }
      ],
      "name": "_users",
      "outputs": [
        {
          "internalType": "address",
          "name": "account",
          "type": "address"
        },
        {
          "internalType": "bool",
          "name": "confirmed",
          "type": "bool"
        }
      ],
      "stateMutability": "view",
      "type": "function",
      "constant": true
    },
    {
      "inputs": [
        {
          "internalType": "address",
          "name": "",
          "type": "address"
        }
      ],
      "name": "_usersByAddress",
      "outputs": [
        {
          "internalType": "string",
          "name": "",
          "type": "string"
        }
      ],
      "stateMutability": "view",
      "type": "function",
      "constant": true
    },
    {
      "inputs": [
        {
          "internalType": "address",
          "name": "owner",
          "type": "address"
        },
        {
          "internalType": "address",
          "name": "spender",
          "type": "address"
        }
      ],
      "name": "allowance",
      "outputs": [
        {
          "internalType": "uint256",
          "name": "",
          "type": "uint256"
        }
      ],
      "stateMutability": "view",
      "type": "function",
      "constant": true
    },
    {
      "inputs": [
        {
          "internalType": "address",
          "name": "spender",
          "type": "address"
        },
        {
          "internalType": "uint256",
          "name": "amount",
          "type": "uint256"
        }
      ],
      "name": "approve",
      "outputs": [
        {
          "internalType": "bool",
          "name": "",
          "type": "bool"
        }
      ],
      "stateMutability": "nonpayable",
      "type": "function"
    },
    {
      "inputs": [
        {
          "internalType": "address",
          "name": "account",
          "type": "address"
        }
      ],
      "name": "balanceOf",
      "outputs": [
        {
          "internalType": "uint256",
          "name": "",
          "type": "uint256"
        }
      ],
      "stateMutability": "view",
      "type": "function",
      "constant": true
    },
    {
      "inputs": [],
      "name": "decimals",
      "outputs": [
        {
          "internalType": "uint8",
          "name": "",
          "type": "uint8"
        }
      ],
      "stateMutability": "view",
      "type": "function",
      "constant": true
    },
    {
      "inputs": [
        {
          "internalType": "address",
          "name": "spender",
          "type": "address"
        },
        {
          "internalType": "uint256",
          "name": "subtractedValue",
          "type": "uint256"
        }
      ],
      "name": "decreaseAllowance",
      "outputs": [
        {
          "internalType": "bool",
          "name": "",
          "type": "bool"
        }
      ],
      "stateMutability": "nonpayable",
      "type": "function"
    },
    {
      "inputs": [
        {
          "internalType": "address",
          "name": "spender",
          "type": "address"
        },
        {
          "internalType": "uint256",
          "name": "addedValue",
          "type": "uint256"
        }
      ],
      "name": "increaseAllowance",
      "outputs": [
        {
          "internalType": "bool",
          "name": "",
          "type": "bool"
        }
      ],
      "stateMutability": "nonpayable",
      "type": "function"
    },
    {
      "inputs": [],
      "name": "name",
      "outputs": [
        {
          "internalType": "string",
          "name": "",
          "type": "string"
        }
      ],
      "stateMutability": "view",
      "type": "function",
      "constant": true
    },
    {
      "inputs": [],
      "name": "owner",
      "outputs": [
        {
          "internalType": "address",
          "name": "",
          "type": "address"
        }
      ],
      "stateMutability": "view",
      "type": "function",
      "constant": true
    },
    {
      "inputs": [],
      "name": "renounceOwnership",
      "outputs": [],
      "stateMutability": "nonpayable",
      "type": "function"
    },
    {
      "inputs": [],
      "name": "symbol",
      "outputs": [
        {
          "internalType": "string",
          "name": "",
          "type": "string"
        }
      ],
      "stateMutability": "view",
      "type": "function",
      "constant": true
    },
    {
      "inputs": [],
      "name": "totalSupply",
      "outputs": [
        {
          "internalType": "uint256",
          "name": "",
          "type": "uint256"
        }
      ],
      "stateMutability": "view",
      "type": "function",
      "constant": true
    },
    {
      "inputs": [
        {
          "internalType": "address",
          "name": "recipient",
          "type": "address"
        },
        {
          "internalType": "uint256",
          "name": "amount",
          "type": "uint256"
        }
      ],
      "name": "transfer",
      "outputs": [
        {
          "internalType": "bool",
          "name": "",
          "type": "bool"
        }
      ],
      "stateMutability": "nonpayable",
      "type": "function"
    },
    {
      "inputs": [
        {
          "internalType": "address",
          "name": "sender",
          "type": "address"
        },
        {
          "internalType": "address",
          "name": "recipient",
          "type": "address"
        },
        {
          "internalType": "uint256",
          "name": "amount",
          "type": "uint256"
        }
      ],
      "name": "transferFrom",
      "outputs": [
        {
          "internalType": "bool",
          "name": "",
          "type": "bool"
        }
      ],
      "stateMutability": "nonpayable",
      "type": "function"
    },
    {
      "inputs": [
        {
          "internalType": "address",
          "name": "newOwner",
          "type": "address"
        }
      ],
      "name": "transferOwnership",
      "outputs": [],
      "stateMutability": "nonpayable",
      "type": "function"
    },
    {
      "inputs": [
        {
          "internalType": "address",
          "name": "oracle",
          "type": "address"
        }
      ],
      "name": "enableOracle",
      "outputs": [],
      "stateMutability": "nonpayable",
      "type": "function"
    },
    {
      "inputs": [
        {
          "internalType": "address",
          "name": "oracle",
          "type": "address"
        }
      ],
      "name": "disableOracle",
      "outputs": [],
      "stateMutability": "nonpayable",
      "type": "function"
    },
    {
      "inputs": [
        {
          "internalType": "string",
          "name": "githubUser",
          "type": "string"
        }
      ],
      "name": "register",
      "outputs": [],
      "stateMutability": "payable",
      "type": "function",
      "payable": true
    },
    {
      "inputs": [
        {
          "internalType": "string",
          "name": "githubUser",
          "type": "string"
        },
        {
          "internalType": "address",
          "name": "account",
          "type": "address"
        }
      ],
      "name": "registerConfirm",
      "outputs": [],
      "stateMutability": "nonpayable",
      "type": "function"
    },
    {
      "inputs": [
        {
          "internalType": "string",
          "name": "githubUser",
          "type": "string"
        }
      ],
      "name": "sendEthToGithubUser",
      "outputs": [],
      "stateMutability": "payable",
      "type": "function",
      "payable": true
    },
    {
      "inputs": [
        {
          "internalType": "string",
          "name": "githubUser",
          "type": "string"
        }
      ],
      "name": "depositEthForGithubUser",
      "outputs": [],
      "stateMutability": "payable",
      "type": "function",
      "payable": true
    },
    {
      "inputs": [
        {
          "internalType": "uint256",
          "name": "depositId",
          "type": "uint256"
        }
      ],
      "name": "withdrawUserDeposit",
      "outputs": [],
      "stateMutability": "nonpayable",
      "type": "function"
    },
    {
      "inputs": [
        {
          "internalType": "uint256",
          "name": "depositId",
          "type": "uint256"
        }
      ],
      "name": "refundUserDeposit",
      "outputs": [],
      "stateMutability": "nonpayable",
      "type": "function"
    },
    {
      "inputs": [
        {
          "internalType": "string",
          "name": "githubUser",
          "type": "string"
        }
      ],
      "name": "getUserDepositIdsForGithubUser",
      "outputs": [
        {
          "internalType": "uint256[]",
          "name": "",
          "type": "uint256[]"
        }
      ],
      "stateMutability": "view",
      "type": "function",
      "constant": true
    },
    {
      "inputs": [],
      "name": "getUserDepositIdsForSender",
      "outputs": [
        {
          "internalType": "uint256[]",
          "name": "",
          "type": "uint256[]"
        }
      ],
      "stateMutability": "view",
      "type": "function",
      "constant": true
    },
    {
      "inputs": [
        {
          "internalType": "string",
          "name": "issueId",
          "type": "string"
        }
      ],
      "name": "depositEthForIssue",
      "outputs": [],
      "stateMutability": "payable",
      "type": "function",
      "payable": true
    },
    {
      "inputs": [
        {
          "internalType": "uint256",
          "name": "depositId",
          "type": "uint256"
        }
      ],
      "name": "refundIssueDeposit",
      "outputs": [],
      "stateMutability": "nonpayable",
      "type": "function"
    },
    {
      "inputs": [
        {
          "internalType": "string",
          "name": "issueId",
          "type": "string"
        }
      ],
      "name": "getIssueDepositIdsForIssueId",
      "outputs": [
        {
          "internalType": "uint256[]",
          "name": "",
          "type": "uint256[]"
        }
      ],
      "stateMutability": "view",
      "type": "function",
      "constant": true
    },
    {
      "inputs": [],
      "name": "getIssueDepositIdsForSender",
      "outputs": [
        {
          "internalType": "uint256[]",
          "name": "",
          "type": "uint256[]"
        }
      ],
      "stateMutability": "view",
      "type": "function",
      "constant": true
    },
    {
      "inputs": [
        {
          "internalType": "string",
          "name": "issueId",
          "type": "string"
        },
        {
          "internalType": "uint256",
          "name": "amount",
          "type": "uint256"
        }
      ],
      "name": "pinIssue",
      "outputs": [],
      "stateMutability": "nonpayable",
      "type": "function"
    },
    {
      "inputs": [
        {
          "internalType": "string",
          "name": "prId",
          "type": "string"
        },
        {
          "internalType": "string",
          "name": "githubUser",
          "type": "string"
        }
      ],
      "name": "claimPullRequest",
      "outputs": [],
      "stateMutability": "payable",
      "type": "function",
      "payable": true
    },
    {
      "inputs": [
        {
          "internalType": "string",
          "name": "prId",
          "type": "string"
        },
        {
          "internalType": "string",
          "name": "githubUser",
          "type": "string"
        },
        {
          "internalType": "uint256",
          "name": "score",
          "type": "uint256"
        }
      ],
      "name": "confirmClaimPullRequest",
      "outputs": [],
      "stateMutability": "nonpayable",
      "type": "function"
    },
    {
      "inputs": [
        {
          "internalType": "string",
          "name": "issueId",
          "type": "string"
        },
        {
          "internalType": "string",
          "name": "githubUser",
          "type": "string"
        }
      ],
      "name": "releaseIssueDeposits",
      "outputs": [],
      "stateMutability": "payable",
      "type": "function",
      "payable": true
    },
    {
      "inputs": [
        {
          "internalType": "string",
          "name": "issueId",
          "type": "string"
        },
        {
          "internalType": "string",
          "name": "githubUser",
          "type": "string"
        }
      ],
      "name": "confirmReleaseIssueDeposits",
      "outputs": [],
      "stateMutability": "nonpayable",
      "type": "function"
    },
    {
      "inputs": [
        {
          "internalType": "string",
          "name": "issueId",
          "type": "string"
        }
      ],
      "name": "claimReleasedIssueDeposits",
      "outputs": [],
      "stateMutability": "nonpayable",
      "type": "function"
    }
  ],
  "bytecode": "0x60806040526000600a556000600e553480156200001b57600080fd5b506040518060400160405280600781526020017f4f63746f50696e000000000000000000000000000000000000000000000000008152506040518060400160405280600481526020017f4f50494e000000000000000000000000000000000000000000000000000000008152508160039080519060200190620000a092919062000228565b508060049080519060200190620000b992919062000228565b506012600560006101000a81548160ff021916908360ff16021790555050506000620000ea620001f660201b60201c565b905080600560016101000a81548173ffffffffffffffffffffffffffffffffffffffff021916908373ffffffffffffffffffffffffffffffffffffffff1602179055508073ffffffffffffffffffffffffffffffffffffffff16600073ffffffffffffffffffffffffffffffffffffffff167f8be0079c531659141344cd1fd0a4f28419497f9722a3daafe3b4186f6b6457e060405160405180910390a3506001600660006200019f620001fe60201b60201c565b73ffffffffffffffffffffffffffffffffffffffff1673ffffffffffffffffffffffffffffffffffffffff16815260200190815260200160002060006101000a81548160ff021916908315150217905550620002d7565b600033905090565b6000600560019054906101000a900473ffffffffffffffffffffffffffffffffffffffff16905090565b828054600181600116156101000203166002900490600052602060002090601f016020900481019282601f106200026b57805160ff19168380011785556200029c565b828001600101855582156200029c579182015b828111156200029b5782518255916020019190600101906200027e565b5b509050620002ab9190620002af565b5090565b620002d491905b80821115620002d0576000816000905550600101620002b6565b5090565b90565b615e6680620002e76000396000f3fe60806040526004361061027d5760003560e01c80637400e6171161014f578063c315fbca116100c1578063efda0fd61161007a578063efda0fd614610a54578063f2c298be14610a70578063f2fde38b14610a8c578063f4b90ef714610ab5578063f4c705ab14610ad1578063fb95354a14610afa5761027d565b8063c315fbca1461090e578063c695389d14610937578063cb99390f14610974578063ce85fc46146109b1578063d5d85fa6146109ee578063dd62ed3e14610a175761027d565b806395d89b411161011357806395d89b41146107fb5780639947918c146108265780639996f1861461084f578063a457c2d71461086b578063a9059cbb146108a8578063b52acaab146108e55761027d565b80637400e6171461071857806384f8f644146107415780638617fc461461076a5780638da5cb5b14610793578063957e7eb9146107be5761027d565b806340739515116101f357806360445fb2116101ac57806360445fb2146105e25780636077321a1461060b57806370388bf91461064a57806370a0823114610687578063715018a6146106c4578063716f9d24146106db5761027d565b806340739515146104b9578063454d0554146104e457806350aea5591461050f57806353a61ff91461054c57806356bf7cce146105895780635d3dd29d146105a55761027d565b806318160ddd1161024557806318160ddd1461036e57806321ec48691461039957806323b872dd146103d7578063313ce56714610414578063344ae0771461043f578063395093511461047c5761027d565b806306fdde0314610282578063095b51a7146102ad578063095ea7b3146102c957806309d406a1146103065780630cb517471461032f575b600080fd5b34801561028e57600080fd5b50610297610b25565b6040516102a491906157e9565b60405180910390f35b6102c760048036038101906102c291906146a9565b610bc7565b005b3480156102d557600080fd5b506102f060048036038101906102eb91906145d0565b610dc6565b6040516102fd91906156fa565b60405180910390f35b34801561031257600080fd5b5061032d60048036038101906103289190614651565b610de4565b005b34801561033b57600080fd5b506103566004803603810190610351919061483c565b611019565b6040516103659392919061569a565b60405180910390f35b34801561037a57600080fd5b506103836110fb565b6040516103909190615b6b565b60405180910390f35b3480156103a557600080fd5b506103c060048036038101906103bb91906147a7565b611105565b6040516103ce92919061563f565b60405180910390f35b3480156103e357600080fd5b506103fe60048036038101906103f99190614581565b61116c565b60405161040b91906156fa565b60405180910390f35b34801561042057600080fd5b50610429611245565b6040516104369190615b86565b60405180910390f35b34801561044b57600080fd5b50610466600480360381019061046191906147e8565b61125c565b6040516104739190615b6b565b60405180910390f35b34801561048857600080fd5b506104a3600480360381019061049e91906145d0565b6112a0565b6040516104b091906156fa565b60405180910390f35b3480156104c557600080fd5b506104ce611353565b6040516104db9190615b6b565b60405180910390f35b3480156104f057600080fd5b506104f9611359565b60405161050691906156d8565b60405180910390f35b34801561051b57600080fd5b506105366004803603810190610531919061460c565b6113ee565b60405161054391906156d8565b60405180910390f35b34801561055857600080fd5b50610573600480360381019061056e919061460c565b611467565b60405161058091906156d8565b60405180910390f35b6105a3600480360381019061059e91906146a9565b6114e0565b005b3480156105b157600080fd5b506105cc60048036038101906105c791906147e8565b61174a565b6040516105d99190615b6b565b60405180910390f35b3480156105ee57600080fd5b506106096004803603810190610604919061483c565b61178e565b005b34801561061757600080fd5b50610632600480360381019061062d919061483c565b6118e7565b6040516106419392919061569a565b60405180910390f35b34801561065657600080fd5b50610671600480360381019061066c91906147a7565b6119c9565b60405161067e9190615b6b565b60405180910390f35b34801561069357600080fd5b506106ae60048036038101906106a9919061451c565b6119f7565b6040516106bb9190615b6b565b60405180910390f35b3480156106d057600080fd5b506106d9611a3f565b005b3480156106e757600080fd5b5061070260048036038101906106fd91906145d0565b611b97565b60405161070f9190615b6b565b60405180910390f35b34801561072457600080fd5b5061073f600480360381019061073a919061451c565b611bc5565b005b34801561074d57600080fd5b50610768600480360381019061076391906147e8565b611db9565b005b34801561077657600080fd5b50610791600480360381019061078c919061483c565b611e36565b005b34801561079f57600080fd5b506107a8611f8f565b6040516107b591906155b2565b60405180910390f35b3480156107ca57600080fd5b506107e560048036038101906107e091906147a7565b611fb9565b6040516107f291906157e9565b60405180910390f35b34801561080757600080fd5b5061081061207f565b60405161081d91906157e9565b60405180910390f35b34801561083257600080fd5b5061084d6004803603810190610848919061460c565b612121565b005b6108696004803603810190610864919061460c565b6124b7565b005b34801561087757600080fd5b50610892600480360381019061088d91906145d0565b6126f9565b60405161089f91906156fa565b60405180910390f35b3480156108b457600080fd5b506108cf60048036038101906108ca91906145d0565b6127c6565b6040516108dc91906156fa565b60405180910390f35b3480156108f157600080fd5b5061090c6004803603810190610907919061471e565b6127e4565b005b34801561091a57600080fd5b506109356004803603810190610930919061483c565b612a72565b005b34801561094357600080fd5b5061095e600480360381019061095991906145d0565b612cd3565b60405161096b9190615b6b565b60405180910390f35b34801561098057600080fd5b5061099b600480360381019061099691906147a7565b612d01565b6040516109a891906156fa565b60405180910390f35b3480156109bd57600080fd5b506109d860048036038101906109d3919061451c565b612d37565b6040516109e591906157e9565b60405180910390f35b3480156109fa57600080fd5b50610a156004803603810190610a1091906146a9565b612de7565b005b348015610a2357600080fd5b50610a3e6004803603810190610a399190614545565b612f4c565b604051610a4b9190615b6b565b60405180910390f35b610a6e6004803603810190610a69919061460c565b612fd3565b005b610a8a6004803603810190610a85919061460c565b6131ce565b005b348015610a9857600080fd5b50610ab36004803603810190610aae919061451c565b6134ae565b005b610acf6004803603810190610aca919061460c565b613675565b005b348015610add57600080fd5b50610af86004803603810190610af3919061451c565b6138b7565b005b348015610b0657600080fd5b50610b0f6139a9565b604051610b1c91906156d8565b60405180910390f35b606060038054600181600116156101000203166002900480601f016020809104026020016040519081016040528092919081815260200182805460018160011615610100020316600290048015610bbd5780601f10610b9257610100808354040283529160200191610bbd565b820191906000526020600020905b815481529060010190602001808311610ba057829003601f168201915b5050505050905090565b3a620109a0023411610c0e576040517f08c379a0000000000000000000000000000000000000000000000000000000008152600401610c0590615aab565b60405180910390fd5b6000151560138585604051610c2492919061556b565b908152602001604051809103902060009054906101000a900460ff16151514610c82576040517f08c379a0000000000000000000000000000000000000000000000000000000008152600401610c799061584b565b60405180910390fd5b600073ffffffffffffffffffffffffffffffffffffffff1660078383604051610cac92919061556b565b908152602001604051809103902060000160009054906101000a900473ffffffffffffffffffffffffffffffffffffffff1673ffffffffffffffffffffffffffffffffffffffff161415610d35576040517f08c379a0000000000000000000000000000000000000000000000000000000008152600401610d2c9061594b565b60405180910390fd5b610d3d611f8f565b73ffffffffffffffffffffffffffffffffffffffff166108fc349081150290604051600060405180830381858888f19350505050158015610d82573d6000803e3d6000fd5b507f61f61b56d5bcc4600c378fe030b373305197bedb3f0060ea99d03860a33c474b84848484604051610db89493929190615715565b60405180910390a150505050565b6000610dda610dd3613a3e565b8484613a46565b6001905092915050565b600660003373ffffffffffffffffffffffffffffffffffffffff1673ffffffffffffffffffffffffffffffffffffffff16815260200190815260200160002060009054906101000a900460ff16610e70576040517f08c379a0000000000000000000000000000000000000000000000000000000008152600401610e6790615acb565b60405180910390fd5b600073ffffffffffffffffffffffffffffffffffffffff1660078484604051610e9a92919061556b565b908152602001604051809103902060000160009054906101000a900473ffffffffffffffffffffffffffffffffffffffff1673ffffffffffffffffffffffffffffffffffffffff1614158015610f5e57508073ffffffffffffffffffffffffffffffffffffffff1660078484604051610f1492919061556b565b908152602001604051809103902060000160009054906101000a900473ffffffffffffffffffffffffffffffffffffffff1673ffffffffffffffffffffffffffffffffffffffff16145b610f9d576040517f08c379a0000000000000000000000000000000000000000000000000000000008152600401610f94906158cb565b60405180910390fd5b600160078484604051610fb192919061556b565b908152602001604051809103902060000160146101000a81548160ff0219169083151502179055507f55e4fcf1c7b4b1a6190089eb7ef1c1ff91d67d66917edf141d6223003929828a81848460405161100c93929190615668565b60405180910390a1505050565b60096020528060005260406000206000915090508060000160009054906101000a900473ffffffffffffffffffffffffffffffffffffffff1690806001015490806002018054600181600116156101000203166002900480601f0160208091040260200160405190810160405280929190818152602001828054600181600116156101000203166002900480156110f15780601f106110c6576101008083540402835291602001916110f1565b820191906000526020600020905b8154815290600101906020018083116110d457829003601f168201915b5050505050905083565b6000600254905090565b6007818051602081018201805184825260208301602085012081835280955050505050506000915090508060000160009054906101000a900473ffffffffffffffffffffffffffffffffffffffff16908060000160149054906101000a900460ff16905082565b6000611179848484613c11565b61123a84611185613a3e565b61123585604051806060016040528060288152602001615de460289139600160008b73ffffffffffffffffffffffffffffffffffffffff1673ffffffffffffffffffffffffffffffffffffffff16815260200190815260200160002060006111eb613a3e565b73ffffffffffffffffffffffffffffffffffffffff1673ffffffffffffffffffffffffffffffffffffffff16815260200190815260200160002054613ea69092919063ffffffff16565b613a46565b600190509392505050565b6000600560009054906101000a900460ff16905090565b600f82805160208101820180518482526020830160208501208183528095505050505050818154811061128b57fe5b90600052602060002001600091509150505481565b60006113496112ad613a3e565b8461134485600160006112be613a3e565b73ffffffffffffffffffffffffffffffffffffffff1673ffffffffffffffffffffffffffffffffffffffff16815260200190815260200160002060008973ffffffffffffffffffffffffffffffffffffffff1673ffffffffffffffffffffffffffffffffffffffff16815260200190815260200160002054613f0190919063ffffffff16565b613a46565b6001905092915050565b600e5481565b6060600c60003373ffffffffffffffffffffffffffffffffffffffff1673ffffffffffffffffffffffffffffffffffffffff1681526020019081526020016000208054806020026020016040519081016040528092919081815260200182805480156113e457602002820191906000526020600020905b8154815260200190600101908083116113d0575b5050505050905090565b6060600f838360405161140292919061556b565b908152602001604051809103902080548060200260200160405190810160405280929190818152602001828054801561145a57602002820191906000526020600020905b815481526020019060010190808311611446575b5050505050905092915050565b6060600b838360405161147b92919061556b565b90815260200160405180910390208054806020026020016040519081016040528092919081815260200182805480156114d357602002820191906000526020600020905b8154815260200190600101908083116114bf575b5050505050905092915050565b3a61c350023411611526576040517f08c379a000000000000000000000000000000000000000000000000000000000815260040161151d9061596b565b60405180910390fd5b6000600f858560405161153a92919061556b565b9081526020016040518091039020805490501161158c576040517f08c379a00000000000000000000000000000000000000000000000000000000081526004016115839061580b565b60405180910390fd5b3373ffffffffffffffffffffffffffffffffffffffff166007600860003373ffffffffffffffffffffffffffffffffffffffff1673ffffffffffffffffffffffffffffffffffffffff1681526020019081526020016000206040516115f1919061559b565b908152602001604051809103902060000160009054906101000a900473ffffffffffffffffffffffffffffffffffffffff1673ffffffffffffffffffffffffffffffffffffffff1614611679576040517f08c379a000000000000000000000000000000000000000000000000000000000815260040161167090615a6b565b60405180910390fd5b611681611f8f565b73ffffffffffffffffffffffffffffffffffffffff166108fc349081150290604051600060405180830381858888f193505050501580156116c6573d6000803e3d6000fd5b507f657f014b97a2f4ed4787ac7ecba9f7abd8d4f3b110e461c700ab411f968cfe0784848484600860003373ffffffffffffffffffffffffffffffffffffffff1673ffffffffffffffffffffffffffffffffffffffff16815260200190815260200160002060405161173c959493929190615750565b60405180910390a150505050565b600b82805160208101820180518482526020830160208501208183528095505050505050818154811061177957fe5b90600052602060002001600091509150505481565b3373ffffffffffffffffffffffffffffffffffffffff166009600083815260200190815260200160002060000160009054906101000a900473ffffffffffffffffffffffffffffffffffffffff1673ffffffffffffffffffffffffffffffffffffffff1614611832576040517f08c379a00000000000000000000000000000000000000000000000000000000081526004016118299061590b565b60405180910390fd5b3373ffffffffffffffffffffffffffffffffffffffff166108fc60096000848152602001908152602001600020600101549081150290604051600060405180830381858888f1935050505015801561188e573d6000803e3d6000fd5b5060096000828152602001908152602001600020600080820160006101000a81549073ffffffffffffffffffffffffffffffffffffffff021916905560018201600090556002820160006118e291906142e7565b505050565b600d6020528060005260406000206000915090508060000160009054906101000a900473ffffffffffffffffffffffffffffffffffffffff1690806001015490806002018054600181600116156101000203166002900480601f0160208091040260200160405190810160405280929190818152602001828054600181600116156101000203166002900480156119bf5780601f10611994576101008083540402835291602001916119bf565b820191906000526020600020905b8154815290600101906020018083116119a257829003601f168201915b5050505050905083565b6012818051602081018201805184825260208301602085012081835280955050505050506000915090505481565b60008060008373ffffffffffffffffffffffffffffffffffffffff1673ffffffffffffffffffffffffffffffffffffffff168152602001908152602001600020549050919050565b611a47613a3e565b73ffffffffffffffffffffffffffffffffffffffff16600560019054906101000a900473ffffffffffffffffffffffffffffffffffffffff1673ffffffffffffffffffffffffffffffffffffffff1614611ad6576040517f08c379a0000000000000000000000000000000000000000000000000000000008152600401611acd906159eb565b60405180910390fd5b600073ffffffffffffffffffffffffffffffffffffffff16600560019054906101000a900473ffffffffffffffffffffffffffffffffffffffff1673ffffffffffffffffffffffffffffffffffffffff167f8be0079c531659141344cd1fd0a4f28419497f9722a3daafe3b4186f6b6457e060405160405180910390a36000600560016101000a81548173ffffffffffffffffffffffffffffffffffffffff021916908373ffffffffffffffffffffffffffffffffffffffff160217905550565b60106020528160005260406000208181548110611bb057fe5b90600052602060002001600091509150505481565b611bcd613a3e565b73ffffffffffffffffffffffffffffffffffffffff16600560019054906101000a900473ffffffffffffffffffffffffffffffffffffffff1673ffffffffffffffffffffffffffffffffffffffff1614611c5c576040517f08c379a0000000000000000000000000000000000000000000000000000000008152600401611c53906159eb565b60405180910390fd5b600660008273ffffffffffffffffffffffffffffffffffffffff1673ffffffffffffffffffffffffffffffffffffffff16815260200190815260200160002060009054906101000a900460ff16611ce8576040517f08c379a0000000000000000000000000000000000000000000000000000000008152600401611cdf90615a4b565b60405180910390fd5b611cf0611f8f565b73ffffffffffffffffffffffffffffffffffffffff168173ffffffffffffffffffffffffffffffffffffffff161415611d5e576040517f08c379a0000000000000000000000000000000000000000000000000000000008152600401611d559061592b565b60405180910390fd5b6000600660008373ffffffffffffffffffffffffffffffffffffffff1673ffffffffffffffffffffffffffffffffffffffff16815260200190815260200160002060006101000a81548160ff02191690831515021790555050565b60008111611dfc576040517f08c379a0000000000000000000000000000000000000000000000000000000008152600401611df39061586b565b60405180910390fd5b611e063382613f56565b80601283604051611e179190615584565b9081526020016040518091039020600082825401925050819055505050565b3373ffffffffffffffffffffffffffffffffffffffff16600d600083815260200190815260200160002060000160009054906101000a900473ffffffffffffffffffffffffffffffffffffffff1673ffffffffffffffffffffffffffffffffffffffff1614611eda576040517f08c379a0000000000000000000000000000000000000000000000000000000008152600401611ed19061590b565b60405180910390fd5b3373ffffffffffffffffffffffffffffffffffffffff166108fc600d6000848152602001908152602001600020600101549081150290604051600060405180830381858888f19350505050158015611f36573d6000803e3d6000fd5b50600d6000828152602001908152602001600020600080820160006101000a81549073ffffffffffffffffffffffffffffffffffffffff02191690556001820160009055600282016000611f8a91906142e7565b505050565b6000600560019054906101000a900473ffffffffffffffffffffffffffffffffffffffff16905090565b6011818051602081018201805184825260208301602085012081835280955050505050506000915090508054600181600116156101000203166002900480601f0160208091040260200160405190810160405280929190818152602001828054600181600116156101000203166002900480156120775780601f1061204c57610100808354040283529160200191612077565b820191906000526020600020905b81548152906001019060200180831161205a57829003601f168201915b505050505081565b606060048054600181600116156101000203166002900480601f0160208091040260200160405190810160405280929190818152602001828054600181600116156101000203166002900480156121175780601f106120ec57610100808354040283529160200191612117565b820191906000526020600020905b8154815290600101906020018083116120fa57829003601f168201915b5050505050905090565b3373ffffffffffffffffffffffffffffffffffffffff166007600860003373ffffffffffffffffffffffffffffffffffffffff1673ffffffffffffffffffffffffffffffffffffffff168152602001908152602001600020604051612186919061559b565b908152602001604051809103902060000160009054906101000a900473ffffffffffffffffffffffffffffffffffffffff1673ffffffffffffffffffffffffffffffffffffffff161461220e576040517f08c379a000000000000000000000000000000000000000000000000000000000815260040161220590615a6b565b60405180910390fd5b600860003373ffffffffffffffffffffffffffffffffffffffff1673ffffffffffffffffffffffffffffffffffffffff16815260200190815260200160002060405161225a9190615554565b60405180910390206011838360405161227492919061556b565b908152602001604051809103902060405161228f9190615554565b6040518091039020146122d7576040517f08c379a00000000000000000000000000000000000000000000000000000000081526004016122ce90615aeb565b60405180910390fd5b60008090505b600f83836040516122ef92919061556b565b908152602001604051809103902080549050811015612486576000600d6000600f868660405161232092919061556b565b9081526020016040518091039020848154811061233957fe5b906000526020600020015481526020019081526020016000206001015411156123ef573373ffffffffffffffffffffffffffffffffffffffff166108fc600d6000600f878760405161238c92919061556b565b908152602001604051809103902085815481106123a557fe5b90600052602060002001548152602001908152602001600020600101549081150290604051600060405180830381858888f193505050501580156123ed573d6000803e3d6000fd5b505b600d6000600f858560405161240592919061556b565b9081526020016040518091039020838154811061241e57fe5b90600052602060002001548152602001908152602001600020600080820160006101000a81549073ffffffffffffffffffffffffffffffffffffffff0219169055600182016000905560028201600061247791906142e7565b505080806001019150506122dd565b506011828260405161249992919061556b565b908152602001604051809103902060006124b391906142e7565b5050565b600034116124fa576040517f08c379a00000000000000000000000000000000000000000000000000000000081526004016124f190615b2b565b60405180910390fd5b600a6000815480929190600101919050555060405180606001604052803373ffffffffffffffffffffffffffffffffffffffff16815260200134815260200183838080601f016020809104026020016040519081016040528093929190818152602001838380828437600081840152601f19601f8201169050808301925050505050505081525060096000600a54815260200190815260200160002060008201518160000160006101000a81548173ffffffffffffffffffffffffffffffffffffffff021916908373ffffffffffffffffffffffffffffffffffffffff16021790555060208201518160010155604082015181600201908051906020019061260392919061432f565b50905050600b828260405161261992919061556b565b9081526020016040518091039020600a549080600181540180825580915050600190039060005260206000200160009091909190915055600c60003373ffffffffffffffffffffffffffffffffffffffff1673ffffffffffffffffffffffffffffffffffffffff168152602001908152602001600020600a5490806001815401808255809150506001900390600052602060002001600090919091909150557f406551011d3a3874d102c2ee25adb004adb6d90a8134f04c14bd02f73ad4a3d0333484846040516126ed94939291906155ff565b60405180910390a15050565b60006127bc612706613a3e565b846127b785604051806060016040528060258152602001615e0c6025913960016000612730613a3e565b73ffffffffffffffffffffffffffffffffffffffff1673ffffffffffffffffffffffffffffffffffffffff16815260200190815260200160002060008a73ffffffffffffffffffffffffffffffffffffffff1673ffffffffffffffffffffffffffffffffffffffff16815260200190815260200160002054613ea69092919063ffffffff16565b613a46565b6001905092915050565b60006127da6127d3613a3e565b8484613c11565b6001905092915050565b600660003373ffffffffffffffffffffffffffffffffffffffff1673ffffffffffffffffffffffffffffffffffffffff16815260200190815260200160002060009054906101000a900460ff16612870576040517f08c379a000000000000000000000000000000000000000000000000000000000815260040161286790615acb565b60405180910390fd5b600015156013868660405161288692919061556b565b908152602001604051809103902060009054906101000a900460ff161515146128e4576040517f08c379a00000000000000000000000000000000000000000000000000000000081526004016128db9061584b565b60405180910390fd5b600073ffffffffffffffffffffffffffffffffffffffff166007848460405161290e92919061556b565b908152602001604051809103902060000160009054906101000a900473ffffffffffffffffffffffffffffffffffffffff1673ffffffffffffffffffffffffffffffffffffffff161415612997576040517f08c379a000000000000000000000000000000000000000000000000000000000815260040161298e9061594b565b60405180910390fd5b6001601386866040516129ab92919061556b565b908152602001604051809103902060006101000a81548160ff021916908315150217905550612a2c600784846040516129e592919061556b565b908152602001604051809103902060000160009054906101000a900473ffffffffffffffffffffffffffffffffffffffff16612a1f611245565b60ff16600a0a8302614104565b7fe0ca3b0d5f07049a3975315a95eadf935a046d8c67c4660d0f5fd3f5bf600a428585858585604051612a639594939291906157a0565b60405180910390a15050505050565b3373ffffffffffffffffffffffffffffffffffffffff166007600860003373ffffffffffffffffffffffffffffffffffffffff1673ffffffffffffffffffffffffffffffffffffffff168152602001908152602001600020604051612ad7919061559b565b908152602001604051809103902060000160009054906101000a900473ffffffffffffffffffffffffffffffffffffffff1673ffffffffffffffffffffffffffffffffffffffff1614612b5f576040517f08c379a0000000000000000000000000000000000000000000000000000000008152600401612b5690615b0b565b60405180910390fd5b600860003373ffffffffffffffffffffffffffffffffffffffff1673ffffffffffffffffffffffffffffffffffffffff168152602001908152602001600020604051612bab9190615554565b604051809103902060096000838152602001908152602001600020600201604051612bd69190615554565b604051809103902014612c1e576040517f08c379a0000000000000000000000000000000000000000000000000000000008152600401612c159061598b565b60405180910390fd5b3373ffffffffffffffffffffffffffffffffffffffff166108fc60096000848152602001908152602001600020600101549081150290604051600060405180830381858888f19350505050158015612c7a573d6000803e3d6000fd5b5060096000828152602001908152602001600020600080820160006101000a81549073ffffffffffffffffffffffffffffffffffffffff02191690556001820160009055600282016000612cce91906142e7565b505050565b600c6020528160005260406000208181548110612cec57fe5b90600052602060002001600091509150505481565b6013818051602081018201805184825260208301602085012081835280955050505050506000915054906101000a900460ff1681565b60086020528060005260406000206000915090508054600181600116156101000203166002900480601f016020809104026020016040519081016040528092919081815260200182805460018160011615610100020316600290048015612ddf5780601f10612db457610100808354040283529160200191612ddf565b820191906000526020600020905b815481529060010190602001808311612dc257829003601f168201915b505050505081565b600660003373ffffffffffffffffffffffffffffffffffffffff1673ffffffffffffffffffffffffffffffffffffffff16815260200190815260200160002060009054906101000a900460ff16612e73576040517f08c379a0000000000000000000000000000000000000000000000000000000008152600401612e6a90615acb565b60405180910390fd5b6000600f8585604051612e8792919061556b565b90815260200160405180910390208054905011612ed9576040517f08c379a0000000000000000000000000000000000000000000000000000000008152600401612ed09061580b565b60405180910390fd5b818160118686604051612eed92919061556b565b90815260200160405180910390209190612f089291906143af565b507f8e4659e4d33c645b2bedcc914a0afbe44379f0e73b253214800b377237d9333b84848484604051612f3e9493929190615715565b60405180910390a150505050565b6000600160008473ffffffffffffffffffffffffffffffffffffffff1673ffffffffffffffffffffffffffffffffffffffff16815260200190815260200160002060008373ffffffffffffffffffffffffffffffffffffffff1673ffffffffffffffffffffffffffffffffffffffff16815260200190815260200160002054905092915050565b60003411613016576040517f08c379a000000000000000000000000000000000000000000000000000000000815260040161300d90615b2b565b60405180910390fd5b600073ffffffffffffffffffffffffffffffffffffffff166007838360405161304092919061556b565b908152602001604051809103902060000160009054906101000a900473ffffffffffffffffffffffffffffffffffffffff1673ffffffffffffffffffffffffffffffffffffffff1614156130c9576040517f08c379a00000000000000000000000000000000000000000000000000000000081526004016130c09061594b565b60405180910390fd5b60011515600783836040516130df92919061556b565b908152602001604051809103902060000160149054906101000a900460ff16151514613140576040517f08c379a0000000000000000000000000000000000000000000000000000000008152600401613137906159cb565b60405180910390fd5b6007828260405161315292919061556b565b908152602001604051809103902060000160009054906101000a900473ffffffffffffffffffffffffffffffffffffffff1673ffffffffffffffffffffffffffffffffffffffff166108fc349081150290604051600060405180830381858888f193505050501580156131c9573d6000803e3d6000fd5b505050565b3a6188b8023411613214576040517f08c379a000000000000000000000000000000000000000000000000000000000815260040161320b906159ab565b60405180910390fd5b600073ffffffffffffffffffffffffffffffffffffffff166007838360405161323e92919061556b565b908152602001604051809103902060000160009054906101000a900473ffffffffffffffffffffffffffffffffffffffff1673ffffffffffffffffffffffffffffffffffffffff161461331a5760086000600784846040516132a192919061556b565b908152602001604051809103902060000160009054906101000a900473ffffffffffffffffffffffffffffffffffffffff1673ffffffffffffffffffffffffffffffffffffffff1673ffffffffffffffffffffffffffffffffffffffff168152602001908152602001600020600061331991906142e7565b5b60405180604001604052803373ffffffffffffffffffffffffffffffffffffffff168152602001600015158152506007838360405161335a92919061556b565b908152602001604051809103902060008201518160000160006101000a81548173ffffffffffffffffffffffffffffffffffffffff021916908373ffffffffffffffffffffffffffffffffffffffff16021790555060208201518160000160146101000a81548160ff0219169083151502179055509050508181600860003373ffffffffffffffffffffffffffffffffffffffff1673ffffffffffffffffffffffffffffffffffffffff16815260200190815260200160002091906134209291906143af565b50613429611f8f565b73ffffffffffffffffffffffffffffffffffffffff166108fc349081150290604051600060405180830381858888f1935050505015801561346e573d6000803e3d6000fd5b507fd417e304669e6bf903f41a03f5ce981dac00416cf5034cd47d22fcb0c67c96bd3383836040516134a2939291906155cd565b60405180910390a15050565b6134b6613a3e565b73ffffffffffffffffffffffffffffffffffffffff16600560019054906101000a900473ffffffffffffffffffffffffffffffffffffffff1673ffffffffffffffffffffffffffffffffffffffff1614613545576040517f08c379a000000000000000000000000000000000000000000000000000000000815260040161353c906159eb565b60405180910390fd5b600073ffffffffffffffffffffffffffffffffffffffff168173ffffffffffffffffffffffffffffffffffffffff1614156135b5576040517f08c379a00000000000000000000000000000000000000000000000000000000081526004016135ac9061588b565b60405180910390fd5b8073ffffffffffffffffffffffffffffffffffffffff16600560019054906101000a900473ffffffffffffffffffffffffffffffffffffffff1673ffffffffffffffffffffffffffffffffffffffff167f8be0079c531659141344cd1fd0a4f28419497f9722a3daafe3b4186f6b6457e060405160405180910390a380600560016101000a81548173ffffffffffffffffffffffffffffffffffffffff021916908373ffffffffffffffffffffffffffffffffffffffff16021790555050565b600034116136b8576040517f08c379a00000000000000000000000000000000000000000000000000000000081526004016136af90615b2b565b60405180910390fd5b600e6000815480929190600101919050555060405180606001604052803373ffffffffffffffffffffffffffffffffffffffff16815260200134815260200183838080601f016020809104026020016040519081016040528093929190818152602001838380828437600081840152601f19601f82011690508083019250505050505050815250600d6000600e54815260200190815260200160002060008201518160000160006101000a81548173ffffffffffffffffffffffffffffffffffffffff021916908373ffffffffffffffffffffffffffffffffffffffff1602179055506020820151816001015560408201518160020190805190602001906137c192919061432f565b50905050600f82826040516137d792919061556b565b9081526020016040518091039020600e549080600181540180825580915050600190039060005260206000200160009091909190915055601060003373ffffffffffffffffffffffffffffffffffffffff1673ffffffffffffffffffffffffffffffffffffffff168152602001908152602001600020600e5490806001815401808255809150506001900390600052602060002001600090919091909150557f08c7c4039b7c98d46cb4ebb0f96ca6a67a506db7c3ddd814f88dd3cfd24e2ae9333484846040516138ab94939291906155ff565b60405180910390a15050565b6138bf613a3e565b73ffffffffffffffffffffffffffffffffffffffff16600560019054906101000a900473ffffffffffffffffffffffffffffffffffffffff1673ffffffffffffffffffffffffffffffffffffffff161461394e576040517f08c379a0000000000000000000000000000000000000000000000000000000008152600401613945906159eb565b60405180910390fd5b6001600660008373ffffffffffffffffffffffffffffffffffffffff1673ffffffffffffffffffffffffffffffffffffffff16815260200190815260200160002060006101000a81548160ff02191690831515021790555050565b6060601060003373ffffffffffffffffffffffffffffffffffffffff1673ffffffffffffffffffffffffffffffffffffffff168152602001908152602001600020805480602002602001604051908101604052809291908181526020018280548015613a3457602002820191906000526020600020905b815481526020019060010190808311613a20575b5050505050905090565b600033905090565b600073ffffffffffffffffffffffffffffffffffffffff168373ffffffffffffffffffffffffffffffffffffffff161415613ab6576040517f08c379a0000000000000000000000000000000000000000000000000000000008152600401613aad90615a8b565b60405180910390fd5b600073ffffffffffffffffffffffffffffffffffffffff168273ffffffffffffffffffffffffffffffffffffffff161415613b26576040517f08c379a0000000000000000000000000000000000000000000000000000000008152600401613b1d906158ab565b60405180910390fd5b80600160008573ffffffffffffffffffffffffffffffffffffffff1673ffffffffffffffffffffffffffffffffffffffff16815260200190815260200160002060008473ffffffffffffffffffffffffffffffffffffffff1673ffffffffffffffffffffffffffffffffffffffff168152602001908152602001600020819055508173ffffffffffffffffffffffffffffffffffffffff168373ffffffffffffffffffffffffffffffffffffffff167f8c5be1e5ebec7d5bd14f71427d1e84f3dd0314c0f7b2291e5b200ac8c7c3b92583604051613c049190615b6b565b60405180910390a3505050565b600073ffffffffffffffffffffffffffffffffffffffff168373ffffffffffffffffffffffffffffffffffffffff161415613c81576040517f08c379a0000000000000000000000000000000000000000000000000000000008152600401613c7890615a2b565b60405180910390fd5b600073ffffffffffffffffffffffffffffffffffffffff168273ffffffffffffffffffffffffffffffffffffffff161415613cf1576040517f08c379a0000000000000000000000000000000000000000000000000000000008152600401613ce89061582b565b60405180910390fd5b613cfc838383614298565b613d6781604051806060016040528060268152602001615dbe602691396000808773ffffffffffffffffffffffffffffffffffffffff1673ffffffffffffffffffffffffffffffffffffffff16815260200190815260200160002054613ea69092919063ffffffff16565b6000808573ffffffffffffffffffffffffffffffffffffffff1673ffffffffffffffffffffffffffffffffffffffff16815260200190815260200160002081905550613dfa816000808573ffffffffffffffffffffffffffffffffffffffff1673ffffffffffffffffffffffffffffffffffffffff16815260200190815260200160002054613f0190919063ffffffff16565b6000808473ffffffffffffffffffffffffffffffffffffffff1673ffffffffffffffffffffffffffffffffffffffff168152602001908152602001600020819055508173ffffffffffffffffffffffffffffffffffffffff168373ffffffffffffffffffffffffffffffffffffffff167fddf252ad1be2c89b69c2b068fc378daa952ba7f163c4a11628f55a4df523b3ef83604051613e999190615b6b565b60405180910390a3505050565b6000838311158290613eee576040517f08c379a0000000000000000000000000000000000000000000000000000000008152600401613ee591906157e9565b60405180910390fd5b5060008385039050809150509392505050565b600080828401905083811015613f4c576040517f08c379a0000000000000000000000000000000000000000000000000000000008152600401613f43906158eb565b60405180910390fd5b8091505092915050565b600073ffffffffffffffffffffffffffffffffffffffff168273ffffffffffffffffffffffffffffffffffffffff161415613fc6576040517f08c379a0000000000000000000000000000000000000000000000000000000008152600401613fbd90615a0b565b60405180910390fd5b613fd282600083614298565b61403d81604051806060016040528060228152602001615d9c602291396000808673ffffffffffffffffffffffffffffffffffffffff1673ffffffffffffffffffffffffffffffffffffffff16815260200190815260200160002054613ea69092919063ffffffff16565b6000808473ffffffffffffffffffffffffffffffffffffffff1673ffffffffffffffffffffffffffffffffffffffff168152602001908152602001600020819055506140948160025461429d90919063ffffffff16565b600281905550600073ffffffffffffffffffffffffffffffffffffffff168273ffffffffffffffffffffffffffffffffffffffff167fddf252ad1be2c89b69c2b068fc378daa952ba7f163c4a11628f55a4df523b3ef836040516140f89190615b6b565b60405180910390a35050565b600073ffffffffffffffffffffffffffffffffffffffff168273ffffffffffffffffffffffffffffffffffffffff161415614174576040517f08c379a000000000000000000000000000000000000000000000000000000000815260040161416b90615b4b565b60405180910390fd5b61418060008383614298565b61419581600254613f0190919063ffffffff16565b6002819055506141ec816000808573ffffffffffffffffffffffffffffffffffffffff1673ffffffffffffffffffffffffffffffffffffffff16815260200190815260200160002054613f0190919063ffffffff16565b6000808473ffffffffffffffffffffffffffffffffffffffff1673ffffffffffffffffffffffffffffffffffffffff168152602001908152602001600020819055508173ffffffffffffffffffffffffffffffffffffffff16600073ffffffffffffffffffffffffffffffffffffffff167fddf252ad1be2c89b69c2b068fc378daa952ba7f163c4a11628f55a4df523b3ef8360405161428c9190615b6b565b60405180910390a35050565b505050565b60006142df83836040518060400160405280601e81526020017f536166654d6174683a207375627472616374696f6e206f766572666c6f770000815250613ea6565b905092915050565b50805460018160011615610100020316600290046000825580601f1061430d575061432c565b601f01602090049060005260206000209081019061432b919061442f565b5b50565b828054600181600116156101000203166002900490600052602060002090601f016020900481019282601f1061437057805160ff191683800117855561439e565b8280016001018555821561439e579182015b8281111561439d578251825591602001919060010190614382565b5b5090506143ab919061442f565b5090565b828054600181600116156101000203166002900490600052602060002090601f016020900481019282601f106143f057803560ff191683800117855561441e565b8280016001018555821561441e579182015b8281111561441d578235825591602001919060010190614402565b5b50905061442b919061442f565b5090565b61445191905b8082111561444d576000816000905550600101614435565b5090565b90565b60008135905061446381615d6d565b92915050565b60008083601f84011261447b57600080fd5b8235905067ffffffffffffffff81111561449457600080fd5b6020830191508360018202830111156144ac57600080fd5b9250929050565b600082601f8301126144c457600080fd5b81356144d76144d282615bce565b615ba1565b915080825260208301602083018583830111156144f357600080fd5b6144fe838284615d1a565b50505092915050565b60008135905061451681615d84565b92915050565b60006020828403121561452e57600080fd5b600061453c84828501614454565b91505092915050565b6000806040838503121561455857600080fd5b600061456685828601614454565b925050602061457785828601614454565b9150509250929050565b60008060006060848603121561459657600080fd5b60006145a486828701614454565b93505060206145b586828701614454565b92505060406145c686828701614507565b9150509250925092565b600080604083850312156145e357600080fd5b60006145f185828601614454565b925050602061460285828601614507565b9150509250929050565b6000806020838503121561461f57600080fd5b600083013567ffffffffffffffff81111561463957600080fd5b61464585828601614469565b92509250509250929050565b60008060006040848603121561466657600080fd5b600084013567ffffffffffffffff81111561468057600080fd5b61468c86828701614469565b9350935050602061469f86828701614454565b9150509250925092565b600080600080604085870312156146bf57600080fd5b600085013567ffffffffffffffff8111156146d957600080fd5b6146e587828801614469565b9450945050602085013567ffffffffffffffff81111561470457600080fd5b61471087828801614469565b925092505092959194509250565b60008060008060006060868803121561473657600080fd5b600086013567ffffffffffffffff81111561475057600080fd5b61475c88828901614469565b9550955050602086013567ffffffffffffffff81111561477b57600080fd5b61478788828901614469565b9350935050604061479a88828901614507565b9150509295509295909350565b6000602082840312156147b957600080fd5b600082013567ffffffffffffffff8111156147d357600080fd5b6147df848285016144b3565b91505092915050565b600080604083850312156147fb57600080fd5b600083013567ffffffffffffffff81111561481557600080fd5b614821858286016144b3565b925050602061483285828601614507565b9150509250929050565b60006020828403121561484e57600080fd5b600061485c84828501614507565b91505092915050565b60006148718383615527565b60208301905092915050565b61488681615ce4565b82525050565b61489581615c8f565b82525050565b60006148a682615c34565b6148b08185615c57565b93506148bb83615bfa565b8060005b838110156148ec5781516148d38882614865565b97506148de83615c4a565b9250506001810190506148bf565b5085935050505092915050565b61490281615ca1565b82525050565b600081546001811660008114614925576001811461494a5761498e565b607f60028304166149368187615c68565b955060ff198316865280860193505061498e565b600282046149588187615c68565b955061496385615c0a565b60005b8281101561498557815481890152600182019150602081019050614966565b82880195505050505b505092915050565b60006149a28385615c73565b93506149af838584615d1a565b6149b883615d5c565b840190509392505050565b60006149cf8385615c84565b93506149dc838584615d1a565b82840190509392505050565b60006149f382615c3f565b6149fd8185615c73565b9350614a0d818560208601615d29565b614a1681615d5c565b840191505092915050565b6000614a2c82615c3f565b614a368185615c84565b9350614a46818560208601615d29565b80840191505092915050565b600081546001811660008114614a6f5760018114614a9557614ad9565b607f6002830416614a808187615c73565b955060ff198316865260208601935050614ad9565b60028204614aa38187615c73565b9550614aae85615c1f565b60005b82811015614ad057815481890152600182019150602081019050614ab1565b80880195505050505b505092915050565b600081546001811660008114614afe5760018114614b2357614b67565b607f6002830416614b0f8187615c84565b955060ff1983168652808601935050614b67565b60028204614b318187615c84565b9550614b3c85615c1f565b60005b82811015614b5e57815481890152600182019150602081019050614b3f565b82880195505050505b505092915050565b6000614b7c602183615c73565b91507f497373756520686173206e6f206465706f7369747320746f2072656c6561736560008301527f2e000000000000000000000000000000000000000000000000000000000000006020830152604082019050919050565b6000614be2602383615c73565b91507f45524332303a207472616e7366657220746f20746865207a65726f206164647260008301527f65737300000000000000000000000000000000000000000000000000000000006020830152604082019050919050565b6000614c48601d83615c73565b91507f50756c6c207265717565737420616c726561647920636c61696d65642e0000006000830152602082019050919050565b6000614c88601c83615c73565b91507f416d6f756e74206d7573742062652067726561746572207a65726f2e000000006000830152602082019050919050565b6000614cc8602683615c73565b91507f4f776e61626c653a206e6577206f776e657220697320746865207a65726f206160008301527f64647265737300000000000000000000000000000000000000000000000000006020830152604082019050919050565b6000614d2e602283615c73565b91507f45524332303a20617070726f766520746f20746865207a65726f20616464726560008301527f73730000000000000000000000000000000000000000000000000000000000006020830152604082019050919050565b6000614d94602e83615c73565b91507f54686973206163636f756e7420636f6e6669726d6174696f6e20776173206e6560008301527f766572207265717565737465642e0000000000000000000000000000000000006020830152604082019050919050565b6000614dfa601b83615c73565b91507f536166654d6174683a206164646974696f6e206f766572666c6f7700000000006000830152602082019050919050565b6000614e3a603083615c73565b91507f4465706f73697420646964206e6f742063616d652066726f6d2074686973204560008301527f7468657265756d206163636f756e742e000000000000000000000000000000006020830152604082019050919050565b6000614ea0602083615c73565b91507f4f776e6572206f7261636c652063616e206e6f742062652072656d6f7665642e6000830152602082019050919050565b6000614ee0602383615c73565b91507f54686973204769744875622055736572206973206e6f7420726567697374657260008301527f65642e00000000000000000000000000000000000000000000000000000000006020830152604082019050919050565b6000614f46602683615c73565b91507f52656c656173652066656520286f7261636c6520636f737429206e6f7420636f60008301527f76657265642e00000000000000000000000000000000000000000000000000006020830152604082019050919050565b6000614fac602783615c73565b91507f4465706f736974206973206e6f7420666f72207468697320476974487562206160008301527f63636f756e742e000000000000000000000000000000000000000000000000006020830152604082019050919050565b6000615012602b83615c73565b91507f526567697374726174696f6e2066656520286f7261636c6520636f737429206e60008301527f6f7420636f76657265642e0000000000000000000000000000000000000000006020830152604082019050919050565b6000615078602683615c73565b91507f54686973204769744875622055736572206973206e6f7420636f6e6669726d6560008301527f64207965742e00000000000000000000000000000000000000000000000000006020830152604082019050919050565b60006150de602083615c73565b91507f4f776e61626c653a2063616c6c6572206973206e6f7420746865206f776e65726000830152602082019050919050565b600061511e602183615c73565b91507f45524332303a206275726e2066726f6d20746865207a65726f2061646472657360008301527f73000000000000000000000000000000000000000000000000000000000000006020830152604082019050919050565b6000615184602583615c73565b91507f45524332303a207472616e736665722066726f6d20746865207a65726f20616460008301527f64726573730000000000000000000000000000000000000000000000000000006020830152604082019050919050565b60006151ea601783615c73565b91507f4f7261636c6520646f6573206e6f74206578697374732e0000000000000000006000830152602082019050919050565b600061522a603883615c73565b91507f4e6f20476974487562206163636f756e7420726567697374657265642077697460008301527f68207468697320457468657265756d206163636f756e742e00000000000000006020830152604082019050919050565b6000615290602483615c73565b91507f45524332303a20617070726f76652066726f6d20746865207a65726f2061646460008301527f72657373000000000000000000000000000000000000000000000000000000006020830152604082019050919050565b60006152f6602483615c73565b91507f436c61696d2066656520286f7261636c6520636f737429206e6f7420636f766560008301527f7265642e000000000000000000000000000000000000000000000000000000006020830152604082019050919050565b600061535c602483615c73565b91507f4f6e6c79206f7261636c65732063616e20636f6e6669726d206f70657261746960008301527f6f6e732e000000000000000000000000000000000000000000000000000000006020830152604082019050919050565b60006153c2605783615c73565b91507f54686520476974487562206163636f756e74207468697320697373756520776160008301527f732072656c656173656420746f20646f6573206e6f742062656c6f6e6720746f60208301527f207468697320457468657265756d206163636f756e742e0000000000000000006040830152606082019050919050565b600061544e603983615c73565b91507f476974487562206163636f756e74206e6f74207265676973746572656420776960008301527f7468207468697320457468657265756d206163636f756e742e000000000000006020830152604082019050919050565b60006154b4601283615c73565b91507f596f75206d7573742073656e64204554482e00000000000000000000000000006000830152602082019050919050565b60006154f4601f83615c73565b91507f45524332303a206d696e7420746f20746865207a65726f2061646472657373006000830152602082019050919050565b61553081615ccd565b82525050565b61553f81615ccd565b82525050565b61554e81615cd7565b82525050565b60006155608284614908565b915081905092915050565b60006155788284866149c3565b91508190509392505050565b60006155908284614a21565b915081905092915050565b60006155a78284614ae1565b915081905092915050565b60006020820190506155c7600083018461488c565b92915050565b60006040820190506155e2600083018661487d565b81810360208301526155f5818486614996565b9050949350505050565b6000606082019050615614600083018761487d565b6156216020830186615536565b8181036040830152615634818486614996565b905095945050505050565b6000604082019050615654600083018561488c565b61566160208301846148f9565b9392505050565b600060408201905061567d600083018661488c565b8181036020830152615690818486614996565b9050949350505050565b60006060820190506156af600083018661488c565b6156bc6020830185615536565b81810360408301526156ce81846149e8565b9050949350505050565b600060208201905081810360008301526156f2818461489b565b905092915050565b600060208201905061570f60008301846148f9565b92915050565b60006040820190508181036000830152615730818688614996565b90508181036020830152615745818486614996565b905095945050505050565b6000606082019050818103600083015261576b818789614996565b90508181036020830152615780818587614996565b905081810360408301526157948184614a52565b90509695505050505050565b600060608201905081810360008301526157bb818789614996565b905081810360208301526157d0818587614996565b90506157df6040830184615536565b9695505050505050565b6000602082019050818103600083015261580381846149e8565b905092915050565b6000602082019050818103600083015261582481614b6f565b9050919050565b6000602082019050818103600083015261584481614bd5565b9050919050565b6000602082019050818103600083015261586481614c3b565b9050919050565b6000602082019050818103600083015261588481614c7b565b9050919050565b600060208201905081810360008301526158a481614cbb565b9050919050565b600060208201905081810360008301526158c481614d21565b9050919050565b600060208201905081810360008301526158e481614d87565b9050919050565b6000602082019050818103600083015261590481614ded565b9050919050565b6000602082019050818103600083015261592481614e2d565b9050919050565b6000602082019050818103600083015261594481614e93565b9050919050565b6000602082019050818103600083015261596481614ed3565b9050919050565b6000602082019050818103600083015261598481614f39565b9050919050565b600060208201905081810360008301526159a481614f9f565b9050919050565b600060208201905081810360008301526159c481615005565b9050919050565b600060208201905081810360008301526159e48161506b565b9050919050565b60006020820190508181036000830152615a04816150d1565b9050919050565b60006020820190508181036000830152615a2481615111565b9050919050565b60006020820190508181036000830152615a4481615177565b9050919050565b60006020820190508181036000830152615a64816151dd565b9050919050565b60006020820190508181036000830152615a848161521d565b9050919050565b60006020820190508181036000830152615aa481615283565b9050919050565b60006020820190508181036000830152615ac4816152e9565b9050919050565b60006020820190508181036000830152615ae48161534f565b9050919050565b60006020820190508181036000830152615b04816153b5565b9050919050565b60006020820190508181036000830152615b2481615441565b9050919050565b60006020820190508181036000830152615b44816154a7565b9050919050565b60006020820190508181036000830152615b64816154e7565b9050919050565b6000602082019050615b806000830184615536565b92915050565b6000602082019050615b9b6000830184615545565b92915050565b6000604051905081810181811067ffffffffffffffff82111715615bc457600080fd5b8060405250919050565b600067ffffffffffffffff821115615be557600080fd5b601f19601f8301169050602081019050919050565b6000819050602082019050919050565b60008190508160005260206000209050919050565b60008190508160005260206000209050919050565b600081519050919050565b600081519050919050565b6000602082019050919050565b600082825260208201905092915050565b600081905092915050565b600082825260208201905092915050565b600081905092915050565b6000615c9a82615cad565b9050919050565b60008115159050919050565b600073ffffffffffffffffffffffffffffffffffffffff82169050919050565b6000819050919050565b600060ff82169050919050565b6000615cef82615cf6565b9050919050565b6000615d0182615d08565b9050919050565b6000615d1382615cad565b9050919050565b82818337600083830152505050565b60005b83811015615d47578082015181840152602081019050615d2c565b83811115615d56576000848401525b50505050565b6000601f19601f8301169050919050565b615d7681615c8f565b8114615d8157600080fd5b50565b615d8d81615ccd565b8114615d9857600080fd5b5056fe45524332303a206275726e20616d6f756e7420657863656564732062616c616e636545524332303a207472616e7366657220616d6f756e7420657863656564732062616c616e636545524332303a207472616e7366657220616d6f756e74206578636565647320616c6c6f77616e636545524332303a2064656372656173656420616c6c6f77616e63652062656c6f77207a65726fa2646970667358221220b2df08ac3341622a9af29bb39793d433b82a29690442b1dd30d0690ac2ac2d5764736f6c63430006060033",
  "immutableReferences": {},
  "source": "// SPDX-License-Identifier: MIT\npragma solidity ^0.6.0;\npragma experimental ABIEncoderV2;\n\nimport \"@openzeppelin/contracts/token/ERC20/ERC20.sol\";\nimport \"@openzeppelin/contracts/access/Ownable.sol\";\nimport \"./MergeToken.sol\";\n\ncontract MergePay is ERC20, Ownable {\n  struct User {\n    address account;\n    bool confirmed;\n  }\n\n  struct UserDeposit {\n    address from;\n    uint256 amount;\n    string githubUser;\n  }\n\n  struct IssueDeposit {\n    address from;\n    uint256 amount;\n    string issueId;\n  }\n\n  event RegistrationRequestEvent(address account, string githubUser);\n  event RegistrationConfirmedEvent(address account, string githubUser);\n  event ClaimPrRequestEvent(string prId, string githubUser);\n  event ClaimPrConfirmEvent(string prId, string githubUser, uint256 score);\n  event UserDepositEvent(address account, uint256 amount, string githubUser);\n  event IssueDepositEvent(address account, uint256 amount, string issueId);\n  event ReleaseIssueDepositsRequestEvent(string issueId, string githubUser, string owner);\n  event ReleaseIssueDepositsConfirmEvent(string issueId, string githubUser);\n\n  mapping(address => bool) private _oracles;\n\n  mapping(string => User) public _users;\n  mapping(address => string) public _usersByAddress;\n\n  mapping(uint256 => UserDeposit) public _userDeposits;\n  uint256 private _nextUserDepositId = 0;\n  mapping(string => uint256[]) public _userDepositIdsByGithubUser;\n  mapping(address => uint256[]) public _userDepositIdsBySender;\n\n  mapping(uint256 => IssueDeposit) public _issueDeposits;\n  uint256 public _nextIssueDepositId = 0;\n  mapping(string => uint256[]) public _issueDepositIdsByIssueId;\n  mapping(address => uint256[]) public _issueDepositIdsBySender;\n\n  mapping(string => string) public _releasedIssues;\n\n  mapping(string => uint256) public _issueBoosts;\n  mapping(string => bool) public _claimedPullRequests;\n\n  modifier onlyOracles {\n    require(_oracles[msg.sender], \"Only oracles can confirm operations.\");\n    _;\n  }\n\n  /// @dev Initiates MergeToken and set owner as oracle.\n  constructor() ERC20(\"OctoPin\", \"OPIN\") public {\n    _oracles[owner()] = true;\n  }\n\n  /// @param oracle The oracle address to add\n  function enableOracle(address oracle) external onlyOwner {\n    _oracles[oracle] = true;\n  }\n\n  /// @param oracle The oracle address to remove (cannot be owner)\n  function disableOracle(address oracle) external onlyOwner {\n    require(_oracles[oracle], \"Oracle does not exists.\");\n    require(oracle != owner(), \"Owner oracle can not be removed.\");\n    _oracles[oracle] = false;\n  }\n\n  /// @dev Verify ownership over GitHub account by checking for a repositry of\n  /// @dev githubUser named after msg.sender. Adds user as unconfirmed and sends\n  /// @dev an oracle request, that will be fullfilled in registerConfirm.\n  /// @param githubUser The GitHub username to register\n  function register(string calldata githubUser) external payable {\n    require(msg.value > 35000 * tx.gasprice, \"Registration fee (oracle cost) not covered.\");\n    if (_users[githubUser].account != address(0)) {\n      delete _usersByAddress[_users[githubUser].account];\n    }\n    _users[githubUser] = User(msg.sender, false);\n    _usersByAddress[msg.sender] = githubUser;\n\n    payable(owner()).transfer(msg.value);\n\n    emit RegistrationRequestEvent(msg.sender, githubUser);\n  }\n\n  /// @dev Oracle fullfill method. Sets unconfirmed user to confirmed if repo exists.\n  /// @param githubUser The githubUser to confirm\n  /// @param account The Eth account to confirm\n  function registerConfirm(string calldata githubUser, address account) external onlyOracles {\n    require(\n      _users[githubUser].account != address(0) && _users[githubUser].account == account,\n      \"This account confirmation was never requested.\"\n    );\n    _users[githubUser].confirmed = true;\n    emit RegistrationConfirmedEvent(account, githubUser);\n  }\n\n  /// @dev Send ETH to a registered githubUser.\n  /// @param githubUser The receiving githubUser.\n  function sendEthToGithubUser(string calldata githubUser) external payable {\n    require(msg.value > 0, \"You must send ETH.\");\n    require(_users[githubUser].account != address(0), \"This GitHub User is not registered.\");\n    require(_users[githubUser].confirmed == true, \"This GitHub User is not confirmed yet.\");\n    payable(_users[githubUser].account).transfer(msg.value);\n  }\n\n  /// @dev Deposit ETH to a registered githubUser.\n  /// @param githubUser The receiving githubUser.\n  function depositEthForGithubUser(string calldata githubUser) external payable {\n    require(msg.value > 0, \"You must send ETH.\");\n    _nextUserDepositId++;\n    _userDeposits[_nextUserDepositId] = UserDeposit(msg.sender, msg.value, githubUser);\n    _userDepositIdsByGithubUser[githubUser].push(_nextUserDepositId);\n    _userDepositIdsBySender[msg.sender].push(_nextUserDepositId);\n    emit UserDepositEvent(msg.sender, msg.value, githubUser);\n  }\n\n  function withdrawUserDeposit(uint256 depositId) external {\n    require(_users[_usersByAddress[msg.sender]].account == msg.sender, \"GitHub account not registered with this Ethereum account.\");\n    require(keccak256(bytes(_userDeposits[depositId].githubUser)) == keccak256(bytes(_usersByAddress[msg.sender])), \"Deposit is not for this GitHub account.\");\n    payable(msg.sender).transfer(_userDeposits[depositId].amount);\n    delete _userDeposits[depositId];\n  }\n\n  function refundUserDeposit(uint256 depositId) external {\n    require(_userDeposits[depositId].from == msg.sender, \"Deposit did not came from this Ethereum account.\");\n    payable(msg.sender).transfer(_userDeposits[depositId].amount);\n    delete _userDeposits[depositId];\n  }\n\n  function getUserDepositIdsForGithubUser(string calldata githubUser) external view returns(uint256[] memory) {\n    return _userDepositIdsByGithubUser[githubUser];\n  }\n\n  function getUserDepositIdsForSender() external view returns(uint256[] memory) {\n    return _userDepositIdsBySender[msg.sender];\n  }\n\n  /// @dev Deposit ETH to a github issue.\n  /// @param issueId The receiving github issue.\n  function depositEthForIssue(string calldata issueId) external payable {\n    require(msg.value > 0, \"You must send ETH.\");\n    _nextIssueDepositId++;\n    _issueDeposits[_nextIssueDepositId] = IssueDeposit(msg.sender, msg.value, issueId);\n    _issueDepositIdsByIssueId[issueId].push(_nextIssueDepositId);\n    _issueDepositIdsBySender[msg.sender].push(_nextIssueDepositId);\n    emit IssueDepositEvent(msg.sender, msg.value, issueId);\n  }\n\n  function refundIssueDeposit(uint256 depositId) external {\n    require(_issueDeposits[depositId].from == msg.sender, \"Deposit did not came from this Ethereum account.\");\n    payable(msg.sender).transfer(_issueDeposits[depositId].amount);\n    delete _issueDeposits[depositId];\n  }\n\n  function getIssueDepositIdsForIssueId(string calldata issueId) external view returns(uint256[] memory) {\n    return _issueDepositIdsByIssueId[issueId];\n  }\n\n  function getIssueDepositIdsForSender() external view returns(uint256[] memory) {\n    return _issueDepositIdsBySender[msg.sender];\n  }\n\n  function pinIssue(string memory issueId, uint256 amount) public {\n    require(amount > 0, \"Amount must be greater zero.\");\n    _burn(msg.sender, amount);\n    _issueBoosts[issueId] += amount;\n  }\n\n  function claimPullRequest(string calldata prId, string calldata githubUser) external payable {\n    require(msg.value > 68000 * tx.gasprice, \"Claim fee (oracle cost) not covered.\");\n    require(_claimedPullRequests[prId] == false, \"Pull request already claimed.\");\n    require(_users[githubUser].account != address(0), \"This GitHub User is not registered.\");\n    payable(owner()).transfer(msg.value);\n    emit ClaimPrRequestEvent(prId, githubUser);\n  }\n\n  function confirmClaimPullRequest(string calldata prId, string calldata githubUser, uint256 score) external onlyOracles {\n    require(_claimedPullRequests[prId] == false, \"Pull request already claimed.\");\n    require(_users[githubUser].account != address(0), \"This GitHub User is not registered.\");\n    _claimedPullRequests[prId] = true;\n    _mint(_users[githubUser].account, score * uint256(10) ** decimals());\n    emit ClaimPrConfirmEvent(prId, githubUser, score);\n  }\n\n  function releaseIssueDeposits(string calldata issueId, string calldata githubUser) external payable {\n    require(msg.value > 50000 * tx.gasprice, \"Release fee (oracle cost) not covered.\");\n    require(_issueDepositIdsByIssueId[issueId].length > 0, \"Issue has no deposits to release.\");\n    require(_users[_usersByAddress[msg.sender]].account == msg.sender, \"No GitHub account registered with this Ethereum account.\");\n    payable(owner()).transfer(msg.value);\n    emit ReleaseIssueDepositsRequestEvent(issueId, githubUser, _usersByAddress[msg.sender]);\n  }\n\n  function confirmReleaseIssueDeposits(string calldata issueId, string calldata githubUser) external onlyOracles {\n    require(_issueDepositIdsByIssueId[issueId].length > 0, \"Issue has no deposits to release.\");\n    _releasedIssues[issueId] = githubUser;\n    emit ReleaseIssueDepositsConfirmEvent(issueId, githubUser);\n  }\n\n  function claimReleasedIssueDeposits(string calldata issueId) external {\n    require(_users[_usersByAddress[msg.sender]].account == msg.sender, \"No GitHub account registered with this Ethereum account.\");\n    require(keccak256(bytes(_releasedIssues[issueId])) == keccak256(bytes(_usersByAddress[msg.sender])), \"The GitHub account this issue was released to does not belong to this Ethereum account.\");\n\n    for (uint256 i = 0; i < _issueDepositIdsByIssueId[issueId].length; i++) {\n      if (_issueDeposits[_issueDepositIdsByIssueId[issueId][i]].amount > 0) {\n        payable(msg.sender).transfer(_issueDeposits[_issueDepositIdsByIssueId[issueId][i]].amount);\n      }\n      delete _issueDeposits[_issueDepositIdsByIssueId[issueId][i]];\n    }\n    delete _releasedIssues[issueId];\n  }\n}\n",
  "sourcePath": "/home/mkt/Projects/mergepay-contracts/contracts/MergePay.sol",
  "compiler": {
    "name": "solc",
    "version": "0.6.6+commit.6c089d02.Emscripten.clang"
  },
  "schemaVersion": "3.2.5",
  "updatedAt": "2020-11-26T02:55:45.905Z",
  "networkType": "ethereum",
  "devdoc": {
    "methods": {
      "allowance(address,address)": {
        "details": "See {IERC20-allowance}."
      },
      "approve(address,uint256)": {
        "details": "See {IERC20-approve}.     * Requirements:     * - `spender` cannot be the zero address."
      },
      "balanceOf(address)": {
        "details": "See {IERC20-balanceOf}."
      },
      "constructor": {
        "details": "Initiates MergeToken and set owner as oracle."
      },
      "decimals()": {
        "details": "Returns the number of decimals used to get its user representation. For example, if `decimals` equals `2`, a balance of `505` tokens should be displayed to a user as `5,05` (`505 / 10 ** 2`).     * Tokens usually opt for a value of 18, imitating the relationship between Ether and Wei. This is the value {ERC20} uses, unless {_setupDecimals} is called.     * NOTE: This information is only used for _display_ purposes: it in no way affects any of the arithmetic of the contract, including {IERC20-balanceOf} and {IERC20-transfer}."
      },
      "decreaseAllowance(address,uint256)": {
        "details": "Atomically decreases the allowance granted to `spender` by the caller.     * This is an alternative to {approve} that can be used as a mitigation for problems described in {IERC20-approve}.     * Emits an {Approval} event indicating the updated allowance.     * Requirements:     * - `spender` cannot be the zero address. - `spender` must have allowance for the caller of at least `subtractedValue`."
      },
      "depositEthForGithubUser(string)": {
        "details": "Deposit ETH to a registered githubUser.",
        "params": {
          "githubUser": "The receiving githubUser."
        }
      },
      "depositEthForIssue(string)": {
        "details": "Deposit ETH to a github issue.",
        "params": {
          "issueId": "The receiving github issue."
        }
      },
      "disableOracle(address)": {
        "params": {
          "oracle": "The oracle address to remove (cannot be owner)"
        }
      },
      "enableOracle(address)": {
        "params": {
          "oracle": "The oracle address to add"
        }
      },
      "increaseAllowance(address,uint256)": {
        "details": "Atomically increases the allowance granted to `spender` by the caller.     * This is an alternative to {approve} that can be used as a mitigation for problems described in {IERC20-approve}.     * Emits an {Approval} event indicating the updated allowance.     * Requirements:     * - `spender` cannot be the zero address."
      },
      "name()": {
        "details": "Returns the name of the token."
      },
      "owner()": {
        "details": "Returns the address of the current owner."
      },
      "register(string)": {
        "details": "Verify ownership over GitHub account by checking for a repositry ofgithubUser named after msg.sender. Adds user as unconfirmed and sendsan oracle request, that will be fullfilled in registerConfirm.",
        "params": {
          "githubUser": "The GitHub username to register"
        }
      },
      "registerConfirm(string,address)": {
        "details": "Oracle fullfill method. Sets unconfirmed user to confirmed if repo exists.",
        "params": {
          "account": "The Eth account to confirm",
          "githubUser": "The githubUser to confirm"
        }
      },
      "renounceOwnership()": {
        "details": "Leaves the contract without owner. It will not be possible to call `onlyOwner` functions anymore. Can only be called by the current owner.     * NOTE: Renouncing ownership will leave the contract without an owner, thereby removing any functionality that is only available to the owner."
      },
      "sendEthToGithubUser(string)": {
        "details": "Send ETH to a registered githubUser.",
        "params": {
          "githubUser": "The receiving githubUser."
        }
      },
      "symbol()": {
        "details": "Returns the symbol of the token, usually a shorter version of the name."
      },
      "totalSupply()": {
        "details": "See {IERC20-totalSupply}."
      },
      "transfer(address,uint256)": {
        "details": "See {IERC20-transfer}.     * Requirements:     * - `recipient` cannot be the zero address. - the caller must have a balance of at least `amount`."
      },
      "transferFrom(address,address,uint256)": {
        "details": "See {IERC20-transferFrom}.     * Emits an {Approval} event indicating the updated allowance. This is not required by the EIP. See the note at the beginning of {ERC20};     * Requirements: - `sender` and `recipient` cannot be the zero address. - `sender` must have a balance of at least `amount`. - the caller must have allowance for ``sender``'s tokens of at least `amount`."
      },
      "transferOwnership(address)": {
        "details": "Transfers ownership of the contract to a new account (`newOwner`). Can only be called by the current owner."
      }
    }
  },
  "userdoc": {
    "methods": {}
  }
}