{
  "contractName": "MergePay",
  "abi": [
    {
      "inputs": [],
      "stateMutability": "nonpayable",
      "type": "constructor"
    },
    {
      "anonymous": false,
      "inputs": [
        {
          "indexed": true,
          "internalType": "address",
          "name": "owner",
          "type": "address"
        },
        {
          "indexed": true,
          "internalType": "address",
          "name": "spender",
          "type": "address"
        },
        {
          "indexed": false,
          "internalType": "uint256",
          "name": "value",
          "type": "uint256"
        }
      ],
      "name": "Approval",
      "type": "event"
    },
    {
      "anonymous": false,
      "inputs": [
        {
          "indexed": false,
          "internalType": "address",
          "name": "account",
          "type": "address"
        },
        {
          "indexed": false,
          "internalType": "uint256",
          "name": "amount",
          "type": "uint256"
        },
        {
          "indexed": false,
          "internalType": "uint8",
          "name": "issueOrPr",
          "type": "uint8"
        },
        {
          "indexed": false,
          "internalType": "string",
          "name": "id",
          "type": "string"
        }
      ],
      "name": "DepositEvent",
      "type": "event"
    },
    {
      "anonymous": false,
      "inputs": [
        {
          "indexed": true,
          "internalType": "address",
          "name": "previousOwner",
          "type": "address"
        },
        {
          "indexed": true,
          "internalType": "address",
          "name": "newOwner",
          "type": "address"
        }
      ],
      "name": "OwnershipTransferred",
      "type": "event"
    },
    {
      "anonymous": false,
      "inputs": [
        {
          "indexed": false,
          "internalType": "address",
          "name": "account",
          "type": "address"
        },
        {
          "indexed": false,
          "internalType": "string",
          "name": "githubUser",
          "type": "string"
        },
        {
          "indexed": false,
          "internalType": "uint8",
          "name": "confirmations",
          "type": "uint8"
        }
      ],
      "name": "RegistrationConfirmedEvent",
      "type": "event"
    },
    {
      "anonymous": false,
      "inputs": [
        {
          "indexed": false,
          "internalType": "address",
          "name": "account",
          "type": "address"
        },
        {
          "indexed": false,
          "internalType": "string",
          "name": "githubUser",
          "type": "string"
        }
      ],
      "name": "RegistrationRequestEvent",
      "type": "event"
    },
    {
      "anonymous": false,
      "inputs": [
        {
          "indexed": true,
          "internalType": "address",
          "name": "from",
          "type": "address"
        },
        {
          "indexed": true,
          "internalType": "address",
          "name": "to",
          "type": "address"
        },
        {
          "indexed": false,
          "internalType": "uint256",
          "name": "value",
          "type": "uint256"
        }
      ],
      "name": "Transfer",
      "type": "event"
    },
    {
      "anonymous": false,
      "inputs": [
        {
          "indexed": false,
          "internalType": "uint256",
          "name": "id",
          "type": "uint256"
        }
      ],
      "name": "WithdrawalConfirmedEvent",
      "type": "event"
    },
    {
      "anonymous": false,
      "inputs": [
        {
          "indexed": false,
          "internalType": "address",
          "name": "account",
          "type": "address"
        },
        {
          "indexed": false,
          "internalType": "uint256",
          "name": "depositId",
          "type": "uint256"
        }
      ],
      "name": "WithdrawalRequestEvent",
      "type": "event"
    },
    {
      "inputs": [
        {
          "internalType": "uint256",
          "name": "",
          "type": "uint256"
        }
      ],
      "name": "_deposits",
      "outputs": [
        {
          "internalType": "address",
          "name": "account",
          "type": "address"
        },
        {
          "internalType": "uint256",
          "name": "amount",
          "type": "uint256"
        },
        {
          "internalType": "uint8",
          "name": "issueOrPr",
          "type": "uint8"
        },
        {
          "internalType": "string",
          "name": "id",
          "type": "string"
        },
        {
          "internalType": "uint256",
          "name": "addedTimestamp",
          "type": "uint256"
        },
        {
          "internalType": "uint256",
          "name": "lockedUntilTimestamp",
          "type": "uint256"
        }
      ],
      "stateMutability": "view",
      "type": "function",
      "constant": true
    },
    {
      "inputs": [
        {
          "internalType": "string",
          "name": "",
          "type": "string"
        },
        {
          "internalType": "uint256",
          "name": "",
          "type": "uint256"
        }
      ],
      "name": "_userDepositIdsByGithubUser",
      "outputs": [
        {
          "internalType": "uint256",
          "name": "",
          "type": "uint256"
        }
      ],
      "stateMutability": "view",
      "type": "function",
      "constant": true
    },
    {
      "inputs": [
        {
          "internalType": "address",
          "name": "",
          "type": "address"
        },
        {
          "internalType": "uint256",
          "name": "",
          "type": "uint256"
        }
      ],
      "name": "_userDepositIdsBySender",
      "outputs": [
        {
          "internalType": "uint256",
          "name": "",
          "type": "uint256"
        }
      ],
      "stateMutability": "view",
      "type": "function",
      "constant": true
    },
    {
      "inputs": [
        {
          "internalType": "uint256",
          "name": "",
          "type": "uint256"
        }
      ],
      "name": "_userDeposits",
      "outputs": [
        {
          "internalType": "address",
          "name": "from",
          "type": "address"
        },
        {
          "internalType": "uint256",
          "name": "amount",
          "type": "uint256"
        },
        {
          "internalType": "string",
          "name": "githubUser",
          "type": "string"
        }
      ],
      "stateMutability": "view",
      "type": "function",
      "constant": true
    },
    {
      "inputs": [
        {
          "internalType": "string",
          "name": "",
          "type": "string"
        }
      ],
      "name": "_users",
      "outputs": [
        {
          "internalType": "address",
          "name": "account",
          "type": "address"
        },
        {
          "internalType": "uint8",
          "name": "confirmations",
          "type": "uint8"
        }
      ],
      "stateMutability": "view",
      "type": "function",
      "constant": true
    },
    {
      "inputs": [
        {
          "internalType": "address",
          "name": "",
          "type": "address"
        }
      ],
      "name": "_usersByAddress",
      "outputs": [
        {
          "internalType": "string",
          "name": "",
          "type": "string"
        }
      ],
      "stateMutability": "view",
      "type": "function",
      "constant": true
    },
    {
      "inputs": [
        {
          "internalType": "uint256",
          "name": "",
          "type": "uint256"
        }
      ],
      "name": "_withdrawals",
      "outputs": [
        {
          "internalType": "address",
          "name": "account",
          "type": "address"
        },
        {
          "internalType": "uint256",
          "name": "depositId",
          "type": "uint256"
        },
        {
          "internalType": "uint8",
          "name": "confirmations",
          "type": "uint8"
        }
      ],
      "stateMutability": "view",
      "type": "function",
      "constant": true
    },
    {
      "inputs": [
        {
          "internalType": "address",
          "name": "owner",
          "type": "address"
        },
        {
          "internalType": "address",
          "name": "spender",
          "type": "address"
        }
      ],
      "name": "allowance",
      "outputs": [
        {
          "internalType": "uint256",
          "name": "",
          "type": "uint256"
        }
      ],
      "stateMutability": "view",
      "type": "function",
      "constant": true
    },
    {
      "inputs": [
        {
          "internalType": "address",
          "name": "spender",
          "type": "address"
        },
        {
          "internalType": "uint256",
          "name": "amount",
          "type": "uint256"
        }
      ],
      "name": "approve",
      "outputs": [
        {
          "internalType": "bool",
          "name": "",
          "type": "bool"
        }
      ],
      "stateMutability": "nonpayable",
      "type": "function"
    },
    {
      "inputs": [
        {
          "internalType": "address",
          "name": "account",
          "type": "address"
        }
      ],
      "name": "balanceOf",
      "outputs": [
        {
          "internalType": "uint256",
          "name": "",
          "type": "uint256"
        }
      ],
      "stateMutability": "view",
      "type": "function",
      "constant": true
    },
    {
      "inputs": [],
      "name": "decimals",
      "outputs": [
        {
          "internalType": "uint8",
          "name": "",
          "type": "uint8"
        }
      ],
      "stateMutability": "view",
      "type": "function",
      "constant": true
    },
    {
      "inputs": [
        {
          "internalType": "address",
          "name": "spender",
          "type": "address"
        },
        {
          "internalType": "uint256",
          "name": "subtractedValue",
          "type": "uint256"
        }
      ],
      "name": "decreaseAllowance",
      "outputs": [
        {
          "internalType": "bool",
          "name": "",
          "type": "bool"
        }
      ],
      "stateMutability": "nonpayable",
      "type": "function"
    },
    {
      "inputs": [
        {
          "internalType": "address",
          "name": "spender",
          "type": "address"
        },
        {
          "internalType": "uint256",
          "name": "addedValue",
          "type": "uint256"
        }
      ],
      "name": "increaseAllowance",
      "outputs": [
        {
          "internalType": "bool",
          "name": "",
          "type": "bool"
        }
      ],
      "stateMutability": "nonpayable",
      "type": "function"
    },
    {
      "inputs": [],
      "name": "name",
      "outputs": [
        {
          "internalType": "string",
          "name": "",
          "type": "string"
        }
      ],
      "stateMutability": "view",
      "type": "function",
      "constant": true
    },
    {
      "inputs": [],
      "name": "owner",
      "outputs": [
        {
          "internalType": "address",
          "name": "",
          "type": "address"
        }
      ],
      "stateMutability": "view",
      "type": "function",
      "constant": true
    },
    {
      "inputs": [],
      "name": "renounceOwnership",
      "outputs": [],
      "stateMutability": "nonpayable",
      "type": "function"
    },
    {
      "inputs": [],
      "name": "symbol",
      "outputs": [
        {
          "internalType": "string",
          "name": "",
          "type": "string"
        }
      ],
      "stateMutability": "view",
      "type": "function",
      "constant": true
    },
    {
      "inputs": [],
      "name": "totalSupply",
      "outputs": [
        {
          "internalType": "uint256",
          "name": "",
          "type": "uint256"
        }
      ],
      "stateMutability": "view",
      "type": "function",
      "constant": true
    },
    {
      "inputs": [
        {
          "internalType": "address",
          "name": "recipient",
          "type": "address"
        },
        {
          "internalType": "uint256",
          "name": "amount",
          "type": "uint256"
        }
      ],
      "name": "transfer",
      "outputs": [
        {
          "internalType": "bool",
          "name": "",
          "type": "bool"
        }
      ],
      "stateMutability": "nonpayable",
      "type": "function"
    },
    {
      "inputs": [
        {
          "internalType": "address",
          "name": "sender",
          "type": "address"
        },
        {
          "internalType": "address",
          "name": "recipient",
          "type": "address"
        },
        {
          "internalType": "uint256",
          "name": "amount",
          "type": "uint256"
        }
      ],
      "name": "transferFrom",
      "outputs": [
        {
          "internalType": "bool",
          "name": "",
          "type": "bool"
        }
      ],
      "stateMutability": "nonpayable",
      "type": "function"
    },
    {
      "inputs": [
        {
          "internalType": "address",
          "name": "newOwner",
          "type": "address"
        }
      ],
      "name": "transferOwnership",
      "outputs": [],
      "stateMutability": "nonpayable",
      "type": "function"
    },
    {
      "inputs": [
        {
          "internalType": "uint32",
          "name": "maxLockdays",
          "type": "uint32"
        }
      ],
      "name": "setMaxLockDays",
      "outputs": [],
      "stateMutability": "nonpayable",
      "type": "function"
    },
    {
      "inputs": [
        {
          "internalType": "uint8",
          "name": "minRegistrationConfirmations",
          "type": "uint8"
        }
      ],
      "name": "setMinRegistrationConfirmation",
      "outputs": [],
      "stateMutability": "nonpayable",
      "type": "function"
    },
    {
      "inputs": [
        {
          "internalType": "uint8",
          "name": "minWithdrawalConfirmations",
          "type": "uint8"
        }
      ],
      "name": "setMinWithdrawalConfirmation",
      "outputs": [],
      "stateMutability": "nonpayable",
      "type": "function"
    },
    {
      "inputs": [
        {
          "internalType": "address",
          "name": "oracle",
          "type": "address"
        }
      ],
      "name": "enableOracle",
      "outputs": [],
      "stateMutability": "nonpayable",
      "type": "function"
    },
    {
      "inputs": [
        {
          "internalType": "address",
          "name": "oracle",
          "type": "address"
        }
      ],
      "name": "disableOracle",
      "outputs": [],
      "stateMutability": "nonpayable",
      "type": "function"
    },
    {
      "inputs": [
        {
          "internalType": "uint8",
          "name": "issueOrPr",
          "type": "uint8"
        },
        {
          "internalType": "string",
          "name": "id",
          "type": "string"
        },
        {
          "internalType": "uint64",
          "name": "lockDays",
          "type": "uint64"
        }
      ],
      "name": "deposit",
      "outputs": [],
      "stateMutability": "payable",
      "type": "function",
      "payable": true
    },
    {
      "inputs": [
        {
          "internalType": "uint256",
          "name": "fromId",
          "type": "uint256"
        },
        {
          "internalType": "uint8",
          "name": "perpage",
          "type": "uint8"
        }
      ],
      "name": "getDeposits",
      "outputs": [
        {
          "internalType": "uint256[255]",
          "name": "ids",
          "type": "uint256[255]"
        }
      ],
      "stateMutability": "view",
      "type": "function",
      "constant": true
    },
    {
      "inputs": [
        {
          "internalType": "string",
          "name": "githubUser",
          "type": "string"
        }
      ],
      "name": "getDepositIdsForGithubUser",
      "outputs": [
        {
          "internalType": "uint256[]",
          "name": "",
          "type": "uint256[]"
        }
      ],
      "stateMutability": "view",
      "type": "function",
      "constant": true
    },
    {
      "inputs": [],
      "name": "getDepositIdsForSender",
      "outputs": [
        {
          "internalType": "uint256[]",
          "name": "",
          "type": "uint256[]"
        }
      ],
      "stateMutability": "view",
      "type": "function",
      "constant": true
    },
    {
      "inputs": [
        {
          "internalType": "string",
          "name": "githubUser",
          "type": "string"
        }
      ],
      "name": "register",
      "outputs": [],
      "stateMutability": "nonpayable",
      "type": "function"
    },
    {
      "inputs": [
        {
          "internalType": "string",
          "name": "githubUser",
          "type": "string"
        },
        {
          "internalType": "address",
          "name": "account",
          "type": "address"
        }
      ],
      "name": "registerConfirm",
      "outputs": [],
      "stateMutability": "nonpayable",
      "type": "function"
    },
    {
      "inputs": [
        {
          "internalType": "string",
          "name": "githubUser",
          "type": "string"
        }
      ],
      "name": "sendEthToGithubUser",
      "outputs": [],
      "stateMutability": "payable",
      "type": "function",
      "payable": true
    },
    {
      "inputs": [
        {
          "internalType": "string",
          "name": "githubUser",
          "type": "string"
        }
      ],
      "name": "depositEthForGithubUser",
      "outputs": [],
      "stateMutability": "payable",
      "type": "function",
      "payable": true
    },
    {
      "inputs": [
        {
          "internalType": "uint256",
          "name": "depositId",
          "type": "uint256"
        }
      ],
      "name": "withdrawUserDeposit",
      "outputs": [],
      "stateMutability": "nonpayable",
      "type": "function"
    },
    {
      "inputs": [
        {
          "internalType": "uint256",
          "name": "depositId",
          "type": "uint256"
        }
      ],
      "name": "refundUserDeposit",
      "outputs": [],
      "stateMutability": "nonpayable",
      "type": "function"
    },
    {
      "inputs": [
        {
          "internalType": "uint256",
          "name": "depositId",
          "type": "uint256"
        }
      ],
      "name": "refund",
      "outputs": [],
      "stateMutability": "nonpayable",
      "type": "function"
    },
    {
      "inputs": [
        {
          "internalType": "uint256",
          "name": "depositId",
          "type": "uint256"
        }
      ],
      "name": "forceRefund",
      "outputs": [],
      "stateMutability": "nonpayable",
      "type": "function"
    },
    {
      "inputs": [
        {
          "internalType": "uint256[]",
          "name": "depositIds",
          "type": "uint256[]"
        }
      ],
      "name": "refundAll",
      "outputs": [],
      "stateMutability": "nonpayable",
      "type": "function"
    },
    {
      "inputs": [
        {
          "internalType": "string",
          "name": "githubUser",
          "type": "string"
        }
      ],
      "name": "addUserToBlacklist",
      "outputs": [],
      "stateMutability": "nonpayable",
      "type": "function"
    },
    {
      "inputs": [
        {
          "internalType": "string",
          "name": "githubUser",
          "type": "string"
        }
      ],
      "name": "removeUserFromBlacklist",
      "outputs": [],
      "stateMutability": "nonpayable",
      "type": "function"
    },
    {
      "inputs": [
        {
          "internalType": "uint256",
          "name": "depositId",
          "type": "uint256"
        }
      ],
      "name": "withdraw",
      "outputs": [],
      "stateMutability": "nonpayable",
      "type": "function"
    },
    {
      "inputs": [
        {
          "internalType": "uint256",
          "name": "withdrawalId",
          "type": "uint256"
        }
      ],
      "name": "withdrawConfirm",
      "outputs": [],
      "stateMutability": "nonpayable",
      "type": "function"
    }
  ],
  "bytecode": "0x60806040526001600b556001600d55600160115560b4601260006101000a81548163ffffffff021916908363ffffffff1602179055506001601260046101000a81548160ff021916908360ff1602179055506001601260056101000a81548160ff021916908360ff1602179055503480156200007a57600080fd5b506040518060400160405280600b81526020017f4d6572676520546f6b656e0000000000000000000000000000000000000000008152506040518060400160405280600581526020017f4d455247450000000000000000000000000000000000000000000000000000008152508160039080519060200190620000ff92919062000287565b5080600490805190602001906200011892919062000287565b506012600560006101000a81548160ff021916908360ff16021790555050506000620001496200025560201b60201c565b905080600560016101000a81548173ffffffffffffffffffffffffffffffffffffffff021916908373ffffffffffffffffffffffffffffffffffffffff1602179055508073ffffffffffffffffffffffffffffffffffffffff16600073ffffffffffffffffffffffffffffffffffffffff167f8be0079c531659141344cd1fd0a4f28419497f9722a3daafe3b4186f6b6457e060405160405180910390a350600160066000620001fe6200025d60201b60201c565b73ffffffffffffffffffffffffffffffffffffffff1673ffffffffffffffffffffffffffffffffffffffff16815260200190815260200160002060006101000a81548160ff02191690831515021790555062000336565b600033905090565b6000600560019054906101000a900473ffffffffffffffffffffffffffffffffffffffff16905090565b828054600181600116156101000203166002900490600052602060002090601f016020900481019282601f10620002ca57805160ff1916838001178555620002fb565b82800160010185558215620002fb579182015b82811115620002fa578251825591602001919060010190620002dd565b5b5090506200030a91906200030e565b5090565b6200033391905b808211156200032f57600081600090555060010162000315565b5090565b90565b615d4680620003466000396000f3fe60806040526004361061025c5760003560e01c806370a0823111610144578063cc362d48116100b6578063ed8d3b711161007a578063ed8d3b7114610978578063efda0fd6146109a1578063f2c298be146109bd578063f2fde38b146109e6578063f4c705ab14610a0f578063f6e4f11914610a385761025c565b8063cc362d481461087c578063ce85fc46146108b9578063dd62ed3e146108f6578063df23862114610933578063ea36a6721461095c5761025c565b80639996f186116101085780639996f18614610743578063a457c2d71461075f578063a9059cbb1461079c578063c29353c1146107d9578063c315fbca14610816578063c695389d1461083f5761025c565b806370a0823114610670578063715018a6146106ad5780637400e617146106c45780638da5cb5b146106ed57806395d89b41146107185761025c565b80632e1a7d4d116101dd578063463b63de116101a1578063463b63de1461054e57806353d89b011461058d5780635d3dd29d146105b657806360445fb2146105f35780636553ae891461061c5780636ee0f7f9146106475761025c565b80632e1a7d4d14610452578063313ce5671461047b57806339509351146104a65780633b9d08d9146104e35780633c5baedf146105255761025c565b806318160ddd1161022457806318160ddd1461035a57806321ec48691461038557806323b872dd146103c35780632679225114610400578063278ecde1146104295761025c565b806305f8d94c1461026157806306fdde031461028a578063095ea7b3146102b557806309d406a1146102f25780630cb517471461031b575b600080fd5b34801561026d57600080fd5b506102886004803603810190610283919061469a565b610a61565b005b34801561029657600080fd5b5061029f610c60565b6040516102ac9190615655565b60405180910390f35b3480156102c157600080fd5b506102dc60048036038101906102d791906144e7565b610d02565b6040516102e9919061563a565b60405180910390f35b3480156102fe57600080fd5b50610319600480360381019061031491906145ad565b610d20565b005b34801561032757600080fd5b50610342600480360381019061033d919061469a565b610f9e565b604051610351939291906154f6565b60405180910390f35b34801561036657600080fd5b5061036f611080565b60405161037c91906159d7565b60405180910390f35b34801561039157600080fd5b506103ac60048036038101906103a79190614605565b61108a565b6040516103ba9291906155d3565b60405180910390f35b3480156103cf57600080fd5b506103ea60048036038101906103e59190614498565b6110f1565b6040516103f7919061563a565b60405180910390f35b34801561040c57600080fd5b506104276004803603810190610422919061469a565b6111ca565b005b34801561043557600080fd5b50610450600480360381019061044b919061469a565b611563565b005b34801561045e57600080fd5b506104796004803603810190610474919061469a565b6116ed565b005b34801561048757600080fd5b50610490611a21565b60405161049d91906159f2565b60405180910390f35b3480156104b257600080fd5b506104cd60048036038101906104c891906144e7565b611a38565b6040516104da919061563a565b60405180910390f35b3480156104ef57600080fd5b5061050a6004803603810190610505919061469a565b611aeb565b60405161051c9695949392919061556b565b60405180910390f35b34801561053157600080fd5b5061054c60048036038101906105479190614568565b611bec565b005b34801561055a57600080fd5b506105756004803603810190610570919061469a565b611cb5565b60405161058493929190615534565b60405180910390f35b34801561059957600080fd5b506105b460048036038101906105af9190614568565b611d0c565b005b3480156105c257600080fd5b506105dd60048036038101906105d89190614646565b611dd5565b6040516105ea91906159d7565b60405180910390f35b3480156105ff57600080fd5b5061061a6004803603810190610615919061469a565b611e19565b005b34801561062857600080fd5b50610631611f72565b60405161063e9190615618565b60405180910390f35b34801561065357600080fd5b5061066e600480360381019061066991906146ff565b612007565b005b34801561067c57600080fd5b5061069760048036038101906106929190614433565b6120c2565b6040516106a491906159d7565b60405180910390f35b3480156106b957600080fd5b506106c261210a565b005b3480156106d057600080fd5b506106eb60048036038101906106e69190614433565b612262565b005b3480156106f957600080fd5b50610702612456565b60405161070f91906153f2565b60405180910390f35b34801561072457600080fd5b5061072d612480565b60405161073a9190615655565b60405180910390f35b61075d60048036038101906107589190614568565b612522565b005b34801561076b57600080fd5b50610786600480360381019061078191906144e7565b612727565b604051610793919061563a565b60405180910390f35b3480156107a857600080fd5b506107c360048036038101906107be91906144e7565b6127f4565b6040516107d0919061563a565b60405180910390f35b3480156107e557600080fd5b5061080060048036038101906107fb91906146c3565b612812565b60405161080d91906155fc565b60405180910390f35b34801561082257600080fd5b5061083d6004803603810190610838919061469a565b612893565b005b34801561084b57600080fd5b50610866600480360381019061086191906144e7565b612af4565b60405161087391906159d7565b60405180910390f35b34801561088857600080fd5b506108a3600480360381019061089e9190614568565b612b22565b6040516108b09190615618565b60405180910390f35b3480156108c557600080fd5b506108e060048036038101906108db9190614433565b612b9b565b6040516108ed9190615655565b60405180910390f35b34801561090257600080fd5b5061091d6004803603810190610918919061445c565b612c4b565b60405161092a91906159d7565b60405180910390f35b34801561093f57600080fd5b5061095a60048036038101906109559190614728565b612cd2565b005b61097660048036038101906109719190614751565b612d87565b005b34801561098457600080fd5b5061099f600480360381019061099a9190614728565b613022565b005b6109bb60048036038101906109b69190614568565b6130d7565b005b3480156109c957600080fd5b506109e460048036038101906109df9190614568565b61334e565b005b3480156109f257600080fd5b50610a0d6004803603810190610a089190614433565b61359c565b005b348015610a1b57600080fd5b50610a366004803603810190610a319190614433565b613763565b005b348015610a4457600080fd5b50610a5f6004803603810190610a5a9190614523565b613855565b005b610a69613aa1565b73ffffffffffffffffffffffffffffffffffffffff16600560019054906101000a900473ffffffffffffffffffffffffffffffffffffffff1673ffffffffffffffffffffffffffffffffffffffff1614610af8576040517f08c379a0000000000000000000000000000000000000000000000000000000008152600401610aef906157f7565b60405180910390fd5b6000600a60008381526020019081526020016000206001015411610b51576040517f08c379a0000000000000000000000000000000000000000000000000000000008152600401610b4890615857565b60405180910390fd5b600a600082815260200190815260200160002060000160009054906101000a900473ffffffffffffffffffffffffffffffffffffffff1673ffffffffffffffffffffffffffffffffffffffff166108fc600a6000848152602001908152602001600020600101549081150290604051600060405180830381858888f19350505050158015610be3573d6000803e3d6000fd5b50600a6000828152602001908152602001600020600080820160006101000a81549073ffffffffffffffffffffffffffffffffffffffff021916905560018201600090556002820160006101000a81549060ff0219169055600382016000610c4b9190614152565b60048201600090556005820160009055505050565b606060038054600181600116156101000203166002900480601f016020809104026020016040519081016040528092919081815260200182805460018160011615610100020316600290048015610cf85780601f10610ccd57610100808354040283529160200191610cf8565b820191906000526020600020905b815481529060010190602001808311610cdb57829003601f168201915b5050505050905090565b6000610d16610d0f613aa1565b8484613aa9565b6001905092915050565b600660003373ffffffffffffffffffffffffffffffffffffffff1673ffffffffffffffffffffffffffffffffffffffff16815260200190815260200160002060009054906101000a900460ff16610dac576040517f08c379a0000000000000000000000000000000000000000000000000000000008152600401610da390615937565b60405180910390fd5b600073ffffffffffffffffffffffffffffffffffffffff1660078484604051610dd69291906153c2565b908152602001604051809103902060000160009054906101000a900473ffffffffffffffffffffffffffffffffffffffff1673ffffffffffffffffffffffffffffffffffffffff1614158015610e9a57508073ffffffffffffffffffffffffffffffffffffffff1660078484604051610e509291906153c2565b908152602001604051809103902060000160009054906101000a900473ffffffffffffffffffffffffffffffffffffffff1673ffffffffffffffffffffffffffffffffffffffff16145b610ed9576040517f08c379a0000000000000000000000000000000000000000000000000000000008152600401610ed0906156f7565b60405180910390fd5b60078383604051610eeb9291906153c2565b9081526020016040518091039020600001601481819054906101000a900460ff168092919060010191906101000a81548160ff021916908360ff160217905550507f14981f93b4dfbdeeacc0c0656b97fdb708833a3aadb4858f1e18a110d4c8fcd181848460078787604051610f629291906153c2565b908152602001604051809103902060000160149054906101000a900460ff16604051610f9194939291906154b6565b60405180910390a1505050565b600c6020528060005260406000206000915090508060000160009054906101000a900473ffffffffffffffffffffffffffffffffffffffff1690806001015490806002018054600181600116156101000203166002900480601f0160208091040260200160405190810160405280929190818152602001828054600181600116156101000203166002900480156110765780601f1061104b57610100808354040283529160200191611076565b820191906000526020600020905b81548152906001019060200180831161105957829003601f168201915b5050505050905083565b6000600254905090565b6007818051602081018201805184825260208301602085012081835280955050505050506000915090508060000160009054906101000a900473ffffffffffffffffffffffffffffffffffffffff16908060000160149054906101000a900460ff16905082565b60006110fe848484613c74565b6111bf8461110a613aa1565b6111ba85604051806060016040528060288152602001615cc460289139600160008b73ffffffffffffffffffffffffffffffffffffffff1673ffffffffffffffffffffffffffffffffffffffff1681526020019081526020016000206000611170613aa1565b73ffffffffffffffffffffffffffffffffffffffff1673ffffffffffffffffffffffffffffffffffffffff16815260200190815260200160002054613f099092919063ffffffff16565b613aa9565b600190509392505050565b600660003373ffffffffffffffffffffffffffffffffffffffff1673ffffffffffffffffffffffffffffffffffffffff16815260200190815260200160002060009054906101000a900460ff16611256576040517f08c379a000000000000000000000000000000000000000000000000000000000815260040161124d90615937565b60405180910390fd5b600073ffffffffffffffffffffffffffffffffffffffff166010600083815260200190815260200160002060000160009054906101000a900473ffffffffffffffffffffffffffffffffffffffff1673ffffffffffffffffffffffffffffffffffffffff1614156112fc576040517f08c379a00000000000000000000000000000000000000000000000000000000081526004016112f3906158b7565b60405180910390fd5b6000600a600060106000858152602001908152602001600020600101548152602001908152602001600020600101541161136b576040517f08c379a000000000000000000000000000000000000000000000000000000000815260040161136290615837565b60405180910390fd5b60106000828152602001908152602001600020600201600081819054906101000a900460ff168092919060010191906101000a81548160ff021916908360ff16021790555050601260059054906101000a900460ff1660ff166010600083815260200190815260200160002060020160009054906101000a900460ff1660ff1610611560576010600082815260200190815260200160002060000160009054906101000a900473ffffffffffffffffffffffffffffffffffffffff1673ffffffffffffffffffffffffffffffffffffffff166108fc600a600060106000868152602001908152602001600020600101548152602001908152602001600020600101549081150290604051600060405180830381858888f19350505050158015611498573d6000803e3d6000fd5b50600a600060106000848152602001908152602001600020600101548152602001908152602001600020600080820160006101000a81549073ffffffffffffffffffffffffffffffffffffffff021916905560018201600090556002820160006101000a81549060ff02191690556003820160006115169190614152565b6004820160009055600582016000905550507fe307e35f0c32a8d5a81cd7ab1fa85103d1d541d6ff073fde74ff666e5390cfb18160405161155791906159d7565b60405180910390a15b50565b6000600a600083815260200190815260200160002060010154116115bc576040517f08c379a00000000000000000000000000000000000000000000000000000000081526004016115b390615857565b60405180910390fd5b42600a60008381526020019081526020016000206005015410611614576040517f08c379a000000000000000000000000000000000000000000000000000000000815260040161160b90615917565b60405180910390fd5b3373ffffffffffffffffffffffffffffffffffffffff166108fc600a6000848152602001908152602001600020600101549081150290604051600060405180830381858888f19350505050158015611670573d6000803e3d6000fd5b50600a6000828152602001908152602001600020600080820160006101000a81549073ffffffffffffffffffffffffffffffffffffffff021916905560018201600090556002820160006101000a81549060ff02191690556003820160006116d89190614152565b60048201600090556005820160009055505050565b6000600a60008381526020019081526020016000206001015411611746576040517f08c379a000000000000000000000000000000000000000000000000000000000815260040161173d906157d7565b60405180910390fd5b6000600860003373ffffffffffffffffffffffffffffffffffffffff1673ffffffffffffffffffffffffffffffffffffffff1681526020019081526020016000208054600181600116156101000203166002900490501415801561182b5750601260049054906101000a900460ff1660ff166007600860003373ffffffffffffffffffffffffffffffffffffffff1673ffffffffffffffffffffffffffffffffffffffff16815260200190815260200160002060405161180691906153db565b908152602001604051809103902060000160149054906101000a900460ff1660ff1610155b61186a576040517f08c379a000000000000000000000000000000000000000000000000000000000815260040161186190615957565b60405180910390fd5b6009600860003373ffffffffffffffffffffffffffffffffffffffff1673ffffffffffffffffffffffffffffffffffffffff1681526020019081526020016000206040516118b891906153db565b908152602001604051809103902060009054906101000a900460ff1615611914576040517f08c379a000000000000000000000000000000000000000000000000000000000815260040161190b906158d7565b60405180910390fd5b60405180606001604052803373ffffffffffffffffffffffffffffffffffffffff168152602001828152602001600060ff1681525060106000601154815260200190815260200160002060008201518160000160006101000a81548173ffffffffffffffffffffffffffffffffffffffff021916908373ffffffffffffffffffffffffffffffffffffffff1602179055506020820151816001015560408201518160020160006101000a81548160ff021916908360ff1602179055509050506011600081548092919060010191905055507facd0d3abea58a498c09ef478e7f28149549ca4baf3c4247dee014a7ecf04ab4d3382604051611a1692919061543f565b60405180910390a150565b6000600560009054906101000a900460ff16905090565b6000611ae1611a45613aa1565b84611adc8560016000611a56613aa1565b73ffffffffffffffffffffffffffffffffffffffff1673ffffffffffffffffffffffffffffffffffffffff16815260200190815260200160002060008973ffffffffffffffffffffffffffffffffffffffff1673ffffffffffffffffffffffffffffffffffffffff16815260200190815260200160002054613f6490919063ffffffff16565b613aa9565b6001905092915050565b600a6020528060005260406000206000915090508060000160009054906101000a900473ffffffffffffffffffffffffffffffffffffffff16908060010154908060020160009054906101000a900460ff1690806003018054600181600116156101000203166002900480601f016020809104026020016040519081016040528092919081815260200182805460018160011615610100020316600290048015611bd65780601f10611bab57610100808354040283529160200191611bd6565b820191906000526020600020905b815481529060010190602001808311611bb957829003601f168201915b5050505050908060040154908060050154905086565b600660003373ffffffffffffffffffffffffffffffffffffffff1673ffffffffffffffffffffffffffffffffffffffff16815260200190815260200160002060009054906101000a900460ff16611c78576040517f08c379a0000000000000000000000000000000000000000000000000000000008152600401611c6f90615937565b60405180910390fd5b600060098383604051611c8c9291906153c2565b908152602001604051809103902060006101000a81548160ff0219169083151502179055505050565b60106020528060005260406000206000915090508060000160009054906101000a900473ffffffffffffffffffffffffffffffffffffffff16908060010154908060020160009054906101000a900460ff16905083565b600660003373ffffffffffffffffffffffffffffffffffffffff1673ffffffffffffffffffffffffffffffffffffffff16815260200190815260200160002060009054906101000a900460ff16611d98576040517f08c379a0000000000000000000000000000000000000000000000000000000008152600401611d8f90615937565b60405180910390fd5b600160098383604051611dac9291906153c2565b908152602001604051809103902060006101000a81548160ff0219169083151502179055505050565b600e828051602081018201805184825260208301602085012081835280955050505050508181548110611e0457fe5b90600052602060002001600091509150505481565b3373ffffffffffffffffffffffffffffffffffffffff16600c600083815260200190815260200160002060000160009054906101000a900473ffffffffffffffffffffffffffffffffffffffff1673ffffffffffffffffffffffffffffffffffffffff1614611ebd576040517f08c379a0000000000000000000000000000000000000000000000000000000008152600401611eb490615737565b60405180910390fd5b3373ffffffffffffffffffffffffffffffffffffffff166108fc600c6000848152602001908152602001600020600101549081150290604051600060405180830381858888f19350505050158015611f19573d6000803e3d6000fd5b50600c6000828152602001908152602001600020600080820160006101000a81549073ffffffffffffffffffffffffffffffffffffffff02191690556001820160009055600282016000611f6d9190614152565b505050565b6060600f60003373ffffffffffffffffffffffffffffffffffffffff1673ffffffffffffffffffffffffffffffffffffffff168152602001908152602001600020805480602002602001604051908101604052809291908181526020018280548015611ffd57602002820191906000526020600020905b815481526020019060010190808311611fe9575b5050505050905090565b61200f613aa1565b73ffffffffffffffffffffffffffffffffffffffff16600560019054906101000a900473ffffffffffffffffffffffffffffffffffffffff1673ffffffffffffffffffffffffffffffffffffffff161461209e576040517f08c379a0000000000000000000000000000000000000000000000000000000008152600401612095906157f7565b60405180910390fd5b80601260006101000a81548163ffffffff021916908363ffffffff16021790555050565b60008060008373ffffffffffffffffffffffffffffffffffffffff1673ffffffffffffffffffffffffffffffffffffffff168152602001908152602001600020549050919050565b612112613aa1565b73ffffffffffffffffffffffffffffffffffffffff16600560019054906101000a900473ffffffffffffffffffffffffffffffffffffffff1673ffffffffffffffffffffffffffffffffffffffff16146121a1576040517f08c379a0000000000000000000000000000000000000000000000000000000008152600401612198906157f7565b60405180910390fd5b600073ffffffffffffffffffffffffffffffffffffffff16600560019054906101000a900473ffffffffffffffffffffffffffffffffffffffff1673ffffffffffffffffffffffffffffffffffffffff167f8be0079c531659141344cd1fd0a4f28419497f9722a3daafe3b4186f6b6457e060405160405180910390a36000600560016101000a81548173ffffffffffffffffffffffffffffffffffffffff021916908373ffffffffffffffffffffffffffffffffffffffff160217905550565b61226a613aa1565b73ffffffffffffffffffffffffffffffffffffffff16600560019054906101000a900473ffffffffffffffffffffffffffffffffffffffff1673ffffffffffffffffffffffffffffffffffffffff16146122f9576040517f08c379a00000000000000000000000000000000000000000000000000000000081526004016122f0906157f7565b60405180910390fd5b600660008273ffffffffffffffffffffffffffffffffffffffff1673ffffffffffffffffffffffffffffffffffffffff16815260200190815260200160002060009054906101000a900460ff16612385576040517f08c379a000000000000000000000000000000000000000000000000000000000815260040161237c90615897565b60405180910390fd5b61238d612456565b73ffffffffffffffffffffffffffffffffffffffff168173ffffffffffffffffffffffffffffffffffffffff1614156123fb576040517f08c379a00000000000000000000000000000000000000000000000000000000081526004016123f290615757565b60405180910390fd5b6000600660008373ffffffffffffffffffffffffffffffffffffffff1673ffffffffffffffffffffffffffffffffffffffff16815260200190815260200160002060006101000a81548160ff02191690831515021790555050565b6000600560019054906101000a900473ffffffffffffffffffffffffffffffffffffffff16905090565b606060048054600181600116156101000203166002900480601f0160208091040260200160405190810160405280929190818152602001828054600181600116156101000203166002900480156125185780601f106124ed57610100808354040283529160200191612518565b820191906000526020600020905b8154815290600101906020018083116124fb57829003601f168201915b5050505050905090565b60003411612565576040517f08c379a000000000000000000000000000000000000000000000000000000000815260040161255c90615997565b60405180910390fd5b600d6000815480929190600101919050555060405180606001604052803373ffffffffffffffffffffffffffffffffffffffff16815260200134815260200183838080601f016020809104026020016040519081016040528093929190818152602001838380828437600081840152601f19601f82011690508083019250505050505050815250600c6000600d54815260200190815260200160002060008201518160000160006101000a81548173ffffffffffffffffffffffffffffffffffffffff021916908373ffffffffffffffffffffffffffffffffffffffff16021790555060208201518160010155604082015181600201908051906020019061266e92919061419a565b50905050600e82826040516126849291906153c2565b9081526020016040518091039020600d549080600181540180825580915050600190039060005260206000200160009091909190915055600f60003373ffffffffffffffffffffffffffffffffffffffff1673ffffffffffffffffffffffffffffffffffffffff168152602001908152602001600020600d5490806001815401808255809150506001900390600052602060002001600090919091909150555050565b60006127ea612734613aa1565b846127e585604051806060016040528060258152602001615cec602591396001600061275e613aa1565b73ffffffffffffffffffffffffffffffffffffffff1673ffffffffffffffffffffffffffffffffffffffff16815260200190815260200160002060008a73ffffffffffffffffffffffffffffffffffffffff1673ffffffffffffffffffffffffffffffffffffffff16815260200190815260200160002054613f099092919063ffffffff16565b613aa9565b6001905092915050565b6000612808612801613aa1565b8484613c74565b6001905092915050565b61281a61421a565b60008090505b8260ff168160ff161080156128355750600084115b15612889576000600a600086815260200190815260200160002060010154111561287b5783828260ff1660ff811061286957fe5b60200201818152505080806001019150505b838060019003945050612820565b8191505092915050565b3373ffffffffffffffffffffffffffffffffffffffff166007600860003373ffffffffffffffffffffffffffffffffffffffff1673ffffffffffffffffffffffffffffffffffffffff1681526020019081526020016000206040516128f891906153db565b908152602001604051809103902060000160009054906101000a900473ffffffffffffffffffffffffffffffffffffffff1673ffffffffffffffffffffffffffffffffffffffff1614612980576040517f08c379a000000000000000000000000000000000000000000000000000000000815260040161297790615977565b60405180910390fd5b600860003373ffffffffffffffffffffffffffffffffffffffff1673ffffffffffffffffffffffffffffffffffffffff1681526020019081526020016000206040516129cc91906153ab565b6040518091039020600c60008381526020019081526020016000206002016040516129f791906153ab565b604051809103902014612a3f576040517f08c379a0000000000000000000000000000000000000000000000000000000008152600401612a3690615797565b60405180910390fd5b3373ffffffffffffffffffffffffffffffffffffffff166108fc600c6000848152602001908152602001600020600101549081150290604051600060405180830381858888f19350505050158015612a9b573d6000803e3d6000fd5b50600c6000828152602001908152602001600020600080820160006101000a81549073ffffffffffffffffffffffffffffffffffffffff02191690556001820160009055600282016000612aef9190614152565b505050565b600f6020528160005260406000208181548110612b0d57fe5b90600052602060002001600091509150505481565b6060600e8383604051612b369291906153c2565b9081526020016040518091039020805480602002602001604051908101604052809291908181526020018280548015612b8e57602002820191906000526020600020905b815481526020019060010190808311612b7a575b5050505050905092915050565b60086020528060005260406000206000915090508054600181600116156101000203166002900480601f016020809104026020016040519081016040528092919081815260200182805460018160011615610100020316600290048015612c435780601f10612c1857610100808354040283529160200191612c43565b820191906000526020600020905b815481529060010190602001808311612c2657829003601f168201915b505050505081565b6000600160008473ffffffffffffffffffffffffffffffffffffffff1673ffffffffffffffffffffffffffffffffffffffff16815260200190815260200160002060008373ffffffffffffffffffffffffffffffffffffffff1673ffffffffffffffffffffffffffffffffffffffff16815260200190815260200160002054905092915050565b612cda613aa1565b73ffffffffffffffffffffffffffffffffffffffff16600560019054906101000a900473ffffffffffffffffffffffffffffffffffffffff1673ffffffffffffffffffffffffffffffffffffffff1614612d69576040517f08c379a0000000000000000000000000000000000000000000000000000000008152600401612d60906157f7565b60405180910390fd5b80601260056101000a81548160ff021916908360ff16021790555050565b60003411612dca576040517f08c379a0000000000000000000000000000000000000000000000000000000008152600401612dc190615817565b60405180910390fd5b601260009054906101000a900463ffffffff1663ffffffff168167ffffffffffffffff161115612e1057601260009054906101000a900463ffffffff1663ffffffff1690505b6040518060c001604052803373ffffffffffffffffffffffffffffffffffffffff1681526020013481526020018560ff16815260200184848080601f016020809104026020016040519081016040528093929190818152602001838380828437600081840152601f19601f82011690508083019250505050505050815260200142815260200162015180830267ffffffffffffffff164201815250600a6000600b54815260200190815260200160002060008201518160000160006101000a81548173ffffffffffffffffffffffffffffffffffffffff021916908373ffffffffffffffffffffffffffffffffffffffff1602179055506020820151816001015560408201518160020160006101000a81548160ff021916908360ff1602179055506060820151816003019080519060200190612f4e92919061419a565b506080820151816004015560a08201518160050155905050600b600081548092919060010191905055507f5bf198d2cf8692cce4db4475edc529d290ab7c7ab8844bae573ddedbb8d094dc3334868686604051612faf959493929190615468565b60405180910390a160008167ffffffffffffffff16111561301c5761301b336002601260009054906101000a900463ffffffff1663ffffffff1681612ff057fe5b0463ffffffff168367ffffffffffffffff168161300957fe5b0467ffffffffffffffff163402613fb9565b5b50505050565b61302a613aa1565b73ffffffffffffffffffffffffffffffffffffffff16600560019054906101000a900473ffffffffffffffffffffffffffffffffffffffff1673ffffffffffffffffffffffffffffffffffffffff16146130b9576040517f08c379a00000000000000000000000000000000000000000000000000000000081526004016130b0906157f7565b60405180910390fd5b80601260046101000a81548160ff021916908360ff16021790555050565b6000341161311a576040517f08c379a000000000000000000000000000000000000000000000000000000000815260040161311190615997565b60405180910390fd5b600073ffffffffffffffffffffffffffffffffffffffff16600783836040516131449291906153c2565b908152602001604051809103902060000160009054906101000a900473ffffffffffffffffffffffffffffffffffffffff1673ffffffffffffffffffffffffffffffffffffffff1614156131cd576040517f08c379a00000000000000000000000000000000000000000000000000000000081526004016131c490615777565b60405180910390fd5b601260049054906101000a900460ff1660ff16600783836040516131f29291906153c2565b908152602001604051809103902060000160149054906101000a900460ff1660ff161015613255576040517f08c379a000000000000000000000000000000000000000000000000000000000815260040161324c906157b7565b60405180910390fd5b600782826040516132679291906153c2565b908152602001604051809103902060000160009054906101000a900473ffffffffffffffffffffffffffffffffffffffff1673ffffffffffffffffffffffffffffffffffffffff166108fc349081150290604051600060405180830381858888f193505050501580156132de573d6000803e3d6000fd5b50613336600783836040516132f49291906153c2565b908152602001604051809103902060000160009054906101000a900473ffffffffffffffffffffffffffffffffffffffff166064348161333057fe5b04613fb9565b61334a336064348161334457fe5b04613fb9565b5050565b600073ffffffffffffffffffffffffffffffffffffffff16600783836040516133789291906153c2565b908152602001604051809103902060000160009054906101000a900473ffffffffffffffffffffffffffffffffffffffff1673ffffffffffffffffffffffffffffffffffffffff16146134545760086000600784846040516133db9291906153c2565b908152602001604051809103902060000160009054906101000a900473ffffffffffffffffffffffffffffffffffffffff1673ffffffffffffffffffffffffffffffffffffffff1673ffffffffffffffffffffffffffffffffffffffff16815260200190815260200160002060006134539190614152565b5b60405180604001604052803373ffffffffffffffffffffffffffffffffffffffff168152602001600060ff16815250600783836040516134959291906153c2565b908152602001604051809103902060008201518160000160006101000a81548173ffffffffffffffffffffffffffffffffffffffff021916908373ffffffffffffffffffffffffffffffffffffffff16021790555060208201518160000160146101000a81548160ff021916908360ff1602179055509050508181600860003373ffffffffffffffffffffffffffffffffffffffff1673ffffffffffffffffffffffffffffffffffffffff168152602001908152602001600020919061355c92919061423d565b507fd417e304669e6bf903f41a03f5ce981dac00416cf5034cd47d22fcb0c67c96bd3383836040516135909392919061540d565b60405180910390a15050565b6135a4613aa1565b73ffffffffffffffffffffffffffffffffffffffff16600560019054906101000a900473ffffffffffffffffffffffffffffffffffffffff1673ffffffffffffffffffffffffffffffffffffffff1614613633576040517f08c379a000000000000000000000000000000000000000000000000000000000815260040161362a906157f7565b60405180910390fd5b600073ffffffffffffffffffffffffffffffffffffffff168173ffffffffffffffffffffffffffffffffffffffff1614156136a3576040517f08c379a000000000000000000000000000000000000000000000000000000000815260040161369a90615697565b60405180910390fd5b8073ffffffffffffffffffffffffffffffffffffffff16600560019054906101000a900473ffffffffffffffffffffffffffffffffffffffff1673ffffffffffffffffffffffffffffffffffffffff167f8be0079c531659141344cd1fd0a4f28419497f9722a3daafe3b4186f6b6457e060405160405180910390a380600560016101000a81548173ffffffffffffffffffffffffffffffffffffffff021916908373ffffffffffffffffffffffffffffffffffffffff16021790555050565b61376b613aa1565b73ffffffffffffffffffffffffffffffffffffffff16600560019054906101000a900473ffffffffffffffffffffffffffffffffffffffff1673ffffffffffffffffffffffffffffffffffffffff16146137fa576040517f08c379a00000000000000000000000000000000000000000000000000000000081526004016137f1906157f7565b60405180910390fd5b6001600660008373ffffffffffffffffffffffffffffffffffffffff1673ffffffffffffffffffffffffffffffffffffffff16815260200190815260200160002060006101000a81548160ff02191690831515021790555050565b600080905060005b83839050811015613a11576000600a600086868581811061387a57fe5b9050602002013581526020019081526020016000206001015411801561391357503373ffffffffffffffffffffffffffffffffffffffff16600a60008686858181106138c257fe5b90506020020135815260200190815260200160002060000160009054906101000a900473ffffffffffffffffffffffffffffffffffffffff1673ffffffffffffffffffffffffffffffffffffffff16145b8015613946575042600a600086868581811061392b57fe5b90506020020135815260200190815260200160002060050154105b15613a0457600a600085858481811061395b57fe5b9050602002013581526020019081526020016000206001015482019150600a600085858481811061398857fe5b905060200201358152602001908152602001600020600080820160006101000a81549073ffffffffffffffffffffffffffffffffffffffff021916905560018201600090556002820160006101000a81549060ff02191690556003820160006139f19190614152565b6004820160009055600582016000905550505b808060010191505061385d565b5060008111613a55576040517f08c379a0000000000000000000000000000000000000000000000000000000008152600401613a4c906156d7565b60405180910390fd5b3373ffffffffffffffffffffffffffffffffffffffff166108fc829081150290604051600060405180830381858888f19350505050158015613a9b573d6000803e3d6000fd5b50505050565b600033905090565b600073ffffffffffffffffffffffffffffffffffffffff168373ffffffffffffffffffffffffffffffffffffffff161415613b19576040517f08c379a0000000000000000000000000000000000000000000000000000000008152600401613b10906158f7565b60405180910390fd5b600073ffffffffffffffffffffffffffffffffffffffff168273ffffffffffffffffffffffffffffffffffffffff161415613b89576040517f08c379a0000000000000000000000000000000000000000000000000000000008152600401613b80906156b7565b60405180910390fd5b80600160008573ffffffffffffffffffffffffffffffffffffffff1673ffffffffffffffffffffffffffffffffffffffff16815260200190815260200160002060008473ffffffffffffffffffffffffffffffffffffffff1673ffffffffffffffffffffffffffffffffffffffff168152602001908152602001600020819055508173ffffffffffffffffffffffffffffffffffffffff168373ffffffffffffffffffffffffffffffffffffffff167f8c5be1e5ebec7d5bd14f71427d1e84f3dd0314c0f7b2291e5b200ac8c7c3b92583604051613c6791906159d7565b60405180910390a3505050565b600073ffffffffffffffffffffffffffffffffffffffff168373ffffffffffffffffffffffffffffffffffffffff161415613ce4576040517f08c379a0000000000000000000000000000000000000000000000000000000008152600401613cdb90615877565b60405180910390fd5b600073ffffffffffffffffffffffffffffffffffffffff168273ffffffffffffffffffffffffffffffffffffffff161415613d54576040517f08c379a0000000000000000000000000000000000000000000000000000000008152600401613d4b90615677565b60405180910390fd5b613d5f83838361414d565b613dca81604051806060016040528060268152602001615c9e602691396000808773ffffffffffffffffffffffffffffffffffffffff1673ffffffffffffffffffffffffffffffffffffffff16815260200190815260200160002054613f099092919063ffffffff16565b6000808573ffffffffffffffffffffffffffffffffffffffff1673ffffffffffffffffffffffffffffffffffffffff16815260200190815260200160002081905550613e5d816000808573ffffffffffffffffffffffffffffffffffffffff1673ffffffffffffffffffffffffffffffffffffffff16815260200190815260200160002054613f6490919063ffffffff16565b6000808473ffffffffffffffffffffffffffffffffffffffff1673ffffffffffffffffffffffffffffffffffffffff168152602001908152602001600020819055508173ffffffffffffffffffffffffffffffffffffffff168373ffffffffffffffffffffffffffffffffffffffff167fddf252ad1be2c89b69c2b068fc378daa952ba7f163c4a11628f55a4df523b3ef83604051613efc91906159d7565b60405180910390a3505050565b6000838311158290613f51576040517f08c379a0000000000000000000000000000000000000000000000000000000008152600401613f489190615655565b60405180910390fd5b5060008385039050809150509392505050565b600080828401905083811015613faf576040517f08c379a0000000000000000000000000000000000000000000000000000000008152600401613fa690615717565b60405180910390fd5b8091505092915050565b600073ffffffffffffffffffffffffffffffffffffffff168273ffffffffffffffffffffffffffffffffffffffff161415614029576040517f08c379a0000000000000000000000000000000000000000000000000000000008152600401614020906159b7565b60405180910390fd5b6140356000838361414d565b61404a81600254613f6490919063ffffffff16565b6002819055506140a1816000808573ffffffffffffffffffffffffffffffffffffffff1673ffffffffffffffffffffffffffffffffffffffff16815260200190815260200160002054613f6490919063ffffffff16565b6000808473ffffffffffffffffffffffffffffffffffffffff1673ffffffffffffffffffffffffffffffffffffffff168152602001908152602001600020819055508173ffffffffffffffffffffffffffffffffffffffff16600073ffffffffffffffffffffffffffffffffffffffff167fddf252ad1be2c89b69c2b068fc378daa952ba7f163c4a11628f55a4df523b3ef8360405161414191906159d7565b60405180910390a35050565b505050565b50805460018160011615610100020316600290046000825580601f106141785750614197565b601f01602090049060005260206000209081019061419691906142bd565b5b50565b828054600181600116156101000203166002900490600052602060002090601f016020900481019282601f106141db57805160ff1916838001178555614209565b82800160010185558215614209579182015b828111156142085782518255916020019190600101906141ed565b5b50905061421691906142bd565b5090565b60405180611fe0016040528060ff90602082028036833780820191505090505090565b828054600181600116156101000203166002900490600052602060002090601f016020900481019282601f1061427e57803560ff19168380011785556142ac565b828001600101855582156142ac579182015b828111156142ab578235825591602001919060010190614290565b5b5090506142b991906142bd565b5090565b6142df91905b808211156142db5760008160009055506001016142c3565b5090565b90565b6000813590506142f181615c2a565b92915050565b60008083601f84011261430957600080fd5b8235905067ffffffffffffffff81111561432257600080fd5b60208301915083602082028301111561433a57600080fd5b9250929050565b60008083601f84011261435357600080fd5b8235905067ffffffffffffffff81111561436c57600080fd5b60208301915083600182028301111561438457600080fd5b9250929050565b600082601f83011261439c57600080fd5b81356143af6143aa82615a3a565b615a0d565b915080825260208301602083018583830111156143cb57600080fd5b6143d6838284615bd7565b50505092915050565b6000813590506143ee81615c41565b92915050565b60008135905061440381615c58565b92915050565b60008135905061441881615c6f565b92915050565b60008135905061442d81615c86565b92915050565b60006020828403121561444557600080fd5b6000614453848285016142e2565b91505092915050565b6000806040838503121561446f57600080fd5b600061447d858286016142e2565b925050602061448e858286016142e2565b9150509250929050565b6000806000606084860312156144ad57600080fd5b60006144bb868287016142e2565b93505060206144cc868287016142e2565b92505060406144dd868287016143df565b9150509250925092565b600080604083850312156144fa57600080fd5b6000614508858286016142e2565b9250506020614519858286016143df565b9150509250929050565b6000806020838503121561453657600080fd5b600083013567ffffffffffffffff81111561455057600080fd5b61455c858286016142f7565b92509250509250929050565b6000806020838503121561457b57600080fd5b600083013567ffffffffffffffff81111561459557600080fd5b6145a185828601614341565b92509250509250929050565b6000806000604084860312156145c257600080fd5b600084013567ffffffffffffffff8111156145dc57600080fd5b6145e886828701614341565b935093505060206145fb868287016142e2565b9150509250925092565b60006020828403121561461757600080fd5b600082013567ffffffffffffffff81111561463157600080fd5b61463d8482850161438b565b91505092915050565b6000806040838503121561465957600080fd5b600083013567ffffffffffffffff81111561467357600080fd5b61467f8582860161438b565b9250506020614690858286016143df565b9150509250929050565b6000602082840312156146ac57600080fd5b60006146ba848285016143df565b91505092915050565b600080604083850312156146d657600080fd5b60006146e4858286016143df565b92505060206146f58582860161441e565b9150509250929050565b60006020828403121561471157600080fd5b600061471f848285016143f4565b91505092915050565b60006020828403121561473a57600080fd5b60006147488482850161441e565b91505092915050565b6000806000806060858703121561476757600080fd5b60006147758782880161441e565b945050602085013567ffffffffffffffff81111561479257600080fd5b61479e87828801614341565b935093505060406147b187828801614409565b91505092959194509250565b60006147c9838361537e565b60208301905092915050565b6147de81615ba1565b82525050565b6147ed81615b28565b82525050565b6147fc81615aaa565b6148068184615ae5565b925061481182615a66565b8060005b8381101561484257815161482987826147bd565b965061483483615acb565b925050600181019050614815565b505050505050565b600061485582615ab5565b61485f8185615af0565b935061486a83615a70565b8060005b8381101561489b57815161488288826147bd565b975061488d83615ad8565b92505060018101905061486e565b5085935050505092915050565b6148b181615b3a565b82525050565b6000815460018116600081146148d457600181146148f95761493d565b607f60028304166148e58187615b01565b955060ff198316865280860193505061493d565b600282046149078187615b01565b955061491285615a80565b60005b8281101561493457815481890152600182019150602081019050614915565b82880195505050505b505092915050565b60006149518385615b0c565b935061495e838584615bd7565b61496783615c19565b840190509392505050565b600061497e8385615b1d565b935061498b838584615bd7565b82840190509392505050565b60006149a282615ac0565b6149ac8185615b0c565b93506149bc818560208601615be6565b6149c581615c19565b840191505092915050565b6000815460018116600081146149ed5760018114614a1257614a56565b607f60028304166149fe8187615b1d565b955060ff1983168652808601935050614a56565b60028204614a208187615b1d565b9550614a2b85615a95565b60005b82811015614a4d57815481890152600182019150602081019050614a2e565b82880195505050505b505092915050565b6000614a6b602383615b0c565b91507f45524332303a207472616e7366657220746f20746865207a65726f206164647260008301527f65737300000000000000000000000000000000000000000000000000000000006020830152604082019050919050565b6000614ad1602683615b0c565b91507f4f776e61626c653a206e6577206f776e657220697320746865207a65726f206160008301527f64647265737300000000000000000000000000000000000000000000000000006020830152604082019050919050565b6000614b37602283615b0c565b91507f45524332303a20617070726f766520746f20746865207a65726f20616464726560008301527f73730000000000000000000000000000000000000000000000000000000000006020830152604082019050919050565b6000614b9d603583615b0c565b91507f54686520737065636966696564206465706f7369747320646f206e6f7420657860008301527f697374206f7220617265206e6f7420796f7572732e00000000000000000000006020830152604082019050919050565b6000614c03602e83615b0c565b91507f54686973206163636f756e7420636f6e6669726d6174696f6e20776173206e6560008301527f766572207265717565737465642e0000000000000000000000000000000000006020830152604082019050919050565b6000614c69601b83615b0c565b91507f536166654d6174683a206164646974696f6e206f766572666c6f7700000000006000830152602082019050919050565b6000614ca9603083615b0c565b91507f4465706f73697420646964206e6f742063616d652066726f6d2074686973204560008301527f7468657265756d206163636f756e742e000000000000000000000000000000006020830152604082019050919050565b6000614d0f602083615b0c565b91507f4f776e6572206f7261636c652063616e206e6f742062652072656d6f7665642e6000830152602082019050919050565b6000614d4f602383615b0c565b91507f54686973204769744875622055736572206973206e6f7420726567697374657260008301527f65642e00000000000000000000000000000000000000000000000000000000006020830152604082019050919050565b6000614db5602783615b0c565b91507f4465706f736974206973206e6f7420666f72207468697320476974487562206160008301527f63636f756e742e000000000000000000000000000000000000000000000000006020830152604082019050919050565b6000614e1b602683615b0c565b91507f54686973204769744875622055736572206973206e6f7420636f6e6669726d6560008301527f64207965742e00000000000000000000000000000000000000000000000000006020830152604082019050919050565b6000614e81601783615b0c565b91507f4465706f73697420646f6573206e6f742065786973742e0000000000000000006000830152602082019050919050565b6000614ec1602083615b0c565b91507f4f776e61626c653a2063616c6c6572206973206e6f7420746865206f776e65726000830152602082019050919050565b6000614f01600e83615b0c565b91507f4e6f2065746865722073656e742e0000000000000000000000000000000000006000830152602082019050919050565b6000614f41603483615b0c565b91507f54686973206465706f7369742068617320616c7265616479206265656e20776960008301527f7468647261776e206f7220726566756e6465642e0000000000000000000000006020830152604082019050919050565b6000614fa7601183615b0c565b91507f4e6f206465706f73697420666f756e642e0000000000000000000000000000006000830152602082019050919050565b6000614fe7602583615b0c565b91507f45524332303a207472616e736665722066726f6d20746865207a65726f20616460008301527f64726573730000000000000000000000000000000000000000000000000000006020830152604082019050919050565b600061504d601783615b0c565b91507f4f7261636c6520646f6573206e6f74206578697374732e0000000000000000006000830152602082019050919050565b600061508d602283615b0c565b91507f5769746864726177616c207265717565737420646f6573206e6f74206578697360008301527f742e0000000000000000000000000000000000000000000000000000000000006020830152604082019050919050565b60006150f3602383615b0c565b91507f5468697320476974487562206163636f756e7420697320626c61636b6c69737460008301527f65642e00000000000000000000000000000000000000000000000000000000006020830152604082019050919050565b6000615159602483615b0c565b91507f45524332303a20617070726f76652066726f6d20746865207a65726f2061646460008301527f72657373000000000000000000000000000000000000000000000000000000006020830152604082019050919050565b60006151bf601283615b0c565b91507f4465706f736974206973206c6f636b65642e00000000000000000000000000006000830152602082019050919050565b60006151ff602483615b0c565b91507f4f6e6c79206f7261636c65732063616e20636f6e6669726d206f70657261746960008301527f6f6e732e000000000000000000000000000000000000000000000000000000006020830152604082019050919050565b6000615265601f83615b0c565b91507f596f7572206163636f756e74206973206e6f7420726567697374657265642e006000830152602082019050919050565b60006152a5603983615b0c565b91507f476974487562206163636f756e74206e6f74207265676973746572656420776960008301527f7468207468697320457468657265756d206163636f756e742e000000000000006020830152604082019050919050565b600061530b601283615b0c565b91507f596f75206d7573742073656e64204554482e00000000000000000000000000006000830152602082019050919050565b600061534b601f83615b0c565b91507f45524332303a206d696e7420746f20746865207a65726f2061646472657373006000830152602082019050919050565b61538781615b66565b82525050565b61539681615b66565b82525050565b6153a581615b94565b82525050565b60006153b782846148b7565b915081905092915050565b60006153cf828486614972565b91508190509392505050565b60006153e782846149d0565b915081905092915050565b600060208201905061540760008301846147e4565b92915050565b600060408201905061542260008301866147d5565b8181036020830152615435818486614945565b9050949350505050565b600060408201905061545460008301856147d5565b615461602083018461538d565b9392505050565b600060808201905061547d60008301886147d5565b61548a602083018761538d565b615497604083018661539c565b81810360608301526154aa818486614945565b90509695505050505050565b60006060820190506154cb60008301876147e4565b81810360208301526154de818587614945565b90506154ed604083018461539c565b95945050505050565b600060608201905061550b60008301866147e4565b615518602083018561538d565b818103604083015261552a8184614997565b9050949350505050565b600060608201905061554960008301866147e4565b615556602083018561538d565b615563604083018461539c565b949350505050565b600060c08201905061558060008301896147e4565b61558d602083018861538d565b61559a604083018761539c565b81810360608301526155ac8186614997565b90506155bb608083018561538d565b6155c860a083018461538d565b979650505050505050565b60006040820190506155e860008301856147e4565b6155f5602083018461539c565b9392505050565b6000611fe08201905061561260008301846147f3565b92915050565b60006020820190508181036000830152615632818461484a565b905092915050565b600060208201905061564f60008301846148a8565b92915050565b6000602082019050818103600083015261566f8184614997565b905092915050565b6000602082019050818103600083015261569081614a5e565b9050919050565b600060208201905081810360008301526156b081614ac4565b9050919050565b600060208201905081810360008301526156d081614b2a565b9050919050565b600060208201905081810360008301526156f081614b90565b9050919050565b6000602082019050818103600083015261571081614bf6565b9050919050565b6000602082019050818103600083015261573081614c5c565b9050919050565b6000602082019050818103600083015261575081614c9c565b9050919050565b6000602082019050818103600083015261577081614d02565b9050919050565b6000602082019050818103600083015261579081614d42565b9050919050565b600060208201905081810360008301526157b081614da8565b9050919050565b600060208201905081810360008301526157d081614e0e565b9050919050565b600060208201905081810360008301526157f081614e74565b9050919050565b6000602082019050818103600083015261581081614eb4565b9050919050565b6000602082019050818103600083015261583081614ef4565b9050919050565b6000602082019050818103600083015261585081614f34565b9050919050565b6000602082019050818103600083015261587081614f9a565b9050919050565b6000602082019050818103600083015261589081614fda565b9050919050565b600060208201905081810360008301526158b081615040565b9050919050565b600060208201905081810360008301526158d081615080565b9050919050565b600060208201905081810360008301526158f0816150e6565b9050919050565b600060208201905081810360008301526159108161514c565b9050919050565b60006020820190508181036000830152615930816151b2565b9050919050565b60006020820190508181036000830152615950816151f2565b9050919050565b6000602082019050818103600083015261597081615258565b9050919050565b6000602082019050818103600083015261599081615298565b9050919050565b600060208201905081810360008301526159b0816152fe565b9050919050565b600060208201905081810360008301526159d08161533e565b9050919050565b60006020820190506159ec600083018461538d565b92915050565b6000602082019050615a07600083018461539c565b92915050565b6000604051905081810181811067ffffffffffffffff82111715615a3057600080fd5b8060405250919050565b600067ffffffffffffffff821115615a5157600080fd5b601f19601f8301169050602081019050919050565b6000819050919050565b6000819050602082019050919050565b60008190508160005260206000209050919050565b60008190508160005260206000209050919050565b600060ff9050919050565b600081519050919050565b600081519050919050565b6000602082019050919050565b6000602082019050919050565b600081905092915050565b600082825260208201905092915050565b600081905092915050565b600082825260208201905092915050565b600081905092915050565b6000615b3382615b46565b9050919050565b60008115159050919050565b600073ffffffffffffffffffffffffffffffffffffffff82169050919050565b6000819050919050565b600063ffffffff82169050919050565b600067ffffffffffffffff82169050919050565b600060ff82169050919050565b6000615bac82615bb3565b9050919050565b6000615bbe82615bc5565b9050919050565b6000615bd082615b46565b9050919050565b82818337600083830152505050565b60005b83811015615c04578082015181840152602081019050615be9565b83811115615c13576000848401525b50505050565b6000601f19601f8301169050919050565b615c3381615b28565b8114615c3e57600080fd5b50565b615c4a81615b66565b8114615c5557600080fd5b50565b615c6181615b70565b8114615c6c57600080fd5b50565b615c7881615b80565b8114615c8357600080fd5b50565b615c8f81615b94565b8114615c9a57600080fd5b5056fe45524332303a207472616e7366657220616d6f756e7420657863656564732062616c616e636545524332303a207472616e7366657220616d6f756e74206578636565647320616c6c6f77616e636545524332303a2064656372656173656420616c6c6f77616e63652062656c6f77207a65726fa26469706673582212204195bedb4800f9c5e3a3faa4dcd69216e76316f1c1ec60ddd86d176bf39091ae64736f6c63430006060033",
  "immutableReferences": {},
  "source": "// SPDX-License-Identifier: MIT\npragma solidity ^0.6.0;\npragma experimental ABIEncoderV2;\n\nimport \"@openzeppelin/contracts/token/ERC20/ERC20.sol\";\nimport \"@openzeppelin/contracts/access/Ownable.sol\";\nimport \"./MergeToken.sol\";\n\ncontract MergePay is ERC20, Ownable {\n  struct Deposit {\n    address account;\n    uint256 amount;\n    uint8 issueOrPr; // 1 = issue, 2 = pr\n    string id;\n    uint256 addedTimestamp;\n    uint256 lockedUntilTimestamp;\n  }\n\n  struct UserDeposit {\n    address from;\n    uint256 amount;\n    string githubUser;\n  }\n\n  struct Withdrawal {\n    address account;\n    uint256 depositId;\n    uint8 confirmations;\n  }\n\n  struct User {\n    address account;\n    uint8 confirmations;\n  }\n\n  event DepositEvent(address account, uint256 amount, uint8 issueOrPr, string id);\n  event RegistrationRequestEvent(address account, string githubUser);\n  event RegistrationConfirmedEvent(address account, string githubUser, uint8 confirmations);\n  event WithdrawalRequestEvent(address account, uint256 depositId);\n  event WithdrawalConfirmedEvent(uint256 id);\n\n  mapping(address => bool) private _oracles;\n\n  mapping(string => User) public _users;\n  mapping(address => string) public _usersByAddress;\n  mapping(string => bool) private _blacklistedGithubUsers; // Blacklisted users cannot withdraw\n\n  mapping(uint256 => Deposit) public _deposits;\n  uint256 private _nextDepositId = 1;\n\n  mapping(uint256 => UserDeposit) public _userDeposits;\n  uint256 private _nextUserDepositId = 1;\n  mapping(string => uint256[]) public _userDepositIdsByGithubUser;\n  mapping(address => uint256[]) public _userDepositIdsBySender;\n\n  mapping(uint256 => Withdrawal) public _withdrawals;\n  uint256 private _nextWithdrawalId = 1;\n\n  uint32 private _maxLockDays = 180;\n  uint8 private _minRegistrationConfirmations = 1;\n  uint8 private _minWithdrawalConfirmations = 1;\n\n  modifier onlyOracles {\n    require(_oracles[msg.sender], \"Only oracles can confirm operations.\");\n    _;\n  }\n\n  /// @dev Initiates MergeToken and set owner as oracle.\n  constructor() ERC20(\"Merge Token\", \"MERGE\") public {\n    _oracles[owner()] = true;\n  }\n\n  function setMaxLockDays(uint32 maxLockdays) external onlyOwner {\n    _maxLockDays = maxLockdays;\n  }\n\n  function setMinRegistrationConfirmation(uint8 minRegistrationConfirmations) external onlyOwner {\n    _minRegistrationConfirmations = minRegistrationConfirmations;\n  }\n\n  function setMinWithdrawalConfirmation(uint8 minWithdrawalConfirmations) external onlyOwner {\n    _minWithdrawalConfirmations = minWithdrawalConfirmations;\n  }\n\n  /// @param oracle The oracle address to add\n  function enableOracle(address oracle) external onlyOwner {\n    _oracles[oracle] = true;\n  }\n\n  /// @param oracle The oracle address to remove (cannot be owner)\n  function disableOracle(address oracle) external onlyOwner {\n    require(_oracles[oracle], \"Oracle does not exists.\");\n    require(oracle != owner(), \"Owner oracle can not be removed.\");\n    _oracles[oracle] = false;\n  }\n\n  /// @dev Deposit ETH on any pull request or issue on GitHub.\n  /// @param issueOrPr Issues = 1, Pull Requests = 2\n  /// @param id The node ID of the issue or pr\n  /// @param lockDays The number of day the deposit will be locked\n  function deposit(uint8 issueOrPr, string calldata id, uint64 lockDays) external payable {\n    require(msg.value > 0, \"No ether sent.\");\n\n    // cap lockDays\n    if (lockDays > _maxLockDays) {\n      lockDays = _maxLockDays;\n    }\n\n    _deposits[_nextDepositId] = Deposit(msg.sender, msg.value, issueOrPr, id, now, now + lockDays * 1 days);\n    _nextDepositId++;\n\n    emit DepositEvent(msg.sender, msg.value, issueOrPr, id);\n\n    if (lockDays > 0) {\n      _mint(msg.sender, msg.value * (lockDays / (_maxLockDays / 2)));\n    }\n  }\n\n  function getDeposits(uint256 fromId, uint8 perpage) external view returns(uint256[255] memory ids) {\n    uint8 index = 0;\n    while (index < perpage && fromId > 0) {\n      if (_deposits[fromId].amount > 0) {\n        ids[index] = fromId;\n        index++;\n      }\n      fromId--;\n    }\n\n    return ids;\n  }\n\n  function getDepositIdsForGithubUser(string calldata githubUser) external view returns(uint256[] memory) {\n    return _userDepositIdsByGithubUser[githubUser];\n  }\n\n  function getDepositIdsForSender() external view returns(uint256[] memory) {\n    return _userDepositIdsBySender[msg.sender];\n  }\n\n  /// @dev Verify ownership over GitHub account by checking for a repositry of\n  /// @dev githubUser named after msg.sender. Adds user as unconfirmed and sends\n  /// @dev an oracle request, that will be fullfilled in registerConfirm.\n  /// @param githubUser The GitHub username to register\n  function register(string calldata githubUser) external {\n    if (_users[githubUser].account != address(0)) {\n      delete _usersByAddress[_users[githubUser].account];\n    }\n    _users[githubUser] = User(msg.sender, 0);\n    _usersByAddress[msg.sender] = githubUser;\n\n    emit RegistrationRequestEvent(msg.sender, githubUser);\n  }\n\n  /// @dev Oracle fullfill method. Sets unconfirmed user to confirmed if repo exists.\n  /// @param githubUser The githubUser to confirm\n  /// @param account The Eth account to confirm\n  function registerConfirm(string calldata githubUser, address account) external onlyOracles {\n    require(\n      _users[githubUser].account != address(0) && _users[githubUser].account == account,\n      \"This account confirmation was never requested.\"\n    );\n    _users[githubUser].confirmations++;\n    emit RegistrationConfirmedEvent(\n      account,\n      githubUser,\n      _users[githubUser].confirmations\n    );\n  }\n\n  /// @dev Send ETH to a registered githubUser.\n  /// @param githubUser The receiving githubUser.\n  function sendEthToGithubUser(string calldata githubUser) external payable {\n    require(msg.value > 0, \"You must send ETH.\");\n    require(_users[githubUser].account != address(0), \"This GitHub User is not registered.\");\n    require(_users[githubUser].confirmations >= _minRegistrationConfirmations, \"This GitHub User is not confirmed yet.\");\n    payable(_users[githubUser].account).transfer(msg.value);\n    _mint(_users[githubUser].account, msg.value / 100);\n    _mint(msg.sender, msg.value / 100);\n  }\n\n  /// @dev Deposit ETH to a registered githubUser.\n  /// @param githubUser The receiving githubUser.\n  function depositEthForGithubUser(string calldata githubUser) external payable {\n    require(msg.value > 0, \"You must send ETH.\");\n    _nextUserDepositId++;\n    _userDeposits[_nextUserDepositId] = UserDeposit(msg.sender, msg.value, githubUser);\n    _userDepositIdsByGithubUser[githubUser].push(_nextUserDepositId);\n    _userDepositIdsBySender[msg.sender].push(_nextUserDepositId);\n  }\n\n  function withdrawUserDeposit(uint256 depositId) external {\n    require(_users[_usersByAddress[msg.sender]].account == msg.sender, \"GitHub account not registered with this Ethereum account.\");\n    require(keccak256(bytes(_userDeposits[depositId].githubUser)) == keccak256(bytes(_usersByAddress[msg.sender])), \"Deposit is not for this GitHub account.\");\n    payable(msg.sender).transfer(_userDeposits[depositId].amount);\n    delete _userDeposits[depositId];\n  }\n\n  function refundUserDeposit(uint256 depositId) external {\n    require(_userDeposits[depositId].from == msg.sender, \"Deposit did not came from this Ethereum account.\");\n    payable(msg.sender).transfer(_userDeposits[depositId].amount);\n    delete _userDeposits[depositId];\n  }\n\n  /// @dev Send deposit back to sender.\n  function refund(uint256 depositId) external {\n    require(_deposits[depositId].amount > 0, \"No deposit found.\");\n    require(_deposits[depositId].lockedUntilTimestamp < now, \"Deposit is locked.\");\n    payable(msg.sender).transfer(_deposits[depositId].amount);\n    delete _deposits[depositId];\n  }\n\n  /// @dev Send deposit back to sender regardless of lock.\n  function forceRefund(uint256 depositId) external onlyOwner {\n    require(_deposits[depositId].amount > 0, \"No deposit found.\");\n    payable(_deposits[depositId].account).transfer(_deposits[depositId].amount);\n    delete _deposits[depositId];\n  }\n\n  /// @dev Send all specified deposits back to sender.\n  function refundAll(uint256[] calldata depositIds) external {\n    uint256 amount = 0;\n    for (uint256 i; i < depositIds.length; i++) {\n      if (\n        _deposits[depositIds[i]].amount > 0 &&\n        _deposits[depositIds[i]].account == msg.sender &&\n        _deposits[depositIds[i]].lockedUntilTimestamp < now\n      ) {\n        amount += _deposits[depositIds[i]].amount;\n        delete _deposits[depositIds[i]];\n      }\n    }\n    require(amount > 0, \"The specified deposits do not exist or are not yours.\");\n    payable(msg.sender).transfer(amount);\n  }\n\n  function addUserToBlacklist(string calldata githubUser) external onlyOracles {\n    _blacklistedGithubUsers[githubUser] = true;\n  }\n\n  function removeUserFromBlacklist(string calldata githubUser) external onlyOracles {\n    _blacklistedGithubUsers[githubUser] = false;\n  }\n\n  /// @dev Send deposit to contributor if deposit's conditions are met.\n  function withdraw(uint256 depositId) external {\n    // requre deposit exists\n    require(_deposits[depositId].amount > 0, \"Deposit does not exist.\");\n    // require a registered githubUser for sender's eth account\n    require(\n      bytes(_usersByAddress[msg.sender]).length != 0 &&\n      _users[_usersByAddress[msg.sender]].confirmations >= _minRegistrationConfirmations,\n      \"Your account is not registered.\"\n    );\n    require(\n      !_blacklistedGithubUsers[_usersByAddress[msg.sender]],\n      \"This GitHub account is blacklisted.\"\n    );\n\n    _withdrawals[_nextWithdrawalId] = Withdrawal(msg.sender, depositId, 0);\n    _nextWithdrawalId++;\n\n    emit WithdrawalRequestEvent(msg.sender, depositId);\n  }\n\n  /// @dev Oracle fullfill method. Executes withdrawal.\n  /// @param withdrawalId The id of the Withdrawal\n  function withdrawConfirm(uint256 withdrawalId) external onlyOracles {\n    require(_withdrawals[withdrawalId].account != address(0), \"Withdrawal request does not exist.\");\n    require(_deposits[_withdrawals[withdrawalId].depositId].amount > 0, \"This deposit has already been withdrawn or refunded.\");\n    // execute transfer, set execute flag, delete deposit and emit event\n    _withdrawals[withdrawalId].confirmations++;\n    if (_withdrawals[withdrawalId].confirmations >= _minWithdrawalConfirmations) {\n      payable(_withdrawals[withdrawalId].account).transfer(_deposits[_withdrawals[withdrawalId].depositId].amount);\n      delete _deposits[_withdrawals[withdrawalId].depositId];\n      emit WithdrawalConfirmedEvent(withdrawalId);\n    }\n  }\n}\n",
  "sourcePath": "/home/mkt/Projects/mergepay-contracts/contracts/MergePay.sol",
  "compiler": {
    "name": "solc",
    "version": "0.6.6+commit.6c089d02.Emscripten.clang"
  },
  "schemaVersion": "3.2.5",
  "updatedAt": "2020-10-30T00:55:43.963Z",
  "networkType": "ethereum",
  "devdoc": {
    "methods": {
      "allowance(address,address)": {
        "details": "See {IERC20-allowance}."
      },
      "approve(address,uint256)": {
        "details": "See {IERC20-approve}.     * Requirements:     * - `spender` cannot be the zero address."
      },
      "balanceOf(address)": {
        "details": "See {IERC20-balanceOf}."
      },
      "constructor": {
        "details": "Initiates MergeToken and set owner as oracle."
      },
      "decimals()": {
        "details": "Returns the number of decimals used to get its user representation. For example, if `decimals` equals `2`, a balance of `505` tokens should be displayed to a user as `5,05` (`505 / 10 ** 2`).     * Tokens usually opt for a value of 18, imitating the relationship between Ether and Wei. This is the value {ERC20} uses, unless {_setupDecimals} is called.     * NOTE: This information is only used for _display_ purposes: it in no way affects any of the arithmetic of the contract, including {IERC20-balanceOf} and {IERC20-transfer}."
      },
      "decreaseAllowance(address,uint256)": {
        "details": "Atomically decreases the allowance granted to `spender` by the caller.     * This is an alternative to {approve} that can be used as a mitigation for problems described in {IERC20-approve}.     * Emits an {Approval} event indicating the updated allowance.     * Requirements:     * - `spender` cannot be the zero address. - `spender` must have allowance for the caller of at least `subtractedValue`."
      },
      "deposit(uint8,string,uint64)": {
        "details": "Deposit ETH on any pull request or issue on GitHub.",
        "params": {
          "id": "The node ID of the issue or pr",
          "issueOrPr": "Issues = 1, Pull Requests = 2",
          "lockDays": "The number of day the deposit will be locked"
        }
      },
      "depositEthForGithubUser(string)": {
        "details": "Deposit ETH to a registered githubUser.",
        "params": {
          "githubUser": "The receiving githubUser."
        }
      },
      "disableOracle(address)": {
        "params": {
          "oracle": "The oracle address to remove (cannot be owner)"
        }
      },
      "enableOracle(address)": {
        "params": {
          "oracle": "The oracle address to add"
        }
      },
      "forceRefund(uint256)": {
        "details": "Send deposit back to sender regardless of lock."
      },
      "increaseAllowance(address,uint256)": {
        "details": "Atomically increases the allowance granted to `spender` by the caller.     * This is an alternative to {approve} that can be used as a mitigation for problems described in {IERC20-approve}.     * Emits an {Approval} event indicating the updated allowance.     * Requirements:     * - `spender` cannot be the zero address."
      },
      "name()": {
        "details": "Returns the name of the token."
      },
      "owner()": {
        "details": "Returns the address of the current owner."
      },
      "refund(uint256)": {
        "details": "Send deposit back to sender."
      },
      "refundAll(uint256[])": {
        "details": "Send all specified deposits back to sender."
      },
      "register(string)": {
        "details": "Verify ownership over GitHub account by checking for a repositry ofgithubUser named after msg.sender. Adds user as unconfirmed and sendsan oracle request, that will be fullfilled in registerConfirm.",
        "params": {
          "githubUser": "The GitHub username to register"
        }
      },
      "registerConfirm(string,address)": {
        "details": "Oracle fullfill method. Sets unconfirmed user to confirmed if repo exists.",
        "params": {
          "account": "The Eth account to confirm",
          "githubUser": "The githubUser to confirm"
        }
      },
      "renounceOwnership()": {
        "details": "Leaves the contract without owner. It will not be possible to call `onlyOwner` functions anymore. Can only be called by the current owner.     * NOTE: Renouncing ownership will leave the contract without an owner, thereby removing any functionality that is only available to the owner."
      },
      "sendEthToGithubUser(string)": {
        "details": "Send ETH to a registered githubUser.",
        "params": {
          "githubUser": "The receiving githubUser."
        }
      },
      "symbol()": {
        "details": "Returns the symbol of the token, usually a shorter version of the name."
      },
      "totalSupply()": {
        "details": "See {IERC20-totalSupply}."
      },
      "transfer(address,uint256)": {
        "details": "See {IERC20-transfer}.     * Requirements:     * - `recipient` cannot be the zero address. - the caller must have a balance of at least `amount`."
      },
      "transferFrom(address,address,uint256)": {
        "details": "See {IERC20-transferFrom}.     * Emits an {Approval} event indicating the updated allowance. This is not required by the EIP. See the note at the beginning of {ERC20};     * Requirements: - `sender` and `recipient` cannot be the zero address. - `sender` must have a balance of at least `amount`. - the caller must have allowance for ``sender``'s tokens of at least `amount`."
      },
      "transferOwnership(address)": {
        "details": "Transfers ownership of the contract to a new account (`newOwner`). Can only be called by the current owner."
      },
      "withdraw(uint256)": {
        "details": "Send deposit to contributor if deposit's conditions are met."
      },
      "withdrawConfirm(uint256)": {
        "details": "Oracle fullfill method. Executes withdrawal.",
        "params": {
          "withdrawalId": "The id of the Withdrawal"
        }
      }
    }
  },
  "userdoc": {
    "methods": {}
  }
}