{
  "contractName": "OctoBay",
  "abi": [
    {
      "inputs": [],
      "stateMutability": "nonpayable",
      "type": "constructor"
    },
    {
      "anonymous": false,
      "inputs": [
        {
          "indexed": true,
          "internalType": "address",
          "name": "owner",
          "type": "address"
        },
        {
          "indexed": true,
          "internalType": "address",
          "name": "spender",
          "type": "address"
        },
        {
          "indexed": false,
          "internalType": "uint256",
          "name": "value",
          "type": "uint256"
        }
      ],
      "name": "Approval",
      "type": "event"
    },
    {
      "anonymous": false,
      "inputs": [
        {
          "indexed": false,
          "internalType": "string",
          "name": "prId",
          "type": "string"
        },
        {
          "indexed": false,
          "internalType": "string",
          "name": "githubUser",
          "type": "string"
        },
        {
          "indexed": false,
          "internalType": "uint256",
          "name": "score",
          "type": "uint256"
        }
      ],
      "name": "ClaimPrConfirmEvent",
      "type": "event"
    },
    {
      "anonymous": false,
      "inputs": [
        {
          "indexed": false,
          "internalType": "string",
          "name": "prId",
          "type": "string"
        },
        {
          "indexed": false,
          "internalType": "string",
          "name": "githubUser",
          "type": "string"
        }
      ],
      "name": "ClaimPrRequestEvent",
      "type": "event"
    },
    {
      "anonymous": false,
      "inputs": [
        {
          "indexed": false,
          "internalType": "address",
          "name": "account",
          "type": "address"
        },
        {
          "indexed": false,
          "internalType": "uint256",
          "name": "amount",
          "type": "uint256"
        },
        {
          "indexed": false,
          "internalType": "string",
          "name": "issueId",
          "type": "string"
        }
      ],
      "name": "IssueDepositEvent",
      "type": "event"
    },
    {
      "anonymous": false,
      "inputs": [
        {
          "indexed": true,
          "internalType": "address",
          "name": "previousOwner",
          "type": "address"
        },
        {
          "indexed": true,
          "internalType": "address",
          "name": "newOwner",
          "type": "address"
        }
      ],
      "name": "OwnershipTransferred",
      "type": "event"
    },
    {
      "anonymous": false,
      "inputs": [
        {
          "indexed": false,
          "internalType": "address",
          "name": "account",
          "type": "address"
        },
        {
          "indexed": false,
          "internalType": "string",
          "name": "githubUser",
          "type": "string"
        }
      ],
      "name": "RegistrationConfirmedEvent",
      "type": "event"
    },
    {
      "anonymous": false,
      "inputs": [
        {
          "indexed": false,
          "internalType": "address",
          "name": "account",
          "type": "address"
        },
        {
          "indexed": false,
          "internalType": "string",
          "name": "githubUser",
          "type": "string"
        }
      ],
      "name": "RegistrationRequestEvent",
      "type": "event"
    },
    {
      "anonymous": false,
      "inputs": [
        {
          "indexed": false,
          "internalType": "string",
          "name": "issueId",
          "type": "string"
        },
        {
          "indexed": false,
          "internalType": "string",
          "name": "githubUser",
          "type": "string"
        },
        {
          "indexed": false,
          "internalType": "string",
          "name": "owner",
          "type": "string"
        }
      ],
      "name": "ReleaseIssueDepositsConfirmEvent",
      "type": "event"
    },
    {
      "anonymous": false,
      "inputs": [
        {
          "indexed": false,
          "internalType": "string",
          "name": "issueId",
          "type": "string"
        },
        {
          "indexed": false,
          "internalType": "string",
          "name": "githubUser",
          "type": "string"
        },
        {
          "indexed": false,
          "internalType": "string",
          "name": "owner",
          "type": "string"
        }
      ],
      "name": "ReleaseIssueDepositsRequestEvent",
      "type": "event"
    },
    {
      "anonymous": false,
      "inputs": [
        {
          "indexed": true,
          "internalType": "address",
          "name": "from",
          "type": "address"
        },
        {
          "indexed": true,
          "internalType": "address",
          "name": "to",
          "type": "address"
        },
        {
          "indexed": false,
          "internalType": "uint256",
          "name": "value",
          "type": "uint256"
        }
      ],
      "name": "Transfer",
      "type": "event"
    },
    {
      "anonymous": false,
      "inputs": [
        {
          "indexed": false,
          "internalType": "address",
          "name": "account",
          "type": "address"
        },
        {
          "indexed": false,
          "internalType": "uint256",
          "name": "amount",
          "type": "uint256"
        },
        {
          "indexed": false,
          "internalType": "string",
          "name": "githubUser",
          "type": "string"
        }
      ],
      "name": "UserDepositEvent",
      "type": "event"
    },
    {
      "inputs": [
        {
          "internalType": "string",
          "name": "",
          "type": "string"
        }
      ],
      "name": "_claimedPullRequests",
      "outputs": [
        {
          "internalType": "uint8",
          "name": "",
          "type": "uint8"
        }
      ],
      "stateMutability": "view",
      "type": "function",
      "constant": true
    },
    {
      "inputs": [
        {
          "internalType": "string",
          "name": "",
          "type": "string"
        }
      ],
      "name": "_issueBoosts",
      "outputs": [
        {
          "internalType": "uint256",
          "name": "",
          "type": "uint256"
        }
      ],
      "stateMutability": "view",
      "type": "function",
      "constant": true
    },
    {
      "inputs": [
        {
          "internalType": "string",
          "name": "",
          "type": "string"
        },
        {
          "internalType": "uint256",
          "name": "",
          "type": "uint256"
        }
      ],
      "name": "_issueDepositIdsByIssueId",
      "outputs": [
        {
          "internalType": "uint256",
          "name": "",
          "type": "uint256"
        }
      ],
      "stateMutability": "view",
      "type": "function",
      "constant": true
    },
    {
      "inputs": [
        {
          "internalType": "address",
          "name": "",
          "type": "address"
        },
        {
          "internalType": "uint256",
          "name": "",
          "type": "uint256"
        }
      ],
      "name": "_issueDepositIdsBySender",
      "outputs": [
        {
          "internalType": "uint256",
          "name": "",
          "type": "uint256"
        }
      ],
      "stateMutability": "view",
      "type": "function",
      "constant": true
    },
    {
      "inputs": [
        {
          "internalType": "uint256",
          "name": "",
          "type": "uint256"
        }
      ],
      "name": "_issueDeposits",
      "outputs": [
        {
          "internalType": "address",
          "name": "from",
          "type": "address"
        },
        {
          "internalType": "uint256",
          "name": "amount",
          "type": "uint256"
        },
        {
          "internalType": "string",
          "name": "issueId",
          "type": "string"
        }
      ],
      "stateMutability": "view",
      "type": "function",
      "constant": true
    },
    {
      "inputs": [],
      "name": "_nextIssueDepositId",
      "outputs": [
        {
          "internalType": "uint256",
          "name": "",
          "type": "uint256"
        }
      ],
      "stateMutability": "view",
      "type": "function",
      "constant": true
    },
    {
      "inputs": [
        {
          "internalType": "string",
          "name": "",
          "type": "string"
        }
      ],
      "name": "_releasedIssueRequests",
      "outputs": [
        {
          "internalType": "string",
          "name": "",
          "type": "string"
        }
      ],
      "stateMutability": "view",
      "type": "function",
      "constant": true
    },
    {
      "inputs": [
        {
          "internalType": "string",
          "name": "",
          "type": "string"
        }
      ],
      "name": "_releasedIssueRequestsOwnedBy",
      "outputs": [
        {
          "internalType": "string",
          "name": "",
          "type": "string"
        }
      ],
      "stateMutability": "view",
      "type": "function",
      "constant": true
    },
    {
      "inputs": [
        {
          "internalType": "string",
          "name": "",
          "type": "string"
        }
      ],
      "name": "_releasedIssues",
      "outputs": [
        {
          "internalType": "string",
          "name": "",
          "type": "string"
        }
      ],
      "stateMutability": "view",
      "type": "function",
      "constant": true
    },
    {
      "inputs": [
        {
          "internalType": "string",
          "name": "",
          "type": "string"
        },
        {
          "internalType": "uint256",
          "name": "",
          "type": "uint256"
        }
      ],
      "name": "_userDepositIdsByGithubUser",
      "outputs": [
        {
          "internalType": "uint256",
          "name": "",
          "type": "uint256"
        }
      ],
      "stateMutability": "view",
      "type": "function",
      "constant": true
    },
    {
      "inputs": [
        {
          "internalType": "address",
          "name": "",
          "type": "address"
        },
        {
          "internalType": "uint256",
          "name": "",
          "type": "uint256"
        }
      ],
      "name": "_userDepositIdsBySender",
      "outputs": [
        {
          "internalType": "uint256",
          "name": "",
          "type": "uint256"
        }
      ],
      "stateMutability": "view",
      "type": "function",
      "constant": true
    },
    {
      "inputs": [
        {
          "internalType": "uint256",
          "name": "",
          "type": "uint256"
        }
      ],
      "name": "_userDeposits",
      "outputs": [
        {
          "internalType": "address",
          "name": "from",
          "type": "address"
        },
        {
          "internalType": "uint256",
          "name": "amount",
          "type": "uint256"
        },
        {
          "internalType": "string",
          "name": "githubUser",
          "type": "string"
        }
      ],
      "stateMutability": "view",
      "type": "function",
      "constant": true
    },
    {
      "inputs": [
        {
          "internalType": "string",
          "name": "",
          "type": "string"
        }
      ],
      "name": "_users",
      "outputs": [
        {
          "internalType": "address",
          "name": "account",
          "type": "address"
        },
        {
          "internalType": "bool",
          "name": "confirmed",
          "type": "bool"
        }
      ],
      "stateMutability": "view",
      "type": "function",
      "constant": true
    },
    {
      "inputs": [
        {
          "internalType": "address",
          "name": "",
          "type": "address"
        }
      ],
      "name": "_usersByAddress",
      "outputs": [
        {
          "internalType": "string",
          "name": "",
          "type": "string"
        }
      ],
      "stateMutability": "view",
      "type": "function",
      "constant": true
    },
    {
      "inputs": [
        {
          "internalType": "address",
          "name": "owner",
          "type": "address"
        },
        {
          "internalType": "address",
          "name": "spender",
          "type": "address"
        }
      ],
      "name": "allowance",
      "outputs": [
        {
          "internalType": "uint256",
          "name": "",
          "type": "uint256"
        }
      ],
      "stateMutability": "view",
      "type": "function",
      "constant": true
    },
    {
      "inputs": [
        {
          "internalType": "address",
          "name": "spender",
          "type": "address"
        },
        {
          "internalType": "uint256",
          "name": "amount",
          "type": "uint256"
        }
      ],
      "name": "approve",
      "outputs": [
        {
          "internalType": "bool",
          "name": "",
          "type": "bool"
        }
      ],
      "stateMutability": "nonpayable",
      "type": "function"
    },
    {
      "inputs": [
        {
          "internalType": "address",
          "name": "account",
          "type": "address"
        }
      ],
      "name": "balanceOf",
      "outputs": [
        {
          "internalType": "uint256",
          "name": "",
          "type": "uint256"
        }
      ],
      "stateMutability": "view",
      "type": "function",
      "constant": true
    },
    {
      "inputs": [],
      "name": "decimals",
      "outputs": [
        {
          "internalType": "uint8",
          "name": "",
          "type": "uint8"
        }
      ],
      "stateMutability": "view",
      "type": "function",
      "constant": true
    },
    {
      "inputs": [
        {
          "internalType": "address",
          "name": "spender",
          "type": "address"
        },
        {
          "internalType": "uint256",
          "name": "subtractedValue",
          "type": "uint256"
        }
      ],
      "name": "decreaseAllowance",
      "outputs": [
        {
          "internalType": "bool",
          "name": "",
          "type": "bool"
        }
      ],
      "stateMutability": "nonpayable",
      "type": "function"
    },
    {
      "inputs": [
        {
          "internalType": "address",
          "name": "spender",
          "type": "address"
        },
        {
          "internalType": "uint256",
          "name": "addedValue",
          "type": "uint256"
        }
      ],
      "name": "increaseAllowance",
      "outputs": [
        {
          "internalType": "bool",
          "name": "",
          "type": "bool"
        }
      ],
      "stateMutability": "nonpayable",
      "type": "function"
    },
    {
      "inputs": [],
      "name": "name",
      "outputs": [
        {
          "internalType": "string",
          "name": "",
          "type": "string"
        }
      ],
      "stateMutability": "view",
      "type": "function",
      "constant": true
    },
    {
      "inputs": [],
      "name": "owner",
      "outputs": [
        {
          "internalType": "address",
          "name": "",
          "type": "address"
        }
      ],
      "stateMutability": "view",
      "type": "function",
      "constant": true
    },
    {
      "inputs": [],
      "name": "renounceOwnership",
      "outputs": [],
      "stateMutability": "nonpayable",
      "type": "function"
    },
    {
      "inputs": [],
      "name": "symbol",
      "outputs": [
        {
          "internalType": "string",
          "name": "",
          "type": "string"
        }
      ],
      "stateMutability": "view",
      "type": "function",
      "constant": true
    },
    {
      "inputs": [],
      "name": "totalSupply",
      "outputs": [
        {
          "internalType": "uint256",
          "name": "",
          "type": "uint256"
        }
      ],
      "stateMutability": "view",
      "type": "function",
      "constant": true
    },
    {
      "inputs": [
        {
          "internalType": "address",
          "name": "recipient",
          "type": "address"
        },
        {
          "internalType": "uint256",
          "name": "amount",
          "type": "uint256"
        }
      ],
      "name": "transfer",
      "outputs": [
        {
          "internalType": "bool",
          "name": "",
          "type": "bool"
        }
      ],
      "stateMutability": "nonpayable",
      "type": "function"
    },
    {
      "inputs": [
        {
          "internalType": "address",
          "name": "sender",
          "type": "address"
        },
        {
          "internalType": "address",
          "name": "recipient",
          "type": "address"
        },
        {
          "internalType": "uint256",
          "name": "amount",
          "type": "uint256"
        }
      ],
      "name": "transferFrom",
      "outputs": [
        {
          "internalType": "bool",
          "name": "",
          "type": "bool"
        }
      ],
      "stateMutability": "nonpayable",
      "type": "function"
    },
    {
      "inputs": [
        {
          "internalType": "address",
          "name": "newOwner",
          "type": "address"
        }
      ],
      "name": "transferOwnership",
      "outputs": [],
      "stateMutability": "nonpayable",
      "type": "function"
    },
    {
      "inputs": [
        {
          "internalType": "address",
          "name": "oracle",
          "type": "address"
        }
      ],
      "name": "enableOracle",
      "outputs": [],
      "stateMutability": "nonpayable",
      "type": "function"
    },
    {
      "inputs": [
        {
          "internalType": "address",
          "name": "oracle",
          "type": "address"
        }
      ],
      "name": "disableOracle",
      "outputs": [],
      "stateMutability": "nonpayable",
      "type": "function"
    },
    {
      "inputs": [
        {
          "internalType": "string",
          "name": "githubUser",
          "type": "string"
        }
      ],
      "name": "register",
      "outputs": [],
      "stateMutability": "payable",
      "type": "function",
      "payable": true
    },
    {
      "inputs": [
        {
          "internalType": "string",
          "name": "githubUser",
          "type": "string"
        },
        {
          "internalType": "address",
          "name": "account",
          "type": "address"
        }
      ],
      "name": "registerConfirm",
      "outputs": [],
      "stateMutability": "nonpayable",
      "type": "function"
    },
    {
      "inputs": [
        {
          "internalType": "string",
          "name": "githubUser",
          "type": "string"
        }
      ],
      "name": "sendEthToGithubUser",
      "outputs": [],
      "stateMutability": "payable",
      "type": "function",
      "payable": true
    },
    {
      "inputs": [
        {
          "internalType": "string",
          "name": "githubUser",
          "type": "string"
        }
      ],
      "name": "depositEthForGithubUser",
      "outputs": [],
      "stateMutability": "payable",
      "type": "function",
      "payable": true
    },
    {
      "inputs": [
        {
          "internalType": "uint256",
          "name": "depositId",
          "type": "uint256"
        }
      ],
      "name": "withdrawUserDeposit",
      "outputs": [],
      "stateMutability": "nonpayable",
      "type": "function"
    },
    {
      "inputs": [
        {
          "internalType": "uint256",
          "name": "depositId",
          "type": "uint256"
        }
      ],
      "name": "refundUserDeposit",
      "outputs": [],
      "stateMutability": "nonpayable",
      "type": "function"
    },
    {
      "inputs": [
        {
          "internalType": "string",
          "name": "githubUser",
          "type": "string"
        }
      ],
      "name": "getUserDepositIdsForGithubUser",
      "outputs": [
        {
          "internalType": "uint256[]",
          "name": "",
          "type": "uint256[]"
        }
      ],
      "stateMutability": "view",
      "type": "function",
      "constant": true
    },
    {
      "inputs": [],
      "name": "getUserDepositIdsForSender",
      "outputs": [
        {
          "internalType": "uint256[]",
          "name": "",
          "type": "uint256[]"
        }
      ],
      "stateMutability": "view",
      "type": "function",
      "constant": true
    },
    {
      "inputs": [
        {
          "internalType": "string",
          "name": "issueId",
          "type": "string"
        }
      ],
      "name": "depositEthForIssue",
      "outputs": [],
      "stateMutability": "payable",
      "type": "function",
      "payable": true
    },
    {
      "inputs": [
        {
          "internalType": "uint256",
          "name": "depositId",
          "type": "uint256"
        }
      ],
      "name": "refundIssueDeposit",
      "outputs": [],
      "stateMutability": "nonpayable",
      "type": "function"
    },
    {
      "inputs": [
        {
          "internalType": "string",
          "name": "issueId",
          "type": "string"
        }
      ],
      "name": "getIssueDepositIdsForIssueId",
      "outputs": [
        {
          "internalType": "uint256[]",
          "name": "",
          "type": "uint256[]"
        }
      ],
      "stateMutability": "view",
      "type": "function",
      "constant": true
    },
    {
      "inputs": [],
      "name": "getIssueDepositIdsForSender",
      "outputs": [
        {
          "internalType": "uint256[]",
          "name": "",
          "type": "uint256[]"
        }
      ],
      "stateMutability": "view",
      "type": "function",
      "constant": true
    },
    {
      "inputs": [
        {
          "internalType": "string",
          "name": "issueId",
          "type": "string"
        },
        {
          "internalType": "uint256",
          "name": "amount",
          "type": "uint256"
        }
      ],
      "name": "pinIssue",
      "outputs": [],
      "stateMutability": "nonpayable",
      "type": "function"
    },
    {
      "inputs": [
        {
          "internalType": "string",
          "name": "prId",
          "type": "string"
        },
        {
          "internalType": "string",
          "name": "githubUser",
          "type": "string"
        }
      ],
      "name": "claimPullRequest",
      "outputs": [],
      "stateMutability": "payable",
      "type": "function",
      "payable": true
    },
    {
      "inputs": [
        {
          "internalType": "string",
          "name": "prId",
          "type": "string"
        },
        {
          "internalType": "string",
          "name": "githubUser",
          "type": "string"
        },
        {
          "internalType": "uint256",
          "name": "score",
          "type": "uint256"
        }
      ],
      "name": "confirmClaimPullRequest",
      "outputs": [],
      "stateMutability": "nonpayable",
      "type": "function"
    },
    {
      "inputs": [
        {
          "internalType": "string",
          "name": "issueId",
          "type": "string"
        },
        {
          "internalType": "string",
          "name": "githubUser",
          "type": "string"
        }
      ],
      "name": "releaseIssueDeposits",
      "outputs": [],
      "stateMutability": "payable",
      "type": "function",
      "payable": true
    },
    {
      "inputs": [
        {
          "internalType": "string",
          "name": "issueId",
          "type": "string"
        },
        {
          "internalType": "string",
          "name": "githubUser",
          "type": "string"
        }
      ],
      "name": "confirmReleaseIssueDeposits",
      "outputs": [],
      "stateMutability": "nonpayable",
      "type": "function"
    },
    {
      "inputs": [
        {
          "internalType": "string",
          "name": "issueId",
          "type": "string"
        }
      ],
      "name": "claimReleasedIssueDeposits",
      "outputs": [],
      "stateMutability": "nonpayable",
      "type": "function"
    }
  ],
  "bytecode": "0x60806040526000600a556000600e553480156200001b57600080fd5b50604080518082018252600781526627b1ba37a834b760c91b60208083019182528351808501909452600484526327a824a760e11b908401528151919291620000679160039162000158565b5080516200007d90600490602084019062000158565b50506005805460ff19166012179055506000620000a26001600160e01b036200013f16565b60058054610100600160a81b0319166101006001600160a01b03841690810291909117909155604051919250906000907f8be0079c531659141344cd1fd0a4f28419497f9722a3daafe3b4186f6b6457e0908290a350600160066000620001116001600160e01b036200014416565b6001600160a01b031681526020810191909152604001600020805460ff1916911515919091179055620001fa565b335b90565b60055461010090046001600160a01b031690565b828054600181600116156101000203166002900490600052602060002090601f016020900481019282601f106200019b57805160ff1916838001178555620001cb565b82800160010185558215620001cb579182015b82811115620001cb578251825591602001919060010190620001ae565b50620001d9929150620001dd565b5090565b6200014191905b80821115620001d95760008155600101620001e4565b613a8a806200020a6000396000f3fe6080604052600436106102935760003560e01c806374db332d1161015a578063c695389d116100c1578063f2c298be1161007a578063f2c298be146107c2578063f2fde38b146107d5578063f4b90ef7146107f5578063f4c705ab14610808578063f598312114610828578063fb95354a1461084857610293565b8063c695389d1461070f578063cb99390f1461072f578063ce85fc461461074f578063d5d85fa61461076f578063dd62ed3e1461078f578063efda0fd6146107af57610293565b80639947918c116101135780639947918c1461065c5780639996f1861461067c578063a457c2d71461068f578063a9059cbb146106af578063b52acaab146106cf578063c315fbca146106ef57610293565b806374db332d146105a557806384f8f644146105c55780638617fc46146105e55780638da5cb5b14610605578063957e7eb91461062757806395d89b411461064757610293565b8063454d0554116101fe5780636077321a116101b75780636077321a146104f057806370388bf91461051057806370a0823114610530578063715018a614610550578063716f9d24146105655780637400e6171461058557610293565b8063454d05541461043b57806350aea5591461045d57806353a61ff91461047d57806356bf7cce1461049d5780635d3dd29d146104b057806360445fb2146104d057610293565b806321ec48691161025057806321ec48691461037657806323b872dd146103a4578063313ce567146103c4578063344ae077146103e65780633950935114610406578063407395151461042657610293565b806306fdde0314610298578063095b51a7146102c3578063095ea7b3146102d857806309d406a1146103055780630cb517471461032557806318160ddd14610354575b600080fd5b3480156102a457600080fd5b506102ad61085d565b6040516102ba91906131b5565b60405180910390f35b6102d66102d1366004612d2d565b6108f4565b005b3480156102e457600080fd5b506102f86102f3366004612c72565b610a75565b6040516102ba9190613085565b34801561031157600080fd5b506102d6610320366004612cdb565b610a93565b34801561033157600080fd5b50610345610340366004612e81565b610bd0565b6040516102ba9392919061301a565b34801561036057600080fd5b50610369610c86565b6040516102ba919061393b565b34801561038257600080fd5b50610396610391366004612e05565b610c8c565b6040516102ba929190612fff565b3480156103b057600080fd5b506102f86103bf366004612c32565b610cbe565b3480156103d057600080fd5b506103d9610d4b565b6040516102ba9190613944565b3480156103f257600080fd5b50610369610401366004612e3f565b610d54565b34801561041257600080fd5b506102f8610421366004612c72565b610d91565b34801561043257600080fd5b50610369610de5565b34801561044757600080fd5b50610450610deb565b6040516102ba9190613041565b34801561046957600080fd5b50610450610478366004612c9c565b610e4b565b34801561048957600080fd5b50610450610498366004612c9c565b610ebe565b6102d66104ab366004612d2d565b610ed2565b3480156104bc57600080fd5b506103696104cb366004612e3f565b611092565b3480156104dc57600080fd5b506102d66104eb366004612e81565b6110ba565b3480156104fc57600080fd5b5061034561050b366004612e81565b611164565b34801561051c57600080fd5b5061036961052b366004612e05565b6111e5565b34801561053c57600080fd5b5061036961054b366004612be3565b611202565b34801561055c57600080fd5b506102d661121d565b34801561057157600080fd5b50610369610580366004612c72565b6112a7565b34801561059157600080fd5b506102d66105a0366004612be3565b6112c0565b3480156105b157600080fd5b506102ad6105c0366004612e05565b61138c565b3480156105d157600080fd5b506102d66105e0366004612e3f565b611433565b3480156105f157600080fd5b506102d6610600366004612e81565b611488565b34801561061157600080fd5b5061061a61152d565b6040516102ba9190612f8b565b34801561063357600080fd5b506102ad610642366004612e05565b611541565b34801561065357600080fd5b506102ad6115b5565b34801561066857600080fd5b506102d6610677366004612c9c565b611616565b6102d661068a366004612c9c565b61188d565b34801561069b57600080fd5b506102f86106aa366004612c72565b6119f7565b3480156106bb57600080fd5b506102f86106ca366004612c72565b611a65565b3480156106db57600080fd5b506102d66106ea366004612d95565b611a79565b3480156106fb57600080fd5b506102d661070a366004612e81565b611c03565b34801561071b57600080fd5b5061036961072a366004612c72565b611cc1565b34801561073b57600080fd5b506103d961074a366004612e05565b611cda565b34801561075b57600080fd5b506102ad61076a366004612be3565b611cfa565b34801561077b57600080fd5b506102d661078a366004612d2d565b611d62565b34801561079b57600080fd5b506103696107aa366004612bfe565b611f21565b6102d66107bd366004612c9c565b611f4c565b6102d66107d0366004612c9c565b612063565b3480156107e157600080fd5b506102d66107f0366004612be3565b612206565b6102d6610803366004612c9c565b6122cd565b34801561081457600080fd5b506102d6610823366004612be3565b61242b565b34801561083457600080fd5b506102ad610843366004612e05565b612489565b34801561085457600080fd5b506104506124fd565b60038054604080516020601f60026000196101006001881615020190951694909404938401819004810282018101909252828152606093909290918301828280156108e95780601f106108be576101008083540402835291602001916108e9565b820191906000526020600020905b8154815290600101906020018083116108cc57829003601f168201915b505050505090505b90565b3a61cf080234116109205760405162461bcd60e51b81526004016109179061377a565b60405180910390fd5b60158484604051610932929190612eef565b90815260405190819003602001902054600260ff90911614156109675760405162461bcd60e51b815260040161091790613291565b60006001600160a01b031660078383604051610984929190612eef565b908152604051908190036020019020546001600160a01b031614156109bb5760405162461bcd60e51b815260040161091790613491565b6109c361152d565b6001600160a01b03166108fc349081150290604051600060405180830381858888f193505050501580156109fb573d6000803e3d6000fd5b50600160158585604051610a10929190612eef565b908152604051908190036020018120805460ff9390931660ff19909316929092179091557f61f61b56d5bcc4600c378fe030b373305197bedb3f0060ea99d03860a33c474b90610a67908690869086908690613090565b60405180910390a150505050565b6000610a89610a8261255c565b8484612560565b5060015b92915050565b3360009081526006602052604090205460ff16610ac25760405162461bcd60e51b8152600401610917906137be565b60006001600160a01b031660078484604051610adf929190612eef565b908152604051908190036020019020546001600160a01b031614801590610b385750806001600160a01b031660078484604051610b1d929190612eef565b908152604051908190036020019020546001600160a01b0316145b610b545760405162461bcd60e51b815260040161091790613387565b600160078484604051610b68929190612eef565b9081526040519081900360200181208054921515600160a01b0260ff60a01b19909316929092179091557f55e4fcf1c7b4b1a6190089eb7ef1c1ff91d67d66917edf141d6223003929828a90610bc390839086908690612f9f565b60405180910390a1505050565b60096020908152600091825260409182902080546001808301546002808501805488516101009582161595909502600019011691909104601f81018790048702840187019097528683526001600160a01b03909316959094919291830182828015610c7c5780601f10610c5157610100808354040283529160200191610c7c565b820191906000526020600020905b815481529060010190602001808311610c5f57829003601f168201915b5050505050905083565b60025490565b80516020818301810180516007825292820191909301209152546001600160a01b03811690600160a01b900460ff1682565b6000610ccb848484612614565b610d4184610cd761255c565b610d3c856040518060600160405280602881526020016139e8602891396001600160a01b038a16600090815260016020526040812090610d1561255c565b6001600160a01b03168152602081019190915260400160002054919063ffffffff61272316565b612560565b5060019392505050565b60055460ff1690565b8151602081840181018051600f825292820191850191909120919052805482908110610d7c57fe5b90600052602060002001600091509150505481565b6000610a89610d9e61255c565b84610d3c8560016000610daf61255c565b6001600160a01b03908116825260208083019390935260409182016000908120918c16815292529020549063ffffffff61274f16565b600e5481565b336000908152600c60209081526040918290208054835181840281018401909452808452606093928301828280156108e957602002820191906000526020600020905b815481526020019060010190808311610e2e575050505050905090565b6060600f8383604051610e5f929190612eef565b9081526040805191829003602090810183208054808302850183019093528284529190830182828015610eb157602002820191906000526020600020905b815481526020019060010190808311610e9d575b5050505050905092915050565b6060600b8383604051610e5f929190612eef565b3a618ca0023411610ef55760405162461bcd60e51b8152600401610917906134d4565b6000600f8585604051610f09929190612eef565b9081526040519081900360200190205411610f365760405162461bcd60e51b8152600401610917906131c8565b33600081815260086020526040908190209051600791610f5591612eff565b908152604051908190036020019020546001600160a01b031614610f8b5760405162461bcd60e51b8152600401610917906136de565b610f9361152d565b6001600160a01b03166108fc349081150290604051600060405180830381858888f19350505050158015610fcb573d6000803e3d6000fd5b50818160128686604051610fe0929190612eef565b908152604051908190036020019020610ffa929091612947565b503360009081526008602052604090819020905160139061101e9087908790612eef565b9081526020016040518091039020908054600181600116156101000203166002900461104b9291906129c5565b50336000908152600860205260409081902090517f657f014b97a2f4ed4787ac7ecba9f7abd8d4f3b110e461c700ab411f968cfe0791610a679187918791879187916130c2565b8151602081840181018051600b825292820191850191909120919052805482908110610d7c57fe5b6000818152600960205260409020546001600160a01b031633146110f05760405162461bcd60e51b81526004016109179061340c565b600081815260096020526040808220600101549051339282156108fc02929190818181858888f1935050505015801561112d573d6000803e3d6000fd5b50600081815260096020526040812080546001600160a01b0319168155600181018290559061115f6002830182612a3a565b505050565b600d6020908152600091825260409182902080546001808301546002808501805488516101009582161595909502600019011691909104601f81018790048702840187019097528683526001600160a01b03909316959094919291830182828015610c7c5780601f10610c5157610100808354040283529160200191610c7c565b805160208183018101805160148252928201919093012091525481565b6001600160a01b031660009081526020819052604090205490565b61122561255c565b60055461010090046001600160a01b039081169116146112575760405162461bcd60e51b8152600401610917906135f2565b60055460405160009161010090046001600160a01b0316907f8be0079c531659141344cd1fd0a4f28419497f9722a3daafe3b4186f6b6457e0908390a360058054610100600160a81b0319169055565b60106020528160005260406000208181548110610d7c57fe5b6112c861255c565b60055461010090046001600160a01b039081169116146112fa5760405162461bcd60e51b8152600401610917906135f2565b6001600160a01b03811660009081526006602052604090205460ff166113325760405162461bcd60e51b8152600401610917906136ad565b61133a61152d565b6001600160a01b0316816001600160a01b0316141561136b5760405162461bcd60e51b81526004016109179061345c565b6001600160a01b03166000908152600660205260409020805460ff19169055565b805160208183018101805160138252928201938201939093209190925280546040805160026001841615610100026000190190931692909204601f8101859004850283018501909152808252909283018282801561142b5780601f106114005761010080835404028352916020019161142b565b820191906000526020600020905b81548152906001019060200180831161140e57829003601f168201915b505050505081565b600081116114535760405162461bcd60e51b8152600401610917906132c8565b61145d338261277b565b8060148360405161146e9190612f6f565b908152604051908190036020019020805490910190555050565b6000818152600d60205260409020546001600160a01b031633146114be5760405162461bcd60e51b81526004016109179061340c565b6000818152600d6020526040808220600101549051339282156108fc02929190818181858888f193505050501580156114fb573d6000803e3d6000fd5b506000818152600d6020526040812080546001600160a01b0319168155600181018290559061115f6002830182612a3a565b60055461010090046001600160a01b031690565b805160208183018101805160118252928201938201939093209190925280546040805160026001841615610100026000190190931692909204601f8101859004850283018501909152808252909283018282801561142b5780601f106114005761010080835404028352916020019161142b565b60048054604080516020601f60026000196101006001881615020190951694909404938401819004810282018101909252828152606093909290918301828280156108e95780601f106108be576101008083540402835291602001916108e9565b3360008181526008602052604090819020905160079161163591612eff565b908152604051908190036020019020546001600160a01b03161461166b5760405162461bcd60e51b8152600401610917906136de565b336000908152600860205260409081902090516116889190612eff565b6040518091039020601183836040516116a2929190612eef565b9081526040519081900360200181206116ba91612eff565b6040518091039020146116df5760405162461bcd60e51b815260040161091790613802565b60005b600f83836040516116f4929190612eef565b9081526040519081900360200190205481101561185c576000600d6000600f8686604051611723929190612eef565b9081526020016040518091039020848154811061173c57fe5b906000526020600020015481526020019081526020016000206001015411156117e557336001600160a01b03166108fc600d6000600f8787604051611782929190612eef565b9081526020016040518091039020858154811061179b57fe5b90600052602060002001548152602001908152602001600020600101549081150290604051600060405180830381858888f193505050501580156117e3573d6000803e3d6000fd5b505b600d6000600f85856040516117fb929190612eef565b9081526020016040518091039020838154811061181457fe5b60009182526020808320909101548352820192909252604001812080546001600160a01b031916815560018101829055906118526002830182612a3a565b50506001016116e2565b506011828260405161186f929190612eef565b908152602001604051809103902060006118899190612a3a565b5050565b600034116118ad5760405162461bcd60e51b8152600401610917906138d8565b600a8054600101905560408051606081018252338152346020808301919091528251601f8501829004820281018201845284815291928301919085908590819084018382808284376000920182905250939094525050600a54815260096020908152604091829020845181546001600160a01b0319166001600160a01b039091161781558482015160018201559184015180519293506119569260028501929190910190612a81565b50905050600b828260405161196c929190612eef565b908152604080519182900360209081018320600a805482546001818101855560009485528585209091019190915533808452600c855294832091548254918201835591835292909120909101557f406551011d3a3874d102c2ee25adb004adb6d90a8134f04c14bd02f73ad4a3d0916119eb9190349086908690612fcd565b60405180910390a15050565b6000610a89611a0461255c565b84610d3c85604051806060016040528060258152602001613a306025913960016000611a2e61255c565b6001600160a01b03908116825260208083019390935260409182016000908120918d1681529252902054919063ffffffff61272316565b6000610a89611a7261255c565b8484612614565b3360009081526006602052604090205460ff16611aa85760405162461bcd60e51b8152600401610917906137be565b60158585604051611aba929190612eef565b9081526040519081900360200190205460ff16600114611aec5760405162461bcd60e51b815260040161091790613291565b60006001600160a01b031660078484604051611b09929190612eef565b908152604051908190036020019020546001600160a01b03161415611b405760405162461bcd60e51b815260040161091790613491565b600260158686604051611b54929190612eef565b908152602001604051809103902060006101000a81548160ff021916908360ff160217905550611bbd60078484604051611b8f929190612eef565b908152604051908190036020019020546001600160a01b0316611bb0610d4b565b60ff16600a0a8302612857565b7fe0ca3b0d5f07049a3975315a95eadf935a046d8c67c4660d0f5fd3f5bf600a428585858585604051611bf495949392919061317b565b60405180910390a15050505050565b33600081815260086020526040908190209051600791611c2291612eff565b908152604051908190036020019020546001600160a01b031614611c585760405162461bcd60e51b81526004016109179061387f565b33600090815260086020526040908190209051611c759190612eff565b6040805191829003822060008481526009602052919091209091611c9c9160020190612eff565b6040518091039020146110f05760405162461bcd60e51b81526004016109179061351a565b600c6020528160005260406000208181548110610d7c57fe5b805160208183018101805160158252928201919093012091525460ff1681565b60086020908152600091825260409182902080548351601f60026000196101006001861615020190931692909204918201849004840281018401909452808452909183018282801561142b5780601f106114005761010080835404028352916020019161142b565b3360009081526006602052604090205460ff16611d915760405162461bcd60e51b8152600401610917906137be565b6000600f8585604051611da5929190612eef565b9081526040519081900360200190205411611dd25760405162461bcd60e51b8152600401610917906131c8565b8181604051611de2929190612eef565b604051809103902060128585604051611dfc929190612eef565b908152604051908190036020018120611e1491612eff565b604051809103902014611e395760405162461bcd60e51b81526004016109179061324c565b7f0e1bce044d95695d1ffa27647360fa8efeaf89654d6d21787695e9d158f0b40e8484848460138989604051611e70929190612eef565b908152604051908190036020018120611e8c95949392916130c2565b60405180910390a1818160118686604051611ea8929190612eef565b908152604051908190036020019020611ec2929091612947565b5060128484604051611ed5929190612eef565b90815260200160405180910390206000611eef9190612a3a565b60138484604051611f01929190612eef565b90815260200160405180910390206000611f1b9190612a3a565b50505050565b6001600160a01b03918216600090815260016020908152604080832093909416825291909152205490565b60003411611f6c5760405162461bcd60e51b8152600401610917906138d8565b60006001600160a01b031660078383604051611f89929190612eef565b908152604051908190036020019020546001600160a01b03161415611fc05760405162461bcd60e51b815260040161091790613491565b60078282604051611fd2929190612eef565b90815260405160209181900391909101902054600160a01b900460ff1615156001146120105760405162461bcd60e51b8152600401610917906135ac565b60078282604051612022929190612eef565b908152604051908190036020018120546001600160a01b0316903480156108fc02916000818181858888f1935050505015801561115f573d6000803e3d6000fd5b3a6188b80234116120865760405162461bcd60e51b815260040161091790613561565b60006001600160a01b0316600783836040516120a3929190612eef565b908152604051908190036020019020546001600160a01b03161461210a5760086000600784846040516120d7929190612eef565b9081526040805160209281900383019020546001600160a01b031683529082019290925201600090812061210a91612a3a565b60408051808201825233815260006020820152905160079061212f9085908590612eef565b908152604080516020928190038301902083518154948401516001600160a01b03199095166001600160a01b039091161760ff60a01b1916600160a01b9415159490940293909317909255336000908152600890915220612191908383612947565b5061219a61152d565b6001600160a01b03166108fc349081150290604051600060405180830381858888f193505050501580156121d2573d6000803e3d6000fd5b507fd417e304669e6bf903f41a03f5ce981dac00416cf5034cd47d22fcb0c67c96bd3383836040516119eb93929190612f9f565b61220e61255c565b60055461010090046001600160a01b039081169116146122405760405162461bcd60e51b8152600401610917906135f2565b6001600160a01b0381166122665760405162461bcd60e51b8152600401610917906132ff565b6005546040516001600160a01b0380841692610100900416907f8be0079c531659141344cd1fd0a4f28419497f9722a3daafe3b4186f6b6457e090600090a3600580546001600160a01b0390921661010002610100600160a81b0319909216919091179055565b600034116122ed5760405162461bcd60e51b8152600401610917906138d8565b600e8054600101905560408051606081018252338152346020808301919091528251601f8501829004820281018201845284815291928301919085908590819084018382808284376000920182905250939094525050600e548152600d6020908152604091829020845181546001600160a01b0319166001600160a01b039091161781558482015160018201559184015180519293506123969260028501929190910190612a81565b50905050600f82826040516123ac929190612eef565b908152604080519182900360209081018320600e8054825460018181018555600094855285852090910191909155338084526010855294832091548254918201835591835292909120909101557f08c7c4039b7c98d46cb4ebb0f96ca6a67a506db7c3ddd814f88dd3cfd24e2ae9916119eb9190349086908690612fcd565b61243361255c565b60055461010090046001600160a01b039081169116146124655760405162461bcd60e51b8152600401610917906135f2565b6001600160a01b03166000908152600660205260409020805460ff19166001179055565b805160208183018101805160128252928201938201939093209190925280546040805160026001841615610100026000190190931692909204601f8101859004850283018501909152808252909283018282801561142b5780601f106114005761010080835404028352916020019161142b565b336000908152601060209081526040918290208054835181840281018401909452808452606093928301828280156108e95760200282019190600052602060002090815481526020019060010190808311610e2e575050505050905090565b3390565b6001600160a01b0383166125865760405162461bcd60e51b815260040161091790613736565b6001600160a01b0382166125ac5760405162461bcd60e51b815260040161091790613345565b6001600160a01b0380841660008181526001602090815260408083209487168084529490915290819020849055517f8c5be1e5ebec7d5bd14f71427d1e84f3dd0314c0f7b2291e5b200ac8c7c3b9259061260790859061393b565b60405180910390a3505050565b6001600160a01b03831661263a5760405162461bcd60e51b815260040161091790613668565b6001600160a01b0382166126605760405162461bcd60e51b815260040161091790613209565b61266b83838361115f565b6126ae816040518060600160405280602681526020016139c2602691396001600160a01b038616600090815260208190526040902054919063ffffffff61272316565b6001600160a01b0380851660009081526020819052604080822093909355908416815220546126e3908263ffffffff61274f16565b6001600160a01b038084166000818152602081905260409081902093909355915190851690600080516020613a108339815191529061260790859061393b565b600081848411156127475760405162461bcd60e51b815260040161091791906131b5565b505050900390565b6000828201838110156127745760405162461bcd60e51b8152600401610917906133d5565b9392505050565b6001600160a01b0382166127a15760405162461bcd60e51b815260040161091790613627565b6127ad8260008361115f565b6127f0816040518060600160405280602281526020016139a0602291396001600160a01b038516600090815260208190526040902054919063ffffffff61272316565b6001600160a01b03831660009081526020819052604090205560025461281c908263ffffffff61290516565b6002556040516000906001600160a01b03841690600080516020613a108339815191529061284b90859061393b565b60405180910390a35050565b6001600160a01b03821661287d5760405162461bcd60e51b815260040161091790613904565b6128896000838361115f565b60025461289c908263ffffffff61274f16565b6002556001600160a01b0382166000908152602081905260409020546128c8908263ffffffff61274f16565b6001600160a01b038316600081815260208190526040808220939093559151909190600080516020613a108339815191529061284b90859061393b565b600061277483836040518060400160405280601e81526020017f536166654d6174683a207375627472616374696f6e206f766572666c6f770000815250612723565b828054600181600116156101000203166002900490600052602060002090601f016020900481019282601f106129885782800160ff198235161785556129b5565b828001600101855582156129b5579182015b828111156129b557823582559160200191906001019061299a565b506129c1929150612aef565b5090565b828054600181600116156101000203166002900490600052602060002090601f016020900481019282601f106129fe57805485556129b5565b828001600101855582156129b557600052602060002091601f016020900482015b828111156129b5578254825591600101919060010190612a1f565b50805460018160011615610100020316600290046000825580601f10612a605750612a7e565b601f016020900490600052602060002090810190612a7e9190612aef565b50565b828054600181600116156101000203166002900490600052602060002090601f016020900481019282601f10612ac257805160ff19168380011785556129b5565b828001600101855582156129b5579182015b828111156129b5578251825591602001919060010190612ad4565b6108f191905b808211156129c15760008155600101612af5565b80356001600160a01b0381168114610a8d57600080fd5b60008083601f840112612b31578182fd5b5081356001600160401b03811115612b47578182fd5b602083019150836020828501011115612b5f57600080fd5b9250929050565b600082601f830112612b76578081fd5b81356001600160401b0380821115612b8c578283fd5b604051601f8301601f191681016020018281118282101715612bac578485fd5b604052828152925082848301602001861015612bc757600080fd5b8260208601602083013760006020848301015250505092915050565b600060208284031215612bf4578081fd5b6127748383612b09565b60008060408385031215612c10578081fd5b612c1a8484612b09565b9150612c298460208501612b09565b90509250929050565b600080600060608486031215612c46578081fd5b8335612c518161398a565b92506020840135612c618161398a565b929592945050506040919091013590565b60008060408385031215612c84578182fd5b612c8e8484612b09565b946020939093013593505050565b60008060208385031215612cae578182fd5b82356001600160401b03811115612cc3578283fd5b612ccf85828601612b20565b90969095509350505050565b600080600060408486031215612cef578283fd5b83356001600160401b03811115612d04578384fd5b612d1086828701612b20565b9094509250612d2490508560208601612b09565b90509250925092565b60008060008060408587031215612d42578081fd5b84356001600160401b0380821115612d58578283fd5b612d6488838901612b20565b90965094506020870135915080821115612d7c578283fd5b50612d8987828801612b20565b95989497509550505050565b600080600080600060608688031215612dac578081fd5b85356001600160401b0380821115612dc2578283fd5b612dce89838a01612b20565b90975095506020880135915080821115612de6578283fd5b50612df388828901612b20565b96999598509660400135949350505050565b600060208284031215612e16578081fd5b81356001600160401b03811115612e2b578182fd5b612e3784828501612b66565b949350505050565b60008060408385031215612e51578182fd5b82356001600160401b03811115612e66578283fd5b612e7285828601612b66565b95602094909401359450505050565b600060208284031215612e92578081fd5b5035919050565b60008284528282602086013780602084860101526020601f19601f85011685010190509392505050565b60008151808452612edb81602086016020860161395e565b601f01601f19169290920160200192915050565b6000828483379101908152919050565b6000808354600180821660008114612f1e5760018114612f3557612f64565b60ff198316865260028304607f1686019350612f64565b600283048786526020808720875b83811015612f5c5781548a820152908501908201612f43565b505050860193505b509195945050505050565b60008251612f8181846020870161395e565b9190910192915050565b6001600160a01b0391909116815260200190565b6001600160a01b0384168152604060208201819052600090612fc49083018486612e99565b95945050505050565b600060018060a01b038616825284602083015260606040830152612ff5606083018486612e99565b9695505050505050565b6001600160a01b039290921682521515602082015260400190565b600060018060a01b038516825283602083015260606040830152612fc46060830184612ec3565b6020808252825182820181905260009190848201906040850190845b818110156130795783518352928401929184019160010161305d565b50909695505050505050565b901515815260200190565b6000604082526130a4604083018688612e99565b82810360208401526130b7818587612e99565b979650505050505050565b6000606082526130d6606083018789612e99565b6020838203818501526130ea828789612e99565b848103604086015285548493506001808216801561310f576001811461312f5761316a565b61311f607f60028504168561393b565b60ff19841681528501955061316a565b6002830461313d818661393b565b6131468b613952565b895b8381101561316157815483820152908501908801613148565b91909101975050505b50939b9a5050505050505050505050565b60006060825261318f606083018789612e99565b82810360208401526131a2818688612e99565b9150508260408301529695505050505050565b6000602082526127746020830184612ec3565b60208082526021908201527f497373756520686173206e6f206465706f7369747320746f2072656c656173656040820152601760f91b606082015260800190565b60208082526023908201527f45524332303a207472616e7366657220746f20746865207a65726f206164647260408201526265737360e81b606082015260800190565b60208082526025908201527f546869732069737375652072656c6561736520776173206e6f7420726571756560408201526439ba32b21760d91b606082015260800190565b6020808252601d908201527f50756c6c207265717565737420616c726561647920636c61696d65642e000000604082015260600190565b6020808252601c908201527f416d6f756e74206d7573742062652067726561746572207a65726f2e00000000604082015260600190565b60208082526026908201527f4f776e61626c653a206e6577206f776e657220697320746865207a65726f206160408201526564647265737360d01b606082015260800190565b60208082526022908201527f45524332303a20617070726f766520746f20746865207a65726f206164647265604082015261737360f01b606082015260800190565b6020808252602e908201527f54686973206163636f756e7420636f6e6669726d6174696f6e20776173206e6560408201526d3b32b9103932b8bab2b9ba32b21760911b606082015260800190565b6020808252601b908201527f536166654d6174683a206164646974696f6e206f766572666c6f770000000000604082015260600190565b60208082526030908201527f4465706f73697420646964206e6f742063616d652066726f6d2074686973204560408201526f3a3432b932bab69030b1b1b7bab73a1760811b606082015260800190565b6020808252818101527f4f776e6572206f7261636c652063616e206e6f742062652072656d6f7665642e604082015260600190565b60208082526023908201527f54686973204769744875622055736572206973206e6f7420726567697374657260408201526232b21760e91b606082015260800190565b60208082526026908201527f52656c656173652066656520286f7261636c6520636f737429206e6f7420636f6040820152653b32b932b21760d11b606082015260800190565b60208082526027908201527f4465706f736974206973206e6f7420666f72207468697320476974487562206160408201526631b1b7bab73a1760c91b606082015260800190565b6020808252602b908201527f526567697374726174696f6e2066656520286f7261636c6520636f737429206e60408201526a37ba1031b7bb32b932b21760a91b606082015260800190565b60208082526026908201527f54686973204769744875622055736572206973206e6f7420636f6e6669726d6560408201526532103cb2ba1760d11b606082015260800190565b6020808252818101527f4f776e61626c653a2063616c6c6572206973206e6f7420746865206f776e6572604082015260600190565b60208082526021908201527f45524332303a206275726e2066726f6d20746865207a65726f206164647265736040820152607360f81b606082015260800190565b60208082526025908201527f45524332303a207472616e736665722066726f6d20746865207a65726f206164604082015264647265737360d81b606082015260800190565b60208082526017908201527627b930b1b632903237b2b9903737ba1032bc34b9ba399760491b604082015260600190565b60208082526038908201527f4e6f20476974487562206163636f756e7420726567697374657265642077697460408201527734103a3434b99022ba3432b932bab69030b1b1b7bab73a1760411b606082015260800190565b60208082526024908201527f45524332303a20617070726f76652066726f6d20746865207a65726f206164646040820152637265737360e01b606082015260800190565b60208082526024908201527f436c61696d2066656520286f7261636c6520636f737429206e6f7420636f76656040820152633932b21760e11b606082015260800190565b60208082526024908201527f4f6e6c79206f7261636c65732063616e20636f6e6669726d206f70657261746960408201526337b7399760e11b606082015260800190565b60208082526057908201527f54686520476974487562206163636f756e74207468697320697373756520776160408201527f732072656c656173656420746f20646f6573206e6f742062656c6f6e6720746f606082015276103a3434b99022ba3432b932bab69030b1b1b7bab73a1760491b608082015260a00190565b60208082526039908201527f476974487562206163636f756e74206e6f7420726567697374657265642077696040820152783a34103a3434b99022ba3432b932bab69030b1b1b7bab73a1760391b606082015260800190565b6020808252601290820152712cb7ba9036bab9ba1039b2b7321022aa241760711b604082015260600190565b6020808252601f908201527f45524332303a206d696e7420746f20746865207a65726f206164647265737300604082015260600190565b90815260200190565b60ff91909116815260200190565b60009081526020902090565b60005b83811015613979578181015183820152602001613961565b83811115611f1b5750506000910152565b6001600160a01b0381168114612a7e57600080fdfe45524332303a206275726e20616d6f756e7420657863656564732062616c616e636545524332303a207472616e7366657220616d6f756e7420657863656564732062616c616e636545524332303a207472616e7366657220616d6f756e74206578636565647320616c6c6f77616e6365ddf252ad1be2c89b69c2b068fc378daa952ba7f163c4a11628f55a4df523b3ef45524332303a2064656372656173656420616c6c6f77616e63652062656c6f77207a65726fa2646970667358221220023687b87b89bb3ec2da46151bf508dfa8674851c9ae43732b73882a435762e564736f6c63430006060033",
  "immutableReferences": {},
  "source": "// SPDX-License-Identifier: MIT\npragma solidity ^0.6.0;\npragma experimental ABIEncoderV2;\n\nimport \"@openzeppelin/contracts/token/ERC20/ERC20.sol\";\nimport \"@openzeppelin/contracts/access/Ownable.sol\";\n\ncontract OctoBay is ERC20, Ownable {\n  struct User {\n    address account;\n    bool confirmed;\n  }\n\n  struct UserDeposit {\n    address from;\n    uint256 amount;\n    string githubUser;\n  }\n\n  struct IssueDeposit {\n    address from;\n    uint256 amount;\n    string issueId;\n  }\n\n  event RegistrationRequestEvent(address account, string githubUser);\n  event RegistrationConfirmedEvent(address account, string githubUser);\n  event ClaimPrRequestEvent(string prId, string githubUser);\n  event ClaimPrConfirmEvent(string prId, string githubUser, uint256 score);\n  event UserDepositEvent(address account, uint256 amount, string githubUser);\n  event IssueDepositEvent(address account, uint256 amount, string issueId);\n  event ReleaseIssueDepositsRequestEvent(string issueId, string githubUser, string owner);\n  event ReleaseIssueDepositsConfirmEvent(string issueId, string githubUser, string owner);\n\n  mapping(address => bool) private _oracles;\n\n  mapping(string => User) public _users;\n  mapping(address => string) public _usersByAddress;\n\n  mapping(uint256 => UserDeposit) public _userDeposits;\n  uint256 private _nextUserDepositId = 0;\n  mapping(string => uint256[]) public _userDepositIdsByGithubUser;\n  mapping(address => uint256[]) public _userDepositIdsBySender;\n\n  mapping(uint256 => IssueDeposit) public _issueDeposits;\n  uint256 public _nextIssueDepositId = 0;\n  mapping(string => uint256[]) public _issueDepositIdsByIssueId;\n  mapping(address => uint256[]) public _issueDepositIdsBySender;\n\n  mapping(string => string) public _releasedIssues;\n  mapping(string => string) public _releasedIssueRequests;\n  mapping(string => string) public _releasedIssueRequestsOwnedBy;\n\n  mapping(string => uint256) public _issueBoosts;\n  mapping(string => uint8) public _claimedPullRequests;\n\n  modifier onlyOracles {\n    require(_oracles[msg.sender], \"Only oracles can confirm operations.\");\n    _;\n  }\n\n  constructor() ERC20(\"OctoPin\", \"OPIN\") public {\n    _oracles[owner()] = true;\n  }\n\n  /// @param oracle The oracle address to add\n  function enableOracle(address oracle) external onlyOwner {\n    _oracles[oracle] = true;\n  }\n\n  /// @param oracle The oracle address to remove (cannot be owner)\n  function disableOracle(address oracle) external onlyOwner {\n    require(_oracles[oracle], \"Oracle does not exists.\");\n    require(oracle != owner(), \"Owner oracle can not be removed.\");\n    _oracles[oracle] = false;\n  }\n\n  /// @dev Verify ownership over GitHub account by checking for a repositry of\n  /// @dev githubUser named after msg.sender. Adds user as unconfirmed and sends\n  /// @dev an oracle request, that will be fullfilled in registerConfirm.\n  /// @param githubUser The GitHub username to register\n  function register(string calldata githubUser) external payable {\n    require(msg.value > 35000 * tx.gasprice, \"Registration fee (oracle cost) not covered.\");\n    if (_users[githubUser].account != address(0)) {\n      delete _usersByAddress[_users[githubUser].account];\n    }\n    _users[githubUser] = User(msg.sender, false);\n    _usersByAddress[msg.sender] = githubUser;\n\n    payable(owner()).transfer(msg.value);\n\n    emit RegistrationRequestEvent(msg.sender, githubUser);\n  }\n\n  /// @dev Oracle fullfill method. Sets unconfirmed user to confirmed if repo exists.\n  /// @param githubUser The githubUser to confirm\n  /// @param account The Eth account to confirm\n  function registerConfirm(string calldata githubUser, address account) external onlyOracles {\n    require(\n      _users[githubUser].account != address(0) && _users[githubUser].account == account,\n      \"This account confirmation was never requested.\"\n    );\n    _users[githubUser].confirmed = true;\n    emit RegistrationConfirmedEvent(account, githubUser);\n  }\n\n  /// @dev Send ETH to a registered githubUser.\n  /// @param githubUser The receiving githubUser.\n  function sendEthToGithubUser(string calldata githubUser) external payable {\n    require(msg.value > 0, \"You must send ETH.\");\n    require(_users[githubUser].account != address(0), \"This GitHub User is not registered.\");\n    require(_users[githubUser].confirmed == true, \"This GitHub User is not confirmed yet.\");\n    payable(_users[githubUser].account).transfer(msg.value);\n  }\n\n  /// @dev Deposit ETH to a registered githubUser.\n  /// @param githubUser The receiving githubUser.\n  function depositEthForGithubUser(string calldata githubUser) external payable {\n    require(msg.value > 0, \"You must send ETH.\");\n    _nextUserDepositId++;\n    _userDeposits[_nextUserDepositId] = UserDeposit(msg.sender, msg.value, githubUser);\n    _userDepositIdsByGithubUser[githubUser].push(_nextUserDepositId);\n    _userDepositIdsBySender[msg.sender].push(_nextUserDepositId);\n    emit UserDepositEvent(msg.sender, msg.value, githubUser);\n  }\n\n  function withdrawUserDeposit(uint256 depositId) external {\n    require(_users[_usersByAddress[msg.sender]].account == msg.sender, \"GitHub account not registered with this Ethereum account.\");\n    require(keccak256(bytes(_userDeposits[depositId].githubUser)) == keccak256(bytes(_usersByAddress[msg.sender])), \"Deposit is not for this GitHub account.\");\n    payable(msg.sender).transfer(_userDeposits[depositId].amount);\n    delete _userDeposits[depositId];\n  }\n\n  function refundUserDeposit(uint256 depositId) external {\n    require(_userDeposits[depositId].from == msg.sender, \"Deposit did not came from this Ethereum account.\");\n    payable(msg.sender).transfer(_userDeposits[depositId].amount);\n    delete _userDeposits[depositId];\n  }\n\n  function getUserDepositIdsForGithubUser(string calldata githubUser) external view returns(uint256[] memory) {\n    return _userDepositIdsByGithubUser[githubUser];\n  }\n\n  function getUserDepositIdsForSender() external view returns(uint256[] memory) {\n    return _userDepositIdsBySender[msg.sender];\n  }\n\n  /// @dev Deposit ETH to a github issue.\n  /// @param issueId The receiving github issue.\n  function depositEthForIssue(string calldata issueId) external payable {\n    require(msg.value > 0, \"You must send ETH.\");\n    _nextIssueDepositId++;\n    _issueDeposits[_nextIssueDepositId] = IssueDeposit(msg.sender, msg.value, issueId);\n    _issueDepositIdsByIssueId[issueId].push(_nextIssueDepositId);\n    _issueDepositIdsBySender[msg.sender].push(_nextIssueDepositId);\n    emit IssueDepositEvent(msg.sender, msg.value, issueId);\n  }\n\n  function refundIssueDeposit(uint256 depositId) external {\n    require(_issueDeposits[depositId].from == msg.sender, \"Deposit did not came from this Ethereum account.\");\n    payable(msg.sender).transfer(_issueDeposits[depositId].amount);\n    delete _issueDeposits[depositId];\n  }\n\n  function getIssueDepositIdsForIssueId(string calldata issueId) external view returns(uint256[] memory) {\n    return _issueDepositIdsByIssueId[issueId];\n  }\n\n  function getIssueDepositIdsForSender() external view returns(uint256[] memory) {\n    return _issueDepositIdsBySender[msg.sender];\n  }\n\n  function pinIssue(string memory issueId, uint256 amount) public {\n    require(amount > 0, \"Amount must be greater zero.\");\n    _burn(msg.sender, amount);\n    _issueBoosts[issueId] += amount;\n  }\n\n  function claimPullRequest(string calldata prId, string calldata githubUser) external payable {\n    require(msg.value > 53000 * tx.gasprice, \"Claim fee (oracle cost) not covered.\");\n    require(_claimedPullRequests[prId] != 2, \"Pull request already claimed.\");\n    require(_users[githubUser].account != address(0), \"This GitHub User is not registered.\");\n    payable(owner()).transfer(msg.value);\n    _claimedPullRequests[prId] = 1;\n    emit ClaimPrRequestEvent(prId, githubUser);\n  }\n\n  function confirmClaimPullRequest(string calldata prId, string calldata githubUser, uint256 score) external onlyOracles {\n    require(_claimedPullRequests[prId] == 1, \"Pull request already claimed.\");\n    require(_users[githubUser].account != address(0), \"This GitHub User is not registered.\");\n    _claimedPullRequests[prId] = 2;\n    _mint(_users[githubUser].account, score * uint256(10) ** decimals());\n    emit ClaimPrConfirmEvent(prId, githubUser, score);\n  }\n\n  function releaseIssueDeposits(string calldata issueId, string calldata githubUser) external payable {\n    require(msg.value > 36000 * tx.gasprice, \"Release fee (oracle cost) not covered.\");\n    require(_issueDepositIdsByIssueId[issueId].length > 0, \"Issue has no deposits to release.\");\n    require(_users[_usersByAddress[msg.sender]].account == msg.sender, \"No GitHub account registered with this Ethereum account.\");\n    payable(owner()).transfer(msg.value);\n    _releasedIssueRequests[issueId] = githubUser;\n    _releasedIssueRequestsOwnedBy[issueId] = _usersByAddress[msg.sender];\n    emit ReleaseIssueDepositsRequestEvent(issueId, githubUser, _usersByAddress[msg.sender]);\n  }\n\n  function confirmReleaseIssueDeposits(string calldata issueId, string calldata githubUser) external onlyOracles {\n    require(_issueDepositIdsByIssueId[issueId].length > 0, \"Issue has no deposits to release.\");\n    require(keccak256(bytes(_releasedIssueRequests[issueId])) == keccak256(bytes(githubUser)), \"This issue release was not requested.\");\n    emit ReleaseIssueDepositsConfirmEvent(issueId, githubUser, _releasedIssueRequestsOwnedBy[issueId]);\n    _releasedIssues[issueId] = githubUser;\n    delete _releasedIssueRequests[issueId];\n    delete _releasedIssueRequestsOwnedBy[issueId];\n  }\n\n  function claimReleasedIssueDeposits(string calldata issueId) external {\n    require(_users[_usersByAddress[msg.sender]].account == msg.sender, \"No GitHub account registered with this Ethereum account.\");\n    require(keccak256(bytes(_releasedIssues[issueId])) == keccak256(bytes(_usersByAddress[msg.sender])), \"The GitHub account this issue was released to does not belong to this Ethereum account.\");\n\n    for (uint256 i = 0; i < _issueDepositIdsByIssueId[issueId].length; i++) {\n      if (_issueDeposits[_issueDepositIdsByIssueId[issueId][i]].amount > 0) {\n        payable(msg.sender).transfer(_issueDeposits[_issueDepositIdsByIssueId[issueId][i]].amount);\n      }\n      delete _issueDeposits[_issueDepositIdsByIssueId[issueId][i]];\n    }\n    delete _releasedIssues[issueId];\n  }\n}\n",
  "sourcePath": "/home/mkt/Projects/octobay-contracts/contracts/OctoBay.sol",
  "compiler": {
    "name": "solc",
    "version": "0.6.6+commit.6c089d02.Emscripten.clang"
  },
  "schemaVersion": "3.2.5",
  "updatedAt": "2020-12-05T17:47:46.910Z",
  "networkType": "ethereum",
  "devdoc": {
    "methods": {
      "allowance(address,address)": {
        "details": "See {IERC20-allowance}."
      },
      "approve(address,uint256)": {
        "details": "See {IERC20-approve}.     * Requirements:     * - `spender` cannot be the zero address."
      },
      "balanceOf(address)": {
        "details": "See {IERC20-balanceOf}."
      },
      "decimals()": {
        "details": "Returns the number of decimals used to get its user representation. For example, if `decimals` equals `2`, a balance of `505` tokens should be displayed to a user as `5,05` (`505 / 10 ** 2`).     * Tokens usually opt for a value of 18, imitating the relationship between Ether and Wei. This is the value {ERC20} uses, unless {_setupDecimals} is called.     * NOTE: This information is only used for _display_ purposes: it in no way affects any of the arithmetic of the contract, including {IERC20-balanceOf} and {IERC20-transfer}."
      },
      "decreaseAllowance(address,uint256)": {
        "details": "Atomically decreases the allowance granted to `spender` by the caller.     * This is an alternative to {approve} that can be used as a mitigation for problems described in {IERC20-approve}.     * Emits an {Approval} event indicating the updated allowance.     * Requirements:     * - `spender` cannot be the zero address. - `spender` must have allowance for the caller of at least `subtractedValue`."
      },
      "depositEthForGithubUser(string)": {
        "details": "Deposit ETH to a registered githubUser.",
        "params": {
          "githubUser": "The receiving githubUser."
        }
      },
      "depositEthForIssue(string)": {
        "details": "Deposit ETH to a github issue.",
        "params": {
          "issueId": "The receiving github issue."
        }
      },
      "disableOracle(address)": {
        "params": {
          "oracle": "The oracle address to remove (cannot be owner)"
        }
      },
      "enableOracle(address)": {
        "params": {
          "oracle": "The oracle address to add"
        }
      },
      "increaseAllowance(address,uint256)": {
        "details": "Atomically increases the allowance granted to `spender` by the caller.     * This is an alternative to {approve} that can be used as a mitigation for problems described in {IERC20-approve}.     * Emits an {Approval} event indicating the updated allowance.     * Requirements:     * - `spender` cannot be the zero address."
      },
      "name()": {
        "details": "Returns the name of the token."
      },
      "owner()": {
        "details": "Returns the address of the current owner."
      },
      "register(string)": {
        "details": "Verify ownership over GitHub account by checking for a repositry ofgithubUser named after msg.sender. Adds user as unconfirmed and sendsan oracle request, that will be fullfilled in registerConfirm.",
        "params": {
          "githubUser": "The GitHub username to register"
        }
      },
      "registerConfirm(string,address)": {
        "details": "Oracle fullfill method. Sets unconfirmed user to confirmed if repo exists.",
        "params": {
          "account": "The Eth account to confirm",
          "githubUser": "The githubUser to confirm"
        }
      },
      "renounceOwnership()": {
        "details": "Leaves the contract without owner. It will not be possible to call `onlyOwner` functions anymore. Can only be called by the current owner.     * NOTE: Renouncing ownership will leave the contract without an owner, thereby removing any functionality that is only available to the owner."
      },
      "sendEthToGithubUser(string)": {
        "details": "Send ETH to a registered githubUser.",
        "params": {
          "githubUser": "The receiving githubUser."
        }
      },
      "symbol()": {
        "details": "Returns the symbol of the token, usually a shorter version of the name."
      },
      "totalSupply()": {
        "details": "See {IERC20-totalSupply}."
      },
      "transfer(address,uint256)": {
        "details": "See {IERC20-transfer}.     * Requirements:     * - `recipient` cannot be the zero address. - the caller must have a balance of at least `amount`."
      },
      "transferFrom(address,address,uint256)": {
        "details": "See {IERC20-transferFrom}.     * Emits an {Approval} event indicating the updated allowance. This is not required by the EIP. See the note at the beginning of {ERC20};     * Requirements: - `sender` and `recipient` cannot be the zero address. - `sender` must have a balance of at least `amount`. - the caller must have allowance for ``sender``'s tokens of at least `amount`."
      },
      "transferOwnership(address)": {
        "details": "Transfers ownership of the contract to a new account (`newOwner`). Can only be called by the current owner."
      }
    }
  },
  "userdoc": {
    "methods": {}
  }
}