{
  "contractName": "OctoBay",
  "abi": [
    {
      "inputs": [
        {
          "internalType": "address",
          "name": "_link",
          "type": "address"
        }
      ],
      "stateMutability": "nonpayable",
      "type": "constructor"
    },
    {
      "anonymous": false,
      "inputs": [
        {
          "indexed": true,
          "internalType": "address",
          "name": "owner",
          "type": "address"
        },
        {
          "indexed": true,
          "internalType": "address",
          "name": "spender",
          "type": "address"
        },
        {
          "indexed": false,
          "internalType": "uint256",
          "name": "value",
          "type": "uint256"
        }
      ],
      "name": "Approval",
      "type": "event"
    },
    {
      "anonymous": false,
      "inputs": [
        {
          "indexed": true,
          "internalType": "bytes32",
          "name": "id",
          "type": "bytes32"
        }
      ],
      "name": "ChainlinkCancelled",
      "type": "event"
    },
    {
      "anonymous": false,
      "inputs": [
        {
          "indexed": true,
          "internalType": "bytes32",
          "name": "id",
          "type": "bytes32"
        }
      ],
      "name": "ChainlinkFulfilled",
      "type": "event"
    },
    {
      "anonymous": false,
      "inputs": [
        {
          "indexed": true,
          "internalType": "bytes32",
          "name": "id",
          "type": "bytes32"
        }
      ],
      "name": "ChainlinkRequested",
      "type": "event"
    },
    {
      "anonymous": false,
      "inputs": [
        {
          "indexed": false,
          "internalType": "address",
          "name": "account",
          "type": "address"
        },
        {
          "indexed": false,
          "internalType": "uint256",
          "name": "amount",
          "type": "uint256"
        },
        {
          "indexed": false,
          "internalType": "string",
          "name": "issueId",
          "type": "string"
        }
      ],
      "name": "IssueDepositEvent",
      "type": "event"
    },
    {
      "anonymous": false,
      "inputs": [
        {
          "indexed": true,
          "internalType": "address",
          "name": "previousOwner",
          "type": "address"
        },
        {
          "indexed": true,
          "internalType": "address",
          "name": "newOwner",
          "type": "address"
        }
      ],
      "name": "OwnershipTransferred",
      "type": "event"
    },
    {
      "anonymous": false,
      "inputs": [
        {
          "indexed": false,
          "internalType": "string",
          "name": "issueId",
          "type": "string"
        },
        {
          "indexed": false,
          "internalType": "string",
          "name": "githubUser",
          "type": "string"
        }
      ],
      "name": "ReleaseIssueDepositsEvent",
      "type": "event"
    },
    {
      "anonymous": false,
      "inputs": [
        {
          "indexed": true,
          "internalType": "address",
          "name": "from",
          "type": "address"
        },
        {
          "indexed": true,
          "internalType": "address",
          "name": "to",
          "type": "address"
        },
        {
          "indexed": false,
          "internalType": "uint256",
          "name": "value",
          "type": "uint256"
        }
      ],
      "name": "Transfer",
      "type": "event"
    },
    {
      "anonymous": false,
      "inputs": [
        {
          "indexed": false,
          "internalType": "address",
          "name": "account",
          "type": "address"
        },
        {
          "indexed": false,
          "internalType": "uint256",
          "name": "amount",
          "type": "uint256"
        },
        {
          "indexed": false,
          "internalType": "string",
          "name": "githubUser",
          "type": "string"
        }
      ],
      "name": "UserDepositEvent",
      "type": "event"
    },
    {
      "anonymous": false,
      "inputs": [
        {
          "indexed": false,
          "internalType": "address",
          "name": "account",
          "type": "address"
        },
        {
          "indexed": false,
          "internalType": "uint256",
          "name": "amount",
          "type": "uint256"
        },
        {
          "indexed": false,
          "internalType": "string",
          "name": "githubUser",
          "type": "string"
        }
      ],
      "name": "UserSendEvent",
      "type": "event"
    },
    {
      "inputs": [
        {
          "internalType": "address",
          "name": "owner",
          "type": "address"
        },
        {
          "internalType": "address",
          "name": "spender",
          "type": "address"
        }
      ],
      "name": "allowance",
      "outputs": [
        {
          "internalType": "uint256",
          "name": "",
          "type": "uint256"
        }
      ],
      "stateMutability": "view",
      "type": "function"
    },
    {
      "inputs": [
        {
          "internalType": "address",
          "name": "spender",
          "type": "address"
        },
        {
          "internalType": "uint256",
          "name": "amount",
          "type": "uint256"
        }
      ],
      "name": "approve",
      "outputs": [
        {
          "internalType": "bool",
          "name": "",
          "type": "bool"
        }
      ],
      "stateMutability": "nonpayable",
      "type": "function"
    },
    {
      "inputs": [
        {
          "internalType": "address",
          "name": "account",
          "type": "address"
        }
      ],
      "name": "balanceOf",
      "outputs": [
        {
          "internalType": "uint256",
          "name": "",
          "type": "uint256"
        }
      ],
      "stateMutability": "view",
      "type": "function"
    },
    {
      "inputs": [],
      "name": "decimals",
      "outputs": [
        {
          "internalType": "uint8",
          "name": "",
          "type": "uint8"
        }
      ],
      "stateMutability": "view",
      "type": "function"
    },
    {
      "inputs": [
        {
          "internalType": "address",
          "name": "spender",
          "type": "address"
        },
        {
          "internalType": "uint256",
          "name": "subtractedValue",
          "type": "uint256"
        }
      ],
      "name": "decreaseAllowance",
      "outputs": [
        {
          "internalType": "bool",
          "name": "",
          "type": "bool"
        }
      ],
      "stateMutability": "nonpayable",
      "type": "function"
    },
    {
      "inputs": [
        {
          "internalType": "address",
          "name": "spender",
          "type": "address"
        },
        {
          "internalType": "uint256",
          "name": "addedValue",
          "type": "uint256"
        }
      ],
      "name": "increaseAllowance",
      "outputs": [
        {
          "internalType": "bool",
          "name": "",
          "type": "bool"
        }
      ],
      "stateMutability": "nonpayable",
      "type": "function"
    },
    {
      "inputs": [
        {
          "internalType": "string",
          "name": "",
          "type": "string"
        },
        {
          "internalType": "uint256",
          "name": "",
          "type": "uint256"
        }
      ],
      "name": "issueDepositIdsByIssueId",
      "outputs": [
        {
          "internalType": "uint256",
          "name": "",
          "type": "uint256"
        }
      ],
      "stateMutability": "view",
      "type": "function"
    },
    {
      "inputs": [
        {
          "internalType": "address",
          "name": "",
          "type": "address"
        },
        {
          "internalType": "uint256",
          "name": "",
          "type": "uint256"
        }
      ],
      "name": "issueDepositIdsBySender",
      "outputs": [
        {
          "internalType": "uint256",
          "name": "",
          "type": "uint256"
        }
      ],
      "stateMutability": "view",
      "type": "function"
    },
    {
      "inputs": [
        {
          "internalType": "uint256",
          "name": "",
          "type": "uint256"
        }
      ],
      "name": "issueDeposits",
      "outputs": [
        {
          "internalType": "address",
          "name": "from",
          "type": "address"
        },
        {
          "internalType": "uint256",
          "name": "amount",
          "type": "uint256"
        },
        {
          "internalType": "string",
          "name": "issueId",
          "type": "string"
        }
      ],
      "stateMutability": "view",
      "type": "function"
    },
    {
      "inputs": [
        {
          "internalType": "string",
          "name": "",
          "type": "string"
        }
      ],
      "name": "issueDepositsAmountByIssueId",
      "outputs": [
        {
          "internalType": "uint256",
          "name": "",
          "type": "uint256"
        }
      ],
      "stateMutability": "view",
      "type": "function"
    },
    {
      "inputs": [
        {
          "internalType": "string",
          "name": "",
          "type": "string"
        }
      ],
      "name": "issuePins",
      "outputs": [
        {
          "internalType": "uint256",
          "name": "",
          "type": "uint256"
        }
      ],
      "stateMutability": "view",
      "type": "function"
    },
    {
      "inputs": [
        {
          "internalType": "string",
          "name": "",
          "type": "string"
        }
      ],
      "name": "issueReleaseIDsByIssueId",
      "outputs": [
        {
          "internalType": "bytes32",
          "name": "",
          "type": "bytes32"
        }
      ],
      "stateMutability": "view",
      "type": "function"
    },
    {
      "inputs": [],
      "name": "name",
      "outputs": [
        {
          "internalType": "string",
          "name": "",
          "type": "string"
        }
      ],
      "stateMutability": "view",
      "type": "function"
    },
    {
      "inputs": [],
      "name": "nextIssueDepositId",
      "outputs": [
        {
          "internalType": "uint256",
          "name": "",
          "type": "uint256"
        }
      ],
      "stateMutability": "view",
      "type": "function"
    },
    {
      "inputs": [],
      "name": "owner",
      "outputs": [
        {
          "internalType": "address",
          "name": "",
          "type": "address"
        }
      ],
      "stateMutability": "view",
      "type": "function"
    },
    {
      "inputs": [
        {
          "internalType": "string",
          "name": "",
          "type": "string"
        }
      ],
      "name": "pullRequestClaimIDsByPrId",
      "outputs": [
        {
          "internalType": "bytes32",
          "name": "",
          "type": "bytes32"
        }
      ],
      "stateMutability": "view",
      "type": "function"
    },
    {
      "inputs": [
        {
          "internalType": "bytes32",
          "name": "",
          "type": "bytes32"
        }
      ],
      "name": "pullRequestClaims",
      "outputs": [
        {
          "internalType": "string",
          "name": "githubUser",
          "type": "string"
        },
        {
          "internalType": "string",
          "name": "prId",
          "type": "string"
        },
        {
          "internalType": "uint256",
          "name": "status",
          "type": "uint256"
        }
      ],
      "stateMutability": "view",
      "type": "function"
    },
    {
      "inputs": [
        {
          "internalType": "bytes32",
          "name": "",
          "type": "bytes32"
        }
      ],
      "name": "releasedIssues",
      "outputs": [
        {
          "internalType": "string",
          "name": "githubUser",
          "type": "string"
        },
        {
          "internalType": "string",
          "name": "issueId",
          "type": "string"
        },
        {
          "internalType": "uint256",
          "name": "status",
          "type": "uint256"
        }
      ],
      "stateMutability": "view",
      "type": "function"
    },
    {
      "inputs": [],
      "name": "renounceOwnership",
      "outputs": [],
      "stateMutability": "nonpayable",
      "type": "function"
    },
    {
      "inputs": [],
      "name": "symbol",
      "outputs": [
        {
          "internalType": "string",
          "name": "",
          "type": "string"
        }
      ],
      "stateMutability": "view",
      "type": "function"
    },
    {
      "inputs": [],
      "name": "totalSupply",
      "outputs": [
        {
          "internalType": "uint256",
          "name": "",
          "type": "uint256"
        }
      ],
      "stateMutability": "view",
      "type": "function"
    },
    {
      "inputs": [
        {
          "internalType": "address",
          "name": "recipient",
          "type": "address"
        },
        {
          "internalType": "uint256",
          "name": "amount",
          "type": "uint256"
        }
      ],
      "name": "transfer",
      "outputs": [
        {
          "internalType": "bool",
          "name": "",
          "type": "bool"
        }
      ],
      "stateMutability": "nonpayable",
      "type": "function"
    },
    {
      "inputs": [
        {
          "internalType": "address",
          "name": "sender",
          "type": "address"
        },
        {
          "internalType": "address",
          "name": "recipient",
          "type": "address"
        },
        {
          "internalType": "uint256",
          "name": "amount",
          "type": "uint256"
        }
      ],
      "name": "transferFrom",
      "outputs": [
        {
          "internalType": "bool",
          "name": "",
          "type": "bool"
        }
      ],
      "stateMutability": "nonpayable",
      "type": "function"
    },
    {
      "inputs": [
        {
          "internalType": "address",
          "name": "newOwner",
          "type": "address"
        }
      ],
      "name": "transferOwnership",
      "outputs": [],
      "stateMutability": "nonpayable",
      "type": "function"
    },
    {
      "inputs": [
        {
          "internalType": "string",
          "name": "",
          "type": "string"
        },
        {
          "internalType": "uint256",
          "name": "",
          "type": "uint256"
        }
      ],
      "name": "userDepositIdsByGithubUser",
      "outputs": [
        {
          "internalType": "uint256",
          "name": "",
          "type": "uint256"
        }
      ],
      "stateMutability": "view",
      "type": "function"
    },
    {
      "inputs": [
        {
          "internalType": "address",
          "name": "",
          "type": "address"
        },
        {
          "internalType": "uint256",
          "name": "",
          "type": "uint256"
        }
      ],
      "name": "userDepositIdsBySender",
      "outputs": [
        {
          "internalType": "uint256",
          "name": "",
          "type": "uint256"
        }
      ],
      "stateMutability": "view",
      "type": "function"
    },
    {
      "inputs": [
        {
          "internalType": "uint256",
          "name": "",
          "type": "uint256"
        }
      ],
      "name": "userDeposits",
      "outputs": [
        {
          "internalType": "address",
          "name": "from",
          "type": "address"
        },
        {
          "internalType": "uint256",
          "name": "amount",
          "type": "uint256"
        },
        {
          "internalType": "string",
          "name": "githubUser",
          "type": "string"
        }
      ],
      "stateMutability": "view",
      "type": "function"
    },
    {
      "inputs": [
        {
          "internalType": "address",
          "name": "",
          "type": "address"
        }
      ],
      "name": "userIDsByAddress",
      "outputs": [
        {
          "internalType": "bytes32",
          "name": "",
          "type": "bytes32"
        }
      ],
      "stateMutability": "view",
      "type": "function"
    },
    {
      "inputs": [
        {
          "internalType": "string",
          "name": "",
          "type": "string"
        }
      ],
      "name": "userIDsByGithubUser",
      "outputs": [
        {
          "internalType": "bytes32",
          "name": "",
          "type": "bytes32"
        }
      ],
      "stateMutability": "view",
      "type": "function"
    },
    {
      "inputs": [
        {
          "internalType": "bytes32",
          "name": "",
          "type": "bytes32"
        }
      ],
      "name": "users",
      "outputs": [
        {
          "internalType": "string",
          "name": "githubUser",
          "type": "string"
        },
        {
          "internalType": "address",
          "name": "ethAddress",
          "type": "address"
        },
        {
          "internalType": "uint256",
          "name": "status",
          "type": "uint256"
        }
      ],
      "stateMutability": "view",
      "type": "function"
    },
    {
      "inputs": [
        {
          "internalType": "address",
          "name": "_oracle",
          "type": "address"
        },
        {
          "internalType": "bytes32",
          "name": "_jobId",
          "type": "bytes32"
        },
        {
          "internalType": "string",
          "name": "_githubUser",
          "type": "string"
        }
      ],
      "name": "register",
      "outputs": [],
      "stateMutability": "nonpayable",
      "type": "function"
    },
    {
      "inputs": [
        {
          "internalType": "bytes32",
          "name": "_requestId",
          "type": "bytes32"
        }
      ],
      "name": "confirmRegistration",
      "outputs": [],
      "stateMutability": "nonpayable",
      "type": "function"
    },
    {
      "inputs": [
        {
          "internalType": "string",
          "name": "_githubUser",
          "type": "string"
        }
      ],
      "name": "sendEthToGithubUser",
      "outputs": [],
      "stateMutability": "payable",
      "type": "function"
    },
    {
      "inputs": [
        {
          "internalType": "string",
          "name": "_githubUser",
          "type": "string"
        }
      ],
      "name": "depositEthForGithubUser",
      "outputs": [],
      "stateMutability": "payable",
      "type": "function"
    },
    {
      "inputs": [
        {
          "internalType": "uint256",
          "name": "_depositId",
          "type": "uint256"
        }
      ],
      "name": "withdrawUserDeposit",
      "outputs": [],
      "stateMutability": "nonpayable",
      "type": "function"
    },
    {
      "inputs": [
        {
          "internalType": "uint256",
          "name": "_depositId",
          "type": "uint256"
        }
      ],
      "name": "refundUserDeposit",
      "outputs": [],
      "stateMutability": "nonpayable",
      "type": "function"
    },
    {
      "inputs": [
        {
          "internalType": "string",
          "name": "_githubUser",
          "type": "string"
        }
      ],
      "name": "getUserDepositIdsForGithubUser",
      "outputs": [
        {
          "internalType": "uint256[]",
          "name": "",
          "type": "uint256[]"
        }
      ],
      "stateMutability": "view",
      "type": "function"
    },
    {
      "inputs": [],
      "name": "getUserDepositIdsForSender",
      "outputs": [
        {
          "internalType": "uint256[]",
          "name": "",
          "type": "uint256[]"
        }
      ],
      "stateMutability": "view",
      "type": "function"
    },
    {
      "inputs": [
        {
          "internalType": "string",
          "name": "_issueId",
          "type": "string"
        }
      ],
      "name": "depositEthForIssue",
      "outputs": [],
      "stateMutability": "payable",
      "type": "function"
    },
    {
      "inputs": [
        {
          "internalType": "uint256",
          "name": "_depositId",
          "type": "uint256"
        }
      ],
      "name": "refundIssueDeposit",
      "outputs": [],
      "stateMutability": "nonpayable",
      "type": "function"
    },
    {
      "inputs": [
        {
          "internalType": "string",
          "name": "_depositId",
          "type": "string"
        }
      ],
      "name": "getIssueDepositIdsForIssueId",
      "outputs": [
        {
          "internalType": "uint256[]",
          "name": "",
          "type": "uint256[]"
        }
      ],
      "stateMutability": "view",
      "type": "function"
    },
    {
      "inputs": [],
      "name": "getIssueDepositIdsForSender",
      "outputs": [
        {
          "internalType": "uint256[]",
          "name": "",
          "type": "uint256[]"
        }
      ],
      "stateMutability": "view",
      "type": "function"
    },
    {
      "inputs": [
        {
          "internalType": "string",
          "name": "_issueId",
          "type": "string"
        },
        {
          "internalType": "uint256",
          "name": "_amount",
          "type": "uint256"
        }
      ],
      "name": "pinIssue",
      "outputs": [],
      "stateMutability": "nonpayable",
      "type": "function"
    },
    {
      "inputs": [
        {
          "internalType": "address",
          "name": "_oracle",
          "type": "address"
        },
        {
          "internalType": "bytes32",
          "name": "_jobId",
          "type": "bytes32"
        },
        {
          "internalType": "string",
          "name": "_prId",
          "type": "string"
        },
        {
          "internalType": "string",
          "name": "_githubUser",
          "type": "string"
        }
      ],
      "name": "claimPullRequest",
      "outputs": [],
      "stateMutability": "nonpayable",
      "type": "function"
    },
    {
      "inputs": [
        {
          "internalType": "bytes32",
          "name": "_requestId",
          "type": "bytes32"
        },
        {
          "internalType": "uint256",
          "name": "_score",
          "type": "uint256"
        }
      ],
      "name": "confirmPullRequestClaim",
      "outputs": [],
      "stateMutability": "nonpayable",
      "type": "function"
    },
    {
      "inputs": [
        {
          "internalType": "address",
          "name": "_oracle",
          "type": "address"
        },
        {
          "internalType": "bytes32",
          "name": "_jobId",
          "type": "bytes32"
        },
        {
          "internalType": "string",
          "name": "_issueId",
          "type": "string"
        },
        {
          "internalType": "string",
          "name": "_githubUser",
          "type": "string"
        }
      ],
      "name": "releaseIssueDeposits",
      "outputs": [],
      "stateMutability": "nonpayable",
      "type": "function"
    },
    {
      "inputs": [
        {
          "internalType": "bytes32",
          "name": "_requestId",
          "type": "bytes32"
        }
      ],
      "name": "confirmReleaseIssueDeposits",
      "outputs": [],
      "stateMutability": "nonpayable",
      "type": "function"
    },
    {
      "inputs": [
        {
          "internalType": "string",
          "name": "_issueId",
          "type": "string"
        }
      ],
      "name": "claimReleasedIssueDeposits",
      "outputs": [],
      "stateMutability": "nonpayable",
      "type": "function"
    }
  ],
  "bytecode": "0x60806040526001600a556000600f5560006014553480156200002057600080fd5b50604051620042ee380380620042ee8339810160408190526200004391620002da565b604080518082018252600781526627b1ba37a834b760c91b60208083019182528351808501909452600484526327a824a760e11b9084015281519192916200008e9160039162000238565b508051620000a490600490602084019062000238565b50506005805460ff19166012179055506000620000c96001600160e01b036200017316565b60058054610100600160a81b0319166101006001600160a01b03841690810291909117909155604051919250906000907f8be0079c531659141344cd1fd0a4f28419497f9722a3daafe3b4186f6b6457e0908290a3506001600160a01b0381166200014757620001416001600160e01b036200017816565b6200015b565b6200015b816001600160e01b036200021616565b5067016345785d8a0000601d819055601e556200030a565b335b90565b6200021473c89bd4e1632d3a43cb03aaad5262cbe4038bc5716001600160a01b03166338cc48316040518163ffffffff1660e01b815260040160206040518083038186803b158015620001ca57600080fd5b505afa158015620001df573d6000803e3d6000fd5b505050506040513d601f19601f82011682018060405250810190620002059190620002da565b6001600160e01b036200021616565b565b600880546001600160a01b0319166001600160a01b0392909216919091179055565b828054600181600116156101000203166002900490600052602060002090601f016020900481019282601f106200027b57805160ff1916838001178555620002ab565b82800160010185558215620002ab579182015b82811115620002ab5782518255916020019190600101906200028e565b50620002b9929150620002bd565b5090565b6200017591905b80821115620002b95760008155600101620002c4565b600060208284031215620002ec578081fd5b81516001600160a01b038116811462000303578182fd5b9392505050565b613fd4806200031a6000396000f3fe6080604052600436106102935760003560e01c8063746c97b91161015a578063cea6ab98116100c1578063f16b41f41161007a578063f16b41f4146107f7578063f2fde38b14610817578063f4b90ef714610837578063f63e8c701461084a578063f9c8d78f1461085f578063fb95354a1461087f57610293565b8063cea6ab9814610726578063cf5f5f4614610755578063d224784d14610775578063dd62ed3e146107a4578063efda0fd6146107c4578063f0e31cf9146107d757610293565b80639996f186116101135780639996f186146106735780639c900e3314610686578063a457c2d7146106a6578063a9059cbb146106c6578063af5b5f5c146106e6578063c315fbca1461070657610293565b8063746c97b9146105bc57806384f8f644146105dc5780638617fc46146105fc5780638da5cb5b1461061c57806395d89b411461063e5780639947918c1461065357610293565b80634c1b100a116101fe57806360445fb2116101b757806360445fb21461050757806361e421d51461052757806364422b8614610547578063647017501461056757806370a0823114610587578063715018a6146105a757610293565b80634c1b100a1461043857806350aea5591461046757806353a61ff914610487578063541b6c9f146104a757806354d16f67146104c757806357bd9a97146104e757610293565b806323b872dd1161025057806323b872dd14610372578063313ce567146103925780633653f086146103b457806339509351146103d65780633be784bc146103f6578063454d05541461041657610293565b806304405fa91461029857806306fdde03146102ce578063095ea7b3146102f057806317c486f11461031d57806318160ddd1461033d5780631d2f5e8314610352575b600080fd5b3480156102a457600080fd5b506102b86102b33660046132df565b610894565b6040516102c591906135d3565b60405180910390f35b3480156102da57600080fd5b506102e36108d1565b6040516102c591906135dc565b3480156102fc57600080fd5b5061031061030b3660046131c1565b610968565b6040516102c591906135c8565b34801561032957600080fd5b506102b86103383660046132ad565b610986565b34801561034957600080fd5b506102b86109a3565b34801561035e57600080fd5b506102b861036d3660046132ad565b6109a9565b34801561037e57600080fd5b5061031061038d3660046130b1565b6109c6565b34801561039e57600080fd5b506103a7610a53565b6040516102c59190613e6e565b3480156103c057600080fd5b506103d46103cf366004613146565b610a5c565b005b3480156103e257600080fd5b506103106103f13660046131c1565b610c09565b34801561040257600080fd5b506103d461041136600461320b565b610c5d565b34801561042257600080fd5b5061042b610da7565b6040516102c59190613584565b34801561044457600080fd5b5061045861045336600461320b565b610e07565b6040516102c59392919061361d565b34801561047357600080fd5b5061042b610482366004613244565b610f4c565b34801561049357600080fd5b5061042b6104a2366004613244565b610fbf565b3480156104b357600080fd5b506104586104c236600461320b565b610fd3565b3480156104d357600080fd5b506102b86104e2366004613062565b61103f565b3480156104f357600080fd5b506103d461050236600461320b565b611051565b34801561051357600080fd5b506103d461052236600461320b565b611140565b34801561053357600080fd5b506102b86105423660046131c1565b6111ea565b34801561055357600080fd5b506103d46105623660046130f1565b611203565b34801561057357600080fd5b506102b86105823660046131c1565b61131c565b34801561059357600080fd5b506102b86105a2366004613062565b611335565b3480156105b357600080fd5b506103d4611354565b3480156105c857600080fd5b506102b86105d73660046132df565b6113de565b3480156105e857600080fd5b506103d46105f73660046132df565b611406565b34801561060857600080fd5b506103d461061736600461320b565b61145b565b34801561062857600080fd5b50610631611598565b6040516102c59190613499565b34801561064a57600080fd5b506102e36115ac565b34801561065f57600080fd5b506103d461066e366004613244565b61160d565b6103d4610681366004613244565b6117ab565b34801561069257600080fd5b506102b86106a13660046132ad565b611909565b3480156106b257600080fd5b506103106106c13660046131c1565b611926565b3480156106d257600080fd5b506103106106e13660046131c1565b611994565b3480156106f257600080fd5b506103d4610701366004613146565b6119a8565b34801561071257600080fd5b506103d461072136600461320b565b611b4e565b34801561073257600080fd5b5061074661074136600461320b565b611c0a565b6040516102c5939291906135ef565b34801561076157600080fd5b506102b86107703660046132ad565b611cc1565b34801561078157600080fd5b5061079561079036600461320b565b611cde565b6040516102c59392919061355d565b3480156107b057600080fd5b506102b86107bf36600461307d565b611d94565b6103d46107d2366004613244565b611dbf565b3480156107e357600080fd5b506103d46107f2366004613223565b611f58565b34801561080357600080fd5b5061079561081236600461320b565b6120f9565b34801561082357600080fd5b506103d4610832366004613062565b61217a565b6103d4610845366004613244565b612241565b34801561085657600080fd5b506102b86123c7565b34801561086b57600080fd5b506102b861087a3660046132ad565b6123cd565b34801561088b57600080fd5b5061042b6123ea565b815160208184018101805160158252928201918501919091209190528054829081106108bc57fe5b90600052602060002001600091509150505481565b60038054604080516020601f600260001961010060018816150201909516949094049384018190048102820181019092528281526060939092909183018282801561095d5780601f106109325761010080835404028352916020019161095d565b820191906000526020600020905b81548152906001019060200180831161094057829003601f168201915b505050505090505b90565b600061097c610975612449565b848461244d565b5060015b92915050565b805160208183018101805160178252928201919093012091525481565b60025490565b8051602081830181018051600e8252928201919093012091525481565b60006109d3848484612501565b610a49846109df612449565b610a4485604051806060016040528060288152602001613f12602891396001600160a01b038a16600090815260016020526040812090610a1d612449565b6001600160a01b03168152602081019190915260400160002054919063ffffffff61261016565b61244d565b5060019392505050565b60055460ff1690565b6000601783604051610a6e919061347d565b90815260200160405180910390205411610aa35760405162461bcd60e51b8152600401610a9a906136c8565b60405180910390fd5b336000818152600d60209081526040808320548352600c9091529020600101546001600160a01b031614610ae95760405162461bcd60e51b8152600401610a9a90613a22565b610af1612ea0565b610b0384306357bd9a9760e01b61263c565b60408051808201909152600a81526933b4ba343ab12ab9b2b960b11b6020820152909150610b399082908463ffffffff61266716565b6040805180820190915260078152661a5cdcdd59525960ca1b6020820152610b699082908563ffffffff61266716565b6000610b788683601d54612691565b604080516060810182528581526020808201889052600182840152600084815260188252929092208151805194955091939092610bb9928492910190612ed5565b506020828101518051610bd29260018501920190612ed5565b506040820151816002015590505080601985604051610bf1919061347d565b90815260405190819003602001902055505050505050565b600061097c610c16612449565b84610a448560016000610c27612449565b6001600160a01b03908116825260208083019390935260409182016000908120918c16815292529020549063ffffffff6127d016565b6000818152600b602052604090205481906001600160a01b03163314610c955760405162461bcd60e51b8152600401610a9a90613d03565b6000818152600b602052604080822080546001600160a01b0319169055518291600080516020613f5a83398151915291a26000828152600c60205260408082209051600e91610ce39161343f565b9081526040805160209281900383019020546000818152600c80855283822060018101546001600160a01b03168352600d8652938220829055828252909352925090610d2f8282612f53565b50600181810180546001600160a01b031916905560006002928301819055858152600c6020818152604080842080870196909655938501546001600160a01b03168352600d8152838320889055918790529052518491600e91610d92919061343f565b90815260405190819003602001902055505050565b3360009081526012602090815260409182902080548351818402810184019094528084526060939283018282801561095d57602002820191906000526020600020905b815481526020019060010190808311610dea575050505050905090565b601a6020908152600091825260409182902080548351601f60026000196101006001861615020190931692909204918201849004840281018401909452808452909291839190830182828015610e9e5780601f10610e7357610100808354040283529160200191610e9e565b820191906000526020600020905b815481529060010190602001808311610e8157829003601f168201915b505050505090806001018054600181600116156101000203166002900480601f016020809104026020016040519081016040528092919081815260200182805460018160011615610100020316600290048015610f3c5780601f10610f1157610100808354040283529160200191610f3c565b820191906000526020600020905b815481529060010190602001808311610f1f57829003601f168201915b5050505050908060020154905083565b606060158383604051610f6092919061346d565b9081526040805191829003602090810183208054808302850183019093528284529190830182828015610fb257602002820191906000526020600020905b815481526020019060010190808311610f9e575b5050505050905092915050565b606060118383604051610f6092919061346d565b60186020908152600091825260409182902080548351601f60026000196101006001861615020190931692909204918201849004840281018401909452808452909291839190830182828015610e9e5780601f10610e7357610100808354040283529160200191610e9e565b600d6020526000908152604090205481565b6000818152600b602052604090205481906001600160a01b031633146110895760405162461bcd60e51b8152600401610a9a90613d03565b6000818152600b602052604080822080546001600160a01b0319169055518291600080516020613f5a83398151915291a26000828152601860205260409020600201546001146110eb5760405162461bcd60e51b8152600401610a9a90613b9a565b6000828152601860205260409081902060028181015590517f982ab3ed562795c652df6267e3375f911bda7be583569dd2d2f704389ee5fc419161113491600182019190613653565b60405180910390a15050565b6000818152601060205260409020546001600160a01b031633146111765760405162461bcd60e51b8152600401610a9a90613678565b600081815260106020526040808220600101549051339282156108fc02929190818181858888f193505050501580156111b3573d6000803e3d6000fd5b50600081815260106020526040812080546001600160a01b031916815560018101829055906111e56002830182612f53565b505050565b601660205281600052604060002081815481106108bc57fe5b61120b612ea0565b61121d8330630ef9e12f60e21b61263c565b60408051808201909152600a81526933b4ba343ab12ab9b2b960b11b60208201529091506112539082908463ffffffff61266716565b6112906040518060400160405280600a8152602001696574684164647265737360b01b815250611282336127fc565b83919063ffffffff61266716565b600061129f8583601d54612691565b60408051606081018252858152336020808301919091526001828401526000848152600c82529290922081518051949550919390926112e2928492910190612ed5565b5060208201516001820180546001600160a01b0319166001600160a01b039092169190911790556040909101516002909101555050505050565b601260205281600052604060002081815481106108bc57fe5b6001600160a01b0381166000908152602081905260409020545b919050565b61135c612449565b60055461010090046001600160a01b0390811691161461138e5760405162461bcd60e51b8152600401610a9a90613ac8565b60055460405160009161010090046001600160a01b0316907f8be0079c531659141344cd1fd0a4f28419497f9722a3daafe3b4186f6b6457e0908390a360058054610100600160a81b0319169055565b815160208184018101805160118252928201918501919091209190528054829081106108bc57fe5b600081116114265760405162461bcd60e51b8152600401610a9a906137e0565b61143033826128df565b80601c83604051611441919061347d565b908152604051908190036020019020805490910190555050565b6000818152601360205260409020546001600160a01b031633146114915760405162461bcd60e51b8152600401610a9a90613b32565b60008181526013602052604090819020600181015491516017916114ba9160029091019061343f565b90815260200160405180910390205410156114e75760405162461bcd60e51b8152600401610a9a90613a7a565b600081815260136020526040808220600101549051339282156108fc02929190818181858888f19350505050158015611524573d6000803e3d6000fd5b50600081815260136020526040908190206001810154915160179161154e9160029091019061343f565b90815260408051602092819003830190208054939093039092556000838152601390915290812080546001600160a01b031916815560018101829055906111e56002830182612f53565b60055461010090046001600160a01b031690565b60048054604080516020601f600260001961010060018816150201909516949094049384018190048102820181019092528281526060939092909183018282801561095d5780601f106109325761010080835404028352916020019161095d565b336000818152600d60209081526040808320548352600c9091529020600101546001600160a01b0316146116535760405162461bcd60e51b8152600401610a9a90613c67565b336000908152600d60209081526040808320548352600c90915290819020905161167d919061343f565b6040518091039020601860006019858560405161169b92919061346d565b90815260200160405180910390205481526020019081526020016000206000016040516116c8919061343f565b6040518091039020146116ed5760405162461bcd60e51b8152600401610a9a90613d4b565b60006017838360405161170192919061346d565b9081526020016040518091039020541161172d5760405162461bcd60e51b8152600401610a9a906139a4565b336001600160a01b03166108fc6017848460405161174c92919061346d565b90815260405190819003602001812054801590920291906000818181858888f19350505050158015611782573d6000803e3d6000fd5b5060006017838360405161179792919061346d565b908152604051908190036020019020555050565b600034116117cb5760405162461bcd60e51b8152600401610a9a90613dc8565b600f8054600101905560408051606081018252338152346020808301919091528251601f8501829004820281018201845284815291928301919085908590819084018382808284376000920182905250939094525050600f54815260106020908152604091829020845181546001600160a01b0319166001600160a01b039091161781558482015160018201559184015180519293506118749260028501929190910190612ed5565b509050506011828260405161188a92919061346d565b908152604080519182900360209081018320600f8054825460018181018555600094855285852090910191909155338084526012855294832091548254918201835591835292909120909101557f406551011d3a3874d102c2ee25adb004adb6d90a8134f04c14bd02f73ad4a3d09161113491903490869086906134ad565b805160208183018101805160198252928201919093012091525481565b600061097c611933612449565b84610a4485604051806060016040528060258152602001613f7a602591396001600061195d612449565b6001600160a01b03908116825260208083019390935260409182016000908120918d1681529252902054919063ffffffff61261016565b600061097c6119a1612449565b8484612501565b601a6000601b846040516119bc919061347d565b908152602001604051809103902054815260200190815260200160002060020154600214156119fd5760405162461bcd60e51b8152600401610a9a9061374c565b600c6000600e83604051611a11919061347d565b90815260200160405180910390205481526020019081526020016000206002015460021415611a525760405162461bcd60e51b8152600401610a9a90613df4565b611a5a612ea0565b611a6c843063f0e31cf960e01b61263c565b60408051808201909152600a81526933b4ba343ab12ab9b2b960b11b6020820152909150611aa29082908463ffffffff61266716565b6040805180820190915260048152631c1c925960e21b6020820152611acf9082908563ffffffff61266716565b6000611ade8683601e54612691565b6040805160608101825285815260208082018890526001828401526000848152601a8252929092208151805194955091939092611b1f928492910190612ed5565b506020828101518051611b389260018501920190612ed5565b5060408201518160020155905050505050505050565b336000818152600d60209081526040808320548352600c9091529020600101546001600160a01b031614611b945760405162461bcd60e51b8152600401610a9a90613783565b336000908152600d60209081526040808320548352600c909152908190209051611bbe919061343f565b6040805191829003822060008481526010602052919091209091611be5916002019061343f565b6040518091039020146111765760405162461bcd60e51b8152600401610a9a906139db565b600c6020908152600091825260409182902080548351601f60026000196101006001861615020190931692909204918201849004840281018401909452808452909291839190830182828015611ca15780601f10611c7657610100808354040283529160200191611ca1565b820191906000526020600020905b815481529060010190602001808311611c8457829003601f168201915b50505050600183015460029093015491926001600160a01b031691905083565b8051602081830181018051601c8252928201919093012091525481565b60136020908152600091825260409182902080546001808301546002808501805488516101009582161595909502600019011691909104601f81018790048702840187019097528683526001600160a01b03909316959094919291830182828015611d8a5780601f10611d5f57610100808354040283529160200191611d8a565b820191906000526020600020905b815481529060010190602001808311611d6d57829003601f168201915b5050505050905083565b6001600160a01b03918216600090815260016020908152604080832093909416825291909152205490565b60003411611ddf5760405162461bcd60e51b8152600401610a9a90613dc8565b60006001600160a01b0316600c6000600e8585604051611e0092919061346d565b90815260408051602092819003830190205483529082019290925201600020600101546001600160a01b03161415611e4a5760405162461bcd60e51b8152600401610a9a90613df4565b600c6000600e8484604051611e6092919061346d565b908152602001604051809103902054815260200190815260200160002060020154600214611ea05760405162461bcd60e51b8152600401610a9a906138e4565b600c6000600e8484604051611eb692919061346d565b908152602001604051809103902054815260200190815260200160002060010160009054906101000a90046001600160a01b03166001600160a01b03166108fc349081150290604051600060405180830381858888f19350505050158015611f22573d6000803e3d6000fd5b507f55ba5e513ac5c832c73696b2bac8efc4fa9fcac62091a294ec672803704481d53334848460405161113494939291906134ad565b6000828152600b602052604090205482906001600160a01b03163314611f905760405162461bcd60e51b8152600401610a9a90613d03565b6000818152600b602052604080822080546001600160a01b0319169055518291600080516020613f5a83398151915291a281600111158015611fd3575060648211155b611fef5760405162461bcd60e51b8152600401610a9a90613afd565b6000838152601a60205260409020600201546001146120205760405162461bcd60e51b8152600401610a9a90613817565b6000838152601a60205260408082209051600c918391600e916120429161343f565b90815260408051602092819003830190205483529082019290925201600020600101546001600160a01b0316141561208c5760405162461bcd60e51b8152600401610a9a90613df4565b6000838152601a602052604080822060028181015590516111e592600c929091600e916120b89161343f565b90815260408051602092819003830190205483529082019290925201600020600101546001600160a01b03166120ec610a53565b60ff16600a0a84026129bb565b60106020908152600091825260409182902080546001808301546002808501805488516101009582161595909502600019011691909104601f81018790048702840187019097528683526001600160a01b03909316959094919291830182828015611d8a5780601f10611d5f57610100808354040283529160200191611d8a565b612182612449565b60055461010090046001600160a01b039081169116146121b45760405162461bcd60e51b8152600401610a9a90613ac8565b6001600160a01b0381166121da5760405162461bcd60e51b8152600401610a9a9061385c565b6005546040516001600160a01b0380841692610100900416907f8be0079c531659141344cd1fd0a4f28419497f9722a3daafe3b4186f6b6457e090600090a3600580546001600160a01b0390921661010002610100600160a81b0319909216919091179055565b600034116122615760405162461bcd60e51b8152600401610a9a90613dc8565b60148054600101905560408051606081018252338152346020808301919091528251601f8501829004820281018201845284815291928301919085908590819084018382808284376000920182905250939094525050601454815260136020908152604091829020845181546001600160a01b0319166001600160a01b0390911617815584820151600182015591840151805192935061230a9260028501929190910190612ed5565b509050506015828260405161232092919061346d565b908152604080519182900360209081018320601480548254600181810185556000948552858520909101919091553383526016845293822090548154948501825590825291902090910155349060179061237d908590859061346d565b90815260405190819003602001812080549092019091557f08c7c4039b7c98d46cb4ebb0f96ca6a67a506db7c3ddd814f88dd3cfd24e2ae9906111349033903490869086906134ad565b60145481565b8051602081830181018051601b8252928201919093012091525481565b3360009081526016602090815260409182902080548351818402810184019094528084526060939283018282801561095d5760200282019190600052602060002090815481526020019060010190808311610dea575050505050905090565b3390565b6001600160a01b0383166124735760405162461bcd60e51b8152600401610a9a90613cbf565b6001600160a01b0382166124995760405162461bcd60e51b8152600401610a9a906138a2565b6001600160a01b0380841660008181526001602090815260408083209487168084529490915290819020849055517f8c5be1e5ebec7d5bd14f71427d1e84f3dd0314c0f7b2291e5b200ac8c7c3b925906124f49085906135d3565b60405180910390a3505050565b6001600160a01b0383166125275760405162461bcd60e51b8152600401610a9a90613c22565b6001600160a01b03821661254d5760405162461bcd60e51b8152600401610a9a90613709565b6125588383836111e5565b61259b81604051806060016040528060268152602001613eec602691396001600160a01b038616600090815260208190526040902054919063ffffffff61261016565b6001600160a01b0380851660009081526020819052604080822093909355908416815220546125d0908263ffffffff6127d016565b6001600160a01b038084166000818152602081905260409081902093909355915190851690600080516020613f3a833981519152906124f49085906135d3565b600081848411156126345760405162461bcd60e51b8152600401610a9a91906135dc565b505050900390565b612644612ea0565b61264c612ea0565b61265e8186868663ffffffff612a6916565b95945050505050565b608083015161267c908363ffffffff612aa616565b60808301516111e5908263ffffffff612aa616565b600030600a546040516020016126a892919061344b565b60408051808303601f190181529181528151602092830120600a5460608701526000818152600b90935281832080546001600160a01b0319166001600160a01b038916179055905190925082917fb5e6e01e79f91267dc17b4e6314d5d4d03593d2ceee0fbb452b750bd70ea5af991a26008546001600160a01b0316634000aea0858461273487612ac3565b6040518463ffffffff1660e01b81526004016127529392919061355d565b602060405180830381600087803b15801561276c57600080fd5b505af1158015612780573d6000803e3d6000fd5b505050506040513d601f19601f820116820180604052508101906127a491906131eb565b6127c05760405162461bcd60e51b8152600401610a9a90613961565b600a805460010190559392505050565b6000828201838110156127f55760405162461bcd60e51b8152600401610a9a9061392a565b9392505050565b60606001600160a01b0382168061282c5750506040805180820190915260018152600360fc1b602082015261134f565b8060005b811561284457600101600a82049150612830565b6060816001600160401b038111801561285c57600080fd5b506040519080825280601f01601f191660200182016040528015612887576020820181803683370190505b50905060001982015b84156128d557600a850660300160f81b828280600190039350815181106128b357fe5b60200101906001600160f81b031916908160001a905350600a85049450612890565b5095945050505050565b6001600160a01b0382166129055760405162461bcd60e51b8152600401610a9a90613be1565b612911826000836111e5565b61295481604051806060016040528060228152602001613eca602291396001600160a01b038516600090815260208190526040902054919063ffffffff61261016565b6001600160a01b038316600090815260208190526040902055600254612980908263ffffffff612b3f16565b6002556040516000906001600160a01b03841690600080516020613f3a833981519152906129af9085906135d3565b60405180910390a35050565b6001600160a01b0382166129e15760405162461bcd60e51b8152600401610a9a90613e37565b6129ed600083836111e5565b600254612a00908263ffffffff6127d016565b6002556001600160a01b038216600090815260208190526040902054612a2c908263ffffffff6127d016565b6001600160a01b038316600081815260208190526040808220939093559151909190600080516020613f3a833981519152906129af9085906135d3565b612a71612ea0565b612a818560800151610100612b81565b50509183526001600160a01b031660208301526001600160e01b031916604082015290565b612ab38260038351612bbb565b6111e5828263ffffffff612cca16565b6060634042994660e01b60008084600001518560200151866040015187606001516001896080015160000151604051602401612b069897969594939291906134f5565b60408051601f198184030181529190526020810180516001600160e01b03166001600160e01b0319909316929092179091529050919050565b60006127f583836040518060400160405280601e81526020017f536166654d6174683a207375627472616374696f6e206f766572666c6f770000815250612610565b612b89612f9a565b6020820615612b9e5760208206602003820191505b506020828101829052604080518085526000815290920101905290565b60178111612be257612bdc8360e0600585901b16831763ffffffff612ce416565b506111e5565b60ff8111612c1857612c05836018611fe0600586901b161763ffffffff612ce416565b50612bdc8382600163ffffffff612cfc16565b61ffff8111612c4f57612c3c836019611fe0600586901b161763ffffffff612ce416565b50612bdc8382600263ffffffff612cfc16565b63ffffffff8111612c8857612c7583601a611fe0600586901b161763ffffffff612ce416565b50612bdc8382600463ffffffff612cfc16565b6001600160401b0381116111e557612cb183601b611fe0600586901b161763ffffffff612ce416565b50612cc48382600863ffffffff612cfc16565b50505050565b612cd2612f9a565b6127f583846000015151848551612d1d565b612cec612f9a565b6127f58384600001515184612dc9565b612d04612f9a565b612d15848560000151518585612e14565b949350505050565b612d25612f9a565b8251821115612d3357600080fd5b84602001518285011115612d5d57612d5d85612d558760200151878601612e72565b600202612e89565b600080865180518760208301019350808887011115612d7c5787860182525b505050602084015b60208410612da35780518252601f199093019260209182019101612d84565b51815160001960208690036101000a019081169019919091161790525083949350505050565b612dd1612f9a565b83602001518310612ded57612ded848560200151600202612e89565b835180516020858301018481535080851415612e0a576001810182525b5093949350505050565b612e1c612f9a565b84602001518483011115612e3957612e3985858401600202612e89565b60006001836101000a039050855183868201018583198251161781525080518487011115612e675783860181525b509495945050505050565b600081831115612e83575081610980565b50919050565b8151612e958383612b81565b50612cc48382612cca565b6040805160a081018252600080825260208201819052918101829052606081019190915260808101612ed0612f9a565b905290565b828054600181600116156101000203166002900490600052602060002090601f016020900481019282601f10612f1657805160ff1916838001178555612f43565b82800160010185558215612f43579182015b82811115612f43578251825591602001919060010190612f28565b50612f4f929150612fb4565b5090565b50805460018160011615610100020316600290046000825580601f10612f795750612f97565b601f016020900490600052602060002090810190612f979190612fb4565b50565b604051806040016040528060608152602001600081525090565b61096591905b80821115612f4f5760008155600101612fba565b80356001600160a01b038116811461098057600080fd5b600082601f830112612ff5578081fd5b81356001600160401b038082111561300b578283fd5b604051601f8301601f19168101602001828111828210171561302b578485fd5b60405282815292508284830160200186101561304657600080fd5b8260208601602083013760006020848301015250505092915050565b600060208284031215613073578081fd5b6127f58383612fce565b6000806040838503121561308f578081fd5b6130998484612fce565b91506130a88460208501612fce565b90509250929050565b6000806000606084860312156130c5578081fd5b83356130d081613eb4565b925060208401356130e081613eb4565b929592945050506040919091013590565b600080600060608486031215613105578283fd5b61310f8585612fce565b92506020840135915060408401356001600160401b03811115613130578182fd5b61313c86828701612fe5565b9150509250925092565b6000806000806080858703121561315b578081fd5b6131658686612fce565b93506020850135925060408501356001600160401b0380821115613187578283fd5b61319388838901612fe5565b935060608701359150808211156131a8578283fd5b506131b587828801612fe5565b91505092959194509250565b600080604083850312156131d3578182fd5b6131dd8484612fce565b946020939093013593505050565b6000602082840312156131fc578081fd5b815180151581146127f5578182fd5b60006020828403121561321c578081fd5b5035919050565b60008060408385031215613235578182fd5b50508035926020909101359150565b60008060208385031215613256578182fd5b82356001600160401b038082111561326c578384fd5b81850186601f82011261327d578485fd5b803592508183111561328d578485fd5b86602084830101111561329e578485fd5b60200196919550909350505050565b6000602082840312156132be578081fd5b81356001600160401b038111156132d3578182fd5b612d1584828501612fe5565b600080604083850312156132f1578182fd5b82356001600160401b03811115613306578283fd5b61331285828601612fe5565b95602094909401359450505050565b60008151808452613339816020860160208601613e88565b601f01601f19169290920160200192915050565b6000815460018082166000811461336b5760018114613382576133b4565b60ff198316865260028304607f16860193506133b4565b600283048560005260208060002060005b838110156133ac5781548a820152908501908201613393565b505050860193505b50505092915050565b600081546001808216600081146133db57600181146133f9576133b4565b60028304607f16865260ff19831660208701526040860193506133b4565b6002830480875261340986613e7c565b60005b8281101561342d5781546020828b010152848201915060208101905061340c565b88016020019550505050505092915050565b60006127f5828461334d565b60609290921b6bffffffffffffffffffffffff19168252601482015260340190565b6000828483379101908152919050565b6000825161348f818460208701613e88565b9190910192915050565b6001600160a01b0391909116815260200190565b6001600160a01b0385168152602081018490526060604082018190528101829052600082846080840137818301608090810191909152601f909201601f191601019392505050565b6001600160a01b0389811682526020820189905260408201889052861660608201526001600160e01b03198516608082015260a0810184905260c0810183905261010060e0820181905260009061354e83820185613321565b9b9a5050505050505050505050565b600060018060a01b03851682528360208301526060604083015261265e6060830184613321565b6020808252825182820181905260009190848201906040850190845b818110156135bc578351835292840192918401916001016135a0565b50909695505050505050565b901515815260200190565b90815260200190565b6000602082526127f56020830184613321565b6000606082526136026060830186613321565b6001600160a01b039490941660208301525060400152919050565b6000606082526136306060830186613321565b82810360208401526136428186613321565b915050826040830152949350505050565b60006040825261366660408301856133bd565b828103602084015261265e81856133bd565b60208082526030908201527f4465706f73697420646964206e6f742063616d652066726f6d2074686973204560408201526f3a3432b932bab69030b2323932b9b99760811b606082015260800190565b60208082526021908201527f497373756520686173206e6f206465706f7369747320746f2072656c656173656040820152601760f91b606082015260800190565b60208082526023908201527f45524332303a207472616e7366657220746f20746865207a65726f206164647260408201526265737360e81b606082015260800190565b6020808252601d908201527f50756c6c207265717565737420616c726561647920636c61696d65642e000000604082015260600190565b6020808252603d908201527f5468697320457468657265756d2061646472657373206973206e6f742072656760408201527f69737465726564207769746820616e792047697448756220757365722e000000606082015260800190565b6020808252601c908201527f416d6f756e74206d7573742062652067726561746572207a65726f2e00000000604082015260600190565b60208082526025908201527f50756c6c207265717565737420636c61696d20776173206e6f7420726571756560408201526439ba32b21760d91b606082015260800190565b60208082526026908201527f4f776e61626c653a206e6577206f776e657220697320746865207a65726f206160408201526564647265737360d01b606082015260800190565b60208082526022908201527f45524332303a20617070726f766520746f20746865207a65726f206164647265604082015261737360f01b606082015260800190565b60208082526026908201527f54686973204769744875622075736572206973206e6f7420636f6e6669726d6560408201526532103cb2ba1760d11b606082015260800190565b6020808252601b908201527f536166654d6174683a206164646974696f6e206f766572666c6f770000000000604082015260600190565b60208082526023908201527f756e61626c6520746f207472616e73666572416e6443616c6c20746f206f7261604082015262636c6560e81b606082015260800190565b6020808252601f908201527f4973737565206465706f7369747320616c726561647920636c61696d65642e00604082015260600190565b60208082526027908201527f4465706f736974206973206e6f7420666f72207468697320476974487562206160408201526631b1b7bab73a1760c91b606082015260800190565b60208082526038908201527f4f6e6c792072656769737465726564204769744875622075736572732063616e604082015277103932b632b0b9b29034b9b9bab2903232b837b9b4ba399760411b606082015260800190565b6020808252602e908201527f54686973206973737565206465706f73697420686173206265656e207769746860408201526d323930bbb71030b63932b0b23c9760911b606082015260800190565b6020808252818101527f4f776e61626c653a2063616c6c6572206973206e6f7420746865206f776e6572604082015260600190565b6020808252818101527f496e76616c69642073636f72653a2031203c3d2073636f7265203c3d20313030604082015260600190565b60208082526042908201527f4465706f73697420646964206e6f7420636f6d652066726f6d2074686973204560408201527f7468657265756d2061646472657373206f7220646f6573206e6f7420657869736060820152613a1760f11b608082015260a00190565b60208082526027908201527f49737365206465706f7369742072656c6561736520776173206e6f74207265716040820152663ab2b9ba32b21760c91b606082015260800190565b60208082526021908201527f45524332303a206275726e2066726f6d20746865207a65726f206164647265736040820152607360f81b606082015260800190565b60208082526025908201527f45524332303a207472616e736665722066726f6d20746865207a65726f206164604082015264647265737360d81b606082015260800190565b60208082526038908201527f4e6f20476974487562206163636f756e7420726567697374657265642077697460408201527734103a3434b99022ba3432b932bab69030b1b1b7bab73a1760411b606082015260800190565b60208082526024908201527f45524332303a20617070726f76652066726f6d20746865207a65726f206164646040820152637265737360e01b606082015260800190565b60208082526028908201527f536f75726365206d75737420626520746865206f7261636c65206f6620746865604082015267081c995c5d595cdd60c21b606082015260800190565b60208082526057908201527f54686520476974487562206163636f756e74207468697320697373756520776160408201527f732072656c656173656420746f20646f6573206e6f742062656c6f6e6720746f606082015276103a3434b99022ba3432b932bab69030b1b1b7bab73a1760491b608082015260a00190565b6020808252601290820152712cb7ba9036bab9ba1039b2b7321022aa241760711b604082015260600190565b60208082526023908201527f54686973204769744875622075736572206973206e6f7420726567697374657260408201526232b21760e91b606082015260800190565b6020808252601f908201527f45524332303a206d696e7420746f20746865207a65726f206164647265737300604082015260600190565b60ff91909116815260200190565b60009081526020902090565b60005b83811015613ea3578181015183820152602001613e8b565b83811115612cc45750506000910152565b6001600160a01b0381168114612f9757600080fdfe45524332303a206275726e20616d6f756e7420657863656564732062616c616e636545524332303a207472616e7366657220616d6f756e7420657863656564732062616c616e636545524332303a207472616e7366657220616d6f756e74206578636565647320616c6c6f77616e6365ddf252ad1be2c89b69c2b068fc378daa952ba7f163c4a11628f55a4df523b3ef7cc135e0cebb02c3480ae5d74d377283180a2601f8f644edf7987b009316c63a45524332303a2064656372656173656420616c6c6f77616e63652062656c6f77207a65726fa26469706673582212200ce1bb6c1e2b979bb457f0cf121b104df53c2e5dd41d1bc87def198f1a60b32564736f6c63430006060033",
  "immutableReferences": {},
  "source": "// SPDX-License-Identifier: MIT\npragma solidity ^0.6.0;\npragma experimental ABIEncoderV2;\n\nimport \"@openzeppelin/contracts/token/ERC20/ERC20.sol\";\nimport \"@openzeppelin/contracts/access/Ownable.sol\";\nimport \"@chainlink/contracts/src/v0.6/ChainlinkClient.sol\";\n\ncontract OctoBay is ERC20, Ownable, ChainlinkClient {\n  event UserDepositEvent(address account, uint256 amount, string githubUser);\n  event UserSendEvent(address account, uint256 amount, string githubUser);\n  event IssueDepositEvent(address account, uint256 amount, string issueId);\n  event ReleaseIssueDepositsEvent(string issueId, string githubUser);\n\n  struct User {\n    string githubUser;\n    address ethAddress;\n    uint256 status; // 1 = requested, 2 = confirmed\n  }\n  mapping(bytes32 => User) public users;\n  mapping(address => bytes32) public userIDsByAddress;\n  mapping(string => bytes32) public userIDsByGithubUser;\n\n  struct UserDeposit {\n    address from;\n    uint256 amount;\n    string githubUser;\n  }\n  uint256 private nextUserDepositId = 0;\n  mapping(uint256 => UserDeposit) public userDeposits;\n  mapping(string => uint256[]) public userDepositIdsByGithubUser;\n  mapping(address => uint256[]) public userDepositIdsBySender;\n\n  struct IssueDeposit {\n    address from;\n    uint256 amount;\n    string issueId;\n  }\n  mapping(uint256 => IssueDeposit) public issueDeposits;\n  uint256 public nextIssueDepositId = 0;\n  mapping(string => uint256[]) public issueDepositIdsByIssueId;\n  mapping(address => uint256[]) public issueDepositIdsBySender;\n  mapping(string => uint256) public issueDepositsAmountByIssueId;\n\n  struct ReleasedIssue {\n    string githubUser;\n    string issueId;\n    uint256 status;\n  }\n  mapping(bytes32 => ReleasedIssue) public releasedIssues;\n  mapping(string => bytes32) public issueReleaseIDsByIssueId;\n\n  struct PullRequestClaim {\n    string githubUser;\n    string prId;\n    uint256 status; // 1 = requested, 2 = confirmed\n  }\n  mapping(bytes32 => PullRequestClaim) public pullRequestClaims;\n  mapping(string => bytes32) public pullRequestClaimIDsByPrId;\n\n  mapping(string => uint256) public issuePins;\n\n  uint256 private registrationFee;\n  uint256 private claimFee;\n\n  constructor(address _link) ERC20(\"OctoPin\", \"OPIN\") public {\n    if (_link == address(0)) {\n      setPublicChainlinkToken();\n    } else {\n      setChainlinkToken(_link);\n    }\n\n    registrationFee = 0.1 * 10 ** 18; // 0.1 LINK\n    claimFee = 0.1 * 10 ** 18; // 0.1 LINK\n  }\n\n  function register(address _oracle, bytes32 _jobId, string memory _githubUser) public {\n    Chainlink.Request memory request = buildChainlinkRequest(_jobId, address(this), this.confirmRegistration.selector);\n    request.add(\"githubUser\", _githubUser);\n    request.add(\"ethAddress\", addressToIntString(msg.sender));\n    bytes32 requestId = sendChainlinkRequestTo(_oracle, request, registrationFee);\n\n    users[requestId] = User(_githubUser, msg.sender, 1);\n  }\n\n  function confirmRegistration(bytes32 _requestId) public recordChainlinkFulfillment(_requestId) {\n    // If githubUser was registered before (changed ethAddress now) look for old\n    // ID and delete entry in userIDsByAddress as well as users entry itself (userIDsByGithubUser\n    // has been overridden above anyway).\n    bytes32 oldId = userIDsByGithubUser[users[_requestId].githubUser];\n    delete userIDsByAddress[users[oldId].ethAddress];\n    delete users[oldId];\n    // The scenario where an eth address switches to a new github account\n    // (the other way around) does not occur.\n\n    users[_requestId].status = 2;\n    userIDsByAddress[users[_requestId].ethAddress] = _requestId;\n    userIDsByGithubUser[users[_requestId].githubUser] = _requestId;\n  }\n\n  function sendEthToGithubUser(string calldata _githubUser) external payable {\n    require(msg.value > 0, \"You must send ETH.\");\n    require(users[userIDsByGithubUser[_githubUser]].ethAddress != address(0), \"This GitHub user is not registered.\");\n    require(users[userIDsByGithubUser[_githubUser]].status == 2, \"This GitHub user is not confirmed yet.\");\n    payable(users[userIDsByGithubUser[_githubUser]].ethAddress).transfer(msg.value);\n    emit UserSendEvent(msg.sender, msg.value, _githubUser);\n  }\n\n  function depositEthForGithubUser(string calldata _githubUser) external payable {\n    require(msg.value > 0, \"You must send ETH.\");\n    nextUserDepositId++;\n    userDeposits[nextUserDepositId] = UserDeposit(msg.sender, msg.value, _githubUser);\n    userDepositIdsByGithubUser[_githubUser].push(nextUserDepositId);\n    userDepositIdsBySender[msg.sender].push(nextUserDepositId);\n    emit UserDepositEvent(msg.sender, msg.value, _githubUser);\n  }\n\n  function withdrawUserDeposit(uint256 _depositId) external {\n    require(users[userIDsByAddress[msg.sender]].ethAddress == msg.sender, \"This Ethereum address is not registered with any GitHub user.\");\n    require(keccak256(bytes(userDeposits[_depositId].githubUser)) == keccak256(bytes(users[userIDsByAddress[msg.sender]].githubUser)), \"Deposit is not for this GitHub account.\");\n    payable(msg.sender).transfer(userDeposits[_depositId].amount);\n    delete userDeposits[_depositId];\n  }\n\n  function refundUserDeposit(uint256 _depositId) external {\n    require(userDeposits[_depositId].from == msg.sender, \"Deposit did not came from this Ethereum address.\");\n    payable(msg.sender).transfer(userDeposits[_depositId].amount);\n    delete userDeposits[_depositId];\n  }\n\n  function getUserDepositIdsForGithubUser(string calldata _githubUser) external view returns(uint256[] memory) {\n    return userDepositIdsByGithubUser[_githubUser];\n  }\n\n  function getUserDepositIdsForSender() external view returns(uint256[] memory) {\n    return userDepositIdsBySender[msg.sender];\n  }\n\n  function depositEthForIssue(string calldata _issueId) external payable {\n    require(msg.value > 0, \"You must send ETH.\");\n    nextIssueDepositId++;\n    issueDeposits[nextIssueDepositId] = IssueDeposit(msg.sender, msg.value, _issueId);\n    issueDepositIdsByIssueId[_issueId].push(nextIssueDepositId);\n    issueDepositIdsBySender[msg.sender].push(nextIssueDepositId);\n    issueDepositsAmountByIssueId[_issueId] += msg.value;\n    emit IssueDepositEvent(msg.sender, msg.value, _issueId);\n  }\n\n  function refundIssueDeposit(uint256 _depositId) external {\n    require(issueDeposits[_depositId].from == msg.sender, \"Deposit did not come from this Ethereum address or does not exist.\");\n    require(issueDepositsAmountByIssueId[issueDeposits[_depositId].issueId] >= issueDeposits[_depositId].amount, \"This issue deposit has been withdrawn already.\");\n    payable(msg.sender).transfer(issueDeposits[_depositId].amount);\n    issueDepositsAmountByIssueId[issueDeposits[_depositId].issueId] -= issueDeposits[_depositId].amount;\n    delete issueDeposits[_depositId];\n  }\n\n  function getIssueDepositIdsForIssueId(string calldata _depositId) external view returns(uint256[] memory) {\n    return issueDepositIdsByIssueId[_depositId];\n  }\n\n  function getIssueDepositIdsForSender() external view returns(uint256[] memory) {\n    return issueDepositIdsBySender[msg.sender];\n  }\n\n  function pinIssue(string memory _issueId, uint256 _amount) public {\n    require(_amount > 0, \"Amount must be greater zero.\");\n    _burn(msg.sender, _amount);\n    issuePins[_issueId] += _amount;\n  }\n\n  function claimPullRequest(address _oracle, bytes32 _jobId, string memory _prId, string memory _githubUser) public {\n    require(pullRequestClaims[pullRequestClaimIDsByPrId[_prId]].status != 2, \"Pull request already claimed.\");\n    require(users[userIDsByGithubUser[_githubUser]].status != 2, \"This GitHub user is not registered.\");\n\n    Chainlink.Request memory request = buildChainlinkRequest(_jobId, address(this), this.confirmPullRequestClaim.selector);\n    request.add(\"githubUser\", _githubUser);\n    request.add(\"prId\", _prId);\n    bytes32 requestId = sendChainlinkRequestTo(_oracle, request, claimFee);\n\n    pullRequestClaims[requestId] = PullRequestClaim(_githubUser, _prId, 1);\n  }\n\n  function confirmPullRequestClaim(bytes32 _requestId, uint256 _score) public recordChainlinkFulfillment(_requestId) {\n    require(1 <= _score && _score <= 100, \"Invalid score: 1 <= score <= 100\");\n    require(pullRequestClaims[_requestId].status == 1, \"Pull request claim was not requested.\");\n    require(users[userIDsByGithubUser[pullRequestClaims[_requestId].githubUser]].ethAddress != address(0), \"This GitHub user is not registered.\");\n\n    pullRequestClaims[_requestId].status = 2;\n    _mint(users[userIDsByGithubUser[pullRequestClaims[_requestId].githubUser]].ethAddress, _score * uint256(10) ** decimals());\n  }\n\n  function releaseIssueDeposits(address _oracle, bytes32 _jobId, string memory _issueId, string memory _githubUser) public {\n    require(issueDepositsAmountByIssueId[_issueId] > 0, \"Issue has no deposits to release.\");\n    require(users[userIDsByAddress[msg.sender]].ethAddress == msg.sender, \"Only registered GitHub users can release issue deposits.\");\n\n    Chainlink.Request memory request = buildChainlinkRequest(_jobId, address(this), this.confirmReleaseIssueDeposits.selector);\n    request.add(\"githubUser\", _githubUser);\n    request.add(\"issueId\", _issueId);\n    bytes32 requestId = sendChainlinkRequestTo(_oracle, request, registrationFee);\n\n    releasedIssues[requestId] = ReleasedIssue(_githubUser, _issueId, 1);\n    issueReleaseIDsByIssueId[_issueId] = requestId;\n  }\n\n  function confirmReleaseIssueDeposits(bytes32 _requestId) public recordChainlinkFulfillment(_requestId) {\n    require(releasedIssues[_requestId].status == 1, \"Isse deposit release was not requested.\");\n    releasedIssues[_requestId].status = 2;\n    emit ReleaseIssueDepositsEvent(releasedIssues[_requestId].issueId, releasedIssues[_requestId].githubUser);\n  }\n\n  function claimReleasedIssueDeposits(string calldata _issueId) external {\n    require(users[userIDsByAddress[msg.sender]].ethAddress == msg.sender, \"No GitHub account registered with this Ethereum account.\");\n    require(keccak256(bytes(releasedIssues[issueReleaseIDsByIssueId[_issueId]].githubUser)) == keccak256(bytes(users[userIDsByAddress[msg.sender]].githubUser)), \"The GitHub account this issue was released to does not belong to this Ethereum account.\");\n    require(issueDepositsAmountByIssueId[_issueId] > 0, \"Issue deposits already claimed.\");\n\n    payable(msg.sender).transfer(issueDepositsAmountByIssueId[_issueId]);\n    issueDepositsAmountByIssueId[_issueId] = 0;\n  }\n\n  function addressToIntString(address _address) internal pure returns (string memory _string) {\n    uint _i = uint256(_address);\n    if (_i == 0) {\n        return \"0\";\n    }\n    uint j = _i;\n    uint len;\n    while (j != 0) {\n        len++;\n        j /= 10;\n    }\n    bytes memory bstr = new bytes(len);\n    uint k = len - 1;\n    while (_i != 0) {\n        bstr[k--] = byte(uint8(48 + _i % 10));\n        _i /= 10;\n    }\n    return string(bstr);\n  }\n}\n",
  "sourcePath": "/home/mkt/Projects/octobay/contracts/OctoBay.sol",
  "compiler": {
    "name": "solc",
    "version": "0.6.6+commit.6c089d02.Emscripten.clang"
  },
  "schemaVersion": "3.2.5",
  "updatedAt": "2020-12-21T02:48:59.490Z",
  "devdoc": {
    "methods": {
      "allowance(address,address)": {
        "details": "See {IERC20-allowance}."
      },
      "approve(address,uint256)": {
        "details": "See {IERC20-approve}.     * Requirements:     * - `spender` cannot be the zero address."
      },
      "balanceOf(address)": {
        "details": "See {IERC20-balanceOf}."
      },
      "decimals()": {
        "details": "Returns the number of decimals used to get its user representation. For example, if `decimals` equals `2`, a balance of `505` tokens should be displayed to a user as `5,05` (`505 / 10 ** 2`).     * Tokens usually opt for a value of 18, imitating the relationship between Ether and Wei. This is the value {ERC20} uses, unless {_setupDecimals} is called.     * NOTE: This information is only used for _display_ purposes: it in no way affects any of the arithmetic of the contract, including {IERC20-balanceOf} and {IERC20-transfer}."
      },
      "decreaseAllowance(address,uint256)": {
        "details": "Atomically decreases the allowance granted to `spender` by the caller.     * This is an alternative to {approve} that can be used as a mitigation for problems described in {IERC20-approve}.     * Emits an {Approval} event indicating the updated allowance.     * Requirements:     * - `spender` cannot be the zero address. - `spender` must have allowance for the caller of at least `subtractedValue`."
      },
      "increaseAllowance(address,uint256)": {
        "details": "Atomically increases the allowance granted to `spender` by the caller.     * This is an alternative to {approve} that can be used as a mitigation for problems described in {IERC20-approve}.     * Emits an {Approval} event indicating the updated allowance.     * Requirements:     * - `spender` cannot be the zero address."
      },
      "name()": {
        "details": "Returns the name of the token."
      },
      "owner()": {
        "details": "Returns the address of the current owner."
      },
      "renounceOwnership()": {
        "details": "Leaves the contract without owner. It will not be possible to call `onlyOwner` functions anymore. Can only be called by the current owner.     * NOTE: Renouncing ownership will leave the contract without an owner, thereby removing any functionality that is only available to the owner."
      },
      "symbol()": {
        "details": "Returns the symbol of the token, usually a shorter version of the name."
      },
      "totalSupply()": {
        "details": "See {IERC20-totalSupply}."
      },
      "transfer(address,uint256)": {
        "details": "See {IERC20-transfer}.     * Requirements:     * - `recipient` cannot be the zero address. - the caller must have a balance of at least `amount`."
      },
      "transferFrom(address,address,uint256)": {
        "details": "See {IERC20-transferFrom}.     * Emits an {Approval} event indicating the updated allowance. This is not required by the EIP. See the note at the beginning of {ERC20}.     * Requirements:     * - `sender` and `recipient` cannot be the zero address. - `sender` must have a balance of at least `amount`. - the caller must have allowance for ``sender``'s tokens of at least `amount`."
      },
      "transferOwnership(address)": {
        "details": "Transfers ownership of the contract to a new account (`newOwner`). Can only be called by the current owner."
      }
    }
  },
  "userdoc": {
    "methods": {}
  }
}