{
  "contractName": "OctoBay",
  "abi": [
    {
      "inputs": [],
      "stateMutability": "nonpayable",
      "type": "constructor"
    },
    {
      "anonymous": false,
      "inputs": [
        {
          "indexed": true,
          "internalType": "address",
          "name": "owner",
          "type": "address"
        },
        {
          "indexed": true,
          "internalType": "address",
          "name": "spender",
          "type": "address"
        },
        {
          "indexed": false,
          "internalType": "uint256",
          "name": "value",
          "type": "uint256"
        }
      ],
      "name": "Approval",
      "type": "event"
    },
    {
      "anonymous": false,
      "inputs": [
        {
          "indexed": false,
          "internalType": "string",
          "name": "prId",
          "type": "string"
        },
        {
          "indexed": false,
          "internalType": "string",
          "name": "githubUser",
          "type": "string"
        },
        {
          "indexed": false,
          "internalType": "uint256",
          "name": "score",
          "type": "uint256"
        }
      ],
      "name": "ClaimPrConfirmEvent",
      "type": "event"
    },
    {
      "anonymous": false,
      "inputs": [
        {
          "indexed": false,
          "internalType": "string",
          "name": "prId",
          "type": "string"
        },
        {
          "indexed": false,
          "internalType": "string",
          "name": "githubUser",
          "type": "string"
        }
      ],
      "name": "ClaimPrRequestEvent",
      "type": "event"
    },
    {
      "anonymous": false,
      "inputs": [
        {
          "indexed": false,
          "internalType": "address",
          "name": "account",
          "type": "address"
        },
        {
          "indexed": false,
          "internalType": "uint256",
          "name": "amount",
          "type": "uint256"
        },
        {
          "indexed": false,
          "internalType": "string",
          "name": "issueId",
          "type": "string"
        }
      ],
      "name": "IssueDepositEvent",
      "type": "event"
    },
    {
      "anonymous": false,
      "inputs": [
        {
          "indexed": true,
          "internalType": "address",
          "name": "previousOwner",
          "type": "address"
        },
        {
          "indexed": true,
          "internalType": "address",
          "name": "newOwner",
          "type": "address"
        }
      ],
      "name": "OwnershipTransferred",
      "type": "event"
    },
    {
      "anonymous": false,
      "inputs": [
        {
          "indexed": false,
          "internalType": "address",
          "name": "account",
          "type": "address"
        },
        {
          "indexed": false,
          "internalType": "string",
          "name": "githubUser",
          "type": "string"
        }
      ],
      "name": "RegistrationConfirmedEvent",
      "type": "event"
    },
    {
      "anonymous": false,
      "inputs": [
        {
          "indexed": false,
          "internalType": "address",
          "name": "account",
          "type": "address"
        },
        {
          "indexed": false,
          "internalType": "string",
          "name": "githubUser",
          "type": "string"
        }
      ],
      "name": "RegistrationRequestEvent",
      "type": "event"
    },
    {
      "anonymous": false,
      "inputs": [
        {
          "indexed": false,
          "internalType": "string",
          "name": "issueId",
          "type": "string"
        },
        {
          "indexed": false,
          "internalType": "string",
          "name": "githubUser",
          "type": "string"
        }
      ],
      "name": "ReleaseIssueDepositsConfirmEvent",
      "type": "event"
    },
    {
      "anonymous": false,
      "inputs": [
        {
          "indexed": false,
          "internalType": "string",
          "name": "issueId",
          "type": "string"
        },
        {
          "indexed": false,
          "internalType": "string",
          "name": "githubUser",
          "type": "string"
        },
        {
          "indexed": false,
          "internalType": "string",
          "name": "owner",
          "type": "string"
        }
      ],
      "name": "ReleaseIssueDepositsRequestEvent",
      "type": "event"
    },
    {
      "anonymous": false,
      "inputs": [
        {
          "indexed": true,
          "internalType": "address",
          "name": "from",
          "type": "address"
        },
        {
          "indexed": true,
          "internalType": "address",
          "name": "to",
          "type": "address"
        },
        {
          "indexed": false,
          "internalType": "uint256",
          "name": "value",
          "type": "uint256"
        }
      ],
      "name": "Transfer",
      "type": "event"
    },
    {
      "anonymous": false,
      "inputs": [
        {
          "indexed": false,
          "internalType": "address",
          "name": "account",
          "type": "address"
        },
        {
          "indexed": false,
          "internalType": "uint256",
          "name": "amount",
          "type": "uint256"
        },
        {
          "indexed": false,
          "internalType": "string",
          "name": "githubUser",
          "type": "string"
        }
      ],
      "name": "UserDepositEvent",
      "type": "event"
    },
    {
      "inputs": [
        {
          "internalType": "string",
          "name": "",
          "type": "string"
        }
      ],
      "name": "_claimedPullRequests",
      "outputs": [
        {
          "internalType": "uint8",
          "name": "",
          "type": "uint8"
        }
      ],
      "stateMutability": "view",
      "type": "function",
      "constant": true
    },
    {
      "inputs": [
        {
          "internalType": "string",
          "name": "",
          "type": "string"
        }
      ],
      "name": "_issueBoosts",
      "outputs": [
        {
          "internalType": "uint256",
          "name": "",
          "type": "uint256"
        }
      ],
      "stateMutability": "view",
      "type": "function",
      "constant": true
    },
    {
      "inputs": [
        {
          "internalType": "string",
          "name": "",
          "type": "string"
        },
        {
          "internalType": "uint256",
          "name": "",
          "type": "uint256"
        }
      ],
      "name": "_issueDepositIdsByIssueId",
      "outputs": [
        {
          "internalType": "uint256",
          "name": "",
          "type": "uint256"
        }
      ],
      "stateMutability": "view",
      "type": "function",
      "constant": true
    },
    {
      "inputs": [
        {
          "internalType": "address",
          "name": "",
          "type": "address"
        },
        {
          "internalType": "uint256",
          "name": "",
          "type": "uint256"
        }
      ],
      "name": "_issueDepositIdsBySender",
      "outputs": [
        {
          "internalType": "uint256",
          "name": "",
          "type": "uint256"
        }
      ],
      "stateMutability": "view",
      "type": "function",
      "constant": true
    },
    {
      "inputs": [
        {
          "internalType": "uint256",
          "name": "",
          "type": "uint256"
        }
      ],
      "name": "_issueDeposits",
      "outputs": [
        {
          "internalType": "address",
          "name": "from",
          "type": "address"
        },
        {
          "internalType": "uint256",
          "name": "amount",
          "type": "uint256"
        },
        {
          "internalType": "string",
          "name": "issueId",
          "type": "string"
        }
      ],
      "stateMutability": "view",
      "type": "function",
      "constant": true
    },
    {
      "inputs": [],
      "name": "_nextIssueDepositId",
      "outputs": [
        {
          "internalType": "uint256",
          "name": "",
          "type": "uint256"
        }
      ],
      "stateMutability": "view",
      "type": "function",
      "constant": true
    },
    {
      "inputs": [
        {
          "internalType": "string",
          "name": "",
          "type": "string"
        }
      ],
      "name": "_releasedIssues",
      "outputs": [
        {
          "internalType": "string",
          "name": "",
          "type": "string"
        }
      ],
      "stateMutability": "view",
      "type": "function",
      "constant": true
    },
    {
      "inputs": [
        {
          "internalType": "string",
          "name": "",
          "type": "string"
        },
        {
          "internalType": "uint256",
          "name": "",
          "type": "uint256"
        }
      ],
      "name": "_userDepositIdsByGithubUser",
      "outputs": [
        {
          "internalType": "uint256",
          "name": "",
          "type": "uint256"
        }
      ],
      "stateMutability": "view",
      "type": "function",
      "constant": true
    },
    {
      "inputs": [
        {
          "internalType": "address",
          "name": "",
          "type": "address"
        },
        {
          "internalType": "uint256",
          "name": "",
          "type": "uint256"
        }
      ],
      "name": "_userDepositIdsBySender",
      "outputs": [
        {
          "internalType": "uint256",
          "name": "",
          "type": "uint256"
        }
      ],
      "stateMutability": "view",
      "type": "function",
      "constant": true
    },
    {
      "inputs": [
        {
          "internalType": "uint256",
          "name": "",
          "type": "uint256"
        }
      ],
      "name": "_userDeposits",
      "outputs": [
        {
          "internalType": "address",
          "name": "from",
          "type": "address"
        },
        {
          "internalType": "uint256",
          "name": "amount",
          "type": "uint256"
        },
        {
          "internalType": "string",
          "name": "githubUser",
          "type": "string"
        }
      ],
      "stateMutability": "view",
      "type": "function",
      "constant": true
    },
    {
      "inputs": [
        {
          "internalType": "string",
          "name": "",
          "type": "string"
        }
      ],
      "name": "_users",
      "outputs": [
        {
          "internalType": "address",
          "name": "account",
          "type": "address"
        },
        {
          "internalType": "bool",
          "name": "confirmed",
          "type": "bool"
        }
      ],
      "stateMutability": "view",
      "type": "function",
      "constant": true
    },
    {
      "inputs": [
        {
          "internalType": "address",
          "name": "",
          "type": "address"
        }
      ],
      "name": "_usersByAddress",
      "outputs": [
        {
          "internalType": "string",
          "name": "",
          "type": "string"
        }
      ],
      "stateMutability": "view",
      "type": "function",
      "constant": true
    },
    {
      "inputs": [
        {
          "internalType": "address",
          "name": "owner",
          "type": "address"
        },
        {
          "internalType": "address",
          "name": "spender",
          "type": "address"
        }
      ],
      "name": "allowance",
      "outputs": [
        {
          "internalType": "uint256",
          "name": "",
          "type": "uint256"
        }
      ],
      "stateMutability": "view",
      "type": "function",
      "constant": true
    },
    {
      "inputs": [
        {
          "internalType": "address",
          "name": "spender",
          "type": "address"
        },
        {
          "internalType": "uint256",
          "name": "amount",
          "type": "uint256"
        }
      ],
      "name": "approve",
      "outputs": [
        {
          "internalType": "bool",
          "name": "",
          "type": "bool"
        }
      ],
      "stateMutability": "nonpayable",
      "type": "function"
    },
    {
      "inputs": [
        {
          "internalType": "address",
          "name": "account",
          "type": "address"
        }
      ],
      "name": "balanceOf",
      "outputs": [
        {
          "internalType": "uint256",
          "name": "",
          "type": "uint256"
        }
      ],
      "stateMutability": "view",
      "type": "function",
      "constant": true
    },
    {
      "inputs": [],
      "name": "decimals",
      "outputs": [
        {
          "internalType": "uint8",
          "name": "",
          "type": "uint8"
        }
      ],
      "stateMutability": "view",
      "type": "function",
      "constant": true
    },
    {
      "inputs": [
        {
          "internalType": "address",
          "name": "spender",
          "type": "address"
        },
        {
          "internalType": "uint256",
          "name": "subtractedValue",
          "type": "uint256"
        }
      ],
      "name": "decreaseAllowance",
      "outputs": [
        {
          "internalType": "bool",
          "name": "",
          "type": "bool"
        }
      ],
      "stateMutability": "nonpayable",
      "type": "function"
    },
    {
      "inputs": [
        {
          "internalType": "address",
          "name": "spender",
          "type": "address"
        },
        {
          "internalType": "uint256",
          "name": "addedValue",
          "type": "uint256"
        }
      ],
      "name": "increaseAllowance",
      "outputs": [
        {
          "internalType": "bool",
          "name": "",
          "type": "bool"
        }
      ],
      "stateMutability": "nonpayable",
      "type": "function"
    },
    {
      "inputs": [],
      "name": "name",
      "outputs": [
        {
          "internalType": "string",
          "name": "",
          "type": "string"
        }
      ],
      "stateMutability": "view",
      "type": "function",
      "constant": true
    },
    {
      "inputs": [],
      "name": "owner",
      "outputs": [
        {
          "internalType": "address",
          "name": "",
          "type": "address"
        }
      ],
      "stateMutability": "view",
      "type": "function",
      "constant": true
    },
    {
      "inputs": [],
      "name": "renounceOwnership",
      "outputs": [],
      "stateMutability": "nonpayable",
      "type": "function"
    },
    {
      "inputs": [],
      "name": "symbol",
      "outputs": [
        {
          "internalType": "string",
          "name": "",
          "type": "string"
        }
      ],
      "stateMutability": "view",
      "type": "function",
      "constant": true
    },
    {
      "inputs": [],
      "name": "totalSupply",
      "outputs": [
        {
          "internalType": "uint256",
          "name": "",
          "type": "uint256"
        }
      ],
      "stateMutability": "view",
      "type": "function",
      "constant": true
    },
    {
      "inputs": [
        {
          "internalType": "address",
          "name": "recipient",
          "type": "address"
        },
        {
          "internalType": "uint256",
          "name": "amount",
          "type": "uint256"
        }
      ],
      "name": "transfer",
      "outputs": [
        {
          "internalType": "bool",
          "name": "",
          "type": "bool"
        }
      ],
      "stateMutability": "nonpayable",
      "type": "function"
    },
    {
      "inputs": [
        {
          "internalType": "address",
          "name": "sender",
          "type": "address"
        },
        {
          "internalType": "address",
          "name": "recipient",
          "type": "address"
        },
        {
          "internalType": "uint256",
          "name": "amount",
          "type": "uint256"
        }
      ],
      "name": "transferFrom",
      "outputs": [
        {
          "internalType": "bool",
          "name": "",
          "type": "bool"
        }
      ],
      "stateMutability": "nonpayable",
      "type": "function"
    },
    {
      "inputs": [
        {
          "internalType": "address",
          "name": "newOwner",
          "type": "address"
        }
      ],
      "name": "transferOwnership",
      "outputs": [],
      "stateMutability": "nonpayable",
      "type": "function"
    },
    {
      "inputs": [
        {
          "internalType": "address",
          "name": "oracle",
          "type": "address"
        }
      ],
      "name": "enableOracle",
      "outputs": [],
      "stateMutability": "nonpayable",
      "type": "function"
    },
    {
      "inputs": [
        {
          "internalType": "address",
          "name": "oracle",
          "type": "address"
        }
      ],
      "name": "disableOracle",
      "outputs": [],
      "stateMutability": "nonpayable",
      "type": "function"
    },
    {
      "inputs": [
        {
          "internalType": "string",
          "name": "githubUser",
          "type": "string"
        }
      ],
      "name": "register",
      "outputs": [],
      "stateMutability": "payable",
      "type": "function",
      "payable": true
    },
    {
      "inputs": [
        {
          "internalType": "string",
          "name": "githubUser",
          "type": "string"
        },
        {
          "internalType": "address",
          "name": "account",
          "type": "address"
        }
      ],
      "name": "registerConfirm",
      "outputs": [],
      "stateMutability": "nonpayable",
      "type": "function"
    },
    {
      "inputs": [
        {
          "internalType": "string",
          "name": "githubUser",
          "type": "string"
        }
      ],
      "name": "sendEthToGithubUser",
      "outputs": [],
      "stateMutability": "payable",
      "type": "function",
      "payable": true
    },
    {
      "inputs": [
        {
          "internalType": "string",
          "name": "githubUser",
          "type": "string"
        }
      ],
      "name": "depositEthForGithubUser",
      "outputs": [],
      "stateMutability": "payable",
      "type": "function",
      "payable": true
    },
    {
      "inputs": [
        {
          "internalType": "uint256",
          "name": "depositId",
          "type": "uint256"
        }
      ],
      "name": "withdrawUserDeposit",
      "outputs": [],
      "stateMutability": "nonpayable",
      "type": "function"
    },
    {
      "inputs": [
        {
          "internalType": "uint256",
          "name": "depositId",
          "type": "uint256"
        }
      ],
      "name": "refundUserDeposit",
      "outputs": [],
      "stateMutability": "nonpayable",
      "type": "function"
    },
    {
      "inputs": [
        {
          "internalType": "string",
          "name": "githubUser",
          "type": "string"
        }
      ],
      "name": "getUserDepositIdsForGithubUser",
      "outputs": [
        {
          "internalType": "uint256[]",
          "name": "",
          "type": "uint256[]"
        }
      ],
      "stateMutability": "view",
      "type": "function",
      "constant": true
    },
    {
      "inputs": [],
      "name": "getUserDepositIdsForSender",
      "outputs": [
        {
          "internalType": "uint256[]",
          "name": "",
          "type": "uint256[]"
        }
      ],
      "stateMutability": "view",
      "type": "function",
      "constant": true
    },
    {
      "inputs": [
        {
          "internalType": "string",
          "name": "issueId",
          "type": "string"
        }
      ],
      "name": "depositEthForIssue",
      "outputs": [],
      "stateMutability": "payable",
      "type": "function",
      "payable": true
    },
    {
      "inputs": [
        {
          "internalType": "uint256",
          "name": "depositId",
          "type": "uint256"
        }
      ],
      "name": "refundIssueDeposit",
      "outputs": [],
      "stateMutability": "nonpayable",
      "type": "function"
    },
    {
      "inputs": [
        {
          "internalType": "string",
          "name": "issueId",
          "type": "string"
        }
      ],
      "name": "getIssueDepositIdsForIssueId",
      "outputs": [
        {
          "internalType": "uint256[]",
          "name": "",
          "type": "uint256[]"
        }
      ],
      "stateMutability": "view",
      "type": "function",
      "constant": true
    },
    {
      "inputs": [],
      "name": "getIssueDepositIdsForSender",
      "outputs": [
        {
          "internalType": "uint256[]",
          "name": "",
          "type": "uint256[]"
        }
      ],
      "stateMutability": "view",
      "type": "function",
      "constant": true
    },
    {
      "inputs": [
        {
          "internalType": "string",
          "name": "issueId",
          "type": "string"
        },
        {
          "internalType": "uint256",
          "name": "amount",
          "type": "uint256"
        }
      ],
      "name": "pinIssue",
      "outputs": [],
      "stateMutability": "nonpayable",
      "type": "function"
    },
    {
      "inputs": [
        {
          "internalType": "string",
          "name": "prId",
          "type": "string"
        },
        {
          "internalType": "string",
          "name": "githubUser",
          "type": "string"
        }
      ],
      "name": "claimPullRequest",
      "outputs": [],
      "stateMutability": "payable",
      "type": "function",
      "payable": true
    },
    {
      "inputs": [
        {
          "internalType": "string",
          "name": "prId",
          "type": "string"
        },
        {
          "internalType": "string",
          "name": "githubUser",
          "type": "string"
        },
        {
          "internalType": "uint256",
          "name": "score",
          "type": "uint256"
        }
      ],
      "name": "confirmClaimPullRequest",
      "outputs": [],
      "stateMutability": "nonpayable",
      "type": "function"
    },
    {
      "inputs": [
        {
          "internalType": "string",
          "name": "issueId",
          "type": "string"
        },
        {
          "internalType": "string",
          "name": "githubUser",
          "type": "string"
        }
      ],
      "name": "releaseIssueDeposits",
      "outputs": [],
      "stateMutability": "payable",
      "type": "function",
      "payable": true
    },
    {
      "inputs": [
        {
          "internalType": "string",
          "name": "issueId",
          "type": "string"
        },
        {
          "internalType": "string",
          "name": "githubUser",
          "type": "string"
        }
      ],
      "name": "confirmReleaseIssueDeposits",
      "outputs": [],
      "stateMutability": "nonpayable",
      "type": "function"
    },
    {
      "inputs": [
        {
          "internalType": "string",
          "name": "issueId",
          "type": "string"
        }
      ],
      "name": "claimReleasedIssueDeposits",
      "outputs": [],
      "stateMutability": "nonpayable",
      "type": "function"
    }
  ],
  "bytecode": "0x60806040526000600a556000600e553480156200001b57600080fd5b506040518060400160405280600781526020017f4f63746f50696e000000000000000000000000000000000000000000000000008152506040518060400160405280600481526020017f4f50494e000000000000000000000000000000000000000000000000000000008152508160039080519060200190620000a092919062000228565b508060049080519060200190620000b992919062000228565b506012600560006101000a81548160ff021916908360ff16021790555050506000620000ea620001f660201b60201c565b905080600560016101000a81548173ffffffffffffffffffffffffffffffffffffffff021916908373ffffffffffffffffffffffffffffffffffffffff1602179055508073ffffffffffffffffffffffffffffffffffffffff16600073ffffffffffffffffffffffffffffffffffffffff167f8be0079c531659141344cd1fd0a4f28419497f9722a3daafe3b4186f6b6457e060405160405180910390a3506001600660006200019f620001fe60201b60201c565b73ffffffffffffffffffffffffffffffffffffffff1673ffffffffffffffffffffffffffffffffffffffff16815260200190815260200160002060006101000a81548160ff021916908315150217905550620002d7565b600033905090565b6000600560019054906101000a900473ffffffffffffffffffffffffffffffffffffffff16905090565b828054600181600116156101000203166002900490600052602060002090601f016020900481019282601f106200026b57805160ff19168380011785556200029c565b828001600101855582156200029c579182015b828111156200029b5782518255916020019190600101906200027e565b5b509050620002ab9190620002af565b5090565b620002d491905b80821115620002d0576000816000905550600101620002b6565b5090565b90565b615e9f80620002e76000396000f3fe60806040526004361061027d5760003560e01c80637400e6171161014f578063c315fbca116100c1578063efda0fd61161007a578063efda0fd614610a54578063f2c298be14610a70578063f2fde38b14610a8c578063f4b90ef714610ab5578063f4c705ab14610ad1578063fb95354a14610afa5761027d565b8063c315fbca1461090e578063c695389d14610937578063cb99390f14610974578063ce85fc46146109b1578063d5d85fa6146109ee578063dd62ed3e14610a175761027d565b806395d89b411161011357806395d89b41146107fb5780639947918c146108265780639996f1861461084f578063a457c2d71461086b578063a9059cbb146108a8578063b52acaab146108e55761027d565b80637400e6171461071857806384f8f644146107415780638617fc461461076a5780638da5cb5b14610793578063957e7eb9146107be5761027d565b806340739515116101f357806360445fb2116101ac57806360445fb2146105e25780636077321a1461060b57806370388bf91461064a57806370a0823114610687578063715018a6146106c4578063716f9d24146106db5761027d565b806340739515146104b9578063454d0554146104e457806350aea5591461050f57806353a61ff91461054c57806356bf7cce146105895780635d3dd29d146105a55761027d565b806318160ddd1161024557806318160ddd1461036e57806321ec48691461039957806323b872dd146103d7578063313ce56714610414578063344ae0771461043f578063395093511461047c5761027d565b806306fdde0314610282578063095b51a7146102ad578063095ea7b3146102c957806309d406a1146103065780630cb517471461032f575b600080fd5b34801561028e57600080fd5b50610297610b25565b6040516102a49190615822565b60405180910390f35b6102c760048036038101906102c291906146e2565b610bc7565b005b3480156102d557600080fd5b506102f060048036038101906102eb9190614609565b610dff565b6040516102fd9190615733565b60405180910390f35b34801561031257600080fd5b5061032d6004803603810190610328919061468a565b610e1d565b005b34801561033b57600080fd5b5061035660048036038101906103519190614875565b611052565b604051610365939291906156d3565b60405180910390f35b34801561037a57600080fd5b50610383611134565b6040516103909190615ba4565b60405180910390f35b3480156103a557600080fd5b506103c060048036038101906103bb91906147e0565b61113e565b6040516103ce929190615678565b60405180910390f35b3480156103e357600080fd5b506103fe60048036038101906103f991906145ba565b6111a5565b60405161040b9190615733565b60405180910390f35b34801561042057600080fd5b5061042961127e565b6040516104369190615bbf565b60405180910390f35b34801561044b57600080fd5b5061046660048036038101906104619190614821565b611295565b6040516104739190615ba4565b60405180910390f35b34801561048857600080fd5b506104a3600480360381019061049e9190614609565b6112d9565b6040516104b09190615733565b60405180910390f35b3480156104c557600080fd5b506104ce61138c565b6040516104db9190615ba4565b60405180910390f35b3480156104f057600080fd5b506104f9611392565b6040516105069190615711565b60405180910390f35b34801561051b57600080fd5b5061053660048036038101906105319190614645565b611427565b6040516105439190615711565b60405180910390f35b34801561055857600080fd5b50610573600480360381019061056e9190614645565b6114a0565b6040516105809190615711565b60405180910390f35b6105a3600480360381019061059e91906146e2565b611519565b005b3480156105b157600080fd5b506105cc60048036038101906105c79190614821565b611783565b6040516105d99190615ba4565b60405180910390f35b3480156105ee57600080fd5b5061060960048036038101906106049190614875565b6117c7565b005b34801561061757600080fd5b50610632600480360381019061062d9190614875565b611920565b604051610641939291906156d3565b60405180910390f35b34801561065657600080fd5b50610671600480360381019061066c91906147e0565b611a02565b60405161067e9190615ba4565b60405180910390f35b34801561069357600080fd5b506106ae60048036038101906106a99190614555565b611a30565b6040516106bb9190615ba4565b60405180910390f35b3480156106d057600080fd5b506106d9611a78565b005b3480156106e757600080fd5b5061070260048036038101906106fd9190614609565b611bd0565b60405161070f9190615ba4565b60405180910390f35b34801561072457600080fd5b5061073f600480360381019061073a9190614555565b611bfe565b005b34801561074d57600080fd5b5061076860048036038101906107639190614821565b611df2565b005b34801561077657600080fd5b50610791600480360381019061078c9190614875565b611e6f565b005b34801561079f57600080fd5b506107a8611fc8565b6040516107b591906155eb565b60405180910390f35b3480156107ca57600080fd5b506107e560048036038101906107e091906147e0565b611ff2565b6040516107f29190615822565b60405180910390f35b34801561080757600080fd5b506108106120b8565b60405161081d9190615822565b60405180910390f35b34801561083257600080fd5b5061084d60048036038101906108489190614645565b61215a565b005b61086960048036038101906108649190614645565b6124f0565b005b34801561087757600080fd5b50610892600480360381019061088d9190614609565b612732565b60405161089f9190615733565b60405180910390f35b3480156108b457600080fd5b506108cf60048036038101906108ca9190614609565b6127ff565b6040516108dc9190615733565b60405180910390f35b3480156108f157600080fd5b5061090c60048036038101906109079190614757565b61281d565b005b34801561091a57600080fd5b5061093560048036038101906109309190614875565b612aab565b005b34801561094357600080fd5b5061095e60048036038101906109599190614609565b612d0c565b60405161096b9190615ba4565b60405180910390f35b34801561098057600080fd5b5061099b600480360381019061099691906147e0565b612d3a565b6040516109a89190615bbf565b60405180910390f35b3480156109bd57600080fd5b506109d860048036038101906109d39190614555565b612d70565b6040516109e59190615822565b60405180910390f35b3480156109fa57600080fd5b50610a156004803603810190610a1091906146e2565b612e20565b005b348015610a2357600080fd5b50610a3e6004803603810190610a39919061457e565b612f85565b604051610a4b9190615ba4565b60405180910390f35b610a6e6004803603810190610a699190614645565b61300c565b005b610a8a6004803603810190610a859190614645565b613207565b005b348015610a9857600080fd5b50610ab36004803603810190610aae9190614555565b6134e7565b005b610acf6004803603810190610aca9190614645565b6136ae565b005b348015610add57600080fd5b50610af86004803603810190610af39190614555565b6138f0565b005b348015610b0657600080fd5b50610b0f6139e2565b604051610b1c9190615711565b60405180910390f35b606060038054600181600116156101000203166002900480601f016020809104026020016040519081016040528092919081815260200182805460018160011615610100020316600290048015610bbd5780601f10610b9257610100808354040283529160200191610bbd565b820191906000526020600020905b815481529060010190602001808311610ba057829003601f168201915b5050505050905090565b3a620109a0023411610c0e576040517f08c379a0000000000000000000000000000000000000000000000000000000008152600401610c0590615ae4565b60405180910390fd5b600060138585604051610c229291906155a4565b908152602001604051809103902060009054906101000a900460ff1660ff1614610c81576040517f08c379a0000000000000000000000000000000000000000000000000000000008152600401610c7890615884565b60405180910390fd5b600073ffffffffffffffffffffffffffffffffffffffff1660078383604051610cab9291906155a4565b908152602001604051809103902060000160009054906101000a900473ffffffffffffffffffffffffffffffffffffffff1673ffffffffffffffffffffffffffffffffffffffff161415610d34576040517f08c379a0000000000000000000000000000000000000000000000000000000008152600401610d2b90615984565b60405180910390fd5b610d3c611fc8565b73ffffffffffffffffffffffffffffffffffffffff166108fc349081150290604051600060405180830381858888f19350505050158015610d81573d6000803e3d6000fd5b50600160138585604051610d969291906155a4565b908152602001604051809103902060006101000a81548160ff021916908360ff1602179055507f61f61b56d5bcc4600c378fe030b373305197bedb3f0060ea99d03860a33c474b84848484604051610df1949392919061574e565b60405180910390a150505050565b6000610e13610e0c613a77565b8484613a7f565b6001905092915050565b600660003373ffffffffffffffffffffffffffffffffffffffff1673ffffffffffffffffffffffffffffffffffffffff16815260200190815260200160002060009054906101000a900460ff16610ea9576040517f08c379a0000000000000000000000000000000000000000000000000000000008152600401610ea090615b04565b60405180910390fd5b600073ffffffffffffffffffffffffffffffffffffffff1660078484604051610ed39291906155a4565b908152602001604051809103902060000160009054906101000a900473ffffffffffffffffffffffffffffffffffffffff1673ffffffffffffffffffffffffffffffffffffffff1614158015610f9757508073ffffffffffffffffffffffffffffffffffffffff1660078484604051610f4d9291906155a4565b908152602001604051809103902060000160009054906101000a900473ffffffffffffffffffffffffffffffffffffffff1673ffffffffffffffffffffffffffffffffffffffff16145b610fd6576040517f08c379a0000000000000000000000000000000000000000000000000000000008152600401610fcd90615904565b60405180910390fd5b600160078484604051610fea9291906155a4565b908152602001604051809103902060000160146101000a81548160ff0219169083151502179055507f55e4fcf1c7b4b1a6190089eb7ef1c1ff91d67d66917edf141d6223003929828a818484604051611045939291906156a1565b60405180910390a1505050565b60096020528060005260406000206000915090508060000160009054906101000a900473ffffffffffffffffffffffffffffffffffffffff1690806001015490806002018054600181600116156101000203166002900480601f01602080910402602001604051908101604052809291908181526020018280546001816001161561010002031660029004801561112a5780601f106110ff5761010080835404028352916020019161112a565b820191906000526020600020905b81548152906001019060200180831161110d57829003601f168201915b5050505050905083565b6000600254905090565b6007818051602081018201805184825260208301602085012081835280955050505050506000915090508060000160009054906101000a900473ffffffffffffffffffffffffffffffffffffffff16908060000160149054906101000a900460ff16905082565b60006111b2848484613c4a565b611273846111be613a77565b61126e85604051806060016040528060288152602001615e1d60289139600160008b73ffffffffffffffffffffffffffffffffffffffff1673ffffffffffffffffffffffffffffffffffffffff1681526020019081526020016000206000611224613a77565b73ffffffffffffffffffffffffffffffffffffffff1673ffffffffffffffffffffffffffffffffffffffff16815260200190815260200160002054613edf9092919063ffffffff16565b613a7f565b600190509392505050565b6000600560009054906101000a900460ff16905090565b600f8280516020810182018051848252602083016020850120818352809550505050505081815481106112c457fe5b90600052602060002001600091509150505481565b60006113826112e6613a77565b8461137d85600160006112f7613a77565b73ffffffffffffffffffffffffffffffffffffffff1673ffffffffffffffffffffffffffffffffffffffff16815260200190815260200160002060008973ffffffffffffffffffffffffffffffffffffffff1673ffffffffffffffffffffffffffffffffffffffff16815260200190815260200160002054613f3a90919063ffffffff16565b613a7f565b6001905092915050565b600e5481565b6060600c60003373ffffffffffffffffffffffffffffffffffffffff1673ffffffffffffffffffffffffffffffffffffffff16815260200190815260200160002080548060200260200160405190810160405280929190818152602001828054801561141d57602002820191906000526020600020905b815481526020019060010190808311611409575b5050505050905090565b6060600f838360405161143b9291906155a4565b908152602001604051809103902080548060200260200160405190810160405280929190818152602001828054801561149357602002820191906000526020600020905b81548152602001906001019080831161147f575b5050505050905092915050565b6060600b83836040516114b49291906155a4565b908152602001604051809103902080548060200260200160405190810160405280929190818152602001828054801561150c57602002820191906000526020600020905b8154815260200190600101908083116114f8575b5050505050905092915050565b3a618ca002341161155f576040517f08c379a0000000000000000000000000000000000000000000000000000000008152600401611556906159a4565b60405180910390fd5b6000600f85856040516115739291906155a4565b908152602001604051809103902080549050116115c5576040517f08c379a00000000000000000000000000000000000000000000000000000000081526004016115bc90615844565b60405180910390fd5b3373ffffffffffffffffffffffffffffffffffffffff166007600860003373ffffffffffffffffffffffffffffffffffffffff1673ffffffffffffffffffffffffffffffffffffffff16815260200190815260200160002060405161162a91906155d4565b908152602001604051809103902060000160009054906101000a900473ffffffffffffffffffffffffffffffffffffffff1673ffffffffffffffffffffffffffffffffffffffff16146116b2576040517f08c379a00000000000000000000000000000000000000000000000000000000081526004016116a990615aa4565b60405180910390fd5b6116ba611fc8565b73ffffffffffffffffffffffffffffffffffffffff166108fc349081150290604051600060405180830381858888f193505050501580156116ff573d6000803e3d6000fd5b507f657f014b97a2f4ed4787ac7ecba9f7abd8d4f3b110e461c700ab411f968cfe0784848484600860003373ffffffffffffffffffffffffffffffffffffffff1673ffffffffffffffffffffffffffffffffffffffff168152602001908152602001600020604051611775959493929190615789565b60405180910390a150505050565b600b8280516020810182018051848252602083016020850120818352809550505050505081815481106117b257fe5b90600052602060002001600091509150505481565b3373ffffffffffffffffffffffffffffffffffffffff166009600083815260200190815260200160002060000160009054906101000a900473ffffffffffffffffffffffffffffffffffffffff1673ffffffffffffffffffffffffffffffffffffffff161461186b576040517f08c379a000000000000000000000000000000000000000000000000000000000815260040161186290615944565b60405180910390fd5b3373ffffffffffffffffffffffffffffffffffffffff166108fc60096000848152602001908152602001600020600101549081150290604051600060405180830381858888f193505050501580156118c7573d6000803e3d6000fd5b5060096000828152602001908152602001600020600080820160006101000a81549073ffffffffffffffffffffffffffffffffffffffff0219169055600182016000905560028201600061191b9190614320565b505050565b600d6020528060005260406000206000915090508060000160009054906101000a900473ffffffffffffffffffffffffffffffffffffffff1690806001015490806002018054600181600116156101000203166002900480601f0160208091040260200160405190810160405280929190818152602001828054600181600116156101000203166002900480156119f85780601f106119cd576101008083540402835291602001916119f8565b820191906000526020600020905b8154815290600101906020018083116119db57829003601f168201915b5050505050905083565b6012818051602081018201805184825260208301602085012081835280955050505050506000915090505481565b60008060008373ffffffffffffffffffffffffffffffffffffffff1673ffffffffffffffffffffffffffffffffffffffff168152602001908152602001600020549050919050565b611a80613a77565b73ffffffffffffffffffffffffffffffffffffffff16600560019054906101000a900473ffffffffffffffffffffffffffffffffffffffff1673ffffffffffffffffffffffffffffffffffffffff1614611b0f576040517f08c379a0000000000000000000000000000000000000000000000000000000008152600401611b0690615a24565b60405180910390fd5b600073ffffffffffffffffffffffffffffffffffffffff16600560019054906101000a900473ffffffffffffffffffffffffffffffffffffffff1673ffffffffffffffffffffffffffffffffffffffff167f8be0079c531659141344cd1fd0a4f28419497f9722a3daafe3b4186f6b6457e060405160405180910390a36000600560016101000a81548173ffffffffffffffffffffffffffffffffffffffff021916908373ffffffffffffffffffffffffffffffffffffffff160217905550565b60106020528160005260406000208181548110611be957fe5b90600052602060002001600091509150505481565b611c06613a77565b73ffffffffffffffffffffffffffffffffffffffff16600560019054906101000a900473ffffffffffffffffffffffffffffffffffffffff1673ffffffffffffffffffffffffffffffffffffffff1614611c95576040517f08c379a0000000000000000000000000000000000000000000000000000000008152600401611c8c90615a24565b60405180910390fd5b600660008273ffffffffffffffffffffffffffffffffffffffff1673ffffffffffffffffffffffffffffffffffffffff16815260200190815260200160002060009054906101000a900460ff16611d21576040517f08c379a0000000000000000000000000000000000000000000000000000000008152600401611d1890615a84565b60405180910390fd5b611d29611fc8565b73ffffffffffffffffffffffffffffffffffffffff168173ffffffffffffffffffffffffffffffffffffffff161415611d97576040517f08c379a0000000000000000000000000000000000000000000000000000000008152600401611d8e90615964565b60405180910390fd5b6000600660008373ffffffffffffffffffffffffffffffffffffffff1673ffffffffffffffffffffffffffffffffffffffff16815260200190815260200160002060006101000a81548160ff02191690831515021790555050565b60008111611e35576040517f08c379a0000000000000000000000000000000000000000000000000000000008152600401611e2c906158a4565b60405180910390fd5b611e3f3382613f8f565b80601283604051611e5091906155bd565b9081526020016040518091039020600082825401925050819055505050565b3373ffffffffffffffffffffffffffffffffffffffff16600d600083815260200190815260200160002060000160009054906101000a900473ffffffffffffffffffffffffffffffffffffffff1673ffffffffffffffffffffffffffffffffffffffff1614611f13576040517f08c379a0000000000000000000000000000000000000000000000000000000008152600401611f0a90615944565b60405180910390fd5b3373ffffffffffffffffffffffffffffffffffffffff166108fc600d6000848152602001908152602001600020600101549081150290604051600060405180830381858888f19350505050158015611f6f573d6000803e3d6000fd5b50600d6000828152602001908152602001600020600080820160006101000a81549073ffffffffffffffffffffffffffffffffffffffff02191690556001820160009055600282016000611fc39190614320565b505050565b6000600560019054906101000a900473ffffffffffffffffffffffffffffffffffffffff16905090565b6011818051602081018201805184825260208301602085012081835280955050505050506000915090508054600181600116156101000203166002900480601f0160208091040260200160405190810160405280929190818152602001828054600181600116156101000203166002900480156120b05780601f10612085576101008083540402835291602001916120b0565b820191906000526020600020905b81548152906001019060200180831161209357829003601f168201915b505050505081565b606060048054600181600116156101000203166002900480601f0160208091040260200160405190810160405280929190818152602001828054600181600116156101000203166002900480156121505780601f1061212557610100808354040283529160200191612150565b820191906000526020600020905b81548152906001019060200180831161213357829003601f168201915b5050505050905090565b3373ffffffffffffffffffffffffffffffffffffffff166007600860003373ffffffffffffffffffffffffffffffffffffffff1673ffffffffffffffffffffffffffffffffffffffff1681526020019081526020016000206040516121bf91906155d4565b908152602001604051809103902060000160009054906101000a900473ffffffffffffffffffffffffffffffffffffffff1673ffffffffffffffffffffffffffffffffffffffff1614612247576040517f08c379a000000000000000000000000000000000000000000000000000000000815260040161223e90615aa4565b60405180910390fd5b600860003373ffffffffffffffffffffffffffffffffffffffff1673ffffffffffffffffffffffffffffffffffffffff168152602001908152602001600020604051612293919061558d565b6040518091039020601183836040516122ad9291906155a4565b90815260200160405180910390206040516122c8919061558d565b604051809103902014612310576040517f08c379a000000000000000000000000000000000000000000000000000000000815260040161230790615b24565b60405180910390fd5b60008090505b600f83836040516123289291906155a4565b9081526020016040518091039020805490508110156124bf576000600d6000600f86866040516123599291906155a4565b9081526020016040518091039020848154811061237257fe5b90600052602060002001548152602001908152602001600020600101541115612428573373ffffffffffffffffffffffffffffffffffffffff166108fc600d6000600f87876040516123c59291906155a4565b908152602001604051809103902085815481106123de57fe5b90600052602060002001548152602001908152602001600020600101549081150290604051600060405180830381858888f19350505050158015612426573d6000803e3d6000fd5b505b600d6000600f858560405161243e9291906155a4565b9081526020016040518091039020838154811061245757fe5b90600052602060002001548152602001908152602001600020600080820160006101000a81549073ffffffffffffffffffffffffffffffffffffffff021916905560018201600090556002820160006124b09190614320565b50508080600101915050612316565b50601182826040516124d29291906155a4565b908152602001604051809103902060006124ec9190614320565b5050565b60003411612533576040517f08c379a000000000000000000000000000000000000000000000000000000000815260040161252a90615b64565b60405180910390fd5b600a6000815480929190600101919050555060405180606001604052803373ffffffffffffffffffffffffffffffffffffffff16815260200134815260200183838080601f016020809104026020016040519081016040528093929190818152602001838380828437600081840152601f19601f8201169050808301925050505050505081525060096000600a54815260200190815260200160002060008201518160000160006101000a81548173ffffffffffffffffffffffffffffffffffffffff021916908373ffffffffffffffffffffffffffffffffffffffff16021790555060208201518160010155604082015181600201908051906020019061263c929190614368565b50905050600b82826040516126529291906155a4565b9081526020016040518091039020600a549080600181540180825580915050600190039060005260206000200160009091909190915055600c60003373ffffffffffffffffffffffffffffffffffffffff1673ffffffffffffffffffffffffffffffffffffffff168152602001908152602001600020600a5490806001815401808255809150506001900390600052602060002001600090919091909150557f406551011d3a3874d102c2ee25adb004adb6d90a8134f04c14bd02f73ad4a3d0333484846040516127269493929190615638565b60405180910390a15050565b60006127f561273f613a77565b846127f085604051806060016040528060258152602001615e456025913960016000612769613a77565b73ffffffffffffffffffffffffffffffffffffffff1673ffffffffffffffffffffffffffffffffffffffff16815260200190815260200160002060008a73ffffffffffffffffffffffffffffffffffffffff1673ffffffffffffffffffffffffffffffffffffffff16815260200190815260200160002054613edf9092919063ffffffff16565b613a7f565b6001905092915050565b600061281361280c613a77565b8484613c4a565b6001905092915050565b600660003373ffffffffffffffffffffffffffffffffffffffff1673ffffffffffffffffffffffffffffffffffffffff16815260200190815260200160002060009054906101000a900460ff166128a9576040517f08c379a00000000000000000000000000000000000000000000000000000000081526004016128a090615b04565b60405180910390fd5b6001601386866040516128bd9291906155a4565b908152602001604051809103902060009054906101000a900460ff1660ff161461291c576040517f08c379a000000000000000000000000000000000000000000000000000000000815260040161291390615884565b60405180910390fd5b600073ffffffffffffffffffffffffffffffffffffffff16600784846040516129469291906155a4565b908152602001604051809103902060000160009054906101000a900473ffffffffffffffffffffffffffffffffffffffff1673ffffffffffffffffffffffffffffffffffffffff1614156129cf576040517f08c379a00000000000000000000000000000000000000000000000000000000081526004016129c690615984565b60405180910390fd5b6002601386866040516129e39291906155a4565b908152602001604051809103902060006101000a81548160ff021916908360ff160217905550612a6560078484604051612a1e9291906155a4565b908152602001604051809103902060000160009054906101000a900473ffffffffffffffffffffffffffffffffffffffff16612a5861127e565b60ff16600a0a830261413d565b7fe0ca3b0d5f07049a3975315a95eadf935a046d8c67c4660d0f5fd3f5bf600a428585858585604051612a9c9594939291906157d9565b60405180910390a15050505050565b3373ffffffffffffffffffffffffffffffffffffffff166007600860003373ffffffffffffffffffffffffffffffffffffffff1673ffffffffffffffffffffffffffffffffffffffff168152602001908152602001600020604051612b1091906155d4565b908152602001604051809103902060000160009054906101000a900473ffffffffffffffffffffffffffffffffffffffff1673ffffffffffffffffffffffffffffffffffffffff1614612b98576040517f08c379a0000000000000000000000000000000000000000000000000000000008152600401612b8f90615b44565b60405180910390fd5b600860003373ffffffffffffffffffffffffffffffffffffffff1673ffffffffffffffffffffffffffffffffffffffff168152602001908152602001600020604051612be4919061558d565b604051809103902060096000838152602001908152602001600020600201604051612c0f919061558d565b604051809103902014612c57576040517f08c379a0000000000000000000000000000000000000000000000000000000008152600401612c4e906159c4565b60405180910390fd5b3373ffffffffffffffffffffffffffffffffffffffff166108fc60096000848152602001908152602001600020600101549081150290604051600060405180830381858888f19350505050158015612cb3573d6000803e3d6000fd5b5060096000828152602001908152602001600020600080820160006101000a81549073ffffffffffffffffffffffffffffffffffffffff02191690556001820160009055600282016000612d079190614320565b505050565b600c6020528160005260406000208181548110612d2557fe5b90600052602060002001600091509150505481565b6013818051602081018201805184825260208301602085012081835280955050505050506000915054906101000a900460ff1681565b60086020528060005260406000206000915090508054600181600116156101000203166002900480601f016020809104026020016040519081016040528092919081815260200182805460018160011615610100020316600290048015612e185780601f10612ded57610100808354040283529160200191612e18565b820191906000526020600020905b815481529060010190602001808311612dfb57829003601f168201915b505050505081565b600660003373ffffffffffffffffffffffffffffffffffffffff1673ffffffffffffffffffffffffffffffffffffffff16815260200190815260200160002060009054906101000a900460ff16612eac576040517f08c379a0000000000000000000000000000000000000000000000000000000008152600401612ea390615b04565b60405180910390fd5b6000600f8585604051612ec09291906155a4565b90815260200160405180910390208054905011612f12576040517f08c379a0000000000000000000000000000000000000000000000000000000008152600401612f0990615844565b60405180910390fd5b818160118686604051612f269291906155a4565b90815260200160405180910390209190612f419291906143e8565b507f8e4659e4d33c645b2bedcc914a0afbe44379f0e73b253214800b377237d9333b84848484604051612f77949392919061574e565b60405180910390a150505050565b6000600160008473ffffffffffffffffffffffffffffffffffffffff1673ffffffffffffffffffffffffffffffffffffffff16815260200190815260200160002060008373ffffffffffffffffffffffffffffffffffffffff1673ffffffffffffffffffffffffffffffffffffffff16815260200190815260200160002054905092915050565b6000341161304f576040517f08c379a000000000000000000000000000000000000000000000000000000000815260040161304690615b64565b60405180910390fd5b600073ffffffffffffffffffffffffffffffffffffffff16600783836040516130799291906155a4565b908152602001604051809103902060000160009054906101000a900473ffffffffffffffffffffffffffffffffffffffff1673ffffffffffffffffffffffffffffffffffffffff161415613102576040517f08c379a00000000000000000000000000000000000000000000000000000000081526004016130f990615984565b60405180910390fd5b60011515600783836040516131189291906155a4565b908152602001604051809103902060000160149054906101000a900460ff16151514613179576040517f08c379a000000000000000000000000000000000000000000000000000000000815260040161317090615a04565b60405180910390fd5b6007828260405161318b9291906155a4565b908152602001604051809103902060000160009054906101000a900473ffffffffffffffffffffffffffffffffffffffff1673ffffffffffffffffffffffffffffffffffffffff166108fc349081150290604051600060405180830381858888f19350505050158015613202573d6000803e3d6000fd5b505050565b3a6188b802341161324d576040517f08c379a0000000000000000000000000000000000000000000000000000000008152600401613244906159e4565b60405180910390fd5b600073ffffffffffffffffffffffffffffffffffffffff16600783836040516132779291906155a4565b908152602001604051809103902060000160009054906101000a900473ffffffffffffffffffffffffffffffffffffffff1673ffffffffffffffffffffffffffffffffffffffff16146133535760086000600784846040516132da9291906155a4565b908152602001604051809103902060000160009054906101000a900473ffffffffffffffffffffffffffffffffffffffff1673ffffffffffffffffffffffffffffffffffffffff1673ffffffffffffffffffffffffffffffffffffffff16815260200190815260200160002060006133529190614320565b5b60405180604001604052803373ffffffffffffffffffffffffffffffffffffffff16815260200160001515815250600783836040516133939291906155a4565b908152602001604051809103902060008201518160000160006101000a81548173ffffffffffffffffffffffffffffffffffffffff021916908373ffffffffffffffffffffffffffffffffffffffff16021790555060208201518160000160146101000a81548160ff0219169083151502179055509050508181600860003373ffffffffffffffffffffffffffffffffffffffff1673ffffffffffffffffffffffffffffffffffffffff16815260200190815260200160002091906134599291906143e8565b50613462611fc8565b73ffffffffffffffffffffffffffffffffffffffff166108fc349081150290604051600060405180830381858888f193505050501580156134a7573d6000803e3d6000fd5b507fd417e304669e6bf903f41a03f5ce981dac00416cf5034cd47d22fcb0c67c96bd3383836040516134db93929190615606565b60405180910390a15050565b6134ef613a77565b73ffffffffffffffffffffffffffffffffffffffff16600560019054906101000a900473ffffffffffffffffffffffffffffffffffffffff1673ffffffffffffffffffffffffffffffffffffffff161461357e576040517f08c379a000000000000000000000000000000000000000000000000000000000815260040161357590615a24565b60405180910390fd5b600073ffffffffffffffffffffffffffffffffffffffff168173ffffffffffffffffffffffffffffffffffffffff1614156135ee576040517f08c379a00000000000000000000000000000000000000000000000000000000081526004016135e5906158c4565b60405180910390fd5b8073ffffffffffffffffffffffffffffffffffffffff16600560019054906101000a900473ffffffffffffffffffffffffffffffffffffffff1673ffffffffffffffffffffffffffffffffffffffff167f8be0079c531659141344cd1fd0a4f28419497f9722a3daafe3b4186f6b6457e060405160405180910390a380600560016101000a81548173ffffffffffffffffffffffffffffffffffffffff021916908373ffffffffffffffffffffffffffffffffffffffff16021790555050565b600034116136f1576040517f08c379a00000000000000000000000000000000000000000000000000000000081526004016136e890615b64565b60405180910390fd5b600e6000815480929190600101919050555060405180606001604052803373ffffffffffffffffffffffffffffffffffffffff16815260200134815260200183838080601f016020809104026020016040519081016040528093929190818152602001838380828437600081840152601f19601f82011690508083019250505050505050815250600d6000600e54815260200190815260200160002060008201518160000160006101000a81548173ffffffffffffffffffffffffffffffffffffffff021916908373ffffffffffffffffffffffffffffffffffffffff1602179055506020820151816001015560408201518160020190805190602001906137fa929190614368565b50905050600f82826040516138109291906155a4565b9081526020016040518091039020600e549080600181540180825580915050600190039060005260206000200160009091909190915055601060003373ffffffffffffffffffffffffffffffffffffffff1673ffffffffffffffffffffffffffffffffffffffff168152602001908152602001600020600e5490806001815401808255809150506001900390600052602060002001600090919091909150557f08c7c4039b7c98d46cb4ebb0f96ca6a67a506db7c3ddd814f88dd3cfd24e2ae9333484846040516138e49493929190615638565b60405180910390a15050565b6138f8613a77565b73ffffffffffffffffffffffffffffffffffffffff16600560019054906101000a900473ffffffffffffffffffffffffffffffffffffffff1673ffffffffffffffffffffffffffffffffffffffff1614613987576040517f08c379a000000000000000000000000000000000000000000000000000000000815260040161397e90615a24565b60405180910390fd5b6001600660008373ffffffffffffffffffffffffffffffffffffffff1673ffffffffffffffffffffffffffffffffffffffff16815260200190815260200160002060006101000a81548160ff02191690831515021790555050565b6060601060003373ffffffffffffffffffffffffffffffffffffffff1673ffffffffffffffffffffffffffffffffffffffff168152602001908152602001600020805480602002602001604051908101604052809291908181526020018280548015613a6d57602002820191906000526020600020905b815481526020019060010190808311613a59575b5050505050905090565b600033905090565b600073ffffffffffffffffffffffffffffffffffffffff168373ffffffffffffffffffffffffffffffffffffffff161415613aef576040517f08c379a0000000000000000000000000000000000000000000000000000000008152600401613ae690615ac4565b60405180910390fd5b600073ffffffffffffffffffffffffffffffffffffffff168273ffffffffffffffffffffffffffffffffffffffff161415613b5f576040517f08c379a0000000000000000000000000000000000000000000000000000000008152600401613b56906158e4565b60405180910390fd5b80600160008573ffffffffffffffffffffffffffffffffffffffff1673ffffffffffffffffffffffffffffffffffffffff16815260200190815260200160002060008473ffffffffffffffffffffffffffffffffffffffff1673ffffffffffffffffffffffffffffffffffffffff168152602001908152602001600020819055508173ffffffffffffffffffffffffffffffffffffffff168373ffffffffffffffffffffffffffffffffffffffff167f8c5be1e5ebec7d5bd14f71427d1e84f3dd0314c0f7b2291e5b200ac8c7c3b92583604051613c3d9190615ba4565b60405180910390a3505050565b600073ffffffffffffffffffffffffffffffffffffffff168373ffffffffffffffffffffffffffffffffffffffff161415613cba576040517f08c379a0000000000000000000000000000000000000000000000000000000008152600401613cb190615a64565b60405180910390fd5b600073ffffffffffffffffffffffffffffffffffffffff168273ffffffffffffffffffffffffffffffffffffffff161415613d2a576040517f08c379a0000000000000000000000000000000000000000000000000000000008152600401613d2190615864565b60405180910390fd5b613d358383836142d1565b613da081604051806060016040528060268152602001615df7602691396000808773ffffffffffffffffffffffffffffffffffffffff1673ffffffffffffffffffffffffffffffffffffffff16815260200190815260200160002054613edf9092919063ffffffff16565b6000808573ffffffffffffffffffffffffffffffffffffffff1673ffffffffffffffffffffffffffffffffffffffff16815260200190815260200160002081905550613e33816000808573ffffffffffffffffffffffffffffffffffffffff1673ffffffffffffffffffffffffffffffffffffffff16815260200190815260200160002054613f3a90919063ffffffff16565b6000808473ffffffffffffffffffffffffffffffffffffffff1673ffffffffffffffffffffffffffffffffffffffff168152602001908152602001600020819055508173ffffffffffffffffffffffffffffffffffffffff168373ffffffffffffffffffffffffffffffffffffffff167fddf252ad1be2c89b69c2b068fc378daa952ba7f163c4a11628f55a4df523b3ef83604051613ed29190615ba4565b60405180910390a3505050565b6000838311158290613f27576040517f08c379a0000000000000000000000000000000000000000000000000000000008152600401613f1e9190615822565b60405180910390fd5b5060008385039050809150509392505050565b600080828401905083811015613f85576040517f08c379a0000000000000000000000000000000000000000000000000000000008152600401613f7c90615924565b60405180910390fd5b8091505092915050565b600073ffffffffffffffffffffffffffffffffffffffff168273ffffffffffffffffffffffffffffffffffffffff161415613fff576040517f08c379a0000000000000000000000000000000000000000000000000000000008152600401613ff690615a44565b60405180910390fd5b61400b826000836142d1565b61407681604051806060016040528060228152602001615dd5602291396000808673ffffffffffffffffffffffffffffffffffffffff1673ffffffffffffffffffffffffffffffffffffffff16815260200190815260200160002054613edf9092919063ffffffff16565b6000808473ffffffffffffffffffffffffffffffffffffffff1673ffffffffffffffffffffffffffffffffffffffff168152602001908152602001600020819055506140cd816002546142d690919063ffffffff16565b600281905550600073ffffffffffffffffffffffffffffffffffffffff168273ffffffffffffffffffffffffffffffffffffffff167fddf252ad1be2c89b69c2b068fc378daa952ba7f163c4a11628f55a4df523b3ef836040516141319190615ba4565b60405180910390a35050565b600073ffffffffffffffffffffffffffffffffffffffff168273ffffffffffffffffffffffffffffffffffffffff1614156141ad576040517f08c379a00000000000000000000000000000000000000000000000000000000081526004016141a490615b84565b60405180910390fd5b6141b9600083836142d1565b6141ce81600254613f3a90919063ffffffff16565b600281905550614225816000808573ffffffffffffffffffffffffffffffffffffffff1673ffffffffffffffffffffffffffffffffffffffff16815260200190815260200160002054613f3a90919063ffffffff16565b6000808473ffffffffffffffffffffffffffffffffffffffff1673ffffffffffffffffffffffffffffffffffffffff168152602001908152602001600020819055508173ffffffffffffffffffffffffffffffffffffffff16600073ffffffffffffffffffffffffffffffffffffffff167fddf252ad1be2c89b69c2b068fc378daa952ba7f163c4a11628f55a4df523b3ef836040516142c59190615ba4565b60405180910390a35050565b505050565b600061431883836040518060400160405280601e81526020017f536166654d6174683a207375627472616374696f6e206f766572666c6f770000815250613edf565b905092915050565b50805460018160011615610100020316600290046000825580601f106143465750614365565b601f0160209004906000526020600020908101906143649190614468565b5b50565b828054600181600116156101000203166002900490600052602060002090601f016020900481019282601f106143a957805160ff19168380011785556143d7565b828001600101855582156143d7579182015b828111156143d65782518255916020019190600101906143bb565b5b5090506143e49190614468565b5090565b828054600181600116156101000203166002900490600052602060002090601f016020900481019282601f1061442957803560ff1916838001178555614457565b82800160010185558215614457579182015b8281111561445657823582559160200191906001019061443b565b5b5090506144649190614468565b5090565b61448a91905b8082111561448657600081600090555060010161446e565b5090565b90565b60008135905061449c81615da6565b92915050565b60008083601f8401126144b457600080fd5b8235905067ffffffffffffffff8111156144cd57600080fd5b6020830191508360018202830111156144e557600080fd5b9250929050565b600082601f8301126144fd57600080fd5b813561451061450b82615c07565b615bda565b9150808252602083016020830185838301111561452c57600080fd5b614537838284615d53565b50505092915050565b60008135905061454f81615dbd565b92915050565b60006020828403121561456757600080fd5b60006145758482850161448d565b91505092915050565b6000806040838503121561459157600080fd5b600061459f8582860161448d565b92505060206145b08582860161448d565b9150509250929050565b6000806000606084860312156145cf57600080fd5b60006145dd8682870161448d565b93505060206145ee8682870161448d565b92505060406145ff86828701614540565b9150509250925092565b6000806040838503121561461c57600080fd5b600061462a8582860161448d565b925050602061463b85828601614540565b9150509250929050565b6000806020838503121561465857600080fd5b600083013567ffffffffffffffff81111561467257600080fd5b61467e858286016144a2565b92509250509250929050565b60008060006040848603121561469f57600080fd5b600084013567ffffffffffffffff8111156146b957600080fd5b6146c5868287016144a2565b935093505060206146d88682870161448d565b9150509250925092565b600080600080604085870312156146f857600080fd5b600085013567ffffffffffffffff81111561471257600080fd5b61471e878288016144a2565b9450945050602085013567ffffffffffffffff81111561473d57600080fd5b614749878288016144a2565b925092505092959194509250565b60008060008060006060868803121561476f57600080fd5b600086013567ffffffffffffffff81111561478957600080fd5b614795888289016144a2565b9550955050602086013567ffffffffffffffff8111156147b457600080fd5b6147c0888289016144a2565b935093505060406147d388828901614540565b9150509295509295909350565b6000602082840312156147f257600080fd5b600082013567ffffffffffffffff81111561480c57600080fd5b614818848285016144ec565b91505092915050565b6000806040838503121561483457600080fd5b600083013567ffffffffffffffff81111561484e57600080fd5b61485a858286016144ec565b925050602061486b85828601614540565b9150509250929050565b60006020828403121561488757600080fd5b600061489584828501614540565b91505092915050565b60006148aa8383615560565b60208301905092915050565b6148bf81615d1d565b82525050565b6148ce81615cc8565b82525050565b60006148df82615c6d565b6148e98185615c90565b93506148f483615c33565b8060005b8381101561492557815161490c888261489e565b975061491783615c83565b9250506001810190506148f8565b5085935050505092915050565b61493b81615cda565b82525050565b60008154600181166000811461495e5760018114614983576149c7565b607f600283041661496f8187615ca1565b955060ff19831686528086019350506149c7565b600282046149918187615ca1565b955061499c85615c43565b60005b828110156149be5781548189015260018201915060208101905061499f565b82880195505050505b505092915050565b60006149db8385615cac565b93506149e8838584615d53565b6149f183615d95565b840190509392505050565b6000614a088385615cbd565b9350614a15838584615d53565b82840190509392505050565b6000614a2c82615c78565b614a368185615cac565b9350614a46818560208601615d62565b614a4f81615d95565b840191505092915050565b6000614a6582615c78565b614a6f8185615cbd565b9350614a7f818560208601615d62565b80840191505092915050565b600081546001811660008114614aa85760018114614ace57614b12565b607f6002830416614ab98187615cac565b955060ff198316865260208601935050614b12565b60028204614adc8187615cac565b9550614ae785615c58565b60005b82811015614b0957815481890152600182019150602081019050614aea565b80880195505050505b505092915050565b600081546001811660008114614b375760018114614b5c57614ba0565b607f6002830416614b488187615cbd565b955060ff1983168652808601935050614ba0565b60028204614b6a8187615cbd565b9550614b7585615c58565b60005b82811015614b9757815481890152600182019150602081019050614b78565b82880195505050505b505092915050565b6000614bb5602183615cac565b91507f497373756520686173206e6f206465706f7369747320746f2072656c6561736560008301527f2e000000000000000000000000000000000000000000000000000000000000006020830152604082019050919050565b6000614c1b602383615cac565b91507f45524332303a207472616e7366657220746f20746865207a65726f206164647260008301527f65737300000000000000000000000000000000000000000000000000000000006020830152604082019050919050565b6000614c81601d83615cac565b91507f50756c6c207265717565737420616c726561647920636c61696d65642e0000006000830152602082019050919050565b6000614cc1601c83615cac565b91507f416d6f756e74206d7573742062652067726561746572207a65726f2e000000006000830152602082019050919050565b6000614d01602683615cac565b91507f4f776e61626c653a206e6577206f776e657220697320746865207a65726f206160008301527f64647265737300000000000000000000000000000000000000000000000000006020830152604082019050919050565b6000614d67602283615cac565b91507f45524332303a20617070726f766520746f20746865207a65726f20616464726560008301527f73730000000000000000000000000000000000000000000000000000000000006020830152604082019050919050565b6000614dcd602e83615cac565b91507f54686973206163636f756e7420636f6e6669726d6174696f6e20776173206e6560008301527f766572207265717565737465642e0000000000000000000000000000000000006020830152604082019050919050565b6000614e33601b83615cac565b91507f536166654d6174683a206164646974696f6e206f766572666c6f7700000000006000830152602082019050919050565b6000614e73603083615cac565b91507f4465706f73697420646964206e6f742063616d652066726f6d2074686973204560008301527f7468657265756d206163636f756e742e000000000000000000000000000000006020830152604082019050919050565b6000614ed9602083615cac565b91507f4f776e6572206f7261636c652063616e206e6f742062652072656d6f7665642e6000830152602082019050919050565b6000614f19602383615cac565b91507f54686973204769744875622055736572206973206e6f7420726567697374657260008301527f65642e00000000000000000000000000000000000000000000000000000000006020830152604082019050919050565b6000614f7f602683615cac565b91507f52656c656173652066656520286f7261636c6520636f737429206e6f7420636f60008301527f76657265642e00000000000000000000000000000000000000000000000000006020830152604082019050919050565b6000614fe5602783615cac565b91507f4465706f736974206973206e6f7420666f72207468697320476974487562206160008301527f63636f756e742e000000000000000000000000000000000000000000000000006020830152604082019050919050565b600061504b602b83615cac565b91507f526567697374726174696f6e2066656520286f7261636c6520636f737429206e60008301527f6f7420636f76657265642e0000000000000000000000000000000000000000006020830152604082019050919050565b60006150b1602683615cac565b91507f54686973204769744875622055736572206973206e6f7420636f6e6669726d6560008301527f64207965742e00000000000000000000000000000000000000000000000000006020830152604082019050919050565b6000615117602083615cac565b91507f4f776e61626c653a2063616c6c6572206973206e6f7420746865206f776e65726000830152602082019050919050565b6000615157602183615cac565b91507f45524332303a206275726e2066726f6d20746865207a65726f2061646472657360008301527f73000000000000000000000000000000000000000000000000000000000000006020830152604082019050919050565b60006151bd602583615cac565b91507f45524332303a207472616e736665722066726f6d20746865207a65726f20616460008301527f64726573730000000000000000000000000000000000000000000000000000006020830152604082019050919050565b6000615223601783615cac565b91507f4f7261636c6520646f6573206e6f74206578697374732e0000000000000000006000830152602082019050919050565b6000615263603883615cac565b91507f4e6f20476974487562206163636f756e7420726567697374657265642077697460008301527f68207468697320457468657265756d206163636f756e742e00000000000000006020830152604082019050919050565b60006152c9602483615cac565b91507f45524332303a20617070726f76652066726f6d20746865207a65726f2061646460008301527f72657373000000000000000000000000000000000000000000000000000000006020830152604082019050919050565b600061532f602483615cac565b91507f436c61696d2066656520286f7261636c6520636f737429206e6f7420636f766560008301527f7265642e000000000000000000000000000000000000000000000000000000006020830152604082019050919050565b6000615395602483615cac565b91507f4f6e6c79206f7261636c65732063616e20636f6e6669726d206f70657261746960008301527f6f6e732e000000000000000000000000000000000000000000000000000000006020830152604082019050919050565b60006153fb605783615cac565b91507f54686520476974487562206163636f756e74207468697320697373756520776160008301527f732072656c656173656420746f20646f6573206e6f742062656c6f6e6720746f60208301527f207468697320457468657265756d206163636f756e742e0000000000000000006040830152606082019050919050565b6000615487603983615cac565b91507f476974487562206163636f756e74206e6f74207265676973746572656420776960008301527f7468207468697320457468657265756d206163636f756e742e000000000000006020830152604082019050919050565b60006154ed601283615cac565b91507f596f75206d7573742073656e64204554482e00000000000000000000000000006000830152602082019050919050565b600061552d601f83615cac565b91507f45524332303a206d696e7420746f20746865207a65726f2061646472657373006000830152602082019050919050565b61556981615d06565b82525050565b61557881615d06565b82525050565b61558781615d10565b82525050565b60006155998284614941565b915081905092915050565b60006155b18284866149fc565b91508190509392505050565b60006155c98284614a5a565b915081905092915050565b60006155e08284614b1a565b915081905092915050565b600060208201905061560060008301846148c5565b92915050565b600060408201905061561b60008301866148b6565b818103602083015261562e8184866149cf565b9050949350505050565b600060608201905061564d60008301876148b6565b61565a602083018661556f565b818103604083015261566d8184866149cf565b905095945050505050565b600060408201905061568d60008301856148c5565b61569a6020830184614932565b9392505050565b60006040820190506156b660008301866148c5565b81810360208301526156c98184866149cf565b9050949350505050565b60006060820190506156e860008301866148c5565b6156f5602083018561556f565b81810360408301526157078184614a21565b9050949350505050565b6000602082019050818103600083015261572b81846148d4565b905092915050565b60006020820190506157486000830184614932565b92915050565b600060408201905081810360008301526157698186886149cf565b9050818103602083015261577e8184866149cf565b905095945050505050565b600060608201905081810360008301526157a48187896149cf565b905081810360208301526157b98185876149cf565b905081810360408301526157cd8184614a8b565b90509695505050505050565b600060608201905081810360008301526157f48187896149cf565b905081810360208301526158098185876149cf565b9050615818604083018461556f565b9695505050505050565b6000602082019050818103600083015261583c8184614a21565b905092915050565b6000602082019050818103600083015261585d81614ba8565b9050919050565b6000602082019050818103600083015261587d81614c0e565b9050919050565b6000602082019050818103600083015261589d81614c74565b9050919050565b600060208201905081810360008301526158bd81614cb4565b9050919050565b600060208201905081810360008301526158dd81614cf4565b9050919050565b600060208201905081810360008301526158fd81614d5a565b9050919050565b6000602082019050818103600083015261591d81614dc0565b9050919050565b6000602082019050818103600083015261593d81614e26565b9050919050565b6000602082019050818103600083015261595d81614e66565b9050919050565b6000602082019050818103600083015261597d81614ecc565b9050919050565b6000602082019050818103600083015261599d81614f0c565b9050919050565b600060208201905081810360008301526159bd81614f72565b9050919050565b600060208201905081810360008301526159dd81614fd8565b9050919050565b600060208201905081810360008301526159fd8161503e565b9050919050565b60006020820190508181036000830152615a1d816150a4565b9050919050565b60006020820190508181036000830152615a3d8161510a565b9050919050565b60006020820190508181036000830152615a5d8161514a565b9050919050565b60006020820190508181036000830152615a7d816151b0565b9050919050565b60006020820190508181036000830152615a9d81615216565b9050919050565b60006020820190508181036000830152615abd81615256565b9050919050565b60006020820190508181036000830152615add816152bc565b9050919050565b60006020820190508181036000830152615afd81615322565b9050919050565b60006020820190508181036000830152615b1d81615388565b9050919050565b60006020820190508181036000830152615b3d816153ee565b9050919050565b60006020820190508181036000830152615b5d8161547a565b9050919050565b60006020820190508181036000830152615b7d816154e0565b9050919050565b60006020820190508181036000830152615b9d81615520565b9050919050565b6000602082019050615bb9600083018461556f565b92915050565b6000602082019050615bd4600083018461557e565b92915050565b6000604051905081810181811067ffffffffffffffff82111715615bfd57600080fd5b8060405250919050565b600067ffffffffffffffff821115615c1e57600080fd5b601f19601f8301169050602081019050919050565b6000819050602082019050919050565b60008190508160005260206000209050919050565b60008190508160005260206000209050919050565b600081519050919050565b600081519050919050565b6000602082019050919050565b600082825260208201905092915050565b600081905092915050565b600082825260208201905092915050565b600081905092915050565b6000615cd382615ce6565b9050919050565b60008115159050919050565b600073ffffffffffffffffffffffffffffffffffffffff82169050919050565b6000819050919050565b600060ff82169050919050565b6000615d2882615d2f565b9050919050565b6000615d3a82615d41565b9050919050565b6000615d4c82615ce6565b9050919050565b82818337600083830152505050565b60005b83811015615d80578082015181840152602081019050615d65565b83811115615d8f576000848401525b50505050565b6000601f19601f8301169050919050565b615daf81615cc8565b8114615dba57600080fd5b50565b615dc681615d06565b8114615dd157600080fd5b5056fe45524332303a206275726e20616d6f756e7420657863656564732062616c616e636545524332303a207472616e7366657220616d6f756e7420657863656564732062616c616e636545524332303a207472616e7366657220616d6f756e74206578636565647320616c6c6f77616e636545524332303a2064656372656173656420616c6c6f77616e63652062656c6f77207a65726fa264697066735822122046bc9d22d150a46701c7babd5aadf8a313bc6ee5f9abe62a11920ae0e34f35cf64736f6c63430006060033",
  "immutableReferences": {},
  "source": "// SPDX-License-Identifier: MIT\npragma solidity ^0.6.0;\npragma experimental ABIEncoderV2;\n\nimport \"@openzeppelin/contracts/token/ERC20/ERC20.sol\";\nimport \"@openzeppelin/contracts/access/Ownable.sol\";\n\ncontract OctoBay is ERC20, Ownable {\n  struct User {\n    address account;\n    bool confirmed;\n  }\n\n  struct UserDeposit {\n    address from;\n    uint256 amount;\n    string githubUser;\n  }\n\n  struct IssueDeposit {\n    address from;\n    uint256 amount;\n    string issueId;\n  }\n\n  event RegistrationRequestEvent(address account, string githubUser);\n  event RegistrationConfirmedEvent(address account, string githubUser);\n  event ClaimPrRequestEvent(string prId, string githubUser);\n  event ClaimPrConfirmEvent(string prId, string githubUser, uint256 score);\n  event UserDepositEvent(address account, uint256 amount, string githubUser);\n  event IssueDepositEvent(address account, uint256 amount, string issueId);\n  event ReleaseIssueDepositsRequestEvent(string issueId, string githubUser, string owner);\n  event ReleaseIssueDepositsConfirmEvent(string issueId, string githubUser);\n\n  mapping(address => bool) private _oracles;\n\n  mapping(string => User) public _users;\n  mapping(address => string) public _usersByAddress;\n\n  mapping(uint256 => UserDeposit) public _userDeposits;\n  uint256 private _nextUserDepositId = 0;\n  mapping(string => uint256[]) public _userDepositIdsByGithubUser;\n  mapping(address => uint256[]) public _userDepositIdsBySender;\n\n  mapping(uint256 => IssueDeposit) public _issueDeposits;\n  uint256 public _nextIssueDepositId = 0;\n  mapping(string => uint256[]) public _issueDepositIdsByIssueId;\n  mapping(address => uint256[]) public _issueDepositIdsBySender;\n\n  mapping(string => string) public _releasedIssues;\n\n  mapping(string => uint256) public _issueBoosts;\n  mapping(string => uint8) public _claimedPullRequests;\n\n  modifier onlyOracles {\n    require(_oracles[msg.sender], \"Only oracles can confirm operations.\");\n    _;\n  }\n\n  constructor() ERC20(\"OctoPin\", \"OPIN\") public {\n    _oracles[owner()] = true;\n  }\n\n  /// @param oracle The oracle address to add\n  function enableOracle(address oracle) external onlyOwner {\n    _oracles[oracle] = true;\n  }\n\n  /// @param oracle The oracle address to remove (cannot be owner)\n  function disableOracle(address oracle) external onlyOwner {\n    require(_oracles[oracle], \"Oracle does not exists.\");\n    require(oracle != owner(), \"Owner oracle can not be removed.\");\n    _oracles[oracle] = false;\n  }\n\n  /// @dev Verify ownership over GitHub account by checking for a repositry of\n  /// @dev githubUser named after msg.sender. Adds user as unconfirmed and sends\n  /// @dev an oracle request, that will be fullfilled in registerConfirm.\n  /// @param githubUser The GitHub username to register\n  function register(string calldata githubUser) external payable {\n    require(msg.value > 35000 * tx.gasprice, \"Registration fee (oracle cost) not covered.\");\n    if (_users[githubUser].account != address(0)) {\n      delete _usersByAddress[_users[githubUser].account];\n    }\n    _users[githubUser] = User(msg.sender, false);\n    _usersByAddress[msg.sender] = githubUser;\n\n    payable(owner()).transfer(msg.value);\n\n    emit RegistrationRequestEvent(msg.sender, githubUser);\n  }\n\n  /// @dev Oracle fullfill method. Sets unconfirmed user to confirmed if repo exists.\n  /// @param githubUser The githubUser to confirm\n  /// @param account The Eth account to confirm\n  function registerConfirm(string calldata githubUser, address account) external onlyOracles {\n    require(\n      _users[githubUser].account != address(0) && _users[githubUser].account == account,\n      \"This account confirmation was never requested.\"\n    );\n    _users[githubUser].confirmed = true;\n    emit RegistrationConfirmedEvent(account, githubUser);\n  }\n\n  /// @dev Send ETH to a registered githubUser.\n  /// @param githubUser The receiving githubUser.\n  function sendEthToGithubUser(string calldata githubUser) external payable {\n    require(msg.value > 0, \"You must send ETH.\");\n    require(_users[githubUser].account != address(0), \"This GitHub User is not registered.\");\n    require(_users[githubUser].confirmed == true, \"This GitHub User is not confirmed yet.\");\n    payable(_users[githubUser].account).transfer(msg.value);\n  }\n\n  /// @dev Deposit ETH to a registered githubUser.\n  /// @param githubUser The receiving githubUser.\n  function depositEthForGithubUser(string calldata githubUser) external payable {\n    require(msg.value > 0, \"You must send ETH.\");\n    _nextUserDepositId++;\n    _userDeposits[_nextUserDepositId] = UserDeposit(msg.sender, msg.value, githubUser);\n    _userDepositIdsByGithubUser[githubUser].push(_nextUserDepositId);\n    _userDepositIdsBySender[msg.sender].push(_nextUserDepositId);\n    emit UserDepositEvent(msg.sender, msg.value, githubUser);\n  }\n\n  function withdrawUserDeposit(uint256 depositId) external {\n    require(_users[_usersByAddress[msg.sender]].account == msg.sender, \"GitHub account not registered with this Ethereum account.\");\n    require(keccak256(bytes(_userDeposits[depositId].githubUser)) == keccak256(bytes(_usersByAddress[msg.sender])), \"Deposit is not for this GitHub account.\");\n    payable(msg.sender).transfer(_userDeposits[depositId].amount);\n    delete _userDeposits[depositId];\n  }\n\n  function refundUserDeposit(uint256 depositId) external {\n    require(_userDeposits[depositId].from == msg.sender, \"Deposit did not came from this Ethereum account.\");\n    payable(msg.sender).transfer(_userDeposits[depositId].amount);\n    delete _userDeposits[depositId];\n  }\n\n  function getUserDepositIdsForGithubUser(string calldata githubUser) external view returns(uint256[] memory) {\n    return _userDepositIdsByGithubUser[githubUser];\n  }\n\n  function getUserDepositIdsForSender() external view returns(uint256[] memory) {\n    return _userDepositIdsBySender[msg.sender];\n  }\n\n  /// @dev Deposit ETH to a github issue.\n  /// @param issueId The receiving github issue.\n  function depositEthForIssue(string calldata issueId) external payable {\n    require(msg.value > 0, \"You must send ETH.\");\n    _nextIssueDepositId++;\n    _issueDeposits[_nextIssueDepositId] = IssueDeposit(msg.sender, msg.value, issueId);\n    _issueDepositIdsByIssueId[issueId].push(_nextIssueDepositId);\n    _issueDepositIdsBySender[msg.sender].push(_nextIssueDepositId);\n    emit IssueDepositEvent(msg.sender, msg.value, issueId);\n  }\n\n  function refundIssueDeposit(uint256 depositId) external {\n    require(_issueDeposits[depositId].from == msg.sender, \"Deposit did not came from this Ethereum account.\");\n    payable(msg.sender).transfer(_issueDeposits[depositId].amount);\n    delete _issueDeposits[depositId];\n  }\n\n  function getIssueDepositIdsForIssueId(string calldata issueId) external view returns(uint256[] memory) {\n    return _issueDepositIdsByIssueId[issueId];\n  }\n\n  function getIssueDepositIdsForSender() external view returns(uint256[] memory) {\n    return _issueDepositIdsBySender[msg.sender];\n  }\n\n  function pinIssue(string memory issueId, uint256 amount) public {\n    require(amount > 0, \"Amount must be greater zero.\");\n    _burn(msg.sender, amount);\n    _issueBoosts[issueId] += amount;\n  }\n\n  function claimPullRequest(string calldata prId, string calldata githubUser) external payable {\n    require(msg.value > 68000 * tx.gasprice, \"Claim fee (oracle cost) not covered.\");\n    require(_claimedPullRequests[prId] == 0, \"Pull request already claimed.\");\n    require(_users[githubUser].account != address(0), \"This GitHub User is not registered.\");\n    payable(owner()).transfer(msg.value);\n    _claimedPullRequests[prId] = 1;\n    emit ClaimPrRequestEvent(prId, githubUser);\n  }\n\n  function confirmClaimPullRequest(string calldata prId, string calldata githubUser, uint256 score) external onlyOracles {\n    require(_claimedPullRequests[prId] == 1, \"Pull request already claimed.\");\n    require(_users[githubUser].account != address(0), \"This GitHub User is not registered.\");\n    _claimedPullRequests[prId] = 2;\n    _mint(_users[githubUser].account, score * uint256(10) ** decimals());\n    emit ClaimPrConfirmEvent(prId, githubUser, score);\n  }\n\n  function releaseIssueDeposits(string calldata issueId, string calldata githubUser) external payable {\n    require(msg.value > 36000 * tx.gasprice, \"Release fee (oracle cost) not covered.\");\n    require(_issueDepositIdsByIssueId[issueId].length > 0, \"Issue has no deposits to release.\");\n    require(_users[_usersByAddress[msg.sender]].account == msg.sender, \"No GitHub account registered with this Ethereum account.\");\n    payable(owner()).transfer(msg.value);\n    emit ReleaseIssueDepositsRequestEvent(issueId, githubUser, _usersByAddress[msg.sender]);\n  }\n\n  function confirmReleaseIssueDeposits(string calldata issueId, string calldata githubUser) external onlyOracles {\n    require(_issueDepositIdsByIssueId[issueId].length > 0, \"Issue has no deposits to release.\");\n    _releasedIssues[issueId] = githubUser;\n    emit ReleaseIssueDepositsConfirmEvent(issueId, githubUser);\n  }\n\n  function claimReleasedIssueDeposits(string calldata issueId) external {\n    require(_users[_usersByAddress[msg.sender]].account == msg.sender, \"No GitHub account registered with this Ethereum account.\");\n    require(keccak256(bytes(_releasedIssues[issueId])) == keccak256(bytes(_usersByAddress[msg.sender])), \"The GitHub account this issue was released to does not belong to this Ethereum account.\");\n\n    for (uint256 i = 0; i < _issueDepositIdsByIssueId[issueId].length; i++) {\n      if (_issueDeposits[_issueDepositIdsByIssueId[issueId][i]].amount > 0) {\n        payable(msg.sender).transfer(_issueDeposits[_issueDepositIdsByIssueId[issueId][i]].amount);\n      }\n      delete _issueDeposits[_issueDepositIdsByIssueId[issueId][i]];\n    }\n    delete _releasedIssues[issueId];\n  }\n}\n",
  "sourcePath": "/home/mkt/Projects/octobay-contracts/contracts/OctoBay.sol",
  "compiler": {
    "name": "solc",
    "version": "0.6.6+commit.6c089d02.Emscripten.clang"
  },
  "schemaVersion": "3.2.5",
  "updatedAt": "2020-12-05T15:10:14.026Z",
  "networkType": "ethereum",
  "devdoc": {
    "methods": {
      "allowance(address,address)": {
        "details": "See {IERC20-allowance}."
      },
      "approve(address,uint256)": {
        "details": "See {IERC20-approve}.     * Requirements:     * - `spender` cannot be the zero address."
      },
      "balanceOf(address)": {
        "details": "See {IERC20-balanceOf}."
      },
      "decimals()": {
        "details": "Returns the number of decimals used to get its user representation. For example, if `decimals` equals `2`, a balance of `505` tokens should be displayed to a user as `5,05` (`505 / 10 ** 2`).     * Tokens usually opt for a value of 18, imitating the relationship between Ether and Wei. This is the value {ERC20} uses, unless {_setupDecimals} is called.     * NOTE: This information is only used for _display_ purposes: it in no way affects any of the arithmetic of the contract, including {IERC20-balanceOf} and {IERC20-transfer}."
      },
      "decreaseAllowance(address,uint256)": {
        "details": "Atomically decreases the allowance granted to `spender` by the caller.     * This is an alternative to {approve} that can be used as a mitigation for problems described in {IERC20-approve}.     * Emits an {Approval} event indicating the updated allowance.     * Requirements:     * - `spender` cannot be the zero address. - `spender` must have allowance for the caller of at least `subtractedValue`."
      },
      "depositEthForGithubUser(string)": {
        "details": "Deposit ETH to a registered githubUser.",
        "params": {
          "githubUser": "The receiving githubUser."
        }
      },
      "depositEthForIssue(string)": {
        "details": "Deposit ETH to a github issue.",
        "params": {
          "issueId": "The receiving github issue."
        }
      },
      "disableOracle(address)": {
        "params": {
          "oracle": "The oracle address to remove (cannot be owner)"
        }
      },
      "enableOracle(address)": {
        "params": {
          "oracle": "The oracle address to add"
        }
      },
      "increaseAllowance(address,uint256)": {
        "details": "Atomically increases the allowance granted to `spender` by the caller.     * This is an alternative to {approve} that can be used as a mitigation for problems described in {IERC20-approve}.     * Emits an {Approval} event indicating the updated allowance.     * Requirements:     * - `spender` cannot be the zero address."
      },
      "name()": {
        "details": "Returns the name of the token."
      },
      "owner()": {
        "details": "Returns the address of the current owner."
      },
      "register(string)": {
        "details": "Verify ownership over GitHub account by checking for a repositry ofgithubUser named after msg.sender. Adds user as unconfirmed and sendsan oracle request, that will be fullfilled in registerConfirm.",
        "params": {
          "githubUser": "The GitHub username to register"
        }
      },
      "registerConfirm(string,address)": {
        "details": "Oracle fullfill method. Sets unconfirmed user to confirmed if repo exists.",
        "params": {
          "account": "The Eth account to confirm",
          "githubUser": "The githubUser to confirm"
        }
      },
      "renounceOwnership()": {
        "details": "Leaves the contract without owner. It will not be possible to call `onlyOwner` functions anymore. Can only be called by the current owner.     * NOTE: Renouncing ownership will leave the contract without an owner, thereby removing any functionality that is only available to the owner."
      },
      "sendEthToGithubUser(string)": {
        "details": "Send ETH to a registered githubUser.",
        "params": {
          "githubUser": "The receiving githubUser."
        }
      },
      "symbol()": {
        "details": "Returns the symbol of the token, usually a shorter version of the name."
      },
      "totalSupply()": {
        "details": "See {IERC20-totalSupply}."
      },
      "transfer(address,uint256)": {
        "details": "See {IERC20-transfer}.     * Requirements:     * - `recipient` cannot be the zero address. - the caller must have a balance of at least `amount`."
      },
      "transferFrom(address,address,uint256)": {
        "details": "See {IERC20-transferFrom}.     * Emits an {Approval} event indicating the updated allowance. This is not required by the EIP. See the note at the beginning of {ERC20};     * Requirements: - `sender` and `recipient` cannot be the zero address. - `sender` must have a balance of at least `amount`. - the caller must have allowance for ``sender``'s tokens of at least `amount`."
      },
      "transferOwnership(address)": {
        "details": "Transfers ownership of the contract to a new account (`newOwner`). Can only be called by the current owner."
      }
    }
  },
  "userdoc": {
    "methods": {}
  }
}