{
	"data": {
		"bytecode": {
			"linkReferences": {},
			"object": "6001600590815560c06040526080819052640322e302e360dc1b60a09081526200002d91600891906200026c565b506000600e5560006013553480156200004557600080fd5b5060405162003e6b38038062003e6b83398101604081905262000068916200034b565b6000620000746200014c565b600080546001600160a01b0319166001600160a01b0383169081178255604051929350917f8be0079c531659141344cd1fd0a4f28419497f9722a3daafe3b4186f6b6457e0908290a3506001600160a01b038416620000dd57620000d762000169565b620000e8565b620000e884620001fe565b601d80546001600160a01b039586166001600160a01b031991821617909155601c805494861694821694909417909355600780549185169184169190911790556009805491909316911617905567016345785d8a00006020819055602155620003ab565b6000620001636200022060201b6200246e1760201c565b90505b90565b620001fc73c89bd4e1632d3a43cb03aaad5262cbe4038bc5716001600160a01b03166338cc48316040518163ffffffff1660e01b815260040160206040518083038186803b158015620001bb57600080fd5b505afa158015620001d0573d6000803e3d6000fd5b505050506040513d601f19601f82011682018060405250810190620001f6919062000326565b620001fe565b565b600380546001600160a01b0319166001600160a01b0392909216919091179055565b6000601836108015906200023a57506200023a3362000258565b1562000250575060131936013560601c62000166565b503362000166565b6007546001600160a01b0390811691161490565b828054600181600116156101000203166002900490600052602060002090601f016020900481019282601f10620002af57805160ff1916838001178555620002df565b82800160010185558215620002df579182015b82811115620002df578251825591602001919060010190620002c2565b50620002ed929150620002f1565b5090565b5b80821115620002ed5760008155600101620002f2565b80516001600160a01b03811681146200032057600080fd5b92915050565b60006020828403121562000338578081fd5b62000344838362000308565b9392505050565b6000806000806080858703121562000361578283fd5b6200036d868662000308565b93506200037e866020870162000308565b92506200038f866040870162000308565b9150620003a0866060870162000308565b905092959194509250565b613ab080620003bb6000396000f3fe60806040526004361061025c5760003560e01c806364422b8611610144578063c315fbca116100b6578063f16b41f41161007a578063f16b41f414610736578063f2fde38b14610756578063f4b90ef714610776578063f63e8c7014610789578063f9c8d78f1461079e578063fb95354a146107be5761025c565b8063c315fbca14610678578063cea6ab9814610698578063cf5f5f46146106c7578063d224784d146106e7578063f0e31cf9146107165761025c565b80638617fc46116101085780638617fc46146105d05780638da5cb5b146105f05780639947918c146106055780639996f186146106255780639c900e3314610638578063af5b5f5c146106585761025c565b806364422b86146105395780636470175014610559578063715018a614610579578063746c97b91461058e5780637da0a877146105ae5761025c565b80634c1b100a116101dd57806354d16f67116101a157806354d16f671461046c578063552541881461048c578063572b6c05146104ac57806357bd9a97146104d957806360445fb2146104f957806361e421d5146105195761025c565b80634c1b100a146103bd57806350aea559146103ec57806353a61ff91461040c578063541b6c9f1461042c578063546075da1461044c5761025c565b80632a97fa77116102245780632a97fa77146103175780633653f086146103395780633be784bc14610359578063454d055414610379578063486ff0cd1461039b5761025c565b806304405fa9146102615780630f8b8afa14610297578063113d4134146102b757806317c486f1146102d75780631d2f5e83146102f7575b600080fd5b34801561026d57600080fd5b5061028161027c366004613063565b6107d3565b60405161028e9190613392565b60405180910390f35b3480156102a357600080fd5b506102816102b2366004613030565b610810565b3480156102c357600080fd5b506102816102d2366004613030565b61082d565b3480156102e357600080fd5b506102816102f2366004613030565b610856565b34801561030357600080fd5b50610281610312366004613030565b610873565b34801561032357600080fd5b50610337610332366004612e53565b610890565b005b34801561034557600080fd5b50610337610354366004612ec4565b6108f0565b34801561036557600080fd5b50610337610374366004612f8a565b610a88565b34801561038557600080fd5b5061038e610be6565b60405161028e9190613343565b3480156103a757600080fd5b506103b0610c48565b60405161028e919061339b565b3480156103c957600080fd5b506103dd6103d8366004612f8a565b610cd6565b60405161028e939291906133e4565b3480156103f857600080fd5b5061038e610407366004612fc3565b610e1b565b34801561041857600080fd5b5061038e610427366004612fc3565b610e8f565b34801561043857600080fd5b506103dd610447366004612f8a565b610ea3565b34801561045857600080fd5b50610337610467366004613063565b610f0f565b34801561047857600080fd5b50610281610487366004612e53565b610f90565b34801561049857600080fd5b506103376104a7366004612e53565b610fa2565b3480156104b857600080fd5b506104cc6104c7366004612e53565b610ff9565b60405161028e9190613387565b3480156104e557600080fd5b506103376104f4366004612f8a565b61100d565b34801561050557600080fd5b50610337610514366004612f8a565b611173565b34801561052557600080fd5b50610281610534366004612f40565b6111b6565b34801561054557600080fd5b50610337610554366004612e6e565b6111cf565b34801561056557600080fd5b50610281610574366004612f40565b611304565b34801561058557600080fd5b5061033761131d565b34801561059a57600080fd5b506102816105a9366004613063565b61139c565b3480156105ba57600080fd5b506105c36113c4565b60405161028e919061323f565b3480156105dc57600080fd5b506103376105eb366004612f8a565b6113d3565b3480156105fc57600080fd5b506105c3611515565b34801561061157600080fd5b50610337610620366004612fc3565b611524565b610337610633366004612fc3565b611724565b34801561064457600080fd5b50610281610653366004613030565b611a9f565b34801561066457600080fd5b50610337610673366004612ec4565b611abc565b34801561068457600080fd5b50610337610693366004612f8a565b611c65565b3480156106a457600080fd5b506106b86106b3366004612f8a565b611d21565b60405161028e939291906133ae565b3480156106d357600080fd5b506102816106e2366004613030565b611dde565b3480156106f357600080fd5b50610707610702366004612f8a565b611dfb565b60405161028e9392919061331c565b34801561072257600080fd5b50610337610731366004612fa2565b611eb1565b34801561074257600080fd5b50610707610751366004612f8a565b61212f565b34801561076257600080fd5b50610337610771366004612e53565b6121b0565b610337610784366004612fc3565b612266565b34801561079557600080fd5b506102816123ec565b3480156107aa57600080fd5b506102816107b9366004613030565b6123f2565b3480156107ca57600080fd5b5061038e61240f565b815160208184018101805160148252928201918501919091209190528054829081106107fb57fe5b90600052602060002001600091509150505481565b8051602081830181018051600d8252928201919093012091525481565b6000600d8260405161083f9190613223565b90815260200160405180910390205490505b919050565b805160208183018101805160168252928201919093012091525481565b8051602081830181018051600c8252928201919093012091525481565b6108986124a0565b6000546001600160a01b039081169116146108ce5760405162461bcd60e51b81526004016108c590613792565b60405180910390fd5b601f80546001600160a01b0319166001600160a01b0392909216919091179055565b60006016836040516109029190613223565b9081526020016040518091039020541161092e5760405162461bcd60e51b81526004016108c59061348f565b336000818152600b60209081526040808320548352600a9091529020600101546001600160a01b0316146109745760405162461bcd60e51b81526004016108c5906136b0565b61097c612c4e565b61098e84306357bd9a9760e01b6124af565b60408051808201909152600a81526933b4ba343ab12ab9b2b960b11b60208201529091506109be908290846124d4565b6040805180820190915260078152661a5cdcdd59525960ca1b60208201526109e8908290856124d4565b60006109f786836020546124f2565b604080516060810182528581526020808201889052600182840152600084815260178252929092208151805194955091939092610a38928492910190612c83565b506020828101518051610a519260018501920190612c83565b506040820151816002015590505080601885604051610a709190613223565b90815260405190819003602001902055505050505050565b60008181526006602052604090205481906001600160a01b03163314610ac05760405162461bcd60e51b81526004016108c590613908565b60008181526006602052604080822080546001600160a01b03191690555182917f7cc135e0cebb02c3480ae5d74d377283180a2601f8f644edf7987b009316c63a91a26000828152600a60205260408082209051600c91610b20916131e5565b9081526040805160209281900383019020546000818152600a80855283822060018101546001600160a01b03168352600b8652938220829055828252909352925090610b6c8282612d01565b50600190810180546001600160a81b03191690556000848152600a60208181526040808420948501805460ff60a01b1916600160a11b17908190556001600160a01b03168452600b82528084208890559287905252518491600c91610bd191906131e5565b90815260405190819003602001902055505050565b33600090815260116020908152604091829020805483518184028101840190945280845260609392830182828015610c3d57602002820191906000526020600020905b815481526020019060010190808311610c29575b505050505090505b90565b6008805460408051602060026001851615610100026000190190941693909304601f81018490048402820184019092528181529291830182828015610cce5780601f10610ca357610100808354040283529160200191610cce565b820191906000526020600020905b815481529060010190602001808311610cb157829003601f168201915b505050505081565b60196020908152600091825260409182902080548351601f60026000196101006001861615020190931692909204918201849004840281018401909452808452909291839190830182828015610d6d5780601f10610d4257610100808354040283529160200191610d6d565b820191906000526020600020905b815481529060010190602001808311610d5057829003601f168201915b505050505090806001018054600181600116156101000203166002900480601f016020809104026020016040519081016040528092919081815260200182805460018160011615610100020316600290048015610e0b5780601f10610de057610100808354040283529160200191610e0b565b820191906000526020600020905b815481529060010190602001808311610dee57829003601f168201915b5050505050908060020154905083565b606060148383604051610e2f929190613213565b9081526040805191829003602090810183208054808302850183019093528284529190830182828015610e8157602002820191906000526020600020905b815481526020019060010190808311610e6d575b505050505090505b92915050565b606060108383604051610e2f929190613213565b60176020908152600091825260409182902080548351601f60026000196101006001861615020190931692909204918201849004840281018401909452808452909291839190830182828015610d6d5780601f10610d4257610100808354040283529160200191610d6d565b601f546001600160a01b03163314610f2657600080fd5b80600d83604051610f379190613223565b9081526020016040518091039020541015610f645760405162461bcd60e51b81526004016108c59061370d565b80600d83604051610f759190613223565b90815260405190819003602001902080549190910390555050565b600b6020526000908152604090205481565b610faa6124a0565b6000546001600160a01b03908116911614610fd75760405162461bcd60e51b81526004016108c590613792565b601e80546001600160a01b0319166001600160a01b0392909216919091179055565b6007546001600160a01b0390811691161490565b60008181526006602052604090205481906001600160a01b031633146110455760405162461bcd60e51b81526004016108c590613908565b60008181526006602052604080822080546001600160a01b03191690555182917f7cc135e0cebb02c3480ae5d74d377283180a2601f8f644edf7987b009316c63a91a26000828152601760205260409020600201546001146110b95760405162461bcd60e51b81526004016108c590613864565b6000828152601760205260409081902060028181015590516016916110e3916001909101906131e5565b90815260408051918290036020908101832054600086815260179092529190209091600d91611111916131e5565b90815260408051602092819003830181208054949094019093556000858152601790925290207f982ab3ed562795c652df6267e3375f911bda7be583569dd2d2f704389ee5fc419161116791600181019161341a565b60405180910390a15050565b6000818152600f60205260409020546001600160a01b031633146111a95760405162461bcd60e51b81526004016108c59061343f565b6111b38133612631565b50565b601560205281600052604060002081815481106107fb57fe5b6111d7612c4e565b6111e98330630ef9e12f60e21b6124af565b60408051808201909152600a81526933b4ba343ab12ab9b2b960b11b6020820152909150611219908290846124d4565b6112576040518060400160405280600a8152602001696574684164647265737360b01b81525061124f61124a6124a0565b6127a9565b8391906124d4565b600061126685836020546124f2565b905060405180606001604052808481526020016112816124a0565b6001600160a01b0316815260016020918201526000838152600a8252604090208251805191926112b692849290910190612c83565b5060208201516001909101805460409093015160ff16600160a01b0260ff60a01b196001600160a01b039093166001600160a01b031990941693909317919091169190911790555050505050565b601160205281600052604060002081815481106107fb57fe5b6113256124a0565b6000546001600160a01b039081169116146113525760405162461bcd60e51b81526004016108c590613792565b600080546040516001600160a01b03909116907f8be0079c531659141344cd1fd0a4f28419497f9722a3daafe3b4186f6b6457e0908390a3600080546001600160a01b0319169055565b815160208184018101805160108252928201918501919091209190528054829081106107fb57fe5b6007546001600160a01b031681565b6000818152601260205260409020546001600160a01b031633146114095760405162461bcd60e51b81526004016108c5906137fc565b6000818152601260205260409081902060018101549151601691611432916002909101906131e5565b908152602001604051809103902054101561145f5760405162461bcd60e51b81526004016108c590613744565b600081815260126020526040808220600101549051339282156108fc02929190818181858888f1935050505015801561149c573d6000803e3d6000fd5b5060008181526012602052604090819020600181015491516016916114c6916002909101906131e5565b90815260408051602092819003830190208054939093039092556000838152601290915290812080546001600160a01b031916815560018101829055906115106002830182612d01565b505050565b6000546001600160a01b031690565b336000818152600b60209081526040808320548352600a9091529020600101546001600160a01b03161461156a5760405162461bcd60e51b81526004016108c5906138ab565b336000908152600b60209081526040808320548352600a90915290819020905161159491906131e5565b604051809103902060176000601885856040516115b2929190613213565b90815260200160405180910390205481526020019081526020016000206000016040516115df91906131e5565b6040518091039020146116045760405162461bcd60e51b81526004016108c590613950565b600060168383604051611618929190613213565b908152602001604051809103902054116116445760405162461bcd60e51b81526004016108c590613632565b336001600160a01b03166108fc60168484604051611663929190613213565b90815260405190819003602001812054801590920291906000818181858888f19350505050158015611699573d6000803e3d6000fd5b50601682826040516116ac929190613213565b90815260408051918290036020908101832054336000908152600b8352838120548152600a9092529190209091600d916116e5916131e5565b9081526040519081900360200181208054929092039091556000906016906117109085908590613213565b908152604051908190036020019020555050565b600034116117445760405162461bcd60e51b81526004016108c5906139d3565b61174c612d45565b600a6000600c8585604051611762929190613213565b9081526040805160209281900383019020548352828201939093529082016000208251815460026001821615610100026000190190911604601f8101849004909302810160809081019094526060810183815290939192849284919084018282801561180f5780601f106117e45761010080835404028352916020019161180f565b820191906000526020600020905b8154815290600101906020018083116117f257829003601f168201915b5050509183525050600191909101546001600160a01b03808216602080850191909152600160a01b90920460ff1660409093019290925282015191925016158015906118625750806040015160ff166002145b1561192c57600a6000600c858560405161187d929190613213565b908152602001604051809103902054815260200190815260200160002060010160009054906101000a90046001600160a01b03166001600160a01b03166108fc349081150290604051600060405180830381858888f193505050501580156118e9573d6000803e3d6000fd5b507f55ba5e513ac5c832c73696b2bac8efc4fa9fcac62091a294ec672803704481d53334858560405161191f9493929190613253565b60405180910390a1611510565b600e8054600101905560408051606081018252338152346020808301919091528251601f8601829004820281018201845285815291928301919086908690819084018382808284376000920182905250939094525050600e548152600f6020908152604091829020845181546001600160a01b0319166001600160a01b039091161781558482015160018201559184015180519293506119d59260028501929190910190612c83565b50905050601083836040516119eb929190613213565b908152604080519182900360209081018320600e805482546001818101855560009485528585209091019190915533835260118452938220905481549485018255908252919020909101553490600d90611a489086908690613213565b90815260405190819003602001812080549092019091557f406551011d3a3874d102c2ee25adb004adb6d90a8134f04c14bd02f73ad4a3d090611a92903390349087908790613253565b60405180910390a1505050565b805160208183018101805160188252928201919093012091525481565b60196000601a84604051611ad09190613223565b90815260200160405180910390205481526020019081526020016000206002015460021415611b115760405162461bcd60e51b81526004016108c5906134d0565b600a6000600c83604051611b259190613223565b908152602001604051809103902054815260200190815260200160002060010160149054906101000a900460ff1660ff16600214611b755760405162461bcd60e51b81526004016108c5906139ff565b611b7d612c4e565b611b8f843063f0e31cf960e01b6124af565b60408051808201909152600a81526933b4ba343ab12ab9b2b960b11b6020820152909150611bbf908290846124d4565b6040805180820190915260048152631c1c925960e21b6020820152611be6908290856124d4565b6000611bf586836021546124f2565b604080516060810182528581526020808201889052600182840152600084815260198252929092208151805194955091939092611c36928492910190612c83565b506020828101518051611c4f9260018501920190612c83565b5060408201518160020155905050505050505050565b336000818152600b60209081526040808320548352600a9091529020600101546001600160a01b031614611cab5760405162461bcd60e51b81526004016108c590613507565b336000908152600b60209081526040808320548352600a909152908190209051611cd591906131e5565b604080519182900382206000848152600f602052919091209091611cfc91600201906131e5565b6040518091039020146111a95760405162461bcd60e51b81526004016108c590613669565b600a6020908152600091825260409182902080548351601f60026000196101006001861615020190931692909204918201849004840281018401909452808452909291839190830182828015611db85780601f10611d8d57610100808354040283529160200191611db8565b820191906000526020600020905b815481529060010190602001808311611d9b57829003601f168201915b505050600190930154919250506001600160a01b0381169060ff600160a01b9091041683565b8051602081830181018051601b8252928201919093012091525481565b60126020908152600091825260409182902080546001808301546002808501805488516101009582161595909502600019011691909104601f81018790048702840187019097528683526001600160a01b03909316959094919291830182828015611ea75780601f10611e7c57610100808354040283529160200191611ea7565b820191906000526020600020905b815481529060010190602001808311611e8a57829003601f168201915b5050505050905083565b60008281526006602052604090205482906001600160a01b03163314611ee95760405162461bcd60e51b81526004016108c590613908565b60008181526006602052604080822080546001600160a01b03191690555182917f7cc135e0cebb02c3480ae5d74d377283180a2601f8f644edf7987b009316c63a91a281600111158015611f3e575060648211155b611f5a5760405162461bcd60e51b81526004016108c5906137c7565b600083815260196020526040902060020154600114611f8b5760405162461bcd60e51b81526004016108c590613564565b6000838152601960205260408082209051600a918391600c91611fad916131e5565b90815260408051602092819003830190205483529082019290925201600020600101546001600160a01b03161415611ff75760405162461bcd60e51b81526004016108c5906139ff565b600083815260196020526040808220600281810155601e5491516001600160a01b039092169263f68fb07592600a92600c9161203391906131e5565b90815260408051602092819003830190205483528282019390935290820160002060010154601e54835163313ce56760e01b815293516001600160a01b0392831694929091169263313ce5679260048082019391829003018186803b15801561209b57600080fd5b505afa1580156120af573d6000803e3d6000fd5b505050506040513d601f19601f820116820180604052508101906120d391906130a6565b60ff16600a0a85026040518363ffffffff1660e01b81526004016120f892919061329b565b600060405180830381600087803b15801561211257600080fd5b505af1158015612126573d6000803e3d6000fd5b50505050505050565b600f6020908152600091825260409182902080546001808301546002808501805488516101009582161595909502600019011691909104601f81018790048702840187019097528683526001600160a01b03909316959094919291830182828015611ea75780601f10611e7c57610100808354040283529160200191611ea7565b6121b86124a0565b6000546001600160a01b039081169116146121e55760405162461bcd60e51b81526004016108c590613792565b6001600160a01b03811661220b5760405162461bcd60e51b81526004016108c5906135a9565b600080546040516001600160a01b03808516939216917f8be0079c531659141344cd1fd0a4f28419497f9722a3daafe3b4186f6b6457e091a3600080546001600160a01b0319166001600160a01b0392909216919091179055565b600034116122865760405162461bcd60e51b81526004016108c5906139d3565b60138054600101905560408051606081018252338152346020808301919091528251601f8501829004820281018201845284815291928301919085908590819084018382808284376000920182905250939094525050601354815260126020908152604091829020845181546001600160a01b0319166001600160a01b0390911617815584820151600182015591840151805192935061232f9260028501929190910190612c83565b5090505060148282604051612345929190613213565b90815260408051918290036020908101832060138054825460018181018555600094855285852090910191909155338352601584529382209054815494850182559082529190209091015534906016906123a29085908590613213565b90815260405190819003602001812080549092019091557f08c7c4039b7c98d46cb4ebb0f96ca6a67a506db7c3ddd814f88dd3cfd24e2ae990611167903390349086908690613253565b60135481565b8051602081830181018051601a8252928201919093012091525481565b33600090815260156020908152604091829020805483518184028101840190945280845260609392830182828015610c3d5760200282019190600052602060002090815481526020019060010190808311610c29575050505050905090565b600060183610801590612485575061248533610ff9565b15612499575060131936013560601c610c45565b5033610c45565b60006124aa61246e565b905090565b6124b7612c4e565b6124bf612c4e565b6124cb8186868661288d565b95945050505050565b60808301516124e390836128ca565b608083015161151090826128ca565b6000306005546040516020016125099291906131f1565b60408051808303601f19018152918152815160209283012060055460608701526000818152600690935281832080546001600160a01b0319166001600160a01b038916179055905190925082917fb5e6e01e79f91267dc17b4e6314d5d4d03593d2ceee0fbb452b750bd70ea5af991a26003546001600160a01b0316634000aea08584612595876128e1565b6040518463ffffffff1660e01b81526004016125b39392919061331c565b602060405180830381600087803b1580156125cd57600080fd5b505af11580156125e1573d6000803e3d6000fd5b505050506040513d601f19601f820116820180604052508101906126059190612f6a565b6126215760405162461bcd60e51b81526004016108c5906135ef565b6005805460010190559392505050565b612639612d65565b6000838152600f6020908152604091829020825160608101845281546001600160a01b03168152600180830154828501526002808401805487516101009482161594909402600019011691909104601f810186900486028301860187528083529295939493860193919290918301828280156126f65780601f106126cb576101008083540402835291602001916126f6565b820191906000526020600020905b8154815290600101906020018083116126d957829003601f168201915b5050505050815250509050816001600160a01b03166108fc82602001519081150290604051600060405180830381858888f1935050505015801561273e573d6000803e3d6000fd5b508060200151600d82604001516040516127589190613223565b90815260408051602092819003830190208054939093039092556000858152600f90915290812080546001600160a01b031916815560018101829055906127a26002830182612d01565b5050505050565b60606001600160a01b038216806127d95750506040805180820190915260018152600360fc1b6020820152610851565b8060005b81156127f157600101600a820491506127dd565b60608167ffffffffffffffff8111801561280a57600080fd5b506040519080825280601f01601f191660200182016040528015612835576020820181803683370190505b50905060001982015b841561288357600a850660300160f81b8282806001900393508151811061286157fe5b60200101906001600160f81b031916908160001a905350600a8504945061283e565b5095945050505050565b612895612c4e565b6128a5856080015161010061295d565b50509183526001600160a01b031660208301526001600160e01b031916604082015290565b6128d78260038351612997565b6115108282612a71565b6060634042994660e01b600080846000015185602001518660400151876060015160018960800151600001516040516024016129249897969594939291906132b4565b60408051601f198184030181529190526020810180516001600160e01b03166001600160e01b0319909316929092179091529050919050565b612965612d8f565b602082061561297a5760208206602003820191505b506020828101829052604080518085526000815290920101905290565b601781116129b8576129b28360e0600585901b168317612a92565b50611510565b60ff81116129e2576129d5836018611fe0600586901b1617612a92565b506129b283826001612aaa565b61ffff8111612a0d57612a00836019611fe0600586901b1617612a92565b506129b283826002612aaa565b63ffffffff8111612a3a57612a2d83601a611fe0600586901b1617612a92565b506129b283826004612aaa565b67ffffffffffffffff811161151057612a5e83601b611fe0600586901b1617612a92565b50612a6b83826008612aaa565b50505050565b612a79612d8f565b612a8b83846000015151848551612acb565b9392505050565b612a9a612d8f565b612a8b8384600001515184612b77565b612ab2612d8f565b612ac3848560000151518585612bc2565b949350505050565b612ad3612d8f565b8251821115612ae157600080fd5b84602001518285011115612b0b57612b0b85612b038760200151878601612c20565b600202612c37565b600080865180518760208301019350808887011115612b2a5787860182525b505050602084015b60208410612b515780518252601f199093019260209182019101612b32565b51815160001960208690036101000a019081169019919091161790525083949350505050565b612b7f612d8f565b83602001518310612b9b57612b9b848560200151600202612c37565b835180516020858301018481535080851415612bb8576001810182525b5093949350505050565b612bca612d8f565b84602001518483011115612be757612be785858401600202612c37565b60006001836101000a039050855183868201018583198251161781525080518487011115612c155783860181525b509495945050505050565b600081831115612c31575081610e89565b50919050565b8151612c43838361295d565b50612a6b8382612a71565b6040805160a081018252600080825260208201819052918101829052606081019190915260808101612c7e612d8f565b905290565b828054600181600116156101000203166002900490600052602060002090601f016020900481019282601f10612cc457805160ff1916838001178555612cf1565b82800160010185558215612cf1579182015b82811115612cf1578251825591602001919060010190612cd6565b50612cfd929150612da9565b5090565b50805460018160011615610100020316600290046000825580601f10612d2757506111b3565b601f0160209004906000526020600020908101906111b39190612da9565b604080516060808201835281526000602082018190529181019190915290565b604051806060016040528060006001600160a01b0316815260200160008152602001606081525090565b604051806040016040528060608152602001600081525090565b5b80821115612cfd5760008155600101612daa565b80356001600160a01b0381168114610e8957600080fd5b600082601f830112612de5578081fd5b813567ffffffffffffffff80821115612dfc578283fd5b604051601f8301601f191681016020018281118282101715612e1c578485fd5b604052828152925082848301602001861015612e3757600080fd5b8260208601602083013760006020848301015250505092915050565b600060208284031215612e64578081fd5b612a8b8383612dbe565b600080600060608486031215612e82578182fd5b612e8c8585612dbe565b925060208401359150604084013567ffffffffffffffff811115612eae578182fd5b612eba86828701612dd5565b9150509250925092565b60008060008060808587031215612ed9578081fd5b612ee38686612dbe565b935060208501359250604085013567ffffffffffffffff80821115612f06578283fd5b612f1288838901612dd5565b93506060870135915080821115612f27578283fd5b50612f3487828801612dd5565b91505092959194509250565b60008060408385031215612f52578182fd5b612f5c8484612dbe565b946020939093013593505050565b600060208284031215612f7b578081fd5b81518015158114612a8b578182fd5b600060208284031215612f9b578081fd5b5035919050565b60008060408385031215612fb4578182fd5b50508035926020909101359150565b60008060208385031215612fd5578182fd5b823567ffffffffffffffff80821115612fec578384fd5b818501915085601f830112612fff578384fd5b81358181111561300d578485fd5b86602082850101111561301e578485fd5b60209290920196919550909350505050565b600060208284031215613041578081fd5b813567ffffffffffffffff811115613057578182fd5b612ac384828501612dd5565b60008060408385031215613075578182fd5b823567ffffffffffffffff81111561308b578283fd5b61309785828601612dd5565b95602094909401359450505050565b6000602082840312156130b7578081fd5b815160ff81168114612a8b578182fd5b600081518084526130df816020860160208601613a4e565b601f01601f19169290920160200192915050565b6000815460018082166000811461311157600181146131285761315a565b60ff198316865260028304607f168601935061315a565b600283048560005260208060002060005b838110156131525781548a820152908501908201613139565b505050860193505b50505092915050565b60008154600180821660008114613181576001811461319f5761315a565b60028304607f16865260ff198316602087015260408601935061315a565b600283048087526131af86613a42565b60005b828110156131d35781546020828b01015284820191506020810190506131b2565b88016020019550505050505092915050565b6000612a8b82846130f3565b60609290921b6bffffffffffffffffffffffff19168252601482015260340190565b6000828483379101908152919050565b60008251613235818460208701613a4e565b9190910192915050565b6001600160a01b0391909116815260200190565b6001600160a01b0385168152602081018490526060604082018190528101829052600082846080840137818301608090810191909152601f909201601f191601019392505050565b6001600160a01b03929092168252602082015260400190565b6001600160a01b0389811682526020820189905260408201889052861660608201526001600160e01b03198516608082015260a0810184905260c0810183905261010060e0820181905260009061330d838201856130c7565b9b9a5050505050505050505050565b600060018060a01b0385168252836020830152606060408301526124cb60608301846130c7565b6020808252825182820181905260009190848201906040850190845b8181101561337b5783518352928401929184019160010161335f565b50909695505050505050565b901515815260200190565b90815260200190565b600060208252612a8b60208301846130c7565b6000606082526133c160608301866130c7565b6001600160a01b039490941660208301525060ff91909116604090910152919050565b6000606082526133f760608301866130c7565b828103602084015261340981866130c7565b915050826040830152949350505050565b60006040825261342d6040830185613163565b82810360208401526124cb8185613163565b60208082526030908201527f4465706f73697420646964206e6f742063616d652066726f6d2074686973204560408201526f3a3432b932bab69030b2323932b9b99760811b606082015260800190565b60208082526021908201527f497373756520686173206e6f206465706f7369747320746f2072656c656173656040820152601760f91b606082015260800190565b6020808252601d908201527f50756c6c207265717565737420616c726561647920636c61696d65642e000000604082015260600190565b6020808252603d908201527f5468697320457468657265756d2061646472657373206973206e6f742072656760408201527f69737465726564207769746820616e792047697448756220757365722e000000606082015260800190565b60208082526025908201527f50756c6c207265717565737420636c61696d20776173206e6f7420726571756560408201526439ba32b21760d91b606082015260800190565b60208082526026908201527f4f776e61626c653a206e6577206f776e657220697320746865207a65726f206160408201526564647265737360d01b606082015260800190565b60208082526023908201527f756e61626c6520746f207472616e73666572416e6443616c6c20746f206f7261604082015262636c6560e81b606082015260800190565b6020808252601f908201527f4973737565206465706f7369747320616c726561647920636c61696d65642e00604082015260600190565b60208082526027908201527f4465706f736974206973206e6f7420666f72207468697320476974487562206160408201526631b1b7bab73a1760c91b606082015260800190565b60208082526038908201527f4f6e6c792072656769737465726564204769744875622075736572732063616e60408201527f2072656c65617365206973737565206465706f736974732e0000000000000000606082015260800190565b6020808252601e908201527f4e6f7420656e6f7567682066756e647320746f20706179206761734665650000604082015260600190565b6020808252602e908201527f54686973206973737565206465706f73697420686173206265656e207769746860408201526d323930bbb71030b63932b0b23c9760911b606082015260800190565b6020808252818101527f4f776e61626c653a2063616c6c6572206973206e6f7420746865206f776e6572604082015260600190565b6020808252818101527f496e76616c69642073636f72653a2031203c3d2073636f7265203c3d20313030604082015260600190565b60208082526042908201527f4465706f73697420646964206e6f7420636f6d652066726f6d2074686973204560408201527f7468657265756d2061646472657373206f7220646f6573206e6f7420657869736060820152613a1760f11b608082015260a00190565b60208082526027908201527f49737365206465706f7369742072656c6561736520776173206e6f74207265716040820152663ab2b9ba32b21760c91b606082015260800190565b60208082526038908201527f4e6f20476974487562206163636f756e7420726567697374657265642077697460408201527f68207468697320457468657265756d206163636f756e742e0000000000000000606082015260800190565b60208082526028908201527f536f75726365206d75737420626520746865206f7261636c65206f6620746865604082015267081c995c5d595cdd60c21b606082015260800190565b60208082526057908201527f54686520476974487562206163636f756e74207468697320697373756520776160408201527f732072656c656173656420746f20646f6573206e6f742062656c6f6e6720746f60608201527f207468697320457468657265756d206163636f756e742e000000000000000000608082015260a00190565b6020808252601290820152712cb7ba9036bab9ba1039b2b7321022aa241760711b604082015260600190565b60208082526023908201527f54686973204769744875622075736572206973206e6f7420726567697374657260408201526232b21760e91b606082015260800190565b60009081526020902090565b60005b83811015613a69578181015183820152602001613a51565b83811115612a6b575050600091015256fea264697066735822122096070c66e0a6f1042fe03712838845d902cee82d08dcde9bd168b33b601da24564736f6c634300060c0033",
			"opcodes": "PUSH1 0x1 PUSH1 0x5 SWAP1 DUP2 SSTORE PUSH1 0xC0 PUSH1 0x40 MSTORE PUSH1 0x80 DUP2 SWAP1 MSTORE PUSH5 0x322E302E3 PUSH1 0xDC SHL PUSH1 0xA0 SWAP1 DUP2 MSTORE PUSH3 0x2D SWAP2 PUSH1 0x8 SWAP2 SWAP1 PUSH3 0x26C JUMP JUMPDEST POP PUSH1 0x0 PUSH1 0xE SSTORE PUSH1 0x0 PUSH1 0x13 SSTORE CALLVALUE DUP1 ISZERO PUSH3 0x45 JUMPI PUSH1 0x0 DUP1 REVERT JUMPDEST POP PUSH1 0x40 MLOAD PUSH3 0x3E6B CODESIZE SUB DUP1 PUSH3 0x3E6B DUP4 CODECOPY DUP2 ADD PUSH1 0x40 DUP2 SWAP1 MSTORE PUSH3 0x68 SWAP2 PUSH3 0x34B JUMP JUMPDEST PUSH1 0x0 PUSH3 0x74 PUSH3 0x14C JUMP JUMPDEST PUSH1 0x0 DUP1 SLOAD PUSH1 0x1 PUSH1 0x1 PUSH1 0xA0 SHL SUB NOT AND PUSH1 0x1 PUSH1 0x1 PUSH1 0xA0 SHL SUB DUP4 AND SWAP1 DUP2 OR DUP3 SSTORE PUSH1 0x40 MLOAD SWAP3 SWAP4 POP SWAP2 PUSH32 0x8BE0079C531659141344CD1FD0A4F28419497F9722A3DAAFE3B4186F6B6457E0 SWAP1 DUP3 SWAP1 LOG3 POP PUSH1 0x1 PUSH1 0x1 PUSH1 0xA0 SHL SUB DUP5 AND PUSH3 0xDD JUMPI PUSH3 0xD7 PUSH3 0x169 JUMP JUMPDEST PUSH3 0xE8 JUMP JUMPDEST PUSH3 0xE8 DUP5 PUSH3 0x1FE JUMP JUMPDEST PUSH1 0x1D DUP1 SLOAD PUSH1 0x1 PUSH1 0x1 PUSH1 0xA0 SHL SUB SWAP6 DUP7 AND PUSH1 0x1 PUSH1 0x1 PUSH1 0xA0 SHL SUB NOT SWAP2 DUP3 AND OR SWAP1 SWAP2 SSTORE PUSH1 0x1C DUP1 SLOAD SWAP5 DUP7 AND SWAP5 DUP3 AND SWAP5 SWAP1 SWAP5 OR SWAP1 SWAP4 SSTORE PUSH1 0x7 DUP1 SLOAD SWAP2 DUP6 AND SWAP2 DUP5 AND SWAP2 SWAP1 SWAP2 OR SWAP1 SSTORE PUSH1 0x9 DUP1 SLOAD SWAP2 SWAP1 SWAP4 AND SWAP2 AND OR SWAP1 SSTORE PUSH8 0x16345785D8A0000 PUSH1 0x20 DUP2 SWAP1 SSTORE PUSH1 0x21 SSTORE PUSH3 0x3AB JUMP JUMPDEST PUSH1 0x0 PUSH3 0x163 PUSH3 0x220 PUSH1 0x20 SHL PUSH3 0x246E OR PUSH1 0x20 SHR JUMP JUMPDEST SWAP1 POP JUMPDEST SWAP1 JUMP JUMPDEST PUSH3 0x1FC PUSH20 0xC89BD4E1632D3A43CB03AAAD5262CBE4038BC571 PUSH1 0x1 PUSH1 0x1 PUSH1 0xA0 SHL SUB AND PUSH4 0x38CC4831 PUSH1 0x40 MLOAD DUP2 PUSH4 0xFFFFFFFF AND PUSH1 0xE0 SHL DUP2 MSTORE PUSH1 0x4 ADD PUSH1 0x20 PUSH1 0x40 MLOAD DUP1 DUP4 SUB DUP2 DUP7 DUP1 EXTCODESIZE ISZERO DUP1 ISZERO PUSH3 0x1BB JUMPI PUSH1 0x0 DUP1 REVERT JUMPDEST POP GAS STATICCALL ISZERO DUP1 ISZERO PUSH3 0x1D0 JUMPI RETURNDATASIZE PUSH1 0x0 DUP1 RETURNDATACOPY RETURNDATASIZE PUSH1 0x0 REVERT JUMPDEST POP POP POP POP PUSH1 0x40 MLOAD RETURNDATASIZE PUSH1 0x1F NOT PUSH1 0x1F DUP3 ADD AND DUP3 ADD DUP1 PUSH1 0x40 MSTORE POP DUP2 ADD SWAP1 PUSH3 0x1F6 SWAP2 SWAP1 PUSH3 0x326 JUMP JUMPDEST PUSH3 0x1FE JUMP JUMPDEST JUMP JUMPDEST PUSH1 0x3 DUP1 SLOAD PUSH1 0x1 PUSH1 0x1 PUSH1 0xA0 SHL SUB NOT AND PUSH1 0x1 PUSH1 0x1 PUSH1 0xA0 SHL SUB SWAP3 SWAP1 SWAP3 AND SWAP2 SWAP1 SWAP2 OR SWAP1 SSTORE JUMP JUMPDEST PUSH1 0x0 PUSH1 0x18 CALLDATASIZE LT DUP1 ISZERO SWAP1 PUSH3 0x23A JUMPI POP PUSH3 0x23A CALLER PUSH3 0x258 JUMP JUMPDEST ISZERO PUSH3 0x250 JUMPI POP PUSH1 0x13 NOT CALLDATASIZE ADD CALLDATALOAD PUSH1 0x60 SHR PUSH3 0x166 JUMP JUMPDEST POP CALLER PUSH3 0x166 JUMP JUMPDEST PUSH1 0x7 SLOAD PUSH1 0x1 PUSH1 0x1 PUSH1 0xA0 SHL SUB SWAP1 DUP2 AND SWAP2 AND EQ SWAP1 JUMP JUMPDEST DUP3 DUP1 SLOAD PUSH1 0x1 DUP2 PUSH1 0x1 AND ISZERO PUSH2 0x100 MUL SUB AND PUSH1 0x2 SWAP1 DIV SWAP1 PUSH1 0x0 MSTORE PUSH1 0x20 PUSH1 0x0 KECCAK256 SWAP1 PUSH1 0x1F ADD PUSH1 0x20 SWAP1 DIV DUP2 ADD SWAP3 DUP3 PUSH1 0x1F LT PUSH3 0x2AF JUMPI DUP1 MLOAD PUSH1 0xFF NOT AND DUP4 DUP1 ADD OR DUP6 SSTORE PUSH3 0x2DF JUMP JUMPDEST DUP3 DUP1 ADD PUSH1 0x1 ADD DUP6 SSTORE DUP3 ISZERO PUSH3 0x2DF JUMPI SWAP2 DUP3 ADD JUMPDEST DUP3 DUP2 GT ISZERO PUSH3 0x2DF JUMPI DUP3 MLOAD DUP3 SSTORE SWAP2 PUSH1 0x20 ADD SWAP2 SWAP1 PUSH1 0x1 ADD SWAP1 PUSH3 0x2C2 JUMP JUMPDEST POP PUSH3 0x2ED SWAP3 SWAP2 POP PUSH3 0x2F1 JUMP JUMPDEST POP SWAP1 JUMP JUMPDEST JUMPDEST DUP1 DUP3 GT ISZERO PUSH3 0x2ED JUMPI PUSH1 0x0 DUP2 SSTORE PUSH1 0x1 ADD PUSH3 0x2F2 JUMP JUMPDEST DUP1 MLOAD PUSH1 0x1 PUSH1 0x1 PUSH1 0xA0 SHL SUB DUP2 AND DUP2 EQ PUSH3 0x320 JUMPI PUSH1 0x0 DUP1 REVERT JUMPDEST SWAP3 SWAP2 POP POP JUMP JUMPDEST PUSH1 0x0 PUSH1 0x20 DUP3 DUP5 SUB SLT ISZERO PUSH3 0x338 JUMPI DUP1 DUP2 REVERT JUMPDEST PUSH3 0x344 DUP4 DUP4 PUSH3 0x308 JUMP JUMPDEST SWAP4 SWAP3 POP POP POP JUMP JUMPDEST PUSH1 0x0 DUP1 PUSH1 0x0 DUP1 PUSH1 0x80 DUP6 DUP8 SUB SLT ISZERO PUSH3 0x361 JUMPI DUP3 DUP4 REVERT JUMPDEST PUSH3 0x36D DUP7 DUP7 PUSH3 0x308 JUMP JUMPDEST SWAP4 POP PUSH3 0x37E DUP7 PUSH1 0x20 DUP8 ADD PUSH3 0x308 JUMP JUMPDEST SWAP3 POP PUSH3 0x38F DUP7 PUSH1 0x40 DUP8 ADD PUSH3 0x308 JUMP JUMPDEST SWAP2 POP PUSH3 0x3A0 DUP7 PUSH1 0x60 DUP8 ADD PUSH3 0x308 JUMP JUMPDEST SWAP1 POP SWAP3 SWAP6 SWAP2 SWAP5 POP SWAP3 POP JUMP JUMPDEST PUSH2 0x3AB0 DUP1 PUSH3 0x3BB PUSH1 0x0 CODECOPY PUSH1 0x0 RETURN INVALID PUSH1 0x80 PUSH1 0x40 MSTORE PUSH1 0x4 CALLDATASIZE LT PUSH2 0x25C JUMPI PUSH1 0x0 CALLDATALOAD PUSH1 0xE0 SHR DUP1 PUSH4 0x64422B86 GT PUSH2 0x144 JUMPI DUP1 PUSH4 0xC315FBCA GT PUSH2 0xB6 JUMPI DUP1 PUSH4 0xF16B41F4 GT PUSH2 0x7A JUMPI DUP1 PUSH4 0xF16B41F4 EQ PUSH2 0x736 JUMPI DUP1 PUSH4 0xF2FDE38B EQ PUSH2 0x756 JUMPI DUP1 PUSH4 0xF4B90EF7 EQ PUSH2 0x776 JUMPI DUP1 PUSH4 0xF63E8C70 EQ PUSH2 0x789 JUMPI DUP1 PUSH4 0xF9C8D78F EQ PUSH2 0x79E JUMPI DUP1 PUSH4 0xFB95354A EQ PUSH2 0x7BE JUMPI PUSH2 0x25C JUMP JUMPDEST DUP1 PUSH4 0xC315FBCA EQ PUSH2 0x678 JUMPI DUP1 PUSH4 0xCEA6AB98 EQ PUSH2 0x698 JUMPI DUP1 PUSH4 0xCF5F5F46 EQ PUSH2 0x6C7 JUMPI DUP1 PUSH4 0xD224784D EQ PUSH2 0x6E7 JUMPI DUP1 PUSH4 0xF0E31CF9 EQ PUSH2 0x716 JUMPI PUSH2 0x25C JUMP JUMPDEST DUP1 PUSH4 0x8617FC46 GT PUSH2 0x108 JUMPI DUP1 PUSH4 0x8617FC46 EQ PUSH2 0x5D0 JUMPI DUP1 PUSH4 0x8DA5CB5B EQ PUSH2 0x5F0 JUMPI DUP1 PUSH4 0x9947918C EQ PUSH2 0x605 JUMPI DUP1 PUSH4 0x9996F186 EQ PUSH2 0x625 JUMPI DUP1 PUSH4 0x9C900E33 EQ PUSH2 0x638 JUMPI DUP1 PUSH4 0xAF5B5F5C EQ PUSH2 0x658 JUMPI PUSH2 0x25C JUMP JUMPDEST DUP1 PUSH4 0x64422B86 EQ PUSH2 0x539 JUMPI DUP1 PUSH4 0x64701750 EQ PUSH2 0x559 JUMPI DUP1 PUSH4 0x715018A6 EQ PUSH2 0x579 JUMPI DUP1 PUSH4 0x746C97B9 EQ PUSH2 0x58E JUMPI DUP1 PUSH4 0x7DA0A877 EQ PUSH2 0x5AE JUMPI PUSH2 0x25C JUMP JUMPDEST DUP1 PUSH4 0x4C1B100A GT PUSH2 0x1DD JUMPI DUP1 PUSH4 0x54D16F67 GT PUSH2 0x1A1 JUMPI DUP1 PUSH4 0x54D16F67 EQ PUSH2 0x46C JUMPI DUP1 PUSH4 0x55254188 EQ PUSH2 0x48C JUMPI DUP1 PUSH4 0x572B6C05 EQ PUSH2 0x4AC JUMPI DUP1 PUSH4 0x57BD9A97 EQ PUSH2 0x4D9 JUMPI DUP1 PUSH4 0x60445FB2 EQ PUSH2 0x4F9 JUMPI DUP1 PUSH4 0x61E421D5 EQ PUSH2 0x519 JUMPI PUSH2 0x25C JUMP JUMPDEST DUP1 PUSH4 0x4C1B100A EQ PUSH2 0x3BD JUMPI DUP1 PUSH4 0x50AEA559 EQ PUSH2 0x3EC JUMPI DUP1 PUSH4 0x53A61FF9 EQ PUSH2 0x40C JUMPI DUP1 PUSH4 0x541B6C9F EQ PUSH2 0x42C JUMPI DUP1 PUSH4 0x546075DA EQ PUSH2 0x44C JUMPI PUSH2 0x25C JUMP JUMPDEST DUP1 PUSH4 0x2A97FA77 GT PUSH2 0x224 JUMPI DUP1 PUSH4 0x2A97FA77 EQ PUSH2 0x317 JUMPI DUP1 PUSH4 0x3653F086 EQ PUSH2 0x339 JUMPI DUP1 PUSH4 0x3BE784BC EQ PUSH2 0x359 JUMPI DUP1 PUSH4 0x454D0554 EQ PUSH2 0x379 JUMPI DUP1 PUSH4 0x486FF0CD EQ PUSH2 0x39B JUMPI PUSH2 0x25C JUMP JUMPDEST DUP1 PUSH4 0x4405FA9 EQ PUSH2 0x261 JUMPI DUP1 PUSH4 0xF8B8AFA EQ PUSH2 0x297 JUMPI DUP1 PUSH4 0x113D4134 EQ PUSH2 0x2B7 JUMPI DUP1 PUSH4 0x17C486F1 EQ PUSH2 0x2D7 JUMPI DUP1 PUSH4 0x1D2F5E83 EQ PUSH2 0x2F7 JUMPI JUMPDEST PUSH1 0x0 DUP1 REVERT JUMPDEST CALLVALUE DUP1 ISZERO PUSH2 0x26D JUMPI PUSH1 0x0 DUP1 REVERT JUMPDEST POP PUSH2 0x281 PUSH2 0x27C CALLDATASIZE PUSH1 0x4 PUSH2 0x3063 JUMP JUMPDEST PUSH2 0x7D3 JUMP JUMPDEST PUSH1 0x40 MLOAD PUSH2 0x28E SWAP2 SWAP1 PUSH2 0x3392 JUMP JUMPDEST PUSH1 0x40 MLOAD DUP1 SWAP2 SUB SWAP1 RETURN JUMPDEST CALLVALUE DUP1 ISZERO PUSH2 0x2A3 JUMPI PUSH1 0x0 DUP1 REVERT JUMPDEST POP PUSH2 0x281 PUSH2 0x2B2 CALLDATASIZE PUSH1 0x4 PUSH2 0x3030 JUMP JUMPDEST PUSH2 0x810 JUMP JUMPDEST CALLVALUE DUP1 ISZERO PUSH2 0x2C3 JUMPI PUSH1 0x0 DUP1 REVERT JUMPDEST POP PUSH2 0x281 PUSH2 0x2D2 CALLDATASIZE PUSH1 0x4 PUSH2 0x3030 JUMP JUMPDEST PUSH2 0x82D JUMP JUMPDEST CALLVALUE DUP1 ISZERO PUSH2 0x2E3 JUMPI PUSH1 0x0 DUP1 REVERT JUMPDEST POP PUSH2 0x281 PUSH2 0x2F2 CALLDATASIZE PUSH1 0x4 PUSH2 0x3030 JUMP JUMPDEST PUSH2 0x856 JUMP JUMPDEST CALLVALUE DUP1 ISZERO PUSH2 0x303 JUMPI PUSH1 0x0 DUP1 REVERT JUMPDEST POP PUSH2 0x281 PUSH2 0x312 CALLDATASIZE PUSH1 0x4 PUSH2 0x3030 JUMP JUMPDEST PUSH2 0x873 JUMP JUMPDEST CALLVALUE DUP1 ISZERO PUSH2 0x323 JUMPI PUSH1 0x0 DUP1 REVERT JUMPDEST POP PUSH2 0x337 PUSH2 0x332 CALLDATASIZE PUSH1 0x4 PUSH2 0x2E53 JUMP JUMPDEST PUSH2 0x890 JUMP JUMPDEST STOP JUMPDEST CALLVALUE DUP1 ISZERO PUSH2 0x345 JUMPI PUSH1 0x0 DUP1 REVERT JUMPDEST POP PUSH2 0x337 PUSH2 0x354 CALLDATASIZE PUSH1 0x4 PUSH2 0x2EC4 JUMP JUMPDEST PUSH2 0x8F0 JUMP JUMPDEST CALLVALUE DUP1 ISZERO PUSH2 0x365 JUMPI PUSH1 0x0 DUP1 REVERT JUMPDEST POP PUSH2 0x337 PUSH2 0x374 CALLDATASIZE PUSH1 0x4 PUSH2 0x2F8A JUMP JUMPDEST PUSH2 0xA88 JUMP JUMPDEST CALLVALUE DUP1 ISZERO PUSH2 0x385 JUMPI PUSH1 0x0 DUP1 REVERT JUMPDEST POP PUSH2 0x38E PUSH2 0xBE6 JUMP JUMPDEST PUSH1 0x40 MLOAD PUSH2 0x28E SWAP2 SWAP1 PUSH2 0x3343 JUMP JUMPDEST CALLVALUE DUP1 ISZERO PUSH2 0x3A7 JUMPI PUSH1 0x0 DUP1 REVERT JUMPDEST POP PUSH2 0x3B0 PUSH2 0xC48 JUMP JUMPDEST PUSH1 0x40 MLOAD PUSH2 0x28E SWAP2 SWAP1 PUSH2 0x339B JUMP JUMPDEST CALLVALUE DUP1 ISZERO PUSH2 0x3C9 JUMPI PUSH1 0x0 DUP1 REVERT JUMPDEST POP PUSH2 0x3DD PUSH2 0x3D8 CALLDATASIZE PUSH1 0x4 PUSH2 0x2F8A JUMP JUMPDEST PUSH2 0xCD6 JUMP JUMPDEST PUSH1 0x40 MLOAD PUSH2 0x28E SWAP4 SWAP3 SWAP2 SWAP1 PUSH2 0x33E4 JUMP JUMPDEST CALLVALUE DUP1 ISZERO PUSH2 0x3F8 JUMPI PUSH1 0x0 DUP1 REVERT JUMPDEST POP PUSH2 0x38E PUSH2 0x407 CALLDATASIZE PUSH1 0x4 PUSH2 0x2FC3 JUMP JUMPDEST PUSH2 0xE1B JUMP JUMPDEST CALLVALUE DUP1 ISZERO PUSH2 0x418 JUMPI PUSH1 0x0 DUP1 REVERT JUMPDEST POP PUSH2 0x38E PUSH2 0x427 CALLDATASIZE PUSH1 0x4 PUSH2 0x2FC3 JUMP JUMPDEST PUSH2 0xE8F JUMP JUMPDEST CALLVALUE DUP1 ISZERO PUSH2 0x438 JUMPI PUSH1 0x0 DUP1 REVERT JUMPDEST POP PUSH2 0x3DD PUSH2 0x447 CALLDATASIZE PUSH1 0x4 PUSH2 0x2F8A JUMP JUMPDEST PUSH2 0xEA3 JUMP JUMPDEST CALLVALUE DUP1 ISZERO PUSH2 0x458 JUMPI PUSH1 0x0 DUP1 REVERT JUMPDEST POP PUSH2 0x337 PUSH2 0x467 CALLDATASIZE PUSH1 0x4 PUSH2 0x3063 JUMP JUMPDEST PUSH2 0xF0F JUMP JUMPDEST CALLVALUE DUP1 ISZERO PUSH2 0x478 JUMPI PUSH1 0x0 DUP1 REVERT JUMPDEST POP PUSH2 0x281 PUSH2 0x487 CALLDATASIZE PUSH1 0x4 PUSH2 0x2E53 JUMP JUMPDEST PUSH2 0xF90 JUMP JUMPDEST CALLVALUE DUP1 ISZERO PUSH2 0x498 JUMPI PUSH1 0x0 DUP1 REVERT JUMPDEST POP PUSH2 0x337 PUSH2 0x4A7 CALLDATASIZE PUSH1 0x4 PUSH2 0x2E53 JUMP JUMPDEST PUSH2 0xFA2 JUMP JUMPDEST CALLVALUE DUP1 ISZERO PUSH2 0x4B8 JUMPI PUSH1 0x0 DUP1 REVERT JUMPDEST POP PUSH2 0x4CC PUSH2 0x4C7 CALLDATASIZE PUSH1 0x4 PUSH2 0x2E53 JUMP JUMPDEST PUSH2 0xFF9 JUMP JUMPDEST PUSH1 0x40 MLOAD PUSH2 0x28E SWAP2 SWAP1 PUSH2 0x3387 JUMP JUMPDEST CALLVALUE DUP1 ISZERO PUSH2 0x4E5 JUMPI PUSH1 0x0 DUP1 REVERT JUMPDEST POP PUSH2 0x337 PUSH2 0x4F4 CALLDATASIZE PUSH1 0x4 PUSH2 0x2F8A JUMP JUMPDEST PUSH2 0x100D JUMP JUMPDEST CALLVALUE DUP1 ISZERO PUSH2 0x505 JUMPI PUSH1 0x0 DUP1 REVERT JUMPDEST POP PUSH2 0x337 PUSH2 0x514 CALLDATASIZE PUSH1 0x4 PUSH2 0x2F8A JUMP JUMPDEST PUSH2 0x1173 JUMP JUMPDEST CALLVALUE DUP1 ISZERO PUSH2 0x525 JUMPI PUSH1 0x0 DUP1 REVERT JUMPDEST POP PUSH2 0x281 PUSH2 0x534 CALLDATASIZE PUSH1 0x4 PUSH2 0x2F40 JUMP JUMPDEST PUSH2 0x11B6 JUMP JUMPDEST CALLVALUE DUP1 ISZERO PUSH2 0x545 JUMPI PUSH1 0x0 DUP1 REVERT JUMPDEST POP PUSH2 0x337 PUSH2 0x554 CALLDATASIZE PUSH1 0x4 PUSH2 0x2E6E JUMP JUMPDEST PUSH2 0x11CF JUMP JUMPDEST CALLVALUE DUP1 ISZERO PUSH2 0x565 JUMPI PUSH1 0x0 DUP1 REVERT JUMPDEST POP PUSH2 0x281 PUSH2 0x574 CALLDATASIZE PUSH1 0x4 PUSH2 0x2F40 JUMP JUMPDEST PUSH2 0x1304 JUMP JUMPDEST CALLVALUE DUP1 ISZERO PUSH2 0x585 JUMPI PUSH1 0x0 DUP1 REVERT JUMPDEST POP PUSH2 0x337 PUSH2 0x131D JUMP JUMPDEST CALLVALUE DUP1 ISZERO PUSH2 0x59A JUMPI PUSH1 0x0 DUP1 REVERT JUMPDEST POP PUSH2 0x281 PUSH2 0x5A9 CALLDATASIZE PUSH1 0x4 PUSH2 0x3063 JUMP JUMPDEST PUSH2 0x139C JUMP JUMPDEST CALLVALUE DUP1 ISZERO PUSH2 0x5BA JUMPI PUSH1 0x0 DUP1 REVERT JUMPDEST POP PUSH2 0x5C3 PUSH2 0x13C4 JUMP JUMPDEST PUSH1 0x40 MLOAD PUSH2 0x28E SWAP2 SWAP1 PUSH2 0x323F JUMP JUMPDEST CALLVALUE DUP1 ISZERO PUSH2 0x5DC JUMPI PUSH1 0x0 DUP1 REVERT JUMPDEST POP PUSH2 0x337 PUSH2 0x5EB CALLDATASIZE PUSH1 0x4 PUSH2 0x2F8A JUMP JUMPDEST PUSH2 0x13D3 JUMP JUMPDEST CALLVALUE DUP1 ISZERO PUSH2 0x5FC JUMPI PUSH1 0x0 DUP1 REVERT JUMPDEST POP PUSH2 0x5C3 PUSH2 0x1515 JUMP JUMPDEST CALLVALUE DUP1 ISZERO PUSH2 0x611 JUMPI PUSH1 0x0 DUP1 REVERT JUMPDEST POP PUSH2 0x337 PUSH2 0x620 CALLDATASIZE PUSH1 0x4 PUSH2 0x2FC3 JUMP JUMPDEST PUSH2 0x1524 JUMP JUMPDEST PUSH2 0x337 PUSH2 0x633 CALLDATASIZE PUSH1 0x4 PUSH2 0x2FC3 JUMP JUMPDEST PUSH2 0x1724 JUMP JUMPDEST CALLVALUE DUP1 ISZERO PUSH2 0x644 JUMPI PUSH1 0x0 DUP1 REVERT JUMPDEST POP PUSH2 0x281 PUSH2 0x653 CALLDATASIZE PUSH1 0x4 PUSH2 0x3030 JUMP JUMPDEST PUSH2 0x1A9F JUMP JUMPDEST CALLVALUE DUP1 ISZERO PUSH2 0x664 JUMPI PUSH1 0x0 DUP1 REVERT JUMPDEST POP PUSH2 0x337 PUSH2 0x673 CALLDATASIZE PUSH1 0x4 PUSH2 0x2EC4 JUMP JUMPDEST PUSH2 0x1ABC JUMP JUMPDEST CALLVALUE DUP1 ISZERO PUSH2 0x684 JUMPI PUSH1 0x0 DUP1 REVERT JUMPDEST POP PUSH2 0x337 PUSH2 0x693 CALLDATASIZE PUSH1 0x4 PUSH2 0x2F8A JUMP JUMPDEST PUSH2 0x1C65 JUMP JUMPDEST CALLVALUE DUP1 ISZERO PUSH2 0x6A4 JUMPI PUSH1 0x0 DUP1 REVERT JUMPDEST POP PUSH2 0x6B8 PUSH2 0x6B3 CALLDATASIZE PUSH1 0x4 PUSH2 0x2F8A JUMP JUMPDEST PUSH2 0x1D21 JUMP JUMPDEST PUSH1 0x40 MLOAD PUSH2 0x28E SWAP4 SWAP3 SWAP2 SWAP1 PUSH2 0x33AE JUMP JUMPDEST CALLVALUE DUP1 ISZERO PUSH2 0x6D3 JUMPI PUSH1 0x0 DUP1 REVERT JUMPDEST POP PUSH2 0x281 PUSH2 0x6E2 CALLDATASIZE PUSH1 0x4 PUSH2 0x3030 JUMP JUMPDEST PUSH2 0x1DDE JUMP JUMPDEST CALLVALUE DUP1 ISZERO PUSH2 0x6F3 JUMPI PUSH1 0x0 DUP1 REVERT JUMPDEST POP PUSH2 0x707 PUSH2 0x702 CALLDATASIZE PUSH1 0x4 PUSH2 0x2F8A JUMP JUMPDEST PUSH2 0x1DFB JUMP JUMPDEST PUSH1 0x40 MLOAD PUSH2 0x28E SWAP4 SWAP3 SWAP2 SWAP1 PUSH2 0x331C JUMP JUMPDEST CALLVALUE DUP1 ISZERO PUSH2 0x722 JUMPI PUSH1 0x0 DUP1 REVERT JUMPDEST POP PUSH2 0x337 PUSH2 0x731 CALLDATASIZE PUSH1 0x4 PUSH2 0x2FA2 JUMP JUMPDEST PUSH2 0x1EB1 JUMP JUMPDEST CALLVALUE DUP1 ISZERO PUSH2 0x742 JUMPI PUSH1 0x0 DUP1 REVERT JUMPDEST POP PUSH2 0x707 PUSH2 0x751 CALLDATASIZE PUSH1 0x4 PUSH2 0x2F8A JUMP JUMPDEST PUSH2 0x212F JUMP JUMPDEST CALLVALUE DUP1 ISZERO PUSH2 0x762 JUMPI PUSH1 0x0 DUP1 REVERT JUMPDEST POP PUSH2 0x337 PUSH2 0x771 CALLDATASIZE PUSH1 0x4 PUSH2 0x2E53 JUMP JUMPDEST PUSH2 0x21B0 JUMP JUMPDEST PUSH2 0x337 PUSH2 0x784 CALLDATASIZE PUSH1 0x4 PUSH2 0x2FC3 JUMP JUMPDEST PUSH2 0x2266 JUMP JUMPDEST CALLVALUE DUP1 ISZERO PUSH2 0x795 JUMPI PUSH1 0x0 DUP1 REVERT JUMPDEST POP PUSH2 0x281 PUSH2 0x23EC JUMP JUMPDEST CALLVALUE DUP1 ISZERO PUSH2 0x7AA JUMPI PUSH1 0x0 DUP1 REVERT JUMPDEST POP PUSH2 0x281 PUSH2 0x7B9 CALLDATASIZE PUSH1 0x4 PUSH2 0x3030 JUMP JUMPDEST PUSH2 0x23F2 JUMP JUMPDEST CALLVALUE DUP1 ISZERO PUSH2 0x7CA JUMPI PUSH1 0x0 DUP1 REVERT JUMPDEST POP PUSH2 0x38E PUSH2 0x240F JUMP JUMPDEST DUP2 MLOAD PUSH1 0x20 DUP2 DUP5 ADD DUP2 ADD DUP1 MLOAD PUSH1 0x14 DUP3 MSTORE SWAP3 DUP3 ADD SWAP2 DUP6 ADD SWAP2 SWAP1 SWAP2 KECCAK256 SWAP2 SWAP1 MSTORE DUP1 SLOAD DUP3 SWAP1 DUP2 LT PUSH2 0x7FB JUMPI INVALID JUMPDEST SWAP1 PUSH1 0x0 MSTORE PUSH1 0x20 PUSH1 0x0 KECCAK256 ADD PUSH1 0x0 SWAP2 POP SWAP2 POP POP SLOAD DUP2 JUMP JUMPDEST DUP1 MLOAD PUSH1 0x20 DUP2 DUP4 ADD DUP2 ADD DUP1 MLOAD PUSH1 0xD DUP3 MSTORE SWAP3 DUP3 ADD SWAP2 SWAP1 SWAP4 ADD KECCAK256 SWAP2 MSTORE SLOAD DUP2 JUMP JUMPDEST PUSH1 0x0 PUSH1 0xD DUP3 PUSH1 0x40 MLOAD PUSH2 0x83F SWAP2 SWAP1 PUSH2 0x3223 JUMP JUMPDEST SWAP1 DUP2 MSTORE PUSH1 0x20 ADD PUSH1 0x40 MLOAD DUP1 SWAP2 SUB SWAP1 KECCAK256 SLOAD SWAP1 POP JUMPDEST SWAP2 SWAP1 POP JUMP JUMPDEST DUP1 MLOAD PUSH1 0x20 DUP2 DUP4 ADD DUP2 ADD DUP1 MLOAD PUSH1 0x16 DUP3 MSTORE SWAP3 DUP3 ADD SWAP2 SWAP1 SWAP4 ADD KECCAK256 SWAP2 MSTORE SLOAD DUP2 JUMP JUMPDEST DUP1 MLOAD PUSH1 0x20 DUP2 DUP4 ADD DUP2 ADD DUP1 MLOAD PUSH1 0xC DUP3 MSTORE SWAP3 DUP3 ADD SWAP2 SWAP1 SWAP4 ADD KECCAK256 SWAP2 MSTORE SLOAD DUP2 JUMP JUMPDEST PUSH2 0x898 PUSH2 0x24A0 JUMP JUMPDEST PUSH1 0x0 SLOAD PUSH1 0x1 PUSH1 0x1 PUSH1 0xA0 SHL SUB SWAP1 DUP2 AND SWAP2 AND EQ PUSH2 0x8CE JUMPI PUSH1 0x40 MLOAD PUSH3 0x461BCD PUSH1 0xE5 SHL DUP2 MSTORE PUSH1 0x4 ADD PUSH2 0x8C5 SWAP1 PUSH2 0x3792 JUMP JUMPDEST PUSH1 0x40 MLOAD DUP1 SWAP2 SUB SWAP1 REVERT JUMPDEST PUSH1 0x1F DUP1 SLOAD PUSH1 0x1 PUSH1 0x1 PUSH1 0xA0 SHL SUB NOT AND PUSH1 0x1 PUSH1 0x1 PUSH1 0xA0 SHL SUB SWAP3 SWAP1 SWAP3 AND SWAP2 SWAP1 SWAP2 OR SWAP1 SSTORE JUMP JUMPDEST PUSH1 0x0 PUSH1 0x16 DUP4 PUSH1 0x40 MLOAD PUSH2 0x902 SWAP2 SWAP1 PUSH2 0x3223 JUMP JUMPDEST SWAP1 DUP2 MSTORE PUSH1 0x20 ADD PUSH1 0x40 MLOAD DUP1 SWAP2 SUB SWAP1 KECCAK256 SLOAD GT PUSH2 0x92E JUMPI PUSH1 0x40 MLOAD PUSH3 0x461BCD PUSH1 0xE5 SHL DUP2 MSTORE PUSH1 0x4 ADD PUSH2 0x8C5 SWAP1 PUSH2 0x348F JUMP JUMPDEST CALLER PUSH1 0x0 DUP2 DUP2 MSTORE PUSH1 0xB PUSH1 0x20 SWAP1 DUP2 MSTORE PUSH1 0x40 DUP1 DUP4 KECCAK256 SLOAD DUP4 MSTORE PUSH1 0xA SWAP1 SWAP2 MSTORE SWAP1 KECCAK256 PUSH1 0x1 ADD SLOAD PUSH1 0x1 PUSH1 0x1 PUSH1 0xA0 SHL SUB AND EQ PUSH2 0x974 JUMPI PUSH1 0x40 MLOAD PUSH3 0x461BCD PUSH1 0xE5 SHL DUP2 MSTORE PUSH1 0x4 ADD PUSH2 0x8C5 SWAP1 PUSH2 0x36B0 JUMP JUMPDEST PUSH2 0x97C PUSH2 0x2C4E JUMP JUMPDEST PUSH2 0x98E DUP5 ADDRESS PUSH4 0x57BD9A97 PUSH1 0xE0 SHL PUSH2 0x24AF JUMP JUMPDEST PUSH1 0x40 DUP1 MLOAD DUP1 DUP3 ADD SWAP1 SWAP2 MSTORE PUSH1 0xA DUP2 MSTORE PUSH10 0x33B4BA343AB12AB9B2B9 PUSH1 0xB1 SHL PUSH1 0x20 DUP3 ADD MSTORE SWAP1 SWAP2 POP PUSH2 0x9BE SWAP1 DUP3 SWAP1 DUP5 PUSH2 0x24D4 JUMP JUMPDEST PUSH1 0x40 DUP1 MLOAD DUP1 DUP3 ADD SWAP1 SWAP2 MSTORE PUSH1 0x7 DUP2 MSTORE PUSH7 0x1A5CDCDD595259 PUSH1 0xCA SHL PUSH1 0x20 DUP3 ADD MSTORE PUSH2 0x9E8 SWAP1 DUP3 SWAP1 DUP6 PUSH2 0x24D4 JUMP JUMPDEST PUSH1 0x0 PUSH2 0x9F7 DUP7 DUP4 PUSH1 0x20 SLOAD PUSH2 0x24F2 JUMP JUMPDEST PUSH1 0x40 DUP1 MLOAD PUSH1 0x60 DUP2 ADD DUP3 MSTORE DUP6 DUP2 MSTORE PUSH1 0x20 DUP1 DUP3 ADD DUP9 SWAP1 MSTORE PUSH1 0x1 DUP3 DUP5 ADD MSTORE PUSH1 0x0 DUP5 DUP2 MSTORE PUSH1 0x17 DUP3 MSTORE SWAP3 SWAP1 SWAP3 KECCAK256 DUP2 MLOAD DUP1 MLOAD SWAP5 SWAP6 POP SWAP2 SWAP4 SWAP1 SWAP3 PUSH2 0xA38 SWAP3 DUP5 SWAP3 SWAP2 ADD SWAP1 PUSH2 0x2C83 JUMP JUMPDEST POP PUSH1 0x20 DUP3 DUP2 ADD MLOAD DUP1 MLOAD PUSH2 0xA51 SWAP3 PUSH1 0x1 DUP6 ADD SWAP3 ADD SWAP1 PUSH2 0x2C83 JUMP JUMPDEST POP PUSH1 0x40 DUP3 ADD MLOAD DUP2 PUSH1 0x2 ADD SSTORE SWAP1 POP POP DUP1 PUSH1 0x18 DUP6 PUSH1 0x40 MLOAD PUSH2 0xA70 SWAP2 SWAP1 PUSH2 0x3223 JUMP JUMPDEST SWAP1 DUP2 MSTORE PUSH1 0x40 MLOAD SWAP1 DUP2 SWAP1 SUB PUSH1 0x20 ADD SWAP1 KECCAK256 SSTORE POP POP POP POP POP POP JUMP JUMPDEST PUSH1 0x0 DUP2 DUP2 MSTORE PUSH1 0x6 PUSH1 0x20 MSTORE PUSH1 0x40 SWAP1 KECCAK256 SLOAD DUP2 SWAP1 PUSH1 0x1 PUSH1 0x1 PUSH1 0xA0 SHL SUB AND CALLER EQ PUSH2 0xAC0 JUMPI PUSH1 0x40 MLOAD PUSH3 0x461BCD PUSH1 0xE5 SHL DUP2 MSTORE PUSH1 0x4 ADD PUSH2 0x8C5 SWAP1 PUSH2 0x3908 JUMP JUMPDEST PUSH1 0x0 DUP2 DUP2 MSTORE PUSH1 0x6 PUSH1 0x20 MSTORE PUSH1 0x40 DUP1 DUP3 KECCAK256 DUP1 SLOAD PUSH1 0x1 PUSH1 0x1 PUSH1 0xA0 SHL SUB NOT AND SWAP1 SSTORE MLOAD DUP3 SWAP2 PUSH32 0x7CC135E0CEBB02C3480AE5D74D377283180A2601F8F644EDF7987B009316C63A SWAP2 LOG2 PUSH1 0x0 DUP3 DUP2 MSTORE PUSH1 0xA PUSH1 0x20 MSTORE PUSH1 0x40 DUP1 DUP3 KECCAK256 SWAP1 MLOAD PUSH1 0xC SWAP2 PUSH2 0xB20 SWAP2 PUSH2 0x31E5 JUMP JUMPDEST SWAP1 DUP2 MSTORE PUSH1 0x40 DUP1 MLOAD PUSH1 0x20 SWAP3 DUP2 SWAP1 SUB DUP4 ADD SWAP1 KECCAK256 SLOAD PUSH1 0x0 DUP2 DUP2 MSTORE PUSH1 0xA DUP1 DUP6 MSTORE DUP4 DUP3 KECCAK256 PUSH1 0x1 DUP2 ADD SLOAD PUSH1 0x1 PUSH1 0x1 PUSH1 0xA0 SHL SUB AND DUP4 MSTORE PUSH1 0xB DUP7 MSTORE SWAP4 DUP3 KECCAK256 DUP3 SWAP1 SSTORE DUP3 DUP3 MSTORE SWAP1 SWAP4 MSTORE SWAP3 POP SWAP1 PUSH2 0xB6C DUP3 DUP3 PUSH2 0x2D01 JUMP JUMPDEST POP PUSH1 0x1 SWAP1 DUP2 ADD DUP1 SLOAD PUSH1 0x1 PUSH1 0x1 PUSH1 0xA8 SHL SUB NOT AND SWAP1 SSTORE PUSH1 0x0 DUP5 DUP2 MSTORE PUSH1 0xA PUSH1 0x20 DUP2 DUP2 MSTORE PUSH1 0x40 DUP1 DUP5 KECCAK256 SWAP5 DUP6 ADD DUP1 SLOAD PUSH1 0xFF PUSH1 0xA0 SHL NOT AND PUSH1 0x1 PUSH1 0xA1 SHL OR SWAP1 DUP2 SWAP1 SSTORE PUSH1 0x1 PUSH1 0x1 PUSH1 0xA0 SHL SUB AND DUP5 MSTORE PUSH1 0xB DUP3 MSTORE DUP1 DUP5 KECCAK256 DUP9 SWAP1 SSTORE SWAP3 DUP8 SWAP1 MSTORE MSTORE MLOAD DUP5 SWAP2 PUSH1 0xC SWAP2 PUSH2 0xBD1 SWAP2 SWAP1 PUSH2 0x31E5 JUMP JUMPDEST SWAP1 DUP2 MSTORE PUSH1 0x40 MLOAD SWAP1 DUP2 SWAP1 SUB PUSH1 0x20 ADD SWAP1 KECCAK256 SSTORE POP POP POP JUMP JUMPDEST CALLER PUSH1 0x0 SWAP1 DUP2 MSTORE PUSH1 0x11 PUSH1 0x20 SWAP1 DUP2 MSTORE PUSH1 0x40 SWAP2 DUP3 SWAP1 KECCAK256 DUP1 SLOAD DUP4 MLOAD DUP2 DUP5 MUL DUP2 ADD DUP5 ADD SWAP1 SWAP5 MSTORE DUP1 DUP5 MSTORE PUSH1 0x60 SWAP4 SWAP3 DUP4 ADD DUP3 DUP3 DUP1 ISZERO PUSH2 0xC3D JUMPI PUSH1 0x20 MUL DUP3 ADD SWAP2 SWAP1 PUSH1 0x0 MSTORE PUSH1 0x20 PUSH1 0x0 KECCAK256 SWAP1 JUMPDEST DUP2 SLOAD DUP2 MSTORE PUSH1 0x20 ADD SWAP1 PUSH1 0x1 ADD SWAP1 DUP1 DUP4 GT PUSH2 0xC29 JUMPI JUMPDEST POP POP POP POP POP SWAP1 POP JUMPDEST SWAP1 JUMP JUMPDEST PUSH1 0x8 DUP1 SLOAD PUSH1 0x40 DUP1 MLOAD PUSH1 0x20 PUSH1 0x2 PUSH1 0x1 DUP6 AND ISZERO PUSH2 0x100 MUL PUSH1 0x0 NOT ADD SWAP1 SWAP5 AND SWAP4 SWAP1 SWAP4 DIV PUSH1 0x1F DUP2 ADD DUP5 SWAP1 DIV DUP5 MUL DUP3 ADD DUP5 ADD SWAP1 SWAP3 MSTORE DUP2 DUP2 MSTORE SWAP3 SWAP2 DUP4 ADD DUP3 DUP3 DUP1 ISZERO PUSH2 0xCCE JUMPI DUP1 PUSH1 0x1F LT PUSH2 0xCA3 JUMPI PUSH2 0x100 DUP1 DUP4 SLOAD DIV MUL DUP4 MSTORE SWAP2 PUSH1 0x20 ADD SWAP2 PUSH2 0xCCE JUMP JUMPDEST DUP3 ADD SWAP2 SWAP1 PUSH1 0x0 MSTORE PUSH1 0x20 PUSH1 0x0 KECCAK256 SWAP1 JUMPDEST DUP2 SLOAD DUP2 MSTORE SWAP1 PUSH1 0x1 ADD SWAP1 PUSH1 0x20 ADD DUP1 DUP4 GT PUSH2 0xCB1 JUMPI DUP3 SWAP1 SUB PUSH1 0x1F AND DUP3 ADD SWAP2 JUMPDEST POP POP POP POP POP DUP2 JUMP JUMPDEST PUSH1 0x19 PUSH1 0x20 SWAP1 DUP2 MSTORE PUSH1 0x0 SWAP2 DUP3 MSTORE PUSH1 0x40 SWAP2 DUP3 SWAP1 KECCAK256 DUP1 SLOAD DUP4 MLOAD PUSH1 0x1F PUSH1 0x2 PUSH1 0x0 NOT PUSH2 0x100 PUSH1 0x1 DUP7 AND ISZERO MUL ADD SWAP1 SWAP4 AND SWAP3 SWAP1 SWAP3 DIV SWAP2 DUP3 ADD DUP5 SWAP1 DIV DUP5 MUL DUP2 ADD DUP5 ADD SWAP1 SWAP5 MSTORE DUP1 DUP5 MSTORE SWAP1 SWAP3 SWAP2 DUP4 SWAP2 SWAP1 DUP4 ADD DUP3 DUP3 DUP1 ISZERO PUSH2 0xD6D JUMPI DUP1 PUSH1 0x1F LT PUSH2 0xD42 JUMPI PUSH2 0x100 DUP1 DUP4 SLOAD DIV MUL DUP4 MSTORE SWAP2 PUSH1 0x20 ADD SWAP2 PUSH2 0xD6D JUMP JUMPDEST DUP3 ADD SWAP2 SWAP1 PUSH1 0x0 MSTORE PUSH1 0x20 PUSH1 0x0 KECCAK256 SWAP1 JUMPDEST DUP2 SLOAD DUP2 MSTORE SWAP1 PUSH1 0x1 ADD SWAP1 PUSH1 0x20 ADD DUP1 DUP4 GT PUSH2 0xD50 JUMPI DUP3 SWAP1 SUB PUSH1 0x1F AND DUP3 ADD SWAP2 JUMPDEST POP POP POP POP POP SWAP1 DUP1 PUSH1 0x1 ADD DUP1 SLOAD PUSH1 0x1 DUP2 PUSH1 0x1 AND ISZERO PUSH2 0x100 MUL SUB AND PUSH1 0x2 SWAP1 DIV DUP1 PUSH1 0x1F ADD PUSH1 0x20 DUP1 SWAP2 DIV MUL PUSH1 0x20 ADD PUSH1 0x40 MLOAD SWAP1 DUP2 ADD PUSH1 0x40 MSTORE DUP1 SWAP3 SWAP2 SWAP1 DUP2 DUP2 MSTORE PUSH1 0x20 ADD DUP3 DUP1 SLOAD PUSH1 0x1 DUP2 PUSH1 0x1 AND ISZERO PUSH2 0x100 MUL SUB AND PUSH1 0x2 SWAP1 DIV DUP1 ISZERO PUSH2 0xE0B JUMPI DUP1 PUSH1 0x1F LT PUSH2 0xDE0 JUMPI PUSH2 0x100 DUP1 DUP4 SLOAD DIV MUL DUP4 MSTORE SWAP2 PUSH1 0x20 ADD SWAP2 PUSH2 0xE0B JUMP JUMPDEST DUP3 ADD SWAP2 SWAP1 PUSH1 0x0 MSTORE PUSH1 0x20 PUSH1 0x0 KECCAK256 SWAP1 JUMPDEST DUP2 SLOAD DUP2 MSTORE SWAP1 PUSH1 0x1 ADD SWAP1 PUSH1 0x20 ADD DUP1 DUP4 GT PUSH2 0xDEE JUMPI DUP3 SWAP1 SUB PUSH1 0x1F AND DUP3 ADD SWAP2 JUMPDEST POP POP POP POP POP SWAP1 DUP1 PUSH1 0x2 ADD SLOAD SWAP1 POP DUP4 JUMP JUMPDEST PUSH1 0x60 PUSH1 0x14 DUP4 DUP4 PUSH1 0x40 MLOAD PUSH2 0xE2F SWAP3 SWAP2 SWAP1 PUSH2 0x3213 JUMP JUMPDEST SWAP1 DUP2 MSTORE PUSH1 0x40 DUP1 MLOAD SWAP2 DUP3 SWAP1 SUB PUSH1 0x20 SWAP1 DUP2 ADD DUP4 KECCAK256 DUP1 SLOAD DUP1 DUP4 MUL DUP6 ADD DUP4 ADD SWAP1 SWAP4 MSTORE DUP3 DUP5 MSTORE SWAP2 SWAP1 DUP4 ADD DUP3 DUP3 DUP1 ISZERO PUSH2 0xE81 JUMPI PUSH1 0x20 MUL DUP3 ADD SWAP2 SWAP1 PUSH1 0x0 MSTORE PUSH1 0x20 PUSH1 0x0 KECCAK256 SWAP1 JUMPDEST DUP2 SLOAD DUP2 MSTORE PUSH1 0x20 ADD SWAP1 PUSH1 0x1 ADD SWAP1 DUP1 DUP4 GT PUSH2 0xE6D JUMPI JUMPDEST POP POP POP POP POP SWAP1 POP JUMPDEST SWAP3 SWAP2 POP POP JUMP JUMPDEST PUSH1 0x60 PUSH1 0x10 DUP4 DUP4 PUSH1 0x40 MLOAD PUSH2 0xE2F SWAP3 SWAP2 SWAP1 PUSH2 0x3213 JUMP JUMPDEST PUSH1 0x17 PUSH1 0x20 SWAP1 DUP2 MSTORE PUSH1 0x0 SWAP2 DUP3 MSTORE PUSH1 0x40 SWAP2 DUP3 SWAP1 KECCAK256 DUP1 SLOAD DUP4 MLOAD PUSH1 0x1F PUSH1 0x2 PUSH1 0x0 NOT PUSH2 0x100 PUSH1 0x1 DUP7 AND ISZERO MUL ADD SWAP1 SWAP4 AND SWAP3 SWAP1 SWAP3 DIV SWAP2 DUP3 ADD DUP5 SWAP1 DIV DUP5 MUL DUP2 ADD DUP5 ADD SWAP1 SWAP5 MSTORE DUP1 DUP5 MSTORE SWAP1 SWAP3 SWAP2 DUP4 SWAP2 SWAP1 DUP4 ADD DUP3 DUP3 DUP1 ISZERO PUSH2 0xD6D JUMPI DUP1 PUSH1 0x1F LT PUSH2 0xD42 JUMPI PUSH2 0x100 DUP1 DUP4 SLOAD DIV MUL DUP4 MSTORE SWAP2 PUSH1 0x20 ADD SWAP2 PUSH2 0xD6D JUMP JUMPDEST PUSH1 0x1F SLOAD PUSH1 0x1 PUSH1 0x1 PUSH1 0xA0 SHL SUB AND CALLER EQ PUSH2 0xF26 JUMPI PUSH1 0x0 DUP1 REVERT JUMPDEST DUP1 PUSH1 0xD DUP4 PUSH1 0x40 MLOAD PUSH2 0xF37 SWAP2 SWAP1 PUSH2 0x3223 JUMP JUMPDEST SWAP1 DUP2 MSTORE PUSH1 0x20 ADD PUSH1 0x40 MLOAD DUP1 SWAP2 SUB SWAP1 KECCAK256 SLOAD LT ISZERO PUSH2 0xF64 JUMPI PUSH1 0x40 MLOAD PUSH3 0x461BCD PUSH1 0xE5 SHL DUP2 MSTORE PUSH1 0x4 ADD PUSH2 0x8C5 SWAP1 PUSH2 0x370D JUMP JUMPDEST DUP1 PUSH1 0xD DUP4 PUSH1 0x40 MLOAD PUSH2 0xF75 SWAP2 SWAP1 PUSH2 0x3223 JUMP JUMPDEST SWAP1 DUP2 MSTORE PUSH1 0x40 MLOAD SWAP1 DUP2 SWAP1 SUB PUSH1 0x20 ADD SWAP1 KECCAK256 DUP1 SLOAD SWAP2 SWAP1 SWAP2 SUB SWAP1 SSTORE POP POP JUMP JUMPDEST PUSH1 0xB PUSH1 0x20 MSTORE PUSH1 0x0 SWAP1 DUP2 MSTORE PUSH1 0x40 SWAP1 KECCAK256 SLOAD DUP2 JUMP JUMPDEST PUSH2 0xFAA PUSH2 0x24A0 JUMP JUMPDEST PUSH1 0x0 SLOAD PUSH1 0x1 PUSH1 0x1 PUSH1 0xA0 SHL SUB SWAP1 DUP2 AND SWAP2 AND EQ PUSH2 0xFD7 JUMPI PUSH1 0x40 MLOAD PUSH3 0x461BCD PUSH1 0xE5 SHL DUP2 MSTORE PUSH1 0x4 ADD PUSH2 0x8C5 SWAP1 PUSH2 0x3792 JUMP JUMPDEST PUSH1 0x1E DUP1 SLOAD PUSH1 0x1 PUSH1 0x1 PUSH1 0xA0 SHL SUB NOT AND PUSH1 0x1 PUSH1 0x1 PUSH1 0xA0 SHL SUB SWAP3 SWAP1 SWAP3 AND SWAP2 SWAP1 SWAP2 OR SWAP1 SSTORE JUMP JUMPDEST PUSH1 0x7 SLOAD PUSH1 0x1 PUSH1 0x1 PUSH1 0xA0 SHL SUB SWAP1 DUP2 AND SWAP2 AND EQ SWAP1 JUMP JUMPDEST PUSH1 0x0 DUP2 DUP2 MSTORE PUSH1 0x6 PUSH1 0x20 MSTORE PUSH1 0x40 SWAP1 KECCAK256 SLOAD DUP2 SWAP1 PUSH1 0x1 PUSH1 0x1 PUSH1 0xA0 SHL SUB AND CALLER EQ PUSH2 0x1045 JUMPI PUSH1 0x40 MLOAD PUSH3 0x461BCD PUSH1 0xE5 SHL DUP2 MSTORE PUSH1 0x4 ADD PUSH2 0x8C5 SWAP1 PUSH2 0x3908 JUMP JUMPDEST PUSH1 0x0 DUP2 DUP2 MSTORE PUSH1 0x6 PUSH1 0x20 MSTORE PUSH1 0x40 DUP1 DUP3 KECCAK256 DUP1 SLOAD PUSH1 0x1 PUSH1 0x1 PUSH1 0xA0 SHL SUB NOT AND SWAP1 SSTORE MLOAD DUP3 SWAP2 PUSH32 0x7CC135E0CEBB02C3480AE5D74D377283180A2601F8F644EDF7987B009316C63A SWAP2 LOG2 PUSH1 0x0 DUP3 DUP2 MSTORE PUSH1 0x17 PUSH1 0x20 MSTORE PUSH1 0x40 SWAP1 KECCAK256 PUSH1 0x2 ADD SLOAD PUSH1 0x1 EQ PUSH2 0x10B9 JUMPI PUSH1 0x40 MLOAD PUSH3 0x461BCD PUSH1 0xE5 SHL DUP2 MSTORE PUSH1 0x4 ADD PUSH2 0x8C5 SWAP1 PUSH2 0x3864 JUMP JUMPDEST PUSH1 0x0 DUP3 DUP2 MSTORE PUSH1 0x17 PUSH1 0x20 MSTORE PUSH1 0x40 SWAP1 DUP2 SWAP1 KECCAK256 PUSH1 0x2 DUP2 DUP2 ADD SSTORE SWAP1 MLOAD PUSH1 0x16 SWAP2 PUSH2 0x10E3 SWAP2 PUSH1 0x1 SWAP1 SWAP2 ADD SWAP1 PUSH2 0x31E5 JUMP JUMPDEST SWAP1 DUP2 MSTORE PUSH1 0x40 DUP1 MLOAD SWAP2 DUP3 SWAP1 SUB PUSH1 0x20 SWAP1 DUP2 ADD DUP4 KECCAK256 SLOAD PUSH1 0x0 DUP7 DUP2 MSTORE PUSH1 0x17 SWAP1 SWAP3 MSTORE SWAP2 SWAP1 KECCAK256 SWAP1 SWAP2 PUSH1 0xD SWAP2 PUSH2 0x1111 SWAP2 PUSH2 0x31E5 JUMP JUMPDEST SWAP1 DUP2 MSTORE PUSH1 0x40 DUP1 MLOAD PUSH1 0x20 SWAP3 DUP2 SWAP1 SUB DUP4 ADD DUP2 KECCAK256 DUP1 SLOAD SWAP5 SWAP1 SWAP5 ADD SWAP1 SWAP4 SSTORE PUSH1 0x0 DUP6 DUP2 MSTORE PUSH1 0x17 SWAP1 SWAP3 MSTORE SWAP1 KECCAK256 PUSH32 0x982AB3ED562795C652DF6267E3375F911BDA7BE583569DD2D2F704389EE5FC41 SWAP2 PUSH2 0x1167 SWAP2 PUSH1 0x1 DUP2 ADD SWAP2 PUSH2 0x341A JUMP JUMPDEST PUSH1 0x40 MLOAD DUP1 SWAP2 SUB SWAP1 LOG1 POP POP JUMP JUMPDEST PUSH1 0x0 DUP2 DUP2 MSTORE PUSH1 0xF PUSH1 0x20 MSTORE PUSH1 0x40 SWAP1 KECCAK256 SLOAD PUSH1 0x1 PUSH1 0x1 PUSH1 0xA0 SHL SUB AND CALLER EQ PUSH2 0x11A9 JUMPI PUSH1 0x40 MLOAD PUSH3 0x461BCD PUSH1 0xE5 SHL DUP2 MSTORE PUSH1 0x4 ADD PUSH2 0x8C5 SWAP1 PUSH2 0x343F JUMP JUMPDEST PUSH2 0x11B3 DUP2 CALLER PUSH2 0x2631 JUMP JUMPDEST POP JUMP JUMPDEST PUSH1 0x15 PUSH1 0x20 MSTORE DUP2 PUSH1 0x0 MSTORE PUSH1 0x40 PUSH1 0x0 KECCAK256 DUP2 DUP2 SLOAD DUP2 LT PUSH2 0x7FB JUMPI INVALID JUMPDEST PUSH2 0x11D7 PUSH2 0x2C4E JUMP JUMPDEST PUSH2 0x11E9 DUP4 ADDRESS PUSH4 0xEF9E12F PUSH1 0xE2 SHL PUSH2 0x24AF JUMP JUMPDEST PUSH1 0x40 DUP1 MLOAD DUP1 DUP3 ADD SWAP1 SWAP2 MSTORE PUSH1 0xA DUP2 MSTORE PUSH10 0x33B4BA343AB12AB9B2B9 PUSH1 0xB1 SHL PUSH1 0x20 DUP3 ADD MSTORE SWAP1 SWAP2 POP PUSH2 0x1219 SWAP1 DUP3 SWAP1 DUP5 PUSH2 0x24D4 JUMP JUMPDEST PUSH2 0x1257 PUSH1 0x40 MLOAD DUP1 PUSH1 0x40 ADD PUSH1 0x40 MSTORE DUP1 PUSH1 0xA DUP2 MSTORE PUSH1 0x20 ADD PUSH10 0x65746841646472657373 PUSH1 0xB0 SHL DUP2 MSTORE POP PUSH2 0x124F PUSH2 0x124A PUSH2 0x24A0 JUMP JUMPDEST PUSH2 0x27A9 JUMP JUMPDEST DUP4 SWAP2 SWAP1 PUSH2 0x24D4 JUMP JUMPDEST PUSH1 0x0 PUSH2 0x1266 DUP6 DUP4 PUSH1 0x20 SLOAD PUSH2 0x24F2 JUMP JUMPDEST SWAP1 POP PUSH1 0x40 MLOAD DUP1 PUSH1 0x60 ADD PUSH1 0x40 MSTORE DUP1 DUP5 DUP2 MSTORE PUSH1 0x20 ADD PUSH2 0x1281 PUSH2 0x24A0 JUMP JUMPDEST PUSH1 0x1 PUSH1 0x1 PUSH1 0xA0 SHL SUB AND DUP2 MSTORE PUSH1 0x1 PUSH1 0x20 SWAP2 DUP3 ADD MSTORE PUSH1 0x0 DUP4 DUP2 MSTORE PUSH1 0xA DUP3 MSTORE PUSH1 0x40 SWAP1 KECCAK256 DUP3 MLOAD DUP1 MLOAD SWAP2 SWAP3 PUSH2 0x12B6 SWAP3 DUP5 SWAP3 SWAP1 SWAP2 ADD SWAP1 PUSH2 0x2C83 JUMP JUMPDEST POP PUSH1 0x20 DUP3 ADD MLOAD PUSH1 0x1 SWAP1 SWAP2 ADD DUP1 SLOAD PUSH1 0x40 SWAP1 SWAP4 ADD MLOAD PUSH1 0xFF AND PUSH1 0x1 PUSH1 0xA0 SHL MUL PUSH1 0xFF PUSH1 0xA0 SHL NOT PUSH1 0x1 PUSH1 0x1 PUSH1 0xA0 SHL SUB SWAP1 SWAP4 AND PUSH1 0x1 PUSH1 0x1 PUSH1 0xA0 SHL SUB NOT SWAP1 SWAP5 AND SWAP4 SWAP1 SWAP4 OR SWAP2 SWAP1 SWAP2 AND SWAP2 SWAP1 SWAP2 OR SWAP1 SSTORE POP POP POP POP POP JUMP JUMPDEST PUSH1 0x11 PUSH1 0x20 MSTORE DUP2 PUSH1 0x0 MSTORE PUSH1 0x40 PUSH1 0x0 KECCAK256 DUP2 DUP2 SLOAD DUP2 LT PUSH2 0x7FB JUMPI INVALID JUMPDEST PUSH2 0x1325 PUSH2 0x24A0 JUMP JUMPDEST PUSH1 0x0 SLOAD PUSH1 0x1 PUSH1 0x1 PUSH1 0xA0 SHL SUB SWAP1 DUP2 AND SWAP2 AND EQ PUSH2 0x1352 JUMPI PUSH1 0x40 MLOAD PUSH3 0x461BCD PUSH1 0xE5 SHL DUP2 MSTORE PUSH1 0x4 ADD PUSH2 0x8C5 SWAP1 PUSH2 0x3792 JUMP JUMPDEST PUSH1 0x0 DUP1 SLOAD PUSH1 0x40 MLOAD PUSH1 0x1 PUSH1 0x1 PUSH1 0xA0 SHL SUB SWAP1 SWAP2 AND SWAP1 PUSH32 0x8BE0079C531659141344CD1FD0A4F28419497F9722A3DAAFE3B4186F6B6457E0 SWAP1 DUP4 SWAP1 LOG3 PUSH1 0x0 DUP1 SLOAD PUSH1 0x1 PUSH1 0x1 PUSH1 0xA0 SHL SUB NOT AND SWAP1 SSTORE JUMP JUMPDEST DUP2 MLOAD PUSH1 0x20 DUP2 DUP5 ADD DUP2 ADD DUP1 MLOAD PUSH1 0x10 DUP3 MSTORE SWAP3 DUP3 ADD SWAP2 DUP6 ADD SWAP2 SWAP1 SWAP2 KECCAK256 SWAP2 SWAP1 MSTORE DUP1 SLOAD DUP3 SWAP1 DUP2 LT PUSH2 0x7FB JUMPI INVALID JUMPDEST PUSH1 0x7 SLOAD PUSH1 0x1 PUSH1 0x1 PUSH1 0xA0 SHL SUB AND DUP2 JUMP JUMPDEST PUSH1 0x0 DUP2 DUP2 MSTORE PUSH1 0x12 PUSH1 0x20 MSTORE PUSH1 0x40 SWAP1 KECCAK256 SLOAD PUSH1 0x1 PUSH1 0x1 PUSH1 0xA0 SHL SUB AND CALLER EQ PUSH2 0x1409 JUMPI PUSH1 0x40 MLOAD PUSH3 0x461BCD PUSH1 0xE5 SHL DUP2 MSTORE PUSH1 0x4 ADD PUSH2 0x8C5 SWAP1 PUSH2 0x37FC JUMP JUMPDEST PUSH1 0x0 DUP2 DUP2 MSTORE PUSH1 0x12 PUSH1 0x20 MSTORE PUSH1 0x40 SWAP1 DUP2 SWAP1 KECCAK256 PUSH1 0x1 DUP2 ADD SLOAD SWAP2 MLOAD PUSH1 0x16 SWAP2 PUSH2 0x1432 SWAP2 PUSH1 0x2 SWAP1 SWAP2 ADD SWAP1 PUSH2 0x31E5 JUMP JUMPDEST SWAP1 DUP2 MSTORE PUSH1 0x20 ADD PUSH1 0x40 MLOAD DUP1 SWAP2 SUB SWAP1 KECCAK256 SLOAD LT ISZERO PUSH2 0x145F JUMPI PUSH1 0x40 MLOAD PUSH3 0x461BCD PUSH1 0xE5 SHL DUP2 MSTORE PUSH1 0x4 ADD PUSH2 0x8C5 SWAP1 PUSH2 0x3744 JUMP JUMPDEST PUSH1 0x0 DUP2 DUP2 MSTORE PUSH1 0x12 PUSH1 0x20 MSTORE PUSH1 0x40 DUP1 DUP3 KECCAK256 PUSH1 0x1 ADD SLOAD SWAP1 MLOAD CALLER SWAP3 DUP3 ISZERO PUSH2 0x8FC MUL SWAP3 SWAP2 SWAP1 DUP2 DUP2 DUP2 DUP6 DUP9 DUP9 CALL SWAP4 POP POP POP POP ISZERO DUP1 ISZERO PUSH2 0x149C JUMPI RETURNDATASIZE PUSH1 0x0 DUP1 RETURNDATACOPY RETURNDATASIZE PUSH1 0x0 REVERT JUMPDEST POP PUSH1 0x0 DUP2 DUP2 MSTORE PUSH1 0x12 PUSH1 0x20 MSTORE PUSH1 0x40 SWAP1 DUP2 SWAP1 KECCAK256 PUSH1 0x1 DUP2 ADD SLOAD SWAP2 MLOAD PUSH1 0x16 SWAP2 PUSH2 0x14C6 SWAP2 PUSH1 0x2 SWAP1 SWAP2 ADD SWAP1 PUSH2 0x31E5 JUMP JUMPDEST SWAP1 DUP2 MSTORE PUSH1 0x40 DUP1 MLOAD PUSH1 0x20 SWAP3 DUP2 SWAP1 SUB DUP4 ADD SWAP1 KECCAK256 DUP1 SLOAD SWAP4 SWAP1 SWAP4 SUB SWAP1 SWAP3 SSTORE PUSH1 0x0 DUP4 DUP2 MSTORE PUSH1 0x12 SWAP1 SWAP2 MSTORE SWAP1 DUP2 KECCAK256 DUP1 SLOAD PUSH1 0x1 PUSH1 0x1 PUSH1 0xA0 SHL SUB NOT AND DUP2 SSTORE PUSH1 0x1 DUP2 ADD DUP3 SWAP1 SSTORE SWAP1 PUSH2 0x1510 PUSH1 0x2 DUP4 ADD DUP3 PUSH2 0x2D01 JUMP JUMPDEST POP POP POP JUMP JUMPDEST PUSH1 0x0 SLOAD PUSH1 0x1 PUSH1 0x1 PUSH1 0xA0 SHL SUB AND SWAP1 JUMP JUMPDEST CALLER PUSH1 0x0 DUP2 DUP2 MSTORE PUSH1 0xB PUSH1 0x20 SWAP1 DUP2 MSTORE PUSH1 0x40 DUP1 DUP4 KECCAK256 SLOAD DUP4 MSTORE PUSH1 0xA SWAP1 SWAP2 MSTORE SWAP1 KECCAK256 PUSH1 0x1 ADD SLOAD PUSH1 0x1 PUSH1 0x1 PUSH1 0xA0 SHL SUB AND EQ PUSH2 0x156A JUMPI PUSH1 0x40 MLOAD PUSH3 0x461BCD PUSH1 0xE5 SHL DUP2 MSTORE PUSH1 0x4 ADD PUSH2 0x8C5 SWAP1 PUSH2 0x38AB JUMP JUMPDEST CALLER PUSH1 0x0 SWAP1 DUP2 MSTORE PUSH1 0xB PUSH1 0x20 SWAP1 DUP2 MSTORE PUSH1 0x40 DUP1 DUP4 KECCAK256 SLOAD DUP4 MSTORE PUSH1 0xA SWAP1 SWAP2 MSTORE SWAP1 DUP2 SWAP1 KECCAK256 SWAP1 MLOAD PUSH2 0x1594 SWAP2 SWAP1 PUSH2 0x31E5 JUMP JUMPDEST PUSH1 0x40 MLOAD DUP1 SWAP2 SUB SWAP1 KECCAK256 PUSH1 0x17 PUSH1 0x0 PUSH1 0x18 DUP6 DUP6 PUSH1 0x40 MLOAD PUSH2 0x15B2 SWAP3 SWAP2 SWAP1 PUSH2 0x3213 JUMP JUMPDEST SWAP1 DUP2 MSTORE PUSH1 0x20 ADD PUSH1 0x40 MLOAD DUP1 SWAP2 SUB SWAP1 KECCAK256 SLOAD DUP2 MSTORE PUSH1 0x20 ADD SWAP1 DUP2 MSTORE PUSH1 0x20 ADD PUSH1 0x0 KECCAK256 PUSH1 0x0 ADD PUSH1 0x40 MLOAD PUSH2 0x15DF SWAP2 SWAP1 PUSH2 0x31E5 JUMP JUMPDEST PUSH1 0x40 MLOAD DUP1 SWAP2 SUB SWAP1 KECCAK256 EQ PUSH2 0x1604 JUMPI PUSH1 0x40 MLOAD PUSH3 0x461BCD PUSH1 0xE5 SHL DUP2 MSTORE PUSH1 0x4 ADD PUSH2 0x8C5 SWAP1 PUSH2 0x3950 JUMP JUMPDEST PUSH1 0x0 PUSH1 0x16 DUP4 DUP4 PUSH1 0x40 MLOAD PUSH2 0x1618 SWAP3 SWAP2 SWAP1 PUSH2 0x3213 JUMP JUMPDEST SWAP1 DUP2 MSTORE PUSH1 0x20 ADD PUSH1 0x40 MLOAD DUP1 SWAP2 SUB SWAP1 KECCAK256 SLOAD GT PUSH2 0x1644 JUMPI PUSH1 0x40 MLOAD PUSH3 0x461BCD PUSH1 0xE5 SHL DUP2 MSTORE PUSH1 0x4 ADD PUSH2 0x8C5 SWAP1 PUSH2 0x3632 JUMP JUMPDEST CALLER PUSH1 0x1 PUSH1 0x1 PUSH1 0xA0 SHL SUB AND PUSH2 0x8FC PUSH1 0x16 DUP5 DUP5 PUSH1 0x40 MLOAD PUSH2 0x1663 SWAP3 SWAP2 SWAP1 PUSH2 0x3213 JUMP JUMPDEST SWAP1 DUP2 MSTORE PUSH1 0x40 MLOAD SWAP1 DUP2 SWAP1 SUB PUSH1 0x20 ADD DUP2 KECCAK256 SLOAD DUP1 ISZERO SWAP1 SWAP3 MUL SWAP2 SWAP1 PUSH1 0x0 DUP2 DUP2 DUP2 DUP6 DUP9 DUP9 CALL SWAP4 POP POP POP POP ISZERO DUP1 ISZERO PUSH2 0x1699 JUMPI RETURNDATASIZE PUSH1 0x0 DUP1 RETURNDATACOPY RETURNDATASIZE PUSH1 0x0 REVERT JUMPDEST POP PUSH1 0x16 DUP3 DUP3 PUSH1 0x40 MLOAD PUSH2 0x16AC SWAP3 SWAP2 SWAP1 PUSH2 0x3213 JUMP JUMPDEST SWAP1 DUP2 MSTORE PUSH1 0x40 DUP1 MLOAD SWAP2 DUP3 SWAP1 SUB PUSH1 0x20 SWAP1 DUP2 ADD DUP4 KECCAK256 SLOAD CALLER PUSH1 0x0 SWAP1 DUP2 MSTORE PUSH1 0xB DUP4 MSTORE DUP4 DUP2 KECCAK256 SLOAD DUP2 MSTORE PUSH1 0xA SWAP1 SWAP3 MSTORE SWAP2 SWAP1 KECCAK256 SWAP1 SWAP2 PUSH1 0xD SWAP2 PUSH2 0x16E5 SWAP2 PUSH2 0x31E5 JUMP JUMPDEST SWAP1 DUP2 MSTORE PUSH1 0x40 MLOAD SWAP1 DUP2 SWAP1 SUB PUSH1 0x20 ADD DUP2 KECCAK256 DUP1 SLOAD SWAP3 SWAP1 SWAP3 SUB SWAP1 SWAP2 SSTORE PUSH1 0x0 SWAP1 PUSH1 0x16 SWAP1 PUSH2 0x1710 SWAP1 DUP6 SWAP1 DUP6 SWAP1 PUSH2 0x3213 JUMP JUMPDEST SWAP1 DUP2 MSTORE PUSH1 0x40 MLOAD SWAP1 DUP2 SWAP1 SUB PUSH1 0x20 ADD SWAP1 KECCAK256 SSTORE POP POP JUMP JUMPDEST PUSH1 0x0 CALLVALUE GT PUSH2 0x1744 JUMPI PUSH1 0x40 MLOAD PUSH3 0x461BCD PUSH1 0xE5 SHL DUP2 MSTORE PUSH1 0x4 ADD PUSH2 0x8C5 SWAP1 PUSH2 0x39D3 JUMP JUMPDEST PUSH2 0x174C PUSH2 0x2D45 JUMP JUMPDEST PUSH1 0xA PUSH1 0x0 PUSH1 0xC DUP6 DUP6 PUSH1 0x40 MLOAD PUSH2 0x1762 SWAP3 SWAP2 SWAP1 PUSH2 0x3213 JUMP JUMPDEST SWAP1 DUP2 MSTORE PUSH1 0x40 DUP1 MLOAD PUSH1 0x20 SWAP3 DUP2 SWAP1 SUB DUP4 ADD SWAP1 KECCAK256 SLOAD DUP4 MSTORE DUP3 DUP3 ADD SWAP4 SWAP1 SWAP4 MSTORE SWAP1 DUP3 ADD PUSH1 0x0 KECCAK256 DUP3 MLOAD DUP2 SLOAD PUSH1 0x2 PUSH1 0x1 DUP3 AND ISZERO PUSH2 0x100 MUL PUSH1 0x0 NOT ADD SWAP1 SWAP2 AND DIV PUSH1 0x1F DUP2 ADD DUP5 SWAP1 DIV SWAP1 SWAP4 MUL DUP2 ADD PUSH1 0x80 SWAP1 DUP2 ADD SWAP1 SWAP5 MSTORE PUSH1 0x60 DUP2 ADD DUP4 DUP2 MSTORE SWAP1 SWAP4 SWAP2 SWAP3 DUP5 SWAP3 DUP5 SWAP2 SWAP1 DUP5 ADD DUP3 DUP3 DUP1 ISZERO PUSH2 0x180F JUMPI DUP1 PUSH1 0x1F LT PUSH2 0x17E4 JUMPI PUSH2 0x100 DUP1 DUP4 SLOAD DIV MUL DUP4 MSTORE SWAP2 PUSH1 0x20 ADD SWAP2 PUSH2 0x180F JUMP JUMPDEST DUP3 ADD SWAP2 SWAP1 PUSH1 0x0 MSTORE PUSH1 0x20 PUSH1 0x0 KECCAK256 SWAP1 JUMPDEST DUP2 SLOAD DUP2 MSTORE SWAP1 PUSH1 0x1 ADD SWAP1 PUSH1 0x20 ADD DUP1 DUP4 GT PUSH2 0x17F2 JUMPI DUP3 SWAP1 SUB PUSH1 0x1F AND DUP3 ADD SWAP2 JUMPDEST POP POP POP SWAP2 DUP4 MSTORE POP POP PUSH1 0x1 SWAP2 SWAP1 SWAP2 ADD SLOAD PUSH1 0x1 PUSH1 0x1 PUSH1 0xA0 SHL SUB DUP1 DUP3 AND PUSH1 0x20 DUP1 DUP6 ADD SWAP2 SWAP1 SWAP2 MSTORE PUSH1 0x1 PUSH1 0xA0 SHL SWAP1 SWAP3 DIV PUSH1 0xFF AND PUSH1 0x40 SWAP1 SWAP4 ADD SWAP3 SWAP1 SWAP3 MSTORE DUP3 ADD MLOAD SWAP2 SWAP3 POP AND ISZERO DUP1 ISZERO SWAP1 PUSH2 0x1862 JUMPI POP DUP1 PUSH1 0x40 ADD MLOAD PUSH1 0xFF AND PUSH1 0x2 EQ JUMPDEST ISZERO PUSH2 0x192C JUMPI PUSH1 0xA PUSH1 0x0 PUSH1 0xC DUP6 DUP6 PUSH1 0x40 MLOAD PUSH2 0x187D SWAP3 SWAP2 SWAP1 PUSH2 0x3213 JUMP JUMPDEST SWAP1 DUP2 MSTORE PUSH1 0x20 ADD PUSH1 0x40 MLOAD DUP1 SWAP2 SUB SWAP1 KECCAK256 SLOAD DUP2 MSTORE PUSH1 0x20 ADD SWAP1 DUP2 MSTORE PUSH1 0x20 ADD PUSH1 0x0 KECCAK256 PUSH1 0x1 ADD PUSH1 0x0 SWAP1 SLOAD SWAP1 PUSH2 0x100 EXP SWAP1 DIV PUSH1 0x1 PUSH1 0x1 PUSH1 0xA0 SHL SUB AND PUSH1 0x1 PUSH1 0x1 PUSH1 0xA0 SHL SUB AND PUSH2 0x8FC CALLVALUE SWAP1 DUP2 ISZERO MUL SWAP1 PUSH1 0x40 MLOAD PUSH1 0x0 PUSH1 0x40 MLOAD DUP1 DUP4 SUB DUP2 DUP6 DUP9 DUP9 CALL SWAP4 POP POP POP POP ISZERO DUP1 ISZERO PUSH2 0x18E9 JUMPI RETURNDATASIZE PUSH1 0x0 DUP1 RETURNDATACOPY RETURNDATASIZE PUSH1 0x0 REVERT JUMPDEST POP PUSH32 0x55BA5E513AC5C832C73696B2BAC8EFC4FA9FCAC62091A294EC672803704481D5 CALLER CALLVALUE DUP6 DUP6 PUSH1 0x40 MLOAD PUSH2 0x191F SWAP5 SWAP4 SWAP3 SWAP2 SWAP1 PUSH2 0x3253 JUMP JUMPDEST PUSH1 0x40 MLOAD DUP1 SWAP2 SUB SWAP1 LOG1 PUSH2 0x1510 JUMP JUMPDEST PUSH1 0xE DUP1 SLOAD PUSH1 0x1 ADD SWAP1 SSTORE PUSH1 0x40 DUP1 MLOAD PUSH1 0x60 DUP2 ADD DUP3 MSTORE CALLER DUP2 MSTORE CALLVALUE PUSH1 0x20 DUP1 DUP4 ADD SWAP2 SWAP1 SWAP2 MSTORE DUP3 MLOAD PUSH1 0x1F DUP7 ADD DUP3 SWAP1 DIV DUP3 MUL DUP2 ADD DUP3 ADD DUP5 MSTORE DUP6 DUP2 MSTORE SWAP2 SWAP3 DUP4 ADD SWAP2 SWAP1 DUP7 SWAP1 DUP7 SWAP1 DUP2 SWAP1 DUP5 ADD DUP4 DUP3 DUP1 DUP3 DUP5 CALLDATACOPY PUSH1 0x0 SWAP3 ADD DUP3 SWAP1 MSTORE POP SWAP4 SWAP1 SWAP5 MSTORE POP POP PUSH1 0xE SLOAD DUP2 MSTORE PUSH1 0xF PUSH1 0x20 SWAP1 DUP2 MSTORE PUSH1 0x40 SWAP2 DUP3 SWAP1 KECCAK256 DUP5 MLOAD DUP2 SLOAD PUSH1 0x1 PUSH1 0x1 PUSH1 0xA0 SHL SUB NOT AND PUSH1 0x1 PUSH1 0x1 PUSH1 0xA0 SHL SUB SWAP1 SWAP2 AND OR DUP2 SSTORE DUP5 DUP3 ADD MLOAD PUSH1 0x1 DUP3 ADD SSTORE SWAP2 DUP5 ADD MLOAD DUP1 MLOAD SWAP3 SWAP4 POP PUSH2 0x19D5 SWAP3 PUSH1 0x2 DUP6 ADD SWAP3 SWAP2 SWAP1 SWAP2 ADD SWAP1 PUSH2 0x2C83 JUMP JUMPDEST POP SWAP1 POP POP PUSH1 0x10 DUP4 DUP4 PUSH1 0x40 MLOAD PUSH2 0x19EB SWAP3 SWAP2 SWAP1 PUSH2 0x3213 JUMP JUMPDEST SWAP1 DUP2 MSTORE PUSH1 0x40 DUP1 MLOAD SWAP2 DUP3 SWAP1 SUB PUSH1 0x20 SWAP1 DUP2 ADD DUP4 KECCAK256 PUSH1 0xE DUP1 SLOAD DUP3 SLOAD PUSH1 0x1 DUP2 DUP2 ADD DUP6 SSTORE PUSH1 0x0 SWAP5 DUP6 MSTORE DUP6 DUP6 KECCAK256 SWAP1 SWAP2 ADD SWAP2 SWAP1 SWAP2 SSTORE CALLER DUP4 MSTORE PUSH1 0x11 DUP5 MSTORE SWAP4 DUP3 KECCAK256 SWAP1 SLOAD DUP2 SLOAD SWAP5 DUP6 ADD DUP3 SSTORE SWAP1 DUP3 MSTORE SWAP2 SWAP1 KECCAK256 SWAP1 SWAP2 ADD SSTORE CALLVALUE SWAP1 PUSH1 0xD SWAP1 PUSH2 0x1A48 SWAP1 DUP7 SWAP1 DUP7 SWAP1 PUSH2 0x3213 JUMP JUMPDEST SWAP1 DUP2 MSTORE PUSH1 0x40 MLOAD SWAP1 DUP2 SWAP1 SUB PUSH1 0x20 ADD DUP2 KECCAK256 DUP1 SLOAD SWAP1 SWAP3 ADD SWAP1 SWAP2 SSTORE PUSH32 0x406551011D3A3874D102C2EE25ADB004ADB6D90A8134F04C14BD02F73AD4A3D0 SWAP1 PUSH2 0x1A92 SWAP1 CALLER SWAP1 CALLVALUE SWAP1 DUP8 SWAP1 DUP8 SWAP1 PUSH2 0x3253 JUMP JUMPDEST PUSH1 0x40 MLOAD DUP1 SWAP2 SUB SWAP1 LOG1 POP POP POP JUMP JUMPDEST DUP1 MLOAD PUSH1 0x20 DUP2 DUP4 ADD DUP2 ADD DUP1 MLOAD PUSH1 0x18 DUP3 MSTORE SWAP3 DUP3 ADD SWAP2 SWAP1 SWAP4 ADD KECCAK256 SWAP2 MSTORE SLOAD DUP2 JUMP JUMPDEST PUSH1 0x19 PUSH1 0x0 PUSH1 0x1A DUP5 PUSH1 0x40 MLOAD PUSH2 0x1AD0 SWAP2 SWAP1 PUSH2 0x3223 JUMP JUMPDEST SWAP1 DUP2 MSTORE PUSH1 0x20 ADD PUSH1 0x40 MLOAD DUP1 SWAP2 SUB SWAP1 KECCAK256 SLOAD DUP2 MSTORE PUSH1 0x20 ADD SWAP1 DUP2 MSTORE PUSH1 0x20 ADD PUSH1 0x0 KECCAK256 PUSH1 0x2 ADD SLOAD PUSH1 0x2 EQ ISZERO PUSH2 0x1B11 JUMPI PUSH1 0x40 MLOAD PUSH3 0x461BCD PUSH1 0xE5 SHL DUP2 MSTORE PUSH1 0x4 ADD PUSH2 0x8C5 SWAP1 PUSH2 0x34D0 JUMP JUMPDEST PUSH1 0xA PUSH1 0x0 PUSH1 0xC DUP4 PUSH1 0x40 MLOAD PUSH2 0x1B25 SWAP2 SWAP1 PUSH2 0x3223 JUMP JUMPDEST SWAP1 DUP2 MSTORE PUSH1 0x20 ADD PUSH1 0x40 MLOAD DUP1 SWAP2 SUB SWAP1 KECCAK256 SLOAD DUP2 MSTORE PUSH1 0x20 ADD SWAP1 DUP2 MSTORE PUSH1 0x20 ADD PUSH1 0x0 KECCAK256 PUSH1 0x1 ADD PUSH1 0x14 SWAP1 SLOAD SWAP1 PUSH2 0x100 EXP SWAP1 DIV PUSH1 0xFF AND PUSH1 0xFF AND PUSH1 0x2 EQ PUSH2 0x1B75 JUMPI PUSH1 0x40 MLOAD PUSH3 0x461BCD PUSH1 0xE5 SHL DUP2 MSTORE PUSH1 0x4 ADD PUSH2 0x8C5 SWAP1 PUSH2 0x39FF JUMP JUMPDEST PUSH2 0x1B7D PUSH2 0x2C4E JUMP JUMPDEST PUSH2 0x1B8F DUP5 ADDRESS PUSH4 0xF0E31CF9 PUSH1 0xE0 SHL PUSH2 0x24AF JUMP JUMPDEST PUSH1 0x40 DUP1 MLOAD DUP1 DUP3 ADD SWAP1 SWAP2 MSTORE PUSH1 0xA DUP2 MSTORE PUSH10 0x33B4BA343AB12AB9B2B9 PUSH1 0xB1 SHL PUSH1 0x20 DUP3 ADD MSTORE SWAP1 SWAP2 POP PUSH2 0x1BBF SWAP1 DUP3 SWAP1 DUP5 PUSH2 0x24D4 JUMP JUMPDEST PUSH1 0x40 DUP1 MLOAD DUP1 DUP3 ADD SWAP1 SWAP2 MSTORE PUSH1 0x4 DUP2 MSTORE PUSH4 0x1C1C9259 PUSH1 0xE2 SHL PUSH1 0x20 DUP3 ADD MSTORE PUSH2 0x1BE6 SWAP1 DUP3 SWAP1 DUP6 PUSH2 0x24D4 JUMP JUMPDEST PUSH1 0x0 PUSH2 0x1BF5 DUP7 DUP4 PUSH1 0x21 SLOAD PUSH2 0x24F2 JUMP JUMPDEST PUSH1 0x40 DUP1 MLOAD PUSH1 0x60 DUP2 ADD DUP3 MSTORE DUP6 DUP2 MSTORE PUSH1 0x20 DUP1 DUP3 ADD DUP9 SWAP1 MSTORE PUSH1 0x1 DUP3 DUP5 ADD MSTORE PUSH1 0x0 DUP5 DUP2 MSTORE PUSH1 0x19 DUP3 MSTORE SWAP3 SWAP1 SWAP3 KECCAK256 DUP2 MLOAD DUP1 MLOAD SWAP5 SWAP6 POP SWAP2 SWAP4 SWAP1 SWAP3 PUSH2 0x1C36 SWAP3 DUP5 SWAP3 SWAP2 ADD SWAP1 PUSH2 0x2C83 JUMP JUMPDEST POP PUSH1 0x20 DUP3 DUP2 ADD MLOAD DUP1 MLOAD PUSH2 0x1C4F SWAP3 PUSH1 0x1 DUP6 ADD SWAP3 ADD SWAP1 PUSH2 0x2C83 JUMP JUMPDEST POP PUSH1 0x40 DUP3 ADD MLOAD DUP2 PUSH1 0x2 ADD SSTORE SWAP1 POP POP POP POP POP POP POP POP JUMP JUMPDEST CALLER PUSH1 0x0 DUP2 DUP2 MSTORE PUSH1 0xB PUSH1 0x20 SWAP1 DUP2 MSTORE PUSH1 0x40 DUP1 DUP4 KECCAK256 SLOAD DUP4 MSTORE PUSH1 0xA SWAP1 SWAP2 MSTORE SWAP1 KECCAK256 PUSH1 0x1 ADD SLOAD PUSH1 0x1 PUSH1 0x1 PUSH1 0xA0 SHL SUB AND EQ PUSH2 0x1CAB JUMPI PUSH1 0x40 MLOAD PUSH3 0x461BCD PUSH1 0xE5 SHL DUP2 MSTORE PUSH1 0x4 ADD PUSH2 0x8C5 SWAP1 PUSH2 0x3507 JUMP JUMPDEST CALLER PUSH1 0x0 SWAP1 DUP2 MSTORE PUSH1 0xB PUSH1 0x20 SWAP1 DUP2 MSTORE PUSH1 0x40 DUP1 DUP4 KECCAK256 SLOAD DUP4 MSTORE PUSH1 0xA SWAP1 SWAP2 MSTORE SWAP1 DUP2 SWAP1 KECCAK256 SWAP1 MLOAD PUSH2 0x1CD5 SWAP2 SWAP1 PUSH2 0x31E5 JUMP JUMPDEST PUSH1 0x40 DUP1 MLOAD SWAP2 DUP3 SWAP1 SUB DUP3 KECCAK256 PUSH1 0x0 DUP5 DUP2 MSTORE PUSH1 0xF PUSH1 0x20 MSTORE SWAP2 SWAP1 SWAP2 KECCAK256 SWAP1 SWAP2 PUSH2 0x1CFC SWAP2 PUSH1 0x2 ADD SWAP1 PUSH2 0x31E5 JUMP JUMPDEST PUSH1 0x40 MLOAD DUP1 SWAP2 SUB SWAP1 KECCAK256 EQ PUSH2 0x11A9 JUMPI PUSH1 0x40 MLOAD PUSH3 0x461BCD PUSH1 0xE5 SHL DUP2 MSTORE PUSH1 0x4 ADD PUSH2 0x8C5 SWAP1 PUSH2 0x3669 JUMP JUMPDEST PUSH1 0xA PUSH1 0x20 SWAP1 DUP2 MSTORE PUSH1 0x0 SWAP2 DUP3 MSTORE PUSH1 0x40 SWAP2 DUP3 SWAP1 KECCAK256 DUP1 SLOAD DUP4 MLOAD PUSH1 0x1F PUSH1 0x2 PUSH1 0x0 NOT PUSH2 0x100 PUSH1 0x1 DUP7 AND ISZERO MUL ADD SWAP1 SWAP4 AND SWAP3 SWAP1 SWAP3 DIV SWAP2 DUP3 ADD DUP5 SWAP1 DIV DUP5 MUL DUP2 ADD DUP5 ADD SWAP1 SWAP5 MSTORE DUP1 DUP5 MSTORE SWAP1 SWAP3 SWAP2 DUP4 SWAP2 SWAP1 DUP4 ADD DUP3 DUP3 DUP1 ISZERO PUSH2 0x1DB8 JUMPI DUP1 PUSH1 0x1F LT PUSH2 0x1D8D JUMPI PUSH2 0x100 DUP1 DUP4 SLOAD DIV MUL DUP4 MSTORE SWAP2 PUSH1 0x20 ADD SWAP2 PUSH2 0x1DB8 JUMP JUMPDEST DUP3 ADD SWAP2 SWAP1 PUSH1 0x0 MSTORE PUSH1 0x20 PUSH1 0x0 KECCAK256 SWAP1 JUMPDEST DUP2 SLOAD DUP2 MSTORE SWAP1 PUSH1 0x1 ADD SWAP1 PUSH1 0x20 ADD DUP1 DUP4 GT PUSH2 0x1D9B JUMPI DUP3 SWAP1 SUB PUSH1 0x1F AND DUP3 ADD SWAP2 JUMPDEST POP POP POP PUSH1 0x1 SWAP1 SWAP4 ADD SLOAD SWAP2 SWAP3 POP POP PUSH1 0x1 PUSH1 0x1 PUSH1 0xA0 SHL SUB DUP2 AND SWAP1 PUSH1 0xFF PUSH1 0x1 PUSH1 0xA0 SHL SWAP1 SWAP2 DIV AND DUP4 JUMP JUMPDEST DUP1 MLOAD PUSH1 0x20 DUP2 DUP4 ADD DUP2 ADD DUP1 MLOAD PUSH1 0x1B DUP3 MSTORE SWAP3 DUP3 ADD SWAP2 SWAP1 SWAP4 ADD KECCAK256 SWAP2 MSTORE SLOAD DUP2 JUMP JUMPDEST PUSH1 0x12 PUSH1 0x20 SWAP1 DUP2 MSTORE PUSH1 0x0 SWAP2 DUP3 MSTORE PUSH1 0x40 SWAP2 DUP3 SWAP1 KECCAK256 DUP1 SLOAD PUSH1 0x1 DUP1 DUP4 ADD SLOAD PUSH1 0x2 DUP1 DUP6 ADD DUP1 SLOAD DUP9 MLOAD PUSH2 0x100 SWAP6 DUP3 AND ISZERO SWAP6 SWAP1 SWAP6 MUL PUSH1 0x0 NOT ADD AND SWAP2 SWAP1 SWAP2 DIV PUSH1 0x1F DUP2 ADD DUP8 SWAP1 DIV DUP8 MUL DUP5 ADD DUP8 ADD SWAP1 SWAP8 MSTORE DUP7 DUP4 MSTORE PUSH1 0x1 PUSH1 0x1 PUSH1 0xA0 SHL SUB SWAP1 SWAP4 AND SWAP6 SWAP1 SWAP5 SWAP2 SWAP3 SWAP2 DUP4 ADD DUP3 DUP3 DUP1 ISZERO PUSH2 0x1EA7 JUMPI DUP1 PUSH1 0x1F LT PUSH2 0x1E7C JUMPI PUSH2 0x100 DUP1 DUP4 SLOAD DIV MUL DUP4 MSTORE SWAP2 PUSH1 0x20 ADD SWAP2 PUSH2 0x1EA7 JUMP JUMPDEST DUP3 ADD SWAP2 SWAP1 PUSH1 0x0 MSTORE PUSH1 0x20 PUSH1 0x0 KECCAK256 SWAP1 JUMPDEST DUP2 SLOAD DUP2 MSTORE SWAP1 PUSH1 0x1 ADD SWAP1 PUSH1 0x20 ADD DUP1 DUP4 GT PUSH2 0x1E8A JUMPI DUP3 SWAP1 SUB PUSH1 0x1F AND DUP3 ADD SWAP2 JUMPDEST POP POP POP POP POP SWAP1 POP DUP4 JUMP JUMPDEST PUSH1 0x0 DUP3 DUP2 MSTORE PUSH1 0x6 PUSH1 0x20 MSTORE PUSH1 0x40 SWAP1 KECCAK256 SLOAD DUP3 SWAP1 PUSH1 0x1 PUSH1 0x1 PUSH1 0xA0 SHL SUB AND CALLER EQ PUSH2 0x1EE9 JUMPI PUSH1 0x40 MLOAD PUSH3 0x461BCD PUSH1 0xE5 SHL DUP2 MSTORE PUSH1 0x4 ADD PUSH2 0x8C5 SWAP1 PUSH2 0x3908 JUMP JUMPDEST PUSH1 0x0 DUP2 DUP2 MSTORE PUSH1 0x6 PUSH1 0x20 MSTORE PUSH1 0x40 DUP1 DUP3 KECCAK256 DUP1 SLOAD PUSH1 0x1 PUSH1 0x1 PUSH1 0xA0 SHL SUB NOT AND SWAP1 SSTORE MLOAD DUP3 SWAP2 PUSH32 0x7CC135E0CEBB02C3480AE5D74D377283180A2601F8F644EDF7987B009316C63A SWAP2 LOG2 DUP2 PUSH1 0x1 GT ISZERO DUP1 ISZERO PUSH2 0x1F3E JUMPI POP PUSH1 0x64 DUP3 GT ISZERO JUMPDEST PUSH2 0x1F5A JUMPI PUSH1 0x40 MLOAD PUSH3 0x461BCD PUSH1 0xE5 SHL DUP2 MSTORE PUSH1 0x4 ADD PUSH2 0x8C5 SWAP1 PUSH2 0x37C7 JUMP JUMPDEST PUSH1 0x0 DUP4 DUP2 MSTORE PUSH1 0x19 PUSH1 0x20 MSTORE PUSH1 0x40 SWAP1 KECCAK256 PUSH1 0x2 ADD SLOAD PUSH1 0x1 EQ PUSH2 0x1F8B JUMPI PUSH1 0x40 MLOAD PUSH3 0x461BCD PUSH1 0xE5 SHL DUP2 MSTORE PUSH1 0x4 ADD PUSH2 0x8C5 SWAP1 PUSH2 0x3564 JUMP JUMPDEST PUSH1 0x0 DUP4 DUP2 MSTORE PUSH1 0x19 PUSH1 0x20 MSTORE PUSH1 0x40 DUP1 DUP3 KECCAK256 SWAP1 MLOAD PUSH1 0xA SWAP2 DUP4 SWAP2 PUSH1 0xC SWAP2 PUSH2 0x1FAD SWAP2 PUSH2 0x31E5 JUMP JUMPDEST SWAP1 DUP2 MSTORE PUSH1 0x40 DUP1 MLOAD PUSH1 0x20 SWAP3 DUP2 SWAP1 SUB DUP4 ADD SWAP1 KECCAK256 SLOAD DUP4 MSTORE SWAP1 DUP3 ADD SWAP3 SWAP1 SWAP3 MSTORE ADD PUSH1 0x0 KECCAK256 PUSH1 0x1 ADD SLOAD PUSH1 0x1 PUSH1 0x1 PUSH1 0xA0 SHL SUB AND EQ ISZERO PUSH2 0x1FF7 JUMPI PUSH1 0x40 MLOAD PUSH3 0x461BCD PUSH1 0xE5 SHL DUP2 MSTORE PUSH1 0x4 ADD PUSH2 0x8C5 SWAP1 PUSH2 0x39FF JUMP JUMPDEST PUSH1 0x0 DUP4 DUP2 MSTORE PUSH1 0x19 PUSH1 0x20 MSTORE PUSH1 0x40 DUP1 DUP3 KECCAK256 PUSH1 0x2 DUP2 DUP2 ADD SSTORE PUSH1 0x1E SLOAD SWAP2 MLOAD PUSH1 0x1 PUSH1 0x1 PUSH1 0xA0 SHL SUB SWAP1 SWAP3 AND SWAP3 PUSH4 0xF68FB075 SWAP3 PUSH1 0xA SWAP3 PUSH1 0xC SWAP2 PUSH2 0x2033 SWAP2 SWAP1 PUSH2 0x31E5 JUMP JUMPDEST SWAP1 DUP2 MSTORE PUSH1 0x40 DUP1 MLOAD PUSH1 0x20 SWAP3 DUP2 SWAP1 SUB DUP4 ADD SWAP1 KECCAK256 SLOAD DUP4 MSTORE DUP3 DUP3 ADD SWAP4 SWAP1 SWAP4 MSTORE SWAP1 DUP3 ADD PUSH1 0x0 KECCAK256 PUSH1 0x1 ADD SLOAD PUSH1 0x1E SLOAD DUP4 MLOAD PUSH4 0x313CE567 PUSH1 0xE0 SHL DUP2 MSTORE SWAP4 MLOAD PUSH1 0x1 PUSH1 0x1 PUSH1 0xA0 SHL SUB SWAP3 DUP4 AND SWAP5 SWAP3 SWAP1 SWAP2 AND SWAP3 PUSH4 0x313CE567 SWAP3 PUSH1 0x4 DUP1 DUP3 ADD SWAP4 SWAP2 DUP3 SWAP1 SUB ADD DUP2 DUP7 DUP1 EXTCODESIZE ISZERO DUP1 ISZERO PUSH2 0x209B JUMPI PUSH1 0x0 DUP1 REVERT JUMPDEST POP GAS STATICCALL ISZERO DUP1 ISZERO PUSH2 0x20AF JUMPI RETURNDATASIZE PUSH1 0x0 DUP1 RETURNDATACOPY RETURNDATASIZE PUSH1 0x0 REVERT JUMPDEST POP POP POP POP PUSH1 0x40 MLOAD RETURNDATASIZE PUSH1 0x1F NOT PUSH1 0x1F DUP3 ADD AND DUP3 ADD DUP1 PUSH1 0x40 MSTORE POP DUP2 ADD SWAP1 PUSH2 0x20D3 SWAP2 SWAP1 PUSH2 0x30A6 JUMP JUMPDEST PUSH1 0xFF AND PUSH1 0xA EXP DUP6 MUL PUSH1 0x40 MLOAD DUP4 PUSH4 0xFFFFFFFF AND PUSH1 0xE0 SHL DUP2 MSTORE PUSH1 0x4 ADD PUSH2 0x20F8 SWAP3 SWAP2 SWAP1 PUSH2 0x329B JUMP JUMPDEST PUSH1 0x0 PUSH1 0x40 MLOAD DUP1 DUP4 SUB DUP2 PUSH1 0x0 DUP8 DUP1 EXTCODESIZE ISZERO DUP1 ISZERO PUSH2 0x2112 JUMPI PUSH1 0x0 DUP1 REVERT JUMPDEST POP GAS CALL ISZERO DUP1 ISZERO PUSH2 0x2126 JUMPI RETURNDATASIZE PUSH1 0x0 DUP1 RETURNDATACOPY RETURNDATASIZE PUSH1 0x0 REVERT JUMPDEST POP POP POP POP POP POP POP JUMP JUMPDEST PUSH1 0xF PUSH1 0x20 SWAP1 DUP2 MSTORE PUSH1 0x0 SWAP2 DUP3 MSTORE PUSH1 0x40 SWAP2 DUP3 SWAP1 KECCAK256 DUP1 SLOAD PUSH1 0x1 DUP1 DUP4 ADD SLOAD PUSH1 0x2 DUP1 DUP6 ADD DUP1 SLOAD DUP9 MLOAD PUSH2 0x100 SWAP6 DUP3 AND ISZERO SWAP6 SWAP1 SWAP6 MUL PUSH1 0x0 NOT ADD AND SWAP2 SWAP1 SWAP2 DIV PUSH1 0x1F DUP2 ADD DUP8 SWAP1 DIV DUP8 MUL DUP5 ADD DUP8 ADD SWAP1 SWAP8 MSTORE DUP7 DUP4 MSTORE PUSH1 0x1 PUSH1 0x1 PUSH1 0xA0 SHL SUB SWAP1 SWAP4 AND SWAP6 SWAP1 SWAP5 SWAP2 SWAP3 SWAP2 DUP4 ADD DUP3 DUP3 DUP1 ISZERO PUSH2 0x1EA7 JUMPI DUP1 PUSH1 0x1F LT PUSH2 0x1E7C JUMPI PUSH2 0x100 DUP1 DUP4 SLOAD DIV MUL DUP4 MSTORE SWAP2 PUSH1 0x20 ADD SWAP2 PUSH2 0x1EA7 JUMP JUMPDEST PUSH2 0x21B8 PUSH2 0x24A0 JUMP JUMPDEST PUSH1 0x0 SLOAD PUSH1 0x1 PUSH1 0x1 PUSH1 0xA0 SHL SUB SWAP1 DUP2 AND SWAP2 AND EQ PUSH2 0x21E5 JUMPI PUSH1 0x40 MLOAD PUSH3 0x461BCD PUSH1 0xE5 SHL DUP2 MSTORE PUSH1 0x4 ADD PUSH2 0x8C5 SWAP1 PUSH2 0x3792 JUMP JUMPDEST PUSH1 0x1 PUSH1 0x1 PUSH1 0xA0 SHL SUB DUP2 AND PUSH2 0x220B JUMPI PUSH1 0x40 MLOAD PUSH3 0x461BCD PUSH1 0xE5 SHL DUP2 MSTORE PUSH1 0x4 ADD PUSH2 0x8C5 SWAP1 PUSH2 0x35A9 JUMP JUMPDEST PUSH1 0x0 DUP1 SLOAD PUSH1 0x40 MLOAD PUSH1 0x1 PUSH1 0x1 PUSH1 0xA0 SHL SUB DUP1 DUP6 AND SWAP4 SWAP3 AND SWAP2 PUSH32 0x8BE0079C531659141344CD1FD0A4F28419497F9722A3DAAFE3B4186F6B6457E0 SWAP2 LOG3 PUSH1 0x0 DUP1 SLOAD PUSH1 0x1 PUSH1 0x1 PUSH1 0xA0 SHL SUB NOT AND PUSH1 0x1 PUSH1 0x1 PUSH1 0xA0 SHL SUB SWAP3 SWAP1 SWAP3 AND SWAP2 SWAP1 SWAP2 OR SWAP1 SSTORE JUMP JUMPDEST PUSH1 0x0 CALLVALUE GT PUSH2 0x2286 JUMPI PUSH1 0x40 MLOAD PUSH3 0x461BCD PUSH1 0xE5 SHL DUP2 MSTORE PUSH1 0x4 ADD PUSH2 0x8C5 SWAP1 PUSH2 0x39D3 JUMP JUMPDEST PUSH1 0x13 DUP1 SLOAD PUSH1 0x1 ADD SWAP1 SSTORE PUSH1 0x40 DUP1 MLOAD PUSH1 0x60 DUP2 ADD DUP3 MSTORE CALLER DUP2 MSTORE CALLVALUE PUSH1 0x20 DUP1 DUP4 ADD SWAP2 SWAP1 SWAP2 MSTORE DUP3 MLOAD PUSH1 0x1F DUP6 ADD DUP3 SWAP1 DIV DUP3 MUL DUP2 ADD DUP3 ADD DUP5 MSTORE DUP5 DUP2 MSTORE SWAP2 SWAP3 DUP4 ADD SWAP2 SWAP1 DUP6 SWAP1 DUP6 SWAP1 DUP2 SWAP1 DUP5 ADD DUP4 DUP3 DUP1 DUP3 DUP5 CALLDATACOPY PUSH1 0x0 SWAP3 ADD DUP3 SWAP1 MSTORE POP SWAP4 SWAP1 SWAP5 MSTORE POP POP PUSH1 0x13 SLOAD DUP2 MSTORE PUSH1 0x12 PUSH1 0x20 SWAP1 DUP2 MSTORE PUSH1 0x40 SWAP2 DUP3 SWAP1 KECCAK256 DUP5 MLOAD DUP2 SLOAD PUSH1 0x1 PUSH1 0x1 PUSH1 0xA0 SHL SUB NOT AND PUSH1 0x1 PUSH1 0x1 PUSH1 0xA0 SHL SUB SWAP1 SWAP2 AND OR DUP2 SSTORE DUP5 DUP3 ADD MLOAD PUSH1 0x1 DUP3 ADD SSTORE SWAP2 DUP5 ADD MLOAD DUP1 MLOAD SWAP3 SWAP4 POP PUSH2 0x232F SWAP3 PUSH1 0x2 DUP6 ADD SWAP3 SWAP2 SWAP1 SWAP2 ADD SWAP1 PUSH2 0x2C83 JUMP JUMPDEST POP SWAP1 POP POP PUSH1 0x14 DUP3 DUP3 PUSH1 0x40 MLOAD PUSH2 0x2345 SWAP3 SWAP2 SWAP1 PUSH2 0x3213 JUMP JUMPDEST SWAP1 DUP2 MSTORE PUSH1 0x40 DUP1 MLOAD SWAP2 DUP3 SWAP1 SUB PUSH1 0x20 SWAP1 DUP2 ADD DUP4 KECCAK256 PUSH1 0x13 DUP1 SLOAD DUP3 SLOAD PUSH1 0x1 DUP2 DUP2 ADD DUP6 SSTORE PUSH1 0x0 SWAP5 DUP6 MSTORE DUP6 DUP6 KECCAK256 SWAP1 SWAP2 ADD SWAP2 SWAP1 SWAP2 SSTORE CALLER DUP4 MSTORE PUSH1 0x15 DUP5 MSTORE SWAP4 DUP3 KECCAK256 SWAP1 SLOAD DUP2 SLOAD SWAP5 DUP6 ADD DUP3 SSTORE SWAP1 DUP3 MSTORE SWAP2 SWAP1 KECCAK256 SWAP1 SWAP2 ADD SSTORE CALLVALUE SWAP1 PUSH1 0x16 SWAP1 PUSH2 0x23A2 SWAP1 DUP6 SWAP1 DUP6 SWAP1 PUSH2 0x3213 JUMP JUMPDEST SWAP1 DUP2 MSTORE PUSH1 0x40 MLOAD SWAP1 DUP2 SWAP1 SUB PUSH1 0x20 ADD DUP2 KECCAK256 DUP1 SLOAD SWAP1 SWAP3 ADD SWAP1 SWAP2 SSTORE PUSH32 0x8C7C4039B7C98D46CB4EBB0F96CA6A67A506DB7C3DDD814F88DD3CFD24E2AE9 SWAP1 PUSH2 0x1167 SWAP1 CALLER SWAP1 CALLVALUE SWAP1 DUP7 SWAP1 DUP7 SWAP1 PUSH2 0x3253 JUMP JUMPDEST PUSH1 0x13 SLOAD DUP2 JUMP JUMPDEST DUP1 MLOAD PUSH1 0x20 DUP2 DUP4 ADD DUP2 ADD DUP1 MLOAD PUSH1 0x1A DUP3 MSTORE SWAP3 DUP3 ADD SWAP2 SWAP1 SWAP4 ADD KECCAK256 SWAP2 MSTORE SLOAD DUP2 JUMP JUMPDEST CALLER PUSH1 0x0 SWAP1 DUP2 MSTORE PUSH1 0x15 PUSH1 0x20 SWAP1 DUP2 MSTORE PUSH1 0x40 SWAP2 DUP3 SWAP1 KECCAK256 DUP1 SLOAD DUP4 MLOAD DUP2 DUP5 MUL DUP2 ADD DUP5 ADD SWAP1 SWAP5 MSTORE DUP1 DUP5 MSTORE PUSH1 0x60 SWAP4 SWAP3 DUP4 ADD DUP3 DUP3 DUP1 ISZERO PUSH2 0xC3D JUMPI PUSH1 0x20 MUL DUP3 ADD SWAP2 SWAP1 PUSH1 0x0 MSTORE PUSH1 0x20 PUSH1 0x0 KECCAK256 SWAP1 DUP2 SLOAD DUP2 MSTORE PUSH1 0x20 ADD SWAP1 PUSH1 0x1 ADD SWAP1 DUP1 DUP4 GT PUSH2 0xC29 JUMPI POP POP POP POP POP SWAP1 POP SWAP1 JUMP JUMPDEST PUSH1 0x0 PUSH1 0x18 CALLDATASIZE LT DUP1 ISZERO SWAP1 PUSH2 0x2485 JUMPI POP PUSH2 0x2485 CALLER PUSH2 0xFF9 JUMP JUMPDEST ISZERO PUSH2 0x2499 JUMPI POP PUSH1 0x13 NOT CALLDATASIZE ADD CALLDATALOAD PUSH1 0x60 SHR PUSH2 0xC45 JUMP JUMPDEST POP CALLER PUSH2 0xC45 JUMP JUMPDEST PUSH1 0x0 PUSH2 0x24AA PUSH2 0x246E JUMP JUMPDEST SWAP1 POP SWAP1 JUMP JUMPDEST PUSH2 0x24B7 PUSH2 0x2C4E JUMP JUMPDEST PUSH2 0x24BF PUSH2 0x2C4E JUMP JUMPDEST PUSH2 0x24CB DUP2 DUP7 DUP7 DUP7 PUSH2 0x288D JUMP JUMPDEST SWAP6 SWAP5 POP POP POP POP POP JUMP JUMPDEST PUSH1 0x80 DUP4 ADD MLOAD PUSH2 0x24E3 SWAP1 DUP4 PUSH2 0x28CA JUMP JUMPDEST PUSH1 0x80 DUP4 ADD MLOAD PUSH2 0x1510 SWAP1 DUP3 PUSH2 0x28CA JUMP JUMPDEST PUSH1 0x0 ADDRESS PUSH1 0x5 SLOAD PUSH1 0x40 MLOAD PUSH1 0x20 ADD PUSH2 0x2509 SWAP3 SWAP2 SWAP1 PUSH2 0x31F1 JUMP JUMPDEST PUSH1 0x40 DUP1 MLOAD DUP1 DUP4 SUB PUSH1 0x1F NOT ADD DUP2 MSTORE SWAP2 DUP2 MSTORE DUP2 MLOAD PUSH1 0x20 SWAP3 DUP4 ADD KECCAK256 PUSH1 0x5 SLOAD PUSH1 0x60 DUP8 ADD MSTORE PUSH1 0x0 DUP2 DUP2 MSTORE PUSH1 0x6 SWAP1 SWAP4 MSTORE DUP2 DUP4 KECCAK256 DUP1 SLOAD PUSH1 0x1 PUSH1 0x1 PUSH1 0xA0 SHL SUB NOT AND PUSH1 0x1 PUSH1 0x1 PUSH1 0xA0 SHL SUB DUP10 AND OR SWAP1 SSTORE SWAP1 MLOAD SWAP1 SWAP3 POP DUP3 SWAP2 PUSH32 0xB5E6E01E79F91267DC17B4E6314D5D4D03593D2CEEE0FBB452B750BD70EA5AF9 SWAP2 LOG2 PUSH1 0x3 SLOAD PUSH1 0x1 PUSH1 0x1 PUSH1 0xA0 SHL SUB AND PUSH4 0x4000AEA0 DUP6 DUP5 PUSH2 0x2595 DUP8 PUSH2 0x28E1 JUMP JUMPDEST PUSH1 0x40 MLOAD DUP5 PUSH4 0xFFFFFFFF AND PUSH1 0xE0 SHL DUP2 MSTORE PUSH1 0x4 ADD PUSH2 0x25B3 SWAP4 SWAP3 SWAP2 SWAP1 PUSH2 0x331C JUMP JUMPDEST PUSH1 0x20 PUSH1 0x40 MLOAD DUP1 DUP4 SUB DUP2 PUSH1 0x0 DUP8 DUP1 EXTCODESIZE ISZERO DUP1 ISZERO PUSH2 0x25CD JUMPI PUSH1 0x0 DUP1 REVERT JUMPDEST POP GAS CALL ISZERO DUP1 ISZERO PUSH2 0x25E1 JUMPI RETURNDATASIZE PUSH1 0x0 DUP1 RETURNDATACOPY RETURNDATASIZE PUSH1 0x0 REVERT JUMPDEST POP POP POP POP PUSH1 0x40 MLOAD RETURNDATASIZE PUSH1 0x1F NOT PUSH1 0x1F DUP3 ADD AND DUP3 ADD DUP1 PUSH1 0x40 MSTORE POP DUP2 ADD SWAP1 PUSH2 0x2605 SWAP2 SWAP1 PUSH2 0x2F6A JUMP JUMPDEST PUSH2 0x2621 JUMPI PUSH1 0x40 MLOAD PUSH3 0x461BCD PUSH1 0xE5 SHL DUP2 MSTORE PUSH1 0x4 ADD PUSH2 0x8C5 SWAP1 PUSH2 0x35EF JUMP JUMPDEST PUSH1 0x5 DUP1 SLOAD PUSH1 0x1 ADD SWAP1 SSTORE SWAP4 SWAP3 POP POP POP JUMP JUMPDEST PUSH2 0x2639 PUSH2 0x2D65 JUMP JUMPDEST PUSH1 0x0 DUP4 DUP2 MSTORE PUSH1 0xF PUSH1 0x20 SWAP1 DUP2 MSTORE PUSH1 0x40 SWAP2 DUP3 SWAP1 KECCAK256 DUP3 MLOAD PUSH1 0x60 DUP2 ADD DUP5 MSTORE DUP2 SLOAD PUSH1 0x1 PUSH1 0x1 PUSH1 0xA0 SHL SUB AND DUP2 MSTORE PUSH1 0x1 DUP1 DUP4 ADD SLOAD DUP3 DUP6 ADD MSTORE PUSH1 0x2 DUP1 DUP5 ADD DUP1 SLOAD DUP8 MLOAD PUSH2 0x100 SWAP5 DUP3 AND ISZERO SWAP5 SWAP1 SWAP5 MUL PUSH1 0x0 NOT ADD AND SWAP2 SWAP1 SWAP2 DIV PUSH1 0x1F DUP2 ADD DUP7 SWAP1 DIV DUP7 MUL DUP4 ADD DUP7 ADD DUP8 MSTORE DUP1 DUP4 MSTORE SWAP3 SWAP6 SWAP4 SWAP5 SWAP4 DUP7 ADD SWAP4 SWAP2 SWAP3 SWAP1 SWAP2 DUP4 ADD DUP3 DUP3 DUP1 ISZERO PUSH2 0x26F6 JUMPI DUP1 PUSH1 0x1F LT PUSH2 0x26CB JUMPI PUSH2 0x100 DUP1 DUP4 SLOAD DIV MUL DUP4 MSTORE SWAP2 PUSH1 0x20 ADD SWAP2 PUSH2 0x26F6 JUMP JUMPDEST DUP3 ADD SWAP2 SWAP1 PUSH1 0x0 MSTORE PUSH1 0x20 PUSH1 0x0 KECCAK256 SWAP1 JUMPDEST DUP2 SLOAD DUP2 MSTORE SWAP1 PUSH1 0x1 ADD SWAP1 PUSH1 0x20 ADD DUP1 DUP4 GT PUSH2 0x26D9 JUMPI DUP3 SWAP1 SUB PUSH1 0x1F AND DUP3 ADD SWAP2 JUMPDEST POP POP POP POP POP DUP2 MSTORE POP POP SWAP1 POP DUP2 PUSH1 0x1 PUSH1 0x1 PUSH1 0xA0 SHL SUB AND PUSH2 0x8FC DUP3 PUSH1 0x20 ADD MLOAD SWAP1 DUP2 ISZERO MUL SWAP1 PUSH1 0x40 MLOAD PUSH1 0x0 PUSH1 0x40 MLOAD DUP1 DUP4 SUB DUP2 DUP6 DUP9 DUP9 CALL SWAP4 POP POP POP POP ISZERO DUP1 ISZERO PUSH2 0x273E JUMPI RETURNDATASIZE PUSH1 0x0 DUP1 RETURNDATACOPY RETURNDATASIZE PUSH1 0x0 REVERT JUMPDEST POP DUP1 PUSH1 0x20 ADD MLOAD PUSH1 0xD DUP3 PUSH1 0x40 ADD MLOAD PUSH1 0x40 MLOAD PUSH2 0x2758 SWAP2 SWAP1 PUSH2 0x3223 JUMP JUMPDEST SWAP1 DUP2 MSTORE PUSH1 0x40 DUP1 MLOAD PUSH1 0x20 SWAP3 DUP2 SWAP1 SUB DUP4 ADD SWAP1 KECCAK256 DUP1 SLOAD SWAP4 SWAP1 SWAP4 SUB SWAP1 SWAP3 SSTORE PUSH1 0x0 DUP6 DUP2 MSTORE PUSH1 0xF SWAP1 SWAP2 MSTORE SWAP1 DUP2 KECCAK256 DUP1 SLOAD PUSH1 0x1 PUSH1 0x1 PUSH1 0xA0 SHL SUB NOT AND DUP2 SSTORE PUSH1 0x1 DUP2 ADD DUP3 SWAP1 SSTORE SWAP1 PUSH2 0x27A2 PUSH1 0x2 DUP4 ADD DUP3 PUSH2 0x2D01 JUMP JUMPDEST POP POP POP POP POP JUMP JUMPDEST PUSH1 0x60 PUSH1 0x1 PUSH1 0x1 PUSH1 0xA0 SHL SUB DUP3 AND DUP1 PUSH2 0x27D9 JUMPI POP POP PUSH1 0x40 DUP1 MLOAD DUP1 DUP3 ADD SWAP1 SWAP2 MSTORE PUSH1 0x1 DUP2 MSTORE PUSH1 0x3 PUSH1 0xFC SHL PUSH1 0x20 DUP3 ADD MSTORE PUSH2 0x851 JUMP JUMPDEST DUP1 PUSH1 0x0 JUMPDEST DUP2 ISZERO PUSH2 0x27F1 JUMPI PUSH1 0x1 ADD PUSH1 0xA DUP3 DIV SWAP2 POP PUSH2 0x27DD JUMP JUMPDEST PUSH1 0x60 DUP2 PUSH8 0xFFFFFFFFFFFFFFFF DUP2 GT DUP1 ISZERO PUSH2 0x280A JUMPI PUSH1 0x0 DUP1 REVERT JUMPDEST POP PUSH1 0x40 MLOAD SWAP1 DUP1 DUP3 MSTORE DUP1 PUSH1 0x1F ADD PUSH1 0x1F NOT AND PUSH1 0x20 ADD DUP3 ADD PUSH1 0x40 MSTORE DUP1 ISZERO PUSH2 0x2835 JUMPI PUSH1 0x20 DUP3 ADD DUP2 DUP1 CALLDATASIZE DUP4 CALLDATACOPY ADD SWAP1 POP JUMPDEST POP SWAP1 POP PUSH1 0x0 NOT DUP3 ADD JUMPDEST DUP5 ISZERO PUSH2 0x2883 JUMPI PUSH1 0xA DUP6 MOD PUSH1 0x30 ADD PUSH1 0xF8 SHL DUP3 DUP3 DUP1 PUSH1 0x1 SWAP1 SUB SWAP4 POP DUP2 MLOAD DUP2 LT PUSH2 0x2861 JUMPI INVALID JUMPDEST PUSH1 0x20 ADD ADD SWAP1 PUSH1 0x1 PUSH1 0x1 PUSH1 0xF8 SHL SUB NOT AND SWAP1 DUP2 PUSH1 0x0 BYTE SWAP1 MSTORE8 POP PUSH1 0xA DUP6 DIV SWAP5 POP PUSH2 0x283E JUMP JUMPDEST POP SWAP6 SWAP5 POP POP POP POP POP JUMP JUMPDEST PUSH2 0x2895 PUSH2 0x2C4E JUMP JUMPDEST PUSH2 0x28A5 DUP6 PUSH1 0x80 ADD MLOAD PUSH2 0x100 PUSH2 0x295D JUMP JUMPDEST POP POP SWAP2 DUP4 MSTORE PUSH1 0x1 PUSH1 0x1 PUSH1 0xA0 SHL SUB AND PUSH1 0x20 DUP4 ADD MSTORE PUSH1 0x1 PUSH1 0x1 PUSH1 0xE0 SHL SUB NOT AND PUSH1 0x40 DUP3 ADD MSTORE SWAP1 JUMP JUMPDEST PUSH2 0x28D7 DUP3 PUSH1 0x3 DUP4 MLOAD PUSH2 0x2997 JUMP JUMPDEST PUSH2 0x1510 DUP3 DUP3 PUSH2 0x2A71 JUMP JUMPDEST PUSH1 0x60 PUSH4 0x40429946 PUSH1 0xE0 SHL PUSH1 0x0 DUP1 DUP5 PUSH1 0x0 ADD MLOAD DUP6 PUSH1 0x20 ADD MLOAD DUP7 PUSH1 0x40 ADD MLOAD DUP8 PUSH1 0x60 ADD MLOAD PUSH1 0x1 DUP10 PUSH1 0x80 ADD MLOAD PUSH1 0x0 ADD MLOAD PUSH1 0x40 MLOAD PUSH1 0x24 ADD PUSH2 0x2924 SWAP9 SWAP8 SWAP7 SWAP6 SWAP5 SWAP4 SWAP3 SWAP2 SWAP1 PUSH2 0x32B4 JUMP JUMPDEST PUSH1 0x40 DUP1 MLOAD PUSH1 0x1F NOT DUP2 DUP5 SUB ADD DUP2 MSTORE SWAP2 SWAP1 MSTORE PUSH1 0x20 DUP2 ADD DUP1 MLOAD PUSH1 0x1 PUSH1 0x1 PUSH1 0xE0 SHL SUB AND PUSH1 0x1 PUSH1 0x1 PUSH1 0xE0 SHL SUB NOT SWAP1 SWAP4 AND SWAP3 SWAP1 SWAP3 OR SWAP1 SWAP2 MSTORE SWAP1 POP SWAP2 SWAP1 POP JUMP JUMPDEST PUSH2 0x2965 PUSH2 0x2D8F JUMP JUMPDEST PUSH1 0x20 DUP3 MOD ISZERO PUSH2 0x297A JUMPI PUSH1 0x20 DUP3 MOD PUSH1 0x20 SUB DUP3 ADD SWAP2 POP JUMPDEST POP PUSH1 0x20 DUP3 DUP2 ADD DUP3 SWAP1 MSTORE PUSH1 0x40 DUP1 MLOAD DUP1 DUP6 MSTORE PUSH1 0x0 DUP2 MSTORE SWAP1 SWAP3 ADD ADD SWAP1 MSTORE SWAP1 JUMP JUMPDEST PUSH1 0x17 DUP2 GT PUSH2 0x29B8 JUMPI PUSH2 0x29B2 DUP4 PUSH1 0xE0 PUSH1 0x5 DUP6 SWAP1 SHL AND DUP4 OR PUSH2 0x2A92 JUMP JUMPDEST POP PUSH2 0x1510 JUMP JUMPDEST PUSH1 0xFF DUP2 GT PUSH2 0x29E2 JUMPI PUSH2 0x29D5 DUP4 PUSH1 0x18 PUSH2 0x1FE0 PUSH1 0x5 DUP7 SWAP1 SHL AND OR PUSH2 0x2A92 JUMP JUMPDEST POP PUSH2 0x29B2 DUP4 DUP3 PUSH1 0x1 PUSH2 0x2AAA JUMP JUMPDEST PUSH2 0xFFFF DUP2 GT PUSH2 0x2A0D JUMPI PUSH2 0x2A00 DUP4 PUSH1 0x19 PUSH2 0x1FE0 PUSH1 0x5 DUP7 SWAP1 SHL AND OR PUSH2 0x2A92 JUMP JUMPDEST POP PUSH2 0x29B2 DUP4 DUP3 PUSH1 0x2 PUSH2 0x2AAA JUMP JUMPDEST PUSH4 0xFFFFFFFF DUP2 GT PUSH2 0x2A3A JUMPI PUSH2 0x2A2D DUP4 PUSH1 0x1A PUSH2 0x1FE0 PUSH1 0x5 DUP7 SWAP1 SHL AND OR PUSH2 0x2A92 JUMP JUMPDEST POP PUSH2 0x29B2 DUP4 DUP3 PUSH1 0x4 PUSH2 0x2AAA JUMP JUMPDEST PUSH8 0xFFFFFFFFFFFFFFFF DUP2 GT PUSH2 0x1510 JUMPI PUSH2 0x2A5E DUP4 PUSH1 0x1B PUSH2 0x1FE0 PUSH1 0x5 DUP7 SWAP1 SHL AND OR PUSH2 0x2A92 JUMP JUMPDEST POP PUSH2 0x2A6B DUP4 DUP3 PUSH1 0x8 PUSH2 0x2AAA JUMP JUMPDEST POP POP POP POP JUMP JUMPDEST PUSH2 0x2A79 PUSH2 0x2D8F JUMP JUMPDEST PUSH2 0x2A8B DUP4 DUP5 PUSH1 0x0 ADD MLOAD MLOAD DUP5 DUP6 MLOAD PUSH2 0x2ACB JUMP JUMPDEST SWAP4 SWAP3 POP POP POP JUMP JUMPDEST PUSH2 0x2A9A PUSH2 0x2D8F JUMP JUMPDEST PUSH2 0x2A8B DUP4 DUP5 PUSH1 0x0 ADD MLOAD MLOAD DUP5 PUSH2 0x2B77 JUMP JUMPDEST PUSH2 0x2AB2 PUSH2 0x2D8F JUMP JUMPDEST PUSH2 0x2AC3 DUP5 DUP6 PUSH1 0x0 ADD MLOAD MLOAD DUP6 DUP6 PUSH2 0x2BC2 JUMP JUMPDEST SWAP5 SWAP4 POP POP POP POP JUMP JUMPDEST PUSH2 0x2AD3 PUSH2 0x2D8F JUMP JUMPDEST DUP3 MLOAD DUP3 GT ISZERO PUSH2 0x2AE1 JUMPI PUSH1 0x0 DUP1 REVERT JUMPDEST DUP5 PUSH1 0x20 ADD MLOAD DUP3 DUP6 ADD GT ISZERO PUSH2 0x2B0B JUMPI PUSH2 0x2B0B DUP6 PUSH2 0x2B03 DUP8 PUSH1 0x20 ADD MLOAD DUP8 DUP7 ADD PUSH2 0x2C20 JUMP JUMPDEST PUSH1 0x2 MUL PUSH2 0x2C37 JUMP JUMPDEST PUSH1 0x0 DUP1 DUP7 MLOAD DUP1 MLOAD DUP8 PUSH1 0x20 DUP4 ADD ADD SWAP4 POP DUP1 DUP9 DUP8 ADD GT ISZERO PUSH2 0x2B2A JUMPI DUP8 DUP7 ADD DUP3 MSTORE JUMPDEST POP POP POP PUSH1 0x20 DUP5 ADD JUMPDEST PUSH1 0x20 DUP5 LT PUSH2 0x2B51 JUMPI DUP1 MLOAD DUP3 MSTORE PUSH1 0x1F NOT SWAP1 SWAP4 ADD SWAP3 PUSH1 0x20 SWAP2 DUP3 ADD SWAP2 ADD PUSH2 0x2B32 JUMP JUMPDEST MLOAD DUP2 MLOAD PUSH1 0x0 NOT PUSH1 0x20 DUP7 SWAP1 SUB PUSH2 0x100 EXP ADD SWAP1 DUP2 AND SWAP1 NOT SWAP2 SWAP1 SWAP2 AND OR SWAP1 MSTORE POP DUP4 SWAP5 SWAP4 POP POP POP POP JUMP JUMPDEST PUSH2 0x2B7F PUSH2 0x2D8F JUMP JUMPDEST DUP4 PUSH1 0x20 ADD MLOAD DUP4 LT PUSH2 0x2B9B JUMPI PUSH2 0x2B9B DUP5 DUP6 PUSH1 0x20 ADD MLOAD PUSH1 0x2 MUL PUSH2 0x2C37 JUMP JUMPDEST DUP4 MLOAD DUP1 MLOAD PUSH1 0x20 DUP6 DUP4 ADD ADD DUP5 DUP2 MSTORE8 POP DUP1 DUP6 EQ ISZERO PUSH2 0x2BB8 JUMPI PUSH1 0x1 DUP2 ADD DUP3 MSTORE JUMPDEST POP SWAP4 SWAP5 SWAP4 POP POP POP POP JUMP JUMPDEST PUSH2 0x2BCA PUSH2 0x2D8F JUMP JUMPDEST DUP5 PUSH1 0x20 ADD MLOAD DUP5 DUP4 ADD GT ISZERO PUSH2 0x2BE7 JUMPI PUSH2 0x2BE7 DUP6 DUP6 DUP5 ADD PUSH1 0x2 MUL PUSH2 0x2C37 JUMP JUMPDEST PUSH1 0x0 PUSH1 0x1 DUP4 PUSH2 0x100 EXP SUB SWAP1 POP DUP6 MLOAD DUP4 DUP7 DUP3 ADD ADD DUP6 DUP4 NOT DUP3 MLOAD AND OR DUP2 MSTORE POP DUP1 MLOAD DUP5 DUP8 ADD GT ISZERO PUSH2 0x2C15 JUMPI DUP4 DUP7 ADD DUP2 MSTORE JUMPDEST POP SWAP5 SWAP6 SWAP5 POP POP POP POP POP JUMP JUMPDEST PUSH1 0x0 DUP2 DUP4 GT ISZERO PUSH2 0x2C31 JUMPI POP DUP2 PUSH2 0xE89 JUMP JUMPDEST POP SWAP2 SWAP1 POP JUMP JUMPDEST DUP2 MLOAD PUSH2 0x2C43 DUP4 DUP4 PUSH2 0x295D JUMP JUMPDEST POP PUSH2 0x2A6B DUP4 DUP3 PUSH2 0x2A71 JUMP JUMPDEST PUSH1 0x40 DUP1 MLOAD PUSH1 0xA0 DUP2 ADD DUP3 MSTORE PUSH1 0x0 DUP1 DUP3 MSTORE PUSH1 0x20 DUP3 ADD DUP2 SWAP1 MSTORE SWAP2 DUP2 ADD DUP3 SWAP1 MSTORE PUSH1 0x60 DUP2 ADD SWAP2 SWAP1 SWAP2 MSTORE PUSH1 0x80 DUP2 ADD PUSH2 0x2C7E PUSH2 0x2D8F JUMP JUMPDEST SWAP1 MSTORE SWAP1 JUMP JUMPDEST DUP3 DUP1 SLOAD PUSH1 0x1 DUP2 PUSH1 0x1 AND ISZERO PUSH2 0x100 MUL SUB AND PUSH1 0x2 SWAP1 DIV SWAP1 PUSH1 0x0 MSTORE PUSH1 0x20 PUSH1 0x0 KECCAK256 SWAP1 PUSH1 0x1F ADD PUSH1 0x20 SWAP1 DIV DUP2 ADD SWAP3 DUP3 PUSH1 0x1F LT PUSH2 0x2CC4 JUMPI DUP1 MLOAD PUSH1 0xFF NOT AND DUP4 DUP1 ADD OR DUP6 SSTORE PUSH2 0x2CF1 JUMP JUMPDEST DUP3 DUP1 ADD PUSH1 0x1 ADD DUP6 SSTORE DUP3 ISZERO PUSH2 0x2CF1 JUMPI SWAP2 DUP3 ADD JUMPDEST DUP3 DUP2 GT ISZERO PUSH2 0x2CF1 JUMPI DUP3 MLOAD DUP3 SSTORE SWAP2 PUSH1 0x20 ADD SWAP2 SWAP1 PUSH1 0x1 ADD SWAP1 PUSH2 0x2CD6 JUMP JUMPDEST POP PUSH2 0x2CFD SWAP3 SWAP2 POP PUSH2 0x2DA9 JUMP JUMPDEST POP SWAP1 JUMP JUMPDEST POP DUP1 SLOAD PUSH1 0x1 DUP2 PUSH1 0x1 AND ISZERO PUSH2 0x100 MUL SUB AND PUSH1 0x2 SWAP1 DIV PUSH1 0x0 DUP3 SSTORE DUP1 PUSH1 0x1F LT PUSH2 0x2D27 JUMPI POP PUSH2 0x11B3 JUMP JUMPDEST PUSH1 0x1F ADD PUSH1 0x20 SWAP1 DIV SWAP1 PUSH1 0x0 MSTORE PUSH1 0x20 PUSH1 0x0 KECCAK256 SWAP1 DUP2 ADD SWAP1 PUSH2 0x11B3 SWAP2 SWAP1 PUSH2 0x2DA9 JUMP JUMPDEST PUSH1 0x40 DUP1 MLOAD PUSH1 0x60 DUP1 DUP3 ADD DUP4 MSTORE DUP2 MSTORE PUSH1 0x0 PUSH1 0x20 DUP3 ADD DUP2 SWAP1 MSTORE SWAP2 DUP2 ADD SWAP2 SWAP1 SWAP2 MSTORE SWAP1 JUMP JUMPDEST PUSH1 0x40 MLOAD DUP1 PUSH1 0x60 ADD PUSH1 0x40 MSTORE DUP1 PUSH1 0x0 PUSH1 0x1 PUSH1 0x1 PUSH1 0xA0 SHL SUB AND DUP2 MSTORE PUSH1 0x20 ADD PUSH1 0x0 DUP2 MSTORE PUSH1 0x20 ADD PUSH1 0x60 DUP2 MSTORE POP SWAP1 JUMP JUMPDEST PUSH1 0x40 MLOAD DUP1 PUSH1 0x40 ADD PUSH1 0x40 MSTORE DUP1 PUSH1 0x60 DUP2 MSTORE PUSH1 0x20 ADD PUSH1 0x0 DUP2 MSTORE POP SWAP1 JUMP JUMPDEST JUMPDEST DUP1 DUP3 GT ISZERO PUSH2 0x2CFD JUMPI PUSH1 0x0 DUP2 SSTORE PUSH1 0x1 ADD PUSH2 0x2DAA JUMP JUMPDEST DUP1 CALLDATALOAD PUSH1 0x1 PUSH1 0x1 PUSH1 0xA0 SHL SUB DUP2 AND DUP2 EQ PUSH2 0xE89 JUMPI PUSH1 0x0 DUP1 REVERT JUMPDEST PUSH1 0x0 DUP3 PUSH1 0x1F DUP4 ADD SLT PUSH2 0x2DE5 JUMPI DUP1 DUP2 REVERT JUMPDEST DUP2 CALLDATALOAD PUSH8 0xFFFFFFFFFFFFFFFF DUP1 DUP3 GT ISZERO PUSH2 0x2DFC JUMPI DUP3 DUP4 REVERT JUMPDEST PUSH1 0x40 MLOAD PUSH1 0x1F DUP4 ADD PUSH1 0x1F NOT AND DUP2 ADD PUSH1 0x20 ADD DUP3 DUP2 GT DUP3 DUP3 LT OR ISZERO PUSH2 0x2E1C JUMPI DUP5 DUP6 REVERT JUMPDEST PUSH1 0x40 MSTORE DUP3 DUP2 MSTORE SWAP3 POP DUP3 DUP5 DUP4 ADD PUSH1 0x20 ADD DUP7 LT ISZERO PUSH2 0x2E37 JUMPI PUSH1 0x0 DUP1 REVERT JUMPDEST DUP3 PUSH1 0x20 DUP7 ADD PUSH1 0x20 DUP4 ADD CALLDATACOPY PUSH1 0x0 PUSH1 0x20 DUP5 DUP4 ADD ADD MSTORE POP POP POP SWAP3 SWAP2 POP POP JUMP JUMPDEST PUSH1 0x0 PUSH1 0x20 DUP3 DUP5 SUB SLT ISZERO PUSH2 0x2E64 JUMPI DUP1 DUP2 REVERT JUMPDEST PUSH2 0x2A8B DUP4 DUP4 PUSH2 0x2DBE JUMP JUMPDEST PUSH1 0x0 DUP1 PUSH1 0x0 PUSH1 0x60 DUP5 DUP7 SUB SLT ISZERO PUSH2 0x2E82 JUMPI DUP2 DUP3 REVERT JUMPDEST PUSH2 0x2E8C DUP6 DUP6 PUSH2 0x2DBE JUMP JUMPDEST SWAP3 POP PUSH1 0x20 DUP5 ADD CALLDATALOAD SWAP2 POP PUSH1 0x40 DUP5 ADD CALLDATALOAD PUSH8 0xFFFFFFFFFFFFFFFF DUP2 GT ISZERO PUSH2 0x2EAE JUMPI DUP2 DUP3 REVERT JUMPDEST PUSH2 0x2EBA DUP7 DUP3 DUP8 ADD PUSH2 0x2DD5 JUMP JUMPDEST SWAP2 POP POP SWAP3 POP SWAP3 POP SWAP3 JUMP JUMPDEST PUSH1 0x0 DUP1 PUSH1 0x0 DUP1 PUSH1 0x80 DUP6 DUP8 SUB SLT ISZERO PUSH2 0x2ED9 JUMPI DUP1 DUP2 REVERT JUMPDEST PUSH2 0x2EE3 DUP7 DUP7 PUSH2 0x2DBE JUMP JUMPDEST SWAP4 POP PUSH1 0x20 DUP6 ADD CALLDATALOAD SWAP3 POP PUSH1 0x40 DUP6 ADD CALLDATALOAD PUSH8 0xFFFFFFFFFFFFFFFF DUP1 DUP3 GT ISZERO PUSH2 0x2F06 JUMPI DUP3 DUP4 REVERT JUMPDEST PUSH2 0x2F12 DUP9 DUP4 DUP10 ADD PUSH2 0x2DD5 JUMP JUMPDEST SWAP4 POP PUSH1 0x60 DUP8 ADD CALLDATALOAD SWAP2 POP DUP1 DUP3 GT ISZERO PUSH2 0x2F27 JUMPI DUP3 DUP4 REVERT JUMPDEST POP PUSH2 0x2F34 DUP8 DUP3 DUP9 ADD PUSH2 0x2DD5 JUMP JUMPDEST SWAP2 POP POP SWAP3 SWAP6 SWAP2 SWAP5 POP SWAP3 POP JUMP JUMPDEST PUSH1 0x0 DUP1 PUSH1 0x40 DUP4 DUP6 SUB SLT ISZERO PUSH2 0x2F52 JUMPI DUP2 DUP3 REVERT JUMPDEST PUSH2 0x2F5C DUP5 DUP5 PUSH2 0x2DBE JUMP JUMPDEST SWAP5 PUSH1 0x20 SWAP4 SWAP1 SWAP4 ADD CALLDATALOAD SWAP4 POP POP POP JUMP JUMPDEST PUSH1 0x0 PUSH1 0x20 DUP3 DUP5 SUB SLT ISZERO PUSH2 0x2F7B JUMPI DUP1 DUP2 REVERT JUMPDEST DUP2 MLOAD DUP1 ISZERO ISZERO DUP2 EQ PUSH2 0x2A8B JUMPI DUP2 DUP3 REVERT JUMPDEST PUSH1 0x0 PUSH1 0x20 DUP3 DUP5 SUB SLT ISZERO PUSH2 0x2F9B JUMPI DUP1 DUP2 REVERT JUMPDEST POP CALLDATALOAD SWAP2 SWAP1 POP JUMP JUMPDEST PUSH1 0x0 DUP1 PUSH1 0x40 DUP4 DUP6 SUB SLT ISZERO PUSH2 0x2FB4 JUMPI DUP2 DUP3 REVERT JUMPDEST POP POP DUP1 CALLDATALOAD SWAP3 PUSH1 0x20 SWAP1 SWAP2 ADD CALLDATALOAD SWAP2 POP JUMP JUMPDEST PUSH1 0x0 DUP1 PUSH1 0x20 DUP4 DUP6 SUB SLT ISZERO PUSH2 0x2FD5 JUMPI DUP2 DUP3 REVERT JUMPDEST DUP3 CALLDATALOAD PUSH8 0xFFFFFFFFFFFFFFFF DUP1 DUP3 GT ISZERO PUSH2 0x2FEC JUMPI DUP4 DUP5 REVERT JUMPDEST DUP2 DUP6 ADD SWAP2 POP DUP6 PUSH1 0x1F DUP4 ADD SLT PUSH2 0x2FFF JUMPI DUP4 DUP5 REVERT JUMPDEST DUP2 CALLDATALOAD DUP2 DUP2 GT ISZERO PUSH2 0x300D JUMPI DUP5 DUP6 REVERT JUMPDEST DUP7 PUSH1 0x20 DUP3 DUP6 ADD ADD GT ISZERO PUSH2 0x301E JUMPI DUP5 DUP6 REVERT JUMPDEST PUSH1 0x20 SWAP3 SWAP1 SWAP3 ADD SWAP7 SWAP2 SWAP6 POP SWAP1 SWAP4 POP POP POP POP JUMP JUMPDEST PUSH1 0x0 PUSH1 0x20 DUP3 DUP5 SUB SLT ISZERO PUSH2 0x3041 JUMPI DUP1 DUP2 REVERT JUMPDEST DUP2 CALLDATALOAD PUSH8 0xFFFFFFFFFFFFFFFF DUP2 GT ISZERO PUSH2 0x3057 JUMPI DUP2 DUP3 REVERT JUMPDEST PUSH2 0x2AC3 DUP5 DUP3 DUP6 ADD PUSH2 0x2DD5 JUMP JUMPDEST PUSH1 0x0 DUP1 PUSH1 0x40 DUP4 DUP6 SUB SLT ISZERO PUSH2 0x3075 JUMPI DUP2 DUP3 REVERT JUMPDEST DUP3 CALLDATALOAD PUSH8 0xFFFFFFFFFFFFFFFF DUP2 GT ISZERO PUSH2 0x308B JUMPI DUP3 DUP4 REVERT JUMPDEST PUSH2 0x3097 DUP6 DUP3 DUP7 ADD PUSH2 0x2DD5 JUMP JUMPDEST SWAP6 PUSH1 0x20 SWAP5 SWAP1 SWAP5 ADD CALLDATALOAD SWAP5 POP POP POP POP JUMP JUMPDEST PUSH1 0x0 PUSH1 0x20 DUP3 DUP5 SUB SLT ISZERO PUSH2 0x30B7 JUMPI DUP1 DUP2 REVERT JUMPDEST DUP2 MLOAD PUSH1 0xFF DUP2 AND DUP2 EQ PUSH2 0x2A8B JUMPI DUP2 DUP3 REVERT JUMPDEST PUSH1 0x0 DUP2 MLOAD DUP1 DUP5 MSTORE PUSH2 0x30DF DUP2 PUSH1 0x20 DUP7 ADD PUSH1 0x20 DUP7 ADD PUSH2 0x3A4E JUMP JUMPDEST PUSH1 0x1F ADD PUSH1 0x1F NOT AND SWAP3 SWAP1 SWAP3 ADD PUSH1 0x20 ADD SWAP3 SWAP2 POP POP JUMP JUMPDEST PUSH1 0x0 DUP2 SLOAD PUSH1 0x1 DUP1 DUP3 AND PUSH1 0x0 DUP2 EQ PUSH2 0x3111 JUMPI PUSH1 0x1 DUP2 EQ PUSH2 0x3128 JUMPI PUSH2 0x315A JUMP JUMPDEST PUSH1 0xFF NOT DUP4 AND DUP7 MSTORE PUSH1 0x2 DUP4 DIV PUSH1 0x7F AND DUP7 ADD SWAP4 POP PUSH2 0x315A JUMP JUMPDEST PUSH1 0x2 DUP4 DIV DUP6 PUSH1 0x0 MSTORE PUSH1 0x20 DUP1 PUSH1 0x0 KECCAK256 PUSH1 0x0 JUMPDEST DUP4 DUP2 LT ISZERO PUSH2 0x3152 JUMPI DUP2 SLOAD DUP11 DUP3 ADD MSTORE SWAP1 DUP6 ADD SWAP1 DUP3 ADD PUSH2 0x3139 JUMP JUMPDEST POP POP POP DUP7 ADD SWAP4 POP JUMPDEST POP POP POP SWAP3 SWAP2 POP POP JUMP JUMPDEST PUSH1 0x0 DUP2 SLOAD PUSH1 0x1 DUP1 DUP3 AND PUSH1 0x0 DUP2 EQ PUSH2 0x3181 JUMPI PUSH1 0x1 DUP2 EQ PUSH2 0x319F JUMPI PUSH2 0x315A JUMP JUMPDEST PUSH1 0x2 DUP4 DIV PUSH1 0x7F AND DUP7 MSTORE PUSH1 0xFF NOT DUP4 AND PUSH1 0x20 DUP8 ADD MSTORE PUSH1 0x40 DUP7 ADD SWAP4 POP PUSH2 0x315A JUMP JUMPDEST PUSH1 0x2 DUP4 DIV DUP1 DUP8 MSTORE PUSH2 0x31AF DUP7 PUSH2 0x3A42 JUMP JUMPDEST PUSH1 0x0 JUMPDEST DUP3 DUP2 LT ISZERO PUSH2 0x31D3 JUMPI DUP2 SLOAD PUSH1 0x20 DUP3 DUP12 ADD ADD MSTORE DUP5 DUP3 ADD SWAP2 POP PUSH1 0x20 DUP2 ADD SWAP1 POP PUSH2 0x31B2 JUMP JUMPDEST DUP9 ADD PUSH1 0x20 ADD SWAP6 POP POP POP POP POP POP SWAP3 SWAP2 POP POP JUMP JUMPDEST PUSH1 0x0 PUSH2 0x2A8B DUP3 DUP5 PUSH2 0x30F3 JUMP JUMPDEST PUSH1 0x60 SWAP3 SWAP1 SWAP3 SHL PUSH12 0xFFFFFFFFFFFFFFFFFFFFFFFF NOT AND DUP3 MSTORE PUSH1 0x14 DUP3 ADD MSTORE PUSH1 0x34 ADD SWAP1 JUMP JUMPDEST PUSH1 0x0 DUP3 DUP5 DUP4 CALLDATACOPY SWAP2 ADD SWAP1 DUP2 MSTORE SWAP2 SWAP1 POP JUMP JUMPDEST PUSH1 0x0 DUP3 MLOAD PUSH2 0x3235 DUP2 DUP5 PUSH1 0x20 DUP8 ADD PUSH2 0x3A4E JUMP JUMPDEST SWAP2 SWAP1 SWAP2 ADD SWAP3 SWAP2 POP POP JUMP JUMPDEST PUSH1 0x1 PUSH1 0x1 PUSH1 0xA0 SHL SUB SWAP2 SWAP1 SWAP2 AND DUP2 MSTORE PUSH1 0x20 ADD SWAP1 JUMP JUMPDEST PUSH1 0x1 PUSH1 0x1 PUSH1 0xA0 SHL SUB DUP6 AND DUP2 MSTORE PUSH1 0x20 DUP2 ADD DUP5 SWAP1 MSTORE PUSH1 0x60 PUSH1 0x40 DUP3 ADD DUP2 SWAP1 MSTORE DUP2 ADD DUP3 SWAP1 MSTORE PUSH1 0x0 DUP3 DUP5 PUSH1 0x80 DUP5 ADD CALLDATACOPY DUP2 DUP4 ADD PUSH1 0x80 SWAP1 DUP2 ADD SWAP2 SWAP1 SWAP2 MSTORE PUSH1 0x1F SWAP1 SWAP3 ADD PUSH1 0x1F NOT AND ADD ADD SWAP4 SWAP3 POP POP POP JUMP JUMPDEST PUSH1 0x1 PUSH1 0x1 PUSH1 0xA0 SHL SUB SWAP3 SWAP1 SWAP3 AND DUP3 MSTORE PUSH1 0x20 DUP3 ADD MSTORE PUSH1 0x40 ADD SWAP1 JUMP JUMPDEST PUSH1 0x1 PUSH1 0x1 PUSH1 0xA0 SHL SUB DUP10 DUP2 AND DUP3 MSTORE PUSH1 0x20 DUP3 ADD DUP10 SWAP1 MSTORE PUSH1 0x40 DUP3 ADD DUP9 SWAP1 MSTORE DUP7 AND PUSH1 0x60 DUP3 ADD MSTORE PUSH1 0x1 PUSH1 0x1 PUSH1 0xE0 SHL SUB NOT DUP6 AND PUSH1 0x80 DUP3 ADD MSTORE PUSH1 0xA0 DUP2 ADD DUP5 SWAP1 MSTORE PUSH1 0xC0 DUP2 ADD DUP4 SWAP1 MSTORE PUSH2 0x100 PUSH1 0xE0 DUP3 ADD DUP2 SWAP1 MSTORE PUSH1 0x0 SWAP1 PUSH2 0x330D DUP4 DUP3 ADD DUP6 PUSH2 0x30C7 JUMP JUMPDEST SWAP12 SWAP11 POP POP POP POP POP POP POP POP POP POP POP JUMP JUMPDEST PUSH1 0x0 PUSH1 0x1 DUP1 PUSH1 0xA0 SHL SUB DUP6 AND DUP3 MSTORE DUP4 PUSH1 0x20 DUP4 ADD MSTORE PUSH1 0x60 PUSH1 0x40 DUP4 ADD MSTORE PUSH2 0x24CB PUSH1 0x60 DUP4 ADD DUP5 PUSH2 0x30C7 JUMP JUMPDEST PUSH1 0x20 DUP1 DUP3 MSTORE DUP3 MLOAD DUP3 DUP3 ADD DUP2 SWAP1 MSTORE PUSH1 0x0 SWAP2 SWAP1 DUP5 DUP3 ADD SWAP1 PUSH1 0x40 DUP6 ADD SWAP1 DUP5 JUMPDEST DUP2 DUP2 LT ISZERO PUSH2 0x337B JUMPI DUP4 MLOAD DUP4 MSTORE SWAP3 DUP5 ADD SWAP3 SWAP2 DUP5 ADD SWAP2 PUSH1 0x1 ADD PUSH2 0x335F JUMP JUMPDEST POP SWAP1 SWAP7 SWAP6 POP POP POP POP POP POP JUMP JUMPDEST SWAP1 ISZERO ISZERO DUP2 MSTORE PUSH1 0x20 ADD SWAP1 JUMP JUMPDEST SWAP1 DUP2 MSTORE PUSH1 0x20 ADD SWAP1 JUMP JUMPDEST PUSH1 0x0 PUSH1 0x20 DUP3 MSTORE PUSH2 0x2A8B PUSH1 0x20 DUP4 ADD DUP5 PUSH2 0x30C7 JUMP JUMPDEST PUSH1 0x0 PUSH1 0x60 DUP3 MSTORE PUSH2 0x33C1 PUSH1 0x60 DUP4 ADD DUP7 PUSH2 0x30C7 JUMP JUMPDEST PUSH1 0x1 PUSH1 0x1 PUSH1 0xA0 SHL SUB SWAP5 SWAP1 SWAP5 AND PUSH1 0x20 DUP4 ADD MSTORE POP PUSH1 0xFF SWAP2 SWAP1 SWAP2 AND PUSH1 0x40 SWAP1 SWAP2 ADD MSTORE SWAP2 SWAP1 POP JUMP JUMPDEST PUSH1 0x0 PUSH1 0x60 DUP3 MSTORE PUSH2 0x33F7 PUSH1 0x60 DUP4 ADD DUP7 PUSH2 0x30C7 JUMP JUMPDEST DUP3 DUP2 SUB PUSH1 0x20 DUP5 ADD MSTORE PUSH2 0x3409 DUP2 DUP7 PUSH2 0x30C7 JUMP JUMPDEST SWAP2 POP POP DUP3 PUSH1 0x40 DUP4 ADD MSTORE SWAP5 SWAP4 POP POP POP POP JUMP JUMPDEST PUSH1 0x0 PUSH1 0x40 DUP3 MSTORE PUSH2 0x342D PUSH1 0x40 DUP4 ADD DUP6 PUSH2 0x3163 JUMP JUMPDEST DUP3 DUP2 SUB PUSH1 0x20 DUP5 ADD MSTORE PUSH2 0x24CB DUP2 DUP6 PUSH2 0x3163 JUMP JUMPDEST PUSH1 0x20 DUP1 DUP3 MSTORE PUSH1 0x30 SWAP1 DUP3 ADD MSTORE PUSH32 0x4465706F73697420646964206E6F742063616D652066726F6D20746869732045 PUSH1 0x40 DUP3 ADD MSTORE PUSH16 0x3A3432B932BAB69030B2323932B9B997 PUSH1 0x81 SHL PUSH1 0x60 DUP3 ADD MSTORE PUSH1 0x80 ADD SWAP1 JUMP JUMPDEST PUSH1 0x20 DUP1 DUP3 MSTORE PUSH1 0x21 SWAP1 DUP3 ADD MSTORE PUSH32 0x497373756520686173206E6F206465706F7369747320746F2072656C65617365 PUSH1 0x40 DUP3 ADD MSTORE PUSH1 0x17 PUSH1 0xF9 SHL PUSH1 0x60 DUP3 ADD MSTORE PUSH1 0x80 ADD SWAP1 JUMP JUMPDEST PUSH1 0x20 DUP1 DUP3 MSTORE PUSH1 0x1D SWAP1 DUP3 ADD MSTORE PUSH32 0x50756C6C207265717565737420616C726561647920636C61696D65642E000000 PUSH1 0x40 DUP3 ADD MSTORE PUSH1 0x60 ADD SWAP1 JUMP JUMPDEST PUSH1 0x20 DUP1 DUP3 MSTORE PUSH1 0x3D SWAP1 DUP3 ADD MSTORE PUSH32 0x5468697320457468657265756D2061646472657373206973206E6F7420726567 PUSH1 0x40 DUP3 ADD MSTORE PUSH32 0x69737465726564207769746820616E792047697448756220757365722E000000 PUSH1 0x60 DUP3 ADD MSTORE PUSH1 0x80 ADD SWAP1 JUMP JUMPDEST PUSH1 0x20 DUP1 DUP3 MSTORE PUSH1 0x25 SWAP1 DUP3 ADD MSTORE PUSH32 0x50756C6C207265717565737420636C61696D20776173206E6F74207265717565 PUSH1 0x40 DUP3 ADD MSTORE PUSH5 0x39BA32B217 PUSH1 0xD9 SHL PUSH1 0x60 DUP3 ADD MSTORE PUSH1 0x80 ADD SWAP1 JUMP JUMPDEST PUSH1 0x20 DUP1 DUP3 MSTORE PUSH1 0x26 SWAP1 DUP3 ADD MSTORE PUSH32 0x4F776E61626C653A206E6577206F776E657220697320746865207A65726F2061 PUSH1 0x40 DUP3 ADD MSTORE PUSH6 0x646472657373 PUSH1 0xD0 SHL PUSH1 0x60 DUP3 ADD MSTORE PUSH1 0x80 ADD SWAP1 JUMP JUMPDEST PUSH1 0x20 DUP1 DUP3 MSTORE PUSH1 0x23 SWAP1 DUP3 ADD MSTORE PUSH32 0x756E61626C6520746F207472616E73666572416E6443616C6C20746F206F7261 PUSH1 0x40 DUP3 ADD MSTORE PUSH3 0x636C65 PUSH1 0xE8 SHL PUSH1 0x60 DUP3 ADD MSTORE PUSH1 0x80 ADD SWAP1 JUMP JUMPDEST PUSH1 0x20 DUP1 DUP3 MSTORE PUSH1 0x1F SWAP1 DUP3 ADD MSTORE PUSH32 0x4973737565206465706F7369747320616C726561647920636C61696D65642E00 PUSH1 0x40 DUP3 ADD MSTORE PUSH1 0x60 ADD SWAP1 JUMP JUMPDEST PUSH1 0x20 DUP1 DUP3 MSTORE PUSH1 0x27 SWAP1 DUP3 ADD MSTORE PUSH32 0x4465706F736974206973206E6F7420666F722074686973204769744875622061 PUSH1 0x40 DUP3 ADD MSTORE PUSH7 0x31B1B7BAB73A17 PUSH1 0xC9 SHL PUSH1 0x60 DUP3 ADD MSTORE PUSH1 0x80 ADD SWAP1 JUMP JUMPDEST PUSH1 0x20 DUP1 DUP3 MSTORE PUSH1 0x38 SWAP1 DUP3 ADD MSTORE PUSH32 0x4F6E6C792072656769737465726564204769744875622075736572732063616E PUSH1 0x40 DUP3 ADD MSTORE PUSH32 0x2072656C65617365206973737565206465706F736974732E0000000000000000 PUSH1 0x60 DUP3 ADD MSTORE PUSH1 0x80 ADD SWAP1 JUMP JUMPDEST PUSH1 0x20 DUP1 DUP3 MSTORE PUSH1 0x1E SWAP1 DUP3 ADD MSTORE PUSH32 0x4E6F7420656E6F7567682066756E647320746F20706179206761734665650000 PUSH1 0x40 DUP3 ADD MSTORE PUSH1 0x60 ADD SWAP1 JUMP JUMPDEST PUSH1 0x20 DUP1 DUP3 MSTORE PUSH1 0x2E SWAP1 DUP3 ADD MSTORE PUSH32 0x54686973206973737565206465706F73697420686173206265656E2077697468 PUSH1 0x40 DUP3 ADD MSTORE PUSH14 0x323930BBB71030B63932B0B23C97 PUSH1 0x91 SHL PUSH1 0x60 DUP3 ADD MSTORE PUSH1 0x80 ADD SWAP1 JUMP JUMPDEST PUSH1 0x20 DUP1 DUP3 MSTORE DUP2 DUP2 ADD MSTORE PUSH32 0x4F776E61626C653A2063616C6C6572206973206E6F7420746865206F776E6572 PUSH1 0x40 DUP3 ADD MSTORE PUSH1 0x60 ADD SWAP1 JUMP JUMPDEST PUSH1 0x20 DUP1 DUP3 MSTORE DUP2 DUP2 ADD MSTORE PUSH32 0x496E76616C69642073636F72653A2031203C3D2073636F7265203C3D20313030 PUSH1 0x40 DUP3 ADD MSTORE PUSH1 0x60 ADD SWAP1 JUMP JUMPDEST PUSH1 0x20 DUP1 DUP3 MSTORE PUSH1 0x42 SWAP1 DUP3 ADD MSTORE PUSH32 0x4465706F73697420646964206E6F7420636F6D652066726F6D20746869732045 PUSH1 0x40 DUP3 ADD MSTORE PUSH32 0x7468657265756D2061646472657373206F7220646F6573206E6F742065786973 PUSH1 0x60 DUP3 ADD MSTORE PUSH2 0x3A17 PUSH1 0xF1 SHL PUSH1 0x80 DUP3 ADD MSTORE PUSH1 0xA0 ADD SWAP1 JUMP JUMPDEST PUSH1 0x20 DUP1 DUP3 MSTORE PUSH1 0x27 SWAP1 DUP3 ADD MSTORE PUSH32 0x49737365206465706F7369742072656C6561736520776173206E6F7420726571 PUSH1 0x40 DUP3 ADD MSTORE PUSH7 0x3AB2B9BA32B217 PUSH1 0xC9 SHL PUSH1 0x60 DUP3 ADD MSTORE PUSH1 0x80 ADD SWAP1 JUMP JUMPDEST PUSH1 0x20 DUP1 DUP3 MSTORE PUSH1 0x38 SWAP1 DUP3 ADD MSTORE PUSH32 0x4E6F20476974487562206163636F756E74207265676973746572656420776974 PUSH1 0x40 DUP3 ADD MSTORE PUSH32 0x68207468697320457468657265756D206163636F756E742E0000000000000000 PUSH1 0x60 DUP3 ADD MSTORE PUSH1 0x80 ADD SWAP1 JUMP JUMPDEST PUSH1 0x20 DUP1 DUP3 MSTORE PUSH1 0x28 SWAP1 DUP3 ADD MSTORE PUSH32 0x536F75726365206D75737420626520746865206F7261636C65206F6620746865 PUSH1 0x40 DUP3 ADD MSTORE PUSH8 0x81C995C5D595CDD PUSH1 0xC2 SHL PUSH1 0x60 DUP3 ADD MSTORE PUSH1 0x80 ADD SWAP1 JUMP JUMPDEST PUSH1 0x20 DUP1 DUP3 MSTORE PUSH1 0x57 SWAP1 DUP3 ADD MSTORE PUSH32 0x54686520476974487562206163636F756E742074686973206973737565207761 PUSH1 0x40 DUP3 ADD MSTORE PUSH32 0x732072656C656173656420746F20646F6573206E6F742062656C6F6E6720746F PUSH1 0x60 DUP3 ADD MSTORE PUSH32 0x207468697320457468657265756D206163636F756E742E000000000000000000 PUSH1 0x80 DUP3 ADD MSTORE PUSH1 0xA0 ADD SWAP1 JUMP JUMPDEST PUSH1 0x20 DUP1 DUP3 MSTORE PUSH1 0x12 SWAP1 DUP3 ADD MSTORE PUSH18 0x2CB7BA9036BAB9BA1039B2B7321022AA2417 PUSH1 0x71 SHL PUSH1 0x40 DUP3 ADD MSTORE PUSH1 0x60 ADD SWAP1 JUMP JUMPDEST PUSH1 0x20 DUP1 DUP3 MSTORE PUSH1 0x23 SWAP1 DUP3 ADD MSTORE PUSH32 0x54686973204769744875622075736572206973206E6F74207265676973746572 PUSH1 0x40 DUP3 ADD MSTORE PUSH3 0x32B217 PUSH1 0xE9 SHL PUSH1 0x60 DUP3 ADD MSTORE PUSH1 0x80 ADD SWAP1 JUMP JUMPDEST PUSH1 0x0 SWAP1 DUP2 MSTORE PUSH1 0x20 SWAP1 KECCAK256 SWAP1 JUMP JUMPDEST PUSH1 0x0 JUMPDEST DUP4 DUP2 LT ISZERO PUSH2 0x3A69 JUMPI DUP2 DUP2 ADD MLOAD DUP4 DUP3 ADD MSTORE PUSH1 0x20 ADD PUSH2 0x3A51 JUMP JUMPDEST DUP4 DUP2 GT ISZERO PUSH2 0x2A6B JUMPI POP POP PUSH1 0x0 SWAP2 ADD MSTORE JUMP INVALID LOG2 PUSH5 0x6970667358 0x22 SLT KECCAK256 SWAP7 SMOD 0xC PUSH7 0xE0A6F1042FE037 SLT DUP4 DUP9 GASLIMIT 0xD9 MUL 0xCE 0xE8 0x2D ADDMOD 0xDC 0xDE SWAP12 0xD1 PUSH9 0xB33B601DA24564736F PUSH13 0x634300060C0033000000000000 "
		},
		"gasEstimates": {
			"creation": {
				"codeDepositCost": "3004800",
				"executionCost": "infinite",
				"totalCost": "infinite"
			},
			"external": {
				"claimPullRequest(address,bytes32,string,string)": "infinite",
				"claimReleasedIssueDeposits(string)": "infinite",
				"confirmPullRequestClaim(bytes32,uint256)": "infinite",
				"confirmRegistration(bytes32)": "infinite",
				"confirmReleaseIssueDeposits(bytes32)": "infinite",
				"deductGasFee(string,uint256)": "infinite",
				"depositEthForGithubUser(string)": "infinite",
				"depositEthForIssue(string)": "infinite",
				"getIssueDepositIdsForIssueId(string)": "infinite",
				"getIssueDepositIdsForSender()": "infinite",
				"getUserClaimAmount(string)": "infinite",
				"getUserDepositIdsForGithubUser(string)": "infinite",
				"getUserDepositIdsForSender()": "infinite",
				"isTrustedForwarder(address)": "1319",
				"issueDepositIdsByIssueId(string,uint256)": "infinite",
				"issueDepositIdsBySender(address,uint256)": "2325",
				"issueDeposits(uint256)": "infinite",
				"issueDepositsAmountByIssueId(string)": "infinite",
				"issuePins(string)": "infinite",
				"issueReleaseIDsByIssueId(string)": "infinite",
				"nextIssueDepositId()": "1138",
				"owner()": "1137",
				"pullRequestClaimIDsByPrId(string)": "infinite",
				"pullRequestClaims(bytes32)": "infinite",
				"refundIssueDeposit(uint256)": "infinite",
				"refundUserDeposit(uint256)": "infinite",
				"register(address,bytes32,string)": "infinite",
				"releaseIssueDeposits(address,bytes32,string,string)": "infinite",
				"releasedIssues(bytes32)": "infinite",
				"renounceOwnership()": "25277",
				"setOctoPin(address)": "23105",
				"setPaymaster(address)": "23084",
				"transferOwnership(address)": "25493",
				"trustedForwarder()": "1204",
				"userClaimAmountByGithbUser(string)": "infinite",
				"userDepositIdsByGithubUser(string,uint256)": "infinite",
				"userDepositIdsBySender(address,uint256)": "2238",
				"userDeposits(uint256)": "infinite",
				"userIDsByAddress(address)": "1302",
				"userIDsByGithubUser(string)": "infinite",
				"users(bytes32)": "infinite",
				"versionRecipient()": "infinite",
				"withdrawUserDeposit(uint256)": "infinite"
			},
			"internal": {
				"_msgData()": "infinite",
				"_msgSender()": "997",
				"_sendDeposit(uint256,address)": "infinite",
				"_swapETHforLink(uint256,uint256)": "infinite",
				"addressToIntString(address)": "infinite"
			}
		},
		"methodIdentifiers": {
			"claimPullRequest(address,bytes32,string,string)": "af5b5f5c",
			"claimReleasedIssueDeposits(string)": "9947918c",
			"confirmPullRequestClaim(bytes32,uint256)": "f0e31cf9",
			"confirmRegistration(bytes32)": "3be784bc",
			"confirmReleaseIssueDeposits(bytes32)": "57bd9a97",
			"deductGasFee(string,uint256)": "546075da",
			"depositEthForGithubUser(string)": "9996f186",
			"depositEthForIssue(string)": "f4b90ef7",
			"getIssueDepositIdsForIssueId(string)": "50aea559",
			"getIssueDepositIdsForSender()": "fb95354a",
			"getUserClaimAmount(string)": "113d4134",
			"getUserDepositIdsForGithubUser(string)": "53a61ff9",
			"getUserDepositIdsForSender()": "454d0554",
			"isTrustedForwarder(address)": "572b6c05",
			"issueDepositIdsByIssueId(string,uint256)": "04405fa9",
			"issueDepositIdsBySender(address,uint256)": "61e421d5",
			"issueDeposits(uint256)": "d224784d",
			"issueDepositsAmountByIssueId(string)": "17c486f1",
			"issuePins(string)": "cf5f5f46",
			"issueReleaseIDsByIssueId(string)": "9c900e33",
			"nextIssueDepositId()": "f63e8c70",
			"owner()": "8da5cb5b",
			"pullRequestClaimIDsByPrId(string)": "f9c8d78f",
			"pullRequestClaims(bytes32)": "4c1b100a",
			"refundIssueDeposit(uint256)": "8617fc46",
			"refundUserDeposit(uint256)": "60445fb2",
			"register(address,bytes32,string)": "64422b86",
			"releaseIssueDeposits(address,bytes32,string,string)": "3653f086",
			"releasedIssues(bytes32)": "541b6c9f",
			"renounceOwnership()": "715018a6",
			"setOctoPin(address)": "55254188",
			"setPaymaster(address)": "2a97fa77",
			"transferOwnership(address)": "f2fde38b",
			"trustedForwarder()": "7da0a877",
			"userClaimAmountByGithbUser(string)": "0f8b8afa",
			"userDepositIdsByGithubUser(string,uint256)": "746c97b9",
			"userDepositIdsBySender(address,uint256)": "64701750",
			"userDeposits(uint256)": "f16b41f4",
			"userIDsByAddress(address)": "54d16f67",
			"userIDsByGithubUser(string)": "1d2f5e83",
			"users(bytes32)": "cea6ab98",
			"versionRecipient()": "486ff0cd",
			"withdrawUserDeposit(uint256)": "c315fbca"
		}
	},
	"abi": [
		{
			"inputs": [
				{
					"internalType": "address",
					"name": "_link",
					"type": "address"
				},
				{
					"internalType": "address",
					"name": "_weth",
					"type": "address"
				},
				{
					"internalType": "address",
					"name": "_uniswap",
					"type": "address"
				},
				{
					"internalType": "address",
					"name": "_forwarder",
					"type": "address"
				}
			],
			"stateMutability": "nonpayable",
			"type": "constructor"
		},
		{
			"anonymous": false,
			"inputs": [
				{
					"indexed": true,
					"internalType": "bytes32",
					"name": "id",
					"type": "bytes32"
				}
			],
			"name": "ChainlinkCancelled",
			"type": "event"
		},
		{
			"anonymous": false,
			"inputs": [
				{
					"indexed": true,
					"internalType": "bytes32",
					"name": "id",
					"type": "bytes32"
				}
			],
			"name": "ChainlinkFulfilled",
			"type": "event"
		},
		{
			"anonymous": false,
			"inputs": [
				{
					"indexed": true,
					"internalType": "bytes32",
					"name": "id",
					"type": "bytes32"
				}
			],
			"name": "ChainlinkRequested",
			"type": "event"
		},
		{
			"anonymous": false,
			"inputs": [
				{
					"indexed": false,
					"internalType": "address",
					"name": "account",
					"type": "address"
				},
				{
					"indexed": false,
					"internalType": "uint256",
					"name": "amount",
					"type": "uint256"
				},
				{
					"indexed": false,
					"internalType": "string",
					"name": "issueId",
					"type": "string"
				}
			],
			"name": "IssueDepositEvent",
			"type": "event"
		},
		{
			"anonymous": false,
			"inputs": [
				{
					"indexed": true,
					"internalType": "address",
					"name": "previousOwner",
					"type": "address"
				},
				{
					"indexed": true,
					"internalType": "address",
					"name": "newOwner",
					"type": "address"
				}
			],
			"name": "OwnershipTransferred",
			"type": "event"
		},
		{
			"anonymous": false,
			"inputs": [
				{
					"indexed": false,
					"internalType": "string",
					"name": "issueId",
					"type": "string"
				},
				{
					"indexed": false,
					"internalType": "string",
					"name": "githubUser",
					"type": "string"
				}
			],
			"name": "ReleaseIssueDepositsEvent",
			"type": "event"
		},
		{
			"anonymous": false,
			"inputs": [
				{
					"indexed": false,
					"internalType": "address",
					"name": "account",
					"type": "address"
				},
				{
					"indexed": false,
					"internalType": "uint256",
					"name": "amount",
					"type": "uint256"
				},
				{
					"indexed": false,
					"internalType": "string",
					"name": "githubUser",
					"type": "string"
				}
			],
			"name": "UserDepositEvent",
			"type": "event"
		},
		{
			"anonymous": false,
			"inputs": [
				{
					"indexed": false,
					"internalType": "address",
					"name": "account",
					"type": "address"
				},
				{
					"indexed": false,
					"internalType": "uint256",
					"name": "amount",
					"type": "uint256"
				},
				{
					"indexed": false,
					"internalType": "string",
					"name": "githubUser",
					"type": "string"
				}
			],
			"name": "UserSendEvent",
			"type": "event"
		},
		{
			"inputs": [
				{
					"internalType": "address",
					"name": "_oracle",
					"type": "address"
				},
				{
					"internalType": "bytes32",
					"name": "_jobId",
					"type": "bytes32"
				},
				{
					"internalType": "string",
					"name": "_prId",
					"type": "string"
				},
				{
					"internalType": "string",
					"name": "_githubUser",
					"type": "string"
				}
			],
			"name": "claimPullRequest",
			"outputs": [],
			"stateMutability": "nonpayable",
			"type": "function"
		},
		{
			"inputs": [
				{
					"internalType": "string",
					"name": "_issueId",
					"type": "string"
				}
			],
			"name": "claimReleasedIssueDeposits",
			"outputs": [],
			"stateMutability": "nonpayable",
			"type": "function"
		},
		{
			"inputs": [
				{
					"internalType": "bytes32",
					"name": "_requestId",
					"type": "bytes32"
				},
				{
					"internalType": "uint256",
					"name": "_score",
					"type": "uint256"
				}
			],
			"name": "confirmPullRequestClaim",
			"outputs": [],
			"stateMutability": "nonpayable",
			"type": "function"
		},
		{
			"inputs": [
				{
					"internalType": "bytes32",
					"name": "_requestId",
					"type": "bytes32"
				}
			],
			"name": "confirmRegistration",
			"outputs": [],
			"stateMutability": "nonpayable",
			"type": "function"
		},
		{
			"inputs": [
				{
					"internalType": "bytes32",
					"name": "_requestId",
					"type": "bytes32"
				}
			],
			"name": "confirmReleaseIssueDeposits",
			"outputs": [],
			"stateMutability": "nonpayable",
			"type": "function"
		},
		{
			"inputs": [
				{
					"internalType": "string",
					"name": "_githubUser",
					"type": "string"
				},
				{
					"internalType": "uint256",
					"name": "_amount",
					"type": "uint256"
				}
			],
			"name": "deductGasFee",
			"outputs": [],
			"stateMutability": "nonpayable",
			"type": "function"
		},
		{
			"inputs": [
				{
					"internalType": "string",
					"name": "_githubUser",
					"type": "string"
				}
			],
			"name": "depositEthForGithubUser",
			"outputs": [],
			"stateMutability": "payable",
			"type": "function"
		},
		{
			"inputs": [
				{
					"internalType": "string",
					"name": "_issueId",
					"type": "string"
				}
			],
			"name": "depositEthForIssue",
			"outputs": [],
			"stateMutability": "payable",
			"type": "function"
		},
		{
			"inputs": [
				{
					"internalType": "string",
					"name": "_depositId",
					"type": "string"
				}
			],
			"name": "getIssueDepositIdsForIssueId",
			"outputs": [
				{
					"internalType": "uint256[]",
					"name": "",
					"type": "uint256[]"
				}
			],
			"stateMutability": "view",
			"type": "function"
		},
		{
			"inputs": [],
			"name": "getIssueDepositIdsForSender",
			"outputs": [
				{
					"internalType": "uint256[]",
					"name": "",
					"type": "uint256[]"
				}
			],
			"stateMutability": "view",
			"type": "function"
		},
		{
			"inputs": [
				{
					"internalType": "string",
					"name": "_githubUser",
					"type": "string"
				}
			],
			"name": "getUserClaimAmount",
			"outputs": [
				{
					"internalType": "uint256",
					"name": "",
					"type": "uint256"
				}
			],
			"stateMutability": "view",
			"type": "function"
		},
		{
			"inputs": [
				{
					"internalType": "string",
					"name": "_githubUser",
					"type": "string"
				}
			],
			"name": "getUserDepositIdsForGithubUser",
			"outputs": [
				{
					"internalType": "uint256[]",
					"name": "",
					"type": "uint256[]"
				}
			],
			"stateMutability": "view",
			"type": "function"
		},
		{
			"inputs": [],
			"name": "getUserDepositIdsForSender",
			"outputs": [
				{
					"internalType": "uint256[]",
					"name": "",
					"type": "uint256[]"
				}
			],
			"stateMutability": "view",
			"type": "function"
		},
		{
			"inputs": [
				{
					"internalType": "address",
					"name": "forwarder",
					"type": "address"
				}
			],
			"name": "isTrustedForwarder",
			"outputs": [
				{
					"internalType": "bool",
					"name": "",
					"type": "bool"
				}
			],
			"stateMutability": "view",
			"type": "function"
		},
		{
			"inputs": [
				{
					"internalType": "string",
					"name": "",
					"type": "string"
				},
				{
					"internalType": "uint256",
					"name": "",
					"type": "uint256"
				}
			],
			"name": "issueDepositIdsByIssueId",
			"outputs": [
				{
					"internalType": "uint256",
					"name": "",
					"type": "uint256"
				}
			],
			"stateMutability": "view",
			"type": "function"
		},
		{
			"inputs": [
				{
					"internalType": "address",
					"name": "",
					"type": "address"
				},
				{
					"internalType": "uint256",
					"name": "",
					"type": "uint256"
				}
			],
			"name": "issueDepositIdsBySender",
			"outputs": [
				{
					"internalType": "uint256",
					"name": "",
					"type": "uint256"
				}
			],
			"stateMutability": "view",
			"type": "function"
		},
		{
			"inputs": [
				{
					"internalType": "uint256",
					"name": "",
					"type": "uint256"
				}
			],
			"name": "issueDeposits",
			"outputs": [
				{
					"internalType": "address",
					"name": "from",
					"type": "address"
				},
				{
					"internalType": "uint256",
					"name": "amount",
					"type": "uint256"
				},
				{
					"internalType": "string",
					"name": "issueId",
					"type": "string"
				}
			],
			"stateMutability": "view",
			"type": "function"
		},
		{
			"inputs": [
				{
					"internalType": "string",
					"name": "",
					"type": "string"
				}
			],
			"name": "issueDepositsAmountByIssueId",
			"outputs": [
				{
					"internalType": "uint256",
					"name": "",
					"type": "uint256"
				}
			],
			"stateMutability": "view",
			"type": "function"
		},
		{
			"inputs": [
				{
					"internalType": "string",
					"name": "",
					"type": "string"
				}
			],
			"name": "issuePins",
			"outputs": [
				{
					"internalType": "uint256",
					"name": "",
					"type": "uint256"
				}
			],
			"stateMutability": "view",
			"type": "function"
		},
		{
			"inputs": [
				{
					"internalType": "string",
					"name": "",
					"type": "string"
				}
			],
			"name": "issueReleaseIDsByIssueId",
			"outputs": [
				{
					"internalType": "bytes32",
					"name": "",
					"type": "bytes32"
				}
			],
			"stateMutability": "view",
			"type": "function"
		},
		{
			"inputs": [],
			"name": "nextIssueDepositId",
			"outputs": [
				{
					"internalType": "uint256",
					"name": "",
					"type": "uint256"
				}
			],
			"stateMutability": "view",
			"type": "function"
		},
		{
			"inputs": [],
			"name": "owner",
			"outputs": [
				{
					"internalType": "address",
					"name": "",
					"type": "address"
				}
			],
			"stateMutability": "view",
			"type": "function"
		},
		{
			"inputs": [
				{
					"internalType": "string",
					"name": "",
					"type": "string"
				}
			],
			"name": "pullRequestClaimIDsByPrId",
			"outputs": [
				{
					"internalType": "bytes32",
					"name": "",
					"type": "bytes32"
				}
			],
			"stateMutability": "view",
			"type": "function"
		},
		{
			"inputs": [
				{
					"internalType": "bytes32",
					"name": "",
					"type": "bytes32"
				}
			],
			"name": "pullRequestClaims",
			"outputs": [
				{
					"internalType": "string",
					"name": "githubUser",
					"type": "string"
				},
				{
					"internalType": "string",
					"name": "prId",
					"type": "string"
				},
				{
					"internalType": "uint256",
					"name": "status",
					"type": "uint256"
				}
			],
			"stateMutability": "view",
			"type": "function"
		},
		{
			"inputs": [
				{
					"internalType": "uint256",
					"name": "_depositId",
					"type": "uint256"
				}
			],
			"name": "refundIssueDeposit",
			"outputs": [],
			"stateMutability": "nonpayable",
			"type": "function"
		},
		{
			"inputs": [
				{
					"internalType": "uint256",
					"name": "_depositId",
					"type": "uint256"
				}
			],
			"name": "refundUserDeposit",
			"outputs": [],
			"stateMutability": "nonpayable",
			"type": "function"
		},
		{
			"inputs": [
				{
					"internalType": "address",
					"name": "_oracle",
					"type": "address"
				},
				{
					"internalType": "bytes32",
					"name": "_jobId",
					"type": "bytes32"
				},
				{
					"internalType": "string",
					"name": "_githubUser",
					"type": "string"
				}
			],
			"name": "register",
			"outputs": [],
			"stateMutability": "nonpayable",
			"type": "function"
		},
		{
			"inputs": [
				{
					"internalType": "address",
					"name": "_oracle",
					"type": "address"
				},
				{
					"internalType": "bytes32",
					"name": "_jobId",
					"type": "bytes32"
				},
				{
					"internalType": "string",
					"name": "_issueId",
					"type": "string"
				},
				{
					"internalType": "string",
					"name": "_githubUser",
					"type": "string"
				}
			],
			"name": "releaseIssueDeposits",
			"outputs": [],
			"stateMutability": "nonpayable",
			"type": "function"
		},
		{
			"inputs": [
				{
					"internalType": "bytes32",
					"name": "",
					"type": "bytes32"
				}
			],
			"name": "releasedIssues",
			"outputs": [
				{
					"internalType": "string",
					"name": "githubUser",
					"type": "string"
				},
				{
					"internalType": "string",
					"name": "issueId",
					"type": "string"
				},
				{
					"internalType": "uint256",
					"name": "status",
					"type": "uint256"
				}
			],
			"stateMutability": "view",
			"type": "function"
		},
		{
			"inputs": [],
			"name": "renounceOwnership",
			"outputs": [],
			"stateMutability": "nonpayable",
			"type": "function"
		},
		{
			"inputs": [
				{
					"internalType": "address",
					"name": "_octoPin",
					"type": "address"
				}
			],
			"name": "setOctoPin",
			"outputs": [],
			"stateMutability": "nonpayable",
			"type": "function"
		},
		{
			"inputs": [
				{
					"internalType": "address",
					"name": "_octobayPaymaster",
					"type": "address"
				}
			],
			"name": "setPaymaster",
			"outputs": [],
			"stateMutability": "nonpayable",
			"type": "function"
		},
		{
			"inputs": [
				{
					"internalType": "address",
					"name": "newOwner",
					"type": "address"
				}
			],
			"name": "transferOwnership",
			"outputs": [],
			"stateMutability": "nonpayable",
			"type": "function"
		},
		{
			"inputs": [],
			"name": "trustedForwarder",
			"outputs": [
				{
					"internalType": "address",
					"name": "",
					"type": "address"
				}
			],
			"stateMutability": "view",
			"type": "function"
		},
		{
			"inputs": [
				{
					"internalType": "string",
					"name": "",
					"type": "string"
				}
			],
			"name": "userClaimAmountByGithbUser",
			"outputs": [
				{
					"internalType": "uint256",
					"name": "",
					"type": "uint256"
				}
			],
			"stateMutability": "view",
			"type": "function"
		},
		{
			"inputs": [
				{
					"internalType": "string",
					"name": "",
					"type": "string"
				},
				{
					"internalType": "uint256",
					"name": "",
					"type": "uint256"
				}
			],
			"name": "userDepositIdsByGithubUser",
			"outputs": [
				{
					"internalType": "uint256",
					"name": "",
					"type": "uint256"
				}
			],
			"stateMutability": "view",
			"type": "function"
		},
		{
			"inputs": [
				{
					"internalType": "address",
					"name": "",
					"type": "address"
				},
				{
					"internalType": "uint256",
					"name": "",
					"type": "uint256"
				}
			],
			"name": "userDepositIdsBySender",
			"outputs": [
				{
					"internalType": "uint256",
					"name": "",
					"type": "uint256"
				}
			],
			"stateMutability": "view",
			"type": "function"
		},
		{
			"inputs": [
				{
					"internalType": "uint256",
					"name": "",
					"type": "uint256"
				}
			],
			"name": "userDeposits",
			"outputs": [
				{
					"internalType": "address",
					"name": "from",
					"type": "address"
				},
				{
					"internalType": "uint256",
					"name": "amount",
					"type": "uint256"
				},
				{
					"internalType": "string",
					"name": "githubUser",
					"type": "string"
				}
			],
			"stateMutability": "view",
			"type": "function"
		},
		{
			"inputs": [
				{
					"internalType": "address",
					"name": "",
					"type": "address"
				}
			],
			"name": "userIDsByAddress",
			"outputs": [
				{
					"internalType": "bytes32",
					"name": "",
					"type": "bytes32"
				}
			],
			"stateMutability": "view",
			"type": "function"
		},
		{
			"inputs": [
				{
					"internalType": "string",
					"name": "",
					"type": "string"
				}
			],
			"name": "userIDsByGithubUser",
			"outputs": [
				{
					"internalType": "bytes32",
					"name": "",
					"type": "bytes32"
				}
			],
			"stateMutability": "view",
			"type": "function"
		},
		{
			"inputs": [
				{
					"internalType": "bytes32",
					"name": "",
					"type": "bytes32"
				}
			],
			"name": "users",
			"outputs": [
				{
					"internalType": "string",
					"name": "githubUser",
					"type": "string"
				},
				{
					"internalType": "address",
					"name": "ethAddress",
					"type": "address"
				},
				{
					"internalType": "uint8",
					"name": "status",
					"type": "uint8"
				}
			],
			"stateMutability": "view",
			"type": "function"
		},
		{
			"inputs": [],
			"name": "versionRecipient",
			"outputs": [
				{
					"internalType": "string",
					"name": "",
					"type": "string"
				}
			],
			"stateMutability": "view",
			"type": "function"
		},
		{
			"inputs": [
				{
					"internalType": "uint256",
					"name": "_depositId",
					"type": "uint256"
				}
			],
			"name": "withdrawUserDeposit",
			"outputs": [],
			"stateMutability": "nonpayable",
			"type": "function"
		}
	]
}