{
  "_format": "hh-sol-artifact-1",
  "contractName": "OpenQ",
  "sourceName": "contracts/OpenQ.sol",
  "abi": [
    {
      "anonymous": false,
      "inputs": [
        {
          "indexed": false,
          "internalType": "string",
          "name": "issueId",
          "type": "string"
        },
        {
          "indexed": true,
          "internalType": "address",
          "name": "issueAddress",
          "type": "address"
        },
        {
          "indexed": true,
          "internalType": "address",
          "name": "payoutAddress",
          "type": "address"
        }
      ],
      "name": "IssueClosed",
      "type": "event"
    },
    {
      "anonymous": false,
      "inputs": [
        {
          "indexed": true,
          "internalType": "address",
          "name": "from",
          "type": "address"
        },
        {
          "indexed": false,
          "internalType": "string",
          "name": "issueId",
          "type": "string"
        },
        {
          "indexed": true,
          "internalType": "address",
          "name": "issueAddress",
          "type": "address"
        }
      ],
      "name": "IssueCreated",
      "type": "event"
    },
    {
      "anonymous": false,
      "inputs": [
        {
          "indexed": true,
          "internalType": "address",
          "name": "previousOwner",
          "type": "address"
        },
        {
          "indexed": true,
          "internalType": "address",
          "name": "newOwner",
          "type": "address"
        }
      ],
      "name": "OwnershipTransferred",
      "type": "event"
    },
    {
      "inputs": [
        {
          "internalType": "address",
          "name": "tokenAddress",
          "type": "address"
        }
      ],
      "name": "addTokenAddress",
      "outputs": [],
      "stateMutability": "nonpayable",
      "type": "function"
    },
    {
      "inputs": [
        {
          "internalType": "address",
          "name": "",
          "type": "address"
        }
      ],
      "name": "addressToIssue",
      "outputs": [
        {
          "internalType": "string",
          "name": "",
          "type": "string"
        }
      ],
      "stateMutability": "view",
      "type": "function"
    },
    {
      "inputs": [
        {
          "internalType": "string",
          "name": "_id",
          "type": "string"
        },
        {
          "internalType": "address",
          "name": "_payoutAddress",
          "type": "address"
        }
      ],
      "name": "claimBounty",
      "outputs": [],
      "stateMutability": "nonpayable",
      "type": "function"
    },
    {
      "inputs": [
        {
          "internalType": "string",
          "name": "_id",
          "type": "string"
        }
      ],
      "name": "getBountyAddress",
      "outputs": [
        {
          "internalType": "address",
          "name": "",
          "type": "address"
        }
      ],
      "stateMutability": "view",
      "type": "function"
    },
    {
      "inputs": [],
      "name": "getIssueIds",
      "outputs": [
        {
          "internalType": "string[]",
          "name": "",
          "type": "string[]"
        }
      ],
      "stateMutability": "view",
      "type": "function"
    },
    {
      "inputs": [
        {
          "internalType": "uint256",
          "name": "",
          "type": "uint256"
        }
      ],
      "name": "issueIds",
      "outputs": [
        {
          "internalType": "string",
          "name": "",
          "type": "string"
        }
      ],
      "stateMutability": "view",
      "type": "function"
    },
    {
      "inputs": [
        {
          "internalType": "string",
          "name": "id_",
          "type": "string"
        }
      ],
      "name": "issueIsOpen",
      "outputs": [
        {
          "internalType": "bool",
          "name": "",
          "type": "bool"
        }
      ],
      "stateMutability": "view",
      "type": "function"
    },
    {
      "inputs": [
        {
          "internalType": "string",
          "name": "",
          "type": "string"
        }
      ],
      "name": "issueToAddress",
      "outputs": [
        {
          "internalType": "address",
          "name": "",
          "type": "address"
        }
      ],
      "stateMutability": "view",
      "type": "function"
    },
    {
      "inputs": [
        {
          "internalType": "string",
          "name": "_id",
          "type": "string"
        }
      ],
      "name": "mintBounty",
      "outputs": [
        {
          "internalType": "address",
          "name": "issueAddress",
          "type": "address"
        }
      ],
      "stateMutability": "nonpayable",
      "type": "function"
    },
    {
      "inputs": [],
      "name": "owner",
      "outputs": [
        {
          "internalType": "address",
          "name": "",
          "type": "address"
        }
      ],
      "stateMutability": "view",
      "type": "function"
    },
    {
      "inputs": [],
      "name": "renounceOwnership",
      "outputs": [],
      "stateMutability": "nonpayable",
      "type": "function"
    },
    {
      "inputs": [
        {
          "internalType": "uint256",
          "name": "",
          "type": "uint256"
        }
      ],
      "name": "tokenAddresses",
      "outputs": [
        {
          "internalType": "address",
          "name": "",
          "type": "address"
        }
      ],
      "stateMutability": "view",
      "type": "function"
    },
    {
      "inputs": [
        {
          "internalType": "address",
          "name": "newOwner",
          "type": "address"
        }
      ],
      "name": "transferOwnership",
      "outputs": [],
      "stateMutability": "nonpayable",
      "type": "function"
    }
  ],
  "bytecode": "0x608060405234801561001057600080fd5b5061002d61002261003260201b60201c565b61003a60201b60201c565b6100fe565b600033905090565b60008060009054906101000a900473ffffffffffffffffffffffffffffffffffffffff169050816000806101000a81548173ffffffffffffffffffffffffffffffffffffffff021916908373ffffffffffffffffffffffffffffffffffffffff1602179055508173ffffffffffffffffffffffffffffffffffffffff168173ffffffffffffffffffffffffffffffffffffffff167f8be0079c531659141344cd1fd0a4f28419497f9722a3daafe3b4186f6b6457e060405160405180910390a35050565b61310f8061010d6000396000f3fe60806040523480156200001157600080fd5b5060043610620000e25760003560e01c8063b83b6b651162000099578063e5df8b84116200006f578063e5df8b84146200024f578063eea7f9241462000285578063f2fde38b14620002bb578063fcedbecf14620002db57620000e2565b8063b83b6b6514620001c1578063c4a9199c14620001f7578063cde96283146200022d57620000e2565b80633e7da1a914620000e75780634badc44e146200010757806351992fcb146200013d578063715018a6146200015d5780638da5cb5b1462000169578063b233e6e8146200018b575b600080fd5b620001056004803603810190620000ff91906200115c565b62000311565b005b6200012560048036038101906200011f9190620011ff565b620004bf565b604051620001349190620015b1565b60405180910390f35b6200015b60048036038101906200015591906200108f565b62000574565b005b62000167620005da565b005b620001736200066b565b604051620001829190620014f0565b60405180910390f35b620001a96004803603810190620001a3919062001113565b62000694565b604051620001b89190620014f0565b60405180910390f35b620001df6004803603810190620001d991906200108f565b620008ea565b604051620001ee9190620015b1565b60405180910390f35b6200021560048036038101906200020f919062001113565b62000992565b60405162000224919062001531565b60405180910390f35b6200023762000b2d565b6040516200024691906200150d565b60405180910390f35b6200026d6004803603810190620002679190620011ff565b62000c10565b6040516200027c9190620014f0565b60405180910390f35b620002a360048036038101906200029d9190620011ba565b62000c50565b604051620002b29190620014f0565b60405180910390f35b620002d96004803603810190620002d391906200108f565b62000c99565b005b620002f96004803603810190620002f3919062001113565b62000d9d565b604051620003089190620014f0565b60405180910390f35b6200031b62000dea565b73ffffffffffffffffffffffffffffffffffffffff166200033b6200066b565b73ffffffffffffffffffffffffffffffffffffffff161462000394576040517f08c379a00000000000000000000000000000000000000000000000000000000081526004016200038b9062001619565b60405180910390fd5b600060028484604051620003aa929190620014d5565b908152602001604051809103902060009054906101000a900473ffffffffffffffffffffffffffffffffffffffff16905060008190508073ffffffffffffffffffffffffffffffffffffffff16639375dd90846040518263ffffffff1660e01b81526004016200041b9190620014f0565b600060405180830381600087803b1580156200043657600080fd5b505af11580156200044b573d6000803e3d6000fd5b505050508273ffffffffffffffffffffffffffffffffffffffff168273ffffffffffffffffffffffffffffffffffffffff167fe8bca3c18ca1c7ab481718f184745e0be969b9ff855fc58d9a483562ec9c960d8787604051620004b09291906200154e565b60405180910390a35050505050565b60018181548110620004d057600080fd5b906000526020600020016000915090508054620004ed90620017f8565b80601f01602080910402602001604051908101604052809291908181526020018280546200051b90620017f8565b80156200056c5780601f1062000540576101008083540402835291602001916200056c565b820191906000526020600020905b8154815290600101906020018083116200054e57829003601f168201915b505050505081565b6004819080600181540180825580915050600190039060005260206000200160009091909190916101000a81548173ffffffffffffffffffffffffffffffffffffffff021916908373ffffffffffffffffffffffffffffffffffffffff16021790555050565b620005e462000dea565b73ffffffffffffffffffffffffffffffffffffffff16620006046200066b565b73ffffffffffffffffffffffffffffffffffffffff16146200065d576040517f08c379a0000000000000000000000000000000000000000000000000000000008152600401620006549062001619565b60405180910390fd5b62000669600062000df2565b565b60008060009054906101000a900473ffffffffffffffffffffffffffffffffffffffff16905090565b60008073ffffffffffffffffffffffffffffffffffffffff1660028484604051620006c1929190620014d5565b908152602001604051809103902060009054906101000a900473ffffffffffffffffffffffffffffffffffffffff1673ffffffffffffffffffffffffffffffffffffffff161462000749576040517f08c379a00000000000000000000000000000000000000000000000000000000081526004016200074090620015f7565b60405180910390fd5b828260046040516200075b9062000eb6565b620007699392919062001574565b604051809103906000f08015801562000786573d6000803e3d6000fd5b50905080600284846040516200079e929190620014d5565b908152602001604051809103902060006101000a81548173ffffffffffffffffffffffffffffffffffffffff021916908373ffffffffffffffffffffffffffffffffffffffff1602179055508282600360008473ffffffffffffffffffffffffffffffffffffffff1673ffffffffffffffffffffffffffffffffffffffff16815260200190815260200160002091906200083a92919062000ec4565b5060018383909180600181540180825580915050600190039060005260206000200160009091929091929091929091925091906200087a92919062000ec4565b508073ffffffffffffffffffffffffffffffffffffffff163373ffffffffffffffffffffffffffffffffffffffff167fd093611f2be5c7b2095065f744ea72e98dfb48b49a9c50a55206ba8698e441d18585604051620008dc9291906200154e565b60405180910390a392915050565b600360205280600052604060002060009150905080546200090b90620017f8565b80601f01602080910402602001604051908101604052809291908181526020018280546200093990620017f8565b80156200098a5780601f106200095e576101008083540402835291602001916200098a565b820191906000526020600020905b8154815290600101906020018083116200096c57829003601f168201915b505050505081565b6000803073ffffffffffffffffffffffffffffffffffffffff1663eea7f92485856040518363ffffffff1660e01b8152600401620009d29291906200154e565b60206040518083038186803b158015620009eb57600080fd5b505afa15801562000a00573d6000803e3d6000fd5b505050506040513d601f19601f8201168201806040525081019062000a269190620010bb565b9050600080600181111562000a64577f4e487b7100000000000000000000000000000000000000000000000000000000600052602160045260246000fd5b8273ffffffffffffffffffffffffffffffffffffffff1663200d2ed26040518163ffffffff1660e01b815260040160206040518083038186803b15801562000aab57600080fd5b505afa15801562000ac0573d6000803e3d6000fd5b505050506040513d601f19601f8201168201806040525081019062000ae69190620010e7565b600181111562000b1f577f4e487b7100000000000000000000000000000000000000000000000000000000600052602160045260246000fd5b149050809250505092915050565b60606001805480602002602001604051908101604052809291908181526020016000905b8282101562000c0757838290600052602060002001805462000b7390620017f8565b80601f016020809104026020016040519081016040528092919081815260200182805462000ba190620017f8565b801562000bf25780601f1062000bc65761010080835404028352916020019162000bf2565b820191906000526020600020905b81548152906001019060200180831162000bd457829003601f168201915b50505050508152602001906001019062000b51565b50505050905090565b6004818154811062000c2157600080fd5b906000526020600020016000915054906101000a900473ffffffffffffffffffffffffffffffffffffffff1681565b6002818051602081018201805184825260208301602085012081835280955050505050506000915054906101000a900473ffffffffffffffffffffffffffffffffffffffff1681565b62000ca362000dea565b73ffffffffffffffffffffffffffffffffffffffff1662000cc36200066b565b73ffffffffffffffffffffffffffffffffffffffff161462000d1c576040517f08c379a000000000000000000000000000000000000000000000000000000000815260040162000d139062001619565b60405180910390fd5b600073ffffffffffffffffffffffffffffffffffffffff168173ffffffffffffffffffffffffffffffffffffffff16141562000d8f576040517f08c379a000000000000000000000000000000000000000000000000000000000815260040162000d8690620015d5565b60405180910390fd5b62000d9a8162000df2565b50565b60006002838360405162000db3929190620014d5565b908152602001604051809103902060009054906101000a900473ffffffffffffffffffffffffffffffffffffffff16905092915050565b600033905090565b60008060009054906101000a900473ffffffffffffffffffffffffffffffffffffffff169050816000806101000a81548173ffffffffffffffffffffffffffffffffffffffff021916908373ffffffffffffffffffffffffffffffffffffffff1602179055508173ffffffffffffffffffffffffffffffffffffffff168173ffffffffffffffffffffffffffffffffffffffff167f8be0079c531659141344cd1fd0a4f28419497f9722a3daafe3b4186f6b6457e060405160405180910390a35050565b61166e8062001a6c83390190565b82805462000ed290620017f8565b90600052602060002090601f01602090048101928262000ef6576000855562000f42565b82601f1062000f1157803560ff191683800117855562000f42565b8280016001018555821562000f42579182015b8281111562000f4157823582559160200191906001019062000f24565b5b50905062000f51919062000f55565b5090565b5b8082111562000f7057600081600090555060010162000f56565b5090565b600062000f8b62000f858462001664565b6200163b565b90508281526020810184848401111562000fa457600080fd5b62000fb1848285620017b3565b509392505050565b60008135905062000fca8162001a26565b92915050565b60008151905062000fe18162001a26565b92915050565b60008151905062000ff88162001a40565b92915050565b60008083601f8401126200101157600080fd5b8235905067ffffffffffffffff8111156200102b57600080fd5b6020830191508360018202830111156200104457600080fd5b9250929050565b600082601f8301126200105d57600080fd5b81356200106f84826020860162000f74565b91505092915050565b600081359050620010898162001a51565b92915050565b600060208284031215620010a257600080fd5b6000620010b28482850162000fb9565b91505092915050565b600060208284031215620010ce57600080fd5b6000620010de8482850162000fd0565b91505092915050565b600060208284031215620010fa57600080fd5b60006200110a8482850162000fe7565b91505092915050565b600080602083850312156200112757600080fd5b600083013567ffffffffffffffff8111156200114257600080fd5b620011508582860162000ffe565b92509250509250929050565b6000806000604084860312156200117257600080fd5b600084013567ffffffffffffffff8111156200118d57600080fd5b6200119b8682870162000ffe565b93509350506020620011b08682870162000fb9565b9150509250925092565b600060208284031215620011cd57600080fd5b600082013567ffffffffffffffff811115620011e857600080fd5b620011f6848285016200104b565b91505092915050565b6000602082840312156200121257600080fd5b6000620012228482850162001078565b91505092915050565b60006200123983836200125b565b60208301905092915050565b6000620012538383620013de565b905092915050565b620012668162001769565b82525050565b620012778162001769565b82525050565b60006200128a82620016bf565b620012968185620016fa565b9350620012a3836200169a565b8060005b83811015620012e357620012bb82620018e0565b620012c788826200122b565b9750620012d483620016e0565b925050600181019050620012a7565b5085935050505092915050565b6000620012fd82620016ca565b6200130981856200170b565b9350836020820285016200131d85620016af565b8060005b858110156200135f57848403895281516200133d858262001245565b94506200134a83620016ed565b925060208a0199505060018101905062001321565b50829750879550505050505092915050565b6200137c816200177d565b82525050565b60006200139083856200172d565b93506200139f838584620017b3565b620013aa83620018f5565b840190509392505050565b6000620013c383856200173e565b9350620013d2838584620017b3565b82840190509392505050565b6000620013eb82620016d5565b620013f781856200171c565b935062001409818560208601620017c2565b6200141481620018f5565b840191505092915050565b60006200142c82620016d5565b6200143881856200172d565b93506200144a818560208601620017c2565b6200145581620018f5565b840191505092915050565b60006200146f6026836200172d565b91506200147c8262001913565b604082019050919050565b600062001496606f836200172d565b9150620014a38262001962565b608082019050919050565b6000620014bd6020836200172d565b9150620014ca82620019fd565b602082019050919050565b6000620014e4828486620013b5565b91508190509392505050565b60006020820190506200150760008301846200126c565b92915050565b60006020820190508181036000830152620015298184620012f0565b905092915050565b600060208201905062001548600083018462001371565b92915050565b600060208201905081810360008301526200156b81848662001382565b90509392505050565b600060408201905081810360008301526200159181858762001382565b90508181036020830152620015a781846200127d565b9050949350505050565b60006020820190508181036000830152620015cd81846200141f565b905092915050565b60006020820190508181036000830152620015f08162001460565b9050919050565b60006020820190508181036000830152620016128162001487565b9050919050565b600060208201905081810360008301526200163481620014ae565b9050919050565b6000620016476200165a565b90506200165582826200184c565b919050565b6000604051905090565b600067ffffffffffffffff821115620016825762001681620018b1565b5b6200168d82620018f5565b9050602081019050919050565b60008190508160005260206000209050919050565b6000819050602082019050919050565b600081549050919050565b600081519050919050565b600081519050919050565b6000600182019050919050565b6000602082019050919050565b600082825260208201905092915050565b600082825260208201905092915050565b600082825260208201905092915050565b600082825260208201905092915050565b600081905092915050565b600073ffffffffffffffffffffffffffffffffffffffff82169050919050565b6000620017768262001789565b9050919050565b60008115159050919050565b600073ffffffffffffffffffffffffffffffffffffffff82169050919050565b6000819050919050565b82818337600083830152505050565b60005b83811015620017e2578082015181840152602081019050620017c5565b83811115620017f2576000848401525b50505050565b600060028204905060018216806200181157607f821691505b6020821081141562001828576200182762001882565b5b50919050565b6000620018456200183f8362001906565b62001749565b9050919050565b6200185782620018f5565b810181811067ffffffffffffffff82111715620018795762001878620018b1565b5b80604052505050565b7f4e487b7100000000000000000000000000000000000000000000000000000000600052602260045260246000fd5b7f4e487b7100000000000000000000000000000000000000000000000000000000600052604160045260246000fd5b6000620018ee82546200182e565b9050919050565b6000601f19601f8301169050919050565b60008160001c9050919050565b7f4f776e61626c653a206e6577206f776e657220697320746865207a65726f206160008201527f6464726573730000000000000000000000000000000000000000000000000000602082015250565b7f497373756520616c72656164792065786973747320666f7220676976656e206960008201527f642e2046696e642069747320616464726573732062792063616c6c696e67206960208201527f73737565546f41646472657373206f6e207468697320636f6e7472616374207760408201527f6974682074686520697373756549640000000000000000000000000000000000606082015250565b7f4f776e61626c653a2063616c6c6572206973206e6f7420746865206f776e6572600082015250565b62001a318162001769565b811462001a3d57600080fd5b50565b6002811062001a4e57600080fd5b50565b62001a5c81620017a9565b811462001a6857600080fd5b5056fe60806040523480156200001157600080fd5b506040516200166e3803806200166e833981810160405281019062000037919062000419565b620000576200004b620000e360201b60201c565b620000eb60201b60201c565b81600190805190602001906200006f929190620001af565b5080600390805190602001906200008892919062000240565b506000600460006101000a81548160ff02191690836001811115620000d6577f4e487b7100000000000000000000000000000000000000000000000000000000600052602160045260246000fd5b0217905550505062000679565b600033905090565b60008060009054906101000a900473ffffffffffffffffffffffffffffffffffffffff169050816000806101000a81548173ffffffffffffffffffffffffffffffffffffffff021916908373ffffffffffffffffffffffffffffffffffffffff1602179055508173ffffffffffffffffffffffffffffffffffffffff168173ffffffffffffffffffffffffffffffffffffffff167f8be0079c531659141344cd1fd0a4f28419497f9722a3daafe3b4186f6b6457e060405160405180910390a35050565b828054620001bd9062000584565b90600052602060002090601f016020900481019282620001e157600085556200022d565b82601f10620001fc57805160ff19168380011785556200022d565b828001600101855582156200022d579182015b828111156200022c5782518255916020019190600101906200020f565b5b5090506200023c9190620002cf565b5090565b828054828255906000526020600020908101928215620002bc579160200282015b82811115620002bb5782518260006101000a81548173ffffffffffffffffffffffffffffffffffffffff021916908373ffffffffffffffffffffffffffffffffffffffff1602179055509160200191906001019062000261565b5b509050620002cb9190620002cf565b5090565b5b80821115620002ea576000816000905550600101620002d0565b5090565b600062000305620002ff84620004b5565b6200048c565b905080838252602082019050828560208602820111156200032557600080fd5b60005b858110156200035957816200033e8882620003a8565b84526020840193506020830192505060018101905062000328565b5050509392505050565b60006200037a6200037484620004e4565b6200048c565b9050828152602081018484840111156200039357600080fd5b620003a08482856200054e565b509392505050565b600081519050620003b9816200065f565b92915050565b600082601f830112620003d157600080fd5b8151620003e3848260208601620002ee565b91505092915050565b600082601f830112620003fe57600080fd5b81516200041084826020860162000363565b91505092915050565b600080604083850312156200042d57600080fd5b600083015167ffffffffffffffff8111156200044857600080fd5b6200045685828601620003ec565b925050602083015167ffffffffffffffff8111156200047457600080fd5b6200048285828601620003bf565b9150509250929050565b600062000498620004ab565b9050620004a68282620005ba565b919050565b6000604051905090565b600067ffffffffffffffff821115620004d357620004d26200061f565b5b602082029050602081019050919050565b600067ffffffffffffffff8211156200050257620005016200061f565b5b6200050d826200064e565b9050602081019050919050565b600062000527826200052e565b9050919050565b600073ffffffffffffffffffffffffffffffffffffffff82169050919050565b60005b838110156200056e57808201518184015260208101905062000551565b838111156200057e576000848401525b50505050565b600060028204905060018216806200059d57607f821691505b60208210811415620005b457620005b3620005f0565b5b50919050565b620005c5826200064e565b810181811067ffffffffffffffff82111715620005e757620005e66200061f565b5b80604052505050565b7f4e487b7100000000000000000000000000000000000000000000000000000000600052602260045260246000fd5b7f4e487b7100000000000000000000000000000000000000000000000000000000600052604160045260246000fd5b6000601f19601f8301169050919050565b6200066a816200051a565b81146200067657600080fd5b50565b610fe580620006896000396000f3fe608060405234801561001057600080fd5b50600436106100935760003560e01c80638da5cb5b116100665780638da5cb5b146100fc5780639375dd901461011a578063b588d22514610136578063e5df8b8414610166578063f2fde38b1461019657610093565b8063200d2ed21461009857806332710c6e146100b65780637044f282146100d4578063715018a6146100f2575b600080fd5b6100a06101b2565b6040516100ad9190610bf2565b60405180910390f35b6100be6101c5565b6040516100cb9190610c0d565b60405180910390f35b6100dc610253565b6040516100e99190610bae565b60405180910390f35b6100fa610279565b005b610104610301565b6040516101119190610bae565b60405180910390f35b610134600480360381019061012f9190610a12565b61032a565b005b610150600480360381019061014b9190610a12565b61070f565b60405161015d9190610c8f565b60405180910390f35b610180600480360381019061017b9190610a8d565b6107a6565b60405161018d9190610bae565b60405180910390f35b6101b060048036038101906101ab9190610a12565b6107e5565b005b600460009054906101000a900460ff1681565b600180546101d290610d66565b80601f01602080910402602001604051908101604052809291908181526020018280546101fe90610d66565b801561024b5780601f106102205761010080835404028352916020019161024b565b820191906000526020600020905b81548152906001019060200180831161022e57829003601f168201915b505050505081565b600260009054906101000a900473ffffffffffffffffffffffffffffffffffffffff1681565b6102816108dd565b73ffffffffffffffffffffffffffffffffffffffff1661029f610301565b73ffffffffffffffffffffffffffffffffffffffff16146102f5576040517f08c379a00000000000000000000000000000000000000000000000000000000081526004016102ec90610c6f565b60405180910390fd5b6102ff60006108e5565b565b60008060009054906101000a900473ffffffffffffffffffffffffffffffffffffffff16905090565b6103326108dd565b73ffffffffffffffffffffffffffffffffffffffff16610350610301565b73ffffffffffffffffffffffffffffffffffffffff16146103a6576040517f08c379a000000000000000000000000000000000000000000000000000000000815260040161039d90610c6f565b60405180910390fd5b600060018111156103e0577f4e487b7100000000000000000000000000000000000000000000000000000000600052602160045260246000fd5b3073ffffffffffffffffffffffffffffffffffffffff1663200d2ed26040518163ffffffff1660e01b815260040160206040518083038186803b15801561042657600080fd5b505afa15801561043a573d6000803e3d6000fd5b505050506040513d601f19601f8201168201806040525081019061045e9190610a64565b6001811115610496577f4e487b7100000000000000000000000000000000000000000000000000000000600052602160045260246000fd5b146104d6576040517f08c379a00000000000000000000000000000000000000000000000000000000081526004016104cd90610c4f565b60405180910390fd5b60005b60038054905081101561067957600060038281548110610522577f4e487b7100000000000000000000000000000000000000000000000000000000600052603260045260246000fd5b9060005260206000200160009054906101000a900473ffffffffffffffffffffffffffffffffffffffff1690508073ffffffffffffffffffffffffffffffffffffffff1663a9059cbb848373ffffffffffffffffffffffffffffffffffffffff166370a08231306040518263ffffffff1660e01b81526004016105a59190610bae565b60206040518083038186803b1580156105bd57600080fd5b505afa1580156105d1573d6000803e3d6000fd5b505050506040513d601f19601f820116820180604052508101906105f59190610ab6565b6040518363ffffffff1660e01b8152600401610612929190610bc9565b602060405180830381600087803b15801561062c57600080fd5b505af1158015610640573d6000803e3d6000fd5b505050506040513d601f19601f820116820180604052508101906106649190610a3b565b5050808061067190610d98565b9150506104d9565b506001600460006101000a81548160ff021916908360018111156106c6577f4e487b7100000000000000000000000000000000000000000000000000000000600052602160045260246000fd5b021790555080600260006101000a81548173ffffffffffffffffffffffffffffffffffffffff021916908373ffffffffffffffffffffffffffffffffffffffff16021790555050565b6000808290508073ffffffffffffffffffffffffffffffffffffffff166370a08231306040518263ffffffff1660e01b815260040161074e9190610bae565b60206040518083038186803b15801561076657600080fd5b505afa15801561077a573d6000803e3d6000fd5b505050506040513d601f19601f8201168201806040525081019061079e9190610ab6565b915050919050565b600381815481106107b657600080fd5b906000526020600020016000915054906101000a900473ffffffffffffffffffffffffffffffffffffffff1681565b6107ed6108dd565b73ffffffffffffffffffffffffffffffffffffffff1661080b610301565b73ffffffffffffffffffffffffffffffffffffffff1614610861576040517f08c379a000000000000000000000000000000000000000000000000000000000815260040161085890610c6f565b60405180910390fd5b600073ffffffffffffffffffffffffffffffffffffffff168173ffffffffffffffffffffffffffffffffffffffff1614156108d1576040517f08c379a00000000000000000000000000000000000000000000000000000000081526004016108c890610c2f565b60405180910390fd5b6108da816108e5565b50565b600033905090565b60008060009054906101000a900473ffffffffffffffffffffffffffffffffffffffff169050816000806101000a81548173ffffffffffffffffffffffffffffffffffffffff021916908373ffffffffffffffffffffffffffffffffffffffff1602179055508173ffffffffffffffffffffffffffffffffffffffff168173ffffffffffffffffffffffffffffffffffffffff167f8be0079c531659141344cd1fd0a4f28419497f9722a3daafe3b4186f6b6457e060405160405180910390a35050565b6000813590506109b881610f5a565b92915050565b6000815190506109cd81610f71565b92915050565b6000815190506109e281610f88565b92915050565b6000813590506109f781610f98565b92915050565b600081519050610a0c81610f98565b92915050565b600060208284031215610a2457600080fd5b6000610a32848285016109a9565b91505092915050565b600060208284031215610a4d57600080fd5b6000610a5b848285016109be565b91505092915050565b600060208284031215610a7657600080fd5b6000610a84848285016109d3565b91505092915050565b600060208284031215610a9f57600080fd5b6000610aad848285016109e8565b91505092915050565b600060208284031215610ac857600080fd5b6000610ad6848285016109fd565b91505092915050565b610ae881610cc6565b82525050565b610af781610d21565b82525050565b6000610b0882610caa565b610b128185610cb5565b9350610b22818560208601610d33565b610b2b81610e6e565b840191505092915050565b6000610b43602683610cb5565b9150610b4e82610e7f565b604082019050919050565b6000610b66602f83610cb5565b9150610b7182610ece565b604082019050919050565b6000610b89602083610cb5565b9150610b9482610f1d565b602082019050919050565b610ba881610d17565b82525050565b6000602082019050610bc36000830184610adf565b92915050565b6000604082019050610bde6000830185610adf565b610beb6020830184610b9f565b9392505050565b6000602082019050610c076000830184610aee565b92915050565b60006020820190508181036000830152610c278184610afd565b905092915050565b60006020820190508181036000830152610c4881610b36565b9050919050565b60006020820190508181036000830152610c6881610b59565b9050919050565b60006020820190508181036000830152610c8881610b7c565b9050919050565b6000602082019050610ca46000830184610b9f565b92915050565b600081519050919050565b600082825260208201905092915050565b6000610cd182610cf7565b9050919050565b60008115159050919050565b6000819050610cf282610f46565b919050565b600073ffffffffffffffffffffffffffffffffffffffff82169050919050565b6000819050919050565b6000610d2c82610ce4565b9050919050565b60005b83811015610d51578082015181840152602081019050610d36565b83811115610d60576000848401525b50505050565b60006002820490506001821680610d7e57607f821691505b60208210811415610d9257610d91610e3f565b5b50919050565b6000610da382610d17565b91507fffffffffffffffffffffffffffffffffffffffffffffffffffffffffffffffff821415610dd657610dd5610de1565b5b600182019050919050565b7f4e487b7100000000000000000000000000000000000000000000000000000000600052601160045260246000fd5b7f4e487b7100000000000000000000000000000000000000000000000000000000600052602160045260246000fd5b7f4e487b7100000000000000000000000000000000000000000000000000000000600052602260045260246000fd5b6000601f19601f8301169050919050565b7f4f776e61626c653a206e6577206f776e657220697320746865207a65726f206160008201527f6464726573730000000000000000000000000000000000000000000000000000602082015250565b7f5468697320697320697373756520697320636c6f7365642e2043616e6e6f742060008201527f776974686472617720616761696e2e0000000000000000000000000000000000602082015250565b7f4f776e61626c653a2063616c6c6572206973206e6f7420746865206f776e6572600082015250565b60028110610f5757610f56610e10565b5b50565b610f6381610cc6565b8114610f6e57600080fd5b50565b610f7a81610cd8565b8114610f8557600080fd5b50565b60028110610f9557600080fd5b50565b610fa181610d17565b8114610fac57600080fd5b5056fea264697066735822122059d37e03d7485db3fcec85389b9704baeec9f93387a7a79ec8922b1a0728310464736f6c63430008040033a2646970667358221220fc2bc0b53550003731ceb0682487806764d1a8f4385e5432f3a41f20e6531ea264736f6c63430008040033",
  "linkReferences": {},
  "deployedLinkReferences": {}
}