{
  "_format": "hh-sol-artifact-1",
  "contractName": "OpenQ",
  "sourceName": "contracts/OpenQ.sol",
  "abi": [
    {
      "anonymous": false,
      "inputs": [
        {
          "indexed": false,
          "internalType": "string",
          "name": "issueId",
          "type": "string"
        },
        {
          "indexed": false,
          "internalType": "address",
          "name": "issueAddress",
          "type": "address"
        },
        {
          "indexed": false,
          "internalType": "address",
          "name": "tokenAddress",
          "type": "address"
        },
        {
          "indexed": false,
          "internalType": "address",
          "name": "funder",
          "type": "address"
        },
        {
          "indexed": false,
          "internalType": "uint256",
          "name": "value",
          "type": "uint256"
        },
        {
          "indexed": false,
          "internalType": "uint256",
          "name": "refundTime",
          "type": "uint256"
        }
      ],
      "name": "DepositsRefunded",
      "type": "event"
    },
    {
      "anonymous": false,
      "inputs": [
        {
          "indexed": false,
          "internalType": "string",
          "name": "issueId",
          "type": "string"
        },
        {
          "indexed": false,
          "internalType": "address",
          "name": "issueAddress",
          "type": "address"
        },
        {
          "indexed": false,
          "internalType": "address",
          "name": "tokenAddress",
          "type": "address"
        },
        {
          "indexed": false,
          "internalType": "address",
          "name": "sender",
          "type": "address"
        },
        {
          "indexed": false,
          "internalType": "uint256",
          "name": "value",
          "type": "uint256"
        },
        {
          "indexed": false,
          "internalType": "uint256",
          "name": "receiveTime",
          "type": "uint256"
        }
      ],
      "name": "FundsReceived",
      "type": "event"
    },
    {
      "anonymous": false,
      "inputs": [
        {
          "indexed": false,
          "internalType": "string",
          "name": "issueId",
          "type": "string"
        },
        {
          "indexed": true,
          "internalType": "address",
          "name": "issueAddress",
          "type": "address"
        },
        {
          "indexed": true,
          "internalType": "address",
          "name": "payoutAddress",
          "type": "address"
        },
        {
          "indexed": false,
          "internalType": "uint256",
          "name": "issueClosedTime",
          "type": "uint256"
        }
      ],
      "name": "IssueClosed",
      "type": "event"
    },
    {
      "anonymous": false,
      "inputs": [
        {
          "indexed": false,
          "internalType": "string",
          "name": "issueId",
          "type": "string"
        },
        {
          "indexed": true,
          "internalType": "address",
          "name": "issuer",
          "type": "address"
        },
        {
          "indexed": true,
          "internalType": "address",
          "name": "issueAddress",
          "type": "address"
        },
        {
          "indexed": false,
          "internalType": "uint256",
          "name": "issueMintTime",
          "type": "uint256"
        }
      ],
      "name": "IssueCreated",
      "type": "event"
    },
    {
      "anonymous": false,
      "inputs": [
        {
          "indexed": true,
          "internalType": "address",
          "name": "previousOwner",
          "type": "address"
        },
        {
          "indexed": true,
          "internalType": "address",
          "name": "newOwner",
          "type": "address"
        }
      ],
      "name": "OwnershipTransferred",
      "type": "event"
    },
    {
      "inputs": [
        {
          "internalType": "address",
          "name": "",
          "type": "address"
        }
      ],
      "name": "addressToIssue",
      "outputs": [
        {
          "internalType": "string",
          "name": "",
          "type": "string"
        }
      ],
      "stateMutability": "view",
      "type": "function"
    },
    {
      "inputs": [
        {
          "internalType": "string",
          "name": "_id",
          "type": "string"
        },
        {
          "internalType": "address",
          "name": "_payoutAddress",
          "type": "address"
        }
      ],
      "name": "claimBounty",
      "outputs": [],
      "stateMutability": "nonpayable",
      "type": "function"
    },
    {
      "inputs": [
        {
          "internalType": "address",
          "name": "_issueAddress",
          "type": "address"
        },
        {
          "internalType": "address",
          "name": "_tokenAddress",
          "type": "address"
        },
        {
          "internalType": "uint256",
          "name": "_value",
          "type": "uint256"
        }
      ],
      "name": "fundBounty",
      "outputs": [
        {
          "internalType": "bool",
          "name": "success",
          "type": "bool"
        }
      ],
      "stateMutability": "nonpayable",
      "type": "function"
    },
    {
      "inputs": [
        {
          "internalType": "string",
          "name": "_id",
          "type": "string"
        }
      ],
      "name": "getBountyAddress",
      "outputs": [
        {
          "internalType": "address",
          "name": "",
          "type": "address"
        }
      ],
      "stateMutability": "view",
      "type": "function"
    },
    {
      "inputs": [
        {
          "internalType": "string",
          "name": "id_",
          "type": "string"
        }
      ],
      "name": "issueIsOpen",
      "outputs": [
        {
          "internalType": "bool",
          "name": "",
          "type": "bool"
        }
      ],
      "stateMutability": "view",
      "type": "function"
    },
    {
      "inputs": [
        {
          "internalType": "string",
          "name": "",
          "type": "string"
        }
      ],
      "name": "issueToAddress",
      "outputs": [
        {
          "internalType": "address",
          "name": "",
          "type": "address"
        }
      ],
      "stateMutability": "view",
      "type": "function"
    },
    {
      "inputs": [
        {
          "internalType": "string",
          "name": "_id",
          "type": "string"
        }
      ],
      "name": "mintBounty",
      "outputs": [
        {
          "internalType": "address",
          "name": "issueAddress",
          "type": "address"
        }
      ],
      "stateMutability": "nonpayable",
      "type": "function"
    },
    {
      "inputs": [],
      "name": "owner",
      "outputs": [
        {
          "internalType": "address",
          "name": "",
          "type": "address"
        }
      ],
      "stateMutability": "view",
      "type": "function"
    },
    {
      "inputs": [
        {
          "internalType": "address",
          "name": "_issueAddress",
          "type": "address"
        }
      ],
      "name": "refundBountyDeposits",
      "outputs": [
        {
          "internalType": "bool",
          "name": "success",
          "type": "bool"
        }
      ],
      "stateMutability": "nonpayable",
      "type": "function"
    },
    {
      "inputs": [],
      "name": "renounceOwnership",
      "outputs": [],
      "stateMutability": "nonpayable",
      "type": "function"
    },
    {
      "inputs": [
        {
          "internalType": "address",
          "name": "newOwner",
          "type": "address"
        }
      ],
      "name": "transferOwnership",
      "outputs": [],
      "stateMutability": "nonpayable",
      "type": "function"
    }
  ],
  "bytecode": "0x608060405234801561001057600080fd5b5061002d61002261003260201b60201c565b61003a60201b60201c565b6100fe565b600033905090565b60008060009054906101000a900473ffffffffffffffffffffffffffffffffffffffff169050816000806101000a81548173ffffffffffffffffffffffffffffffffffffffff021916908373ffffffffffffffffffffffffffffffffffffffff1602179055508173ffffffffffffffffffffffffffffffffffffffff168173ffffffffffffffffffffffffffffffffffffffff167f8be0079c531659141344cd1fd0a4f28419497f9722a3daafe3b4186f6b6457e060405160405180910390a35050565b6147d7806200010e6000396000f3fe60806040523480156200001157600080fd5b5060043610620000b85760003560e01c8063b233e6e8116200007b578063b233e6e81462000177578063b83b6b6514620001ad578063c4a9199c14620001e3578063eea7f9241462000219578063f2fde38b146200024f578063fcedbecf146200026f57620000b8565b80631b78031214620000bd5780631b967a1914620000f35780633e7da1a91462000129578063715018a614620001495780638da5cb5b1462000155575b600080fd5b620000db6004803603810190620000d59190620015fb565b620002a5565b604051620000ea919062001b05565b60405180910390f35b6200011160048036038101906200010b919062001653565b62000822565b60405162000120919062001b05565b60405180910390f35b6200014760048036038101906200014191906200178f565b62000993565b005b6200015362000b66565b005b6200015f62000bf7565b6040516200016e919062001a51565b60405180910390f35b6200019560048036038101906200018f919062001746565b62000c20565b604051620001a4919062001a51565b60405180910390f35b620001cb6004803603810190620001c59190620015fb565b62000e37565b604051620001da919062001bb4565b60405180910390f35b620002016004803603810190620001fb919062001746565b62000edf565b60405162000210919062001b05565b60405180910390f35b620002376004803603810190620002319190620017ed565b6200107a565b60405162000246919062001a51565b60405180910390f35b6200026d6004803603810190620002679190620015fb565b620010c3565b005b6200028d600480360381019062000287919062001746565b620011c7565b6040516200029c919062001a51565b60405180910390f35b6000808290508073ffffffffffffffffffffffffffffffffffffffff1663f16b51c16040518163ffffffff1660e01b815260040160206040518083038186803b158015620002f257600080fd5b505afa15801562000307573d6000803e3d6000fd5b505050506040513d601f19601f820116820180604052508101906200032d919062001877565b8173ffffffffffffffffffffffffffffffffffffffff166349a0bb0c6040518163ffffffff1660e01b815260040160206040518083038186803b1580156200037457600080fd5b505afa15801562000389573d6000803e3d6000fd5b505050506040513d601f19601f82011682018060405250810190620003af919062001877565b620003bb919062001dab565b42101562000400576040517f08c379a0000000000000000000000000000000000000000000000000000000008152600401620003f79062001cb2565b60405180910390fd5b600115158173ffffffffffffffffffffffffffffffffffffffff1663b0100cf7336040518263ffffffff1660e01b81526004016200043f919062001a51565b60206040518083038186803b1580156200045857600080fd5b505afa1580156200046d573d6000803e3d6000fd5b505050506040513d601f19601f82011682018060405250810190620004939190620016ee565b151514620004d8576040517f08c379a0000000000000000000000000000000000000000000000000000000008152600401620004cf9062001cd4565b60405180910390fd5b60005b8173ffffffffffffffffffffffffffffffffffffffff1663bf4ec549336040518263ffffffff1660e01b815260040162000516919062001a51565b60006040518083038186803b1580156200052f57600080fd5b505afa15801562000544573d6000803e3d6000fd5b505050506040513d6000823e3d601f19601f820116820180604052508101906200056f9190620016a9565b51811015620008175760008273ffffffffffffffffffffffffffffffffffffffff1663c165feaa33846040518363ffffffff1660e01b8152600401620005b792919062001ad8565b60206040518083038186803b158015620005d057600080fd5b505afa158015620005e5573d6000803e3d6000fd5b505050506040513d601f19601f820116820180604052508101906200060b919062001627565b905060008373ffffffffffffffffffffffffffffffffffffffff166389f3023033846040518363ffffffff1660e01b81526004016200064c92919062001a6e565b60206040518083038186803b1580156200066557600080fd5b505afa1580156200067a573d6000803e3d6000fd5b505050506040513d601f19601f82011682018060405250810190620006a0919062001877565b90508373ffffffffffffffffffffffffffffffffffffffff166329ffef1533846040518363ffffffff1660e01b8152600401620006df92919062001a6e565b602060405180830381600087803b158015620006fa57600080fd5b505af11580156200070f573d6000803e3d6000fd5b505050506040513d601f19601f82011682018060405250810190620007359190620016ee565b507f15ca3f7368849c5833bd814286749768350e9229fa527250c003fc811e8fc7a28473ffffffffffffffffffffffffffffffffffffffff166332710c6e6040518163ffffffff1660e01b815260040160006040518083038186803b1580156200079e57600080fd5b505afa158015620007b3573d6000803e3d6000fd5b505050506040513d6000823e3d601f19601f82011682018060405250810190620007de919062001832565b8784338542604051620007f79695949392919062001bd8565b60405180910390a1505080806200080e9062001f03565b915050620004db565b506001915050919050565b6000808490508073ffffffffffffffffffffffffffffffffffffffff1663b9df819f3386866040518463ffffffff1660e01b8152600401620008679392919062001a9b565b602060405180830381600087803b1580156200088257600080fd5b505af115801562000897573d6000803e3d6000fd5b505050506040513d601f19601f82011682018060405250810190620008bd9190620016ee565b507fed53fe91ccb03559def4dc6153b2fa3c78c91b269df69831e2512f3cf23c77d18173ffffffffffffffffffffffffffffffffffffffff166332710c6e6040518163ffffffff1660e01b815260040160006040518083038186803b1580156200092657600080fd5b505afa1580156200093b573d6000803e3d6000fd5b505050506040513d6000823e3d601f19601f8201168201806040525081019062000966919062001832565b86863387426040516200097f9695949392919062001bd8565b60405180910390a160019150509392505050565b6200099d62001214565b73ffffffffffffffffffffffffffffffffffffffff16620009bd62000bf7565b73ffffffffffffffffffffffffffffffffffffffff161462000a16576040517f08c379a000000000000000000000000000000000000000000000000000000000815260040162000a0d9062001c90565b60405180910390fd5b60006001848460405162000a2c92919062001a36565b908152602001604051809103902060009054906101000a900473ffffffffffffffffffffffffffffffffffffffff16905060008190508073ffffffffffffffffffffffffffffffffffffffff16639375dd90846040518263ffffffff1660e01b815260040162000a9d919062001a51565b602060405180830381600087803b15801562000ab857600080fd5b505af115801562000acd573d6000803e3d6000fd5b505050506040513d601f19601f8201168201806040525081019062000af39190620016ee565b508273ffffffffffffffffffffffffffffffffffffffff168273ffffffffffffffffffffffffffffffffffffffff167fbe392ea1b527f6bff9d22a197a2803e09f2cb94847572ba4cc79c37978d8e09487874260405162000b579392919062001b7e565b60405180910390a35050505050565b62000b7062001214565b73ffffffffffffffffffffffffffffffffffffffff1662000b9062000bf7565b73ffffffffffffffffffffffffffffffffffffffff161462000be9576040517f08c379a000000000000000000000000000000000000000000000000000000000815260040162000be09062001c90565b60405180910390fd5b62000bf560006200121c565b565b60008060009054906101000a900473ffffffffffffffffffffffffffffffffffffffff16905090565b60008073ffffffffffffffffffffffffffffffffffffffff166001848460405162000c4d92919062001a36565b908152602001604051809103902060009054906101000a900473ffffffffffffffffffffffffffffffffffffffff1673ffffffffffffffffffffffffffffffffffffffff161462000cd5576040517f08c379a000000000000000000000000000000000000000000000000000000000815260040162000ccc9062001c6e565b60405180910390fd5b82823360405162000ce690620012e0565b62000cf49392919062001b48565b604051809103906000f08015801562000d11573d6000803e3d6000fd5b509050806001848460405162000d2992919062001a36565b908152602001604051809103902060006101000a81548173ffffffffffffffffffffffffffffffffffffffff021916908373ffffffffffffffffffffffffffffffffffffffff1602179055508282600260008473ffffffffffffffffffffffffffffffffffffffff1673ffffffffffffffffffffffffffffffffffffffff168152602001908152602001600020919062000dc5929190620012ee565b508073ffffffffffffffffffffffffffffffffffffffff163373ffffffffffffffffffffffffffffffffffffffff167f95b807ca0d9aa8d33b120dfe508d075cc99c21f7c174a9148435a67132061e9d85854260405162000e299392919062001b7e565b60405180910390a392915050565b6002602052806000526040600020600091509050805462000e589062001e97565b80601f016020809104026020016040519081016040528092919081815260200182805462000e869062001e97565b801562000ed75780601f1062000eab5761010080835404028352916020019162000ed7565b820191906000526020600020905b81548152906001019060200180831162000eb957829003601f168201915b505050505081565b6000803073ffffffffffffffffffffffffffffffffffffffff1663eea7f92485856040518363ffffffff1660e01b815260040162000f1f92919062001b22565b60206040518083038186803b15801562000f3857600080fd5b505afa15801562000f4d573d6000803e3d6000fd5b505050506040513d601f19601f8201168201806040525081019062000f73919062001627565b9050600080600181111562000fb1577f4e487b7100000000000000000000000000000000000000000000000000000000600052602160045260246000fd5b8273ffffffffffffffffffffffffffffffffffffffff1663200d2ed26040518163ffffffff1660e01b815260040160206040518083038186803b15801562000ff857600080fd5b505afa1580156200100d573d6000803e3d6000fd5b505050506040513d601f19601f820116820180604052508101906200103391906200171a565b60018111156200106c577f4e487b7100000000000000000000000000000000000000000000000000000000600052602160045260246000fd5b149050809250505092915050565b6001818051602081018201805184825260208301602085012081835280955050505050506000915054906101000a900473ffffffffffffffffffffffffffffffffffffffff1681565b620010cd62001214565b73ffffffffffffffffffffffffffffffffffffffff16620010ed62000bf7565b73ffffffffffffffffffffffffffffffffffffffff161462001146576040517f08c379a00000000000000000000000000000000000000000000000000000000081526004016200113d9062001c90565b60405180910390fd5b600073ffffffffffffffffffffffffffffffffffffffff168173ffffffffffffffffffffffffffffffffffffffff161415620011b9576040517f08c379a0000000000000000000000000000000000000000000000000000000008152600401620011b09062001c4c565b60405180910390fd5b620011c4816200121c565b50565b600060018383604051620011dd92919062001a36565b908152602001604051809103902060009054906101000a900473ffffffffffffffffffffffffffffffffffffffff16905092915050565b600033905090565b60008060009054906101000a900473ffffffffffffffffffffffffffffffffffffffff169050816000806101000a81548173ffffffffffffffffffffffffffffffffffffffff021916908373ffffffffffffffffffffffffffffffffffffffff1602179055508173ffffffffffffffffffffffffffffffffffffffff168173ffffffffffffffffffffffffffffffffffffffff167f8be0079c531659141344cd1fd0a4f28419497f9722a3daafe3b4186f6b6457e060405160405180910390a35050565b6125c880620021da83390190565b828054620012fc9062001e97565b90600052602060002090601f0160209004810192826200132057600085556200136c565b82601f106200133b57803560ff19168380011785556200136c565b828001600101855582156200136c579182015b828111156200136b5782358255916020019190600101906200134e565b5b5090506200137b91906200137f565b5090565b5b808211156200139a57600081600090555060010162001380565b5090565b6000620013b5620013af8462001d1f565b62001cf6565b90508083825260208201905082856020860282011115620013d557600080fd5b60005b85811015620014095781620013ee8882620014b4565b845260208401935060208301925050600181019050620013d8565b5050509392505050565b60006200142a620014248462001d4e565b62001cf6565b9050828152602081018484840111156200144357600080fd5b6200145084828562001e52565b509392505050565b60006200146f620014698462001d4e565b62001cf6565b9050828152602081018484840111156200148857600080fd5b6200149584828562001e61565b509392505050565b600081359050620014ae816200217a565b92915050565b600081519050620014c5816200217a565b92915050565b600082601f830112620014dd57600080fd5b8151620014ef8482602086016200139e565b91505092915050565b600081519050620015098162002194565b92915050565b6000815190506200152081620021ae565b92915050565b60008083601f8401126200153957600080fd5b8235905067ffffffffffffffff8111156200155357600080fd5b6020830191508360018202830111156200156c57600080fd5b9250929050565b600082601f8301126200158557600080fd5b81356200159784826020860162001413565b91505092915050565b600082601f830112620015b257600080fd5b8151620015c484826020860162001458565b91505092915050565b600081359050620015de81620021bf565b92915050565b600081519050620015f581620021bf565b92915050565b6000602082840312156200160e57600080fd5b60006200161e848285016200149d565b91505092915050565b6000602082840312156200163a57600080fd5b60006200164a84828501620014b4565b91505092915050565b6000806000606084860312156200166957600080fd5b600062001679868287016200149d565b93505060206200168c868287016200149d565b92505060406200169f86828701620015cd565b9150509250925092565b600060208284031215620016bc57600080fd5b600082015167ffffffffffffffff811115620016d757600080fd5b620016e584828501620014cb565b91505092915050565b6000602082840312156200170157600080fd5b60006200171184828501620014f8565b91505092915050565b6000602082840312156200172d57600080fd5b60006200173d848285016200150f565b91505092915050565b600080602083850312156200175a57600080fd5b600083013567ffffffffffffffff8111156200177557600080fd5b620017838582860162001526565b92509250509250929050565b600080600060408486031215620017a557600080fd5b600084013567ffffffffffffffff811115620017c057600080fd5b620017ce8682870162001526565b93509350506020620017e3868287016200149d565b9150509250925092565b6000602082840312156200180057600080fd5b600082013567ffffffffffffffff8111156200181b57600080fd5b620018298482850162001573565b91505092915050565b6000602082840312156200184557600080fd5b600082015167ffffffffffffffff8111156200186057600080fd5b6200186e84828501620015a0565b91505092915050565b6000602082840312156200188a57600080fd5b60006200189a84828501620015e4565b91505092915050565b620018ae8162001e08565b82525050565b620018bf8162001e1c565b82525050565b6000620018d3838562001d8f565b9350620018e283858462001e52565b620018ed8362001fde565b840190509392505050565b600062001906838562001da0565b93506200191583858462001e52565b82840190509392505050565b60006200192e8262001d84565b6200193a818562001d8f565b93506200194c81856020860162001e61565b620019578162001fde565b840191505092915050565b60006200197160268362001d8f565b91506200197e8262001fef565b604082019050919050565b600062001998606f8362001d8f565b9150620019a5826200203e565b608082019050919050565b6000620019bf60208362001d8f565b9150620019cc82620020d9565b602082019050919050565b6000620019e6601b8362001d8f565b9150620019f38262002102565b602082019050919050565b600062001a0d603c8362001d8f565b915062001a1a826200212b565b604082019050919050565b62001a308162001e48565b82525050565b600062001a45828486620018f8565b91508190509392505050565b600060208201905062001a686000830184620018a3565b92915050565b600060408201905062001a856000830185620018a3565b62001a946020830184620018a3565b9392505050565b600060608201905062001ab26000830186620018a3565b62001ac16020830185620018a3565b62001ad0604083018462001a25565b949350505050565b600060408201905062001aef6000830185620018a3565b62001afe602083018462001a25565b9392505050565b600060208201905062001b1c6000830184620018b4565b92915050565b6000602082019050818103600083015262001b3f818486620018c5565b90509392505050565b6000604082019050818103600083015262001b65818587620018c5565b905062001b766020830184620018a3565b949350505050565b6000604082019050818103600083015262001b9b818587620018c5565b905062001bac602083018462001a25565b949350505050565b6000602082019050818103600083015262001bd0818462001921565b905092915050565b600060c082019050818103600083015262001bf4818962001921565b905062001c056020830188620018a3565b62001c146040830187620018a3565b62001c236060830186620018a3565b62001c32608083018562001a25565b62001c4160a083018462001a25565b979650505050505050565b6000602082019050818103600083015262001c678162001962565b9050919050565b6000602082019050818103600083015262001c898162001989565b9050919050565b6000602082019050818103600083015262001cab81620019b0565b9050919050565b6000602082019050818103600083015262001ccd81620019d7565b9050919050565b6000602082019050818103600083015262001cef81620019fe565b9050919050565b600062001d0262001d15565b905062001d10828262001ecd565b919050565b6000604051905090565b600067ffffffffffffffff82111562001d3d5762001d3c62001faf565b5b602082029050602081019050919050565b600067ffffffffffffffff82111562001d6c5762001d6b62001faf565b5b62001d778262001fde565b9050602081019050919050565b600081519050919050565b600082825260208201905092915050565b600081905092915050565b600062001db88262001e48565b915062001dc58362001e48565b9250827fffffffffffffffffffffffffffffffffffffffffffffffffffffffffffffffff0382111562001dfd5762001dfc62001f51565b5b828201905092915050565b600062001e158262001e28565b9050919050565b60008115159050919050565b600073ffffffffffffffffffffffffffffffffffffffff82169050919050565b6000819050919050565b82818337600083830152505050565b60005b8381101562001e8157808201518184015260208101905062001e64565b8381111562001e91576000848401525b50505050565b6000600282049050600182168062001eb057607f821691505b6020821081141562001ec75762001ec662001f80565b5b50919050565b62001ed88262001fde565b810181811067ffffffffffffffff8211171562001efa5762001ef962001faf565b5b80604052505050565b600062001f108262001e48565b91507fffffffffffffffffffffffffffffffffffffffffffffffffffffffffffffffff82141562001f465762001f4562001f51565b5b600182019050919050565b7f4e487b7100000000000000000000000000000000000000000000000000000000600052601160045260246000fd5b7f4e487b7100000000000000000000000000000000000000000000000000000000600052602260045260246000fd5b7f4e487b7100000000000000000000000000000000000000000000000000000000600052604160045260246000fd5b6000601f19601f8301169050919050565b7f4f776e61626c653a206e6577206f776e657220697320746865207a65726f206160008201527f6464726573730000000000000000000000000000000000000000000000000000602082015250565b7f497373756520616c72656164792065786973747320666f7220676976656e206960008201527f642e2046696e642069747320616464726573732062792063616c6c696e67206960208201527f73737565546f41646472657373206f6e207468697320636f6e7472616374207760408201527f6974682074686520697373756549640000000000000000000000000000000000606082015250565b7f4f776e61626c653a2063616c6c6572206973206e6f7420746865206f776e6572600082015250565b7f546f6f206561726c7920746f2077697468647261772066756e64730000000000600082015250565b7f4f6e6c792066756e64657273206f66207468697320626f756e74792063616e2060008201527f7265636c61696d2066756e647320616674657220333020646179732e00000000602082015250565b620021858162001e08565b81146200219157600080fd5b50565b6200219f8162001e1c565b8114620021ab57600080fd5b50565b60028110620021bc57600080fd5b50565b620021ca8162001e48565b8114620021d657600080fd5b5056fe608060405262278d006009553480156200001857600080fd5b50604051620025c8380380620025c883398181016040528101906200003e91906200031e565b6200005e620000526200011960201b60201c565b6200012160201b60201c565b816006908051906020019062000076929190620001e5565b506000600b60146101000a81548160ff02191690836001811115620000c4577f4e487b7100000000000000000000000000000000000000000000000000000000600052602160045260246000fd5b021790555080600a60006101000a81548173ffffffffffffffffffffffffffffffffffffffff021916908373ffffffffffffffffffffffffffffffffffffffff16021790555042600781905550505062000536565b600033905090565b60008060009054906101000a900473ffffffffffffffffffffffffffffffffffffffff169050816000806101000a81548173ffffffffffffffffffffffffffffffffffffffff021916908373ffffffffffffffffffffffffffffffffffffffff1602179055508173ffffffffffffffffffffffffffffffffffffffff168173ffffffffffffffffffffffffffffffffffffffff167f8be0079c531659141344cd1fd0a4f28419497f9722a3daafe3b4186f6b6457e060405160405180910390a35050565b828054620001f39062000441565b90600052602060002090601f01602090048101928262000217576000855562000263565b82601f106200023257805160ff191683800117855562000263565b8280016001018555821562000263579182015b828111156200026257825182559160200191906001019062000245565b5b50905062000272919062000276565b5090565b5b808211156200029157600081600090555060010162000277565b5090565b6000620002ac620002a684620003a1565b62000378565b905082815260208101848484011115620002c557600080fd5b620002d28482856200040b565b509392505050565b600081519050620002eb816200051c565b92915050565b600082601f8301126200030357600080fd5b81516200031584826020860162000295565b91505092915050565b600080604083850312156200033257600080fd5b600083015167ffffffffffffffff8111156200034d57600080fd5b6200035b85828601620002f1565b92505060206200036e85828601620002da565b9150509250929050565b60006200038462000397565b905062000392828262000477565b919050565b6000604051905090565b600067ffffffffffffffff821115620003bf57620003be620004dc565b5b620003ca826200050b565b9050602081019050919050565b6000620003e482620003eb565b9050919050565b600073ffffffffffffffffffffffffffffffffffffffff82169050919050565b60005b838110156200042b5780820151818401526020810190506200040e565b838111156200043b576000848401525b50505050565b600060028204905060018216806200045a57607f821691505b60208210811415620004715762000470620004ad565b5b50919050565b62000482826200050b565b810181811067ffffffffffffffff82111715620004a457620004a3620004dc565b5b80604052505050565b7f4e487b7100000000000000000000000000000000000000000000000000000000600052602260045260246000fd5b7f4e487b7100000000000000000000000000000000000000000000000000000000600052604160045260246000fd5b6000601f19601f8301169050919050565b6200052781620003d7565b81146200053357600080fd5b50565b61208280620005466000396000f3fe608060405234801561001057600080fd5b50600436106101375760003560e01c806389f30230116100b8578063b9df819f1161007c578063b9df819f14610356578063bf4ec54914610386578063c165feaa146103b6578063e5df8b84146103e6578063f16b51c114610416578063f2fde38b1461043457610137565b806389f30230146102785780638da5cb5b146102a85780639375dd90146102c6578063b0100cf7146102f6578063b588d2251461032657610137565b806349a0bb0c116100ff57806349a0bb0c146101e457806363c2b39a146102025780637044f28214610232578063715018a6146102505780637db113541461025a57610137565b80630fac3e451461013c5780631d1438481461015a578063200d2ed21461017857806329ffef151461019657806332710c6e146101c6575b600080fd5b610144610450565b6040516101519190611a86565b60405180910390f35b6101626104de565b60405161016f9190611a0b565b60405180910390f35b610180610504565b60405161018d9190611ac3565b60405180910390f35b6101b060048036038101906101ab919061168c565b610517565b6040516101bd9190611aa8565b60405180910390f35b6101ce610626565b6040516101db9190611ade565b60405180910390f35b6101ec6106b4565b6040516101f99190611bc0565b60405180910390f35b61021c60048036038101906102179190611663565b6106ba565b6040516102299190611bc0565b60405180910390f35b61023a6106d2565b6040516102479190611a0b565b60405180910390f35b6102586106f8565b005b610262610780565b60405161026f9190611bc0565b60405180910390f35b610292600480360381019061028d919061168c565b610786565b60405161029f9190611bc0565b60405180910390f35b6102b06107ab565b6040516102bd9190611a0b565b60405180910390f35b6102e060048036038101906102db9190611663565b6107d4565b6040516102ed9190611aa8565b60405180910390f35b610310600480360381019061030b9190611663565b610bc8565b60405161031d9190611aa8565b60405180910390f35b610340600480360381019061033b9190611663565b610be8565b60405161034d9190611bc0565b60405180910390f35b610370600480360381019061036b91906116c8565b610c7f565b60405161037d9190611aa8565b60405180910390f35b6103a0600480360381019061039b9190611663565b611067565b6040516103ad9190611a86565b60405180910390f35b6103d060048036038101906103cb9190611717565b611134565b6040516103dd9190611a0b565b60405180910390f35b61040060048036038101906103fb91906117a5565b611182565b60405161040d9190611a0b565b60405180910390f35b61041e6111c1565b60405161042b9190611bc0565b60405180910390f35b61044e60048036038101906104499190611663565b6111c7565b005b606060018054806020026020016040519081016040528092919081815260200182805480156104d457602002820191906000526020600020905b8160009054906101000a900473ffffffffffffffffffffffffffffffffffffffff1673ffffffffffffffffffffffffffffffffffffffff168152602001906001019080831161048a575b5050505050905090565b600a60009054906101000a900473ffffffffffffffffffffffffffffffffffffffff1681565b600b60149054906101000a900460ff1681565b60006105216112bf565b73ffffffffffffffffffffffffffffffffffffffff1661053f6107ab565b73ffffffffffffffffffffffffffffffffffffffff1614610595576040517f08c379a000000000000000000000000000000000000000000000000000000000815260040161058c90611b80565b60405180910390fd5b61061c8284600260008773ffffffffffffffffffffffffffffffffffffffff1673ffffffffffffffffffffffffffffffffffffffff16815260200190815260200160002060008673ffffffffffffffffffffffffffffffffffffffff1673ffffffffffffffffffffffffffffffffffffffff168152602001908152602001600020546112c7565b6001905092915050565b6006805461063390611d3c565b80601f016020809104026020016040519081016040528092919081815260200182805461065f90611d3c565b80156106ac5780601f10610681576101008083540402835291602001916106ac565b820191906000526020600020905b81548152906001019060200180831161068f57829003601f168201915b505050505081565b60075481565b60056020528060005260406000206000915090505481565b600b60009054906101000a900473ffffffffffffffffffffffffffffffffffffffff1681565b6107006112bf565b73ffffffffffffffffffffffffffffffffffffffff1661071e6107ab565b73ffffffffffffffffffffffffffffffffffffffff1614610774576040517f08c379a000000000000000000000000000000000000000000000000000000000815260040161076b90611b80565b60405180910390fd5b61077e60006113fd565b565b60085481565b6002602052816000526040600020602052806000526040600020600091509150505481565b60008060009054906101000a900473ffffffffffffffffffffffffffffffffffffffff16905090565b60006107de6112bf565b73ffffffffffffffffffffffffffffffffffffffff166107fc6107ab565b73ffffffffffffffffffffffffffffffffffffffff1614610852576040517f08c379a000000000000000000000000000000000000000000000000000000000815260040161084990611b80565b60405180910390fd5b6000600181111561088c577f4e487b7100000000000000000000000000000000000000000000000000000000600052602160045260246000fd5b3073ffffffffffffffffffffffffffffffffffffffff1663200d2ed26040518163ffffffff1660e01b815260040160206040518083038186803b1580156108d257600080fd5b505afa1580156108e6573d6000803e3d6000fd5b505050506040513d601f19601f8201168201806040525081019061090a919061177c565b6001811115610942577f4e487b7100000000000000000000000000000000000000000000000000000000600052602160045260246000fd5b14610982576040517f08c379a000000000000000000000000000000000000000000000000000000000815260040161097990611b40565b60405180910390fd5b60005b600180549050811015610b25576000600182815481106109ce577f4e487b7100000000000000000000000000000000000000000000000000000000600052603260045260246000fd5b9060005260206000200160009054906101000a900473ffffffffffffffffffffffffffffffffffffffff1690508073ffffffffffffffffffffffffffffffffffffffff1663a9059cbb858373ffffffffffffffffffffffffffffffffffffffff166370a08231306040518263ffffffff1660e01b8152600401610a519190611a0b565b60206040518083038186803b158015610a6957600080fd5b505afa158015610a7d573d6000803e3d6000fd5b505050506040513d601f19601f82011682018060405250810190610aa191906117ce565b6040518363ffffffff1660e01b8152600401610abe929190611a5d565b602060405180830381600087803b158015610ad857600080fd5b505af1158015610aec573d6000803e3d6000fd5b505050506040513d601f19601f82011682018060405250810190610b109190611753565b50508080610b1d90611d6e565b915050610985565b506001600b60146101000a81548160ff02191690836001811115610b72577f4e487b7100000000000000000000000000000000000000000000000000000000600052602160045260246000fd5b021790555081600b60006101000a81548173ffffffffffffffffffffffffffffffffffffffff021916908373ffffffffffffffffffffffffffffffffffffffff1602179055504260088190555060019050919050565b60036020528060005260406000206000915054906101000a900460ff1681565b6000808290508073ffffffffffffffffffffffffffffffffffffffff166370a08231306040518263ffffffff1660e01b8152600401610c279190611a0b565b60206040518083038186803b158015610c3f57600080fd5b505afa158015610c53573d6000803e3d6000fd5b505050506040513d601f19601f82011682018060405250810190610c7791906117ce565b915050919050565b6000610c896112bf565b73ffffffffffffffffffffffffffffffffffffffff16610ca76107ab565b73ffffffffffffffffffffffffffffffffffffffff1614610cfd576040517f08c379a0000000000000000000000000000000000000000000000000000000008152600401610cf490611b80565b60405180910390fd5b6000821415610d41576040517f08c379a0000000000000000000000000000000000000000000000000000000008152600401610d3890611b60565b60405180910390fd5b610d4d838530856114c1565b6001600360008673ffffffffffffffffffffffffffffffffffffffff1673ffffffffffffffffffffffffffffffffffffffff16815260200190815260200160002060006101000a81548160ff0219169083151502179055506000600560008573ffffffffffffffffffffffffffffffffffffffff1673ffffffffffffffffffffffffffffffffffffffff168152602001908152602001600020541415610e51576001839080600181540180825580915050600190039060005260206000200160009091909190916101000a81548173ffffffffffffffffffffffffffffffffffffffff021916908373ffffffffffffffffffffffffffffffffffffffff1602179055505b6000600260008673ffffffffffffffffffffffffffffffffffffffff1673ffffffffffffffffffffffffffffffffffffffff16815260200190815260200160002060008573ffffffffffffffffffffffffffffffffffffffff1673ffffffffffffffffffffffffffffffffffffffff168152602001908152602001600020541415610f7757600460008573ffffffffffffffffffffffffffffffffffffffff1673ffffffffffffffffffffffffffffffffffffffff168152602001908152602001600020839080600181540180825580915050600190039060005260206000200160009091909190916101000a81548173ffffffffffffffffffffffffffffffffffffffff021916908373ffffffffffffffffffffffffffffffffffffffff1602179055505b81600560008573ffffffffffffffffffffffffffffffffffffffff1673ffffffffffffffffffffffffffffffffffffffff1681526020019081526020016000206000828254610fc69190611c46565b9250508190555081600260008673ffffffffffffffffffffffffffffffffffffffff1673ffffffffffffffffffffffffffffffffffffffff16815260200190815260200160002060008573ffffffffffffffffffffffffffffffffffffffff1673ffffffffffffffffffffffffffffffffffffffff16815260200190815260200160002060008282546110599190611c46565b925050819055509392505050565b6060600460008373ffffffffffffffffffffffffffffffffffffffff1673ffffffffffffffffffffffffffffffffffffffff16815260200190815260200160002080548060200260200160405190810160405280929190818152602001828054801561112857602002820191906000526020600020905b8160009054906101000a900473ffffffffffffffffffffffffffffffffffffffff1673ffffffffffffffffffffffffffffffffffffffff16815260200190600101908083116110de575b50505050509050919050565b6004602052816000526040600020818154811061115057600080fd5b906000526020600020016000915091509054906101000a900473ffffffffffffffffffffffffffffffffffffffff1681565b6001818154811061119257600080fd5b906000526020600020016000915054906101000a900473ffffffffffffffffffffffffffffffffffffffff1681565b60095481565b6111cf6112bf565b73ffffffffffffffffffffffffffffffffffffffff166111ed6107ab565b73ffffffffffffffffffffffffffffffffffffffff1614611243576040517f08c379a000000000000000000000000000000000000000000000000000000000815260040161123a90611b80565b60405180910390fd5b600073ffffffffffffffffffffffffffffffffffffffff168173ffffffffffffffffffffffffffffffffffffffff1614156112b3576040517f08c379a00000000000000000000000000000000000000000000000000000000081526004016112aa90611b00565b60405180910390fd5b6112bc816113fd565b50565b600033905090565b6000808473ffffffffffffffffffffffffffffffffffffffff1663a9059cbb85856040516024016112f9929190611a5d565b6040516020818303038152906040529060e01b6020820180517bffffffffffffffffffffffffffffffffffffffffffffffffffffffff838183161783525050505060405161134791906119f4565b6000604051808303816000865af19150503d8060008114611384576040519150601f19603f3d011682016040523d82523d6000602084013e611389565b606091505b50915091508180156113b757506000815114806113b65750808060200190518101906113b59190611753565b5b5b6113f6576040517f08c379a00000000000000000000000000000000000000000000000000000000081526004016113ed90611ba0565b60405180910390fd5b5050505050565b60008060009054906101000a900473ffffffffffffffffffffffffffffffffffffffff169050816000806101000a81548173ffffffffffffffffffffffffffffffffffffffff021916908373ffffffffffffffffffffffffffffffffffffffff1602179055508173ffffffffffffffffffffffffffffffffffffffff168173ffffffffffffffffffffffffffffffffffffffff167f8be0079c531659141344cd1fd0a4f28419497f9722a3daafe3b4186f6b6457e060405160405180910390a35050565b6000808573ffffffffffffffffffffffffffffffffffffffff166323b872dd8686866040516024016114f593929190611a26565b6040516020818303038152906040529060e01b6020820180517bffffffffffffffffffffffffffffffffffffffffffffffffffffffff838183161783525050505060405161154391906119f4565b6000604051808303816000865af19150503d8060008114611580576040519150601f19603f3d011682016040523d82523d6000602084013e611585565b606091505b50915091508180156115b357506000815114806115b25750808060200190518101906115b19190611753565b5b5b6115f2576040517f08c379a00000000000000000000000000000000000000000000000000000000081526004016115e990611b20565b60405180910390fd5b505050505050565b60008135905061160981611ff7565b92915050565b60008151905061161e8161200e565b92915050565b60008151905061163381612025565b92915050565b60008135905061164881612035565b92915050565b60008151905061165d81612035565b92915050565b60006020828403121561167557600080fd5b6000611683848285016115fa565b91505092915050565b6000806040838503121561169f57600080fd5b60006116ad858286016115fa565b92505060206116be858286016115fa565b9150509250929050565b6000806000606084860312156116dd57600080fd5b60006116eb868287016115fa565b93505060206116fc868287016115fa565b925050604061170d86828701611639565b9150509250925092565b6000806040838503121561172a57600080fd5b6000611738858286016115fa565b925050602061174985828601611639565b9150509250929050565b60006020828403121561176557600080fd5b60006117738482850161160f565b91505092915050565b60006020828403121561178e57600080fd5b600061179c84828501611624565b91505092915050565b6000602082840312156117b757600080fd5b60006117c584828501611639565b91505092915050565b6000602082840312156117e057600080fd5b60006117ee8482850161164e565b91505092915050565b6000611803838361180f565b60208301905092915050565b61181881611c9c565b82525050565b61182781611c9c565b82525050565b600061183882611beb565b6118428185611c19565b935061184d83611bdb565b8060005b8381101561187e57815161186588826117f7565b975061187083611c0c565b925050600181019050611851565b5085935050505092915050565b61189481611cae565b82525050565b60006118a582611bf6565b6118af8185611c2a565b93506118bf818560208601611d09565b80840191505092915050565b6118d481611cf7565b82525050565b60006118e582611c01565b6118ef8185611c35565b93506118ff818560208601611d09565b61190881611e44565b840191505092915050565b6000611920602683611c35565b915061192b82611e55565b604082019050919050565b6000611943603183611c35565b915061194e82611ea4565b604082019050919050565b6000611966602f83611c35565b915061197182611ef3565b604082019050919050565b6000611989601483611c35565b915061199482611f42565b602082019050919050565b60006119ac602083611c35565b91506119b782611f6b565b602082019050919050565b60006119cf602d83611c35565b91506119da82611f94565b604082019050919050565b6119ee81611ced565b82525050565b6000611a00828461189a565b915081905092915050565b6000602082019050611a20600083018461181e565b92915050565b6000606082019050611a3b600083018661181e565b611a48602083018561181e565b611a5560408301846119e5565b949350505050565b6000604082019050611a72600083018561181e565b611a7f60208301846119e5565b9392505050565b60006020820190508181036000830152611aa0818461182d565b905092915050565b6000602082019050611abd600083018461188b565b92915050565b6000602082019050611ad860008301846118cb565b92915050565b60006020820190508181036000830152611af881846118da565b905092915050565b60006020820190508181036000830152611b1981611913565b9050919050565b60006020820190508181036000830152611b3981611936565b9050919050565b60006020820190508181036000830152611b5981611959565b9050919050565b60006020820190508181036000830152611b798161197c565b9050919050565b60006020820190508181036000830152611b998161199f565b9050919050565b60006020820190508181036000830152611bb9816119c2565b9050919050565b6000602082019050611bd560008301846119e5565b92915050565b6000819050602082019050919050565b600081519050919050565b600081519050919050565b600081519050919050565b6000602082019050919050565b600082825260208201905092915050565b600081905092915050565b600082825260208201905092915050565b6000611c5182611ced565b9150611c5c83611ced565b9250827fffffffffffffffffffffffffffffffffffffffffffffffffffffffffffffffff03821115611c9157611c90611db7565b5b828201905092915050565b6000611ca782611ccd565b9050919050565b60008115159050919050565b6000819050611cc882611fe3565b919050565b600073ffffffffffffffffffffffffffffffffffffffff82169050919050565b6000819050919050565b6000611d0282611cba565b9050919050565b60005b83811015611d27578082015181840152602081019050611d0c565b83811115611d36576000848401525b50505050565b60006002820490506001821680611d5457607f821691505b60208210811415611d6857611d67611e15565b5b50919050565b6000611d7982611ced565b91507fffffffffffffffffffffffffffffffffffffffffffffffffffffffffffffffff821415611dac57611dab611db7565b5b600182019050919050565b7f4e487b7100000000000000000000000000000000000000000000000000000000600052601160045260246000fd5b7f4e487b7100000000000000000000000000000000000000000000000000000000600052602160045260246000fd5b7f4e487b7100000000000000000000000000000000000000000000000000000000600052602260045260246000fd5b6000601f19601f8301169050919050565b7f4f776e61626c653a206e6577206f776e657220697320746865207a65726f206160008201527f6464726573730000000000000000000000000000000000000000000000000000602082015250565b7f5472616e7366657248656c7065723a3a7472616e7366657246726f6d3a20747260008201527f616e7366657246726f6d206661696c6564000000000000000000000000000000602082015250565b7f5468697320697320697373756520697320636c6f7365642e2043616e6e6f742060008201527f776974686472617720616761696e2e0000000000000000000000000000000000602082015250565b7f4d7573742073656e6420736f6d652076616c7565000000000000000000000000600082015250565b7f4f776e61626c653a2063616c6c6572206973206e6f7420746865206f776e6572600082015250565b7f5472616e7366657248656c7065723a3a736166655472616e736665723a20747260008201527f616e73666572206661696c656400000000000000000000000000000000000000602082015250565b60028110611ff457611ff3611de6565b5b50565b61200081611c9c565b811461200b57600080fd5b50565b61201781611cae565b811461202257600080fd5b50565b6002811061203257600080fd5b50565b61203e81611ced565b811461204957600080fd5b5056fea26469706673582212206f31c5e1be353c05b4aaba6ea3f30b7340f5e8665ad81cad02a69d2f4e0aec7564736f6c63430008040033a26469706673582212203aa222bcaee9c507f142cd73ce51348e7bd1c855008f455f3e30dd154d7a16ac64736f6c63430008040033",
  "linkReferences": {},
  "deployedLinkReferences": {}
}