{
  "_format": "hh-sol-artifact-1",
  "contractName": "OpenQ",
  "sourceName": "contracts/OpenQ.sol",
  "abi": [
    {
      "anonymous": false,
      "inputs": [
        {
          "indexed": false,
          "internalType": "string",
          "name": "issueId",
          "type": "string"
        },
        {
          "indexed": true,
          "internalType": "address",
          "name": "issueAddress",
          "type": "address"
        },
        {
          "indexed": true,
          "internalType": "address",
          "name": "payoutAddress",
          "type": "address"
        }
      ],
      "name": "IssueClosed",
      "type": "event"
    },
    {
      "anonymous": false,
      "inputs": [
        {
          "indexed": true,
          "internalType": "address",
          "name": "from",
          "type": "address"
        },
        {
          "indexed": false,
          "internalType": "string",
          "name": "issueId",
          "type": "string"
        },
        {
          "indexed": true,
          "internalType": "address",
          "name": "issueAddress",
          "type": "address"
        }
      ],
      "name": "IssueCreated",
      "type": "event"
    },
    {
      "anonymous": false,
      "inputs": [
        {
          "indexed": true,
          "internalType": "address",
          "name": "previousOwner",
          "type": "address"
        },
        {
          "indexed": true,
          "internalType": "address",
          "name": "newOwner",
          "type": "address"
        }
      ],
      "name": "OwnershipTransferred",
      "type": "event"
    },
    {
      "inputs": [
        {
          "internalType": "address",
          "name": "tokenAddress",
          "type": "address"
        }
      ],
      "name": "addTokenAddress",
      "outputs": [],
      "stateMutability": "nonpayable",
      "type": "function"
    },
    {
      "inputs": [
        {
          "internalType": "address",
          "name": "",
          "type": "address"
        }
      ],
      "name": "addressToIssue",
      "outputs": [
        {
          "internalType": "string",
          "name": "",
          "type": "string"
        }
      ],
      "stateMutability": "view",
      "type": "function"
    },
    {
      "inputs": [
        {
          "internalType": "string",
          "name": "_id",
          "type": "string"
        },
        {
          "internalType": "address",
          "name": "_payoutAddress",
          "type": "address"
        }
      ],
      "name": "claimBounty",
      "outputs": [],
      "stateMutability": "nonpayable",
      "type": "function"
    },
    {
      "inputs": [
        {
          "internalType": "string",
          "name": "_id",
          "type": "string"
        }
      ],
      "name": "getBountyAddress",
      "outputs": [
        {
          "internalType": "address",
          "name": "",
          "type": "address"
        }
      ],
      "stateMutability": "view",
      "type": "function"
    },
    {
      "inputs": [],
      "name": "getIssueIds",
      "outputs": [
        {
          "internalType": "string[]",
          "name": "",
          "type": "string[]"
        }
      ],
      "stateMutability": "view",
      "type": "function"
    },
    {
      "inputs": [
        {
          "internalType": "uint256",
          "name": "",
          "type": "uint256"
        }
      ],
      "name": "issueIds",
      "outputs": [
        {
          "internalType": "string",
          "name": "",
          "type": "string"
        }
      ],
      "stateMutability": "view",
      "type": "function"
    },
    {
      "inputs": [
        {
          "internalType": "string",
          "name": "id_",
          "type": "string"
        }
      ],
      "name": "issueIsOpen",
      "outputs": [
        {
          "internalType": "bool",
          "name": "",
          "type": "bool"
        }
      ],
      "stateMutability": "view",
      "type": "function"
    },
    {
      "inputs": [
        {
          "internalType": "string",
          "name": "",
          "type": "string"
        }
      ],
      "name": "issueToAddress",
      "outputs": [
        {
          "internalType": "address",
          "name": "",
          "type": "address"
        }
      ],
      "stateMutability": "view",
      "type": "function"
    },
    {
      "inputs": [
        {
          "internalType": "string",
          "name": "_id",
          "type": "string"
        }
      ],
      "name": "mintBounty",
      "outputs": [
        {
          "internalType": "address",
          "name": "issueAddress",
          "type": "address"
        }
      ],
      "stateMutability": "nonpayable",
      "type": "function"
    },
    {
      "inputs": [],
      "name": "owner",
      "outputs": [
        {
          "internalType": "address",
          "name": "",
          "type": "address"
        }
      ],
      "stateMutability": "view",
      "type": "function"
    },
    {
      "inputs": [],
      "name": "renounceOwnership",
      "outputs": [],
      "stateMutability": "nonpayable",
      "type": "function"
    },
    {
      "inputs": [
        {
          "internalType": "uint256",
          "name": "",
          "type": "uint256"
        }
      ],
      "name": "tokenAddresses",
      "outputs": [
        {
          "internalType": "address",
          "name": "",
          "type": "address"
        }
      ],
      "stateMutability": "view",
      "type": "function"
    },
    {
      "inputs": [
        {
          "internalType": "address",
          "name": "newOwner",
          "type": "address"
        }
      ],
      "name": "transferOwnership",
      "outputs": [],
      "stateMutability": "nonpayable",
      "type": "function"
    }
  ],
  "bytecode": "0x608060405234801561001057600080fd5b5061002d61002261003260201b60201c565b61003a60201b60201c565b6100fe565b600033905090565b60008060009054906101000a900473ffffffffffffffffffffffffffffffffffffffff169050816000806101000a81548173ffffffffffffffffffffffffffffffffffffffff021916908373ffffffffffffffffffffffffffffffffffffffff1602179055508173ffffffffffffffffffffffffffffffffffffffff168173ffffffffffffffffffffffffffffffffffffffff167f8be0079c531659141344cd1fd0a4f28419497f9722a3daafe3b4186f6b6457e060405160405180910390a35050565b6136348061010d6000396000f3fe60806040523480156200001157600080fd5b5060043610620000e25760003560e01c8063b83b6b651162000099578063e5df8b84116200006f578063e5df8b84146200024f578063eea7f9241462000285578063f2fde38b14620002bb578063fcedbecf14620002db57620000e2565b8063b83b6b6514620001c1578063c4a9199c14620001f7578063cde96283146200022d57620000e2565b80633e7da1a914620000e75780634badc44e146200010757806351992fcb146200013d578063715018a6146200015d5780638da5cb5b1462000169578063b233e6e8146200018b575b600080fd5b620001056004803603810190620000ff91906200115e565b62000311565b005b6200012560048036038101906200011f919062001201565b620004bf565b604051620001349190620015c3565b60405180910390f35b6200015b600480360381019062000155919062001091565b62000574565b005b62000167620005da565b005b620001736200066b565b604051620001829190620014f2565b60405180910390f35b620001a96004803603810190620001a3919062001115565b62000694565b604051620001b89190620014f2565b60405180910390f35b620001df6004803603810190620001d9919062001091565b620008ec565b604051620001ee9190620015c3565b60405180910390f35b6200021560048036038101906200020f919062001115565b62000994565b60405162000224919062001533565b60405180910390f35b6200023762000b2f565b6040516200024691906200150f565b60405180910390f35b6200026d600480360381019062000267919062001201565b62000c12565b6040516200027c9190620014f2565b60405180910390f35b620002a360048036038101906200029d9190620011bc565b62000c52565b604051620002b29190620014f2565b60405180910390f35b620002d96004803603810190620002d3919062001091565b62000c9b565b005b620002f96004803603810190620002f3919062001115565b62000d9f565b604051620003089190620014f2565b60405180910390f35b6200031b62000dec565b73ffffffffffffffffffffffffffffffffffffffff166200033b6200066b565b73ffffffffffffffffffffffffffffffffffffffff161462000394576040517f08c379a00000000000000000000000000000000000000000000000000000000081526004016200038b906200162b565b60405180910390fd5b600060028484604051620003aa929190620014d7565b908152602001604051809103902060009054906101000a900473ffffffffffffffffffffffffffffffffffffffff16905060008190508073ffffffffffffffffffffffffffffffffffffffff16639375dd90846040518263ffffffff1660e01b81526004016200041b9190620014f2565b600060405180830381600087803b1580156200043657600080fd5b505af11580156200044b573d6000803e3d6000fd5b505050508273ffffffffffffffffffffffffffffffffffffffff168273ffffffffffffffffffffffffffffffffffffffff167fe8bca3c18ca1c7ab481718f184745e0be969b9ff855fc58d9a483562ec9c960d8787604051620004b092919062001550565b60405180910390a35050505050565b60018181548110620004d057600080fd5b906000526020600020016000915090508054620004ed906200180a565b80601f01602080910402602001604051908101604052809291908181526020018280546200051b906200180a565b80156200056c5780601f1062000540576101008083540402835291602001916200056c565b820191906000526020600020905b8154815290600101906020018083116200054e57829003601f168201915b505050505081565b6004819080600181540180825580915050600190039060005260206000200160009091909190916101000a81548173ffffffffffffffffffffffffffffffffffffffff021916908373ffffffffffffffffffffffffffffffffffffffff16021790555050565b620005e462000dec565b73ffffffffffffffffffffffffffffffffffffffff16620006046200066b565b73ffffffffffffffffffffffffffffffffffffffff16146200065d576040517f08c379a000000000000000000000000000000000000000000000000000000000815260040162000654906200162b565b60405180910390fd5b62000669600062000df4565b565b60008060009054906101000a900473ffffffffffffffffffffffffffffffffffffffff16905090565b60008073ffffffffffffffffffffffffffffffffffffffff1660028484604051620006c1929190620014d7565b908152602001604051809103902060009054906101000a900473ffffffffffffffffffffffffffffffffffffffff1673ffffffffffffffffffffffffffffffffffffffff161462000749576040517f08c379a0000000000000000000000000000000000000000000000000000000008152600401620007409062001609565b60405180910390fd5b82823360046040516200075c9062000eb8565b6200076b949392919062001576565b604051809103906000f08015801562000788573d6000803e3d6000fd5b5090508060028484604051620007a0929190620014d7565b908152602001604051809103902060006101000a81548173ffffffffffffffffffffffffffffffffffffffff021916908373ffffffffffffffffffffffffffffffffffffffff1602179055508282600360008473ffffffffffffffffffffffffffffffffffffffff1673ffffffffffffffffffffffffffffffffffffffff16815260200190815260200160002091906200083c92919062000ec6565b5060018383909180600181540180825580915050600190039060005260206000200160009091929091929091929091925091906200087c92919062000ec6565b508073ffffffffffffffffffffffffffffffffffffffff163373ffffffffffffffffffffffffffffffffffffffff167fd093611f2be5c7b2095065f744ea72e98dfb48b49a9c50a55206ba8698e441d18585604051620008de92919062001550565b60405180910390a392915050565b600360205280600052604060002060009150905080546200090d906200180a565b80601f01602080910402602001604051908101604052809291908181526020018280546200093b906200180a565b80156200098c5780601f1062000960576101008083540402835291602001916200098c565b820191906000526020600020905b8154815290600101906020018083116200096e57829003601f168201915b505050505081565b6000803073ffffffffffffffffffffffffffffffffffffffff1663eea7f92485856040518363ffffffff1660e01b8152600401620009d492919062001550565b60206040518083038186803b158015620009ed57600080fd5b505afa15801562000a02573d6000803e3d6000fd5b505050506040513d601f19601f8201168201806040525081019062000a289190620010bd565b9050600080600181111562000a66577f4e487b7100000000000000000000000000000000000000000000000000000000600052602160045260246000fd5b8273ffffffffffffffffffffffffffffffffffffffff1663200d2ed26040518163ffffffff1660e01b815260040160206040518083038186803b15801562000aad57600080fd5b505afa15801562000ac2573d6000803e3d6000fd5b505050506040513d601f19601f8201168201806040525081019062000ae89190620010e9565b600181111562000b21577f4e487b7100000000000000000000000000000000000000000000000000000000600052602160045260246000fd5b149050809250505092915050565b60606001805480602002602001604051908101604052809291908181526020016000905b8282101562000c0957838290600052602060002001805462000b75906200180a565b80601f016020809104026020016040519081016040528092919081815260200182805462000ba3906200180a565b801562000bf45780601f1062000bc85761010080835404028352916020019162000bf4565b820191906000526020600020905b81548152906001019060200180831162000bd657829003601f168201915b50505050508152602001906001019062000b53565b50505050905090565b6004818154811062000c2357600080fd5b906000526020600020016000915054906101000a900473ffffffffffffffffffffffffffffffffffffffff1681565b6002818051602081018201805184825260208301602085012081835280955050505050506000915054906101000a900473ffffffffffffffffffffffffffffffffffffffff1681565b62000ca562000dec565b73ffffffffffffffffffffffffffffffffffffffff1662000cc56200066b565b73ffffffffffffffffffffffffffffffffffffffff161462000d1e576040517f08c379a000000000000000000000000000000000000000000000000000000000815260040162000d15906200162b565b60405180910390fd5b600073ffffffffffffffffffffffffffffffffffffffff168173ffffffffffffffffffffffffffffffffffffffff16141562000d91576040517f08c379a000000000000000000000000000000000000000000000000000000000815260040162000d8890620015e7565b60405180910390fd5b62000d9c8162000df4565b50565b60006002838360405162000db5929190620014d7565b908152602001604051809103902060009054906101000a900473ffffffffffffffffffffffffffffffffffffffff16905092915050565b600033905090565b60008060009054906101000a900473ffffffffffffffffffffffffffffffffffffffff169050816000806101000a81548173ffffffffffffffffffffffffffffffffffffffff021916908373ffffffffffffffffffffffffffffffffffffffff1602179055508173ffffffffffffffffffffffffffffffffffffffff168173ffffffffffffffffffffffffffffffffffffffff167f8be0079c531659141344cd1fd0a4f28419497f9722a3daafe3b4186f6b6457e060405160405180910390a35050565b611b818062001a7e83390190565b82805462000ed4906200180a565b90600052602060002090601f01602090048101928262000ef8576000855562000f44565b82601f1062000f1357803560ff191683800117855562000f44565b8280016001018555821562000f44579182015b8281111562000f4357823582559160200191906001019062000f26565b5b50905062000f53919062000f57565b5090565b5b8082111562000f7257600081600090555060010162000f58565b5090565b600062000f8d62000f878462001676565b6200164d565b90508281526020810184848401111562000fa657600080fd5b62000fb3848285620017c5565b509392505050565b60008135905062000fcc8162001a38565b92915050565b60008151905062000fe38162001a38565b92915050565b60008151905062000ffa8162001a52565b92915050565b60008083601f8401126200101357600080fd5b8235905067ffffffffffffffff8111156200102d57600080fd5b6020830191508360018202830111156200104657600080fd5b9250929050565b600082601f8301126200105f57600080fd5b81356200107184826020860162000f76565b91505092915050565b6000813590506200108b8162001a63565b92915050565b600060208284031215620010a457600080fd5b6000620010b48482850162000fbb565b91505092915050565b600060208284031215620010d057600080fd5b6000620010e08482850162000fd2565b91505092915050565b600060208284031215620010fc57600080fd5b60006200110c8482850162000fe9565b91505092915050565b600080602083850312156200112957600080fd5b600083013567ffffffffffffffff8111156200114457600080fd5b620011528582860162001000565b92509250509250929050565b6000806000604084860312156200117457600080fd5b600084013567ffffffffffffffff8111156200118f57600080fd5b6200119d8682870162001000565b93509350506020620011b28682870162000fbb565b9150509250925092565b600060208284031215620011cf57600080fd5b600082013567ffffffffffffffff811115620011ea57600080fd5b620011f8848285016200104d565b91505092915050565b6000602082840312156200121457600080fd5b600062001224848285016200107a565b91505092915050565b60006200123b83836200125d565b60208301905092915050565b6000620012558383620013e0565b905092915050565b62001268816200177b565b82525050565b62001279816200177b565b82525050565b60006200128c82620016d1565b6200129881856200170c565b9350620012a583620016ac565b8060005b83811015620012e557620012bd82620018f2565b620012c988826200122d565b9750620012d683620016f2565b925050600181019050620012a9565b5085935050505092915050565b6000620012ff82620016dc565b6200130b81856200171d565b9350836020820285016200131f85620016c1565b8060005b858110156200136157848403895281516200133f858262001247565b94506200134c83620016ff565b925060208a0199505060018101905062001323565b50829750879550505050505092915050565b6200137e816200178f565b82525050565b60006200139283856200173f565b9350620013a1838584620017c5565b620013ac8362001907565b840190509392505050565b6000620013c5838562001750565b9350620013d4838584620017c5565b82840190509392505050565b6000620013ed82620016e7565b620013f981856200172e565b93506200140b818560208601620017d4565b620014168162001907565b840191505092915050565b60006200142e82620016e7565b6200143a81856200173f565b93506200144c818560208601620017d4565b620014578162001907565b840191505092915050565b6000620014716026836200173f565b91506200147e8262001925565b604082019050919050565b600062001498606f836200173f565b9150620014a58262001974565b608082019050919050565b6000620014bf6020836200173f565b9150620014cc8262001a0f565b602082019050919050565b6000620014e6828486620013b7565b91508190509392505050565b60006020820190506200150960008301846200126e565b92915050565b600060208201905081810360008301526200152b8184620012f2565b905092915050565b60006020820190506200154a600083018462001373565b92915050565b600060208201905081810360008301526200156d81848662001384565b90509392505050565b600060608201905081810360008301526200159381868862001384565b9050620015a460208301856200126e565b8181036040830152620015b881846200127f565b905095945050505050565b60006020820190508181036000830152620015df818462001421565b905092915050565b60006020820190508181036000830152620016028162001462565b9050919050565b60006020820190508181036000830152620016248162001489565b9050919050565b600060208201905081810360008301526200164681620014b0565b9050919050565b6000620016596200166c565b90506200166782826200185e565b919050565b6000604051905090565b600067ffffffffffffffff821115620016945762001693620018c3565b5b6200169f8262001907565b9050602081019050919050565b60008190508160005260206000209050919050565b6000819050602082019050919050565b600081549050919050565b600081519050919050565b600081519050919050565b6000600182019050919050565b6000602082019050919050565b600082825260208201905092915050565b600082825260208201905092915050565b600082825260208201905092915050565b600082825260208201905092915050565b600081905092915050565b600073ffffffffffffffffffffffffffffffffffffffff82169050919050565b600062001788826200179b565b9050919050565b60008115159050919050565b600073ffffffffffffffffffffffffffffffffffffffff82169050919050565b6000819050919050565b82818337600083830152505050565b60005b83811015620017f4578082015181840152602081019050620017d7565b8381111562001804576000848401525b50505050565b600060028204905060018216806200182357607f821691505b602082108114156200183a576200183962001894565b5b50919050565b600062001857620018518362001918565b6200175b565b9050919050565b620018698262001907565b810181811067ffffffffffffffff821117156200188b576200188a620018c3565b5b80604052505050565b7f4e487b7100000000000000000000000000000000000000000000000000000000600052602260045260246000fd5b7f4e487b7100000000000000000000000000000000000000000000000000000000600052604160045260246000fd5b600062001900825462001840565b9050919050565b6000601f19601f8301169050919050565b60008160001c9050919050565b7f4f776e61626c653a206e6577206f776e657220697320746865207a65726f206160008201527f6464726573730000000000000000000000000000000000000000000000000000602082015250565b7f497373756520616c72656164792065786973747320666f7220676976656e206960008201527f642e2046696e642069747320616464726573732062792063616c6c696e67206960208201527f73737565546f41646472657373206f6e207468697320636f6e7472616374207760408201527f6974682074686520697373756549640000000000000000000000000000000000606082015250565b7f4f776e61626c653a2063616c6c6572206973206e6f7420746865206f776e6572600082015250565b62001a43816200177b565b811462001a4f57600080fd5b50565b6002811062001a6057600080fd5b50565b62001a6e81620017bb565b811462001a7a57600080fd5b5056fe608060405262278d006002553480156200001857600080fd5b5060405162001b8138038062001b8183398181016040528101906200003e919062000469565b6200005e620000526200013360201b60201c565b6200013b60201b60201c565b826004908051906020019062000076929190620001ff565b5080600690805190602001906200008f92919062000290565b506000600760006101000a81548160ff02191690836001811115620000dd577f4e487b7100000000000000000000000000000000000000000000000000000000600052602160045260246000fd5b021790555081600360006101000a81548173ffffffffffffffffffffffffffffffffffffffff021916908373ffffffffffffffffffffffffffffffffffffffff16021790555042600181905550505050620006de565b600033905090565b60008060009054906101000a900473ffffffffffffffffffffffffffffffffffffffff169050816000806101000a81548173ffffffffffffffffffffffffffffffffffffffff021916908373ffffffffffffffffffffffffffffffffffffffff1602179055508173ffffffffffffffffffffffffffffffffffffffff168173ffffffffffffffffffffffffffffffffffffffff167f8be0079c531659141344cd1fd0a4f28419497f9722a3daafe3b4186f6b6457e060405160405180910390a35050565b8280546200020d90620005e9565b90600052602060002090601f0160209004810192826200023157600085556200027d565b82601f106200024c57805160ff19168380011785556200027d565b828001600101855582156200027d579182015b828111156200027c5782518255916020019190600101906200025f565b5b5090506200028c91906200031f565b5090565b8280548282559060005260206000209081019282156200030c579160200282015b828111156200030b5782518260006101000a81548173ffffffffffffffffffffffffffffffffffffffff021916908373ffffffffffffffffffffffffffffffffffffffff16021790555091602001919060010190620002b1565b5b5090506200031b91906200031f565b5090565b5b808211156200033a57600081600090555060010162000320565b5090565b6000620003556200034f846200051a565b620004f1565b905080838252602082019050828560208602820111156200037557600080fd5b60005b85811015620003a957816200038e8882620003f8565b84526020840193506020830192505060018101905062000378565b5050509392505050565b6000620003ca620003c48462000549565b620004f1565b905082815260208101848484011115620003e357600080fd5b620003f0848285620005b3565b509392505050565b6000815190506200040981620006c4565b92915050565b600082601f8301126200042157600080fd5b8151620004338482602086016200033e565b91505092915050565b600082601f8301126200044e57600080fd5b815162000460848260208601620003b3565b91505092915050565b6000806000606084860312156200047f57600080fd5b600084015167ffffffffffffffff8111156200049a57600080fd5b620004a8868287016200043c565b9350506020620004bb86828701620003f8565b925050604084015167ffffffffffffffff811115620004d957600080fd5b620004e7868287016200040f565b9150509250925092565b6000620004fd62000510565b90506200050b82826200061f565b919050565b6000604051905090565b600067ffffffffffffffff82111562000538576200053762000684565b5b602082029050602081019050919050565b600067ffffffffffffffff82111562000567576200056662000684565b5b6200057282620006b3565b9050602081019050919050565b60006200058c8262000593565b9050919050565b600073ffffffffffffffffffffffffffffffffffffffff82169050919050565b60005b83811015620005d3578082015181840152602081019050620005b6565b83811115620005e3576000848401525b50505050565b600060028204905060018216806200060257607f821691505b6020821081141562000619576200061862000655565b5b50919050565b6200062a82620006b3565b810181811067ffffffffffffffff821117156200064c576200064b62000684565b5b80604052505050565b7f4e487b7100000000000000000000000000000000000000000000000000000000600052602260045260246000fd5b7f4e487b7100000000000000000000000000000000000000000000000000000000600052604160045260246000fd5b6000601f19601f8301169050919050565b620006cf816200057f565b8114620006db57600080fd5b50565b61149380620006ee6000396000f3fe608060405234801561001057600080fd5b50600436106100cf5760003560e01c80639375dd901161008c578063df07b60e11610066578063df07b60e146101ca578063e5df8b84146101e8578063f16b51c114610218578063f2fde38b14610236576100cf565b80639375dd9014610174578063b588d22514610190578063cc9cd961146101c0576100cf565b80631d143848146100d4578063200d2ed2146100f257806332710c6e146101105780637044f2821461012e578063715018a61461014c5780638da5cb5b14610156575b600080fd5b6100dc610252565b6040516100e99190610f4e565b60405180910390f35b6100fa610278565b6040516101079190610f92565b60405180910390f35b61011861028b565b6040516101259190610fad565b60405180910390f35b610136610319565b6040516101439190610f4e565b60405180910390f35b61015461033f565b005b61015e6103c7565b60405161016b9190610f4e565b60405180910390f35b61018e60048036038101906101899190610d6c565b6103f0565b005b6101aa60048036038101906101a59190610d6c565b6107d5565b6040516101b7919061106f565b60405180910390f35b6101c861086c565b005b6101d2610af4565b6040516101df919061106f565b60405180910390f35b61020260048036038101906101fd9190610de7565b610afa565b60405161020f9190610f4e565b60405180910390f35b610220610b39565b60405161022d919061106f565b60405180910390f35b610250600480360381019061024b9190610d6c565b610b3f565b005b600360009054906101000a900473ffffffffffffffffffffffffffffffffffffffff1681565b600760009054906101000a900460ff1681565b600480546102989061119c565b80601f01602080910402602001604051908101604052809291908181526020018280546102c49061119c565b80156103115780601f106102e657610100808354040283529160200191610311565b820191906000526020600020905b8154815290600101906020018083116102f457829003601f168201915b505050505081565b600560009054906101000a900473ffffffffffffffffffffffffffffffffffffffff1681565b610347610c37565b73ffffffffffffffffffffffffffffffffffffffff166103656103c7565b73ffffffffffffffffffffffffffffffffffffffff16146103bb576040517f08c379a00000000000000000000000000000000000000000000000000000000081526004016103b29061102f565b60405180910390fd5b6103c56000610c3f565b565b60008060009054906101000a900473ffffffffffffffffffffffffffffffffffffffff16905090565b6103f8610c37565b73ffffffffffffffffffffffffffffffffffffffff166104166103c7565b73ffffffffffffffffffffffffffffffffffffffff161461046c576040517f08c379a00000000000000000000000000000000000000000000000000000000081526004016104639061102f565b60405180910390fd5b600060018111156104a6577f4e487b7100000000000000000000000000000000000000000000000000000000600052602160045260246000fd5b3073ffffffffffffffffffffffffffffffffffffffff1663200d2ed26040518163ffffffff1660e01b815260040160206040518083038186803b1580156104ec57600080fd5b505afa158015610500573d6000803e3d6000fd5b505050506040513d601f19601f820116820180604052508101906105249190610dbe565b600181111561055c577f4e487b7100000000000000000000000000000000000000000000000000000000600052602160045260246000fd5b1461059c576040517f08c379a00000000000000000000000000000000000000000000000000000000081526004016105939061100f565b60405180910390fd5b60005b60068054905081101561073f576000600682815481106105e8577f4e487b7100000000000000000000000000000000000000000000000000000000600052603260045260246000fd5b9060005260206000200160009054906101000a900473ffffffffffffffffffffffffffffffffffffffff1690508073ffffffffffffffffffffffffffffffffffffffff1663a9059cbb848373ffffffffffffffffffffffffffffffffffffffff166370a08231306040518263ffffffff1660e01b815260040161066b9190610f4e565b60206040518083038186803b15801561068357600080fd5b505afa158015610697573d6000803e3d6000fd5b505050506040513d601f19601f820116820180604052508101906106bb9190610e10565b6040518363ffffffff1660e01b81526004016106d8929190610f69565b602060405180830381600087803b1580156106f257600080fd5b505af1158015610706573d6000803e3d6000fd5b505050506040513d601f19601f8201168201806040525081019061072a9190610d95565b50508080610737906111ce565b91505061059f565b506001600760006101000a81548160ff0219169083600181111561078c577f4e487b7100000000000000000000000000000000000000000000000000000000600052602160045260246000fd5b021790555080600560006101000a81548173ffffffffffffffffffffffffffffffffffffffff021916908373ffffffffffffffffffffffffffffffffffffffff16021790555050565b6000808290508073ffffffffffffffffffffffffffffffffffffffff166370a08231306040518263ffffffff1660e01b81526004016108149190610f4e565b60206040518083038186803b15801561082c57600080fd5b505afa158015610840573d6000803e3d6000fd5b505050506040513d601f19601f820116820180604052508101906108649190610e10565b915050919050565b600360009054906101000a900473ffffffffffffffffffffffffffffffffffffffff1673ffffffffffffffffffffffffffffffffffffffff163373ffffffffffffffffffffffffffffffffffffffff16146108fc576040517f08c379a00000000000000000000000000000000000000000000000000000000081526004016108f390610fcf565b60405180910390fd5b60025460015461090c91906110a6565b42101561094e576040517f08c379a00000000000000000000000000000000000000000000000000000000081526004016109459061104f565b60405180910390fd5b60005b600680549050811015610af15760006006828154811061099a577f4e487b7100000000000000000000000000000000000000000000000000000000600052603260045260246000fd5b9060005260206000200160009054906101000a900473ffffffffffffffffffffffffffffffffffffffff1690508073ffffffffffffffffffffffffffffffffffffffff1663a9059cbb338373ffffffffffffffffffffffffffffffffffffffff166370a08231306040518263ffffffff1660e01b8152600401610a1d9190610f4e565b60206040518083038186803b158015610a3557600080fd5b505afa158015610a49573d6000803e3d6000fd5b505050506040513d601f19601f82011682018060405250810190610a6d9190610e10565b6040518363ffffffff1660e01b8152600401610a8a929190610f69565b602060405180830381600087803b158015610aa457600080fd5b505af1158015610ab8573d6000803e3d6000fd5b505050506040513d601f19601f82011682018060405250810190610adc9190610d95565b50508080610ae9906111ce565b915050610951565b50565b60015481565b60068181548110610b0a57600080fd5b906000526020600020016000915054906101000a900473ffffffffffffffffffffffffffffffffffffffff1681565b60025481565b610b47610c37565b73ffffffffffffffffffffffffffffffffffffffff16610b656103c7565b73ffffffffffffffffffffffffffffffffffffffff1614610bbb576040517f08c379a0000000000000000000000000000000000000000000000000000000008152600401610bb29061102f565b60405180910390fd5b600073ffffffffffffffffffffffffffffffffffffffff168173ffffffffffffffffffffffffffffffffffffffff161415610c2b576040517f08c379a0000000000000000000000000000000000000000000000000000000008152600401610c2290610fef565b60405180910390fd5b610c3481610c3f565b50565b600033905090565b60008060009054906101000a900473ffffffffffffffffffffffffffffffffffffffff169050816000806101000a81548173ffffffffffffffffffffffffffffffffffffffff021916908373ffffffffffffffffffffffffffffffffffffffff1602179055508173ffffffffffffffffffffffffffffffffffffffff168173ffffffffffffffffffffffffffffffffffffffff167f8be0079c531659141344cd1fd0a4f28419497f9722a3daafe3b4186f6b6457e060405160405180910390a35050565b600081359050610d1281611408565b92915050565b600081519050610d278161141f565b92915050565b600081519050610d3c81611436565b92915050565b600081359050610d5181611446565b92915050565b600081519050610d6681611446565b92915050565b600060208284031215610d7e57600080fd5b6000610d8c84828501610d03565b91505092915050565b600060208284031215610da757600080fd5b6000610db584828501610d18565b91505092915050565b600060208284031215610dd057600080fd5b6000610dde84828501610d2d565b91505092915050565b600060208284031215610df957600080fd5b6000610e0784828501610d42565b91505092915050565b600060208284031215610e2257600080fd5b6000610e3084828501610d57565b91505092915050565b610e42816110fc565b82525050565b610e5181611157565b82525050565b6000610e628261108a565b610e6c8185611095565b9350610e7c818560208601611169565b610e85816112a4565b840191505092915050565b6000610e9d603a83611095565b9150610ea8826112b5565b604082019050919050565b6000610ec0602683611095565b9150610ecb82611304565b604082019050919050565b6000610ee3602f83611095565b9150610eee82611353565b604082019050919050565b6000610f06602083611095565b9150610f11826113a2565b602082019050919050565b6000610f29601b83611095565b9150610f34826113cb565b602082019050919050565b610f488161114d565b82525050565b6000602082019050610f636000830184610e39565b92915050565b6000604082019050610f7e6000830185610e39565b610f8b6020830184610f3f565b9392505050565b6000602082019050610fa76000830184610e48565b92915050565b60006020820190508181036000830152610fc78184610e57565b905092915050565b60006020820190508181036000830152610fe881610e90565b9050919050565b6000602082019050818103600083015261100881610eb3565b9050919050565b6000602082019050818103600083015261102881610ed6565b9050919050565b6000602082019050818103600083015261104881610ef9565b9050919050565b6000602082019050818103600083015261106881610f1c565b9050919050565b60006020820190506110846000830184610f3f565b92915050565b600081519050919050565b600082825260208201905092915050565b60006110b18261114d565b91506110bc8361114d565b9250827fffffffffffffffffffffffffffffffffffffffffffffffffffffffffffffffff038211156110f1576110f0611217565b5b828201905092915050565b60006111078261112d565b9050919050565b60008115159050919050565b6000819050611128826113f4565b919050565b600073ffffffffffffffffffffffffffffffffffffffff82169050919050565b6000819050919050565b60006111628261111a565b9050919050565b60005b8381101561118757808201518184015260208101905061116c565b83811115611196576000848401525b50505050565b600060028204905060018216806111b457607f821691505b602082108114156111c8576111c7611275565b5b50919050565b60006111d98261114d565b91507fffffffffffffffffffffffffffffffffffffffffffffffffffffffffffffffff82141561120c5761120b611217565b5b600182019050919050565b7f4e487b7100000000000000000000000000000000000000000000000000000000600052601160045260246000fd5b7f4e487b7100000000000000000000000000000000000000000000000000000000600052602160045260246000fd5b7f4e487b7100000000000000000000000000000000000000000000000000000000600052602260045260246000fd5b6000601f19601f8301169050919050565b7f4f6e6c7920697373756572206f66207468697320626f756e74792063616e207260008201527f65636c61696d2066756e64732061667465722033302064617973000000000000602082015250565b7f4f776e61626c653a206e6577206f776e657220697320746865207a65726f206160008201527f6464726573730000000000000000000000000000000000000000000000000000602082015250565b7f5468697320697320697373756520697320636c6f7365642e2043616e6e6f742060008201527f776974686472617720616761696e2e0000000000000000000000000000000000602082015250565b7f4f776e61626c653a2063616c6c6572206973206e6f7420746865206f776e6572600082015250565b7f546f6f206561726c7920746f2077697468647261772066756e64730000000000600082015250565b6002811061140557611404611246565b5b50565b611411816110fc565b811461141c57600080fd5b50565b6114288161110e565b811461143357600080fd5b50565b6002811061144357600080fd5b50565b61144f8161114d565b811461145a57600080fd5b5056fea26469706673582212201b43627ed8eba1ce35980a8b74049a977e32962f5015ad6966b4149a788ca1dd64736f6c63430008040033a26469706673582212205fa01567b0e78ae68a5655cc11813cde33a5e40cf328ced6ac40156369f0a5b064736f6c63430008040033",
  "linkReferences": {},
  "deployedLinkReferences": {}
}