{
  "_format": "hh-sol-artifact-1",
  "contractName": "OpenQ",
  "sourceName": "contracts/OpenQ.sol",
  "abi": [
    {
      "inputs": [],
      "stateMutability": "nonpayable",
      "type": "constructor"
    },
    {
      "anonymous": false,
      "inputs": [
        {
          "indexed": false,
          "internalType": "string",
          "name": "id",
          "type": "string"
        },
        {
          "indexed": true,
          "internalType": "address",
          "name": "issueAddress",
          "type": "address"
        },
        {
          "indexed": true,
          "internalType": "address",
          "name": "payoutAddress",
          "type": "address"
        }
      ],
      "name": "IssueClosed",
      "type": "event"
    },
    {
      "anonymous": false,
      "inputs": [
        {
          "indexed": true,
          "internalType": "address",
          "name": "from",
          "type": "address"
        },
        {
          "indexed": false,
          "internalType": "string",
          "name": "id",
          "type": "string"
        },
        {
          "indexed": true,
          "internalType": "address",
          "name": "issueAddress",
          "type": "address"
        }
      ],
      "name": "IssueCreated",
      "type": "event"
    },
    {
      "inputs": [
        {
          "internalType": "address",
          "name": "tokenAddress",
          "type": "address"
        }
      ],
      "name": "addTokenAddress",
      "outputs": [],
      "stateMutability": "nonpayable",
      "type": "function"
    },
    {
      "inputs": [
        {
          "internalType": "address",
          "name": "",
          "type": "address"
        }
      ],
      "name": "addressToIssue",
      "outputs": [
        {
          "internalType": "string",
          "name": "",
          "type": "string"
        }
      ],
      "stateMutability": "view",
      "type": "function"
    },
    {
      "inputs": [
        {
          "internalType": "string",
          "name": "_id",
          "type": "string"
        },
        {
          "internalType": "address",
          "name": "_payoutAddress",
          "type": "address"
        }
      ],
      "name": "claimBounty",
      "outputs": [],
      "stateMutability": "nonpayable",
      "type": "function"
    },
    {
      "inputs": [
        {
          "internalType": "string",
          "name": "_id",
          "type": "string"
        }
      ],
      "name": "getBountyAddress",
      "outputs": [
        {
          "internalType": "address",
          "name": "",
          "type": "address"
        }
      ],
      "stateMutability": "view",
      "type": "function"
    },
    {
      "inputs": [],
      "name": "getIssueIds",
      "outputs": [
        {
          "internalType": "string[]",
          "name": "",
          "type": "string[]"
        }
      ],
      "stateMutability": "view",
      "type": "function"
    },
    {
      "inputs": [
        {
          "internalType": "uint256",
          "name": "",
          "type": "uint256"
        }
      ],
      "name": "issueIds",
      "outputs": [
        {
          "internalType": "string",
          "name": "",
          "type": "string"
        }
      ],
      "stateMutability": "view",
      "type": "function"
    },
    {
      "inputs": [
        {
          "internalType": "string",
          "name": "id_",
          "type": "string"
        }
      ],
      "name": "issueIsOpen",
      "outputs": [
        {
          "internalType": "bool",
          "name": "",
          "type": "bool"
        }
      ],
      "stateMutability": "view",
      "type": "function"
    },
    {
      "inputs": [
        {
          "internalType": "string",
          "name": "",
          "type": "string"
        }
      ],
      "name": "issueToAddress",
      "outputs": [
        {
          "internalType": "address",
          "name": "",
          "type": "address"
        }
      ],
      "stateMutability": "view",
      "type": "function"
    },
    {
      "inputs": [
        {
          "internalType": "string",
          "name": "_id",
          "type": "string"
        }
      ],
      "name": "mintBounty",
      "outputs": [
        {
          "internalType": "address",
          "name": "issueAddress",
          "type": "address"
        }
      ],
      "stateMutability": "nonpayable",
      "type": "function"
    },
    {
      "inputs": [
        {
          "internalType": "uint256",
          "name": "",
          "type": "uint256"
        }
      ],
      "name": "tokenAddresses",
      "outputs": [
        {
          "internalType": "address",
          "name": "",
          "type": "address"
        }
      ],
      "stateMutability": "view",
      "type": "function"
    }
  ],
  "bytecode": "0x608060405234801561001057600080fd5b50336000806101000a81548173ffffffffffffffffffffffffffffffffffffffff021916908373ffffffffffffffffffffffffffffffffffffffff1602179055506128c0806100606000396000f3fe60806040523480156200001157600080fd5b5060043610620000ac5760003560e01c8063c4a9199c116200006f578063c4a9199c1462000193578063cde9628314620001c9578063e5df8b8414620001eb578063eea7f9241462000221578063fcedbecf146200025757620000ac565b80633e7da1a914620000b15780634badc44e14620000d157806351992fcb1462000107578063b233e6e81462000127578063b83b6b65146200015d575b600080fd5b620000cf6004803603810190620000c9919062000dcb565b6200028d565b005b620000ef6004803603810190620000e9919062000e6e565b620003b8565b604051620000fe9190620011d2565b60405180910390f35b6200012560048036038101906200011f919062000cfe565b6200046d565b005b6200014560048036038101906200013f919062000d82565b620004d3565b60405162000154919062001111565b60405180910390f35b6200017b600480360381019062000175919062000cfe565b62000729565b6040516200018a9190620011d2565b60405180910390f35b620001b16004803603810190620001ab919062000d82565b620007d1565b604051620001c0919062001152565b60405180910390f35b620001d36200096c565b604051620001e291906200112e565b60405180910390f35b62000209600480360381019062000203919062000e6e565b62000a4f565b60405162000218919062001111565b60405180910390f35b6200023f600480360381019062000239919062000e29565b62000a8f565b6040516200024e919062001111565b60405180910390f35b6200027560048036038101906200026f919062000d82565b62000ad8565b60405162000284919062001111565b60405180910390f35b600060028484604051620002a3929190620010f6565b908152602001604051809103902060009054906101000a900473ffffffffffffffffffffffffffffffffffffffff16905060008190508073ffffffffffffffffffffffffffffffffffffffff16639375dd90846040518263ffffffff1660e01b815260040162000314919062001111565b600060405180830381600087803b1580156200032f57600080fd5b505af115801562000344573d6000803e3d6000fd5b505050508273ffffffffffffffffffffffffffffffffffffffff168273ffffffffffffffffffffffffffffffffffffffff167fe8bca3c18ca1c7ab481718f184745e0be969b9ff855fc58d9a483562ec9c960d8787604051620003a99291906200116f565b60405180910390a35050505050565b60018181548110620003c957600080fd5b906000526020600020016000915090508054620003e690620013d5565b80601f01602080910402602001604051908101604052809291908181526020018280546200041490620013d5565b8015620004655780601f10620004395761010080835404028352916020019162000465565b820191906000526020600020905b8154815290600101906020018083116200044757829003601f168201915b505050505081565b6004819080600181540180825580915050600190039060005260206000200160009091909190916101000a81548173ffffffffffffffffffffffffffffffffffffffff021916908373ffffffffffffffffffffffffffffffffffffffff16021790555050565b60008073ffffffffffffffffffffffffffffffffffffffff166002848460405162000500929190620010f6565b908152602001604051809103902060009054906101000a900473ffffffffffffffffffffffffffffffffffffffff1673ffffffffffffffffffffffffffffffffffffffff161462000588576040517f08c379a00000000000000000000000000000000000000000000000000000000081526004016200057f90620011f6565b60405180910390fd5b828260046040516200059a9062000b25565b620005a89392919062001195565b604051809103906000f080158015620005c5573d6000803e3d6000fd5b5090508060028484604051620005dd929190620010f6565b908152602001604051809103902060006101000a81548173ffffffffffffffffffffffffffffffffffffffff021916908373ffffffffffffffffffffffffffffffffffffffff1602179055508282600360008473ffffffffffffffffffffffffffffffffffffffff1673ffffffffffffffffffffffffffffffffffffffff16815260200190815260200160002091906200067992919062000b33565b506001838390918060018154018082558091505060019003906000526020600020016000909192909192909192909192509190620006b992919062000b33565b508073ffffffffffffffffffffffffffffffffffffffff163373ffffffffffffffffffffffffffffffffffffffff167fd093611f2be5c7b2095065f744ea72e98dfb48b49a9c50a55206ba8698e441d185856040516200071b9291906200116f565b60405180910390a392915050565b600360205280600052604060002060009150905080546200074a90620013d5565b80601f01602080910402602001604051908101604052809291908181526020018280546200077890620013d5565b8015620007c95780601f106200079d57610100808354040283529160200191620007c9565b820191906000526020600020905b815481529060010190602001808311620007ab57829003601f168201915b505050505081565b6000803073ffffffffffffffffffffffffffffffffffffffff1663eea7f92485856040518363ffffffff1660e01b8152600401620008119291906200116f565b60206040518083038186803b1580156200082a57600080fd5b505afa1580156200083f573d6000803e3d6000fd5b505050506040513d601f19601f8201168201806040525081019062000865919062000d2a565b90506000806001811115620008a3577f4e487b7100000000000000000000000000000000000000000000000000000000600052602160045260246000fd5b8273ffffffffffffffffffffffffffffffffffffffff1663200d2ed26040518163ffffffff1660e01b815260040160206040518083038186803b158015620008ea57600080fd5b505afa158015620008ff573d6000803e3d6000fd5b505050506040513d601f19601f8201168201806040525081019062000925919062000d56565b60018111156200095e577f4e487b7100000000000000000000000000000000000000000000000000000000600052602160045260246000fd5b149050809250505092915050565b60606001805480602002602001604051908101604052809291908181526020016000905b8282101562000a46578382906000526020600020018054620009b290620013d5565b80601f0160208091040260200160405190810160405280929190818152602001828054620009e090620013d5565b801562000a315780601f1062000a055761010080835404028352916020019162000a31565b820191906000526020600020905b81548152906001019060200180831162000a1357829003601f168201915b50505050508152602001906001019062000990565b50505050905090565b6004818154811062000a6057600080fd5b906000526020600020016000915054906101000a900473ffffffffffffffffffffffffffffffffffffffff1681565b6002818051602081018201805184825260208301602085012081835280955050505050506000915054906101000a900473ffffffffffffffffffffffffffffffffffffffff1681565b60006002838360405162000aee929190620010f6565b908152602001604051809103902060009054906101000a900473ffffffffffffffffffffffffffffffffffffffff16905092915050565b6112ba80620015d183390190565b82805462000b4190620013d5565b90600052602060002090601f01602090048101928262000b65576000855562000bb1565b82601f1062000b8057803560ff191683800117855562000bb1565b8280016001018555821562000bb1579182015b8281111562000bb057823582559160200191906001019062000b93565b5b50905062000bc0919062000bc4565b5090565b5b8082111562000bdf57600081600090555060010162000bc5565b5090565b600062000bfa62000bf48462001241565b62001218565b90508281526020810184848401111562000c1357600080fd5b62000c2084828562001390565b509392505050565b60008135905062000c39816200158b565b92915050565b60008151905062000c50816200158b565b92915050565b60008151905062000c6781620015a5565b92915050565b60008083601f84011262000c8057600080fd5b8235905067ffffffffffffffff81111562000c9a57600080fd5b60208301915083600182028301111562000cb357600080fd5b9250929050565b600082601f83011262000ccc57600080fd5b813562000cde84826020860162000be3565b91505092915050565b60008135905062000cf881620015b6565b92915050565b60006020828403121562000d1157600080fd5b600062000d218482850162000c28565b91505092915050565b60006020828403121562000d3d57600080fd5b600062000d4d8482850162000c3f565b91505092915050565b60006020828403121562000d6957600080fd5b600062000d798482850162000c56565b91505092915050565b6000806020838503121562000d9657600080fd5b600083013567ffffffffffffffff81111562000db157600080fd5b62000dbf8582860162000c6d565b92509250509250929050565b60008060006040848603121562000de157600080fd5b600084013567ffffffffffffffff81111562000dfc57600080fd5b62000e0a8682870162000c6d565b9350935050602062000e1f8682870162000c28565b9150509250925092565b60006020828403121562000e3c57600080fd5b600082013567ffffffffffffffff81111562000e5757600080fd5b62000e658482850162000cba565b91505092915050565b60006020828403121562000e8157600080fd5b600062000e918482850162000ce7565b91505092915050565b600062000ea8838362000eca565b60208301905092915050565b600062000ec283836200104d565b905092915050565b62000ed58162001346565b82525050565b62000ee68162001346565b82525050565b600062000ef9826200129c565b62000f058185620012d7565b935062000f128362001277565b8060005b8381101562000f525762000f2a82620014bd565b62000f36888262000e9a565b975062000f4383620012bd565b92505060018101905062000f16565b5085935050505092915050565b600062000f6c82620012a7565b62000f788185620012e8565b93508360208202850162000f8c856200128c565b8060005b8581101562000fce578484038952815162000fac858262000eb4565b945062000fb983620012ca565b925060208a0199505060018101905062000f90565b50829750879550505050505092915050565b62000feb816200135a565b82525050565b600062000fff83856200130a565b93506200100e83858462001390565b6200101983620014d2565b840190509392505050565b60006200103283856200131b565b93506200104183858462001390565b82840190509392505050565b60006200105a82620012b2565b620010668185620012f9565b9350620010788185602086016200139f565b6200108381620014d2565b840191505092915050565b60006200109b82620012b2565b620010a781856200130a565b9350620010b98185602086016200139f565b620010c481620014d2565b840191505092915050565b6000620010de606f836200130a565b9150620010eb82620014f0565b608082019050919050565b60006200110582848662001024565b91508190509392505050565b600060208201905062001128600083018462000edb565b92915050565b600060208201905081810360008301526200114a818462000f5f565b905092915050565b600060208201905062001169600083018462000fe0565b92915050565b600060208201905081810360008301526200118c81848662000ff1565b90509392505050565b60006040820190508181036000830152620011b281858762000ff1565b90508181036020830152620011c8818462000eec565b9050949350505050565b60006020820190508181036000830152620011ee81846200108e565b905092915050565b600060208201905081810360008301526200121181620010cf565b9050919050565b60006200122462001237565b905062001232828262001429565b919050565b6000604051905090565b600067ffffffffffffffff8211156200125f576200125e6200148e565b5b6200126a82620014d2565b9050602081019050919050565b60008190508160005260206000209050919050565b6000819050602082019050919050565b600081549050919050565b600081519050919050565b600081519050919050565b6000600182019050919050565b6000602082019050919050565b600082825260208201905092915050565b600082825260208201905092915050565b600082825260208201905092915050565b600082825260208201905092915050565b600081905092915050565b600073ffffffffffffffffffffffffffffffffffffffff82169050919050565b6000620013538262001366565b9050919050565b60008115159050919050565b600073ffffffffffffffffffffffffffffffffffffffff82169050919050565b6000819050919050565b82818337600083830152505050565b60005b83811015620013bf578082015181840152602081019050620013a2565b83811115620013cf576000848401525b50505050565b60006002820490506001821680620013ee57607f821691505b602082108114156200140557620014046200145f565b5b50919050565b6000620014226200141c83620014e3565b62001326565b9050919050565b6200143482620014d2565b810181811067ffffffffffffffff821117156200145657620014556200148e565b5b80604052505050565b7f4e487b7100000000000000000000000000000000000000000000000000000000600052602260045260246000fd5b7f4e487b7100000000000000000000000000000000000000000000000000000000600052604160045260246000fd5b6000620014cb82546200140b565b9050919050565b6000601f19601f8301169050919050565b60008160001c9050919050565b7f497373756520616c72656164792065786973747320666f7220676976656e206960008201527f642e2046696e642069747320616464726573732062792063616c6c696e67206960208201527f73737565546f41646472657373206f6e207468697320636f6e7472616374207760408201527f6974682074686520697373756549640000000000000000000000000000000000606082015250565b620015968162001346565b8114620015a257600080fd5b50565b60028110620015b357600080fd5b50565b620015c18162001386565b8114620015cd57600080fd5b5056fe60806040523480156200001157600080fd5b50604051620012ba380380620012ba83398181016040528101906200003791906200036e565b81600090805190602001906200004f92919062000104565b5033600160006101000a81548173ffffffffffffffffffffffffffffffffffffffff021916908373ffffffffffffffffffffffffffffffffffffffff1602179055508060039080519060200190620000a992919062000195565b506000600460006101000a81548160ff02191690836001811115620000f7577f4e487b7100000000000000000000000000000000000000000000000000000000600052602160045260246000fd5b02179055505050620005ce565b8280546200011290620004d9565b90600052602060002090601f01602090048101928262000136576000855562000182565b82601f106200015157805160ff191683800117855562000182565b8280016001018555821562000182579182015b828111156200018157825182559160200191906001019062000164565b5b50905062000191919062000224565b5090565b82805482825590600052602060002090810192821562000211579160200282015b82811115620002105782518260006101000a81548173ffffffffffffffffffffffffffffffffffffffff021916908373ffffffffffffffffffffffffffffffffffffffff16021790555091602001919060010190620001b6565b5b50905062000220919062000224565b5090565b5b808211156200023f57600081600090555060010162000225565b5090565b60006200025a62000254846200040a565b620003e1565b905080838252602082019050828560208602820111156200027a57600080fd5b60005b85811015620002ae5781620002938882620002fd565b8452602084019350602083019250506001810190506200027d565b5050509392505050565b6000620002cf620002c98462000439565b620003e1565b905082815260208101848484011115620002e857600080fd5b620002f5848285620004a3565b509392505050565b6000815190506200030e81620005b4565b92915050565b600082601f8301126200032657600080fd5b81516200033884826020860162000243565b91505092915050565b600082601f8301126200035357600080fd5b815162000365848260208601620002b8565b91505092915050565b600080604083850312156200038257600080fd5b600083015167ffffffffffffffff8111156200039d57600080fd5b620003ab8582860162000341565b925050602083015167ffffffffffffffff811115620003c957600080fd5b620003d78582860162000314565b9150509250929050565b6000620003ed62000400565b9050620003fb82826200050f565b919050565b6000604051905090565b600067ffffffffffffffff82111562000428576200042762000574565b5b602082029050602081019050919050565b600067ffffffffffffffff82111562000457576200045662000574565b5b6200046282620005a3565b9050602081019050919050565b60006200047c8262000483565b9050919050565b600073ffffffffffffffffffffffffffffffffffffffff82169050919050565b60005b83811015620004c3578082015181840152602081019050620004a6565b83811115620004d3576000848401525b50505050565b60006002820490506001821680620004f257607f821691505b6020821081141562000509576200050862000545565b5b50919050565b6200051a82620005a3565b810181811067ffffffffffffffff821117156200053c576200053b62000574565b5b80604052505050565b7f4e487b7100000000000000000000000000000000000000000000000000000000600052602260045260246000fd5b7f4e487b7100000000000000000000000000000000000000000000000000000000600052604160045260246000fd5b6000601f19601f8301169050919050565b620005bf816200046f565b8114620005cb57600080fd5b50565b610cdc80620005de6000396000f3fe608060405234801561001057600080fd5b506004361061007d5760003560e01c80639375dd901161005b5780639375dd90146100dc578063af640d0f146100f8578063b588d22514610116578063e5df8b84146101465761007d565b8063200d2ed2146100825780637044f282146100a05780638da5cb5b146100be575b600080fd5b61008a610176565b6040516100979190610958565b60405180910390f35b6100a8610189565b6040516100b59190610914565b60405180910390f35b6100c66101af565b6040516100d39190610914565b60405180910390f35b6100f660048036038101906100f1919061079b565b6101d5565b005b6101006105ce565b60405161010d9190610973565b60405180910390f35b610130600480360381019061012b919061079b565b61065c565b60405161013d91906109d5565b60405180910390f35b610160600480360381019061015b9190610816565b6106f3565b60405161016d9190610914565b60405180910390f35b600460009054906101000a900460ff1681565b600260009054906101000a900473ffffffffffffffffffffffffffffffffffffffff1681565b600160009054906101000a900473ffffffffffffffffffffffffffffffffffffffff1681565b600160009054906101000a900473ffffffffffffffffffffffffffffffffffffffff1673ffffffffffffffffffffffffffffffffffffffff163373ffffffffffffffffffffffffffffffffffffffff1614610265576040517f08c379a000000000000000000000000000000000000000000000000000000000815260040161025c906109b5565b60405180910390fd5b6000600181111561029f577f4e487b7100000000000000000000000000000000000000000000000000000000600052602160045260246000fd5b3073ffffffffffffffffffffffffffffffffffffffff1663200d2ed26040518163ffffffff1660e01b815260040160206040518083038186803b1580156102e557600080fd5b505afa1580156102f9573d6000803e3d6000fd5b505050506040513d601f19601f8201168201806040525081019061031d91906107ed565b6001811115610355577f4e487b7100000000000000000000000000000000000000000000000000000000600052602160045260246000fd5b14610395576040517f08c379a000000000000000000000000000000000000000000000000000000000815260040161038c90610995565b60405180910390fd5b60005b600380549050811015610538576000600382815481106103e1577f4e487b7100000000000000000000000000000000000000000000000000000000600052603260045260246000fd5b9060005260206000200160009054906101000a900473ffffffffffffffffffffffffffffffffffffffff1690508073ffffffffffffffffffffffffffffffffffffffff1663a9059cbb848373ffffffffffffffffffffffffffffffffffffffff166370a08231306040518263ffffffff1660e01b81526004016104649190610914565b60206040518083038186803b15801561047c57600080fd5b505afa158015610490573d6000803e3d6000fd5b505050506040513d601f19601f820116820180604052508101906104b4919061083f565b6040518363ffffffff1660e01b81526004016104d192919061092f565b602060405180830381600087803b1580156104eb57600080fd5b505af11580156104ff573d6000803e3d6000fd5b505050506040513d601f19601f8201168201806040525081019061052391906107c4565b5050808061053090610ade565b915050610398565b506001600460006101000a81548160ff02191690836001811115610585577f4e487b7100000000000000000000000000000000000000000000000000000000600052602160045260246000fd5b021790555080600260006101000a81548173ffffffffffffffffffffffffffffffffffffffff021916908373ffffffffffffffffffffffffffffffffffffffff16021790555050565b600080546105db90610aac565b80601f016020809104026020016040519081016040528092919081815260200182805461060790610aac565b80156106545780601f1061062957610100808354040283529160200191610654565b820191906000526020600020905b81548152906001019060200180831161063757829003601f168201915b505050505081565b6000808290508073ffffffffffffffffffffffffffffffffffffffff166370a08231306040518263ffffffff1660e01b815260040161069b9190610914565b60206040518083038186803b1580156106b357600080fd5b505afa1580156106c7573d6000803e3d6000fd5b505050506040513d601f19601f820116820180604052508101906106eb919061083f565b915050919050565b6003818154811061070357600080fd5b906000526020600020016000915054906101000a900473ffffffffffffffffffffffffffffffffffffffff1681565b60008135905061074181610c51565b92915050565b60008151905061075681610c68565b92915050565b60008151905061076b81610c7f565b92915050565b60008135905061078081610c8f565b92915050565b60008151905061079581610c8f565b92915050565b6000602082840312156107ad57600080fd5b60006107bb84828501610732565b91505092915050565b6000602082840312156107d657600080fd5b60006107e484828501610747565b91505092915050565b6000602082840312156107ff57600080fd5b600061080d8482850161075c565b91505092915050565b60006020828403121561082857600080fd5b600061083684828501610771565b91505092915050565b60006020828403121561085157600080fd5b600061085f84828501610786565b91505092915050565b61087181610a0c565b82525050565b61088081610a67565b82525050565b6000610891826109f0565b61089b81856109fb565b93506108ab818560208601610a79565b6108b481610bb4565b840191505092915050565b60006108cc602f836109fb565b91506108d782610bc5565b604082019050919050565b60006108ef601f836109fb565b91506108fa82610c14565b602082019050919050565b61090e81610a5d565b82525050565b60006020820190506109296000830184610868565b92915050565b60006040820190506109446000830185610868565b6109516020830184610905565b9392505050565b600060208201905061096d6000830184610877565b92915050565b6000602082019050818103600083015261098d8184610886565b905092915050565b600060208201905081810360008301526109ae816108bf565b9050919050565b600060208201905081810360008301526109ce816108e2565b9050919050565b60006020820190506109ea6000830184610905565b92915050565b600081519050919050565b600082825260208201905092915050565b6000610a1782610a3d565b9050919050565b60008115159050919050565b6000819050610a3882610c3d565b919050565b600073ffffffffffffffffffffffffffffffffffffffff82169050919050565b6000819050919050565b6000610a7282610a2a565b9050919050565b60005b83811015610a97578082015181840152602081019050610a7c565b83811115610aa6576000848401525b50505050565b60006002820490506001821680610ac457607f821691505b60208210811415610ad857610ad7610b85565b5b50919050565b6000610ae982610a5d565b91507fffffffffffffffffffffffffffffffffffffffffffffffffffffffffffffffff821415610b1c57610b1b610b27565b5b600182019050919050565b7f4e487b7100000000000000000000000000000000000000000000000000000000600052601160045260246000fd5b7f4e487b7100000000000000000000000000000000000000000000000000000000600052602160045260246000fd5b7f4e487b7100000000000000000000000000000000000000000000000000000000600052602260045260246000fd5b6000601f19601f8301169050919050565b7f5468697320697320697373756520697320636c6f7365642e2043616e6e6f742060008201527f776974686472617720616761696e2e0000000000000000000000000000000000602082015250565b7f4f6e6c792063616c6c61626c65206279204f70656e5120636f6e747261637400600082015250565b60028110610c4e57610c4d610b56565b5b50565b610c5a81610a0c565b8114610c6557600080fd5b50565b610c7181610a1e565b8114610c7c57600080fd5b50565b60028110610c8c57600080fd5b50565b610c9881610a5d565b8114610ca357600080fd5b5056fea264697066735822122075a25b01f045ca219b1c32c95e0e5a0dbae2213d2c4ae04a21c650321f24168b64736f6c63430008040033a2646970667358221220cbd31cf7bb3a2cf10783a0ebb5b2f4a234b14f97608186d72afee0f5990e5ad764736f6c63430008040033",
  "linkReferences": {},
  "deployedLinkReferences": {}
}