{
  "_format": "hh-sol-artifact-1",
  "contractName": "OpenQ",
  "sourceName": "contracts/OpenQ.sol",
  "abi": [
    {
      "anonymous": false,
      "inputs": [
        {
          "indexed": false,
          "internalType": "string",
          "name": "bountyId",
          "type": "string"
        },
        {
          "indexed": false,
          "internalType": "string",
          "name": "organization",
          "type": "string"
        },
        {
          "indexed": false,
          "internalType": "address",
          "name": "bountyAddress",
          "type": "address"
        },
        {
          "indexed": false,
          "internalType": "address",
          "name": "payoutAddress",
          "type": "address"
        },
        {
          "indexed": false,
          "internalType": "uint256",
          "name": "bountyClosedTime",
          "type": "uint256"
        }
      ],
      "name": "BountyClosed",
      "type": "event"
    },
    {
      "anonymous": false,
      "inputs": [
        {
          "indexed": false,
          "internalType": "string",
          "name": "bountyId",
          "type": "string"
        },
        {
          "indexed": false,
          "internalType": "string",
          "name": "organization",
          "type": "string"
        },
        {
          "indexed": false,
          "internalType": "address",
          "name": "issuerAddress",
          "type": "address"
        },
        {
          "indexed": false,
          "internalType": "address",
          "name": "bountyAddress",
          "type": "address"
        },
        {
          "indexed": false,
          "internalType": "uint256",
          "name": "bountyMintTime",
          "type": "uint256"
        }
      ],
      "name": "BountyCreated",
      "type": "event"
    },
    {
      "anonymous": false,
      "inputs": [
        {
          "indexed": false,
          "internalType": "string",
          "name": "bountyId",
          "type": "string"
        },
        {
          "indexed": false,
          "internalType": "string",
          "name": "organization",
          "type": "string"
        },
        {
          "indexed": false,
          "internalType": "address",
          "name": "bountyAddress",
          "type": "address"
        },
        {
          "indexed": false,
          "internalType": "address",
          "name": "tokenAddress",
          "type": "address"
        },
        {
          "indexed": false,
          "internalType": "address",
          "name": "payoutAddress",
          "type": "address"
        },
        {
          "indexed": false,
          "internalType": "uint256",
          "name": "volume",
          "type": "uint256"
        },
        {
          "indexed": false,
          "internalType": "uint256",
          "name": "payoutTime",
          "type": "uint256"
        }
      ],
      "name": "BountyPaidout",
      "type": "event"
    },
    {
      "anonymous": false,
      "inputs": [
        {
          "indexed": false,
          "internalType": "string",
          "name": "bountyId",
          "type": "string"
        },
        {
          "indexed": false,
          "internalType": "string",
          "name": "organization",
          "type": "string"
        },
        {
          "indexed": false,
          "internalType": "address",
          "name": "bountyAddress",
          "type": "address"
        },
        {
          "indexed": false,
          "internalType": "address",
          "name": "tokenAddress",
          "type": "address"
        },
        {
          "indexed": false,
          "internalType": "address",
          "name": "sender",
          "type": "address"
        },
        {
          "indexed": false,
          "internalType": "uint256",
          "name": "volume",
          "type": "uint256"
        },
        {
          "indexed": false,
          "internalType": "uint256",
          "name": "receiveTime",
          "type": "uint256"
        }
      ],
      "name": "DepositReceived",
      "type": "event"
    },
    {
      "anonymous": false,
      "inputs": [
        {
          "indexed": false,
          "internalType": "string",
          "name": "bountyId",
          "type": "string"
        },
        {
          "indexed": false,
          "internalType": "string",
          "name": "organization",
          "type": "string"
        },
        {
          "indexed": false,
          "internalType": "address",
          "name": "bountyAddress",
          "type": "address"
        },
        {
          "indexed": false,
          "internalType": "address",
          "name": "tokenAddress",
          "type": "address"
        },
        {
          "indexed": false,
          "internalType": "address",
          "name": "sender",
          "type": "address"
        },
        {
          "indexed": false,
          "internalType": "uint256",
          "name": "volume",
          "type": "uint256"
        },
        {
          "indexed": false,
          "internalType": "uint256",
          "name": "refundTime",
          "type": "uint256"
        }
      ],
      "name": "DepositRefunded",
      "type": "event"
    },
    {
      "anonymous": false,
      "inputs": [
        {
          "indexed": true,
          "internalType": "address",
          "name": "previousOwner",
          "type": "address"
        },
        {
          "indexed": true,
          "internalType": "address",
          "name": "newOwner",
          "type": "address"
        }
      ],
      "name": "OwnershipTransferred",
      "type": "event"
    },
    {
      "inputs": [
        {
          "internalType": "address",
          "name": "",
          "type": "address"
        }
      ],
      "name": "bountyAddressToBountyId",
      "outputs": [
        {
          "internalType": "string",
          "name": "",
          "type": "string"
        }
      ],
      "stateMutability": "view",
      "type": "function"
    },
    {
      "inputs": [
        {
          "internalType": "string",
          "name": "",
          "type": "string"
        }
      ],
      "name": "bountyIdToAddress",
      "outputs": [
        {
          "internalType": "address",
          "name": "",
          "type": "address"
        }
      ],
      "stateMutability": "view",
      "type": "function"
    },
    {
      "inputs": [
        {
          "internalType": "string",
          "name": "id_",
          "type": "string"
        }
      ],
      "name": "bountyIsOpen",
      "outputs": [
        {
          "internalType": "bool",
          "name": "",
          "type": "bool"
        }
      ],
      "stateMutability": "view",
      "type": "function"
    },
    {
      "inputs": [
        {
          "internalType": "string",
          "name": "_id",
          "type": "string"
        },
        {
          "internalType": "address",
          "name": "_payoutAddress",
          "type": "address"
        }
      ],
      "name": "claimBounty",
      "outputs": [],
      "stateMutability": "nonpayable",
      "type": "function"
    },
    {
      "inputs": [
        {
          "internalType": "address",
          "name": "_bountyAddress",
          "type": "address"
        },
        {
          "internalType": "address",
          "name": "_tokenAddress",
          "type": "address"
        },
        {
          "internalType": "uint256",
          "name": "_volume",
          "type": "uint256"
        }
      ],
      "name": "fundBounty",
      "outputs": [
        {
          "internalType": "bool",
          "name": "success",
          "type": "bool"
        }
      ],
      "stateMutability": "nonpayable",
      "type": "function"
    },
    {
      "inputs": [
        {
          "internalType": "string",
          "name": "_id",
          "type": "string"
        }
      ],
      "name": "getBountyAddress",
      "outputs": [
        {
          "internalType": "address",
          "name": "",
          "type": "address"
        }
      ],
      "stateMutability": "view",
      "type": "function"
    },
    {
      "inputs": [
        {
          "internalType": "string",
          "name": "_id",
          "type": "string"
        },
        {
          "internalType": "string",
          "name": "_organization",
          "type": "string"
        }
      ],
      "name": "mintBounty",
      "outputs": [
        {
          "internalType": "address",
          "name": "bountyAddress",
          "type": "address"
        }
      ],
      "stateMutability": "nonpayable",
      "type": "function"
    },
    {
      "inputs": [],
      "name": "owner",
      "outputs": [
        {
          "internalType": "address",
          "name": "",
          "type": "address"
        }
      ],
      "stateMutability": "view",
      "type": "function"
    },
    {
      "inputs": [
        {
          "internalType": "address",
          "name": "_bountyAddress",
          "type": "address"
        }
      ],
      "name": "refundBountyDeposits",
      "outputs": [
        {
          "internalType": "bool",
          "name": "success",
          "type": "bool"
        }
      ],
      "stateMutability": "nonpayable",
      "type": "function"
    },
    {
      "inputs": [],
      "name": "renounceOwnership",
      "outputs": [],
      "stateMutability": "nonpayable",
      "type": "function"
    },
    {
      "inputs": [
        {
          "internalType": "address",
          "name": "newOwner",
          "type": "address"
        }
      ],
      "name": "transferOwnership",
      "outputs": [],
      "stateMutability": "nonpayable",
      "type": "function"
    }
  ],
  "bytecode": "0x60806040523480156200001157600080fd5b5062000032620000266200003860201b60201c565b6200004060201b60201c565b62000104565b600033905090565b60008060009054906101000a900473ffffffffffffffffffffffffffffffffffffffff169050816000806101000a81548173ffffffffffffffffffffffffffffffffffffffff021916908373ffffffffffffffffffffffffffffffffffffffff1602179055508173ffffffffffffffffffffffffffffffffffffffff168173ffffffffffffffffffffffffffffffffffffffff167f8be0079c531659141344cd1fd0a4f28419497f9722a3daafe3b4186f6b6457e060405160405180910390a35050565b61593f80620001146000396000f3fe60806040523480156200001157600080fd5b5060043610620000b85760003560e01c806348bd1e99116200007b57806348bd1e9914620001b5578063715018a614620001eb5780638da5cb5b14620001f7578063f2fde38b1462000219578063fcedbecf1462000239578063fd1b2e3f146200026f57620000b8565b806310fd86c814620000bd5780631b78031214620000f35780631b967a1914620001295780631ee290fb146200015f5780633e7da1a91462000195575b600080fd5b620000db6004803603810190620000d5919062001bf3565b620002a5565b604051620000ea919062001cc9565b60405180910390f35b6200011160048036038101906200010b919062001bf3565b6200034d565b60405162000120919062001d0a565b60405180910390f35b62000147600480360381019062000141919062001d62565b62000a2c565b60405162000156919062001d0a565b60405180910390f35b6200017d600480360381019062000177919062001e2c565b62000d93565b6040516200018c919062001ecb565b60405180910390f35b620001b36004803603810190620001ad919062001ee8565b62000f8a565b005b620001d36004803603810190620001cd91906200209e565b6200164c565b604051620001e2919062001ecb565b60405180910390f35b620001f562001695565b005b6200020162001726565b60405162000210919062001ecb565b60405180910390f35b62000237600480360381019062000231919062001bf3565b6200174f565b005b620002576004803603810190620002519190620020ef565b62001853565b60405162000266919062001ecb565b60405180910390f35b6200028d60048036038101906200028791906200209e565b620018a0565b6040516200029c919062001d0a565b60405180910390f35b60026020528060005260406000206000915090508054620002c69062002173565b80601f0160208091040260200160405190810160405280929190818152602001828054620002f49062002173565b8015620003455780601f10620003195761010080835404028352916020019162000345565b820191906000526020600020905b8154815290600101906020018083116200032757829003601f168201915b505050505081565b60008082905060011515620003e88273ffffffffffffffffffffffffffffffffffffffff1663c17bd75e6040518163ffffffff1660e01b815260040160006040518083038186803b158015620003a257600080fd5b505afa158015620003b7573d6000803e3d6000fd5b505050506040513d6000823e3d601f19601f82011682018060405250810190620003e2919062002227565b620018a0565b1515146200042d576040517f08c379a00000000000000000000000000000000000000000000000000000000081526004016200042490620022ee565b60405180910390fd5b8073ffffffffffffffffffffffffffffffffffffffff1663f16b51c16040518163ffffffff1660e01b815260040160206040518083038186803b1580156200047457600080fd5b505afa15801562000489573d6000803e3d6000fd5b505050506040513d601f19601f82011682018060405250810190620004af919062002327565b8173ffffffffffffffffffffffffffffffffffffffff1663995280b06040518163ffffffff1660e01b815260040160206040518083038186803b158015620004f657600080fd5b505afa1580156200050b573d6000803e3d6000fd5b505050506040513d601f19601f8201168201806040525081019062000531919062002327565b6200053d919062002388565b42101562000582576040517f08c379a0000000000000000000000000000000000000000000000000000000008152600401620005799062002435565b60405180910390fd5b600115158173ffffffffffffffffffffffffffffffffffffffff1663b0100cf7336040518263ffffffff1660e01b8152600401620005c1919062001ecb565b60206040518083038186803b158015620005da57600080fd5b505afa158015620005ef573d6000803e3d6000fd5b505050506040513d601f19601f8201168201806040525081019062000615919062002488565b1515146200065a576040517f08c379a0000000000000000000000000000000000000000000000000000000008152600401620006519062002530565b60405180910390fd5b60005b8173ffffffffffffffffffffffffffffffffffffffff16631bef5505336040518263ffffffff1660e01b815260040162000698919062001ecb565b60006040518083038186803b158015620006b157600080fd5b505afa158015620006c6573d6000803e3d6000fd5b505050506040513d6000823e3d601f19601f82011682018060405250810190620006f191906200263f565b5181101562000a215760008273ffffffffffffffffffffffffffffffffffffffff16634b8022b233846040518363ffffffff1660e01b815260040162000739929190620026a1565b60206040518083038186803b1580156200075257600080fd5b505afa15801562000767573d6000803e3d6000fd5b505050506040513d601f19601f820116820180604052508101906200078d9190620026ce565b905060008373ffffffffffffffffffffffffffffffffffffffff16636216753b33846040518363ffffffff1660e01b8152600401620007ce92919062002700565b60206040518083038186803b158015620007e757600080fd5b505afa158015620007fc573d6000803e3d6000fd5b505050506040513d601f19601f8201168201806040525081019062000822919062002327565b90508373ffffffffffffffffffffffffffffffffffffffff166329ffef1533846040518363ffffffff1660e01b81526004016200086192919062002700565b602060405180830381600087803b1580156200087c57600080fd5b505af115801562000891573d6000803e3d6000fd5b505050506040513d601f19601f82011682018060405250810190620008b7919062002488565b507f4211ead49bf362672e4351d6e542f467b16d61128c523d3a6710cd20a89a894b8473ffffffffffffffffffffffffffffffffffffffff1663c17bd75e6040518163ffffffff1660e01b815260040160006040518083038186803b1580156200092057600080fd5b505afa15801562000935573d6000803e3d6000fd5b505050506040513d6000823e3d601f19601f8201168201806040525081019062000960919062002227565b8573ffffffffffffffffffffffffffffffffffffffff166323bd4d7a6040518163ffffffff1660e01b815260040160006040518083038186803b158015620009a757600080fd5b505afa158015620009bc573d6000803e3d6000fd5b505050506040513d6000823e3d601f19601f82011682018060405250810190620009e7919062002227565b888533864260405162000a0197969594939291906200272d565b60405180910390a15050808062000a1890620027b8565b9150506200065d565b506001915050919050565b6000808490506001151562000ac78273ffffffffffffffffffffffffffffffffffffffff1663c17bd75e6040518163ffffffff1660e01b815260040160006040518083038186803b15801562000a8157600080fd5b505afa15801562000a96573d6000803e3d6000fd5b505050506040513d6000823e3d601f19601f8201168201806040525081019062000ac1919062002227565b620018a0565b15151462000b0c576040517f08c379a000000000000000000000000000000000000000000000000000000000815260040162000b0390620022ee565b60405180910390fd5b6000600260008773ffffffffffffffffffffffffffffffffffffffff1673ffffffffffffffffffffffffffffffffffffffff168152602001908152602001600020805462000b5a9062002173565b9050141562000ba0576040517f08c379a000000000000000000000000000000000000000000000000000000000815260040162000b97906200287c565b60405180910390fd5b8073ffffffffffffffffffffffffffffffffffffffff1663b9df819f3386866040518463ffffffff1660e01b815260040162000bdf939291906200289e565b602060405180830381600087803b15801562000bfa57600080fd5b505af115801562000c0f573d6000803e3d6000fd5b505050506040513d601f19601f8201168201806040525081019062000c35919062002488565b507f3349ee137a7ac00a8441ce0944c2afba5d9be645f5f7be945ec0760dd68431ad8173ffffffffffffffffffffffffffffffffffffffff1663c17bd75e6040518163ffffffff1660e01b815260040160006040518083038186803b15801562000c9e57600080fd5b505afa15801562000cb3573d6000803e3d6000fd5b505050506040513d6000823e3d601f19601f8201168201806040525081019062000cde919062002227565b8273ffffffffffffffffffffffffffffffffffffffff166323bd4d7a6040518163ffffffff1660e01b815260040160006040518083038186803b15801562000d2557600080fd5b505afa15801562000d3a573d6000803e3d6000fd5b505050506040513d6000823e3d601f19601f8201168201806040525081019062000d65919062002227565b878733884260405162000d7f97969594939291906200272d565b60405180910390a160019150509392505050565b60008073ffffffffffffffffffffffffffffffffffffffff166001868660405162000dc09291906200290f565b908152602001604051809103902060009054906101000a900473ffffffffffffffffffffffffffffffffffffffff1673ffffffffffffffffffffffffffffffffffffffff161462000e48576040517f08c379a000000000000000000000000000000000000000000000000000000000815260040162000e3f90620029ec565b60405180910390fd5b848433858560405162000e5b9062001abc565b62000e6b95949392919062002a41565b604051809103906000f08015801562000e88573d6000803e3d6000fd5b509050806001868660405162000ea09291906200290f565b908152602001604051809103902060006101000a81548173ffffffffffffffffffffffffffffffffffffffff021916908373ffffffffffffffffffffffffffffffffffffffff1602179055508484600260008473ffffffffffffffffffffffffffffffffffffffff1673ffffffffffffffffffffffffffffffffffffffff168152602001908152602001600020919062000f3c92919062001aca565b507f9b4ec425461e6b6e22c6b5a40c3fba7c8200dbc1832b92910140d4311872c1398585858533864260405162000f7a979695949392919062002a90565b60405180910390a1949350505050565b62000f94620019f0565b73ffffffffffffffffffffffffffffffffffffffff1662000fb462001726565b73ffffffffffffffffffffffffffffffffffffffff16146200100d576040517f08c379a0000000000000000000000000000000000000000000000000000000008152600401620010049062002b4f565b60405180910390fd5b600060018484604051620010239291906200290f565b908152602001604051809103902060009054906101000a900473ffffffffffffffffffffffffffffffffffffffff169050600081905060011515620010ee8273ffffffffffffffffffffffffffffffffffffffff1663c17bd75e6040518163ffffffff1660e01b815260040160006040518083038186803b158015620010a857600080fd5b505afa158015620010bd573d6000803e3d6000fd5b505050506040513d6000823e3d601f19601f82011682018060405250810190620010e8919062002227565b620018a0565b15151462001133576040517f08c379a00000000000000000000000000000000000000000000000000000000081526004016200112a9062002be7565b60405180910390fd5b60005b8173ffffffffffffffffffffffffffffffffffffffff1663fc5d2cf46040518163ffffffff1660e01b815260040160006040518083038186803b1580156200117d57600080fd5b505afa15801562001192573d6000803e3d6000fd5b505050506040513d6000823e3d601f19601f82011682018060405250810190620011bd91906200263f565b51811015620014e95760008273ffffffffffffffffffffffffffffffffffffffff1663df9229f0836040518263ffffffff1660e01b815260040162001203919062002c09565b60206040518083038186803b1580156200121c57600080fd5b505afa15801562001231573d6000803e3d6000fd5b505050506040513d601f19601f82011682018060405250810190620012579190620026ce565b905060008373ffffffffffffffffffffffffffffffffffffffff1663b588d225836040518263ffffffff1660e01b815260040162001296919062001ecb565b60206040518083038186803b158015620012af57600080fd5b505afa158015620012c4573d6000803e3d6000fd5b505050506040513d601f19601f82011682018060405250810190620012ea919062002327565b90508373ffffffffffffffffffffffffffffffffffffffff166321c0b34287846040518363ffffffff1660e01b81526004016200132992919062002700565b602060405180830381600087803b1580156200134457600080fd5b505af115801562001359573d6000803e3d6000fd5b505050506040513d601f19601f820116820180604052508101906200137f919062002488565b507f115a7a7d5f5cacec69cd610a9eeededb99e12dea6cb7f441fd372ebc0a4519f78473ffffffffffffffffffffffffffffffffffffffff1663c17bd75e6040518163ffffffff1660e01b815260040160006040518083038186803b158015620013e857600080fd5b505afa158015620013fd573d6000803e3d6000fd5b505050506040513d6000823e3d601f19601f8201168201806040525081019062001428919062002227565b8573ffffffffffffffffffffffffffffffffffffffff166323bd4d7a6040518163ffffffff1660e01b815260040160006040518083038186803b1580156200146f57600080fd5b505afa15801562001484573d6000803e3d6000fd5b505050506040513d6000823e3d601f19601f82011682018060405250810190620014af919062002227565b87858a8642604051620014c997969594939291906200272d565b60405180910390a150508080620014e090620027b8565b91505062001136565b508073ffffffffffffffffffffffffffffffffffffffff1663ec05635c846040518263ffffffff1660e01b815260040162001525919062001ecb565b602060405180830381600087803b1580156200154057600080fd5b505af115801562001555573d6000803e3d6000fd5b505050506040513d601f19601f820116820180604052508101906200157b919062002488565b507fd03054905e687534a4568646abd4d931cedd194fe3ab9aa9a91be330968dfbd785858373ffffffffffffffffffffffffffffffffffffffff166323bd4d7a6040518163ffffffff1660e01b815260040160006040518083038186803b158015620015e657600080fd5b505afa158015620015fb573d6000803e3d6000fd5b505050506040513d6000823e3d601f19601f8201168201806040525081019062001626919062002227565b8587426040516200163d9695949392919062002c26565b60405180910390a15050505050565b6001818051602081018201805184825260208301602085012081835280955050505050506000915054906101000a900473ffffffffffffffffffffffffffffffffffffffff1681565b6200169f620019f0565b73ffffffffffffffffffffffffffffffffffffffff16620016bf62001726565b73ffffffffffffffffffffffffffffffffffffffff161462001718576040517f08c379a00000000000000000000000000000000000000000000000000000000081526004016200170f9062002b4f565b60405180910390fd5b620017246000620019f8565b565b60008060009054906101000a900473ffffffffffffffffffffffffffffffffffffffff16905090565b62001759620019f0565b73ffffffffffffffffffffffffffffffffffffffff166200177962001726565b73ffffffffffffffffffffffffffffffffffffffff1614620017d2576040517f08c379a0000000000000000000000000000000000000000000000000000000008152600401620017c99062002b4f565b60405180910390fd5b600073ffffffffffffffffffffffffffffffffffffffff168173ffffffffffffffffffffffffffffffffffffffff16141562001845576040517f08c379a00000000000000000000000000000000000000000000000000000000081526004016200183c9062002d09565b60405180910390fd5b6200185081620019f8565b50565b600060018383604051620018699291906200290f565b908152602001604051809103902060009054906101000a900473ffffffffffffffffffffffffffffffffffffffff16905092915050565b6000803073ffffffffffffffffffffffffffffffffffffffff166348bd1e99846040518263ffffffff1660e01b8152600401620018de919062001cc9565b60206040518083038186803b158015620018f757600080fd5b505afa1580156200190c573d6000803e3d6000fd5b505050506040513d601f19601f82011682018060405250810190620019329190620026ce565b905060008060018111156200194c576200194b62002d2b565b5b8273ffffffffffffffffffffffffffffffffffffffff1663200d2ed26040518163ffffffff1660e01b815260040160206040518083038186803b1580156200199357600080fd5b505afa158015620019a8573d6000803e3d6000fd5b505050506040513d601f19601f82011682018060405250810190620019ce919062002d82565b6001811115620019e357620019e262002d2b565b5b1490508092505050919050565b600033905090565b60008060009054906101000a900473ffffffffffffffffffffffffffffffffffffffff169050816000806101000a81548173ffffffffffffffffffffffffffffffffffffffff021916908373ffffffffffffffffffffffffffffffffffffffff1602179055508173ffffffffffffffffffffffffffffffffffffffff168173ffffffffffffffffffffffffffffffffffffffff167f8be0079c531659141344cd1fd0a4f28419497f9722a3daafe3b4186f6b6457e060405160405180910390a35050565b612b558062002db583390190565b82805462001ad89062002173565b90600052602060002090601f01602090048101928262001afc576000855562001b48565b82601f1062001b1757803560ff191683800117855562001b48565b8280016001018555821562001b48579182015b8281111562001b4757823582559160200191906001019062001b2a565b5b50905062001b57919062001b5b565b5090565b5b8082111562001b7657600081600090555060010162001b5c565b5090565b6000604051905090565b600080fd5b600080fd5b600073ffffffffffffffffffffffffffffffffffffffff82169050919050565b600062001bbb8262001b8e565b9050919050565b62001bcd8162001bae565b811462001bd957600080fd5b50565b60008135905062001bed8162001bc2565b92915050565b60006020828403121562001c0c5762001c0b62001b84565b5b600062001c1c8482850162001bdc565b91505092915050565b600081519050919050565b600082825260208201905092915050565b60005b8381101562001c6157808201518184015260208101905062001c44565b8381111562001c71576000848401525b50505050565b6000601f19601f8301169050919050565b600062001c958262001c25565b62001ca1818562001c30565b935062001cb381856020860162001c41565b62001cbe8162001c77565b840191505092915050565b6000602082019050818103600083015262001ce5818462001c88565b905092915050565b60008115159050919050565b62001d048162001ced565b82525050565b600060208201905062001d21600083018462001cf9565b92915050565b6000819050919050565b62001d3c8162001d27565b811462001d4857600080fd5b50565b60008135905062001d5c8162001d31565b92915050565b60008060006060848603121562001d7e5762001d7d62001b84565b5b600062001d8e8682870162001bdc565b935050602062001da18682870162001bdc565b925050604062001db48682870162001d4b565b9150509250925092565b600080fd5b600080fd5b600080fd5b60008083601f84011262001de65762001de562001dbe565b5b8235905067ffffffffffffffff81111562001e065762001e0562001dc3565b5b60208301915083600182028301111562001e255762001e2462001dc8565b5b9250929050565b6000806000806040858703121562001e495762001e4862001b84565b5b600085013567ffffffffffffffff81111562001e6a5762001e6962001b89565b5b62001e788782880162001dcd565b9450945050602085013567ffffffffffffffff81111562001e9e5762001e9d62001b89565b5b62001eac8782880162001dcd565b925092505092959194509250565b62001ec58162001bae565b82525050565b600060208201905062001ee2600083018462001eba565b92915050565b60008060006040848603121562001f045762001f0362001b84565b5b600084013567ffffffffffffffff81111562001f255762001f2462001b89565b5b62001f338682870162001dcd565b9350935050602062001f488682870162001bdc565b9150509250925092565b600080fd5b7f4e487b7100000000000000000000000000000000000000000000000000000000600052604160045260246000fd5b62001f918262001c77565b810181811067ffffffffffffffff8211171562001fb35762001fb262001f57565b5b80604052505050565b600062001fc862001b7a565b905062001fd6828262001f86565b919050565b600067ffffffffffffffff82111562001ff95762001ff862001f57565b5b620020048262001c77565b9050602081019050919050565b82818337600083830152505050565b600062002037620020318462001fdb565b62001fbc565b90508281526020810184848401111562002056576200205562001f52565b5b6200206384828562002011565b509392505050565b600082601f83011262002083576200208262001dbe565b5b81356200209584826020860162002020565b91505092915050565b600060208284031215620020b757620020b662001b84565b5b600082013567ffffffffffffffff811115620020d857620020d762001b89565b5b620020e6848285016200206b565b91505092915050565b6000806020838503121562002109576200210862001b84565b5b600083013567ffffffffffffffff8111156200212a576200212962001b89565b5b620021388582860162001dcd565b92509250509250929050565b7f4e487b7100000000000000000000000000000000000000000000000000000000600052602260045260246000fd5b600060028204905060018216806200218c57607f821691505b60208210811415620021a357620021a262002144565b5b50919050565b6000620021c0620021ba8462001fdb565b62001fbc565b905082815260208101848484011115620021df57620021de62001f52565b5b620021ec84828562001c41565b509392505050565b600082601f8301126200220c576200220b62001dbe565b5b81516200221e848260208601620021a9565b91505092915050565b60006020828403121562002240576200223f62001b84565b5b600082015167ffffffffffffffff81111562002261576200226062001b89565b5b6200226f84828501620021f4565b91505092915050565b7f43616e6e6f74207265717565737420726566756e64206f6e206120636c6f736560008201527f6420626f756e7479000000000000000000000000000000000000000000000000602082015250565b6000620022d660288362001c30565b9150620022e38262002278565b604082019050919050565b600060208201905081810360008301526200230981620022c7565b9050919050565b600081519050620023218162001d31565b92915050565b60006020828403121562002340576200233f62001b84565b5b6000620023508482850162002310565b91505092915050565b7f4e487b7100000000000000000000000000000000000000000000000000000000600052601160045260246000fd5b6000620023958262001d27565b9150620023a28362001d27565b9250827fffffffffffffffffffffffffffffffffffffffffffffffffffffffffffffffff03821115620023da57620023d962002359565b5b828201905092915050565b7f546f6f206561726c7920746f2077697468647261772066756e64730000000000600082015250565b60006200241d601b8362001c30565b91506200242a82620023e5565b602082019050919050565b6000602082019050818103600083015262002450816200240e565b9050919050565b620024628162001ced565b81146200246e57600080fd5b50565b600081519050620024828162002457565b92915050565b600060208284031215620024a157620024a062001b84565b5b6000620024b18482850162002471565b91505092915050565b7f4f6e6c792066756e64657273206f66207468697320626f756e74792063616e2060008201527f7265636c61696d2066756e647320616674657220333020646179732e00000000602082015250565b600062002518603c8362001c30565b91506200252582620024ba565b604082019050919050565b600060208201905081810360008301526200254b8162002509565b9050919050565b600067ffffffffffffffff82111562002570576200256f62001f57565b5b602082029050602081019050919050565b600081519050620025928162001bc2565b92915050565b6000620025af620025a98462002552565b62001fbc565b90508083825260208201905060208402830185811115620025d557620025d462001dc8565b5b835b81811015620026025780620025ed888262002581565b845260208401935050602081019050620025d7565b5050509392505050565b600082601f83011262002624576200262362001dbe565b5b81516200263684826020860162002598565b91505092915050565b60006020828403121562002658576200265762001b84565b5b600082015167ffffffffffffffff81111562002679576200267862001b89565b5b62002687848285016200260c565b91505092915050565b6200269b8162001d27565b82525050565b6000604082019050620026b8600083018562001eba565b620026c7602083018462002690565b9392505050565b600060208284031215620026e757620026e662001b84565b5b6000620026f78482850162002581565b91505092915050565b600060408201905062002717600083018562001eba565b62002726602083018462001eba565b9392505050565b600060e082019050818103600083015262002749818a62001c88565b905081810360208301526200275f818962001c88565b905062002770604083018862001eba565b6200277f606083018762001eba565b6200278e608083018662001eba565b6200279d60a083018562002690565b620027ac60c083018462002690565b98975050505050505050565b6000620027c58262001d27565b91507fffffffffffffffffffffffffffffffffffffffffffffffffffffffffffffffff821415620027fb57620027fa62002359565b5b600182019050919050565b7f417474656d7074696e6720746f2066756e64206120626f756e7479207468617460008201527f20646f6573206e6f742065786973742e00000000000000000000000000000000602082015250565b60006200286460308362001c30565b9150620028718262002806565b604082019050919050565b60006020820190508181036000830152620028978162002855565b9050919050565b6000606082019050620028b5600083018662001eba565b620028c4602083018562001eba565b620028d3604083018462002690565b949350505050565b600081905092915050565b6000620028f48385620028db565b93506200290383858462002011565b82840190509392505050565b60006200291e828486620028e6565b91508190509392505050565b7f426f756e747920616c72656164792065786973747320666f7220676976656e2060008201527f69642e2046696e642069747320616464726573732062792063616c6c696e672060208201527f626f756e74794964546f41646472657373206f6e207468697320636f6e74726160408201527f637420776974682074686520626f756e74794964000000000000000000000000606082015250565b6000620029d460748362001c30565b9150620029e1826200292a565b608082019050919050565b6000602082019050818103600083015262002a0781620029c5565b9050919050565b600062002a1c838562001c30565b935062002a2b83858462002011565b62002a368362001c77565b840190509392505050565b6000606082019050818103600083015262002a5e81878962002a0e565b905062002a6f602083018662001eba565b818103604083015262002a8481848662002a0e565b90509695505050505050565b600060a082019050818103600083015262002aad81898b62002a0e565b9050818103602083015262002ac481878962002a0e565b905062002ad5604083018662001eba565b62002ae4606083018562001eba565b62002af3608083018462002690565b98975050505050505050565b7f4f776e61626c653a2063616c6c6572206973206e6f7420746865206f776e6572600082015250565b600062002b3760208362001c30565b915062002b448262002aff565b602082019050919050565b6000602082019050818103600083015262002b6a8162002b28565b9050919050565b7f43616e6e6f7420636c61696d206120626f756e7479207468617420697320616c60008201527f726561647920636c6f7365642e00000000000000000000000000000000000000602082015250565b600062002bcf602d8362001c30565b915062002bdc8262002b71565b604082019050919050565b6000602082019050818103600083015262002c028162002bc0565b9050919050565b600060208201905062002c20600083018462002690565b92915050565b600060a082019050818103600083015262002c4381888a62002a0e565b9050818103602083015262002c59818762001c88565b905062002c6a604083018662001eba565b62002c79606083018562001eba565b62002c88608083018462002690565b979650505050505050565b7f4f776e61626c653a206e6577206f776e657220697320746865207a65726f206160008201527f6464726573730000000000000000000000000000000000000000000000000000602082015250565b600062002cf160268362001c30565b915062002cfe8262002c93565b604082019050919050565b6000602082019050818103600083015262002d248162002ce2565b9050919050565b7f4e487b7100000000000000000000000000000000000000000000000000000000600052602160045260246000fd5b6002811062002d6857600080fd5b50565b60008151905062002d7c8162002d5a565b92915050565b60006020828403121562002d9b5762002d9a62001b84565b5b600062002dab8482850162002d6b565b9150509291505056fe60806040524260075562278d006009553480156200001c57600080fd5b5060405162002b5538038062002b5583398181016040528101906200004291906200059d565b82828262000065620000596200012360201b60201c565b6200012b60201b60201c565b82600690805190602001906200007d929190620002eb565b506000600c60146101000a81548160ff02191690836001811115620000a757620000a662000637565b5b021790555081600a60006101000a81548173ffffffffffffffffffffffffffffffffffffffff021916908373ffffffffffffffffffffffffffffffffffffffff16021790555080600b908051906020019062000105929190620002eb565b506200011733620001ef60201b60201c565b5050505050506200074e565b600033905090565b60008060009054906101000a900473ffffffffffffffffffffffffffffffffffffffff169050816000806101000a81548173ffffffffffffffffffffffffffffffffffffffff021916908373ffffffffffffffffffffffffffffffffffffffff1602179055508173ffffffffffffffffffffffffffffffffffffffff168173ffffffffffffffffffffffffffffffffffffffff167f8be0079c531659141344cd1fd0a4f28419497f9722a3daafe3b4186f6b6457e060405160405180910390a35050565b620001ff6200012360201b60201c565b73ffffffffffffffffffffffffffffffffffffffff1662000225620002c260201b60201c565b73ffffffffffffffffffffffffffffffffffffffff16146200027e576040517f08c379a00000000000000000000000000000000000000000000000000000000081526004016200027590620006c7565b60405180910390fd5b80600160006101000a81548173ffffffffffffffffffffffffffffffffffffffff021916908373ffffffffffffffffffffffffffffffffffffffff16021790555050565b60008060009054906101000a900473ffffffffffffffffffffffffffffffffffffffff16905090565b828054620002f99062000718565b90600052602060002090601f0160209004810192826200031d576000855562000369565b82601f106200033857805160ff191683800117855562000369565b8280016001018555821562000369579182015b82811115620003685782518255916020019190600101906200034b565b5b5090506200037891906200037c565b5090565b5b80821115620003975760008160009055506001016200037d565b5090565b6000604051905090565b600080fd5b600080fd5b600080fd5b600080fd5b6000601f19601f8301169050919050565b7f4e487b7100000000000000000000000000000000000000000000000000000000600052604160045260246000fd5b6200040482620003b9565b810181811067ffffffffffffffff82111715620004265762000425620003ca565b5b80604052505050565b60006200043b6200039b565b9050620004498282620003f9565b919050565b600067ffffffffffffffff8211156200046c576200046b620003ca565b5b6200047782620003b9565b9050602081019050919050565b60005b83811015620004a457808201518184015260208101905062000487565b83811115620004b4576000848401525b50505050565b6000620004d1620004cb846200044e565b6200042f565b905082815260208101848484011115620004f057620004ef620003b4565b5b620004fd84828562000484565b509392505050565b600082601f8301126200051d576200051c620003af565b5b81516200052f848260208601620004ba565b91505092915050565b600073ffffffffffffffffffffffffffffffffffffffff82169050919050565b6000620005658262000538565b9050919050565b620005778162000558565b81146200058357600080fd5b50565b60008151905062000597816200056c565b92915050565b600080600060608486031215620005b957620005b8620003a5565b5b600084015167ffffffffffffffff811115620005da57620005d9620003aa565b5b620005e88682870162000505565b9350506020620005fb8682870162000586565b925050604084015167ffffffffffffffff8111156200061f576200061e620003aa565b5b6200062d8682870162000505565b9150509250925092565b7f4e487b7100000000000000000000000000000000000000000000000000000000600052602160045260246000fd5b600082825260208201905092915050565b7f4f776e61626c653a2063616c6c6572206973206e6f7420746865206f776e6572600082015250565b6000620006af60208362000666565b9150620006bc8262000677565b602082019050919050565b60006020820190508181036000830152620006e281620006a0565b9050919050565b7f4e487b7100000000000000000000000000000000000000000000000000000000600052602260045260246000fd5b600060028204905060018216806200073157607f821691505b60208210811415620007485762000747620006e9565b5b50919050565b6123f7806200075e6000396000f3fe608060405234801561001057600080fd5b506004361061015c5760003560e01c8063995280b0116100c3578063df9229f01161007c578063df9229f0146103fa578063ec05635c1461042a578063f16b51c11461045a578063f2fde38b14610478578063fc5d2cf414610494578063fdf993a8146104b25761015d565b8063995280b014610310578063b0100cf71461032e578063b588d2251461035e578063b9df819f1461038e578063c17bd75e146103be578063cb4436b7146103dc5761015d565b80634b8022b2116101155780634b8022b21461024c5780636216753b1461027c5780637044f282146102ac578063715018a6146102ca5780637dc81fa2146102d45780638da5cb5b146102f25761015d565b80631bef5505146101625780631d14384814610192578063200d2ed2146101b057806321c0b342146101ce57806323bd4d7a146101fe57806329ffef151461021c5761015d565b5b600080fd5b61017c60048036038101906101779190611878565b6104ce565b6040516101899190611963565b60405180910390f35b61019a61059b565b6040516101a79190611994565b60405180910390f35b6101b86105c1565b6040516101c59190611a26565b60405180910390f35b6101e860048036038101906101e39190611a41565b6105d4565b6040516101f59190611a9c565b60405180910390f35b61020661076d565b6040516102139190611b50565b60405180910390f35b61023660048036038101906102319190611a41565b6107fb565b6040516102439190611a9c565b60405180910390f35b61026660048036038101906102619190611ba8565b610a2d565b6040516102739190611994565b60405180910390f35b61029660048036038101906102919190611a41565b610a7b565b6040516102a39190611bf7565b60405180910390f35b6102b4610aa0565b6040516102c19190611994565b60405180910390f35b6102d2610ac6565b005b6102dc610b4e565b6040516102e99190611994565b60405180910390f35b6102fa610b74565b6040516103079190611994565b60405180910390f35b610318610b9d565b6040516103259190611bf7565b60405180910390f35b61034860048036038101906103439190611878565b610ba3565b6040516103559190611a9c565b60405180910390f35b61037860048036038101906103739190611878565b610bc3565b6040516103859190611bf7565b60405180910390f35b6103a860048036038101906103a39190611c12565b610c5a565b6040516103b59190611a9c565b60405180910390f35b6103c6610fc9565b6040516103d39190611b50565b60405180910390f35b6103e4611057565b6040516103f19190611bf7565b60405180910390f35b610414600480360381019061040f9190611c65565b61105d565b6040516104219190611994565b60405180910390f35b610444600480360381019061043f9190611878565b61109c565b6040516104519190611a9c565b60405180910390f35b61046261128e565b60405161046f9190611bf7565b60405180910390f35b610492600480360381019061048d9190611878565b611294565b005b61049c61138c565b6040516104a99190611963565b60405180910390f35b6104cc60048036038101906104c79190611878565b61141a565b005b6060600360008373ffffffffffffffffffffffffffffffffffffffff1673ffffffffffffffffffffffffffffffffffffffff16815260200190815260200160002080548060200260200160405190810160405280929190818152602001828054801561058f57602002820191906000526020600020905b8160009054906101000a900473ffffffffffffffffffffffffffffffffffffffff1673ffffffffffffffffffffffffffffffffffffffff1681526020019060010190808311610545575b50505050509050919050565b600a60009054906101000a900473ffffffffffffffffffffffffffffffffffffffff1681565b600c60149054906101000a900460ff1681565b6000600160009054906101000a900473ffffffffffffffffffffffffffffffffffffffff1673ffffffffffffffffffffffffffffffffffffffff163373ffffffffffffffffffffffffffffffffffffffff1614610666576040517f08c379a000000000000000000000000000000000000000000000000000000000815260040161065d90611d04565b60405180910390fd5b6000600181111561067a576106796119af565b5b3073ffffffffffffffffffffffffffffffffffffffff1663200d2ed26040518163ffffffff1660e01b815260040160206040518083038186803b1580156106c057600080fd5b505afa1580156106d4573d6000803e3d6000fd5b505050506040513d601f19601f820116820180604052508101906106f89190611d49565b600181111561070a576107096119af565b5b1461074a576040517f08c379a000000000000000000000000000000000000000000000000000000000815260040161074190611de8565b60405180910390fd5b600061075583610bc3565b90506107628385836114da565b600191505092915050565b600b805461077a90611e37565b80601f01602080910402602001604051908101604052809291908181526020018280546107a690611e37565b80156107f35780601f106107c8576101008083540402835291602001916107f3565b820191906000526020600020905b8154815290600101906020018083116107d657829003601f168201915b505050505081565b6000600160009054906101000a900473ffffffffffffffffffffffffffffffffffffffff1673ffffffffffffffffffffffffffffffffffffffff163373ffffffffffffffffffffffffffffffffffffffff161461088d576040517f08c379a000000000000000000000000000000000000000000000000000000000815260040161088490611d04565b60405180910390fd5b6109148284600460008773ffffffffffffffffffffffffffffffffffffffff1673ffffffffffffffffffffffffffffffffffffffff16815260200190815260200160002060008673ffffffffffffffffffffffffffffffffffffffff1673ffffffffffffffffffffffffffffffffffffffff168152602001908152602001600020546114da565b600460008473ffffffffffffffffffffffffffffffffffffffff1673ffffffffffffffffffffffffffffffffffffffff16815260200190815260200160002060008373ffffffffffffffffffffffffffffffffffffffff1673ffffffffffffffffffffffffffffffffffffffff16815260200190815260200160002054600460008573ffffffffffffffffffffffffffffffffffffffff1673ffffffffffffffffffffffffffffffffffffffff16815260200190815260200160002060008473ffffffffffffffffffffffffffffffffffffffff1673ffffffffffffffffffffffffffffffffffffffff1681526020019081526020016000206000828254610a1c9190611e98565b925050819055506001905092915050565b60036020528160005260406000208181548110610a4957600080fd5b906000526020600020016000915091509054906101000a900473ffffffffffffffffffffffffffffffffffffffff1681565b6004602052816000526040600020602052806000526040600020600091509150505481565b600c60009054906101000a900473ffffffffffffffffffffffffffffffffffffffff1681565b610ace611610565b73ffffffffffffffffffffffffffffffffffffffff16610aec610b74565b73ffffffffffffffffffffffffffffffffffffffff1614610b42576040517f08c379a0000000000000000000000000000000000000000000000000000000008152600401610b3990611f18565b60405180910390fd5b610b4c6000611618565b565b600160009054906101000a900473ffffffffffffffffffffffffffffffffffffffff1681565b60008060009054906101000a900473ffffffffffffffffffffffffffffffffffffffff16905090565b60075481565b60056020528060005260406000206000915054906101000a900460ff1681565b6000808290508073ffffffffffffffffffffffffffffffffffffffff166370a08231306040518263ffffffff1660e01b8152600401610c029190611994565b60206040518083038186803b158015610c1a57600080fd5b505afa158015610c2e573d6000803e3d6000fd5b505050506040513d601f19601f82011682018060405250810190610c529190611f4d565b915050919050565b6000600160009054906101000a900473ffffffffffffffffffffffffffffffffffffffff1673ffffffffffffffffffffffffffffffffffffffff163373ffffffffffffffffffffffffffffffffffffffff1614610cec576040517f08c379a0000000000000000000000000000000000000000000000000000000008152600401610ce390611d04565b60405180910390fd5b6000821415610d30576040517f08c379a0000000000000000000000000000000000000000000000000000000008152600401610d2790611fec565b60405180910390fd5b6000610d3b84610bc3565b1415610da5576002839080600181540180825580915050600190039060005260206000200160009091909190916101000a81548173ffffffffffffffffffffffffffffffffffffffff021916908373ffffffffffffffffffffffffffffffffffffffff1602179055505b610db1838530856116dc565b6001600560008673ffffffffffffffffffffffffffffffffffffffff1673ffffffffffffffffffffffffffffffffffffffff16815260200190815260200160002060006101000a81548160ff0219169083151502179055506000600460008673ffffffffffffffffffffffffffffffffffffffff1673ffffffffffffffffffffffffffffffffffffffff16815260200190815260200160002060008573ffffffffffffffffffffffffffffffffffffffff1673ffffffffffffffffffffffffffffffffffffffff168152602001908152602001600020541415610f2f57600360008573ffffffffffffffffffffffffffffffffffffffff1673ffffffffffffffffffffffffffffffffffffffff168152602001908152602001600020839080600181540180825580915050600190039060005260206000200160009091909190916101000a81548173ffffffffffffffffffffffffffffffffffffffff021916908373ffffffffffffffffffffffffffffffffffffffff1602179055505b81600460008673ffffffffffffffffffffffffffffffffffffffff1673ffffffffffffffffffffffffffffffffffffffff16815260200190815260200160002060008573ffffffffffffffffffffffffffffffffffffffff1673ffffffffffffffffffffffffffffffffffffffff1681526020019081526020016000206000828254610fbb919061200c565b925050819055509392505050565b60068054610fd690611e37565b80601f016020809104026020016040519081016040528092919081815260200182805461100290611e37565b801561104f5780601f106110245761010080835404028352916020019161104f565b820191906000526020600020905b81548152906001019060200180831161103257829003601f168201915b505050505081565b60085481565b6002818154811061106d57600080fd5b906000526020600020016000915054906101000a900473ffffffffffffffffffffffffffffffffffffffff1681565b6000600160009054906101000a900473ffffffffffffffffffffffffffffffffffffffff1673ffffffffffffffffffffffffffffffffffffffff163373ffffffffffffffffffffffffffffffffffffffff161461112e576040517f08c379a000000000000000000000000000000000000000000000000000000000815260040161112590611d04565b60405180910390fd5b60006001811115611142576111416119af565b5b3073ffffffffffffffffffffffffffffffffffffffff1663200d2ed26040518163ffffffff1660e01b815260040160206040518083038186803b15801561118857600080fd5b505afa15801561119c573d6000803e3d6000fd5b505050506040513d601f19601f820116820180604052508101906111c09190611d49565b60018111156111d2576111d16119af565b5b14611212576040517f08c379a0000000000000000000000000000000000000000000000000000000008152600401611209906120d4565b60405180910390fd5b6001600c60146101000a81548160ff02191690836001811115611238576112376119af565b5b021790555081600c60006101000a81548173ffffffffffffffffffffffffffffffffffffffff021916908373ffffffffffffffffffffffffffffffffffffffff1602179055504260088190555060019050919050565b60095481565b61129c611610565b73ffffffffffffffffffffffffffffffffffffffff166112ba610b74565b73ffffffffffffffffffffffffffffffffffffffff1614611310576040517f08c379a000000000000000000000000000000000000000000000000000000000815260040161130790611f18565b60405180910390fd5b600073ffffffffffffffffffffffffffffffffffffffff168173ffffffffffffffffffffffffffffffffffffffff161415611380576040517f08c379a000000000000000000000000000000000000000000000000000000000815260040161137790612166565b60405180910390fd5b61138981611618565b50565b6060600280548060200260200160405190810160405280929190818152602001828054801561141057602002820191906000526020600020905b8160009054906101000a900473ffffffffffffffffffffffffffffffffffffffff1673ffffffffffffffffffffffffffffffffffffffff16815260200190600101908083116113c6575b5050505050905090565b611422611610565b73ffffffffffffffffffffffffffffffffffffffff16611440610b74565b73ffffffffffffffffffffffffffffffffffffffff1614611496576040517f08c379a000000000000000000000000000000000000000000000000000000000815260040161148d90611f18565b60405180910390fd5b80600160006101000a81548173ffffffffffffffffffffffffffffffffffffffff021916908373ffffffffffffffffffffffffffffffffffffffff16021790555050565b6000808473ffffffffffffffffffffffffffffffffffffffff1663a9059cbb858560405160240161150c929190612186565b6040516020818303038152906040529060e01b6020820180517bffffffffffffffffffffffffffffffffffffffffffffffffffffffff838183161783525050505060405161155a91906121f6565b6000604051808303816000865af19150503d8060008114611597576040519150601f19603f3d011682016040523d82523d6000602084013e61159c565b606091505b50915091508180156115ca57506000815114806115c95750808060200190518101906115c89190612239565b5b5b611609576040517f08c379a0000000000000000000000000000000000000000000000000000000008152600401611600906122d8565b60405180910390fd5b5050505050565b600033905090565b60008060009054906101000a900473ffffffffffffffffffffffffffffffffffffffff169050816000806101000a81548173ffffffffffffffffffffffffffffffffffffffff021916908373ffffffffffffffffffffffffffffffffffffffff1602179055508173ffffffffffffffffffffffffffffffffffffffff168173ffffffffffffffffffffffffffffffffffffffff167f8be0079c531659141344cd1fd0a4f28419497f9722a3daafe3b4186f6b6457e060405160405180910390a35050565b6000808573ffffffffffffffffffffffffffffffffffffffff166323b872dd868686604051602401611710939291906122f8565b6040516020818303038152906040529060e01b6020820180517bffffffffffffffffffffffffffffffffffffffffffffffffffffffff838183161783525050505060405161175e91906121f6565b6000604051808303816000865af19150503d806000811461179b576040519150601f19603f3d011682016040523d82523d6000602084013e6117a0565b606091505b50915091508180156117ce57506000815114806117cd5750808060200190518101906117cc9190612239565b5b5b61180d576040517f08c379a0000000000000000000000000000000000000000000000000000000008152600401611804906123a1565b60405180910390fd5b505050505050565b600080fd5b600073ffffffffffffffffffffffffffffffffffffffff82169050919050565b60006118458261181a565b9050919050565b6118558161183a565b811461186057600080fd5b50565b6000813590506118728161184c565b92915050565b60006020828403121561188e5761188d611815565b5b600061189c84828501611863565b91505092915050565b600081519050919050565b600082825260208201905092915050565b6000819050602082019050919050565b6118da8161183a565b82525050565b60006118ec83836118d1565b60208301905092915050565b6000602082019050919050565b6000611910826118a5565b61191a81856118b0565b9350611925836118c1565b8060005b8381101561195657815161193d88826118e0565b9750611948836118f8565b925050600181019050611929565b5085935050505092915050565b6000602082019050818103600083015261197d8184611905565b905092915050565b61198e8161183a565b82525050565b60006020820190506119a96000830184611985565b92915050565b7f4e487b7100000000000000000000000000000000000000000000000000000000600052602160045260246000fd5b600281106119ef576119ee6119af565b5b50565b6000819050611a00826119de565b919050565b6000611a10826119f2565b9050919050565b611a2081611a05565b82525050565b6000602082019050611a3b6000830184611a17565b92915050565b60008060408385031215611a5857611a57611815565b5b6000611a6685828601611863565b9250506020611a7785828601611863565b9150509250929050565b60008115159050919050565b611a9681611a81565b82525050565b6000602082019050611ab16000830184611a8d565b92915050565b600081519050919050565b600082825260208201905092915050565b60005b83811015611af1578082015181840152602081019050611ad6565b83811115611b00576000848401525b50505050565b6000601f19601f8301169050919050565b6000611b2282611ab7565b611b2c8185611ac2565b9350611b3c818560208601611ad3565b611b4581611b06565b840191505092915050565b60006020820190508181036000830152611b6a8184611b17565b905092915050565b6000819050919050565b611b8581611b72565b8114611b9057600080fd5b50565b600081359050611ba281611b7c565b92915050565b60008060408385031215611bbf57611bbe611815565b5b6000611bcd85828601611863565b9250506020611bde85828601611b93565b9150509250929050565b611bf181611b72565b82525050565b6000602082019050611c0c6000830184611be8565b92915050565b600080600060608486031215611c2b57611c2a611815565b5b6000611c3986828701611863565b9350506020611c4a86828701611863565b9250506040611c5b86828701611b93565b9150509250925092565b600060208284031215611c7b57611c7a611815565b5b6000611c8984828501611b93565b91505092915050565b7f4f6e6c79207468652063757272656e74204f70656e512076657273696f6e206360008201527f616e2075736520746869732066756e6374696f6e000000000000000000000000602082015250565b6000611cee603483611ac2565b9150611cf982611c92565b604082019050919050565b60006020820190508181036000830152611d1d81611ce1565b9050919050565b60028110611d3157600080fd5b50565b600081519050611d4381611d24565b92915050565b600060208284031215611d5f57611d5e611815565b5b6000611d6d84828501611d34565b91505092915050565b7f5468697320697320626f756e747920697320636c6f7365642e2043616e6e6f7460008201527f20776974686472617720616761696e2e00000000000000000000000000000000602082015250565b6000611dd2603083611ac2565b9150611ddd82611d76565b604082019050919050565b60006020820190508181036000830152611e0181611dc5565b9050919050565b7f4e487b7100000000000000000000000000000000000000000000000000000000600052602260045260246000fd5b60006002820490506001821680611e4f57607f821691505b60208210811415611e6357611e62611e08565b5b50919050565b7f4e487b7100000000000000000000000000000000000000000000000000000000600052601160045260246000fd5b6000611ea382611b72565b9150611eae83611b72565b925082821015611ec157611ec0611e69565b5b828203905092915050565b7f4f776e61626c653a2063616c6c6572206973206e6f7420746865206f776e6572600082015250565b6000611f02602083611ac2565b9150611f0d82611ecc565b602082019050919050565b60006020820190508181036000830152611f3181611ef5565b9050919050565b600081519050611f4781611b7c565b92915050565b600060208284031215611f6357611f62611815565b5b6000611f7184828501611f38565b91505092915050565b7f4d7573742073656e642061206e6f6e2d7a65726f20766f6c756d65206f66207460008201527f6f6b656e732e0000000000000000000000000000000000000000000000000000602082015250565b6000611fd6602683611ac2565b9150611fe182611f7a565b604082019050919050565b6000602082019050818103600083015261200581611fc9565b9050919050565b600061201782611b72565b915061202283611b72565b9250827fffffffffffffffffffffffffffffffffffffffffffffffffffffffffffffffff0382111561205757612056611e69565b5b828201905092915050565b7f5468697320697320626f756e747920697320616c726561647920636c6f73656460008201527f2e2043616e6e6f7420636c6f736520616761696e2e0000000000000000000000602082015250565b60006120be603583611ac2565b91506120c982612062565b604082019050919050565b600060208201905081810360008301526120ed816120b1565b9050919050565b7f4f776e61626c653a206e6577206f776e657220697320746865207a65726f206160008201527f6464726573730000000000000000000000000000000000000000000000000000602082015250565b6000612150602683611ac2565b915061215b826120f4565b604082019050919050565b6000602082019050818103600083015261217f81612143565b9050919050565b600060408201905061219b6000830185611985565b6121a86020830184611be8565b9392505050565b600081519050919050565b600081905092915050565b60006121d0826121af565b6121da81856121ba565b93506121ea818560208601611ad3565b80840191505092915050565b600061220282846121c5565b915081905092915050565b61221681611a81565b811461222157600080fd5b50565b6000815190506122338161220d565b92915050565b60006020828403121561224f5761224e611815565b5b600061225d84828501612224565b91505092915050565b7f5472616e7366657248656c7065723a3a736166655472616e736665723a20747260008201527f616e73666572206661696c656400000000000000000000000000000000000000602082015250565b60006122c2602d83611ac2565b91506122cd82612266565b604082019050919050565b600060208201905081810360008301526122f1816122b5565b9050919050565b600060608201905061230d6000830186611985565b61231a6020830185611985565b6123276040830184611be8565b949350505050565b7f5472616e7366657248656c7065723a3a7472616e7366657246726f6d3a20747260008201527f616e7366657246726f6d206661696c6564000000000000000000000000000000602082015250565b600061238b603183611ac2565b91506123968261232f565b604082019050919050565b600060208201905081810360008301526123ba8161237e565b905091905056fea2646970667358221220d949870f5e8539f6495beb94f2b3fef5cf6dcf6ce6506a793762b3b5df57366d64736f6c63430008080033a26469706673582212200d93d12990fa633eebe0a47a43b656907537b2193e67c4d8842a29e33a0719a564736f6c63430008080033",
  "linkReferences": {},
  "deployedLinkReferences": {}
}