{
  "_format": "hh-sol-artifact-1",
  "contractName": "OpenQ",
  "sourceName": "contracts/OpenQ.sol",
  "abi": [
    {
      "anonymous": false,
      "inputs": [
        {
          "indexed": false,
          "internalType": "string",
          "name": "issueId",
          "type": "string"
        },
        {
          "indexed": false,
          "internalType": "address",
          "name": "issueAddress",
          "type": "address"
        },
        {
          "indexed": false,
          "internalType": "address",
          "name": "tokenAddress",
          "type": "address"
        },
        {
          "indexed": false,
          "internalType": "address",
          "name": "funder",
          "type": "address"
        },
        {
          "indexed": false,
          "internalType": "uint256",
          "name": "value",
          "type": "uint256"
        },
        {
          "indexed": false,
          "internalType": "uint256",
          "name": "refundTime",
          "type": "uint256"
        }
      ],
      "name": "DepositsRefunded",
      "type": "event"
    },
    {
      "anonymous": false,
      "inputs": [
        {
          "indexed": false,
          "internalType": "string",
          "name": "issueId",
          "type": "string"
        },
        {
          "indexed": false,
          "internalType": "address",
          "name": "issueAddress",
          "type": "address"
        },
        {
          "indexed": false,
          "internalType": "address",
          "name": "tokenAddress",
          "type": "address"
        },
        {
          "indexed": false,
          "internalType": "address",
          "name": "sender",
          "type": "address"
        },
        {
          "indexed": false,
          "internalType": "uint256",
          "name": "value",
          "type": "uint256"
        },
        {
          "indexed": false,
          "internalType": "uint256",
          "name": "receiveTime",
          "type": "uint256"
        }
      ],
      "name": "FundsReceived",
      "type": "event"
    },
    {
      "anonymous": false,
      "inputs": [
        {
          "indexed": false,
          "internalType": "string",
          "name": "issueId",
          "type": "string"
        },
        {
          "indexed": true,
          "internalType": "address",
          "name": "issueAddress",
          "type": "address"
        },
        {
          "indexed": true,
          "internalType": "address",
          "name": "payoutAddress",
          "type": "address"
        },
        {
          "indexed": false,
          "internalType": "uint256",
          "name": "issueClosedTime",
          "type": "uint256"
        }
      ],
      "name": "IssueClosed",
      "type": "event"
    },
    {
      "anonymous": false,
      "inputs": [
        {
          "indexed": false,
          "internalType": "string",
          "name": "issueId",
          "type": "string"
        },
        {
          "indexed": true,
          "internalType": "address",
          "name": "issuer",
          "type": "address"
        },
        {
          "indexed": true,
          "internalType": "address",
          "name": "issueAddress",
          "type": "address"
        },
        {
          "indexed": false,
          "internalType": "uint256",
          "name": "issueMintTime",
          "type": "uint256"
        }
      ],
      "name": "IssueCreated",
      "type": "event"
    },
    {
      "anonymous": false,
      "inputs": [
        {
          "indexed": true,
          "internalType": "address",
          "name": "previousOwner",
          "type": "address"
        },
        {
          "indexed": true,
          "internalType": "address",
          "name": "newOwner",
          "type": "address"
        }
      ],
      "name": "OwnershipTransferred",
      "type": "event"
    },
    {
      "inputs": [
        {
          "internalType": "address",
          "name": "",
          "type": "address"
        }
      ],
      "name": "addressToIssue",
      "outputs": [
        {
          "internalType": "string",
          "name": "",
          "type": "string"
        }
      ],
      "stateMutability": "view",
      "type": "function"
    },
    {
      "inputs": [
        {
          "internalType": "string",
          "name": "_id",
          "type": "string"
        },
        {
          "internalType": "address",
          "name": "_payoutAddress",
          "type": "address"
        }
      ],
      "name": "claimBounty",
      "outputs": [],
      "stateMutability": "nonpayable",
      "type": "function"
    },
    {
      "inputs": [
        {
          "internalType": "address",
          "name": "_issueAddress",
          "type": "address"
        },
        {
          "internalType": "address",
          "name": "_tokenAddress",
          "type": "address"
        },
        {
          "internalType": "uint256",
          "name": "_value",
          "type": "uint256"
        }
      ],
      "name": "fundBounty",
      "outputs": [
        {
          "internalType": "bool",
          "name": "success",
          "type": "bool"
        }
      ],
      "stateMutability": "nonpayable",
      "type": "function"
    },
    {
      "inputs": [
        {
          "internalType": "string",
          "name": "_id",
          "type": "string"
        }
      ],
      "name": "getBountyAddress",
      "outputs": [
        {
          "internalType": "address",
          "name": "",
          "type": "address"
        }
      ],
      "stateMutability": "view",
      "type": "function"
    },
    {
      "inputs": [
        {
          "internalType": "string",
          "name": "id_",
          "type": "string"
        }
      ],
      "name": "issueIsOpen",
      "outputs": [
        {
          "internalType": "bool",
          "name": "",
          "type": "bool"
        }
      ],
      "stateMutability": "view",
      "type": "function"
    },
    {
      "inputs": [
        {
          "internalType": "string",
          "name": "",
          "type": "string"
        }
      ],
      "name": "issueToAddress",
      "outputs": [
        {
          "internalType": "address",
          "name": "",
          "type": "address"
        }
      ],
      "stateMutability": "view",
      "type": "function"
    },
    {
      "inputs": [
        {
          "internalType": "string",
          "name": "_id",
          "type": "string"
        }
      ],
      "name": "mintBounty",
      "outputs": [
        {
          "internalType": "address",
          "name": "issueAddress",
          "type": "address"
        }
      ],
      "stateMutability": "nonpayable",
      "type": "function"
    },
    {
      "inputs": [],
      "name": "owner",
      "outputs": [
        {
          "internalType": "address",
          "name": "",
          "type": "address"
        }
      ],
      "stateMutability": "view",
      "type": "function"
    },
    {
      "inputs": [
        {
          "internalType": "address",
          "name": "_issueAddress",
          "type": "address"
        }
      ],
      "name": "refundBountyDeposits",
      "outputs": [
        {
          "internalType": "bool",
          "name": "success",
          "type": "bool"
        }
      ],
      "stateMutability": "nonpayable",
      "type": "function"
    },
    {
      "inputs": [],
      "name": "renounceOwnership",
      "outputs": [],
      "stateMutability": "nonpayable",
      "type": "function"
    },
    {
      "inputs": [
        {
          "internalType": "address",
          "name": "newOwner",
          "type": "address"
        }
      ],
      "name": "transferOwnership",
      "outputs": [],
      "stateMutability": "nonpayable",
      "type": "function"
    }
  ],
  "bytecode": "0x608060405234801561001057600080fd5b5061002d61002261003260201b60201c565b61003a60201b60201c565b6100fe565b600033905090565b60008060009054906101000a900473ffffffffffffffffffffffffffffffffffffffff169050816000806101000a81548173ffffffffffffffffffffffffffffffffffffffff021916908373ffffffffffffffffffffffffffffffffffffffff1602179055508173ffffffffffffffffffffffffffffffffffffffff168173ffffffffffffffffffffffffffffffffffffffff167f8be0079c531659141344cd1fd0a4f28419497f9722a3daafe3b4186f6b6457e060405160405180910390a35050565b614720806200010e6000396000f3fe60806040523480156200001157600080fd5b5060043610620000b85760003560e01c8063b233e6e8116200007b578063b233e6e81462000177578063b83b6b6514620001ad578063c4a9199c14620001e3578063eea7f9241462000219578063f2fde38b146200024f578063fcedbecf146200026f57620000b8565b80631b78031214620000bd5780631b967a1914620000f35780633e7da1a91462000129578063715018a614620001495780638da5cb5b1462000155575b600080fd5b620000db6004803603810190620000d59190620015fb565b620002a5565b604051620000ea919062001b05565b60405180910390f35b6200011160048036038101906200010b919062001653565b62000822565b60405162000120919062001b05565b60405180910390f35b6200014760048036038101906200014191906200178f565b62000993565b005b6200015362000b66565b005b6200015f62000bf7565b6040516200016e919062001a51565b60405180910390f35b6200019560048036038101906200018f919062001746565b62000c20565b604051620001a4919062001a51565b60405180910390f35b620001cb6004803603810190620001c59190620015fb565b62000e37565b604051620001da919062001bb4565b60405180910390f35b620002016004803603810190620001fb919062001746565b62000edf565b60405162000210919062001b05565b60405180910390f35b620002376004803603810190620002319190620017ed565b6200107a565b60405162000246919062001a51565b60405180910390f35b6200026d6004803603810190620002679190620015fb565b620010c3565b005b6200028d600480360381019062000287919062001746565b620011c7565b6040516200029c919062001a51565b60405180910390f35b6000808290508073ffffffffffffffffffffffffffffffffffffffff1663f16b51c16040518163ffffffff1660e01b815260040160206040518083038186803b158015620002f257600080fd5b505afa15801562000307573d6000803e3d6000fd5b505050506040513d601f19601f820116820180604052508101906200032d919062001877565b8173ffffffffffffffffffffffffffffffffffffffff166349a0bb0c6040518163ffffffff1660e01b815260040160206040518083038186803b1580156200037457600080fd5b505afa15801562000389573d6000803e3d6000fd5b505050506040513d601f19601f82011682018060405250810190620003af919062001877565b620003bb919062001dab565b42101562000400576040517f08c379a0000000000000000000000000000000000000000000000000000000008152600401620003f79062001cb2565b60405180910390fd5b600115158173ffffffffffffffffffffffffffffffffffffffff1663b0100cf7336040518263ffffffff1660e01b81526004016200043f919062001a51565b60206040518083038186803b1580156200045857600080fd5b505afa1580156200046d573d6000803e3d6000fd5b505050506040513d601f19601f82011682018060405250810190620004939190620016ee565b151514620004d8576040517f08c379a0000000000000000000000000000000000000000000000000000000008152600401620004cf9062001cd4565b60405180910390fd5b60005b8173ffffffffffffffffffffffffffffffffffffffff1663bf4ec549336040518263ffffffff1660e01b815260040162000516919062001a51565b60006040518083038186803b1580156200052f57600080fd5b505afa15801562000544573d6000803e3d6000fd5b505050506040513d6000823e3d601f19601f820116820180604052508101906200056f9190620016a9565b51811015620008175760008273ffffffffffffffffffffffffffffffffffffffff1663c165feaa33846040518363ffffffff1660e01b8152600401620005b792919062001ad8565b60206040518083038186803b158015620005d057600080fd5b505afa158015620005e5573d6000803e3d6000fd5b505050506040513d601f19601f820116820180604052508101906200060b919062001627565b905060008373ffffffffffffffffffffffffffffffffffffffff166389f3023033846040518363ffffffff1660e01b81526004016200064c92919062001a6e565b60206040518083038186803b1580156200066557600080fd5b505afa1580156200067a573d6000803e3d6000fd5b505050506040513d601f19601f82011682018060405250810190620006a0919062001877565b90508373ffffffffffffffffffffffffffffffffffffffff166329ffef1533846040518363ffffffff1660e01b8152600401620006df92919062001a6e565b602060405180830381600087803b158015620006fa57600080fd5b505af11580156200070f573d6000803e3d6000fd5b505050506040513d601f19601f82011682018060405250810190620007359190620016ee565b507f15ca3f7368849c5833bd814286749768350e9229fa527250c003fc811e8fc7a28473ffffffffffffffffffffffffffffffffffffffff166332710c6e6040518163ffffffff1660e01b815260040160006040518083038186803b1580156200079e57600080fd5b505afa158015620007b3573d6000803e3d6000fd5b505050506040513d6000823e3d601f19601f82011682018060405250810190620007de919062001832565b8784338542604051620007f79695949392919062001bd8565b60405180910390a1505080806200080e9062001f03565b915050620004db565b506001915050919050565b6000808490508073ffffffffffffffffffffffffffffffffffffffff1663b9df819f3386866040518463ffffffff1660e01b8152600401620008679392919062001a9b565b602060405180830381600087803b1580156200088257600080fd5b505af115801562000897573d6000803e3d6000fd5b505050506040513d601f19601f82011682018060405250810190620008bd9190620016ee565b507fed53fe91ccb03559def4dc6153b2fa3c78c91b269df69831e2512f3cf23c77d18173ffffffffffffffffffffffffffffffffffffffff166332710c6e6040518163ffffffff1660e01b815260040160006040518083038186803b1580156200092657600080fd5b505afa1580156200093b573d6000803e3d6000fd5b505050506040513d6000823e3d601f19601f8201168201806040525081019062000966919062001832565b86863387426040516200097f9695949392919062001bd8565b60405180910390a160019150509392505050565b6200099d62001214565b73ffffffffffffffffffffffffffffffffffffffff16620009bd62000bf7565b73ffffffffffffffffffffffffffffffffffffffff161462000a16576040517f08c379a000000000000000000000000000000000000000000000000000000000815260040162000a0d9062001c90565b60405180910390fd5b60006001848460405162000a2c92919062001a36565b908152602001604051809103902060009054906101000a900473ffffffffffffffffffffffffffffffffffffffff16905060008190508073ffffffffffffffffffffffffffffffffffffffff16639375dd90846040518263ffffffff1660e01b815260040162000a9d919062001a51565b602060405180830381600087803b15801562000ab857600080fd5b505af115801562000acd573d6000803e3d6000fd5b505050506040513d601f19601f8201168201806040525081019062000af39190620016ee565b508273ffffffffffffffffffffffffffffffffffffffff168273ffffffffffffffffffffffffffffffffffffffff167fbe392ea1b527f6bff9d22a197a2803e09f2cb94847572ba4cc79c37978d8e09487874260405162000b579392919062001b7e565b60405180910390a35050505050565b62000b7062001214565b73ffffffffffffffffffffffffffffffffffffffff1662000b9062000bf7565b73ffffffffffffffffffffffffffffffffffffffff161462000be9576040517f08c379a000000000000000000000000000000000000000000000000000000000815260040162000be09062001c90565b60405180910390fd5b62000bf560006200121c565b565b60008060009054906101000a900473ffffffffffffffffffffffffffffffffffffffff16905090565b60008073ffffffffffffffffffffffffffffffffffffffff166001848460405162000c4d92919062001a36565b908152602001604051809103902060009054906101000a900473ffffffffffffffffffffffffffffffffffffffff1673ffffffffffffffffffffffffffffffffffffffff161462000cd5576040517f08c379a000000000000000000000000000000000000000000000000000000000815260040162000ccc9062001c6e565b60405180910390fd5b82823360405162000ce690620012e0565b62000cf49392919062001b48565b604051809103906000f08015801562000d11573d6000803e3d6000fd5b509050806001848460405162000d2992919062001a36565b908152602001604051809103902060006101000a81548173ffffffffffffffffffffffffffffffffffffffff021916908373ffffffffffffffffffffffffffffffffffffffff1602179055508282600260008473ffffffffffffffffffffffffffffffffffffffff1673ffffffffffffffffffffffffffffffffffffffff168152602001908152602001600020919062000dc5929190620012ee565b508073ffffffffffffffffffffffffffffffffffffffff163373ffffffffffffffffffffffffffffffffffffffff167f95b807ca0d9aa8d33b120dfe508d075cc99c21f7c174a9148435a67132061e9d85854260405162000e299392919062001b7e565b60405180910390a392915050565b6002602052806000526040600020600091509050805462000e589062001e97565b80601f016020809104026020016040519081016040528092919081815260200182805462000e869062001e97565b801562000ed75780601f1062000eab5761010080835404028352916020019162000ed7565b820191906000526020600020905b81548152906001019060200180831162000eb957829003601f168201915b505050505081565b6000803073ffffffffffffffffffffffffffffffffffffffff1663eea7f92485856040518363ffffffff1660e01b815260040162000f1f92919062001b22565b60206040518083038186803b15801562000f3857600080fd5b505afa15801562000f4d573d6000803e3d6000fd5b505050506040513d601f19601f8201168201806040525081019062000f73919062001627565b9050600080600181111562000fb1577f4e487b7100000000000000000000000000000000000000000000000000000000600052602160045260246000fd5b8273ffffffffffffffffffffffffffffffffffffffff1663200d2ed26040518163ffffffff1660e01b815260040160206040518083038186803b15801562000ff857600080fd5b505afa1580156200100d573d6000803e3d6000fd5b505050506040513d601f19601f820116820180604052508101906200103391906200171a565b60018111156200106c577f4e487b7100000000000000000000000000000000000000000000000000000000600052602160045260246000fd5b149050809250505092915050565b6001818051602081018201805184825260208301602085012081835280955050505050506000915054906101000a900473ffffffffffffffffffffffffffffffffffffffff1681565b620010cd62001214565b73ffffffffffffffffffffffffffffffffffffffff16620010ed62000bf7565b73ffffffffffffffffffffffffffffffffffffffff161462001146576040517f08c379a00000000000000000000000000000000000000000000000000000000081526004016200113d9062001c90565b60405180910390fd5b600073ffffffffffffffffffffffffffffffffffffffff168173ffffffffffffffffffffffffffffffffffffffff161415620011b9576040517f08c379a0000000000000000000000000000000000000000000000000000000008152600401620011b09062001c4c565b60405180910390fd5b620011c4816200121c565b50565b600060018383604051620011dd92919062001a36565b908152602001604051809103902060009054906101000a900473ffffffffffffffffffffffffffffffffffffffff16905092915050565b600033905090565b60008060009054906101000a900473ffffffffffffffffffffffffffffffffffffffff169050816000806101000a81548173ffffffffffffffffffffffffffffffffffffffff021916908373ffffffffffffffffffffffffffffffffffffffff1602179055508173ffffffffffffffffffffffffffffffffffffffff168173ffffffffffffffffffffffffffffffffffffffff167f8be0079c531659141344cd1fd0a4f28419497f9722a3daafe3b4186f6b6457e060405160405180910390a35050565b61251180620021da83390190565b828054620012fc9062001e97565b90600052602060002090601f0160209004810192826200132057600085556200136c565b82601f106200133b57803560ff19168380011785556200136c565b828001600101855582156200136c579182015b828111156200136b5782358255916020019190600101906200134e565b5b5090506200137b91906200137f565b5090565b5b808211156200139a57600081600090555060010162001380565b5090565b6000620013b5620013af8462001d1f565b62001cf6565b90508083825260208201905082856020860282011115620013d557600080fd5b60005b85811015620014095781620013ee8882620014b4565b845260208401935060208301925050600181019050620013d8565b5050509392505050565b60006200142a620014248462001d4e565b62001cf6565b9050828152602081018484840111156200144357600080fd5b6200145084828562001e52565b509392505050565b60006200146f620014698462001d4e565b62001cf6565b9050828152602081018484840111156200148857600080fd5b6200149584828562001e61565b509392505050565b600081359050620014ae816200217a565b92915050565b600081519050620014c5816200217a565b92915050565b600082601f830112620014dd57600080fd5b8151620014ef8482602086016200139e565b91505092915050565b600081519050620015098162002194565b92915050565b6000815190506200152081620021ae565b92915050565b60008083601f8401126200153957600080fd5b8235905067ffffffffffffffff8111156200155357600080fd5b6020830191508360018202830111156200156c57600080fd5b9250929050565b600082601f8301126200158557600080fd5b81356200159784826020860162001413565b91505092915050565b600082601f830112620015b257600080fd5b8151620015c484826020860162001458565b91505092915050565b600081359050620015de81620021bf565b92915050565b600081519050620015f581620021bf565b92915050565b6000602082840312156200160e57600080fd5b60006200161e848285016200149d565b91505092915050565b6000602082840312156200163a57600080fd5b60006200164a84828501620014b4565b91505092915050565b6000806000606084860312156200166957600080fd5b600062001679868287016200149d565b93505060206200168c868287016200149d565b92505060406200169f86828701620015cd565b9150509250925092565b600060208284031215620016bc57600080fd5b600082015167ffffffffffffffff811115620016d757600080fd5b620016e584828501620014cb565b91505092915050565b6000602082840312156200170157600080fd5b60006200171184828501620014f8565b91505092915050565b6000602082840312156200172d57600080fd5b60006200173d848285016200150f565b91505092915050565b600080602083850312156200175a57600080fd5b600083013567ffffffffffffffff8111156200177557600080fd5b620017838582860162001526565b92509250509250929050565b600080600060408486031215620017a557600080fd5b600084013567ffffffffffffffff811115620017c057600080fd5b620017ce8682870162001526565b93509350506020620017e3868287016200149d565b9150509250925092565b6000602082840312156200180057600080fd5b600082013567ffffffffffffffff8111156200181b57600080fd5b620018298482850162001573565b91505092915050565b6000602082840312156200184557600080fd5b600082015167ffffffffffffffff8111156200186057600080fd5b6200186e84828501620015a0565b91505092915050565b6000602082840312156200188a57600080fd5b60006200189a84828501620015e4565b91505092915050565b620018ae8162001e08565b82525050565b620018bf8162001e1c565b82525050565b6000620018d3838562001d8f565b9350620018e283858462001e52565b620018ed8362001fde565b840190509392505050565b600062001906838562001da0565b93506200191583858462001e52565b82840190509392505050565b60006200192e8262001d84565b6200193a818562001d8f565b93506200194c81856020860162001e61565b620019578162001fde565b840191505092915050565b60006200197160268362001d8f565b91506200197e8262001fef565b604082019050919050565b600062001998606f8362001d8f565b9150620019a5826200203e565b608082019050919050565b6000620019bf60208362001d8f565b9150620019cc82620020d9565b602082019050919050565b6000620019e6601b8362001d8f565b9150620019f38262002102565b602082019050919050565b600062001a0d603c8362001d8f565b915062001a1a826200212b565b604082019050919050565b62001a308162001e48565b82525050565b600062001a45828486620018f8565b91508190509392505050565b600060208201905062001a686000830184620018a3565b92915050565b600060408201905062001a856000830185620018a3565b62001a946020830184620018a3565b9392505050565b600060608201905062001ab26000830186620018a3565b62001ac16020830185620018a3565b62001ad0604083018462001a25565b949350505050565b600060408201905062001aef6000830185620018a3565b62001afe602083018462001a25565b9392505050565b600060208201905062001b1c6000830184620018b4565b92915050565b6000602082019050818103600083015262001b3f818486620018c5565b90509392505050565b6000604082019050818103600083015262001b65818587620018c5565b905062001b766020830184620018a3565b949350505050565b6000604082019050818103600083015262001b9b818587620018c5565b905062001bac602083018462001a25565b949350505050565b6000602082019050818103600083015262001bd0818462001921565b905092915050565b600060c082019050818103600083015262001bf4818962001921565b905062001c056020830188620018a3565b62001c146040830187620018a3565b62001c236060830186620018a3565b62001c32608083018562001a25565b62001c4160a083018462001a25565b979650505050505050565b6000602082019050818103600083015262001c678162001962565b9050919050565b6000602082019050818103600083015262001c898162001989565b9050919050565b6000602082019050818103600083015262001cab81620019b0565b9050919050565b6000602082019050818103600083015262001ccd81620019d7565b9050919050565b6000602082019050818103600083015262001cef81620019fe565b9050919050565b600062001d0262001d15565b905062001d10828262001ecd565b919050565b6000604051905090565b600067ffffffffffffffff82111562001d3d5762001d3c62001faf565b5b602082029050602081019050919050565b600067ffffffffffffffff82111562001d6c5762001d6b62001faf565b5b62001d778262001fde565b9050602081019050919050565b600081519050919050565b600082825260208201905092915050565b600081905092915050565b600062001db88262001e48565b915062001dc58362001e48565b9250827fffffffffffffffffffffffffffffffffffffffffffffffffffffffffffffffff0382111562001dfd5762001dfc62001f51565b5b828201905092915050565b600062001e158262001e28565b9050919050565b60008115159050919050565b600073ffffffffffffffffffffffffffffffffffffffff82169050919050565b6000819050919050565b82818337600083830152505050565b60005b8381101562001e8157808201518184015260208101905062001e64565b8381111562001e91576000848401525b50505050565b6000600282049050600182168062001eb057607f821691505b6020821081141562001ec75762001ec662001f80565b5b50919050565b62001ed88262001fde565b810181811067ffffffffffffffff8211171562001efa5762001ef962001faf565b5b80604052505050565b600062001f108262001e48565b91507fffffffffffffffffffffffffffffffffffffffffffffffffffffffffffffffff82141562001f465762001f4562001f51565b5b600182019050919050565b7f4e487b7100000000000000000000000000000000000000000000000000000000600052601160045260246000fd5b7f4e487b7100000000000000000000000000000000000000000000000000000000600052602260045260246000fd5b7f4e487b7100000000000000000000000000000000000000000000000000000000600052604160045260246000fd5b6000601f19601f8301169050919050565b7f4f776e61626c653a206e6577206f776e657220697320746865207a65726f206160008201527f6464726573730000000000000000000000000000000000000000000000000000602082015250565b7f497373756520616c72656164792065786973747320666f7220676976656e206960008201527f642e2046696e642069747320616464726573732062792063616c6c696e67206960208201527f73737565546f41646472657373206f6e207468697320636f6e7472616374207760408201527f6974682074686520697373756549640000000000000000000000000000000000606082015250565b7f4f776e61626c653a2063616c6c6572206973206e6f7420746865206f776e6572600082015250565b7f546f6f206561726c7920746f2077697468647261772066756e64730000000000600082015250565b7f4f6e6c792066756e64657273206f66207468697320626f756e74792063616e2060008201527f7265636c61696d2066756e647320616674657220333020646179732e00000000602082015250565b620021858162001e08565b81146200219157600080fd5b50565b6200219f8162001e1c565b8114620021ab57600080fd5b50565b60028110620021bc57600080fd5b50565b620021ca8162001e48565b8114620021d657600080fd5b5056fe608060405262278d006009553480156200001857600080fd5b50604051620025113803806200251183398181016040528101906200003e91906200031e565b6200005e620000526200011960201b60201c565b6200012160201b60201c565b816006908051906020019062000076929190620001e5565b506000600b60146101000a81548160ff02191690836001811115620000c4577f4e487b7100000000000000000000000000000000000000000000000000000000600052602160045260246000fd5b021790555080600a60006101000a81548173ffffffffffffffffffffffffffffffffffffffff021916908373ffffffffffffffffffffffffffffffffffffffff16021790555042600781905550505062000536565b600033905090565b60008060009054906101000a900473ffffffffffffffffffffffffffffffffffffffff169050816000806101000a81548173ffffffffffffffffffffffffffffffffffffffff021916908373ffffffffffffffffffffffffffffffffffffffff1602179055508173ffffffffffffffffffffffffffffffffffffffff168173ffffffffffffffffffffffffffffffffffffffff167f8be0079c531659141344cd1fd0a4f28419497f9722a3daafe3b4186f6b6457e060405160405180910390a35050565b828054620001f39062000441565b90600052602060002090601f01602090048101928262000217576000855562000263565b82601f106200023257805160ff191683800117855562000263565b8280016001018555821562000263579182015b828111156200026257825182559160200191906001019062000245565b5b50905062000272919062000276565b5090565b5b808211156200029157600081600090555060010162000277565b5090565b6000620002ac620002a684620003a1565b62000378565b905082815260208101848484011115620002c557600080fd5b620002d28482856200040b565b509392505050565b600081519050620002eb816200051c565b92915050565b600082601f8301126200030357600080fd5b81516200031584826020860162000295565b91505092915050565b600080604083850312156200033257600080fd5b600083015167ffffffffffffffff8111156200034d57600080fd5b6200035b85828601620002f1565b92505060206200036e85828601620002da565b9150509250929050565b60006200038462000397565b905062000392828262000477565b919050565b6000604051905090565b600067ffffffffffffffff821115620003bf57620003be620004dc565b5b620003ca826200050b565b9050602081019050919050565b6000620003e482620003eb565b9050919050565b600073ffffffffffffffffffffffffffffffffffffffff82169050919050565b60005b838110156200042b5780820151818401526020810190506200040e565b838111156200043b576000848401525b50505050565b600060028204905060018216806200045a57607f821691505b60208210811415620004715762000470620004ad565b5b50919050565b62000482826200050b565b810181811067ffffffffffffffff82111715620004a457620004a3620004dc565b5b80604052505050565b7f4e487b7100000000000000000000000000000000000000000000000000000000600052602260045260246000fd5b7f4e487b7100000000000000000000000000000000000000000000000000000000600052604160045260246000fd5b6000601f19601f8301169050919050565b6200052781620003d7565b81146200053357600080fd5b50565b611fcb80620005466000396000f3fe608060405234801561001057600080fd5b506004361061012c5760003560e01c80638da5cb5b116100ad578063bf4ec54911610071578063bf4ec5491461035d578063c165feaa1461038d578063e5df8b84146103bd578063f16b51c1146103ed578063f2fde38b1461040b5761012c565b80638da5cb5b1461027f5780639375dd901461029d578063b0100cf7146102cd578063b588d225146102fd578063b9df819f1461032d5761012c565b806363c2b39a116100f457806363c2b39a146101d95780637044f28214610209578063715018a6146102275780637db113541461023157806389f302301461024f5761012c565b80631d14384814610131578063200d2ed21461014f57806329ffef151461016d57806332710c6e1461019d57806349a0bb0c146101bb575b600080fd5b610139610427565b6040516101469190611954565b60405180910390f35b61015761044d565b6040516101649190611a0c565b60405180910390f35b610187600480360381019061018291906115d5565b610460565b60405161019491906119f1565b60405180910390f35b6101a561056f565b6040516101b29190611a27565b60405180910390f35b6101c36105fd565b6040516101d09190611b09565b60405180910390f35b6101f360048036038101906101ee91906115ac565b610603565b6040516102009190611b09565b60405180910390f35b61021161061b565b60405161021e9190611954565b60405180910390f35b61022f610641565b005b6102396106c9565b6040516102469190611b09565b60405180910390f35b610269600480360381019061026491906115d5565b6106cf565b6040516102769190611b09565b60405180910390f35b6102876106f4565b6040516102949190611954565b60405180910390f35b6102b760048036038101906102b291906115ac565b61071d565b6040516102c491906119f1565b60405180910390f35b6102e760048036038101906102e291906115ac565b610b11565b6040516102f491906119f1565b60405180910390f35b610317600480360381019061031291906115ac565b610b31565b6040516103249190611b09565b60405180910390f35b61034760048036038101906103429190611611565b610bc8565b60405161035491906119f1565b60405180910390f35b610377600480360381019061037291906115ac565b610fb0565b60405161038491906119cf565b60405180910390f35b6103a760048036038101906103a29190611660565b61107d565b6040516103b49190611954565b60405180910390f35b6103d760048036038101906103d291906116ee565b6110cb565b6040516103e49190611954565b60405180910390f35b6103f561110a565b6040516104029190611b09565b60405180910390f35b610425600480360381019061042091906115ac565b611110565b005b600a60009054906101000a900473ffffffffffffffffffffffffffffffffffffffff1681565b600b60149054906101000a900460ff1681565b600061046a611208565b73ffffffffffffffffffffffffffffffffffffffff166104886106f4565b73ffffffffffffffffffffffffffffffffffffffff16146104de576040517f08c379a00000000000000000000000000000000000000000000000000000000081526004016104d590611ac9565b60405180910390fd5b6105658284600260008773ffffffffffffffffffffffffffffffffffffffff1673ffffffffffffffffffffffffffffffffffffffff16815260200190815260200160002060008673ffffffffffffffffffffffffffffffffffffffff1673ffffffffffffffffffffffffffffffffffffffff16815260200190815260200160002054611210565b6001905092915050565b6006805461057c90611c85565b80601f01602080910402602001604051908101604052809291908181526020018280546105a890611c85565b80156105f55780601f106105ca576101008083540402835291602001916105f5565b820191906000526020600020905b8154815290600101906020018083116105d857829003601f168201915b505050505081565b60075481565b60056020528060005260406000206000915090505481565b600b60009054906101000a900473ffffffffffffffffffffffffffffffffffffffff1681565b610649611208565b73ffffffffffffffffffffffffffffffffffffffff166106676106f4565b73ffffffffffffffffffffffffffffffffffffffff16146106bd576040517f08c379a00000000000000000000000000000000000000000000000000000000081526004016106b490611ac9565b60405180910390fd5b6106c76000611346565b565b60085481565b6002602052816000526040600020602052806000526040600020600091509150505481565b60008060009054906101000a900473ffffffffffffffffffffffffffffffffffffffff16905090565b6000610727611208565b73ffffffffffffffffffffffffffffffffffffffff166107456106f4565b73ffffffffffffffffffffffffffffffffffffffff161461079b576040517f08c379a000000000000000000000000000000000000000000000000000000000815260040161079290611ac9565b60405180910390fd5b600060018111156107d5577f4e487b7100000000000000000000000000000000000000000000000000000000600052602160045260246000fd5b3073ffffffffffffffffffffffffffffffffffffffff1663200d2ed26040518163ffffffff1660e01b815260040160206040518083038186803b15801561081b57600080fd5b505afa15801561082f573d6000803e3d6000fd5b505050506040513d601f19601f8201168201806040525081019061085391906116c5565b600181111561088b577f4e487b7100000000000000000000000000000000000000000000000000000000600052602160045260246000fd5b146108cb576040517f08c379a00000000000000000000000000000000000000000000000000000000081526004016108c290611a89565b60405180910390fd5b60005b600180549050811015610a6e57600060018281548110610917577f4e487b7100000000000000000000000000000000000000000000000000000000600052603260045260246000fd5b9060005260206000200160009054906101000a900473ffffffffffffffffffffffffffffffffffffffff1690508073ffffffffffffffffffffffffffffffffffffffff1663a9059cbb858373ffffffffffffffffffffffffffffffffffffffff166370a08231306040518263ffffffff1660e01b815260040161099a9190611954565b60206040518083038186803b1580156109b257600080fd5b505afa1580156109c6573d6000803e3d6000fd5b505050506040513d601f19601f820116820180604052508101906109ea9190611717565b6040518363ffffffff1660e01b8152600401610a079291906119a6565b602060405180830381600087803b158015610a2157600080fd5b505af1158015610a35573d6000803e3d6000fd5b505050506040513d601f19601f82011682018060405250810190610a59919061169c565b50508080610a6690611cb7565b9150506108ce565b506001600b60146101000a81548160ff02191690836001811115610abb577f4e487b7100000000000000000000000000000000000000000000000000000000600052602160045260246000fd5b021790555081600b60006101000a81548173ffffffffffffffffffffffffffffffffffffffff021916908373ffffffffffffffffffffffffffffffffffffffff1602179055504260088190555060019050919050565b60036020528060005260406000206000915054906101000a900460ff1681565b6000808290508073ffffffffffffffffffffffffffffffffffffffff166370a08231306040518263ffffffff1660e01b8152600401610b709190611954565b60206040518083038186803b158015610b8857600080fd5b505afa158015610b9c573d6000803e3d6000fd5b505050506040513d601f19601f82011682018060405250810190610bc09190611717565b915050919050565b6000610bd2611208565b73ffffffffffffffffffffffffffffffffffffffff16610bf06106f4565b73ffffffffffffffffffffffffffffffffffffffff1614610c46576040517f08c379a0000000000000000000000000000000000000000000000000000000008152600401610c3d90611ac9565b60405180910390fd5b6000821415610c8a576040517f08c379a0000000000000000000000000000000000000000000000000000000008152600401610c8190611aa9565b60405180910390fd5b610c968385308561140a565b6001600360008673ffffffffffffffffffffffffffffffffffffffff1673ffffffffffffffffffffffffffffffffffffffff16815260200190815260200160002060006101000a81548160ff0219169083151502179055506000600560008573ffffffffffffffffffffffffffffffffffffffff1673ffffffffffffffffffffffffffffffffffffffff168152602001908152602001600020541415610d9a576001839080600181540180825580915050600190039060005260206000200160009091909190916101000a81548173ffffffffffffffffffffffffffffffffffffffff021916908373ffffffffffffffffffffffffffffffffffffffff1602179055505b6000600260008673ffffffffffffffffffffffffffffffffffffffff1673ffffffffffffffffffffffffffffffffffffffff16815260200190815260200160002060008573ffffffffffffffffffffffffffffffffffffffff1673ffffffffffffffffffffffffffffffffffffffff168152602001908152602001600020541415610ec057600460008573ffffffffffffffffffffffffffffffffffffffff1673ffffffffffffffffffffffffffffffffffffffff168152602001908152602001600020839080600181540180825580915050600190039060005260206000200160009091909190916101000a81548173ffffffffffffffffffffffffffffffffffffffff021916908373ffffffffffffffffffffffffffffffffffffffff1602179055505b81600560008573ffffffffffffffffffffffffffffffffffffffff1673ffffffffffffffffffffffffffffffffffffffff1681526020019081526020016000206000828254610f0f9190611b8f565b9250508190555081600260008673ffffffffffffffffffffffffffffffffffffffff1673ffffffffffffffffffffffffffffffffffffffff16815260200190815260200160002060008573ffffffffffffffffffffffffffffffffffffffff1673ffffffffffffffffffffffffffffffffffffffff1681526020019081526020016000206000828254610fa29190611b8f565b925050819055509392505050565b6060600460008373ffffffffffffffffffffffffffffffffffffffff1673ffffffffffffffffffffffffffffffffffffffff16815260200190815260200160002080548060200260200160405190810160405280929190818152602001828054801561107157602002820191906000526020600020905b8160009054906101000a900473ffffffffffffffffffffffffffffffffffffffff1673ffffffffffffffffffffffffffffffffffffffff1681526020019060010190808311611027575b50505050509050919050565b6004602052816000526040600020818154811061109957600080fd5b906000526020600020016000915091509054906101000a900473ffffffffffffffffffffffffffffffffffffffff1681565b600181815481106110db57600080fd5b906000526020600020016000915054906101000a900473ffffffffffffffffffffffffffffffffffffffff1681565b60095481565b611118611208565b73ffffffffffffffffffffffffffffffffffffffff166111366106f4565b73ffffffffffffffffffffffffffffffffffffffff161461118c576040517f08c379a000000000000000000000000000000000000000000000000000000000815260040161118390611ac9565b60405180910390fd5b600073ffffffffffffffffffffffffffffffffffffffff168173ffffffffffffffffffffffffffffffffffffffff1614156111fc576040517f08c379a00000000000000000000000000000000000000000000000000000000081526004016111f390611a49565b60405180910390fd5b61120581611346565b50565b600033905090565b6000808473ffffffffffffffffffffffffffffffffffffffff1663a9059cbb85856040516024016112429291906119a6565b6040516020818303038152906040529060e01b6020820180517bffffffffffffffffffffffffffffffffffffffffffffffffffffffff8381831617835250505050604051611290919061193d565b6000604051808303816000865af19150503d80600081146112cd576040519150601f19603f3d011682016040523d82523d6000602084013e6112d2565b606091505b509150915081801561130057506000815114806112ff5750808060200190518101906112fe919061169c565b5b5b61133f576040517f08c379a000000000000000000000000000000000000000000000000000000000815260040161133690611ae9565b60405180910390fd5b5050505050565b60008060009054906101000a900473ffffffffffffffffffffffffffffffffffffffff169050816000806101000a81548173ffffffffffffffffffffffffffffffffffffffff021916908373ffffffffffffffffffffffffffffffffffffffff1602179055508173ffffffffffffffffffffffffffffffffffffffff168173ffffffffffffffffffffffffffffffffffffffff167f8be0079c531659141344cd1fd0a4f28419497f9722a3daafe3b4186f6b6457e060405160405180910390a35050565b6000808573ffffffffffffffffffffffffffffffffffffffff166323b872dd86868660405160240161143e9392919061196f565b6040516020818303038152906040529060e01b6020820180517bffffffffffffffffffffffffffffffffffffffffffffffffffffffff838183161783525050505060405161148c919061193d565b6000604051808303816000865af19150503d80600081146114c9576040519150601f19603f3d011682016040523d82523d6000602084013e6114ce565b606091505b50915091508180156114fc57506000815114806114fb5750808060200190518101906114fa919061169c565b5b5b61153b576040517f08c379a000000000000000000000000000000000000000000000000000000000815260040161153290611a69565b60405180910390fd5b505050505050565b60008135905061155281611f40565b92915050565b60008151905061156781611f57565b92915050565b60008151905061157c81611f6e565b92915050565b60008135905061159181611f7e565b92915050565b6000815190506115a681611f7e565b92915050565b6000602082840312156115be57600080fd5b60006115cc84828501611543565b91505092915050565b600080604083850312156115e857600080fd5b60006115f685828601611543565b925050602061160785828601611543565b9150509250929050565b60008060006060848603121561162657600080fd5b600061163486828701611543565b935050602061164586828701611543565b925050604061165686828701611582565b9150509250925092565b6000806040838503121561167357600080fd5b600061168185828601611543565b925050602061169285828601611582565b9150509250929050565b6000602082840312156116ae57600080fd5b60006116bc84828501611558565b91505092915050565b6000602082840312156116d757600080fd5b60006116e58482850161156d565b91505092915050565b60006020828403121561170057600080fd5b600061170e84828501611582565b91505092915050565b60006020828403121561172957600080fd5b600061173784828501611597565b91505092915050565b600061174c8383611758565b60208301905092915050565b61176181611be5565b82525050565b61177081611be5565b82525050565b600061178182611b34565b61178b8185611b62565b935061179683611b24565b8060005b838110156117c75781516117ae8882611740565b97506117b983611b55565b92505060018101905061179a565b5085935050505092915050565b6117dd81611bf7565b82525050565b60006117ee82611b3f565b6117f88185611b73565b9350611808818560208601611c52565b80840191505092915050565b61181d81611c40565b82525050565b600061182e82611b4a565b6118388185611b7e565b9350611848818560208601611c52565b61185181611d8d565b840191505092915050565b6000611869602683611b7e565b915061187482611d9e565b604082019050919050565b600061188c603183611b7e565b915061189782611ded565b604082019050919050565b60006118af602f83611b7e565b91506118ba82611e3c565b604082019050919050565b60006118d2601483611b7e565b91506118dd82611e8b565b602082019050919050565b60006118f5602083611b7e565b915061190082611eb4565b602082019050919050565b6000611918602d83611b7e565b915061192382611edd565b604082019050919050565b61193781611c36565b82525050565b600061194982846117e3565b915081905092915050565b60006020820190506119696000830184611767565b92915050565b60006060820190506119846000830186611767565b6119916020830185611767565b61199e604083018461192e565b949350505050565b60006040820190506119bb6000830185611767565b6119c8602083018461192e565b9392505050565b600060208201905081810360008301526119e98184611776565b905092915050565b6000602082019050611a0660008301846117d4565b92915050565b6000602082019050611a216000830184611814565b92915050565b60006020820190508181036000830152611a418184611823565b905092915050565b60006020820190508181036000830152611a628161185c565b9050919050565b60006020820190508181036000830152611a828161187f565b9050919050565b60006020820190508181036000830152611aa2816118a2565b9050919050565b60006020820190508181036000830152611ac2816118c5565b9050919050565b60006020820190508181036000830152611ae2816118e8565b9050919050565b60006020820190508181036000830152611b028161190b565b9050919050565b6000602082019050611b1e600083018461192e565b92915050565b6000819050602082019050919050565b600081519050919050565b600081519050919050565b600081519050919050565b6000602082019050919050565b600082825260208201905092915050565b600081905092915050565b600082825260208201905092915050565b6000611b9a82611c36565b9150611ba583611c36565b9250827fffffffffffffffffffffffffffffffffffffffffffffffffffffffffffffffff03821115611bda57611bd9611d00565b5b828201905092915050565b6000611bf082611c16565b9050919050565b60008115159050919050565b6000819050611c1182611f2c565b919050565b600073ffffffffffffffffffffffffffffffffffffffff82169050919050565b6000819050919050565b6000611c4b82611c03565b9050919050565b60005b83811015611c70578082015181840152602081019050611c55565b83811115611c7f576000848401525b50505050565b60006002820490506001821680611c9d57607f821691505b60208210811415611cb157611cb0611d5e565b5b50919050565b6000611cc282611c36565b91507fffffffffffffffffffffffffffffffffffffffffffffffffffffffffffffffff821415611cf557611cf4611d00565b5b600182019050919050565b7f4e487b7100000000000000000000000000000000000000000000000000000000600052601160045260246000fd5b7f4e487b7100000000000000000000000000000000000000000000000000000000600052602160045260246000fd5b7f4e487b7100000000000000000000000000000000000000000000000000000000600052602260045260246000fd5b6000601f19601f8301169050919050565b7f4f776e61626c653a206e6577206f776e657220697320746865207a65726f206160008201527f6464726573730000000000000000000000000000000000000000000000000000602082015250565b7f5472616e7366657248656c7065723a3a7472616e7366657246726f6d3a20747260008201527f616e7366657246726f6d206661696c6564000000000000000000000000000000602082015250565b7f5468697320697320697373756520697320636c6f7365642e2043616e6e6f742060008201527f776974686472617720616761696e2e0000000000000000000000000000000000602082015250565b7f4d7573742073656e6420736f6d652076616c7565000000000000000000000000600082015250565b7f4f776e61626c653a2063616c6c6572206973206e6f7420746865206f776e6572600082015250565b7f5472616e7366657248656c7065723a3a736166655472616e736665723a20747260008201527f616e73666572206661696c656400000000000000000000000000000000000000602082015250565b60028110611f3d57611f3c611d2f565b5b50565b611f4981611be5565b8114611f5457600080fd5b50565b611f6081611bf7565b8114611f6b57600080fd5b50565b60028110611f7b57600080fd5b50565b611f8781611c36565b8114611f9257600080fd5b5056fea2646970667358221220d77dd1a22feb5e258ea5e7201e9917c6d6eb544f7fb71ac03b5fe458b00fd58464736f6c63430008040033a2646970667358221220ab4178e3b8848704d84e198b672ed3552652c4e31b128db394011532a664cb7e64736f6c63430008040033",
  "linkReferences": {},
  "deployedLinkReferences": {}
}