{
  "_format": "hh-sol-artifact-1",
  "contractName": "OpenQ",
  "sourceName": "contracts/OpenQ.sol",
  "abi": [
    {
      "anonymous": false,
      "inputs": [
        {
          "indexed": false,
          "internalType": "string",
          "name": "issueId",
          "type": "string"
        },
        {
          "indexed": false,
          "internalType": "address",
          "name": "issueAddress",
          "type": "address"
        },
        {
          "indexed": false,
          "internalType": "address",
          "name": "tokenAddress",
          "type": "address"
        },
        {
          "indexed": true,
          "internalType": "address",
          "name": "funder",
          "type": "address"
        },
        {
          "indexed": false,
          "internalType": "uint256",
          "name": "value",
          "type": "uint256"
        },
        {
          "indexed": false,
          "internalType": "uint256",
          "name": "refundTime",
          "type": "uint256"
        }
      ],
      "name": "DepositsRefunded",
      "type": "event"
    },
    {
      "anonymous": false,
      "inputs": [
        {
          "indexed": false,
          "internalType": "string",
          "name": "issueId",
          "type": "string"
        },
        {
          "indexed": false,
          "internalType": "address",
          "name": "issueAddress",
          "type": "address"
        },
        {
          "indexed": false,
          "internalType": "address",
          "name": "tokenAddress",
          "type": "address"
        },
        {
          "indexed": true,
          "internalType": "address",
          "name": "sender",
          "type": "address"
        },
        {
          "indexed": false,
          "internalType": "uint256",
          "name": "value",
          "type": "uint256"
        },
        {
          "indexed": false,
          "internalType": "uint256",
          "name": "receiveTime",
          "type": "uint256"
        }
      ],
      "name": "FundsReceived",
      "type": "event"
    },
    {
      "anonymous": false,
      "inputs": [
        {
          "indexed": false,
          "internalType": "string",
          "name": "issueId",
          "type": "string"
        },
        {
          "indexed": true,
          "internalType": "address",
          "name": "issueAddress",
          "type": "address"
        },
        {
          "indexed": true,
          "internalType": "address",
          "name": "payoutAddress",
          "type": "address"
        },
        {
          "indexed": false,
          "internalType": "uint256",
          "name": "issueClosedTime",
          "type": "uint256"
        }
      ],
      "name": "IssueClosed",
      "type": "event"
    },
    {
      "anonymous": false,
      "inputs": [
        {
          "indexed": false,
          "internalType": "string",
          "name": "issueId",
          "type": "string"
        },
        {
          "indexed": true,
          "internalType": "address",
          "name": "issuer",
          "type": "address"
        },
        {
          "indexed": true,
          "internalType": "address",
          "name": "issueAddress",
          "type": "address"
        },
        {
          "indexed": false,
          "internalType": "uint256",
          "name": "issueMintTime",
          "type": "uint256"
        }
      ],
      "name": "IssueCreated",
      "type": "event"
    },
    {
      "anonymous": false,
      "inputs": [
        {
          "indexed": true,
          "internalType": "address",
          "name": "previousOwner",
          "type": "address"
        },
        {
          "indexed": true,
          "internalType": "address",
          "name": "newOwner",
          "type": "address"
        }
      ],
      "name": "OwnershipTransferred",
      "type": "event"
    },
    {
      "inputs": [
        {
          "internalType": "address",
          "name": "",
          "type": "address"
        }
      ],
      "name": "addressToIssue",
      "outputs": [
        {
          "internalType": "string",
          "name": "",
          "type": "string"
        }
      ],
      "stateMutability": "view",
      "type": "function"
    },
    {
      "inputs": [
        {
          "internalType": "string",
          "name": "_id",
          "type": "string"
        },
        {
          "internalType": "address",
          "name": "_payoutAddress",
          "type": "address"
        }
      ],
      "name": "claimBounty",
      "outputs": [],
      "stateMutability": "nonpayable",
      "type": "function"
    },
    {
      "inputs": [
        {
          "internalType": "address",
          "name": "_issueAddress",
          "type": "address"
        },
        {
          "internalType": "address",
          "name": "_tokenAddress",
          "type": "address"
        },
        {
          "internalType": "uint256",
          "name": "_value",
          "type": "uint256"
        }
      ],
      "name": "fundBounty",
      "outputs": [
        {
          "internalType": "bool",
          "name": "success",
          "type": "bool"
        }
      ],
      "stateMutability": "nonpayable",
      "type": "function"
    },
    {
      "inputs": [
        {
          "internalType": "string",
          "name": "_id",
          "type": "string"
        }
      ],
      "name": "getBountyAddress",
      "outputs": [
        {
          "internalType": "address",
          "name": "",
          "type": "address"
        }
      ],
      "stateMutability": "view",
      "type": "function"
    },
    {
      "inputs": [],
      "name": "getIssueIds",
      "outputs": [
        {
          "internalType": "string[]",
          "name": "",
          "type": "string[]"
        }
      ],
      "stateMutability": "view",
      "type": "function"
    },
    {
      "inputs": [
        {
          "internalType": "uint256",
          "name": "",
          "type": "uint256"
        }
      ],
      "name": "issueIds",
      "outputs": [
        {
          "internalType": "string",
          "name": "",
          "type": "string"
        }
      ],
      "stateMutability": "view",
      "type": "function"
    },
    {
      "inputs": [
        {
          "internalType": "string",
          "name": "id_",
          "type": "string"
        }
      ],
      "name": "issueIsOpen",
      "outputs": [
        {
          "internalType": "bool",
          "name": "",
          "type": "bool"
        }
      ],
      "stateMutability": "view",
      "type": "function"
    },
    {
      "inputs": [
        {
          "internalType": "string",
          "name": "",
          "type": "string"
        }
      ],
      "name": "issueToAddress",
      "outputs": [
        {
          "internalType": "address",
          "name": "",
          "type": "address"
        }
      ],
      "stateMutability": "view",
      "type": "function"
    },
    {
      "inputs": [
        {
          "internalType": "string",
          "name": "_id",
          "type": "string"
        }
      ],
      "name": "mintBounty",
      "outputs": [
        {
          "internalType": "address",
          "name": "issueAddress",
          "type": "address"
        }
      ],
      "stateMutability": "nonpayable",
      "type": "function"
    },
    {
      "inputs": [],
      "name": "owner",
      "outputs": [
        {
          "internalType": "address",
          "name": "",
          "type": "address"
        }
      ],
      "stateMutability": "view",
      "type": "function"
    },
    {
      "inputs": [
        {
          "internalType": "address",
          "name": "_issueAddress",
          "type": "address"
        }
      ],
      "name": "refundBountyDeposits",
      "outputs": [
        {
          "internalType": "bool",
          "name": "success",
          "type": "bool"
        }
      ],
      "stateMutability": "nonpayable",
      "type": "function"
    },
    {
      "inputs": [],
      "name": "renounceOwnership",
      "outputs": [],
      "stateMutability": "nonpayable",
      "type": "function"
    },
    {
      "inputs": [
        {
          "internalType": "address",
          "name": "_token",
          "type": "address"
        },
        {
          "internalType": "address",
          "name": "_issueAddress",
          "type": "address"
        },
        {
          "internalType": "uint256",
          "name": "_value",
          "type": "uint256"
        }
      ],
      "name": "safeApprove",
      "outputs": [
        {
          "internalType": "bool",
          "name": "success",
          "type": "bool"
        }
      ],
      "stateMutability": "nonpayable",
      "type": "function"
    },
    {
      "inputs": [
        {
          "internalType": "address",
          "name": "newOwner",
          "type": "address"
        }
      ],
      "name": "transferOwnership",
      "outputs": [],
      "stateMutability": "nonpayable",
      "type": "function"
    }
  ],
  "bytecode": "0x60806040523480156200001157600080fd5b5062000032620000266200003860201b60201c565b6200004060201b60201c565b62000104565b600033905090565b60008060009054906101000a900473ffffffffffffffffffffffffffffffffffffffff169050816000806101000a81548173ffffffffffffffffffffffffffffffffffffffff021916908373ffffffffffffffffffffffffffffffffffffffff1602179055508173ffffffffffffffffffffffffffffffffffffffff168173ffffffffffffffffffffffffffffffffffffffff167f8be0079c531659141344cd1fd0a4f28419497f9722a3daafe3b4186f6b6457e060405160405180910390a35050565b614db580620001146000396000f3fe60806040523480156200001157600080fd5b5060043610620001005760003560e01c8063b83b6b651162000099578063eb5625d9116200006f578063eb5625d914620002b9578063eea7f92414620002ef578063f2fde38b1462000325578063fcedbecf14620003455762000100565b8063b83b6b65146200022b578063c4a9199c1462000261578063cde9628314620002975762000100565b80634badc44e11620000db5780634badc44e1462000191578063715018a614620001c75780638da5cb5b14620001d3578063b233e6e814620001f55762000100565b80631b78031214620001055780631b967a19146200013b5780633e7da1a91462000171575b600080fd5b6200012360048036038101906200011d919062001a30565b6200037b565b604051620001329190620020d9565b60405180910390f35b62000159600480360381019062000153919062001a88565b6200090d565b604051620001689190620020d9565b60405180910390f35b6200018f600480360381019062000189919062001bc4565b62000a93565b005b620001af6004803603810190620001a9919062001cac565b62000c66565b604051620001be919062002188565b60405180910390f35b620001d162000d1b565b005b620001dd62000dac565b604051620001ec919062002001565b60405180910390f35b6200021360048036038101906200020d919062001b7b565b62000dd5565b60405162000222919062002001565b60405180910390f35b62000249600480360381019062000243919062001a30565b6200102c565b60405162000258919062002188565b60405180910390f35b6200027f600480360381019062000279919062001b7b565b620010d4565b6040516200028e9190620020d9565b60405180910390f35b620002a16200126f565b604051620002b09190620020b5565b60405180910390f35b620002d76004803603810190620002d1919062001a88565b62001352565b604051620002e69190620020d9565b60405180910390f35b6200030d600480360381019062000307919062001c22565b6200136c565b6040516200031c919062002001565b60405180910390f35b6200034360048036038101906200033d919062001a30565b620013b5565b005b6200036360048036038101906200035d919062001b7b565b620014b9565b60405162000372919062002001565b60405180910390f35b6000808290508073ffffffffffffffffffffffffffffffffffffffff1663f16b51c16040518163ffffffff1660e01b815260040160206040518083038186803b158015620003c857600080fd5b505afa158015620003dd573d6000803e3d6000fd5b505050506040513d601f19601f8201168201806040525081019062000403919062001cd8565b8173ffffffffffffffffffffffffffffffffffffffff166349a0bb0c6040518163ffffffff1660e01b815260040160206040518083038186803b1580156200044a57600080fd5b505afa1580156200045f573d6000803e3d6000fd5b505050506040513d601f19601f8201168201806040525081019062000485919062001cd8565b620004919190620023f1565b421015620004d6576040517f08c379a0000000000000000000000000000000000000000000000000000000008152600401620004cd9062002298565b60405180910390fd5b600115158173ffffffffffffffffffffffffffffffffffffffff1663b0100cf7336040518263ffffffff1660e01b815260040162000515919062002001565b60206040518083038186803b1580156200052e57600080fd5b505afa15801562000543573d6000803e3d6000fd5b505050506040513d601f19601f8201168201806040525081019062000569919062001b23565b151514620005ae576040517f08c379a0000000000000000000000000000000000000000000000000000000008152600401620005a590620022ba565b60405180910390fd5b60005b8173ffffffffffffffffffffffffffffffffffffffff1663bf4ec549336040518263ffffffff1660e01b8152600401620005ec919062002001565b60006040518083038186803b1580156200060557600080fd5b505afa1580156200061a573d6000803e3d6000fd5b505050506040513d6000823e3d601f19601f8201168201806040525081019062000645919062001ade565b51811015620009025760008273ffffffffffffffffffffffffffffffffffffffff1663c165feaa33846040518363ffffffff1660e01b81526004016200068d92919062002088565b60206040518083038186803b158015620006a657600080fd5b505afa158015620006bb573d6000803e3d6000fd5b505050506040513d601f19601f82011682018060405250810190620006e1919062001a5c565b905060008373ffffffffffffffffffffffffffffffffffffffff166389f3023033846040518363ffffffff1660e01b8152600401620007229291906200201e565b60206040518083038186803b1580156200073b57600080fd5b505afa15801562000750573d6000803e3d6000fd5b505050506040513d601f19601f8201168201806040525081019062000776919062001cd8565b90508373ffffffffffffffffffffffffffffffffffffffff166329ffef1533846040518363ffffffff1660e01b8152600401620007b59291906200201e565b602060405180830381600087803b158015620007d057600080fd5b505af1158015620007e5573d6000803e3d6000fd5b505050506040513d601f19601f820116820180604052508101906200080b919062001b23565b503373ffffffffffffffffffffffffffffffffffffffff167f15ca3f7368849c5833bd814286749768350e9229fa527250c003fc811e8fc7a28573ffffffffffffffffffffffffffffffffffffffff166332710c6e6040518163ffffffff1660e01b815260040160006040518083038186803b1580156200088b57600080fd5b505afa158015620008a0573d6000803e3d6000fd5b505050506040513d6000823e3d601f19601f82011682018060405250810190620008cb919062001c67565b88858542604051620008e2959493929190620021ac565b60405180910390a250508080620008f99062002549565b915050620005b1565b506001915050919050565b6000808490508073ffffffffffffffffffffffffffffffffffffffff1663b9df819f3386866040518463ffffffff1660e01b815260040162000952939291906200204b565b602060405180830381600087803b1580156200096d57600080fd5b505af115801562000982573d6000803e3d6000fd5b505050506040513d601f19601f82011682018060405250810190620009a8919062001b23565b503373ffffffffffffffffffffffffffffffffffffffff167fed53fe91ccb03559def4dc6153b2fa3c78c91b269df69831e2512f3cf23c77d18273ffffffffffffffffffffffffffffffffffffffff166332710c6e6040518163ffffffff1660e01b815260040160006040518083038186803b15801562000a2857600080fd5b505afa15801562000a3d573d6000803e3d6000fd5b505050506040513d6000823e3d601f19601f8201168201806040525081019062000a68919062001c67565b8787874260405162000a7f959493929190620021ac565b60405180910390a260019150509392505050565b62000a9d62001506565b73ffffffffffffffffffffffffffffffffffffffff1662000abd62000dac565b73ffffffffffffffffffffffffffffffffffffffff161462000b16576040517f08c379a000000000000000000000000000000000000000000000000000000000815260040162000b0d9062002254565b60405180910390fd5b60006002848460405162000b2c92919062001fe6565b908152602001604051809103902060009054906101000a900473ffffffffffffffffffffffffffffffffffffffff16905060008190508073ffffffffffffffffffffffffffffffffffffffff16639375dd90846040518263ffffffff1660e01b815260040162000b9d919062002001565b602060405180830381600087803b15801562000bb857600080fd5b505af115801562000bcd573d6000803e3d6000fd5b505050506040513d601f19601f8201168201806040525081019062000bf3919062001b23565b508273ffffffffffffffffffffffffffffffffffffffff168273ffffffffffffffffffffffffffffffffffffffff167fbe392ea1b527f6bff9d22a197a2803e09f2cb94847572ba4cc79c37978d8e09487874260405162000c579392919062002152565b60405180910390a35050505050565b6001818154811062000c7757600080fd5b90600052602060002001600091509050805462000c9490620024dd565b80601f016020809104026020016040519081016040528092919081815260200182805462000cc290620024dd565b801562000d135780601f1062000ce75761010080835404028352916020019162000d13565b820191906000526020600020905b81548152906001019060200180831162000cf557829003601f168201915b505050505081565b62000d2562001506565b73ffffffffffffffffffffffffffffffffffffffff1662000d4562000dac565b73ffffffffffffffffffffffffffffffffffffffff161462000d9e576040517f08c379a000000000000000000000000000000000000000000000000000000000815260040162000d959062002254565b60405180910390fd5b62000daa60006200150e565b565b60008060009054906101000a900473ffffffffffffffffffffffffffffffffffffffff16905090565b60008073ffffffffffffffffffffffffffffffffffffffff166002848460405162000e0292919062001fe6565b908152602001604051809103902060009054906101000a900473ffffffffffffffffffffffffffffffffffffffff1673ffffffffffffffffffffffffffffffffffffffff161462000e8a576040517f08c379a000000000000000000000000000000000000000000000000000000000815260040162000e819062002232565b60405180910390fd5b82823360405162000e9b9062001715565b62000ea9939291906200211c565b604051809103906000f08015801562000ec6573d6000803e3d6000fd5b509050806002848460405162000ede92919062001fe6565b908152602001604051809103902060006101000a81548173ffffffffffffffffffffffffffffffffffffffff021916908373ffffffffffffffffffffffffffffffffffffffff1602179055508282600360008473ffffffffffffffffffffffffffffffffffffffff1673ffffffffffffffffffffffffffffffffffffffff168152602001908152602001600020919062000f7a92919062001723565b50600183839091806001815401808255809150506001900390600052602060002001600090919290919290919290919250919062000fba92919062001723565b508073ffffffffffffffffffffffffffffffffffffffff163373ffffffffffffffffffffffffffffffffffffffff167f95b807ca0d9aa8d33b120dfe508d075cc99c21f7c174a9148435a67132061e9d8585426040516200101e9392919062002152565b60405180910390a392915050565b600360205280600052604060002060009150905080546200104d90620024dd565b80601f01602080910402602001604051908101604052809291908181526020018280546200107b90620024dd565b8015620010cc5780601f10620010a057610100808354040283529160200191620010cc565b820191906000526020600020905b815481529060010190602001808311620010ae57829003601f168201915b505050505081565b6000803073ffffffffffffffffffffffffffffffffffffffff1663eea7f92485856040518363ffffffff1660e01b815260040162001114929190620020f6565b60206040518083038186803b1580156200112d57600080fd5b505afa15801562001142573d6000803e3d6000fd5b505050506040513d601f19601f8201168201806040525081019062001168919062001a5c565b90506000806001811115620011a6577f4e487b7100000000000000000000000000000000000000000000000000000000600052602160045260246000fd5b8273ffffffffffffffffffffffffffffffffffffffff1663200d2ed26040518163ffffffff1660e01b815260040160206040518083038186803b158015620011ed57600080fd5b505afa15801562001202573d6000803e3d6000fd5b505050506040513d601f19601f8201168201806040525081019062001228919062001b4f565b600181111562001261577f4e487b7100000000000000000000000000000000000000000000000000000000600052602160045260246000fd5b149050809250505092915050565b60606001805480602002602001604051908101604052809291908181526020016000905b8282101562001349578382906000526020600020018054620012b590620024dd565b80601f0160208091040260200160405190810160405280929190818152602001828054620012e390620024dd565b8015620013345780601f10620013085761010080835404028352916020019162001334565b820191906000526020600020905b8154815290600101906020018083116200131657829003601f168201915b50505050508152602001906001019062001293565b50505050905090565b600062001361848484620015d2565b600190509392505050565b6002818051602081018201805184825260208301602085012081835280955050505050506000915054906101000a900473ffffffffffffffffffffffffffffffffffffffff1681565b620013bf62001506565b73ffffffffffffffffffffffffffffffffffffffff16620013df62000dac565b73ffffffffffffffffffffffffffffffffffffffff161462001438576040517f08c379a00000000000000000000000000000000000000000000000000000000081526004016200142f9062002254565b60405180910390fd5b600073ffffffffffffffffffffffffffffffffffffffff168173ffffffffffffffffffffffffffffffffffffffff161415620014ab576040517f08c379a0000000000000000000000000000000000000000000000000000000008152600401620014a29062002210565b60405180910390fd5b620014b6816200150e565b50565b600060028383604051620014cf92919062001fe6565b908152602001604051809103902060009054906101000a900473ffffffffffffffffffffffffffffffffffffffff16905092915050565b600033905090565b60008060009054906101000a900473ffffffffffffffffffffffffffffffffffffffff169050816000806101000a81548173ffffffffffffffffffffffffffffffffffffffff021916908373ffffffffffffffffffffffffffffffffffffffff1602179055508173ffffffffffffffffffffffffffffffffffffffff168173ffffffffffffffffffffffffffffffffffffffff167f8be0079c531659141344cd1fd0a4f28419497f9722a3daafe3b4186f6b6457e060405160405180910390a35050565b6000808473ffffffffffffffffffffffffffffffffffffffff1663095ea7b385856040516024016200160692919062002088565b6040516020818303038152906040529060e01b6020820180517bffffffffffffffffffffffffffffffffffffffffffffffffffffffff838183161783525050505060405162001656919062001fcd565b6000604051808303816000865af19150503d806000811462001695576040519150601f19603f3d011682016040523d82523d6000602084013e6200169a565b606091505b5091509150818015620016cc5750600081511480620016cb575080806020019051810190620016ca919062001b23565b5b5b6200170e576040517f08c379a0000000000000000000000000000000000000000000000000000000008152600401620017059062002276565b60405180910390fd5b5050505050565b612511806200286f83390190565b8280546200173190620024dd565b90600052602060002090601f016020900481019282620017555760008555620017a1565b82601f106200177057803560ff1916838001178555620017a1565b82800160010185558215620017a1579182015b82811115620017a057823582559160200191906001019062001783565b5b509050620017b09190620017b4565b5090565b5b80821115620017cf576000816000905550600101620017b5565b5090565b6000620017ea620017e48462002305565b620022dc565b905080838252602082019050828560208602820111156200180a57600080fd5b60005b858110156200183e5781620018238882620018e9565b8452602084019350602083019250506001810190506200180d565b5050509392505050565b60006200185f620018598462002334565b620022dc565b9050828152602081018484840111156200187857600080fd5b6200188584828562002498565b509392505050565b6000620018a46200189e8462002334565b620022dc565b905082815260208101848484011115620018bd57600080fd5b620018ca848285620024a7565b509392505050565b600081359050620018e3816200280f565b92915050565b600081519050620018fa816200280f565b92915050565b600082601f8301126200191257600080fd5b815162001924848260208601620017d3565b91505092915050565b6000815190506200193e8162002829565b92915050565b600081519050620019558162002843565b92915050565b60008083601f8401126200196e57600080fd5b8235905067ffffffffffffffff8111156200198857600080fd5b602083019150836001820283011115620019a157600080fd5b9250929050565b600082601f830112620019ba57600080fd5b8135620019cc84826020860162001848565b91505092915050565b600082601f830112620019e757600080fd5b8151620019f98482602086016200188d565b91505092915050565b60008135905062001a138162002854565b92915050565b60008151905062001a2a8162002854565b92915050565b60006020828403121562001a4357600080fd5b600062001a5384828501620018d2565b91505092915050565b60006020828403121562001a6f57600080fd5b600062001a7f84828501620018e9565b91505092915050565b60008060006060848603121562001a9e57600080fd5b600062001aae86828701620018d2565b935050602062001ac186828701620018d2565b925050604062001ad48682870162001a02565b9150509250925092565b60006020828403121562001af157600080fd5b600082015167ffffffffffffffff81111562001b0c57600080fd5b62001b1a8482850162001900565b91505092915050565b60006020828403121562001b3657600080fd5b600062001b46848285016200192d565b91505092915050565b60006020828403121562001b6257600080fd5b600062001b728482850162001944565b91505092915050565b6000806020838503121562001b8f57600080fd5b600083013567ffffffffffffffff81111562001baa57600080fd5b62001bb8858286016200195b565b92509250509250929050565b60008060006040848603121562001bda57600080fd5b600084013567ffffffffffffffff81111562001bf557600080fd5b62001c03868287016200195b565b9350935050602062001c1886828701620018d2565b9150509250925092565b60006020828403121562001c3557600080fd5b600082013567ffffffffffffffff81111562001c5057600080fd5b62001c5e84828501620019a8565b91505092915050565b60006020828403121562001c7a57600080fd5b600082015167ffffffffffffffff81111562001c9557600080fd5b62001ca384828501620019d5565b91505092915050565b60006020828403121562001cbf57600080fd5b600062001ccf8482850162001a02565b91505092915050565b60006020828403121562001ceb57600080fd5b600062001cfb8482850162001a19565b91505092915050565b600062001d12838362001e50565b905092915050565b62001d25816200244e565b82525050565b600062001d38826200237a565b62001d448185620023a8565b93508360208202850162001d58856200236a565b8060005b8581101562001d9a578484038952815162001d78858262001d04565b945062001d85836200239b565b925060208a0199505060018101905062001d5c565b50829750879550505050505092915050565b62001db78162002462565b82525050565b600062001dca8262002385565b62001dd68185620023b9565b935062001de8818560208601620024a7565b80840191505092915050565b600062001e028385620023d5565b935062001e1183858462002498565b62001e1c8362002624565b840190509392505050565b600062001e358385620023e6565b935062001e4483858462002498565b82840190509392505050565b600062001e5d8262002390565b62001e698185620023c4565b935062001e7b818560208601620024a7565b62001e868162002624565b840191505092915050565b600062001e9e8262002390565b62001eaa8185620023d5565b935062001ebc818560208601620024a7565b62001ec78162002624565b840191505092915050565b600062001ee1602683620023d5565b915062001eee8262002635565b604082019050919050565b600062001f08606f83620023d5565b915062001f158262002684565b608082019050919050565b600062001f2f602083620023d5565b915062001f3c826200271f565b602082019050919050565b600062001f56602b83620023d5565b915062001f638262002748565b604082019050919050565b600062001f7d601b83620023d5565b915062001f8a8262002797565b602082019050919050565b600062001fa4603c83620023d5565b915062001fb182620027c0565b604082019050919050565b62001fc7816200248e565b82525050565b600062001fdb828462001dbd565b915081905092915050565b600062001ff582848662001e27565b91508190509392505050565b600060208201905062002018600083018462001d1a565b92915050565b600060408201905062002035600083018562001d1a565b62002044602083018462001d1a565b9392505050565b600060608201905062002062600083018662001d1a565b62002071602083018562001d1a565b62002080604083018462001fbc565b949350505050565b60006040820190506200209f600083018562001d1a565b620020ae602083018462001fbc565b9392505050565b60006020820190508181036000830152620020d1818462001d2b565b905092915050565b6000602082019050620020f0600083018462001dac565b92915050565b600060208201905081810360008301526200211381848662001df4565b90509392505050565b600060408201905081810360008301526200213981858762001df4565b90506200214a602083018462001d1a565b949350505050565b600060408201905081810360008301526200216f81858762001df4565b905062002180602083018462001fbc565b949350505050565b60006020820190508181036000830152620021a4818462001e91565b905092915050565b600060a0820190508181036000830152620021c8818862001e91565b9050620021d9602083018762001d1a565b620021e8604083018662001d1a565b620021f7606083018562001fbc565b62002206608083018462001fbc565b9695505050505050565b600060208201905081810360008301526200222b8162001ed2565b9050919050565b600060208201905081810360008301526200224d8162001ef9565b9050919050565b600060208201905081810360008301526200226f8162001f20565b9050919050565b60006020820190508181036000830152620022918162001f47565b9050919050565b60006020820190508181036000830152620022b38162001f6e565b9050919050565b60006020820190508181036000830152620022d58162001f95565b9050919050565b6000620022e8620022fb565b9050620022f6828262002513565b919050565b6000604051905090565b600067ffffffffffffffff821115620023235762002322620025f5565b5b602082029050602081019050919050565b600067ffffffffffffffff821115620023525762002351620025f5565b5b6200235d8262002624565b9050602081019050919050565b6000819050602082019050919050565b600081519050919050565b600081519050919050565b600081519050919050565b6000602082019050919050565b600082825260208201905092915050565b600081905092915050565b600082825260208201905092915050565b600082825260208201905092915050565b600081905092915050565b6000620023fe826200248e565b91506200240b836200248e565b9250827fffffffffffffffffffffffffffffffffffffffffffffffffffffffffffffffff0382111562002443576200244262002597565b5b828201905092915050565b60006200245b826200246e565b9050919050565b60008115159050919050565b600073ffffffffffffffffffffffffffffffffffffffff82169050919050565b6000819050919050565b82818337600083830152505050565b60005b83811015620024c7578082015181840152602081019050620024aa565b83811115620024d7576000848401525b50505050565b60006002820490506001821680620024f657607f821691505b602082108114156200250d576200250c620025c6565b5b50919050565b6200251e8262002624565b810181811067ffffffffffffffff8211171562002540576200253f620025f5565b5b80604052505050565b600062002556826200248e565b91507fffffffffffffffffffffffffffffffffffffffffffffffffffffffffffffffff8214156200258c576200258b62002597565b5b600182019050919050565b7f4e487b7100000000000000000000000000000000000000000000000000000000600052601160045260246000fd5b7f4e487b7100000000000000000000000000000000000000000000000000000000600052602260045260246000fd5b7f4e487b7100000000000000000000000000000000000000000000000000000000600052604160045260246000fd5b6000601f19601f8301169050919050565b7f4f776e61626c653a206e6577206f776e657220697320746865207a65726f206160008201527f6464726573730000000000000000000000000000000000000000000000000000602082015250565b7f497373756520616c72656164792065786973747320666f7220676976656e206960008201527f642e2046696e642069747320616464726573732062792063616c6c696e67206960208201527f73737565546f41646472657373206f6e207468697320636f6e7472616374207760408201527f6974682074686520697373756549640000000000000000000000000000000000606082015250565b7f4f776e61626c653a2063616c6c6572206973206e6f7420746865206f776e6572600082015250565b7f5472616e7366657248656c7065723a3a73616665417070726f76653a2061707060008201527f726f7665206661696c6564000000000000000000000000000000000000000000602082015250565b7f546f6f206561726c7920746f2077697468647261772066756e64730000000000600082015250565b7f4f6e6c792066756e64657273206f66207468697320626f756e74792063616e2060008201527f7265636c61696d2066756e647320616674657220333020646179732e00000000602082015250565b6200281a816200244e565b81146200282657600080fd5b50565b620028348162002462565b81146200284057600080fd5b50565b600281106200285157600080fd5b50565b6200285f816200248e565b81146200286b57600080fd5b5056fe608060405262278d006008553480156200001857600080fd5b50604051620025113803806200251183398181016040528101906200003e91906200031e565b6200005e620000526200011960201b60201c565b6200012160201b60201c565b81600a908051906020019062000076929190620001e5565b506000600b60146101000a81548160ff02191690836001811115620000c4577f4e487b7100000000000000000000000000000000000000000000000000000000600052602160045260246000fd5b021790555080600960006101000a81548173ffffffffffffffffffffffffffffffffffffffff021916908373ffffffffffffffffffffffffffffffffffffffff16021790555042600681905550505062000536565b600033905090565b60008060009054906101000a900473ffffffffffffffffffffffffffffffffffffffff169050816000806101000a81548173ffffffffffffffffffffffffffffffffffffffff021916908373ffffffffffffffffffffffffffffffffffffffff1602179055508173ffffffffffffffffffffffffffffffffffffffff168173ffffffffffffffffffffffffffffffffffffffff167f8be0079c531659141344cd1fd0a4f28419497f9722a3daafe3b4186f6b6457e060405160405180910390a35050565b828054620001f39062000441565b90600052602060002090601f01602090048101928262000217576000855562000263565b82601f106200023257805160ff191683800117855562000263565b8280016001018555821562000263579182015b828111156200026257825182559160200191906001019062000245565b5b50905062000272919062000276565b5090565b5b808211156200029157600081600090555060010162000277565b5090565b6000620002ac620002a684620003a1565b62000378565b905082815260208101848484011115620002c557600080fd5b620002d28482856200040b565b509392505050565b600081519050620002eb816200051c565b92915050565b600082601f8301126200030357600080fd5b81516200031584826020860162000295565b91505092915050565b600080604083850312156200033257600080fd5b600083015167ffffffffffffffff8111156200034d57600080fd5b6200035b85828601620002f1565b92505060206200036e85828601620002da565b9150509250929050565b60006200038462000397565b905062000392828262000477565b919050565b6000604051905090565b600067ffffffffffffffff821115620003bf57620003be620004dc565b5b620003ca826200050b565b9050602081019050919050565b6000620003e482620003eb565b9050919050565b600073ffffffffffffffffffffffffffffffffffffffff82169050919050565b60005b838110156200042b5780820151818401526020810190506200040e565b838111156200043b576000848401525b50505050565b600060028204905060018216806200045a57607f821691505b60208210811415620004715762000470620004ad565b5b50919050565b62000482826200050b565b810181811067ffffffffffffffff82111715620004a457620004a3620004dc565b5b80604052505050565b7f4e487b7100000000000000000000000000000000000000000000000000000000600052602260045260246000fd5b7f4e487b7100000000000000000000000000000000000000000000000000000000600052604160045260246000fd5b6000601f19601f8301169050919050565b6200052781620003d7565b81146200053357600080fd5b50565b611fcb80620005466000396000f3fe608060405234801561001057600080fd5b506004361061012c5760003560e01c80638da5cb5b116100ad578063bf4ec54911610071578063bf4ec5491461035d578063c165feaa1461038d578063e5df8b84146103bd578063f16b51c1146103ed578063f2fde38b1461040b5761012c565b80638da5cb5b1461027f5780639375dd901461029d578063b0100cf7146102cd578063b588d225146102fd578063b9df819f1461032d5761012c565b806363c2b39a116100f457806363c2b39a146101d95780637044f28214610209578063715018a6146102275780637db113541461023157806389f302301461024f5761012c565b80631d14384814610131578063200d2ed21461014f57806329ffef151461016d57806332710c6e1461019d57806349a0bb0c146101bb575b600080fd5b610139610427565b6040516101469190611954565b60405180910390f35b61015761044d565b6040516101649190611a0c565b60405180910390f35b610187600480360381019061018291906115d5565b610460565b60405161019491906119f1565b60405180910390f35b6101a561056f565b6040516101b29190611a27565b60405180910390f35b6101c36105fd565b6040516101d09190611b09565b60405180910390f35b6101f360048036038101906101ee91906115ac565b610603565b6040516102009190611b09565b60405180910390f35b61021161061b565b60405161021e9190611954565b60405180910390f35b61022f610641565b005b6102396106c9565b6040516102469190611b09565b60405180910390f35b610269600480360381019061026491906115d5565b6106cf565b6040516102769190611b09565b60405180910390f35b6102876106f4565b6040516102949190611954565b60405180910390f35b6102b760048036038101906102b291906115ac565b61071d565b6040516102c491906119f1565b60405180910390f35b6102e760048036038101906102e291906115ac565b610b11565b6040516102f491906119f1565b60405180910390f35b610317600480360381019061031291906115ac565b610b31565b6040516103249190611b09565b60405180910390f35b61034760048036038101906103429190611611565b610bc8565b60405161035491906119f1565b60405180910390f35b610377600480360381019061037291906115ac565b610fb0565b60405161038491906119cf565b60405180910390f35b6103a760048036038101906103a29190611660565b61107d565b6040516103b49190611954565b60405180910390f35b6103d760048036038101906103d291906116ee565b6110cb565b6040516103e49190611954565b60405180910390f35b6103f561110a565b6040516104029190611b09565b60405180910390f35b610425600480360381019061042091906115ac565b611110565b005b600960009054906101000a900473ffffffffffffffffffffffffffffffffffffffff1681565b600b60149054906101000a900460ff1681565b600061046a611208565b73ffffffffffffffffffffffffffffffffffffffff166104886106f4565b73ffffffffffffffffffffffffffffffffffffffff16146104de576040517f08c379a00000000000000000000000000000000000000000000000000000000081526004016104d590611ac9565b60405180910390fd5b6105658284600260008773ffffffffffffffffffffffffffffffffffffffff1673ffffffffffffffffffffffffffffffffffffffff16815260200190815260200160002060008673ffffffffffffffffffffffffffffffffffffffff1673ffffffffffffffffffffffffffffffffffffffff16815260200190815260200160002054611210565b6001905092915050565b600a805461057c90611c85565b80601f01602080910402602001604051908101604052809291908181526020018280546105a890611c85565b80156105f55780601f106105ca576101008083540402835291602001916105f5565b820191906000526020600020905b8154815290600101906020018083116105d857829003601f168201915b505050505081565b60065481565b60056020528060005260406000206000915090505481565b600b60009054906101000a900473ffffffffffffffffffffffffffffffffffffffff1681565b610649611208565b73ffffffffffffffffffffffffffffffffffffffff166106676106f4565b73ffffffffffffffffffffffffffffffffffffffff16146106bd576040517f08c379a00000000000000000000000000000000000000000000000000000000081526004016106b490611ac9565b60405180910390fd5b6106c76000611346565b565b60075481565b6002602052816000526040600020602052806000526040600020600091509150505481565b60008060009054906101000a900473ffffffffffffffffffffffffffffffffffffffff16905090565b6000610727611208565b73ffffffffffffffffffffffffffffffffffffffff166107456106f4565b73ffffffffffffffffffffffffffffffffffffffff161461079b576040517f08c379a000000000000000000000000000000000000000000000000000000000815260040161079290611ac9565b60405180910390fd5b600060018111156107d5577f4e487b7100000000000000000000000000000000000000000000000000000000600052602160045260246000fd5b3073ffffffffffffffffffffffffffffffffffffffff1663200d2ed26040518163ffffffff1660e01b815260040160206040518083038186803b15801561081b57600080fd5b505afa15801561082f573d6000803e3d6000fd5b505050506040513d601f19601f8201168201806040525081019061085391906116c5565b600181111561088b577f4e487b7100000000000000000000000000000000000000000000000000000000600052602160045260246000fd5b146108cb576040517f08c379a00000000000000000000000000000000000000000000000000000000081526004016108c290611a89565b60405180910390fd5b60005b600180549050811015610a6e57600060018281548110610917577f4e487b7100000000000000000000000000000000000000000000000000000000600052603260045260246000fd5b9060005260206000200160009054906101000a900473ffffffffffffffffffffffffffffffffffffffff1690508073ffffffffffffffffffffffffffffffffffffffff1663a9059cbb858373ffffffffffffffffffffffffffffffffffffffff166370a08231306040518263ffffffff1660e01b815260040161099a9190611954565b60206040518083038186803b1580156109b257600080fd5b505afa1580156109c6573d6000803e3d6000fd5b505050506040513d601f19601f820116820180604052508101906109ea9190611717565b6040518363ffffffff1660e01b8152600401610a079291906119a6565b602060405180830381600087803b158015610a2157600080fd5b505af1158015610a35573d6000803e3d6000fd5b505050506040513d601f19601f82011682018060405250810190610a59919061169c565b50508080610a6690611cb7565b9150506108ce565b506001600b60146101000a81548160ff02191690836001811115610abb577f4e487b7100000000000000000000000000000000000000000000000000000000600052602160045260246000fd5b021790555081600b60006101000a81548173ffffffffffffffffffffffffffffffffffffffff021916908373ffffffffffffffffffffffffffffffffffffffff1602179055504260078190555060019050919050565b60036020528060005260406000206000915054906101000a900460ff1681565b6000808290508073ffffffffffffffffffffffffffffffffffffffff166370a08231306040518263ffffffff1660e01b8152600401610b709190611954565b60206040518083038186803b158015610b8857600080fd5b505afa158015610b9c573d6000803e3d6000fd5b505050506040513d601f19601f82011682018060405250810190610bc09190611717565b915050919050565b6000610bd2611208565b73ffffffffffffffffffffffffffffffffffffffff16610bf06106f4565b73ffffffffffffffffffffffffffffffffffffffff1614610c46576040517f08c379a0000000000000000000000000000000000000000000000000000000008152600401610c3d90611ac9565b60405180910390fd5b6000821415610c8a576040517f08c379a0000000000000000000000000000000000000000000000000000000008152600401610c8190611aa9565b60405180910390fd5b610c968385308561140a565b6001600360008673ffffffffffffffffffffffffffffffffffffffff1673ffffffffffffffffffffffffffffffffffffffff16815260200190815260200160002060006101000a81548160ff0219169083151502179055506000600560008573ffffffffffffffffffffffffffffffffffffffff1673ffffffffffffffffffffffffffffffffffffffff168152602001908152602001600020541415610d9a576001839080600181540180825580915050600190039060005260206000200160009091909190916101000a81548173ffffffffffffffffffffffffffffffffffffffff021916908373ffffffffffffffffffffffffffffffffffffffff1602179055505b6000600260008673ffffffffffffffffffffffffffffffffffffffff1673ffffffffffffffffffffffffffffffffffffffff16815260200190815260200160002060008573ffffffffffffffffffffffffffffffffffffffff1673ffffffffffffffffffffffffffffffffffffffff168152602001908152602001600020541415610ec057600460008573ffffffffffffffffffffffffffffffffffffffff1673ffffffffffffffffffffffffffffffffffffffff168152602001908152602001600020839080600181540180825580915050600190039060005260206000200160009091909190916101000a81548173ffffffffffffffffffffffffffffffffffffffff021916908373ffffffffffffffffffffffffffffffffffffffff1602179055505b81600560008573ffffffffffffffffffffffffffffffffffffffff1673ffffffffffffffffffffffffffffffffffffffff1681526020019081526020016000206000828254610f0f9190611b8f565b9250508190555081600260008673ffffffffffffffffffffffffffffffffffffffff1673ffffffffffffffffffffffffffffffffffffffff16815260200190815260200160002060008573ffffffffffffffffffffffffffffffffffffffff1673ffffffffffffffffffffffffffffffffffffffff1681526020019081526020016000206000828254610fa29190611b8f565b925050819055509392505050565b6060600460008373ffffffffffffffffffffffffffffffffffffffff1673ffffffffffffffffffffffffffffffffffffffff16815260200190815260200160002080548060200260200160405190810160405280929190818152602001828054801561107157602002820191906000526020600020905b8160009054906101000a900473ffffffffffffffffffffffffffffffffffffffff1673ffffffffffffffffffffffffffffffffffffffff1681526020019060010190808311611027575b50505050509050919050565b6004602052816000526040600020818154811061109957600080fd5b906000526020600020016000915091509054906101000a900473ffffffffffffffffffffffffffffffffffffffff1681565b600181815481106110db57600080fd5b906000526020600020016000915054906101000a900473ffffffffffffffffffffffffffffffffffffffff1681565b60085481565b611118611208565b73ffffffffffffffffffffffffffffffffffffffff166111366106f4565b73ffffffffffffffffffffffffffffffffffffffff161461118c576040517f08c379a000000000000000000000000000000000000000000000000000000000815260040161118390611ac9565b60405180910390fd5b600073ffffffffffffffffffffffffffffffffffffffff168173ffffffffffffffffffffffffffffffffffffffff1614156111fc576040517f08c379a00000000000000000000000000000000000000000000000000000000081526004016111f390611a49565b60405180910390fd5b61120581611346565b50565b600033905090565b6000808473ffffffffffffffffffffffffffffffffffffffff1663a9059cbb85856040516024016112429291906119a6565b6040516020818303038152906040529060e01b6020820180517bffffffffffffffffffffffffffffffffffffffffffffffffffffffff8381831617835250505050604051611290919061193d565b6000604051808303816000865af19150503d80600081146112cd576040519150601f19603f3d011682016040523d82523d6000602084013e6112d2565b606091505b509150915081801561130057506000815114806112ff5750808060200190518101906112fe919061169c565b5b5b61133f576040517f08c379a000000000000000000000000000000000000000000000000000000000815260040161133690611ae9565b60405180910390fd5b5050505050565b60008060009054906101000a900473ffffffffffffffffffffffffffffffffffffffff169050816000806101000a81548173ffffffffffffffffffffffffffffffffffffffff021916908373ffffffffffffffffffffffffffffffffffffffff1602179055508173ffffffffffffffffffffffffffffffffffffffff168173ffffffffffffffffffffffffffffffffffffffff167f8be0079c531659141344cd1fd0a4f28419497f9722a3daafe3b4186f6b6457e060405160405180910390a35050565b6000808573ffffffffffffffffffffffffffffffffffffffff166323b872dd86868660405160240161143e9392919061196f565b6040516020818303038152906040529060e01b6020820180517bffffffffffffffffffffffffffffffffffffffffffffffffffffffff838183161783525050505060405161148c919061193d565b6000604051808303816000865af19150503d80600081146114c9576040519150601f19603f3d011682016040523d82523d6000602084013e6114ce565b606091505b50915091508180156114fc57506000815114806114fb5750808060200190518101906114fa919061169c565b5b5b61153b576040517f08c379a000000000000000000000000000000000000000000000000000000000815260040161153290611a69565b60405180910390fd5b505050505050565b60008135905061155281611f40565b92915050565b60008151905061156781611f57565b92915050565b60008151905061157c81611f6e565b92915050565b60008135905061159181611f7e565b92915050565b6000815190506115a681611f7e565b92915050565b6000602082840312156115be57600080fd5b60006115cc84828501611543565b91505092915050565b600080604083850312156115e857600080fd5b60006115f685828601611543565b925050602061160785828601611543565b9150509250929050565b60008060006060848603121561162657600080fd5b600061163486828701611543565b935050602061164586828701611543565b925050604061165686828701611582565b9150509250925092565b6000806040838503121561167357600080fd5b600061168185828601611543565b925050602061169285828601611582565b9150509250929050565b6000602082840312156116ae57600080fd5b60006116bc84828501611558565b91505092915050565b6000602082840312156116d757600080fd5b60006116e58482850161156d565b91505092915050565b60006020828403121561170057600080fd5b600061170e84828501611582565b91505092915050565b60006020828403121561172957600080fd5b600061173784828501611597565b91505092915050565b600061174c8383611758565b60208301905092915050565b61176181611be5565b82525050565b61177081611be5565b82525050565b600061178182611b34565b61178b8185611b62565b935061179683611b24565b8060005b838110156117c75781516117ae8882611740565b97506117b983611b55565b92505060018101905061179a565b5085935050505092915050565b6117dd81611bf7565b82525050565b60006117ee82611b3f565b6117f88185611b73565b9350611808818560208601611c52565b80840191505092915050565b61181d81611c40565b82525050565b600061182e82611b4a565b6118388185611b7e565b9350611848818560208601611c52565b61185181611d8d565b840191505092915050565b6000611869602683611b7e565b915061187482611d9e565b604082019050919050565b600061188c603183611b7e565b915061189782611ded565b604082019050919050565b60006118af602f83611b7e565b91506118ba82611e3c565b604082019050919050565b60006118d2601483611b7e565b91506118dd82611e8b565b602082019050919050565b60006118f5602083611b7e565b915061190082611eb4565b602082019050919050565b6000611918602d83611b7e565b915061192382611edd565b604082019050919050565b61193781611c36565b82525050565b600061194982846117e3565b915081905092915050565b60006020820190506119696000830184611767565b92915050565b60006060820190506119846000830186611767565b6119916020830185611767565b61199e604083018461192e565b949350505050565b60006040820190506119bb6000830185611767565b6119c8602083018461192e565b9392505050565b600060208201905081810360008301526119e98184611776565b905092915050565b6000602082019050611a0660008301846117d4565b92915050565b6000602082019050611a216000830184611814565b92915050565b60006020820190508181036000830152611a418184611823565b905092915050565b60006020820190508181036000830152611a628161185c565b9050919050565b60006020820190508181036000830152611a828161187f565b9050919050565b60006020820190508181036000830152611aa2816118a2565b9050919050565b60006020820190508181036000830152611ac2816118c5565b9050919050565b60006020820190508181036000830152611ae2816118e8565b9050919050565b60006020820190508181036000830152611b028161190b565b9050919050565b6000602082019050611b1e600083018461192e565b92915050565b6000819050602082019050919050565b600081519050919050565b600081519050919050565b600081519050919050565b6000602082019050919050565b600082825260208201905092915050565b600081905092915050565b600082825260208201905092915050565b6000611b9a82611c36565b9150611ba583611c36565b9250827fffffffffffffffffffffffffffffffffffffffffffffffffffffffffffffffff03821115611bda57611bd9611d00565b5b828201905092915050565b6000611bf082611c16565b9050919050565b60008115159050919050565b6000819050611c1182611f2c565b919050565b600073ffffffffffffffffffffffffffffffffffffffff82169050919050565b6000819050919050565b6000611c4b82611c03565b9050919050565b60005b83811015611c70578082015181840152602081019050611c55565b83811115611c7f576000848401525b50505050565b60006002820490506001821680611c9d57607f821691505b60208210811415611cb157611cb0611d5e565b5b50919050565b6000611cc282611c36565b91507fffffffffffffffffffffffffffffffffffffffffffffffffffffffffffffffff821415611cf557611cf4611d00565b5b600182019050919050565b7f4e487b7100000000000000000000000000000000000000000000000000000000600052601160045260246000fd5b7f4e487b7100000000000000000000000000000000000000000000000000000000600052602160045260246000fd5b7f4e487b7100000000000000000000000000000000000000000000000000000000600052602260045260246000fd5b6000601f19601f8301169050919050565b7f4f776e61626c653a206e6577206f776e657220697320746865207a65726f206160008201527f6464726573730000000000000000000000000000000000000000000000000000602082015250565b7f5472616e7366657248656c7065723a3a7472616e7366657246726f6d3a20747260008201527f616e7366657246726f6d206661696c6564000000000000000000000000000000602082015250565b7f5468697320697320697373756520697320636c6f7365642e2043616e6e6f742060008201527f776974686472617720616761696e2e0000000000000000000000000000000000602082015250565b7f4d7573742073656e6420736f6d652076616c7565000000000000000000000000600082015250565b7f4f776e61626c653a2063616c6c6572206973206e6f7420746865206f776e6572600082015250565b7f5472616e7366657248656c7065723a3a736166655472616e736665723a20747260008201527f616e73666572206661696c656400000000000000000000000000000000000000602082015250565b60028110611f3d57611f3c611d2f565b5b50565b611f4981611be5565b8114611f5457600080fd5b50565b611f6081611bf7565b8114611f6b57600080fd5b50565b60028110611f7b57600080fd5b50565b611f8781611c36565b8114611f9257600080fd5b5056fea2646970667358221220ce6ddb7d97295cfeeb15a3aa7a977fb468b7168242c7dd37aca0ff257856053364736f6c63430008040033a26469706673582212203e0aa73ef70015ef02b291bf7662c43ad89285d56a37f0de539c4fad18532c1b64736f6c63430008040033",
  "linkReferences": {},
  "deployedLinkReferences": {}
}