{
  "_format": "hh-sol-artifact-1",
  "contractName": "OpenQ",
  "sourceName": "contracts/OpenQ.sol",
  "abi": [
    {
      "inputs": [
        {
          "internalType": "address",
          "name": "_userAddressStorage",
          "type": "address"
        },
        {
          "internalType": "address",
          "name": "_depositStorage",
          "type": "address"
        }
      ],
      "stateMutability": "nonpayable",
      "type": "constructor"
    },
    {
      "anonymous": false,
      "inputs": [
        {
          "indexed": true,
          "internalType": "address",
          "name": "previousOwner",
          "type": "address"
        },
        {
          "indexed": true,
          "internalType": "address",
          "name": "newOwner",
          "type": "address"
        }
      ],
      "name": "OwnershipTransferred",
      "type": "event"
    },
    {
      "anonymous": false,
      "inputs": [
        {
          "indexed": false,
          "internalType": "address",
          "name": "depositStorage",
          "type": "address"
        }
      ],
      "name": "SetDepositStorageEvent",
      "type": "event"
    },
    {
      "anonymous": false,
      "inputs": [
        {
          "indexed": false,
          "internalType": "address",
          "name": "addressStorage",
          "type": "address"
        }
      ],
      "name": "SetUserAddressStorageEvent",
      "type": "event"
    },
    {
      "inputs": [
        {
          "internalType": "string",
          "name": "_githubUserId",
          "type": "string"
        }
      ],
      "name": "depositEthForGithubUser",
      "outputs": [],
      "stateMutability": "payable",
      "type": "function"
    },
    {
      "inputs": [
        {
          "internalType": "string",
          "name": "_issueId",
          "type": "string"
        }
      ],
      "name": "depositEthForIssue",
      "outputs": [],
      "stateMutability": "payable",
      "type": "function"
    },
    {
      "inputs": [],
      "name": "depositStorage",
      "outputs": [
        {
          "internalType": "contract DepositStorage",
          "name": "",
          "type": "address"
        }
      ],
      "stateMutability": "view",
      "type": "function"
    },
    {
      "inputs": [
        {
          "internalType": "bytes32",
          "name": "",
          "type": "bytes32"
        }
      ],
      "name": "issueWithdrawRequests",
      "outputs": [
        {
          "internalType": "string",
          "name": "issueId",
          "type": "string"
        },
        {
          "internalType": "string",
          "name": "username",
          "type": "string"
        }
      ],
      "stateMutability": "view",
      "type": "function"
    },
    {
      "inputs": [],
      "name": "owner",
      "outputs": [
        {
          "internalType": "address",
          "name": "",
          "type": "address"
        }
      ],
      "stateMutability": "view",
      "type": "function"
    },
    {
      "inputs": [
        {
          "internalType": "uint256",
          "name": "_depositId",
          "type": "uint256"
        }
      ],
      "name": "refundIssueDeposit",
      "outputs": [],
      "stateMutability": "nonpayable",
      "type": "function"
    },
    {
      "inputs": [
        {
          "internalType": "uint256",
          "name": "_depositId",
          "type": "uint256"
        }
      ],
      "name": "refundUserDeposit",
      "outputs": [],
      "stateMutability": "nonpayable",
      "type": "function"
    },
    {
      "inputs": [
        {
          "internalType": "string",
          "name": "_githubUserId",
          "type": "string"
        },
        {
          "internalType": "address",
          "name": "_ethAddress",
          "type": "address"
        }
      ],
      "name": "registerUserAddress",
      "outputs": [],
      "stateMutability": "nonpayable",
      "type": "function"
    },
    {
      "inputs": [],
      "name": "renounceOwnership",
      "outputs": [],
      "stateMutability": "nonpayable",
      "type": "function"
    },
    {
      "inputs": [
        {
          "internalType": "address",
          "name": "_depositStorage",
          "type": "address"
        }
      ],
      "name": "setDepositStorage",
      "outputs": [],
      "stateMutability": "nonpayable",
      "type": "function"
    },
    {
      "inputs": [
        {
          "internalType": "address",
          "name": "_userAddressStorage",
          "type": "address"
        }
      ],
      "name": "setUserAddressStorage",
      "outputs": [],
      "stateMutability": "nonpayable",
      "type": "function"
    },
    {
      "inputs": [
        {
          "internalType": "address",
          "name": "newOwner",
          "type": "address"
        }
      ],
      "name": "transferOwnership",
      "outputs": [],
      "stateMutability": "nonpayable",
      "type": "function"
    },
    {
      "inputs": [
        {
          "internalType": "bytes32",
          "name": "",
          "type": "bytes32"
        }
      ],
      "name": "userAddressRegistrations",
      "outputs": [
        {
          "internalType": "string",
          "name": "githubUserId",
          "type": "string"
        },
        {
          "internalType": "address",
          "name": "ethAddress",
          "type": "address"
        }
      ],
      "stateMutability": "view",
      "type": "function"
    },
    {
      "inputs": [],
      "name": "userAddressStorage",
      "outputs": [
        {
          "internalType": "contract UserAddressStorage",
          "name": "",
          "type": "address"
        }
      ],
      "stateMutability": "view",
      "type": "function"
    },
    {
      "inputs": [
        {
          "internalType": "string",
          "name": "_issueId",
          "type": "string"
        },
        {
          "internalType": "string",
          "name": "_username",
          "type": "string"
        }
      ],
      "name": "withdrawIssueDeposit",
      "outputs": [],
      "stateMutability": "nonpayable",
      "type": "function"
    },
    {
      "inputs": [
        {
          "internalType": "uint256",
          "name": "_depositId",
          "type": "uint256"
        }
      ],
      "name": "withdrawUserDeposit",
      "outputs": [],
      "stateMutability": "nonpayable",
      "type": "function"
    }
  ],
  "bytecode": "0x60806040523480156200001157600080fd5b5060405162001f3338038062001f3383398181016040528101906200003791906200025e565b620000576200004b6200008160201b60201c565b6200008960201b60201c565b62000068826200014d60201b60201c565b6200007981620001ca60201b60201c565b50506200031b565b600033905090565b60008060009054906101000a900473ffffffffffffffffffffffffffffffffffffffff169050816000806101000a81548173ffffffffffffffffffffffffffffffffffffffff021916908373ffffffffffffffffffffffffffffffffffffffff1602179055508173ffffffffffffffffffffffffffffffffffffffff168173ffffffffffffffffffffffffffffffffffffffff167f8be0079c531659141344cd1fd0a4f28419497f9722a3daafe3b4186f6b6457e060405160405180910390a35050565b80600260006101000a81548173ffffffffffffffffffffffffffffffffffffffff021916908373ffffffffffffffffffffffffffffffffffffffff1602179055507f47a741dd6477ca582acb3b97bf19f307712c5699a5afc355ba935a8706e85bf181604051620001bf9190620002b0565b60405180910390a150565b80600160006101000a81548173ffffffffffffffffffffffffffffffffffffffff021916908373ffffffffffffffffffffffffffffffffffffffff1602179055507fa7f1cf8dcbcb1fa8421f563a445c32f7539e77aa7ff1f74a1340e6a07f406402816040516200023c9190620002b0565b60405180910390a150565b600081519050620002588162000301565b92915050565b600080604083850312156200027257600080fd5b6000620002828582860162000247565b9250506020620002958582860162000247565b9150509250929050565b620002aa81620002cd565b82525050565b6000602082019050620002c760008301846200029f565b92915050565b6000620002da82620002e1565b9050919050565b600073ffffffffffffffffffffffffffffffffffffffff82169050919050565b6200030c81620002cd565b81146200031857600080fd5b50565b611c08806200032b6000396000f3fe6080604052600436106100f35760003560e01c80638da5cb5b1161008a578063c4f59d6311610059578063c4f59d63146102f3578063dee2d5671461031e578063f2fde38b14610347578063f4b90ef714610370576100f3565b80638da5cb5b1461025a5780639996f18614610285578063a71cd4eb146102a1578063c315fbca146102ca576100f3565b806360445fb2116100c657806360445fb2146101c85780636ed3aa42146101f1578063715018a61461021a5780638617fc4614610231576100f3565b806324d68914146100f85780633f98b9c714610121578063422c546b1461014c5780635f38dace1461018a575b600080fd5b34801561010457600080fd5b5061011f600480360381019061011a919061136d565b61038c565b005b34801561012d57600080fd5b50610136610414565b604051610143919061170e565b60405180910390f35b34801561015857600080fd5b50610173600480360381019061016e91906113bf565b61043a565b60405161018192919061179a565b60405180910390f35b34801561019657600080fd5b506101b160048036038101906101ac91906113bf565b610506565b6040516101bf9291906117ca565b60405180910390f35b3480156101d457600080fd5b506101ef60048036038101906101ea9190611564565b61063a565b005b3480156101fd57600080fd5b506102186004803603810190610213919061136d565b6106cc565b005b34801561022657600080fd5b5061022f610754565b005b34801561023d57600080fd5b5061025860048036038101906102539190611564565b6107dc565b005b34801561026657600080fd5b5061026f61086e565b60405161027c91906116c1565b60405180910390f35b61029f600480360381019061029a9190611411565b610897565b005b3480156102ad57600080fd5b506102c860048036038101906102c391906114ae565b61092d565b005b3480156102d657600080fd5b506102f160048036038101906102ec9190611564565b610c72565b005b3480156102ff57600080fd5b50610308610db5565b6040516103159190611729565b60405180910390f35b34801561032a57600080fd5b5061034560048036038101906103409190611456565b610ddb565b005b34801561035357600080fd5b5061036e6004803603810190610369919061136d565b610eed565b005b61038a60048036038101906103859190611411565b610fe5565b005b61039461107b565b73ffffffffffffffffffffffffffffffffffffffff166103b261086e565b73ffffffffffffffffffffffffffffffffffffffff1614610408576040517f08c379a00000000000000000000000000000000000000000000000000000000081526004016103ff90611841565b60405180910390fd5b61041181611083565b50565b600160009054906101000a900473ffffffffffffffffffffffffffffffffffffffff1681565b600360205280600052604060002060009150905080600001805461045d90611a0a565b80601f016020809104026020016040519081016040528092919081815260200182805461048990611a0a565b80156104d65780601f106104ab576101008083540402835291602001916104d6565b820191906000526020600020905b8154815290600101906020018083116104b957829003601f168201915b5050505050908060010160009054906101000a900473ffffffffffffffffffffffffffffffffffffffff16905082565b600460205280600052604060002060009150905080600001805461052990611a0a565b80601f016020809104026020016040519081016040528092919081815260200182805461055590611a0a565b80156105a25780601f10610577576101008083540402835291602001916105a2565b820191906000526020600020905b81548152906001019060200180831161058557829003601f168201915b5050505050908060010180546105b790611a0a565b80601f01602080910402602001604051908101604052809291908181526020018280546105e390611a0a565b80156106305780601f1061060557610100808354040283529160200191610630565b820191906000526020600020905b81548152906001019060200180831161061357829003601f168201915b5050505050905082565b600160009054906101000a900473ffffffffffffffffffffffffffffffffffffffff1673ffffffffffffffffffffffffffffffffffffffff166398f5b30282336040518363ffffffff1660e01b8152600401610697929190611861565b600060405180830381600087803b1580156106b157600080fd5b505af11580156106c5573d6000803e3d6000fd5b5050505050565b6106d461107b565b73ffffffffffffffffffffffffffffffffffffffff166106f261086e565b73ffffffffffffffffffffffffffffffffffffffff1614610748576040517f08c379a000000000000000000000000000000000000000000000000000000000815260040161073f90611841565b60405180910390fd5b610751816110fe565b50565b61075c61107b565b73ffffffffffffffffffffffffffffffffffffffff1661077a61086e565b73ffffffffffffffffffffffffffffffffffffffff16146107d0576040517f08c379a00000000000000000000000000000000000000000000000000000000081526004016107c790611841565b60405180910390fd5b6107da6000611179565b565b600160009054906101000a900473ffffffffffffffffffffffffffffffffffffffff1673ffffffffffffffffffffffffffffffffffffffff1663c7c614fa82336040518363ffffffff1660e01b8152600401610839929190611861565b600060405180830381600087803b15801561085357600080fd5b505af1158015610867573d6000803e3d6000fd5b5050505050565b60008060009054906101000a900473ffffffffffffffffffffffffffffffffffffffff16905090565b600160009054906101000a900473ffffffffffffffffffffffffffffffffffffffff1673ffffffffffffffffffffffffffffffffffffffff16639edc06ee348484336040518563ffffffff1660e01b81526004016108f793929190611768565b6000604051808303818588803b15801561091057600080fd5b505af1158015610924573d6000803e3d6000fd5b50505050505050565b61093561107b565b73ffffffffffffffffffffffffffffffffffffffff1661095361086e565b73ffffffffffffffffffffffffffffffffffffffff16146109a9576040517f08c379a00000000000000000000000000000000000000000000000000000000081526004016109a090611841565b60405180910390fd5b600060018111156109e3577f4e487b7100000000000000000000000000000000000000000000000000000000600052602160045260246000fd5b600160009054906101000a900473ffffffffffffffffffffffffffffffffffffffff1673ffffffffffffffffffffffffffffffffffffffff16636a6ab0e986866040518363ffffffff1660e01b8152600401610a40929190611744565b60206040518083038186803b158015610a5857600080fd5b505afa158015610a6c573d6000803e3d6000fd5b505050506040513d601f19601f82011682018060405250810190610a9091906113e8565b6001811115610ac8577f4e487b7100000000000000000000000000000000000000000000000000000000600052602160045260246000fd5b14610b08576040517f08c379a0000000000000000000000000000000000000000000000000000000008152600401610aff90611821565b60405180910390fd5b6000600260009054906101000a900473ffffffffffffffffffffffffffffffffffffffff1673ffffffffffffffffffffffffffffffffffffffff1663bdfe7d4784846040518363ffffffff1660e01b8152600401610b67929190611744565b60206040518083038186803b158015610b7f57600080fd5b505afa158015610b93573d6000803e3d6000fd5b505050506040513d601f19601f82011682018060405250810190610bb79190611396565b9050600160009054906101000a900473ffffffffffffffffffffffffffffffffffffffff1673ffffffffffffffffffffffffffffffffffffffff166345ae77178287876040518463ffffffff1660e01b8152600401610c18939291906116dc565b602060405180830381600087803b158015610c3257600080fd5b505af1158015610c46573d6000803e3d6000fd5b505050506040513d601f19601f82011682018060405250810190610c6a919061158d565b505050505050565b600160009054906101000a900473ffffffffffffffffffffffffffffffffffffffff1673ffffffffffffffffffffffffffffffffffffffff1663e14c375f8233600260009054906101000a900473ffffffffffffffffffffffffffffffffffffffff1673ffffffffffffffffffffffffffffffffffffffff1663c155f9bd336040518263ffffffff1660e01b8152600401610d0d91906116c1565b60006040518083038186803b158015610d2557600080fd5b505afa158015610d39573d6000803e3d6000fd5b505050506040513d6000823e3d601f19601f82011682018060405250810190610d629190611523565b6040518463ffffffff1660e01b8152600401610d809392919061188a565b600060405180830381600087803b158015610d9a57600080fd5b505af1158015610dae573d6000803e3d6000fd5b5050505050565b600260009054906101000a900473ffffffffffffffffffffffffffffffffffffffff1681565b610de361107b565b73ffffffffffffffffffffffffffffffffffffffff16610e0161086e565b73ffffffffffffffffffffffffffffffffffffffff1614610e57576040517f08c379a0000000000000000000000000000000000000000000000000000000008152600401610e4e90611841565b60405180910390fd5b600260009054906101000a900473ffffffffffffffffffffffffffffffffffffffff1673ffffffffffffffffffffffffffffffffffffffff1663cb8401018484846040518463ffffffff1660e01b8152600401610eb693929190611768565b600060405180830381600087803b158015610ed057600080fd5b505af1158015610ee4573d6000803e3d6000fd5b50505050505050565b610ef561107b565b73ffffffffffffffffffffffffffffffffffffffff16610f1361086e565b73ffffffffffffffffffffffffffffffffffffffff1614610f69576040517f08c379a0000000000000000000000000000000000000000000000000000000008152600401610f6090611841565b60405180910390fd5b600073ffffffffffffffffffffffffffffffffffffffff168173ffffffffffffffffffffffffffffffffffffffff161415610fd9576040517f08c379a0000000000000000000000000000000000000000000000000000000008152600401610fd090611801565b60405180910390fd5b610fe281611179565b50565b600160009054906101000a900473ffffffffffffffffffffffffffffffffffffffff1673ffffffffffffffffffffffffffffffffffffffff1663e54f54a9348484336040518563ffffffff1660e01b815260040161104593929190611768565b6000604051808303818588803b15801561105e57600080fd5b505af1158015611072573d6000803e3d6000fd5b50505050505050565b600033905090565b80600160006101000a81548173ffffffffffffffffffffffffffffffffffffffff021916908373ffffffffffffffffffffffffffffffffffffffff1602179055507fa7f1cf8dcbcb1fa8421f563a445c32f7539e77aa7ff1f74a1340e6a07f406402816040516110f391906116c1565b60405180910390a150565b80600260006101000a81548173ffffffffffffffffffffffffffffffffffffffff021916908373ffffffffffffffffffffffffffffffffffffffff1602179055507f47a741dd6477ca582acb3b97bf19f307712c5699a5afc355ba935a8706e85bf18160405161116e91906116c1565b60405180910390a150565b60008060009054906101000a900473ffffffffffffffffffffffffffffffffffffffff169050816000806101000a81548173ffffffffffffffffffffffffffffffffffffffff021916908373ffffffffffffffffffffffffffffffffffffffff1602179055508173ffffffffffffffffffffffffffffffffffffffff168173ffffffffffffffffffffffffffffffffffffffff167f8be0079c531659141344cd1fd0a4f28419497f9722a3daafe3b4186f6b6457e060405160405180910390a35050565b600061125061124b846118ed565b6118c8565b90508281526020810184848401111561126857600080fd5b6112738482856119d7565b509392505050565b60008135905061128a81611b7d565b92915050565b60008151905061129f81611b7d565b92915050565b6000813590506112b481611b94565b92915050565b6000815190506112c981611bab565b92915050565b60008083601f8401126112e157600080fd5b8235905067ffffffffffffffff8111156112fa57600080fd5b60208301915083600182028301111561131257600080fd5b9250929050565b600082601f83011261132a57600080fd5b815161133a84826020860161123d565b91505092915050565b60008135905061135281611bbb565b92915050565b60008151905061136781611bbb565b92915050565b60006020828403121561137f57600080fd5b600061138d8482850161127b565b91505092915050565b6000602082840312156113a857600080fd5b60006113b684828501611290565b91505092915050565b6000602082840312156113d157600080fd5b60006113df848285016112a5565b91505092915050565b6000602082840312156113fa57600080fd5b6000611408848285016112ba565b91505092915050565b6000806020838503121561142457600080fd5b600083013567ffffffffffffffff81111561143e57600080fd5b61144a858286016112cf565b92509250509250929050565b60008060006040848603121561146b57600080fd5b600084013567ffffffffffffffff81111561148557600080fd5b611491868287016112cf565b935093505060206114a48682870161127b565b9150509250925092565b600080600080604085870312156114c457600080fd5b600085013567ffffffffffffffff8111156114de57600080fd5b6114ea878288016112cf565b9450945050602085013567ffffffffffffffff81111561150957600080fd5b611515878288016112cf565b925092505092959194509250565b60006020828403121561153557600080fd5b600082015167ffffffffffffffff81111561154f57600080fd5b61155b84828501611319565b91505092915050565b60006020828403121561157657600080fd5b600061158484828501611343565b91505092915050565b60006020828403121561159f57600080fd5b60006115ad84828501611358565b91505092915050565b6115bf8161193a565b82525050565b6115ce81611980565b82525050565b6115dd816119a4565b82525050565b60006115ef8385611929565b93506115fc8385846119c8565b61160583611acb565b840190509392505050565b600061161b8261191e565b6116258185611929565b93506116358185602086016119d7565b61163e81611acb565b840191505092915050565b6000611656602683611929565b915061166182611adc565b604082019050919050565b6000611679601983611929565b915061168482611b2b565b602082019050919050565b600061169c602083611929565b91506116a782611b54565b602082019050919050565b6116bb81611976565b82525050565b60006020820190506116d660008301846115b6565b92915050565b60006040820190506116f160008301866115b6565b81810360208301526117048184866115e3565b9050949350505050565b600060208201905061172360008301846115c5565b92915050565b600060208201905061173e60008301846115d4565b92915050565b6000602082019050818103600083015261175f8184866115e3565b90509392505050565b600060408201905081810360008301526117838185876115e3565b905061179260208301846115b6565b949350505050565b600060408201905081810360008301526117b48185611610565b90506117c360208301846115b6565b9392505050565b600060408201905081810360008301526117e48185611610565b905081810360208301526117f88184611610565b90509392505050565b6000602082019050818103600083015261181a81611649565b9050919050565b6000602082019050818103600083015261183a8161166c565b9050919050565b6000602082019050818103600083015261185a8161168f565b9050919050565b600060408201905061187660008301856116b2565b61188360208301846115b6565b9392505050565b600060608201905061189f60008301866116b2565b6118ac60208301856115b6565b81810360408301526118be8184611610565b9050949350505050565b60006118d26118e3565b90506118de8282611a3c565b919050565b6000604051905090565b600067ffffffffffffffff82111561190857611907611a9c565b5b61191182611acb565b9050602081019050919050565b600081519050919050565b600082825260208201905092915050565b600061194582611956565b9050919050565b6000819050919050565b600073ffffffffffffffffffffffffffffffffffffffff82169050919050565b6000819050919050565b600061198b82611992565b9050919050565b600061199d82611956565b9050919050565b60006119af826119b6565b9050919050565b60006119c182611956565b9050919050565b82818337600083830152505050565b60005b838110156119f55780820151818401526020810190506119da565b83811115611a04576000848401525b50505050565b60006002820490506001821680611a2257607f821691505b60208210811415611a3657611a35611a6d565b5b50919050565b611a4582611acb565b810181811067ffffffffffffffff82111715611a6457611a63611a9c565b5b80604052505050565b7f4e487b7100000000000000000000000000000000000000000000000000000000600052602260045260246000fd5b7f4e487b7100000000000000000000000000000000000000000000000000000000600052604160045260246000fd5b6000601f19601f8301169050919050565b7f4f776e61626c653a206e6577206f776e657220697320746865207a65726f206160008201527f6464726573730000000000000000000000000000000000000000000000000000602082015250565b7f4f70656e513a204973737565206973206e6f74204f50454e2e00000000000000600082015250565b7f4f776e61626c653a2063616c6c6572206973206e6f7420746865206f776e6572600082015250565b611b868161193a565b8114611b9157600080fd5b50565b611b9d8161194c565b8114611ba857600080fd5b50565b60028110611bb857600080fd5b50565b611bc481611976565b8114611bcf57600080fd5b5056fea2646970667358221220866c209a2b4250b4c7d6f8712e43cf8e00f9cba0fd6da45df369c314ff20724664736f6c63430008040033",
  "linkReferences": {},
  "deployedLinkReferences": {}
}