{
  "_format": "hh-sol-artifact-1",
  "contractName": "OpenQ",
  "sourceName": "contracts/OpenQ.sol",
  "abi": [
    {
      "anonymous": false,
      "inputs": [
        {
          "indexed": false,
          "internalType": "string",
          "name": "bountyId",
          "type": "string"
        },
        {
          "indexed": true,
          "internalType": "address",
          "name": "bountyAddress",
          "type": "address"
        },
        {
          "indexed": true,
          "internalType": "address",
          "name": "payoutAddress",
          "type": "address"
        },
        {
          "indexed": false,
          "internalType": "uint256",
          "name": "bountyClosedTime",
          "type": "uint256"
        }
      ],
      "name": "BountyClosed",
      "type": "event"
    },
    {
      "anonymous": false,
      "inputs": [
        {
          "indexed": false,
          "internalType": "string",
          "name": "bountyId",
          "type": "string"
        },
        {
          "indexed": true,
          "internalType": "address",
          "name": "issuer",
          "type": "address"
        },
        {
          "indexed": true,
          "internalType": "address",
          "name": "bountyAddress",
          "type": "address"
        },
        {
          "indexed": false,
          "internalType": "uint256",
          "name": "bountyMintTime",
          "type": "uint256"
        }
      ],
      "name": "BountyCreated",
      "type": "event"
    },
    {
      "anonymous": false,
      "inputs": [
        {
          "indexed": false,
          "internalType": "string",
          "name": "bountyId",
          "type": "string"
        },
        {
          "indexed": false,
          "internalType": "address",
          "name": "bountyAddress",
          "type": "address"
        },
        {
          "indexed": false,
          "internalType": "address",
          "name": "tokenAddress",
          "type": "address"
        },
        {
          "indexed": false,
          "internalType": "address",
          "name": "sender",
          "type": "address"
        },
        {
          "indexed": false,
          "internalType": "uint256",
          "name": "value",
          "type": "uint256"
        },
        {
          "indexed": false,
          "internalType": "uint256",
          "name": "receiveTime",
          "type": "uint256"
        }
      ],
      "name": "DepositReceived",
      "type": "event"
    },
    {
      "anonymous": false,
      "inputs": [
        {
          "indexed": false,
          "internalType": "string",
          "name": "bountyId",
          "type": "string"
        },
        {
          "indexed": false,
          "internalType": "address",
          "name": "bountyAddress",
          "type": "address"
        },
        {
          "indexed": false,
          "internalType": "address",
          "name": "tokenAddress",
          "type": "address"
        },
        {
          "indexed": false,
          "internalType": "address",
          "name": "funder",
          "type": "address"
        },
        {
          "indexed": false,
          "internalType": "uint256",
          "name": "value",
          "type": "uint256"
        },
        {
          "indexed": false,
          "internalType": "uint256",
          "name": "refundTime",
          "type": "uint256"
        }
      ],
      "name": "DepositRefunded",
      "type": "event"
    },
    {
      "anonymous": false,
      "inputs": [
        {
          "indexed": true,
          "internalType": "address",
          "name": "previousOwner",
          "type": "address"
        },
        {
          "indexed": true,
          "internalType": "address",
          "name": "newOwner",
          "type": "address"
        }
      ],
      "name": "OwnershipTransferred",
      "type": "event"
    },
    {
      "inputs": [
        {
          "internalType": "address",
          "name": "",
          "type": "address"
        }
      ],
      "name": "bountyAddressToBountyId",
      "outputs": [
        {
          "internalType": "string",
          "name": "",
          "type": "string"
        }
      ],
      "stateMutability": "view",
      "type": "function"
    },
    {
      "inputs": [
        {
          "internalType": "string",
          "name": "",
          "type": "string"
        }
      ],
      "name": "bountyIdToAddress",
      "outputs": [
        {
          "internalType": "address",
          "name": "",
          "type": "address"
        }
      ],
      "stateMutability": "view",
      "type": "function"
    },
    {
      "inputs": [
        {
          "internalType": "string",
          "name": "id_",
          "type": "string"
        }
      ],
      "name": "bountyIsOpen",
      "outputs": [
        {
          "internalType": "bool",
          "name": "",
          "type": "bool"
        }
      ],
      "stateMutability": "view",
      "type": "function"
    },
    {
      "inputs": [
        {
          "internalType": "string",
          "name": "_id",
          "type": "string"
        },
        {
          "internalType": "address",
          "name": "_payoutAddress",
          "type": "address"
        }
      ],
      "name": "claimBounty",
      "outputs": [],
      "stateMutability": "nonpayable",
      "type": "function"
    },
    {
      "inputs": [
        {
          "internalType": "address",
          "name": "_bountyAddress",
          "type": "address"
        },
        {
          "internalType": "address",
          "name": "_tokenAddress",
          "type": "address"
        },
        {
          "internalType": "uint256",
          "name": "_value",
          "type": "uint256"
        }
      ],
      "name": "fundBounty",
      "outputs": [
        {
          "internalType": "bool",
          "name": "success",
          "type": "bool"
        }
      ],
      "stateMutability": "nonpayable",
      "type": "function"
    },
    {
      "inputs": [
        {
          "internalType": "string",
          "name": "_id",
          "type": "string"
        }
      ],
      "name": "getBountyAddress",
      "outputs": [
        {
          "internalType": "address",
          "name": "",
          "type": "address"
        }
      ],
      "stateMutability": "view",
      "type": "function"
    },
    {
      "inputs": [
        {
          "internalType": "string",
          "name": "_id",
          "type": "string"
        }
      ],
      "name": "mintBounty",
      "outputs": [
        {
          "internalType": "address",
          "name": "bountyAddress",
          "type": "address"
        }
      ],
      "stateMutability": "nonpayable",
      "type": "function"
    },
    {
      "inputs": [],
      "name": "owner",
      "outputs": [
        {
          "internalType": "address",
          "name": "",
          "type": "address"
        }
      ],
      "stateMutability": "view",
      "type": "function"
    },
    {
      "inputs": [
        {
          "internalType": "address",
          "name": "_bountyAddress",
          "type": "address"
        }
      ],
      "name": "refundBountyDeposits",
      "outputs": [
        {
          "internalType": "bool",
          "name": "success",
          "type": "bool"
        }
      ],
      "stateMutability": "nonpayable",
      "type": "function"
    },
    {
      "inputs": [],
      "name": "renounceOwnership",
      "outputs": [],
      "stateMutability": "nonpayable",
      "type": "function"
    },
    {
      "inputs": [
        {
          "internalType": "address",
          "name": "newOwner",
          "type": "address"
        }
      ],
      "name": "transferOwnership",
      "outputs": [],
      "stateMutability": "nonpayable",
      "type": "function"
    }
  ],
  "bytecode": "0x608060405234801561001057600080fd5b5061002d61002261003260201b60201c565b61003a60201b60201c565b6100fe565b600033905090565b60008060009054906101000a900473ffffffffffffffffffffffffffffffffffffffff169050816000806101000a81548173ffffffffffffffffffffffffffffffffffffffff021916908373ffffffffffffffffffffffffffffffffffffffff1602179055508173ffffffffffffffffffffffffffffffffffffffff168173ffffffffffffffffffffffffffffffffffffffff167f8be0079c531659141344cd1fd0a4f28419497f9722a3daafe3b4186f6b6457e060405160405180910390a35050565b6147d7806200010e6000396000f3fe60806040523480156200001157600080fd5b5060043610620000b85760003560e01c8063715018a6116200007b578063715018a614620001b55780638da5cb5b14620001c1578063b233e6e814620001e3578063f2fde38b1462000219578063fcedbecf1462000239578063fd1b2e3f146200026f57620000b8565b806310fd86c814620000bd5780631b78031214620000f35780631b967a1914620001295780633e7da1a9146200015f57806348bd1e99146200017f575b600080fd5b620000db6004803603810190620000d59190620015fb565b620002a5565b604051620000ea919062001bb4565b60405180910390f35b6200011160048036038101906200010b9190620015fb565b6200034d565b60405162000120919062001b05565b60405180910390f35b62000147600480360381019062000141919062001653565b620008ca565b60405162000156919062001b05565b60405180910390f35b6200017d60048036038101906200017791906200178f565b62000a3b565b005b6200019d6004803603810190620001979190620017ed565b62000c0e565b604051620001ac919062001a51565b60405180910390f35b620001bf62000c57565b005b620001cb62000ce8565b604051620001da919062001a51565b60405180910390f35b620002016004803603810190620001fb919062001746565b62000d11565b60405162000210919062001a51565b60405180910390f35b620002376004803603810190620002319190620015fb565b62000f28565b005b62000257600480360381019062000251919062001746565b6200102c565b60405162000266919062001a51565b60405180910390f35b6200028d600480360381019062000287919062001746565b62001079565b6040516200029c919062001b05565b60405180910390f35b60026020528060005260406000206000915090508054620002c69062001e97565b80601f0160208091040260200160405190810160405280929190818152602001828054620002f49062001e97565b8015620003455780601f10620003195761010080835404028352916020019162000345565b820191906000526020600020905b8154815290600101906020018083116200032757829003601f168201915b505050505081565b6000808290508073ffffffffffffffffffffffffffffffffffffffff1663f16b51c16040518163ffffffff1660e01b815260040160206040518083038186803b1580156200039a57600080fd5b505afa158015620003af573d6000803e3d6000fd5b505050506040513d601f19601f82011682018060405250810190620003d5919062001877565b8173ffffffffffffffffffffffffffffffffffffffff1663995280b06040518163ffffffff1660e01b815260040160206040518083038186803b1580156200041c57600080fd5b505afa15801562000431573d6000803e3d6000fd5b505050506040513d601f19601f8201168201806040525081019062000457919062001877565b62000463919062001dab565b421015620004a8576040517f08c379a00000000000000000000000000000000000000000000000000000000081526004016200049f9062001cb2565b60405180910390fd5b600115158173ffffffffffffffffffffffffffffffffffffffff1663b0100cf7336040518263ffffffff1660e01b8152600401620004e7919062001a51565b60206040518083038186803b1580156200050057600080fd5b505afa15801562000515573d6000803e3d6000fd5b505050506040513d601f19601f820116820180604052508101906200053b9190620016ee565b15151462000580576040517f08c379a0000000000000000000000000000000000000000000000000000000008152600401620005779062001cd4565b60405180910390fd5b60005b8173ffffffffffffffffffffffffffffffffffffffff16631bef5505336040518263ffffffff1660e01b8152600401620005be919062001a51565b60006040518083038186803b158015620005d757600080fd5b505afa158015620005ec573d6000803e3d6000fd5b505050506040513d6000823e3d601f19601f82011682018060405250810190620006179190620016a9565b51811015620008bf5760008273ffffffffffffffffffffffffffffffffffffffff16634b8022b233846040518363ffffffff1660e01b81526004016200065f92919062001ad8565b60206040518083038186803b1580156200067857600080fd5b505afa1580156200068d573d6000803e3d6000fd5b505050506040513d601f19601f82011682018060405250810190620006b3919062001627565b905060008373ffffffffffffffffffffffffffffffffffffffff16636216753b33846040518363ffffffff1660e01b8152600401620006f492919062001a6e565b60206040518083038186803b1580156200070d57600080fd5b505afa15801562000722573d6000803e3d6000fd5b505050506040513d601f19601f8201168201806040525081019062000748919062001877565b90508373ffffffffffffffffffffffffffffffffffffffff166329ffef1533846040518363ffffffff1660e01b81526004016200078792919062001a6e565b602060405180830381600087803b158015620007a257600080fd5b505af1158015620007b7573d6000803e3d6000fd5b505050506040513d601f19601f82011682018060405250810190620007dd9190620016ee565b507fbc113b443ab9ece22eb3343d905e986df983546e3371cbc365fba97593b94ced8473ffffffffffffffffffffffffffffffffffffffff1663c17bd75e6040518163ffffffff1660e01b815260040160006040518083038186803b1580156200084657600080fd5b505afa1580156200085b573d6000803e3d6000fd5b505050506040513d6000823e3d601f19601f8201168201806040525081019062000886919062001832565b87843385426040516200089f9695949392919062001bd8565b60405180910390a150508080620008b69062001f03565b91505062000583565b506001915050919050565b6000808490508073ffffffffffffffffffffffffffffffffffffffff1663b9df819f3386866040518463ffffffff1660e01b81526004016200090f9392919062001a9b565b602060405180830381600087803b1580156200092a57600080fd5b505af11580156200093f573d6000803e3d6000fd5b505050506040513d601f19601f82011682018060405250810190620009659190620016ee565b507fdf8fb1f947918a7be81943d753b8cba90c01098d77dc3f403d1fa7ed26d99c308173ffffffffffffffffffffffffffffffffffffffff1663c17bd75e6040518163ffffffff1660e01b815260040160006040518083038186803b158015620009ce57600080fd5b505afa158015620009e3573d6000803e3d6000fd5b505050506040513d6000823e3d601f19601f8201168201806040525081019062000a0e919062001832565b868633874260405162000a279695949392919062001bd8565b60405180910390a160019150509392505050565b62000a4562001214565b73ffffffffffffffffffffffffffffffffffffffff1662000a6562000ce8565b73ffffffffffffffffffffffffffffffffffffffff161462000abe576040517f08c379a000000000000000000000000000000000000000000000000000000000815260040162000ab59062001c90565b60405180910390fd5b60006001848460405162000ad492919062001a36565b908152602001604051809103902060009054906101000a900473ffffffffffffffffffffffffffffffffffffffff16905060008190508073ffffffffffffffffffffffffffffffffffffffff166398ff8075846040518263ffffffff1660e01b815260040162000b45919062001a51565b602060405180830381600087803b15801562000b6057600080fd5b505af115801562000b75573d6000803e3d6000fd5b505050506040513d601f19601f8201168201806040525081019062000b9b9190620016ee565b508273ffffffffffffffffffffffffffffffffffffffff168273ffffffffffffffffffffffffffffffffffffffff167f3f5b19df17496a8c190dbf520c95de394be95c9b98bad1eaf422447213bc2f6087874260405162000bff9392919062001b7e565b60405180910390a35050505050565b6001818051602081018201805184825260208301602085012081835280955050505050506000915054906101000a900473ffffffffffffffffffffffffffffffffffffffff1681565b62000c6162001214565b73ffffffffffffffffffffffffffffffffffffffff1662000c8162000ce8565b73ffffffffffffffffffffffffffffffffffffffff161462000cda576040517f08c379a000000000000000000000000000000000000000000000000000000000815260040162000cd19062001c90565b60405180910390fd5b62000ce660006200121c565b565b60008060009054906101000a900473ffffffffffffffffffffffffffffffffffffffff16905090565b60008073ffffffffffffffffffffffffffffffffffffffff166001848460405162000d3e92919062001a36565b908152602001604051809103902060009054906101000a900473ffffffffffffffffffffffffffffffffffffffff1673ffffffffffffffffffffffffffffffffffffffff161462000dc6576040517f08c379a000000000000000000000000000000000000000000000000000000000815260040162000dbd9062001c6e565b60405180910390fd5b82823360405162000dd790620012e0565b62000de59392919062001b48565b604051809103906000f08015801562000e02573d6000803e3d6000fd5b509050806001848460405162000e1a92919062001a36565b908152602001604051809103902060006101000a81548173ffffffffffffffffffffffffffffffffffffffff021916908373ffffffffffffffffffffffffffffffffffffffff1602179055508282600260008473ffffffffffffffffffffffffffffffffffffffff1673ffffffffffffffffffffffffffffffffffffffff168152602001908152602001600020919062000eb6929190620012ee565b508073ffffffffffffffffffffffffffffffffffffffff163373ffffffffffffffffffffffffffffffffffffffff167f87a86b33b763eefce19dd1ac6f7eb0f14c2ec41bc04f895ad70b8171fcfaf90385854260405162000f1a9392919062001b7e565b60405180910390a392915050565b62000f3262001214565b73ffffffffffffffffffffffffffffffffffffffff1662000f5262000ce8565b73ffffffffffffffffffffffffffffffffffffffff161462000fab576040517f08c379a000000000000000000000000000000000000000000000000000000000815260040162000fa29062001c90565b60405180910390fd5b600073ffffffffffffffffffffffffffffffffffffffff168173ffffffffffffffffffffffffffffffffffffffff1614156200101e576040517f08c379a0000000000000000000000000000000000000000000000000000000008152600401620010159062001c4c565b60405180910390fd5b62001029816200121c565b50565b6000600183836040516200104292919062001a36565b908152602001604051809103902060009054906101000a900473ffffffffffffffffffffffffffffffffffffffff16905092915050565b6000803073ffffffffffffffffffffffffffffffffffffffff166348bd1e9985856040518363ffffffff1660e01b8152600401620010b992919062001b22565b60206040518083038186803b158015620010d257600080fd5b505afa158015620010e7573d6000803e3d6000fd5b505050506040513d601f19601f820116820180604052508101906200110d919062001627565b905060008060018111156200114b577f4e487b7100000000000000000000000000000000000000000000000000000000600052602160045260246000fd5b8273ffffffffffffffffffffffffffffffffffffffff1663200d2ed26040518163ffffffff1660e01b815260040160206040518083038186803b1580156200119257600080fd5b505afa158015620011a7573d6000803e3d6000fd5b505050506040513d601f19601f82011682018060405250810190620011cd91906200171a565b600181111562001206577f4e487b7100000000000000000000000000000000000000000000000000000000600052602160045260246000fd5b149050809250505092915050565b600033905090565b60008060009054906101000a900473ffffffffffffffffffffffffffffffffffffffff169050816000806101000a81548173ffffffffffffffffffffffffffffffffffffffff021916908373ffffffffffffffffffffffffffffffffffffffff1602179055508173ffffffffffffffffffffffffffffffffffffffff168173ffffffffffffffffffffffffffffffffffffffff167f8be0079c531659141344cd1fd0a4f28419497f9722a3daafe3b4186f6b6457e060405160405180910390a35050565b6125c880620021da83390190565b828054620012fc9062001e97565b90600052602060002090601f0160209004810192826200132057600085556200136c565b82601f106200133b57803560ff19168380011785556200136c565b828001600101855582156200136c579182015b828111156200136b5782358255916020019190600101906200134e565b5b5090506200137b91906200137f565b5090565b5b808211156200139a57600081600090555060010162001380565b5090565b6000620013b5620013af8462001d1f565b62001cf6565b90508083825260208201905082856020860282011115620013d557600080fd5b60005b85811015620014095781620013ee8882620014b4565b845260208401935060208301925050600181019050620013d8565b5050509392505050565b60006200142a620014248462001d4e565b62001cf6565b9050828152602081018484840111156200144357600080fd5b6200145084828562001e52565b509392505050565b60006200146f620014698462001d4e565b62001cf6565b9050828152602081018484840111156200148857600080fd5b6200149584828562001e61565b509392505050565b600081359050620014ae816200217a565b92915050565b600081519050620014c5816200217a565b92915050565b600082601f830112620014dd57600080fd5b8151620014ef8482602086016200139e565b91505092915050565b600081519050620015098162002194565b92915050565b6000815190506200152081620021ae565b92915050565b60008083601f8401126200153957600080fd5b8235905067ffffffffffffffff8111156200155357600080fd5b6020830191508360018202830111156200156c57600080fd5b9250929050565b600082601f8301126200158557600080fd5b81356200159784826020860162001413565b91505092915050565b600082601f830112620015b257600080fd5b8151620015c484826020860162001458565b91505092915050565b600081359050620015de81620021bf565b92915050565b600081519050620015f581620021bf565b92915050565b6000602082840312156200160e57600080fd5b60006200161e848285016200149d565b91505092915050565b6000602082840312156200163a57600080fd5b60006200164a84828501620014b4565b91505092915050565b6000806000606084860312156200166957600080fd5b600062001679868287016200149d565b93505060206200168c868287016200149d565b92505060406200169f86828701620015cd565b9150509250925092565b600060208284031215620016bc57600080fd5b600082015167ffffffffffffffff811115620016d757600080fd5b620016e584828501620014cb565b91505092915050565b6000602082840312156200170157600080fd5b60006200171184828501620014f8565b91505092915050565b6000602082840312156200172d57600080fd5b60006200173d848285016200150f565b91505092915050565b600080602083850312156200175a57600080fd5b600083013567ffffffffffffffff8111156200177557600080fd5b620017838582860162001526565b92509250509250929050565b600080600060408486031215620017a557600080fd5b600084013567ffffffffffffffff811115620017c057600080fd5b620017ce8682870162001526565b93509350506020620017e3868287016200149d565b9150509250925092565b6000602082840312156200180057600080fd5b600082013567ffffffffffffffff8111156200181b57600080fd5b620018298482850162001573565b91505092915050565b6000602082840312156200184557600080fd5b600082015167ffffffffffffffff8111156200186057600080fd5b6200186e84828501620015a0565b91505092915050565b6000602082840312156200188a57600080fd5b60006200189a84828501620015e4565b91505092915050565b620018ae8162001e08565b82525050565b620018bf8162001e1c565b82525050565b6000620018d3838562001d8f565b9350620018e283858462001e52565b620018ed8362001fde565b840190509392505050565b600062001906838562001da0565b93506200191583858462001e52565b82840190509392505050565b60006200192e8262001d84565b6200193a818562001d8f565b93506200194c81856020860162001e61565b620019578162001fde565b840191505092915050565b60006200197160268362001d8f565b91506200197e8262001fef565b604082019050919050565b60006200199860748362001d8f565b9150620019a5826200203e565b608082019050919050565b6000620019bf60208362001d8f565b9150620019cc82620020d9565b602082019050919050565b6000620019e6601b8362001d8f565b9150620019f38262002102565b602082019050919050565b600062001a0d603c8362001d8f565b915062001a1a826200212b565b604082019050919050565b62001a308162001e48565b82525050565b600062001a45828486620018f8565b91508190509392505050565b600060208201905062001a686000830184620018a3565b92915050565b600060408201905062001a856000830185620018a3565b62001a946020830184620018a3565b9392505050565b600060608201905062001ab26000830186620018a3565b62001ac16020830185620018a3565b62001ad0604083018462001a25565b949350505050565b600060408201905062001aef6000830185620018a3565b62001afe602083018462001a25565b9392505050565b600060208201905062001b1c6000830184620018b4565b92915050565b6000602082019050818103600083015262001b3f818486620018c5565b90509392505050565b6000604082019050818103600083015262001b65818587620018c5565b905062001b766020830184620018a3565b949350505050565b6000604082019050818103600083015262001b9b818587620018c5565b905062001bac602083018462001a25565b949350505050565b6000602082019050818103600083015262001bd0818462001921565b905092915050565b600060c082019050818103600083015262001bf4818962001921565b905062001c056020830188620018a3565b62001c146040830187620018a3565b62001c236060830186620018a3565b62001c32608083018562001a25565b62001c4160a083018462001a25565b979650505050505050565b6000602082019050818103600083015262001c678162001962565b9050919050565b6000602082019050818103600083015262001c898162001989565b9050919050565b6000602082019050818103600083015262001cab81620019b0565b9050919050565b6000602082019050818103600083015262001ccd81620019d7565b9050919050565b6000602082019050818103600083015262001cef81620019fe565b9050919050565b600062001d0262001d15565b905062001d10828262001ecd565b919050565b6000604051905090565b600067ffffffffffffffff82111562001d3d5762001d3c62001faf565b5b602082029050602081019050919050565b600067ffffffffffffffff82111562001d6c5762001d6b62001faf565b5b62001d778262001fde565b9050602081019050919050565b600081519050919050565b600082825260208201905092915050565b600081905092915050565b600062001db88262001e48565b915062001dc58362001e48565b9250827fffffffffffffffffffffffffffffffffffffffffffffffffffffffffffffffff0382111562001dfd5762001dfc62001f51565b5b828201905092915050565b600062001e158262001e28565b9050919050565b60008115159050919050565b600073ffffffffffffffffffffffffffffffffffffffff82169050919050565b6000819050919050565b82818337600083830152505050565b60005b8381101562001e8157808201518184015260208101905062001e64565b8381111562001e91576000848401525b50505050565b6000600282049050600182168062001eb057607f821691505b6020821081141562001ec75762001ec662001f80565b5b50919050565b62001ed88262001fde565b810181811067ffffffffffffffff8211171562001efa5762001ef962001faf565b5b80604052505050565b600062001f108262001e48565b91507fffffffffffffffffffffffffffffffffffffffffffffffffffffffffffffffff82141562001f465762001f4562001f51565b5b600182019050919050565b7f4e487b7100000000000000000000000000000000000000000000000000000000600052601160045260246000fd5b7f4e487b7100000000000000000000000000000000000000000000000000000000600052602260045260246000fd5b7f4e487b7100000000000000000000000000000000000000000000000000000000600052604160045260246000fd5b6000601f19601f8301169050919050565b7f4f776e61626c653a206e6577206f776e657220697320746865207a65726f206160008201527f6464726573730000000000000000000000000000000000000000000000000000602082015250565b7f426f756e747920616c72656164792065786973747320666f7220676976656e2060008201527f69642e2046696e642069747320616464726573732062792063616c6c696e672060208201527f626f756e74794964546f41646472657373206f6e207468697320636f6e74726160408201527f637420776974682074686520626f756e74794964000000000000000000000000606082015250565b7f4f776e61626c653a2063616c6c6572206973206e6f7420746865206f776e6572600082015250565b7f546f6f206561726c7920746f2077697468647261772066756e64730000000000600082015250565b7f4f6e6c792066756e64657273206f66207468697320626f756e74792063616e2060008201527f7265636c61696d2066756e647320616674657220333020646179732e00000000602082015250565b620021858162001e08565b81146200219157600080fd5b50565b6200219f8162001e1c565b8114620021ab57600080fd5b50565b60028110620021bc57600080fd5b50565b620021ca8162001e48565b8114620021d657600080fd5b5056fe608060405262278d006009553480156200001857600080fd5b50604051620025c8380380620025c883398181016040528101906200003e91906200031e565b6200005e620000526200011960201b60201c565b6200012160201b60201c565b816006908051906020019062000076929190620001e5565b506000600b60146101000a81548160ff02191690836001811115620000c4577f4e487b7100000000000000000000000000000000000000000000000000000000600052602160045260246000fd5b021790555080600a60006101000a81548173ffffffffffffffffffffffffffffffffffffffff021916908373ffffffffffffffffffffffffffffffffffffffff16021790555042600781905550505062000536565b600033905090565b60008060009054906101000a900473ffffffffffffffffffffffffffffffffffffffff169050816000806101000a81548173ffffffffffffffffffffffffffffffffffffffff021916908373ffffffffffffffffffffffffffffffffffffffff1602179055508173ffffffffffffffffffffffffffffffffffffffff168173ffffffffffffffffffffffffffffffffffffffff167f8be0079c531659141344cd1fd0a4f28419497f9722a3daafe3b4186f6b6457e060405160405180910390a35050565b828054620001f39062000441565b90600052602060002090601f01602090048101928262000217576000855562000263565b82601f106200023257805160ff191683800117855562000263565b8280016001018555821562000263579182015b828111156200026257825182559160200191906001019062000245565b5b50905062000272919062000276565b5090565b5b808211156200029157600081600090555060010162000277565b5090565b6000620002ac620002a684620003a1565b62000378565b905082815260208101848484011115620002c557600080fd5b620002d28482856200040b565b509392505050565b600081519050620002eb816200051c565b92915050565b600082601f8301126200030357600080fd5b81516200031584826020860162000295565b91505092915050565b600080604083850312156200033257600080fd5b600083015167ffffffffffffffff8111156200034d57600080fd5b6200035b85828601620002f1565b92505060206200036e85828601620002da565b9150509250929050565b60006200038462000397565b905062000392828262000477565b919050565b6000604051905090565b600067ffffffffffffffff821115620003bf57620003be620004dc565b5b620003ca826200050b565b9050602081019050919050565b6000620003e482620003eb565b9050919050565b600073ffffffffffffffffffffffffffffffffffffffff82169050919050565b60005b838110156200042b5780820151818401526020810190506200040e565b838111156200043b576000848401525b50505050565b600060028204905060018216806200045a57607f821691505b60208210811415620004715762000470620004ad565b5b50919050565b62000482826200050b565b810181811067ffffffffffffffff82111715620004a457620004a3620004dc565b5b80604052505050565b7f4e487b7100000000000000000000000000000000000000000000000000000000600052602260045260246000fd5b7f4e487b7100000000000000000000000000000000000000000000000000000000600052604160045260246000fd5b6000601f19601f8301169050919050565b6200052781620003d7565b81146200053357600080fd5b50565b61208280620005466000396000f3fe608060405234801561001057600080fd5b50600436106101375760003560e01c8063995280b0116100b8578063cb4436b71161007c578063cb4436b71461037a578063d405123e14610398578063df9229f0146103c8578063f16b51c1146103f8578063f2fde38b14610416578063fc5d2cf41461043257610137565b8063995280b0146102ae578063b0100cf7146102cc578063b588d225146102fc578063b9df819f1461032c578063c17bd75e1461035c57610137565b80636216753b116100ff5780636216753b146102085780637044f28214610238578063715018a6146102565780638da5cb5b1461026057806398ff80751461027e57610137565b80631bef55051461013c5780631d1438481461016c578063200d2ed21461018a57806329ffef15146101a85780634b8022b2146101d8575b600080fd5b61015660048036038101906101519190611663565b610450565b6040516101639190611a86565b60405180910390f35b61017461051d565b6040516101819190611a0b565b60405180910390f35b610192610543565b60405161019f9190611ac3565b60405180910390f35b6101c260048036038101906101bd919061168c565b610556565b6040516101cf9190611aa8565b60405180910390f35b6101f260048036038101906101ed9190611717565b610665565b6040516101ff9190611a0b565b60405180910390f35b610222600480360381019061021d919061168c565b6106b3565b60405161022f9190611bc0565b60405180910390f35b6102406106d8565b60405161024d9190611a0b565b60405180910390f35b61025e6106fe565b005b610268610786565b6040516102759190611a0b565b60405180910390f35b61029860048036038101906102939190611663565b6107af565b6040516102a59190611aa8565b60405180910390f35b6102b6610ba3565b6040516102c39190611bc0565b60405180910390f35b6102e660048036038101906102e19190611663565b610ba9565b6040516102f39190611aa8565b60405180910390f35b61031660048036038101906103119190611663565b610bc9565b6040516103239190611bc0565b60405180910390f35b610346600480360381019061034191906116c8565b610c60565b6040516103539190611aa8565b60405180910390f35b610364611048565b6040516103719190611ade565b60405180910390f35b6103826110d6565b60405161038f9190611bc0565b60405180910390f35b6103b260048036038101906103ad9190611663565b6110dc565b6040516103bf9190611bc0565b60405180910390f35b6103e260048036038101906103dd91906117a5565b6110f4565b6040516103ef9190611a0b565b60405180910390f35b610400611133565b60405161040d9190611bc0565b60405180910390f35b610430600480360381019061042b9190611663565b611139565b005b61043a611231565b6040516104479190611a86565b60405180910390f35b6060600360008373ffffffffffffffffffffffffffffffffffffffff1673ffffffffffffffffffffffffffffffffffffffff16815260200190815260200160002080548060200260200160405190810160405280929190818152602001828054801561051157602002820191906000526020600020905b8160009054906101000a900473ffffffffffffffffffffffffffffffffffffffff1673ffffffffffffffffffffffffffffffffffffffff16815260200190600101908083116104c7575b50505050509050919050565b600a60009054906101000a900473ffffffffffffffffffffffffffffffffffffffff1681565b600b60149054906101000a900460ff1681565b60006105606112bf565b73ffffffffffffffffffffffffffffffffffffffff1661057e610786565b73ffffffffffffffffffffffffffffffffffffffff16146105d4576040517f08c379a00000000000000000000000000000000000000000000000000000000081526004016105cb90611b80565b60405180910390fd5b61065b8284600460008773ffffffffffffffffffffffffffffffffffffffff1673ffffffffffffffffffffffffffffffffffffffff16815260200190815260200160002060008673ffffffffffffffffffffffffffffffffffffffff1673ffffffffffffffffffffffffffffffffffffffff168152602001908152602001600020546112c7565b6001905092915050565b6003602052816000526040600020818154811061068157600080fd5b906000526020600020016000915091509054906101000a900473ffffffffffffffffffffffffffffffffffffffff1681565b6004602052816000526040600020602052806000526040600020600091509150505481565b600b60009054906101000a900473ffffffffffffffffffffffffffffffffffffffff1681565b6107066112bf565b73ffffffffffffffffffffffffffffffffffffffff16610724610786565b73ffffffffffffffffffffffffffffffffffffffff161461077a576040517f08c379a000000000000000000000000000000000000000000000000000000000815260040161077190611b80565b60405180910390fd5b61078460006113fd565b565b60008060009054906101000a900473ffffffffffffffffffffffffffffffffffffffff16905090565b60006107b96112bf565b73ffffffffffffffffffffffffffffffffffffffff166107d7610786565b73ffffffffffffffffffffffffffffffffffffffff161461082d576040517f08c379a000000000000000000000000000000000000000000000000000000000815260040161082490611b80565b60405180910390fd5b60006001811115610867577f4e487b7100000000000000000000000000000000000000000000000000000000600052602160045260246000fd5b3073ffffffffffffffffffffffffffffffffffffffff1663200d2ed26040518163ffffffff1660e01b815260040160206040518083038186803b1580156108ad57600080fd5b505afa1580156108c1573d6000803e3d6000fd5b505050506040513d601f19601f820116820180604052508101906108e5919061177c565b600181111561091d577f4e487b7100000000000000000000000000000000000000000000000000000000600052602160045260246000fd5b1461095d576040517f08c379a000000000000000000000000000000000000000000000000000000000815260040161095490611b60565b60405180910390fd5b60005b600180549050811015610b00576000600182815481106109a9577f4e487b7100000000000000000000000000000000000000000000000000000000600052603260045260246000fd5b9060005260206000200160009054906101000a900473ffffffffffffffffffffffffffffffffffffffff1690508073ffffffffffffffffffffffffffffffffffffffff1663a9059cbb858373ffffffffffffffffffffffffffffffffffffffff166370a08231306040518263ffffffff1660e01b8152600401610a2c9190611a0b565b60206040518083038186803b158015610a4457600080fd5b505afa158015610a58573d6000803e3d6000fd5b505050506040513d601f19601f82011682018060405250810190610a7c91906117ce565b6040518363ffffffff1660e01b8152600401610a99929190611a5d565b602060405180830381600087803b158015610ab357600080fd5b505af1158015610ac7573d6000803e3d6000fd5b505050506040513d601f19601f82011682018060405250810190610aeb9190611753565b50508080610af890611d6e565b915050610960565b506001600b60146101000a81548160ff02191690836001811115610b4d577f4e487b7100000000000000000000000000000000000000000000000000000000600052602160045260246000fd5b021790555081600b60006101000a81548173ffffffffffffffffffffffffffffffffffffffff021916908373ffffffffffffffffffffffffffffffffffffffff1602179055504260088190555060019050919050565b60075481565b60056020528060005260406000206000915054906101000a900460ff1681565b6000808290508073ffffffffffffffffffffffffffffffffffffffff166370a08231306040518263ffffffff1660e01b8152600401610c089190611a0b565b60206040518083038186803b158015610c2057600080fd5b505afa158015610c34573d6000803e3d6000fd5b505050506040513d601f19601f82011682018060405250810190610c5891906117ce565b915050919050565b6000610c6a6112bf565b73ffffffffffffffffffffffffffffffffffffffff16610c88610786565b73ffffffffffffffffffffffffffffffffffffffff1614610cde576040517f08c379a0000000000000000000000000000000000000000000000000000000008152600401610cd590611b80565b60405180910390fd5b6000821415610d22576040517f08c379a0000000000000000000000000000000000000000000000000000000008152600401610d1990611b40565b60405180910390fd5b610d2e838530856114c1565b6001600560008673ffffffffffffffffffffffffffffffffffffffff1673ffffffffffffffffffffffffffffffffffffffff16815260200190815260200160002060006101000a81548160ff0219169083151502179055506000600260008573ffffffffffffffffffffffffffffffffffffffff1673ffffffffffffffffffffffffffffffffffffffff168152602001908152602001600020541415610e32576001839080600181540180825580915050600190039060005260206000200160009091909190916101000a81548173ffffffffffffffffffffffffffffffffffffffff021916908373ffffffffffffffffffffffffffffffffffffffff1602179055505b6000600460008673ffffffffffffffffffffffffffffffffffffffff1673ffffffffffffffffffffffffffffffffffffffff16815260200190815260200160002060008573ffffffffffffffffffffffffffffffffffffffff1673ffffffffffffffffffffffffffffffffffffffff168152602001908152602001600020541415610f5857600360008573ffffffffffffffffffffffffffffffffffffffff1673ffffffffffffffffffffffffffffffffffffffff168152602001908152602001600020839080600181540180825580915050600190039060005260206000200160009091909190916101000a81548173ffffffffffffffffffffffffffffffffffffffff021916908373ffffffffffffffffffffffffffffffffffffffff1602179055505b81600260008573ffffffffffffffffffffffffffffffffffffffff1673ffffffffffffffffffffffffffffffffffffffff1681526020019081526020016000206000828254610fa79190611c46565b9250508190555081600460008673ffffffffffffffffffffffffffffffffffffffff1673ffffffffffffffffffffffffffffffffffffffff16815260200190815260200160002060008573ffffffffffffffffffffffffffffffffffffffff1673ffffffffffffffffffffffffffffffffffffffff168152602001908152602001600020600082825461103a9190611c46565b925050819055509392505050565b6006805461105590611d3c565b80601f016020809104026020016040519081016040528092919081815260200182805461108190611d3c565b80156110ce5780601f106110a3576101008083540402835291602001916110ce565b820191906000526020600020905b8154815290600101906020018083116110b157829003601f168201915b505050505081565b60085481565b60026020528060005260406000206000915090505481565b6001818154811061110457600080fd5b906000526020600020016000915054906101000a900473ffffffffffffffffffffffffffffffffffffffff1681565b60095481565b6111416112bf565b73ffffffffffffffffffffffffffffffffffffffff1661115f610786565b73ffffffffffffffffffffffffffffffffffffffff16146111b5576040517f08c379a00000000000000000000000000000000000000000000000000000000081526004016111ac90611b80565b60405180910390fd5b600073ffffffffffffffffffffffffffffffffffffffff168173ffffffffffffffffffffffffffffffffffffffff161415611225576040517f08c379a000000000000000000000000000000000000000000000000000000000815260040161121c90611b00565b60405180910390fd5b61122e816113fd565b50565b606060018054806020026020016040519081016040528092919081815260200182805480156112b557602002820191906000526020600020905b8160009054906101000a900473ffffffffffffffffffffffffffffffffffffffff1673ffffffffffffffffffffffffffffffffffffffff168152602001906001019080831161126b575b5050505050905090565b600033905090565b6000808473ffffffffffffffffffffffffffffffffffffffff1663a9059cbb85856040516024016112f9929190611a5d565b6040516020818303038152906040529060e01b6020820180517bffffffffffffffffffffffffffffffffffffffffffffffffffffffff838183161783525050505060405161134791906119f4565b6000604051808303816000865af19150503d8060008114611384576040519150601f19603f3d011682016040523d82523d6000602084013e611389565b606091505b50915091508180156113b757506000815114806113b65750808060200190518101906113b59190611753565b5b5b6113f6576040517f08c379a00000000000000000000000000000000000000000000000000000000081526004016113ed90611ba0565b60405180910390fd5b5050505050565b60008060009054906101000a900473ffffffffffffffffffffffffffffffffffffffff169050816000806101000a81548173ffffffffffffffffffffffffffffffffffffffff021916908373ffffffffffffffffffffffffffffffffffffffff1602179055508173ffffffffffffffffffffffffffffffffffffffff168173ffffffffffffffffffffffffffffffffffffffff167f8be0079c531659141344cd1fd0a4f28419497f9722a3daafe3b4186f6b6457e060405160405180910390a35050565b6000808573ffffffffffffffffffffffffffffffffffffffff166323b872dd8686866040516024016114f593929190611a26565b6040516020818303038152906040529060e01b6020820180517bffffffffffffffffffffffffffffffffffffffffffffffffffffffff838183161783525050505060405161154391906119f4565b6000604051808303816000865af19150503d8060008114611580576040519150601f19603f3d011682016040523d82523d6000602084013e611585565b606091505b50915091508180156115b357506000815114806115b25750808060200190518101906115b19190611753565b5b5b6115f2576040517f08c379a00000000000000000000000000000000000000000000000000000000081526004016115e990611b20565b60405180910390fd5b505050505050565b60008135905061160981611ff7565b92915050565b60008151905061161e8161200e565b92915050565b60008151905061163381612025565b92915050565b60008135905061164881612035565b92915050565b60008151905061165d81612035565b92915050565b60006020828403121561167557600080fd5b6000611683848285016115fa565b91505092915050565b6000806040838503121561169f57600080fd5b60006116ad858286016115fa565b92505060206116be858286016115fa565b9150509250929050565b6000806000606084860312156116dd57600080fd5b60006116eb868287016115fa565b93505060206116fc868287016115fa565b925050604061170d86828701611639565b9150509250925092565b6000806040838503121561172a57600080fd5b6000611738858286016115fa565b925050602061174985828601611639565b9150509250929050565b60006020828403121561176557600080fd5b60006117738482850161160f565b91505092915050565b60006020828403121561178e57600080fd5b600061179c84828501611624565b91505092915050565b6000602082840312156117b757600080fd5b60006117c584828501611639565b91505092915050565b6000602082840312156117e057600080fd5b60006117ee8482850161164e565b91505092915050565b6000611803838361180f565b60208301905092915050565b61181881611c9c565b82525050565b61182781611c9c565b82525050565b600061183882611beb565b6118428185611c19565b935061184d83611bdb565b8060005b8381101561187e57815161186588826117f7565b975061187083611c0c565b925050600181019050611851565b5085935050505092915050565b61189481611cae565b82525050565b60006118a582611bf6565b6118af8185611c2a565b93506118bf818560208601611d09565b80840191505092915050565b6118d481611cf7565b82525050565b60006118e582611c01565b6118ef8185611c35565b93506118ff818560208601611d09565b61190881611e44565b840191505092915050565b6000611920602683611c35565b915061192b82611e55565b604082019050919050565b6000611943603183611c35565b915061194e82611ea4565b604082019050919050565b6000611966601483611c35565b915061197182611ef3565b602082019050919050565b6000611989603083611c35565b915061199482611f1c565b604082019050919050565b60006119ac602083611c35565b91506119b782611f6b565b602082019050919050565b60006119cf602d83611c35565b91506119da82611f94565b604082019050919050565b6119ee81611ced565b82525050565b6000611a00828461189a565b915081905092915050565b6000602082019050611a20600083018461181e565b92915050565b6000606082019050611a3b600083018661181e565b611a48602083018561181e565b611a5560408301846119e5565b949350505050565b6000604082019050611a72600083018561181e565b611a7f60208301846119e5565b9392505050565b60006020820190508181036000830152611aa0818461182d565b905092915050565b6000602082019050611abd600083018461188b565b92915050565b6000602082019050611ad860008301846118cb565b92915050565b60006020820190508181036000830152611af881846118da565b905092915050565b60006020820190508181036000830152611b1981611913565b9050919050565b60006020820190508181036000830152611b3981611936565b9050919050565b60006020820190508181036000830152611b5981611959565b9050919050565b60006020820190508181036000830152611b798161197c565b9050919050565b60006020820190508181036000830152611b998161199f565b9050919050565b60006020820190508181036000830152611bb9816119c2565b9050919050565b6000602082019050611bd560008301846119e5565b92915050565b6000819050602082019050919050565b600081519050919050565b600081519050919050565b600081519050919050565b6000602082019050919050565b600082825260208201905092915050565b600081905092915050565b600082825260208201905092915050565b6000611c5182611ced565b9150611c5c83611ced565b9250827fffffffffffffffffffffffffffffffffffffffffffffffffffffffffffffffff03821115611c9157611c90611db7565b5b828201905092915050565b6000611ca782611ccd565b9050919050565b60008115159050919050565b6000819050611cc882611fe3565b919050565b600073ffffffffffffffffffffffffffffffffffffffff82169050919050565b6000819050919050565b6000611d0282611cba565b9050919050565b60005b83811015611d27578082015181840152602081019050611d0c565b83811115611d36576000848401525b50505050565b60006002820490506001821680611d5457607f821691505b60208210811415611d6857611d67611e15565b5b50919050565b6000611d7982611ced565b91507fffffffffffffffffffffffffffffffffffffffffffffffffffffffffffffffff821415611dac57611dab611db7565b5b600182019050919050565b7f4e487b7100000000000000000000000000000000000000000000000000000000600052601160045260246000fd5b7f4e487b7100000000000000000000000000000000000000000000000000000000600052602160045260246000fd5b7f4e487b7100000000000000000000000000000000000000000000000000000000600052602260045260246000fd5b6000601f19601f8301169050919050565b7f4f776e61626c653a206e6577206f776e657220697320746865207a65726f206160008201527f6464726573730000000000000000000000000000000000000000000000000000602082015250565b7f5472616e7366657248656c7065723a3a7472616e7366657246726f6d3a20747260008201527f616e7366657246726f6d206661696c6564000000000000000000000000000000602082015250565b7f4d7573742073656e6420736f6d652076616c7565000000000000000000000000600082015250565b7f5468697320697320626f756e747920697320636c6f7365642e2043616e6e6f7460008201527f20776974686472617720616761696e2e00000000000000000000000000000000602082015250565b7f4f776e61626c653a2063616c6c6572206973206e6f7420746865206f776e6572600082015250565b7f5472616e7366657248656c7065723a3a736166655472616e736665723a20747260008201527f616e73666572206661696c656400000000000000000000000000000000000000602082015250565b60028110611ff457611ff3611de6565b5b50565b61200081611c9c565b811461200b57600080fd5b50565b61201781611cae565b811461202257600080fd5b50565b6002811061203257600080fd5b50565b61203e81611ced565b811461204957600080fd5b5056fea2646970667358221220c4c8741d8c0daeb67b6443d30205c4a67971da2349e075639463b5129b4cf69764736f6c63430008040033a26469706673582212205a2ae6a385091b65b1c17b57b03a16bee67ba2258a147e92c391f68b9a3e4a8d64736f6c63430008040033",
  "linkReferences": {},
  "deployedLinkReferences": {}
}