{
  "_format": "hh-sol-artifact-1",
  "contractName": "OpenQ",
  "sourceName": "contracts/OpenQ.sol",
  "abi": [
    {
      "anonymous": false,
      "inputs": [
        {
          "indexed": true,
          "internalType": "address",
          "name": "funder",
          "type": "address"
        },
        {
          "indexed": false,
          "internalType": "address",
          "name": "tokenAddress",
          "type": "address"
        },
        {
          "indexed": false,
          "internalType": "uint256",
          "name": "value",
          "type": "uint256"
        },
        {
          "indexed": false,
          "internalType": "uint256",
          "name": "refundTime",
          "type": "uint256"
        }
      ],
      "name": "DepositsRefunded",
      "type": "event"
    },
    {
      "anonymous": false,
      "inputs": [
        {
          "indexed": true,
          "internalType": "address",
          "name": "sender",
          "type": "address"
        },
        {
          "indexed": false,
          "internalType": "address",
          "name": "tokenAddress",
          "type": "address"
        },
        {
          "indexed": false,
          "internalType": "string",
          "name": "symbol",
          "type": "string"
        },
        {
          "indexed": false,
          "internalType": "uint256",
          "name": "value",
          "type": "uint256"
        },
        {
          "indexed": false,
          "internalType": "uint256",
          "name": "receiveTime",
          "type": "uint256"
        }
      ],
      "name": "FundsReceived",
      "type": "event"
    },
    {
      "anonymous": false,
      "inputs": [
        {
          "indexed": false,
          "internalType": "string",
          "name": "issueId",
          "type": "string"
        },
        {
          "indexed": true,
          "internalType": "address",
          "name": "issueAddress",
          "type": "address"
        },
        {
          "indexed": true,
          "internalType": "address",
          "name": "payoutAddress",
          "type": "address"
        },
        {
          "indexed": false,
          "internalType": "uint256",
          "name": "issueClosedTime",
          "type": "uint256"
        }
      ],
      "name": "IssueClosed",
      "type": "event"
    },
    {
      "anonymous": false,
      "inputs": [
        {
          "indexed": false,
          "internalType": "string",
          "name": "issueId",
          "type": "string"
        },
        {
          "indexed": true,
          "internalType": "address",
          "name": "issuer",
          "type": "address"
        },
        {
          "indexed": true,
          "internalType": "address",
          "name": "issueAddress",
          "type": "address"
        },
        {
          "indexed": false,
          "internalType": "address[]",
          "name": "tokenAddresses",
          "type": "address[]"
        },
        {
          "indexed": false,
          "internalType": "uint256",
          "name": "issueMintTime",
          "type": "uint256"
        }
      ],
      "name": "IssueCreated",
      "type": "event"
    },
    {
      "anonymous": false,
      "inputs": [
        {
          "indexed": true,
          "internalType": "address",
          "name": "previousOwner",
          "type": "address"
        },
        {
          "indexed": true,
          "internalType": "address",
          "name": "newOwner",
          "type": "address"
        }
      ],
      "name": "OwnershipTransferred",
      "type": "event"
    },
    {
      "inputs": [
        {
          "internalType": "address",
          "name": "tokenAddress",
          "type": "address"
        }
      ],
      "name": "addTokenAddress",
      "outputs": [],
      "stateMutability": "nonpayable",
      "type": "function"
    },
    {
      "inputs": [
        {
          "internalType": "address",
          "name": "",
          "type": "address"
        }
      ],
      "name": "addressToIssue",
      "outputs": [
        {
          "internalType": "string",
          "name": "",
          "type": "string"
        }
      ],
      "stateMutability": "view",
      "type": "function"
    },
    {
      "inputs": [
        {
          "internalType": "string",
          "name": "_id",
          "type": "string"
        },
        {
          "internalType": "address",
          "name": "_payoutAddress",
          "type": "address"
        }
      ],
      "name": "claimBounty",
      "outputs": [],
      "stateMutability": "nonpayable",
      "type": "function"
    },
    {
      "inputs": [
        {
          "internalType": "address",
          "name": "_issueAddress",
          "type": "address"
        },
        {
          "internalType": "address",
          "name": "_tokenAddress",
          "type": "address"
        },
        {
          "internalType": "string",
          "name": "_symbol",
          "type": "string"
        },
        {
          "internalType": "uint256",
          "name": "_value",
          "type": "uint256"
        }
      ],
      "name": "fundBounty",
      "outputs": [
        {
          "internalType": "bool",
          "name": "success",
          "type": "bool"
        }
      ],
      "stateMutability": "nonpayable",
      "type": "function"
    },
    {
      "inputs": [
        {
          "internalType": "string",
          "name": "_id",
          "type": "string"
        }
      ],
      "name": "getBountyAddress",
      "outputs": [
        {
          "internalType": "address",
          "name": "",
          "type": "address"
        }
      ],
      "stateMutability": "view",
      "type": "function"
    },
    {
      "inputs": [],
      "name": "getIssueIds",
      "outputs": [
        {
          "internalType": "string[]",
          "name": "",
          "type": "string[]"
        }
      ],
      "stateMutability": "view",
      "type": "function"
    },
    {
      "inputs": [
        {
          "internalType": "uint256",
          "name": "",
          "type": "uint256"
        }
      ],
      "name": "issueIds",
      "outputs": [
        {
          "internalType": "string",
          "name": "",
          "type": "string"
        }
      ],
      "stateMutability": "view",
      "type": "function"
    },
    {
      "inputs": [
        {
          "internalType": "string",
          "name": "id_",
          "type": "string"
        }
      ],
      "name": "issueIsOpen",
      "outputs": [
        {
          "internalType": "bool",
          "name": "",
          "type": "bool"
        }
      ],
      "stateMutability": "view",
      "type": "function"
    },
    {
      "inputs": [
        {
          "internalType": "string",
          "name": "",
          "type": "string"
        }
      ],
      "name": "issueToAddress",
      "outputs": [
        {
          "internalType": "address",
          "name": "",
          "type": "address"
        }
      ],
      "stateMutability": "view",
      "type": "function"
    },
    {
      "inputs": [
        {
          "internalType": "string",
          "name": "_id",
          "type": "string"
        }
      ],
      "name": "mintBounty",
      "outputs": [
        {
          "internalType": "address",
          "name": "issueAddress",
          "type": "address"
        }
      ],
      "stateMutability": "nonpayable",
      "type": "function"
    },
    {
      "inputs": [],
      "name": "owner",
      "outputs": [
        {
          "internalType": "address",
          "name": "",
          "type": "address"
        }
      ],
      "stateMutability": "view",
      "type": "function"
    },
    {
      "inputs": [
        {
          "internalType": "address",
          "name": "_funder",
          "type": "address"
        },
        {
          "internalType": "address",
          "name": "_issueAddress",
          "type": "address"
        }
      ],
      "name": "refundBountyDeposits",
      "outputs": [
        {
          "internalType": "bool",
          "name": "success",
          "type": "bool"
        }
      ],
      "stateMutability": "nonpayable",
      "type": "function"
    },
    {
      "inputs": [],
      "name": "renounceOwnership",
      "outputs": [],
      "stateMutability": "nonpayable",
      "type": "function"
    },
    {
      "inputs": [
        {
          "internalType": "address",
          "name": "_token",
          "type": "address"
        },
        {
          "internalType": "address",
          "name": "_issueAddress",
          "type": "address"
        },
        {
          "internalType": "uint256",
          "name": "_value",
          "type": "uint256"
        }
      ],
      "name": "safeApprove",
      "outputs": [
        {
          "internalType": "bool",
          "name": "success",
          "type": "bool"
        }
      ],
      "stateMutability": "nonpayable",
      "type": "function"
    },
    {
      "inputs": [
        {
          "internalType": "uint256",
          "name": "",
          "type": "uint256"
        }
      ],
      "name": "tokenAddresses",
      "outputs": [
        {
          "internalType": "address",
          "name": "",
          "type": "address"
        }
      ],
      "stateMutability": "view",
      "type": "function"
    },
    {
      "inputs": [
        {
          "internalType": "address",
          "name": "newOwner",
          "type": "address"
        }
      ],
      "name": "transferOwnership",
      "outputs": [],
      "stateMutability": "nonpayable",
      "type": "function"
    }
  ],
  "bytecode": "0x60806040523480156200001157600080fd5b5062000032620000266200003860201b60201c565b6200004060201b60201c565b62000104565b600033905090565b60008060009054906101000a900473ffffffffffffffffffffffffffffffffffffffff169050816000806101000a81548173ffffffffffffffffffffffffffffffffffffffff021916908373ffffffffffffffffffffffffffffffffffffffff1602179055508173ffffffffffffffffffffffffffffffffffffffff168173ffffffffffffffffffffffffffffffffffffffff167f8be0079c531659141344cd1fd0a4f28419497f9722a3daafe3b4186f6b6457e060405160405180910390a35050565b614f0580620001146000396000f3fe60806040523480156200001157600080fd5b5060043610620001185760003560e01c8063c09775c511620000a5578063eb5625d9116200006f578063eb5625d91462000327578063eea7f924146200035d578063f2fde38b1462000393578063fcedbecf14620003b35762000118565b8063c09775c51462000263578063c4a9199c1462000299578063cde9628314620002cf578063e5df8b8414620002f15762000118565b8063715018a611620000e7578063715018a614620001c95780638da5cb5b14620001d5578063b233e6e814620001f7578063b83b6b65146200022d5762000118565b80630576a17d146200011d5780633e7da1a914620001535780634badc44e146200017357806351992fcb14620001a9575b600080fd5b6200013b600480360381019062000135919062001a00565b620003e9565b6040516200014a919062002208565b60405180910390f35b6200017160048036038101906200016b919062001c07565b620008f2565b005b6200019160048036038101906200018b919062001caa565b62000aa2565b604051620001a091906200231b565b60405180910390f35b620001c76004803603810190620001c19190620019a8565b62000b57565b005b620001d362000bbd565b005b620001df62000c4e565b604051620001ee91906200209d565b60405180910390f35b6200021560048036038101906200020f919062001bbe565b62000c77565b6040516200022491906200209d565b60405180910390f35b6200024b6004803603810190620002459190620019a8565b62000ed4565b6040516200025a91906200231b565b60405180910390f35b6200028160048036038101906200027b919062001a41565b62000f7c565b60405162000290919062002208565b60405180910390f35b620002b76004803603810190620002b1919062001bbe565b6200107e565b604051620002c6919062002208565b60405180910390f35b620002d962001219565b604051620002e89190620021e4565b60405180910390f35b6200030f600480360381019062000309919062001caa565b620012fc565b6040516200031e91906200209d565b60405180910390f35b6200034560048036038101906200033f919062001acb565b6200133c565b60405162000354919062002208565b60405180910390f35b6200037b600480360381019062000375919062001c65565b62001356565b6040516200038a91906200209d565b60405180910390f35b620003b16004803603810190620003ab9190620019a8565b6200139f565b005b620003d16004803603810190620003cb919062001bbe565b620014a3565b604051620003e091906200209d565b60405180910390f35b6000808290508073ffffffffffffffffffffffffffffffffffffffff1663f16b51c16040518163ffffffff1660e01b815260040160206040518083038186803b1580156200043657600080fd5b505afa1580156200044b573d6000803e3d6000fd5b505050506040513d601f19601f8201168201806040525081019062000471919062001cd6565b8173ffffffffffffffffffffffffffffffffffffffff1663df07b60e6040518163ffffffff1660e01b815260040160206040518083038186803b158015620004b857600080fd5b505afa158015620004cd573d6000803e3d6000fd5b505050506040513d601f19601f82011682018060405250810190620004f3919062001cd6565b620004ff91906200255e565b42101562000544576040517f08c379a00000000000000000000000000000000000000000000000000000000081526004016200053b90620023c7565b60405180910390fd5b600115158173ffffffffffffffffffffffffffffffffffffffff1663b0100cf7866040518263ffffffff1660e01b81526004016200058391906200209d565b60206040518083038186803b1580156200059c57600080fd5b505afa158015620005b1573d6000803e3d6000fd5b505050506040513d601f19601f82011682018060405250810190620005d7919062001b66565b1515146200061c576040517f08c379a00000000000000000000000000000000000000000000000000000000081526004016200061390620023e9565b60405180910390fd5b60005b8173ffffffffffffffffffffffffffffffffffffffff1663bf4ec549866040518263ffffffff1660e01b81526004016200065a91906200209d565b60006040518083038186803b1580156200067357600080fd5b505afa15801562000688573d6000803e3d6000fd5b505050506040513d6000823e3d601f19601f82011682018060405250810190620006b3919062001b21565b51811015620008e65760008273ffffffffffffffffffffffffffffffffffffffff1663c165feaa87846040518363ffffffff1660e01b8152600401620006fb9291906200217a565b60206040518083038186803b1580156200071457600080fd5b505afa15801562000729573d6000803e3d6000fd5b505050506040513d601f19601f820116820180604052508101906200074f9190620019d4565b905060008373ffffffffffffffffffffffffffffffffffffffff166389f3023088846040518363ffffffff1660e01b815260040162000790929190620020ba565b60206040518083038186803b158015620007a957600080fd5b505afa158015620007be573d6000803e3d6000fd5b505050506040513d601f19601f82011682018060405250810190620007e4919062001cd6565b90508373ffffffffffffffffffffffffffffffffffffffff166329ffef1588846040518363ffffffff1660e01b815260040162000823929190620020ba565b602060405180830381600087803b1580156200083e57600080fd5b505af115801562000853573d6000803e3d6000fd5b505050506040513d601f19601f8201168201806040525081019062000879919062001b66565b508673ffffffffffffffffffffffffffffffffffffffff167f0fc2ef3a5b239b6da46e9c2e5b9cad4845696aabeea85ae7a2e00abf9b3c40af838342604051620008c693929190620021a7565b60405180910390a250508080620008dd90620026f4565b9150506200061f565b50600191505092915050565b620008fc620014f0565b73ffffffffffffffffffffffffffffffffffffffff166200091c62000c4e565b73ffffffffffffffffffffffffffffffffffffffff161462000975576040517f08c379a00000000000000000000000000000000000000000000000000000000081526004016200096c9062002383565b60405180910390fd5b6000600284846040516200098b92919062002082565b908152602001604051809103902060009054906101000a900473ffffffffffffffffffffffffffffffffffffffff16905060008190508073ffffffffffffffffffffffffffffffffffffffff16639375dd90846040518263ffffffff1660e01b8152600401620009fc91906200209d565b600060405180830381600087803b15801562000a1757600080fd5b505af115801562000a2c573d6000803e3d6000fd5b505050508273ffffffffffffffffffffffffffffffffffffffff168273ffffffffffffffffffffffffffffffffffffffff167fbe392ea1b527f6bff9d22a197a2803e09f2cb94847572ba4cc79c37978d8e09487874260405162000a9393929190620022e5565b60405180910390a35050505050565b6001818154811062000ab357600080fd5b90600052602060002001600091509050805462000ad0906200266a565b80601f016020809104026020016040519081016040528092919081815260200182805462000afe906200266a565b801562000b4f5780601f1062000b235761010080835404028352916020019162000b4f565b820191906000526020600020905b81548152906001019060200180831162000b3157829003601f168201915b505050505081565b6004819080600181540180825580915050600190039060005260206000200160009091909190916101000a81548173ffffffffffffffffffffffffffffffffffffffff021916908373ffffffffffffffffffffffffffffffffffffffff16021790555050565b62000bc7620014f0565b73ffffffffffffffffffffffffffffffffffffffff1662000be762000c4e565b73ffffffffffffffffffffffffffffffffffffffff161462000c40576040517f08c379a000000000000000000000000000000000000000000000000000000000815260040162000c379062002383565b60405180910390fd5b62000c4c6000620014f8565b565b60008060009054906101000a900473ffffffffffffffffffffffffffffffffffffffff16905090565b60008073ffffffffffffffffffffffffffffffffffffffff166002848460405162000ca492919062002082565b908152602001604051809103902060009054906101000a900473ffffffffffffffffffffffffffffffffffffffff1673ffffffffffffffffffffffffffffffffffffffff161462000d2c576040517f08c379a000000000000000000000000000000000000000000000000000000000815260040162000d239062002361565b60405180910390fd5b828233600460405162000d3f90620016ff565b62000d4e94939291906200224b565b604051809103906000f08015801562000d6b573d6000803e3d6000fd5b509050806002848460405162000d8392919062002082565b908152602001604051809103902060006101000a81548173ffffffffffffffffffffffffffffffffffffffff021916908373ffffffffffffffffffffffffffffffffffffffff1602179055508282600360008473ffffffffffffffffffffffffffffffffffffffff1673ffffffffffffffffffffffffffffffffffffffff168152602001908152602001600020919062000e1f9291906200170d565b50600183839091806001815401808255809150506001900390600052602060002001600090919290919290919290919250919062000e5f9291906200170d565b508073ffffffffffffffffffffffffffffffffffffffff163373ffffffffffffffffffffffffffffffffffffffff167f103771b4f1392dd5d7a0358740a421881e1d5f31485db1a6723d066c2a50ac50858560044260405162000ec6949392919062002298565b60405180910390a392915050565b6003602052806000526040600020600091509050805462000ef5906200266a565b80601f016020809104026020016040519081016040528092919081815260200182805462000f23906200266a565b801562000f745780601f1062000f485761010080835404028352916020019162000f74565b820191906000526020600020905b81548152906001019060200180831162000f5657829003601f168201915b505050505081565b6000808690508073ffffffffffffffffffffffffffffffffffffffff1663b9df819f3388866040518463ffffffff1660e01b815260040162000fc193929190620020e7565b602060405180830381600087803b15801562000fdc57600080fd5b505af115801562000ff1573d6000803e3d6000fd5b505050506040513d601f19601f8201168201806040525081019062001017919062001b66565b503373ffffffffffffffffffffffffffffffffffffffff167f93201bfff173e982c6b11842e628bccc0fbe25696bcf8a477325afc1653d6b9887878787426040516200106895949392919062002124565b60405180910390a2600191505095945050505050565b6000803073ffffffffffffffffffffffffffffffffffffffff1663eea7f92485856040518363ffffffff1660e01b8152600401620010be92919062002225565b60206040518083038186803b158015620010d757600080fd5b505afa158015620010ec573d6000803e3d6000fd5b505050506040513d601f19601f82011682018060405250810190620011129190620019d4565b9050600080600181111562001150577f4e487b7100000000000000000000000000000000000000000000000000000000600052602160045260246000fd5b8273ffffffffffffffffffffffffffffffffffffffff1663200d2ed26040518163ffffffff1660e01b815260040160206040518083038186803b1580156200119757600080fd5b505afa158015620011ac573d6000803e3d6000fd5b505050506040513d601f19601f82011682018060405250810190620011d2919062001b92565b60018111156200120b577f4e487b7100000000000000000000000000000000000000000000000000000000600052602160045260246000fd5b149050809250505092915050565b60606001805480602002602001604051908101604052809291908181526020016000905b82821015620012f35783829060005260206000200180546200125f906200266a565b80601f01602080910402602001604051908101604052809291908181526020018280546200128d906200266a565b8015620012de5780601f10620012b257610100808354040283529160200191620012de565b820191906000526020600020905b815481529060010190602001808311620012c057829003601f168201915b5050505050815260200190600101906200123d565b50505050905090565b600481815481106200130d57600080fd5b906000526020600020016000915054906101000a900473ffffffffffffffffffffffffffffffffffffffff1681565b60006200134b848484620015bc565b600190509392505050565b6002818051602081018201805184825260208301602085012081835280955050505050506000915054906101000a900473ffffffffffffffffffffffffffffffffffffffff1681565b620013a9620014f0565b73ffffffffffffffffffffffffffffffffffffffff16620013c962000c4e565b73ffffffffffffffffffffffffffffffffffffffff161462001422576040517f08c379a0000000000000000000000000000000000000000000000000000000008152600401620014199062002383565b60405180910390fd5b600073ffffffffffffffffffffffffffffffffffffffff168173ffffffffffffffffffffffffffffffffffffffff16141562001495576040517f08c379a00000000000000000000000000000000000000000000000000000000081526004016200148c906200233f565b60405180910390fd5b620014a081620014f8565b50565b600060028383604051620014b992919062002082565b908152602001604051809103902060009054906101000a900473ffffffffffffffffffffffffffffffffffffffff16905092915050565b600033905090565b60008060009054906101000a900473ffffffffffffffffffffffffffffffffffffffff169050816000806101000a81548173ffffffffffffffffffffffffffffffffffffffff021916908373ffffffffffffffffffffffffffffffffffffffff1602179055508173ffffffffffffffffffffffffffffffffffffffff168173ffffffffffffffffffffffffffffffffffffffff167f8be0079c531659141344cd1fd0a4f28419497f9722a3daafe3b4186f6b6457e060405160405180910390a35050565b6000808473ffffffffffffffffffffffffffffffffffffffff1663095ea7b38585604051602401620015f09291906200217a565b6040516020818303038152906040529060e01b6020820180517bffffffffffffffffffffffffffffffffffffffffffffffffffffffff838183161783525050505060405162001640919062002069565b6000604051808303816000865af19150503d80600081146200167f576040519150601f19603f3d011682016040523d82523d6000602084013e62001684565b606091505b5091509150818015620016b65750600081511480620016b5575080806020019051810190620016b4919062001b66565b5b5b620016f8576040517f08c379a0000000000000000000000000000000000000000000000000000000008152600401620016ef90620023a5565b60405180910390fd5b5050505050565b6124948062002a3c83390190565b8280546200171b906200266a565b90600052602060002090601f0160209004810192826200173f57600085556200178b565b82601f106200175a57803560ff19168380011785556200178b565b828001600101855582156200178b579182015b828111156200178a5782358255916020019190600101906200176d565b5b5090506200179a91906200179e565b5090565b5b80821115620017b95760008160009055506001016200179f565b5090565b6000620017d4620017ce8462002434565b6200240b565b90508083825260208201905082856020860282011115620017f457600080fd5b60005b858110156200182857816200180d88826200188e565b845260208401935060208301925050600181019050620017f7565b5050509392505050565b600062001849620018438462002463565b6200240b565b9050828152602081018484840111156200186257600080fd5b6200186f84828562002625565b509392505050565b6000813590506200188881620029dc565b92915050565b6000815190506200189f81620029dc565b92915050565b600082601f830112620018b757600080fd5b8151620018c9848260208601620017bd565b91505092915050565b600081519050620018e381620029f6565b92915050565b600081519050620018fa8162002a10565b92915050565b60008083601f8401126200191357600080fd5b8235905067ffffffffffffffff8111156200192d57600080fd5b6020830191508360018202830111156200194657600080fd5b9250929050565b600082601f8301126200195f57600080fd5b81356200197184826020860162001832565b91505092915050565b6000813590506200198b8162002a21565b92915050565b600081519050620019a28162002a21565b92915050565b600060208284031215620019bb57600080fd5b6000620019cb8482850162001877565b91505092915050565b600060208284031215620019e757600080fd5b6000620019f7848285016200188e565b91505092915050565b6000806040838503121562001a1457600080fd5b600062001a248582860162001877565b925050602062001a378582860162001877565b9150509250929050565b60008060008060006080868803121562001a5a57600080fd5b600062001a6a8882890162001877565b955050602062001a7d8882890162001877565b945050604086013567ffffffffffffffff81111562001a9b57600080fd5b62001aa98882890162001900565b9350935050606062001abe888289016200197a565b9150509295509295909350565b60008060006060848603121562001ae157600080fd5b600062001af18682870162001877565b935050602062001b048682870162001877565b925050604062001b17868287016200197a565b9150509250925092565b60006020828403121562001b3457600080fd5b600082015167ffffffffffffffff81111562001b4f57600080fd5b62001b5d84828501620018a5565b91505092915050565b60006020828403121562001b7957600080fd5b600062001b8984828501620018d2565b91505092915050565b60006020828403121562001ba557600080fd5b600062001bb584828501620018e9565b91505092915050565b6000806020838503121562001bd257600080fd5b600083013567ffffffffffffffff81111562001bed57600080fd5b62001bfb8582860162001900565b92509250509250929050565b60008060006040848603121562001c1d57600080fd5b600084013567ffffffffffffffff81111562001c3857600080fd5b62001c468682870162001900565b9350935050602062001c5b8682870162001877565b9150509250925092565b60006020828403121562001c7857600080fd5b600082013567ffffffffffffffff81111562001c9357600080fd5b62001ca1848285016200194d565b91505092915050565b60006020828403121562001cbd57600080fd5b600062001ccd848285016200197a565b91505092915050565b60006020828403121562001ce957600080fd5b600062001cf98482850162001991565b91505092915050565b600062001d10838362001d32565b60208301905092915050565b600062001d2a838362001eec565b905092915050565b62001d3d81620025db565b82525050565b62001d4e81620025db565b82525050565b600062001d6182620024be565b62001d6d818562002504565b935062001d7a8362002499565b8060005b8381101562001dba5762001d9282620027cf565b62001d9e888262001d02565b975062001dab83620024ea565b92505060018101905062001d7e565b5085935050505092915050565b600062001dd482620024c9565b62001de0818562002515565b93508360208202850162001df485620024ae565b8060005b8581101562001e36578484038952815162001e14858262001d1c565b945062001e2183620024f7565b925060208a0199505060018101905062001df8565b50829750879550505050505092915050565b62001e5381620025ef565b82525050565b600062001e6682620024d4565b62001e72818562002526565b935062001e8481856020860162002634565b80840191505092915050565b600062001e9e838562002542565b935062001ead83858462002625565b62001eb883620027e4565b840190509392505050565b600062001ed1838562002553565b935062001ee083858462002625565b82840190509392505050565b600062001ef982620024df565b62001f05818562002531565b935062001f1781856020860162002634565b62001f2281620027e4565b840191505092915050565b600062001f3a82620024df565b62001f46818562002542565b935062001f5881856020860162002634565b62001f6381620027e4565b840191505092915050565b600062001f7d60268362002542565b915062001f8a8262002802565b604082019050919050565b600062001fa4606f8362002542565b915062001fb18262002851565b608082019050919050565b600062001fcb60208362002542565b915062001fd882620028ec565b602082019050919050565b600062001ff2602b8362002542565b915062001fff8262002915565b604082019050919050565b600062002019601b8362002542565b9150620020268262002964565b602082019050919050565b600062002040603c8362002542565b91506200204d826200298d565b604082019050919050565b62002063816200261b565b82525050565b600062002077828462001e59565b915081905092915050565b60006200209182848662001ec3565b91508190509392505050565b6000602082019050620020b4600083018462001d43565b92915050565b6000604082019050620020d1600083018562001d43565b620020e0602083018462001d43565b9392505050565b6000606082019050620020fe600083018662001d43565b6200210d602083018562001d43565b6200211c604083018462002058565b949350505050565b60006080820190506200213b600083018862001d43565b81810360208301526200215081868862001e90565b905062002161604083018562002058565b62002170606083018462002058565b9695505050505050565b600060408201905062002191600083018562001d43565b620021a0602083018462002058565b9392505050565b6000606082019050620021be600083018662001d43565b620021cd602083018562002058565b620021dc604083018462002058565b949350505050565b6000602082019050818103600083015262002200818462001dc7565b905092915050565b60006020820190506200221f600083018462001e48565b92915050565b600060208201905081810360008301526200224281848662001e90565b90509392505050565b600060608201905081810360008301526200226881868862001e90565b905062002279602083018562001d43565b81810360408301526200228d818462001d54565b905095945050505050565b60006060820190508181036000830152620022b581868862001e90565b90508181036020830152620022cb818562001d54565b9050620022dc604083018462002058565b95945050505050565b600060408201905081810360008301526200230281858762001e90565b905062002313602083018462002058565b949350505050565b6000602082019050818103600083015262002337818462001f2d565b905092915050565b600060208201905081810360008301526200235a8162001f6e565b9050919050565b600060208201905081810360008301526200237c8162001f95565b9050919050565b600060208201905081810360008301526200239e8162001fbc565b9050919050565b60006020820190508181036000830152620023c08162001fe3565b9050919050565b60006020820190508181036000830152620023e2816200200a565b9050919050565b60006020820190508181036000830152620024048162002031565b9050919050565b6000620024176200242a565b9050620024258282620026be565b919050565b6000604051905090565b600067ffffffffffffffff821115620024525762002451620027a0565b5b602082029050602081019050919050565b600067ffffffffffffffff821115620024815762002480620027a0565b5b6200248c82620027e4565b9050602081019050919050565b60008190508160005260206000209050919050565b6000819050602082019050919050565b600081549050919050565b600081519050919050565b600081519050919050565b600081519050919050565b6000600182019050919050565b6000602082019050919050565b600082825260208201905092915050565b600082825260208201905092915050565b600081905092915050565b600082825260208201905092915050565b600082825260208201905092915050565b600081905092915050565b60006200256b826200261b565b915062002578836200261b565b9250827fffffffffffffffffffffffffffffffffffffffffffffffffffffffffffffffff03821115620025b057620025af62002742565b5b828201905092915050565b600073ffffffffffffffffffffffffffffffffffffffff82169050919050565b6000620025e882620025fb565b9050919050565b60008115159050919050565b600073ffffffffffffffffffffffffffffffffffffffff82169050919050565b6000819050919050565b82818337600083830152505050565b60005b838110156200265457808201518184015260208101905062002637565b8381111562002664576000848401525b50505050565b600060028204905060018216806200268357607f821691505b602082108114156200269a576200269962002771565b5b50919050565b6000620026b7620026b183620027f5565b620025bb565b9050919050565b620026c982620027e4565b810181811067ffffffffffffffff82111715620026eb57620026ea620027a0565b5b80604052505050565b600062002701826200261b565b91507fffffffffffffffffffffffffffffffffffffffffffffffffffffffffffffffff82141562002737576200273662002742565b5b600182019050919050565b7f4e487b7100000000000000000000000000000000000000000000000000000000600052601160045260246000fd5b7f4e487b7100000000000000000000000000000000000000000000000000000000600052602260045260246000fd5b7f4e487b7100000000000000000000000000000000000000000000000000000000600052604160045260246000fd5b6000620027dd8254620026a0565b9050919050565b6000601f19601f8301169050919050565b60008160001c9050919050565b7f4f776e61626c653a206e6577206f776e657220697320746865207a65726f206160008201527f6464726573730000000000000000000000000000000000000000000000000000602082015250565b7f497373756520616c72656164792065786973747320666f7220676976656e206960008201527f642e2046696e642069747320616464726573732062792063616c6c696e67206960208201527f73737565546f41646472657373206f6e207468697320636f6e7472616374207760408201527f6974682074686520697373756549640000000000000000000000000000000000606082015250565b7f4f776e61626c653a2063616c6c6572206973206e6f7420746865206f776e6572600082015250565b7f5472616e7366657248656c7065723a3a73616665417070726f76653a2061707060008201527f726f7665206661696c6564000000000000000000000000000000000000000000602082015250565b7f546f6f206561726c7920746f2077697468647261772066756e64730000000000600082015250565b7f4f6e6c792066756e64657273206f66207468697320626f756e74792063616e2060008201527f7265636c61696d2066756e647320616674657220333020646179732e00000000602082015250565b620029e781620025db565b8114620029f357600080fd5b50565b62002a0181620025ef565b811462002a0d57600080fd5b50565b6002811062002a1e57600080fd5b50565b62002a2c816200261b565b811462002a3857600080fd5b5056fe608060405262278d006005553480156200001857600080fd5b50604051620024943803806200249483398181016040528101906200003e919062000469565b6200005e620000526200013360201b60201c565b6200013b60201b60201c565b826007908051906020019062000076929190620001ff565b5080600990805190602001906200008f92919062000290565b506000600a60006101000a81548160ff02191690836001811115620000dd577f4e487b7100000000000000000000000000000000000000000000000000000000600052602160045260246000fd5b021790555081600660006101000a81548173ffffffffffffffffffffffffffffffffffffffff021916908373ffffffffffffffffffffffffffffffffffffffff16021790555042600481905550505050620006de565b600033905090565b60008060009054906101000a900473ffffffffffffffffffffffffffffffffffffffff169050816000806101000a81548173ffffffffffffffffffffffffffffffffffffffff021916908373ffffffffffffffffffffffffffffffffffffffff1602179055508173ffffffffffffffffffffffffffffffffffffffff168173ffffffffffffffffffffffffffffffffffffffff167f8be0079c531659141344cd1fd0a4f28419497f9722a3daafe3b4186f6b6457e060405160405180910390a35050565b8280546200020d90620005e9565b90600052602060002090601f0160209004810192826200023157600085556200027d565b82601f106200024c57805160ff19168380011785556200027d565b828001600101855582156200027d579182015b828111156200027c5782518255916020019190600101906200025f565b5b5090506200028c91906200031f565b5090565b8280548282559060005260206000209081019282156200030c579160200282015b828111156200030b5782518260006101000a81548173ffffffffffffffffffffffffffffffffffffffff021916908373ffffffffffffffffffffffffffffffffffffffff16021790555091602001919060010190620002b1565b5b5090506200031b91906200031f565b5090565b5b808211156200033a57600081600090555060010162000320565b5090565b6000620003556200034f846200051a565b620004f1565b905080838252602082019050828560208602820111156200037557600080fd5b60005b85811015620003a957816200038e8882620003f8565b84526020840193506020830192505060018101905062000378565b5050509392505050565b6000620003ca620003c48462000549565b620004f1565b905082815260208101848484011115620003e357600080fd5b620003f0848285620005b3565b509392505050565b6000815190506200040981620006c4565b92915050565b600082601f8301126200042157600080fd5b8151620004338482602086016200033e565b91505092915050565b600082601f8301126200044e57600080fd5b815162000460848260208601620003b3565b91505092915050565b6000806000606084860312156200047f57600080fd5b600084015167ffffffffffffffff8111156200049a57600080fd5b620004a8868287016200043c565b9350506020620004bb86828701620003f8565b925050604084015167ffffffffffffffff811115620004d957600080fd5b620004e7868287016200040f565b9150509250925092565b6000620004fd62000510565b90506200050b82826200061f565b919050565b6000604051905090565b600067ffffffffffffffff82111562000538576200053762000684565b5b602082029050602081019050919050565b600067ffffffffffffffff82111562000567576200056662000684565b5b6200057282620006b3565b9050602081019050919050565b60006200058c8262000593565b9050919050565b600073ffffffffffffffffffffffffffffffffffffffff82169050919050565b60005b83811015620005d3578082015181840152602081019050620005b6565b83811115620005e3576000848401525b50505050565b600060028204905060018216806200060257607f821691505b6020821081141562000619576200061862000655565b5b50919050565b6200062a82620006b3565b810181811067ffffffffffffffff821117156200064c576200064b62000684565b5b80604052505050565b7f4e487b7100000000000000000000000000000000000000000000000000000000600052602260045260246000fd5b7f4e487b7100000000000000000000000000000000000000000000000000000000600052604160045260246000fd5b6000601f19601f8301169050919050565b620006cf816200057f565b8114620006db57600080fd5b50565b611da680620006ee6000396000f3fe608060405234801561001057600080fd5b50600436106101165760003560e01c8063b0100cf7116100a2578063c165feaa11610071578063c165feaa146102f7578063df07b60e14610327578063e5df8b8414610345578063f16b51c114610375578063f2fde38b1461039357610116565b8063b0100cf714610237578063b588d22514610267578063b9df819f14610297578063bf4ec549146102c757610116565b80637044f282116100e95780637044f282146101a5578063715018a6146101c357806389f30230146101cd5780638da5cb5b146101fd5780639375dd901461021b57610116565b80631d1438481461011b578063200d2ed21461013957806329ffef151461015757806332710c6e14610187575b600080fd5b6101236103af565b604051610130919061172f565b60405180910390f35b6101416103d5565b60405161014e91906117e7565b60405180910390f35b610171600480360381019061016c91906113b0565b6103e8565b60405161017e91906117cc565b60405180910390f35b61018f6104f7565b60405161019c9190611802565b60405180910390f35b6101ad610585565b6040516101ba919061172f565b60405180910390f35b6101cb6105ab565b005b6101e760048036038101906101e291906113b0565b610633565b6040516101f491906118e4565b60405180910390f35b610205610658565b604051610212919061172f565b60405180910390f35b61023560048036038101906102309190611387565b610681565b005b610251600480360381019061024c9190611387565b610a66565b60405161025e91906117cc565b60405180910390f35b610281600480360381019061027c9190611387565b610a86565b60405161028e91906118e4565b60405180910390f35b6102b160048036038101906102ac91906113ec565b610b1d565b6040516102be91906117cc565b60405180910390f35b6102e160048036038101906102dc9190611387565b610d85565b6040516102ee91906117aa565b60405180910390f35b610311600480360381019061030c919061143b565b610e52565b60405161031e919061172f565b60405180910390f35b61032f610ea0565b60405161033c91906118e4565b60405180910390f35b61035f600480360381019061035a91906114c9565b610ea6565b60405161036c919061172f565b60405180910390f35b61037d610ee5565b60405161038a91906118e4565b60405180910390f35b6103ad60048036038101906103a89190611387565b610eeb565b005b600660009054906101000a900473ffffffffffffffffffffffffffffffffffffffff1681565b600a60009054906101000a900460ff1681565b60006103f2610fe3565b73ffffffffffffffffffffffffffffffffffffffff16610410610658565b73ffffffffffffffffffffffffffffffffffffffff1614610466576040517f08c379a000000000000000000000000000000000000000000000000000000000815260040161045d906118a4565b60405180910390fd5b6104ed8284600360008773ffffffffffffffffffffffffffffffffffffffff1673ffffffffffffffffffffffffffffffffffffffff16815260200190815260200160002060008673ffffffffffffffffffffffffffffffffffffffff1673ffffffffffffffffffffffffffffffffffffffff16815260200190815260200160002054610feb565b6001905092915050565b6007805461050490611a60565b80601f016020809104026020016040519081016040528092919081815260200182805461053090611a60565b801561057d5780601f106105525761010080835404028352916020019161057d565b820191906000526020600020905b81548152906001019060200180831161056057829003601f168201915b505050505081565b600860009054906101000a900473ffffffffffffffffffffffffffffffffffffffff1681565b6105b3610fe3565b73ffffffffffffffffffffffffffffffffffffffff166105d1610658565b73ffffffffffffffffffffffffffffffffffffffff1614610627576040517f08c379a000000000000000000000000000000000000000000000000000000000815260040161061e906118a4565b60405180910390fd5b6106316000611121565b565b6003602052816000526040600020602052806000526040600020600091509150505481565b60008060009054906101000a900473ffffffffffffffffffffffffffffffffffffffff16905090565b610689610fe3565b73ffffffffffffffffffffffffffffffffffffffff166106a7610658565b73ffffffffffffffffffffffffffffffffffffffff16146106fd576040517f08c379a00000000000000000000000000000000000000000000000000000000081526004016106f4906118a4565b60405180910390fd5b60006001811115610737577f4e487b7100000000000000000000000000000000000000000000000000000000600052602160045260246000fd5b3073ffffffffffffffffffffffffffffffffffffffff1663200d2ed26040518163ffffffff1660e01b815260040160206040518083038186803b15801561077d57600080fd5b505afa158015610791573d6000803e3d6000fd5b505050506040513d601f19601f820116820180604052508101906107b591906114a0565b60018111156107ed577f4e487b7100000000000000000000000000000000000000000000000000000000600052602160045260246000fd5b1461082d576040517f08c379a000000000000000000000000000000000000000000000000000000000815260040161082490611864565b60405180910390fd5b60005b6009805490508110156109d057600060098281548110610879577f4e487b7100000000000000000000000000000000000000000000000000000000600052603260045260246000fd5b9060005260206000200160009054906101000a900473ffffffffffffffffffffffffffffffffffffffff1690508073ffffffffffffffffffffffffffffffffffffffff1663a9059cbb848373ffffffffffffffffffffffffffffffffffffffff166370a08231306040518263ffffffff1660e01b81526004016108fc919061172f565b60206040518083038186803b15801561091457600080fd5b505afa158015610928573d6000803e3d6000fd5b505050506040513d601f19601f8201168201806040525081019061094c91906114f2565b6040518363ffffffff1660e01b8152600401610969929190611781565b602060405180830381600087803b15801561098357600080fd5b505af1158015610997573d6000803e3d6000fd5b505050506040513d601f19601f820116820180604052508101906109bb9190611477565b505080806109c890611a92565b915050610830565b506001600a60006101000a81548160ff02191690836001811115610a1d577f4e487b7100000000000000000000000000000000000000000000000000000000600052602160045260246000fd5b021790555080600860006101000a81548173ffffffffffffffffffffffffffffffffffffffff021916908373ffffffffffffffffffffffffffffffffffffffff16021790555050565b60016020528060005260406000206000915054906101000a900460ff1681565b6000808290508073ffffffffffffffffffffffffffffffffffffffff166370a08231306040518263ffffffff1660e01b8152600401610ac5919061172f565b60206040518083038186803b158015610add57600080fd5b505afa158015610af1573d6000803e3d6000fd5b505050506040513d601f19601f82011682018060405250810190610b1591906114f2565b915050919050565b600080821415610b62576040517f08c379a0000000000000000000000000000000000000000000000000000000008152600401610b5990611884565b60405180910390fd5b60018060008673ffffffffffffffffffffffffffffffffffffffff1673ffffffffffffffffffffffffffffffffffffffff16815260200190815260200160002060006101000a81548160ff021916908315150217905550610bc5838530856111e5565b6000600360008673ffffffffffffffffffffffffffffffffffffffff1673ffffffffffffffffffffffffffffffffffffffff16815260200190815260200160002060008573ffffffffffffffffffffffffffffffffffffffff1673ffffffffffffffffffffffffffffffffffffffff168152602001908152602001600020541415610ceb57600260008573ffffffffffffffffffffffffffffffffffffffff1673ffffffffffffffffffffffffffffffffffffffff168152602001908152602001600020839080600181540180825580915050600190039060005260206000200160009091909190916101000a81548173ffffffffffffffffffffffffffffffffffffffff021916908373ffffffffffffffffffffffffffffffffffffffff1602179055505b81600360008673ffffffffffffffffffffffffffffffffffffffff1673ffffffffffffffffffffffffffffffffffffffff16815260200190815260200160002060008573ffffffffffffffffffffffffffffffffffffffff1673ffffffffffffffffffffffffffffffffffffffff1681526020019081526020016000206000828254610d77919061196a565b925050819055509392505050565b6060600260008373ffffffffffffffffffffffffffffffffffffffff1673ffffffffffffffffffffffffffffffffffffffff168152602001908152602001600020805480602002602001604051908101604052809291908181526020018280548015610e4657602002820191906000526020600020905b8160009054906101000a900473ffffffffffffffffffffffffffffffffffffffff1673ffffffffffffffffffffffffffffffffffffffff1681526020019060010190808311610dfc575b50505050509050919050565b60026020528160005260406000208181548110610e6e57600080fd5b906000526020600020016000915091509054906101000a900473ffffffffffffffffffffffffffffffffffffffff1681565b60045481565b60098181548110610eb657600080fd5b906000526020600020016000915054906101000a900473ffffffffffffffffffffffffffffffffffffffff1681565b60055481565b610ef3610fe3565b73ffffffffffffffffffffffffffffffffffffffff16610f11610658565b73ffffffffffffffffffffffffffffffffffffffff1614610f67576040517f08c379a0000000000000000000000000000000000000000000000000000000008152600401610f5e906118a4565b60405180910390fd5b600073ffffffffffffffffffffffffffffffffffffffff168173ffffffffffffffffffffffffffffffffffffffff161415610fd7576040517f08c379a0000000000000000000000000000000000000000000000000000000008152600401610fce90611824565b60405180910390fd5b610fe081611121565b50565b600033905090565b6000808473ffffffffffffffffffffffffffffffffffffffff1663a9059cbb858560405160240161101d929190611781565b6040516020818303038152906040529060e01b6020820180517bffffffffffffffffffffffffffffffffffffffffffffffffffffffff838183161783525050505060405161106b9190611718565b6000604051808303816000865af19150503d80600081146110a8576040519150601f19603f3d011682016040523d82523d6000602084013e6110ad565b606091505b50915091508180156110db57506000815114806110da5750808060200190518101906110d99190611477565b5b5b61111a576040517f08c379a0000000000000000000000000000000000000000000000000000000008152600401611111906118c4565b60405180910390fd5b5050505050565b60008060009054906101000a900473ffffffffffffffffffffffffffffffffffffffff169050816000806101000a81548173ffffffffffffffffffffffffffffffffffffffff021916908373ffffffffffffffffffffffffffffffffffffffff1602179055508173ffffffffffffffffffffffffffffffffffffffff168173ffffffffffffffffffffffffffffffffffffffff167f8be0079c531659141344cd1fd0a4f28419497f9722a3daafe3b4186f6b6457e060405160405180910390a35050565b6000808573ffffffffffffffffffffffffffffffffffffffff166323b872dd8686866040516024016112199392919061174a565b6040516020818303038152906040529060e01b6020820180517bffffffffffffffffffffffffffffffffffffffffffffffffffffffff83818316178352505050506040516112679190611718565b6000604051808303816000865af19150503d80600081146112a4576040519150601f19603f3d011682016040523d82523d6000602084013e6112a9565b606091505b50915091508180156112d757506000815114806112d65750808060200190518101906112d59190611477565b5b5b611316576040517f08c379a000000000000000000000000000000000000000000000000000000000815260040161130d90611844565b60405180910390fd5b505050505050565b60008135905061132d81611d1b565b92915050565b60008151905061134281611d32565b92915050565b60008151905061135781611d49565b92915050565b60008135905061136c81611d59565b92915050565b60008151905061138181611d59565b92915050565b60006020828403121561139957600080fd5b60006113a78482850161131e565b91505092915050565b600080604083850312156113c357600080fd5b60006113d18582860161131e565b92505060206113e28582860161131e565b9150509250929050565b60008060006060848603121561140157600080fd5b600061140f8682870161131e565b93505060206114208682870161131e565b92505060406114318682870161135d565b9150509250925092565b6000806040838503121561144e57600080fd5b600061145c8582860161131e565b925050602061146d8582860161135d565b9150509250929050565b60006020828403121561148957600080fd5b600061149784828501611333565b91505092915050565b6000602082840312156114b257600080fd5b60006114c084828501611348565b91505092915050565b6000602082840312156114db57600080fd5b60006114e98482850161135d565b91505092915050565b60006020828403121561150457600080fd5b600061151284828501611372565b91505092915050565b60006115278383611533565b60208301905092915050565b61153c816119c0565b82525050565b61154b816119c0565b82525050565b600061155c8261190f565b611566818561193d565b9350611571836118ff565b8060005b838110156115a2578151611589888261151b565b975061159483611930565b925050600181019050611575565b5085935050505092915050565b6115b8816119d2565b82525050565b60006115c98261191a565b6115d3818561194e565b93506115e3818560208601611a2d565b80840191505092915050565b6115f881611a1b565b82525050565b600061160982611925565b6116138185611959565b9350611623818560208601611a2d565b61162c81611b68565b840191505092915050565b6000611644602683611959565b915061164f82611b79565b604082019050919050565b6000611667603183611959565b915061167282611bc8565b604082019050919050565b600061168a602f83611959565b915061169582611c17565b604082019050919050565b60006116ad601483611959565b91506116b882611c66565b602082019050919050565b60006116d0602083611959565b91506116db82611c8f565b602082019050919050565b60006116f3602d83611959565b91506116fe82611cb8565b604082019050919050565b61171281611a11565b82525050565b600061172482846115be565b915081905092915050565b60006020820190506117446000830184611542565b92915050565b600060608201905061175f6000830186611542565b61176c6020830185611542565b6117796040830184611709565b949350505050565b60006040820190506117966000830185611542565b6117a36020830184611709565b9392505050565b600060208201905081810360008301526117c48184611551565b905092915050565b60006020820190506117e160008301846115af565b92915050565b60006020820190506117fc60008301846115ef565b92915050565b6000602082019050818103600083015261181c81846115fe565b905092915050565b6000602082019050818103600083015261183d81611637565b9050919050565b6000602082019050818103600083015261185d8161165a565b9050919050565b6000602082019050818103600083015261187d8161167d565b9050919050565b6000602082019050818103600083015261189d816116a0565b9050919050565b600060208201905081810360008301526118bd816116c3565b9050919050565b600060208201905081810360008301526118dd816116e6565b9050919050565b60006020820190506118f96000830184611709565b92915050565b6000819050602082019050919050565b600081519050919050565b600081519050919050565b600081519050919050565b6000602082019050919050565b600082825260208201905092915050565b600081905092915050565b600082825260208201905092915050565b600061197582611a11565b915061198083611a11565b9250827fffffffffffffffffffffffffffffffffffffffffffffffffffffffffffffffff038211156119b5576119b4611adb565b5b828201905092915050565b60006119cb826119f1565b9050919050565b60008115159050919050565b60008190506119ec82611d07565b919050565b600073ffffffffffffffffffffffffffffffffffffffff82169050919050565b6000819050919050565b6000611a26826119de565b9050919050565b60005b83811015611a4b578082015181840152602081019050611a30565b83811115611a5a576000848401525b50505050565b60006002820490506001821680611a7857607f821691505b60208210811415611a8c57611a8b611b39565b5b50919050565b6000611a9d82611a11565b91507fffffffffffffffffffffffffffffffffffffffffffffffffffffffffffffffff821415611ad057611acf611adb565b5b600182019050919050565b7f4e487b7100000000000000000000000000000000000000000000000000000000600052601160045260246000fd5b7f4e487b7100000000000000000000000000000000000000000000000000000000600052602160045260246000fd5b7f4e487b7100000000000000000000000000000000000000000000000000000000600052602260045260246000fd5b6000601f19601f8301169050919050565b7f4f776e61626c653a206e6577206f776e657220697320746865207a65726f206160008201527f6464726573730000000000000000000000000000000000000000000000000000602082015250565b7f5472616e7366657248656c7065723a3a7472616e7366657246726f6d3a20747260008201527f616e7366657246726f6d206661696c6564000000000000000000000000000000602082015250565b7f5468697320697320697373756520697320636c6f7365642e2043616e6e6f742060008201527f776974686472617720616761696e2e0000000000000000000000000000000000602082015250565b7f4d7573742073656e6420736f6d652076616c7565000000000000000000000000600082015250565b7f4f776e61626c653a2063616c6c6572206973206e6f7420746865206f776e6572600082015250565b7f5472616e7366657248656c7065723a3a736166655472616e736665723a20747260008201527f616e73666572206661696c656400000000000000000000000000000000000000602082015250565b60028110611d1857611d17611b0a565b5b50565b611d24816119c0565b8114611d2f57600080fd5b50565b611d3b816119d2565b8114611d4657600080fd5b50565b60028110611d5657600080fd5b50565b611d6281611a11565b8114611d6d57600080fd5b5056fea264697066735822122073a18a3c3caa00da92900950c634a8517f08879b614a9345e36091d13b56afc764736f6c63430008040033a2646970667358221220e6da4a3c28bebe79f5cd834e2cffa11a35548131ff66db5dd7094355fea02e7464736f6c63430008040033",
  "linkReferences": {},
  "deployedLinkReferences": {}
}