{
  "_format": "hh-sol-artifact-1",
  "contractName": "OpenQ",
  "sourceName": "contracts/OpenQ.sol",
  "abi": [
    {
      "inputs": [
        {
          "internalType": "address",
          "name": "_userAddressStorage",
          "type": "address"
        },
        {
          "internalType": "address",
          "name": "_depositStorage",
          "type": "address"
        }
      ],
      "stateMutability": "nonpayable",
      "type": "constructor"
    },
    {
      "inputs": [],
      "name": "NotEnoughEther",
      "type": "error"
    },
    {
      "anonymous": false,
      "inputs": [
        {
          "indexed": true,
          "internalType": "address",
          "name": "previousOwner",
          "type": "address"
        },
        {
          "indexed": true,
          "internalType": "address",
          "name": "newOwner",
          "type": "address"
        }
      ],
      "name": "OwnershipTransferred",
      "type": "event"
    },
    {
      "anonymous": false,
      "inputs": [
        {
          "indexed": false,
          "internalType": "address",
          "name": "depositStorage",
          "type": "address"
        }
      ],
      "name": "SetDepositStorageEvent",
      "type": "event"
    },
    {
      "anonymous": false,
      "inputs": [
        {
          "indexed": false,
          "internalType": "address",
          "name": "addressStorage",
          "type": "address"
        }
      ],
      "name": "SetUserAddressStorageEvent",
      "type": "event"
    },
    {
      "inputs": [
        {
          "internalType": "string",
          "name": "_githubUserId",
          "type": "string"
        }
      ],
      "name": "depositEthForGithubUser",
      "outputs": [],
      "stateMutability": "payable",
      "type": "function"
    },
    {
      "inputs": [
        {
          "internalType": "string",
          "name": "_issueId",
          "type": "string"
        }
      ],
      "name": "depositEthForIssue",
      "outputs": [],
      "stateMutability": "payable",
      "type": "function"
    },
    {
      "inputs": [],
      "name": "depositStorage",
      "outputs": [
        {
          "internalType": "contract DepositStorage",
          "name": "",
          "type": "address"
        }
      ],
      "stateMutability": "view",
      "type": "function"
    },
    {
      "inputs": [],
      "name": "getBalance",
      "outputs": [
        {
          "internalType": "uint256",
          "name": "",
          "type": "uint256"
        }
      ],
      "stateMutability": "view",
      "type": "function"
    },
    {
      "inputs": [
        {
          "internalType": "bytes32",
          "name": "",
          "type": "bytes32"
        }
      ],
      "name": "issueWithdrawRequests",
      "outputs": [
        {
          "internalType": "string",
          "name": "issueId",
          "type": "string"
        },
        {
          "internalType": "string",
          "name": "username",
          "type": "string"
        }
      ],
      "stateMutability": "view",
      "type": "function"
    },
    {
      "inputs": [],
      "name": "owner",
      "outputs": [
        {
          "internalType": "address",
          "name": "",
          "type": "address"
        }
      ],
      "stateMutability": "view",
      "type": "function"
    },
    {
      "inputs": [
        {
          "internalType": "uint256",
          "name": "_depositId",
          "type": "uint256"
        }
      ],
      "name": "refundIssueDeposit",
      "outputs": [],
      "stateMutability": "nonpayable",
      "type": "function"
    },
    {
      "inputs": [
        {
          "internalType": "uint256",
          "name": "_depositId",
          "type": "uint256"
        }
      ],
      "name": "refundUserDeposit",
      "outputs": [],
      "stateMutability": "nonpayable",
      "type": "function"
    },
    {
      "inputs": [
        {
          "internalType": "string",
          "name": "_githubUserId",
          "type": "string"
        },
        {
          "internalType": "address",
          "name": "_ethAddress",
          "type": "address"
        }
      ],
      "name": "registerUserAddress",
      "outputs": [],
      "stateMutability": "nonpayable",
      "type": "function"
    },
    {
      "inputs": [],
      "name": "renounceOwnership",
      "outputs": [],
      "stateMutability": "nonpayable",
      "type": "function"
    },
    {
      "inputs": [
        {
          "internalType": "address",
          "name": "_depositStorage",
          "type": "address"
        }
      ],
      "name": "setDepositStorage",
      "outputs": [],
      "stateMutability": "nonpayable",
      "type": "function"
    },
    {
      "inputs": [
        {
          "internalType": "address",
          "name": "_userAddressStorage",
          "type": "address"
        }
      ],
      "name": "setUserAddressStorage",
      "outputs": [],
      "stateMutability": "nonpayable",
      "type": "function"
    },
    {
      "inputs": [
        {
          "internalType": "address",
          "name": "newOwner",
          "type": "address"
        }
      ],
      "name": "transferOwnership",
      "outputs": [],
      "stateMutability": "nonpayable",
      "type": "function"
    },
    {
      "inputs": [
        {
          "internalType": "bytes32",
          "name": "",
          "type": "bytes32"
        }
      ],
      "name": "userAddressRegistrations",
      "outputs": [
        {
          "internalType": "string",
          "name": "githubUserId",
          "type": "string"
        },
        {
          "internalType": "address",
          "name": "ethAddress",
          "type": "address"
        }
      ],
      "stateMutability": "view",
      "type": "function"
    },
    {
      "inputs": [],
      "name": "userAddressStorage",
      "outputs": [
        {
          "internalType": "contract UserAddressStorage",
          "name": "",
          "type": "address"
        }
      ],
      "stateMutability": "view",
      "type": "function"
    },
    {
      "inputs": [
        {
          "internalType": "string",
          "name": "_userId",
          "type": "string"
        }
      ],
      "name": "usernameIsRegistered",
      "outputs": [
        {
          "internalType": "bool",
          "name": "isRegistered",
          "type": "bool"
        }
      ],
      "stateMutability": "view",
      "type": "function"
    },
    {
      "inputs": [
        {
          "internalType": "uint256",
          "name": "amount",
          "type": "uint256"
        }
      ],
      "name": "withdrawAmount",
      "outputs": [],
      "stateMutability": "nonpayable",
      "type": "function"
    },
    {
      "inputs": [
        {
          "internalType": "string",
          "name": "_issueId",
          "type": "string"
        },
        {
          "internalType": "string",
          "name": "_username",
          "type": "string"
        }
      ],
      "name": "withdrawIssueDeposit",
      "outputs": [],
      "stateMutability": "nonpayable",
      "type": "function"
    },
    {
      "inputs": [
        {
          "internalType": "uint256",
          "name": "_depositId",
          "type": "uint256"
        }
      ],
      "name": "withdrawUserDeposit",
      "outputs": [],
      "stateMutability": "nonpayable",
      "type": "function"
    }
  ],
  "bytecode": "0x60806040523480156200001157600080fd5b50604051620023a2380380620023a283398181016040528101906200003791906200025e565b620000576200004b6200008160201b60201c565b6200008960201b60201c565b62000068826200014d60201b60201c565b6200007981620001ca60201b60201c565b50506200031b565b600033905090565b60008060009054906101000a900473ffffffffffffffffffffffffffffffffffffffff169050816000806101000a81548173ffffffffffffffffffffffffffffffffffffffff021916908373ffffffffffffffffffffffffffffffffffffffff1602179055508173ffffffffffffffffffffffffffffffffffffffff168173ffffffffffffffffffffffffffffffffffffffff167f8be0079c531659141344cd1fd0a4f28419497f9722a3daafe3b4186f6b6457e060405160405180910390a35050565b80600260006101000a81548173ffffffffffffffffffffffffffffffffffffffff021916908373ffffffffffffffffffffffffffffffffffffffff1602179055507f47a741dd6477ca582acb3b97bf19f307712c5699a5afc355ba935a8706e85bf181604051620001bf9190620002b0565b60405180910390a150565b80600160006101000a81548173ffffffffffffffffffffffffffffffffffffffff021916908373ffffffffffffffffffffffffffffffffffffffff1602179055507fa7f1cf8dcbcb1fa8421f563a445c32f7539e77aa7ff1f74a1340e6a07f406402816040516200023c9190620002b0565b60405180910390a150565b600081519050620002588162000301565b92915050565b600080604083850312156200027257600080fd5b6000620002828582860162000247565b9250506020620002958582860162000247565b9150509250929050565b620002aa81620002cd565b82525050565b6000602082019050620002c760008301846200029f565b92915050565b6000620002da82620002e1565b9050919050565b600073ffffffffffffffffffffffffffffffffffffffff82169050919050565b6200030c81620002cd565b81146200031857600080fd5b50565b612077806200032b6000396000f3fe6080604052600436106101145760003560e01c806372fca122116100a0578063c315fbca11610064578063c315fbca1461037c578063c4f59d63146103a5578063dee2d567146103d0578063f2fde38b146103f9578063f4b90ef71461042257610114565b806372fca122146102a65780638617fc46146102e35780638da5cb5b1461030c5780639996f18614610337578063a71cd4eb1461035357610114565b8063422c546b116100e7578063422c546b146101c15780635f38dace146101ff57806360445fb21461023d5780636ed3aa4214610266578063715018a61461028f57610114565b80630562b9f71461011957806312065fe01461014257806324d689141461016d5780633f98b9c714610196575b600080fd5b34801561012557600080fd5b50610140600480360381019061013b9190611884565b61043e565b005b34801561014e57600080fd5b5061015761054e565b6040516101649190611c31565b60405180910390f35b34801561017957600080fd5b50610194600480360381019061018f919061168d565b610556565b005b3480156101a257600080fd5b506101ab6105de565b6040516101b89190611a9e565b60405180910390f35b3480156101cd57600080fd5b506101e860048036038101906101e391906116df565b610604565b6040516101f6929190611b2a565b60405180910390f35b34801561020b57600080fd5b50610226600480360381019061022191906116df565b6106d0565b604051610234929190611b5a565b60405180910390f35b34801561024957600080fd5b50610264600480360381019061025f9190611884565b610804565b005b34801561027257600080fd5b5061028d6004803603810190610288919061168d565b610896565b005b34801561029b57600080fd5b506102a461091e565b005b3480156102b257600080fd5b506102cd60048036038101906102c89190611731565b6109a6565b6040516102da9190611a83565b60405180910390f35b3480156102ef57600080fd5b5061030a60048036038101906103059190611884565b610a8c565b005b34801561031857600080fd5b50610321610b1e565b60405161032e9190611a36565b60405180910390f35b610351600480360381019061034c9190611731565b610b47565b005b34801561035f57600080fd5b5061037a600480360381019061037591906117ce565b610bdd565b005b34801561038857600080fd5b506103a3600480360381019061039e9190611884565b610f92565b005b3480156103b157600080fd5b506103ba6110d5565b6040516103c79190611ab9565b60405180910390f35b3480156103dc57600080fd5b506103f760048036038101906103f29190611776565b6110fb565b005b34801561040557600080fd5b50610420600480360381019061041b919061168d565b61120d565b005b61043c60048036038101906104379190611731565b611305565b005b61044661139b565b73ffffffffffffffffffffffffffffffffffffffff16610464610b1e565b73ffffffffffffffffffffffffffffffffffffffff16146104ba576040517f08c379a00000000000000000000000000000000000000000000000000000000081526004016104b190611bf1565b60405180910390fd5b6104c261054e565b811115610504576040517f08c379a00000000000000000000000000000000000000000000000000000000081526004016104fb90611c11565b60405180910390fd5b3373ffffffffffffffffffffffffffffffffffffffff166108fc829081150290604051600060405180830381858888f1935050505015801561054a573d6000803e3d6000fd5b5050565b600047905090565b61055e61139b565b73ffffffffffffffffffffffffffffffffffffffff1661057c610b1e565b73ffffffffffffffffffffffffffffffffffffffff16146105d2576040517f08c379a00000000000000000000000000000000000000000000000000000000081526004016105c990611bf1565b60405180910390fd5b6105db816113a3565b50565b600160009054906101000a900473ffffffffffffffffffffffffffffffffffffffff1681565b600360205280600052604060002060009150905080600001805461062790611e01565b80601f016020809104026020016040519081016040528092919081815260200182805461065390611e01565b80156106a05780601f10610675576101008083540402835291602001916106a0565b820191906000526020600020905b81548152906001019060200180831161068357829003601f168201915b5050505050908060010160009054906101000a900473ffffffffffffffffffffffffffffffffffffffff16905082565b60046020528060005260406000206000915090508060000180546106f390611e01565b80601f016020809104026020016040519081016040528092919081815260200182805461071f90611e01565b801561076c5780601f106107415761010080835404028352916020019161076c565b820191906000526020600020905b81548152906001019060200180831161074f57829003601f168201915b50505050509080600101805461078190611e01565b80601f01602080910402602001604051908101604052809291908181526020018280546107ad90611e01565b80156107fa5780601f106107cf576101008083540402835291602001916107fa565b820191906000526020600020905b8154815290600101906020018083116107dd57829003601f168201915b5050505050905082565b600160009054906101000a900473ffffffffffffffffffffffffffffffffffffffff1673ffffffffffffffffffffffffffffffffffffffff166398f5b30282336040518363ffffffff1660e01b8152600401610861929190611c4c565b600060405180830381600087803b15801561087b57600080fd5b505af115801561088f573d6000803e3d6000fd5b5050505050565b61089e61139b565b73ffffffffffffffffffffffffffffffffffffffff166108bc610b1e565b73ffffffffffffffffffffffffffffffffffffffff1614610912576040517f08c379a000000000000000000000000000000000000000000000000000000000815260040161090990611bf1565b60405180910390fd5b61091b8161141e565b50565b61092661139b565b73ffffffffffffffffffffffffffffffffffffffff16610944610b1e565b73ffffffffffffffffffffffffffffffffffffffff161461099a576040517f08c379a000000000000000000000000000000000000000000000000000000000815260040161099190611bf1565b60405180910390fd5b6109a46000611499565b565b60008073ffffffffffffffffffffffffffffffffffffffff16600260009054906101000a900473ffffffffffffffffffffffffffffffffffffffff1673ffffffffffffffffffffffffffffffffffffffff1663bdfe7d4785856040518363ffffffff1660e01b8152600401610a1c929190611ad4565b60206040518083038186803b158015610a3457600080fd5b505afa158015610a48573d6000803e3d6000fd5b505050506040513d601f19601f82011682018060405250810190610a6c91906116b6565b73ffffffffffffffffffffffffffffffffffffffff161415905092915050565b600160009054906101000a900473ffffffffffffffffffffffffffffffffffffffff1673ffffffffffffffffffffffffffffffffffffffff1663c7c614fa82336040518363ffffffff1660e01b8152600401610ae9929190611c4c565b600060405180830381600087803b158015610b0357600080fd5b505af1158015610b17573d6000803e3d6000fd5b5050505050565b60008060009054906101000a900473ffffffffffffffffffffffffffffffffffffffff16905090565b600160009054906101000a900473ffffffffffffffffffffffffffffffffffffffff1673ffffffffffffffffffffffffffffffffffffffff16639edc06ee348484336040518563ffffffff1660e01b8152600401610ba793929190611af8565b6000604051808303818588803b158015610bc057600080fd5b505af1158015610bd4573d6000803e3d6000fd5b50505050505050565b610be561139b565b73ffffffffffffffffffffffffffffffffffffffff16610c03610b1e565b73ffffffffffffffffffffffffffffffffffffffff1614610c59576040517f08c379a0000000000000000000000000000000000000000000000000000000008152600401610c5090611bf1565b60405180910390fd5b60006001811115610c93577f4e487b7100000000000000000000000000000000000000000000000000000000600052602160045260246000fd5b600160009054906101000a900473ffffffffffffffffffffffffffffffffffffffff1673ffffffffffffffffffffffffffffffffffffffff16636a6ab0e986866040518363ffffffff1660e01b8152600401610cf0929190611ad4565b60206040518083038186803b158015610d0857600080fd5b505afa158015610d1c573d6000803e3d6000fd5b505050506040513d601f19601f82011682018060405250810190610d409190611708565b6001811115610d78577f4e487b7100000000000000000000000000000000000000000000000000000000600052602160045260246000fd5b14610db8576040517f08c379a0000000000000000000000000000000000000000000000000000000008152600401610daf90611bb1565b60405180910390fd5b6000600260009054906101000a900473ffffffffffffffffffffffffffffffffffffffff1673ffffffffffffffffffffffffffffffffffffffff1663bdfe7d4784846040518363ffffffff1660e01b8152600401610e17929190611ad4565b60206040518083038186803b158015610e2f57600080fd5b505afa158015610e43573d6000803e3d6000fd5b505050506040513d601f19601f82011682018060405250810190610e6791906116b6565b9050600073ffffffffffffffffffffffffffffffffffffffff168173ffffffffffffffffffffffffffffffffffffffff161415610ed9576040517f08c379a0000000000000000000000000000000000000000000000000000000008152600401610ed090611bd1565b60405180910390fd5b600160009054906101000a900473ffffffffffffffffffffffffffffffffffffffff1673ffffffffffffffffffffffffffffffffffffffff166345ae77178287876040518463ffffffff1660e01b8152600401610f3893929190611a51565b602060405180830381600087803b158015610f5257600080fd5b505af1158015610f66573d6000803e3d6000fd5b505050506040513d601f19601f82011682018060405250810190610f8a91906118ad565b505050505050565b600160009054906101000a900473ffffffffffffffffffffffffffffffffffffffff1673ffffffffffffffffffffffffffffffffffffffff1663e14c375f8233600260009054906101000a900473ffffffffffffffffffffffffffffffffffffffff1673ffffffffffffffffffffffffffffffffffffffff1663c155f9bd336040518263ffffffff1660e01b815260040161102d9190611a36565b60006040518083038186803b15801561104557600080fd5b505afa158015611059573d6000803e3d6000fd5b505050506040513d6000823e3d601f19601f820116820180604052508101906110829190611843565b6040518463ffffffff1660e01b81526004016110a093929190611c75565b600060405180830381600087803b1580156110ba57600080fd5b505af11580156110ce573d6000803e3d6000fd5b5050505050565b600260009054906101000a900473ffffffffffffffffffffffffffffffffffffffff1681565b61110361139b565b73ffffffffffffffffffffffffffffffffffffffff16611121610b1e565b73ffffffffffffffffffffffffffffffffffffffff1614611177576040517f08c379a000000000000000000000000000000000000000000000000000000000815260040161116e90611bf1565b60405180910390fd5b600260009054906101000a900473ffffffffffffffffffffffffffffffffffffffff1673ffffffffffffffffffffffffffffffffffffffff1663dee2d5678484846040518463ffffffff1660e01b81526004016111d693929190611af8565b600060405180830381600087803b1580156111f057600080fd5b505af1158015611204573d6000803e3d6000fd5b50505050505050565b61121561139b565b73ffffffffffffffffffffffffffffffffffffffff16611233610b1e565b73ffffffffffffffffffffffffffffffffffffffff1614611289576040517f08c379a000000000000000000000000000000000000000000000000000000000815260040161128090611bf1565b60405180910390fd5b600073ffffffffffffffffffffffffffffffffffffffff168173ffffffffffffffffffffffffffffffffffffffff1614156112f9576040517f08c379a00000000000000000000000000000000000000000000000000000000081526004016112f090611b91565b60405180910390fd5b61130281611499565b50565b600160009054906101000a900473ffffffffffffffffffffffffffffffffffffffff1673ffffffffffffffffffffffffffffffffffffffff1663e54f54a9348484336040518563ffffffff1660e01b815260040161136593929190611af8565b6000604051808303818588803b15801561137e57600080fd5b505af1158015611392573d6000803e3d6000fd5b50505050505050565b600033905090565b80600160006101000a81548173ffffffffffffffffffffffffffffffffffffffff021916908373ffffffffffffffffffffffffffffffffffffffff1602179055507fa7f1cf8dcbcb1fa8421f563a445c32f7539e77aa7ff1f74a1340e6a07f406402816040516114139190611a36565b60405180910390a150565b80600260006101000a81548173ffffffffffffffffffffffffffffffffffffffff021916908373ffffffffffffffffffffffffffffffffffffffff1602179055507f47a741dd6477ca582acb3b97bf19f307712c5699a5afc355ba935a8706e85bf18160405161148e9190611a36565b60405180910390a150565b60008060009054906101000a900473ffffffffffffffffffffffffffffffffffffffff169050816000806101000a81548173ffffffffffffffffffffffffffffffffffffffff021916908373ffffffffffffffffffffffffffffffffffffffff1602179055508173ffffffffffffffffffffffffffffffffffffffff168173ffffffffffffffffffffffffffffffffffffffff167f8be0079c531659141344cd1fd0a4f28419497f9722a3daafe3b4186f6b6457e060405160405180910390a35050565b600061157061156b84611cd8565b611cb3565b90508281526020810184848401111561158857600080fd5b611593848285611dce565b509392505050565b6000813590506115aa81611fec565b92915050565b6000815190506115bf81611fec565b92915050565b6000813590506115d481612003565b92915050565b6000815190506115e98161201a565b92915050565b60008083601f84011261160157600080fd5b8235905067ffffffffffffffff81111561161a57600080fd5b60208301915083600182028301111561163257600080fd5b9250929050565b600082601f83011261164a57600080fd5b815161165a84826020860161155d565b91505092915050565b6000813590506116728161202a565b92915050565b6000815190506116878161202a565b92915050565b60006020828403121561169f57600080fd5b60006116ad8482850161159b565b91505092915050565b6000602082840312156116c857600080fd5b60006116d6848285016115b0565b91505092915050565b6000602082840312156116f157600080fd5b60006116ff848285016115c5565b91505092915050565b60006020828403121561171a57600080fd5b6000611728848285016115da565b91505092915050565b6000806020838503121561174457600080fd5b600083013567ffffffffffffffff81111561175e57600080fd5b61176a858286016115ef565b92509250509250929050565b60008060006040848603121561178b57600080fd5b600084013567ffffffffffffffff8111156117a557600080fd5b6117b1868287016115ef565b935093505060206117c48682870161159b565b9150509250925092565b600080600080604085870312156117e457600080fd5b600085013567ffffffffffffffff8111156117fe57600080fd5b61180a878288016115ef565b9450945050602085013567ffffffffffffffff81111561182957600080fd5b611835878288016115ef565b925092505092959194509250565b60006020828403121561185557600080fd5b600082015167ffffffffffffffff81111561186f57600080fd5b61187b84828501611639565b91505092915050565b60006020828403121561189657600080fd5b60006118a484828501611663565b91505092915050565b6000602082840312156118bf57600080fd5b60006118cd84828501611678565b91505092915050565b6118df81611d25565b82525050565b6118ee81611d37565b82525050565b6118fd81611d77565b82525050565b61190c81611d9b565b82525050565b600061191e8385611d14565b935061192b838584611dbf565b61193483611ec2565b840190509392505050565b600061194a82611d09565b6119548185611d14565b9350611964818560208601611dce565b61196d81611ec2565b840191505092915050565b6000611985602683611d14565b915061199082611ed3565b604082019050919050565b60006119a8601983611d14565b91506119b382611f22565b602082019050919050565b60006119cb601683611d14565b91506119d682611f4b565b602082019050919050565b60006119ee602083611d14565b91506119f982611f74565b602082019050919050565b6000611a11603983611d14565b9150611a1c82611f9d565b604082019050919050565b611a3081611d6d565b82525050565b6000602082019050611a4b60008301846118d6565b92915050565b6000604082019050611a6660008301866118d6565b8181036020830152611a79818486611912565b9050949350505050565b6000602082019050611a9860008301846118e5565b92915050565b6000602082019050611ab360008301846118f4565b92915050565b6000602082019050611ace6000830184611903565b92915050565b60006020820190508181036000830152611aef818486611912565b90509392505050565b60006040820190508181036000830152611b13818587611912565b9050611b2260208301846118d6565b949350505050565b60006040820190508181036000830152611b44818561193f565b9050611b5360208301846118d6565b9392505050565b60006040820190508181036000830152611b74818561193f565b90508181036020830152611b88818461193f565b90509392505050565b60006020820190508181036000830152611baa81611978565b9050919050565b60006020820190508181036000830152611bca8161199b565b9050919050565b60006020820190508181036000830152611bea816119be565b9050919050565b60006020820190508181036000830152611c0a816119e1565b9050919050565b60006020820190508181036000830152611c2a81611a04565b9050919050565b6000602082019050611c466000830184611a27565b92915050565b6000604082019050611c616000830185611a27565b611c6e60208301846118d6565b9392505050565b6000606082019050611c8a6000830186611a27565b611c9760208301856118d6565b8181036040830152611ca9818461193f565b9050949350505050565b6000611cbd611cce565b9050611cc98282611e33565b919050565b6000604051905090565b600067ffffffffffffffff821115611cf357611cf2611e93565b5b611cfc82611ec2565b9050602081019050919050565b600081519050919050565b600082825260208201905092915050565b6000611d3082611d4d565b9050919050565b60008115159050919050565b6000819050919050565b600073ffffffffffffffffffffffffffffffffffffffff82169050919050565b6000819050919050565b6000611d8282611d89565b9050919050565b6000611d9482611d4d565b9050919050565b6000611da682611dad565b9050919050565b6000611db882611d4d565b9050919050565b82818337600083830152505050565b60005b83811015611dec578082015181840152602081019050611dd1565b83811115611dfb576000848401525b50505050565b60006002820490506001821680611e1957607f821691505b60208210811415611e2d57611e2c611e64565b5b50919050565b611e3c82611ec2565b810181811067ffffffffffffffff82111715611e5b57611e5a611e93565b5b80604052505050565b7f4e487b7100000000000000000000000000000000000000000000000000000000600052602260045260246000fd5b7f4e487b7100000000000000000000000000000000000000000000000000000000600052604160045260246000fd5b6000601f19601f8301169050919050565b7f4f776e61626c653a206e6577206f776e657220697320746865207a65726f206160008201527f6464726573730000000000000000000000000000000000000000000000000000602082015250565b7f4f70656e513a204973737565206973206e6f74204f50454e2e00000000000000600082015250565b7f55736572206973206e6f74207265676973746572656400000000000000000000600082015250565b7f4f776e61626c653a2063616c6c6572206973206e6f7420746865206f776e6572600082015250565b7f417474656d7074696e6720746f2077697468647261772067726561746572206160008201527f6d6f756e74207468616e20697320696e20636f6e747261637400000000000000602082015250565b611ff581611d25565b811461200057600080fd5b50565b61200c81611d43565b811461201757600080fd5b50565b6002811061202757600080fd5b50565b61203381611d6d565b811461203e57600080fd5b5056fea26469706673582212206400e29622295a8871e578626540e77ac809e88bf75305a226b700daf99f9d1064736f6c63430008040033",
  "linkReferences": {},
  "deployedLinkReferences": {}
}