{
  "_format": "hh-sol-artifact-1",
  "contractName": "Bounty",
  "sourceName": "contracts/Bounty.sol",
  "abi": [
    {
      "inputs": [
        {
          "internalType": "string",
          "name": "_id",
          "type": "string"
        },
        {
          "internalType": "address",
          "name": "_issuer",
          "type": "address"
        }
      ],
      "stateMutability": "nonpayable",
      "type": "constructor"
    },
    {
      "anonymous": false,
      "inputs": [
        {
          "indexed": true,
          "internalType": "address",
          "name": "previousOwner",
          "type": "address"
        },
        {
          "indexed": true,
          "internalType": "address",
          "name": "newOwner",
          "type": "address"
        }
      ],
      "name": "OwnershipTransferred",
      "type": "event"
    },
    {
      "inputs": [],
      "name": "bountyClosedTime",
      "outputs": [
        {
          "internalType": "uint256",
          "name": "",
          "type": "uint256"
        }
      ],
      "stateMutability": "view",
      "type": "function"
    },
    {
      "inputs": [],
      "name": "bountyCreatedTime",
      "outputs": [
        {
          "internalType": "uint256",
          "name": "",
          "type": "uint256"
        }
      ],
      "stateMutability": "view",
      "type": "function"
    },
    {
      "inputs": [
        {
          "internalType": "address",
          "name": "",
          "type": "address"
        }
      ],
      "name": "bountyDeposits",
      "outputs": [
        {
          "internalType": "uint256",
          "name": "",
          "type": "uint256"
        }
      ],
      "stateMutability": "view",
      "type": "function"
    },
    {
      "inputs": [],
      "name": "bountyId",
      "outputs": [
        {
          "internalType": "string",
          "name": "",
          "type": "string"
        }
      ],
      "stateMutability": "view",
      "type": "function"
    },
    {
      "inputs": [
        {
          "internalType": "uint256",
          "name": "",
          "type": "uint256"
        }
      ],
      "name": "bountyTokenAddresses",
      "outputs": [
        {
          "internalType": "address",
          "name": "",
          "type": "address"
        }
      ],
      "stateMutability": "view",
      "type": "function"
    },
    {
      "inputs": [
        {
          "internalType": "address",
          "name": "_payoutAddress",
          "type": "address"
        }
      ],
      "name": "claim",
      "outputs": [
        {
          "internalType": "bool",
          "name": "success",
          "type": "bool"
        }
      ],
      "stateMutability": "nonpayable",
      "type": "function"
    },
    {
      "inputs": [],
      "name": "closer",
      "outputs": [
        {
          "internalType": "address",
          "name": "",
          "type": "address"
        }
      ],
      "stateMutability": "view",
      "type": "function"
    },
    {
      "inputs": [],
      "name": "escrowPeriod",
      "outputs": [
        {
          "internalType": "uint256",
          "name": "",
          "type": "uint256"
        }
      ],
      "stateMutability": "view",
      "type": "function"
    },
    {
      "inputs": [
        {
          "internalType": "address",
          "name": "",
          "type": "address"
        },
        {
          "internalType": "address",
          "name": "",
          "type": "address"
        }
      ],
      "name": "funderDeposits",
      "outputs": [
        {
          "internalType": "uint256",
          "name": "",
          "type": "uint256"
        }
      ],
      "stateMutability": "view",
      "type": "function"
    },
    {
      "inputs": [
        {
          "internalType": "address",
          "name": "",
          "type": "address"
        },
        {
          "internalType": "uint256",
          "name": "",
          "type": "uint256"
        }
      ],
      "name": "funderTokenAddresses",
      "outputs": [
        {
          "internalType": "address",
          "name": "",
          "type": "address"
        }
      ],
      "stateMutability": "view",
      "type": "function"
    },
    {
      "inputs": [],
      "name": "getBountyTokenAddresses",
      "outputs": [
        {
          "internalType": "address[]",
          "name": "",
          "type": "address[]"
        }
      ],
      "stateMutability": "view",
      "type": "function"
    },
    {
      "inputs": [
        {
          "internalType": "address",
          "name": "_tokenAddress",
          "type": "address"
        }
      ],
      "name": "getERC20Balance",
      "outputs": [
        {
          "internalType": "uint256",
          "name": "balance",
          "type": "uint256"
        }
      ],
      "stateMutability": "view",
      "type": "function"
    },
    {
      "inputs": [
        {
          "internalType": "address",
          "name": "_funder",
          "type": "address"
        }
      ],
      "name": "getFunderTokenAddresses",
      "outputs": [
        {
          "internalType": "address[]",
          "name": "",
          "type": "address[]"
        }
      ],
      "stateMutability": "view",
      "type": "function"
    },
    {
      "inputs": [
        {
          "internalType": "address",
          "name": "",
          "type": "address"
        }
      ],
      "name": "isAFunder",
      "outputs": [
        {
          "internalType": "bool",
          "name": "",
          "type": "bool"
        }
      ],
      "stateMutability": "view",
      "type": "function"
    },
    {
      "inputs": [],
      "name": "issuer",
      "outputs": [
        {
          "internalType": "address",
          "name": "",
          "type": "address"
        }
      ],
      "stateMutability": "view",
      "type": "function"
    },
    {
      "inputs": [],
      "name": "owner",
      "outputs": [
        {
          "internalType": "address",
          "name": "",
          "type": "address"
        }
      ],
      "stateMutability": "view",
      "type": "function"
    },
    {
      "inputs": [
        {
          "internalType": "address",
          "name": "_funder",
          "type": "address"
        },
        {
          "internalType": "address",
          "name": "_tokenAddress",
          "type": "address"
        },
        {
          "internalType": "uint256",
          "name": "_value",
          "type": "uint256"
        }
      ],
      "name": "receiveFunds",
      "outputs": [
        {
          "internalType": "bool",
          "name": "success",
          "type": "bool"
        }
      ],
      "stateMutability": "nonpayable",
      "type": "function"
    },
    {
      "inputs": [
        {
          "internalType": "address",
          "name": "_funder",
          "type": "address"
        },
        {
          "internalType": "address",
          "name": "_tokenAddress",
          "type": "address"
        }
      ],
      "name": "refundBountyDeposit",
      "outputs": [
        {
          "internalType": "bool",
          "name": "success",
          "type": "bool"
        }
      ],
      "stateMutability": "nonpayable",
      "type": "function"
    },
    {
      "inputs": [],
      "name": "renounceOwnership",
      "outputs": [],
      "stateMutability": "nonpayable",
      "type": "function"
    },
    {
      "inputs": [],
      "name": "status",
      "outputs": [
        {
          "internalType": "enum Bounty.BountyStatus",
          "name": "",
          "type": "uint8"
        }
      ],
      "stateMutability": "view",
      "type": "function"
    },
    {
      "inputs": [
        {
          "internalType": "address",
          "name": "newOwner",
          "type": "address"
        }
      ],
      "name": "transferOwnership",
      "outputs": [],
      "stateMutability": "nonpayable",
      "type": "function"
    }
  ],
  "bytecode": "0x608060405262278d006009553480156200001857600080fd5b50604051620026293803806200262983398181016040528101906200003e91906200031e565b6200005e620000526200011960201b60201c565b6200012160201b60201c565b816006908051906020019062000076929190620001e5565b506000600b60146101000a81548160ff02191690836001811115620000c4577f4e487b7100000000000000000000000000000000000000000000000000000000600052602160045260246000fd5b021790555080600a60006101000a81548173ffffffffffffffffffffffffffffffffffffffff021916908373ffffffffffffffffffffffffffffffffffffffff16021790555042600781905550505062000536565b600033905090565b60008060009054906101000a900473ffffffffffffffffffffffffffffffffffffffff169050816000806101000a81548173ffffffffffffffffffffffffffffffffffffffff021916908373ffffffffffffffffffffffffffffffffffffffff1602179055508173ffffffffffffffffffffffffffffffffffffffff168173ffffffffffffffffffffffffffffffffffffffff167f8be0079c531659141344cd1fd0a4f28419497f9722a3daafe3b4186f6b6457e060405160405180910390a35050565b828054620001f39062000441565b90600052602060002090601f01602090048101928262000217576000855562000263565b82601f106200023257805160ff191683800117855562000263565b8280016001018555821562000263579182015b828111156200026257825182559160200191906001019062000245565b5b50905062000272919062000276565b5090565b5b808211156200029157600081600090555060010162000277565b5090565b6000620002ac620002a684620003a1565b62000378565b905082815260208101848484011115620002c557600080fd5b620002d28482856200040b565b509392505050565b600081519050620002eb816200051c565b92915050565b600082601f8301126200030357600080fd5b81516200031584826020860162000295565b91505092915050565b600080604083850312156200033257600080fd5b600083015167ffffffffffffffff8111156200034d57600080fd5b6200035b85828601620002f1565b92505060206200036e85828601620002da565b9150509250929050565b60006200038462000397565b905062000392828262000477565b919050565b6000604051905090565b600067ffffffffffffffff821115620003bf57620003be620004dc565b5b620003ca826200050b565b9050602081019050919050565b6000620003e482620003eb565b9050919050565b600073ffffffffffffffffffffffffffffffffffffffff82169050919050565b60005b838110156200042b5780820151818401526020810190506200040e565b838111156200043b576000848401525b50505050565b600060028204905060018216806200045a57607f821691505b60208210811415620004715762000470620004ad565b5b50919050565b62000482826200050b565b810181811067ffffffffffffffff82111715620004a457620004a3620004dc565b5b80604052505050565b7f4e487b7100000000000000000000000000000000000000000000000000000000600052602260045260246000fd5b7f4e487b7100000000000000000000000000000000000000000000000000000000600052604160045260246000fd5b6000601f19601f8301169050919050565b6200052781620003d7565b81146200053357600080fd5b50565b6120e380620005466000396000f3fe608060405234801561001057600080fd5b50600436106101375760003560e01c8063995280b0116100b8578063cb4436b71161007c578063cb4436b71461037a578063d405123e14610398578063df9229f0146103c8578063f16b51c1146103f8578063f2fde38b14610416578063fc5d2cf41461043257610137565b8063995280b0146102ae578063b0100cf7146102cc578063b588d225146102fc578063b9df819f1461032c578063c17bd75e1461035c57610137565b80634b8022b2116100ff5780634b8022b2146102085780636216753b146102385780637044f28214610268578063715018a6146102865780638da5cb5b1461029057610137565b80631bef55051461013c5780631d1438481461016c5780631e83409a1461018a578063200d2ed2146101ba57806329ffef15146101d8575b600080fd5b610156600480360381019061015191906116c4565b610450565b6040516101639190611ae7565b60405180910390f35b61017461051d565b6040516101819190611a6c565b60405180910390f35b6101a4600480360381019061019f91906116c4565b610543565b6040516101b19190611b09565b60405180910390f35b6101c26108d6565b6040516101cf9190611b24565b60405180910390f35b6101f260048036038101906101ed91906116ed565b6108e9565b6040516101ff9190611b09565b60405180910390f35b610222600480360381019061021d9190611778565b6109f8565b60405161022f9190611a6c565b60405180910390f35b610252600480360381019061024d91906116ed565b610a46565b60405161025f9190611c21565b60405180910390f35b610270610a6b565b60405161027d9190611a6c565b60405180910390f35b61028e610a91565b005b610298610b19565b6040516102a59190611a6c565b60405180910390f35b6102b6610b42565b6040516102c39190611c21565b60405180910390f35b6102e660048036038101906102e191906116c4565b610b48565b6040516102f39190611b09565b60405180910390f35b610316600480360381019061031191906116c4565b610b68565b6040516103239190611c21565b60405180910390f35b61034660048036038101906103419190611729565b610bff565b6040516103539190611b09565b60405180910390f35b610364610fe7565b6040516103719190611b3f565b60405180910390f35b610382611075565b60405161038f9190611c21565b60405180910390f35b6103b260048036038101906103ad91906116c4565b61107b565b6040516103bf9190611c21565b60405180910390f35b6103e260048036038101906103dd9190611806565b611093565b6040516103ef9190611a6c565b60405180910390f35b6104006110d2565b60405161040d9190611c21565b60405180910390f35b610430600480360381019061042b91906116c4565b6110d8565b005b61043a6111d0565b6040516104479190611ae7565b60405180910390f35b6060600360008373ffffffffffffffffffffffffffffffffffffffff1673ffffffffffffffffffffffffffffffffffffffff16815260200190815260200160002080548060200260200160405190810160405280929190818152602001828054801561051157602002820191906000526020600020905b8160009054906101000a900473ffffffffffffffffffffffffffffffffffffffff1673ffffffffffffffffffffffffffffffffffffffff16815260200190600101908083116104c7575b50505050509050919050565b600a60009054906101000a900473ffffffffffffffffffffffffffffffffffffffff1681565b600061054d61125e565b73ffffffffffffffffffffffffffffffffffffffff1661056b610b19565b73ffffffffffffffffffffffffffffffffffffffff16146105c1576040517f08c379a00000000000000000000000000000000000000000000000000000000081526004016105b890611be1565b60405180910390fd5b6105ff6040518060400160405280600e81526020017f7364667364667364667364667364000000000000000000000000000000000000815250611266565b60006001811115610639577f4e487b7100000000000000000000000000000000000000000000000000000000600052602160045260246000fd5b3073ffffffffffffffffffffffffffffffffffffffff1663200d2ed26040518163ffffffff1660e01b815260040160206040518083038186803b15801561067f57600080fd5b505afa158015610693573d6000803e3d6000fd5b505050506040513d601f19601f820116820180604052508101906106b791906117dd565b60018111156106ef577f4e487b7100000000000000000000000000000000000000000000000000000000600052602160045260246000fd5b1461072f576040517f08c379a000000000000000000000000000000000000000000000000000000000815260040161072690611bc1565b60405180910390fd5b60005b6001805490508110156108335760006107ae6001838154811061077e577f4e487b7100000000000000000000000000000000000000000000000000000000600052603260045260246000fd5b9060005260206000200160009054906101000a900473ffffffffffffffffffffffffffffffffffffffff16610b68565b905061081f600183815481106107ed577f4e487b7100000000000000000000000000000000000000000000000000000000600052603260045260246000fd5b9060005260206000200160009054906101000a900473ffffffffffffffffffffffffffffffffffffffff1685836112ff565b50808061082b90611dcf565b915050610732565b506001600b60146101000a81548160ff02191690836001811115610880577f4e487b7100000000000000000000000000000000000000000000000000000000600052602160045260246000fd5b021790555081600b60006101000a81548173ffffffffffffffffffffffffffffffffffffffff021916908373ffffffffffffffffffffffffffffffffffffffff1602179055504260088190555060019050919050565b600b60149054906101000a900460ff1681565b60006108f361125e565b73ffffffffffffffffffffffffffffffffffffffff16610911610b19565b73ffffffffffffffffffffffffffffffffffffffff1614610967576040517f08c379a000000000000000000000000000000000000000000000000000000000815260040161095e90611be1565b60405180910390fd5b6109ee8284600460008773ffffffffffffffffffffffffffffffffffffffff1673ffffffffffffffffffffffffffffffffffffffff16815260200190815260200160002060008673ffffffffffffffffffffffffffffffffffffffff1673ffffffffffffffffffffffffffffffffffffffff168152602001908152602001600020546112ff565b6001905092915050565b60036020528160005260406000208181548110610a1457600080fd5b906000526020600020016000915091509054906101000a900473ffffffffffffffffffffffffffffffffffffffff1681565b6004602052816000526040600020602052806000526040600020600091509150505481565b600b60009054906101000a900473ffffffffffffffffffffffffffffffffffffffff1681565b610a9961125e565b73ffffffffffffffffffffffffffffffffffffffff16610ab7610b19565b73ffffffffffffffffffffffffffffffffffffffff1614610b0d576040517f08c379a0000000000000000000000000000000000000000000000000000000008152600401610b0490611be1565b60405180910390fd5b610b176000611435565b565b60008060009054906101000a900473ffffffffffffffffffffffffffffffffffffffff16905090565b60075481565b60056020528060005260406000206000915054906101000a900460ff1681565b6000808290508073ffffffffffffffffffffffffffffffffffffffff166370a08231306040518263ffffffff1660e01b8152600401610ba79190611a6c565b60206040518083038186803b158015610bbf57600080fd5b505afa158015610bd3573d6000803e3d6000fd5b505050506040513d601f19601f82011682018060405250810190610bf7919061182f565b915050919050565b6000610c0961125e565b73ffffffffffffffffffffffffffffffffffffffff16610c27610b19565b73ffffffffffffffffffffffffffffffffffffffff1614610c7d576040517f08c379a0000000000000000000000000000000000000000000000000000000008152600401610c7490611be1565b60405180910390fd5b6000821415610cc1576040517f08c379a0000000000000000000000000000000000000000000000000000000008152600401610cb890611ba1565b60405180910390fd5b610ccd838530856114f9565b6001600560008673ffffffffffffffffffffffffffffffffffffffff1673ffffffffffffffffffffffffffffffffffffffff16815260200190815260200160002060006101000a81548160ff0219169083151502179055506000600260008573ffffffffffffffffffffffffffffffffffffffff1673ffffffffffffffffffffffffffffffffffffffff168152602001908152602001600020541415610dd1576001839080600181540180825580915050600190039060005260206000200160009091909190916101000a81548173ffffffffffffffffffffffffffffffffffffffff021916908373ffffffffffffffffffffffffffffffffffffffff1602179055505b6000600460008673ffffffffffffffffffffffffffffffffffffffff1673ffffffffffffffffffffffffffffffffffffffff16815260200190815260200160002060008573ffffffffffffffffffffffffffffffffffffffff1673ffffffffffffffffffffffffffffffffffffffff168152602001908152602001600020541415610ef757600360008573ffffffffffffffffffffffffffffffffffffffff1673ffffffffffffffffffffffffffffffffffffffff168152602001908152602001600020839080600181540180825580915050600190039060005260206000200160009091909190916101000a81548173ffffffffffffffffffffffffffffffffffffffff021916908373ffffffffffffffffffffffffffffffffffffffff1602179055505b81600260008573ffffffffffffffffffffffffffffffffffffffff1673ffffffffffffffffffffffffffffffffffffffff1681526020019081526020016000206000828254610f469190611ca7565b9250508190555081600460008673ffffffffffffffffffffffffffffffffffffffff1673ffffffffffffffffffffffffffffffffffffffff16815260200190815260200160002060008573ffffffffffffffffffffffffffffffffffffffff1673ffffffffffffffffffffffffffffffffffffffff1681526020019081526020016000206000828254610fd99190611ca7565b925050819055509392505050565b60068054610ff490611d9d565b80601f016020809104026020016040519081016040528092919081815260200182805461102090611d9d565b801561106d5780601f106110425761010080835404028352916020019161106d565b820191906000526020600020905b81548152906001019060200180831161105057829003601f168201915b505050505081565b60085481565b60026020528060005260406000206000915090505481565b600181815481106110a357600080fd5b906000526020600020016000915054906101000a900473ffffffffffffffffffffffffffffffffffffffff1681565b60095481565b6110e061125e565b73ffffffffffffffffffffffffffffffffffffffff166110fe610b19565b73ffffffffffffffffffffffffffffffffffffffff1614611154576040517f08c379a000000000000000000000000000000000000000000000000000000000815260040161114b90611be1565b60405180910390fd5b600073ffffffffffffffffffffffffffffffffffffffff168173ffffffffffffffffffffffffffffffffffffffff1614156111c4576040517f08c379a00000000000000000000000000000000000000000000000000000000081526004016111bb90611b61565b60405180910390fd5b6111cd81611435565b50565b6060600180548060200260200160405190810160405280929190818152602001828054801561125457602002820191906000526020600020905b8160009054906101000a900473ffffffffffffffffffffffffffffffffffffffff1673ffffffffffffffffffffffffffffffffffffffff168152602001906001019080831161120a575b5050505050905090565b600033905090565b6112fc8160405160240161127a9190611b3f565b6040516020818303038152906040527f41304fac000000000000000000000000000000000000000000000000000000007bffffffffffffffffffffffffffffffffffffffffffffffffffffffff19166020820180517bffffffffffffffffffffffffffffffffffffffffffffffffffffffff8381831617835250505050611632565b50565b6000808473ffffffffffffffffffffffffffffffffffffffff1663a9059cbb8585604051602401611331929190611abe565b6040516020818303038152906040529060e01b6020820180517bffffffffffffffffffffffffffffffffffffffffffffffffffffffff838183161783525050505060405161137f9190611a55565b6000604051808303816000865af19150503d80600081146113bc576040519150601f19603f3d011682016040523d82523d6000602084013e6113c1565b606091505b50915091508180156113ef57506000815114806113ee5750808060200190518101906113ed91906117b4565b5b5b61142e576040517f08c379a000000000000000000000000000000000000000000000000000000000815260040161142590611c01565b60405180910390fd5b5050505050565b60008060009054906101000a900473ffffffffffffffffffffffffffffffffffffffff169050816000806101000a81548173ffffffffffffffffffffffffffffffffffffffff021916908373ffffffffffffffffffffffffffffffffffffffff1602179055508173ffffffffffffffffffffffffffffffffffffffff168173ffffffffffffffffffffffffffffffffffffffff167f8be0079c531659141344cd1fd0a4f28419497f9722a3daafe3b4186f6b6457e060405160405180910390a35050565b6000808573ffffffffffffffffffffffffffffffffffffffff166323b872dd86868660405160240161152d93929190611a87565b6040516020818303038152906040529060e01b6020820180517bffffffffffffffffffffffffffffffffffffffffffffffffffffffff838183161783525050505060405161157b9190611a55565b6000604051808303816000865af19150503d80600081146115b8576040519150601f19603f3d011682016040523d82523d6000602084013e6115bd565b606091505b50915091508180156115eb57506000815114806115ea5750808060200190518101906115e991906117b4565b5b5b61162a576040517f08c379a000000000000000000000000000000000000000000000000000000000815260040161162190611b81565b60405180910390fd5b505050505050565b60008151905060006a636f6e736f6c652e6c6f679050602083016000808483855afa5050505050565b60008135905061166a81612058565b92915050565b60008151905061167f8161206f565b92915050565b60008151905061169481612086565b92915050565b6000813590506116a981612096565b92915050565b6000815190506116be81612096565b92915050565b6000602082840312156116d657600080fd5b60006116e48482850161165b565b91505092915050565b6000806040838503121561170057600080fd5b600061170e8582860161165b565b925050602061171f8582860161165b565b9150509250929050565b60008060006060848603121561173e57600080fd5b600061174c8682870161165b565b935050602061175d8682870161165b565b925050604061176e8682870161169a565b9150509250925092565b6000806040838503121561178b57600080fd5b60006117998582860161165b565b92505060206117aa8582860161169a565b9150509250929050565b6000602082840312156117c657600080fd5b60006117d484828501611670565b91505092915050565b6000602082840312156117ef57600080fd5b60006117fd84828501611685565b91505092915050565b60006020828403121561181857600080fd5b60006118268482850161169a565b91505092915050565b60006020828403121561184157600080fd5b600061184f848285016116af565b91505092915050565b60006118648383611870565b60208301905092915050565b61187981611cfd565b82525050565b61188881611cfd565b82525050565b600061189982611c4c565b6118a38185611c7a565b93506118ae83611c3c565b8060005b838110156118df5781516118c68882611858565b97506118d183611c6d565b9250506001810190506118b2565b5085935050505092915050565b6118f581611d0f565b82525050565b600061190682611c57565b6119108185611c8b565b9350611920818560208601611d6a565b80840191505092915050565b61193581611d58565b82525050565b600061194682611c62565b6119508185611c96565b9350611960818560208601611d6a565b61196981611ea5565b840191505092915050565b6000611981602683611c96565b915061198c82611eb6565b604082019050919050565b60006119a4603183611c96565b91506119af82611f05565b604082019050919050565b60006119c7601483611c96565b91506119d282611f54565b602082019050919050565b60006119ea603083611c96565b91506119f582611f7d565b604082019050919050565b6000611a0d602083611c96565b9150611a1882611fcc565b602082019050919050565b6000611a30602d83611c96565b9150611a3b82611ff5565b604082019050919050565b611a4f81611d4e565b82525050565b6000611a6182846118fb565b915081905092915050565b6000602082019050611a81600083018461187f565b92915050565b6000606082019050611a9c600083018661187f565b611aa9602083018561187f565b611ab66040830184611a46565b949350505050565b6000604082019050611ad3600083018561187f565b611ae06020830184611a46565b9392505050565b60006020820190508181036000830152611b01818461188e565b905092915050565b6000602082019050611b1e60008301846118ec565b92915050565b6000602082019050611b39600083018461192c565b92915050565b60006020820190508181036000830152611b59818461193b565b905092915050565b60006020820190508181036000830152611b7a81611974565b9050919050565b60006020820190508181036000830152611b9a81611997565b9050919050565b60006020820190508181036000830152611bba816119ba565b9050919050565b60006020820190508181036000830152611bda816119dd565b9050919050565b60006020820190508181036000830152611bfa81611a00565b9050919050565b60006020820190508181036000830152611c1a81611a23565b9050919050565b6000602082019050611c366000830184611a46565b92915050565b6000819050602082019050919050565b600081519050919050565b600081519050919050565b600081519050919050565b6000602082019050919050565b600082825260208201905092915050565b600081905092915050565b600082825260208201905092915050565b6000611cb282611d4e565b9150611cbd83611d4e565b9250827fffffffffffffffffffffffffffffffffffffffffffffffffffffffffffffffff03821115611cf257611cf1611e18565b5b828201905092915050565b6000611d0882611d2e565b9050919050565b60008115159050919050565b6000819050611d2982612044565b919050565b600073ffffffffffffffffffffffffffffffffffffffff82169050919050565b6000819050919050565b6000611d6382611d1b565b9050919050565b60005b83811015611d88578082015181840152602081019050611d6d565b83811115611d97576000848401525b50505050565b60006002820490506001821680611db557607f821691505b60208210811415611dc957611dc8611e76565b5b50919050565b6000611dda82611d4e565b91507fffffffffffffffffffffffffffffffffffffffffffffffffffffffffffffffff821415611e0d57611e0c611e18565b5b600182019050919050565b7f4e487b7100000000000000000000000000000000000000000000000000000000600052601160045260246000fd5b7f4e487b7100000000000000000000000000000000000000000000000000000000600052602160045260246000fd5b7f4e487b7100000000000000000000000000000000000000000000000000000000600052602260045260246000fd5b6000601f19601f8301169050919050565b7f4f776e61626c653a206e6577206f776e657220697320746865207a65726f206160008201527f6464726573730000000000000000000000000000000000000000000000000000602082015250565b7f5472616e7366657248656c7065723a3a7472616e7366657246726f6d3a20747260008201527f616e7366657246726f6d206661696c6564000000000000000000000000000000602082015250565b7f4d7573742073656e6420736f6d652076616c7565000000000000000000000000600082015250565b7f5468697320697320626f756e747920697320636c6f7365642e2043616e6e6f7460008201527f20776974686472617720616761696e2e00000000000000000000000000000000602082015250565b7f4f776e61626c653a2063616c6c6572206973206e6f7420746865206f776e6572600082015250565b7f5472616e7366657248656c7065723a3a736166655472616e736665723a20747260008201527f616e73666572206661696c656400000000000000000000000000000000000000602082015250565b6002811061205557612054611e47565b5b50565b61206181611cfd565b811461206c57600080fd5b50565b61207881611d0f565b811461208357600080fd5b50565b6002811061209357600080fd5b50565b61209f81611d4e565b81146120aa57600080fd5b5056fea2646970667358221220ac01c71bb4dfbbf69534c71e83f022612074dcff3a5924da8718f4a392ab93b964736f6c63430008040033",
  "linkReferences": {},
  "deployedLinkReferences": {}
}