{
  "_format": "hh-sol-artifact-1",
  "contractName": "Bounty",
  "sourceName": "contracts/Bounty.sol",
  "abi": [
    {
      "inputs": [
        {
          "internalType": "string",
          "name": "_id",
          "type": "string"
        },
        {
          "internalType": "address",
          "name": "_issuer",
          "type": "address"
        }
      ],
      "stateMutability": "nonpayable",
      "type": "constructor"
    },
    {
      "anonymous": false,
      "inputs": [
        {
          "indexed": true,
          "internalType": "address",
          "name": "previousOwner",
          "type": "address"
        },
        {
          "indexed": true,
          "internalType": "address",
          "name": "newOwner",
          "type": "address"
        }
      ],
      "name": "OwnershipTransferred",
      "type": "event"
    },
    {
      "stateMutability": "nonpayable",
      "type": "fallback"
    },
    {
      "inputs": [],
      "name": "bountyClosedTime",
      "outputs": [
        {
          "internalType": "uint256",
          "name": "",
          "type": "uint256"
        }
      ],
      "stateMutability": "view",
      "type": "function"
    },
    {
      "inputs": [],
      "name": "bountyCreatedTime",
      "outputs": [
        {
          "internalType": "uint256",
          "name": "",
          "type": "uint256"
        }
      ],
      "stateMutability": "view",
      "type": "function"
    },
    {
      "inputs": [],
      "name": "bountyId",
      "outputs": [
        {
          "internalType": "string",
          "name": "",
          "type": "string"
        }
      ],
      "stateMutability": "view",
      "type": "function"
    },
    {
      "inputs": [
        {
          "internalType": "uint256",
          "name": "",
          "type": "uint256"
        }
      ],
      "name": "bountyTokenAddresses",
      "outputs": [
        {
          "internalType": "address",
          "name": "",
          "type": "address"
        }
      ],
      "stateMutability": "view",
      "type": "function"
    },
    {
      "inputs": [
        {
          "internalType": "address",
          "name": "_payoutAddress",
          "type": "address"
        },
        {
          "internalType": "address",
          "name": "_tokenAddress",
          "type": "address"
        }
      ],
      "name": "claim",
      "outputs": [
        {
          "internalType": "bool",
          "name": "success",
          "type": "bool"
        }
      ],
      "stateMutability": "nonpayable",
      "type": "function"
    },
    {
      "inputs": [
        {
          "internalType": "address",
          "name": "_payoutAddress",
          "type": "address"
        }
      ],
      "name": "closeBounty",
      "outputs": [
        {
          "internalType": "bool",
          "name": "success",
          "type": "bool"
        }
      ],
      "stateMutability": "nonpayable",
      "type": "function"
    },
    {
      "inputs": [],
      "name": "closer",
      "outputs": [
        {
          "internalType": "address",
          "name": "",
          "type": "address"
        }
      ],
      "stateMutability": "view",
      "type": "function"
    },
    {
      "inputs": [],
      "name": "escrowPeriod",
      "outputs": [
        {
          "internalType": "uint256",
          "name": "",
          "type": "uint256"
        }
      ],
      "stateMutability": "view",
      "type": "function"
    },
    {
      "inputs": [
        {
          "internalType": "address",
          "name": "",
          "type": "address"
        },
        {
          "internalType": "address",
          "name": "",
          "type": "address"
        }
      ],
      "name": "funderDeposits",
      "outputs": [
        {
          "internalType": "uint256",
          "name": "",
          "type": "uint256"
        }
      ],
      "stateMutability": "view",
      "type": "function"
    },
    {
      "inputs": [
        {
          "internalType": "address",
          "name": "",
          "type": "address"
        },
        {
          "internalType": "uint256",
          "name": "",
          "type": "uint256"
        }
      ],
      "name": "funderTokenAddresses",
      "outputs": [
        {
          "internalType": "address",
          "name": "",
          "type": "address"
        }
      ],
      "stateMutability": "view",
      "type": "function"
    },
    {
      "inputs": [],
      "name": "getBountyTokenAddresses",
      "outputs": [
        {
          "internalType": "address[]",
          "name": "",
          "type": "address[]"
        }
      ],
      "stateMutability": "view",
      "type": "function"
    },
    {
      "inputs": [
        {
          "internalType": "address",
          "name": "_tokenAddress",
          "type": "address"
        }
      ],
      "name": "getERC20Balance",
      "outputs": [
        {
          "internalType": "uint256",
          "name": "balance",
          "type": "uint256"
        }
      ],
      "stateMutability": "view",
      "type": "function"
    },
    {
      "inputs": [
        {
          "internalType": "address",
          "name": "_funder",
          "type": "address"
        }
      ],
      "name": "getFunderTokenAddresses",
      "outputs": [
        {
          "internalType": "address[]",
          "name": "",
          "type": "address[]"
        }
      ],
      "stateMutability": "view",
      "type": "function"
    },
    {
      "inputs": [
        {
          "internalType": "address",
          "name": "",
          "type": "address"
        }
      ],
      "name": "isAFunder",
      "outputs": [
        {
          "internalType": "bool",
          "name": "",
          "type": "bool"
        }
      ],
      "stateMutability": "view",
      "type": "function"
    },
    {
      "inputs": [],
      "name": "issuer",
      "outputs": [
        {
          "internalType": "address",
          "name": "",
          "type": "address"
        }
      ],
      "stateMutability": "view",
      "type": "function"
    },
    {
      "inputs": [],
      "name": "owner",
      "outputs": [
        {
          "internalType": "address",
          "name": "",
          "type": "address"
        }
      ],
      "stateMutability": "view",
      "type": "function"
    },
    {
      "inputs": [
        {
          "internalType": "address",
          "name": "_funder",
          "type": "address"
        },
        {
          "internalType": "address",
          "name": "_tokenAddress",
          "type": "address"
        },
        {
          "internalType": "uint256",
          "name": "_value",
          "type": "uint256"
        }
      ],
      "name": "receiveFunds",
      "outputs": [
        {
          "internalType": "bool",
          "name": "success",
          "type": "bool"
        }
      ],
      "stateMutability": "nonpayable",
      "type": "function"
    },
    {
      "inputs": [
        {
          "internalType": "address",
          "name": "_funder",
          "type": "address"
        },
        {
          "internalType": "address",
          "name": "_tokenAddress",
          "type": "address"
        }
      ],
      "name": "refundBountyDeposit",
      "outputs": [
        {
          "internalType": "bool",
          "name": "success",
          "type": "bool"
        }
      ],
      "stateMutability": "nonpayable",
      "type": "function"
    },
    {
      "inputs": [],
      "name": "renounceOwnership",
      "outputs": [],
      "stateMutability": "nonpayable",
      "type": "function"
    },
    {
      "inputs": [],
      "name": "status",
      "outputs": [
        {
          "internalType": "enum Bounty.BountyStatus",
          "name": "",
          "type": "uint8"
        }
      ],
      "stateMutability": "view",
      "type": "function"
    },
    {
      "inputs": [
        {
          "internalType": "address",
          "name": "newOwner",
          "type": "address"
        }
      ],
      "name": "transferOwnership",
      "outputs": [],
      "stateMutability": "nonpayable",
      "type": "function"
    }
  ],
  "bytecode": "0x60806040524260065562278d006008553480156200001c57600080fd5b50604051620026de380380620026de83398181016040528101906200004291906200031b565b62000062620000566200011660201b60201c565b6200011e60201b60201c565b81600590805190602001906200007a929190620001e2565b506000600a60146101000a81548160ff02191690836001811115620000c8577f4e487b7100000000000000000000000000000000000000000000000000000000600052602160045260246000fd5b021790555080600960006101000a81548173ffffffffffffffffffffffffffffffffffffffff021916908373ffffffffffffffffffffffffffffffffffffffff160217905550505062000533565b600033905090565b60008060009054906101000a900473ffffffffffffffffffffffffffffffffffffffff169050816000806101000a81548173ffffffffffffffffffffffffffffffffffffffff021916908373ffffffffffffffffffffffffffffffffffffffff1602179055508173ffffffffffffffffffffffffffffffffffffffff168173ffffffffffffffffffffffffffffffffffffffff167f8be0079c531659141344cd1fd0a4f28419497f9722a3daafe3b4186f6b6457e060405160405180910390a35050565b828054620001f0906200043e565b90600052602060002090601f01602090048101928262000214576000855562000260565b82601f106200022f57805160ff191683800117855562000260565b8280016001018555821562000260579182015b828111156200025f57825182559160200191906001019062000242565b5b5090506200026f919062000273565b5090565b5b808211156200028e57600081600090555060010162000274565b5090565b6000620002a9620002a3846200039e565b62000375565b905082815260208101848484011115620002c257600080fd5b620002cf84828562000408565b509392505050565b600081519050620002e88162000519565b92915050565b600082601f8301126200030057600080fd5b81516200031284826020860162000292565b91505092915050565b600080604083850312156200032f57600080fd5b600083015167ffffffffffffffff8111156200034a57600080fd5b6200035885828601620002ee565b92505060206200036b85828601620002d7565b9150509250929050565b60006200038162000394565b90506200038f828262000474565b919050565b6000604051905090565b600067ffffffffffffffff821115620003bc57620003bb620004d9565b5b620003c78262000508565b9050602081019050919050565b6000620003e182620003e8565b9050919050565b600073ffffffffffffffffffffffffffffffffffffffff82169050919050565b60005b83811015620004285780820151818401526020810190506200040b565b8381111562000438576000848401525b50505050565b600060028204905060018216806200045757607f821691505b602082108114156200046e576200046d620004aa565b5b50919050565b6200047f8262000508565b810181811067ffffffffffffffff82111715620004a157620004a0620004d9565b5b80604052505050565b7f4e487b7100000000000000000000000000000000000000000000000000000000600052602260045260246000fd5b7f4e487b7100000000000000000000000000000000000000000000000000000000600052604160045260246000fd5b6000601f19601f8301169050919050565b6200052481620003d4565b81146200053057600080fd5b50565b61219b80620005436000396000f3fe608060405234801561001057600080fd5b506004361061013b5760003560e01c8063995280b0116100b8578063cb4436b71161007c578063cb4436b71461037f578063df9229f01461039d578063ec05635c146103cd578063f16b51c1146103fd578063f2fde38b1461041b578063fc5d2cf4146104375761013c565b8063995280b0146102b3578063b0100cf7146102d1578063b588d22514610301578063b9df819f14610331578063c17bd75e146103615761013c565b80634b8022b2116100ff5780634b8022b21461020d5780636216753b1461023d5780637044f2821461026d578063715018a61461028b5780638da5cb5b146102955761013c565b80631bef5505146101415780631d14384814610171578063200d2ed21461018f57806321c0b342146101ad57806329ffef15146101dd5761013c565b5b600080fd5b61015b600480360381019061015691906116ff565b610455565b6040516101689190611b45565b60405180910390f35b610179610522565b6040516101869190611aca565b60405180910390f35b610197610548565b6040516101a49190611b82565b60405180910390f35b6101c760048036038101906101c29190611728565b61055b565b6040516101d49190611b67565b60405180910390f35b6101f760048036038101906101f29190611728565b61072c565b6040516102049190611b67565b60405180910390f35b610227600480360381019061022291906117b3565b61094a565b6040516102349190611aca565b60405180910390f35b61025760048036038101906102529190611728565b610998565b6040516102649190611c9f565b60405180910390f35b6102756109bd565b6040516102829190611aca565b60405180910390f35b6102936109e3565b005b61029d610a6b565b6040516102aa9190611aca565b60405180910390f35b6102bb610a94565b6040516102c89190611c9f565b60405180910390f35b6102eb60048036038101906102e691906116ff565b610a9a565b6040516102f89190611b67565b60405180910390f35b61031b600480360381019061031691906116ff565b610aba565b6040516103289190611c9f565b60405180910390f35b61034b60048036038101906103469190611764565b610b51565b6040516103589190611b67565b60405180910390f35b610369610eac565b6040516103769190611b9d565b60405180910390f35b610387610f3a565b6040516103949190611c9f565b60405180910390f35b6103b760048036038101906103b29190611841565b610f40565b6040516103c49190611aca565b60405180910390f35b6103e760048036038101906103e291906116ff565b610f7f565b6040516103f49190611b67565b60405180910390f35b6104056111cf565b6040516104129190611c9f565b60405180910390f35b610435600480360381019061043091906116ff565b6111d5565b005b61043f6112cd565b60405161044c9190611b45565b60405180910390f35b6060600260008373ffffffffffffffffffffffffffffffffffffffff1673ffffffffffffffffffffffffffffffffffffffff16815260200190815260200160002080548060200260200160405190810160405280929190818152602001828054801561051657602002820191906000526020600020905b8160009054906101000a900473ffffffffffffffffffffffffffffffffffffffff1673ffffffffffffffffffffffffffffffffffffffff16815260200190600101908083116104cc575b50505050509050919050565b600960009054906101000a900473ffffffffffffffffffffffffffffffffffffffff1681565b600a60149054906101000a900460ff1681565b600061056561135b565b73ffffffffffffffffffffffffffffffffffffffff16610583610a6b565b73ffffffffffffffffffffffffffffffffffffffff16146105d9576040517f08c379a00000000000000000000000000000000000000000000000000000000081526004016105d090611c3f565b60405180910390fd5b60006001811115610613577f4e487b7100000000000000000000000000000000000000000000000000000000600052602160045260246000fd5b3073ffffffffffffffffffffffffffffffffffffffff1663200d2ed26040518163ffffffff1660e01b815260040160206040518083038186803b15801561065957600080fd5b505afa15801561066d573d6000803e3d6000fd5b505050506040513d601f19601f820116820180604052508101906106919190611818565b60018111156106c9577f4e487b7100000000000000000000000000000000000000000000000000000000600052602160045260246000fd5b14610709576040517f08c379a000000000000000000000000000000000000000000000000000000000815260040161070090611c1f565b60405180910390fd5b600061071483610aba565b9050610721838583611363565b600191505092915050565b600061073661135b565b73ffffffffffffffffffffffffffffffffffffffff16610754610a6b565b73ffffffffffffffffffffffffffffffffffffffff16146107aa576040517f08c379a00000000000000000000000000000000000000000000000000000000081526004016107a190611c3f565b60405180910390fd5b6108318284600360008773ffffffffffffffffffffffffffffffffffffffff1673ffffffffffffffffffffffffffffffffffffffff16815260200190815260200160002060008673ffffffffffffffffffffffffffffffffffffffff1673ffffffffffffffffffffffffffffffffffffffff16815260200190815260200160002054611363565b600360008473ffffffffffffffffffffffffffffffffffffffff1673ffffffffffffffffffffffffffffffffffffffff16815260200190815260200160002060008373ffffffffffffffffffffffffffffffffffffffff1673ffffffffffffffffffffffffffffffffffffffff16815260200190815260200160002054600360008573ffffffffffffffffffffffffffffffffffffffff1673ffffffffffffffffffffffffffffffffffffffff16815260200190815260200160002060008473ffffffffffffffffffffffffffffffffffffffff1673ffffffffffffffffffffffffffffffffffffffff16815260200190815260200160002060008282546109399190611d7b565b925050819055506001905092915050565b6002602052816000526040600020818154811061096657600080fd5b906000526020600020016000915091509054906101000a900473ffffffffffffffffffffffffffffffffffffffff1681565b6003602052816000526040600020602052806000526040600020600091509150505481565b600a60009054906101000a900473ffffffffffffffffffffffffffffffffffffffff1681565b6109eb61135b565b73ffffffffffffffffffffffffffffffffffffffff16610a09610a6b565b73ffffffffffffffffffffffffffffffffffffffff1614610a5f576040517f08c379a0000000000000000000000000000000000000000000000000000000008152600401610a5690611c3f565b60405180910390fd5b610a696000611499565b565b60008060009054906101000a900473ffffffffffffffffffffffffffffffffffffffff16905090565b60065481565b60046020528060005260406000206000915054906101000a900460ff1681565b6000808290508073ffffffffffffffffffffffffffffffffffffffff166370a08231306040518263ffffffff1660e01b8152600401610af99190611aca565b60206040518083038186803b158015610b1157600080fd5b505afa158015610b25573d6000803e3d6000fd5b505050506040513d601f19601f82011682018060405250810190610b49919061186a565b915050919050565b6000610b5b61135b565b73ffffffffffffffffffffffffffffffffffffffff16610b79610a6b565b73ffffffffffffffffffffffffffffffffffffffff1614610bcf576040517f08c379a0000000000000000000000000000000000000000000000000000000008152600401610bc690611c3f565b60405180910390fd5b6000821415610c13576040517f08c379a0000000000000000000000000000000000000000000000000000000008152600401610c0a90611bff565b60405180910390fd5b6000610c1e84610aba565b1415610c88576001839080600181540180825580915050600190039060005260206000200160009091909190916101000a81548173ffffffffffffffffffffffffffffffffffffffff021916908373ffffffffffffffffffffffffffffffffffffffff1602179055505b610c948385308561155d565b6001600460008673ffffffffffffffffffffffffffffffffffffffff1673ffffffffffffffffffffffffffffffffffffffff16815260200190815260200160002060006101000a81548160ff0219169083151502179055506000600360008673ffffffffffffffffffffffffffffffffffffffff1673ffffffffffffffffffffffffffffffffffffffff16815260200190815260200160002060008573ffffffffffffffffffffffffffffffffffffffff1673ffffffffffffffffffffffffffffffffffffffff168152602001908152602001600020541415610e1257600260008573ffffffffffffffffffffffffffffffffffffffff1673ffffffffffffffffffffffffffffffffffffffff168152602001908152602001600020839080600181540180825580915050600190039060005260206000200160009091909190916101000a81548173ffffffffffffffffffffffffffffffffffffffff021916908373ffffffffffffffffffffffffffffffffffffffff1602179055505b81600360008673ffffffffffffffffffffffffffffffffffffffff1673ffffffffffffffffffffffffffffffffffffffff16815260200190815260200160002060008573ffffffffffffffffffffffffffffffffffffffff1673ffffffffffffffffffffffffffffffffffffffff1681526020019081526020016000206000828254610e9e9190611d25565b925050819055509392505050565b60058054610eb990611e4f565b80601f0160208091040260200160405190810160405280929190818152602001828054610ee590611e4f565b8015610f325780601f10610f0757610100808354040283529160200191610f32565b820191906000526020600020905b815481529060010190602001808311610f1557829003601f168201915b505050505081565b60075481565b60018181548110610f5057600080fd5b906000526020600020016000915054906101000a900473ffffffffffffffffffffffffffffffffffffffff1681565b6000610f8961135b565b73ffffffffffffffffffffffffffffffffffffffff16610fa7610a6b565b73ffffffffffffffffffffffffffffffffffffffff1614610ffd576040517f08c379a0000000000000000000000000000000000000000000000000000000008152600401610ff490611c3f565b60405180910390fd5b60006001811115611037577f4e487b7100000000000000000000000000000000000000000000000000000000600052602160045260246000fd5b3073ffffffffffffffffffffffffffffffffffffffff1663200d2ed26040518163ffffffff1660e01b815260040160206040518083038186803b15801561107d57600080fd5b505afa158015611091573d6000803e3d6000fd5b505050506040513d601f19601f820116820180604052508101906110b59190611818565b60018111156110ed577f4e487b7100000000000000000000000000000000000000000000000000000000600052602160045260246000fd5b1461112d576040517f08c379a000000000000000000000000000000000000000000000000000000000815260040161112490611c5f565b60405180910390fd5b6001600a60146101000a81548160ff02191690836001811115611179577f4e487b7100000000000000000000000000000000000000000000000000000000600052602160045260246000fd5b021790555081600a60006101000a81548173ffffffffffffffffffffffffffffffffffffffff021916908373ffffffffffffffffffffffffffffffffffffffff1602179055504260078190555060019050919050565b60085481565b6111dd61135b565b73ffffffffffffffffffffffffffffffffffffffff166111fb610a6b565b73ffffffffffffffffffffffffffffffffffffffff1614611251576040517f08c379a000000000000000000000000000000000000000000000000000000000815260040161124890611c3f565b60405180910390fd5b600073ffffffffffffffffffffffffffffffffffffffff168173ffffffffffffffffffffffffffffffffffffffff1614156112c1576040517f08c379a00000000000000000000000000000000000000000000000000000000081526004016112b890611bbf565b60405180910390fd5b6112ca81611499565b50565b6060600180548060200260200160405190810160405280929190818152602001828054801561135157602002820191906000526020600020905b8160009054906101000a900473ffffffffffffffffffffffffffffffffffffffff1673ffffffffffffffffffffffffffffffffffffffff1681526020019060010190808311611307575b5050505050905090565b600033905090565b6000808473ffffffffffffffffffffffffffffffffffffffff1663a9059cbb8585604051602401611395929190611b1c565b6040516020818303038152906040529060e01b6020820180517bffffffffffffffffffffffffffffffffffffffffffffffffffffffff83818316178352505050506040516113e39190611ab3565b6000604051808303816000865af19150503d8060008114611420576040519150601f19603f3d011682016040523d82523d6000602084013e611425565b606091505b5091509150818015611453575060008151148061145257508080602001905181019061145191906117ef565b5b5b611492576040517f08c379a000000000000000000000000000000000000000000000000000000000815260040161148990611c7f565b60405180910390fd5b5050505050565b60008060009054906101000a900473ffffffffffffffffffffffffffffffffffffffff169050816000806101000a81548173ffffffffffffffffffffffffffffffffffffffff021916908373ffffffffffffffffffffffffffffffffffffffff1602179055508173ffffffffffffffffffffffffffffffffffffffff168173ffffffffffffffffffffffffffffffffffffffff167f8be0079c531659141344cd1fd0a4f28419497f9722a3daafe3b4186f6b6457e060405160405180910390a35050565b6000808573ffffffffffffffffffffffffffffffffffffffff166323b872dd86868660405160240161159193929190611ae5565b6040516020818303038152906040529060e01b6020820180517bffffffffffffffffffffffffffffffffffffffffffffffffffffffff83818316178352505050506040516115df9190611ab3565b6000604051808303816000865af19150503d806000811461161c576040519150601f19603f3d011682016040523d82523d6000602084013e611621565b606091505b509150915081801561164f575060008151148061164e57508080602001905181019061164d91906117ef565b5b5b61168e576040517f08c379a000000000000000000000000000000000000000000000000000000000815260040161168590611bdf565b60405180910390fd5b505050505050565b6000813590506116a581612110565b92915050565b6000815190506116ba81612127565b92915050565b6000815190506116cf8161213e565b92915050565b6000813590506116e48161214e565b92915050565b6000815190506116f98161214e565b92915050565b60006020828403121561171157600080fd5b600061171f84828501611696565b91505092915050565b6000806040838503121561173b57600080fd5b600061174985828601611696565b925050602061175a85828601611696565b9150509250929050565b60008060006060848603121561177957600080fd5b600061178786828701611696565b935050602061179886828701611696565b92505060406117a9868287016116d5565b9150509250925092565b600080604083850312156117c657600080fd5b60006117d485828601611696565b92505060206117e5858286016116d5565b9150509250929050565b60006020828403121561180157600080fd5b600061180f848285016116ab565b91505092915050565b60006020828403121561182a57600080fd5b6000611838848285016116c0565b91505092915050565b60006020828403121561185357600080fd5b6000611861848285016116d5565b91505092915050565b60006020828403121561187c57600080fd5b600061188a848285016116ea565b91505092915050565b600061189f83836118ab565b60208301905092915050565b6118b481611daf565b82525050565b6118c381611daf565b82525050565b60006118d482611cca565b6118de8185611cf8565b93506118e983611cba565b8060005b8381101561191a5781516119018882611893565b975061190c83611ceb565b9250506001810190506118ed565b5085935050505092915050565b61193081611dc1565b82525050565b600061194182611cd5565b61194b8185611d09565b935061195b818560208601611e1c565b80840191505092915050565b61197081611e0a565b82525050565b600061198182611ce0565b61198b8185611d14565b935061199b818560208601611e1c565b6119a481611f0e565b840191505092915050565b60006119bc602683611d14565b91506119c782611f1f565b604082019050919050565b60006119df603183611d14565b91506119ea82611f6e565b604082019050919050565b6000611a02601483611d14565b9150611a0d82611fbd565b602082019050919050565b6000611a25603083611d14565b9150611a3082611fe6565b604082019050919050565b6000611a48602083611d14565b9150611a5382612035565b602082019050919050565b6000611a6b603583611d14565b9150611a768261205e565b604082019050919050565b6000611a8e602d83611d14565b9150611a99826120ad565b604082019050919050565b611aad81611e00565b82525050565b6000611abf8284611936565b915081905092915050565b6000602082019050611adf60008301846118ba565b92915050565b6000606082019050611afa60008301866118ba565b611b0760208301856118ba565b611b146040830184611aa4565b949350505050565b6000604082019050611b3160008301856118ba565b611b3e6020830184611aa4565b9392505050565b60006020820190508181036000830152611b5f81846118c9565b905092915050565b6000602082019050611b7c6000830184611927565b92915050565b6000602082019050611b976000830184611967565b92915050565b60006020820190508181036000830152611bb78184611976565b905092915050565b60006020820190508181036000830152611bd8816119af565b9050919050565b60006020820190508181036000830152611bf8816119d2565b9050919050565b60006020820190508181036000830152611c18816119f5565b9050919050565b60006020820190508181036000830152611c3881611a18565b9050919050565b60006020820190508181036000830152611c5881611a3b565b9050919050565b60006020820190508181036000830152611c7881611a5e565b9050919050565b60006020820190508181036000830152611c9881611a81565b9050919050565b6000602082019050611cb46000830184611aa4565b92915050565b6000819050602082019050919050565b600081519050919050565b600081519050919050565b600081519050919050565b6000602082019050919050565b600082825260208201905092915050565b600081905092915050565b600082825260208201905092915050565b6000611d3082611e00565b9150611d3b83611e00565b9250827fffffffffffffffffffffffffffffffffffffffffffffffffffffffffffffffff03821115611d7057611d6f611e81565b5b828201905092915050565b6000611d8682611e00565b9150611d9183611e00565b925082821015611da457611da3611e81565b5b828203905092915050565b6000611dba82611de0565b9050919050565b60008115159050919050565b6000819050611ddb826120fc565b919050565b600073ffffffffffffffffffffffffffffffffffffffff82169050919050565b6000819050919050565b6000611e1582611dcd565b9050919050565b60005b83811015611e3a578082015181840152602081019050611e1f565b83811115611e49576000848401525b50505050565b60006002820490506001821680611e6757607f821691505b60208210811415611e7b57611e7a611edf565b5b50919050565b7f4e487b7100000000000000000000000000000000000000000000000000000000600052601160045260246000fd5b7f4e487b7100000000000000000000000000000000000000000000000000000000600052602160045260246000fd5b7f4e487b7100000000000000000000000000000000000000000000000000000000600052602260045260246000fd5b6000601f19601f8301169050919050565b7f4f776e61626c653a206e6577206f776e657220697320746865207a65726f206160008201527f6464726573730000000000000000000000000000000000000000000000000000602082015250565b7f5472616e7366657248656c7065723a3a7472616e7366657246726f6d3a20747260008201527f616e7366657246726f6d206661696c6564000000000000000000000000000000602082015250565b7f4d7573742073656e6420736f6d652076616c7565000000000000000000000000600082015250565b7f5468697320697320626f756e747920697320636c6f7365642e2043616e6e6f7460008201527f20776974686472617720616761696e2e00000000000000000000000000000000602082015250565b7f4f776e61626c653a2063616c6c6572206973206e6f7420746865206f776e6572600082015250565b7f5468697320697320626f756e747920697320616c726561647920636c6f73656460008201527f2e2043616e6e6f7420636c6f736520616761696e2e0000000000000000000000602082015250565b7f5472616e7366657248656c7065723a3a736166655472616e736665723a20747260008201527f616e73666572206661696c656400000000000000000000000000000000000000602082015250565b6002811061210d5761210c611eb0565b5b50565b61211981611daf565b811461212457600080fd5b50565b61213081611dc1565b811461213b57600080fd5b50565b6002811061214b57600080fd5b50565b61215781611e00565b811461216257600080fd5b5056fea264697066735822122050715dd2bc01eb4591aac9384c47589a04b2a98733a327b479754dd00a66bc1864736f6c63430008040033",
  "linkReferences": {},
  "deployedLinkReferences": {}
}