{
  "_format": "hh-sol-artifact-1",
  "contractName": "Bounty",
  "sourceName": "contracts/Bounty.sol",
  "abi": [
    {
      "inputs": [
        {
          "internalType": "string",
          "name": "_id",
          "type": "string"
        },
        {
          "internalType": "address",
          "name": "_issuer",
          "type": "address"
        }
      ],
      "stateMutability": "nonpayable",
      "type": "constructor"
    },
    {
      "anonymous": false,
      "inputs": [
        {
          "indexed": true,
          "internalType": "address",
          "name": "previousOwner",
          "type": "address"
        },
        {
          "indexed": true,
          "internalType": "address",
          "name": "newOwner",
          "type": "address"
        }
      ],
      "name": "OwnershipTransferred",
      "type": "event"
    },
    {
      "inputs": [],
      "name": "bountyClosedTime",
      "outputs": [
        {
          "internalType": "uint256",
          "name": "",
          "type": "uint256"
        }
      ],
      "stateMutability": "view",
      "type": "function"
    },
    {
      "inputs": [],
      "name": "bountyCreatedTime",
      "outputs": [
        {
          "internalType": "uint256",
          "name": "",
          "type": "uint256"
        }
      ],
      "stateMutability": "view",
      "type": "function"
    },
    {
      "inputs": [
        {
          "internalType": "address",
          "name": "",
          "type": "address"
        }
      ],
      "name": "bountyDeposits",
      "outputs": [
        {
          "internalType": "uint256",
          "name": "",
          "type": "uint256"
        }
      ],
      "stateMutability": "view",
      "type": "function"
    },
    {
      "inputs": [],
      "name": "bountyId",
      "outputs": [
        {
          "internalType": "string",
          "name": "",
          "type": "string"
        }
      ],
      "stateMutability": "view",
      "type": "function"
    },
    {
      "inputs": [
        {
          "internalType": "uint256",
          "name": "",
          "type": "uint256"
        }
      ],
      "name": "bountyTokenAddresses",
      "outputs": [
        {
          "internalType": "address",
          "name": "",
          "type": "address"
        }
      ],
      "stateMutability": "view",
      "type": "function"
    },
    {
      "inputs": [
        {
          "internalType": "address",
          "name": "_payoutAddress",
          "type": "address"
        }
      ],
      "name": "claim",
      "outputs": [
        {
          "internalType": "bool",
          "name": "success",
          "type": "bool"
        }
      ],
      "stateMutability": "nonpayable",
      "type": "function"
    },
    {
      "inputs": [],
      "name": "closer",
      "outputs": [
        {
          "internalType": "address",
          "name": "",
          "type": "address"
        }
      ],
      "stateMutability": "view",
      "type": "function"
    },
    {
      "inputs": [],
      "name": "escrowPeriod",
      "outputs": [
        {
          "internalType": "uint256",
          "name": "",
          "type": "uint256"
        }
      ],
      "stateMutability": "view",
      "type": "function"
    },
    {
      "inputs": [
        {
          "internalType": "address",
          "name": "",
          "type": "address"
        },
        {
          "internalType": "address",
          "name": "",
          "type": "address"
        }
      ],
      "name": "funderDeposits",
      "outputs": [
        {
          "internalType": "uint256",
          "name": "",
          "type": "uint256"
        }
      ],
      "stateMutability": "view",
      "type": "function"
    },
    {
      "inputs": [
        {
          "internalType": "address",
          "name": "",
          "type": "address"
        },
        {
          "internalType": "uint256",
          "name": "",
          "type": "uint256"
        }
      ],
      "name": "funderTokenAddresses",
      "outputs": [
        {
          "internalType": "address",
          "name": "",
          "type": "address"
        }
      ],
      "stateMutability": "view",
      "type": "function"
    },
    {
      "inputs": [],
      "name": "getBountyTokenAddresses",
      "outputs": [
        {
          "internalType": "address[]",
          "name": "",
          "type": "address[]"
        }
      ],
      "stateMutability": "view",
      "type": "function"
    },
    {
      "inputs": [
        {
          "internalType": "address",
          "name": "_tokenAddress",
          "type": "address"
        }
      ],
      "name": "getERC20Balance",
      "outputs": [
        {
          "internalType": "uint256",
          "name": "balance",
          "type": "uint256"
        }
      ],
      "stateMutability": "view",
      "type": "function"
    },
    {
      "inputs": [
        {
          "internalType": "address",
          "name": "_funder",
          "type": "address"
        }
      ],
      "name": "getFunderTokenAddresses",
      "outputs": [
        {
          "internalType": "address[]",
          "name": "",
          "type": "address[]"
        }
      ],
      "stateMutability": "view",
      "type": "function"
    },
    {
      "inputs": [
        {
          "internalType": "address",
          "name": "",
          "type": "address"
        }
      ],
      "name": "isAFunder",
      "outputs": [
        {
          "internalType": "bool",
          "name": "",
          "type": "bool"
        }
      ],
      "stateMutability": "view",
      "type": "function"
    },
    {
      "inputs": [],
      "name": "issuer",
      "outputs": [
        {
          "internalType": "address",
          "name": "",
          "type": "address"
        }
      ],
      "stateMutability": "view",
      "type": "function"
    },
    {
      "inputs": [],
      "name": "owner",
      "outputs": [
        {
          "internalType": "address",
          "name": "",
          "type": "address"
        }
      ],
      "stateMutability": "view",
      "type": "function"
    },
    {
      "inputs": [
        {
          "internalType": "address",
          "name": "_funder",
          "type": "address"
        },
        {
          "internalType": "address",
          "name": "_tokenAddress",
          "type": "address"
        },
        {
          "internalType": "uint256",
          "name": "_value",
          "type": "uint256"
        }
      ],
      "name": "receiveFunds",
      "outputs": [
        {
          "internalType": "bool",
          "name": "success",
          "type": "bool"
        }
      ],
      "stateMutability": "nonpayable",
      "type": "function"
    },
    {
      "inputs": [
        {
          "internalType": "address",
          "name": "_funder",
          "type": "address"
        },
        {
          "internalType": "address",
          "name": "_tokenAddress",
          "type": "address"
        }
      ],
      "name": "refundBountyDeposit",
      "outputs": [
        {
          "internalType": "bool",
          "name": "success",
          "type": "bool"
        }
      ],
      "stateMutability": "nonpayable",
      "type": "function"
    },
    {
      "inputs": [],
      "name": "renounceOwnership",
      "outputs": [],
      "stateMutability": "nonpayable",
      "type": "function"
    },
    {
      "inputs": [],
      "name": "status",
      "outputs": [
        {
          "internalType": "enum Bounty.BountyStatus",
          "name": "",
          "type": "uint8"
        }
      ],
      "stateMutability": "view",
      "type": "function"
    },
    {
      "inputs": [
        {
          "internalType": "address",
          "name": "newOwner",
          "type": "address"
        }
      ],
      "name": "transferOwnership",
      "outputs": [],
      "stateMutability": "nonpayable",
      "type": "function"
    }
  ],
  "bytecode": "0x608060405262278d006009553480156200001857600080fd5b50604051620025293803806200252983398181016040528101906200003e91906200031e565b6200005e620000526200011960201b60201c565b6200012160201b60201c565b816006908051906020019062000076929190620001e5565b506000600b60146101000a81548160ff02191690836001811115620000c4577f4e487b7100000000000000000000000000000000000000000000000000000000600052602160045260246000fd5b021790555080600a60006101000a81548173ffffffffffffffffffffffffffffffffffffffff021916908373ffffffffffffffffffffffffffffffffffffffff16021790555042600781905550505062000536565b600033905090565b60008060009054906101000a900473ffffffffffffffffffffffffffffffffffffffff169050816000806101000a81548173ffffffffffffffffffffffffffffffffffffffff021916908373ffffffffffffffffffffffffffffffffffffffff1602179055508173ffffffffffffffffffffffffffffffffffffffff168173ffffffffffffffffffffffffffffffffffffffff167f8be0079c531659141344cd1fd0a4f28419497f9722a3daafe3b4186f6b6457e060405160405180910390a35050565b828054620001f39062000441565b90600052602060002090601f01602090048101928262000217576000855562000263565b82601f106200023257805160ff191683800117855562000263565b8280016001018555821562000263579182015b828111156200026257825182559160200191906001019062000245565b5b50905062000272919062000276565b5090565b5b808211156200029157600081600090555060010162000277565b5090565b6000620002ac620002a684620003a1565b62000378565b905082815260208101848484011115620002c557600080fd5b620002d28482856200040b565b509392505050565b600081519050620002eb816200051c565b92915050565b600082601f8301126200030357600080fd5b81516200031584826020860162000295565b91505092915050565b600080604083850312156200033257600080fd5b600083015167ffffffffffffffff8111156200034d57600080fd5b6200035b85828601620002f1565b92505060206200036e85828601620002da565b9150509250929050565b60006200038462000397565b905062000392828262000477565b919050565b6000604051905090565b600067ffffffffffffffff821115620003bf57620003be620004dc565b5b620003ca826200050b565b9050602081019050919050565b6000620003e482620003eb565b9050919050565b600073ffffffffffffffffffffffffffffffffffffffff82169050919050565b60005b838110156200042b5780820151818401526020810190506200040e565b838111156200043b576000848401525b50505050565b600060028204905060018216806200045a57607f821691505b60208210811415620004715762000470620004ad565b5b50919050565b62000482826200050b565b810181811067ffffffffffffffff82111715620004a457620004a3620004dc565b5b80604052505050565b7f4e487b7100000000000000000000000000000000000000000000000000000000600052602260045260246000fd5b7f4e487b7100000000000000000000000000000000000000000000000000000000600052604160045260246000fd5b6000601f19601f8301169050919050565b6200052781620003d7565b81146200053357600080fd5b50565b611fe380620005466000396000f3fe608060405234801561001057600080fd5b50600436106101375760003560e01c8063995280b0116100b8578063cb4436b71161007c578063cb4436b71461037a578063d405123e14610398578063df9229f0146103c8578063f16b51c1146103f8578063f2fde38b14610416578063fc5d2cf41461043257610137565b8063995280b0146102ae578063b0100cf7146102cc578063b588d225146102fc578063b9df819f1461032c578063c17bd75e1461035c57610137565b80634b8022b2116100ff5780634b8022b2146102085780636216753b146102385780637044f28214610268578063715018a6146102865780638da5cb5b1461029057610137565b80631bef55051461013c5780631d1438481461016c5780631e83409a1461018a578063200d2ed2146101ba57806329ffef15146101d8575b600080fd5b610156600480360381019061015191906115c4565b610450565b60405161016391906119e7565b60405180910390f35b61017461051d565b604051610181919061196c565b60405180910390f35b6101a4600480360381019061019f91906115c4565b610543565b6040516101b19190611a09565b60405180910390f35b6101c2610898565b6040516101cf9190611a24565b60405180910390f35b6101f260048036038101906101ed91906115ed565b6108ab565b6040516101ff9190611a09565b60405180910390f35b610222600480360381019061021d9190611678565b6109ba565b60405161022f919061196c565b60405180910390f35b610252600480360381019061024d91906115ed565b610a08565b60405161025f9190611b21565b60405180910390f35b610270610a2d565b60405161027d919061196c565b60405180910390f35b61028e610a53565b005b610298610adb565b6040516102a5919061196c565b60405180910390f35b6102b6610b04565b6040516102c39190611b21565b60405180910390f35b6102e660048036038101906102e191906115c4565b610b0a565b6040516102f39190611a09565b60405180910390f35b610316600480360381019061031191906115c4565b610b2a565b6040516103239190611b21565b60405180910390f35b61034660048036038101906103419190611629565b610bc1565b6040516103539190611a09565b60405180910390f35b610364610fa9565b6040516103719190611a3f565b60405180910390f35b610382611037565b60405161038f9190611b21565b60405180910390f35b6103b260048036038101906103ad91906115c4565b61103d565b6040516103bf9190611b21565b60405180910390f35b6103e260048036038101906103dd9190611706565b611055565b6040516103ef919061196c565b60405180910390f35b610400611094565b60405161040d9190611b21565b60405180910390f35b610430600480360381019061042b91906115c4565b61109a565b005b61043a611192565b60405161044791906119e7565b60405180910390f35b6060600360008373ffffffffffffffffffffffffffffffffffffffff1673ffffffffffffffffffffffffffffffffffffffff16815260200190815260200160002080548060200260200160405190810160405280929190818152602001828054801561051157602002820191906000526020600020905b8160009054906101000a900473ffffffffffffffffffffffffffffffffffffffff1673ffffffffffffffffffffffffffffffffffffffff16815260200190600101908083116104c7575b50505050509050919050565b600a60009054906101000a900473ffffffffffffffffffffffffffffffffffffffff1681565b600061054d611220565b73ffffffffffffffffffffffffffffffffffffffff1661056b610adb565b73ffffffffffffffffffffffffffffffffffffffff16146105c1576040517f08c379a00000000000000000000000000000000000000000000000000000000081526004016105b890611ae1565b60405180910390fd5b600060018111156105fb577f4e487b7100000000000000000000000000000000000000000000000000000000600052602160045260246000fd5b3073ffffffffffffffffffffffffffffffffffffffff1663200d2ed26040518163ffffffff1660e01b815260040160206040518083038186803b15801561064157600080fd5b505afa158015610655573d6000803e3d6000fd5b505050506040513d601f19601f8201168201806040525081019061067991906116dd565b60018111156106b1577f4e487b7100000000000000000000000000000000000000000000000000000000600052602160045260246000fd5b146106f1576040517f08c379a00000000000000000000000000000000000000000000000000000000081526004016106e890611ac1565b60405180910390fd5b60005b6001805490508110156107f557600061077060018381548110610740577f4e487b7100000000000000000000000000000000000000000000000000000000600052603260045260246000fd5b9060005260206000200160009054906101000a900473ffffffffffffffffffffffffffffffffffffffff16610b2a565b90506107e1600183815481106107af577f4e487b7100000000000000000000000000000000000000000000000000000000600052603260045260246000fd5b9060005260206000200160009054906101000a900473ffffffffffffffffffffffffffffffffffffffff168583611228565b5080806107ed90611ccf565b9150506106f4565b506001600b60146101000a81548160ff02191690836001811115610842577f4e487b7100000000000000000000000000000000000000000000000000000000600052602160045260246000fd5b021790555081600b60006101000a81548173ffffffffffffffffffffffffffffffffffffffff021916908373ffffffffffffffffffffffffffffffffffffffff1602179055504260088190555060019050919050565b600b60149054906101000a900460ff1681565b60006108b5611220565b73ffffffffffffffffffffffffffffffffffffffff166108d3610adb565b73ffffffffffffffffffffffffffffffffffffffff1614610929576040517f08c379a000000000000000000000000000000000000000000000000000000000815260040161092090611ae1565b60405180910390fd5b6109b08284600460008773ffffffffffffffffffffffffffffffffffffffff1673ffffffffffffffffffffffffffffffffffffffff16815260200190815260200160002060008673ffffffffffffffffffffffffffffffffffffffff1673ffffffffffffffffffffffffffffffffffffffff16815260200190815260200160002054611228565b6001905092915050565b600360205281600052604060002081815481106109d657600080fd5b906000526020600020016000915091509054906101000a900473ffffffffffffffffffffffffffffffffffffffff1681565b6004602052816000526040600020602052806000526040600020600091509150505481565b600b60009054906101000a900473ffffffffffffffffffffffffffffffffffffffff1681565b610a5b611220565b73ffffffffffffffffffffffffffffffffffffffff16610a79610adb565b73ffffffffffffffffffffffffffffffffffffffff1614610acf576040517f08c379a0000000000000000000000000000000000000000000000000000000008152600401610ac690611ae1565b60405180910390fd5b610ad9600061135e565b565b60008060009054906101000a900473ffffffffffffffffffffffffffffffffffffffff16905090565b60075481565b60056020528060005260406000206000915054906101000a900460ff1681565b6000808290508073ffffffffffffffffffffffffffffffffffffffff166370a08231306040518263ffffffff1660e01b8152600401610b69919061196c565b60206040518083038186803b158015610b8157600080fd5b505afa158015610b95573d6000803e3d6000fd5b505050506040513d601f19601f82011682018060405250810190610bb9919061172f565b915050919050565b6000610bcb611220565b73ffffffffffffffffffffffffffffffffffffffff16610be9610adb565b73ffffffffffffffffffffffffffffffffffffffff1614610c3f576040517f08c379a0000000000000000000000000000000000000000000000000000000008152600401610c3690611ae1565b60405180910390fd5b6000821415610c83576040517f08c379a0000000000000000000000000000000000000000000000000000000008152600401610c7a90611aa1565b60405180910390fd5b610c8f83853085611422565b6001600560008673ffffffffffffffffffffffffffffffffffffffff1673ffffffffffffffffffffffffffffffffffffffff16815260200190815260200160002060006101000a81548160ff0219169083151502179055506000600260008573ffffffffffffffffffffffffffffffffffffffff1673ffffffffffffffffffffffffffffffffffffffff168152602001908152602001600020541415610d93576001839080600181540180825580915050600190039060005260206000200160009091909190916101000a81548173ffffffffffffffffffffffffffffffffffffffff021916908373ffffffffffffffffffffffffffffffffffffffff1602179055505b6000600460008673ffffffffffffffffffffffffffffffffffffffff1673ffffffffffffffffffffffffffffffffffffffff16815260200190815260200160002060008573ffffffffffffffffffffffffffffffffffffffff1673ffffffffffffffffffffffffffffffffffffffff168152602001908152602001600020541415610eb957600360008573ffffffffffffffffffffffffffffffffffffffff1673ffffffffffffffffffffffffffffffffffffffff168152602001908152602001600020839080600181540180825580915050600190039060005260206000200160009091909190916101000a81548173ffffffffffffffffffffffffffffffffffffffff021916908373ffffffffffffffffffffffffffffffffffffffff1602179055505b81600260008573ffffffffffffffffffffffffffffffffffffffff1673ffffffffffffffffffffffffffffffffffffffff1681526020019081526020016000206000828254610f089190611ba7565b9250508190555081600460008673ffffffffffffffffffffffffffffffffffffffff1673ffffffffffffffffffffffffffffffffffffffff16815260200190815260200160002060008573ffffffffffffffffffffffffffffffffffffffff1673ffffffffffffffffffffffffffffffffffffffff1681526020019081526020016000206000828254610f9b9190611ba7565b925050819055509392505050565b60068054610fb690611c9d565b80601f0160208091040260200160405190810160405280929190818152602001828054610fe290611c9d565b801561102f5780601f106110045761010080835404028352916020019161102f565b820191906000526020600020905b81548152906001019060200180831161101257829003601f168201915b505050505081565b60085481565b60026020528060005260406000206000915090505481565b6001818154811061106557600080fd5b906000526020600020016000915054906101000a900473ffffffffffffffffffffffffffffffffffffffff1681565b60095481565b6110a2611220565b73ffffffffffffffffffffffffffffffffffffffff166110c0610adb565b73ffffffffffffffffffffffffffffffffffffffff1614611116576040517f08c379a000000000000000000000000000000000000000000000000000000000815260040161110d90611ae1565b60405180910390fd5b600073ffffffffffffffffffffffffffffffffffffffff168173ffffffffffffffffffffffffffffffffffffffff161415611186576040517f08c379a000000000000000000000000000000000000000000000000000000000815260040161117d90611a61565b60405180910390fd5b61118f8161135e565b50565b6060600180548060200260200160405190810160405280929190818152602001828054801561121657602002820191906000526020600020905b8160009054906101000a900473ffffffffffffffffffffffffffffffffffffffff1673ffffffffffffffffffffffffffffffffffffffff16815260200190600101908083116111cc575b5050505050905090565b600033905090565b6000808473ffffffffffffffffffffffffffffffffffffffff1663a9059cbb858560405160240161125a9291906119be565b6040516020818303038152906040529060e01b6020820180517bffffffffffffffffffffffffffffffffffffffffffffffffffffffff83818316178352505050506040516112a89190611955565b6000604051808303816000865af19150503d80600081146112e5576040519150601f19603f3d011682016040523d82523d6000602084013e6112ea565b606091505b5091509150818015611318575060008151148061131757508080602001905181019061131691906116b4565b5b5b611357576040517f08c379a000000000000000000000000000000000000000000000000000000000815260040161134e90611b01565b60405180910390fd5b5050505050565b60008060009054906101000a900473ffffffffffffffffffffffffffffffffffffffff169050816000806101000a81548173ffffffffffffffffffffffffffffffffffffffff021916908373ffffffffffffffffffffffffffffffffffffffff1602179055508173ffffffffffffffffffffffffffffffffffffffff168173ffffffffffffffffffffffffffffffffffffffff167f8be0079c531659141344cd1fd0a4f28419497f9722a3daafe3b4186f6b6457e060405160405180910390a35050565b6000808573ffffffffffffffffffffffffffffffffffffffff166323b872dd86868660405160240161145693929190611987565b6040516020818303038152906040529060e01b6020820180517bffffffffffffffffffffffffffffffffffffffffffffffffffffffff83818316178352505050506040516114a49190611955565b6000604051808303816000865af19150503d80600081146114e1576040519150601f19603f3d011682016040523d82523d6000602084013e6114e6565b606091505b5091509150818015611514575060008151148061151357508080602001905181019061151291906116b4565b5b5b611553576040517f08c379a000000000000000000000000000000000000000000000000000000000815260040161154a90611a81565b60405180910390fd5b505050505050565b60008135905061156a81611f58565b92915050565b60008151905061157f81611f6f565b92915050565b60008151905061159481611f86565b92915050565b6000813590506115a981611f96565b92915050565b6000815190506115be81611f96565b92915050565b6000602082840312156115d657600080fd5b60006115e48482850161155b565b91505092915050565b6000806040838503121561160057600080fd5b600061160e8582860161155b565b925050602061161f8582860161155b565b9150509250929050565b60008060006060848603121561163e57600080fd5b600061164c8682870161155b565b935050602061165d8682870161155b565b925050604061166e8682870161159a565b9150509250925092565b6000806040838503121561168b57600080fd5b60006116998582860161155b565b92505060206116aa8582860161159a565b9150509250929050565b6000602082840312156116c657600080fd5b60006116d484828501611570565b91505092915050565b6000602082840312156116ef57600080fd5b60006116fd84828501611585565b91505092915050565b60006020828403121561171857600080fd5b60006117268482850161159a565b91505092915050565b60006020828403121561174157600080fd5b600061174f848285016115af565b91505092915050565b60006117648383611770565b60208301905092915050565b61177981611bfd565b82525050565b61178881611bfd565b82525050565b600061179982611b4c565b6117a38185611b7a565b93506117ae83611b3c565b8060005b838110156117df5781516117c68882611758565b97506117d183611b6d565b9250506001810190506117b2565b5085935050505092915050565b6117f581611c0f565b82525050565b600061180682611b57565b6118108185611b8b565b9350611820818560208601611c6a565b80840191505092915050565b61183581611c58565b82525050565b600061184682611b62565b6118508185611b96565b9350611860818560208601611c6a565b61186981611da5565b840191505092915050565b6000611881602683611b96565b915061188c82611db6565b604082019050919050565b60006118a4603183611b96565b91506118af82611e05565b604082019050919050565b60006118c7601483611b96565b91506118d282611e54565b602082019050919050565b60006118ea603083611b96565b91506118f582611e7d565b604082019050919050565b600061190d602083611b96565b915061191882611ecc565b602082019050919050565b6000611930602d83611b96565b915061193b82611ef5565b604082019050919050565b61194f81611c4e565b82525050565b600061196182846117fb565b915081905092915050565b6000602082019050611981600083018461177f565b92915050565b600060608201905061199c600083018661177f565b6119a9602083018561177f565b6119b66040830184611946565b949350505050565b60006040820190506119d3600083018561177f565b6119e06020830184611946565b9392505050565b60006020820190508181036000830152611a01818461178e565b905092915050565b6000602082019050611a1e60008301846117ec565b92915050565b6000602082019050611a39600083018461182c565b92915050565b60006020820190508181036000830152611a59818461183b565b905092915050565b60006020820190508181036000830152611a7a81611874565b9050919050565b60006020820190508181036000830152611a9a81611897565b9050919050565b60006020820190508181036000830152611aba816118ba565b9050919050565b60006020820190508181036000830152611ada816118dd565b9050919050565b60006020820190508181036000830152611afa81611900565b9050919050565b60006020820190508181036000830152611b1a81611923565b9050919050565b6000602082019050611b366000830184611946565b92915050565b6000819050602082019050919050565b600081519050919050565b600081519050919050565b600081519050919050565b6000602082019050919050565b600082825260208201905092915050565b600081905092915050565b600082825260208201905092915050565b6000611bb282611c4e565b9150611bbd83611c4e565b9250827fffffffffffffffffffffffffffffffffffffffffffffffffffffffffffffffff03821115611bf257611bf1611d18565b5b828201905092915050565b6000611c0882611c2e565b9050919050565b60008115159050919050565b6000819050611c2982611f44565b919050565b600073ffffffffffffffffffffffffffffffffffffffff82169050919050565b6000819050919050565b6000611c6382611c1b565b9050919050565b60005b83811015611c88578082015181840152602081019050611c6d565b83811115611c97576000848401525b50505050565b60006002820490506001821680611cb557607f821691505b60208210811415611cc957611cc8611d76565b5b50919050565b6000611cda82611c4e565b91507fffffffffffffffffffffffffffffffffffffffffffffffffffffffffffffffff821415611d0d57611d0c611d18565b5b600182019050919050565b7f4e487b7100000000000000000000000000000000000000000000000000000000600052601160045260246000fd5b7f4e487b7100000000000000000000000000000000000000000000000000000000600052602160045260246000fd5b7f4e487b7100000000000000000000000000000000000000000000000000000000600052602260045260246000fd5b6000601f19601f8301169050919050565b7f4f776e61626c653a206e6577206f776e657220697320746865207a65726f206160008201527f6464726573730000000000000000000000000000000000000000000000000000602082015250565b7f5472616e7366657248656c7065723a3a7472616e7366657246726f6d3a20747260008201527f616e7366657246726f6d206661696c6564000000000000000000000000000000602082015250565b7f4d7573742073656e6420736f6d652076616c7565000000000000000000000000600082015250565b7f5468697320697320626f756e747920697320636c6f7365642e2043616e6e6f7460008201527f20776974686472617720616761696e2e00000000000000000000000000000000602082015250565b7f4f776e61626c653a2063616c6c6572206973206e6f7420746865206f776e6572600082015250565b7f5472616e7366657248656c7065723a3a736166655472616e736665723a20747260008201527f616e73666572206661696c656400000000000000000000000000000000000000602082015250565b60028110611f5557611f54611d47565b5b50565b611f6181611bfd565b8114611f6c57600080fd5b50565b611f7881611c0f565b8114611f8357600080fd5b50565b60028110611f9357600080fd5b50565b611f9f81611c4e565b8114611faa57600080fd5b5056fea26469706673582212205cc9c95b06792ca7141264485531b9ca101ef39e679fa077b30fa1fad1ed497164736f6c63430008040033",
  "linkReferences": {},
  "deployedLinkReferences": {}
}