{
  "_format": "hh-sol-artifact-1",
  "contractName": "Bounty",
  "sourceName": "contracts/Bounty.sol",
  "abi": [
    {
      "inputs": [
        {
          "internalType": "string",
          "name": "_id",
          "type": "string"
        },
        {
          "internalType": "address",
          "name": "_issuer",
          "type": "address"
        }
      ],
      "stateMutability": "nonpayable",
      "type": "constructor"
    },
    {
      "anonymous": false,
      "inputs": [
        {
          "indexed": true,
          "internalType": "address",
          "name": "previousOwner",
          "type": "address"
        },
        {
          "indexed": true,
          "internalType": "address",
          "name": "newOwner",
          "type": "address"
        }
      ],
      "name": "OwnershipTransferred",
      "type": "event"
    },
    {
      "inputs": [],
      "name": "bountyClosedTime",
      "outputs": [
        {
          "internalType": "uint256",
          "name": "",
          "type": "uint256"
        }
      ],
      "stateMutability": "view",
      "type": "function"
    },
    {
      "inputs": [],
      "name": "bountyCreatedTime",
      "outputs": [
        {
          "internalType": "uint256",
          "name": "",
          "type": "uint256"
        }
      ],
      "stateMutability": "view",
      "type": "function"
    },
    {
      "inputs": [],
      "name": "bountyId",
      "outputs": [
        {
          "internalType": "string",
          "name": "",
          "type": "string"
        }
      ],
      "stateMutability": "view",
      "type": "function"
    },
    {
      "inputs": [
        {
          "internalType": "uint256",
          "name": "",
          "type": "uint256"
        }
      ],
      "name": "bountyTokenAddresses",
      "outputs": [
        {
          "internalType": "address",
          "name": "",
          "type": "address"
        }
      ],
      "stateMutability": "view",
      "type": "function"
    },
    {
      "inputs": [
        {
          "internalType": "address",
          "name": "_payoutAddress",
          "type": "address"
        }
      ],
      "name": "claim",
      "outputs": [
        {
          "internalType": "bool",
          "name": "success",
          "type": "bool"
        }
      ],
      "stateMutability": "nonpayable",
      "type": "function"
    },
    {
      "inputs": [],
      "name": "closer",
      "outputs": [
        {
          "internalType": "address",
          "name": "",
          "type": "address"
        }
      ],
      "stateMutability": "view",
      "type": "function"
    },
    {
      "inputs": [],
      "name": "escrowPeriod",
      "outputs": [
        {
          "internalType": "uint256",
          "name": "",
          "type": "uint256"
        }
      ],
      "stateMutability": "view",
      "type": "function"
    },
    {
      "inputs": [
        {
          "internalType": "address",
          "name": "",
          "type": "address"
        },
        {
          "internalType": "address",
          "name": "",
          "type": "address"
        }
      ],
      "name": "funderDeposits",
      "outputs": [
        {
          "internalType": "uint256",
          "name": "",
          "type": "uint256"
        }
      ],
      "stateMutability": "view",
      "type": "function"
    },
    {
      "inputs": [
        {
          "internalType": "address",
          "name": "",
          "type": "address"
        },
        {
          "internalType": "uint256",
          "name": "",
          "type": "uint256"
        }
      ],
      "name": "funderTokenAddresses",
      "outputs": [
        {
          "internalType": "address",
          "name": "",
          "type": "address"
        }
      ],
      "stateMutability": "view",
      "type": "function"
    },
    {
      "inputs": [],
      "name": "getBountyTokenAddresses",
      "outputs": [
        {
          "internalType": "address[]",
          "name": "",
          "type": "address[]"
        }
      ],
      "stateMutability": "view",
      "type": "function"
    },
    {
      "inputs": [
        {
          "internalType": "address",
          "name": "_tokenAddress",
          "type": "address"
        }
      ],
      "name": "getERC20Balance",
      "outputs": [
        {
          "internalType": "uint256",
          "name": "balance",
          "type": "uint256"
        }
      ],
      "stateMutability": "view",
      "type": "function"
    },
    {
      "inputs": [
        {
          "internalType": "address",
          "name": "_funder",
          "type": "address"
        }
      ],
      "name": "getFunderTokenAddresses",
      "outputs": [
        {
          "internalType": "address[]",
          "name": "",
          "type": "address[]"
        }
      ],
      "stateMutability": "view",
      "type": "function"
    },
    {
      "inputs": [
        {
          "internalType": "address",
          "name": "",
          "type": "address"
        }
      ],
      "name": "isAFunder",
      "outputs": [
        {
          "internalType": "bool",
          "name": "",
          "type": "bool"
        }
      ],
      "stateMutability": "view",
      "type": "function"
    },
    {
      "inputs": [],
      "name": "issuer",
      "outputs": [
        {
          "internalType": "address",
          "name": "",
          "type": "address"
        }
      ],
      "stateMutability": "view",
      "type": "function"
    },
    {
      "inputs": [],
      "name": "owner",
      "outputs": [
        {
          "internalType": "address",
          "name": "",
          "type": "address"
        }
      ],
      "stateMutability": "view",
      "type": "function"
    },
    {
      "inputs": [
        {
          "internalType": "address",
          "name": "_funder",
          "type": "address"
        },
        {
          "internalType": "address",
          "name": "_tokenAddress",
          "type": "address"
        },
        {
          "internalType": "uint256",
          "name": "_value",
          "type": "uint256"
        }
      ],
      "name": "receiveFunds",
      "outputs": [
        {
          "internalType": "bool",
          "name": "success",
          "type": "bool"
        }
      ],
      "stateMutability": "nonpayable",
      "type": "function"
    },
    {
      "inputs": [
        {
          "internalType": "address",
          "name": "_funder",
          "type": "address"
        },
        {
          "internalType": "address",
          "name": "_tokenAddress",
          "type": "address"
        }
      ],
      "name": "refundBountyDeposit",
      "outputs": [
        {
          "internalType": "bool",
          "name": "success",
          "type": "bool"
        }
      ],
      "stateMutability": "nonpayable",
      "type": "function"
    },
    {
      "inputs": [],
      "name": "renounceOwnership",
      "outputs": [],
      "stateMutability": "nonpayable",
      "type": "function"
    },
    {
      "inputs": [],
      "name": "status",
      "outputs": [
        {
          "internalType": "enum Bounty.BountyStatus",
          "name": "",
          "type": "uint8"
        }
      ],
      "stateMutability": "view",
      "type": "function"
    },
    {
      "inputs": [
        {
          "internalType": "address",
          "name": "newOwner",
          "type": "address"
        }
      ],
      "name": "transferOwnership",
      "outputs": [],
      "stateMutability": "nonpayable",
      "type": "function"
    }
  ],
  "bytecode": "0x608060405262278d006008553480156200001857600080fd5b506040516200258c3803806200258c83398181016040528101906200003e91906200031e565b6200005e620000526200011960201b60201c565b6200012160201b60201c565b816005908051906020019062000076929190620001e5565b506000600a60146101000a81548160ff02191690836001811115620000c4577f4e487b7100000000000000000000000000000000000000000000000000000000600052602160045260246000fd5b021790555080600960006101000a81548173ffffffffffffffffffffffffffffffffffffffff021916908373ffffffffffffffffffffffffffffffffffffffff16021790555042600681905550505062000536565b600033905090565b60008060009054906101000a900473ffffffffffffffffffffffffffffffffffffffff169050816000806101000a81548173ffffffffffffffffffffffffffffffffffffffff021916908373ffffffffffffffffffffffffffffffffffffffff1602179055508173ffffffffffffffffffffffffffffffffffffffff168173ffffffffffffffffffffffffffffffffffffffff167f8be0079c531659141344cd1fd0a4f28419497f9722a3daafe3b4186f6b6457e060405160405180910390a35050565b828054620001f39062000441565b90600052602060002090601f01602090048101928262000217576000855562000263565b82601f106200023257805160ff191683800117855562000263565b8280016001018555821562000263579182015b828111156200026257825182559160200191906001019062000245565b5b50905062000272919062000276565b5090565b5b808211156200029157600081600090555060010162000277565b5090565b6000620002ac620002a684620003a1565b62000378565b905082815260208101848484011115620002c557600080fd5b620002d28482856200040b565b509392505050565b600081519050620002eb816200051c565b92915050565b600082601f8301126200030357600080fd5b81516200031584826020860162000295565b91505092915050565b600080604083850312156200033257600080fd5b600083015167ffffffffffffffff8111156200034d57600080fd5b6200035b85828601620002f1565b92505060206200036e85828601620002da565b9150509250929050565b60006200038462000397565b905062000392828262000477565b919050565b6000604051905090565b600067ffffffffffffffff821115620003bf57620003be620004dc565b5b620003ca826200050b565b9050602081019050919050565b6000620003e482620003eb565b9050919050565b600073ffffffffffffffffffffffffffffffffffffffff82169050919050565b60005b838110156200042b5780820151818401526020810190506200040e565b838111156200043b576000848401525b50505050565b600060028204905060018216806200045a57607f821691505b60208210811415620004715762000470620004ad565b5b50919050565b62000482826200050b565b810181811067ffffffffffffffff82111715620004a457620004a3620004dc565b5b80604052505050565b7f4e487b7100000000000000000000000000000000000000000000000000000000600052602260045260246000fd5b7f4e487b7100000000000000000000000000000000000000000000000000000000600052604160045260246000fd5b6000601f19601f8301169050919050565b6200052781620003d7565b81146200053357600080fd5b50565b61204680620005466000396000f3fe608060405234801561001057600080fd5b506004361061012c5760003560e01c8063995280b0116100ad578063cb4436b711610071578063cb4436b71461036f578063df9229f01461038d578063f16b51c1146103bd578063f2fde38b146103db578063fc5d2cf4146103f75761012c565b8063995280b0146102a3578063b0100cf7146102c1578063b588d225146102f1578063b9df819f14610321578063c17bd75e146103515761012c565b80634b8022b2116100f45780634b8022b2146101fd5780636216753b1461022d5780637044f2821461025d578063715018a61461027b5780638da5cb5b146102855761012c565b80631bef5505146101315780631d143848146101615780631e83409a1461017f578063200d2ed2146101af57806329ffef15146101cd575b600080fd5b61014b600480360381019061014691906115f3565b610415565b6040516101589190611a16565b60405180910390f35b6101696104e2565b604051610176919061199b565b60405180910390f35b610199600480360381019061019491906115f3565b610508565b6040516101a69190611a38565b60405180910390f35b6101b761085d565b6040516101c49190611a53565b60405180910390f35b6101e760048036038101906101e2919061161c565b610870565b6040516101f49190611a38565b60405180910390f35b610217600480360381019061021291906116a7565b610a8e565b604051610224919061199b565b60405180910390f35b6102476004803603810190610242919061161c565b610adc565b6040516102549190611b50565b60405180910390f35b610265610b01565b604051610272919061199b565b60405180910390f35b610283610b27565b005b61028d610baf565b60405161029a919061199b565b60405180910390f35b6102ab610bd8565b6040516102b89190611b50565b60405180910390f35b6102db60048036038101906102d691906115f3565b610bde565b6040516102e89190611a38565b60405180910390f35b61030b600480360381019061030691906115f3565b610bfe565b6040516103189190611b50565b60405180910390f35b61033b60048036038101906103369190611658565b610c95565b6040516103489190611a38565b60405180910390f35b610359610ff0565b6040516103669190611a6e565b60405180910390f35b61037761107e565b6040516103849190611b50565b60405180910390f35b6103a760048036038101906103a29190611735565b611084565b6040516103b4919061199b565b60405180910390f35b6103c56110c3565b6040516103d29190611b50565b60405180910390f35b6103f560048036038101906103f091906115f3565b6110c9565b005b6103ff6111c1565b60405161040c9190611a16565b60405180910390f35b6060600260008373ffffffffffffffffffffffffffffffffffffffff1673ffffffffffffffffffffffffffffffffffffffff1681526020019081526020016000208054806020026020016040519081016040528092919081815260200182805480156104d657602002820191906000526020600020905b8160009054906101000a900473ffffffffffffffffffffffffffffffffffffffff1673ffffffffffffffffffffffffffffffffffffffff168152602001906001019080831161048c575b50505050509050919050565b600960009054906101000a900473ffffffffffffffffffffffffffffffffffffffff1681565b600061051261124f565b73ffffffffffffffffffffffffffffffffffffffff16610530610baf565b73ffffffffffffffffffffffffffffffffffffffff1614610586576040517f08c379a000000000000000000000000000000000000000000000000000000000815260040161057d90611b10565b60405180910390fd5b600060018111156105c0577f4e487b7100000000000000000000000000000000000000000000000000000000600052602160045260246000fd5b3073ffffffffffffffffffffffffffffffffffffffff1663200d2ed26040518163ffffffff1660e01b815260040160206040518083038186803b15801561060657600080fd5b505afa15801561061a573d6000803e3d6000fd5b505050506040513d601f19601f8201168201806040525081019061063e919061170c565b6001811115610676577f4e487b7100000000000000000000000000000000000000000000000000000000600052602160045260246000fd5b146106b6576040517f08c379a00000000000000000000000000000000000000000000000000000000081526004016106ad90611af0565b60405180910390fd5b60005b6001805490508110156107ba57600061073560018381548110610705577f4e487b7100000000000000000000000000000000000000000000000000000000600052603260045260246000fd5b9060005260206000200160009054906101000a900473ffffffffffffffffffffffffffffffffffffffff16610bfe565b90506107a660018381548110610774577f4e487b7100000000000000000000000000000000000000000000000000000000600052603260045260246000fd5b9060005260206000200160009054906101000a900473ffffffffffffffffffffffffffffffffffffffff168583611257565b5080806107b290611d32565b9150506106b9565b506001600a60146101000a81548160ff02191690836001811115610807577f4e487b7100000000000000000000000000000000000000000000000000000000600052602160045260246000fd5b021790555081600a60006101000a81548173ffffffffffffffffffffffffffffffffffffffff021916908373ffffffffffffffffffffffffffffffffffffffff1602179055504260078190555060019050919050565b600a60149054906101000a900460ff1681565b600061087a61124f565b73ffffffffffffffffffffffffffffffffffffffff16610898610baf565b73ffffffffffffffffffffffffffffffffffffffff16146108ee576040517f08c379a00000000000000000000000000000000000000000000000000000000081526004016108e590611b10565b60405180910390fd5b6109758284600360008773ffffffffffffffffffffffffffffffffffffffff1673ffffffffffffffffffffffffffffffffffffffff16815260200190815260200160002060008673ffffffffffffffffffffffffffffffffffffffff1673ffffffffffffffffffffffffffffffffffffffff16815260200190815260200160002054611257565b600360008473ffffffffffffffffffffffffffffffffffffffff1673ffffffffffffffffffffffffffffffffffffffff16815260200190815260200160002060008373ffffffffffffffffffffffffffffffffffffffff1673ffffffffffffffffffffffffffffffffffffffff16815260200190815260200160002054600360008573ffffffffffffffffffffffffffffffffffffffff1673ffffffffffffffffffffffffffffffffffffffff16815260200190815260200160002060008473ffffffffffffffffffffffffffffffffffffffff1673ffffffffffffffffffffffffffffffffffffffff1681526020019081526020016000206000828254610a7d9190611c2c565b925050819055506001905092915050565b60026020528160005260406000208181548110610aaa57600080fd5b906000526020600020016000915091509054906101000a900473ffffffffffffffffffffffffffffffffffffffff1681565b6003602052816000526040600020602052806000526040600020600091509150505481565b600a60009054906101000a900473ffffffffffffffffffffffffffffffffffffffff1681565b610b2f61124f565b73ffffffffffffffffffffffffffffffffffffffff16610b4d610baf565b73ffffffffffffffffffffffffffffffffffffffff1614610ba3576040517f08c379a0000000000000000000000000000000000000000000000000000000008152600401610b9a90611b10565b60405180910390fd5b610bad600061138d565b565b60008060009054906101000a900473ffffffffffffffffffffffffffffffffffffffff16905090565b60065481565b60046020528060005260406000206000915054906101000a900460ff1681565b6000808290508073ffffffffffffffffffffffffffffffffffffffff166370a08231306040518263ffffffff1660e01b8152600401610c3d919061199b565b60206040518083038186803b158015610c5557600080fd5b505afa158015610c69573d6000803e3d6000fd5b505050506040513d601f19601f82011682018060405250810190610c8d919061175e565b915050919050565b6000610c9f61124f565b73ffffffffffffffffffffffffffffffffffffffff16610cbd610baf565b73ffffffffffffffffffffffffffffffffffffffff1614610d13576040517f08c379a0000000000000000000000000000000000000000000000000000000008152600401610d0a90611b10565b60405180910390fd5b6000821415610d57576040517f08c379a0000000000000000000000000000000000000000000000000000000008152600401610d4e90611ad0565b60405180910390fd5b6000610d6284610bfe565b1415610dcc576001839080600181540180825580915050600190039060005260206000200160009091909190916101000a81548173ffffffffffffffffffffffffffffffffffffffff021916908373ffffffffffffffffffffffffffffffffffffffff1602179055505b610dd883853085611451565b6001600460008673ffffffffffffffffffffffffffffffffffffffff1673ffffffffffffffffffffffffffffffffffffffff16815260200190815260200160002060006101000a81548160ff0219169083151502179055506000600360008673ffffffffffffffffffffffffffffffffffffffff1673ffffffffffffffffffffffffffffffffffffffff16815260200190815260200160002060008573ffffffffffffffffffffffffffffffffffffffff1673ffffffffffffffffffffffffffffffffffffffff168152602001908152602001600020541415610f5657600260008573ffffffffffffffffffffffffffffffffffffffff1673ffffffffffffffffffffffffffffffffffffffff168152602001908152602001600020839080600181540180825580915050600190039060005260206000200160009091909190916101000a81548173ffffffffffffffffffffffffffffffffffffffff021916908373ffffffffffffffffffffffffffffffffffffffff1602179055505b81600360008673ffffffffffffffffffffffffffffffffffffffff1673ffffffffffffffffffffffffffffffffffffffff16815260200190815260200160002060008573ffffffffffffffffffffffffffffffffffffffff1673ffffffffffffffffffffffffffffffffffffffff1681526020019081526020016000206000828254610fe29190611bd6565b925050819055509392505050565b60058054610ffd90611d00565b80601f016020809104026020016040519081016040528092919081815260200182805461102990611d00565b80156110765780601f1061104b57610100808354040283529160200191611076565b820191906000526020600020905b81548152906001019060200180831161105957829003601f168201915b505050505081565b60075481565b6001818154811061109457600080fd5b906000526020600020016000915054906101000a900473ffffffffffffffffffffffffffffffffffffffff1681565b60085481565b6110d161124f565b73ffffffffffffffffffffffffffffffffffffffff166110ef610baf565b73ffffffffffffffffffffffffffffffffffffffff1614611145576040517f08c379a000000000000000000000000000000000000000000000000000000000815260040161113c90611b10565b60405180910390fd5b600073ffffffffffffffffffffffffffffffffffffffff168173ffffffffffffffffffffffffffffffffffffffff1614156111b5576040517f08c379a00000000000000000000000000000000000000000000000000000000081526004016111ac90611a90565b60405180910390fd5b6111be8161138d565b50565b6060600180548060200260200160405190810160405280929190818152602001828054801561124557602002820191906000526020600020905b8160009054906101000a900473ffffffffffffffffffffffffffffffffffffffff1673ffffffffffffffffffffffffffffffffffffffff16815260200190600101908083116111fb575b5050505050905090565b600033905090565b6000808473ffffffffffffffffffffffffffffffffffffffff1663a9059cbb85856040516024016112899291906119ed565b6040516020818303038152906040529060e01b6020820180517bffffffffffffffffffffffffffffffffffffffffffffffffffffffff83818316178352505050506040516112d79190611984565b6000604051808303816000865af19150503d8060008114611314576040519150601f19603f3d011682016040523d82523d6000602084013e611319565b606091505b5091509150818015611347575060008151148061134657508080602001905181019061134591906116e3565b5b5b611386576040517f08c379a000000000000000000000000000000000000000000000000000000000815260040161137d90611b30565b60405180910390fd5b5050505050565b60008060009054906101000a900473ffffffffffffffffffffffffffffffffffffffff169050816000806101000a81548173ffffffffffffffffffffffffffffffffffffffff021916908373ffffffffffffffffffffffffffffffffffffffff1602179055508173ffffffffffffffffffffffffffffffffffffffff168173ffffffffffffffffffffffffffffffffffffffff167f8be0079c531659141344cd1fd0a4f28419497f9722a3daafe3b4186f6b6457e060405160405180910390a35050565b6000808573ffffffffffffffffffffffffffffffffffffffff166323b872dd868686604051602401611485939291906119b6565b6040516020818303038152906040529060e01b6020820180517bffffffffffffffffffffffffffffffffffffffffffffffffffffffff83818316178352505050506040516114d39190611984565b6000604051808303816000865af19150503d8060008114611510576040519150601f19603f3d011682016040523d82523d6000602084013e611515565b606091505b5091509150818015611543575060008151148061154257508080602001905181019061154191906116e3565b5b5b611582576040517f08c379a000000000000000000000000000000000000000000000000000000000815260040161157990611ab0565b60405180910390fd5b505050505050565b60008135905061159981611fbb565b92915050565b6000815190506115ae81611fd2565b92915050565b6000815190506115c381611fe9565b92915050565b6000813590506115d881611ff9565b92915050565b6000815190506115ed81611ff9565b92915050565b60006020828403121561160557600080fd5b60006116138482850161158a565b91505092915050565b6000806040838503121561162f57600080fd5b600061163d8582860161158a565b925050602061164e8582860161158a565b9150509250929050565b60008060006060848603121561166d57600080fd5b600061167b8682870161158a565b935050602061168c8682870161158a565b925050604061169d868287016115c9565b9150509250925092565b600080604083850312156116ba57600080fd5b60006116c88582860161158a565b92505060206116d9858286016115c9565b9150509250929050565b6000602082840312156116f557600080fd5b60006117038482850161159f565b91505092915050565b60006020828403121561171e57600080fd5b600061172c848285016115b4565b91505092915050565b60006020828403121561174757600080fd5b6000611755848285016115c9565b91505092915050565b60006020828403121561177057600080fd5b600061177e848285016115de565b91505092915050565b6000611793838361179f565b60208301905092915050565b6117a881611c60565b82525050565b6117b781611c60565b82525050565b60006117c882611b7b565b6117d28185611ba9565b93506117dd83611b6b565b8060005b8381101561180e5781516117f58882611787565b975061180083611b9c565b9250506001810190506117e1565b5085935050505092915050565b61182481611c72565b82525050565b600061183582611b86565b61183f8185611bba565b935061184f818560208601611ccd565b80840191505092915050565b61186481611cbb565b82525050565b600061187582611b91565b61187f8185611bc5565b935061188f818560208601611ccd565b61189881611e08565b840191505092915050565b60006118b0602683611bc5565b91506118bb82611e19565b604082019050919050565b60006118d3603183611bc5565b91506118de82611e68565b604082019050919050565b60006118f6601483611bc5565b915061190182611eb7565b602082019050919050565b6000611919603083611bc5565b915061192482611ee0565b604082019050919050565b600061193c602083611bc5565b915061194782611f2f565b602082019050919050565b600061195f602d83611bc5565b915061196a82611f58565b604082019050919050565b61197e81611cb1565b82525050565b6000611990828461182a565b915081905092915050565b60006020820190506119b060008301846117ae565b92915050565b60006060820190506119cb60008301866117ae565b6119d860208301856117ae565b6119e56040830184611975565b949350505050565b6000604082019050611a0260008301856117ae565b611a0f6020830184611975565b9392505050565b60006020820190508181036000830152611a3081846117bd565b905092915050565b6000602082019050611a4d600083018461181b565b92915050565b6000602082019050611a68600083018461185b565b92915050565b60006020820190508181036000830152611a88818461186a565b905092915050565b60006020820190508181036000830152611aa9816118a3565b9050919050565b60006020820190508181036000830152611ac9816118c6565b9050919050565b60006020820190508181036000830152611ae9816118e9565b9050919050565b60006020820190508181036000830152611b098161190c565b9050919050565b60006020820190508181036000830152611b298161192f565b9050919050565b60006020820190508181036000830152611b4981611952565b9050919050565b6000602082019050611b656000830184611975565b92915050565b6000819050602082019050919050565b600081519050919050565b600081519050919050565b600081519050919050565b6000602082019050919050565b600082825260208201905092915050565b600081905092915050565b600082825260208201905092915050565b6000611be182611cb1565b9150611bec83611cb1565b9250827fffffffffffffffffffffffffffffffffffffffffffffffffffffffffffffffff03821115611c2157611c20611d7b565b5b828201905092915050565b6000611c3782611cb1565b9150611c4283611cb1565b925082821015611c5557611c54611d7b565b5b828203905092915050565b6000611c6b82611c91565b9050919050565b60008115159050919050565b6000819050611c8c82611fa7565b919050565b600073ffffffffffffffffffffffffffffffffffffffff82169050919050565b6000819050919050565b6000611cc682611c7e565b9050919050565b60005b83811015611ceb578082015181840152602081019050611cd0565b83811115611cfa576000848401525b50505050565b60006002820490506001821680611d1857607f821691505b60208210811415611d2c57611d2b611dd9565b5b50919050565b6000611d3d82611cb1565b91507fffffffffffffffffffffffffffffffffffffffffffffffffffffffffffffffff821415611d7057611d6f611d7b565b5b600182019050919050565b7f4e487b7100000000000000000000000000000000000000000000000000000000600052601160045260246000fd5b7f4e487b7100000000000000000000000000000000000000000000000000000000600052602160045260246000fd5b7f4e487b7100000000000000000000000000000000000000000000000000000000600052602260045260246000fd5b6000601f19601f8301169050919050565b7f4f776e61626c653a206e6577206f776e657220697320746865207a65726f206160008201527f6464726573730000000000000000000000000000000000000000000000000000602082015250565b7f5472616e7366657248656c7065723a3a7472616e7366657246726f6d3a20747260008201527f616e7366657246726f6d206661696c6564000000000000000000000000000000602082015250565b7f4d7573742073656e6420736f6d652076616c7565000000000000000000000000600082015250565b7f5468697320697320626f756e747920697320636c6f7365642e2043616e6e6f7460008201527f20776974686472617720616761696e2e00000000000000000000000000000000602082015250565b7f4f776e61626c653a2063616c6c6572206973206e6f7420746865206f776e6572600082015250565b7f5472616e7366657248656c7065723a3a736166655472616e736665723a20747260008201527f616e73666572206661696c656400000000000000000000000000000000000000602082015250565b60028110611fb857611fb7611daa565b5b50565b611fc481611c60565b8114611fcf57600080fd5b50565b611fdb81611c72565b8114611fe657600080fd5b50565b60028110611ff657600080fd5b50565b61200281611cb1565b811461200d57600080fd5b5056fea2646970667358221220cac4560d819a956b33011ba2e7db237291f380e3955aed8040ec6d6f9eb945ca64736f6c63430008040033",
  "linkReferences": {},
  "deployedLinkReferences": {}
}