{
  "_format": "hh-sol-artifact-1",
  "contractName": "DepositStorage",
  "sourceName": "contracts/DepositStorage.sol",
  "abi": [
    {
      "anonymous": false,
      "inputs": [
        {
          "indexed": false,
          "internalType": "address",
          "name": "from",
          "type": "address"
        },
        {
          "indexed": false,
          "internalType": "uint256",
          "name": "amount",
          "type": "uint256"
        },
        {
          "indexed": false,
          "internalType": "string",
          "name": "issueId",
          "type": "string"
        },
        {
          "indexed": false,
          "internalType": "uint256",
          "name": "depositId",
          "type": "uint256"
        }
      ],
      "name": "IssueDepositEvent",
      "type": "event"
    },
    {
      "anonymous": false,
      "inputs": [
        {
          "indexed": true,
          "internalType": "address",
          "name": "previousOwner",
          "type": "address"
        },
        {
          "indexed": true,
          "internalType": "address",
          "name": "newOwner",
          "type": "address"
        }
      ],
      "name": "OwnershipTransferred",
      "type": "event"
    },
    {
      "anonymous": false,
      "inputs": [
        {
          "indexed": false,
          "internalType": "uint256",
          "name": "depositId",
          "type": "uint256"
        }
      ],
      "name": "RefundIssueDepositEvent",
      "type": "event"
    },
    {
      "anonymous": false,
      "inputs": [
        {
          "indexed": false,
          "internalType": "uint256",
          "name": "depositId",
          "type": "uint256"
        }
      ],
      "name": "RefundUserDepositEvent",
      "type": "event"
    },
    {
      "anonymous": false,
      "inputs": [
        {
          "indexed": false,
          "internalType": "string",
          "name": "issueId",
          "type": "string"
        },
        {
          "indexed": false,
          "internalType": "address",
          "name": "govTokenAddress",
          "type": "address"
        }
      ],
      "name": "SetGovTokenForIssueEvent",
      "type": "event"
    },
    {
      "anonymous": false,
      "inputs": [
        {
          "indexed": false,
          "internalType": "address",
          "name": "from",
          "type": "address"
        },
        {
          "indexed": false,
          "internalType": "uint256",
          "name": "amount",
          "type": "uint256"
        },
        {
          "indexed": false,
          "internalType": "string",
          "name": "githubUserId",
          "type": "string"
        },
        {
          "indexed": false,
          "internalType": "uint256",
          "name": "depositId",
          "type": "uint256"
        }
      ],
      "name": "UserDepositEvent",
      "type": "event"
    },
    {
      "anonymous": false,
      "inputs": [
        {
          "indexed": false,
          "internalType": "string",
          "name": "issueId",
          "type": "string"
        }
      ],
      "name": "WithdrawIssueDepositsEvent",
      "type": "event"
    },
    {
      "anonymous": false,
      "inputs": [
        {
          "indexed": false,
          "internalType": "uint256",
          "name": "depositId",
          "type": "uint256"
        }
      ],
      "name": "WithdrawUserDepositEvent",
      "type": "event"
    },
    {
      "inputs": [
        {
          "internalType": "string",
          "name": "_githubUserId",
          "type": "string"
        },
        {
          "internalType": "address",
          "name": "msgSender",
          "type": "address"
        }
      ],
      "name": "depositEthForGithubUser",
      "outputs": [],
      "stateMutability": "payable",
      "type": "function"
    },
    {
      "inputs": [
        {
          "internalType": "string",
          "name": "_issueId",
          "type": "string"
        },
        {
          "internalType": "address",
          "name": "msgSender",
          "type": "address"
        }
      ],
      "name": "depositEthForIssue",
      "outputs": [],
      "stateMutability": "payable",
      "type": "function"
    },
    {
      "inputs": [
        {
          "internalType": "string",
          "name": "",
          "type": "string"
        },
        {
          "internalType": "uint256",
          "name": "",
          "type": "uint256"
        }
      ],
      "name": "issueDepositIdsByIssueId",
      "outputs": [
        {
          "internalType": "uint256",
          "name": "",
          "type": "uint256"
        }
      ],
      "stateMutability": "view",
      "type": "function"
    },
    {
      "inputs": [
        {
          "internalType": "address",
          "name": "",
          "type": "address"
        },
        {
          "internalType": "uint256",
          "name": "",
          "type": "uint256"
        }
      ],
      "name": "issueDepositIdsBySender",
      "outputs": [
        {
          "internalType": "uint256",
          "name": "",
          "type": "uint256"
        }
      ],
      "stateMutability": "view",
      "type": "function"
    },
    {
      "inputs": [
        {
          "internalType": "uint256",
          "name": "",
          "type": "uint256"
        }
      ],
      "name": "issueDeposits",
      "outputs": [
        {
          "internalType": "address",
          "name": "from",
          "type": "address"
        },
        {
          "internalType": "uint256",
          "name": "amount",
          "type": "uint256"
        },
        {
          "internalType": "string",
          "name": "issueId",
          "type": "string"
        }
      ],
      "stateMutability": "view",
      "type": "function"
    },
    {
      "inputs": [
        {
          "internalType": "string",
          "name": "",
          "type": "string"
        }
      ],
      "name": "issueDepositsAmountByIssueId",
      "outputs": [
        {
          "internalType": "uint256",
          "name": "",
          "type": "uint256"
        }
      ],
      "stateMutability": "view",
      "type": "function"
    },
    {
      "inputs": [
        {
          "internalType": "string",
          "name": "",
          "type": "string"
        }
      ],
      "name": "issueStatusByIssueId",
      "outputs": [
        {
          "internalType": "enum DepositStorage.IssueStatus",
          "name": "",
          "type": "uint8"
        }
      ],
      "stateMutability": "view",
      "type": "function"
    },
    {
      "inputs": [],
      "name": "nextIssueDepositId",
      "outputs": [
        {
          "internalType": "uint256",
          "name": "",
          "type": "uint256"
        }
      ],
      "stateMutability": "view",
      "type": "function"
    },
    {
      "inputs": [],
      "name": "openq",
      "outputs": [
        {
          "internalType": "address",
          "name": "",
          "type": "address"
        }
      ],
      "stateMutability": "view",
      "type": "function"
    },
    {
      "inputs": [],
      "name": "owner",
      "outputs": [
        {
          "internalType": "address",
          "name": "",
          "type": "address"
        }
      ],
      "stateMutability": "view",
      "type": "function"
    },
    {
      "inputs": [
        {
          "internalType": "uint256",
          "name": "_depositId",
          "type": "uint256"
        },
        {
          "internalType": "address",
          "name": "msgSender",
          "type": "address"
        }
      ],
      "name": "refundIssueDeposit",
      "outputs": [],
      "stateMutability": "nonpayable",
      "type": "function"
    },
    {
      "inputs": [
        {
          "internalType": "uint256",
          "name": "_depositId",
          "type": "uint256"
        },
        {
          "internalType": "address",
          "name": "msgSender",
          "type": "address"
        }
      ],
      "name": "refundUserDeposit",
      "outputs": [],
      "stateMutability": "nonpayable",
      "type": "function"
    },
    {
      "inputs": [],
      "name": "renounceOwnership",
      "outputs": [],
      "stateMutability": "nonpayable",
      "type": "function"
    },
    {
      "inputs": [
        {
          "internalType": "address",
          "name": "_openq",
          "type": "address"
        }
      ],
      "name": "setOpenQ",
      "outputs": [],
      "stateMutability": "nonpayable",
      "type": "function"
    },
    {
      "inputs": [
        {
          "internalType": "address",
          "name": "newOwner",
          "type": "address"
        }
      ],
      "name": "transferOwnership",
      "outputs": [],
      "stateMutability": "nonpayable",
      "type": "function"
    },
    {
      "inputs": [
        {
          "internalType": "string",
          "name": "",
          "type": "string"
        }
      ],
      "name": "userClaimAmountByGithbUserId",
      "outputs": [
        {
          "internalType": "uint256",
          "name": "",
          "type": "uint256"
        }
      ],
      "stateMutability": "view",
      "type": "function"
    },
    {
      "inputs": [
        {
          "internalType": "string",
          "name": "",
          "type": "string"
        },
        {
          "internalType": "uint256",
          "name": "",
          "type": "uint256"
        }
      ],
      "name": "userDepositIdsByGithubUserId",
      "outputs": [
        {
          "internalType": "uint256",
          "name": "",
          "type": "uint256"
        }
      ],
      "stateMutability": "view",
      "type": "function"
    },
    {
      "inputs": [
        {
          "internalType": "address",
          "name": "",
          "type": "address"
        },
        {
          "internalType": "uint256",
          "name": "",
          "type": "uint256"
        }
      ],
      "name": "userDepositIdsBySender",
      "outputs": [
        {
          "internalType": "uint256",
          "name": "",
          "type": "uint256"
        }
      ],
      "stateMutability": "view",
      "type": "function"
    },
    {
      "inputs": [
        {
          "internalType": "uint256",
          "name": "",
          "type": "uint256"
        }
      ],
      "name": "userDeposits",
      "outputs": [
        {
          "internalType": "address",
          "name": "from",
          "type": "address"
        },
        {
          "internalType": "uint256",
          "name": "amount",
          "type": "uint256"
        },
        {
          "internalType": "string",
          "name": "githubUserId",
          "type": "string"
        }
      ],
      "stateMutability": "view",
      "type": "function"
    },
    {
      "inputs": [
        {
          "internalType": "address",
          "name": "_payoutAddress",
          "type": "address"
        },
        {
          "internalType": "string",
          "name": "_issueId",
          "type": "string"
        }
      ],
      "name": "withdrawIssueDeposit",
      "outputs": [
        {
          "internalType": "uint256",
          "name": "",
          "type": "uint256"
        }
      ],
      "stateMutability": "nonpayable",
      "type": "function"
    },
    {
      "inputs": [
        {
          "internalType": "uint256",
          "name": "_depositId",
          "type": "uint256"
        },
        {
          "internalType": "address",
          "name": "msgSender",
          "type": "address"
        },
        {
          "internalType": "string",
          "name": "_userId",
          "type": "string"
        }
      ],
      "name": "withdrawUserDeposit",
      "outputs": [],
      "stateMutability": "nonpayable",
      "type": "function"
    }
  ],
  "bytecode": "0x6080604052600060035560006008553480156200001b57600080fd5b506200003c620000306200004260201b60201c565b6200004a60201b60201c565b6200010e565b600033905090565b60008060009054906101000a900473ffffffffffffffffffffffffffffffffffffffff169050816000806101000a81548173ffffffffffffffffffffffffffffffffffffffff021916908373ffffffffffffffffffffffffffffffffffffffff1602179055508173ffffffffffffffffffffffffffffffffffffffff168173ffffffffffffffffffffffffffffffffffffffff167f8be0079c531659141344cd1fd0a4f28419497f9722a3daafe3b4186f6b6457e060405160405180910390a35050565b612d43806200011e6000396000f3fe60806040526004361061012a5760003560e01c80639edc06ee116100ab578063f16b41f41161006f578063f16b41f4146103fc578063f224f9021461043b578063f2fde38b14610478578063f63e8c70146104a1578063f831eaa4146104cc578063fdf993a8146105095761012a565b80639edc06ee14610333578063c7c614fa1461034f578063d224784d14610378578063e14c375f146103b7578063e54f54a9146103e05761012a565b80636a6ab0e9116100f25780636a6ab0e914610260578063715018a61461029d5780638da5cb5b146102b457806397fb9bb9146102df57806398f5b3021461030a5761012a565b806304405fa91461012f57806317c486f11461016c57806345ae7717146101a957806361e421d5146101e65780636470175014610223575b600080fd5b34801561013b57600080fd5b5061015660048036038101906101519190612014565b610532565b60405161016391906126ba565b60405180910390f35b34801561017857600080fd5b50610193600480360381019061018e9190611fd3565b610579565b6040516101a091906126ba565b60405180910390f35b3480156101b557600080fd5b506101d060048036038101906101cb9190611ee7565b6105a7565b6040516101dd91906126ba565b60405180910390f35b3480156101f257600080fd5b5061020d60048036038101906102089190611f3f565b6107b8565b60405161021a91906126ba565b60405180910390f35b34801561022f57600080fd5b5061024a60048036038101906102459190611f3f565b6107e9565b60405161025791906126ba565b60405180910390f35b34801561026c57600080fd5b5061028760048036038101906102829190611fd3565b61081a565b604051610294919061257b565b60405180910390f35b3480156102a957600080fd5b506102b2610850565b005b3480156102c057600080fd5b506102c96108d8565b6040516102d691906124d4565b60405180910390f35b3480156102eb57600080fd5b506102f4610901565b60405161030191906124d4565b60405180910390f35b34801561031657600080fd5b50610331600480360381019061032c9190612091565b610927565b005b61034d60048036038101906103489190611f7b565b610aa0565b005b34801561035b57600080fd5b5061037660048036038101906103719190612091565b610db4565b005b34801561038457600080fd5b5061039f600480360381019061039a9190612068565b611118565b6040516103ae9392919061253d565b60405180910390f35b3480156103c357600080fd5b506103de60048036038101906103d991906120cd565b6111ea565b005b6103fa60048036038101906103f59190611f7b565b611344565b005b34801561040857600080fd5b50610423600480360381019061041e9190612068565b611738565b6040516104329392919061253d565b60405180910390f35b34801561044757600080fd5b50610462600480360381019061045d9190611fd3565b61180a565b60405161046f91906126ba565b60405180910390f35b34801561048457600080fd5b5061049f600480360381019061049a9190611ebe565b611838565b005b3480156104ad57600080fd5b506104b6611930565b6040516104c391906126ba565b60405180910390f35b3480156104d857600080fd5b506104f360048036038101906104ee9190612014565b611936565b60405161050091906126ba565b60405180910390f35b34801561051557600080fd5b50610530600480360381019061052b9190611ebe565b61197d565b005b600982805160208101820180518482526020830160208501208183528095505050505050818154811061056457600080fd5b90600052602060002001600091509150505481565b600b818051602081018201805184825260208301602085012081835280955050505050506000915090505481565b6000600160009054906101000a900473ffffffffffffffffffffffffffffffffffffffff1673ffffffffffffffffffffffffffffffffffffffff163373ffffffffffffffffffffffffffffffffffffffff1614610639576040517f08c379a00000000000000000000000000000000000000000000000000000000081526004016106309061261a565b60405180910390fd5b600073ffffffffffffffffffffffffffffffffffffffff168473ffffffffffffffffffffffffffffffffffffffff16141561067357600080fd5b6000600b848460405161068792919061248d565b90815260200160405180910390205490506000600b85856040516106ac92919061248d565b9081526020016040518091039020819055506001600c85856040516106d292919061248d565b908152602001604051809103902060006101000a81548160ff02191690836001811115610728577f4e487b7100000000000000000000000000000000000000000000000000000000600052602160045260246000fd5b02179055507fccf73352d4715bc502808f9e0b1bceb074c2a8b5ae408cf2597eacb2814bf6b3848460405161075e929190612596565b60405180910390a18473ffffffffffffffffffffffffffffffffffffffff166108fc829081150290604051600060405180830381858888f193505050501580156107ac573d6000803e3d6000fd5b50809150509392505050565b600a60205281600052604060002081815481106107d457600080fd5b90600052602060002001600091509150505481565b6006602052816000526040600020818154811061080557600080fd5b90600052602060002001600091509150505481565b600c818051602081018201805184825260208301602085012081835280955050505050506000915054906101000a900460ff1681565b610858611a3d565b73ffffffffffffffffffffffffffffffffffffffff166108766108d8565b73ffffffffffffffffffffffffffffffffffffffff16146108cc576040517f08c379a00000000000000000000000000000000000000000000000000000000081526004016108c39061267a565b60405180910390fd5b6108d66000611a45565b565b60008060009054906101000a900473ffffffffffffffffffffffffffffffffffffffff16905090565b600160009054906101000a900473ffffffffffffffffffffffffffffffffffffffff1681565b600160009054906101000a900473ffffffffffffffffffffffffffffffffffffffff1673ffffffffffffffffffffffffffffffffffffffff163373ffffffffffffffffffffffffffffffffffffffff16146109b7576040517f08c379a00000000000000000000000000000000000000000000000000000000081526004016109ae9061261a565b60405180910390fd5b8073ffffffffffffffffffffffffffffffffffffffff166004600084815260200190815260200160002060000160009054906101000a900473ffffffffffffffffffffffffffffffffffffffff1673ffffffffffffffffffffffffffffffffffffffff1614610a5b576040517f08c379a0000000000000000000000000000000000000000000000000000000008152600401610a52906125fa565b60405180910390fd5b610a658282611b09565b7f9500930138fb0e2d16520cbf818e35a0c218d76dc463b467ee4f28c38aad3b3182604051610a9491906126ba565b60405180910390a15050565b600160009054906101000a900473ffffffffffffffffffffffffffffffffffffffff1673ffffffffffffffffffffffffffffffffffffffff163373ffffffffffffffffffffffffffffffffffffffff1614610b30576040517f08c379a0000000000000000000000000000000000000000000000000000000008152600401610b279061261a565b60405180910390fd5b60003411610b73576040517f08c379a0000000000000000000000000000000000000000000000000000000008152600401610b6a9061269a565b60405180910390fd5b60036000815480929190610b8690612917565b919050555060405180606001604052808273ffffffffffffffffffffffffffffffffffffffff16815260200134815260200184848080601f016020809104026020016040519081016040528093929190818152602001838380828437600081840152601f19601f8201169050808301925050505050505081525060046000600354815260200190815260200160002060008201518160000160006101000a81548173ffffffffffffffffffffffffffffffffffffffff021916908373ffffffffffffffffffffffffffffffffffffffff160217905550602082015181600101556040820151816002019080519060200190610c82929190611cff565b5090505060058383604051610c9892919061248d565b90815260200160405180910390206003549080600181540180825580915050600190039060005260206000200160009091909190915055600660008273ffffffffffffffffffffffffffffffffffffffff1673ffffffffffffffffffffffffffffffffffffffff16815260200190815260200160002060035490806001815401808255809150506001900390600052602060002001600090919091909150553460028484604051610d4a92919061248d565b90815260200160405180910390206000828254610d679190612787565b925050819055507f3c0105fffaf14a432e4ce83520ad0e37d34055557b1ccc65668d19a7b708eca881348585600354604051610da79594939291906124ef565b60405180910390a1505050565b600160009054906101000a900473ffffffffffffffffffffffffffffffffffffffff1673ffffffffffffffffffffffffffffffffffffffff163373ffffffffffffffffffffffffffffffffffffffff1614610e44576040517f08c379a0000000000000000000000000000000000000000000000000000000008152600401610e3b9061261a565b60405180910390fd5b8073ffffffffffffffffffffffffffffffffffffffff166007600084815260200190815260200160002060000160009054906101000a900473ffffffffffffffffffffffffffffffffffffffff1673ffffffffffffffffffffffffffffffffffffffff1614610ee8576040517f08c379a0000000000000000000000000000000000000000000000000000000008152600401610edf906125da565b60405180910390fd5b60006001811115610f22577f4e487b7100000000000000000000000000000000000000000000000000000000600052602160045260246000fd5b600c60076000858152602001908152602001600020600201604051610f4791906124bd565b908152602001604051809103902060009054906101000a900460ff166001811115610f9b577f4e487b7100000000000000000000000000000000000000000000000000000000600052602160045260246000fd5b14610fdb576040517f08c379a0000000000000000000000000000000000000000000000000000000008152600401610fd29061263a565b60405180910390fd5b60006007600084815260200190815260200160002060010154905080600b6007600086815260200190815260200160002060020160405161101c91906124bd565b9081526020016040518091039020600082825461103991906127dd565b925050819055507fba8a5978b05e4534ae07cbcc64e6275eb476cd018ff9d748f8982cb81974feca8360405161106f91906126ba565b60405180910390a160076000848152602001908152602001600020600080820160006101000a81549073ffffffffffffffffffffffffffffffffffffffff021916905560018201600090556002820160006110ca9190611d85565b50508173ffffffffffffffffffffffffffffffffffffffff166108fc829081150290604051600060405180830381858888f19350505050158015611112573d6000803e3d6000fd5b50505050565b60076020528060005260406000206000915090508060000160009054906101000a900473ffffffffffffffffffffffffffffffffffffffff1690806001015490806002018054611167906128b4565b80601f0160208091040260200160405190810160405280929190818152602001828054611193906128b4565b80156111e05780601f106111b5576101008083540402835291602001916111e0565b820191906000526020600020905b8154815290600101906020018083116111c357829003601f168201915b5050505050905083565b600160009054906101000a900473ffffffffffffffffffffffffffffffffffffffff1673ffffffffffffffffffffffffffffffffffffffff163373ffffffffffffffffffffffffffffffffffffffff161461127a576040517f08c379a00000000000000000000000000000000000000000000000000000000081526004016112719061261a565b60405180910390fd5b818160405161128a92919061245d565b6040518091039020600460008681526020019081526020016000206002016040516112b59190612476565b6040518091039020146112fd576040517f08c379a00000000000000000000000000000000000000000000000000000000081526004016112f49061265a565b60405180910390fd5b6113078484611b09565b7f4daeee262f737930465bdb0cd4154b5e366381fe0a3aa4cc7cad2e19faee9c988460405161133691906126ba565b60405180910390a150505050565b600160009054906101000a900473ffffffffffffffffffffffffffffffffffffffff1673ffffffffffffffffffffffffffffffffffffffff163373ffffffffffffffffffffffffffffffffffffffff16146113d4576040517f08c379a00000000000000000000000000000000000000000000000000000000081526004016113cb9061261a565b60405180910390fd5b60003411611417576040517f08c379a000000000000000000000000000000000000000000000000000000000815260040161140e9061269a565b60405180910390fd5b60006001811115611451577f4e487b7100000000000000000000000000000000000000000000000000000000600052602160045260246000fd5b600c848460405161146392919061248d565b908152602001604051809103902060009054906101000a900460ff1660018111156114b7577f4e487b7100000000000000000000000000000000000000000000000000000000600052602160045260246000fd5b146114f7576040517f08c379a00000000000000000000000000000000000000000000000000000000081526004016114ee9061263a565b60405180910390fd5b6008600081548092919061150a90612917565b919050555060405180606001604052808273ffffffffffffffffffffffffffffffffffffffff16815260200134815260200184848080601f016020809104026020016040519081016040528093929190818152602001838380828437600081840152601f19601f8201169050808301925050505050505081525060076000600854815260200190815260200160002060008201518160000160006101000a81548173ffffffffffffffffffffffffffffffffffffffff021916908373ffffffffffffffffffffffffffffffffffffffff160217905550602082015181600101556040820151816002019080519060200190611606929190611cff565b509050506009838360405161161c92919061248d565b90815260200160405180910390206008549080600181540180825580915050600190039060005260206000200160009091909190915055600a60008273ffffffffffffffffffffffffffffffffffffffff1673ffffffffffffffffffffffffffffffffffffffff168152602001908152602001600020600854908060018154018082558091505060019003906000526020600020016000909190919091505534600b84846040516116ce92919061248d565b908152602001604051809103902060008282546116eb9190612787565b925050819055507f1c0306f1b3e6623ac3e5a5b1b36db068ce661a4afdd25b0fa922519d7ea9cf5a8134858560085460405161172b9594939291906124ef565b60405180910390a1505050565b60046020528060005260406000206000915090508060000160009054906101000a900473ffffffffffffffffffffffffffffffffffffffff1690806001015490806002018054611787906128b4565b80601f01602080910402602001604051908101604052809291908181526020018280546117b3906128b4565b80156118005780601f106117d557610100808354040283529160200191611800565b820191906000526020600020905b8154815290600101906020018083116117e357829003601f168201915b5050505050905083565b6002818051602081018201805184825260208301602085012081835280955050505050506000915090505481565b611840611a3d565b73ffffffffffffffffffffffffffffffffffffffff1661185e6108d8565b73ffffffffffffffffffffffffffffffffffffffff16146118b4576040517f08c379a00000000000000000000000000000000000000000000000000000000081526004016118ab9061267a565b60405180910390fd5b600073ffffffffffffffffffffffffffffffffffffffff168173ffffffffffffffffffffffffffffffffffffffff161415611924576040517f08c379a000000000000000000000000000000000000000000000000000000000815260040161191b906125ba565b60405180910390fd5b61192d81611a45565b50565b60085481565b600582805160208101820180518482526020830160208501208183528095505050505050818154811061196857600080fd5b90600052602060002001600091509150505481565b611985611a3d565b73ffffffffffffffffffffffffffffffffffffffff166119a36108d8565b73ffffffffffffffffffffffffffffffffffffffff16146119f9576040517f08c379a00000000000000000000000000000000000000000000000000000000081526004016119f09061267a565b60405180910390fd5b80600160006101000a81548173ffffffffffffffffffffffffffffffffffffffff021916908373ffffffffffffffffffffffffffffffffffffffff16021790555050565b600033905090565b60008060009054906101000a900473ffffffffffffffffffffffffffffffffffffffff169050816000806101000a81548173ffffffffffffffffffffffffffffffffffffffff021916908373ffffffffffffffffffffffffffffffffffffffff1602179055508173ffffffffffffffffffffffffffffffffffffffff168173ffffffffffffffffffffffffffffffffffffffff167f8be0079c531659141344cd1fd0a4f28419497f9722a3daafe3b4186f6b6457e060405160405180910390a35050565b6000600460008481526020019081526020016000206040518060600160405290816000820160009054906101000a900473ffffffffffffffffffffffffffffffffffffffff1673ffffffffffffffffffffffffffffffffffffffff1673ffffffffffffffffffffffffffffffffffffffff16815260200160018201548152602001600282018054611b99906128b4565b80601f0160208091040260200160405190810160405280929190818152602001828054611bc5906128b4565b8015611c125780601f10611be757610100808354040283529160200191611c12565b820191906000526020600020905b815481529060010190602001808311611bf557829003601f168201915b50505050508152505090508173ffffffffffffffffffffffffffffffffffffffff166108fc82602001519081150290604051600060405180830381858888f19350505050158015611c67573d6000803e3d6000fd5b50806020015160028260400151604051611c8191906124a6565b90815260200160405180910390206000828254611c9e91906127dd565b9250508190555060046000848152602001908152602001600020600080820160006101000a81549073ffffffffffffffffffffffffffffffffffffffff02191690556001820160009055600282016000611cf89190611d85565b5050505050565b828054611d0b906128b4565b90600052602060002090601f016020900481019282611d2d5760008555611d74565b82601f10611d4657805160ff1916838001178555611d74565b82800160010185558215611d74579182015b82811115611d73578251825591602001919060010190611d58565b5b509050611d819190611dc5565b5090565b508054611d91906128b4565b6000825580601f10611da35750611dc2565b601f016020900490600052602060002090810190611dc19190611dc5565b5b50565b5b80821115611dde576000816000905550600101611dc6565b5090565b6000611df5611df0846126fa565b6126d5565b905082815260208101848484011115611e0d57600080fd5b611e18848285612872565b509392505050565b600081359050611e2f81612cdf565b92915050565b60008083601f840112611e4757600080fd5b8235905067ffffffffffffffff811115611e6057600080fd5b602083019150836001820283011115611e7857600080fd5b9250929050565b600082601f830112611e9057600080fd5b8135611ea0848260208601611de2565b91505092915050565b600081359050611eb881612cf6565b92915050565b600060208284031215611ed057600080fd5b6000611ede84828501611e20565b91505092915050565b600080600060408486031215611efc57600080fd5b6000611f0a86828701611e20565b935050602084013567ffffffffffffffff811115611f2757600080fd5b611f3386828701611e35565b92509250509250925092565b60008060408385031215611f5257600080fd5b6000611f6085828601611e20565b9250506020611f7185828601611ea9565b9150509250929050565b600080600060408486031215611f9057600080fd5b600084013567ffffffffffffffff811115611faa57600080fd5b611fb686828701611e35565b93509350506020611fc986828701611e20565b9150509250925092565b600060208284031215611fe557600080fd5b600082013567ffffffffffffffff811115611fff57600080fd5b61200b84828501611e7f565b91505092915050565b6000806040838503121561202757600080fd5b600083013567ffffffffffffffff81111561204157600080fd5b61204d85828601611e7f565b925050602061205e85828601611ea9565b9150509250929050565b60006020828403121561207a57600080fd5b600061208884828501611ea9565b91505092915050565b600080604083850312156120a457600080fd5b60006120b285828601611ea9565b92505060206120c385828601611e20565b9150509250929050565b600080600080606085870312156120e357600080fd5b60006120f187828801611ea9565b945050602061210287828801611e20565b935050604085013567ffffffffffffffff81111561211f57600080fd5b61212b87828801611e35565b925092505092959194509250565b61214281612811565b82525050565b60006121548385612760565b9350612161838584612872565b82840190509392505050565b6000815461217a816128b4565b6121848186612760565b9450600182166000811461219f57600181146121b0576121e3565b60ff198316865281860193506121e3565b6121b98561272b565b60005b838110156121db578154818901526001820191506020810190506121bc565b838801955050505b50505092915050565b6121f581612860565b82525050565b6000612207838561276b565b9350612214838584612872565b61221d83612a1c565b840190509392505050565b6000612234838561277c565b9350612241838584612872565b82840190509392505050565b600061225882612755565b612262818561276b565b9350612272818560208601612881565b61227b81612a1c565b840191505092915050565b600061229182612755565b61229b818561277c565b93506122ab818560208601612881565b80840191505092915050565b600081546122c4816128b4565b6122ce818661277c565b945060018216600081146122e957600181146122fa5761232d565b60ff1983168652818601935061232d565b61230385612740565b60005b8381101561232557815481890152600182019150602081019050612306565b838801955050505b50505092915050565b600061234360268361276b565b915061234e82612a2d565b604082019050919050565b600061236660528361276b565b915061237182612a7c565b606082019050919050565b600061238960408361276b565b915061239482612af1565b604082019050919050565b60006123ac60438361276b565b91506123b782612b40565b606082019050919050565b60006123cf60228361276b565b91506123da82612bb5565b604082019050919050565b60006123f260378361276b565b91506123fd82612c04565b604082019050919050565b600061241560208361276b565b915061242082612c53565b602082019050919050565b600061243860228361276b565b915061244382612c7c565b604082019050919050565b61245781612856565b82525050565b600061246a828486612148565b91508190509392505050565b6000612482828461216d565b915081905092915050565b600061249a828486612228565b91508190509392505050565b60006124b28284612286565b915081905092915050565b60006124c982846122b7565b915081905092915050565b60006020820190506124e96000830184612139565b92915050565b60006080820190506125046000830188612139565b612511602083018761244e565b81810360408301526125248185876121fb565b9050612533606083018461244e565b9695505050505050565b60006060820190506125526000830186612139565b61255f602083018561244e565b8181036040830152612571818461224d565b9050949350505050565b600060208201905061259060008301846121ec565b92915050565b600060208201905081810360008301526125b18184866121fb565b90509392505050565b600060208201905081810360008301526125d381612336565b9050919050565b600060208201905081810360008301526125f381612359565b9050919050565b600060208201905081810360008301526126138161237c565b9050919050565b600060208201905081810360008301526126338161239f565b9050919050565b60006020820190508181036000830152612653816123c2565b9050919050565b60006020820190508181036000830152612673816123e5565b9050919050565b6000602082019050818103600083015261269381612408565b9050919050565b600060208201905081810360008301526126b38161242b565b9050919050565b60006020820190506126cf600083018461244e565b92915050565b60006126df6126f0565b90506126eb82826128e6565b919050565b6000604051905090565b600067ffffffffffffffff821115612715576127146129ed565b5b61271e82612a1c565b9050602081019050919050565b60008190508160005260206000209050919050565b60008190508160005260206000209050919050565b600081519050919050565b600081905092915050565b600082825260208201905092915050565b600081905092915050565b600061279282612856565b915061279d83612856565b9250827fffffffffffffffffffffffffffffffffffffffffffffffffffffffffffffffff038211156127d2576127d1612960565b5b828201905092915050565b60006127e882612856565b91506127f383612856565b92508282101561280657612805612960565b5b828203905092915050565b600061281c82612836565b9050919050565b600081905061283182612ccb565b919050565b600073ffffffffffffffffffffffffffffffffffffffff82169050919050565b6000819050919050565b600061286b82612823565b9050919050565b82818337600083830152505050565b60005b8381101561289f578082015181840152602081019050612884565b838111156128ae576000848401525b50505050565b600060028204905060018216806128cc57607f821691505b602082108114156128e0576128df6129be565b5b50919050565b6128ef82612a1c565b810181811067ffffffffffffffff8211171561290e5761290d6129ed565b5b80604052505050565b600061292282612856565b91507fffffffffffffffffffffffffffffffffffffffffffffffffffffffffffffffff82141561295557612954612960565b5b600182019050919050565b7f4e487b7100000000000000000000000000000000000000000000000000000000600052601160045260246000fd5b7f4e487b7100000000000000000000000000000000000000000000000000000000600052602160045260246000fd5b7f4e487b7100000000000000000000000000000000000000000000000000000000600052602260045260246000fd5b7f4e487b7100000000000000000000000000000000000000000000000000000000600052604160045260246000fd5b6000601f19601f8301169050919050565b7f4f776e61626c653a206e6577206f776e657220697320746865207a65726f206160008201527f6464726573730000000000000000000000000000000000000000000000000000602082015250565b7f4465706f73697453746f726167653a204465706f73697420646964206e6f742060008201527f636f6d652066726f6d207468697320457468657265756d20616464726573732060208201527f6f7220646f6573206e6f742065786973742e0000000000000000000000000000604082015250565b7f4465706f73697453746f726167653a204465706f73697420646964206e6f742060008201527f636f6d652066726f6d207468697320457468657265756d20616464726573732e602082015250565b7f4f70656e5153746f726167653a204f6e6c79207468652063757272656e74204f60008201527f70656e512076657273696f6e2063616e2075736520746869732066756e63746960208201527f6f6e2e0000000000000000000000000000000000000000000000000000000000604082015250565b7f4465706f73697453746f726167653a204973737565206973206e6f74204f504560008201527f4e2e000000000000000000000000000000000000000000000000000000000000602082015250565b7f4465706f73697453746f726167653a204465706f736974206973206e6f74206660008201527f6f72207468697320476974487562206163636f756e742e000000000000000000602082015250565b7f4f776e61626c653a2063616c6c6572206973206e6f7420746865206f776e6572600082015250565b7f4465706f73697453746f726167653a20596f75206d7573742073656e6420455460008201527f482e000000000000000000000000000000000000000000000000000000000000602082015250565b60028110612cdc57612cdb61298f565b5b50565b612ce881612811565b8114612cf357600080fd5b50565b612cff81612856565b8114612d0a57600080fd5b5056fea264697066735822122050e375d8c7041608b35e293be1028cf011eecb9014a484e98546aa4c528b1d8c64736f6c63430008040033",
  "linkReferences": {},
  "deployedLinkReferences": {}
}