{
  "_format": "hh-sol-artifact-1",
  "contractName": "DepositStorage",
  "sourceName": "contracts/DepositStorage.sol",
  "abi": [
    {
      "anonymous": false,
      "inputs": [
        {
          "indexed": false,
          "internalType": "address",
          "name": "from",
          "type": "address"
        },
        {
          "indexed": false,
          "internalType": "uint256",
          "name": "amount",
          "type": "uint256"
        },
        {
          "indexed": false,
          "internalType": "string",
          "name": "issueId",
          "type": "string"
        },
        {
          "indexed": false,
          "internalType": "uint256",
          "name": "depositId",
          "type": "uint256"
        }
      ],
      "name": "IssueDepositEvent",
      "type": "event"
    },
    {
      "anonymous": false,
      "inputs": [
        {
          "indexed": true,
          "internalType": "address",
          "name": "previousOwner",
          "type": "address"
        },
        {
          "indexed": true,
          "internalType": "address",
          "name": "newOwner",
          "type": "address"
        }
      ],
      "name": "OwnershipTransferred",
      "type": "event"
    },
    {
      "anonymous": false,
      "inputs": [
        {
          "indexed": false,
          "internalType": "uint256",
          "name": "depositId",
          "type": "uint256"
        }
      ],
      "name": "RefundIssueDepositEvent",
      "type": "event"
    },
    {
      "anonymous": false,
      "inputs": [
        {
          "indexed": false,
          "internalType": "uint256",
          "name": "depositId",
          "type": "uint256"
        }
      ],
      "name": "RefundUserDepositEvent",
      "type": "event"
    },
    {
      "anonymous": false,
      "inputs": [
        {
          "indexed": false,
          "internalType": "string",
          "name": "issueId",
          "type": "string"
        },
        {
          "indexed": false,
          "internalType": "address",
          "name": "govTokenAddress",
          "type": "address"
        }
      ],
      "name": "SetGovTokenForIssueEvent",
      "type": "event"
    },
    {
      "anonymous": false,
      "inputs": [
        {
          "indexed": false,
          "internalType": "address",
          "name": "from",
          "type": "address"
        },
        {
          "indexed": false,
          "internalType": "uint256",
          "name": "amount",
          "type": "uint256"
        },
        {
          "indexed": false,
          "internalType": "string",
          "name": "githubUserId",
          "type": "string"
        },
        {
          "indexed": false,
          "internalType": "uint256",
          "name": "depositId",
          "type": "uint256"
        }
      ],
      "name": "UserDepositEvent",
      "type": "event"
    },
    {
      "anonymous": false,
      "inputs": [
        {
          "indexed": false,
          "internalType": "string",
          "name": "issueId",
          "type": "string"
        }
      ],
      "name": "WithdrawIssueDepositsEvent",
      "type": "event"
    },
    {
      "anonymous": false,
      "inputs": [
        {
          "indexed": false,
          "internalType": "uint256",
          "name": "depositId",
          "type": "uint256"
        }
      ],
      "name": "WithdrawUserDepositEvent",
      "type": "event"
    },
    {
      "inputs": [
        {
          "internalType": "string",
          "name": "_githubUserId",
          "type": "string"
        },
        {
          "internalType": "address",
          "name": "msgSender",
          "type": "address"
        }
      ],
      "name": "depositEthForGithubUser",
      "outputs": [],
      "stateMutability": "payable",
      "type": "function"
    },
    {
      "inputs": [
        {
          "internalType": "string",
          "name": "_issueId",
          "type": "string"
        },
        {
          "internalType": "address",
          "name": "msgSender",
          "type": "address"
        }
      ],
      "name": "depositEthForIssue",
      "outputs": [],
      "stateMutability": "payable",
      "type": "function"
    },
    {
      "inputs": [
        {
          "internalType": "string",
          "name": "",
          "type": "string"
        },
        {
          "internalType": "uint256",
          "name": "",
          "type": "uint256"
        }
      ],
      "name": "issueDepositIdsByIssueId",
      "outputs": [
        {
          "internalType": "uint256",
          "name": "",
          "type": "uint256"
        }
      ],
      "stateMutability": "view",
      "type": "function"
    },
    {
      "inputs": [
        {
          "internalType": "address",
          "name": "",
          "type": "address"
        },
        {
          "internalType": "uint256",
          "name": "",
          "type": "uint256"
        }
      ],
      "name": "issueDepositIdsBySender",
      "outputs": [
        {
          "internalType": "uint256",
          "name": "",
          "type": "uint256"
        }
      ],
      "stateMutability": "view",
      "type": "function"
    },
    {
      "inputs": [
        {
          "internalType": "uint256",
          "name": "",
          "type": "uint256"
        }
      ],
      "name": "issueDeposits",
      "outputs": [
        {
          "internalType": "address",
          "name": "from",
          "type": "address"
        },
        {
          "internalType": "uint256",
          "name": "amount",
          "type": "uint256"
        },
        {
          "internalType": "string",
          "name": "issueId",
          "type": "string"
        }
      ],
      "stateMutability": "view",
      "type": "function"
    },
    {
      "inputs": [
        {
          "internalType": "string",
          "name": "",
          "type": "string"
        }
      ],
      "name": "issueDepositsAmountByIssueId",
      "outputs": [
        {
          "internalType": "uint256",
          "name": "",
          "type": "uint256"
        }
      ],
      "stateMutability": "view",
      "type": "function"
    },
    {
      "inputs": [
        {
          "internalType": "string",
          "name": "",
          "type": "string"
        }
      ],
      "name": "issueStatusByIssueId",
      "outputs": [
        {
          "internalType": "enum DepositStorage.IssueStatus",
          "name": "",
          "type": "uint8"
        }
      ],
      "stateMutability": "view",
      "type": "function"
    },
    {
      "inputs": [],
      "name": "nextIssueDepositId",
      "outputs": [
        {
          "internalType": "uint256",
          "name": "",
          "type": "uint256"
        }
      ],
      "stateMutability": "view",
      "type": "function"
    },
    {
      "inputs": [],
      "name": "openq",
      "outputs": [
        {
          "internalType": "address",
          "name": "",
          "type": "address"
        }
      ],
      "stateMutability": "view",
      "type": "function"
    },
    {
      "inputs": [],
      "name": "owner",
      "outputs": [
        {
          "internalType": "address",
          "name": "",
          "type": "address"
        }
      ],
      "stateMutability": "view",
      "type": "function"
    },
    {
      "inputs": [
        {
          "internalType": "uint256",
          "name": "_depositId",
          "type": "uint256"
        },
        {
          "internalType": "address",
          "name": "msgSender",
          "type": "address"
        }
      ],
      "name": "refundIssueDeposit",
      "outputs": [],
      "stateMutability": "nonpayable",
      "type": "function"
    },
    {
      "inputs": [
        {
          "internalType": "uint256",
          "name": "_depositId",
          "type": "uint256"
        },
        {
          "internalType": "address",
          "name": "msgSender",
          "type": "address"
        }
      ],
      "name": "refundUserDeposit",
      "outputs": [],
      "stateMutability": "nonpayable",
      "type": "function"
    },
    {
      "inputs": [],
      "name": "renounceOwnership",
      "outputs": [],
      "stateMutability": "nonpayable",
      "type": "function"
    },
    {
      "inputs": [
        {
          "internalType": "address",
          "name": "_openq",
          "type": "address"
        }
      ],
      "name": "setOpenQ",
      "outputs": [],
      "stateMutability": "nonpayable",
      "type": "function"
    },
    {
      "inputs": [
        {
          "internalType": "address",
          "name": "newOwner",
          "type": "address"
        }
      ],
      "name": "transferOwnership",
      "outputs": [],
      "stateMutability": "nonpayable",
      "type": "function"
    },
    {
      "inputs": [
        {
          "internalType": "string",
          "name": "",
          "type": "string"
        }
      ],
      "name": "userClaimAmountByGithbUserId",
      "outputs": [
        {
          "internalType": "uint256",
          "name": "",
          "type": "uint256"
        }
      ],
      "stateMutability": "view",
      "type": "function"
    },
    {
      "inputs": [
        {
          "internalType": "string",
          "name": "",
          "type": "string"
        },
        {
          "internalType": "uint256",
          "name": "",
          "type": "uint256"
        }
      ],
      "name": "userDepositIdsByGithubUserId",
      "outputs": [
        {
          "internalType": "uint256",
          "name": "",
          "type": "uint256"
        }
      ],
      "stateMutability": "view",
      "type": "function"
    },
    {
      "inputs": [
        {
          "internalType": "address",
          "name": "",
          "type": "address"
        },
        {
          "internalType": "uint256",
          "name": "",
          "type": "uint256"
        }
      ],
      "name": "userDepositIdsBySender",
      "outputs": [
        {
          "internalType": "uint256",
          "name": "",
          "type": "uint256"
        }
      ],
      "stateMutability": "view",
      "type": "function"
    },
    {
      "inputs": [
        {
          "internalType": "uint256",
          "name": "",
          "type": "uint256"
        }
      ],
      "name": "userDeposits",
      "outputs": [
        {
          "internalType": "address",
          "name": "from",
          "type": "address"
        },
        {
          "internalType": "uint256",
          "name": "amount",
          "type": "uint256"
        },
        {
          "internalType": "string",
          "name": "githubUserId",
          "type": "string"
        }
      ],
      "stateMutability": "view",
      "type": "function"
    },
    {
      "inputs": [
        {
          "internalType": "address",
          "name": "_payoutAddress",
          "type": "address"
        },
        {
          "internalType": "string",
          "name": "_issueId",
          "type": "string"
        }
      ],
      "name": "withdrawIssueDeposit",
      "outputs": [
        {
          "internalType": "uint256",
          "name": "",
          "type": "uint256"
        }
      ],
      "stateMutability": "nonpayable",
      "type": "function"
    },
    {
      "inputs": [
        {
          "internalType": "uint256",
          "name": "_depositId",
          "type": "uint256"
        },
        {
          "internalType": "address",
          "name": "msgSender",
          "type": "address"
        },
        {
          "internalType": "string",
          "name": "_userId",
          "type": "string"
        }
      ],
      "name": "withdrawUserDeposit",
      "outputs": [],
      "stateMutability": "nonpayable",
      "type": "function"
    }
  ],
  "bytecode": "0x6080604052600060035560006008553480156200001b57600080fd5b506200003c620000306200004260201b60201c565b6200004a60201b60201c565b6200010e565b600033905090565b60008060009054906101000a900473ffffffffffffffffffffffffffffffffffffffff169050816000806101000a81548173ffffffffffffffffffffffffffffffffffffffff021916908373ffffffffffffffffffffffffffffffffffffffff1602179055508173ffffffffffffffffffffffffffffffffffffffff168173ffffffffffffffffffffffffffffffffffffffff167f8be0079c531659141344cd1fd0a4f28419497f9722a3daafe3b4186f6b6457e060405160405180910390a35050565b612dff806200011e6000396000f3fe60806040526004361061012a5760003560e01c80639edc06ee116100ab578063f16b41f41161006f578063f16b41f4146103fc578063f224f9021461043b578063f2fde38b14610478578063f63e8c70146104a1578063f831eaa4146104cc578063fdf993a8146105095761012a565b80639edc06ee14610333578063c7c614fa1461034f578063d224784d14610378578063e14c375f146103b7578063e54f54a9146103e05761012a565b80636a6ab0e9116100f25780636a6ab0e914610260578063715018a61461029d5780638da5cb5b146102b457806397fb9bb9146102df57806398f5b3021461030a5761012a565b806304405fa91461012f57806317c486f11461016c57806345ae7717146101a957806361e421d5146101e65780636470175014610223575b600080fd5b34801561013b57600080fd5b5061015660048036038101906101519190612064565b610532565b604051610163919061274d565b60405180910390f35b34801561017857600080fd5b50610193600480360381019061018e9190612023565b610579565b6040516101a0919061274d565b60405180910390f35b3480156101b557600080fd5b506101d060048036038101906101cb9190611f37565b6105a7565b6040516101dd919061274d565b60405180910390f35b3480156101f257600080fd5b5061020d60048036038101906102089190611f8f565b610898565b60405161021a919061274d565b60405180910390f35b34801561022f57600080fd5b5061024a60048036038101906102459190611f8f565b6108c9565b604051610257919061274d565b60405180910390f35b34801561026c57600080fd5b5061028760048036038101906102829190612023565b6108fa565b60405161029491906125ee565b60405180910390f35b3480156102a957600080fd5b506102b2610930565b005b3480156102c057600080fd5b506102c96109b8565b6040516102d69190612547565b60405180910390f35b3480156102eb57600080fd5b506102f46109e1565b6040516103019190612547565b60405180910390f35b34801561031657600080fd5b50610331600480360381019061032c91906120e1565b610a07565b005b61034d60048036038101906103489190611fcb565b610b80565b005b34801561035b57600080fd5b50610376600480360381019061037191906120e1565b610e94565b005b34801561038457600080fd5b5061039f600480360381019061039a91906120b8565b611168565b6040516103ae939291906125b0565b60405180910390f35b3480156103c357600080fd5b506103de60048036038101906103d9919061211d565b61123a565b005b6103fa60048036038101906103f59190611fcb565b611394565b005b34801561040857600080fd5b50610423600480360381019061041e91906120b8565b611788565b604051610432939291906125b0565b60405180910390f35b34801561044757600080fd5b50610462600480360381019061045d9190612023565b61185a565b60405161046f919061274d565b60405180910390f35b34801561048457600080fd5b5061049f600480360381019061049a9190611f0e565b611888565b005b3480156104ad57600080fd5b506104b6611980565b6040516104c3919061274d565b60405180910390f35b3480156104d857600080fd5b506104f360048036038101906104ee9190612064565b611986565b604051610500919061274d565b60405180910390f35b34801561051557600080fd5b50610530600480360381019061052b9190611f0e565b6119cd565b005b600982805160208101820180518482526020830160208501208183528095505050505050818154811061056457600080fd5b90600052602060002001600091509150505481565b600b818051602081018201805184825260208301602085012081835280955050505050506000915090505481565b6000600160009054906101000a900473ffffffffffffffffffffffffffffffffffffffff1673ffffffffffffffffffffffffffffffffffffffff163373ffffffffffffffffffffffffffffffffffffffff1614610639576040517f08c379a0000000000000000000000000000000000000000000000000000000008152600401610630906126ad565b60405180910390fd5b600073ffffffffffffffffffffffffffffffffffffffff168473ffffffffffffffffffffffffffffffffffffffff16141561067357600080fd5b6001808111156106ac577f4e487b7100000000000000000000000000000000000000000000000000000000600052602160045260246000fd5b600c84846040516106be929190612500565b908152602001604051809103902060009054906101000a900460ff166001811115610712577f4e487b7100000000000000000000000000000000000000000000000000000000600052602160045260246000fd5b1415610753576040517f08c379a000000000000000000000000000000000000000000000000000000000815260040161074a9061262d565b60405180910390fd5b6000600b8484604051610767929190612500565b90815260200160405180910390205490506000600b858560405161078c929190612500565b9081526020016040518091039020819055506001600c85856040516107b2929190612500565b908152602001604051809103902060006101000a81548160ff02191690836001811115610808577f4e487b7100000000000000000000000000000000000000000000000000000000600052602160045260246000fd5b02179055507fccf73352d4715bc502808f9e0b1bceb074c2a8b5ae408cf2597eacb2814bf6b3848460405161083e929190612609565b60405180910390a18473ffffffffffffffffffffffffffffffffffffffff166108fc829081150290604051600060405180830381858888f1935050505015801561088c573d6000803e3d6000fd5b50809150509392505050565b600a60205281600052604060002081815481106108b457600080fd5b90600052602060002001600091509150505481565b600660205281600052604060002081815481106108e557600080fd5b90600052602060002001600091509150505481565b600c818051602081018201805184825260208301602085012081835280955050505050506000915054906101000a900460ff1681565b610938611a8d565b73ffffffffffffffffffffffffffffffffffffffff166109566109b8565b73ffffffffffffffffffffffffffffffffffffffff16146109ac576040517f08c379a00000000000000000000000000000000000000000000000000000000081526004016109a39061270d565b60405180910390fd5b6109b66000611a95565b565b60008060009054906101000a900473ffffffffffffffffffffffffffffffffffffffff16905090565b600160009054906101000a900473ffffffffffffffffffffffffffffffffffffffff1681565b600160009054906101000a900473ffffffffffffffffffffffffffffffffffffffff1673ffffffffffffffffffffffffffffffffffffffff163373ffffffffffffffffffffffffffffffffffffffff1614610a97576040517f08c379a0000000000000000000000000000000000000000000000000000000008152600401610a8e906126ad565b60405180910390fd5b8073ffffffffffffffffffffffffffffffffffffffff166004600084815260200190815260200160002060000160009054906101000a900473ffffffffffffffffffffffffffffffffffffffff1673ffffffffffffffffffffffffffffffffffffffff1614610b3b576040517f08c379a0000000000000000000000000000000000000000000000000000000008152600401610b329061268d565b60405180910390fd5b610b458282611b59565b7f9500930138fb0e2d16520cbf818e35a0c218d76dc463b467ee4f28c38aad3b3182604051610b74919061274d565b60405180910390a15050565b600160009054906101000a900473ffffffffffffffffffffffffffffffffffffffff1673ffffffffffffffffffffffffffffffffffffffff163373ffffffffffffffffffffffffffffffffffffffff1614610c10576040517f08c379a0000000000000000000000000000000000000000000000000000000008152600401610c07906126ad565b60405180910390fd5b60003411610c53576040517f08c379a0000000000000000000000000000000000000000000000000000000008152600401610c4a9061272d565b60405180910390fd5b60036000815480929190610c66906129aa565b919050555060405180606001604052808273ffffffffffffffffffffffffffffffffffffffff16815260200134815260200184848080601f016020809104026020016040519081016040528093929190818152602001838380828437600081840152601f19601f8201169050808301925050505050505081525060046000600354815260200190815260200160002060008201518160000160006101000a81548173ffffffffffffffffffffffffffffffffffffffff021916908373ffffffffffffffffffffffffffffffffffffffff160217905550602082015181600101556040820151816002019080519060200190610d62929190611d4f565b5090505060058383604051610d78929190612500565b90815260200160405180910390206003549080600181540180825580915050600190039060005260206000200160009091909190915055600660008273ffffffffffffffffffffffffffffffffffffffff1673ffffffffffffffffffffffffffffffffffffffff16815260200190815260200160002060035490806001815401808255809150506001900390600052602060002001600090919091909150553460028484604051610e2a929190612500565b90815260200160405180910390206000828254610e47919061281a565b925050819055507f3c0105fffaf14a432e4ce83520ad0e37d34055557b1ccc65668d19a7b708eca881348585600354604051610e87959493929190612562565b60405180910390a1505050565b8073ffffffffffffffffffffffffffffffffffffffff166007600084815260200190815260200160002060000160009054906101000a900473ffffffffffffffffffffffffffffffffffffffff1673ffffffffffffffffffffffffffffffffffffffff1614610f38576040517f08c379a0000000000000000000000000000000000000000000000000000000008152600401610f2f9061266d565b60405180910390fd5b60006001811115610f72577f4e487b7100000000000000000000000000000000000000000000000000000000600052602160045260246000fd5b600c60076000858152602001908152602001600020600201604051610f979190612530565b908152602001604051809103902060009054906101000a900460ff166001811115610feb577f4e487b7100000000000000000000000000000000000000000000000000000000600052602160045260246000fd5b1461102b576040517f08c379a0000000000000000000000000000000000000000000000000000000008152600401611022906126cd565b60405180910390fd5b60006007600084815260200190815260200160002060010154905080600b6007600086815260200190815260200160002060020160405161106c9190612530565b908152602001604051809103902060008282546110899190612870565b925050819055507fba8a5978b05e4534ae07cbcc64e6275eb476cd018ff9d748f8982cb81974feca836040516110bf919061274d565b60405180910390a160076000848152602001908152602001600020600080820160006101000a81549073ffffffffffffffffffffffffffffffffffffffff0219169055600182016000905560028201600061111a9190611dd5565b50508173ffffffffffffffffffffffffffffffffffffffff166108fc829081150290604051600060405180830381858888f19350505050158015611162573d6000803e3d6000fd5b50505050565b60076020528060005260406000206000915090508060000160009054906101000a900473ffffffffffffffffffffffffffffffffffffffff16908060010154908060020180546111b790612947565b80601f01602080910402602001604051908101604052809291908181526020018280546111e390612947565b80156112305780601f1061120557610100808354040283529160200191611230565b820191906000526020600020905b81548152906001019060200180831161121357829003601f168201915b5050505050905083565b600160009054906101000a900473ffffffffffffffffffffffffffffffffffffffff1673ffffffffffffffffffffffffffffffffffffffff163373ffffffffffffffffffffffffffffffffffffffff16146112ca576040517f08c379a00000000000000000000000000000000000000000000000000000000081526004016112c1906126ad565b60405180910390fd5b81816040516112da9291906124d0565b60405180910390206004600086815260200190815260200160002060020160405161130591906124e9565b60405180910390201461134d576040517f08c379a0000000000000000000000000000000000000000000000000000000008152600401611344906126ed565b60405180910390fd5b6113578484611b59565b7f4daeee262f737930465bdb0cd4154b5e366381fe0a3aa4cc7cad2e19faee9c9884604051611386919061274d565b60405180910390a150505050565b600160009054906101000a900473ffffffffffffffffffffffffffffffffffffffff1673ffffffffffffffffffffffffffffffffffffffff163373ffffffffffffffffffffffffffffffffffffffff1614611424576040517f08c379a000000000000000000000000000000000000000000000000000000000815260040161141b906126ad565b60405180910390fd5b60003411611467576040517f08c379a000000000000000000000000000000000000000000000000000000000815260040161145e9061272d565b60405180910390fd5b600060018111156114a1577f4e487b7100000000000000000000000000000000000000000000000000000000600052602160045260246000fd5b600c84846040516114b3929190612500565b908152602001604051809103902060009054906101000a900460ff166001811115611507577f4e487b7100000000000000000000000000000000000000000000000000000000600052602160045260246000fd5b14611547576040517f08c379a000000000000000000000000000000000000000000000000000000000815260040161153e906126cd565b60405180910390fd5b6008600081548092919061155a906129aa565b919050555060405180606001604052808273ffffffffffffffffffffffffffffffffffffffff16815260200134815260200184848080601f016020809104026020016040519081016040528093929190818152602001838380828437600081840152601f19601f8201169050808301925050505050505081525060076000600854815260200190815260200160002060008201518160000160006101000a81548173ffffffffffffffffffffffffffffffffffffffff021916908373ffffffffffffffffffffffffffffffffffffffff160217905550602082015181600101556040820151816002019080519060200190611656929190611d4f565b509050506009838360405161166c929190612500565b90815260200160405180910390206008549080600181540180825580915050600190039060005260206000200160009091909190915055600a60008273ffffffffffffffffffffffffffffffffffffffff1673ffffffffffffffffffffffffffffffffffffffff168152602001908152602001600020600854908060018154018082558091505060019003906000526020600020016000909190919091505534600b848460405161171e929190612500565b9081526020016040518091039020600082825461173b919061281a565b925050819055507f1c0306f1b3e6623ac3e5a5b1b36db068ce661a4afdd25b0fa922519d7ea9cf5a8134858560085460405161177b959493929190612562565b60405180910390a1505050565b60046020528060005260406000206000915090508060000160009054906101000a900473ffffffffffffffffffffffffffffffffffffffff16908060010154908060020180546117d790612947565b80601f016020809104026020016040519081016040528092919081815260200182805461180390612947565b80156118505780601f1061182557610100808354040283529160200191611850565b820191906000526020600020905b81548152906001019060200180831161183357829003601f168201915b5050505050905083565b6002818051602081018201805184825260208301602085012081835280955050505050506000915090505481565b611890611a8d565b73ffffffffffffffffffffffffffffffffffffffff166118ae6109b8565b73ffffffffffffffffffffffffffffffffffffffff1614611904576040517f08c379a00000000000000000000000000000000000000000000000000000000081526004016118fb9061270d565b60405180910390fd5b600073ffffffffffffffffffffffffffffffffffffffff168173ffffffffffffffffffffffffffffffffffffffff161415611974576040517f08c379a000000000000000000000000000000000000000000000000000000000815260040161196b9061264d565b60405180910390fd5b61197d81611a95565b50565b60085481565b60058280516020810182018051848252602083016020850120818352809550505050505081815481106119b857600080fd5b90600052602060002001600091509150505481565b6119d5611a8d565b73ffffffffffffffffffffffffffffffffffffffff166119f36109b8565b73ffffffffffffffffffffffffffffffffffffffff1614611a49576040517f08c379a0000000000000000000000000000000000000000000000000000000008152600401611a409061270d565b60405180910390fd5b80600160006101000a81548173ffffffffffffffffffffffffffffffffffffffff021916908373ffffffffffffffffffffffffffffffffffffffff16021790555050565b600033905090565b60008060009054906101000a900473ffffffffffffffffffffffffffffffffffffffff169050816000806101000a81548173ffffffffffffffffffffffffffffffffffffffff021916908373ffffffffffffffffffffffffffffffffffffffff1602179055508173ffffffffffffffffffffffffffffffffffffffff168173ffffffffffffffffffffffffffffffffffffffff167f8be0079c531659141344cd1fd0a4f28419497f9722a3daafe3b4186f6b6457e060405160405180910390a35050565b6000600460008481526020019081526020016000206040518060600160405290816000820160009054906101000a900473ffffffffffffffffffffffffffffffffffffffff1673ffffffffffffffffffffffffffffffffffffffff1673ffffffffffffffffffffffffffffffffffffffff16815260200160018201548152602001600282018054611be990612947565b80601f0160208091040260200160405190810160405280929190818152602001828054611c1590612947565b8015611c625780601f10611c3757610100808354040283529160200191611c62565b820191906000526020600020905b815481529060010190602001808311611c4557829003601f168201915b50505050508152505090508173ffffffffffffffffffffffffffffffffffffffff166108fc82602001519081150290604051600060405180830381858888f19350505050158015611cb7573d6000803e3d6000fd5b50806020015160028260400151604051611cd19190612519565b90815260200160405180910390206000828254611cee9190612870565b9250508190555060046000848152602001908152602001600020600080820160006101000a81549073ffffffffffffffffffffffffffffffffffffffff02191690556001820160009055600282016000611d489190611dd5565b5050505050565b828054611d5b90612947565b90600052602060002090601f016020900481019282611d7d5760008555611dc4565b82601f10611d9657805160ff1916838001178555611dc4565b82800160010185558215611dc4579182015b82811115611dc3578251825591602001919060010190611da8565b5b509050611dd19190611e15565b5090565b508054611de190612947565b6000825580601f10611df35750611e12565b601f016020900490600052602060002090810190611e119190611e15565b5b50565b5b80821115611e2e576000816000905550600101611e16565b5090565b6000611e45611e408461278d565b612768565b905082815260208101848484011115611e5d57600080fd5b611e68848285612905565b509392505050565b600081359050611e7f81612d9b565b92915050565b60008083601f840112611e9757600080fd5b8235905067ffffffffffffffff811115611eb057600080fd5b602083019150836001820283011115611ec857600080fd5b9250929050565b600082601f830112611ee057600080fd5b8135611ef0848260208601611e32565b91505092915050565b600081359050611f0881612db2565b92915050565b600060208284031215611f2057600080fd5b6000611f2e84828501611e70565b91505092915050565b600080600060408486031215611f4c57600080fd5b6000611f5a86828701611e70565b935050602084013567ffffffffffffffff811115611f7757600080fd5b611f8386828701611e85565b92509250509250925092565b60008060408385031215611fa257600080fd5b6000611fb085828601611e70565b9250506020611fc185828601611ef9565b9150509250929050565b600080600060408486031215611fe057600080fd5b600084013567ffffffffffffffff811115611ffa57600080fd5b61200686828701611e85565b9350935050602061201986828701611e70565b9150509250925092565b60006020828403121561203557600080fd5b600082013567ffffffffffffffff81111561204f57600080fd5b61205b84828501611ecf565b91505092915050565b6000806040838503121561207757600080fd5b600083013567ffffffffffffffff81111561209157600080fd5b61209d85828601611ecf565b92505060206120ae85828601611ef9565b9150509250929050565b6000602082840312156120ca57600080fd5b60006120d884828501611ef9565b91505092915050565b600080604083850312156120f457600080fd5b600061210285828601611ef9565b925050602061211385828601611e70565b9150509250929050565b6000806000806060858703121561213357600080fd5b600061214187828801611ef9565b945050602061215287828801611e70565b935050604085013567ffffffffffffffff81111561216f57600080fd5b61217b87828801611e85565b925092505092959194509250565b612192816128a4565b82525050565b60006121a483856127f3565b93506121b1838584612905565b82840190509392505050565b600081546121ca81612947565b6121d481866127f3565b945060018216600081146121ef576001811461220057612233565b60ff19831686528186019350612233565b612209856127be565b60005b8381101561222b5781548189015260018201915060208101905061220c565b838801955050505b50505092915050565b612245816128f3565b82525050565b600061225783856127fe565b9350612264838584612905565b61226d83612aaf565b840190509392505050565b6000612284838561280f565b9350612291838584612905565b82840190509392505050565b60006122a8826127e8565b6122b281856127fe565b93506122c2818560208601612914565b6122cb81612aaf565b840191505092915050565b60006122e1826127e8565b6122eb818561280f565b93506122fb818560208601612914565b80840191505092915050565b6000815461231481612947565b61231e818661280f565b94506001821660008114612339576001811461234a5761237d565b60ff1983168652818601935061237d565b612353856127d3565b60005b8381101561237557815481890152600182019150602081019050612356565b838801955050505b50505092915050565b60006123936016836127fe565b915061239e82612ac0565b602082019050919050565b60006123b66026836127fe565b91506123c182612ae9565b604082019050919050565b60006123d96052836127fe565b91506123e482612b38565b606082019050919050565b60006123fc6040836127fe565b915061240782612bad565b604082019050919050565b600061241f6043836127fe565b915061242a82612bfc565b606082019050919050565b60006124426022836127fe565b915061244d82612c71565b604082019050919050565b60006124656037836127fe565b915061247082612cc0565b604082019050919050565b60006124886020836127fe565b915061249382612d0f565b602082019050919050565b60006124ab6022836127fe565b91506124b682612d38565b604082019050919050565b6124ca816128e9565b82525050565b60006124dd828486612198565b91508190509392505050565b60006124f582846121bd565b915081905092915050565b600061250d828486612278565b91508190509392505050565b600061252582846122d6565b915081905092915050565b600061253c8284612307565b915081905092915050565b600060208201905061255c6000830184612189565b92915050565b60006080820190506125776000830188612189565b61258460208301876124c1565b818103604083015261259781858761224b565b90506125a660608301846124c1565b9695505050505050565b60006060820190506125c56000830186612189565b6125d260208301856124c1565b81810360408301526125e4818461229d565b9050949350505050565b6000602082019050612603600083018461223c565b92915050565b6000602082019050818103600083015261262481848661224b565b90509392505050565b6000602082019050818103600083015261264681612386565b9050919050565b60006020820190508181036000830152612666816123a9565b9050919050565b60006020820190508181036000830152612686816123cc565b9050919050565b600060208201905081810360008301526126a6816123ef565b9050919050565b600060208201905081810360008301526126c681612412565b9050919050565b600060208201905081810360008301526126e681612435565b9050919050565b6000602082019050818103600083015261270681612458565b9050919050565b600060208201905081810360008301526127268161247b565b9050919050565b600060208201905081810360008301526127468161249e565b9050919050565b600060208201905061276260008301846124c1565b92915050565b6000612772612783565b905061277e8282612979565b919050565b6000604051905090565b600067ffffffffffffffff8211156127a8576127a7612a80565b5b6127b182612aaf565b9050602081019050919050565b60008190508160005260206000209050919050565b60008190508160005260206000209050919050565b600081519050919050565b600081905092915050565b600082825260208201905092915050565b600081905092915050565b6000612825826128e9565b9150612830836128e9565b9250827fffffffffffffffffffffffffffffffffffffffffffffffffffffffffffffffff03821115612865576128646129f3565b5b828201905092915050565b600061287b826128e9565b9150612886836128e9565b925082821015612899576128986129f3565b5b828203905092915050565b60006128af826128c9565b9050919050565b60008190506128c482612d87565b919050565b600073ffffffffffffffffffffffffffffffffffffffff82169050919050565b6000819050919050565b60006128fe826128b6565b9050919050565b82818337600083830152505050565b60005b83811015612932578082015181840152602081019050612917565b83811115612941576000848401525b50505050565b6000600282049050600182168061295f57607f821691505b6020821081141561297357612972612a51565b5b50919050565b61298282612aaf565b810181811067ffffffffffffffff821117156129a1576129a0612a80565b5b80604052505050565b60006129b5826128e9565b91507fffffffffffffffffffffffffffffffffffffffffffffffffffffffffffffffff8214156129e8576129e76129f3565b5b600182019050919050565b7f4e487b7100000000000000000000000000000000000000000000000000000000600052601160045260246000fd5b7f4e487b7100000000000000000000000000000000000000000000000000000000600052602160045260246000fd5b7f4e487b7100000000000000000000000000000000000000000000000000000000600052602260045260246000fd5b7f4e487b7100000000000000000000000000000000000000000000000000000000600052604160045260246000fd5b6000601f19601f8301169050919050565b7f497373756520616c726561647920636c61696d65642100000000000000000000600082015250565b7f4f776e61626c653a206e6577206f776e657220697320746865207a65726f206160008201527f6464726573730000000000000000000000000000000000000000000000000000602082015250565b7f4465706f73697453746f726167653a204465706f73697420646964206e6f742060008201527f636f6d652066726f6d207468697320457468657265756d20616464726573732060208201527f6f7220646f6573206e6f742065786973742e0000000000000000000000000000604082015250565b7f4465706f73697453746f726167653a204465706f73697420646964206e6f742060008201527f636f6d652066726f6d207468697320457468657265756d20616464726573732e602082015250565b7f4f70656e5153746f726167653a204f6e6c79207468652063757272656e74204f60008201527f70656e512076657273696f6e2063616e2075736520746869732066756e63746960208201527f6f6e2e0000000000000000000000000000000000000000000000000000000000604082015250565b7f4465706f73697453746f726167653a204973737565206973206e6f74204f504560008201527f4e2e000000000000000000000000000000000000000000000000000000000000602082015250565b7f4465706f73697453746f726167653a204465706f736974206973206e6f74206660008201527f6f72207468697320476974487562206163636f756e742e000000000000000000602082015250565b7f4f776e61626c653a2063616c6c6572206973206e6f7420746865206f776e6572600082015250565b7f4465706f73697453746f726167653a20596f75206d7573742073656e6420455460008201527f482e000000000000000000000000000000000000000000000000000000000000602082015250565b60028110612d9857612d97612a22565b5b50565b612da4816128a4565b8114612daf57600080fd5b50565b612dbb816128e9565b8114612dc657600080fd5b5056fea2646970667358221220aaac41b1425084114fb361660cd73779923f997b689fee9e45f512f6e573d35164736f6c63430008040033",
  "linkReferences": {},
  "deployedLinkReferences": {}
}