{
  "_format": "hh-sol-artifact-1",
  "contractName": "OpenQStorage",
  "sourceName": "contracts/OpenQStorage.sol",
  "abi": [
    {
      "anonymous": false,
      "inputs": [
        {
          "indexed": true,
          "internalType": "address",
          "name": "previousOwner",
          "type": "address"
        },
        {
          "indexed": true,
          "internalType": "address",
          "name": "newOwner",
          "type": "address"
        }
      ],
      "name": "OwnershipTransferred",
      "type": "event"
    },
    {
      "inputs": [],
      "name": "openq",
      "outputs": [
        {
          "internalType": "address",
          "name": "",
          "type": "address"
        }
      ],
      "stateMutability": "view",
      "type": "function"
    },
    {
      "inputs": [],
      "name": "owner",
      "outputs": [
        {
          "internalType": "address",
          "name": "",
          "type": "address"
        }
      ],
      "stateMutability": "view",
      "type": "function"
    },
    {
      "inputs": [],
      "name": "renounceOwnership",
      "outputs": [],
      "stateMutability": "nonpayable",
      "type": "function"
    },
    {
      "inputs": [
        {
          "internalType": "address",
          "name": "_openq",
          "type": "address"
        }
      ],
      "name": "setOpenQ",
      "outputs": [],
      "stateMutability": "nonpayable",
      "type": "function"
    },
    {
      "inputs": [
        {
          "internalType": "address",
          "name": "newOwner",
          "type": "address"
        }
      ],
      "name": "transferOwnership",
      "outputs": [],
      "stateMutability": "nonpayable",
      "type": "function"
    }
  ],
  "bytecode": "0x608060405234801561001057600080fd5b5061002d61002261003260201b60201c565b61003a60201b60201c565b6100fe565b600033905090565b60008060009054906101000a900473ffffffffffffffffffffffffffffffffffffffff169050816000806101000a81548173ffffffffffffffffffffffffffffffffffffffff021916908373ffffffffffffffffffffffffffffffffffffffff1602179055508173ffffffffffffffffffffffffffffffffffffffff168173ffffffffffffffffffffffffffffffffffffffff167f8be0079c531659141344cd1fd0a4f28419497f9722a3daafe3b4186f6b6457e060405160405180910390a35050565b61062b8061010d6000396000f3fe608060405234801561001057600080fd5b50600436106100575760003560e01c8063715018a61461005c5780638da5cb5b1461006657806397fb9bb914610084578063f2fde38b146100a2578063fdf993a8146100be575b600080fd5b6100646100da565b005b61006e610162565b60405161007b91906104c8565b60405180910390f35b61008c61018b565b60405161009991906104c8565b60405180910390f35b6100bc60048036038101906100b7919061044a565b6101b1565b005b6100d860048036038101906100d3919061044a565b6102a9565b005b6100e2610369565b73ffffffffffffffffffffffffffffffffffffffff16610100610162565b73ffffffffffffffffffffffffffffffffffffffff1614610156576040517f08c379a000000000000000000000000000000000000000000000000000000000815260040161014d90610503565b60405180910390fd5b6101606000610371565b565b60008060009054906101000a900473ffffffffffffffffffffffffffffffffffffffff16905090565b600160009054906101000a900473ffffffffffffffffffffffffffffffffffffffff1681565b6101b9610369565b73ffffffffffffffffffffffffffffffffffffffff166101d7610162565b73ffffffffffffffffffffffffffffffffffffffff161461022d576040517f08c379a000000000000000000000000000000000000000000000000000000000815260040161022490610503565b60405180910390fd5b600073ffffffffffffffffffffffffffffffffffffffff168173ffffffffffffffffffffffffffffffffffffffff16141561029d576040517f08c379a0000000000000000000000000000000000000000000000000000000008152600401610294906104e3565b60405180910390fd5b6102a681610371565b50565b6102b1610369565b73ffffffffffffffffffffffffffffffffffffffff166102cf610162565b73ffffffffffffffffffffffffffffffffffffffff1614610325576040517f08c379a000000000000000000000000000000000000000000000000000000000815260040161031c90610503565b60405180910390fd5b80600160006101000a81548173ffffffffffffffffffffffffffffffffffffffff021916908373ffffffffffffffffffffffffffffffffffffffff16021790555050565b600033905090565b60008060009054906101000a900473ffffffffffffffffffffffffffffffffffffffff169050816000806101000a81548173ffffffffffffffffffffffffffffffffffffffff021916908373ffffffffffffffffffffffffffffffffffffffff1602179055508173ffffffffffffffffffffffffffffffffffffffff168173ffffffffffffffffffffffffffffffffffffffff167f8be0079c531659141344cd1fd0a4f28419497f9722a3daafe3b4186f6b6457e060405160405180910390a35050565b600081359050610444816105de565b92915050565b60006020828403121561045c57600080fd5b600061046a84828501610435565b91505092915050565b61047c81610534565b82525050565b600061048f602683610523565b915061049a82610566565b604082019050919050565b60006104b2602083610523565b91506104bd826105b5565b602082019050919050565b60006020820190506104dd6000830184610473565b92915050565b600060208201905081810360008301526104fc81610482565b9050919050565b6000602082019050818103600083015261051c816104a5565b9050919050565b600082825260208201905092915050565b600061053f82610546565b9050919050565b600073ffffffffffffffffffffffffffffffffffffffff82169050919050565b7f4f776e61626c653a206e6577206f776e657220697320746865207a65726f206160008201527f6464726573730000000000000000000000000000000000000000000000000000602082015250565b7f4f776e61626c653a2063616c6c6572206973206e6f7420746865206f776e6572600082015250565b6105e781610534565b81146105f257600080fd5b5056fea26469706673582212203b411c972ca0773a7bc5a40300a5853cd97347e129f3715d417f475a7a6a838b64736f6c63430008040033",
  "linkReferences": {},
  "deployedLinkReferences": {}
}