{
  "_format": "hh-sol-artifact-1",
  "contractName": "Bounty_v1",
  "sourceName": "contracts/Bounty_v1.sol",
  "abi": [
    {
      "inputs": [
        {
          "internalType": "string",
          "name": "_id",
          "type": "string"
        },
        {
          "internalType": "address",
          "name": "_issuer",
          "type": "address"
        },
        {
          "internalType": "string",
          "name": "_organization",
          "type": "string"
        }
      ],
      "stateMutability": "nonpayable",
      "type": "constructor"
    },
    {
      "anonymous": false,
      "inputs": [
        {
          "indexed": true,
          "internalType": "address",
          "name": "previousOwner",
          "type": "address"
        },
        {
          "indexed": true,
          "internalType": "address",
          "name": "newOwner",
          "type": "address"
        }
      ],
      "name": "OwnershipTransferred",
      "type": "event"
    },
    {
      "stateMutability": "nonpayable",
      "type": "fallback"
    },
    {
      "inputs": [],
      "name": "bountyClosedTime",
      "outputs": [
        {
          "internalType": "uint256",
          "name": "",
          "type": "uint256"
        }
      ],
      "stateMutability": "view",
      "type": "function"
    },
    {
      "inputs": [],
      "name": "bountyCreatedTime",
      "outputs": [
        {
          "internalType": "uint256",
          "name": "",
          "type": "uint256"
        }
      ],
      "stateMutability": "view",
      "type": "function"
    },
    {
      "inputs": [],
      "name": "bountyId",
      "outputs": [
        {
          "internalType": "string",
          "name": "",
          "type": "string"
        }
      ],
      "stateMutability": "view",
      "type": "function"
    },
    {
      "inputs": [
        {
          "internalType": "uint256",
          "name": "",
          "type": "uint256"
        }
      ],
      "name": "bountyTokenAddresses",
      "outputs": [
        {
          "internalType": "address",
          "name": "",
          "type": "address"
        }
      ],
      "stateMutability": "view",
      "type": "function"
    },
    {
      "inputs": [
        {
          "internalType": "address",
          "name": "_payoutAddress",
          "type": "address"
        },
        {
          "internalType": "address",
          "name": "_tokenAddress",
          "type": "address"
        }
      ],
      "name": "claim",
      "outputs": [
        {
          "internalType": "bool",
          "name": "success",
          "type": "bool"
        }
      ],
      "stateMutability": "nonpayable",
      "type": "function"
    },
    {
      "inputs": [
        {
          "internalType": "address",
          "name": "_payoutAddress",
          "type": "address"
        }
      ],
      "name": "closeBounty",
      "outputs": [
        {
          "internalType": "bool",
          "name": "success",
          "type": "bool"
        }
      ],
      "stateMutability": "nonpayable",
      "type": "function"
    },
    {
      "inputs": [],
      "name": "closer",
      "outputs": [
        {
          "internalType": "address",
          "name": "",
          "type": "address"
        }
      ],
      "stateMutability": "view",
      "type": "function"
    },
    {
      "inputs": [],
      "name": "escrowPeriod",
      "outputs": [
        {
          "internalType": "uint256",
          "name": "",
          "type": "uint256"
        }
      ],
      "stateMutability": "view",
      "type": "function"
    },
    {
      "inputs": [
        {
          "internalType": "address",
          "name": "",
          "type": "address"
        },
        {
          "internalType": "address",
          "name": "",
          "type": "address"
        }
      ],
      "name": "funderDeposits",
      "outputs": [
        {
          "internalType": "uint256",
          "name": "",
          "type": "uint256"
        }
      ],
      "stateMutability": "view",
      "type": "function"
    },
    {
      "inputs": [
        {
          "internalType": "address",
          "name": "",
          "type": "address"
        },
        {
          "internalType": "uint256",
          "name": "",
          "type": "uint256"
        }
      ],
      "name": "funderTokenAddresses",
      "outputs": [
        {
          "internalType": "address",
          "name": "",
          "type": "address"
        }
      ],
      "stateMutability": "view",
      "type": "function"
    },
    {
      "inputs": [],
      "name": "getBountyTokenAddresses",
      "outputs": [
        {
          "internalType": "address[]",
          "name": "",
          "type": "address[]"
        }
      ],
      "stateMutability": "view",
      "type": "function"
    },
    {
      "inputs": [
        {
          "internalType": "address",
          "name": "_tokenAddress",
          "type": "address"
        }
      ],
      "name": "getERC20Balance",
      "outputs": [
        {
          "internalType": "uint256",
          "name": "balance",
          "type": "uint256"
        }
      ],
      "stateMutability": "view",
      "type": "function"
    },
    {
      "inputs": [
        {
          "internalType": "address",
          "name": "_funder",
          "type": "address"
        }
      ],
      "name": "getFunderTokenAddresses",
      "outputs": [
        {
          "internalType": "address[]",
          "name": "",
          "type": "address[]"
        }
      ],
      "stateMutability": "view",
      "type": "function"
    },
    {
      "inputs": [
        {
          "internalType": "address",
          "name": "",
          "type": "address"
        }
      ],
      "name": "isAFunder",
      "outputs": [
        {
          "internalType": "bool",
          "name": "",
          "type": "bool"
        }
      ],
      "stateMutability": "view",
      "type": "function"
    },
    {
      "inputs": [],
      "name": "issuer",
      "outputs": [
        {
          "internalType": "address",
          "name": "",
          "type": "address"
        }
      ],
      "stateMutability": "view",
      "type": "function"
    },
    {
      "inputs": [],
      "name": "openQ",
      "outputs": [
        {
          "internalType": "address",
          "name": "",
          "type": "address"
        }
      ],
      "stateMutability": "view",
      "type": "function"
    },
    {
      "inputs": [],
      "name": "organization",
      "outputs": [
        {
          "internalType": "string",
          "name": "",
          "type": "string"
        }
      ],
      "stateMutability": "view",
      "type": "function"
    },
    {
      "inputs": [],
      "name": "owner",
      "outputs": [
        {
          "internalType": "address",
          "name": "",
          "type": "address"
        }
      ],
      "stateMutability": "view",
      "type": "function"
    },
    {
      "inputs": [
        {
          "internalType": "address",
          "name": "_funder",
          "type": "address"
        },
        {
          "internalType": "address",
          "name": "_tokenAddress",
          "type": "address"
        },
        {
          "internalType": "uint256",
          "name": "_volume",
          "type": "uint256"
        }
      ],
      "name": "receiveFunds",
      "outputs": [
        {
          "internalType": "bool",
          "name": "success",
          "type": "bool"
        }
      ],
      "stateMutability": "nonpayable",
      "type": "function"
    },
    {
      "inputs": [
        {
          "internalType": "address",
          "name": "_funder",
          "type": "address"
        },
        {
          "internalType": "address",
          "name": "_tokenAddress",
          "type": "address"
        }
      ],
      "name": "refundBountyDeposit",
      "outputs": [
        {
          "internalType": "bool",
          "name": "success",
          "type": "bool"
        }
      ],
      "stateMutability": "nonpayable",
      "type": "function"
    },
    {
      "inputs": [],
      "name": "renounceOwnership",
      "outputs": [],
      "stateMutability": "nonpayable",
      "type": "function"
    },
    {
      "inputs": [
        {
          "internalType": "address",
          "name": "_openQ",
          "type": "address"
        }
      ],
      "name": "setOpenQ",
      "outputs": [],
      "stateMutability": "nonpayable",
      "type": "function"
    },
    {
      "inputs": [],
      "name": "status",
      "outputs": [
        {
          "internalType": "enum Bounty.BountyStatus",
          "name": "",
          "type": "uint8"
        }
      ],
      "stateMutability": "view",
      "type": "function"
    },
    {
      "inputs": [
        {
          "internalType": "address",
          "name": "newOwner",
          "type": "address"
        }
      ],
      "name": "transferOwnership",
      "outputs": [],
      "stateMutability": "nonpayable",
      "type": "function"
    }
  ],
  "bytecode": "0x60806040524260075562278d006009553480156200001c57600080fd5b5060405162002b5538038062002b5583398181016040528101906200004291906200059d565b82828262000065620000596200012360201b60201c565b6200012b60201b60201c565b82600690805190602001906200007d929190620002eb565b506000600c60146101000a81548160ff02191690836001811115620000a757620000a662000637565b5b021790555081600a60006101000a81548173ffffffffffffffffffffffffffffffffffffffff021916908373ffffffffffffffffffffffffffffffffffffffff16021790555080600b908051906020019062000105929190620002eb565b506200011733620001ef60201b60201c565b5050505050506200074e565b600033905090565b60008060009054906101000a900473ffffffffffffffffffffffffffffffffffffffff169050816000806101000a81548173ffffffffffffffffffffffffffffffffffffffff021916908373ffffffffffffffffffffffffffffffffffffffff1602179055508173ffffffffffffffffffffffffffffffffffffffff168173ffffffffffffffffffffffffffffffffffffffff167f8be0079c531659141344cd1fd0a4f28419497f9722a3daafe3b4186f6b6457e060405160405180910390a35050565b620001ff6200012360201b60201c565b73ffffffffffffffffffffffffffffffffffffffff1662000225620002c260201b60201c565b73ffffffffffffffffffffffffffffffffffffffff16146200027e576040517f08c379a00000000000000000000000000000000000000000000000000000000081526004016200027590620006c7565b60405180910390fd5b80600160006101000a81548173ffffffffffffffffffffffffffffffffffffffff021916908373ffffffffffffffffffffffffffffffffffffffff16021790555050565b60008060009054906101000a900473ffffffffffffffffffffffffffffffffffffffff16905090565b828054620002f99062000718565b90600052602060002090601f0160209004810192826200031d576000855562000369565b82601f106200033857805160ff191683800117855562000369565b8280016001018555821562000369579182015b82811115620003685782518255916020019190600101906200034b565b5b5090506200037891906200037c565b5090565b5b80821115620003975760008160009055506001016200037d565b5090565b6000604051905090565b600080fd5b600080fd5b600080fd5b600080fd5b6000601f19601f8301169050919050565b7f4e487b7100000000000000000000000000000000000000000000000000000000600052604160045260246000fd5b6200040482620003b9565b810181811067ffffffffffffffff82111715620004265762000425620003ca565b5b80604052505050565b60006200043b6200039b565b9050620004498282620003f9565b919050565b600067ffffffffffffffff8211156200046c576200046b620003ca565b5b6200047782620003b9565b9050602081019050919050565b60005b83811015620004a457808201518184015260208101905062000487565b83811115620004b4576000848401525b50505050565b6000620004d1620004cb846200044e565b6200042f565b905082815260208101848484011115620004f057620004ef620003b4565b5b620004fd84828562000484565b509392505050565b600082601f8301126200051d576200051c620003af565b5b81516200052f848260208601620004ba565b91505092915050565b600073ffffffffffffffffffffffffffffffffffffffff82169050919050565b6000620005658262000538565b9050919050565b620005778162000558565b81146200058357600080fd5b50565b60008151905062000597816200056c565b92915050565b600080600060608486031215620005b957620005b8620003a5565b5b600084015167ffffffffffffffff811115620005da57620005d9620003aa565b5b620005e88682870162000505565b9350506020620005fb8682870162000586565b925050604084015167ffffffffffffffff8111156200061f576200061e620003aa565b5b6200062d8682870162000505565b9150509250925092565b7f4e487b7100000000000000000000000000000000000000000000000000000000600052602160045260246000fd5b600082825260208201905092915050565b7f4f776e61626c653a2063616c6c6572206973206e6f7420746865206f776e6572600082015250565b6000620006af60208362000666565b9150620006bc8262000677565b602082019050919050565b60006020820190508181036000830152620006e281620006a0565b9050919050565b7f4e487b7100000000000000000000000000000000000000000000000000000000600052602260045260246000fd5b600060028204905060018216806200073157607f821691505b60208210811415620007485762000747620006e9565b5b50919050565b6123f7806200075e6000396000f3fe608060405234801561001057600080fd5b506004361061015c5760003560e01c8063995280b0116100c3578063df9229f01161007c578063df9229f0146103fa578063ec05635c1461042a578063f16b51c11461045a578063f2fde38b14610478578063fc5d2cf414610494578063fdf993a8146104b25761015d565b8063995280b014610310578063b0100cf71461032e578063b588d2251461035e578063b9df819f1461038e578063c17bd75e146103be578063cb4436b7146103dc5761015d565b80634b8022b2116101155780634b8022b21461024c5780636216753b1461027c5780637044f282146102ac578063715018a6146102ca5780637dc81fa2146102d45780638da5cb5b146102f25761015d565b80631bef5505146101625780631d14384814610192578063200d2ed2146101b057806321c0b342146101ce57806323bd4d7a146101fe57806329ffef151461021c5761015d565b5b600080fd5b61017c60048036038101906101779190611878565b6104ce565b6040516101899190611963565b60405180910390f35b61019a61059b565b6040516101a79190611994565b60405180910390f35b6101b86105c1565b6040516101c59190611a26565b60405180910390f35b6101e860048036038101906101e39190611a41565b6105d4565b6040516101f59190611a9c565b60405180910390f35b61020661076d565b6040516102139190611b50565b60405180910390f35b61023660048036038101906102319190611a41565b6107fb565b6040516102439190611a9c565b60405180910390f35b61026660048036038101906102619190611ba8565b610a2d565b6040516102739190611994565b60405180910390f35b61029660048036038101906102919190611a41565b610a7b565b6040516102a39190611bf7565b60405180910390f35b6102b4610aa0565b6040516102c19190611994565b60405180910390f35b6102d2610ac6565b005b6102dc610b4e565b6040516102e99190611994565b60405180910390f35b6102fa610b74565b6040516103079190611994565b60405180910390f35b610318610b9d565b6040516103259190611bf7565b60405180910390f35b61034860048036038101906103439190611878565b610ba3565b6040516103559190611a9c565b60405180910390f35b61037860048036038101906103739190611878565b610bc3565b6040516103859190611bf7565b60405180910390f35b6103a860048036038101906103a39190611c12565b610c5a565b6040516103b59190611a9c565b60405180910390f35b6103c6610fc9565b6040516103d39190611b50565b60405180910390f35b6103e4611057565b6040516103f19190611bf7565b60405180910390f35b610414600480360381019061040f9190611c65565b61105d565b6040516104219190611994565b60405180910390f35b610444600480360381019061043f9190611878565b61109c565b6040516104519190611a9c565b60405180910390f35b61046261128e565b60405161046f9190611bf7565b60405180910390f35b610492600480360381019061048d9190611878565b611294565b005b61049c61138c565b6040516104a99190611963565b60405180910390f35b6104cc60048036038101906104c79190611878565b61141a565b005b6060600360008373ffffffffffffffffffffffffffffffffffffffff1673ffffffffffffffffffffffffffffffffffffffff16815260200190815260200160002080548060200260200160405190810160405280929190818152602001828054801561058f57602002820191906000526020600020905b8160009054906101000a900473ffffffffffffffffffffffffffffffffffffffff1673ffffffffffffffffffffffffffffffffffffffff1681526020019060010190808311610545575b50505050509050919050565b600a60009054906101000a900473ffffffffffffffffffffffffffffffffffffffff1681565b600c60149054906101000a900460ff1681565b6000600160009054906101000a900473ffffffffffffffffffffffffffffffffffffffff1673ffffffffffffffffffffffffffffffffffffffff163373ffffffffffffffffffffffffffffffffffffffff1614610666576040517f08c379a000000000000000000000000000000000000000000000000000000000815260040161065d90611d04565b60405180910390fd5b6000600181111561067a576106796119af565b5b3073ffffffffffffffffffffffffffffffffffffffff1663200d2ed26040518163ffffffff1660e01b815260040160206040518083038186803b1580156106c057600080fd5b505afa1580156106d4573d6000803e3d6000fd5b505050506040513d601f19601f820116820180604052508101906106f89190611d49565b600181111561070a576107096119af565b5b1461074a576040517f08c379a000000000000000000000000000000000000000000000000000000000815260040161074190611de8565b60405180910390fd5b600061075583610bc3565b90506107628385836114da565b600191505092915050565b600b805461077a90611e37565b80601f01602080910402602001604051908101604052809291908181526020018280546107a690611e37565b80156107f35780601f106107c8576101008083540402835291602001916107f3565b820191906000526020600020905b8154815290600101906020018083116107d657829003601f168201915b505050505081565b6000600160009054906101000a900473ffffffffffffffffffffffffffffffffffffffff1673ffffffffffffffffffffffffffffffffffffffff163373ffffffffffffffffffffffffffffffffffffffff161461088d576040517f08c379a000000000000000000000000000000000000000000000000000000000815260040161088490611d04565b60405180910390fd5b6109148284600460008773ffffffffffffffffffffffffffffffffffffffff1673ffffffffffffffffffffffffffffffffffffffff16815260200190815260200160002060008673ffffffffffffffffffffffffffffffffffffffff1673ffffffffffffffffffffffffffffffffffffffff168152602001908152602001600020546114da565b600460008473ffffffffffffffffffffffffffffffffffffffff1673ffffffffffffffffffffffffffffffffffffffff16815260200190815260200160002060008373ffffffffffffffffffffffffffffffffffffffff1673ffffffffffffffffffffffffffffffffffffffff16815260200190815260200160002054600460008573ffffffffffffffffffffffffffffffffffffffff1673ffffffffffffffffffffffffffffffffffffffff16815260200190815260200160002060008473ffffffffffffffffffffffffffffffffffffffff1673ffffffffffffffffffffffffffffffffffffffff1681526020019081526020016000206000828254610a1c9190611e98565b925050819055506001905092915050565b60036020528160005260406000208181548110610a4957600080fd5b906000526020600020016000915091509054906101000a900473ffffffffffffffffffffffffffffffffffffffff1681565b6004602052816000526040600020602052806000526040600020600091509150505481565b600c60009054906101000a900473ffffffffffffffffffffffffffffffffffffffff1681565b610ace611610565b73ffffffffffffffffffffffffffffffffffffffff16610aec610b74565b73ffffffffffffffffffffffffffffffffffffffff1614610b42576040517f08c379a0000000000000000000000000000000000000000000000000000000008152600401610b3990611f18565b60405180910390fd5b610b4c6000611618565b565b600160009054906101000a900473ffffffffffffffffffffffffffffffffffffffff1681565b60008060009054906101000a900473ffffffffffffffffffffffffffffffffffffffff16905090565b60075481565b60056020528060005260406000206000915054906101000a900460ff1681565b6000808290508073ffffffffffffffffffffffffffffffffffffffff166370a08231306040518263ffffffff1660e01b8152600401610c029190611994565b60206040518083038186803b158015610c1a57600080fd5b505afa158015610c2e573d6000803e3d6000fd5b505050506040513d601f19601f82011682018060405250810190610c529190611f4d565b915050919050565b6000600160009054906101000a900473ffffffffffffffffffffffffffffffffffffffff1673ffffffffffffffffffffffffffffffffffffffff163373ffffffffffffffffffffffffffffffffffffffff1614610cec576040517f08c379a0000000000000000000000000000000000000000000000000000000008152600401610ce390611d04565b60405180910390fd5b6000821415610d30576040517f08c379a0000000000000000000000000000000000000000000000000000000008152600401610d2790611fec565b60405180910390fd5b6000610d3b84610bc3565b1415610da5576002839080600181540180825580915050600190039060005260206000200160009091909190916101000a81548173ffffffffffffffffffffffffffffffffffffffff021916908373ffffffffffffffffffffffffffffffffffffffff1602179055505b610db1838530856116dc565b6001600560008673ffffffffffffffffffffffffffffffffffffffff1673ffffffffffffffffffffffffffffffffffffffff16815260200190815260200160002060006101000a81548160ff0219169083151502179055506000600460008673ffffffffffffffffffffffffffffffffffffffff1673ffffffffffffffffffffffffffffffffffffffff16815260200190815260200160002060008573ffffffffffffffffffffffffffffffffffffffff1673ffffffffffffffffffffffffffffffffffffffff168152602001908152602001600020541415610f2f57600360008573ffffffffffffffffffffffffffffffffffffffff1673ffffffffffffffffffffffffffffffffffffffff168152602001908152602001600020839080600181540180825580915050600190039060005260206000200160009091909190916101000a81548173ffffffffffffffffffffffffffffffffffffffff021916908373ffffffffffffffffffffffffffffffffffffffff1602179055505b81600460008673ffffffffffffffffffffffffffffffffffffffff1673ffffffffffffffffffffffffffffffffffffffff16815260200190815260200160002060008573ffffffffffffffffffffffffffffffffffffffff1673ffffffffffffffffffffffffffffffffffffffff1681526020019081526020016000206000828254610fbb919061200c565b925050819055509392505050565b60068054610fd690611e37565b80601f016020809104026020016040519081016040528092919081815260200182805461100290611e37565b801561104f5780601f106110245761010080835404028352916020019161104f565b820191906000526020600020905b81548152906001019060200180831161103257829003601f168201915b505050505081565b60085481565b6002818154811061106d57600080fd5b906000526020600020016000915054906101000a900473ffffffffffffffffffffffffffffffffffffffff1681565b6000600160009054906101000a900473ffffffffffffffffffffffffffffffffffffffff1673ffffffffffffffffffffffffffffffffffffffff163373ffffffffffffffffffffffffffffffffffffffff161461112e576040517f08c379a000000000000000000000000000000000000000000000000000000000815260040161112590611d04565b60405180910390fd5b60006001811115611142576111416119af565b5b3073ffffffffffffffffffffffffffffffffffffffff1663200d2ed26040518163ffffffff1660e01b815260040160206040518083038186803b15801561118857600080fd5b505afa15801561119c573d6000803e3d6000fd5b505050506040513d601f19601f820116820180604052508101906111c09190611d49565b60018111156111d2576111d16119af565b5b14611212576040517f08c379a0000000000000000000000000000000000000000000000000000000008152600401611209906120d4565b60405180910390fd5b6001600c60146101000a81548160ff02191690836001811115611238576112376119af565b5b021790555081600c60006101000a81548173ffffffffffffffffffffffffffffffffffffffff021916908373ffffffffffffffffffffffffffffffffffffffff1602179055504260088190555060019050919050565b60095481565b61129c611610565b73ffffffffffffffffffffffffffffffffffffffff166112ba610b74565b73ffffffffffffffffffffffffffffffffffffffff1614611310576040517f08c379a000000000000000000000000000000000000000000000000000000000815260040161130790611f18565b60405180910390fd5b600073ffffffffffffffffffffffffffffffffffffffff168173ffffffffffffffffffffffffffffffffffffffff161415611380576040517f08c379a000000000000000000000000000000000000000000000000000000000815260040161137790612166565b60405180910390fd5b61138981611618565b50565b6060600280548060200260200160405190810160405280929190818152602001828054801561141057602002820191906000526020600020905b8160009054906101000a900473ffffffffffffffffffffffffffffffffffffffff1673ffffffffffffffffffffffffffffffffffffffff16815260200190600101908083116113c6575b5050505050905090565b611422611610565b73ffffffffffffffffffffffffffffffffffffffff16611440610b74565b73ffffffffffffffffffffffffffffffffffffffff1614611496576040517f08c379a000000000000000000000000000000000000000000000000000000000815260040161148d90611f18565b60405180910390fd5b80600160006101000a81548173ffffffffffffffffffffffffffffffffffffffff021916908373ffffffffffffffffffffffffffffffffffffffff16021790555050565b6000808473ffffffffffffffffffffffffffffffffffffffff1663a9059cbb858560405160240161150c929190612186565b6040516020818303038152906040529060e01b6020820180517bffffffffffffffffffffffffffffffffffffffffffffffffffffffff838183161783525050505060405161155a91906121f6565b6000604051808303816000865af19150503d8060008114611597576040519150601f19603f3d011682016040523d82523d6000602084013e61159c565b606091505b50915091508180156115ca57506000815114806115c95750808060200190518101906115c89190612239565b5b5b611609576040517f08c379a0000000000000000000000000000000000000000000000000000000008152600401611600906122d8565b60405180910390fd5b5050505050565b600033905090565b60008060009054906101000a900473ffffffffffffffffffffffffffffffffffffffff169050816000806101000a81548173ffffffffffffffffffffffffffffffffffffffff021916908373ffffffffffffffffffffffffffffffffffffffff1602179055508173ffffffffffffffffffffffffffffffffffffffff168173ffffffffffffffffffffffffffffffffffffffff167f8be0079c531659141344cd1fd0a4f28419497f9722a3daafe3b4186f6b6457e060405160405180910390a35050565b6000808573ffffffffffffffffffffffffffffffffffffffff166323b872dd868686604051602401611710939291906122f8565b6040516020818303038152906040529060e01b6020820180517bffffffffffffffffffffffffffffffffffffffffffffffffffffffff838183161783525050505060405161175e91906121f6565b6000604051808303816000865af19150503d806000811461179b576040519150601f19603f3d011682016040523d82523d6000602084013e6117a0565b606091505b50915091508180156117ce57506000815114806117cd5750808060200190518101906117cc9190612239565b5b5b61180d576040517f08c379a0000000000000000000000000000000000000000000000000000000008152600401611804906123a1565b60405180910390fd5b505050505050565b600080fd5b600073ffffffffffffffffffffffffffffffffffffffff82169050919050565b60006118458261181a565b9050919050565b6118558161183a565b811461186057600080fd5b50565b6000813590506118728161184c565b92915050565b60006020828403121561188e5761188d611815565b5b600061189c84828501611863565b91505092915050565b600081519050919050565b600082825260208201905092915050565b6000819050602082019050919050565b6118da8161183a565b82525050565b60006118ec83836118d1565b60208301905092915050565b6000602082019050919050565b6000611910826118a5565b61191a81856118b0565b9350611925836118c1565b8060005b8381101561195657815161193d88826118e0565b9750611948836118f8565b925050600181019050611929565b5085935050505092915050565b6000602082019050818103600083015261197d8184611905565b905092915050565b61198e8161183a565b82525050565b60006020820190506119a96000830184611985565b92915050565b7f4e487b7100000000000000000000000000000000000000000000000000000000600052602160045260246000fd5b600281106119ef576119ee6119af565b5b50565b6000819050611a00826119de565b919050565b6000611a10826119f2565b9050919050565b611a2081611a05565b82525050565b6000602082019050611a3b6000830184611a17565b92915050565b60008060408385031215611a5857611a57611815565b5b6000611a6685828601611863565b9250506020611a7785828601611863565b9150509250929050565b60008115159050919050565b611a9681611a81565b82525050565b6000602082019050611ab16000830184611a8d565b92915050565b600081519050919050565b600082825260208201905092915050565b60005b83811015611af1578082015181840152602081019050611ad6565b83811115611b00576000848401525b50505050565b6000601f19601f8301169050919050565b6000611b2282611ab7565b611b2c8185611ac2565b9350611b3c818560208601611ad3565b611b4581611b06565b840191505092915050565b60006020820190508181036000830152611b6a8184611b17565b905092915050565b6000819050919050565b611b8581611b72565b8114611b9057600080fd5b50565b600081359050611ba281611b7c565b92915050565b60008060408385031215611bbf57611bbe611815565b5b6000611bcd85828601611863565b9250506020611bde85828601611b93565b9150509250929050565b611bf181611b72565b82525050565b6000602082019050611c0c6000830184611be8565b92915050565b600080600060608486031215611c2b57611c2a611815565b5b6000611c3986828701611863565b9350506020611c4a86828701611863565b9250506040611c5b86828701611b93565b9150509250925092565b600060208284031215611c7b57611c7a611815565b5b6000611c8984828501611b93565b91505092915050565b7f4f6e6c79207468652063757272656e74204f70656e512076657273696f6e206360008201527f616e2075736520746869732066756e6374696f6e000000000000000000000000602082015250565b6000611cee603483611ac2565b9150611cf982611c92565b604082019050919050565b60006020820190508181036000830152611d1d81611ce1565b9050919050565b60028110611d3157600080fd5b50565b600081519050611d4381611d24565b92915050565b600060208284031215611d5f57611d5e611815565b5b6000611d6d84828501611d34565b91505092915050565b7f5468697320697320626f756e747920697320636c6f7365642e2043616e6e6f7460008201527f20776974686472617720616761696e2e00000000000000000000000000000000602082015250565b6000611dd2603083611ac2565b9150611ddd82611d76565b604082019050919050565b60006020820190508181036000830152611e0181611dc5565b9050919050565b7f4e487b7100000000000000000000000000000000000000000000000000000000600052602260045260246000fd5b60006002820490506001821680611e4f57607f821691505b60208210811415611e6357611e62611e08565b5b50919050565b7f4e487b7100000000000000000000000000000000000000000000000000000000600052601160045260246000fd5b6000611ea382611b72565b9150611eae83611b72565b925082821015611ec157611ec0611e69565b5b828203905092915050565b7f4f776e61626c653a2063616c6c6572206973206e6f7420746865206f776e6572600082015250565b6000611f02602083611ac2565b9150611f0d82611ecc565b602082019050919050565b60006020820190508181036000830152611f3181611ef5565b9050919050565b600081519050611f4781611b7c565b92915050565b600060208284031215611f6357611f62611815565b5b6000611f7184828501611f38565b91505092915050565b7f4d7573742073656e642061206e6f6e2d7a65726f20766f6c756d65206f66207460008201527f6f6b656e732e0000000000000000000000000000000000000000000000000000602082015250565b6000611fd6602683611ac2565b9150611fe182611f7a565b604082019050919050565b6000602082019050818103600083015261200581611fc9565b9050919050565b600061201782611b72565b915061202283611b72565b9250827fffffffffffffffffffffffffffffffffffffffffffffffffffffffffffffffff0382111561205757612056611e69565b5b828201905092915050565b7f5468697320697320626f756e747920697320616c726561647920636c6f73656460008201527f2e2043616e6e6f7420636c6f736520616761696e2e0000000000000000000000602082015250565b60006120be603583611ac2565b91506120c982612062565b604082019050919050565b600060208201905081810360008301526120ed816120b1565b9050919050565b7f4f776e61626c653a206e6577206f776e657220697320746865207a65726f206160008201527f6464726573730000000000000000000000000000000000000000000000000000602082015250565b6000612150602683611ac2565b915061215b826120f4565b604082019050919050565b6000602082019050818103600083015261217f81612143565b9050919050565b600060408201905061219b6000830185611985565b6121a86020830184611be8565b9392505050565b600081519050919050565b600081905092915050565b60006121d0826121af565b6121da81856121ba565b93506121ea818560208601611ad3565b80840191505092915050565b600061220282846121c5565b915081905092915050565b61221681611a81565b811461222157600080fd5b50565b6000815190506122338161220d565b92915050565b60006020828403121561224f5761224e611815565b5b600061225d84828501612224565b91505092915050565b7f5472616e7366657248656c7065723a3a736166655472616e736665723a20747260008201527f616e73666572206661696c656400000000000000000000000000000000000000602082015250565b60006122c2602d83611ac2565b91506122cd82612266565b604082019050919050565b600060208201905081810360008301526122f1816122b5565b9050919050565b600060608201905061230d6000830186611985565b61231a6020830185611985565b6123276040830184611be8565b949350505050565b7f5472616e7366657248656c7065723a3a7472616e7366657246726f6d3a20747260008201527f616e7366657246726f6d206661696c6564000000000000000000000000000000602082015250565b600061238b603183611ac2565b91506123968261232f565b604082019050919050565b600060208201905081810360008301526123ba8161237e565b905091905056fea2646970667358221220d949870f5e8539f6495beb94f2b3fef5cf6dcf6ce6506a793762b3b5df57366d64736f6c63430008080033",
  "linkReferences": {},
  "deployedLinkReferences": {}
}