{
  "_format": "hh-sol-artifact-1",
  "contractName": "Issue",
  "sourceName": "contracts/Issue.sol",
  "abi": [
    {
      "inputs": [
        {
          "internalType": "string",
          "name": "_id",
          "type": "string"
        },
        {
          "internalType": "address",
          "name": "_issuer",
          "type": "address"
        },
        {
          "internalType": "address[]",
          "name": "_tokenAddresses",
          "type": "address[]"
        }
      ],
      "stateMutability": "nonpayable",
      "type": "constructor"
    },
    {
      "anonymous": false,
      "inputs": [
        {
          "indexed": true,
          "internalType": "address",
          "name": "previousOwner",
          "type": "address"
        },
        {
          "indexed": true,
          "internalType": "address",
          "name": "newOwner",
          "type": "address"
        }
      ],
      "name": "OwnershipTransferred",
      "type": "event"
    },
    {
      "inputs": [],
      "name": "closer",
      "outputs": [
        {
          "internalType": "address",
          "name": "",
          "type": "address"
        }
      ],
      "stateMutability": "view",
      "type": "function"
    },
    {
      "inputs": [],
      "name": "escrowPeriod",
      "outputs": [
        {
          "internalType": "uint256",
          "name": "",
          "type": "uint256"
        }
      ],
      "stateMutability": "view",
      "type": "function"
    },
    {
      "inputs": [
        {
          "internalType": "address",
          "name": "",
          "type": "address"
        },
        {
          "internalType": "address",
          "name": "",
          "type": "address"
        }
      ],
      "name": "funders",
      "outputs": [
        {
          "internalType": "uint256",
          "name": "",
          "type": "uint256"
        }
      ],
      "stateMutability": "view",
      "type": "function"
    },
    {
      "inputs": [
        {
          "internalType": "address",
          "name": "",
          "type": "address"
        },
        {
          "internalType": "uint256",
          "name": "",
          "type": "uint256"
        }
      ],
      "name": "fundersTokenAddresses",
      "outputs": [
        {
          "internalType": "address",
          "name": "",
          "type": "address"
        }
      ],
      "stateMutability": "view",
      "type": "function"
    },
    {
      "inputs": [
        {
          "internalType": "address",
          "name": "_tokenAddress",
          "type": "address"
        }
      ],
      "name": "getERC20Balance",
      "outputs": [
        {
          "internalType": "uint256",
          "name": "balance",
          "type": "uint256"
        }
      ],
      "stateMutability": "view",
      "type": "function"
    },
    {
      "inputs": [
        {
          "internalType": "address",
          "name": "_funder",
          "type": "address"
        }
      ],
      "name": "getFundersTokenAddresses",
      "outputs": [
        {
          "internalType": "address[]",
          "name": "",
          "type": "address[]"
        }
      ],
      "stateMutability": "view",
      "type": "function"
    },
    {
      "inputs": [
        {
          "internalType": "address",
          "name": "",
          "type": "address"
        }
      ],
      "name": "isAFunder",
      "outputs": [
        {
          "internalType": "bool",
          "name": "",
          "type": "bool"
        }
      ],
      "stateMutability": "view",
      "type": "function"
    },
    {
      "inputs": [],
      "name": "issueId",
      "outputs": [
        {
          "internalType": "string",
          "name": "",
          "type": "string"
        }
      ],
      "stateMutability": "view",
      "type": "function"
    },
    {
      "inputs": [],
      "name": "issueTime",
      "outputs": [
        {
          "internalType": "uint256",
          "name": "",
          "type": "uint256"
        }
      ],
      "stateMutability": "view",
      "type": "function"
    },
    {
      "inputs": [],
      "name": "issuer",
      "outputs": [
        {
          "internalType": "address",
          "name": "",
          "type": "address"
        }
      ],
      "stateMutability": "view",
      "type": "function"
    },
    {
      "inputs": [],
      "name": "owner",
      "outputs": [
        {
          "internalType": "address",
          "name": "",
          "type": "address"
        }
      ],
      "stateMutability": "view",
      "type": "function"
    },
    {
      "inputs": [
        {
          "internalType": "address",
          "name": "_funder",
          "type": "address"
        },
        {
          "internalType": "address",
          "name": "_tokenAddress",
          "type": "address"
        },
        {
          "internalType": "uint256",
          "name": "_value",
          "type": "uint256"
        }
      ],
      "name": "receiveFunds",
      "outputs": [
        {
          "internalType": "bool",
          "name": "success",
          "type": "bool"
        }
      ],
      "stateMutability": "nonpayable",
      "type": "function"
    },
    {
      "inputs": [
        {
          "internalType": "address",
          "name": "_funder",
          "type": "address"
        },
        {
          "internalType": "address",
          "name": "_tokenAddress",
          "type": "address"
        }
      ],
      "name": "refundBountyDeposit",
      "outputs": [
        {
          "internalType": "bool",
          "name": "success",
          "type": "bool"
        }
      ],
      "stateMutability": "nonpayable",
      "type": "function"
    },
    {
      "inputs": [],
      "name": "renounceOwnership",
      "outputs": [],
      "stateMutability": "nonpayable",
      "type": "function"
    },
    {
      "inputs": [],
      "name": "status",
      "outputs": [
        {
          "internalType": "enum Issue.IssueStatus",
          "name": "",
          "type": "uint8"
        }
      ],
      "stateMutability": "view",
      "type": "function"
    },
    {
      "inputs": [
        {
          "internalType": "uint256",
          "name": "",
          "type": "uint256"
        }
      ],
      "name": "tokenAddresses",
      "outputs": [
        {
          "internalType": "address",
          "name": "",
          "type": "address"
        }
      ],
      "stateMutability": "view",
      "type": "function"
    },
    {
      "inputs": [
        {
          "internalType": "address",
          "name": "_payoutAddress",
          "type": "address"
        }
      ],
      "name": "transferAllERC20",
      "outputs": [],
      "stateMutability": "nonpayable",
      "type": "function"
    },
    {
      "inputs": [
        {
          "internalType": "address",
          "name": "newOwner",
          "type": "address"
        }
      ],
      "name": "transferOwnership",
      "outputs": [],
      "stateMutability": "nonpayable",
      "type": "function"
    }
  ],
  "bytecode": "0x608060405262278d006005553480156200001857600080fd5b50604051620024943803806200249483398181016040528101906200003e919062000469565b6200005e620000526200013360201b60201c565b6200013b60201b60201c565b826007908051906020019062000076929190620001ff565b5080600990805190602001906200008f92919062000290565b506000600a60006101000a81548160ff02191690836001811115620000dd577f4e487b7100000000000000000000000000000000000000000000000000000000600052602160045260246000fd5b021790555081600660006101000a81548173ffffffffffffffffffffffffffffffffffffffff021916908373ffffffffffffffffffffffffffffffffffffffff16021790555042600481905550505050620006de565b600033905090565b60008060009054906101000a900473ffffffffffffffffffffffffffffffffffffffff169050816000806101000a81548173ffffffffffffffffffffffffffffffffffffffff021916908373ffffffffffffffffffffffffffffffffffffffff1602179055508173ffffffffffffffffffffffffffffffffffffffff168173ffffffffffffffffffffffffffffffffffffffff167f8be0079c531659141344cd1fd0a4f28419497f9722a3daafe3b4186f6b6457e060405160405180910390a35050565b8280546200020d90620005e9565b90600052602060002090601f0160209004810192826200023157600085556200027d565b82601f106200024c57805160ff19168380011785556200027d565b828001600101855582156200027d579182015b828111156200027c5782518255916020019190600101906200025f565b5b5090506200028c91906200031f565b5090565b8280548282559060005260206000209081019282156200030c579160200282015b828111156200030b5782518260006101000a81548173ffffffffffffffffffffffffffffffffffffffff021916908373ffffffffffffffffffffffffffffffffffffffff16021790555091602001919060010190620002b1565b5b5090506200031b91906200031f565b5090565b5b808211156200033a57600081600090555060010162000320565b5090565b6000620003556200034f846200051a565b620004f1565b905080838252602082019050828560208602820111156200037557600080fd5b60005b85811015620003a957816200038e8882620003f8565b84526020840193506020830192505060018101905062000378565b5050509392505050565b6000620003ca620003c48462000549565b620004f1565b905082815260208101848484011115620003e357600080fd5b620003f0848285620005b3565b509392505050565b6000815190506200040981620006c4565b92915050565b600082601f8301126200042157600080fd5b8151620004338482602086016200033e565b91505092915050565b600082601f8301126200044e57600080fd5b815162000460848260208601620003b3565b91505092915050565b6000806000606084860312156200047f57600080fd5b600084015167ffffffffffffffff8111156200049a57600080fd5b620004a8868287016200043c565b9350506020620004bb86828701620003f8565b925050604084015167ffffffffffffffff811115620004d957600080fd5b620004e7868287016200040f565b9150509250925092565b6000620004fd62000510565b90506200050b82826200061f565b919050565b6000604051905090565b600067ffffffffffffffff82111562000538576200053762000684565b5b602082029050602081019050919050565b600067ffffffffffffffff82111562000567576200056662000684565b5b6200057282620006b3565b9050602081019050919050565b60006200058c8262000593565b9050919050565b600073ffffffffffffffffffffffffffffffffffffffff82169050919050565b60005b83811015620005d3578082015181840152602081019050620005b6565b83811115620005e3576000848401525b50505050565b600060028204905060018216806200060257607f821691505b6020821081141562000619576200061862000655565b5b50919050565b6200062a82620006b3565b810181811067ffffffffffffffff821117156200064c576200064b62000684565b5b80604052505050565b7f4e487b7100000000000000000000000000000000000000000000000000000000600052602260045260246000fd5b7f4e487b7100000000000000000000000000000000000000000000000000000000600052604160045260246000fd5b6000601f19601f8301169050919050565b620006cf816200057f565b8114620006db57600080fd5b50565b611da680620006ee6000396000f3fe608060405234801561001057600080fd5b50600436106101165760003560e01c8063b0100cf7116100a2578063c165feaa11610071578063c165feaa146102f7578063df07b60e14610327578063e5df8b8414610345578063f16b51c114610375578063f2fde38b1461039357610116565b8063b0100cf714610237578063b588d22514610267578063b9df819f14610297578063bf4ec549146102c757610116565b80637044f282116100e95780637044f282146101a5578063715018a6146101c357806389f30230146101cd5780638da5cb5b146101fd5780639375dd901461021b57610116565b80631d1438481461011b578063200d2ed21461013957806329ffef151461015757806332710c6e14610187575b600080fd5b6101236103af565b604051610130919061172f565b60405180910390f35b6101416103d5565b60405161014e91906117e7565b60405180910390f35b610171600480360381019061016c91906113b0565b6103e8565b60405161017e91906117cc565b60405180910390f35b61018f6104f7565b60405161019c9190611802565b60405180910390f35b6101ad610585565b6040516101ba919061172f565b60405180910390f35b6101cb6105ab565b005b6101e760048036038101906101e291906113b0565b610633565b6040516101f491906118e4565b60405180910390f35b610205610658565b604051610212919061172f565b60405180910390f35b61023560048036038101906102309190611387565b610681565b005b610251600480360381019061024c9190611387565b610a66565b60405161025e91906117cc565b60405180910390f35b610281600480360381019061027c9190611387565b610a86565b60405161028e91906118e4565b60405180910390f35b6102b160048036038101906102ac91906113ec565b610b1d565b6040516102be91906117cc565b60405180910390f35b6102e160048036038101906102dc9190611387565b610d85565b6040516102ee91906117aa565b60405180910390f35b610311600480360381019061030c919061143b565b610e52565b60405161031e919061172f565b60405180910390f35b61032f610ea0565b60405161033c91906118e4565b60405180910390f35b61035f600480360381019061035a91906114c9565b610ea6565b60405161036c919061172f565b60405180910390f35b61037d610ee5565b60405161038a91906118e4565b60405180910390f35b6103ad60048036038101906103a89190611387565b610eeb565b005b600660009054906101000a900473ffffffffffffffffffffffffffffffffffffffff1681565b600a60009054906101000a900460ff1681565b60006103f2610fe3565b73ffffffffffffffffffffffffffffffffffffffff16610410610658565b73ffffffffffffffffffffffffffffffffffffffff1614610466576040517f08c379a000000000000000000000000000000000000000000000000000000000815260040161045d906118a4565b60405180910390fd5b6104ed8284600360008773ffffffffffffffffffffffffffffffffffffffff1673ffffffffffffffffffffffffffffffffffffffff16815260200190815260200160002060008673ffffffffffffffffffffffffffffffffffffffff1673ffffffffffffffffffffffffffffffffffffffff16815260200190815260200160002054610feb565b6001905092915050565b6007805461050490611a60565b80601f016020809104026020016040519081016040528092919081815260200182805461053090611a60565b801561057d5780601f106105525761010080835404028352916020019161057d565b820191906000526020600020905b81548152906001019060200180831161056057829003601f168201915b505050505081565b600860009054906101000a900473ffffffffffffffffffffffffffffffffffffffff1681565b6105b3610fe3565b73ffffffffffffffffffffffffffffffffffffffff166105d1610658565b73ffffffffffffffffffffffffffffffffffffffff1614610627576040517f08c379a000000000000000000000000000000000000000000000000000000000815260040161061e906118a4565b60405180910390fd5b6106316000611121565b565b6003602052816000526040600020602052806000526040600020600091509150505481565b60008060009054906101000a900473ffffffffffffffffffffffffffffffffffffffff16905090565b610689610fe3565b73ffffffffffffffffffffffffffffffffffffffff166106a7610658565b73ffffffffffffffffffffffffffffffffffffffff16146106fd576040517f08c379a00000000000000000000000000000000000000000000000000000000081526004016106f4906118a4565b60405180910390fd5b60006001811115610737577f4e487b7100000000000000000000000000000000000000000000000000000000600052602160045260246000fd5b3073ffffffffffffffffffffffffffffffffffffffff1663200d2ed26040518163ffffffff1660e01b815260040160206040518083038186803b15801561077d57600080fd5b505afa158015610791573d6000803e3d6000fd5b505050506040513d601f19601f820116820180604052508101906107b591906114a0565b60018111156107ed577f4e487b7100000000000000000000000000000000000000000000000000000000600052602160045260246000fd5b1461082d576040517f08c379a000000000000000000000000000000000000000000000000000000000815260040161082490611864565b60405180910390fd5b60005b6009805490508110156109d057600060098281548110610879577f4e487b7100000000000000000000000000000000000000000000000000000000600052603260045260246000fd5b9060005260206000200160009054906101000a900473ffffffffffffffffffffffffffffffffffffffff1690508073ffffffffffffffffffffffffffffffffffffffff1663a9059cbb848373ffffffffffffffffffffffffffffffffffffffff166370a08231306040518263ffffffff1660e01b81526004016108fc919061172f565b60206040518083038186803b15801561091457600080fd5b505afa158015610928573d6000803e3d6000fd5b505050506040513d601f19601f8201168201806040525081019061094c91906114f2565b6040518363ffffffff1660e01b8152600401610969929190611781565b602060405180830381600087803b15801561098357600080fd5b505af1158015610997573d6000803e3d6000fd5b505050506040513d601f19601f820116820180604052508101906109bb9190611477565b505080806109c890611a92565b915050610830565b506001600a60006101000a81548160ff02191690836001811115610a1d577f4e487b7100000000000000000000000000000000000000000000000000000000600052602160045260246000fd5b021790555080600860006101000a81548173ffffffffffffffffffffffffffffffffffffffff021916908373ffffffffffffffffffffffffffffffffffffffff16021790555050565b60016020528060005260406000206000915054906101000a900460ff1681565b6000808290508073ffffffffffffffffffffffffffffffffffffffff166370a08231306040518263ffffffff1660e01b8152600401610ac5919061172f565b60206040518083038186803b158015610add57600080fd5b505afa158015610af1573d6000803e3d6000fd5b505050506040513d601f19601f82011682018060405250810190610b1591906114f2565b915050919050565b600080821415610b62576040517f08c379a0000000000000000000000000000000000000000000000000000000008152600401610b5990611884565b60405180910390fd5b60018060008673ffffffffffffffffffffffffffffffffffffffff1673ffffffffffffffffffffffffffffffffffffffff16815260200190815260200160002060006101000a81548160ff021916908315150217905550610bc5838530856111e5565b6000600360008673ffffffffffffffffffffffffffffffffffffffff1673ffffffffffffffffffffffffffffffffffffffff16815260200190815260200160002060008573ffffffffffffffffffffffffffffffffffffffff1673ffffffffffffffffffffffffffffffffffffffff168152602001908152602001600020541415610ceb57600260008573ffffffffffffffffffffffffffffffffffffffff1673ffffffffffffffffffffffffffffffffffffffff168152602001908152602001600020839080600181540180825580915050600190039060005260206000200160009091909190916101000a81548173ffffffffffffffffffffffffffffffffffffffff021916908373ffffffffffffffffffffffffffffffffffffffff1602179055505b81600360008673ffffffffffffffffffffffffffffffffffffffff1673ffffffffffffffffffffffffffffffffffffffff16815260200190815260200160002060008573ffffffffffffffffffffffffffffffffffffffff1673ffffffffffffffffffffffffffffffffffffffff1681526020019081526020016000206000828254610d77919061196a565b925050819055509392505050565b6060600260008373ffffffffffffffffffffffffffffffffffffffff1673ffffffffffffffffffffffffffffffffffffffff168152602001908152602001600020805480602002602001604051908101604052809291908181526020018280548015610e4657602002820191906000526020600020905b8160009054906101000a900473ffffffffffffffffffffffffffffffffffffffff1673ffffffffffffffffffffffffffffffffffffffff1681526020019060010190808311610dfc575b50505050509050919050565b60026020528160005260406000208181548110610e6e57600080fd5b906000526020600020016000915091509054906101000a900473ffffffffffffffffffffffffffffffffffffffff1681565b60045481565b60098181548110610eb657600080fd5b906000526020600020016000915054906101000a900473ffffffffffffffffffffffffffffffffffffffff1681565b60055481565b610ef3610fe3565b73ffffffffffffffffffffffffffffffffffffffff16610f11610658565b73ffffffffffffffffffffffffffffffffffffffff1614610f67576040517f08c379a0000000000000000000000000000000000000000000000000000000008152600401610f5e906118a4565b60405180910390fd5b600073ffffffffffffffffffffffffffffffffffffffff168173ffffffffffffffffffffffffffffffffffffffff161415610fd7576040517f08c379a0000000000000000000000000000000000000000000000000000000008152600401610fce90611824565b60405180910390fd5b610fe081611121565b50565b600033905090565b6000808473ffffffffffffffffffffffffffffffffffffffff1663a9059cbb858560405160240161101d929190611781565b6040516020818303038152906040529060e01b6020820180517bffffffffffffffffffffffffffffffffffffffffffffffffffffffff838183161783525050505060405161106b9190611718565b6000604051808303816000865af19150503d80600081146110a8576040519150601f19603f3d011682016040523d82523d6000602084013e6110ad565b606091505b50915091508180156110db57506000815114806110da5750808060200190518101906110d99190611477565b5b5b61111a576040517f08c379a0000000000000000000000000000000000000000000000000000000008152600401611111906118c4565b60405180910390fd5b5050505050565b60008060009054906101000a900473ffffffffffffffffffffffffffffffffffffffff169050816000806101000a81548173ffffffffffffffffffffffffffffffffffffffff021916908373ffffffffffffffffffffffffffffffffffffffff1602179055508173ffffffffffffffffffffffffffffffffffffffff168173ffffffffffffffffffffffffffffffffffffffff167f8be0079c531659141344cd1fd0a4f28419497f9722a3daafe3b4186f6b6457e060405160405180910390a35050565b6000808573ffffffffffffffffffffffffffffffffffffffff166323b872dd8686866040516024016112199392919061174a565b6040516020818303038152906040529060e01b6020820180517bffffffffffffffffffffffffffffffffffffffffffffffffffffffff83818316178352505050506040516112679190611718565b6000604051808303816000865af19150503d80600081146112a4576040519150601f19603f3d011682016040523d82523d6000602084013e6112a9565b606091505b50915091508180156112d757506000815114806112d65750808060200190518101906112d59190611477565b5b5b611316576040517f08c379a000000000000000000000000000000000000000000000000000000000815260040161130d90611844565b60405180910390fd5b505050505050565b60008135905061132d81611d1b565b92915050565b60008151905061134281611d32565b92915050565b60008151905061135781611d49565b92915050565b60008135905061136c81611d59565b92915050565b60008151905061138181611d59565b92915050565b60006020828403121561139957600080fd5b60006113a78482850161131e565b91505092915050565b600080604083850312156113c357600080fd5b60006113d18582860161131e565b92505060206113e28582860161131e565b9150509250929050565b60008060006060848603121561140157600080fd5b600061140f8682870161131e565b93505060206114208682870161131e565b92505060406114318682870161135d565b9150509250925092565b6000806040838503121561144e57600080fd5b600061145c8582860161131e565b925050602061146d8582860161135d565b9150509250929050565b60006020828403121561148957600080fd5b600061149784828501611333565b91505092915050565b6000602082840312156114b257600080fd5b60006114c084828501611348565b91505092915050565b6000602082840312156114db57600080fd5b60006114e98482850161135d565b91505092915050565b60006020828403121561150457600080fd5b600061151284828501611372565b91505092915050565b60006115278383611533565b60208301905092915050565b61153c816119c0565b82525050565b61154b816119c0565b82525050565b600061155c8261190f565b611566818561193d565b9350611571836118ff565b8060005b838110156115a2578151611589888261151b565b975061159483611930565b925050600181019050611575565b5085935050505092915050565b6115b8816119d2565b82525050565b60006115c98261191a565b6115d3818561194e565b93506115e3818560208601611a2d565b80840191505092915050565b6115f881611a1b565b82525050565b600061160982611925565b6116138185611959565b9350611623818560208601611a2d565b61162c81611b68565b840191505092915050565b6000611644602683611959565b915061164f82611b79565b604082019050919050565b6000611667603183611959565b915061167282611bc8565b604082019050919050565b600061168a602f83611959565b915061169582611c17565b604082019050919050565b60006116ad601483611959565b91506116b882611c66565b602082019050919050565b60006116d0602083611959565b91506116db82611c8f565b602082019050919050565b60006116f3602d83611959565b91506116fe82611cb8565b604082019050919050565b61171281611a11565b82525050565b600061172482846115be565b915081905092915050565b60006020820190506117446000830184611542565b92915050565b600060608201905061175f6000830186611542565b61176c6020830185611542565b6117796040830184611709565b949350505050565b60006040820190506117966000830185611542565b6117a36020830184611709565b9392505050565b600060208201905081810360008301526117c48184611551565b905092915050565b60006020820190506117e160008301846115af565b92915050565b60006020820190506117fc60008301846115ef565b92915050565b6000602082019050818103600083015261181c81846115fe565b905092915050565b6000602082019050818103600083015261183d81611637565b9050919050565b6000602082019050818103600083015261185d8161165a565b9050919050565b6000602082019050818103600083015261187d8161167d565b9050919050565b6000602082019050818103600083015261189d816116a0565b9050919050565b600060208201905081810360008301526118bd816116c3565b9050919050565b600060208201905081810360008301526118dd816116e6565b9050919050565b60006020820190506118f96000830184611709565b92915050565b6000819050602082019050919050565b600081519050919050565b600081519050919050565b600081519050919050565b6000602082019050919050565b600082825260208201905092915050565b600081905092915050565b600082825260208201905092915050565b600061197582611a11565b915061198083611a11565b9250827fffffffffffffffffffffffffffffffffffffffffffffffffffffffffffffffff038211156119b5576119b4611adb565b5b828201905092915050565b60006119cb826119f1565b9050919050565b60008115159050919050565b60008190506119ec82611d07565b919050565b600073ffffffffffffffffffffffffffffffffffffffff82169050919050565b6000819050919050565b6000611a26826119de565b9050919050565b60005b83811015611a4b578082015181840152602081019050611a30565b83811115611a5a576000848401525b50505050565b60006002820490506001821680611a7857607f821691505b60208210811415611a8c57611a8b611b39565b5b50919050565b6000611a9d82611a11565b91507fffffffffffffffffffffffffffffffffffffffffffffffffffffffffffffffff821415611ad057611acf611adb565b5b600182019050919050565b7f4e487b7100000000000000000000000000000000000000000000000000000000600052601160045260246000fd5b7f4e487b7100000000000000000000000000000000000000000000000000000000600052602160045260246000fd5b7f4e487b7100000000000000000000000000000000000000000000000000000000600052602260045260246000fd5b6000601f19601f8301169050919050565b7f4f776e61626c653a206e6577206f776e657220697320746865207a65726f206160008201527f6464726573730000000000000000000000000000000000000000000000000000602082015250565b7f5472616e7366657248656c7065723a3a7472616e7366657246726f6d3a20747260008201527f616e7366657246726f6d206661696c6564000000000000000000000000000000602082015250565b7f5468697320697320697373756520697320636c6f7365642e2043616e6e6f742060008201527f776974686472617720616761696e2e0000000000000000000000000000000000602082015250565b7f4d7573742073656e6420736f6d652076616c7565000000000000000000000000600082015250565b7f4f776e61626c653a2063616c6c6572206973206e6f7420746865206f776e6572600082015250565b7f5472616e7366657248656c7065723a3a736166655472616e736665723a20747260008201527f616e73666572206661696c656400000000000000000000000000000000000000602082015250565b60028110611d1857611d17611b0a565b5b50565b611d24816119c0565b8114611d2f57600080fd5b50565b611d3b816119d2565b8114611d4657600080fd5b50565b60028110611d5657600080fd5b50565b611d6281611a11565b8114611d6d57600080fd5b5056fea264697066735822122073a18a3c3caa00da92900950c634a8517f08879b614a9345e36091d13b56afc764736f6c63430008040033",
  "linkReferences": {},
  "deployedLinkReferences": {}
}