{
  "_format": "hh-sol-artifact-1",
  "contractName": "Issue",
  "sourceName": "contracts/Issue.sol",
  "abi": [
    {
      "inputs": [
        {
          "internalType": "string",
          "name": "_id",
          "type": "string"
        },
        {
          "internalType": "address[]",
          "name": "_tokenAddresses",
          "type": "address[]"
        }
      ],
      "stateMutability": "nonpayable",
      "type": "constructor"
    },
    {
      "anonymous": false,
      "inputs": [
        {
          "indexed": true,
          "internalType": "address",
          "name": "previousOwner",
          "type": "address"
        },
        {
          "indexed": true,
          "internalType": "address",
          "name": "newOwner",
          "type": "address"
        }
      ],
      "name": "OwnershipTransferred",
      "type": "event"
    },
    {
      "inputs": [],
      "name": "closer",
      "outputs": [
        {
          "internalType": "address",
          "name": "",
          "type": "address"
        }
      ],
      "stateMutability": "view",
      "type": "function"
    },
    {
      "inputs": [
        {
          "internalType": "address",
          "name": "_tokenAddress",
          "type": "address"
        }
      ],
      "name": "getERC20Balance",
      "outputs": [
        {
          "internalType": "uint256",
          "name": "balance",
          "type": "uint256"
        }
      ],
      "stateMutability": "view",
      "type": "function"
    },
    {
      "inputs": [],
      "name": "issueId",
      "outputs": [
        {
          "internalType": "string",
          "name": "",
          "type": "string"
        }
      ],
      "stateMutability": "view",
      "type": "function"
    },
    {
      "inputs": [],
      "name": "owner",
      "outputs": [
        {
          "internalType": "address",
          "name": "",
          "type": "address"
        }
      ],
      "stateMutability": "view",
      "type": "function"
    },
    {
      "inputs": [],
      "name": "renounceOwnership",
      "outputs": [],
      "stateMutability": "nonpayable",
      "type": "function"
    },
    {
      "inputs": [],
      "name": "status",
      "outputs": [
        {
          "internalType": "enum Issue.IssueStatus",
          "name": "",
          "type": "uint8"
        }
      ],
      "stateMutability": "view",
      "type": "function"
    },
    {
      "inputs": [
        {
          "internalType": "uint256",
          "name": "",
          "type": "uint256"
        }
      ],
      "name": "tokenAddresses",
      "outputs": [
        {
          "internalType": "address",
          "name": "",
          "type": "address"
        }
      ],
      "stateMutability": "view",
      "type": "function"
    },
    {
      "inputs": [
        {
          "internalType": "address",
          "name": "_payoutAddress",
          "type": "address"
        }
      ],
      "name": "transferAllERC20",
      "outputs": [],
      "stateMutability": "nonpayable",
      "type": "function"
    },
    {
      "inputs": [
        {
          "internalType": "address",
          "name": "newOwner",
          "type": "address"
        }
      ],
      "name": "transferOwnership",
      "outputs": [],
      "stateMutability": "nonpayable",
      "type": "function"
    }
  ],
  "bytecode": "0x60806040523480156200001157600080fd5b506040516200166e3803806200166e833981810160405281019062000037919062000419565b620000576200004b620000e360201b60201c565b620000eb60201b60201c565b81600190805190602001906200006f929190620001af565b5080600390805190602001906200008892919062000240565b506000600460006101000a81548160ff02191690836001811115620000d6577f4e487b7100000000000000000000000000000000000000000000000000000000600052602160045260246000fd5b0217905550505062000679565b600033905090565b60008060009054906101000a900473ffffffffffffffffffffffffffffffffffffffff169050816000806101000a81548173ffffffffffffffffffffffffffffffffffffffff021916908373ffffffffffffffffffffffffffffffffffffffff1602179055508173ffffffffffffffffffffffffffffffffffffffff168173ffffffffffffffffffffffffffffffffffffffff167f8be0079c531659141344cd1fd0a4f28419497f9722a3daafe3b4186f6b6457e060405160405180910390a35050565b828054620001bd9062000584565b90600052602060002090601f016020900481019282620001e157600085556200022d565b82601f10620001fc57805160ff19168380011785556200022d565b828001600101855582156200022d579182015b828111156200022c5782518255916020019190600101906200020f565b5b5090506200023c9190620002cf565b5090565b828054828255906000526020600020908101928215620002bc579160200282015b82811115620002bb5782518260006101000a81548173ffffffffffffffffffffffffffffffffffffffff021916908373ffffffffffffffffffffffffffffffffffffffff1602179055509160200191906001019062000261565b5b509050620002cb9190620002cf565b5090565b5b80821115620002ea576000816000905550600101620002d0565b5090565b600062000305620002ff84620004b5565b6200048c565b905080838252602082019050828560208602820111156200032557600080fd5b60005b858110156200035957816200033e8882620003a8565b84526020840193506020830192505060018101905062000328565b5050509392505050565b60006200037a6200037484620004e4565b6200048c565b9050828152602081018484840111156200039357600080fd5b620003a08482856200054e565b509392505050565b600081519050620003b9816200065f565b92915050565b600082601f830112620003d157600080fd5b8151620003e3848260208601620002ee565b91505092915050565b600082601f830112620003fe57600080fd5b81516200041084826020860162000363565b91505092915050565b600080604083850312156200042d57600080fd5b600083015167ffffffffffffffff8111156200044857600080fd5b6200045685828601620003ec565b925050602083015167ffffffffffffffff8111156200047457600080fd5b6200048285828601620003bf565b9150509250929050565b600062000498620004ab565b9050620004a68282620005ba565b919050565b6000604051905090565b600067ffffffffffffffff821115620004d357620004d26200061f565b5b602082029050602081019050919050565b600067ffffffffffffffff8211156200050257620005016200061f565b5b6200050d826200064e565b9050602081019050919050565b600062000527826200052e565b9050919050565b600073ffffffffffffffffffffffffffffffffffffffff82169050919050565b60005b838110156200056e57808201518184015260208101905062000551565b838111156200057e576000848401525b50505050565b600060028204905060018216806200059d57607f821691505b60208210811415620005b457620005b3620005f0565b5b50919050565b620005c5826200064e565b810181811067ffffffffffffffff82111715620005e757620005e66200061f565b5b80604052505050565b7f4e487b7100000000000000000000000000000000000000000000000000000000600052602260045260246000fd5b7f4e487b7100000000000000000000000000000000000000000000000000000000600052604160045260246000fd5b6000601f19601f8301169050919050565b6200066a816200051a565b81146200067657600080fd5b50565b610fe580620006896000396000f3fe608060405234801561001057600080fd5b50600436106100935760003560e01c80638da5cb5b116100665780638da5cb5b146100fc5780639375dd901461011a578063b588d22514610136578063e5df8b8414610166578063f2fde38b1461019657610093565b8063200d2ed21461009857806332710c6e146100b65780637044f282146100d4578063715018a6146100f2575b600080fd5b6100a06101b2565b6040516100ad9190610bf2565b60405180910390f35b6100be6101c5565b6040516100cb9190610c0d565b60405180910390f35b6100dc610253565b6040516100e99190610bae565b60405180910390f35b6100fa610279565b005b610104610301565b6040516101119190610bae565b60405180910390f35b610134600480360381019061012f9190610a12565b61032a565b005b610150600480360381019061014b9190610a12565b61070f565b60405161015d9190610c8f565b60405180910390f35b610180600480360381019061017b9190610a8d565b6107a6565b60405161018d9190610bae565b60405180910390f35b6101b060048036038101906101ab9190610a12565b6107e5565b005b600460009054906101000a900460ff1681565b600180546101d290610d66565b80601f01602080910402602001604051908101604052809291908181526020018280546101fe90610d66565b801561024b5780601f106102205761010080835404028352916020019161024b565b820191906000526020600020905b81548152906001019060200180831161022e57829003601f168201915b505050505081565b600260009054906101000a900473ffffffffffffffffffffffffffffffffffffffff1681565b6102816108dd565b73ffffffffffffffffffffffffffffffffffffffff1661029f610301565b73ffffffffffffffffffffffffffffffffffffffff16146102f5576040517f08c379a00000000000000000000000000000000000000000000000000000000081526004016102ec90610c6f565b60405180910390fd5b6102ff60006108e5565b565b60008060009054906101000a900473ffffffffffffffffffffffffffffffffffffffff16905090565b6103326108dd565b73ffffffffffffffffffffffffffffffffffffffff16610350610301565b73ffffffffffffffffffffffffffffffffffffffff16146103a6576040517f08c379a000000000000000000000000000000000000000000000000000000000815260040161039d90610c6f565b60405180910390fd5b600060018111156103e0577f4e487b7100000000000000000000000000000000000000000000000000000000600052602160045260246000fd5b3073ffffffffffffffffffffffffffffffffffffffff1663200d2ed26040518163ffffffff1660e01b815260040160206040518083038186803b15801561042657600080fd5b505afa15801561043a573d6000803e3d6000fd5b505050506040513d601f19601f8201168201806040525081019061045e9190610a64565b6001811115610496577f4e487b7100000000000000000000000000000000000000000000000000000000600052602160045260246000fd5b146104d6576040517f08c379a00000000000000000000000000000000000000000000000000000000081526004016104cd90610c4f565b60405180910390fd5b60005b60038054905081101561067957600060038281548110610522577f4e487b7100000000000000000000000000000000000000000000000000000000600052603260045260246000fd5b9060005260206000200160009054906101000a900473ffffffffffffffffffffffffffffffffffffffff1690508073ffffffffffffffffffffffffffffffffffffffff1663a9059cbb848373ffffffffffffffffffffffffffffffffffffffff166370a08231306040518263ffffffff1660e01b81526004016105a59190610bae565b60206040518083038186803b1580156105bd57600080fd5b505afa1580156105d1573d6000803e3d6000fd5b505050506040513d601f19601f820116820180604052508101906105f59190610ab6565b6040518363ffffffff1660e01b8152600401610612929190610bc9565b602060405180830381600087803b15801561062c57600080fd5b505af1158015610640573d6000803e3d6000fd5b505050506040513d601f19601f820116820180604052508101906106649190610a3b565b5050808061067190610d98565b9150506104d9565b506001600460006101000a81548160ff021916908360018111156106c6577f4e487b7100000000000000000000000000000000000000000000000000000000600052602160045260246000fd5b021790555080600260006101000a81548173ffffffffffffffffffffffffffffffffffffffff021916908373ffffffffffffffffffffffffffffffffffffffff16021790555050565b6000808290508073ffffffffffffffffffffffffffffffffffffffff166370a08231306040518263ffffffff1660e01b815260040161074e9190610bae565b60206040518083038186803b15801561076657600080fd5b505afa15801561077a573d6000803e3d6000fd5b505050506040513d601f19601f8201168201806040525081019061079e9190610ab6565b915050919050565b600381815481106107b657600080fd5b906000526020600020016000915054906101000a900473ffffffffffffffffffffffffffffffffffffffff1681565b6107ed6108dd565b73ffffffffffffffffffffffffffffffffffffffff1661080b610301565b73ffffffffffffffffffffffffffffffffffffffff1614610861576040517f08c379a000000000000000000000000000000000000000000000000000000000815260040161085890610c6f565b60405180910390fd5b600073ffffffffffffffffffffffffffffffffffffffff168173ffffffffffffffffffffffffffffffffffffffff1614156108d1576040517f08c379a00000000000000000000000000000000000000000000000000000000081526004016108c890610c2f565b60405180910390fd5b6108da816108e5565b50565b600033905090565b60008060009054906101000a900473ffffffffffffffffffffffffffffffffffffffff169050816000806101000a81548173ffffffffffffffffffffffffffffffffffffffff021916908373ffffffffffffffffffffffffffffffffffffffff1602179055508173ffffffffffffffffffffffffffffffffffffffff168173ffffffffffffffffffffffffffffffffffffffff167f8be0079c531659141344cd1fd0a4f28419497f9722a3daafe3b4186f6b6457e060405160405180910390a35050565b6000813590506109b881610f5a565b92915050565b6000815190506109cd81610f71565b92915050565b6000815190506109e281610f88565b92915050565b6000813590506109f781610f98565b92915050565b600081519050610a0c81610f98565b92915050565b600060208284031215610a2457600080fd5b6000610a32848285016109a9565b91505092915050565b600060208284031215610a4d57600080fd5b6000610a5b848285016109be565b91505092915050565b600060208284031215610a7657600080fd5b6000610a84848285016109d3565b91505092915050565b600060208284031215610a9f57600080fd5b6000610aad848285016109e8565b91505092915050565b600060208284031215610ac857600080fd5b6000610ad6848285016109fd565b91505092915050565b610ae881610cc6565b82525050565b610af781610d21565b82525050565b6000610b0882610caa565b610b128185610cb5565b9350610b22818560208601610d33565b610b2b81610e6e565b840191505092915050565b6000610b43602683610cb5565b9150610b4e82610e7f565b604082019050919050565b6000610b66602f83610cb5565b9150610b7182610ece565b604082019050919050565b6000610b89602083610cb5565b9150610b9482610f1d565b602082019050919050565b610ba881610d17565b82525050565b6000602082019050610bc36000830184610adf565b92915050565b6000604082019050610bde6000830185610adf565b610beb6020830184610b9f565b9392505050565b6000602082019050610c076000830184610aee565b92915050565b60006020820190508181036000830152610c278184610afd565b905092915050565b60006020820190508181036000830152610c4881610b36565b9050919050565b60006020820190508181036000830152610c6881610b59565b9050919050565b60006020820190508181036000830152610c8881610b7c565b9050919050565b6000602082019050610ca46000830184610b9f565b92915050565b600081519050919050565b600082825260208201905092915050565b6000610cd182610cf7565b9050919050565b60008115159050919050565b6000819050610cf282610f46565b919050565b600073ffffffffffffffffffffffffffffffffffffffff82169050919050565b6000819050919050565b6000610d2c82610ce4565b9050919050565b60005b83811015610d51578082015181840152602081019050610d36565b83811115610d60576000848401525b50505050565b60006002820490506001821680610d7e57607f821691505b60208210811415610d9257610d91610e3f565b5b50919050565b6000610da382610d17565b91507fffffffffffffffffffffffffffffffffffffffffffffffffffffffffffffffff821415610dd657610dd5610de1565b5b600182019050919050565b7f4e487b7100000000000000000000000000000000000000000000000000000000600052601160045260246000fd5b7f4e487b7100000000000000000000000000000000000000000000000000000000600052602160045260246000fd5b7f4e487b7100000000000000000000000000000000000000000000000000000000600052602260045260246000fd5b6000601f19601f8301169050919050565b7f4f776e61626c653a206e6577206f776e657220697320746865207a65726f206160008201527f6464726573730000000000000000000000000000000000000000000000000000602082015250565b7f5468697320697320697373756520697320636c6f7365642e2043616e6e6f742060008201527f776974686472617720616761696e2e0000000000000000000000000000000000602082015250565b7f4f776e61626c653a2063616c6c6572206973206e6f7420746865206f776e6572600082015250565b60028110610f5757610f56610e10565b5b50565b610f6381610cc6565b8114610f6e57600080fd5b50565b610f7a81610cd8565b8114610f8557600080fd5b50565b60028110610f9557600080fd5b50565b610fa181610d17565b8114610fac57600080fd5b5056fea264697066735822122059d37e03d7485db3fcec85389b9704baeec9f93387a7a79ec8922b1a0728310464736f6c63430008040033",
  "linkReferences": {},
  "deployedLinkReferences": {}
}