{
  "_format": "hh-sol-artifact-1",
  "contractName": "Issue",
  "sourceName": "contracts/Issue.sol",
  "abi": [
    {
      "inputs": [
        {
          "internalType": "string",
          "name": "_id",
          "type": "string"
        },
        {
          "internalType": "address",
          "name": "_issuer",
          "type": "address"
        }
      ],
      "stateMutability": "nonpayable",
      "type": "constructor"
    },
    {
      "anonymous": false,
      "inputs": [
        {
          "indexed": true,
          "internalType": "address",
          "name": "previousOwner",
          "type": "address"
        },
        {
          "indexed": true,
          "internalType": "address",
          "name": "newOwner",
          "type": "address"
        }
      ],
      "name": "OwnershipTransferred",
      "type": "event"
    },
    {
      "inputs": [
        {
          "internalType": "address",
          "name": "",
          "type": "address"
        }
      ],
      "name": "bountyDeposits",
      "outputs": [
        {
          "internalType": "uint256",
          "name": "",
          "type": "uint256"
        }
      ],
      "stateMutability": "view",
      "type": "function"
    },
    {
      "inputs": [
        {
          "internalType": "uint256",
          "name": "",
          "type": "uint256"
        }
      ],
      "name": "bountyTokenAddresses",
      "outputs": [
        {
          "internalType": "address",
          "name": "",
          "type": "address"
        }
      ],
      "stateMutability": "view",
      "type": "function"
    },
    {
      "inputs": [],
      "name": "closer",
      "outputs": [
        {
          "internalType": "address",
          "name": "",
          "type": "address"
        }
      ],
      "stateMutability": "view",
      "type": "function"
    },
    {
      "inputs": [],
      "name": "escrowPeriod",
      "outputs": [
        {
          "internalType": "uint256",
          "name": "",
          "type": "uint256"
        }
      ],
      "stateMutability": "view",
      "type": "function"
    },
    {
      "inputs": [
        {
          "internalType": "address",
          "name": "",
          "type": "address"
        },
        {
          "internalType": "address",
          "name": "",
          "type": "address"
        }
      ],
      "name": "funderDeposits",
      "outputs": [
        {
          "internalType": "uint256",
          "name": "",
          "type": "uint256"
        }
      ],
      "stateMutability": "view",
      "type": "function"
    },
    {
      "inputs": [
        {
          "internalType": "address",
          "name": "",
          "type": "address"
        },
        {
          "internalType": "uint256",
          "name": "",
          "type": "uint256"
        }
      ],
      "name": "funderTokenAddresses",
      "outputs": [
        {
          "internalType": "address",
          "name": "",
          "type": "address"
        }
      ],
      "stateMutability": "view",
      "type": "function"
    },
    {
      "inputs": [],
      "name": "getBountyTokenAddresses",
      "outputs": [
        {
          "internalType": "address[]",
          "name": "",
          "type": "address[]"
        }
      ],
      "stateMutability": "view",
      "type": "function"
    },
    {
      "inputs": [
        {
          "internalType": "address",
          "name": "_tokenAddress",
          "type": "address"
        }
      ],
      "name": "getERC20Balance",
      "outputs": [
        {
          "internalType": "uint256",
          "name": "balance",
          "type": "uint256"
        }
      ],
      "stateMutability": "view",
      "type": "function"
    },
    {
      "inputs": [
        {
          "internalType": "address",
          "name": "_funder",
          "type": "address"
        }
      ],
      "name": "getFunderTokenAddresses",
      "outputs": [
        {
          "internalType": "address[]",
          "name": "",
          "type": "address[]"
        }
      ],
      "stateMutability": "view",
      "type": "function"
    },
    {
      "inputs": [
        {
          "internalType": "address",
          "name": "",
          "type": "address"
        }
      ],
      "name": "isAFunder",
      "outputs": [
        {
          "internalType": "bool",
          "name": "",
          "type": "bool"
        }
      ],
      "stateMutability": "view",
      "type": "function"
    },
    {
      "inputs": [],
      "name": "issueClosedTime",
      "outputs": [
        {
          "internalType": "uint256",
          "name": "",
          "type": "uint256"
        }
      ],
      "stateMutability": "view",
      "type": "function"
    },
    {
      "inputs": [],
      "name": "issueCreatedTime",
      "outputs": [
        {
          "internalType": "uint256",
          "name": "",
          "type": "uint256"
        }
      ],
      "stateMutability": "view",
      "type": "function"
    },
    {
      "inputs": [],
      "name": "issueId",
      "outputs": [
        {
          "internalType": "string",
          "name": "",
          "type": "string"
        }
      ],
      "stateMutability": "view",
      "type": "function"
    },
    {
      "inputs": [],
      "name": "issuer",
      "outputs": [
        {
          "internalType": "address",
          "name": "",
          "type": "address"
        }
      ],
      "stateMutability": "view",
      "type": "function"
    },
    {
      "inputs": [],
      "name": "owner",
      "outputs": [
        {
          "internalType": "address",
          "name": "",
          "type": "address"
        }
      ],
      "stateMutability": "view",
      "type": "function"
    },
    {
      "inputs": [
        {
          "internalType": "address",
          "name": "_funder",
          "type": "address"
        },
        {
          "internalType": "address",
          "name": "_tokenAddress",
          "type": "address"
        },
        {
          "internalType": "uint256",
          "name": "_value",
          "type": "uint256"
        }
      ],
      "name": "receiveFunds",
      "outputs": [
        {
          "internalType": "bool",
          "name": "success",
          "type": "bool"
        }
      ],
      "stateMutability": "nonpayable",
      "type": "function"
    },
    {
      "inputs": [
        {
          "internalType": "address",
          "name": "_funder",
          "type": "address"
        },
        {
          "internalType": "address",
          "name": "_tokenAddress",
          "type": "address"
        }
      ],
      "name": "refundBountyDeposit",
      "outputs": [
        {
          "internalType": "bool",
          "name": "success",
          "type": "bool"
        }
      ],
      "stateMutability": "nonpayable",
      "type": "function"
    },
    {
      "inputs": [],
      "name": "renounceOwnership",
      "outputs": [],
      "stateMutability": "nonpayable",
      "type": "function"
    },
    {
      "inputs": [],
      "name": "status",
      "outputs": [
        {
          "internalType": "enum Issue.IssueStatus",
          "name": "",
          "type": "uint8"
        }
      ],
      "stateMutability": "view",
      "type": "function"
    },
    {
      "inputs": [
        {
          "internalType": "address",
          "name": "_payoutAddress",
          "type": "address"
        }
      ],
      "name": "transferAllERC20",
      "outputs": [
        {
          "internalType": "bool",
          "name": "success",
          "type": "bool"
        }
      ],
      "stateMutability": "nonpayable",
      "type": "function"
    },
    {
      "inputs": [
        {
          "internalType": "address",
          "name": "newOwner",
          "type": "address"
        }
      ],
      "name": "transferOwnership",
      "outputs": [],
      "stateMutability": "nonpayable",
      "type": "function"
    }
  ],
  "bytecode": "0x608060405262278d006009553480156200001857600080fd5b50604051620025c8380380620025c883398181016040528101906200003e91906200031e565b6200005e620000526200011960201b60201c565b6200012160201b60201c565b816006908051906020019062000076929190620001e5565b506000600b60146101000a81548160ff02191690836001811115620000c4577f4e487b7100000000000000000000000000000000000000000000000000000000600052602160045260246000fd5b021790555080600a60006101000a81548173ffffffffffffffffffffffffffffffffffffffff021916908373ffffffffffffffffffffffffffffffffffffffff16021790555042600781905550505062000536565b600033905090565b60008060009054906101000a900473ffffffffffffffffffffffffffffffffffffffff169050816000806101000a81548173ffffffffffffffffffffffffffffffffffffffff021916908373ffffffffffffffffffffffffffffffffffffffff1602179055508173ffffffffffffffffffffffffffffffffffffffff168173ffffffffffffffffffffffffffffffffffffffff167f8be0079c531659141344cd1fd0a4f28419497f9722a3daafe3b4186f6b6457e060405160405180910390a35050565b828054620001f39062000441565b90600052602060002090601f01602090048101928262000217576000855562000263565b82601f106200023257805160ff191683800117855562000263565b8280016001018555821562000263579182015b828111156200026257825182559160200191906001019062000245565b5b50905062000272919062000276565b5090565b5b808211156200029157600081600090555060010162000277565b5090565b6000620002ac620002a684620003a1565b62000378565b905082815260208101848484011115620002c557600080fd5b620002d28482856200040b565b509392505050565b600081519050620002eb816200051c565b92915050565b600082601f8301126200030357600080fd5b81516200031584826020860162000295565b91505092915050565b600080604083850312156200033257600080fd5b600083015167ffffffffffffffff8111156200034d57600080fd5b6200035b85828601620002f1565b92505060206200036e85828601620002da565b9150509250929050565b60006200038462000397565b905062000392828262000477565b919050565b6000604051905090565b600067ffffffffffffffff821115620003bf57620003be620004dc565b5b620003ca826200050b565b9050602081019050919050565b6000620003e482620003eb565b9050919050565b600073ffffffffffffffffffffffffffffffffffffffff82169050919050565b60005b838110156200042b5780820151818401526020810190506200040e565b838111156200043b576000848401525b50505050565b600060028204905060018216806200045a57607f821691505b60208210811415620004715762000470620004ad565b5b50919050565b62000482826200050b565b810181811067ffffffffffffffff82111715620004a457620004a3620004dc565b5b80604052505050565b7f4e487b7100000000000000000000000000000000000000000000000000000000600052602260045260246000fd5b7f4e487b7100000000000000000000000000000000000000000000000000000000600052604160045260246000fd5b6000601f19601f8301169050919050565b6200052781620003d7565b81146200053357600080fd5b50565b61208280620005466000396000f3fe608060405234801561001057600080fd5b50600436106101375760003560e01c80637db11354116100b8578063b9df819f1161007c578063b9df819f14610368578063d405123e14610398578063df9229f0146103c8578063f16b51c1146103f8578063f2fde38b14610416578063fc5d2cf41461043257610137565b80637db113541461029c5780638da5cb5b146102ba5780639375dd90146102d8578063b0100cf714610308578063b588d2251461033857610137565b806349a0bb0c116100ff57806349a0bb0c146101f65780634b8022b2146102145780636216753b146102445780637044f28214610274578063715018a61461029257610137565b80631bef55051461013c5780631d1438481461016c578063200d2ed21461018a57806329ffef15146101a857806332710c6e146101d8575b600080fd5b61015660048036038101906101519190611663565b610450565b6040516101639190611a86565b60405180910390f35b61017461051d565b6040516101819190611a0b565b60405180910390f35b610192610543565b60405161019f9190611ac3565b60405180910390f35b6101c260048036038101906101bd919061168c565b610556565b6040516101cf9190611aa8565b60405180910390f35b6101e0610665565b6040516101ed9190611ade565b60405180910390f35b6101fe6106f3565b60405161020b9190611bc0565b60405180910390f35b61022e60048036038101906102299190611717565b6106f9565b60405161023b9190611a0b565b60405180910390f35b61025e6004803603810190610259919061168c565b610747565b60405161026b9190611bc0565b60405180910390f35b61027c61076c565b6040516102899190611a0b565b60405180910390f35b61029a610792565b005b6102a461081a565b6040516102b19190611bc0565b60405180910390f35b6102c2610820565b6040516102cf9190611a0b565b60405180910390f35b6102f260048036038101906102ed9190611663565b610849565b6040516102ff9190611aa8565b60405180910390f35b610322600480360381019061031d9190611663565b610c3d565b60405161032f9190611aa8565b60405180910390f35b610352600480360381019061034d9190611663565b610c5d565b60405161035f9190611bc0565b60405180910390f35b610382600480360381019061037d91906116c8565b610cf4565b60405161038f9190611aa8565b60405180910390f35b6103b260048036038101906103ad9190611663565b6110dc565b6040516103bf9190611bc0565b60405180910390f35b6103e260048036038101906103dd91906117a5565b6110f4565b6040516103ef9190611a0b565b60405180910390f35b610400611133565b60405161040d9190611bc0565b60405180910390f35b610430600480360381019061042b9190611663565b611139565b005b61043a611231565b6040516104479190611a86565b60405180910390f35b6060600360008373ffffffffffffffffffffffffffffffffffffffff1673ffffffffffffffffffffffffffffffffffffffff16815260200190815260200160002080548060200260200160405190810160405280929190818152602001828054801561051157602002820191906000526020600020905b8160009054906101000a900473ffffffffffffffffffffffffffffffffffffffff1673ffffffffffffffffffffffffffffffffffffffff16815260200190600101908083116104c7575b50505050509050919050565b600a60009054906101000a900473ffffffffffffffffffffffffffffffffffffffff1681565b600b60149054906101000a900460ff1681565b60006105606112bf565b73ffffffffffffffffffffffffffffffffffffffff1661057e610820565b73ffffffffffffffffffffffffffffffffffffffff16146105d4576040517f08c379a00000000000000000000000000000000000000000000000000000000081526004016105cb90611b80565b60405180910390fd5b61065b8284600460008773ffffffffffffffffffffffffffffffffffffffff1673ffffffffffffffffffffffffffffffffffffffff16815260200190815260200160002060008673ffffffffffffffffffffffffffffffffffffffff1673ffffffffffffffffffffffffffffffffffffffff168152602001908152602001600020546112c7565b6001905092915050565b6006805461067290611d3c565b80601f016020809104026020016040519081016040528092919081815260200182805461069e90611d3c565b80156106eb5780601f106106c0576101008083540402835291602001916106eb565b820191906000526020600020905b8154815290600101906020018083116106ce57829003601f168201915b505050505081565b60075481565b6003602052816000526040600020818154811061071557600080fd5b906000526020600020016000915091509054906101000a900473ffffffffffffffffffffffffffffffffffffffff1681565b6004602052816000526040600020602052806000526040600020600091509150505481565b600b60009054906101000a900473ffffffffffffffffffffffffffffffffffffffff1681565b61079a6112bf565b73ffffffffffffffffffffffffffffffffffffffff166107b8610820565b73ffffffffffffffffffffffffffffffffffffffff161461080e576040517f08c379a000000000000000000000000000000000000000000000000000000000815260040161080590611b80565b60405180910390fd5b61081860006113fd565b565b60085481565b60008060009054906101000a900473ffffffffffffffffffffffffffffffffffffffff16905090565b60006108536112bf565b73ffffffffffffffffffffffffffffffffffffffff16610871610820565b73ffffffffffffffffffffffffffffffffffffffff16146108c7576040517f08c379a00000000000000000000000000000000000000000000000000000000081526004016108be90611b80565b60405180910390fd5b60006001811115610901577f4e487b7100000000000000000000000000000000000000000000000000000000600052602160045260246000fd5b3073ffffffffffffffffffffffffffffffffffffffff1663200d2ed26040518163ffffffff1660e01b815260040160206040518083038186803b15801561094757600080fd5b505afa15801561095b573d6000803e3d6000fd5b505050506040513d601f19601f8201168201806040525081019061097f919061177c565b60018111156109b7577f4e487b7100000000000000000000000000000000000000000000000000000000600052602160045260246000fd5b146109f7576040517f08c379a00000000000000000000000000000000000000000000000000000000081526004016109ee90611b40565b60405180910390fd5b60005b600180549050811015610b9a57600060018281548110610a43577f4e487b7100000000000000000000000000000000000000000000000000000000600052603260045260246000fd5b9060005260206000200160009054906101000a900473ffffffffffffffffffffffffffffffffffffffff1690508073ffffffffffffffffffffffffffffffffffffffff1663a9059cbb858373ffffffffffffffffffffffffffffffffffffffff166370a08231306040518263ffffffff1660e01b8152600401610ac69190611a0b565b60206040518083038186803b158015610ade57600080fd5b505afa158015610af2573d6000803e3d6000fd5b505050506040513d601f19601f82011682018060405250810190610b1691906117ce565b6040518363ffffffff1660e01b8152600401610b33929190611a5d565b602060405180830381600087803b158015610b4d57600080fd5b505af1158015610b61573d6000803e3d6000fd5b505050506040513d601f19601f82011682018060405250810190610b859190611753565b50508080610b9290611d6e565b9150506109fa565b506001600b60146101000a81548160ff02191690836001811115610be7577f4e487b7100000000000000000000000000000000000000000000000000000000600052602160045260246000fd5b021790555081600b60006101000a81548173ffffffffffffffffffffffffffffffffffffffff021916908373ffffffffffffffffffffffffffffffffffffffff1602179055504260088190555060019050919050565b60056020528060005260406000206000915054906101000a900460ff1681565b6000808290508073ffffffffffffffffffffffffffffffffffffffff166370a08231306040518263ffffffff1660e01b8152600401610c9c9190611a0b565b60206040518083038186803b158015610cb457600080fd5b505afa158015610cc8573d6000803e3d6000fd5b505050506040513d601f19601f82011682018060405250810190610cec91906117ce565b915050919050565b6000610cfe6112bf565b73ffffffffffffffffffffffffffffffffffffffff16610d1c610820565b73ffffffffffffffffffffffffffffffffffffffff1614610d72576040517f08c379a0000000000000000000000000000000000000000000000000000000008152600401610d6990611b80565b60405180910390fd5b6000821415610db6576040517f08c379a0000000000000000000000000000000000000000000000000000000008152600401610dad90611b60565b60405180910390fd5b610dc2838530856114c1565b6001600560008673ffffffffffffffffffffffffffffffffffffffff1673ffffffffffffffffffffffffffffffffffffffff16815260200190815260200160002060006101000a81548160ff0219169083151502179055506000600260008573ffffffffffffffffffffffffffffffffffffffff1673ffffffffffffffffffffffffffffffffffffffff168152602001908152602001600020541415610ec6576001839080600181540180825580915050600190039060005260206000200160009091909190916101000a81548173ffffffffffffffffffffffffffffffffffffffff021916908373ffffffffffffffffffffffffffffffffffffffff1602179055505b6000600460008673ffffffffffffffffffffffffffffffffffffffff1673ffffffffffffffffffffffffffffffffffffffff16815260200190815260200160002060008573ffffffffffffffffffffffffffffffffffffffff1673ffffffffffffffffffffffffffffffffffffffff168152602001908152602001600020541415610fec57600360008573ffffffffffffffffffffffffffffffffffffffff1673ffffffffffffffffffffffffffffffffffffffff168152602001908152602001600020839080600181540180825580915050600190039060005260206000200160009091909190916101000a81548173ffffffffffffffffffffffffffffffffffffffff021916908373ffffffffffffffffffffffffffffffffffffffff1602179055505b81600260008573ffffffffffffffffffffffffffffffffffffffff1673ffffffffffffffffffffffffffffffffffffffff168152602001908152602001600020600082825461103b9190611c46565b9250508190555081600460008673ffffffffffffffffffffffffffffffffffffffff1673ffffffffffffffffffffffffffffffffffffffff16815260200190815260200160002060008573ffffffffffffffffffffffffffffffffffffffff1673ffffffffffffffffffffffffffffffffffffffff16815260200190815260200160002060008282546110ce9190611c46565b925050819055509392505050565b60026020528060005260406000206000915090505481565b6001818154811061110457600080fd5b906000526020600020016000915054906101000a900473ffffffffffffffffffffffffffffffffffffffff1681565b60095481565b6111416112bf565b73ffffffffffffffffffffffffffffffffffffffff1661115f610820565b73ffffffffffffffffffffffffffffffffffffffff16146111b5576040517f08c379a00000000000000000000000000000000000000000000000000000000081526004016111ac90611b80565b60405180910390fd5b600073ffffffffffffffffffffffffffffffffffffffff168173ffffffffffffffffffffffffffffffffffffffff161415611225576040517f08c379a000000000000000000000000000000000000000000000000000000000815260040161121c90611b00565b60405180910390fd5b61122e816113fd565b50565b606060018054806020026020016040519081016040528092919081815260200182805480156112b557602002820191906000526020600020905b8160009054906101000a900473ffffffffffffffffffffffffffffffffffffffff1673ffffffffffffffffffffffffffffffffffffffff168152602001906001019080831161126b575b5050505050905090565b600033905090565b6000808473ffffffffffffffffffffffffffffffffffffffff1663a9059cbb85856040516024016112f9929190611a5d565b6040516020818303038152906040529060e01b6020820180517bffffffffffffffffffffffffffffffffffffffffffffffffffffffff838183161783525050505060405161134791906119f4565b6000604051808303816000865af19150503d8060008114611384576040519150601f19603f3d011682016040523d82523d6000602084013e611389565b606091505b50915091508180156113b757506000815114806113b65750808060200190518101906113b59190611753565b5b5b6113f6576040517f08c379a00000000000000000000000000000000000000000000000000000000081526004016113ed90611ba0565b60405180910390fd5b5050505050565b60008060009054906101000a900473ffffffffffffffffffffffffffffffffffffffff169050816000806101000a81548173ffffffffffffffffffffffffffffffffffffffff021916908373ffffffffffffffffffffffffffffffffffffffff1602179055508173ffffffffffffffffffffffffffffffffffffffff168173ffffffffffffffffffffffffffffffffffffffff167f8be0079c531659141344cd1fd0a4f28419497f9722a3daafe3b4186f6b6457e060405160405180910390a35050565b6000808573ffffffffffffffffffffffffffffffffffffffff166323b872dd8686866040516024016114f593929190611a26565b6040516020818303038152906040529060e01b6020820180517bffffffffffffffffffffffffffffffffffffffffffffffffffffffff838183161783525050505060405161154391906119f4565b6000604051808303816000865af19150503d8060008114611580576040519150601f19603f3d011682016040523d82523d6000602084013e611585565b606091505b50915091508180156115b357506000815114806115b25750808060200190518101906115b19190611753565b5b5b6115f2576040517f08c379a00000000000000000000000000000000000000000000000000000000081526004016115e990611b20565b60405180910390fd5b505050505050565b60008135905061160981611ff7565b92915050565b60008151905061161e8161200e565b92915050565b60008151905061163381612025565b92915050565b60008135905061164881612035565b92915050565b60008151905061165d81612035565b92915050565b60006020828403121561167557600080fd5b6000611683848285016115fa565b91505092915050565b6000806040838503121561169f57600080fd5b60006116ad858286016115fa565b92505060206116be858286016115fa565b9150509250929050565b6000806000606084860312156116dd57600080fd5b60006116eb868287016115fa565b93505060206116fc868287016115fa565b925050604061170d86828701611639565b9150509250925092565b6000806040838503121561172a57600080fd5b6000611738858286016115fa565b925050602061174985828601611639565b9150509250929050565b60006020828403121561176557600080fd5b60006117738482850161160f565b91505092915050565b60006020828403121561178e57600080fd5b600061179c84828501611624565b91505092915050565b6000602082840312156117b757600080fd5b60006117c584828501611639565b91505092915050565b6000602082840312156117e057600080fd5b60006117ee8482850161164e565b91505092915050565b6000611803838361180f565b60208301905092915050565b61181881611c9c565b82525050565b61182781611c9c565b82525050565b600061183882611beb565b6118428185611c19565b935061184d83611bdb565b8060005b8381101561187e57815161186588826117f7565b975061187083611c0c565b925050600181019050611851565b5085935050505092915050565b61189481611cae565b82525050565b60006118a582611bf6565b6118af8185611c2a565b93506118bf818560208601611d09565b80840191505092915050565b6118d481611cf7565b82525050565b60006118e582611c01565b6118ef8185611c35565b93506118ff818560208601611d09565b61190881611e44565b840191505092915050565b6000611920602683611c35565b915061192b82611e55565b604082019050919050565b6000611943603183611c35565b915061194e82611ea4565b604082019050919050565b6000611966602f83611c35565b915061197182611ef3565b604082019050919050565b6000611989601483611c35565b915061199482611f42565b602082019050919050565b60006119ac602083611c35565b91506119b782611f6b565b602082019050919050565b60006119cf602d83611c35565b91506119da82611f94565b604082019050919050565b6119ee81611ced565b82525050565b6000611a00828461189a565b915081905092915050565b6000602082019050611a20600083018461181e565b92915050565b6000606082019050611a3b600083018661181e565b611a48602083018561181e565b611a5560408301846119e5565b949350505050565b6000604082019050611a72600083018561181e565b611a7f60208301846119e5565b9392505050565b60006020820190508181036000830152611aa0818461182d565b905092915050565b6000602082019050611abd600083018461188b565b92915050565b6000602082019050611ad860008301846118cb565b92915050565b60006020820190508181036000830152611af881846118da565b905092915050565b60006020820190508181036000830152611b1981611913565b9050919050565b60006020820190508181036000830152611b3981611936565b9050919050565b60006020820190508181036000830152611b5981611959565b9050919050565b60006020820190508181036000830152611b798161197c565b9050919050565b60006020820190508181036000830152611b998161199f565b9050919050565b60006020820190508181036000830152611bb9816119c2565b9050919050565b6000602082019050611bd560008301846119e5565b92915050565b6000819050602082019050919050565b600081519050919050565b600081519050919050565b600081519050919050565b6000602082019050919050565b600082825260208201905092915050565b600081905092915050565b600082825260208201905092915050565b6000611c5182611ced565b9150611c5c83611ced565b9250827fffffffffffffffffffffffffffffffffffffffffffffffffffffffffffffffff03821115611c9157611c90611db7565b5b828201905092915050565b6000611ca782611ccd565b9050919050565b60008115159050919050565b6000819050611cc882611fe3565b919050565b600073ffffffffffffffffffffffffffffffffffffffff82169050919050565b6000819050919050565b6000611d0282611cba565b9050919050565b60005b83811015611d27578082015181840152602081019050611d0c565b83811115611d36576000848401525b50505050565b60006002820490506001821680611d5457607f821691505b60208210811415611d6857611d67611e15565b5b50919050565b6000611d7982611ced565b91507fffffffffffffffffffffffffffffffffffffffffffffffffffffffffffffffff821415611dac57611dab611db7565b5b600182019050919050565b7f4e487b7100000000000000000000000000000000000000000000000000000000600052601160045260246000fd5b7f4e487b7100000000000000000000000000000000000000000000000000000000600052602160045260246000fd5b7f4e487b7100000000000000000000000000000000000000000000000000000000600052602260045260246000fd5b6000601f19601f8301169050919050565b7f4f776e61626c653a206e6577206f776e657220697320746865207a65726f206160008201527f6464726573730000000000000000000000000000000000000000000000000000602082015250565b7f5472616e7366657248656c7065723a3a7472616e7366657246726f6d3a20747260008201527f616e7366657246726f6d206661696c6564000000000000000000000000000000602082015250565b7f5468697320697320697373756520697320636c6f7365642e2043616e6e6f742060008201527f776974686472617720616761696e2e0000000000000000000000000000000000602082015250565b7f4d7573742073656e6420736f6d652076616c7565000000000000000000000000600082015250565b7f4f776e61626c653a2063616c6c6572206973206e6f7420746865206f776e6572600082015250565b7f5472616e7366657248656c7065723a3a736166655472616e736665723a20747260008201527f616e73666572206661696c656400000000000000000000000000000000000000602082015250565b60028110611ff457611ff3611de6565b5b50565b61200081611c9c565b811461200b57600080fd5b50565b61201781611cae565b811461202257600080fd5b50565b6002811061203257600080fd5b50565b61203e81611ced565b811461204957600080fd5b5056fea26469706673582212204b73501333ecf9bfc1681867d340353cb6453dbf8d9494ef6cdcf1ffb499002464736f6c63430008040033",
  "linkReferences": {},
  "deployedLinkReferences": {}
}