{
  "_format": "hh-sol-artifact-1",
  "contractName": "Issue",
  "sourceName": "contracts/Issue.sol",
  "abi": [
    {
      "inputs": [
        {
          "internalType": "string",
          "name": "_id",
          "type": "string"
        },
        {
          "internalType": "address",
          "name": "_issuer",
          "type": "address"
        },
        {
          "internalType": "address[]",
          "name": "_tokenAddresses",
          "type": "address[]"
        }
      ],
      "stateMutability": "nonpayable",
      "type": "constructor"
    },
    {
      "anonymous": false,
      "inputs": [
        {
          "indexed": true,
          "internalType": "address",
          "name": "previousOwner",
          "type": "address"
        },
        {
          "indexed": true,
          "internalType": "address",
          "name": "newOwner",
          "type": "address"
        }
      ],
      "name": "OwnershipTransferred",
      "type": "event"
    },
    {
      "inputs": [],
      "name": "closer",
      "outputs": [
        {
          "internalType": "address",
          "name": "",
          "type": "address"
        }
      ],
      "stateMutability": "view",
      "type": "function"
    },
    {
      "inputs": [],
      "name": "escrowPeriod",
      "outputs": [
        {
          "internalType": "uint256",
          "name": "",
          "type": "uint256"
        }
      ],
      "stateMutability": "view",
      "type": "function"
    },
    {
      "inputs": [
        {
          "internalType": "address",
          "name": "_tokenAddress",
          "type": "address"
        }
      ],
      "name": "getERC20Balance",
      "outputs": [
        {
          "internalType": "uint256",
          "name": "balance",
          "type": "uint256"
        }
      ],
      "stateMutability": "view",
      "type": "function"
    },
    {
      "inputs": [],
      "name": "issueId",
      "outputs": [
        {
          "internalType": "string",
          "name": "",
          "type": "string"
        }
      ],
      "stateMutability": "view",
      "type": "function"
    },
    {
      "inputs": [],
      "name": "issueTime",
      "outputs": [
        {
          "internalType": "uint256",
          "name": "",
          "type": "uint256"
        }
      ],
      "stateMutability": "view",
      "type": "function"
    },
    {
      "inputs": [],
      "name": "issuer",
      "outputs": [
        {
          "internalType": "address",
          "name": "",
          "type": "address"
        }
      ],
      "stateMutability": "view",
      "type": "function"
    },
    {
      "inputs": [],
      "name": "issuerWithdraw",
      "outputs": [],
      "stateMutability": "nonpayable",
      "type": "function"
    },
    {
      "inputs": [],
      "name": "owner",
      "outputs": [
        {
          "internalType": "address",
          "name": "",
          "type": "address"
        }
      ],
      "stateMutability": "view",
      "type": "function"
    },
    {
      "inputs": [],
      "name": "renounceOwnership",
      "outputs": [],
      "stateMutability": "nonpayable",
      "type": "function"
    },
    {
      "inputs": [],
      "name": "status",
      "outputs": [
        {
          "internalType": "enum Issue.IssueStatus",
          "name": "",
          "type": "uint8"
        }
      ],
      "stateMutability": "view",
      "type": "function"
    },
    {
      "inputs": [
        {
          "internalType": "uint256",
          "name": "",
          "type": "uint256"
        }
      ],
      "name": "tokenAddresses",
      "outputs": [
        {
          "internalType": "address",
          "name": "",
          "type": "address"
        }
      ],
      "stateMutability": "view",
      "type": "function"
    },
    {
      "inputs": [
        {
          "internalType": "address",
          "name": "_payoutAddress",
          "type": "address"
        }
      ],
      "name": "transferAllERC20",
      "outputs": [],
      "stateMutability": "nonpayable",
      "type": "function"
    },
    {
      "inputs": [
        {
          "internalType": "address",
          "name": "newOwner",
          "type": "address"
        }
      ],
      "name": "transferOwnership",
      "outputs": [],
      "stateMutability": "nonpayable",
      "type": "function"
    }
  ],
  "bytecode": "0x608060405262278d006002553480156200001857600080fd5b5060405162001b8138038062001b8183398181016040528101906200003e919062000469565b6200005e620000526200013360201b60201c565b6200013b60201b60201c565b826004908051906020019062000076929190620001ff565b5080600690805190602001906200008f92919062000290565b506000600760006101000a81548160ff02191690836001811115620000dd577f4e487b7100000000000000000000000000000000000000000000000000000000600052602160045260246000fd5b021790555081600360006101000a81548173ffffffffffffffffffffffffffffffffffffffff021916908373ffffffffffffffffffffffffffffffffffffffff16021790555042600181905550505050620006de565b600033905090565b60008060009054906101000a900473ffffffffffffffffffffffffffffffffffffffff169050816000806101000a81548173ffffffffffffffffffffffffffffffffffffffff021916908373ffffffffffffffffffffffffffffffffffffffff1602179055508173ffffffffffffffffffffffffffffffffffffffff168173ffffffffffffffffffffffffffffffffffffffff167f8be0079c531659141344cd1fd0a4f28419497f9722a3daafe3b4186f6b6457e060405160405180910390a35050565b8280546200020d90620005e9565b90600052602060002090601f0160209004810192826200023157600085556200027d565b82601f106200024c57805160ff19168380011785556200027d565b828001600101855582156200027d579182015b828111156200027c5782518255916020019190600101906200025f565b5b5090506200028c91906200031f565b5090565b8280548282559060005260206000209081019282156200030c579160200282015b828111156200030b5782518260006101000a81548173ffffffffffffffffffffffffffffffffffffffff021916908373ffffffffffffffffffffffffffffffffffffffff16021790555091602001919060010190620002b1565b5b5090506200031b91906200031f565b5090565b5b808211156200033a57600081600090555060010162000320565b5090565b6000620003556200034f846200051a565b620004f1565b905080838252602082019050828560208602820111156200037557600080fd5b60005b85811015620003a957816200038e8882620003f8565b84526020840193506020830192505060018101905062000378565b5050509392505050565b6000620003ca620003c48462000549565b620004f1565b905082815260208101848484011115620003e357600080fd5b620003f0848285620005b3565b509392505050565b6000815190506200040981620006c4565b92915050565b600082601f8301126200042157600080fd5b8151620004338482602086016200033e565b91505092915050565b600082601f8301126200044e57600080fd5b815162000460848260208601620003b3565b91505092915050565b6000806000606084860312156200047f57600080fd5b600084015167ffffffffffffffff8111156200049a57600080fd5b620004a8868287016200043c565b9350506020620004bb86828701620003f8565b925050604084015167ffffffffffffffff811115620004d957600080fd5b620004e7868287016200040f565b9150509250925092565b6000620004fd62000510565b90506200050b82826200061f565b919050565b6000604051905090565b600067ffffffffffffffff82111562000538576200053762000684565b5b602082029050602081019050919050565b600067ffffffffffffffff82111562000567576200056662000684565b5b6200057282620006b3565b9050602081019050919050565b60006200058c8262000593565b9050919050565b600073ffffffffffffffffffffffffffffffffffffffff82169050919050565b60005b83811015620005d3578082015181840152602081019050620005b6565b83811115620005e3576000848401525b50505050565b600060028204905060018216806200060257607f821691505b6020821081141562000619576200061862000655565b5b50919050565b6200062a82620006b3565b810181811067ffffffffffffffff821117156200064c576200064b62000684565b5b80604052505050565b7f4e487b7100000000000000000000000000000000000000000000000000000000600052602260045260246000fd5b7f4e487b7100000000000000000000000000000000000000000000000000000000600052604160045260246000fd5b6000601f19601f8301169050919050565b620006cf816200057f565b8114620006db57600080fd5b50565b61149380620006ee6000396000f3fe608060405234801561001057600080fd5b50600436106100cf5760003560e01c80639375dd901161008c578063df07b60e11610066578063df07b60e146101ca578063e5df8b84146101e8578063f16b51c114610218578063f2fde38b14610236576100cf565b80639375dd9014610174578063b588d22514610190578063cc9cd961146101c0576100cf565b80631d143848146100d4578063200d2ed2146100f257806332710c6e146101105780637044f2821461012e578063715018a61461014c5780638da5cb5b14610156575b600080fd5b6100dc610252565b6040516100e99190610f4e565b60405180910390f35b6100fa610278565b6040516101079190610f92565b60405180910390f35b61011861028b565b6040516101259190610fad565b60405180910390f35b610136610319565b6040516101439190610f4e565b60405180910390f35b61015461033f565b005b61015e6103c7565b60405161016b9190610f4e565b60405180910390f35b61018e60048036038101906101899190610d6c565b6103f0565b005b6101aa60048036038101906101a59190610d6c565b6107d5565b6040516101b7919061106f565b60405180910390f35b6101c861086c565b005b6101d2610af4565b6040516101df919061106f565b60405180910390f35b61020260048036038101906101fd9190610de7565b610afa565b60405161020f9190610f4e565b60405180910390f35b610220610b39565b60405161022d919061106f565b60405180910390f35b610250600480360381019061024b9190610d6c565b610b3f565b005b600360009054906101000a900473ffffffffffffffffffffffffffffffffffffffff1681565b600760009054906101000a900460ff1681565b600480546102989061119c565b80601f01602080910402602001604051908101604052809291908181526020018280546102c49061119c565b80156103115780601f106102e657610100808354040283529160200191610311565b820191906000526020600020905b8154815290600101906020018083116102f457829003601f168201915b505050505081565b600560009054906101000a900473ffffffffffffffffffffffffffffffffffffffff1681565b610347610c37565b73ffffffffffffffffffffffffffffffffffffffff166103656103c7565b73ffffffffffffffffffffffffffffffffffffffff16146103bb576040517f08c379a00000000000000000000000000000000000000000000000000000000081526004016103b29061102f565b60405180910390fd5b6103c56000610c3f565b565b60008060009054906101000a900473ffffffffffffffffffffffffffffffffffffffff16905090565b6103f8610c37565b73ffffffffffffffffffffffffffffffffffffffff166104166103c7565b73ffffffffffffffffffffffffffffffffffffffff161461046c576040517f08c379a00000000000000000000000000000000000000000000000000000000081526004016104639061102f565b60405180910390fd5b600060018111156104a6577f4e487b7100000000000000000000000000000000000000000000000000000000600052602160045260246000fd5b3073ffffffffffffffffffffffffffffffffffffffff1663200d2ed26040518163ffffffff1660e01b815260040160206040518083038186803b1580156104ec57600080fd5b505afa158015610500573d6000803e3d6000fd5b505050506040513d601f19601f820116820180604052508101906105249190610dbe565b600181111561055c577f4e487b7100000000000000000000000000000000000000000000000000000000600052602160045260246000fd5b1461059c576040517f08c379a00000000000000000000000000000000000000000000000000000000081526004016105939061100f565b60405180910390fd5b60005b60068054905081101561073f576000600682815481106105e8577f4e487b7100000000000000000000000000000000000000000000000000000000600052603260045260246000fd5b9060005260206000200160009054906101000a900473ffffffffffffffffffffffffffffffffffffffff1690508073ffffffffffffffffffffffffffffffffffffffff1663a9059cbb848373ffffffffffffffffffffffffffffffffffffffff166370a08231306040518263ffffffff1660e01b815260040161066b9190610f4e565b60206040518083038186803b15801561068357600080fd5b505afa158015610697573d6000803e3d6000fd5b505050506040513d601f19601f820116820180604052508101906106bb9190610e10565b6040518363ffffffff1660e01b81526004016106d8929190610f69565b602060405180830381600087803b1580156106f257600080fd5b505af1158015610706573d6000803e3d6000fd5b505050506040513d601f19601f8201168201806040525081019061072a9190610d95565b50508080610737906111ce565b91505061059f565b506001600760006101000a81548160ff0219169083600181111561078c577f4e487b7100000000000000000000000000000000000000000000000000000000600052602160045260246000fd5b021790555080600560006101000a81548173ffffffffffffffffffffffffffffffffffffffff021916908373ffffffffffffffffffffffffffffffffffffffff16021790555050565b6000808290508073ffffffffffffffffffffffffffffffffffffffff166370a08231306040518263ffffffff1660e01b81526004016108149190610f4e565b60206040518083038186803b15801561082c57600080fd5b505afa158015610840573d6000803e3d6000fd5b505050506040513d601f19601f820116820180604052508101906108649190610e10565b915050919050565b600360009054906101000a900473ffffffffffffffffffffffffffffffffffffffff1673ffffffffffffffffffffffffffffffffffffffff163373ffffffffffffffffffffffffffffffffffffffff16146108fc576040517f08c379a00000000000000000000000000000000000000000000000000000000081526004016108f390610fcf565b60405180910390fd5b60025460015461090c91906110a6565b42101561094e576040517f08c379a00000000000000000000000000000000000000000000000000000000081526004016109459061104f565b60405180910390fd5b60005b600680549050811015610af15760006006828154811061099a577f4e487b7100000000000000000000000000000000000000000000000000000000600052603260045260246000fd5b9060005260206000200160009054906101000a900473ffffffffffffffffffffffffffffffffffffffff1690508073ffffffffffffffffffffffffffffffffffffffff1663a9059cbb338373ffffffffffffffffffffffffffffffffffffffff166370a08231306040518263ffffffff1660e01b8152600401610a1d9190610f4e565b60206040518083038186803b158015610a3557600080fd5b505afa158015610a49573d6000803e3d6000fd5b505050506040513d601f19601f82011682018060405250810190610a6d9190610e10565b6040518363ffffffff1660e01b8152600401610a8a929190610f69565b602060405180830381600087803b158015610aa457600080fd5b505af1158015610ab8573d6000803e3d6000fd5b505050506040513d601f19601f82011682018060405250810190610adc9190610d95565b50508080610ae9906111ce565b915050610951565b50565b60015481565b60068181548110610b0a57600080fd5b906000526020600020016000915054906101000a900473ffffffffffffffffffffffffffffffffffffffff1681565b60025481565b610b47610c37565b73ffffffffffffffffffffffffffffffffffffffff16610b656103c7565b73ffffffffffffffffffffffffffffffffffffffff1614610bbb576040517f08c379a0000000000000000000000000000000000000000000000000000000008152600401610bb29061102f565b60405180910390fd5b600073ffffffffffffffffffffffffffffffffffffffff168173ffffffffffffffffffffffffffffffffffffffff161415610c2b576040517f08c379a0000000000000000000000000000000000000000000000000000000008152600401610c2290610fef565b60405180910390fd5b610c3481610c3f565b50565b600033905090565b60008060009054906101000a900473ffffffffffffffffffffffffffffffffffffffff169050816000806101000a81548173ffffffffffffffffffffffffffffffffffffffff021916908373ffffffffffffffffffffffffffffffffffffffff1602179055508173ffffffffffffffffffffffffffffffffffffffff168173ffffffffffffffffffffffffffffffffffffffff167f8be0079c531659141344cd1fd0a4f28419497f9722a3daafe3b4186f6b6457e060405160405180910390a35050565b600081359050610d1281611408565b92915050565b600081519050610d278161141f565b92915050565b600081519050610d3c81611436565b92915050565b600081359050610d5181611446565b92915050565b600081519050610d6681611446565b92915050565b600060208284031215610d7e57600080fd5b6000610d8c84828501610d03565b91505092915050565b600060208284031215610da757600080fd5b6000610db584828501610d18565b91505092915050565b600060208284031215610dd057600080fd5b6000610dde84828501610d2d565b91505092915050565b600060208284031215610df957600080fd5b6000610e0784828501610d42565b91505092915050565b600060208284031215610e2257600080fd5b6000610e3084828501610d57565b91505092915050565b610e42816110fc565b82525050565b610e5181611157565b82525050565b6000610e628261108a565b610e6c8185611095565b9350610e7c818560208601611169565b610e85816112a4565b840191505092915050565b6000610e9d603a83611095565b9150610ea8826112b5565b604082019050919050565b6000610ec0602683611095565b9150610ecb82611304565b604082019050919050565b6000610ee3602f83611095565b9150610eee82611353565b604082019050919050565b6000610f06602083611095565b9150610f11826113a2565b602082019050919050565b6000610f29601b83611095565b9150610f34826113cb565b602082019050919050565b610f488161114d565b82525050565b6000602082019050610f636000830184610e39565b92915050565b6000604082019050610f7e6000830185610e39565b610f8b6020830184610f3f565b9392505050565b6000602082019050610fa76000830184610e48565b92915050565b60006020820190508181036000830152610fc78184610e57565b905092915050565b60006020820190508181036000830152610fe881610e90565b9050919050565b6000602082019050818103600083015261100881610eb3565b9050919050565b6000602082019050818103600083015261102881610ed6565b9050919050565b6000602082019050818103600083015261104881610ef9565b9050919050565b6000602082019050818103600083015261106881610f1c565b9050919050565b60006020820190506110846000830184610f3f565b92915050565b600081519050919050565b600082825260208201905092915050565b60006110b18261114d565b91506110bc8361114d565b9250827fffffffffffffffffffffffffffffffffffffffffffffffffffffffffffffffff038211156110f1576110f0611217565b5b828201905092915050565b60006111078261112d565b9050919050565b60008115159050919050565b6000819050611128826113f4565b919050565b600073ffffffffffffffffffffffffffffffffffffffff82169050919050565b6000819050919050565b60006111628261111a565b9050919050565b60005b8381101561118757808201518184015260208101905061116c565b83811115611196576000848401525b50505050565b600060028204905060018216806111b457607f821691505b602082108114156111c8576111c7611275565b5b50919050565b60006111d98261114d565b91507fffffffffffffffffffffffffffffffffffffffffffffffffffffffffffffffff82141561120c5761120b611217565b5b600182019050919050565b7f4e487b7100000000000000000000000000000000000000000000000000000000600052601160045260246000fd5b7f4e487b7100000000000000000000000000000000000000000000000000000000600052602160045260246000fd5b7f4e487b7100000000000000000000000000000000000000000000000000000000600052602260045260246000fd5b6000601f19601f8301169050919050565b7f4f6e6c7920697373756572206f66207468697320626f756e74792063616e207260008201527f65636c61696d2066756e64732061667465722033302064617973000000000000602082015250565b7f4f776e61626c653a206e6577206f776e657220697320746865207a65726f206160008201527f6464726573730000000000000000000000000000000000000000000000000000602082015250565b7f5468697320697320697373756520697320636c6f7365642e2043616e6e6f742060008201527f776974686472617720616761696e2e0000000000000000000000000000000000602082015250565b7f4f776e61626c653a2063616c6c6572206973206e6f7420746865206f776e6572600082015250565b7f546f6f206561726c7920746f2077697468647261772066756e64730000000000600082015250565b6002811061140557611404611246565b5b50565b611411816110fc565b811461141c57600080fd5b50565b6114288161110e565b811461143357600080fd5b50565b6002811061144357600080fd5b50565b61144f8161114d565b811461145a57600080fd5b5056fea26469706673582212201b43627ed8eba1ce35980a8b74049a977e32962f5015ad6966b4149a788ca1dd64736f6c63430008040033",
  "linkReferences": {},
  "deployedLinkReferences": {}
}