{
  "_format": "hh-sol-artifact-1",
  "contractName": "Issue",
  "sourceName": "contracts/Issue.sol",
  "abi": [
    {
      "inputs": [
        {
          "internalType": "string",
          "name": "_id",
          "type": "string"
        },
        {
          "internalType": "address[]",
          "name": "_tokenAddresses",
          "type": "address[]"
        }
      ],
      "stateMutability": "nonpayable",
      "type": "constructor"
    },
    {
      "inputs": [],
      "name": "closer",
      "outputs": [
        {
          "internalType": "address",
          "name": "",
          "type": "address"
        }
      ],
      "stateMutability": "view",
      "type": "function"
    },
    {
      "inputs": [
        {
          "internalType": "address",
          "name": "_tokenAddress",
          "type": "address"
        }
      ],
      "name": "getERC20Balance",
      "outputs": [
        {
          "internalType": "uint256",
          "name": "balance",
          "type": "uint256"
        }
      ],
      "stateMutability": "view",
      "type": "function"
    },
    {
      "inputs": [],
      "name": "id",
      "outputs": [
        {
          "internalType": "string",
          "name": "",
          "type": "string"
        }
      ],
      "stateMutability": "view",
      "type": "function"
    },
    {
      "inputs": [],
      "name": "owner",
      "outputs": [
        {
          "internalType": "address",
          "name": "",
          "type": "address"
        }
      ],
      "stateMutability": "view",
      "type": "function"
    },
    {
      "inputs": [],
      "name": "status",
      "outputs": [
        {
          "internalType": "enum Issue.IssueStatus",
          "name": "",
          "type": "uint8"
        }
      ],
      "stateMutability": "view",
      "type": "function"
    },
    {
      "inputs": [
        {
          "internalType": "uint256",
          "name": "",
          "type": "uint256"
        }
      ],
      "name": "tokenAddresses",
      "outputs": [
        {
          "internalType": "address",
          "name": "",
          "type": "address"
        }
      ],
      "stateMutability": "view",
      "type": "function"
    },
    {
      "inputs": [
        {
          "internalType": "address",
          "name": "_payoutAddress",
          "type": "address"
        }
      ],
      "name": "transferAllERC20",
      "outputs": [],
      "stateMutability": "nonpayable",
      "type": "function"
    }
  ],
  "bytecode": "0x60806040523480156200001157600080fd5b50604051620012ba380380620012ba83398181016040528101906200003791906200036e565b81600090805190602001906200004f92919062000104565b5033600160006101000a81548173ffffffffffffffffffffffffffffffffffffffff021916908373ffffffffffffffffffffffffffffffffffffffff1602179055508060039080519060200190620000a992919062000195565b506000600460006101000a81548160ff02191690836001811115620000f7577f4e487b7100000000000000000000000000000000000000000000000000000000600052602160045260246000fd5b02179055505050620005ce565b8280546200011290620004d9565b90600052602060002090601f01602090048101928262000136576000855562000182565b82601f106200015157805160ff191683800117855562000182565b8280016001018555821562000182579182015b828111156200018157825182559160200191906001019062000164565b5b50905062000191919062000224565b5090565b82805482825590600052602060002090810192821562000211579160200282015b82811115620002105782518260006101000a81548173ffffffffffffffffffffffffffffffffffffffff021916908373ffffffffffffffffffffffffffffffffffffffff16021790555091602001919060010190620001b6565b5b50905062000220919062000224565b5090565b5b808211156200023f57600081600090555060010162000225565b5090565b60006200025a62000254846200040a565b620003e1565b905080838252602082019050828560208602820111156200027a57600080fd5b60005b85811015620002ae5781620002938882620002fd565b8452602084019350602083019250506001810190506200027d565b5050509392505050565b6000620002cf620002c98462000439565b620003e1565b905082815260208101848484011115620002e857600080fd5b620002f5848285620004a3565b509392505050565b6000815190506200030e81620005b4565b92915050565b600082601f8301126200032657600080fd5b81516200033884826020860162000243565b91505092915050565b600082601f8301126200035357600080fd5b815162000365848260208601620002b8565b91505092915050565b600080604083850312156200038257600080fd5b600083015167ffffffffffffffff8111156200039d57600080fd5b620003ab8582860162000341565b925050602083015167ffffffffffffffff811115620003c957600080fd5b620003d78582860162000314565b9150509250929050565b6000620003ed62000400565b9050620003fb82826200050f565b919050565b6000604051905090565b600067ffffffffffffffff82111562000428576200042762000574565b5b602082029050602081019050919050565b600067ffffffffffffffff82111562000457576200045662000574565b5b6200046282620005a3565b9050602081019050919050565b60006200047c8262000483565b9050919050565b600073ffffffffffffffffffffffffffffffffffffffff82169050919050565b60005b83811015620004c3578082015181840152602081019050620004a6565b83811115620004d3576000848401525b50505050565b60006002820490506001821680620004f257607f821691505b6020821081141562000509576200050862000545565b5b50919050565b6200051a82620005a3565b810181811067ffffffffffffffff821117156200053c576200053b62000574565b5b80604052505050565b7f4e487b7100000000000000000000000000000000000000000000000000000000600052602260045260246000fd5b7f4e487b7100000000000000000000000000000000000000000000000000000000600052604160045260246000fd5b6000601f19601f8301169050919050565b620005bf816200046f565b8114620005cb57600080fd5b50565b610cdc80620005de6000396000f3fe608060405234801561001057600080fd5b506004361061007d5760003560e01c80639375dd901161005b5780639375dd90146100dc578063af640d0f146100f8578063b588d22514610116578063e5df8b84146101465761007d565b8063200d2ed2146100825780637044f282146100a05780638da5cb5b146100be575b600080fd5b61008a610176565b6040516100979190610958565b60405180910390f35b6100a8610189565b6040516100b59190610914565b60405180910390f35b6100c66101af565b6040516100d39190610914565b60405180910390f35b6100f660048036038101906100f1919061079b565b6101d5565b005b6101006105ce565b60405161010d9190610973565b60405180910390f35b610130600480360381019061012b919061079b565b61065c565b60405161013d91906109d5565b60405180910390f35b610160600480360381019061015b9190610816565b6106f3565b60405161016d9190610914565b60405180910390f35b600460009054906101000a900460ff1681565b600260009054906101000a900473ffffffffffffffffffffffffffffffffffffffff1681565b600160009054906101000a900473ffffffffffffffffffffffffffffffffffffffff1681565b600160009054906101000a900473ffffffffffffffffffffffffffffffffffffffff1673ffffffffffffffffffffffffffffffffffffffff163373ffffffffffffffffffffffffffffffffffffffff1614610265576040517f08c379a000000000000000000000000000000000000000000000000000000000815260040161025c906109b5565b60405180910390fd5b6000600181111561029f577f4e487b7100000000000000000000000000000000000000000000000000000000600052602160045260246000fd5b3073ffffffffffffffffffffffffffffffffffffffff1663200d2ed26040518163ffffffff1660e01b815260040160206040518083038186803b1580156102e557600080fd5b505afa1580156102f9573d6000803e3d6000fd5b505050506040513d601f19601f8201168201806040525081019061031d91906107ed565b6001811115610355577f4e487b7100000000000000000000000000000000000000000000000000000000600052602160045260246000fd5b14610395576040517f08c379a000000000000000000000000000000000000000000000000000000000815260040161038c90610995565b60405180910390fd5b60005b600380549050811015610538576000600382815481106103e1577f4e487b7100000000000000000000000000000000000000000000000000000000600052603260045260246000fd5b9060005260206000200160009054906101000a900473ffffffffffffffffffffffffffffffffffffffff1690508073ffffffffffffffffffffffffffffffffffffffff1663a9059cbb848373ffffffffffffffffffffffffffffffffffffffff166370a08231306040518263ffffffff1660e01b81526004016104649190610914565b60206040518083038186803b15801561047c57600080fd5b505afa158015610490573d6000803e3d6000fd5b505050506040513d601f19601f820116820180604052508101906104b4919061083f565b6040518363ffffffff1660e01b81526004016104d192919061092f565b602060405180830381600087803b1580156104eb57600080fd5b505af11580156104ff573d6000803e3d6000fd5b505050506040513d601f19601f8201168201806040525081019061052391906107c4565b5050808061053090610ade565b915050610398565b506001600460006101000a81548160ff02191690836001811115610585577f4e487b7100000000000000000000000000000000000000000000000000000000600052602160045260246000fd5b021790555080600260006101000a81548173ffffffffffffffffffffffffffffffffffffffff021916908373ffffffffffffffffffffffffffffffffffffffff16021790555050565b600080546105db90610aac565b80601f016020809104026020016040519081016040528092919081815260200182805461060790610aac565b80156106545780601f1061062957610100808354040283529160200191610654565b820191906000526020600020905b81548152906001019060200180831161063757829003601f168201915b505050505081565b6000808290508073ffffffffffffffffffffffffffffffffffffffff166370a08231306040518263ffffffff1660e01b815260040161069b9190610914565b60206040518083038186803b1580156106b357600080fd5b505afa1580156106c7573d6000803e3d6000fd5b505050506040513d601f19601f820116820180604052508101906106eb919061083f565b915050919050565b6003818154811061070357600080fd5b906000526020600020016000915054906101000a900473ffffffffffffffffffffffffffffffffffffffff1681565b60008135905061074181610c51565b92915050565b60008151905061075681610c68565b92915050565b60008151905061076b81610c7f565b92915050565b60008135905061078081610c8f565b92915050565b60008151905061079581610c8f565b92915050565b6000602082840312156107ad57600080fd5b60006107bb84828501610732565b91505092915050565b6000602082840312156107d657600080fd5b60006107e484828501610747565b91505092915050565b6000602082840312156107ff57600080fd5b600061080d8482850161075c565b91505092915050565b60006020828403121561082857600080fd5b600061083684828501610771565b91505092915050565b60006020828403121561085157600080fd5b600061085f84828501610786565b91505092915050565b61087181610a0c565b82525050565b61088081610a67565b82525050565b6000610891826109f0565b61089b81856109fb565b93506108ab818560208601610a79565b6108b481610bb4565b840191505092915050565b60006108cc602f836109fb565b91506108d782610bc5565b604082019050919050565b60006108ef601f836109fb565b91506108fa82610c14565b602082019050919050565b61090e81610a5d565b82525050565b60006020820190506109296000830184610868565b92915050565b60006040820190506109446000830185610868565b6109516020830184610905565b9392505050565b600060208201905061096d6000830184610877565b92915050565b6000602082019050818103600083015261098d8184610886565b905092915050565b600060208201905081810360008301526109ae816108bf565b9050919050565b600060208201905081810360008301526109ce816108e2565b9050919050565b60006020820190506109ea6000830184610905565b92915050565b600081519050919050565b600082825260208201905092915050565b6000610a1782610a3d565b9050919050565b60008115159050919050565b6000819050610a3882610c3d565b919050565b600073ffffffffffffffffffffffffffffffffffffffff82169050919050565b6000819050919050565b6000610a7282610a2a565b9050919050565b60005b83811015610a97578082015181840152602081019050610a7c565b83811115610aa6576000848401525b50505050565b60006002820490506001821680610ac457607f821691505b60208210811415610ad857610ad7610b85565b5b50919050565b6000610ae982610a5d565b91507fffffffffffffffffffffffffffffffffffffffffffffffffffffffffffffffff821415610b1c57610b1b610b27565b5b600182019050919050565b7f4e487b7100000000000000000000000000000000000000000000000000000000600052601160045260246000fd5b7f4e487b7100000000000000000000000000000000000000000000000000000000600052602160045260246000fd5b7f4e487b7100000000000000000000000000000000000000000000000000000000600052602260045260246000fd5b6000601f19601f8301169050919050565b7f5468697320697320697373756520697320636c6f7365642e2043616e6e6f742060008201527f776974686472617720616761696e2e0000000000000000000000000000000000602082015250565b7f4f6e6c792063616c6c61626c65206279204f70656e5120636f6e747261637400600082015250565b60028110610c4e57610c4d610b56565b5b50565b610c5a81610a0c565b8114610c6557600080fd5b50565b610c7181610a1e565b8114610c7c57600080fd5b50565b60028110610c8c57600080fd5b50565b610c9881610a5d565b8114610ca357600080fd5b5056fea264697066735822122075a25b01f045ca219b1c32c95e0e5a0dbae2213d2c4ae04a21c650321f24168b64736f6c63430008040033",
  "linkReferences": {},
  "deployedLinkReferences": {}
}